{
  "contractName": "AgeUpdater",
  "abi": [
    {
      "inputs": [
        {
          "internalType": "contract IUserAgeManager",
          "name": "ageManager",
          "type": "address"
        },
        {
          "internalType": "uint256",
          "name": "_age",
          "type": "uint256"
        }
      ],
      "name": "updateUserAgeV1",
      "outputs": [],
      "stateMutability": "nonpayable",
      "type": "function"
    },
    {
      "inputs": [
        {
          "internalType": "address",
          "name": "ageManager",
          "type": "address"
        },
        {
          "internalType": "uint256",
          "name": "_age",
          "type": "uint256"
        }
      ],
      "name": "updateUserAgeV2",
      "outputs": [],
      "stateMutability": "nonpayable",
      "type": "function"
    },
    {
      "inputs": [
        {
          "internalType": "address",
          "name": "ageManager",
          "type": "address"
        },
        {
          "internalType": "uint256",
          "name": "_age",
          "type": "uint256"
        }
      ],
      "name": "updateUserAgeV3",
      "outputs": [],
      "stateMutability": "nonpayable",
      "type": "function"
    }
  ],
  "bytecode": "0x608060405234801561001057600080fd5b5061048b806100206000396000f3fe608060405234801561001057600080fd5b50600436106100415760003560e01c80632eb340e214610046578063806d2153146100625780639b0a6d761461007e575b600080fd5b610060600480360381019061005b91906102e5565b61009a565b005b61007c600480360381019061007791906102e5565b610199565b005b61009860048036038101906100939190610363565b6101dd565b005b60008273ffffffffffffffffffffffffffffffffffffffff16826040516024016100c491906103b2565b6040516020818303038152906040527f19c52ea0000000000000000000000000000000000000000000000000000000007bffffffffffffffffffffffffffffffffffffffffffffffffffffffff19166020820180517bffffffffffffffffffffffffffffffffffffffffffffffffffffffff838183161783525050505060405161014e919061043e565b6000604051808303816000865af19150503d806000811461018b576040519150601f19603f3d011682016040523d82523d6000602084013e610190565b606091505b50509050505050565b60007f19c52ea0d4e5447d11aeee2c743a4b9080f18d17800347b011e0d2233081989490506004518181528260048201526000816024836000886000f15050505050565b8173ffffffffffffffffffffffffffffffffffffffff166319c52ea0826040518263ffffffff1660e01b815260040161021691906103b2565b600060405180830381600087803b15801561023057600080fd5b505af1158015610244573d6000803e3d6000fd5b505050505050565b600080fd5b600073ffffffffffffffffffffffffffffffffffffffff82169050919050565b600061027c82610251565b9050919050565b61028c81610271565b811461029757600080fd5b50565b6000813590506102a981610283565b92915050565b6000819050919050565b6102c2816102af565b81146102cd57600080fd5b50565b6000813590506102df816102b9565b92915050565b600080604083850312156102fc576102fb61024c565b5b600061030a8582860161029a565b925050602061031b858286016102d0565b9150509250929050565b600061033082610271565b9050919050565b61034081610325565b811461034b57600080fd5b50565b60008135905061035d81610337565b92915050565b6000806040838503121561037a5761037961024c565b5b60006103888582860161034e565b9250506020610399858286016102d0565b9150509250929050565b6103ac816102af565b82525050565b60006020820190506103c760008301846103a3565b92915050565b600081519050919050565b600081905092915050565b60005b838110156104015780820151818401526020810190506103e6565b60008484015250505050565b6000610418826103cd565b61042281856103d8565b93506104328185602086016103e3565b80840191505092915050565b600061044a828461040d565b91508190509291505056fea26469706673582212201026b86d639023265fbd6757c84d60ab7d14a60de3109163ed0c39a72400ac4564736f6c63430008110033",
  "immutableReferences": {},
  "source": "pragma solidity ^0.8.0;\n\n\ncontract UserAgeManager{\n    uint256 public userAge;\n\n    function setUserAge(uint256 _age) external{\n        require(_age > 0 && _age < 150, \"Age must be between 1 and 149\");\n        userAge = _age;\n    }\n}\n\ninterface IUserAgeManager{\n    function setUserAge(uint256 _age) external;\n}\n\ncontract AgeUpdater{\n    function updateUserAgeV1(IUserAgeManager ageManager, uint256 _age) external{\n        ageManager.setUserAge(_age);\n    }\n\n    function updateUserAgeV2(address ageManager, uint256 _age) external{\n        (bool success, ) = ageManager.call(abi.encodeWithSignature(\"setUserAge(uint256)\", _age));\n    }\n\n    function updateUserAgeV3(address ageManager, uint256 _age) external{\n        bytes4 sig = bytes4(keccak256(\"setUserAge(uint256)\"));\n        assembly {\n            let x := mload(0x04)\n            mstore(x,sig)\n            mstore(add(x,0x04), _age)\n            let success := call(0, ageManager, 0, x, 0x24, x, 0)\n        }\n    }\n}\n\n",
  "sourcePath": "/home/stephensb/sb-labs/solidity-contracts/contracts/challenge/UpdateAge.sol",
  "compiler": {
    "name": "solc",
    "version": "0.8.17+commit.8df45f5f.Emscripten.clang"
  },
  "schemaVersion": "3.4.12",
  "updatedAt": "2023-11-23T01:54:13.749Z",
  "devdoc": {
    "kind": "dev",
    "methods": {},
    "version": 1
  },
  "userdoc": {
    "kind": "user",
    "methods": {},
    "version": 1
  }
}