{
  "contractName": "ArbitrumBridgeReceiver",
  "abi": [
    {
      "inputs": [],
      "name": "AlreadyInitialized",
      "type": "error"
    },
    {
      "inputs": [],
      "name": "BadData",
      "type": "error"
    },
    {
      "inputs": [],
      "name": "FailedToSendNativeToken",
      "type": "error"
    },
    {
      "inputs": [],
      "name": "InvalidProposalId",
      "type": "error"
    },
    {
      "inputs": [],
      "name": "InvalidTimelockAdmin",
      "type": "error"
    },
    {
      "inputs": [],
      "name": "ProposalNotExecutable",
      "type": "error"
    },
    {
      "inputs": [],
      "name": "TransactionAlreadyQueued",
      "type": "error"
    },
    {
      "inputs": [],
      "name": "TransferOutFailed",
      "type": "error"
    },
    {
      "inputs": [],
      "name": "Unauthorized",
      "type": "error"
    },
    {
      "anonymous": false,
      "inputs": [
        {
          "indexed": true,
          "internalType": "address",
          "name": "govTimelock",
          "type": "address"
        },
        {
          "indexed": true,
          "internalType": "address",
          "name": "localTimelock",
          "type": "address"
        }
      ],
      "name": "Initialized",
      "type": "event"
    },
    {
      "anonymous": false,
      "inputs": [
        {
          "indexed": true,
          "internalType": "address",
          "name": "rootMessageSender",
          "type": "address"
        },
        {
          "indexed": false,
          "internalType": "uint256",
          "name": "id",
          "type": "uint256"
        },
        {
          "indexed": false,
          "internalType": "address[]",
          "name": "targets",
          "type": "address[]"
        },
        {
          "indexed": false,
          "internalType": "uint256[]",
          "name": "values",
          "type": "uint256[]"
        },
        {
          "indexed": false,
          "internalType": "string[]",
          "name": "signatures",
          "type": "string[]"
        },
        {
          "indexed": false,
          "internalType": "bytes[]",
          "name": "calldatas",
          "type": "bytes[]"
        },
        {
          "indexed": false,
          "internalType": "uint256",
          "name": "eta",
          "type": "uint256"
        }
      ],
      "name": "ProposalCreated",
      "type": "event"
    },
    {
      "anonymous": false,
      "inputs": [
        {
          "indexed": true,
          "internalType": "uint256",
          "name": "id",
          "type": "uint256"
        }
      ],
      "name": "ProposalExecuted",
      "type": "event"
    },
    {
      "stateMutability": "payable",
      "type": "fallback"
    },
    {
      "inputs": [
        {
          "internalType": "uint256",
          "name": "proposalId",
          "type": "uint256"
        }
      ],
      "name": "executeProposal",
      "outputs": [],
      "stateMutability": "nonpayable",
      "type": "function"
    },
    {
      "inputs": [],
      "name": "govTimelock",
      "outputs": [
        {
          "internalType": "address",
          "name": "",
          "type": "address"
        }
      ],
      "stateMutability": "view",
      "type": "function"
    },
    {
      "inputs": [
        {
          "internalType": "address",
          "name": "_govTimelock",
          "type": "address"
        },
        {
          "internalType": "address",
          "name": "_localTimelock",
          "type": "address"
        }
      ],
      "name": "initialize",
      "outputs": [],
      "stateMutability": "nonpayable",
      "type": "function"
    },
    {
      "inputs": [],
      "name": "initialized",
      "outputs": [
        {
          "internalType": "bool",
          "name": "",
          "type": "bool"
        }
      ],
      "stateMutability": "view",
      "type": "function"
    },
    {
      "inputs": [],
      "name": "localTimelock",
      "outputs": [
        {
          "internalType": "address",
          "name": "",
          "type": "address"
        }
      ],
      "stateMutability": "view",
      "type": "function"
    },
    {
      "inputs": [],
      "name": "proposalCount",
      "outputs": [
        {
          "internalType": "uint256",
          "name": "",
          "type": "uint256"
        }
      ],
      "stateMutability": "view",
      "type": "function"
    },
    {
      "inputs": [
        {
          "internalType": "uint256",
          "name": "",
          "type": "uint256"
        }
      ],
      "name": "proposals",
      "outputs": [
        {
          "internalType": "uint256",
          "name": "id",
          "type": "uint256"
        },
        {
          "internalType": "uint256",
          "name": "eta",
          "type": "uint256"
        },
        {
          "internalType": "bool",
          "name": "executed",
          "type": "bool"
        }
      ],
      "stateMutability": "view",
      "type": "function"
    },
    {
      "inputs": [
        {
          "internalType": "uint256",
          "name": "proposalId",
          "type": "uint256"
        }
      ],
      "name": "state",
      "outputs": [
        {
          "internalType": "enum BaseBridgeReceiver.ProposalState",
          "name": "",
          "type": "uint8"
        }
      ],
      "stateMutability": "view",
      "type": "function"
    },
    {
      "inputs": [
        {
          "internalType": "address",
          "name": "recipient",
          "type": "address"
        }
      ],
      "name": "sweepNativeToken",
      "outputs": [],
      "stateMutability": "nonpayable",
      "type": "function"
    },
    {
      "inputs": [
        {
          "internalType": "address",
          "name": "recipient",
          "type": "address"
        },
        {
          "internalType": "address",
          "name": "asset",
          "type": "address"
        }
      ],
      "name": "sweepToken",
      "outputs": [],
      "stateMutability": "nonpayable",
      "type": "function"
    }
  ],
  "bytecode": "0x60808060405234610016576117b0908161001c8239f35b600080fdfe60806040526004361015610018575b610016610cb6565b005b6000803560e01c908163013cf08b146100e3575080630d61b519146100da578063158ef93e146100d157806322086dbe146100c8578063258836fe146100bf5780633e4f49e6146100b6578063485cc955146100ad578063824343dd146100a4578063b660c1561461009b5763da35c6640361000e5761009661065e565b61000e565b506100966105db565b506100966105b1565b50610096610473565b50610096610443565b5061009661036a565b50610096610307565b506100966102e0565b50610096610127565b3461012457602036600319011261012457604090600435815260036020522080549060ff60066005830154920154169160805260a052151560c05260606080f35b80fd5b50346102d05760203660031901126102d0576004803561014681610b27565b61014f81610423565b6102c057610167816000526003602052604060002090565b60068101805460ff19166001179055916003830192600191808201918381019160028201916005016000865b6101c5575b600088604051907f712ae1383f79ac853f8d882153778e0260ef8f03b504e2866e0593e04d2b291f8383a2f35b84548110156102bb57610285818760008c8989838a8f9961025081610249816102438f8261023361021e61026f9961021861020c61020c610239975460018060a01b031690565b6001600160a01b031690565b9e61075f565b905460039190911b1c6001600160a01b031690565b9a61075f565b90549060031b1c90565b9961075f565b509961075f565b508c5490604051998a9889978896630825f38f60e01b88528701610923565b03925af180156102ae575b61028b575b5061072c565b90610193565b6102a7903d806000833e61029f81836106d1565b8101906107f4565b503861027f565b6102b6610708565b61027a565b610198565b50604051633c7e994560e11b8152fd5b600080fd5b60009103126102d057565b50346102d05760003660031901126102d057602060ff60015460a01c166040519015158152f35b50346102d05760003660031901126102d0576000546040516001600160a01b039091168152602090f35b6001600160a01b038116036102d057565b60409060031901126102d05760043561035a81610331565b9060243561036781610331565b90565b50346102d05761037936610342565b60015461038e906001600160a01b031661020c565b3303610412576040516370a0823160e01b81523060048201526100169290916020836024816001600160a01b0385165afa928315610405575b6000936103d5575b50610c0a565b6103f791935060203d81116103fe575b6103ef81836106d1565b810190610b0c565b91386103cf565b503d6103e5565b61040d610708565b6103c7565b6040516282b42960e81b8152600490fd5b6003111561042d57565b634e487b7160e01b600052602160045260246000fd5b50346102d05760203660031901126102d057610460600435610b27565b604051600382101561042d576020918152f35b50346102d05761048236610342565b9061049360015460ff9060a01c1690565b6105a0576040516303e1469160e61b81526001600160a01b0383811691602081600481865afa908115610593575b600091610565575b50813091160361055357600080546001600160a01b0319166001600160a01b038516178155936105159060018060a01b03166bffffffffffffffffffffffff60a01b6001541617600155565b6001805460ff60a01b1916600160a01b17905560405192167f3cd5ec01b1ae7cfec6ca1863e2cd6aa25d6d1702825803ff2b7cc95010fffdc28484a3f35b6040516336e038cd60e21b8152600490fd5b610586915060203d811161058c575b61057e81836106d1565b8101906106f3565b386104c9565b503d610574565b61059b610708565b6104c1565b60405162dc149f60e41b8152600490fd5b50346102d05760003660031901126102d0576001546040516001600160a01b039091168152602090f35b50346102d05760203660031901126102d0576004356105f981610331565b6001546001600160a01b0316330361041257600080809247604051915af13d15610659573d61062781610794565b9061063560405192836106d1565b8152600060203d92013e5b1561064757005b60405163d1a4579f60e01b8152600490fd5b610640565b50346102d05760003660031901126102d0576020600254604051908152f35b50634e487b7160e01b600052604160045260246000fd5b60e0810190811067ffffffffffffffff8211176106b057604052565b6106b861067d565b604052565b67ffffffffffffffff81116106b057604052565b90601f8019910116810190811067ffffffffffffffff8211176106b057604052565b908160209103126102d0575161036781610331565b506040513d6000823e3d90fd5b50634e487b7160e01b600052601160045260246000fd5b600190600019811461073c570190565b610744610715565b0190565b50634e487b7160e01b600052603260045260246000fd5b8054821015610778575b60005260206000200190600090565b610780610748565b610769565b6040519061079282610694565b565b60209067ffffffffffffffff81116107b2575b601f01601f19160190565b6107ba61067d565b6107a7565b918091926000905b8282106107df5750116107d8575050565b6000910152565b915080602091830151818601520182916107c7565b6020818303126102d05780519067ffffffffffffffff82116102d0570181601f820112156102d057805161082781610794565b9261083560405194856106d1565b818452602082840101116102d05761036791602080850191016107bf565b90600182811c92168015610883575b602083101461086d57565b634e487b7160e01b600052602260045260246000fd5b91607f1691610862565b906000929180549161089e83610853565b91828252600193848116908160001461090057506001146108c0575b50505050565b90919394506000526020928360002092846000945b8386106108ec5750505050010190388080806108ba565b8054858701830152940193859082016108d5565b9294505050602093945060ff191683830152151560051b010190388080806108ba565b95949390608093610960936109529260018060a01b03168952602089015260a0604089015260a088019061088d565b90868203606088015261088d565b930152565b9060405191828154918282526020928383019160005283600020936000905b82821061099a57505050610792925003836106d1565b855484526001958601958895509381019390910190610984565b60209067ffffffffffffffff81116109ce575b60051b0190565b6109d661067d565b6109c7565b9081546109e7816109b4565b926040936109f7855191826106d1565b828152809460208092019260005281600020906000935b858510610a1d57505050505050565b60018481928451610a3981610a32818a61088d565b03826106d1565b815201930194019391610a0e565b90604051610a5481610694565b8092805482526001808201604051908192815490818452602080940192600052836000209160005b818110610af05750505050610792949383610ae993610aa160c09660069503836106d1565b860152610ab060028201610965565b6040860152610ac1600382016109db565b6060860152610ad2600482016109db565b6080860152600581015460a0860152015460ff1690565b1515910152565b83546001600160a01b0316855293850193928201928201610a7c565b908160209103126102d0575190565b8119811161073c570190565b60025481118015610c02575b610bf057610b4e610b53916000526003602052604060002090565b610a47565b60c081015115610b635750600290565b60a00151600154610bb291600491602090610b889061020c906001600160a01b031681565b6040516360d143f160e11b815293849182905afa918215610be3575b600092610bc3575b50610b1b565b421115610bbe57600190565b600090565b610bdc91925060203d81116103fe576103ef81836106d1565b9038610bac565b610beb610708565b610ba4565b604051630992f7ad60e01b8152600490fd5b508015610b33565b6001600160a01b03939290841690813b156102d05760405194859363a9059cbb60e01b855216600484015260248301528160446000958680945af18015610ca9575b610c90575b503d8015610c8557602014610c64575080fd5b90602081803e515b15610c7357565b60405163cefaffeb60e01b8152600490fd5b509050600019610c6c565b80610c9d610ca3926106bd565b806102d5565b38610c51565b610cb1610708565b610c4c565b7311110000000000000000000000000000000011113310611033575b600080546001600160a01b0373111100000000000000000000000000000000111019330181169291610d04911661020c565b820361041257610d1336611168565b90829493945185510361102157805185510361102157815185510361102157600192610d84610d4e61020c61020c875460018060a01b031690565b95604096875192838092630d48571f60e31b8252602095869160049586915afa908115611014575b8491610ff7575b5042610b1b565b9682815b610e2d575b5050509187610e1c7f216ba108683905cf17ff4c7b04b9711edbdf8ebf5cc06eeecee4b5d5e7c3c6d29998979593610e17610e289896610dd6610dd160025461072c565b600255565b60025490610de2610785565b958694838652850152868c8501528760608501528860808501528960a085015260c08401526000526003602052604060002090565b611584565b519551968796876116f4565b0390a2565b8a51811015610ff257838582808d8f828f8f8f8f84958d54610e549060018060a01b031690565b6001600160a01b031699610e679161123d565b516001600160a01b031694610e7b9161123d565b5196610e869161123d565b5193610e919161123d565b51935193849388850196610ea59488611284565b03601f1981018252610eb790826106d1565b5190208d5163f2b0653760e01b815287810191825293849291839190829060200103925af1908115610fe5575b8591610fb8575b50610fa857610f7f8189878a8f8f8f8a610f6a8f93928e93610f4f8b8f9e8f90610f4881610f42610f3582610f2f61020c61020c610f48995460018060a01b031690565b9f61123d565b516001600160a01b031690565b9b61123d565b519b61123d565b519051633a66f90160e01b8152998a98899788968701611284565b03925af18015610f9b575b610f85575061072c565b90610d88565b6102a790883d8a116103fe576103ef81836106d1565b610fa3610708565b610f75565b89516333108cbb60e01b81528390fd5b610fd89150863d8811610fde575b610fd081836106d1565b8101906112c1565b38610eeb565b503d610fc6565b610fed610708565b610ee4565b610d8d565b61100e9150853d87116103fe576103ef81836106d1565b38610d7d565b61101c610708565b610d76565b60405163a554dcdf60e01b8152600490fd5b61103b610715565b610cd2565b81601f820112156102d057803591611057836109b4565b9261106560405194856106d1565b808452602092838086019260051b8201019283116102d0578301905b82821061108f575050505090565b81358152908301908301611081565b9291926110aa82610794565b916110b860405193846106d1565b8294818452818301116102d0578281602093846000960137010152565b81601f820112156102d0578035906110ec826109b4565b926040926110fc845195866106d1565b808552602093848087019260051b850101938385116102d057858101925b85841061112b575050505050505090565b833567ffffffffffffffff81116102d057820185603f820112156102d057879161115d8783878680960135910161109e565b81520193019261111a565b608081126102d057600080359267ffffffffffffffff928385116112395780601f860112156112395784359461119d866109b4565b906111ab60405192836106d1565b868252602096878084019160051b83010191848311611235579088809201905b83821061121c5750505050943584811161121857816111e991611040565b9360403581811161121457826111fe916110d5565b93606035918211610124575090610367916110d5565b8480fd5b8380fd5b828091833561122a81610331565b8152019101906111cb565b8680fd5b8280fd5b6020918151811015611252575b60051b010190565b61125a610748565b61124a565b90602091611278815180928185528580860191016107bf565b601f01601f1916010190565b95949390608093610960936112b39260018060a01b03168952602089015260a0604089015260a088019061125f565b90868203606088015261125f565b908160209103126102d0575180151581036102d05790565b8181106112e4575050565b600081556001016112d9565b918181106112fd57505050565b61079292600052602060002091820191016112d9565b815191600160401b8311611365575b611331838354818555846112f0565b602080910191600052806000206000925b848410611350575050505050565b60018382829351855501920193019290611342565b61136d61067d565b611322565b9190601f811161138157505050565b610792926000526020600020906020601f840160051c830193106113ad575b601f0160051c01906112d9565b90915081906113a0565b919091825167ffffffffffffffff8111611487575b6113e0816113da8454610853565b84611372565b602080601f831160011461141c575081929394600092611411575b50508160011b916000199060031b1c1916179055565b0151905038806113fb565b90601f1983169561143285600052602060002090565b926000905b88821061146f57505083600195969710611456575b505050811b019055565b015160001960f88460031b161c1916905538808061144c565b80600185968294968601518155019501930190611437565b61148f61067d565b6113cc565b815191600160401b8311611577575b81548383558084106114f3575b506114c5602080920192600052602060002090565b6000925b8484106114d7575050505050565b600183826114e7839451866113b7565b019201930192906114c9565b6000838152846020822092830192015b8281106115115750506114b0565b8061151e60019254610853565b8061152b575b5001611503565b601f9081811184146115435750508281555b38611524565b836115659261155785600052602060002090565b920160051c820191016112d9565b6000818152602081208183555561153d565b61157f61067d565b6114a3565b90805182556001808301602090818401519180835193600160401b851161165e575b6115b5858554818755866112f0565b0191600052806000206000925b8484106116325750505050505090600661161f60c0846115ec604061079297015160028701611313565b6115fd606082015160038701611494565b61160e608082015160048701611494565b60a081015160058601550151151590565b91019060ff801983541691151516179055565b805182546001600160a01b0319166001600160a01b0391909116178255928501929085019082016115c2565b61166661067d565b6115a6565b90815180825260208080930193019160005b82811061168b575050505090565b83518552938101939281019260010161167d565b90815180825260208092019182818360051b85019501936000915b8483106116ca5750505050505090565b90919293949584806116e483856001950387528a5161125f565b98019301930191949392906116ba565b96959493929060c0880190885260209060c0828a015283518091528160e08a0194019160005b82811061175d5750505050610960926117418361174f938a60a098960360408c015261166b565b9088820360608a015261169f565b90868203608088015261169f565b83516001600160a01b03168652948101949281019260010161171a56fea264697066735822122086867dfde9c7af1c82c087dcc6065aa44d2cad2b890aaab08e95cb8dc054015764736f6c634300080f0033",
  "immutableReferences": {},
  "source": "// SPDX-License-Identifier: BUSL-1.1\npragma solidity 0.8.15;\n\nimport \"../SweepableBridgeReceiver.sol\";\nimport \"./AddressAliasHelper.sol\";\n\ncontract ArbitrumBridgeReceiver is SweepableBridgeReceiver {\n    fallback() external payable {\n        processMessage(AddressAliasHelper.undoL1ToL2Alias(msg.sender), msg.data);\n    }\n}",
  "sourcePath": "/home/stephensb/sb-labs/solidity-contracts/contracts/comet/contracts/bridges/arbitrum/ArbitrumBridgeReceiver.sol",
  "compiler": {
    "name": "solc",
    "version": "0.8.15+commit.e14f2714.Emscripten.clang"
  },
  "schemaVersion": "3.4.12",
  "updatedAt": "2023-11-30T22:41:29.682Z",
  "devdoc": {
    "kind": "dev",
    "methods": {
      "executeProposal(uint256)": {
        "params": {
          "proposalId": "The id of the proposal to execute"
        }
      },
      "initialize(address,address)": {
        "params": {
          "_govTimelock": "Address of the governing contract that this contract will receive messages from (likely on another chain)",
          "_localTimelock": "Address of the timelock contract that this contract will send messages to"
        }
      },
      "state(uint256)": {
        "params": {
          "proposalId": "Id of the proposal"
        },
        "returns": {
          "_0": "The state of the given proposal (queued, expired or executed)"
        }
      },
      "sweepNativeToken(address)": {
        "params": {
          "recipient": "The address that will receive the swept funds"
        }
      },
      "sweepToken(address,address)": {
        "details": "Note: Make sure to check that the asset being swept out is not malicious",
        "params": {
          "asset": "The address of the ERC-20 token to sweep",
          "recipient": "The address that will receive the swept funds"
        }
      }
    },
    "version": 1
  },
  "userdoc": {
    "errors": {
      "AlreadyInitialized()": [
        {
          "notice": "Custom errors *"
        }
      ]
    },
    "events": {
      "Initialized(address,address)": {
        "notice": "Events *"
      }
    },
    "kind": "user",
    "methods": {
      "executeProposal(uint256)": {
        "notice": "Execute a queued proposal"
      },
      "govTimelock()": {
        "notice": "Address of the governing contract that this bridge receiver expects to  receive messages from; likely an address from another chain (e.g. mainnet)"
      },
      "initialize(address,address)": {
        "notice": "Initialize the contract"
      },
      "initialized()": {
        "notice": "Whether contract has been initialized"
      },
      "localTimelock()": {
        "notice": "Address of the timelock on this chain that the bridge receiver will send messages to"
      },
      "proposalCount()": {
        "notice": "Total count of proposals generated"
      },
      "proposals(uint256)": {
        "notice": "Mapping of proposal ids to their full proposal data"
      },
      "state(uint256)": {
        "notice": "Get the state of a proposal"
      },
      "sweepNativeToken(address)": {
        "notice": "A public function to sweep accidental native token transfers to this contract"
      },
      "sweepToken(address,address)": {
        "notice": "A public function to sweep accidental ERC-20 transfers to this contract"
      }
    },
    "version": 1
  }
}