{
  "contractName": "Asset",
  "abi": [
    {
      "inputs": [
        {
          "internalType": "uint8",
          "name": "_assetType",
          "type": "uint8"
        }
      ],
      "stateMutability": "nonpayable",
      "type": "constructor"
    },
    {
      "inputs": [],
      "name": "assetType",
      "outputs": [
        {
          "internalType": "uint8",
          "name": "",
          "type": "uint8"
        }
      ],
      "stateMutability": "view",
      "type": "function"
    },
    {
      "inputs": [],
      "name": "distributor",
      "outputs": [
        {
          "internalType": "address",
          "name": "",
          "type": "address"
        }
      ],
      "stateMutability": "view",
      "type": "function"
    }
  ],
  "bytecode": "0x60c060405234801561001057600080fd5b5060405161029c38038061029c83398181016040528101906100329190610095565b3373ffffffffffffffffffffffffffffffffffffffff1660808173ffffffffffffffffffffffffffffffffffffffff1660601b815250508060ff1660a08160ff1660f81b81525050506100eb565b60008151905061008f816100d4565b92915050565b6000602082840312156100ab576100aa6100cf565b5b60006100b984828501610080565b91505092915050565b600060ff82169050919050565b600080fd5b6100dd816100c2565b81146100e857600080fd5b50565b60805160601c60a05160f81c6101886101146000396000607901526000609d01526101886000f3fe608060405234801561001057600080fd5b50600436106100365760003560e01c80633fe3347a1461003b578063bfe1092814610059575b600080fd5b610043610077565b60405161005091906100f8565b60405180910390f35b61006161009b565b60405161006e91906100dd565b60405180910390f35b7f000000000000000000000000000000000000000000000000000000000000000081565b7f000000000000000000000000000000000000000000000000000000000000000081565b6100c881610113565b82525050565b6100d781610145565b82525050565b60006020820190506100f260008301846100bf565b92915050565b600060208201905061010d60008301846100ce565b92915050565b600061011e82610125565b9050919050565b600073ffffffffffffffffffffffffffffffffffffffff82169050919050565b600060ff8216905091905056fea264697066735822122025772033391b9354d3445acafef5543b872679b2813fcf920054c32f22bdec7d64736f6c63430008050033",
  "immutableReferences": {
    "3585": [
      {
        "length": 32,
        "start": 157
      }
    ],
    "3587": [
      {
        "length": 32,
        "start": 121
      }
    ]
  },
  "source": "// SPDX-License-Identifier: MIT\npragma solidity ^0.8.5;\n\ncontract Asset{\n\n    address public immutable distributor;\n\n    uint8 public immutable assetType;\n\n    modifier onlyDistributor{\n        require(msg.sender == distributor, \"Only asset distributor can call this function.\");\n        _;\n    }\n\n    constructor(uint8 _assetType){\n        distributor = msg.sender;\n        assetType = _assetType;\n    }\n}",
  "sourcePath": "/home/stephensb/sb-labs/solidity-contracts/contracts/nft-protocol/nft-types/Asset.sol",
  "compiler": {
    "name": "solc",
    "version": "0.8.5+commit.a4f2e591.Emscripten.clang"
  },
  "schemaVersion": "3.4.11",
  "updatedAt": "2022-12-20T19:11:29.758Z",
  "devdoc": {
    "kind": "dev",
    "methods": {},
    "version": 1
  },
  "userdoc": {
    "kind": "user",
    "methods": {},
    "version": 1
  }
}