{
  "contractName": "BalanceDeltaLibrary",
  "abi": [
    {
      "inputs": [],
      "name": "MAXIMUM_DELTA",
      "outputs": [
        {
          "internalType": "BalanceDelta",
          "name": "",
          "type": "int256"
        }
      ],
      "stateMutability": "view",
      "type": "function"
    }
  ],
  "bytecode": "0x60808060405234601857606f908161001d823930815050f35b5f80fdfe60808060405260043610156011575f80fd5b5f3560e01c62cc10c3146022575f80fd5b5f3660031901126035575f198152602090f35b5f80fdfea26469706673582212202e14e2471a56e0333e101f652e10dcc01aaad4ba4e410914311b81e9e72302e664736f6c63430008170033",
  "immutableReferences": {},
  "source": "// SPDX-License-Identifier: MIT\npragma solidity ^0.8.20;\n\ntype BalanceDelta is int256;\n\nusing {add as +, sub as -, eq as ==} for BalanceDelta global;\nusing BalanceDeltaLibrary for BalanceDelta global;\n\nfunction toBalanceDelta(int128 _amount0, int128 _amount1) pure returns (BalanceDelta balanceDelta) {\n    /// @solidity memory-safe-assembly\n    assembly {\n        balanceDelta :=\n            or(shl(128, _amount0), and(0x00000000000000000000000000000000ffffffffffffffffffffffffffffffff, _amount1))\n    }\n}\n\nfunction add(BalanceDelta a, BalanceDelta b) pure returns (BalanceDelta) {\n    return toBalanceDelta(a.amount0() + b.amount0(), a.amount1() + b.amount1());\n}\n\nfunction sub(BalanceDelta a, BalanceDelta b) pure returns (BalanceDelta) {\n    return toBalanceDelta(a.amount0() - b.amount0(), a.amount1() - b.amount1());\n}\n\nfunction eq(BalanceDelta a, BalanceDelta b) pure returns (bool) {\n    return a.amount0() == b.amount0() && a.amount1() == b.amount1();\n}\n\nlibrary BalanceDeltaLibrary {\n    // Sentinel return value used to signify that a NoOp occurred.\n    BalanceDelta public constant MAXIMUM_DELTA = BalanceDelta.wrap(int256(type(uint256).max));\n\n    function amount0(BalanceDelta balanceDelta) internal pure returns (int128 _amount0) {\n        /// @solidity memory-safe-assembly\n        assembly {\n            _amount0 := shr(128, balanceDelta)\n        }\n    }\n\n    function amount1(BalanceDelta balanceDelta) internal pure returns (int128 _amount1) {\n        /// @solidity memory-safe-assembly\n        assembly {\n            _amount1 := balanceDelta\n        }\n    }\n}\n",
  "sourcePath": "/home/stephensb/sb-labs/solidity-contracts/contracts/v4-core/src/types/BalanceDelta.sol",
  "compiler": {
    "name": "solc",
    "version": "0.8.23+commit.f704f362.Emscripten.clang"
  },
  "schemaVersion": "3.4.12",
  "updatedAt": "2024-01-13T17:30:44.268Z",
  "devdoc": {
    "kind": "dev",
    "methods": {},
    "version": 1
  },
  "userdoc": {
    "kind": "user",
    "methods": {},
    "version": 1
  }
}