{
  "contractName": "BaseBridgeReceiverHarness",
  "abi": [
    {
      "inputs": [],
      "name": "AlreadyInitialized",
      "type": "error"
    },
    {
      "inputs": [],
      "name": "BadData",
      "type": "error"
    },
    {
      "inputs": [],
      "name": "InvalidProposalId",
      "type": "error"
    },
    {
      "inputs": [],
      "name": "InvalidTimelockAdmin",
      "type": "error"
    },
    {
      "inputs": [],
      "name": "ProposalNotExecutable",
      "type": "error"
    },
    {
      "inputs": [],
      "name": "TransactionAlreadyQueued",
      "type": "error"
    },
    {
      "inputs": [],
      "name": "Unauthorized",
      "type": "error"
    },
    {
      "anonymous": false,
      "inputs": [
        {
          "indexed": true,
          "internalType": "address",
          "name": "govTimelock",
          "type": "address"
        },
        {
          "indexed": true,
          "internalType": "address",
          "name": "localTimelock",
          "type": "address"
        }
      ],
      "name": "Initialized",
      "type": "event"
    },
    {
      "anonymous": false,
      "inputs": [
        {
          "indexed": true,
          "internalType": "address",
          "name": "rootMessageSender",
          "type": "address"
        },
        {
          "indexed": false,
          "internalType": "uint256",
          "name": "id",
          "type": "uint256"
        },
        {
          "indexed": false,
          "internalType": "address[]",
          "name": "targets",
          "type": "address[]"
        },
        {
          "indexed": false,
          "internalType": "uint256[]",
          "name": "values",
          "type": "uint256[]"
        },
        {
          "indexed": false,
          "internalType": "string[]",
          "name": "signatures",
          "type": "string[]"
        },
        {
          "indexed": false,
          "internalType": "bytes[]",
          "name": "calldatas",
          "type": "bytes[]"
        },
        {
          "indexed": false,
          "internalType": "uint256",
          "name": "eta",
          "type": "uint256"
        }
      ],
      "name": "ProposalCreated",
      "type": "event"
    },
    {
      "anonymous": false,
      "inputs": [
        {
          "indexed": true,
          "internalType": "uint256",
          "name": "id",
          "type": "uint256"
        }
      ],
      "name": "ProposalExecuted",
      "type": "event"
    },
    {
      "inputs": [
        {
          "internalType": "uint256",
          "name": "proposalId",
          "type": "uint256"
        }
      ],
      "name": "executeProposal",
      "outputs": [],
      "stateMutability": "nonpayable",
      "type": "function"
    },
    {
      "inputs": [],
      "name": "govTimelock",
      "outputs": [
        {
          "internalType": "address",
          "name": "",
          "type": "address"
        }
      ],
      "stateMutability": "view",
      "type": "function"
    },
    {
      "inputs": [
        {
          "internalType": "address",
          "name": "_govTimelock",
          "type": "address"
        },
        {
          "internalType": "address",
          "name": "_localTimelock",
          "type": "address"
        }
      ],
      "name": "initialize",
      "outputs": [],
      "stateMutability": "nonpayable",
      "type": "function"
    },
    {
      "inputs": [],
      "name": "initialized",
      "outputs": [
        {
          "internalType": "bool",
          "name": "",
          "type": "bool"
        }
      ],
      "stateMutability": "view",
      "type": "function"
    },
    {
      "inputs": [],
      "name": "localTimelock",
      "outputs": [
        {
          "internalType": "address",
          "name": "",
          "type": "address"
        }
      ],
      "stateMutability": "view",
      "type": "function"
    },
    {
      "inputs": [],
      "name": "proposalCount",
      "outputs": [
        {
          "internalType": "uint256",
          "name": "",
          "type": "uint256"
        }
      ],
      "stateMutability": "view",
      "type": "function"
    },
    {
      "inputs": [
        {
          "internalType": "uint256",
          "name": "",
          "type": "uint256"
        }
      ],
      "name": "proposals",
      "outputs": [
        {
          "internalType": "uint256",
          "name": "id",
          "type": "uint256"
        },
        {
          "internalType": "uint256",
          "name": "eta",
          "type": "uint256"
        },
        {
          "internalType": "bool",
          "name": "executed",
          "type": "bool"
        }
      ],
      "stateMutability": "view",
      "type": "function"
    },
    {
      "inputs": [
        {
          "internalType": "uint256",
          "name": "proposalId",
          "type": "uint256"
        }
      ],
      "name": "state",
      "outputs": [
        {
          "internalType": "enum BaseBridgeReceiver.ProposalState",
          "name": "",
          "type": "uint8"
        }
      ],
      "stateMutability": "view",
      "type": "function"
    },
    {
      "inputs": [
        {
          "internalType": "address",
          "name": "rootMessageSender",
          "type": "address"
        },
        {
          "internalType": "bytes",
          "name": "data",
          "type": "bytes"
        }
      ],
      "name": "processMessageExternal",
      "outputs": [],
      "stateMutability": "nonpayable",
      "type": "function"
    }
  ],
  "bytecode": "0x608080604052346100165761162e908161001c8239f35b600080fdfe608080604052600436101561001357600080fd5b60003560e01c908163013cf08b14611026575080630d61b51914610e33578063158ef93e14610e0d57806322086dbe14610de45780633e4f49e614610d9f578063485cc95514610c7d578063824343dd14610c54578063da35c66414610c365763e231ac361461008257600080fd5b3461049c57604036600319011261049c5761009b61106b565b6001600160401b036024351161049c5736602360243501121561049c57602435600401356001600160401b03811161049c57602435019036602483011161049c576000546001600160a01b0390811690821603610c2557608060243583031261049c576024803501356001600160401b03811161049c57602435016024830160438201121561049c5760248101359261013384611230565b91610141604051938461109c565b84835260208301906044829660051b8201019060248401821161049c57604401915b818310610c0557505050604460243501356001600160401b03811161049c5760243501916024820160438401121561049c576024830135936101a485611230565b936101b2604051958661109c565b858552602085016044819760051b8301019160248601831161049c57604401905b828210610bf557505050606460243501356001600160401b03811161049c57602484016043826024350101121561049c5760248181350101359161021683611230565b92610224604051948561109c565b8084526020840180936024880160448460051b836024350101011161049c576044816024350101915b60448460051b836024350101018310610ba7575050505060846024350135916001600160401b03831161049c57602486016043846024350101121561049c5761029c6024848135010135611230565b956102aa604051978861109c565b60248035850180820135808a5260208a01968793909290850160059290921b016044011161049c576044816024350101915b6024803583019081013560051b016044018310610b5657505050508651855103610b44578351855103610b44578551855103610b4457600154604051630d48571f60e31b815290602090829060049082906001600160a01b03165afa80156104a857600090610b10575b610351915042611247565b9760005b865181101561050157600060208860248c8c8f8c6103b96103c7926103a88b6103a1816103a18160018060a01b03600154169d6103998260018060a01b03926114fc565b51169b6114fc565b51966114fc565b516040519586948b86019889611535565b03601f19810183528261109c565b519020604051948593849263f2b0653760e01b845260048401525af19081156104a8576000916104c6575b506104b45789602089898960008e61045a61043b89610434816104348160018060a01b03600154169a61042c8260018060a01b03926114fc565b5116976114fc565b51976114fc565b519760405198899788968795633a66f90160e01b875260048701611535565b03925af180156104a857610478575b50610473906110bd565b610355565b602090813d83116104a1575b61048e818361109c565b8101031261049c5738610469565b600080fd5b503d610484565b6040513d6000823e3d90fd5b6040516333108cbb60e01b8152600490fd5b90506020813d6020116104f9575b816104e16020938361109c565b8101031261049c5751801515810361049c57386103f2565b3d91506104d4565b508893969192948a896105156002546110bd565b806002556040519061052682611081565b80825260208201908b82528360408401528560608401528760808401528960a0840152600060c084015260005260036020526040600020908251825551805190600160401b82116108d957602060018401916105878484548186558561158e565b019060005260206000206000915b838310610ae057505050506040820151805190600160401b82116108d957602060028401916105c98484548186558561158e565b019060005260206000206000915b838310610aca57505050506060820151805190600160401b82116108d9576003830154826003850155808310610a4b575b5060200190600383016000526020600020916000905b82821061096e57505050506080820151805190600160401b82116108d95760048301548260048501558083106108ef575b5060200190600483016000526020600020916000905b8282106107f6575050505060069060a083015160058201550160c0820151151560ff80198354169116179055516040519960c08b01918b5260c060208c01525180915260e08a01929060005b8181106107d75750505060209089830360408b0152519182815201929060005b8181106107c157505050868203606088015251808252602082019160208260051b82010194926000915b838310610794575050505050848203608086015251808252602082019160208260051b82010196926000915b8383106107675760a088018690526001600160a01b0387167f216ba108683905cf17ff4c7b04b9711edbdf8ebf5cc06eeecee4b5d5e7c3c6d2898b038aa2005b9091929397602080610785600193601f198682030187528c51611510565b9a019301930191939290610727565b90919293956020806107b2600193601f198682030187528a51611510565b980193019301919392906106fb565b82518552602094850194909201916001016106d1565b82516001600160a01b03168552602094850194909201916001016106b1565b80518051906001600160401b0382116108d95761081d826108178854611160565b886115b3565b602090601f831160011461086957928260019493602093869560009261085e575b5050600019600383901b1c191690841b1787555b01940191019092610665565b01519050388061083e565b908660005260206000209160005b601f19851681106108c1575083602093600196938796938794601f198116106108a8575b505050811b018755610852565b015160001960f88460031b161c1916905538808061089b565b91926020600181928685015181550194019201610877565b634e487b7160e01b600052604160045260246000fd5b600484016000526020600020908382015b818301811061091057505061064f565b8061091d60019254611160565b8061092a575b5001610900565b601f908181118414610943575050600081555b38610923565b8361095f92846000526020600020920160051c82019101611577565b6000602081208183555561093d565b80518051906001600160401b0382116108d95761098f826108178854611160565b602090601f83116001146109db5792826001949360209386956000926109d0575b5050600019600383901b1c191690841b1787555b0194019101909261061e565b0151905038806109b0565b908660005260206000209160005b601f1985168110610a33575083602093600196938796938794601f19811610610a1a575b505050811b0187556109c4565b015160001960f88460031b161c19169055388080610a0d565b919260206001819286850151815501940192016109e9565b600384016000526020600020908382015b8183018110610a6c575050610608565b80610a7960019254611160565b80610a86575b5001610a5c565b601f908181118414610a9f575050600081555b38610a7f565b83610abb92846000526020600020920160051c82019101611577565b60006020812081835555610a99565b60016020828293518555019201920191906105d7565b805182546001600160a01b0319166001600160a01b03919091161782556001928301929190910190602001610595565b506020813d602011610b3c575b81610b2a6020938361109c565b8101031261049c576103519051610346565b3d9150610b1d565b60405163a554dcdf60e01b8152600490fd5b82356001600160401b03811161049c576024850160638285602435010101121561049c576020918291610b9c9060248881019190358701016044810135906064016114c5565b8152019201916102dc565b82356001600160401b03811161049c578260243501019060248a0160638301121561049c5760208091610be860449460248e019060648782013591016114c5565b815201930192905061024d565b81358152602091820191016101d3565b82356001600160a01b038116810361049c57815260209283019201610163565b6040516282b42960e81b8152600490fd5b3461049c57600036600319011261049c576020600254604051908152f35b3461049c57600036600319011261049c576001546040516001600160a01b039091168152602090f35b3461049c57604036600319011261049c57610c9661106b565b6001600160a01b036024358181169081900361049c576001549160ff8360a01c16610d8e576040516303e1469160e61b8152602081600481865afa9081156104a857600091610d54575b508130911603610d4257600080546001600160a01b0319169190941690811784556001600160a81b03199092168117600160a01b17600155604051917f3cd5ec01b1ae7cfec6ca1863e2cd6aa25d6d1702825803ff2b7cc95010fffdc28484a3f35b6040516336e038cd60e21b8152600490fd5b90506020813d8211610d86575b81610d6e6020938361109c565b8101031261049c5751818116810361049c5785610ce0565b3d9150610d61565b60405162dc149f60e41b8152600490fd5b3461049c57602036600319011261049c57610dbb600435611253565b6040516003821015610dce576020918152f35b634e487b7160e01b600052602160045260246000fd5b3461049c57600036600319011261049c576000546040516001600160a01b039091168152602090f35b3461049c57600036600319011261049c57602060ff60015460a01c166040519015158152f35b3461049c576020600319818136011261049c5760043590610e5382611253565b9060039182811015610dce576110145760008381528285526040812060068101805460ff191660019081179091559360058201926004830192808301929160028201918801885b610ecc575b60008a604051907f712ae1383f79ac853f8d882153778e0260ef8f03b504e2866e0593e04d2b291f8383a2f35b805482101561100f5788546001600160a01b039081169290610eee82846110e2565b905490871b1c1692610f0082866110e2565b905490871b1c610f1083896110e2565b5094610f1c848b6110e2565b508b54908d6040519889958695630825f38f60e01b8752600487015260248601526044850160a0905260a48501610f529161119a565b90848203016064850152610f659161119a565b90608483015203815a6000948591f19283156104a8578a93610f92575b50610f8c906110bd565b91610e9a565b92503d806000853e610fa4818561109c565b8301928c8185031261049c578051906001600160401b03821161049c57019083601f8301121561049c578c825194610fdb86611110565b91610fe9604051938461109c565b868352868501011161049c578b94610f8c938f806110099401910161112b565b90610f82565b610e9f565b604051633c7e994560e11b8152600490fd5b3461049c57602036600319011261049c576060906004356000526003602052604060002080549060ff6006600583015492015416918352602083015215156040820152f35b600435906001600160a01b038216820361049c57565b60e081019081106001600160401b038211176108d957604052565b90601f801991011681019081106001600160401b038211176108d957604052565b60001981146110cc5760010190565b634e487b7160e01b600052601160045260246000fd5b80548210156110fa5760005260206000200190600090565b634e487b7160e01b600052603260045260246000fd5b6001600160401b0381116108d957601f01601f191660200190565b918091926000905b82821061114b575011611144575050565b6000910152565b91508060209183015181860152018291611133565b90600182811c92168015611190575b602083101461117a57565b634e487b7160e01b600052602260045260246000fd5b91607f169161116f565b90600092918054916111ab83611160565b91828252600193848116908160001461120d57506001146111cd575b50505050565b90919394506000526020928360002092846000945b8386106111f95750505050010190388080806111c7565b8054858701830152940193859082016111e2565b9294505050602093945060ff191683830152151560051b010190388080806111c7565b6001600160401b0381116108d95760051b60200190565b811981116110cc570190565b600254811180156114bd575b6114ab5760009081526020906003825260408082209080519361128185611081565b825485526001948584018351808285829454938481520190895285892092895b8b8883831061148d57505050506112ba9250038261109c565b82820152600284018351808285829454938481520190895285892092895b8b8883831061147857505050506112f19250038261109c565b8382015260038401805461130481611230565b916113118651938461109c565b81835287528387208790898685015b8785851061145657505050505050606082015260048401805461134281611230565b9161134f8651938461109c565b8183528752838720879089868086015b85851061142b575050505050509060c091608082015260ff60066005870154968760a0850152015416151591829101526000146113a0575050505050600290565b845482516360d143f160e11b815291908190839060049082906001600160a01b03165afa928315611422575084926113ee575b50506113de91611247565b4211156113e9575090565b905090565b90809250813d831161141b575b611405818361109c565b8101031261141757516113de386113d3565b8280fd5b503d6113fb565b513d86823e3d90fd5b9082918a516114458161143e818961119a565b038261109c565b815201920192019190868b9161135f565b82918a516114688161143e818961119a565b8152019201920191908a90611320565b865485529581019587955090930192016112d8565b86546001600160a01b031685529581019587955090930192016112a1565b604051630992f7ad60e01b8152600490fd5b50801561125f565b9291926114d182611110565b916114df604051938461109c565b82948184528183011161049c578281602093846000960137010152565b80518210156110fa5760209160051b010190565b906020916115298151809281855285808601910161112b565b601f01601f1916010190565b95949390608093611572936115649260018060a01b03168952602089015260a0604089015260a0880190611510565b908682036060880152611510565b930152565b818110611582575050565b60008155600101611577565b9181811061159b57505050565b6115b19260005260206000209182019101611577565b565b9190601f81116115c257505050565b6115b1926000526020600020906020601f840160051c830193106115ee575b601f0160051c0190611577565b90915081906115e156fea2646970667358221220677cddb4cb3ec101df43a1725448ed95893d11d3bec0bc15ec8e18304632a75e64736f6c634300080f0033",
  "immutableReferences": {},
  "source": "// SPDX-License-Identifier: BUSL-1.1\npragma solidity 0.8.15;\n\nimport \"../BaseBridgeReceiver.sol\";\n\ncontract BaseBridgeReceiverHarness is BaseBridgeReceiver {\n    function processMessageExternal(\n        address rootMessageSender,\n        bytes calldata data\n    ) external {\n        processMessage(rootMessageSender, data);\n    }\n}",
  "sourcePath": "/home/stephensb/sb-labs/solidity-contracts/contracts/comet/contracts/bridges/test/BaseBridgeReceiverHarness.sol",
  "compiler": {
    "name": "solc",
    "version": "0.8.15+commit.e14f2714.Emscripten.clang"
  },
  "schemaVersion": "3.4.12",
  "updatedAt": "2023-11-30T22:41:29.686Z",
  "devdoc": {
    "kind": "dev",
    "methods": {
      "executeProposal(uint256)": {
        "params": {
          "proposalId": "The id of the proposal to execute"
        }
      },
      "initialize(address,address)": {
        "params": {
          "_govTimelock": "Address of the governing contract that this contract will receive messages from (likely on another chain)",
          "_localTimelock": "Address of the timelock contract that this contract will send messages to"
        }
      },
      "state(uint256)": {
        "params": {
          "proposalId": "Id of the proposal"
        },
        "returns": {
          "_0": "The state of the given proposal (queued, expired or executed)"
        }
      }
    },
    "version": 1
  },
  "userdoc": {
    "errors": {
      "AlreadyInitialized()": [
        {
          "notice": "Custom errors *"
        }
      ]
    },
    "events": {
      "Initialized(address,address)": {
        "notice": "Events *"
      }
    },
    "kind": "user",
    "methods": {
      "executeProposal(uint256)": {
        "notice": "Execute a queued proposal"
      },
      "govTimelock()": {
        "notice": "Address of the governing contract that this bridge receiver expects to  receive messages from; likely an address from another chain (e.g. mainnet)"
      },
      "initialize(address,address)": {
        "notice": "Initialize the contract"
      },
      "initialized()": {
        "notice": "Whether contract has been initialized"
      },
      "localTimelock()": {
        "notice": "Address of the timelock on this chain that the bridge receiver will send messages to"
      },
      "proposalCount()": {
        "notice": "Total count of proposals generated"
      },
      "proposals(uint256)": {
        "notice": "Mapping of proposal ids to their full proposal data"
      },
      "state(uint256)": {
        "notice": "Get the state of a proposal"
      }
    },
    "version": 1
  }
}