{
  "contractName": "BaseBridgeReceiver",
  "abi": [
    {
      "inputs": [],
      "name": "AlreadyInitialized",
      "type": "error"
    },
    {
      "inputs": [],
      "name": "BadData",
      "type": "error"
    },
    {
      "inputs": [],
      "name": "InvalidProposalId",
      "type": "error"
    },
    {
      "inputs": [],
      "name": "InvalidTimelockAdmin",
      "type": "error"
    },
    {
      "inputs": [],
      "name": "ProposalNotExecutable",
      "type": "error"
    },
    {
      "inputs": [],
      "name": "TransactionAlreadyQueued",
      "type": "error"
    },
    {
      "inputs": [],
      "name": "Unauthorized",
      "type": "error"
    },
    {
      "anonymous": false,
      "inputs": [
        {
          "indexed": true,
          "internalType": "address",
          "name": "govTimelock",
          "type": "address"
        },
        {
          "indexed": true,
          "internalType": "address",
          "name": "localTimelock",
          "type": "address"
        }
      ],
      "name": "Initialized",
      "type": "event"
    },
    {
      "anonymous": false,
      "inputs": [
        {
          "indexed": true,
          "internalType": "address",
          "name": "rootMessageSender",
          "type": "address"
        },
        {
          "indexed": false,
          "internalType": "uint256",
          "name": "id",
          "type": "uint256"
        },
        {
          "indexed": false,
          "internalType": "address[]",
          "name": "targets",
          "type": "address[]"
        },
        {
          "indexed": false,
          "internalType": "uint256[]",
          "name": "values",
          "type": "uint256[]"
        },
        {
          "indexed": false,
          "internalType": "string[]",
          "name": "signatures",
          "type": "string[]"
        },
        {
          "indexed": false,
          "internalType": "bytes[]",
          "name": "calldatas",
          "type": "bytes[]"
        },
        {
          "indexed": false,
          "internalType": "uint256",
          "name": "eta",
          "type": "uint256"
        }
      ],
      "name": "ProposalCreated",
      "type": "event"
    },
    {
      "anonymous": false,
      "inputs": [
        {
          "indexed": true,
          "internalType": "uint256",
          "name": "id",
          "type": "uint256"
        }
      ],
      "name": "ProposalExecuted",
      "type": "event"
    },
    {
      "inputs": [],
      "name": "govTimelock",
      "outputs": [
        {
          "internalType": "address",
          "name": "",
          "type": "address"
        }
      ],
      "stateMutability": "view",
      "type": "function"
    },
    {
      "inputs": [],
      "name": "initialized",
      "outputs": [
        {
          "internalType": "bool",
          "name": "",
          "type": "bool"
        }
      ],
      "stateMutability": "view",
      "type": "function"
    },
    {
      "inputs": [],
      "name": "localTimelock",
      "outputs": [
        {
          "internalType": "address",
          "name": "",
          "type": "address"
        }
      ],
      "stateMutability": "view",
      "type": "function"
    },
    {
      "inputs": [],
      "name": "proposalCount",
      "outputs": [
        {
          "internalType": "uint256",
          "name": "",
          "type": "uint256"
        }
      ],
      "stateMutability": "view",
      "type": "function"
    },
    {
      "inputs": [
        {
          "internalType": "uint256",
          "name": "",
          "type": "uint256"
        }
      ],
      "name": "proposals",
      "outputs": [
        {
          "internalType": "uint256",
          "name": "id",
          "type": "uint256"
        },
        {
          "internalType": "uint256",
          "name": "eta",
          "type": "uint256"
        },
        {
          "internalType": "bool",
          "name": "executed",
          "type": "bool"
        }
      ],
      "stateMutability": "view",
      "type": "function"
    },
    {
      "inputs": [
        {
          "internalType": "address",
          "name": "_govTimelock",
          "type": "address"
        },
        {
          "internalType": "address",
          "name": "_localTimelock",
          "type": "address"
        }
      ],
      "name": "initialize",
      "outputs": [],
      "stateMutability": "nonpayable",
      "type": "function"
    },
    {
      "inputs": [
        {
          "internalType": "uint256",
          "name": "proposalId",
          "type": "uint256"
        }
      ],
      "name": "executeProposal",
      "outputs": [],
      "stateMutability": "nonpayable",
      "type": "function"
    },
    {
      "inputs": [
        {
          "internalType": "uint256",
          "name": "proposalId",
          "type": "uint256"
        }
      ],
      "name": "state",
      "outputs": [
        {
          "internalType": "enum BaseBridgeReceiver.ProposalState",
          "name": "",
          "type": "uint8"
        }
      ],
      "stateMutability": "view",
      "type": "function"
    }
  ],
  "bytecode": "0x6080806040523461001657610931908161001c8239f35b600080fdfe608080604052600436101561001357600080fd5b60003560e01c908163013cf08b146104d2575080630d61b51914610287578063158ef93e1461026157806322086dbe146102385780633e4f49e6146101f3578063485cc955146100c3578063824343dd1461009a5763da35c6641461007757600080fd5b34610095576000366003190112610095576020600254604051908152f35b600080fd5b34610095576000366003190112610095576001546040516001600160a01b039091168152602090f35b34610095576040366003190112610095576001600160a01b036004358181169081900361009557602435828116809103610095576001549260ff8460a01c166101e2576040516303e1469160e61b815290602082600481865afa9182156101d65760009261019a575b503091160361018857600080546001600160a01b031916831781556001600160a81b03199093168117600160a01b17600155604051917f3cd5ec01b1ae7cfec6ca1863e2cd6aa25d6d1702825803ff2b7cc95010fffdc28484a3f35b6040516336e038cd60e21b8152600490fd5b9091506020813d82116101ce575b816101b560209383610517565b810103126100955751818116810361009557908561012c565b3d91506101a8565b6040513d6000823e3d90fd5b60405162dc149f60e41b8152600490fd5b346100955760203660031901126100955761020f600435610652565b6040516003821015610222576020918152f35b634e487b7160e01b600052602160045260246000fd5b34610095576000366003190112610095576000546040516001600160a01b039091168152602090f35b3461009557600036600319011261009557602060ff60015460a01c166040519015158152f35b34610095576020366003190112610095576102a3600435610652565b6003811015610222576104c0576004356000526003602052604060002060068101600160ff1982541617905560009060028101600382019060048301935b600184015481101561049257600180546001600160a01b039081169161030a908490880161054f565b90549060031b1c1690600061037b610322858761054f565b90549060031b1c92610334868961054f565b5083610340888d61054f565b509660058c015461038d604051998a9788968795630825f38f60e01b8752600487015260249b8c87015260a0604487015260a486019061057d565b8481036003190160648601529061057d565b90608483015203925af180156101d6576103cb575b505060001981146103b5576001016102e1565b634e487b7160e01b600052601160045260246000fd5b3d806000843e6103db8184610517565b8201916020818403126100955780519067ffffffffffffffff9384831161009557601f938185858501011215610095578383015195861161047e57506040519361042e908601601f191660200185610517565b8484526020858484010101116100955783916000915b83831061046257505011156103a257600091016020015285806103a2565b6020818301840181015186850182015286945090920191610444565b634e487b7160e01b60009081526041600452fd5b60006040516004357f712ae1383f79ac853f8d882153778e0260ef8f03b504e2866e0593e04d2b291f8383a2f35b604051633c7e994560e11b8152600490fd5b34610095576020366003190112610095576060906004356000526003602052604060002080549060ff6006600583015492015416918352602083015215156040820152f35b90601f8019910116810190811067ffffffffffffffff82111761053957604052565b634e487b7160e01b600052604160045260246000fd5b80548210156105675760005260206000200190600090565b634e487b7160e01b600052603260045260246000fd5b80546000939260018083169383821c938515610630575b602095868610811461061a578585529081156105fb57506001146105ba575b5050505050565b90939495506000929192528360002092846000945b8386106105e7575050505001019038808080806105b3565b8054858701830152940193859082016105cf565b60ff19168685015250505090151560051b0101915038808080806105b3565b634e487b7160e01b600052602260045260246000fd5b93607f1693610594565b67ffffffffffffffff81116105395760051b60200190565b600254811180156108f3575b6108e157600090815260209060038252604080822081519360e0850185811067ffffffffffffffff8211176108cd578352815485526001948583018451808285829454938481520190895285892092895b8b888383106108af57505050506106c892500382610517565b82820152600283018451808285829454938481520190895285892092895b8b8883831061089a57505050506106ff92500382610517565b848201526003830180546107128161063a565b9161071f87519384610517565b81835287528387208790898685015b878585106108785750505050505060608201526004830180546107508161063a565b9161075d87519384610517565b8183528752838720879089868086015b85851061084d575050505050509060c091608082015260ff60066005860154958660a0850152015416151591829101526000146107ae575050505050600290565b845483516360d143f160e11b815291908190839060049082906001600160a01b03165afa93841561084457508493610810575b5050811981116107fc57014211156107f7575090565b905090565b634e487b7160e01b83526011600452602483fd5b9080929350813d831161083d575b6108288183610517565b8101031261083957519038806107e1565b8280fd5b503d61081e565b513d86823e3d90fd5b9082918b5161086781610860818961057d565b0382610517565b815201920192019190868b9161076d565b82918b5161088a81610860818961057d565b8152019201920191908a9061072e565b865485529581019587955090930192016106e6565b86546001600160a01b031685529581019587955090930192016106af565b634e487b7160e01b85526041600452602485fd5b604051630992f7ad60e01b8152600490fd5b50801561065e56fea26469706673582212206fa403a49923cf1bf994a462e2f2268bcab953c3312b2c3fbc3daa03ca323be864736f6c634300080f0033",
  "immutableReferences": {},
  "source": "// SPDX-License-Identifier: BUSL-1.1\npragma solidity 0.8.15;\n\nimport \"../ITimelock.sol\";\n\ncontract BaseBridgeReceiver {\n    /** Custom errors **/\n    error AlreadyInitialized();\n    error BadData();\n    error InvalidProposalId();\n    error InvalidTimelockAdmin();\n    error ProposalNotExecutable();\n    error TransactionAlreadyQueued();\n    error Unauthorized();\n\n    /** Events **/\n    event Initialized(address indexed govTimelock, address indexed localTimelock);\n    event ProposalCreated(address indexed rootMessageSender, uint id, address[] targets, uint[] values, string[] signatures, bytes[] calldatas, uint eta);\n    event ProposalExecuted(uint indexed id);\n\n    /** Public variables **/\n\n    /// @notice Address of the governing contract that this bridge receiver expects to\n    ///  receive messages from; likely an address from another chain (e.g. mainnet)\n    address public govTimelock;\n\n    /// @notice Address of the timelock on this chain that the bridge receiver\n    /// will send messages to\n    address public localTimelock;\n\n    /// @notice Whether contract has been initialized\n    bool public initialized;\n\n    /// @notice Total count of proposals generated\n    uint public proposalCount;\n\n    struct Proposal {\n        uint id;\n        address[] targets;\n        uint[] values;\n        string[] signatures;\n        bytes[] calldatas;\n        uint eta;\n        bool executed;\n    }\n\n    /// @notice Mapping of proposal ids to their full proposal data\n    mapping (uint => Proposal) public proposals;\n\n    enum ProposalState {\n        Queued,\n        Expired,\n        Executed\n    }\n\n    /**\n     * @notice Initialize the contract\n     * @param _govTimelock Address of the governing contract that this contract\n     * will receive messages from (likely on another chain)\n     * @param _localTimelock Address of the timelock contract that this contract\n     * will send messages to\n     */\n    function initialize(address _govTimelock, address _localTimelock) external {\n        if (initialized) revert AlreadyInitialized();\n        if (ITimelock(_localTimelock).admin() != address(this)) revert InvalidTimelockAdmin();\n        govTimelock = _govTimelock;\n        localTimelock = _localTimelock;\n        initialized = true;\n        emit Initialized(_govTimelock, _localTimelock);\n    }\n\n    /**\n     * @notice Process a message sent from the governing timelock (across a bridge)\n     * @param rootMessageSender Address of the contract that sent the bridged message\n     * @param data ABI-encoded bytes containing the transactions to be queued on the local timelock\n     */\n    function processMessage(\n        address rootMessageSender,\n        bytes calldata data\n    ) internal {\n        if (rootMessageSender != govTimelock) revert Unauthorized();\n\n        address[] memory targets;\n        uint256[] memory values;\n        string[] memory signatures;\n        bytes[] memory calldatas;\n\n        (targets, values, signatures, calldatas) = abi.decode(\n            data,\n            (address[], uint256[], string[], bytes[])\n        );\n\n        if (values.length != targets.length) revert BadData();\n        if (signatures.length != targets.length) revert BadData();\n        if (calldatas.length != targets.length) revert BadData();\n\n        uint delay = ITimelock(localTimelock).delay();\n        uint eta = block.timestamp + delay;\n\n        for (uint i = 0; i < targets.length; i++) {\n            if (ITimelock(localTimelock).queuedTransactions(keccak256(abi.encode(targets[i], values[i], signatures[i], calldatas[i], eta)))) revert TransactionAlreadyQueued();\n            ITimelock(localTimelock).queueTransaction(targets[i], values[i], signatures[i], calldatas[i], eta);\n        }\n\n        proposalCount++;\n        Proposal memory proposal = Proposal({\n            id: proposalCount,\n            targets: targets,\n            values: values,\n            signatures: signatures,\n            calldatas: calldatas,\n            eta: eta,\n            executed: false\n        });\n\n        proposals[proposal.id] = proposal;\n        emit ProposalCreated(rootMessageSender, proposal.id, targets, values, signatures, calldatas, eta);\n    }\n\n    /**\n     * @notice Execute a queued proposal\n     * @param proposalId The id of the proposal to execute\n     */\n    function executeProposal(uint proposalId) external {\n        if (state(proposalId) != ProposalState.Queued) revert ProposalNotExecutable();\n        Proposal storage proposal = proposals[proposalId];\n        proposal.executed = true;\n        for (uint i = 0; i < proposal.targets.length; i++) {\n            ITimelock(localTimelock).executeTransaction(proposal.targets[i], proposal.values[i], proposal.signatures[i], proposal.calldatas[i], proposal.eta);\n        }\n        emit ProposalExecuted(proposalId);\n    }\n\n    /**\n     * @notice Get the state of a proposal\n     * @param proposalId Id of the proposal\n     * @return The state of the given proposal (queued, expired or executed)\n     */\n    function state(uint proposalId) public view returns (ProposalState) {\n        if (proposalId > proposalCount || proposalId == 0) revert InvalidProposalId();\n        Proposal memory proposal = proposals[proposalId];\n        if (proposal.executed) {\n            return ProposalState.Executed;\n        } else if (block.timestamp > (proposal.eta + ITimelock(localTimelock).GRACE_PERIOD())) {\n            return ProposalState.Expired;\n        } else {\n            return ProposalState.Queued;\n        }\n    }\n}",
  "sourcePath": "/home/stephensb/sb-labs/solidity-contracts/contracts/comet/contracts/bridges/BaseBridgeReceiver.sol",
  "compiler": {
    "name": "solc",
    "version": "0.8.15+commit.e14f2714.Emscripten.clang"
  },
  "schemaVersion": "3.4.12",
  "updatedAt": "2023-11-30T22:41:29.680Z",
  "devdoc": {
    "kind": "dev",
    "methods": {
      "executeProposal(uint256)": {
        "params": {
          "proposalId": "The id of the proposal to execute"
        }
      },
      "initialize(address,address)": {
        "params": {
          "_govTimelock": "Address of the governing contract that this contract will receive messages from (likely on another chain)",
          "_localTimelock": "Address of the timelock contract that this contract will send messages to"
        }
      },
      "state(uint256)": {
        "params": {
          "proposalId": "Id of the proposal"
        },
        "returns": {
          "_0": "The state of the given proposal (queued, expired or executed)"
        }
      }
    },
    "version": 1
  },
  "userdoc": {
    "errors": {
      "AlreadyInitialized()": [
        {
          "notice": "Custom errors *"
        }
      ]
    },
    "events": {
      "Initialized(address,address)": {
        "notice": "Events *"
      }
    },
    "kind": "user",
    "methods": {
      "executeProposal(uint256)": {
        "notice": "Execute a queued proposal"
      },
      "govTimelock()": {
        "notice": "Address of the governing contract that this bridge receiver expects to  receive messages from; likely an address from another chain (e.g. mainnet)"
      },
      "initialize(address,address)": {
        "notice": "Initialize the contract"
      },
      "initialized()": {
        "notice": "Whether contract has been initialized"
      },
      "localTimelock()": {
        "notice": "Address of the timelock on this chain that the bridge receiver will send messages to"
      },
      "proposalCount()": {
        "notice": "Total count of proposals generated"
      },
      "proposals(uint256)": {
        "notice": "Mapping of proposal ids to their full proposal data"
      },
      "state(uint256)": {
        "notice": "Get the state of a proposal"
      }
    },
    "version": 1
  }
}