{
  "contractName": "Call",
  "abi": [
    {
      "anonymous": false,
      "inputs": [
        {
          "indexed": true,
          "internalType": "address",
          "name": "previousOwner",
          "type": "address"
        },
        {
          "indexed": true,
          "internalType": "address",
          "name": "newOwner",
          "type": "address"
        }
      ],
      "name": "OwnershipTransferred",
      "type": "event"
    },
    {
      "inputs": [
        {
          "internalType": "address",
          "name": "",
          "type": "address"
        },
        {
          "internalType": "address",
          "name": "",
          "type": "address"
        }
      ],
      "name": "CallChannel",
      "outputs": [
        {
          "internalType": "bytes",
          "name": "encryptedSender",
          "type": "bytes"
        },
        {
          "internalType": "bytes",
          "name": "encryptedUser",
          "type": "bytes"
        }
      ],
      "stateMutability": "view",
      "type": "function"
    },
    {
      "inputs": [],
      "name": "EnableHash",
      "outputs": [
        {
          "internalType": "bytes32",
          "name": "",
          "type": "bytes32"
        }
      ],
      "stateMutability": "view",
      "type": "function"
    },
    {
      "inputs": [
        {
          "internalType": "address",
          "name": "",
          "type": "address"
        }
      ],
      "name": "SignKeys",
      "outputs": [
        {
          "internalType": "bytes32",
          "name": "r",
          "type": "bytes32"
        },
        {
          "internalType": "bytes32",
          "name": "s",
          "type": "bytes32"
        },
        {
          "internalType": "uint8",
          "name": "v",
          "type": "uint8"
        }
      ],
      "stateMutability": "view",
      "type": "function"
    },
    {
      "inputs": [],
      "name": "owner",
      "outputs": [
        {
          "internalType": "address",
          "name": "",
          "type": "address"
        }
      ],
      "stateMutability": "view",
      "type": "function"
    },
    {
      "inputs": [
        {
          "internalType": "bytes",
          "name": "_signature",
          "type": "bytes"
        }
      ],
      "name": "register",
      "outputs": [],
      "stateMutability": "nonpayable",
      "type": "function"
    },
    {
      "inputs": [],
      "name": "renounceOwnership",
      "outputs": [],
      "stateMutability": "nonpayable",
      "type": "function"
    },
    {
      "inputs": [
        {
          "internalType": "address",
          "name": "newOwner",
          "type": "address"
        }
      ],
      "name": "transferOwnership",
      "outputs": [],
      "stateMutability": "nonpayable",
      "type": "function"
    },
    {
      "inputs": [
        {
          "internalType": "address",
          "name": "_second",
          "type": "address"
        },
        {
          "components": [
            {
              "internalType": "bytes",
              "name": "encryptedSender",
              "type": "bytes"
            },
            {
              "internalType": "bytes",
              "name": "encryptedUser",
              "type": "bytes"
            }
          ],
          "internalType": "struct Call.EncryptedUUID",
          "name": "_eUUID",
          "type": "tuple"
        }
      ],
      "name": "setCallChannel",
      "outputs": [],
      "stateMutability": "nonpayable",
      "type": "function"
    }
  ],
  "bytecode": "0x60806040523480156200001157600080fd5b5062000026620000206200006f565b62000073565b620000666040518060400160405280601281526020017122b730b1363290283ab13634b19025b2bc9760711b815250620000c360201b6200045c1760201c565b60025562000345565b3390565b600080546001600160a01b038381166001600160a01b0319831681178455604051919092169283917f8be0079c531659141344cd1fd0a4f28419497f9722a3daafe3b4186f6b6457e09190a35050565b6000620000dc82516200010d60201b620004981760201c565b82604051602001620000f0929190620002b3565b604051602081830303815290604052805190602001209050919050565b606060006200012783620001c960201b620005431760201c565b60010190506000816001600160401b038111156200015557634e487b7160e01b600052604160045260246000fd5b6040519080825280601f01601f19166020018201604052801562000180576020820181803683370190505b5090508181016020015b600019016f181899199a1a9b1b9c1cb0b131b232b360811b600a86061a8153600a8504945084620001bb57620001c1565b6200018a565b509392505050565b6000807a184f03e93ff9f4daa797ed6e38ed64bf6a1f010000000000000000831062000213577a184f03e93ff9f4daa797ed6e38ed64bf6a1f010000000000000000830492506040015b6d04ee2d6d415b85acef8100000000831062000240576d04ee2d6d415b85acef8100000000830492506020015b662386f26fc1000083106200025f57662386f26fc10000830492506010015b6305f5e100831062000278576305f5e100830492506008015b61271083106200028d57612710830492506004015b60648310620002a0576064830492506002015b600a8310620002ad576001015b92915050565b60007f19457468657265756d205369676e6564204d6573736167653a0a00000000000082528351620002ed81601a85016020880162000312565b8351908301906200030681601a84016020880162000312565b01601a01949350505050565b60005b838110156200032f57818101518382015260200162000315565b838111156200033f576000848401525b50505050565b610e9480620003556000396000f3fe608060405234801561001057600080fd5b50600436106100885760003560e01c8063715018a61161005b578063715018a61461010357806382fbdc9c1461010b5780638da5cb5b1461011e578063f2fde38b1461013357610088565b806301471a491461008d5780632dbb215b146100ab578063604b4d91146100cc5780636e3151fd146100ee575b600080fd5b610095610146565b6040516100a29190610c4a565b60405180910390f35b6100be6100b9366004610a59565b61014c565b6040516100a2929190610ca3565b6100df6100da366004610a38565b610283565b6040516100a293929190610c53565b6101016100fc366004610a8b565b6102a6565b005b610101610376565b610101610119366004610b58565b61038a565b610126610413565b6040516100a29190610c36565b610101610141366004610a38565b610422565b60025481565b600360209081526000928352604080842090915290825290208054819061017290610e0d565b80601f016020809104026020016040519081016040528092919081815260200182805461019e90610e0d565b80156101eb5780601f106101c0576101008083540402835291602001916101eb565b820191906000526020600020905b8154815290600101906020018083116101ce57829003601f168201915b50505050509080600101805461020090610e0d565b80601f016020809104026020016040519081016040528092919081815260200182805461022c90610e0d565b80156102795780601f1061024e57610100808354040283529160200191610279565b820191906000526020600020905b81548152906001019060200180831161025c57829003601f168201915b5050505050905082565b600160208190526000918252604090912080549181015460029091015460ff1683565b33600090815260016020526040902060020154829060ff166102e35760405162461bcd60e51b81526004016102da90610daf565b60405180910390fd5b6001600160a01b03811660009081526001602052604090206002015460ff1661031e5760405162461bcd60e51b81526004016102da90610d43565b3360009081526003602090815260408083206001600160a01b03871684528252909120835180518593610355928492910190610907565b50602082810151805161036e9260018501920190610907565b505050505050565b61037e61061c565b610388600061065b565b565b61039733600254836106ab565b6103b35760405162461bcd60e51b81526004016102da90610cd1565b60208181015160408084015160609485015182519586018352928552848401908152600092831a8583019081523384526001948590529190922093518455905191830191909155516002909101805460ff191660ff909216919091179055565b6000546001600160a01b031690565b61042a61061c565b6001600160a01b0381166104505760405162461bcd60e51b81526004016102da90610cfd565b6104598161065b565b50565b60006104688251610498565b8260405160200161047a929190610bdb565b6040516020818303038152906040528051906020012090505b919050565b606060006104a583610543565b600101905060008167ffffffffffffffff8111156104d357634e487b7160e01b600052604160045260246000fd5b6040519080825280601f01601f1916602001820160405280156104fd576020820181803683370190505b5090508181016020015b600019016f181899199a1a9b1b9c1cb0b131b232b360811b600a86061a8153600a85049450846105365761053b565b610507565b509392505050565b60008072184f03e93ff9f4daa797ed6e38ed64bf6a1f0160401b83106105825772184f03e93ff9f4daa797ed6e38ed64bf6a1f0160401b830492506040015b6d04ee2d6d415b85acef810000000083106105ae576d04ee2d6d415b85acef8100000000830492506020015b662386f26fc1000083106105cc57662386f26fc10000830492506010015b6305f5e10083106105e4576305f5e100830492506008015b61271083106105f857612710830492506004015b6064831061060a576064830492506002015b600a8310610616576001015b92915050565b61062461071a565b6001600160a01b0316610635610413565b6001600160a01b0316146103885760405162461bcd60e51b81526004016102da90610d7a565b600080546001600160a01b038381166001600160a01b0319831681178455604051919092169283917f8be0079c531659141344cd1fd0a4f28419497f9722a3daafe3b4186f6b6457e09190a35050565b60008060006106ba858561071e565b909250905060008160048111156106e157634e487b7160e01b600052602160045260246000fd5b1480156106ff5750856001600160a01b0316826001600160a01b0316145b806107105750610710868686610764565b9695505050505050565b3390565b6000808251604114156107555760208301516040840151606085015160001a61074987828585610850565b9450945050505061075d565b506000905060025b9250929050565b6000806000856001600160a01b0316631626ba7e60e01b868660405160240161078e929190610c6c565b60408051601f198184030181529181526020820180516001600160e01b03166001600160e01b03199094169390931790925290516107cc9190610bbf565b600060405180830381855afa9150503d8060008114610807576040519150601f19603f3d011682016040523d82523d6000602084013e61080c565b606091505b509150915081801561082057506020815110155b801561071057508051630b135d3f60e11b906108459083016020908101908401610b40565b149695505050505050565b6000807f7fffffffffffffffffffffffffffffff5d576e7357a4501ddfe92f46681b20a083111561088757506000905060036108fe565b6000600187878787604051600081526020016040526040516108ac9493929190610c85565b6020604051602081039080840390855afa1580156108ce573d6000803e3d6000fd5b5050604051601f1901519150506001600160a01b0381166108f7576000600192509250506108fe565b9150600090505b94509492505050565b82805461091390610e0d565b90600052602060002090601f016020900481019282610935576000855561097b565b82601f1061094e57805160ff191683800117855561097b565b8280016001018555821561097b579182015b8281111561097b578251825591602001919060010190610960565b5061098792915061098b565b5090565b5b80821115610987576000815560010161098c565b80356001600160a01b038116811461049357600080fd5b600082601f8301126109c7578081fd5b813567ffffffffffffffff808211156109e2576109e2610e48565b604051601f8301601f191681016020018281118282101715610a0657610a06610e48565b604052828152848301602001861015610a1d578384fd5b82602086016020830137918201602001929092529392505050565b600060208284031215610a49578081fd5b610a52826109a0565b9392505050565b60008060408385031215610a6b578081fd5b610a74836109a0565b9150610a82602084016109a0565b90509250929050565b60008060408385031215610a9d578182fd5b610aa6836109a0565b9150602083013567ffffffffffffffff80821115610ac2578283fd5b9084019060408287031215610ad5578283fd5b604051604081018181108382111715610af057610af0610e48565b604052823582811115610b01578485fd5b610b0d888286016109b7565b825250602083013582811115610b21578485fd5b610b2d888286016109b7565b6020830152508093505050509250929050565b600060208284031215610b51578081fd5b5051919050565b600060208284031215610b69578081fd5b813567ffffffffffffffff811115610b7f578182fd5b610b8b848285016109b7565b949350505050565b60008151808452610bab816020860160208601610ddd565b601f01601f19169290920160200192915050565b60008251610bd1818460208701610ddd565b9190910192915050565b60007f19457468657265756d205369676e6564204d6573736167653a0a00000000000082528351610c1381601a850160208801610ddd565b835190830190610c2a81601a840160208801610ddd565b01601a01949350505050565b6001600160a01b0391909116815260200190565b90815260200190565b928352602083019190915260ff16604082015260600190565b600083825260406020830152610b8b6040830184610b93565b93845260ff9290921660208401526040830152606082015260800190565b600060408252610cb66040830185610b93565b8281036020840152610cc88185610b93565b95945050505050565b60208082526012908201527124b73b30b634b21029b4b3b730ba3ab9329760711b604082015260600190565b60208082526026908201527f4f776e61626c653a206e6577206f776e657220697320746865207a65726f206160408201526564647265737360d01b606082015260800190565b6020808252601b908201527f5265636569766572206973206e6f7420726567697374657265642e0000000000604082015260600190565b6020808252818101527f4f776e61626c653a2063616c6c6572206973206e6f7420746865206f776e6572604082015260600190565b6020808252601490820152732ab9b2b9103737ba103932b3b4b9ba32b932b21760611b604082015260600190565b60005b83811015610df8578181015183820152602001610de0565b83811115610e07576000848401525b50505050565b600281046001821680610e2157607f821691505b60208210811415610e4257634e487b7160e01b600052602260045260246000fd5b50919050565b634e487b7160e01b600052604160045260246000fdfea26469706673582212204bbd53eb927d2771e62fac12b50ed25b9200458406aa40bb412590891e12e0e764736f6c63430008000033",
  "immutableReferences": {},
  "source": "pragma solidity ^0.8.0;\n\nimport { PublicKeys } from \"../public-keys/PublicKeys.sol\";\n\ncontract Call is PublicKeys {\n\n    mapping(address => mapping(address => EncryptedUUID)) public CallChannel;\n    /*\n    struct EncryptedMessage{\n        bytes iv;\n        bytes ephemPublicKey;\n        bytes ciphertext;\n        bytes mac;\n    }*/\n    \n    struct EncryptedUUID{\n        bytes encryptedSender;\n        bytes encryptedUser;\n    }\n\n    modifier onlyRegistered(address _second){\n        require(SignKeys[msg.sender].v != 0, \"User not registered.\");\n        require(SignKeys[_second].v != 0, \"Receiver is not registered.\");\n        _;\n    }\n\n    // set call channel\n    function setCallChannel(address _second, EncryptedUUID memory _eUUID) public onlyRegistered(_second){\n        CallChannel[msg.sender][_second] =  _eUUID;\n    }\n}",
  "sourcePath": "/home/stephensb/sb-labs/solidity-contracts/contracts/call/Call.sol",
  "compiler": {
    "name": "solc",
    "version": "0.8.0+commit.c7dfd78e.Emscripten.clang"
  },
  "schemaVersion": "3.4.12",
  "updatedAt": "2024-12-21T14:16:25.987Z",
  "devdoc": {
    "kind": "dev",
    "methods": {
      "owner()": {
        "details": "Returns the address of the current owner."
      },
      "renounceOwnership()": {
        "details": "Leaves the contract without owner. It will not be possible to call `onlyOwner` functions. Can only be called by the current owner. NOTE: Renouncing ownership will leave the contract without an owner, thereby disabling any functionality that is only available to the owner."
      },
      "transferOwnership(address)": {
        "details": "Transfers ownership of the contract to a new account (`newOwner`). Can only be called by the current owner."
      }
    },
    "version": 1
  },
  "userdoc": {
    "kind": "user",
    "methods": {},
    "version": 1
  }
}