{
  "contractName": "Claims",
  "abi": [
    {
      "inputs": [],
      "name": "InsufficientBalance",
      "type": "error"
    },
    {
      "inputs": [],
      "name": "InvalidAddress",
      "type": "error"
    },
    {
      "anonymous": false,
      "inputs": [
        {
          "indexed": true,
          "internalType": "address",
          "name": "from",
          "type": "address"
        },
        {
          "indexed": true,
          "internalType": "Currency",
          "name": "currency",
          "type": "address"
        },
        {
          "indexed": false,
          "internalType": "uint256",
          "name": "amount",
          "type": "uint256"
        }
      ],
      "name": "Burn",
      "type": "event"
    },
    {
      "anonymous": false,
      "inputs": [
        {
          "indexed": true,
          "internalType": "address",
          "name": "to",
          "type": "address"
        },
        {
          "indexed": true,
          "internalType": "Currency",
          "name": "currency",
          "type": "address"
        },
        {
          "indexed": false,
          "internalType": "uint256",
          "name": "amount",
          "type": "uint256"
        }
      ],
      "name": "Mint",
      "type": "event"
    },
    {
      "anonymous": false,
      "inputs": [
        {
          "indexed": true,
          "internalType": "address",
          "name": "from",
          "type": "address"
        },
        {
          "indexed": true,
          "internalType": "address",
          "name": "to",
          "type": "address"
        },
        {
          "indexed": true,
          "internalType": "Currency",
          "name": "currency",
          "type": "address"
        },
        {
          "indexed": false,
          "internalType": "uint256",
          "name": "amount",
          "type": "uint256"
        }
      ],
      "name": "Transfer",
      "type": "event"
    },
    {
      "inputs": [
        {
          "internalType": "address",
          "name": "account",
          "type": "address"
        },
        {
          "internalType": "Currency",
          "name": "currency",
          "type": "address"
        }
      ],
      "name": "balanceOf",
      "outputs": [
        {
          "internalType": "uint256",
          "name": "",
          "type": "uint256"
        }
      ],
      "stateMutability": "view",
      "type": "function"
    },
    {
      "inputs": [
        {
          "internalType": "address",
          "name": "to",
          "type": "address"
        },
        {
          "internalType": "Currency",
          "name": "currency",
          "type": "address"
        },
        {
          "internalType": "uint256",
          "name": "amount",
          "type": "uint256"
        }
      ],
      "name": "transfer",
      "outputs": [],
      "stateMutability": "nonpayable",
      "type": "function"
    }
  ],
  "bytecode": "0x60808060405234610016576101ce908161001b8239f35b5f80fdfe60806040908082526004361015610014575f80fd5b5f3560e01c908163beabacc81461007e575063f7888aec14610034575f80fd5b3461007a578060031936011261007a5760209061004f61016c565b6001600160a01b0380610060610182565b165f525f8452825f2091165f528252805f20549051908152f35b5f80fd5b90503461007a57606036600319011261007a5761009961016c565b6100a1610182565b6001600160a01b039182169260443592919030851461015d57501692835f5260205f8152815f20335f528152815f2054831161014c57845f525f8152815f20335f528152815f20838154039055845f525f8152815f20845f528152815f20918254848101809111610138577fd1398bee19313d6bf672ccb116e51f4a1a947e91c757907f51fbb5b5e56c698f9355519283523392a4005b634e487b7160e01b5f52601160045260245ffd5b8151631e9acf1760e31b8152600490fd5b63e6c4247b60e01b8152600490fd5b600435906001600160a01b038216820361007a57565b602435906001600160a01b038216820361007a5756fea26469706673582212209c563545ce80e3cb83ca87a2c545b1f558aa4247f9b2edafd86490fdab9f037064736f6c63430008170033",
  "immutableReferences": {},
  "source": "// SPDX-License-Identifier: BUSL-1.1\npragma solidity ^0.8.20;\n\nimport {Currency, CurrencyLibrary} from \"./types/Currency.sol\";\nimport {IClaims} from \"./interfaces/IClaims.sol\";\n\n/// An intentionally barebones balance mapping only supporting mint/burn/transfer\ncontract Claims is IClaims {\n    using CurrencyLibrary for Currency;\n\n    // Mapping from Currency to account balances\n    mapping(Currency currency => mapping(address account => uint256)) private balances;\n\n    /// @inheritdoc IClaims\n    function balanceOf(address account, Currency currency) public view returns (uint256) {\n        return balances[currency][account];\n    }\n\n    /// @inheritdoc IClaims\n    function transfer(address to, Currency currency, uint256 amount) public {\n        if (to == address(this)) revert InvalidAddress();\n\n        if (amount > balances[currency][msg.sender]) revert InsufficientBalance();\n        unchecked {\n            balances[currency][msg.sender] -= amount;\n        }\n        balances[currency][to] += amount;\n        emit Transfer(msg.sender, to, currency, amount);\n    }\n\n    /// @notice Mint `amount` of currency to address\n    /// @param to The address to mint to\n    /// @param currency The currency to mint\n    /// @param amount The amount to mint\n    function _mint(address to, Currency currency, uint256 amount) internal {\n        balances[currency][to] += amount;\n        emit Mint(to, currency, amount);\n    }\n\n    /// @notice Burn `amount` of currency from msg.sender\n    /// @param currency The currency to mint\n    /// @param amount The amount to burn\n    /// @dev Will revert if the sender does not have enough balance\n    function _burn(Currency currency, uint256 amount) internal {\n        if (amount > balances[currency][msg.sender]) revert InsufficientBalance();\n        unchecked {\n            balances[currency][msg.sender] -= amount;\n        }\n        emit Burn(msg.sender, currency, amount);\n    }\n}\n",
  "sourcePath": "/home/stephensb/sb-labs/solidity-contracts/contracts/v4-core/src/Claims.sol",
  "compiler": {
    "name": "solc",
    "version": "0.8.23+commit.f704f362.Emscripten.clang"
  },
  "schemaVersion": "3.4.12",
  "updatedAt": "2023-12-01T17:36:41.212Z",
  "devdoc": {
    "kind": "dev",
    "methods": {
      "balanceOf(address,address)": {
        "params": {
          "account": "The account to get the balance of",
          "currency": "The currency to get the balance of"
        }
      },
      "transfer(address,address,uint256)": {
        "details": "Will revert if the sender does not have enough balance",
        "params": {
          "amount": "The amount to transfer",
          "currency": "The currency to transfer",
          "to": "The address to transfer to"
        }
      }
    },
    "version": 1
  },
  "userdoc": {
    "errors": {
      "InsufficientBalance()": [
        {
          "notice": "Thrown when user has insufficient Claims balance"
        }
      ],
      "InvalidAddress()": [
        {
          "notice": "Thrown when transferring Claims to this address"
        }
      ]
    },
    "events": {
      "Burn(address,address,uint256)": {
        "notice": "Emitted when burning `amount` of currency Claims from address"
      },
      "Mint(address,address,uint256)": {
        "notice": "Emitted when minting `amount` of currency Claims to address"
      },
      "Transfer(address,address,address,uint256)": {
        "notice": "Emitted when transferring `amount` of currency Claims"
      }
    },
    "kind": "user",
    "methods": {
      "balanceOf(address,address)": {
        "notice": "Get the balance of `account` for `currency`"
      },
      "transfer(address,address,uint256)": {
        "notice": "Transfer `amount` of `currency` from sender to `to`"
      }
    },
    "notice": "An intentionally barebones balance mapping only supporting mint/burn/transfer",
    "version": 1
  }
}