{
  "contractName": "Comet",
  "abi": [
    {
      "inputs": [
        {
          "components": [
            {
              "internalType": "address",
              "name": "governor",
              "type": "address"
            },
            {
              "internalType": "address",
              "name": "pauseGuardian",
              "type": "address"
            },
            {
              "internalType": "address",
              "name": "baseToken",
              "type": "address"
            },
            {
              "internalType": "address",
              "name": "baseTokenPriceFeed",
              "type": "address"
            },
            {
              "internalType": "address",
              "name": "extensionDelegate",
              "type": "address"
            },
            {
              "internalType": "uint64",
              "name": "supplyKink",
              "type": "uint64"
            },
            {
              "internalType": "uint64",
              "name": "supplyPerYearInterestRateSlopeLow",
              "type": "uint64"
            },
            {
              "internalType": "uint64",
              "name": "supplyPerYearInterestRateSlopeHigh",
              "type": "uint64"
            },
            {
              "internalType": "uint64",
              "name": "supplyPerYearInterestRateBase",
              "type": "uint64"
            },
            {
              "internalType": "uint64",
              "name": "borrowKink",
              "type": "uint64"
            },
            {
              "internalType": "uint64",
              "name": "borrowPerYearInterestRateSlopeLow",
              "type": "uint64"
            },
            {
              "internalType": "uint64",
              "name": "borrowPerYearInterestRateSlopeHigh",
              "type": "uint64"
            },
            {
              "internalType": "uint64",
              "name": "borrowPerYearInterestRateBase",
              "type": "uint64"
            },
            {
              "internalType": "uint64",
              "name": "storeFrontPriceFactor",
              "type": "uint64"
            },
            {
              "internalType": "uint64",
              "name": "trackingIndexScale",
              "type": "uint64"
            },
            {
              "internalType": "uint64",
              "name": "baseTrackingSupplySpeed",
              "type": "uint64"
            },
            {
              "internalType": "uint64",
              "name": "baseTrackingBorrowSpeed",
              "type": "uint64"
            },
            {
              "internalType": "uint104",
              "name": "baseMinForRewards",
              "type": "uint104"
            },
            {
              "internalType": "uint104",
              "name": "baseBorrowMin",
              "type": "uint104"
            },
            {
              "internalType": "uint104",
              "name": "targetReserves",
              "type": "uint104"
            },
            {
              "components": [
                {
                  "internalType": "address",
                  "name": "asset",
                  "type": "address"
                },
                {
                  "internalType": "address",
                  "name": "priceFeed",
                  "type": "address"
                },
                {
                  "internalType": "uint8",
                  "name": "decimals",
                  "type": "uint8"
                },
                {
                  "internalType": "uint64",
                  "name": "borrowCollateralFactor",
                  "type": "uint64"
                },
                {
                  "internalType": "uint64",
                  "name": "liquidateCollateralFactor",
                  "type": "uint64"
                },
                {
                  "internalType": "uint64",
                  "name": "liquidationFactor",
                  "type": "uint64"
                },
                {
                  "internalType": "uint128",
                  "name": "supplyCap",
                  "type": "uint128"
                }
              ],
              "internalType": "struct CometConfiguration.AssetConfig[]",
              "name": "assetConfigs",
              "type": "tuple[]"
            }
          ],
          "internalType": "struct CometConfiguration.Configuration",
          "name": "config",
          "type": "tuple"
        }
      ],
      "stateMutability": "nonpayable",
      "type": "constructor"
    },
    {
      "inputs": [],
      "name": "Absurd",
      "type": "error"
    },
    {
      "inputs": [],
      "name": "AlreadyInitialized",
      "type": "error"
    },
    {
      "inputs": [],
      "name": "BadAsset",
      "type": "error"
    },
    {
      "inputs": [],
      "name": "BadDecimals",
      "type": "error"
    },
    {
      "inputs": [],
      "name": "BadDiscount",
      "type": "error"
    },
    {
      "inputs": [],
      "name": "BadMinimum",
      "type": "error"
    },
    {
      "inputs": [],
      "name": "BadPrice",
      "type": "error"
    },
    {
      "inputs": [],
      "name": "BorrowCFTooLarge",
      "type": "error"
    },
    {
      "inputs": [],
      "name": "BorrowTooSmall",
      "type": "error"
    },
    {
      "inputs": [],
      "name": "InsufficientReserves",
      "type": "error"
    },
    {
      "inputs": [],
      "name": "InvalidInt104",
      "type": "error"
    },
    {
      "inputs": [],
      "name": "InvalidInt256",
      "type": "error"
    },
    {
      "inputs": [],
      "name": "InvalidUInt104",
      "type": "error"
    },
    {
      "inputs": [],
      "name": "InvalidUInt128",
      "type": "error"
    },
    {
      "inputs": [],
      "name": "InvalidUInt64",
      "type": "error"
    },
    {
      "inputs": [],
      "name": "LiquidateCFTooLarge",
      "type": "error"
    },
    {
      "inputs": [],
      "name": "NegativeNumber",
      "type": "error"
    },
    {
      "inputs": [],
      "name": "NoSelfTransfer",
      "type": "error"
    },
    {
      "inputs": [],
      "name": "NotCollateralized",
      "type": "error"
    },
    {
      "inputs": [],
      "name": "NotForSale",
      "type": "error"
    },
    {
      "inputs": [],
      "name": "NotLiquidatable",
      "type": "error"
    },
    {
      "inputs": [],
      "name": "Paused",
      "type": "error"
    },
    {
      "inputs": [],
      "name": "SupplyCapExceeded",
      "type": "error"
    },
    {
      "inputs": [],
      "name": "TimestampTooLarge",
      "type": "error"
    },
    {
      "inputs": [],
      "name": "TooManyAssets",
      "type": "error"
    },
    {
      "inputs": [],
      "name": "TooMuchSlippage",
      "type": "error"
    },
    {
      "inputs": [],
      "name": "TransferInFailed",
      "type": "error"
    },
    {
      "inputs": [],
      "name": "TransferOutFailed",
      "type": "error"
    },
    {
      "inputs": [],
      "name": "Unauthorized",
      "type": "error"
    },
    {
      "anonymous": false,
      "inputs": [
        {
          "indexed": true,
          "internalType": "address",
          "name": "absorber",
          "type": "address"
        },
        {
          "indexed": true,
          "internalType": "address",
          "name": "borrower",
          "type": "address"
        },
        {
          "indexed": true,
          "internalType": "address",
          "name": "asset",
          "type": "address"
        },
        {
          "indexed": false,
          "internalType": "uint256",
          "name": "collateralAbsorbed",
          "type": "uint256"
        },
        {
          "indexed": false,
          "internalType": "uint256",
          "name": "usdValue",
          "type": "uint256"
        }
      ],
      "name": "AbsorbCollateral",
      "type": "event"
    },
    {
      "anonymous": false,
      "inputs": [
        {
          "indexed": true,
          "internalType": "address",
          "name": "absorber",
          "type": "address"
        },
        {
          "indexed": true,
          "internalType": "address",
          "name": "borrower",
          "type": "address"
        },
        {
          "indexed": false,
          "internalType": "uint256",
          "name": "basePaidOut",
          "type": "uint256"
        },
        {
          "indexed": false,
          "internalType": "uint256",
          "name": "usdValue",
          "type": "uint256"
        }
      ],
      "name": "AbsorbDebt",
      "type": "event"
    },
    {
      "anonymous": false,
      "inputs": [
        {
          "indexed": true,
          "internalType": "address",
          "name": "buyer",
          "type": "address"
        },
        {
          "indexed": true,
          "internalType": "address",
          "name": "asset",
          "type": "address"
        },
        {
          "indexed": false,
          "internalType": "uint256",
          "name": "baseAmount",
          "type": "uint256"
        },
        {
          "indexed": false,
          "internalType": "uint256",
          "name": "collateralAmount",
          "type": "uint256"
        }
      ],
      "name": "BuyCollateral",
      "type": "event"
    },
    {
      "anonymous": false,
      "inputs": [
        {
          "indexed": false,
          "internalType": "bool",
          "name": "supplyPaused",
          "type": "bool"
        },
        {
          "indexed": false,
          "internalType": "bool",
          "name": "transferPaused",
          "type": "bool"
        },
        {
          "indexed": false,
          "internalType": "bool",
          "name": "withdrawPaused",
          "type": "bool"
        },
        {
          "indexed": false,
          "internalType": "bool",
          "name": "absorbPaused",
          "type": "bool"
        },
        {
          "indexed": false,
          "internalType": "bool",
          "name": "buyPaused",
          "type": "bool"
        }
      ],
      "name": "PauseAction",
      "type": "event"
    },
    {
      "anonymous": false,
      "inputs": [
        {
          "indexed": true,
          "internalType": "address",
          "name": "from",
          "type": "address"
        },
        {
          "indexed": true,
          "internalType": "address",
          "name": "dst",
          "type": "address"
        },
        {
          "indexed": false,
          "internalType": "uint256",
          "name": "amount",
          "type": "uint256"
        }
      ],
      "name": "Supply",
      "type": "event"
    },
    {
      "anonymous": false,
      "inputs": [
        {
          "indexed": true,
          "internalType": "address",
          "name": "from",
          "type": "address"
        },
        {
          "indexed": true,
          "internalType": "address",
          "name": "dst",
          "type": "address"
        },
        {
          "indexed": true,
          "internalType": "address",
          "name": "asset",
          "type": "address"
        },
        {
          "indexed": false,
          "internalType": "uint256",
          "name": "amount",
          "type": "uint256"
        }
      ],
      "name": "SupplyCollateral",
      "type": "event"
    },
    {
      "anonymous": false,
      "inputs": [
        {
          "indexed": true,
          "internalType": "address",
          "name": "from",
          "type": "address"
        },
        {
          "indexed": true,
          "internalType": "address",
          "name": "to",
          "type": "address"
        },
        {
          "indexed": false,
          "internalType": "uint256",
          "name": "amount",
          "type": "uint256"
        }
      ],
      "name": "Transfer",
      "type": "event"
    },
    {
      "anonymous": false,
      "inputs": [
        {
          "indexed": true,
          "internalType": "address",
          "name": "from",
          "type": "address"
        },
        {
          "indexed": true,
          "internalType": "address",
          "name": "to",
          "type": "address"
        },
        {
          "indexed": true,
          "internalType": "address",
          "name": "asset",
          "type": "address"
        },
        {
          "indexed": false,
          "internalType": "uint256",
          "name": "amount",
          "type": "uint256"
        }
      ],
      "name": "TransferCollateral",
      "type": "event"
    },
    {
      "anonymous": false,
      "inputs": [
        {
          "indexed": true,
          "internalType": "address",
          "name": "src",
          "type": "address"
        },
        {
          "indexed": true,
          "internalType": "address",
          "name": "to",
          "type": "address"
        },
        {
          "indexed": false,
          "internalType": "uint256",
          "name": "amount",
          "type": "uint256"
        }
      ],
      "name": "Withdraw",
      "type": "event"
    },
    {
      "anonymous": false,
      "inputs": [
        {
          "indexed": true,
          "internalType": "address",
          "name": "src",
          "type": "address"
        },
        {
          "indexed": true,
          "internalType": "address",
          "name": "to",
          "type": "address"
        },
        {
          "indexed": true,
          "internalType": "address",
          "name": "asset",
          "type": "address"
        },
        {
          "indexed": false,
          "internalType": "uint256",
          "name": "amount",
          "type": "uint256"
        }
      ],
      "name": "WithdrawCollateral",
      "type": "event"
    },
    {
      "anonymous": false,
      "inputs": [
        {
          "indexed": true,
          "internalType": "address",
          "name": "to",
          "type": "address"
        },
        {
          "indexed": false,
          "internalType": "uint256",
          "name": "amount",
          "type": "uint256"
        }
      ],
      "name": "WithdrawReserves",
      "type": "event"
    },
    {
      "stateMutability": "payable",
      "type": "fallback"
    },
    {
      "inputs": [],
      "name": "baseBorrowMin",
      "outputs": [
        {
          "internalType": "uint256",
          "name": "",
          "type": "uint256"
        }
      ],
      "stateMutability": "view",
      "type": "function"
    },
    {
      "inputs": [],
      "name": "baseMinForRewards",
      "outputs": [
        {
          "internalType": "uint256",
          "name": "",
          "type": "uint256"
        }
      ],
      "stateMutability": "view",
      "type": "function"
    },
    {
      "inputs": [],
      "name": "baseScale",
      "outputs": [
        {
          "internalType": "uint256",
          "name": "",
          "type": "uint256"
        }
      ],
      "stateMutability": "view",
      "type": "function"
    },
    {
      "inputs": [],
      "name": "baseToken",
      "outputs": [
        {
          "internalType": "address",
          "name": "",
          "type": "address"
        }
      ],
      "stateMutability": "view",
      "type": "function"
    },
    {
      "inputs": [],
      "name": "baseTokenPriceFeed",
      "outputs": [
        {
          "internalType": "address",
          "name": "",
          "type": "address"
        }
      ],
      "stateMutability": "view",
      "type": "function"
    },
    {
      "inputs": [],
      "name": "baseTrackingBorrowSpeed",
      "outputs": [
        {
          "internalType": "uint256",
          "name": "",
          "type": "uint256"
        }
      ],
      "stateMutability": "view",
      "type": "function"
    },
    {
      "inputs": [],
      "name": "baseTrackingSupplySpeed",
      "outputs": [
        {
          "internalType": "uint256",
          "name": "",
          "type": "uint256"
        }
      ],
      "stateMutability": "view",
      "type": "function"
    },
    {
      "inputs": [],
      "name": "borrowKink",
      "outputs": [
        {
          "internalType": "uint256",
          "name": "",
          "type": "uint256"
        }
      ],
      "stateMutability": "view",
      "type": "function"
    },
    {
      "inputs": [],
      "name": "borrowPerSecondInterestRateBase",
      "outputs": [
        {
          "internalType": "uint256",
          "name": "",
          "type": "uint256"
        }
      ],
      "stateMutability": "view",
      "type": "function"
    },
    {
      "inputs": [],
      "name": "borrowPerSecondInterestRateSlopeHigh",
      "outputs": [
        {
          "internalType": "uint256",
          "name": "",
          "type": "uint256"
        }
      ],
      "stateMutability": "view",
      "type": "function"
    },
    {
      "inputs": [],
      "name": "borrowPerSecondInterestRateSlopeLow",
      "outputs": [
        {
          "internalType": "uint256",
          "name": "",
          "type": "uint256"
        }
      ],
      "stateMutability": "view",
      "type": "function"
    },
    {
      "inputs": [],
      "name": "decimals",
      "outputs": [
        {
          "internalType": "uint8",
          "name": "",
          "type": "uint8"
        }
      ],
      "stateMutability": "view",
      "type": "function"
    },
    {
      "inputs": [],
      "name": "extensionDelegate",
      "outputs": [
        {
          "internalType": "address",
          "name": "",
          "type": "address"
        }
      ],
      "stateMutability": "view",
      "type": "function"
    },
    {
      "inputs": [],
      "name": "governor",
      "outputs": [
        {
          "internalType": "address",
          "name": "",
          "type": "address"
        }
      ],
      "stateMutability": "view",
      "type": "function"
    },
    {
      "inputs": [
        {
          "internalType": "address",
          "name": "owner",
          "type": "address"
        },
        {
          "internalType": "address",
          "name": "manager",
          "type": "address"
        }
      ],
      "name": "hasPermission",
      "outputs": [
        {
          "internalType": "bool",
          "name": "",
          "type": "bool"
        }
      ],
      "stateMutability": "view",
      "type": "function"
    },
    {
      "inputs": [
        {
          "internalType": "address",
          "name": "",
          "type": "address"
        },
        {
          "internalType": "address",
          "name": "",
          "type": "address"
        }
      ],
      "name": "isAllowed",
      "outputs": [
        {
          "internalType": "bool",
          "name": "",
          "type": "bool"
        }
      ],
      "stateMutability": "view",
      "type": "function"
    },
    {
      "inputs": [
        {
          "internalType": "address",
          "name": "",
          "type": "address"
        }
      ],
      "name": "liquidatorPoints",
      "outputs": [
        {
          "internalType": "uint32",
          "name": "numAbsorbs",
          "type": "uint32"
        },
        {
          "internalType": "uint64",
          "name": "numAbsorbed",
          "type": "uint64"
        },
        {
          "internalType": "uint128",
          "name": "approxSpend",
          "type": "uint128"
        },
        {
          "internalType": "uint32",
          "name": "_reserved",
          "type": "uint32"
        }
      ],
      "stateMutability": "view",
      "type": "function"
    },
    {
      "inputs": [],
      "name": "numAssets",
      "outputs": [
        {
          "internalType": "uint8",
          "name": "",
          "type": "uint8"
        }
      ],
      "stateMutability": "view",
      "type": "function"
    },
    {
      "inputs": [],
      "name": "pauseGuardian",
      "outputs": [
        {
          "internalType": "address",
          "name": "",
          "type": "address"
        }
      ],
      "stateMutability": "view",
      "type": "function"
    },
    {
      "inputs": [],
      "name": "storeFrontPriceFactor",
      "outputs": [
        {
          "internalType": "uint256",
          "name": "",
          "type": "uint256"
        }
      ],
      "stateMutability": "view",
      "type": "function"
    },
    {
      "inputs": [],
      "name": "supplyKink",
      "outputs": [
        {
          "internalType": "uint256",
          "name": "",
          "type": "uint256"
        }
      ],
      "stateMutability": "view",
      "type": "function"
    },
    {
      "inputs": [],
      "name": "supplyPerSecondInterestRateBase",
      "outputs": [
        {
          "internalType": "uint256",
          "name": "",
          "type": "uint256"
        }
      ],
      "stateMutability": "view",
      "type": "function"
    },
    {
      "inputs": [],
      "name": "supplyPerSecondInterestRateSlopeHigh",
      "outputs": [
        {
          "internalType": "uint256",
          "name": "",
          "type": "uint256"
        }
      ],
      "stateMutability": "view",
      "type": "function"
    },
    {
      "inputs": [],
      "name": "supplyPerSecondInterestRateSlopeLow",
      "outputs": [
        {
          "internalType": "uint256",
          "name": "",
          "type": "uint256"
        }
      ],
      "stateMutability": "view",
      "type": "function"
    },
    {
      "inputs": [],
      "name": "targetReserves",
      "outputs": [
        {
          "internalType": "uint256",
          "name": "",
          "type": "uint256"
        }
      ],
      "stateMutability": "view",
      "type": "function"
    },
    {
      "inputs": [
        {
          "internalType": "address",
          "name": "",
          "type": "address"
        }
      ],
      "name": "totalsCollateral",
      "outputs": [
        {
          "internalType": "uint128",
          "name": "totalSupplyAsset",
          "type": "uint128"
        },
        {
          "internalType": "uint128",
          "name": "_reserved",
          "type": "uint128"
        }
      ],
      "stateMutability": "view",
      "type": "function"
    },
    {
      "inputs": [],
      "name": "trackingIndexScale",
      "outputs": [
        {
          "internalType": "uint256",
          "name": "",
          "type": "uint256"
        }
      ],
      "stateMutability": "view",
      "type": "function"
    },
    {
      "inputs": [
        {
          "internalType": "address",
          "name": "",
          "type": "address"
        }
      ],
      "name": "userBasic",
      "outputs": [
        {
          "internalType": "int104",
          "name": "principal",
          "type": "int104"
        },
        {
          "internalType": "uint64",
          "name": "baseTrackingIndex",
          "type": "uint64"
        },
        {
          "internalType": "uint64",
          "name": "baseTrackingAccrued",
          "type": "uint64"
        },
        {
          "internalType": "uint16",
          "name": "assetsIn",
          "type": "uint16"
        },
        {
          "internalType": "uint8",
          "name": "_reserved",
          "type": "uint8"
        }
      ],
      "stateMutability": "view",
      "type": "function"
    },
    {
      "inputs": [
        {
          "internalType": "address",
          "name": "",
          "type": "address"
        },
        {
          "internalType": "address",
          "name": "",
          "type": "address"
        }
      ],
      "name": "userCollateral",
      "outputs": [
        {
          "internalType": "uint128",
          "name": "balance",
          "type": "uint128"
        },
        {
          "internalType": "uint128",
          "name": "_reserved",
          "type": "uint128"
        }
      ],
      "stateMutability": "view",
      "type": "function"
    },
    {
      "inputs": [
        {
          "internalType": "address",
          "name": "",
          "type": "address"
        }
      ],
      "name": "userNonce",
      "outputs": [
        {
          "internalType": "uint256",
          "name": "",
          "type": "uint256"
        }
      ],
      "stateMutability": "view",
      "type": "function"
    },
    {
      "inputs": [],
      "name": "initializeStorage",
      "outputs": [],
      "stateMutability": "nonpayable",
      "type": "function"
    },
    {
      "inputs": [
        {
          "internalType": "uint8",
          "name": "i",
          "type": "uint8"
        }
      ],
      "name": "getAssetInfo",
      "outputs": [
        {
          "components": [
            {
              "internalType": "uint8",
              "name": "offset",
              "type": "uint8"
            },
            {
              "internalType": "address",
              "name": "asset",
              "type": "address"
            },
            {
              "internalType": "address",
              "name": "priceFeed",
              "type": "address"
            },
            {
              "internalType": "uint64",
              "name": "scale",
              "type": "uint64"
            },
            {
              "internalType": "uint64",
              "name": "borrowCollateralFactor",
              "type": "uint64"
            },
            {
              "internalType": "uint64",
              "name": "liquidateCollateralFactor",
              "type": "uint64"
            },
            {
              "internalType": "uint64",
              "name": "liquidationFactor",
              "type": "uint64"
            },
            {
              "internalType": "uint128",
              "name": "supplyCap",
              "type": "uint128"
            }
          ],
          "internalType": "struct CometCore.AssetInfo",
          "name": "",
          "type": "tuple"
        }
      ],
      "stateMutability": "view",
      "type": "function"
    },
    {
      "inputs": [
        {
          "internalType": "address",
          "name": "asset",
          "type": "address"
        }
      ],
      "name": "getAssetInfoByAddress",
      "outputs": [
        {
          "components": [
            {
              "internalType": "uint8",
              "name": "offset",
              "type": "uint8"
            },
            {
              "internalType": "address",
              "name": "asset",
              "type": "address"
            },
            {
              "internalType": "address",
              "name": "priceFeed",
              "type": "address"
            },
            {
              "internalType": "uint64",
              "name": "scale",
              "type": "uint64"
            },
            {
              "internalType": "uint64",
              "name": "borrowCollateralFactor",
              "type": "uint64"
            },
            {
              "internalType": "uint64",
              "name": "liquidateCollateralFactor",
              "type": "uint64"
            },
            {
              "internalType": "uint64",
              "name": "liquidationFactor",
              "type": "uint64"
            },
            {
              "internalType": "uint128",
              "name": "supplyCap",
              "type": "uint128"
            }
          ],
          "internalType": "struct CometCore.AssetInfo",
          "name": "",
          "type": "tuple"
        }
      ],
      "stateMutability": "view",
      "type": "function"
    },
    {
      "inputs": [
        {
          "internalType": "address",
          "name": "account",
          "type": "address"
        }
      ],
      "name": "accrueAccount",
      "outputs": [],
      "stateMutability": "nonpayable",
      "type": "function"
    },
    {
      "inputs": [
        {
          "internalType": "uint256",
          "name": "utilization",
          "type": "uint256"
        }
      ],
      "name": "getSupplyRate",
      "outputs": [
        {
          "internalType": "uint64",
          "name": "",
          "type": "uint64"
        }
      ],
      "stateMutability": "view",
      "type": "function"
    },
    {
      "inputs": [
        {
          "internalType": "uint256",
          "name": "utilization",
          "type": "uint256"
        }
      ],
      "name": "getBorrowRate",
      "outputs": [
        {
          "internalType": "uint64",
          "name": "",
          "type": "uint64"
        }
      ],
      "stateMutability": "view",
      "type": "function"
    },
    {
      "inputs": [],
      "name": "getUtilization",
      "outputs": [
        {
          "internalType": "uint256",
          "name": "",
          "type": "uint256"
        }
      ],
      "stateMutability": "view",
      "type": "function"
    },
    {
      "inputs": [
        {
          "internalType": "address",
          "name": "priceFeed",
          "type": "address"
        }
      ],
      "name": "getPrice",
      "outputs": [
        {
          "internalType": "uint256",
          "name": "",
          "type": "uint256"
        }
      ],
      "stateMutability": "view",
      "type": "function"
    },
    {
      "inputs": [
        {
          "internalType": "address",
          "name": "asset",
          "type": "address"
        }
      ],
      "name": "getCollateralReserves",
      "outputs": [
        {
          "internalType": "uint256",
          "name": "",
          "type": "uint256"
        }
      ],
      "stateMutability": "view",
      "type": "function"
    },
    {
      "inputs": [],
      "name": "getReserves",
      "outputs": [
        {
          "internalType": "int256",
          "name": "",
          "type": "int256"
        }
      ],
      "stateMutability": "view",
      "type": "function"
    },
    {
      "inputs": [
        {
          "internalType": "address",
          "name": "account",
          "type": "address"
        }
      ],
      "name": "isBorrowCollateralized",
      "outputs": [
        {
          "internalType": "bool",
          "name": "",
          "type": "bool"
        }
      ],
      "stateMutability": "view",
      "type": "function"
    },
    {
      "inputs": [
        {
          "internalType": "address",
          "name": "account",
          "type": "address"
        }
      ],
      "name": "isLiquidatable",
      "outputs": [
        {
          "internalType": "bool",
          "name": "",
          "type": "bool"
        }
      ],
      "stateMutability": "view",
      "type": "function"
    },
    {
      "inputs": [
        {
          "internalType": "bool",
          "name": "supplyPaused",
          "type": "bool"
        },
        {
          "internalType": "bool",
          "name": "transferPaused",
          "type": "bool"
        },
        {
          "internalType": "bool",
          "name": "withdrawPaused",
          "type": "bool"
        },
        {
          "internalType": "bool",
          "name": "absorbPaused",
          "type": "bool"
        },
        {
          "internalType": "bool",
          "name": "buyPaused",
          "type": "bool"
        }
      ],
      "name": "pause",
      "outputs": [],
      "stateMutability": "nonpayable",
      "type": "function"
    },
    {
      "inputs": [],
      "name": "isSupplyPaused",
      "outputs": [
        {
          "internalType": "bool",
          "name": "",
          "type": "bool"
        }
      ],
      "stateMutability": "view",
      "type": "function"
    },
    {
      "inputs": [],
      "name": "isTransferPaused",
      "outputs": [
        {
          "internalType": "bool",
          "name": "",
          "type": "bool"
        }
      ],
      "stateMutability": "view",
      "type": "function"
    },
    {
      "inputs": [],
      "name": "isWithdrawPaused",
      "outputs": [
        {
          "internalType": "bool",
          "name": "",
          "type": "bool"
        }
      ],
      "stateMutability": "view",
      "type": "function"
    },
    {
      "inputs": [],
      "name": "isAbsorbPaused",
      "outputs": [
        {
          "internalType": "bool",
          "name": "",
          "type": "bool"
        }
      ],
      "stateMutability": "view",
      "type": "function"
    },
    {
      "inputs": [],
      "name": "isBuyPaused",
      "outputs": [
        {
          "internalType": "bool",
          "name": "",
          "type": "bool"
        }
      ],
      "stateMutability": "view",
      "type": "function"
    },
    {
      "inputs": [
        {
          "internalType": "address",
          "name": "asset",
          "type": "address"
        },
        {
          "internalType": "uint256",
          "name": "amount",
          "type": "uint256"
        }
      ],
      "name": "supply",
      "outputs": [],
      "stateMutability": "nonpayable",
      "type": "function"
    },
    {
      "inputs": [
        {
          "internalType": "address",
          "name": "dst",
          "type": "address"
        },
        {
          "internalType": "address",
          "name": "asset",
          "type": "address"
        },
        {
          "internalType": "uint256",
          "name": "amount",
          "type": "uint256"
        }
      ],
      "name": "supplyTo",
      "outputs": [],
      "stateMutability": "nonpayable",
      "type": "function"
    },
    {
      "inputs": [
        {
          "internalType": "address",
          "name": "from",
          "type": "address"
        },
        {
          "internalType": "address",
          "name": "dst",
          "type": "address"
        },
        {
          "internalType": "address",
          "name": "asset",
          "type": "address"
        },
        {
          "internalType": "uint256",
          "name": "amount",
          "type": "uint256"
        }
      ],
      "name": "supplyFrom",
      "outputs": [],
      "stateMutability": "nonpayable",
      "type": "function"
    },
    {
      "inputs": [
        {
          "internalType": "address",
          "name": "dst",
          "type": "address"
        },
        {
          "internalType": "uint256",
          "name": "amount",
          "type": "uint256"
        }
      ],
      "name": "transfer",
      "outputs": [
        {
          "internalType": "bool",
          "name": "",
          "type": "bool"
        }
      ],
      "stateMutability": "nonpayable",
      "type": "function"
    },
    {
      "inputs": [
        {
          "internalType": "address",
          "name": "src",
          "type": "address"
        },
        {
          "internalType": "address",
          "name": "dst",
          "type": "address"
        },
        {
          "internalType": "uint256",
          "name": "amount",
          "type": "uint256"
        }
      ],
      "name": "transferFrom",
      "outputs": [
        {
          "internalType": "bool",
          "name": "",
          "type": "bool"
        }
      ],
      "stateMutability": "nonpayable",
      "type": "function"
    },
    {
      "inputs": [
        {
          "internalType": "address",
          "name": "dst",
          "type": "address"
        },
        {
          "internalType": "address",
          "name": "asset",
          "type": "address"
        },
        {
          "internalType": "uint256",
          "name": "amount",
          "type": "uint256"
        }
      ],
      "name": "transferAsset",
      "outputs": [],
      "stateMutability": "nonpayable",
      "type": "function"
    },
    {
      "inputs": [
        {
          "internalType": "address",
          "name": "src",
          "type": "address"
        },
        {
          "internalType": "address",
          "name": "dst",
          "type": "address"
        },
        {
          "internalType": "address",
          "name": "asset",
          "type": "address"
        },
        {
          "internalType": "uint256",
          "name": "amount",
          "type": "uint256"
        }
      ],
      "name": "transferAssetFrom",
      "outputs": [],
      "stateMutability": "nonpayable",
      "type": "function"
    },
    {
      "inputs": [
        {
          "internalType": "address",
          "name": "asset",
          "type": "address"
        },
        {
          "internalType": "uint256",
          "name": "amount",
          "type": "uint256"
        }
      ],
      "name": "withdraw",
      "outputs": [],
      "stateMutability": "nonpayable",
      "type": "function"
    },
    {
      "inputs": [
        {
          "internalType": "address",
          "name": "to",
          "type": "address"
        },
        {
          "internalType": "address",
          "name": "asset",
          "type": "address"
        },
        {
          "internalType": "uint256",
          "name": "amount",
          "type": "uint256"
        }
      ],
      "name": "withdrawTo",
      "outputs": [],
      "stateMutability": "nonpayable",
      "type": "function"
    },
    {
      "inputs": [
        {
          "internalType": "address",
          "name": "src",
          "type": "address"
        },
        {
          "internalType": "address",
          "name": "to",
          "type": "address"
        },
        {
          "internalType": "address",
          "name": "asset",
          "type": "address"
        },
        {
          "internalType": "uint256",
          "name": "amount",
          "type": "uint256"
        }
      ],
      "name": "withdrawFrom",
      "outputs": [],
      "stateMutability": "nonpayable",
      "type": "function"
    },
    {
      "inputs": [
        {
          "internalType": "address",
          "name": "absorber",
          "type": "address"
        },
        {
          "internalType": "address[]",
          "name": "accounts",
          "type": "address[]"
        }
      ],
      "name": "absorb",
      "outputs": [],
      "stateMutability": "nonpayable",
      "type": "function"
    },
    {
      "inputs": [
        {
          "internalType": "address",
          "name": "asset",
          "type": "address"
        },
        {
          "internalType": "uint256",
          "name": "minAmount",
          "type": "uint256"
        },
        {
          "internalType": "uint256",
          "name": "baseAmount",
          "type": "uint256"
        },
        {
          "internalType": "address",
          "name": "recipient",
          "type": "address"
        }
      ],
      "name": "buyCollateral",
      "outputs": [],
      "stateMutability": "nonpayable",
      "type": "function"
    },
    {
      "inputs": [
        {
          "internalType": "address",
          "name": "asset",
          "type": "address"
        },
        {
          "internalType": "uint256",
          "name": "baseAmount",
          "type": "uint256"
        }
      ],
      "name": "quoteCollateral",
      "outputs": [
        {
          "internalType": "uint256",
          "name": "",
          "type": "uint256"
        }
      ],
      "stateMutability": "view",
      "type": "function"
    },
    {
      "inputs": [
        {
          "internalType": "address",
          "name": "to",
          "type": "address"
        },
        {
          "internalType": "uint256",
          "name": "amount",
          "type": "uint256"
        }
      ],
      "name": "withdrawReserves",
      "outputs": [],
      "stateMutability": "nonpayable",
      "type": "function"
    },
    {
      "inputs": [
        {
          "internalType": "address",
          "name": "manager",
          "type": "address"
        },
        {
          "internalType": "address",
          "name": "asset",
          "type": "address"
        },
        {
          "internalType": "uint256",
          "name": "amount",
          "type": "uint256"
        }
      ],
      "name": "approveThis",
      "outputs": [],
      "stateMutability": "nonpayable",
      "type": "function"
    },
    {
      "inputs": [],
      "name": "totalSupply",
      "outputs": [
        {
          "internalType": "uint256",
          "name": "",
          "type": "uint256"
        }
      ],
      "stateMutability": "view",
      "type": "function"
    },
    {
      "inputs": [],
      "name": "totalBorrow",
      "outputs": [
        {
          "internalType": "uint256",
          "name": "",
          "type": "uint256"
        }
      ],
      "stateMutability": "view",
      "type": "function"
    },
    {
      "inputs": [
        {
          "internalType": "address",
          "name": "account",
          "type": "address"
        }
      ],
      "name": "balanceOf",
      "outputs": [
        {
          "internalType": "uint256",
          "name": "",
          "type": "uint256"
        }
      ],
      "stateMutability": "view",
      "type": "function"
    },
    {
      "inputs": [
        {
          "internalType": "address",
          "name": "account",
          "type": "address"
        }
      ],
      "name": "borrowBalanceOf",
      "outputs": [
        {
          "internalType": "uint256",
          "name": "",
          "type": "uint256"
        }
      ],
      "stateMutability": "view",
      "type": "function"
    }
  ],
  "bytecode": "0x6107406040523462000382576200001f6200001962000581565b620007c1565b604051614c5190816200131b823960805181818161060601528181610cea015281816113ae0152611769015260a0518181816108310152610e20015260c0518181816107e9015281816113310152818161159e015281816117d20152818161188301528181612a8d01528181613211015281816132e20152818161394601528181613e130152613f17015260e0518181816119b201528181612bd9015281816143f001526147f6015261010051818181610e60015261492e0152610120518181816112e701526125ac015261014051818181610eff015281816125e8015261265201526101605181818161100e0152612682015261018051818181611166015261260f01526101a0518181816110ee01526126bc01526101c0518181816109b7015281816126f8015261276201526101e0518181816108ce0152612792015261020051818181610f8a015261271f01526102205181818161078401526147ba015261024051818181610c6301528181612c0701528181612ea1015281816145c4015261482e015261026051818181611371015261307d0152610280518181816106ba015261249801526102a0518181816111a2015261241b01526102c05181818161112a015261238201526102e051818181610a3101528181613be20152613fbd015261030051818181610aac015261196201526103205181610a6f0152610340518181816112aa01528181611bb0015281816121b601528181612c3601528181612de50152614420015261036051816130a401526103805181611c0001526103a05181611bdf01526103c05181611d4d01526103e05181611d2c01526104005181611d9d01526104205181611d7c01526104405181611ded01526104605181611dcc01526104805181611e3d01526104a05181611e1c01526104c05181611e8d01526104e05181611e6c01526105005181611edd01526105205181611ebc01526105405181611f2d01526105605181611f0c01526105805181611f7d01526105a05181611f5c01526105c05181611fcd01526105e05181611fac0152610600518161201d01526106205181611ffc0152610640518161206d0152610660518161204c015261068051816120bd01526106a0518161209c01526106c0518161210d01526106e051816120ec0152610700518161215b0152610720518161213a0152f35b600080fd5b50634e487b7160e01b600052604160045260246000fd5b60e081019081106001600160401b03821117620003ba57604052565b620003c462000387565b604052565b601f909101601f19168101906001600160401b03821190821017620003ba57604052565b604051906102a082016001600160401b03811183821017620003ba57604052565b51906001600160a01b03821682036200038257565b51906001600160401b03821682036200038257565b51906001600160681b03821682036200038257565b519060ff821682036200038257565b81601f8201121562000382578051906001600160401b03821162000571575b604080519360209162000494838660051b0187620003c9565b848652828601918360e08097028601019481861162000382578401925b858410620004c3575050505050505090565b86848303126200038257825190620004db826200039e565b620004e6856200040e565b8252620004f58686016200040e565b86830152620005068486016200044d565b8483015260606200051981870162000423565b9083015260806200052c81870162000423565b9083015260a06200053f81870162000423565b9083015260c085810151929091906001600160801b0384168403620003825789938893820152815201930192620004b1565b6200057b62000387565b6200047b565b62005f6c8038038060405192620005998285620003c9565b8339810190602081830312620003825780516001600160401b03918282116200038257016102a0818403126200038257620005d3620003ed565b92620005df826200040e565b8452620005ef602083016200040e565b602085015262000602604083016200040e565b604085015262000615606083016200040e565b606085015262000628608083016200040e565b60808501526200063b60a0830162000423565b60a08501526200064e60c0830162000423565b60c08501526200066160e0830162000423565b60e08501526101006200067681840162000423565b908501526101206200068a81840162000423565b908501526101406200069e81840162000423565b90850152610160620006b281840162000423565b90850152610180620006c681840162000423565b908501526101a0620006da81840162000423565b908501526101c0620006ee81840162000423565b908501526101e06200070281840162000423565b908501526102006200071681840162000423565b908501526102206200072a81840162000438565b908501526102406200073e81840162000438565b908501526102606200075281840162000438565b90850152610280928383015190811162000382576200077292016200045c565b9082015290565b90816020910312620003825762000790906200044d565b90565b506040513d6000823e3d90fd5b8115620007ab570490565b634e487b7160e01b600052601260045260246000fd5b6040818101805190929190620007ee90620007e2906001600160a01b031681565b6001600160a01b031690565b9181518093819363313ce56760e01b91828452602093849160049889915afa94851562000c72575b60009562000c4e575b5060ff8516916012831162000c3e576101a08581018051919790946001600160401b0392909190670de0b6b3a76400009084161162000c2e57610280968789019b600f8d51511162000c1e576102208a810180519097919391906001600160681b03161562000c0e5790600860ff8f9493838f9160608e930197620008b2620007e2620007e28b5160018060a01b031690565b93518094819382525afa90811562000bfe575b60009162000bca575b50160362000bba576200092892916200090862000918928e620008f7815160018060a01b031690565b60805201516001600160a01b031690565b60a052516001600160a01b031690565b60c052516001600160a01b031690565b60e05260808901516001600160a01b031661010090815296516200095c906001600160401b03165b6001600160401b031690565b905261032052600a0a1690610240978289526101c093620f42406200098d62000950878b015160018060401b031690565b946102609586521062000bad5750508751620f4240900461036052516001600160681b039081166102c0526101e0868101516001600160401b039081169096526102008088015187166102a0529887015182166102e05291860151166103005260a0850151841661012090815260c08601516301e13380908616819004861661014090815260e0880151871682900487166101609081529588015187168290048716610180908152928801518716909852968601518516879004851690925291840151831685900483169091529091015181169190910416905280515160ff1661034052805162000a7e9062000cdc565b6103a05261038052805162000a939062000fc3565b6103e0526103c052805162000aa89062000ff1565b6104205261040052805162000abd906200101f565b6104605261044052805162000ad2906200104d565b6104a05261048052805162000ae79062001146565b6104e0526104c052805162000afc9062001174565b6105205261050052805162000b1190620011a2565b6105605261054052805162000b2690620011d1565b6105a05261058052805162000b3b9062001200565b6105e0526105c052805162000b50906200122f565b6106205261060052805162000b65906200125e565b6106605261064052805162000b7a906200128d565b6106a05261068052805162000b8f90620012bc565b6106e0526106c0525162000ba390620012eb565b6107205261070052565b51630456c65960e51b8152fd5b8851630456c65960e51b81528e90fd5b62000bef9150843d861162000bf6575b62000be68183620003c9565b81019062000779565b38620008ce565b503d62000bda565b62000c0862000793565b620008c5565b8851636e77247560e01b81528e90fd5b865163df8153c760e01b81528c90fd5b84516324dc918f60e11b81528a90fd5b8151630456c65960e51b81528790fd5b62000c6a919550833d851162000bf65762000be68183620003c9565b93386200081f565b62000c7c62000793565b62000816565b6040519060e082016001600160401b0381118382101762000ccc575b6040528160c06000918281528260208201528260408201528260608201528260808201528260a08201520152565b62000cd662000387565b62000c9e565b62000ce662000c82565b5080511562000fba576020015180519091906001600160a01b03165b6020838101516001600160a01b03169060409462000d238682015160ff1690565b936001600160a01b0390811693841562000faa57169286519263313ce56760e01b808552600860ff600496848189818c5afa90811562000f9a575b60009162000f78575b50160362000f68579060ff91895190815281818781875afa91821562000f58575b60009262000f36575b5050818716918291160362000f26576060830180519093906001600160401b03165b6080820180519095919062000dd1906001600160401b031662000950565b6001600160401b03918216101562000f16578551670de0b6b3a764000091166001600160401b03161162000f06575162000e4d9062000e389062000e229062000e3f9083906001600160401b031683565b655af3107a40006001600160401b039091160490565b61ffff1690565b96516001600160401b031690565b60a082015190959062000e6e9062000e38906001600160401b031662000e22565b9961ffff808816908716101562000ef957505060c0015162000ea5916200095091600a9190910a906001600160801b0316620007a0565b60a092831b61ffff60a01b169190911760b09390931b61ffff60b01b169290921760c09690961b61ffff60c01b1695909517949290921b60ff60a01b161760a89190911b600160a81b600160e81b03161790565b5163327d763960e21b8152fd5b89516304d6b32560e41b81528690fd5b8a5163327d763960e21b81528790fd5b8751630456c65960e51b81528490fd5b62000f509250803d1062000bf65762000be68183620003c9565b388062000d91565b62000f6262000793565b62000d88565b8851630456c65960e51b81528590fd5b62000f939150853d871162000bf65762000be68183620003c9565b3862000d67565b62000fa462000793565b62000d5e565b5050505050509050600090600090565b50600090600090565b62000fcd62000c82565b5080516001101562000fba576040015180519091906001600160a01b031662000d02565b62000ffb62000c82565b5080516002101562000fba576060015180519091906001600160a01b031662000d02565b6200102962000c82565b5080516003101562000fba576080015180519091906001600160a01b031662000d02565b906200105862000c82565b508151600492908310156200113d5760a0015180519092906001600160a01b0316602084810151919290916001600160a01b0316946040956200109e8783015160ff1690565b946001600160a01b039081169182156200112c5716938751600860ff63313ce56760e01b92838152848189818c5afa90811562000f9a5760009162000f785750160362000f68579060ff91895190815281818781875afa91821562000f585760009262000f36575050818716918291160362000f26576060830180519093906001600160401b031662000db3565b505050505050509050600090600090565b50600091508190565b6200115062000c82565b5080516005101562000fba5760c0015180519091906001600160a01b031662000d02565b6200117e62000c82565b5080516006101562000fba5760e0015180519091906001600160a01b031662000d02565b620011ac62000c82565b5080516007101562000fba57610100015180519091906001600160a01b031662000d02565b620011db62000c82565b5080516008101562000fba57610120015180519091906001600160a01b031662000d02565b6200120a62000c82565b5080516009101562000fba57610140015180519091906001600160a01b031662000d02565b6200123962000c82565b508051600a101562000fba57610160015180519091906001600160a01b031662000d02565b6200126862000c82565b508051600b101562000fba57610180015180519091906001600160a01b031662000d02565b6200129762000c82565b508051600c101562000fba576101a0015180519091906001600160a01b031662000d02565b620012c662000c82565b508051600d101562000fba576101c0015180519091906001600160a01b031662000d02565b620012f562000c82565b508051600e101562000fba576101e0015180519091906001600160a01b031662000d0256fe60806040526004361015610018575b610016614921565b005b60003560e01c8063042e02cf146105545780630902f1ac1461054b5780630bc47ad1146105425780630c340a241461053957806318160ddd14610530578063189bb2f1146105275780631c9f7fb91461051e5780631f5954bd1461051557806323b872dd1461050c57806324a3d6221461050357806326441318146104fa5780632a48cf12146104f15780632b92a07d146104e85780632d05670b146104df5780632e04b8e7146104d6578063300e6beb146104cd578063313ce567146104c457806332176c49146104bb578063374c49b4146104b257806338aa813f146104a95780633b3bec2e146104a057806341976e09146104975780634232cd631461048e578063439e2e451461048557806344c1e5eb1461047c57806344c35d071461047357806344ff241d1461046a57806359e017bd146104615780635a94b8d11461045857806367800b5f1461044f57806370a08231146104465780637914acc71461043d5780637ac88ed1146104345780637eb711311461042b578063804de71f146104225780638285ef40146104195780638d5d814c1461041057806390323177146104075780639241a561146103fe5780639364e18a146103f557806394920cca146103ec5780639ea99a5a146103e35780639fa83b5a146103da5780639ff567f8146103d1578063a1654379146103c8578063a1a1ef43146103bf578063a46fe83b146103b6578063a5b4ff79146103ad578063a9059cbb146103a4578063aba7f15e1461039b578063ad14777c14610392578063bfe69c8d14610389578063c1ee2c1814610380578063c3b35a7e14610377578063c3cecfd21461036e578063c55dae6314610365578063c5fa15cf1461035c578063c8c7fe6b14610353578063cde680411461034a578063d8e5f61114610341578063d955759d14610338578063dc4abafd1461032f578063e478795d14610326578063e4e6e7791461031d578063e7dad6bd14610314578063f2b9fdb81461030b5763f3fef3a30361000e57610306611a0e565b61000e565b506103066119e1565b5061030661199b565b50610306611828565b5061030661173d565b506103066116c9565b506103066116aa565b50610306611683565b50610306611669565b5061030661163e565b506103066115cd565b50610306611587565b50610306611522565b50610306611508565b506103066114ec565b5061030661144c565b50610306611394565b50610306611358565b5061030661130a565b506103066112ce565b5061030661128f565b50610306611268565b5061030661121d565b506103066111f5565b506103066111c5565b50610306611189565b5061030661114d565b50610306611111565b506103066110d5565b506103066110b9565b50610306611092565b50610306611031565b50610306610ff5565b50610306610fd9565b50610306610fad565b50610306610f71565b50610306610f49565b50610306610f22565b50610306610ee6565b50610306610e8f565b50610306610e49565b50610306610c90565b50610306610c4a565b50610306610c30565b50610306610c16565b50610306610bee565b50610306610bb9565b50610306610af7565b50610306610acf565b50610306610a93565b50610306610a54565b50610306610a18565b506103066109da565b5061030661099e565b50610306610933565b506103066108b5565b50610306610899565b5061030661081a565b506103066107d3565b5061030661076b565b506103066106dd565b506103066106a1565b50610306610635565b506103066105ef565b506103066105c9565b506103066105a5565b50610306610573565b6001600160a01b0381160361056e57565b600080fd5b503461056e57602036600319011261056e57602061059b6004356105968161055d565b612d85565b6040519015158152f35b503461056e57600036600319011261056e5760206105c1612a38565b604051908152f35b503461056e57600036600319011261056e5760206001805460f81c161515604051908152f35b503461056e57600036600319011261056e576040517f00000000000000000000000000000000000000000000000000000000000000006001600160a01b03168152602090f35b503461056e57600036600319011261056e57602066038d7ea4c6800061069861065c612227565b6001600160681b036001600160401b0361068f6001549361068964ffffffffff91828760d01c169061229c565b16612503565b50169116611b6d565b04604051908152f35b503461056e57600036600319011261056e5760206040517f00000000000000000000000000000000000000000000000000000000000000008152f35b503461056e576000806003193601126107685764ffffffffff60015460d01c166107575761073361070c612227565b6001805464ffffffffff60d01b191660d09290921b64ffffffffff60d01b16919091179055565b80546001600160801b0319166e038d7ea4c6800000038d7ea4c68000178155604051f35b60405162dc149f60e41b8152600490fd5b80fd5b503461056e57600036600319011261056e5760206040517f00000000000000000000000000000000000000000000000000000000000000008152f35b606090600319011261056e576004356107bf8161055d565b906024356107cc8161055d565b9060443590565b503461056e5761080f6107e5366107a7565b91907f0000000000000000000000000000000000000000000000000000000000000000913361390e565b602060405160018152f35b503461056e57600036600319011261056e576040517f00000000000000000000000000000000000000000000000000000000000000006001600160a01b03168152602090f35b608090600319011261056e576004356108788161055d565b906024356108858161055d565b906044356108928161055d565b9060643590565b503461056e576100166108ab36610860565b9291909133613de4565b503461056e57600036600319011261056e5760206040517f00000000000000000000000000000000000000000000000000000000000000008152f35b604090600319011261056e576004356109098161055d565b906024356109168161055d565b90565b6001600160a01b0316600090815260056020526040902090565b503461056e5761099a610975610948366108f1565b9060018060a01b0316600052600660205260406000209060018060a01b0316600052602052604060002090565b54604080516001600160801b038316815260809290921c602083015290918291820190565b0390f35b503461056e57600036600319011261056e5760206040517f00000000000000000000000000000000000000000000000000000000000000008152f35b503461056e57602036600319011261056e576004356109f88161055d565b60018060a01b031660005260046020526020604060002054604051908152f35b503461056e57600036600319011261056e5760206040517f00000000000000000000000000000000000000000000000000000000000000008152f35b503461056e57600036600319011261056e57602060405160ff7f0000000000000000000000000000000000000000000000000000000000000000168152f35b503461056e57600036600319011261056e5760206040517f00000000000000000000000000000000000000000000000000000000000000008152f35b503461056e57602036600319011261056e5760206105c1600435610af28161055d565b6148d9565b503461056e57602036600319011261056e57602061059b600435610b1a8161055d565b612b65565b610bb79092919260e08061010083019560ff815116845260018060a01b0380602083015116602086015260408201511660408501526001600160401b036060820151166060850152610b81608082015160808601906001600160401b03169052565b60a0818101516001600160401b03169085015260c0818101516001600160401b03169085015201516001600160801b0316910152565b565b503461056e57602036600319011261056e5761099a610be2600435610bdd8161055d565b6121a3565b60405191829182610b1f565b503461056e57602036600319011261056e5760206105c1600435610c118161055d565b612877565b503461056e57610016610c28366107a7565b9133336131df565b503461056e57610016610c42366107a7565b91333361390e565b503461056e57600036600319011261056e5760206040517f00000000000000000000000000000000000000000000000000000000000000008152f35b8015150361056e57565b503461056e5760a036600319011261056e57600435610cae81610c86565b602435610cba81610c86565b60443591610cc783610c86565b60643592610cd484610c86565b608435610ce081610c86565b60018060a01b03807f0000000000000000000000000000000000000000000000000000000000000000163314159081610e1c575b50610e0b577f3be39979091ae7ca962aa1c44e645f2df3c221b79f324afa5f44aedc8d2f690d94610e0692610dd1610d54610d4e87614bed565b60ff1690565b610d69610d6089614bed565b60011b60fe1690565b17610d7f610d7684614bed565b60021b60fc1690565b17610d95610d8c85614bed565b60031b60f81690565b17610dab610da286614bed565b60041b60f01690565b600180546001600160f81b03169290911760f81b6001600160f81b031916919091179055565b6040519586958693909594919260809360a0860197151586521515602086015215156040850152151560608401521515910152565b0390a1005b6040516282b42960e81b8152600490fd5b90507f00000000000000000000000000000000000000000000000000000000000000001633141538610d14565b503461056e57600036600319011261056e576040517f00000000000000000000000000000000000000000000000000000000000000006001600160a01b03168152602090f35b503461056e57602036600319011261056e57600435610ead8161055d565b6001600160a01b03166000908152600260209081526040918290205482516001600160801b038216815260809190911c91810191909152f35b503461056e57600036600319011261056e5760206040517f00000000000000000000000000000000000000000000000000000000000000008152f35b503461056e57600036600319011261056e576020600460015460f81c161515604051908152f35b503461056e57602036600319011261056e5760206105c1600435610f6c8161055d565b61487b565b503461056e57600036600319011261056e5760206040517f00000000000000000000000000000000000000000000000000000000000000008152f35b503461056e57604036600319011261056e5760206105c1600435610fd08161055d565b6024359061475f565b503461056e57600036600319011261056e5760206105c16127d9565b503461056e57600036600319011261056e5760206040517f00000000000000000000000000000000000000000000000000000000000000008152f35b503461056e57600036600319011261056e57602066038d7ea4c68000610698611058612227565b6001600160681b036001600160401b036110856001549361068964ffffffffff91828760d01c169061229c565b9050169160681c16611b6d565b503461056e57600036600319011261056e576020600860015460f81c161515604051908152f35b503461056e576100166110cb36610860565b92919091336131df565b503461056e57600036600319011261056e5760206040517f00000000000000000000000000000000000000000000000000000000000000008152f35b503461056e57600036600319011261056e5760206040517f00000000000000000000000000000000000000000000000000000000000000008152f35b503461056e57600036600319011261056e5760206040517f00000000000000000000000000000000000000000000000000000000000000008152f35b503461056e57600036600319011261056e5760206040517f00000000000000000000000000000000000000000000000000000000000000008152f35b503461056e57602036600319011261056e5760206111e46004356126ba565b6001600160401b0360405191168152f35b503461056e57602036600319011261056e5760206105c16004356112188161055d565b612931565b503461056e57602060ff61125c611233366108f1565b6001600160a01b0391821660009081526003865260408082209290931681526020919091522090565b54166040519015158152f35b503461056e57600036600319011261056e576020600260015460f81c161515604051908152f35b503461056e57600036600319011261056e57602060405160ff7f0000000000000000000000000000000000000000000000000000000000000000168152f35b503461056e57600036600319011261056e5760206040517f00000000000000000000000000000000000000000000000000000000000000008152f35b503461056e57604036600319011261056e5761080f60043561132b8161055d565b602435907f000000000000000000000000000000000000000000000000000000000000000090333361390e565b503461056e57600036600319011261056e5760206040517f00000000000000000000000000000000000000000000000000000000000000008152f35b503461056e576113a3366107a7565b6001600160a01b03917f000000000000000000000000000000000000000000000000000000000000000083163303610e0b5760405163095ea7b360e01b81526001600160a01b03949094166004850152602484019190915260209183916044918391600091165af1801561143f575b61141857005b6100169060203d8111611438575b6114308183611a6c565b810190613521565b503d611426565b61144761286a565b611412565b503461056e57602036600319011261056e5761001660043561146d8161055d565b6114756122e6565b60018060a01b038116600052600560205260406000206114e16040519161149b83611a3b565b5480600c0b83526001600160401b03808260681c1660208501528160a81c1660408401526114d761ffff8260e81c16606085019061ffff169052565b60f81c6080830152565b8051600c0b91612ffa565b503461056e576100166114fe36610860565b929190913361390e565b503461056e5761001661151a366107a7565b913333613de4565b503461056e57604036600319011261056e576004356115408161055d565b602435906001600160401b039081831161056e573660238401121561056e57826004013591821161056e573660248360051b8501011161056e576024610016930190614216565b503461056e57600036600319011261056e576040517f00000000000000000000000000000000000000000000000000000000000000006001600160a01b03168152602090f35b503461056e57602036600319011261056e576004356115eb8161055d565b60018060a01b0316600052600760205260806040600020546040519063ffffffff811682526001600160401b038160201c1660208301526001600160801b038160601c16604083015260e01c6060820152f35b503461056e57602036600319011261056e5760043560ff8116810361056e57610be261099a91611b9f565b503461056e57602061059b61167d366108f1565b90614960565b503461056e57600036600319011261056e576020601060015460f81c161515604051908152f35b503461056e57602036600319011261056e5760206111e46004356125aa565b503461056e57602036600319011261056e576004356116e78161055d565b60018060a01b0316600052600560205260a06040600020546040519080600c0b82526001600160401b03808260681c1660208401528160a81c16604083015261ffff8160e81c16606083015260f81c6080820152f35b503461056e57604036600319011261056e5760043561175b8161055d565b602435906001600160a01b037f000000000000000000000000000000000000000000000000000000000000000081163303610e0b57611798612a38565b60008112908115611816575b5061180457816117f6847fec4431f2ba1a9382f6b0c4352b888cba6f7db91667d9f776abe5ad8ddc5401b6947f0000000000000000000000000000000000000000000000000000000000000000613ff7565b6040519384521691602090a2005b60405163128bd24d60e31b8152600490fd5b6118209150614be2565b8311386117a4565b503461056e57608036600319011261056e576004356118468161055d565b604435606435916118568361055d565b601060015460f81c166119895761186b612a38565b6000811215908161195e575b5061194c576118a782337f0000000000000000000000000000000000000000000000000000000000000000613536565b6118b1828261475f565b92602435841061193a576118c482612931565b8411611804577ff891b2a411b0e66a5f0a6ff1368670fefa287a13f541eb633a386a1a9cc7046b916119126119359261190b6118ff88614b3b565b6001600160801b031690565b9083613ff7565b6040805194855260208501959095526001600160a01b0316933393918291820190565b0390a3005b60405163fa6ad35560e01b8152600490fd5b604051631d99ddbf60e01b8152600490fd5b90507f0000000000000000000000000000000000000000000000000000000000000000111538611877565b6040516313d0ff5960e31b8152600490fd5b503461056e57600036600319011261056e576040517f00000000000000000000000000000000000000000000000000000000000000006001600160a01b03168152602090f35b503461056e57604036600319011261056e57610016600435611a028161055d565b602435903333336131df565b503461056e57604036600319011261056e57610016600435611a2f8161055d565b60243590333333613de4565b60a081019081106001600160401b03821117611a5657604052565b634e487b7160e01b600052604160045260246000fd5b90601f801991011681019081106001600160401b03821117611a5657604052565b6040519061010082018281106001600160401b03821117611a5657604052565b6040519061010082018281106001600160401b03821117611a56576040528160e06000918281528260208201528260408201528260608201528260808201528260a08201528260c08201520152565b50634e487b7160e01b600052601260045260246000fd5b50634e487b7160e01b600052601160045260246000fd5b66038d7ea4c68000908060001904821181151516611b46570290565b611b4e611b13565b0290565b655af3107a4000908060001904821181151516611b46570290565b8060001904821181151516611b46570290565b60ff16604d8111611b92575b600a0a90565b611b9a611b13565b611b8c565b611ba7611aad565b5060ff811660ff7f0000000000000000000000000000000000000000000000000000000000000000168110156121915780611d2157507f00000000000000000000000000000000000000000000000000000000000000007f00000000000000000000000000000000000000000000000000000000000000005b61ffff808260a01c16611c3290611b52565b6001600160401b0316818360b01c16611c4a90611b52565b6001600160401b0316918360c01c16611c6290611b52565b6001600160401b0316928460a01c60ff16611c7c90611b80565b6001600160401b031690611ca06001600160401b038084169060a889901c16611b6d565b6001600160801b031695611cb2611a8d565b60ff90981688526001600160a01b039182166020890152166001600160a01b031660408701526001600160401b031660608601526001600160401b031660808501526001600160401b031660a08401526001600160401b031660c08301526001600160801b031660e082015290565b60018103611d7157507f00000000000000000000000000000000000000000000000000000000000000007f0000000000000000000000000000000000000000000000000000000000000000611c20565b60028103611dc157507f00000000000000000000000000000000000000000000000000000000000000007f0000000000000000000000000000000000000000000000000000000000000000611c20565b60038103611e1157507f00000000000000000000000000000000000000000000000000000000000000007f0000000000000000000000000000000000000000000000000000000000000000611c20565b60048103611e6157507f00000000000000000000000000000000000000000000000000000000000000007f0000000000000000000000000000000000000000000000000000000000000000611c20565b60058103611eb157507f00000000000000000000000000000000000000000000000000000000000000007f0000000000000000000000000000000000000000000000000000000000000000611c20565b60068103611f0157507f00000000000000000000000000000000000000000000000000000000000000007f0000000000000000000000000000000000000000000000000000000000000000611c20565b60078103611f5157507f00000000000000000000000000000000000000000000000000000000000000007f0000000000000000000000000000000000000000000000000000000000000000611c20565b60088103611fa157507f00000000000000000000000000000000000000000000000000000000000000007f0000000000000000000000000000000000000000000000000000000000000000611c20565b60098103611ff157507f00000000000000000000000000000000000000000000000000000000000000007f0000000000000000000000000000000000000000000000000000000000000000611c20565b600a810361204157507f00000000000000000000000000000000000000000000000000000000000000007f0000000000000000000000000000000000000000000000000000000000000000611c20565b600b810361209157507f00000000000000000000000000000000000000000000000000000000000000007f0000000000000000000000000000000000000000000000000000000000000000611c20565b600c81036120e157507f00000000000000000000000000000000000000000000000000000000000000007f0000000000000000000000000000000000000000000000000000000000000000611c20565b600d810361213157507f00000000000000000000000000000000000000000000000000000000000000007f0000000000000000000000000000000000000000000000000000000000000000611c20565b600e0361217f577f00000000000000000000000000000000000000000000000000000000000000007f0000000000000000000000000000000000000000000000000000000000000000611c20565b60405163971241a160e01b8152600490fd5b604051633640530560e01b8152600490fd5b906121ac611aad565b5060009060ff92837f000000000000000000000000000000000000000000000000000000000000000016925b83858216106121f357604051633640530560e01b8152600490fd5b6121fc81611b9f565b60208101516001600160a01b0384811691161461221e575060010184166121d8565b93505050915090565b650100000000004210156122405764ffffffffff421690565b604051633d32ffdb60e01b8152600490fd5b9060405161225f81611a3b565b608081935480600c0b83526001600160401b03808260681c1660208501528160a81c16604084015261ffff8160e81c16606084015260f81c910152565b64ffffffffff91821691168181106122b2570390565b6122ba611b13565b0390565b906001600160401b0380809316911680920381116122da570190565b6122e2611b13565b0190565b6122ee612227565b61231861230e61230860015464ffffffffff9060d01c1690565b8361229c565b64ffffffffff1690565b9081612322575050565b8161237d612361612335610bb795612503565b91909167ffffffffffffffff60401b6000549160401b169067ffffffffffffffff60401b191617600055565b6001600160401b03166001600160401b03196000541617600055565b6001547f000000000000000000000000000000000000000000000000000000000000000091906001600160681b031682811015612485575b506001546123d69060681c6001600160681b03165b6001600160681b031690565b91821015612408575b50506001805464ffffffffff60d01b191660d09290921b64ffffffffff60d01b16919091179055565b61244961244461247e9361243f612459947f0000000000000000000000000000000000000000000000000000000000000000611b6d565b612e9b565b614aef565b60005460c01c6122be565b6122be565b600080546001600160c01b031660c09290921b6001600160c01b031916919091179055565b38806123df565b6124d06124bc6124446124fd9361243f867f0000000000000000000000000000000000000000000000000000000000000000611b6d565b60005460801c6001600160401b03166122be565b6000805467ffffffffffffffff60801b191660809290921b67ffffffffffffffff60801b16919091179055565b386123b5565b906000546001600160401b0392838083169260401c169381612526575b50509190565b81612579612573612553979461258561258b9761257f8761255a61257f9961254c6127d9565b9e8f6125aa565b169d6126ba565b169b612579612573670de0b6b3a7640000998a93611b6d565b84611b6d565b04614aef565b906122be565b98611b6d565b913880612520565b811981116122da570190565b8181106122b2570390565b7f00000000000000000000000000000000000000000000000000000000000000008082116126335750612444670de0b6b3a764000061260c610916937f0000000000000000000000000000000000000000000000000000000000000000611b6d565b047f0000000000000000000000000000000000000000000000000000000000000000612593565b61091691612444916126a6670de0b6b3a7640000916126768361260c837f0000000000000000000000000000000000000000000000000000000000000000611b6d565b938181106126ad575b037f0000000000000000000000000000000000000000000000000000000000000000611b6d565b0490612593565b6126b5611b13565b61267f565b7f00000000000000000000000000000000000000000000000000000000000000008082116127435750612444670de0b6b3a764000061271c610916937f0000000000000000000000000000000000000000000000000000000000000000611b6d565b047f0000000000000000000000000000000000000000000000000000000000000000612593565b61091691612444916126a6670de0b6b3a7640000916127868361271c837f0000000000000000000000000000000000000000000000000000000000000000611b6d565b938181106127b6575b037f0000000000000000000000000000000000000000000000000000000000000000611b6d565b6127be611b13565b61278f565b81156127cd570490565b6127d5611afc565b0490565b60005460015461281b66038d7ea4c68000916001600160401b036001600160681b03908461280b828816848616611b6d565b049560401c169160681c16611b6d565b0481612828575050600090565b670de0b6b3a764000090806000190482118115151661284657020490565b61284e611b13565b020490565b519069ffffffffffffffffffff8216820361056e57565b506040513d6000823e3d90fd5b604051633fabe5a360e21b81529060a090829060049082906001600160a01b03165afa908115612915575b6000916128c9575b5060008113156128b75790565b60405163fd1ee34960e01b8152600490fd5b9060a0823d821161290d575b816128e260a09383611a6c565b8101031261076857506128f481612853565b50612906608060208301519201612853565b50386128aa565b3d91506128d5565b61291d61286a565b6128a2565b9081602091031261056e575190565b6040516370a0823160e01b8152306004820152906001600160a01b0316602082602481845afa9182156129bb575b60009261298b575b5060005260026020526001600160801b0360406000205416908181106122b2570390565b6129ad91925060203d81116129b4575b6129a58183611a6c565b810190612922565b9038612967565b503d61299b565b6129c361286a565b61295f565b600082128015600160ff1b84018312166129f2575b6001600160ff1b0383018213166122b2570390565b6129fa611b13565b6129dd565b6000811280156001600160ff1b03839003841316612a2b575b600160ff1b8290038312166122da570190565b612a33611b13565b612a18565b610916612a43612227565b612a66612a6161230e6001549364ffffffffff8560d01c169061229c565b612503565b6040516370a0823160e01b8152306004820152929091906020846024816001600160a01b037f0000000000000000000000000000000000000000000000000000000000000000165afa938415612b58575b600094612b20575b5091612b14612b0e612b0e93612b07612b1a9666038d7ea4c68000926001600160401b0384612afa826001600160681b039416848616611b6d565b0497169160681c16611b6d565b0495614b96565b91614b96565b906129c8565b906129ff565b612b1a93919450612b0e612b0e93612b07612b4b612b149460203d81116129b4576129a58183611a6c565b9794965050935050612abf565b612b6061286a565b612ab7565b90612b8c612b858360018060a01b03166000526005602052604060002090565b54600c0b90565b906000928383600c0b1215612d7c57612c2d612bd4612bce612bc38496959660018060a01b03166000526005602052604060002090565b5460e81c61ffff1690565b936149a8565b612bfd7f0000000000000000000000000000000000000000000000000000000000000000612877565b6001600160401b037f00000000000000000000000000000000000000000000000000000000000000001691612ee5565b90849360ff95867f000000000000000000000000000000000000000000000000000000000000000016955b8781169087821015612d6e5790889161ffff600180931b891616612c7e575b0116612c58565b9590915082811215612d625790612d5c8992612b1a612d5788612d51612d456080612d36612cfc8f612cd1612cb5612cef92611b9f565b6001600160a01b03909816600090815260066020526040902090565b6020888101516001600160a01b031660009081529190526040902090565b546001600160801b031690565b6040860151612d13906001600160a01b0316612877565b6001600160801b03612d2f60608901516001600160401b031690565b9216612ec6565b9301516001600160401b031690565b6001600160401b031690565b90612e88565b614b96565b95612c77565b50955050945050505090565b505094509450509050121590565b50915050600190565b90612da5612b858360018060a01b03166000526005602052604060002090565b906000928383600c0b1215612e8357612ddc612bd4612bce612bc38496959660018060a01b03166000526005602052604060002090565b90849360ff95867f000000000000000000000000000000000000000000000000000000000000000016955b8781169087821015612e765790889161ffff600180931b891616612e2d575b0116612e07565b9590915082811215612e6a5790612e648992612b1a612d5788612d51612d4560a0612d36612cfc8f612cd1612cb5612cef92611b9f565b95612e26565b50509450945050505090565b5050945094505090501290565b509050565b670de0b6b3a7640000916127d591611b6d565b6127c3907f000000000000000000000000000000000000000000000000000000000000000090611b6d565b6001600160401b0391612ed891611b6d565b91169081156127cd570490565b9190612ef86001600160401b0391614b96565b6000808513949082136001600160ff1b03868216848204841116612fa9575b600160ff1b96600085129185918316858a05831216612f9c575b60008512938416828a05861216612f8f575b058312911616612f82575b029116918215612f75575b8114600019831416612f69570590565b612f71611b13565b0590565b612f7d611afc565b612f59565b612f8a611b13565b612f4e565b612f97611b13565b612f43565b612fa4611b13565b612f31565b612fb1611b13565b612f17565b6001600160401b0391821691168181106122b2570390565b600c0b6c7fffffffffffffffffffffffff198114612fed575b60000390565b612ff5611b13565b612fe7565b61311990610bb79361300d8451600c0b90565b600c82900b855260009182918683600c83900b811361319f576130a261307b6130ef946001600160681b03613074612d456130c99761306e602061305f6124449a546001600160401b039060801c1690565b9201516001600160401b031690565b90612fb6565b9116611b6d565b7f0000000000000000000000000000000000000000000000000000000000000000906127c3565b7f0000000000000000000000000000000000000000000000000000000000000000906127c3565b6130e2604089019161245483516001600160401b031690565b6001600160401b03169052565b600c0b1261319257546109199060801c6001600160401b03165b6001600160401b03166020850152565b815160208301516040840151606085015160809095015160e89590951b61ffff60e81b1660a89190911b67ffffffffffffffff60a81b166001600160681b0390931660689290921b67ffffffffffffffff60681b169190911791909117176001600160f81b031960f89390931b92909216919091179055565b546109199060c01c613109565b6130a261307b6131da946131d56123ca6123ca6131cf612d456130c99961306e602061305f6124449c5460c01c90565b93612fce565b611b6d565b6130ef565b939290936001805460f81c16611989576131fc6132009186614960565b1590565b610e0b576001600160a01b038181167f0000000000000000000000000000000000000000000000000000000000000000909116036132575750610bb79260001983036132d6579150613251816148d9565b916132d6565b90613265610bb79493614b3b565b92613666565b906001600160681b0380809316911680920381116122da570190565b6001600160681b0391821691168181106122b2570390565b600180546cffffffffffffffffffffffffff60681b191660689290921b6cffffffffffffffffffffffffff60681b16919091179055565b6133bd919261330681837f0000000000000000000000000000000000000000000000000000000000000000613536565b61330e6122e6565b6001600160a01b03841660009081526005602052604090206133c89061333890612252565b612252565b8051600c0b906133c261336861336161335c613353866149a8565b612b1a89614b96565b614a3f565b80946134a7565b97906133a46133888a6133836001546001600160681b031690565b61326b565b6001600160681b03166001600160681b03196001541617600155565b60015460681c6001600160681b0316613287565b613287565b61329f565b86612ffa565b6040519081526001600160a01b0393841693849216907fd1cf3d156d5f8f0d50f6c122ed609cec09d35c9b9fb3fff6ea0959134dae424e90602090a36001600160681b038116613416575050565b600080516020614bfc83398151915261345461344460009361343f85546001600160401b031690565b614a1a565b6040519081529081906020820190565b0390a3565b600c91820b910b6000821280156c7fffffffffffffffffffffffff19840183121661349a575b826c7fffffffffffffffffffffffff018213166122b2570390565b6134a2611b13565b61347f565b91909180600c0b83600c0b818112613514576000126134da57506134cb9192613459565b6001600160681b031690600090565b6000136134fb576134eb9192613459565b6001600160681b03169060009190565b61350490612fce565b6001600160681b03908116921690565b5050509050600090600090565b9081602091031261056e575161091681610c86565b6040516323b872dd60e01b81526001600160a01b039283166004820152306024820152604481019390935260209183916064918391600091165af19081156135b9575b60009161359b575b501561358957565b60405163073d1efd60e51b8152600490fd5b6135b3915060203d8111611438576114308183611a6c565b38613581565b6135c161286a565b613579565b90604051604081018181106001600160401b03821117611a565760405291546001600160801b038116835260801c6020830152565b906001600160801b0380809316911680920381116122da570190565b906001600160801b03166001600160801b0319825416179055565b9060206001600160801b039161364b8382511685613617565b0151908254916001600160801b03199060801b169116179055565b919290926001600160801b03906136808284168583613536565b613689816121a3565b906136ae6136a98260018060a01b03166000526002602052604060002090565b6135c6565b926136d96136cc866136c787516001600160801b031690565b6135fb565b6001600160801b03168552565b83516001600160801b0316906136fc6118ff60e08601516001600160801b031690565b9116116137f8576137c86137a3856137f3946137c27ffa56f7b24f17183d81894d3ac2ee654e3c26388d17a28dbd9549b8114304e1f4976137bd876137618e61377f613778612cef856137618560018060a01b03166000526006602052604060002090565b9060018060a01b0316600052602052604060002090565b98896135fb565b98899561379e8560018060a01b03166000526002602052604060002090565b613632565b6001600160a01b0316600090815260066020526040902090565b613617565b8961380a565b6040516001600160801b0390941684526001600160a01b039081169581169416929081906020820190565b0390a4565b604051637ac7b99d60e11b8152600490fd5b909290916001600160801b03908116158080613903575b156138895750505061386161384560ff610bb7945116600160ff61ffff92161b1690565b6001600160a01b03909216600090815260056020526040902090565b805461ffff60e81b19811660e891821c61ffff16909317901b61ffff60e81b16919091179055565b1591826138f8575b505061389b575050565b61ffff6138d46138ba60ff610bb7955116600160ff61ffff92161b1690565b199260018060a01b03166000526005602052604060002090565b91825460e81c161681549061ffff60e81b9060e81b169061ffff60e81b1916179055565b161590503880613891565b508183161515613821565b93929093600260015460f81c16611989576131fc61392c9186614960565b610e0b576001600160a01b03848116838216146139a457807f000000000000000000000000000000000000000000000000000000000000000016908216146000146139905750610bb79260001983036139c757915061398a8261487b565b916139c7565b9061399e610bb79493614b3b565b92613ca5565b60405163e397a99b60e01b8152600490fd5b600160ff1b8114612fed5760000390565b9190916139d26122e6565b6001600160a01b03811660009081526005602052604090206139f390612252565b6001600160a01b0384166000908152600560205260409020613a1490612252565b928151613a2190600c0b90565b938051613a2e90600c0b90565b92613a38866149a8565b613a4184614b96565b613a4a916129c8565b92613a54856149a8565b90613a5e90614b96565b613a67916129ff565b90613a7184614a3f565b613a7b8193614a3f565b978893613a8791613c40565b98613a9291976134a7565b98878a600154613aa8906001600160681b031690565b90613ab29161326b565b90613abc91613287565b613adc906001600160681b03166001600160681b03196001541617600155565b60015460681c6001600160681b031690613af59161326b565b90613aff91613287565b613b089061329f565b613b129187612ffa565b613b1c9187612ffa565b60008112613bd7575b506001600160681b0391828216613b88575b50508116613b43575050565b600080516020614bfc833981519152613454613b6c60009361343f85546001600160401b031690565b6040519081526001600160a01b03909416939081906020820190565b600080516020614bfc833981519152613bcd613bb160009461343f86546001600160401b031690565b6040519081526001600160a01b03909316929081906020820190565b0390a33880613b37565b613be0906139b6565b7f000000000000000000000000000000000000000000000000000000000000000011613c2e57613c126131fc83612b65565b613c1c5738613b25565b604051630a62fbdb60e11b8152600490fd5b604051637139da2360e11b8152600490fd5b919082600c0b81600c0b81811361351457600013613c6357506134cb9192613459565b600012613c74576134eb9192613459565b613c7d90612fce565b6001600160681b03928316921690565b6001600160801b0391821691168181106122b2570390565b6001600160a01b0381811660008181526006602081815260408084208987168086529083528185205489881686529383528185209085529091529091205494969591946001600160801b039492939291908516908516613d058882613c8d565b91613d1089826135fb565b918387613d2f8760018060a01b03166000526006602052604060002090565b6001600160a01b0390911660009081526020919091526040902090613d5391613617565b6001600160a01b038b81166000908152600660209081526040808320938b16835292905220613d83908490613617565b613d8c876121a3565b93613d9891858761380a565b613da2928a61380a565b613dab90612b65565b15613c1c57806020927f29db89d45e1a802b4d55e202984fce9faf1d30aedf86503ff1ea0ed9ebb64201946040519716875216951693a4565b93929093600460015460f81c16611989576131fc613e029186614960565b610e0b576001600160a01b038181167f000000000000000000000000000000000000000000000000000000000000000090911603613e595750610bb7926000198303613e6d579150613e538261487b565b91613e6d565b90613e67610bb79493614b3b565b92614081565b90916133bd92613e7b6122e6565b6001600160a01b0383166000908152600560205260409020613e9c90612252565b613f06613eaa8251600c0b90565b613ebf613eb6826149a8565b612b1487614b96565b926133c2613ed6613ecf86614a3f565b8094613c40565b613ef2613388836133b860019e959e546001600160681b031690565b60015460681c6001600160681b031661326b565b60008112613fb2575b50613f3b82827f0000000000000000000000000000000000000000000000000000000000000000613ff7565b6040519182526001600160a01b0392831692169082907f9b1bfa7fa9ee420a16e124f794c35ac9f90472acc99140eb2f6447c714cad8eb90602090a36001600160681b038216613f89575050565b600080516020614bfc83398151915261345461344460009461343f86546001600160401b031690565b613fbb906139b6565b7f000000000000000000000000000000000000000000000000000000000000000011613c2e57613fed6131fc84612b65565b613c1c5738613f0f565b60405163a9059cbb60e01b81526001600160a01b039283166004820152602481019390935260209183916044918391600091165af1908115614074575b600091614056575b501561404457565b60405163cefaffeb60e01b8152600490fd5b61406e915060203d8111611438576114308183611a6c565b3861403c565b61407c61286a565b614034565b909260018060a01b03918281169283600052600660205261413a6001600160801b0392610b1a846140c88960406000209060018060a01b0316600052602052604060002090565b54166140d48782613c8d565b906141076140f48b60018060a01b03166000526002602052604060002090565b6141018a8a835416613c8d565b90613617565b61412b826137bd8c6137618860018060a01b03166000526006602052604060002090565b6141348a6121a3565b8461380a565b15613c1c57806020927fd6d480d5b3068db003533b170d67561494d72e3bf9fa40a266471351ebba9e16941695614172878983613ff7565b60405196875216951693a4565b919081101561418f5760051b0190565b634e487b7160e01b600052603260045260246000fd5b356109168161055d565b90604051608081016001600160401b0382821081831117611a56576060916040528294549063ffffffff821684528160201c1660208401526001600160801b0381831c16604084015260e01c910152565b60019063ffffffff8091169081146122da570190565b9291909260016008815460f81c16611989575a946142326122e6565b60005b84811061436e5750505061430e906142f46142ce6142c961425b610bb797985a9061259f565b6142c26142a96142856142808860018060a01b03166000526007602052604060002090565b6141af565b9861244461429f61429a8c5163ffffffff1690565b614200565b63ffffffff168b52565b6130e260208a019161245483516001600160401b031690565b4890611b6d565b614b3b565b6142e760408601916136c783516001600160801b031690565b6001600160801b03169052565b6001600160a01b0316600090815260076020526040902090565b815160208084015160408501516060958601516001600160e01b031960e09190911b166fffffffffffffffffffffffffffffffff60601b9190961b1663ffffffff9093166bffffffffffffffff000000009190921b161717919091179055565b8061438c6143866143818694898761417f565b6141a5565b86614392565b01614235565b9161439f6131fc83612d85565b61474d57906143c36133338260018060a01b03166000526005602052604060002090565b906143cf8251600c0b90565b936143d9856149a8565b926060906143eb8282015161ffff1690565b6144147f0000000000000000000000000000000000000000000000000000000000000000612877565b96600092839860ff9a8b7f0000000000000000000000000000000000000000000000000000000000000000169a5b8c8116908c82101561459f57908d91898c8c61ffff600180961b8c161661446e575b5050500116614442565b90919a61447a84611b9f565b6020818101516001600160a01b0386811660009081526006845260408082209290931680825291845282812080546001600160801b03198116909155600290945291909120805493946001600160801b0393841694929390926144df91869116613c8d565b6144e891613617565b604084810151909f906001600160a01b031661450390612877565b908501516001600160401b0316614523916001600160801b038616612ec6565b60c0949094015161453d906001600160401b031685612e88565b61454691612593565b9d516001600160801b0392909216825260208201929092526001600160a01b0391821693821692909116907f9850ab1af75177e4a9201c65a2cf7976d5d28e40ef63494b44366f86b2f9412e90604090a4898c8c614464565b50509497969950945096915097506145f66145f0612d57856145eb6001600160401b037f000000000000000000000000000000000000000000000000000000000000000016809a611b6d565b6127c3565b826129ff565b9160008312614744575b61460983614a3f565b96876146159187612ffa565b6001600160a01b03851660009081526005602052604090208790805461ffff60e81b19169055614644916134a7565b6001546001600160681b03169061465a9161326b565b61467a906001600160681b03166001600160681b03196001541617600155565b60015460681c6001600160681b03169061469391613287565b61469c9061329f565b6146a5916129c8565b6146ae90614be2565b926146b99184612ec6565b6040805193845260208401919091526001600160a01b039182169485939216917f1547a878dc89ad3c367b6338b4be6a65a5dd74fb77ae044da1e8747ef1f4f62f9190a380600c0b60001261470c575050565b600080516020614bfc83398151915261345461344460009361473e61473886546001600160401b031690565b91614bb9565b90614a1a565b60009250614600565b604051636ef5bcdd60e11b8152600490fd5b9061482461476f610916936121a3565b6147ef606061481a61478c60018060a01b03604086015116612877565b6001600160401b039384918260c0880151166147de670de0b6b3a764000094828693841061486e575b8303167f0000000000000000000000000000000000000000000000000000000000000000611b6d565b04808410614861575b830390611b6d565b04956131d57f0000000000000000000000000000000000000000000000000000000000000000612877565b9201511690611b6d565b908015614854575b7f000000000000000000000000000000000000000000000000000000000000000091046127c3565b61485c611afc565b61482c565b614869611b13565b6147e7565b614876611b13565b6147b5565b61489e614886612227565b61068964ffffffffff918260015460d01c169061229c565b506001600160a01b03909116600090815260056020526040812054600c0b9190808313156148d3575061473e61091692614bb9565b91505090565b6148e4614886612227565b6001600160a01b03909216600090815260056020526040812054600c0b929150808312156148d3575061473e61491c61091693612fce565b614bb9565b50600036818037808036817f00000000000000000000000000000000000000000000000000000000000000005af43d82803e1561495c573d90f35b3d90fd5b6001600160a01b0380831691169081149190821561497d57505090565b60009081526003602090815260408083206001600160a01b0390941683529290522060ff9150541690565b6000600c82900b126149e45766038d7ea4c680006149de610916926001600160401b0360005416906001600160681b0316611b6d565b04614b96565b614a15612d5761091692614a066001600160401b0360005460401c1691612fce565b6001600160681b031690614a1a565b6139b6565b66038d7ea4c68000916001600160681b036001600160401b036127d593169116611b6d565b60008112614a8257614a7061091691614a636001600160401b036000541691611b2a565b8115614a75575b04614b15565b614b61565b614a7d611afc565b614a6a565b614ad0614a70614aac614ab661091694614ab16001600160401b0360005460401c169384926139b6565b611b2a565b612593565b60018110614ae2575b8115614ad5575b6000190104614b15565b612fce565b614add611afc565b614ac6565b614aea611b13565b614abf565b6001600160401b0390818111614b03571690565b6040516372a1cb5160e11b8152600490fd5b6001600160681b0390818111614b29571690565b604051630dc7925560e11b8152600490fd5b6001600160801b0390818111614b4f571690565b60405163762ea71160e11b8152600490fd5b6001600160681b03166c7fffffffffffffffffffffffff8111614b8457600c0b90565b604051639369ae3560e01b8152600490fd5b6001600160ff1b038111614ba75790565b60405163e7e828ad60e01b8152600490fd5b600081600c0b12614bd0576001600160681b031690565b60405163363b64b760e11b8152600490fd5b60008112614bd05790565b60009015610916575060019056feddf252ad1be2c89b69c2b068fc378daa952ba7f163c4a11628f55a4df523b3efa264697066735822122087623c46b06b50c1a860354f6fef846da3ab824ca85173af6024d56e78f6078864736f6c634300080f0033",
  "immutableReferences": {
    "11": [
      {
        "length": 32,
        "start": 1542
      },
      {
        "length": 32,
        "start": 3306
      },
      {
        "length": 32,
        "start": 5038
      },
      {
        "length": 32,
        "start": 5993
      }
    ],
    "15": [
      {
        "length": 32,
        "start": 2097
      },
      {
        "length": 32,
        "start": 3616
      }
    ],
    "19": [
      {
        "length": 32,
        "start": 2025
      },
      {
        "length": 32,
        "start": 4913
      },
      {
        "length": 32,
        "start": 5534
      },
      {
        "length": 32,
        "start": 6098
      },
      {
        "length": 32,
        "start": 6275
      },
      {
        "length": 32,
        "start": 10893
      },
      {
        "length": 32,
        "start": 12817
      },
      {
        "length": 32,
        "start": 13026
      },
      {
        "length": 32,
        "start": 14662
      },
      {
        "length": 32,
        "start": 15891
      },
      {
        "length": 32,
        "start": 16151
      }
    ],
    "23": [
      {
        "length": 32,
        "start": 6578
      },
      {
        "length": 32,
        "start": 11225
      },
      {
        "length": 32,
        "start": 17392
      },
      {
        "length": 32,
        "start": 18422
      }
    ],
    "27": [
      {
        "length": 32,
        "start": 3680
      },
      {
        "length": 32,
        "start": 18734
      }
    ],
    "31": [
      {
        "length": 32,
        "start": 4839
      },
      {
        "length": 32,
        "start": 9644
      }
    ],
    "35": [
      {
        "length": 32,
        "start": 3839
      },
      {
        "length": 32,
        "start": 9704
      },
      {
        "length": 32,
        "start": 9810
      }
    ],
    "39": [
      {
        "length": 32,
        "start": 4110
      },
      {
        "length": 32,
        "start": 9858
      }
    ],
    "43": [
      {
        "length": 32,
        "start": 4454
      },
      {
        "length": 32,
        "start": 9743
      }
    ],
    "47": [
      {
        "length": 32,
        "start": 4334
      },
      {
        "length": 32,
        "start": 9916
      }
    ],
    "51": [
      {
        "length": 32,
        "start": 2487
      },
      {
        "length": 32,
        "start": 9976
      },
      {
        "length": 32,
        "start": 10082
      }
    ],
    "55": [
      {
        "length": 32,
        "start": 2254
      },
      {
        "length": 32,
        "start": 10130
      }
    ],
    "59": [
      {
        "length": 32,
        "start": 3978
      },
      {
        "length": 32,
        "start": 10015
      }
    ],
    "63": [
      {
        "length": 32,
        "start": 1924
      },
      {
        "length": 32,
        "start": 18362
      }
    ],
    "67": [
      {
        "length": 32,
        "start": 3171
      },
      {
        "length": 32,
        "start": 11271
      },
      {
        "length": 32,
        "start": 11937
      },
      {
        "length": 32,
        "start": 17860
      },
      {
        "length": 32,
        "start": 18478
      }
    ],
    "71": [
      {
        "length": 32,
        "start": 4977
      },
      {
        "length": 32,
        "start": 12413
      }
    ],
    "75": [
      {
        "length": 32,
        "start": 1722
      },
      {
        "length": 32,
        "start": 9368
      }
    ],
    "79": [
      {
        "length": 32,
        "start": 4514
      },
      {
        "length": 32,
        "start": 9243
      }
    ],
    "83": [
      {
        "length": 32,
        "start": 4394
      },
      {
        "length": 32,
        "start": 9090
      }
    ],
    "87": [
      {
        "length": 32,
        "start": 2609
      },
      {
        "length": 32,
        "start": 15330
      },
      {
        "length": 32,
        "start": 16317
      }
    ],
    "91": [
      {
        "length": 32,
        "start": 2732
      },
      {
        "length": 32,
        "start": 6498
      }
    ],
    "95": [
      {
        "length": 32,
        "start": 2671
      }
    ],
    "99": [
      {
        "length": 32,
        "start": 4778
      },
      {
        "length": 32,
        "start": 7088
      },
      {
        "length": 32,
        "start": 8630
      },
      {
        "length": 32,
        "start": 11318
      },
      {
        "length": 32,
        "start": 11749
      },
      {
        "length": 32,
        "start": 17440
      }
    ],
    "102": [
      {
        "length": 32,
        "start": 12452
      }
    ],
    "105": [
      {
        "length": 32,
        "start": 7168
      }
    ],
    "107": [
      {
        "length": 32,
        "start": 7135
      }
    ],
    "109": [
      {
        "length": 32,
        "start": 7501
      }
    ],
    "111": [
      {
        "length": 32,
        "start": 7468
      }
    ],
    "113": [
      {
        "length": 32,
        "start": 7581
      }
    ],
    "115": [
      {
        "length": 32,
        "start": 7548
      }
    ],
    "117": [
      {
        "length": 32,
        "start": 7661
      }
    ],
    "119": [
      {
        "length": 32,
        "start": 7628
      }
    ],
    "121": [
      {
        "length": 32,
        "start": 7741
      }
    ],
    "123": [
      {
        "length": 32,
        "start": 7708
      }
    ],
    "125": [
      {
        "length": 32,
        "start": 7821
      }
    ],
    "127": [
      {
        "length": 32,
        "start": 7788
      }
    ],
    "129": [
      {
        "length": 32,
        "start": 7901
      }
    ],
    "131": [
      {
        "length": 32,
        "start": 7868
      }
    ],
    "133": [
      {
        "length": 32,
        "start": 7981
      }
    ],
    "135": [
      {
        "length": 32,
        "start": 7948
      }
    ],
    "137": [
      {
        "length": 32,
        "start": 8061
      }
    ],
    "139": [
      {
        "length": 32,
        "start": 8028
      }
    ],
    "141": [
      {
        "length": 32,
        "start": 8141
      }
    ],
    "143": [
      {
        "length": 32,
        "start": 8108
      }
    ],
    "145": [
      {
        "length": 32,
        "start": 8221
      }
    ],
    "147": [
      {
        "length": 32,
        "start": 8188
      }
    ],
    "149": [
      {
        "length": 32,
        "start": 8301
      }
    ],
    "151": [
      {
        "length": 32,
        "start": 8268
      }
    ],
    "153": [
      {
        "length": 32,
        "start": 8381
      }
    ],
    "155": [
      {
        "length": 32,
        "start": 8348
      }
    ],
    "157": [
      {
        "length": 32,
        "start": 8461
      }
    ],
    "159": [
      {
        "length": 32,
        "start": 8428
      }
    ],
    "161": [
      {
        "length": 32,
        "start": 8539
      }
    ],
    "163": [
      {
        "length": 32,
        "start": 8506
      }
    ]
  },
  "source": "// SPDX-License-Identifier: BUSL-1.1\npragma solidity 0.8.15;\n\nimport \"./CometMainInterface.sol\";\nimport \"./ERC20.sol\";\nimport \"./IPriceFeed.sol\";\n\n/**\n * @title Compound's Comet Contract\n * @notice An efficient monolithic money market protocol\n * @author Compound\n */\ncontract Comet is CometMainInterface {\n    /** General configuration constants **/\n\n    /// @notice The admin of the protocol\n    address public override immutable governor;\n\n    /// @notice The account which may trigger pauses\n    address public override immutable pauseGuardian;\n\n    /// @notice The address of the base token contract\n    address public override immutable baseToken;\n\n    /// @notice The address of the price feed for the base token\n    address public override immutable baseTokenPriceFeed;\n\n    /// @notice The address of the extension contract delegate\n    address public override immutable extensionDelegate;\n\n    /// @notice The point in the supply rates separating the low interest rate slope and the high interest rate slope (factor)\n    /// @dev uint64\n    uint public override immutable supplyKink;\n\n    /// @notice Per second supply interest rate slope applied when utilization is below kink (factor)\n    /// @dev uint64\n    uint public override immutable supplyPerSecondInterestRateSlopeLow;\n\n    /// @notice Per second supply interest rate slope applied when utilization is above kink (factor)\n    /// @dev uint64\n    uint public override immutable supplyPerSecondInterestRateSlopeHigh;\n\n    /// @notice Per second supply base interest rate (factor)\n    /// @dev uint64\n    uint public override immutable supplyPerSecondInterestRateBase;\n\n    /// @notice The point in the borrow rate separating the low interest rate slope and the high interest rate slope (factor)\n    /// @dev uint64\n    uint public override immutable borrowKink;\n\n    /// @notice Per second borrow interest rate slope applied when utilization is below kink (factor)\n    /// @dev uint64\n    uint public override immutable borrowPerSecondInterestRateSlopeLow;\n\n    /// @notice Per second borrow interest rate slope applied when utilization is above kink (factor)\n    /// @dev uint64\n    uint public override immutable borrowPerSecondInterestRateSlopeHigh;\n\n    /// @notice Per second borrow base interest rate (factor)\n    /// @dev uint64\n    uint public override immutable borrowPerSecondInterestRateBase;\n\n    /// @notice The fraction of the liquidation penalty that goes to buyers of collateral instead of the protocol\n    /// @dev uint64\n    uint public override immutable storeFrontPriceFactor;\n\n    /// @notice The scale for base token (must be less than 18 decimals)\n    /// @dev uint64\n    uint public override immutable baseScale;\n\n    /// @notice The scale for reward tracking\n    /// @dev uint64\n    uint public override immutable trackingIndexScale;\n\n    /// @notice The speed at which supply rewards are tracked (in trackingIndexScale)\n    /// @dev uint64\n    uint public override immutable baseTrackingSupplySpeed;\n\n    /// @notice The speed at which borrow rewards are tracked (in trackingIndexScale)\n    /// @dev uint64\n    uint public override immutable baseTrackingBorrowSpeed;\n\n    /// @notice The minimum amount of base principal wei for rewards to accrue\n    /// @dev This must be large enough so as to prevent division by base wei from overflowing the 64 bit indices\n    /// @dev uint104\n    uint public override immutable baseMinForRewards;\n\n    /// @notice The minimum base amount required to initiate a borrow\n    uint public override immutable baseBorrowMin;\n\n    /// @notice The minimum base token reserves which must be held before collateral is hodled\n    uint public override immutable targetReserves;\n\n    /// @notice The number of decimals for wrapped base token\n    uint8 public override immutable decimals;\n\n    /// @notice The number of assets this contract actually supports\n    uint8 public override immutable numAssets;\n\n    /// @notice Factor to divide by when accruing rewards in order to preserve 6 decimals (i.e. baseScale / 1e6)\n    uint internal immutable accrualDescaleFactor;\n\n    /** Collateral asset configuration (packed) **/\n\n    uint256 internal immutable asset00_a;\n    uint256 internal immutable asset00_b;\n    uint256 internal immutable asset01_a;\n    uint256 internal immutable asset01_b;\n    uint256 internal immutable asset02_a;\n    uint256 internal immutable asset02_b;\n    uint256 internal immutable asset03_a;\n    uint256 internal immutable asset03_b;\n    uint256 internal immutable asset04_a;\n    uint256 internal immutable asset04_b;\n    uint256 internal immutable asset05_a;\n    uint256 internal immutable asset05_b;\n    uint256 internal immutable asset06_a;\n    uint256 internal immutable asset06_b;\n    uint256 internal immutable asset07_a;\n    uint256 internal immutable asset07_b;\n    uint256 internal immutable asset08_a;\n    uint256 internal immutable asset08_b;\n    uint256 internal immutable asset09_a;\n    uint256 internal immutable asset09_b;\n    uint256 internal immutable asset10_a;\n    uint256 internal immutable asset10_b;\n    uint256 internal immutable asset11_a;\n    uint256 internal immutable asset11_b;\n    uint256 internal immutable asset12_a;\n    uint256 internal immutable asset12_b;\n    uint256 internal immutable asset13_a;\n    uint256 internal immutable asset13_b;\n    uint256 internal immutable asset14_a;\n    uint256 internal immutable asset14_b;\n\n    /**\n     * @notice Construct a new protocol instance\n     * @param config The mapping of initial/constant parameters\n     **/\n    constructor(Configuration memory config) {\n        // Sanity checks\n        uint8 decimals_ = ERC20(config.baseToken).decimals();\n        if (decimals_ > MAX_BASE_DECIMALS) revert BadDecimals();\n        if (config.storeFrontPriceFactor > FACTOR_SCALE) revert BadDiscount();\n        if (config.assetConfigs.length > MAX_ASSETS) revert TooManyAssets();\n        if (config.baseMinForRewards == 0) revert BadMinimum();\n        if (IPriceFeed(config.baseTokenPriceFeed).decimals() != PRICE_FEED_DECIMALS) revert BadDecimals();\n\n        // Copy configuration\n        unchecked {\n            governor = config.governor;\n            pauseGuardian = config.pauseGuardian;\n            baseToken = config.baseToken;\n            baseTokenPriceFeed = config.baseTokenPriceFeed;\n            extensionDelegate = config.extensionDelegate;\n            storeFrontPriceFactor = config.storeFrontPriceFactor;\n\n            decimals = decimals_;\n            baseScale = uint64(10 ** decimals_);\n            trackingIndexScale = config.trackingIndexScale;\n            if (baseScale < BASE_ACCRUAL_SCALE) revert BadDecimals();\n            accrualDescaleFactor = baseScale / BASE_ACCRUAL_SCALE;\n\n            baseMinForRewards = config.baseMinForRewards;\n            baseTrackingSupplySpeed = config.baseTrackingSupplySpeed;\n            baseTrackingBorrowSpeed = config.baseTrackingBorrowSpeed;\n\n            baseBorrowMin = config.baseBorrowMin;\n            targetReserves = config.targetReserves;\n        }\n\n        // Set interest rate model configs\n        unchecked {\n            supplyKink = config.supplyKink;\n            supplyPerSecondInterestRateSlopeLow = config.supplyPerYearInterestRateSlopeLow / SECONDS_PER_YEAR;\n            supplyPerSecondInterestRateSlopeHigh = config.supplyPerYearInterestRateSlopeHigh / SECONDS_PER_YEAR;\n            supplyPerSecondInterestRateBase = config.supplyPerYearInterestRateBase / SECONDS_PER_YEAR;\n            borrowKink = config.borrowKink;\n            borrowPerSecondInterestRateSlopeLow = config.borrowPerYearInterestRateSlopeLow / SECONDS_PER_YEAR;\n            borrowPerSecondInterestRateSlopeHigh = config.borrowPerYearInterestRateSlopeHigh / SECONDS_PER_YEAR;\n            borrowPerSecondInterestRateBase = config.borrowPerYearInterestRateBase / SECONDS_PER_YEAR;\n        }\n\n        // Set asset info\n        numAssets = uint8(config.assetConfigs.length);\n\n        (asset00_a, asset00_b) = getPackedAssetInternal(config.assetConfigs, 0);\n        (asset01_a, asset01_b) = getPackedAssetInternal(config.assetConfigs, 1);\n        (asset02_a, asset02_b) = getPackedAssetInternal(config.assetConfigs, 2);\n        (asset03_a, asset03_b) = getPackedAssetInternal(config.assetConfigs, 3);\n        (asset04_a, asset04_b) = getPackedAssetInternal(config.assetConfigs, 4);\n        (asset05_a, asset05_b) = getPackedAssetInternal(config.assetConfigs, 5);\n        (asset06_a, asset06_b) = getPackedAssetInternal(config.assetConfigs, 6);\n        (asset07_a, asset07_b) = getPackedAssetInternal(config.assetConfigs, 7);\n        (asset08_a, asset08_b) = getPackedAssetInternal(config.assetConfigs, 8);\n        (asset09_a, asset09_b) = getPackedAssetInternal(config.assetConfigs, 9);\n        (asset10_a, asset10_b) = getPackedAssetInternal(config.assetConfigs, 10);\n        (asset11_a, asset11_b) = getPackedAssetInternal(config.assetConfigs, 11);\n        (asset12_a, asset12_b) = getPackedAssetInternal(config.assetConfigs, 12);\n        (asset13_a, asset13_b) = getPackedAssetInternal(config.assetConfigs, 13);\n        (asset14_a, asset14_b) = getPackedAssetInternal(config.assetConfigs, 14);\n    }\n\n    /**\n     * @notice Initialize storage for the contract\n     * @dev Can be used from constructor or proxy\n     */\n    function initializeStorage() override external {\n        if (lastAccrualTime != 0) revert AlreadyInitialized();\n\n        // Initialize aggregates\n        lastAccrualTime = getNowInternal();\n        baseSupplyIndex = BASE_INDEX_SCALE;\n        baseBorrowIndex = BASE_INDEX_SCALE;\n\n        // Implicit initialization (not worth increasing contract size)\n        // trackingSupplyIndex = 0;\n        // trackingBorrowIndex = 0;\n    }\n\n    /**\n     * @dev Checks and gets the packed asset info for storage\n     */\n    function getPackedAssetInternal(AssetConfig[] memory assetConfigs, uint i) internal view returns (uint256, uint256) {\n        AssetConfig memory assetConfig;\n        if (i < assetConfigs.length) {\n            assembly {\n                assetConfig := mload(add(add(assetConfigs, 0x20), mul(i, 0x20)))\n            }\n        } else {\n            return (0, 0);\n        }\n        address asset = assetConfig.asset;\n        address priceFeed = assetConfig.priceFeed;\n        uint8 decimals_ = assetConfig.decimals;\n\n        // Short-circuit if asset is nil\n        if (asset == address(0)) {\n            return (0, 0);\n        }\n\n        // Sanity check price feed and asset decimals\n        if (IPriceFeed(priceFeed).decimals() != PRICE_FEED_DECIMALS) revert BadDecimals();\n        if (ERC20(asset).decimals() != decimals_) revert BadDecimals();\n\n        // Ensure collateral factors are within range\n        if (assetConfig.borrowCollateralFactor >= assetConfig.liquidateCollateralFactor) revert BorrowCFTooLarge();\n        if (assetConfig.liquidateCollateralFactor > MAX_COLLATERAL_FACTOR) revert LiquidateCFTooLarge();\n\n        unchecked {\n            // Keep 4 decimals for each factor\n            uint64 descale = FACTOR_SCALE / 1e4;\n            uint16 borrowCollateralFactor = uint16(assetConfig.borrowCollateralFactor / descale);\n            uint16 liquidateCollateralFactor = uint16(assetConfig.liquidateCollateralFactor / descale);\n            uint16 liquidationFactor = uint16(assetConfig.liquidationFactor / descale);\n\n            // Be nice and check descaled values are still within range\n            if (borrowCollateralFactor >= liquidateCollateralFactor) revert BorrowCFTooLarge();\n\n            // Keep whole units of asset for supply cap\n            uint64 supplyCap = uint64(assetConfig.supplyCap / (10 ** decimals_));\n\n            uint256 word_a = (uint160(asset) << 0 |\n                              uint256(borrowCollateralFactor) << 160 |\n                              uint256(liquidateCollateralFactor) << 176 |\n                              uint256(liquidationFactor) << 192);\n            uint256 word_b = (uint160(priceFeed) << 0 |\n                              uint256(decimals_) << 160 |\n                              uint256(supplyCap) << 168);\n\n            return (word_a, word_b);\n        }\n    }\n\n    /**\n     * @notice Get the i-th asset info, according to the order they were passed in originally\n     * @param i The index of the asset info to get\n     * @return The asset info object\n     */\n    function getAssetInfo(uint8 i) override public view returns (AssetInfo memory) {\n        if (i >= numAssets) revert BadAsset();\n\n        uint256 word_a;\n        uint256 word_b;\n\n        if (i == 0) {\n            word_a = asset00_a;\n            word_b = asset00_b;\n        } else if (i == 1) {\n            word_a = asset01_a;\n            word_b = asset01_b;\n        } else if (i == 2) {\n            word_a = asset02_a;\n            word_b = asset02_b;\n        } else if (i == 3) {\n            word_a = asset03_a;\n            word_b = asset03_b;\n        } else if (i == 4) {\n            word_a = asset04_a;\n            word_b = asset04_b;\n        } else if (i == 5) {\n            word_a = asset05_a;\n            word_b = asset05_b;\n        } else if (i == 6) {\n            word_a = asset06_a;\n            word_b = asset06_b;\n        } else if (i == 7) {\n            word_a = asset07_a;\n            word_b = asset07_b;\n        } else if (i == 8) {\n            word_a = asset08_a;\n            word_b = asset08_b;\n        } else if (i == 9) {\n            word_a = asset09_a;\n            word_b = asset09_b;\n        } else if (i == 10) {\n            word_a = asset10_a;\n            word_b = asset10_b;\n        } else if (i == 11) {\n            word_a = asset11_a;\n            word_b = asset11_b;\n        } else if (i == 12) {\n            word_a = asset12_a;\n            word_b = asset12_b;\n        } else if (i == 13) {\n            word_a = asset13_a;\n            word_b = asset13_b;\n        } else if (i == 14) {\n            word_a = asset14_a;\n            word_b = asset14_b;\n        } else {\n            revert Absurd();\n        }\n\n        address asset = address(uint160(word_a & type(uint160).max));\n        uint64 rescale = FACTOR_SCALE / 1e4;\n        uint64 borrowCollateralFactor = uint64(((word_a >> 160) & type(uint16).max) * rescale);\n        uint64 liquidateCollateralFactor = uint64(((word_a >> 176) & type(uint16).max) * rescale);\n        uint64 liquidationFactor = uint64(((word_a >> 192) & type(uint16).max) * rescale);\n\n        address priceFeed = address(uint160(word_b & type(uint160).max));\n        uint8 decimals_ = uint8(((word_b >> 160) & type(uint8).max));\n        uint64 scale = uint64(10 ** decimals_);\n        uint128 supplyCap = uint128(((word_b >> 168) & type(uint64).max) * scale);\n\n        return AssetInfo({\n            offset: i,\n            asset: asset,\n            priceFeed: priceFeed,\n            scale: scale,\n            borrowCollateralFactor: borrowCollateralFactor,\n            liquidateCollateralFactor: liquidateCollateralFactor,\n            liquidationFactor: liquidationFactor,\n            supplyCap: supplyCap\n         });\n    }\n\n    /**\n     * @dev Determine index of asset that matches given address\n     */\n    function getAssetInfoByAddress(address asset) override public view returns (AssetInfo memory) {\n        for (uint8 i = 0; i < numAssets; ) {\n            AssetInfo memory assetInfo = getAssetInfo(i);\n            if (assetInfo.asset == asset) {\n                return assetInfo;\n            }\n            unchecked { i++; }\n        }\n        revert BadAsset();\n    }\n\n    /**\n     * @return The current timestamp\n     **/\n    function getNowInternal() virtual internal view returns (uint40) {\n        if (block.timestamp >= 2**40) revert TimestampTooLarge();\n        return uint40(block.timestamp);\n    }\n\n    /**\n     * @dev Calculate accrued interest indices for base token supply and borrows\n     **/\n    function accruedInterestIndices(uint timeElapsed) internal view returns (uint64, uint64) {\n        uint64 baseSupplyIndex_ = baseSupplyIndex;\n        uint64 baseBorrowIndex_ = baseBorrowIndex;\n        if (timeElapsed > 0) {\n            uint utilization = getUtilization();\n            uint supplyRate = getSupplyRate(utilization);\n            uint borrowRate = getBorrowRate(utilization);\n            baseSupplyIndex_ += safe64(mulFactor(baseSupplyIndex_, supplyRate * timeElapsed));\n            baseBorrowIndex_ += safe64(mulFactor(baseBorrowIndex_, borrowRate * timeElapsed));\n        }\n        return (baseSupplyIndex_, baseBorrowIndex_);\n    }\n\n    /**\n     * @dev Accrue interest (and rewards) in base token supply and borrows\n     **/\n    function accrueInternal() internal {\n        uint40 now_ = getNowInternal();\n        uint timeElapsed = uint256(now_ - lastAccrualTime);\n        if (timeElapsed > 0) {\n            (baseSupplyIndex, baseBorrowIndex) = accruedInterestIndices(timeElapsed);\n            if (totalSupplyBase >= baseMinForRewards) {\n                trackingSupplyIndex += safe64(divBaseWei(baseTrackingSupplySpeed * timeElapsed, totalSupplyBase));\n            }\n            if (totalBorrowBase >= baseMinForRewards) {\n                trackingBorrowIndex += safe64(divBaseWei(baseTrackingBorrowSpeed * timeElapsed, totalBorrowBase));\n            }\n            lastAccrualTime = now_;\n        }\n    }\n\n    /**\n     * @notice Accrue interest and rewards for an account\n     **/\n    function accrueAccount(address account) override external {\n        accrueInternal();\n\n        UserBasic memory basic = userBasic[account];\n        updateBasePrincipal(account, basic, basic.principal);\n    }\n\n    /**\n     * @dev Note: Does not accrue interest first\n     * @param utilization The utilization to check the supply rate for\n     * @return The per second supply rate at `utilization`\n     */\n    function getSupplyRate(uint utilization) override public view returns (uint64) {\n        if (utilization <= supplyKink) {\n            // interestRateBase + interestRateSlopeLow * utilization\n            return safe64(supplyPerSecondInterestRateBase + mulFactor(supplyPerSecondInterestRateSlopeLow, utilization));\n        } else {\n            // interestRateBase + interestRateSlopeLow * kink + interestRateSlopeHigh * (utilization - kink)\n            return safe64(supplyPerSecondInterestRateBase + mulFactor(supplyPerSecondInterestRateSlopeLow, supplyKink) + mulFactor(supplyPerSecondInterestRateSlopeHigh, (utilization - supplyKink)));\n        }\n    }\n\n    /**\n     * @dev Note: Does not accrue interest first\n     * @param utilization The utilization to check the borrow rate for\n     * @return The per second borrow rate at `utilization`\n     */\n    function getBorrowRate(uint utilization) override public view returns (uint64) {\n        if (utilization <= borrowKink) {\n            // interestRateBase + interestRateSlopeLow * utilization\n            return safe64(borrowPerSecondInterestRateBase + mulFactor(borrowPerSecondInterestRateSlopeLow, utilization));\n        } else {\n            // interestRateBase + interestRateSlopeLow * kink + interestRateSlopeHigh * (utilization - kink)\n            return safe64(borrowPerSecondInterestRateBase + mulFactor(borrowPerSecondInterestRateSlopeLow, borrowKink) + mulFactor(borrowPerSecondInterestRateSlopeHigh, (utilization - borrowKink)));\n        }\n    }\n\n    /**\n     * @dev Note: Does not accrue interest first\n     * @return The utilization rate of the base asset\n     */\n    function getUtilization() override public view returns (uint) {\n        uint totalSupply_ = presentValueSupply(baseSupplyIndex, totalSupplyBase);\n        uint totalBorrow_ = presentValueBorrow(baseBorrowIndex, totalBorrowBase);\n        if (totalSupply_ == 0) {\n            return 0;\n        } else {\n            return totalBorrow_ * FACTOR_SCALE / totalSupply_;\n        }\n    }\n\n    /**\n     * @notice Get the current price from a feed\n     * @param priceFeed The address of a price feed\n     * @return The price, scaled by `PRICE_SCALE`\n     */\n    function getPrice(address priceFeed) override public view returns (uint256) {\n        (, int price, , , ) = IPriceFeed(priceFeed).latestRoundData();\n        if (price <= 0) revert BadPrice();\n        return uint256(price);\n    }\n\n    /**\n     * @notice Gets the total balance of protocol collateral reserves for an asset\n     * @dev Note: Reverts if collateral reserves are somehow negative, which should not be possible\n     * @param asset The collateral asset\n     */\n    function getCollateralReserves(address asset) override public view returns (uint) {\n        return ERC20(asset).balanceOf(address(this)) - totalsCollateral[asset].totalSupplyAsset;\n    }\n\n    /**\n     * @notice Gets the total amount of protocol reserves of the base asset\n     */\n    function getReserves() override public view returns (int) {\n        (uint64 baseSupplyIndex_, uint64 baseBorrowIndex_) = accruedInterestIndices(getNowInternal() - lastAccrualTime);\n        uint balance = ERC20(baseToken).balanceOf(address(this));\n        uint totalSupply_ = presentValueSupply(baseSupplyIndex_, totalSupplyBase);\n        uint totalBorrow_ = presentValueBorrow(baseBorrowIndex_, totalBorrowBase);\n        return signed256(balance) - signed256(totalSupply_) + signed256(totalBorrow_);\n    }\n\n    /**\n     * @notice Check whether an account has enough collateral to borrow\n     * @param account The address to check\n     * @return Whether the account is minimally collateralized enough to borrow\n     */\n    function isBorrowCollateralized(address account) override public view returns (bool) {\n        int104 principal = userBasic[account].principal;\n\n        if (principal >= 0) {\n            return true;\n        }\n\n        uint16 assetsIn = userBasic[account].assetsIn;\n        int liquidity = signedMulPrice(\n            presentValue(principal),\n            getPrice(baseTokenPriceFeed),\n            uint64(baseScale)\n        );\n\n        for (uint8 i = 0; i < numAssets; ) {\n            if (isInAsset(assetsIn, i)) {\n                if (liquidity >= 0) {\n                    return true;\n                }\n\n                AssetInfo memory asset = getAssetInfo(i);\n                uint newAmount = mulPrice(\n                    userCollateral[account][asset.asset].balance,\n                    getPrice(asset.priceFeed),\n                    asset.scale\n                );\n                liquidity += signed256(mulFactor(\n                    newAmount,\n                    asset.borrowCollateralFactor\n                ));\n            }\n            unchecked { i++; }\n        }\n\n        return liquidity >= 0;\n    }\n\n    /**\n     * @notice Check whether an account has enough collateral to not be liquidated\n     * @param account The address to check\n     * @return Whether the account is minimally collateralized enough to not be liquidated\n     */\n    function isLiquidatable(address account) override public view returns (bool) {\n        int104 principal = userBasic[account].principal;\n\n        if (principal >= 0) {\n            return false;\n        }\n\n        uint16 assetsIn = userBasic[account].assetsIn;\n        int liquidity = signedMulPrice(\n            presentValue(principal),\n            getPrice(baseTokenPriceFeed),\n            uint64(baseScale)\n        );\n\n        for (uint8 i = 0; i < numAssets; ) {\n            if (isInAsset(assetsIn, i)) {\n                if (liquidity >= 0) {\n                    return false;\n                }\n\n                AssetInfo memory asset = getAssetInfo(i);\n                uint newAmount = mulPrice(\n                    userCollateral[account][asset.asset].balance,\n                    getPrice(asset.priceFeed),\n                    asset.scale\n                );\n                liquidity += signed256(mulFactor(\n                    newAmount,\n                    asset.liquidateCollateralFactor\n                ));\n            }\n            unchecked { i++; }\n        }\n\n        return liquidity < 0;\n    }\n\n    /**\n     * @dev The change in principal broken into repay and supply amounts\n     */\n    function repayAndSupplyAmount(int104 oldPrincipal, int104 newPrincipal) internal pure returns (uint104, uint104) {\n        // If the new principal is less than the old principal, then no amount has been repaid or supplied\n        if (newPrincipal < oldPrincipal) return (0, 0);\n\n        if (newPrincipal <= 0) {\n            return (uint104(newPrincipal - oldPrincipal), 0);\n        } else if (oldPrincipal >= 0) {\n            return (0, uint104(newPrincipal - oldPrincipal));\n        } else {\n            return (uint104(-oldPrincipal), uint104(newPrincipal));\n        }\n    }\n\n    /**\n     * @dev The change in principal broken into withdraw and borrow amounts\n     */\n    function withdrawAndBorrowAmount(int104 oldPrincipal, int104 newPrincipal) internal pure returns (uint104, uint104) {\n        // If the new principal is greater than the old principal, then no amount has been withdrawn or borrowed\n        if (newPrincipal > oldPrincipal) return (0, 0);\n\n        if (newPrincipal >= 0) {\n            return (uint104(oldPrincipal - newPrincipal), 0);\n        } else if (oldPrincipal <= 0) {\n            return (0, uint104(oldPrincipal - newPrincipal));\n        } else {\n            return (uint104(oldPrincipal), uint104(-newPrincipal));\n        }\n    }\n\n    /**\n     * @notice Pauses different actions within Comet\n     * @param supplyPaused Boolean for pausing supply actions\n     * @param transferPaused Boolean for pausing transfer actions\n     * @param withdrawPaused Boolean for pausing withdraw actions\n     * @param absorbPaused Boolean for pausing absorb actions\n     * @param buyPaused Boolean for pausing buy actions\n     */\n    function pause(\n        bool supplyPaused,\n        bool transferPaused,\n        bool withdrawPaused,\n        bool absorbPaused,\n        bool buyPaused\n    ) override external {\n        if (msg.sender != governor && msg.sender != pauseGuardian) revert Unauthorized();\n\n        pauseFlags =\n            uint8(0) |\n            (toUInt8(supplyPaused) << PAUSE_SUPPLY_OFFSET) |\n            (toUInt8(transferPaused) << PAUSE_TRANSFER_OFFSET) |\n            (toUInt8(withdrawPaused) << PAUSE_WITHDRAW_OFFSET) |\n            (toUInt8(absorbPaused) << PAUSE_ABSORB_OFFSET) |\n            (toUInt8(buyPaused) << PAUSE_BUY_OFFSET);\n\n        emit PauseAction(supplyPaused, transferPaused, withdrawPaused, absorbPaused, buyPaused);\n    }\n\n    /**\n     * @return Whether or not supply actions are paused\n     */\n    function isSupplyPaused() override public view returns (bool) {\n        return toBool(pauseFlags & (uint8(1) << PAUSE_SUPPLY_OFFSET));\n    }\n\n    /**\n     * @return Whether or not transfer actions are paused\n     */\n    function isTransferPaused() override public view returns (bool) {\n        return toBool(pauseFlags & (uint8(1) << PAUSE_TRANSFER_OFFSET));\n    }\n\n    /**\n     * @return Whether or not withdraw actions are paused\n     */\n    function isWithdrawPaused() override public view returns (bool) {\n        return toBool(pauseFlags & (uint8(1) << PAUSE_WITHDRAW_OFFSET));\n    }\n\n    /**\n     * @return Whether or not absorb actions are paused\n     */\n    function isAbsorbPaused() override public view returns (bool) {\n        return toBool(pauseFlags & (uint8(1) << PAUSE_ABSORB_OFFSET));\n    }\n\n    /**\n     * @return Whether or not buy actions are paused\n     */\n    function isBuyPaused() override public view returns (bool) {\n        return toBool(pauseFlags & (uint8(1) << PAUSE_BUY_OFFSET));\n    }\n\n    /**\n     * @dev Multiply a number by a factor\n     */\n    function mulFactor(uint n, uint factor) internal pure returns (uint) {\n        return n * factor / FACTOR_SCALE;\n    }\n\n    /**\n     * @dev Divide a number by an amount of base\n     */\n    function divBaseWei(uint n, uint baseWei) internal view returns (uint) {\n        return n * baseScale / baseWei;\n    }\n\n    /**\n     * @dev Multiply a `fromScale` quantity by a price, returning a common price quantity\n     */\n    function mulPrice(uint n, uint price, uint64 fromScale) internal pure returns (uint) {\n        return n * price / fromScale;\n    }\n\n    /**\n     * @dev Multiply a signed `fromScale` quantity by a price, returning a common price quantity\n     */\n    function signedMulPrice(int n, uint price, uint64 fromScale) internal pure returns (int) {\n        return n * signed256(price) / int256(uint256(fromScale));\n    }\n\n    /**\n     * @dev Divide a common price quantity by a price, returning a `toScale` quantity\n     */\n    function divPrice(uint n, uint price, uint64 toScale) internal pure returns (uint) {\n        return n * toScale / price;\n    }\n\n    /**\n     * @dev Whether user has a non-zero balance of an asset, given assetsIn flags\n     */\n    function isInAsset(uint16 assetsIn, uint8 assetOffset) internal pure returns (bool) {\n        return (assetsIn & (uint16(1) << assetOffset) != 0);\n    }\n\n    /**\n     * @dev Update assetsIn bit vector if user has entered or exited an asset\n     */\n    function updateAssetsIn(\n        address account,\n        AssetInfo memory assetInfo,\n        uint128 initialUserBalance,\n        uint128 finalUserBalance\n    ) internal {\n        if (initialUserBalance == 0 && finalUserBalance != 0) {\n            // set bit for asset\n            userBasic[account].assetsIn |= (uint16(1) << assetInfo.offset);\n        } else if (initialUserBalance != 0 && finalUserBalance == 0) {\n            // clear bit for asset\n            userBasic[account].assetsIn &= ~(uint16(1) << assetInfo.offset);\n        }\n    }\n\n    /**\n     * @dev Write updated principal to store and tracking participation\n     */\n    function updateBasePrincipal(address account, UserBasic memory basic, int104 principalNew) internal {\n        int104 principal = basic.principal;\n        basic.principal = principalNew;\n\n        if (principal >= 0) {\n            uint indexDelta = uint256(trackingSupplyIndex - basic.baseTrackingIndex);\n            basic.baseTrackingAccrued += safe64(uint104(principal) * indexDelta / trackingIndexScale / accrualDescaleFactor);\n        } else {\n            uint indexDelta = uint256(trackingBorrowIndex - basic.baseTrackingIndex);\n            basic.baseTrackingAccrued += safe64(uint104(-principal) * indexDelta / trackingIndexScale / accrualDescaleFactor);\n        }\n\n        if (principalNew >= 0) {\n            basic.baseTrackingIndex = trackingSupplyIndex;\n        } else {\n            basic.baseTrackingIndex = trackingBorrowIndex;\n        }\n\n        userBasic[account] = basic;\n    }\n\n    /**\n     * @dev Safe ERC20 transfer in, assumes no fee is charged and amount is transferred\n     */\n    function doTransferIn(address asset, address from, uint amount) internal {\n        bool success = ERC20(asset).transferFrom(from, address(this), amount);\n        if (!success) revert TransferInFailed();\n    }\n\n    /**\n     * @dev Safe ERC20 transfer out\n     */\n    function doTransferOut(address asset, address to, uint amount) internal {\n        bool success = ERC20(asset).transfer(to, amount);\n        if (!success) revert TransferOutFailed();\n    }\n\n    /**\n     * @notice Supply an amount of asset to the protocol\n     * @param asset The asset to supply\n     * @param amount The quantity to supply\n     */\n    function supply(address asset, uint amount) override external {\n        return supplyInternal(msg.sender, msg.sender, msg.sender, asset, amount);\n    }\n\n    /**\n     * @notice Supply an amount of asset to dst\n     * @param dst The address which will hold the balance\n     * @param asset The asset to supply\n     * @param amount The quantity to supply\n     */\n    function supplyTo(address dst, address asset, uint amount) override external {\n        return supplyInternal(msg.sender, msg.sender, dst, asset, amount);\n    }\n\n    /**\n     * @notice Supply an amount of asset from `from` to dst, if allowed\n     * @param from The supplier address\n     * @param dst The address which will hold the balance\n     * @param asset The asset to supply\n     * @param amount The quantity to supply\n     */\n    function supplyFrom(address from, address dst, address asset, uint amount) override external {\n        return supplyInternal(msg.sender, from, dst, asset, amount);\n    }\n\n    /**\n     * @dev Supply either collateral or base asset, depending on the asset, if operator is allowed\n     * @dev Note: Specifying an `amount` of uint256.max will repay all of `dst`'s accrued base borrow balance\n     */\n    function supplyInternal(address operator, address from, address dst, address asset, uint amount) internal {\n        if (isSupplyPaused()) revert Paused();\n        if (!hasPermission(from, operator)) revert Unauthorized();\n\n        if (asset == baseToken) {\n            if (amount == type(uint256).max) {\n                amount = borrowBalanceOf(dst);\n            }\n            return supplyBase(from, dst, amount);\n        } else {\n            return supplyCollateral(from, dst, asset, safe128(amount));\n        }\n    }\n\n    /**\n     * @dev Supply an amount of base asset from `from` to dst\n     */\n    function supplyBase(address from, address dst, uint256 amount) internal {\n        doTransferIn(baseToken, from, amount);\n\n        accrueInternal();\n\n        UserBasic memory dstUser = userBasic[dst];\n        int104 dstPrincipal = dstUser.principal;\n        int256 dstBalance = presentValue(dstPrincipal) + signed256(amount);\n        int104 dstPrincipalNew = principalValue(dstBalance);\n\n        (uint104 repayAmount, uint104 supplyAmount) = repayAndSupplyAmount(dstPrincipal, dstPrincipalNew);\n\n        totalSupplyBase += supplyAmount;\n        totalBorrowBase -= repayAmount;\n\n        updateBasePrincipal(dst, dstUser, dstPrincipalNew);\n\n        emit Supply(from, dst, amount);\n\n        if (supplyAmount > 0) {\n            emit Transfer(address(0), dst, presentValueSupply(baseSupplyIndex, supplyAmount));\n        }\n    }\n\n    /**\n     * @dev Supply an amount of collateral asset from `from` to dst\n     */\n    function supplyCollateral(address from, address dst, address asset, uint128 amount) internal {\n        doTransferIn(asset, from, amount);\n\n        AssetInfo memory assetInfo = getAssetInfoByAddress(asset);\n        TotalsCollateral memory totals = totalsCollateral[asset];\n        totals.totalSupplyAsset += amount;\n        if (totals.totalSupplyAsset > assetInfo.supplyCap) revert SupplyCapExceeded();\n\n        uint128 dstCollateral = userCollateral[dst][asset].balance;\n        uint128 dstCollateralNew = dstCollateral + amount;\n\n        totalsCollateral[asset] = totals;\n        userCollateral[dst][asset].balance = dstCollateralNew;\n\n        updateAssetsIn(dst, assetInfo, dstCollateral, dstCollateralNew);\n\n        emit SupplyCollateral(from, dst, asset, amount);\n    }\n\n    /**\n     * @notice ERC20 transfer an amount of base token to dst\n     * @param dst The recipient address\n     * @param amount The quantity to transfer\n     * @return true\n     */\n    function transfer(address dst, uint amount) override external returns (bool) {\n        transferInternal(msg.sender, msg.sender, dst, baseToken, amount);\n        return true;\n    }\n\n    /**\n     * @notice ERC20 transfer an amount of base token from src to dst, if allowed\n     * @param src The sender address\n     * @param dst The recipient address\n     * @param amount The quantity to transfer\n     * @return true\n     */\n    function transferFrom(address src, address dst, uint amount) override external returns (bool) {\n        transferInternal(msg.sender, src, dst, baseToken, amount);\n        return true;\n    }\n\n    /**\n     * @notice Transfer an amount of asset to dst\n     * @param dst The recipient address\n     * @param asset The asset to transfer\n     * @param amount The quantity to transfer\n     */\n    function transferAsset(address dst, address asset, uint amount) override external {\n        return transferInternal(msg.sender, msg.sender, dst, asset, amount);\n    }\n\n    /**\n     * @notice Transfer an amount of asset from src to dst, if allowed\n     * @param src The sender address\n     * @param dst The recipient address\n     * @param asset The asset to transfer\n     * @param amount The quantity to transfer\n     */\n    function transferAssetFrom(address src, address dst, address asset, uint amount) override external {\n        return transferInternal(msg.sender, src, dst, asset, amount);\n    }\n\n    /**\n     * @dev Transfer either collateral or base asset, depending on the asset, if operator is allowed\n     * @dev Note: Specifying an `amount` of uint256.max will transfer all of `src`'s accrued base balance\n     */\n    function transferInternal(address operator, address src, address dst, address asset, uint amount) internal {\n        if (isTransferPaused()) revert Paused();\n        if (!hasPermission(src, operator)) revert Unauthorized();\n        if (src == dst) revert NoSelfTransfer();\n\n        if (asset == baseToken) {\n            if (amount == type(uint256).max) {\n                amount = balanceOf(src);\n            }\n            return transferBase(src, dst, amount);\n        } else {\n            return transferCollateral(src, dst, asset, safe128(amount));\n        }\n    }\n\n    /**\n     * @dev Transfer an amount of base asset from src to dst, borrowing if possible/necessary\n     */\n    function transferBase(address src, address dst, uint256 amount) internal {\n        accrueInternal();\n\n        UserBasic memory srcUser = userBasic[src];\n        UserBasic memory dstUser = userBasic[dst];\n\n        int104 srcPrincipal = srcUser.principal;\n        int104 dstPrincipal = dstUser.principal;\n        int256 srcBalance = presentValue(srcPrincipal) - signed256(amount);\n        int256 dstBalance = presentValue(dstPrincipal) + signed256(amount);\n        int104 srcPrincipalNew = principalValue(srcBalance);\n        int104 dstPrincipalNew = principalValue(dstBalance);\n\n        (uint104 withdrawAmount, uint104 borrowAmount) = withdrawAndBorrowAmount(srcPrincipal, srcPrincipalNew);\n        (uint104 repayAmount, uint104 supplyAmount) = repayAndSupplyAmount(dstPrincipal, dstPrincipalNew);\n\n        // Note: Instead of `total += addAmount - subAmount` to avoid underflow errors.\n        totalSupplyBase = totalSupplyBase + supplyAmount - withdrawAmount;\n        totalBorrowBase = totalBorrowBase + borrowAmount - repayAmount;\n\n        updateBasePrincipal(src, srcUser, srcPrincipalNew);\n        updateBasePrincipal(dst, dstUser, dstPrincipalNew);\n\n        if (srcBalance < 0) {\n            if (uint256(-srcBalance) < baseBorrowMin) revert BorrowTooSmall();\n            if (!isBorrowCollateralized(src)) revert NotCollateralized();\n        }\n\n        if (withdrawAmount > 0) {\n            emit Transfer(src, address(0), presentValueSupply(baseSupplyIndex, withdrawAmount));\n        }\n\n        if (supplyAmount > 0) {\n            emit Transfer(address(0), dst, presentValueSupply(baseSupplyIndex, supplyAmount));\n        }\n    }\n\n    /**\n     * @dev Transfer an amount of collateral asset from src to dst\n     */\n    function transferCollateral(address src, address dst, address asset, uint128 amount) internal {\n        uint128 srcCollateral = userCollateral[src][asset].balance;\n        uint128 dstCollateral = userCollateral[dst][asset].balance;\n        uint128 srcCollateralNew = srcCollateral - amount;\n        uint128 dstCollateralNew = dstCollateral + amount;\n\n        userCollateral[src][asset].balance = srcCollateralNew;\n        userCollateral[dst][asset].balance = dstCollateralNew;\n\n        AssetInfo memory assetInfo = getAssetInfoByAddress(asset);\n        updateAssetsIn(src, assetInfo, srcCollateral, srcCollateralNew);\n        updateAssetsIn(dst, assetInfo, dstCollateral, dstCollateralNew);\n\n        // Note: no accrue interest, BorrowCF < LiquidationCF covers small changes\n        if (!isBorrowCollateralized(src)) revert NotCollateralized();\n\n        emit TransferCollateral(src, dst, asset, amount);\n    }\n\n    /**\n     * @notice Withdraw an amount of asset from the protocol\n     * @param asset The asset to withdraw\n     * @param amount The quantity to withdraw\n     */\n    function withdraw(address asset, uint amount) override external {\n        return withdrawInternal(msg.sender, msg.sender, msg.sender, asset, amount);\n    }\n\n    /**\n     * @notice Withdraw an amount of asset to `to`\n     * @param to The recipient address\n     * @param asset The asset to withdraw\n     * @param amount The quantity to withdraw\n     */\n    function withdrawTo(address to, address asset, uint amount) override external {\n        return withdrawInternal(msg.sender, msg.sender, to, asset, amount);\n    }\n\n    /**\n     * @notice Withdraw an amount of asset from src to `to`, if allowed\n     * @param src The sender address\n     * @param to The recipient address\n     * @param asset The asset to withdraw\n     * @param amount The quantity to withdraw\n     */\n    function withdrawFrom(address src, address to, address asset, uint amount) override external {\n        return withdrawInternal(msg.sender, src, to, asset, amount);\n    }\n\n    /**\n     * @dev Withdraw either collateral or base asset, depending on the asset, if operator is allowed\n     * @dev Note: Specifying an `amount` of uint256.max will withdraw all of `src`'s accrued base balance\n     */\n    function withdrawInternal(address operator, address src, address to, address asset, uint amount) internal {\n        if (isWithdrawPaused()) revert Paused();\n        if (!hasPermission(src, operator)) revert Unauthorized();\n\n        if (asset == baseToken) {\n            if (amount == type(uint256).max) {\n                amount = balanceOf(src);\n            }\n            return withdrawBase(src, to, amount);\n        } else {\n            return withdrawCollateral(src, to, asset, safe128(amount));\n        }\n    }\n\n    /**\n     * @dev Withdraw an amount of base asset from src to `to`, borrowing if possible/necessary\n     */\n    function withdrawBase(address src, address to, uint256 amount) internal {\n        accrueInternal();\n\n        UserBasic memory srcUser = userBasic[src];\n        int104 srcPrincipal = srcUser.principal;\n        int256 srcBalance = presentValue(srcPrincipal) - signed256(amount);\n        int104 srcPrincipalNew = principalValue(srcBalance);\n\n        (uint104 withdrawAmount, uint104 borrowAmount) = withdrawAndBorrowAmount(srcPrincipal, srcPrincipalNew);\n\n        totalSupplyBase -= withdrawAmount;\n        totalBorrowBase += borrowAmount;\n\n        updateBasePrincipal(src, srcUser, srcPrincipalNew);\n\n        if (srcBalance < 0) {\n            if (uint256(-srcBalance) < baseBorrowMin) revert BorrowTooSmall();\n            if (!isBorrowCollateralized(src)) revert NotCollateralized();\n        }\n\n        doTransferOut(baseToken, to, amount);\n\n        emit Withdraw(src, to, amount);\n\n        if (withdrawAmount > 0) {\n            emit Transfer(src, address(0), presentValueSupply(baseSupplyIndex, withdrawAmount));\n        }\n    }\n\n    /**\n     * @dev Withdraw an amount of collateral asset from src to `to`\n     */\n    function withdrawCollateral(address src, address to, address asset, uint128 amount) internal {\n        uint128 srcCollateral = userCollateral[src][asset].balance;\n        uint128 srcCollateralNew = srcCollateral - amount;\n\n        totalsCollateral[asset].totalSupplyAsset -= amount;\n        userCollateral[src][asset].balance = srcCollateralNew;\n\n        AssetInfo memory assetInfo = getAssetInfoByAddress(asset);\n        updateAssetsIn(src, assetInfo, srcCollateral, srcCollateralNew);\n\n        // Note: no accrue interest, BorrowCF < LiquidationCF covers small changes\n        if (!isBorrowCollateralized(src)) revert NotCollateralized();\n\n        doTransferOut(asset, to, amount);\n\n        emit WithdrawCollateral(src, to, asset, amount);\n    }\n\n    /**\n     * @notice Absorb a list of underwater accounts onto the protocol balance sheet\n     * @param absorber The recipient of the incentive paid to the caller of absorb\n     * @param accounts The list of underwater accounts to absorb\n     */\n    function absorb(address absorber, address[] calldata accounts) override external {\n        if (isAbsorbPaused()) revert Paused();\n\n        uint startGas = gasleft();\n        accrueInternal();\n        for (uint i = 0; i < accounts.length; ) {\n            absorbInternal(absorber, accounts[i]);\n            unchecked { i++; }\n        }\n        uint gasUsed = startGas - gasleft();\n\n        // Note: liquidator points are an imperfect tool for governance,\n        //  to be used while evaluating strategies for incentivizing absorption.\n        // Using gas price instead of base fee would more accurately reflect spend,\n        //  but is also subject to abuse if refunds were to be given automatically.\n        LiquidatorPoints memory points = liquidatorPoints[absorber];\n        points.numAbsorbs++;\n        points.numAbsorbed += safe64(accounts.length);\n        points.approxSpend += safe128(gasUsed * block.basefee);\n        liquidatorPoints[absorber] = points;\n    }\n\n    /**\n     * @dev Transfer user's collateral and debt to the protocol itself.\n     */\n    function absorbInternal(address absorber, address account) internal {\n        if (!isLiquidatable(account)) revert NotLiquidatable();\n\n        UserBasic memory accountUser = userBasic[account];\n        int104 oldPrincipal = accountUser.principal;\n        int256 oldBalance = presentValue(oldPrincipal);\n        uint16 assetsIn = accountUser.assetsIn;\n\n        uint256 basePrice = getPrice(baseTokenPriceFeed);\n        uint256 deltaValue = 0;\n\n        for (uint8 i = 0; i < numAssets; ) {\n            if (isInAsset(assetsIn, i)) {\n                AssetInfo memory assetInfo = getAssetInfo(i);\n                address asset = assetInfo.asset;\n                uint128 seizeAmount = userCollateral[account][asset].balance;\n                userCollateral[account][asset].balance = 0;\n                totalsCollateral[asset].totalSupplyAsset -= seizeAmount;\n\n                uint256 value = mulPrice(seizeAmount, getPrice(assetInfo.priceFeed), assetInfo.scale);\n                deltaValue += mulFactor(value, assetInfo.liquidationFactor);\n\n                emit AbsorbCollateral(absorber, account, asset, seizeAmount, value);\n            }\n            unchecked { i++; }\n        }\n\n        uint256 deltaBalance = divPrice(deltaValue, basePrice, uint64(baseScale));\n        int256 newBalance = oldBalance + signed256(deltaBalance);\n        // New balance will not be negative, all excess debt absorbed by reserves\n        if (newBalance < 0) {\n            newBalance = 0;\n        }\n\n        int104 newPrincipal = principalValue(newBalance);\n        updateBasePrincipal(account, accountUser, newPrincipal);\n\n        // reset assetsIn\n        userBasic[account].assetsIn = 0;\n\n        (uint104 repayAmount, uint104 supplyAmount) = repayAndSupplyAmount(oldPrincipal, newPrincipal);\n\n        // Reserves are decreased by increasing total supply and decreasing borrows\n        //  the amount of debt repaid by reserves is `newBalance - oldBalance`\n        totalSupplyBase += supplyAmount;\n        totalBorrowBase -= repayAmount;\n\n        uint256 basePaidOut = unsigned256(newBalance - oldBalance);\n        uint256 valueOfBasePaidOut = mulPrice(basePaidOut, basePrice, uint64(baseScale));\n        emit AbsorbDebt(absorber, account, basePaidOut, valueOfBasePaidOut);\n\n        if (newPrincipal > 0) {\n            emit Transfer(address(0), account, presentValueSupply(baseSupplyIndex, unsigned104(newPrincipal)));\n        }\n    }\n\n    /**\n     * @notice Buy collateral from the protocol using base tokens, increasing protocol reserves\n       A minimum collateral amount should be specified to indicate the maximum slippage acceptable for the buyer.\n     * @param asset The asset to buy\n     * @param minAmount The minimum amount of collateral tokens that should be received by the buyer\n     * @param baseAmount The amount of base tokens used to buy the collateral\n     * @param recipient The recipient address\n     */\n    function buyCollateral(address asset, uint minAmount, uint baseAmount, address recipient) override external {\n        if (isBuyPaused()) revert Paused();\n\n        int reserves = getReserves();\n        if (reserves >= 0 && uint(reserves) >= targetReserves) revert NotForSale();\n\n        // Note: Re-entrancy can skip the reserves check above on a second buyCollateral call.\n        doTransferIn(baseToken, msg.sender, baseAmount);\n\n        uint collateralAmount = quoteCollateral(asset, baseAmount);\n        if (collateralAmount < minAmount) revert TooMuchSlippage();\n        if (collateralAmount > getCollateralReserves(asset)) revert InsufficientReserves();\n\n        // Note: Pre-transfer hook can re-enter buyCollateral with a stale collateral ERC20 balance.\n        //  Assets should not be listed which allow re-entry from pre-transfer now, as too much collateral could be bought.\n        //  This is also a problem if quoteCollateral derives its discount from the collateral ERC20 balance.\n        doTransferOut(asset, recipient, safe128(collateralAmount));\n\n        emit BuyCollateral(msg.sender, asset, baseAmount, collateralAmount);\n    }\n\n    /**\n     * @notice Gets the quote for a collateral asset in exchange for an amount of base asset\n     * @param asset The collateral asset to get the quote for\n     * @param baseAmount The amount of the base asset to get the quote for\n     * @return The quote in terms of the collateral asset\n     */\n    function quoteCollateral(address asset, uint baseAmount) override public view returns (uint) {\n        AssetInfo memory assetInfo = getAssetInfoByAddress(asset);\n        uint256 assetPrice = getPrice(assetInfo.priceFeed);\n        // Store front discount is derived from the collateral asset's liquidationFactor and storeFrontPriceFactor\n        // discount = storeFrontPriceFactor * (1e18 - liquidationFactor)\n        uint256 discountFactor = mulFactor(storeFrontPriceFactor, FACTOR_SCALE - assetInfo.liquidationFactor);\n        uint256 assetPriceDiscounted = mulFactor(assetPrice, FACTOR_SCALE - discountFactor);\n        uint256 basePrice = getPrice(baseTokenPriceFeed);\n        // # of collateral assets\n        // = (TotalValueOfBaseAmount / DiscountedPriceOfCollateralAsset) * assetScale\n        // = ((basePrice * baseAmount / baseScale) / assetPriceDiscounted) * assetScale\n        return basePrice * baseAmount * assetInfo.scale / assetPriceDiscounted / baseScale;\n    }\n\n    /**\n     * @notice Withdraws base token reserves if called by the governor\n     * @param to An address of the receiver of withdrawn reserves\n     * @param amount The amount of reserves to be withdrawn from the protocol\n     */\n    function withdrawReserves(address to, uint amount) override external {\n        if (msg.sender != governor) revert Unauthorized();\n\n        int reserves = getReserves();\n        if (reserves < 0 || amount > unsigned256(reserves)) revert InsufficientReserves();\n\n        doTransferOut(baseToken, to, amount);\n\n        emit WithdrawReserves(to, amount);\n    }\n\n    /**\n     * @notice Sets Comet's ERC20 allowance of an asset for a manager\n     * @dev Only callable by governor\n     * @dev Note: Setting the `asset` as Comet's address will allow the manager\n     * to withdraw from Comet's Comet balance\n     * @param asset The asset that the manager will gain approval of\n     * @param manager The account which will be allowed or disallowed\n     * @param amount The amount of an asset to approve\n     */\n    function approveThis(address manager, address asset, uint amount) override external {\n        if (msg.sender != governor) revert Unauthorized();\n\n        ERC20(asset).approve(manager, amount);\n    }\n\n    /**\n     * @notice Get the total number of tokens in circulation\n     * @dev Note: uses updated interest indices to calculate\n     * @return The supply of tokens\n     **/\n    function totalSupply() override external view returns (uint256) {\n        (uint64 baseSupplyIndex_, ) = accruedInterestIndices(getNowInternal() - lastAccrualTime);\n        return presentValueSupply(baseSupplyIndex_, totalSupplyBase);\n    }\n\n    /**\n     * @notice Get the total amount of debt\n     * @dev Note: uses updated interest indices to calculate\n     * @return The amount of debt\n     **/\n    function totalBorrow() override external view returns (uint256) {\n        (, uint64 baseBorrowIndex_) = accruedInterestIndices(getNowInternal() - lastAccrualTime);\n        return presentValueBorrow(baseBorrowIndex_, totalBorrowBase);\n    }\n\n    /**\n     * @notice Query the current positive base balance of an account or zero\n     * @dev Note: uses updated interest indices to calculate\n     * @param account The account whose balance to query\n     * @return The present day base balance magnitude of the account, if positive\n     */\n    function balanceOf(address account) override public view returns (uint256) {\n        (uint64 baseSupplyIndex_, ) = accruedInterestIndices(getNowInternal() - lastAccrualTime);\n        int104 principal = userBasic[account].principal;\n        return principal > 0 ? presentValueSupply(baseSupplyIndex_, unsigned104(principal)) : 0;\n    }\n\n    /**\n     * @notice Query the current negative base balance of an account or zero\n     * @dev Note: uses updated interest indices to calculate\n     * @param account The account whose balance to query\n     * @return The present day base balance magnitude of the account, if negative\n     */\n    function borrowBalanceOf(address account) override public view returns (uint256) {\n        (, uint64 baseBorrowIndex_) = accruedInterestIndices(getNowInternal() - lastAccrualTime);\n        int104 principal = userBasic[account].principal;\n        return principal < 0 ? presentValueBorrow(baseBorrowIndex_, unsigned104(-principal)) : 0;\n    }\n\n    /**\n     * @notice Fallback to calling the extension delegate for everything else\n     */\n    fallback() external payable {\n        address delegate = extensionDelegate;\n        assembly {\n            calldatacopy(0, 0, calldatasize())\n            let result := delegatecall(gas(), delegate, 0, calldatasize(), 0, 0)\n            returndatacopy(0, 0, returndatasize())\n            switch result\n            case 0 { revert(0, returndatasize()) }\n            default { return(0, returndatasize()) }\n        }\n    }\n}\n",
  "sourcePath": "/home/stephensb/sb-labs/solidity-contracts/contracts/comet/contracts/Comet.sol",
  "compiler": {
    "name": "solc",
    "version": "0.8.15+commit.e14f2714.Emscripten.clang"
  },
  "schemaVersion": "3.4.12",
  "updatedAt": "2023-11-30T22:41:29.643Z",
  "devdoc": {
    "author": "Compound",
    "kind": "dev",
    "methods": {
      "absorb(address,address[])": {
        "params": {
          "absorber": "The recipient of the incentive paid to the caller of absorb",
          "accounts": "The list of underwater accounts to absorb"
        }
      },
      "approveThis(address,address,uint256)": {
        "details": "Only callable by governorNote: Setting the `asset` as Comet's address will allow the manager to withdraw from Comet's Comet balance",
        "params": {
          "amount": "The amount of an asset to approve",
          "asset": "The asset that the manager will gain approval of",
          "manager": "The account which will be allowed or disallowed"
        }
      },
      "balanceOf(address)": {
        "details": "Note: uses updated interest indices to calculate",
        "params": {
          "account": "The account whose balance to query"
        },
        "returns": {
          "_0": "The present day base balance magnitude of the account, if positive"
        }
      },
      "borrowBalanceOf(address)": {
        "details": "Note: uses updated interest indices to calculate",
        "params": {
          "account": "The account whose balance to query"
        },
        "returns": {
          "_0": "The present day base balance magnitude of the account, if negative"
        }
      },
      "buyCollateral(address,uint256,uint256,address)": {
        "params": {
          "asset": "The asset to buy",
          "baseAmount": "The amount of base tokens used to buy the collateral",
          "minAmount": "The minimum amount of collateral tokens that should be received by the buyer",
          "recipient": "The recipient address"
        }
      },
      "constructor": {
        "params": {
          "config": "The mapping of initial/constant parameters*"
        }
      },
      "getAssetInfo(uint8)": {
        "params": {
          "i": "The index of the asset info to get"
        },
        "returns": {
          "_0": "The asset info object"
        }
      },
      "getAssetInfoByAddress(address)": {
        "details": "Determine index of asset that matches given address"
      },
      "getBorrowRate(uint256)": {
        "details": "Note: Does not accrue interest first",
        "params": {
          "utilization": "The utilization to check the borrow rate for"
        },
        "returns": {
          "_0": "The per second borrow rate at `utilization`"
        }
      },
      "getCollateralReserves(address)": {
        "details": "Note: Reverts if collateral reserves are somehow negative, which should not be possible",
        "params": {
          "asset": "The collateral asset"
        }
      },
      "getPrice(address)": {
        "params": {
          "priceFeed": "The address of a price feed"
        },
        "returns": {
          "_0": "The price, scaled by `PRICE_SCALE`"
        }
      },
      "getSupplyRate(uint256)": {
        "details": "Note: Does not accrue interest first",
        "params": {
          "utilization": "The utilization to check the supply rate for"
        },
        "returns": {
          "_0": "The per second supply rate at `utilization`"
        }
      },
      "getUtilization()": {
        "details": "Note: Does not accrue interest first",
        "returns": {
          "_0": "The utilization rate of the base asset"
        }
      },
      "hasPermission(address,address)": {
        "params": {
          "manager": "The manager account",
          "owner": "The owner account"
        },
        "returns": {
          "_0": "Whether or not the manager has permission"
        }
      },
      "initializeStorage()": {
        "details": "Can be used from constructor or proxy"
      },
      "isAbsorbPaused()": {
        "returns": {
          "_0": "Whether or not absorb actions are paused"
        }
      },
      "isBorrowCollateralized(address)": {
        "params": {
          "account": "The address to check"
        },
        "returns": {
          "_0": "Whether the account is minimally collateralized enough to borrow"
        }
      },
      "isBuyPaused()": {
        "returns": {
          "_0": "Whether or not buy actions are paused"
        }
      },
      "isLiquidatable(address)": {
        "params": {
          "account": "The address to check"
        },
        "returns": {
          "_0": "Whether the account is minimally collateralized enough to not be liquidated"
        }
      },
      "isSupplyPaused()": {
        "returns": {
          "_0": "Whether or not supply actions are paused"
        }
      },
      "isTransferPaused()": {
        "returns": {
          "_0": "Whether or not transfer actions are paused"
        }
      },
      "isWithdrawPaused()": {
        "returns": {
          "_0": "Whether or not withdraw actions are paused"
        }
      },
      "pause(bool,bool,bool,bool,bool)": {
        "params": {
          "absorbPaused": "Boolean for pausing absorb actions",
          "buyPaused": "Boolean for pausing buy actions",
          "supplyPaused": "Boolean for pausing supply actions",
          "transferPaused": "Boolean for pausing transfer actions",
          "withdrawPaused": "Boolean for pausing withdraw actions"
        }
      },
      "quoteCollateral(address,uint256)": {
        "params": {
          "asset": "The collateral asset to get the quote for",
          "baseAmount": "The amount of the base asset to get the quote for"
        },
        "returns": {
          "_0": "The quote in terms of the collateral asset"
        }
      },
      "supply(address,uint256)": {
        "params": {
          "amount": "The quantity to supply",
          "asset": "The asset to supply"
        }
      },
      "supplyFrom(address,address,address,uint256)": {
        "params": {
          "amount": "The quantity to supply",
          "asset": "The asset to supply",
          "dst": "The address which will hold the balance",
          "from": "The supplier address"
        }
      },
      "supplyTo(address,address,uint256)": {
        "params": {
          "amount": "The quantity to supply",
          "asset": "The asset to supply",
          "dst": "The address which will hold the balance"
        }
      },
      "totalBorrow()": {
        "details": "Note: uses updated interest indices to calculate",
        "returns": {
          "_0": "The amount of debt*"
        }
      },
      "totalSupply()": {
        "details": "Note: uses updated interest indices to calculate",
        "returns": {
          "_0": "The supply of tokens*"
        }
      },
      "transfer(address,uint256)": {
        "params": {
          "amount": "The quantity to transfer",
          "dst": "The recipient address"
        },
        "returns": {
          "_0": "true"
        }
      },
      "transferAsset(address,address,uint256)": {
        "params": {
          "amount": "The quantity to transfer",
          "asset": "The asset to transfer",
          "dst": "The recipient address"
        }
      },
      "transferAssetFrom(address,address,address,uint256)": {
        "params": {
          "amount": "The quantity to transfer",
          "asset": "The asset to transfer",
          "dst": "The recipient address",
          "src": "The sender address"
        }
      },
      "transferFrom(address,address,uint256)": {
        "params": {
          "amount": "The quantity to transfer",
          "dst": "The recipient address",
          "src": "The sender address"
        },
        "returns": {
          "_0": "true"
        }
      },
      "withdraw(address,uint256)": {
        "params": {
          "amount": "The quantity to withdraw",
          "asset": "The asset to withdraw"
        }
      },
      "withdrawFrom(address,address,address,uint256)": {
        "params": {
          "amount": "The quantity to withdraw",
          "asset": "The asset to withdraw",
          "src": "The sender address",
          "to": "The recipient address"
        }
      },
      "withdrawReserves(address,uint256)": {
        "params": {
          "amount": "The amount of reserves to be withdrawn from the protocol",
          "to": "An address of the receiver of withdrawn reserves"
        }
      },
      "withdrawTo(address,address,uint256)": {
        "params": {
          "amount": "The quantity to withdraw",
          "asset": "The asset to withdraw",
          "to": "The recipient address"
        }
      }
    },
    "stateVariables": {
      "baseMinForRewards": {
        "details": "This must be large enough so as to prevent division by base wei from overflowing the 64 bit indicesuint104"
      },
      "baseScale": {
        "details": "uint64"
      },
      "baseTrackingBorrowSpeed": {
        "details": "uint64"
      },
      "baseTrackingSupplySpeed": {
        "details": "uint64"
      },
      "borrowKink": {
        "details": "uint64"
      },
      "borrowPerSecondInterestRateBase": {
        "details": "uint64"
      },
      "borrowPerSecondInterestRateSlopeHigh": {
        "details": "uint64"
      },
      "borrowPerSecondInterestRateSlopeLow": {
        "details": "uint64"
      },
      "storeFrontPriceFactor": {
        "details": "uint64"
      },
      "supplyKink": {
        "details": "uint64"
      },
      "supplyPerSecondInterestRateBase": {
        "details": "uint64"
      },
      "supplyPerSecondInterestRateSlopeHigh": {
        "details": "uint64"
      },
      "supplyPerSecondInterestRateSlopeLow": {
        "details": "uint64"
      },
      "trackingIndexScale": {
        "details": "uint64"
      }
    },
    "title": "Compound's Comet Contract",
    "version": 1
  },
  "userdoc": {
    "errors": {
      "InvalidUInt64()": [
        {
          "notice": "Custom errors *"
        }
      ]
    },
    "events": {
      "AbsorbCollateral(address,address,address,uint256,uint256)": {
        "notice": "Event emitted when a user's collateral is absorbed by the protocol"
      },
      "AbsorbDebt(address,address,uint256,uint256)": {
        "notice": "Event emitted when a borrow position is absorbed by the protocol"
      },
      "BuyCollateral(address,address,uint256,uint256)": {
        "notice": "Event emitted when a collateral asset is purchased from the protocol"
      },
      "PauseAction(bool,bool,bool,bool,bool)": {
        "notice": "Event emitted when an action is paused/unpaused"
      },
      "WithdrawReserves(address,uint256)": {
        "notice": "Event emitted when reserves are withdrawn by the governor"
      }
    },
    "kind": "user",
    "methods": {
      "absorb(address,address[])": {
        "notice": "Absorb a list of underwater accounts onto the protocol balance sheet"
      },
      "accrueAccount(address)": {
        "notice": "Accrue interest and rewards for an account*"
      },
      "approveThis(address,address,uint256)": {
        "notice": "Sets Comet's ERC20 allowance of an asset for a manager"
      },
      "balanceOf(address)": {
        "notice": "Query the current positive base balance of an account or zero"
      },
      "baseBorrowMin()": {
        "notice": "The minimum base amount required to initiate a borrow"
      },
      "baseMinForRewards()": {
        "notice": "The minimum amount of base principal wei for rewards to accrue"
      },
      "baseScale()": {
        "notice": "The scale for base token (must be less than 18 decimals)"
      },
      "baseToken()": {
        "notice": "The address of the base token contract"
      },
      "baseTokenPriceFeed()": {
        "notice": "The address of the price feed for the base token"
      },
      "baseTrackingBorrowSpeed()": {
        "notice": "The speed at which borrow rewards are tracked (in trackingIndexScale)"
      },
      "baseTrackingSupplySpeed()": {
        "notice": "The speed at which supply rewards are tracked (in trackingIndexScale)"
      },
      "borrowBalanceOf(address)": {
        "notice": "Query the current negative base balance of an account or zero"
      },
      "borrowKink()": {
        "notice": "The point in the borrow rate separating the low interest rate slope and the high interest rate slope (factor)"
      },
      "borrowPerSecondInterestRateBase()": {
        "notice": "Per second borrow base interest rate (factor)"
      },
      "borrowPerSecondInterestRateSlopeHigh()": {
        "notice": "Per second borrow interest rate slope applied when utilization is above kink (factor)"
      },
      "borrowPerSecondInterestRateSlopeLow()": {
        "notice": "Per second borrow interest rate slope applied when utilization is below kink (factor)"
      },
      "buyCollateral(address,uint256,uint256,address)": {
        "notice": "Buy collateral from the protocol using base tokens, increasing protocol reserves A minimum collateral amount should be specified to indicate the maximum slippage acceptable for the buyer."
      },
      "constructor": {
        "notice": "Construct a new protocol instance"
      },
      "decimals()": {
        "notice": "The number of decimals for wrapped base token"
      },
      "extensionDelegate()": {
        "notice": "The address of the extension contract delegate"
      },
      "getAssetInfo(uint8)": {
        "notice": "Get the i-th asset info, according to the order they were passed in originally"
      },
      "getCollateralReserves(address)": {
        "notice": "Gets the total balance of protocol collateral reserves for an asset"
      },
      "getPrice(address)": {
        "notice": "Get the current price from a feed"
      },
      "getReserves()": {
        "notice": "Gets the total amount of protocol reserves of the base asset"
      },
      "governor()": {
        "notice": "The admin of the protocol"
      },
      "hasPermission(address,address)": {
        "notice": "Determine if the manager has permission to act on behalf of the owner"
      },
      "initializeStorage()": {
        "notice": "Initialize storage for the contract"
      },
      "isAllowed(address,address)": {
        "notice": "Mapping of users to accounts which may be permitted to manage the user account"
      },
      "isBorrowCollateralized(address)": {
        "notice": "Check whether an account has enough collateral to borrow"
      },
      "isLiquidatable(address)": {
        "notice": "Check whether an account has enough collateral to not be liquidated"
      },
      "liquidatorPoints(address)": {
        "notice": "Mapping of magic liquidator points"
      },
      "numAssets()": {
        "notice": "The number of assets this contract actually supports"
      },
      "pause(bool,bool,bool,bool,bool)": {
        "notice": "Pauses different actions within Comet"
      },
      "pauseGuardian()": {
        "notice": "The account which may trigger pauses"
      },
      "quoteCollateral(address,uint256)": {
        "notice": "Gets the quote for a collateral asset in exchange for an amount of base asset"
      },
      "storeFrontPriceFactor()": {
        "notice": "The fraction of the liquidation penalty that goes to buyers of collateral instead of the protocol"
      },
      "supply(address,uint256)": {
        "notice": "Supply an amount of asset to the protocol"
      },
      "supplyFrom(address,address,address,uint256)": {
        "notice": "Supply an amount of asset from `from` to dst, if allowed"
      },
      "supplyKink()": {
        "notice": "The point in the supply rates separating the low interest rate slope and the high interest rate slope (factor)"
      },
      "supplyPerSecondInterestRateBase()": {
        "notice": "Per second supply base interest rate (factor)"
      },
      "supplyPerSecondInterestRateSlopeHigh()": {
        "notice": "Per second supply interest rate slope applied when utilization is above kink (factor)"
      },
      "supplyPerSecondInterestRateSlopeLow()": {
        "notice": "Per second supply interest rate slope applied when utilization is below kink (factor)"
      },
      "supplyTo(address,address,uint256)": {
        "notice": "Supply an amount of asset to dst"
      },
      "targetReserves()": {
        "notice": "The minimum base token reserves which must be held before collateral is hodled"
      },
      "totalBorrow()": {
        "notice": "Get the total amount of debt"
      },
      "totalSupply()": {
        "notice": "Get the total number of tokens in circulation"
      },
      "totalsCollateral(address)": {
        "notice": "Aggregate variables tracked for each collateral asset"
      },
      "trackingIndexScale()": {
        "notice": "The scale for reward tracking"
      },
      "transfer(address,uint256)": {
        "notice": "ERC20 transfer an amount of base token to dst"
      },
      "transferAsset(address,address,uint256)": {
        "notice": "Transfer an amount of asset to dst"
      },
      "transferAssetFrom(address,address,address,uint256)": {
        "notice": "Transfer an amount of asset from src to dst, if allowed"
      },
      "transferFrom(address,address,uint256)": {
        "notice": "ERC20 transfer an amount of base token from src to dst, if allowed"
      },
      "userBasic(address)": {
        "notice": "Mapping of users to base principal and other basic data"
      },
      "userCollateral(address,address)": {
        "notice": "Mapping of users to collateral data per collateral asset"
      },
      "userNonce(address)": {
        "notice": "The next expected nonce for an address, for validating authorizations via signature"
      },
      "withdraw(address,uint256)": {
        "notice": "Withdraw an amount of asset from the protocol"
      },
      "withdrawFrom(address,address,address,uint256)": {
        "notice": "Withdraw an amount of asset from src to `to`, if allowed"
      },
      "withdrawReserves(address,uint256)": {
        "notice": "Withdraws base token reserves if called by the governor"
      },
      "withdrawTo(address,address,uint256)": {
        "notice": "Withdraw an amount of asset to `to`"
      }
    },
    "notice": "An efficient monolithic money market protocol",
    "version": 1
  }
}