{
  "contractName": "CometHarness",
  "abi": [
    {
      "inputs": [
        {
          "components": [
            {
              "internalType": "address",
              "name": "governor",
              "type": "address"
            },
            {
              "internalType": "address",
              "name": "pauseGuardian",
              "type": "address"
            },
            {
              "internalType": "address",
              "name": "baseToken",
              "type": "address"
            },
            {
              "internalType": "address",
              "name": "baseTokenPriceFeed",
              "type": "address"
            },
            {
              "internalType": "address",
              "name": "extensionDelegate",
              "type": "address"
            },
            {
              "internalType": "uint64",
              "name": "supplyKink",
              "type": "uint64"
            },
            {
              "internalType": "uint64",
              "name": "supplyPerYearInterestRateSlopeLow",
              "type": "uint64"
            },
            {
              "internalType": "uint64",
              "name": "supplyPerYearInterestRateSlopeHigh",
              "type": "uint64"
            },
            {
              "internalType": "uint64",
              "name": "supplyPerYearInterestRateBase",
              "type": "uint64"
            },
            {
              "internalType": "uint64",
              "name": "borrowKink",
              "type": "uint64"
            },
            {
              "internalType": "uint64",
              "name": "borrowPerYearInterestRateSlopeLow",
              "type": "uint64"
            },
            {
              "internalType": "uint64",
              "name": "borrowPerYearInterestRateSlopeHigh",
              "type": "uint64"
            },
            {
              "internalType": "uint64",
              "name": "borrowPerYearInterestRateBase",
              "type": "uint64"
            },
            {
              "internalType": "uint64",
              "name": "storeFrontPriceFactor",
              "type": "uint64"
            },
            {
              "internalType": "uint64",
              "name": "trackingIndexScale",
              "type": "uint64"
            },
            {
              "internalType": "uint64",
              "name": "baseTrackingSupplySpeed",
              "type": "uint64"
            },
            {
              "internalType": "uint64",
              "name": "baseTrackingBorrowSpeed",
              "type": "uint64"
            },
            {
              "internalType": "uint104",
              "name": "baseMinForRewards",
              "type": "uint104"
            },
            {
              "internalType": "uint104",
              "name": "baseBorrowMin",
              "type": "uint104"
            },
            {
              "internalType": "uint104",
              "name": "targetReserves",
              "type": "uint104"
            },
            {
              "components": [
                {
                  "internalType": "address",
                  "name": "asset",
                  "type": "address"
                },
                {
                  "internalType": "address",
                  "name": "priceFeed",
                  "type": "address"
                },
                {
                  "internalType": "uint8",
                  "name": "decimals",
                  "type": "uint8"
                },
                {
                  "internalType": "uint64",
                  "name": "borrowCollateralFactor",
                  "type": "uint64"
                },
                {
                  "internalType": "uint64",
                  "name": "liquidateCollateralFactor",
                  "type": "uint64"
                },
                {
                  "internalType": "uint64",
                  "name": "liquidationFactor",
                  "type": "uint64"
                },
                {
                  "internalType": "uint128",
                  "name": "supplyCap",
                  "type": "uint128"
                }
              ],
              "internalType": "struct CometConfiguration.AssetConfig[]",
              "name": "assetConfigs",
              "type": "tuple[]"
            }
          ],
          "internalType": "struct CometConfiguration.Configuration",
          "name": "config",
          "type": "tuple"
        }
      ],
      "stateMutability": "nonpayable",
      "type": "constructor"
    },
    {
      "inputs": [],
      "name": "Absurd",
      "type": "error"
    },
    {
      "inputs": [],
      "name": "AlreadyInitialized",
      "type": "error"
    },
    {
      "inputs": [],
      "name": "BadAsset",
      "type": "error"
    },
    {
      "inputs": [],
      "name": "BadDecimals",
      "type": "error"
    },
    {
      "inputs": [],
      "name": "BadDiscount",
      "type": "error"
    },
    {
      "inputs": [],
      "name": "BadMinimum",
      "type": "error"
    },
    {
      "inputs": [],
      "name": "BadPrice",
      "type": "error"
    },
    {
      "inputs": [],
      "name": "BorrowCFTooLarge",
      "type": "error"
    },
    {
      "inputs": [],
      "name": "BorrowTooSmall",
      "type": "error"
    },
    {
      "inputs": [],
      "name": "InsufficientReserves",
      "type": "error"
    },
    {
      "inputs": [],
      "name": "InvalidInt104",
      "type": "error"
    },
    {
      "inputs": [],
      "name": "InvalidInt256",
      "type": "error"
    },
    {
      "inputs": [],
      "name": "InvalidUInt104",
      "type": "error"
    },
    {
      "inputs": [],
      "name": "InvalidUInt128",
      "type": "error"
    },
    {
      "inputs": [],
      "name": "InvalidUInt64",
      "type": "error"
    },
    {
      "inputs": [],
      "name": "LiquidateCFTooLarge",
      "type": "error"
    },
    {
      "inputs": [],
      "name": "NegativeNumber",
      "type": "error"
    },
    {
      "inputs": [],
      "name": "NoSelfTransfer",
      "type": "error"
    },
    {
      "inputs": [],
      "name": "NotCollateralized",
      "type": "error"
    },
    {
      "inputs": [],
      "name": "NotForSale",
      "type": "error"
    },
    {
      "inputs": [],
      "name": "NotLiquidatable",
      "type": "error"
    },
    {
      "inputs": [],
      "name": "Paused",
      "type": "error"
    },
    {
      "inputs": [],
      "name": "SupplyCapExceeded",
      "type": "error"
    },
    {
      "inputs": [],
      "name": "TimestampTooLarge",
      "type": "error"
    },
    {
      "inputs": [],
      "name": "TooManyAssets",
      "type": "error"
    },
    {
      "inputs": [],
      "name": "TooMuchSlippage",
      "type": "error"
    },
    {
      "inputs": [],
      "name": "TransferInFailed",
      "type": "error"
    },
    {
      "inputs": [],
      "name": "TransferOutFailed",
      "type": "error"
    },
    {
      "inputs": [],
      "name": "Unauthorized",
      "type": "error"
    },
    {
      "anonymous": false,
      "inputs": [
        {
          "indexed": true,
          "internalType": "address",
          "name": "absorber",
          "type": "address"
        },
        {
          "indexed": true,
          "internalType": "address",
          "name": "borrower",
          "type": "address"
        },
        {
          "indexed": true,
          "internalType": "address",
          "name": "asset",
          "type": "address"
        },
        {
          "indexed": false,
          "internalType": "uint256",
          "name": "collateralAbsorbed",
          "type": "uint256"
        },
        {
          "indexed": false,
          "internalType": "uint256",
          "name": "usdValue",
          "type": "uint256"
        }
      ],
      "name": "AbsorbCollateral",
      "type": "event"
    },
    {
      "anonymous": false,
      "inputs": [
        {
          "indexed": true,
          "internalType": "address",
          "name": "absorber",
          "type": "address"
        },
        {
          "indexed": true,
          "internalType": "address",
          "name": "borrower",
          "type": "address"
        },
        {
          "indexed": false,
          "internalType": "uint256",
          "name": "basePaidOut",
          "type": "uint256"
        },
        {
          "indexed": false,
          "internalType": "uint256",
          "name": "usdValue",
          "type": "uint256"
        }
      ],
      "name": "AbsorbDebt",
      "type": "event"
    },
    {
      "anonymous": false,
      "inputs": [
        {
          "indexed": true,
          "internalType": "address",
          "name": "buyer",
          "type": "address"
        },
        {
          "indexed": true,
          "internalType": "address",
          "name": "asset",
          "type": "address"
        },
        {
          "indexed": false,
          "internalType": "uint256",
          "name": "baseAmount",
          "type": "uint256"
        },
        {
          "indexed": false,
          "internalType": "uint256",
          "name": "collateralAmount",
          "type": "uint256"
        }
      ],
      "name": "BuyCollateral",
      "type": "event"
    },
    {
      "anonymous": false,
      "inputs": [
        {
          "indexed": false,
          "internalType": "bool",
          "name": "supplyPaused",
          "type": "bool"
        },
        {
          "indexed": false,
          "internalType": "bool",
          "name": "transferPaused",
          "type": "bool"
        },
        {
          "indexed": false,
          "internalType": "bool",
          "name": "withdrawPaused",
          "type": "bool"
        },
        {
          "indexed": false,
          "internalType": "bool",
          "name": "absorbPaused",
          "type": "bool"
        },
        {
          "indexed": false,
          "internalType": "bool",
          "name": "buyPaused",
          "type": "bool"
        }
      ],
      "name": "PauseAction",
      "type": "event"
    },
    {
      "anonymous": false,
      "inputs": [
        {
          "indexed": true,
          "internalType": "address",
          "name": "from",
          "type": "address"
        },
        {
          "indexed": true,
          "internalType": "address",
          "name": "dst",
          "type": "address"
        },
        {
          "indexed": false,
          "internalType": "uint256",
          "name": "amount",
          "type": "uint256"
        }
      ],
      "name": "Supply",
      "type": "event"
    },
    {
      "anonymous": false,
      "inputs": [
        {
          "indexed": true,
          "internalType": "address",
          "name": "from",
          "type": "address"
        },
        {
          "indexed": true,
          "internalType": "address",
          "name": "dst",
          "type": "address"
        },
        {
          "indexed": true,
          "internalType": "address",
          "name": "asset",
          "type": "address"
        },
        {
          "indexed": false,
          "internalType": "uint256",
          "name": "amount",
          "type": "uint256"
        }
      ],
      "name": "SupplyCollateral",
      "type": "event"
    },
    {
      "anonymous": false,
      "inputs": [
        {
          "indexed": true,
          "internalType": "address",
          "name": "from",
          "type": "address"
        },
        {
          "indexed": true,
          "internalType": "address",
          "name": "to",
          "type": "address"
        },
        {
          "indexed": false,
          "internalType": "uint256",
          "name": "amount",
          "type": "uint256"
        }
      ],
      "name": "Transfer",
      "type": "event"
    },
    {
      "anonymous": false,
      "inputs": [
        {
          "indexed": true,
          "internalType": "address",
          "name": "from",
          "type": "address"
        },
        {
          "indexed": true,
          "internalType": "address",
          "name": "to",
          "type": "address"
        },
        {
          "indexed": true,
          "internalType": "address",
          "name": "asset",
          "type": "address"
        },
        {
          "indexed": false,
          "internalType": "uint256",
          "name": "amount",
          "type": "uint256"
        }
      ],
      "name": "TransferCollateral",
      "type": "event"
    },
    {
      "anonymous": false,
      "inputs": [
        {
          "indexed": true,
          "internalType": "address",
          "name": "src",
          "type": "address"
        },
        {
          "indexed": true,
          "internalType": "address",
          "name": "to",
          "type": "address"
        },
        {
          "indexed": false,
          "internalType": "uint256",
          "name": "amount",
          "type": "uint256"
        }
      ],
      "name": "Withdraw",
      "type": "event"
    },
    {
      "anonymous": false,
      "inputs": [
        {
          "indexed": true,
          "internalType": "address",
          "name": "src",
          "type": "address"
        },
        {
          "indexed": true,
          "internalType": "address",
          "name": "to",
          "type": "address"
        },
        {
          "indexed": true,
          "internalType": "address",
          "name": "asset",
          "type": "address"
        },
        {
          "indexed": false,
          "internalType": "uint256",
          "name": "amount",
          "type": "uint256"
        }
      ],
      "name": "WithdrawCollateral",
      "type": "event"
    },
    {
      "anonymous": false,
      "inputs": [
        {
          "indexed": true,
          "internalType": "address",
          "name": "to",
          "type": "address"
        },
        {
          "indexed": false,
          "internalType": "uint256",
          "name": "amount",
          "type": "uint256"
        }
      ],
      "name": "WithdrawReserves",
      "type": "event"
    },
    {
      "stateMutability": "payable",
      "type": "fallback"
    },
    {
      "inputs": [
        {
          "internalType": "address",
          "name": "absorber",
          "type": "address"
        },
        {
          "internalType": "address[]",
          "name": "accounts",
          "type": "address[]"
        }
      ],
      "name": "absorb",
      "outputs": [],
      "stateMutability": "nonpayable",
      "type": "function"
    },
    {
      "inputs": [
        {
          "internalType": "address",
          "name": "account",
          "type": "address"
        }
      ],
      "name": "accrueAccount",
      "outputs": [],
      "stateMutability": "nonpayable",
      "type": "function"
    },
    {
      "inputs": [
        {
          "internalType": "address",
          "name": "manager",
          "type": "address"
        },
        {
          "internalType": "address",
          "name": "asset",
          "type": "address"
        },
        {
          "internalType": "uint256",
          "name": "amount",
          "type": "uint256"
        }
      ],
      "name": "approveThis",
      "outputs": [],
      "stateMutability": "nonpayable",
      "type": "function"
    },
    {
      "inputs": [
        {
          "internalType": "address",
          "name": "account",
          "type": "address"
        }
      ],
      "name": "balanceOf",
      "outputs": [
        {
          "internalType": "uint256",
          "name": "",
          "type": "uint256"
        }
      ],
      "stateMutability": "view",
      "type": "function"
    },
    {
      "inputs": [],
      "name": "baseBorrowMin",
      "outputs": [
        {
          "internalType": "uint256",
          "name": "",
          "type": "uint256"
        }
      ],
      "stateMutability": "view",
      "type": "function"
    },
    {
      "inputs": [],
      "name": "baseMinForRewards",
      "outputs": [
        {
          "internalType": "uint256",
          "name": "",
          "type": "uint256"
        }
      ],
      "stateMutability": "view",
      "type": "function"
    },
    {
      "inputs": [],
      "name": "baseScale",
      "outputs": [
        {
          "internalType": "uint256",
          "name": "",
          "type": "uint256"
        }
      ],
      "stateMutability": "view",
      "type": "function"
    },
    {
      "inputs": [],
      "name": "baseToken",
      "outputs": [
        {
          "internalType": "address",
          "name": "",
          "type": "address"
        }
      ],
      "stateMutability": "view",
      "type": "function"
    },
    {
      "inputs": [],
      "name": "baseTokenPriceFeed",
      "outputs": [
        {
          "internalType": "address",
          "name": "",
          "type": "address"
        }
      ],
      "stateMutability": "view",
      "type": "function"
    },
    {
      "inputs": [],
      "name": "baseTrackingBorrowSpeed",
      "outputs": [
        {
          "internalType": "uint256",
          "name": "",
          "type": "uint256"
        }
      ],
      "stateMutability": "view",
      "type": "function"
    },
    {
      "inputs": [],
      "name": "baseTrackingSupplySpeed",
      "outputs": [
        {
          "internalType": "uint256",
          "name": "",
          "type": "uint256"
        }
      ],
      "stateMutability": "view",
      "type": "function"
    },
    {
      "inputs": [
        {
          "internalType": "address",
          "name": "account",
          "type": "address"
        }
      ],
      "name": "borrowBalanceOf",
      "outputs": [
        {
          "internalType": "uint256",
          "name": "",
          "type": "uint256"
        }
      ],
      "stateMutability": "view",
      "type": "function"
    },
    {
      "inputs": [],
      "name": "borrowKink",
      "outputs": [
        {
          "internalType": "uint256",
          "name": "",
          "type": "uint256"
        }
      ],
      "stateMutability": "view",
      "type": "function"
    },
    {
      "inputs": [],
      "name": "borrowPerSecondInterestRateBase",
      "outputs": [
        {
          "internalType": "uint256",
          "name": "",
          "type": "uint256"
        }
      ],
      "stateMutability": "view",
      "type": "function"
    },
    {
      "inputs": [],
      "name": "borrowPerSecondInterestRateSlopeHigh",
      "outputs": [
        {
          "internalType": "uint256",
          "name": "",
          "type": "uint256"
        }
      ],
      "stateMutability": "view",
      "type": "function"
    },
    {
      "inputs": [],
      "name": "borrowPerSecondInterestRateSlopeLow",
      "outputs": [
        {
          "internalType": "uint256",
          "name": "",
          "type": "uint256"
        }
      ],
      "stateMutability": "view",
      "type": "function"
    },
    {
      "inputs": [
        {
          "internalType": "address",
          "name": "asset",
          "type": "address"
        },
        {
          "internalType": "uint256",
          "name": "minAmount",
          "type": "uint256"
        },
        {
          "internalType": "uint256",
          "name": "baseAmount",
          "type": "uint256"
        },
        {
          "internalType": "address",
          "name": "recipient",
          "type": "address"
        }
      ],
      "name": "buyCollateral",
      "outputs": [],
      "stateMutability": "nonpayable",
      "type": "function"
    },
    {
      "inputs": [],
      "name": "decimals",
      "outputs": [
        {
          "internalType": "uint8",
          "name": "",
          "type": "uint8"
        }
      ],
      "stateMutability": "view",
      "type": "function"
    },
    {
      "inputs": [],
      "name": "extensionDelegate",
      "outputs": [
        {
          "internalType": "address",
          "name": "",
          "type": "address"
        }
      ],
      "stateMutability": "view",
      "type": "function"
    },
    {
      "inputs": [
        {
          "internalType": "uint8",
          "name": "i",
          "type": "uint8"
        }
      ],
      "name": "getAssetInfo",
      "outputs": [
        {
          "components": [
            {
              "internalType": "uint8",
              "name": "offset",
              "type": "uint8"
            },
            {
              "internalType": "address",
              "name": "asset",
              "type": "address"
            },
            {
              "internalType": "address",
              "name": "priceFeed",
              "type": "address"
            },
            {
              "internalType": "uint64",
              "name": "scale",
              "type": "uint64"
            },
            {
              "internalType": "uint64",
              "name": "borrowCollateralFactor",
              "type": "uint64"
            },
            {
              "internalType": "uint64",
              "name": "liquidateCollateralFactor",
              "type": "uint64"
            },
            {
              "internalType": "uint64",
              "name": "liquidationFactor",
              "type": "uint64"
            },
            {
              "internalType": "uint128",
              "name": "supplyCap",
              "type": "uint128"
            }
          ],
          "internalType": "struct CometCore.AssetInfo",
          "name": "",
          "type": "tuple"
        }
      ],
      "stateMutability": "view",
      "type": "function"
    },
    {
      "inputs": [
        {
          "internalType": "address",
          "name": "asset",
          "type": "address"
        }
      ],
      "name": "getAssetInfoByAddress",
      "outputs": [
        {
          "components": [
            {
              "internalType": "uint8",
              "name": "offset",
              "type": "uint8"
            },
            {
              "internalType": "address",
              "name": "asset",
              "type": "address"
            },
            {
              "internalType": "address",
              "name": "priceFeed",
              "type": "address"
            },
            {
              "internalType": "uint64",
              "name": "scale",
              "type": "uint64"
            },
            {
              "internalType": "uint64",
              "name": "borrowCollateralFactor",
              "type": "uint64"
            },
            {
              "internalType": "uint64",
              "name": "liquidateCollateralFactor",
              "type": "uint64"
            },
            {
              "internalType": "uint64",
              "name": "liquidationFactor",
              "type": "uint64"
            },
            {
              "internalType": "uint128",
              "name": "supplyCap",
              "type": "uint128"
            }
          ],
          "internalType": "struct CometCore.AssetInfo",
          "name": "",
          "type": "tuple"
        }
      ],
      "stateMutability": "view",
      "type": "function"
    },
    {
      "inputs": [
        {
          "internalType": "uint256",
          "name": "utilization",
          "type": "uint256"
        }
      ],
      "name": "getBorrowRate",
      "outputs": [
        {
          "internalType": "uint64",
          "name": "",
          "type": "uint64"
        }
      ],
      "stateMutability": "view",
      "type": "function"
    },
    {
      "inputs": [
        {
          "internalType": "address",
          "name": "asset",
          "type": "address"
        }
      ],
      "name": "getCollateralReserves",
      "outputs": [
        {
          "internalType": "uint256",
          "name": "",
          "type": "uint256"
        }
      ],
      "stateMutability": "view",
      "type": "function"
    },
    {
      "inputs": [
        {
          "internalType": "address",
          "name": "priceFeed",
          "type": "address"
        }
      ],
      "name": "getPrice",
      "outputs": [
        {
          "internalType": "uint256",
          "name": "",
          "type": "uint256"
        }
      ],
      "stateMutability": "view",
      "type": "function"
    },
    {
      "inputs": [],
      "name": "getReserves",
      "outputs": [
        {
          "internalType": "int256",
          "name": "",
          "type": "int256"
        }
      ],
      "stateMutability": "view",
      "type": "function"
    },
    {
      "inputs": [
        {
          "internalType": "uint256",
          "name": "utilization",
          "type": "uint256"
        }
      ],
      "name": "getSupplyRate",
      "outputs": [
        {
          "internalType": "uint64",
          "name": "",
          "type": "uint64"
        }
      ],
      "stateMutability": "view",
      "type": "function"
    },
    {
      "inputs": [],
      "name": "getUtilization",
      "outputs": [
        {
          "internalType": "uint256",
          "name": "",
          "type": "uint256"
        }
      ],
      "stateMutability": "view",
      "type": "function"
    },
    {
      "inputs": [],
      "name": "governor",
      "outputs": [
        {
          "internalType": "address",
          "name": "",
          "type": "address"
        }
      ],
      "stateMutability": "view",
      "type": "function"
    },
    {
      "inputs": [
        {
          "internalType": "address",
          "name": "owner",
          "type": "address"
        },
        {
          "internalType": "address",
          "name": "manager",
          "type": "address"
        }
      ],
      "name": "hasPermission",
      "outputs": [
        {
          "internalType": "bool",
          "name": "",
          "type": "bool"
        }
      ],
      "stateMutability": "view",
      "type": "function"
    },
    {
      "inputs": [],
      "name": "initializeStorage",
      "outputs": [],
      "stateMutability": "nonpayable",
      "type": "function"
    },
    {
      "inputs": [],
      "name": "isAbsorbPaused",
      "outputs": [
        {
          "internalType": "bool",
          "name": "",
          "type": "bool"
        }
      ],
      "stateMutability": "view",
      "type": "function"
    },
    {
      "inputs": [
        {
          "internalType": "address",
          "name": "",
          "type": "address"
        },
        {
          "internalType": "address",
          "name": "",
          "type": "address"
        }
      ],
      "name": "isAllowed",
      "outputs": [
        {
          "internalType": "bool",
          "name": "",
          "type": "bool"
        }
      ],
      "stateMutability": "view",
      "type": "function"
    },
    {
      "inputs": [
        {
          "internalType": "address",
          "name": "account",
          "type": "address"
        }
      ],
      "name": "isBorrowCollateralized",
      "outputs": [
        {
          "internalType": "bool",
          "name": "",
          "type": "bool"
        }
      ],
      "stateMutability": "view",
      "type": "function"
    },
    {
      "inputs": [],
      "name": "isBuyPaused",
      "outputs": [
        {
          "internalType": "bool",
          "name": "",
          "type": "bool"
        }
      ],
      "stateMutability": "view",
      "type": "function"
    },
    {
      "inputs": [
        {
          "internalType": "address",
          "name": "account",
          "type": "address"
        }
      ],
      "name": "isLiquidatable",
      "outputs": [
        {
          "internalType": "bool",
          "name": "",
          "type": "bool"
        }
      ],
      "stateMutability": "view",
      "type": "function"
    },
    {
      "inputs": [],
      "name": "isSupplyPaused",
      "outputs": [
        {
          "internalType": "bool",
          "name": "",
          "type": "bool"
        }
      ],
      "stateMutability": "view",
      "type": "function"
    },
    {
      "inputs": [],
      "name": "isTransferPaused",
      "outputs": [
        {
          "internalType": "bool",
          "name": "",
          "type": "bool"
        }
      ],
      "stateMutability": "view",
      "type": "function"
    },
    {
      "inputs": [],
      "name": "isWithdrawPaused",
      "outputs": [
        {
          "internalType": "bool",
          "name": "",
          "type": "bool"
        }
      ],
      "stateMutability": "view",
      "type": "function"
    },
    {
      "inputs": [
        {
          "internalType": "address",
          "name": "",
          "type": "address"
        }
      ],
      "name": "liquidatorPoints",
      "outputs": [
        {
          "internalType": "uint32",
          "name": "numAbsorbs",
          "type": "uint32"
        },
        {
          "internalType": "uint64",
          "name": "numAbsorbed",
          "type": "uint64"
        },
        {
          "internalType": "uint128",
          "name": "approxSpend",
          "type": "uint128"
        },
        {
          "internalType": "uint32",
          "name": "_reserved",
          "type": "uint32"
        }
      ],
      "stateMutability": "view",
      "type": "function"
    },
    {
      "inputs": [],
      "name": "nowOverride",
      "outputs": [
        {
          "internalType": "uint256",
          "name": "",
          "type": "uint256"
        }
      ],
      "stateMutability": "view",
      "type": "function"
    },
    {
      "inputs": [],
      "name": "numAssets",
      "outputs": [
        {
          "internalType": "uint8",
          "name": "",
          "type": "uint8"
        }
      ],
      "stateMutability": "view",
      "type": "function"
    },
    {
      "inputs": [
        {
          "internalType": "bool",
          "name": "supplyPaused",
          "type": "bool"
        },
        {
          "internalType": "bool",
          "name": "transferPaused",
          "type": "bool"
        },
        {
          "internalType": "bool",
          "name": "withdrawPaused",
          "type": "bool"
        },
        {
          "internalType": "bool",
          "name": "absorbPaused",
          "type": "bool"
        },
        {
          "internalType": "bool",
          "name": "buyPaused",
          "type": "bool"
        }
      ],
      "name": "pause",
      "outputs": [],
      "stateMutability": "nonpayable",
      "type": "function"
    },
    {
      "inputs": [],
      "name": "pauseGuardian",
      "outputs": [
        {
          "internalType": "address",
          "name": "",
          "type": "address"
        }
      ],
      "stateMutability": "view",
      "type": "function"
    },
    {
      "inputs": [
        {
          "internalType": "address",
          "name": "asset",
          "type": "address"
        },
        {
          "internalType": "uint256",
          "name": "baseAmount",
          "type": "uint256"
        }
      ],
      "name": "quoteCollateral",
      "outputs": [
        {
          "internalType": "uint256",
          "name": "",
          "type": "uint256"
        }
      ],
      "stateMutability": "view",
      "type": "function"
    },
    {
      "inputs": [],
      "name": "storeFrontPriceFactor",
      "outputs": [
        {
          "internalType": "uint256",
          "name": "",
          "type": "uint256"
        }
      ],
      "stateMutability": "view",
      "type": "function"
    },
    {
      "inputs": [
        {
          "internalType": "address",
          "name": "asset",
          "type": "address"
        },
        {
          "internalType": "uint256",
          "name": "amount",
          "type": "uint256"
        }
      ],
      "name": "supply",
      "outputs": [],
      "stateMutability": "nonpayable",
      "type": "function"
    },
    {
      "inputs": [
        {
          "internalType": "address",
          "name": "from",
          "type": "address"
        },
        {
          "internalType": "address",
          "name": "dst",
          "type": "address"
        },
        {
          "internalType": "address",
          "name": "asset",
          "type": "address"
        },
        {
          "internalType": "uint256",
          "name": "amount",
          "type": "uint256"
        }
      ],
      "name": "supplyFrom",
      "outputs": [],
      "stateMutability": "nonpayable",
      "type": "function"
    },
    {
      "inputs": [],
      "name": "supplyKink",
      "outputs": [
        {
          "internalType": "uint256",
          "name": "",
          "type": "uint256"
        }
      ],
      "stateMutability": "view",
      "type": "function"
    },
    {
      "inputs": [],
      "name": "supplyPerSecondInterestRateBase",
      "outputs": [
        {
          "internalType": "uint256",
          "name": "",
          "type": "uint256"
        }
      ],
      "stateMutability": "view",
      "type": "function"
    },
    {
      "inputs": [],
      "name": "supplyPerSecondInterestRateSlopeHigh",
      "outputs": [
        {
          "internalType": "uint256",
          "name": "",
          "type": "uint256"
        }
      ],
      "stateMutability": "view",
      "type": "function"
    },
    {
      "inputs": [],
      "name": "supplyPerSecondInterestRateSlopeLow",
      "outputs": [
        {
          "internalType": "uint256",
          "name": "",
          "type": "uint256"
        }
      ],
      "stateMutability": "view",
      "type": "function"
    },
    {
      "inputs": [
        {
          "internalType": "address",
          "name": "dst",
          "type": "address"
        },
        {
          "internalType": "address",
          "name": "asset",
          "type": "address"
        },
        {
          "internalType": "uint256",
          "name": "amount",
          "type": "uint256"
        }
      ],
      "name": "supplyTo",
      "outputs": [],
      "stateMutability": "nonpayable",
      "type": "function"
    },
    {
      "inputs": [],
      "name": "targetReserves",
      "outputs": [
        {
          "internalType": "uint256",
          "name": "",
          "type": "uint256"
        }
      ],
      "stateMutability": "view",
      "type": "function"
    },
    {
      "inputs": [],
      "name": "totalBorrow",
      "outputs": [
        {
          "internalType": "uint256",
          "name": "",
          "type": "uint256"
        }
      ],
      "stateMutability": "view",
      "type": "function"
    },
    {
      "inputs": [],
      "name": "totalSupply",
      "outputs": [
        {
          "internalType": "uint256",
          "name": "",
          "type": "uint256"
        }
      ],
      "stateMutability": "view",
      "type": "function"
    },
    {
      "inputs": [
        {
          "internalType": "address",
          "name": "",
          "type": "address"
        }
      ],
      "name": "totalsCollateral",
      "outputs": [
        {
          "internalType": "uint128",
          "name": "totalSupplyAsset",
          "type": "uint128"
        },
        {
          "internalType": "uint128",
          "name": "_reserved",
          "type": "uint128"
        }
      ],
      "stateMutability": "view",
      "type": "function"
    },
    {
      "inputs": [],
      "name": "trackingIndexScale",
      "outputs": [
        {
          "internalType": "uint256",
          "name": "",
          "type": "uint256"
        }
      ],
      "stateMutability": "view",
      "type": "function"
    },
    {
      "inputs": [
        {
          "internalType": "address",
          "name": "dst",
          "type": "address"
        },
        {
          "internalType": "uint256",
          "name": "amount",
          "type": "uint256"
        }
      ],
      "name": "transfer",
      "outputs": [
        {
          "internalType": "bool",
          "name": "",
          "type": "bool"
        }
      ],
      "stateMutability": "nonpayable",
      "type": "function"
    },
    {
      "inputs": [
        {
          "internalType": "address",
          "name": "dst",
          "type": "address"
        },
        {
          "internalType": "address",
          "name": "asset",
          "type": "address"
        },
        {
          "internalType": "uint256",
          "name": "amount",
          "type": "uint256"
        }
      ],
      "name": "transferAsset",
      "outputs": [],
      "stateMutability": "nonpayable",
      "type": "function"
    },
    {
      "inputs": [
        {
          "internalType": "address",
          "name": "src",
          "type": "address"
        },
        {
          "internalType": "address",
          "name": "dst",
          "type": "address"
        },
        {
          "internalType": "address",
          "name": "asset",
          "type": "address"
        },
        {
          "internalType": "uint256",
          "name": "amount",
          "type": "uint256"
        }
      ],
      "name": "transferAssetFrom",
      "outputs": [],
      "stateMutability": "nonpayable",
      "type": "function"
    },
    {
      "inputs": [
        {
          "internalType": "address",
          "name": "src",
          "type": "address"
        },
        {
          "internalType": "address",
          "name": "dst",
          "type": "address"
        },
        {
          "internalType": "uint256",
          "name": "amount",
          "type": "uint256"
        }
      ],
      "name": "transferFrom",
      "outputs": [
        {
          "internalType": "bool",
          "name": "",
          "type": "bool"
        }
      ],
      "stateMutability": "nonpayable",
      "type": "function"
    },
    {
      "inputs": [
        {
          "internalType": "address",
          "name": "",
          "type": "address"
        }
      ],
      "name": "userBasic",
      "outputs": [
        {
          "internalType": "int104",
          "name": "principal",
          "type": "int104"
        },
        {
          "internalType": "uint64",
          "name": "baseTrackingIndex",
          "type": "uint64"
        },
        {
          "internalType": "uint64",
          "name": "baseTrackingAccrued",
          "type": "uint64"
        },
        {
          "internalType": "uint16",
          "name": "assetsIn",
          "type": "uint16"
        },
        {
          "internalType": "uint8",
          "name": "_reserved",
          "type": "uint8"
        }
      ],
      "stateMutability": "view",
      "type": "function"
    },
    {
      "inputs": [
        {
          "internalType": "address",
          "name": "",
          "type": "address"
        },
        {
          "internalType": "address",
          "name": "",
          "type": "address"
        }
      ],
      "name": "userCollateral",
      "outputs": [
        {
          "internalType": "uint128",
          "name": "balance",
          "type": "uint128"
        },
        {
          "internalType": "uint128",
          "name": "_reserved",
          "type": "uint128"
        }
      ],
      "stateMutability": "view",
      "type": "function"
    },
    {
      "inputs": [
        {
          "internalType": "address",
          "name": "",
          "type": "address"
        }
      ],
      "name": "userNonce",
      "outputs": [
        {
          "internalType": "uint256",
          "name": "",
          "type": "uint256"
        }
      ],
      "stateMutability": "view",
      "type": "function"
    },
    {
      "inputs": [
        {
          "internalType": "address",
          "name": "asset",
          "type": "address"
        },
        {
          "internalType": "uint256",
          "name": "amount",
          "type": "uint256"
        }
      ],
      "name": "withdraw",
      "outputs": [],
      "stateMutability": "nonpayable",
      "type": "function"
    },
    {
      "inputs": [
        {
          "internalType": "address",
          "name": "src",
          "type": "address"
        },
        {
          "internalType": "address",
          "name": "to",
          "type": "address"
        },
        {
          "internalType": "address",
          "name": "asset",
          "type": "address"
        },
        {
          "internalType": "uint256",
          "name": "amount",
          "type": "uint256"
        }
      ],
      "name": "withdrawFrom",
      "outputs": [],
      "stateMutability": "nonpayable",
      "type": "function"
    },
    {
      "inputs": [
        {
          "internalType": "address",
          "name": "to",
          "type": "address"
        },
        {
          "internalType": "uint256",
          "name": "amount",
          "type": "uint256"
        }
      ],
      "name": "withdrawReserves",
      "outputs": [],
      "stateMutability": "nonpayable",
      "type": "function"
    },
    {
      "inputs": [
        {
          "internalType": "address",
          "name": "to",
          "type": "address"
        },
        {
          "internalType": "address",
          "name": "asset",
          "type": "address"
        },
        {
          "internalType": "uint256",
          "name": "amount",
          "type": "uint256"
        }
      ],
      "name": "withdrawTo",
      "outputs": [],
      "stateMutability": "nonpayable",
      "type": "function"
    },
    {
      "inputs": [],
      "name": "getNow",
      "outputs": [
        {
          "internalType": "uint40",
          "name": "",
          "type": "uint40"
        }
      ],
      "stateMutability": "view",
      "type": "function"
    },
    {
      "inputs": [
        {
          "internalType": "uint256",
          "name": "now_",
          "type": "uint256"
        }
      ],
      "name": "setNow",
      "outputs": [],
      "stateMutability": "nonpayable",
      "type": "function"
    },
    {
      "inputs": [
        {
          "components": [
            {
              "internalType": "uint64",
              "name": "baseSupplyIndex",
              "type": "uint64"
            },
            {
              "internalType": "uint64",
              "name": "baseBorrowIndex",
              "type": "uint64"
            },
            {
              "internalType": "uint64",
              "name": "trackingSupplyIndex",
              "type": "uint64"
            },
            {
              "internalType": "uint64",
              "name": "trackingBorrowIndex",
              "type": "uint64"
            },
            {
              "internalType": "uint104",
              "name": "totalSupplyBase",
              "type": "uint104"
            },
            {
              "internalType": "uint104",
              "name": "totalBorrowBase",
              "type": "uint104"
            },
            {
              "internalType": "uint40",
              "name": "lastAccrualTime",
              "type": "uint40"
            },
            {
              "internalType": "uint8",
              "name": "pauseFlags",
              "type": "uint8"
            }
          ],
          "internalType": "struct CometStorage.TotalsBasic",
          "name": "totals",
          "type": "tuple"
        }
      ],
      "name": "setTotalsBasic",
      "outputs": [],
      "stateMutability": "nonpayable",
      "type": "function"
    },
    {
      "inputs": [
        {
          "internalType": "address",
          "name": "asset",
          "type": "address"
        },
        {
          "components": [
            {
              "internalType": "uint128",
              "name": "totalSupplyAsset",
              "type": "uint128"
            },
            {
              "internalType": "uint128",
              "name": "_reserved",
              "type": "uint128"
            }
          ],
          "internalType": "struct CometStorage.TotalsCollateral",
          "name": "totals",
          "type": "tuple"
        }
      ],
      "name": "setTotalsCollateral",
      "outputs": [],
      "stateMutability": "nonpayable",
      "type": "function"
    },
    {
      "inputs": [
        {
          "internalType": "address",
          "name": "account",
          "type": "address"
        },
        {
          "internalType": "int104",
          "name": "principal",
          "type": "int104"
        }
      ],
      "name": "setBasePrincipal",
      "outputs": [],
      "stateMutability": "nonpayable",
      "type": "function"
    },
    {
      "inputs": [
        {
          "internalType": "address",
          "name": "account",
          "type": "address"
        },
        {
          "internalType": "address",
          "name": "asset",
          "type": "address"
        },
        {
          "internalType": "uint128",
          "name": "balance",
          "type": "uint128"
        }
      ],
      "name": "setCollateralBalance",
      "outputs": [],
      "stateMutability": "nonpayable",
      "type": "function"
    },
    {
      "inputs": [
        {
          "internalType": "address",
          "name": "account",
          "type": "address"
        },
        {
          "internalType": "address",
          "name": "asset",
          "type": "address"
        },
        {
          "internalType": "uint128",
          "name": "initialUserBalance",
          "type": "uint128"
        },
        {
          "internalType": "uint128",
          "name": "finalUserBalance",
          "type": "uint128"
        }
      ],
      "name": "updateAssetsInExternal",
      "outputs": [],
      "stateMutability": "nonpayable",
      "type": "function"
    },
    {
      "inputs": [
        {
          "internalType": "address",
          "name": "account",
          "type": "address"
        }
      ],
      "name": "getAssetList",
      "outputs": [
        {
          "internalType": "address[]",
          "name": "result",
          "type": "address[]"
        }
      ],
      "stateMutability": "view",
      "type": "function"
    },
    {
      "inputs": [],
      "name": "accrue",
      "outputs": [],
      "stateMutability": "nonpayable",
      "type": "function"
    }
  ],
  "bytecode": "0x6107406040523462000389576200001f6200001962000588565b620007c8565b60405161540f90816200132282396080518181816106ce01528181610f250152818161176e0152611c8c015260a051818181610a8a015261105b015260c051818181610a42015281816116f101528181611a9701528181611cf501528181611da60152818161309301528181613811015281816138e201528181613f4f0152818161441c0152614520015260e051818181611ed5015281816131d401528181614a160152614e1c01526101005181818161109b0152614f540152610120518181816116a70152612bb201526101405181818161113a01528181612bee0152612c580152610160518181816113af0152612c880152610180518181816115260152612c1501526101a0518181816114ae0152612cc201526101c051818181610bf201528181612cfe0152612d6801526101e051818181610b270152612d9801526102005181818161132b0152612d250152610220518181816109dd0152614de0015261024051818181610e9e015281816132020152818161349c01528181614bea0152614e5401526102605181818161173101526136780152610280518181816107820152612a9e01526102a0518181816115620152612a2101526102c0518181816114ea015261298801526102e051818181610c6c015281816141eb01526145c6015261030051818181610ce70152611e8501526103205181610caa01526103405181818161083c0152818161166a015281816121e1015281816127e701528181613231015281816133e00152614a460152610360518161369f0152610380518161223101526103a0518161221001526103c0518161237e01526103e0518161235d015261040051816123ce015261042051816123ad0152610440518161241e015261046051816123fd0152610480518161246e01526104a0518161244d01526104c051816124be01526104e0518161249d0152610500518161250e015261052051816124ed0152610540518161255e0152610560518161253d015261058051816125ae01526105a0518161258d01526105c051816125fe01526105e051816125dd0152610600518161264e0152610620518161262d0152610640518161269e0152610660518161267d015261068051816126ee01526106a051816126cd01526106c0518161273e01526106e0518161271d0152610700518161278c0152610720518161276b0152f35b600080fd5b50634e487b7160e01b600052604160045260246000fd5b60e081019081106001600160401b03821117620003c157604052565b620003cb6200038e565b604052565b601f909101601f19168101906001600160401b03821190821017620003c157604052565b604051906102a082016001600160401b03811183821017620003c157604052565b51906001600160a01b03821682036200038957565b51906001600160401b03821682036200038957565b51906001600160681b03821682036200038957565b519060ff821682036200038957565b81601f8201121562000389578051906001600160401b03821162000578575b60408051936020916200049b838660051b0187620003d0565b848652828601918360e08097028601019481861162000389578401925b858410620004ca575050505050505090565b86848303126200038957825190620004e282620003a5565b620004ed8562000415565b8252620004fc86860162000415565b868301526200050d84860162000454565b848301526060620005208187016200042a565b908301526080620005338187016200042a565b9083015260a0620005468187016200042a565b9083015260c085810151929091906001600160801b0384168403620003895789938893820152815201930192620004b8565b620005826200038e565b62000482565b620067318038038060405192620005a08285620003d0565b8339810190602081830312620003895780516001600160401b03918282116200038957016102a0818403126200038957620005da620003f4565b92620005e68262000415565b8452620005f66020830162000415565b6020850152620006096040830162000415565b60408501526200061c6060830162000415565b60608501526200062f6080830162000415565b60808501526200064260a083016200042a565b60a08501526200065560c083016200042a565b60c08501526200066860e083016200042a565b60e08501526101006200067d8184016200042a565b90850152610120620006918184016200042a565b90850152610140620006a58184016200042a565b90850152610160620006b98184016200042a565b90850152610180620006cd8184016200042a565b908501526101a0620006e18184016200042a565b908501526101c0620006f58184016200042a565b908501526101e0620007098184016200042a565b908501526102006200071d8184016200042a565b90850152610220620007318184016200043f565b90850152610240620007458184016200043f565b90850152610260620007598184016200043f565b908501526102809283830151908111620003895762000779920162000463565b9082015290565b908160209103126200038957620007979062000454565b90565b506040513d6000823e3d90fd5b8115620007b2570490565b634e487b7160e01b600052601260045260246000fd5b6040818101805190929190620007f590620007e9906001600160a01b031681565b6001600160a01b031690565b9181518093819363313ce56760e01b91828452602093849160049889915afa94851562000c79575b60009562000c55575b5060ff8516916012831162000c45576101a08581018051919790946001600160401b0392909190670de0b6b3a76400009084161162000c3557610280968789019b600f8d51511162000c25576102208a810180519097919391906001600160681b03161562000c155790600860ff8f9493838f9160608e930197620008b9620007e9620007e98b5160018060a01b031690565b93518094819382525afa90811562000c05575b60009162000bd1575b50160362000bc1576200092f92916200090f6200091f928e620008fe815160018060a01b031690565b60805201516001600160a01b031690565b60a052516001600160a01b031690565b60c052516001600160a01b031690565b60e05260808901516001600160a01b0316610100908152965162000963906001600160401b03165b6001600160401b031690565b905261032052600a0a1690610240978289526101c093620f42406200099462000957878b015160018060401b031690565b946102609586521062000bb45750508751620f4240900461036052516001600160681b039081166102c0526101e0868101516001600160401b039081169096526102008088015187166102a0529887015182166102e05291860151166103005260a0850151841661012090815260c08601516301e13380908616819004861661014090815260e0880151871682900487166101609081529588015187168290048716610180908152928801518716909852968601518516879004851690925291840151831685900483169091529091015181169190910416905280515160ff1661034052805162000a859062000ce3565b6103a05261038052805162000a9a9062000fca565b6103e0526103c052805162000aaf9062000ff8565b6104205261040052805162000ac49062001026565b6104605261044052805162000ad99062001054565b6104a05261048052805162000aee906200114d565b6104e0526104c052805162000b03906200117b565b6105205261050052805162000b1890620011a9565b6105605261054052805162000b2d90620011d8565b6105a05261058052805162000b429062001207565b6105e0526105c052805162000b579062001236565b6106205261060052805162000b6c9062001265565b6106605261064052805162000b819062001294565b6106a05261068052805162000b9690620012c3565b6106e0526106c0525162000baa90620012f2565b6107205261070052565b51630456c65960e51b8152fd5b8851630456c65960e51b81528e90fd5b62000bf69150843d861162000bfd575b62000bed8183620003d0565b81019062000780565b38620008d5565b503d62000be1565b62000c0f6200079a565b620008cc565b8851636e77247560e01b81528e90fd5b865163df8153c760e01b81528c90fd5b84516324dc918f60e11b81528a90fd5b8151630456c65960e51b81528790fd5b62000c71919550833d851162000bfd5762000bed8183620003d0565b933862000826565b62000c836200079a565b6200081d565b6040519060e082016001600160401b0381118382101762000cd3575b6040528160c06000918281528260208201528260408201528260608201528260808201528260a08201520152565b62000cdd6200038e565b62000ca5565b62000ced62000c89565b5080511562000fc1576020015180519091906001600160a01b03165b6020838101516001600160a01b03169060409462000d2a8682015160ff1690565b936001600160a01b0390811693841562000fb157169286519263313ce56760e01b808552600860ff600496848189818c5afa90811562000fa1575b60009162000f7f575b50160362000f6f579060ff91895190815281818781875afa91821562000f5f575b60009262000f3d575b5050818716918291160362000f2d576060830180519093906001600160401b03165b6080820180519095919062000dd8906001600160401b031662000957565b6001600160401b03918216101562000f1d578551670de0b6b3a764000091166001600160401b03161162000f0d575162000e549062000e3f9062000e299062000e469083906001600160401b031683565b655af3107a40006001600160401b039091160490565b61ffff1690565b96516001600160401b031690565b60a082015190959062000e759062000e3f906001600160401b031662000e29565b9961ffff808816908716101562000f0057505060c0015162000eac916200095791600a9190910a906001600160801b0316620007a7565b60a092831b61ffff60a01b169190911760b09390931b61ffff60b01b169290921760c09690961b61ffff60c01b1695909517949290921b60ff60a01b161760a89190911b600160a81b600160e81b03161790565b5163327d763960e21b8152fd5b89516304d6b32560e41b81528690fd5b8a5163327d763960e21b81528790fd5b8751630456c65960e51b81528490fd5b62000f579250803d1062000bfd5762000bed8183620003d0565b388062000d98565b62000f696200079a565b62000d8f565b8851630456c65960e51b81528590fd5b62000f9a9150853d871162000bfd5762000bed8183620003d0565b3862000d6e565b62000fab6200079a565b62000d65565b5050505050509050600090600090565b50600090600090565b62000fd462000c89565b5080516001101562000fc1576040015180519091906001600160a01b031662000d09565b6200100262000c89565b5080516002101562000fc1576060015180519091906001600160a01b031662000d09565b6200103062000c89565b5080516003101562000fc1576080015180519091906001600160a01b031662000d09565b906200105f62000c89565b50815160049290831015620011445760a0015180519092906001600160a01b0316602084810151919290916001600160a01b031694604095620010a58783015160ff1690565b946001600160a01b03908116918215620011335716938751600860ff63313ce56760e01b92838152848189818c5afa90811562000fa15760009162000f7f5750160362000f6f579060ff91895190815281818781875afa91821562000f5f5760009262000f3d575050818716918291160362000f2d576060830180519093906001600160401b031662000dba565b505050505050509050600090600090565b50600091508190565b6200115762000c89565b5080516005101562000fc15760c0015180519091906001600160a01b031662000d09565b6200118562000c89565b5080516006101562000fc15760e0015180519091906001600160a01b031662000d09565b620011b362000c89565b5080516007101562000fc157610100015180519091906001600160a01b031662000d09565b620011e262000c89565b5080516008101562000fc157610120015180519091906001600160a01b031662000d09565b6200121162000c89565b5080516009101562000fc157610140015180519091906001600160a01b031662000d09565b6200124062000c89565b508051600a101562000fc157610160015180519091906001600160a01b031662000d09565b6200126f62000c89565b508051600b101562000fc157610180015180519091906001600160a01b031662000d09565b6200129e62000c89565b508051600c101562000fc1576101a0015180519091906001600160a01b031662000d09565b620012cd62000c89565b508051600d101562000fc1576101c0015180519091906001600160a01b031662000d09565b620012fc62000c89565b508051600e101562000fc1576101e0015180519091906001600160a01b031662000d0956fe60806040526004361015610018575b610016614f47565b005b60003560e01c8063042e02cf1461061c5780630902f1ac146106135780630bc47ad11461060a5780630c340a241461060157806318160ddd146105f8578063189bb2f1146105ef5780631aad7e2e146105e65780631c9f7fb9146105dd5780631f5954bd146105d457806323b872dd146105cb57806324a3d622146105c257806326441318146105b95780632a48cf12146105b05780632b92a07d146105a75780632d05670b1461059e5780632e04b8e714610595578063300e6beb1461058c578063313ce5671461058357806332176c491461057a578063374c49b41461057157806338aa813f146105685780633b3bec2e1461055f57806341976e09146105565780634232cd631461054d578063439e2e451461054457806344c1e5eb1461053b57806344c35d071461053257806344ff241d1461052957806359e017bd146105205780635a94b8d1146105175780635df654d21461050e57806367800b5f1461050557806370a08231146104fc5780637914acc7146104f35780637ac88ed1146104ea5780637eb71131146104e1578063804de71f146104d85780638285ef40146104cf5780638596da23146104c65780638d5d814c146104bd57806390323177146104b45780639241a561146104ab5780639364e18a146104a257806394920cca146104995780639ea99a5a146104905780639fa83b5a146104875780639ff567f81461047e578063a165437914610475578063a1a1ef431461046c578063a46fe83b14610463578063a5b4ff791461045a578063a9059cbb14610451578063aba7f15e14610448578063ad14777c1461043f578063b3650a9d14610436578063b9775b031461042d578063bbe4fd5014610424578063bfe69c8d1461041b578063c1ee2c1814610412578063c3b35a7e14610409578063c3cecfd214610400578063c55dae63146103f7578063c5fa15cf146103ee578063c8c7fe6b146103e5578063cde68041146103dc578063d8e5f611146103d3578063d955759d146103ca578063dc4abafd146103c1578063e380ae96146103b8578063e478795d146103af578063e4e6e779146103a6578063e7dad6bd1461039d578063e9a6e59714610394578063f2b9fdb81461038b578063f3fef3a314610382578063f8ba4cff146103795763fbad9c710361000e5761037461209c565b61000e565b50610374612082565b50610374612055565b50610374612028565b50610374611f9c565b50610374611ebe565b50610374611d4b565b50610374611c60565b50610374611c46565b50610374611bd2565b50610374611bb3565b50610374611b8c565b50610374611b72565b50610374611b47565b50610374611ac6565b50610374611a80565b50610374611a1b565b50610374611a01565b506103746119e5565b50610374611945565b5061037461191a565b5061037461186c565b5061037461180c565b50610374611754565b50610374611718565b506103746116ca565b5061037461168e565b5061037461164f565b50610374611628565b506103746115dd565b506103746115b5565b50610374611585565b50610374611549565b5061037461150d565b506103746114d1565b50610374611495565b50610374611479565b50610374611452565b50610374611433565b506103746113d2565b50610374611396565b5061037461137a565b5061037461134e565b50610374611312565b506103746112ea565b506103746112c3565b5061037461122d565b50610374611121565b506103746110ca565b50610374611084565b50610374610ecb565b50610374610e85565b50610374610e6b565b50610374610e51565b50610374610e29565b50610374610df4565b50610374610d32565b50610374610d0a565b50610374610cce565b50610374610c8f565b50610374610c53565b50610374610c15565b50610374610bd9565b50610374610b72565b50610374610b0e565b50610374610af2565b50610374610a73565b50610374610a2c565b506103746109c4565b50610374610936565b506103746107e9565b50610374610769565b506103746106fd565b506103746106b7565b50610374610691565b5061037461066d565b5061037461063b565b6001600160a01b0381160361063657565b600080fd5b503461063657602036600319011261063657602061066360043561065e81610625565b613380565b6040519015158152f35b503461063657600036600319011261063657602061068961303e565b604051908152f35b50346106365760003660031901126106365760206001805460f81c161515604051908152f35b5034610636576000366003190112610636576040517f00000000000000000000000000000000000000000000000000000000000000006001600160a01b03168152602090f35b503461063657600036600319011261063657602066038d7ea4c68000610760610724615221565b6001600160681b036001600160401b036107576001549361075164ffffffffff91828760d01c16906128a2565b16612b09565b5016911661219e565b04604051908152f35b50346106365760003660031901126106365760206040517f00000000000000000000000000000000000000000000000000000000000000008152f35b6020908160408183019282815285518094520193019160005b8281106107cc575050505090565b83516001600160a01b0316855293810193928101926001016107be565b5034610636576020806003193601126106365761083361082860043561080e81610625565b6001600160a01b0316600090815260056020526040902090565b5460e81c61ffff1690565b9060008060ff807f000000000000000000000000000000000000000000000000000000000000000016915b8181168381101561089b57600161ffff911b871616610886575b61088190615323565b61085e565b9261089361088191615323565b939050610878565b50509291836108aa9116615355565b91600091825b8581168281101561092457600161ffff911b8816166108d8575b6108d390615323565b6108b0565b9261091c6108d3916109176108fe866108f0896121d0565b01516001600160a01b031690565b610908838a615387565b6001600160a01b039091169052565b6153a9565b9390506108ca565b6040518061093288826107a5565b0390f35b5034610636576000806003193601126109c15764ffffffffff60015460d01c166109b05761098c610965615221565b6001805464ffffffffff60d01b191660d09290921b64ffffffffff60d01b16919091179055565b80546001600160801b0319166e038d7ea4c6800000038d7ea4c68000178155604051f35b60405162dc149f60e41b8152600490fd5b80fd5b50346106365760003660031901126106365760206040517f00000000000000000000000000000000000000000000000000000000000000008152f35b606090600319011261063657600435610a1881610625565b90602435610a2581610625565b9060443590565b503461063657610a68610a3e36610a00565b91907f00000000000000000000000000000000000000000000000000000000000000009133613f17565b602060405160018152f35b5034610636576000366003190112610636576040517f00000000000000000000000000000000000000000000000000000000000000006001600160a01b03168152602090f35b608090600319011261063657600435610ad181610625565b90602435610ade81610625565b90604435610aeb81610625565b9060643590565b503461063657610016610b0436610ab9565b92919091336143ed565b50346106365760003660031901126106365760206040517f00000000000000000000000000000000000000000000000000000000000000008152f35b604090600319011261063657600435610b6281610625565b90602435610b6f81610625565b90565b503461063657610932610bb4610b8736610b4a565b9060018060a01b0316600052600660205260406000209060018060a01b0316600052602052604060002090565b54604080516001600160801b038316815260809290921c602083015290918291820190565b50346106365760003660031901126106365760206040517f00000000000000000000000000000000000000000000000000000000000000008152f35b503461063657602036600319011261063657600435610c3381610625565b60018060a01b031660005260046020526020604060002054604051908152f35b50346106365760003660031901126106365760206040517f00000000000000000000000000000000000000000000000000000000000000008152f35b503461063657600036600319011261063657602060405160ff7f0000000000000000000000000000000000000000000000000000000000000000168152f35b50346106365760003660031901126106365760206040517f00000000000000000000000000000000000000000000000000000000000000008152f35b5034610636576020366003190112610636576020610689600435610d2d81610625565b614eff565b5034610636576020366003190112610636576020610663600435610d5581610625565b61316b565b610df29092919260e08061010083019560ff815116845260018060a01b0380602083015116602086015260408201511660408501526001600160401b036060820151166060850152610dbc608082015160808601906001600160401b03169052565b60a0818101516001600160401b03169085015260c0818101516001600160401b03169085015201516001600160801b0316910152565b565b503461063657602036600319011261063657610932610e1d600435610e1881610625565b6127d4565b60405191829182610d5a565b5034610636576020366003190112610636576020610689600435610e4c81610625565b612e7d565b503461063657610016610e6336610a00565b9133336137df565b503461063657610016610e7d36610a00565b913333613f17565b50346106365760003660031901126106365760206040517f00000000000000000000000000000000000000000000000000000000000000008152f35b8015150361063657565b50346106365760a036600319011261063657600435610ee981610ec1565b602435610ef581610ec1565b60443591610f0283610ec1565b60643592610f0f84610ec1565b608435610f1b81610ec1565b60018060a01b03807f0000000000000000000000000000000000000000000000000000000000000000163314159081611057575b50611046577f3be39979091ae7ca962aa1c44e645f2df3c221b79f324afa5f44aedc8d2f690d946110419261100c610f8f610f8987615213565b60ff1690565b610fa4610f9b89615213565b60011b60fe1690565b17610fba610fb184615213565b60021b60fc1690565b17610fd0610fc785615213565b60031b60f81690565b17610fe6610fdd86615213565b60041b60f01690565b600180546001600160f81b03169290911760f81b6001600160f81b031916919091179055565b6040519586958693909594919260809360a0860197151586521515602086015215156040850152151560608401521515910152565b0390a1005b6040516282b42960e81b8152600490fd5b90507f00000000000000000000000000000000000000000000000000000000000000001633141538610f4f565b5034610636576000366003190112610636576040517f00000000000000000000000000000000000000000000000000000000000000006001600160a01b03168152602090f35b5034610636576020366003190112610636576004356110e881610625565b6001600160a01b03166000908152600260209081526040918290205482516001600160801b038216815260809190911c91810191909152f35b50346106365760003660031901126106365760206040517f00000000000000000000000000000000000000000000000000000000000000008152f35b50634e487b7160e01b600052604160045260246000fd5b604081019081106001600160401b0382111761118f57604052565b61119761115d565b604052565b60a081019081106001600160401b0382111761118f57604052565b61010081019081106001600160401b0382111761118f57604052565b90601f801991011681019081106001600160401b0382111761118f57604052565b60405190610df2826111b7565b602435906001600160801b038216820361063657565b604435906001600160801b038216820361063657565b50346106365760603660031901126106365760043561124b81610625565b60403660231901126106365760405161126381611174565b61126b611201565b8152611275611217565b916020820192835260018060a01b031660005260026020526040600020916112a86001600160801b038093511684613c25565b51825490911660809190911b6001600160801b031916179055005b5034610636576000366003190112610636576020600460015460f81c161515604051908152f35b503461063657602036600319011261063657602061068960043561130d81610625565b614ea1565b50346106365760003660031901126106365760206040517f00000000000000000000000000000000000000000000000000000000000000008152f35b503461063657604036600319011261063657602061068960043561137181610625565b60243590614d85565b5034610636576000366003190112610636576020610689612ddf565b50346106365760003660031901126106365760206040517f00000000000000000000000000000000000000000000000000000000000000008152f35b503461063657600036600319011261063657602066038d7ea4c680006107606113f9615221565b6001600160681b036001600160401b036114266001549361075164ffffffffff91828760d01c16906128a2565b9050169160681c1661219e565b5034610636576000366003190112610636576020600854604051908152f35b5034610636576000366003190112610636576020600860015460f81c161515604051908152f35b50346106365761001661148b36610ab9565b92919091336137df565b50346106365760003660031901126106365760206040517f00000000000000000000000000000000000000000000000000000000000000008152f35b50346106365760003660031901126106365760206040517f00000000000000000000000000000000000000000000000000000000000000008152f35b50346106365760003660031901126106365760206040517f00000000000000000000000000000000000000000000000000000000000000008152f35b50346106365760003660031901126106365760206040517f00000000000000000000000000000000000000000000000000000000000000008152f35b50346106365760203660031901126106365760206115a4600435612cc0565b6001600160401b0360405191168152f35b50346106365760203660031901126106365760206106896004356115d881610625565b612f37565b503461063657602060ff61161c6115f336610b4a565b6001600160a01b0391821660009081526003865260408082209290931681526020919091522090565b54166040519015158152f35b5034610636576000366003190112610636576020600260015460f81c161515604051908152f35b503461063657600036600319011261063657602060405160ff7f0000000000000000000000000000000000000000000000000000000000000000168152f35b50346106365760003660031901126106365760206040517f00000000000000000000000000000000000000000000000000000000000000008152f35b503461063657604036600319011261063657610a686004356116eb81610625565b602435907f0000000000000000000000000000000000000000000000000000000000000000903333613f17565b50346106365760003660031901126106365760206040517f00000000000000000000000000000000000000000000000000000000000000008152f35b50346106365761176336610a00565b6001600160a01b03917f0000000000000000000000000000000000000000000000000000000000000000831633036110465760405163095ea7b360e01b81526001600160a01b03949094166004850152602484019190915260209183916044918391600091165af180156117ff575b6117d857005b6100169060203d81116117f8575b6117f081836111d3565b810190613b21565b503d6117e6565b611807612e70565b6117d2565b50346106365760403660031901126106365760043561182a81610625565b60243580600c0b8103610636576100169160018060a01b031660005260056020526040600020906001600160681b0319825416906001600160681b0316179055565b50346106365760603660031901126106365761001660043561188d81610625565b60243561189981610625565b6118a1611217565b9161191460018060a01b038216928360005260066020526001600160801b036118e08260406000209060018060a01b0316600052602052604060002090565b5416936000526006602052610e188561190f8360406000209060018060a01b0316600052602052604060002090565b613c25565b90613e13565b5034610636576000366003190112610636576020611936615221565b64ffffffffff60405191168152f35b50346106365760203660031901126106365761001660043561196681610625565b61196e6128ec565b60018060a01b038116600052600560205260406000206119da604051916119948361119c565b5480600c0b83526001600160401b03808260681c1660208501528160a81c1660408401526119d061ffff8260e81c16606085019061ffff169052565b60f81c6080830152565b8051600c0b916135f5565b5034610636576100166119f736610ab9565b9291909133613f17565b503461063657610016611a1336610a00565b9133336143ed565b503461063657604036600319011261063657600435611a3981610625565b602435906001600160401b03908183116106365736602384011215610636578260040135918211610636573660248360051b8501011161063657602461001693019061483c565b5034610636576000366003190112610636576040517f00000000000000000000000000000000000000000000000000000000000000006001600160a01b03168152602090f35b503461063657602036600319011261063657600435611ae481610625565b60018060a01b0316600052600760205260806040600020546040519063ffffffff811682526001600160401b038160201c1660208301526001600160801b038160601c16604083015260e01c6060820152f35b60e4359060ff8216820361063657565b50346106365760203660031901126106365760043560ff8116810361063657610e1d610932916121d0565b5034610636576020610663611b8636610b4a565b90614f86565b5034610636576000366003190112610636576020601060015460f81c161515604051908152f35b50346106365760203660031901126106365760206115a4600435612bb0565b503461063657602036600319011261063657600435611bf081610625565b60018060a01b0316600052600560205260a06040600020546040519080600c0b82526001600160401b03808260681c1660208401528160a81c16604083015261ffff8160e81c16606083015260f81c6080820152f35b503461063657602036600319011261063657600435600855005b503461063657604036600319011261063657600435611c7e81610625565b602435906001600160a01b037f00000000000000000000000000000000000000000000000000000000000000008116330361104657611cbb61303e565b60008112908115611d39575b50611d275781611d19847fec4431f2ba1a9382f6b0c4352b888cba6f7db91667d9f776abe5ad8ddc5401b6947f0000000000000000000000000000000000000000000000000000000000000000614600565b6040519384521691602090a2005b60405163128bd24d60e31b8152600490fd5b611d439150615208565b831138611cc7565b503461063657608036600319011261063657600435611d6981610625565b60443560643591611d7983610625565b601060015460f81c16611eac57611d8e61303e565b60008112159081611e81575b50611e6f57611dca82337f0000000000000000000000000000000000000000000000000000000000000000613b36565b611dd48282614d85565b926024358410611e5d57611de782612f37565b8411611d27577ff891b2a411b0e66a5f0a6ff1368670fefa287a13f541eb633a386a1a9cc7046b91611e35611e5892611e2e611e2288615161565b6001600160801b031690565b9083614600565b6040805194855260208501959095526001600160a01b0316933393918291820190565b0390a3005b60405163fa6ad35560e01b8152600490fd5b604051631d99ddbf60e01b8152600490fd5b90507f0000000000000000000000000000000000000000000000000000000000000000111538611d9a565b6040516313d0ff5960e31b8152600490fd5b5034610636576000366003190112610636576040517f00000000000000000000000000000000000000000000000000000000000000006001600160a01b03168152602090f35b600435906001600160401b038216820361063657565b602435906001600160401b038216820361063657565b604435906001600160401b038216820361063657565b606435906001600160401b038216820361063657565b608435906001600160681b038216820361063657565b60a435906001600160681b038216820361063657565b60c4359064ffffffffff8216820361063657565b50346106365761010036600319011261063657610016604051611fbe816111b7565b611fc6611f04565b8152611fd0611f1a565b6020820152611fdd611f30565b6040820152611fea611f46565b6060820152611ff7611f5c565b6080820152612004611f72565b60a0820152612011611f88565b60c082015261201e611b37565b60e0820152615260565b50346106365760403660031901126106365761001660043561204981610625565b602435903333336137df565b50346106365760403660031901126106365761001660043561207681610625565b602435903333336143ed565b5034610636576000366003190112610636576100166128ec565b5034610636576080366003190112610636576004356120ba81610625565b602435906120c782610625565b6120cf611217565b606435916001600160801b038316830361063657611914610016946127d4565b604051906120fc826111b7565b8160e06000918281528260208201528260408201528260608201528260808201528260a08201528260c08201520152565b50634e487b7160e01b600052601260045260246000fd5b50634e487b7160e01b600052601160045260246000fd5b66038d7ea4c68000908060001904821181151516612177570290565b61217f612144565b0290565b655af3107a4000908060001904821181151516612177570290565b8060001904821181151516612177570290565b60ff16604d81116121c3575b600a0a90565b6121cb612144565b6121bd565b6121d86120ef565b5060ff811660ff7f0000000000000000000000000000000000000000000000000000000000000000168110156127c2578061235257507f00000000000000000000000000000000000000000000000000000000000000007f00000000000000000000000000000000000000000000000000000000000000005b61ffff808260a01c1661226390612183565b6001600160401b0316818360b01c1661227b90612183565b6001600160401b0316918360c01c1661229390612183565b6001600160401b0316928460a01c60ff166122ad906121b1565b6001600160401b0316906122d16001600160401b038084169060a889901c1661219e565b6001600160801b0316956122e36111f4565b60ff90981688526001600160a01b039182166020890152166001600160a01b031660408701526001600160401b031660608601526001600160401b031660808501526001600160401b031660a08401526001600160401b031660c08301526001600160801b031660e082015290565b600181036123a257507f00000000000000000000000000000000000000000000000000000000000000007f0000000000000000000000000000000000000000000000000000000000000000612251565b600281036123f257507f00000000000000000000000000000000000000000000000000000000000000007f0000000000000000000000000000000000000000000000000000000000000000612251565b6003810361244257507f00000000000000000000000000000000000000000000000000000000000000007f0000000000000000000000000000000000000000000000000000000000000000612251565b6004810361249257507f00000000000000000000000000000000000000000000000000000000000000007f0000000000000000000000000000000000000000000000000000000000000000612251565b600581036124e257507f00000000000000000000000000000000000000000000000000000000000000007f0000000000000000000000000000000000000000000000000000000000000000612251565b6006810361253257507f00000000000000000000000000000000000000000000000000000000000000007f0000000000000000000000000000000000000000000000000000000000000000612251565b6007810361258257507f00000000000000000000000000000000000000000000000000000000000000007f0000000000000000000000000000000000000000000000000000000000000000612251565b600881036125d257507f00000000000000000000000000000000000000000000000000000000000000007f0000000000000000000000000000000000000000000000000000000000000000612251565b6009810361262257507f00000000000000000000000000000000000000000000000000000000000000007f0000000000000000000000000000000000000000000000000000000000000000612251565b600a810361267257507f00000000000000000000000000000000000000000000000000000000000000007f0000000000000000000000000000000000000000000000000000000000000000612251565b600b81036126c257507f00000000000000000000000000000000000000000000000000000000000000007f0000000000000000000000000000000000000000000000000000000000000000612251565b600c810361271257507f00000000000000000000000000000000000000000000000000000000000000007f0000000000000000000000000000000000000000000000000000000000000000612251565b600d810361276257507f00000000000000000000000000000000000000000000000000000000000000007f0000000000000000000000000000000000000000000000000000000000000000612251565b600e036127b0577f00000000000000000000000000000000000000000000000000000000000000007f0000000000000000000000000000000000000000000000000000000000000000612251565b60405163971241a160e01b8152600490fd5b604051633640530560e01b8152600490fd5b906127dd6120ef565b5060009060ff92837f000000000000000000000000000000000000000000000000000000000000000016925b838582161061282457604051633640530560e01b8152600490fd5b61282d816121d0565b60208101516001600160a01b0384811691161461284f57506001018416612809565b93505050915090565b906040516128658161119c565b608081935480600c0b83526001600160401b03808260681c1660208501528160a81c16604084015261ffff8160e81c16606084015260f81c910152565b64ffffffffff91821691168181106128b8570390565b6128c0612144565b0390565b906001600160401b0380809316911680920381116128e0570190565b6128e8612144565b0190565b6128f4615221565b61291e61291461290e60015464ffffffffff9060d01c1690565b836128a2565b64ffffffffff1690565b9081612928575050565b8161298361296761293b610df295612b09565b91909167ffffffffffffffff60401b6000549160401b169067ffffffffffffffff60401b191617600055565b6001600160401b03166001600160401b03196000541617600055565b6001547f000000000000000000000000000000000000000000000000000000000000000091906001600160681b031682811015612a8b575b506001546129dc9060681c6001600160681b03165b6001600160681b031690565b91821015612a0e575b50506001805464ffffffffff60d01b191660d09290921b64ffffffffff60d01b16919091179055565b612a4f612a4a612a8493612a45612a5f947f000000000000000000000000000000000000000000000000000000000000000061219e565b613496565b615115565b60005460c01c6128c4565b6128c4565b600080546001600160c01b031660c09290921b6001600160c01b031916919091179055565b38806129e5565b612ad6612ac2612a4a612b0393612a45867f000000000000000000000000000000000000000000000000000000000000000061219e565b60005460801c6001600160401b03166128c4565b6000805467ffffffffffffffff60801b191660809290921b67ffffffffffffffff60801b16919091179055565b386129bb565b906000546001600160401b0392838083169260401c169381612b2c575b50509190565b81612b7f612b79612b599794612b8b612b9197612b8587612b60612b8599612b52612ddf565b9e8f612bb0565b169d612cc0565b169b612b7f612b79670de0b6b3a7640000998a9361219e565b8461219e565b04615115565b906128c4565b9861219e565b913880612b26565b811981116128e0570190565b8181106128b8570390565b7f0000000000000000000000000000000000000000000000000000000000000000808211612c395750612a4a670de0b6b3a7640000612c12610b6f937f000000000000000000000000000000000000000000000000000000000000000061219e565b047f0000000000000000000000000000000000000000000000000000000000000000612b99565b610b6f91612a4a91612cac670de0b6b3a764000091612c7c83612c12837f000000000000000000000000000000000000000000000000000000000000000061219e565b93818110612cb3575b037f000000000000000000000000000000000000000000000000000000000000000061219e565b0490612b99565b612cbb612144565b612c85565b7f0000000000000000000000000000000000000000000000000000000000000000808211612d495750612a4a670de0b6b3a7640000612d22610b6f937f000000000000000000000000000000000000000000000000000000000000000061219e565b047f0000000000000000000000000000000000000000000000000000000000000000612b99565b610b6f91612a4a91612cac670de0b6b3a764000091612d8c83612d22837f000000000000000000000000000000000000000000000000000000000000000061219e565b93818110612dbc575b037f000000000000000000000000000000000000000000000000000000000000000061219e565b612dc4612144565b612d95565b8115612dd3570490565b612ddb61212d565b0490565b600054600154612e2166038d7ea4c68000916001600160401b036001600160681b039084612e1182881684861661219e565b049560401c169160681c1661219e565b0481612e2e575050600090565b670de0b6b3a7640000908060001904821181151516612e4c57020490565b612e54612144565b020490565b519069ffffffffffffffffffff8216820361063657565b506040513d6000823e3d90fd5b604051633fabe5a360e21b81529060a090829060049082906001600160a01b03165afa908115612f1b575b600091612ecf575b506000811315612ebd5790565b60405163fd1ee34960e01b8152600490fd5b9060a0823d8211612f13575b81612ee860a093836111d3565b810103126109c15750612efa81612e59565b50612f0c608060208301519201612e59565b5038612eb0565b3d9150612edb565b612f23612e70565b612ea8565b90816020910312610636575190565b6040516370a0823160e01b8152306004820152906001600160a01b0316602082602481845afa918215612fc1575b600092612f91575b5060005260026020526001600160801b0360406000205416908181106128b8570390565b612fb391925060203d8111612fba575b612fab81836111d3565b810190612f28565b9038612f6d565b503d612fa1565b612fc9612e70565b612f65565b600082128015600160ff1b8401831216612ff8575b6001600160ff1b0383018213166128b8570390565b613000612144565b612fe3565b6000811280156001600160ff1b03839003841316613031575b600160ff1b8290038312166128e0570190565b613039612144565b61301e565b610b6f613049615221565b61306c6130676129146001549364ffffffffff8560d01c16906128a2565b612b09565b6040516370a0823160e01b8152306004820152929091906020846024816001600160a01b037f0000000000000000000000000000000000000000000000000000000000000000165afa93841561315e575b600094613126575b509161311a6131146131149361310d6131209666038d7ea4c68000926001600160401b0384613100826001600160681b03941684861661219e565b0497169160681c1661219e565b04956151bc565b916151bc565b90612fce565b90613005565b613120939194506131146131149361310d61315161311a9460203d8111612fba57612fab81836111d3565b97949650509350506130c5565b613166612e70565b6130bd565b9061319261318b8360018060a01b03166000526005602052604060002090565b54600c0b90565b906000928383600c0b1215613377576132286131cf6131c96108288496959660018060a01b03166000526005602052604060002090565b93614fce565b6131f87f0000000000000000000000000000000000000000000000000000000000000000612e7d565b6001600160401b037f000000000000000000000000000000000000000000000000000000000000000016916134e0565b90849360ff95867f000000000000000000000000000000000000000000000000000000000000000016955b87811690878210156133695790889161ffff600180931b891616613279575b0116613253565b959091508281121561335d579061335789926131206133528861334c61334060806133316132f78f6132cc6132b06132ea926121d0565b6001600160a01b03909816600090815260066020526040902090565b6020888101516001600160a01b031660009081529190526040902090565b546001600160801b031690565b604086015161330e906001600160a01b0316612e7d565b6001600160801b0361332a60608901516001600160401b031690565b92166134c1565b9301516001600160401b031690565b6001600160401b031690565b90613483565b6151bc565b95613272565b50955050945050505090565b505094509450509050121590565b50915050600190565b906133a061318b8360018060a01b03166000526005602052604060002090565b906000928383600c0b121561347e576133d76131cf6131c96108288496959660018060a01b03166000526005602052604060002090565b90849360ff95867f000000000000000000000000000000000000000000000000000000000000000016955b87811690878210156134715790889161ffff600180931b891616613428575b0116613402565b9590915082811215613465579061345f89926131206133528861334c61334060a06133316132f78f6132cc6132b06132ea926121d0565b95613421565b50509450945050505090565b5050945094505090501290565b509050565b670de0b6b3a764000091612ddb9161219e565b612dc9907f00000000000000000000000000000000000000000000000000000000000000009061219e565b6001600160401b03916134d39161219e565b9116908115612dd3570490565b91906134f36001600160401b03916151bc565b6000808513949082136001600160ff1b038682168482048411166135a4575b600160ff1b96600085129185918316858a05831216613597575b60008512938416828a0586121661358a575b05831291161661357d575b029116918215613570575b8114600019831416613564570590565b61356c612144565b0590565b61357861212d565b613554565b613585612144565b613549565b613592612144565b61353e565b61359f612144565b61352c565b6135ac612144565b613512565b6001600160401b0391821691168181106128b8570390565b600c0b6c7fffffffffffffffffffffffff1981146135e8575b60000390565b6135f0612144565b6135e2565b61371490610df2936136088451600c0b90565b600c82900b855260009182918683600c83900b811361379f5761369d6136766136ea946001600160681b0361366f6133406136c497613669602061365a612a4a9a546001600160401b039060801c1690565b9201516001600160401b031690565b906135b1565b911661219e565b7f000000000000000000000000000000000000000000000000000000000000000090612dc9565b7f000000000000000000000000000000000000000000000000000000000000000090612dc9565b6136dd6040890191612a5a83516001600160401b031690565b6001600160401b03169052565b600c0b1261378d575461080e9060801c6001600160401b03165b6001600160401b03166020850152565b815160208301516040840151606085015160809095015160e89590951b61ffff60e81b1660a89190911b67ffffffffffffffff60a81b166001600160681b0390931660689290921b67ffffffffffffffff60681b169190911791909117176001600160f81b031960f89390931b92909216919091179055565b5461379a9060c01c613704565b61080e565b61369d6136766137da946137d56129d06129d06137cf6133406136c499613669602061365a612a4a9c5460c01c90565b936135c9565b61219e565b6136ea565b939290936001805460f81c16611eac576137fc6138009186614f86565b1590565b611046576001600160a01b038181167f0000000000000000000000000000000000000000000000000000000000000000909116036138575750610df29260001983036138d657915061385181614eff565b916138d6565b90613865610df29493615161565b92613c74565b906001600160681b0380809316911680920381116128e0570190565b6001600160681b0391821691168181106128b8570390565b600180546cffffffffffffffffffffffffff60681b191660689290921b6cffffffffffffffffffffffffff60681b16919091179055565b6139bd919261390681837f0000000000000000000000000000000000000000000000000000000000000000613b36565b61390e6128ec565b6001600160a01b03841660009081526005602052604090206139c89061393890612858565b612858565b8051600c0b906139c261396861396161395c61395386614fce565b613120896151bc565b615065565b8094613aa7565b97906139a46139888a6139836001546001600160681b031690565b61386b565b6001600160681b03166001600160681b03196001541617600155565b60015460681c6001600160681b0316613887565b613887565b61389f565b866135f5565b6040519081526001600160a01b0393841693849216907fd1cf3d156d5f8f0d50f6c122ed609cec09d35c9b9fb3fff6ea0959134dae424e90602090a36001600160681b038116613a16575050565b6000805160206153ba833981519152613a54613a44600093613a3f85546001600160401b031690565b615040565b6040519081529081906020820190565b0390a3565b600c91820b910b6000821280156c7fffffffffffffffffffffffff198401831216613a9a575b826c7fffffffffffffffffffffffff018213166128b8570390565b613aa2612144565b613a7f565b91909180600c0b83600c0b818112613b1457600012613ada5750613acb9192613a59565b6001600160681b031690600090565b600013613afb57613aeb9192613a59565b6001600160681b03169060009190565b613b04906135c9565b6001600160681b03908116921690565b5050509050600090600090565b908160209103126106365751610b6f81610ec1565b6040516323b872dd60e01b81526001600160a01b039283166004820152306024820152604481019390935260209183916064918391600091165af1908115613bb9575b600091613b9b575b5015613b8957565b60405163073d1efd60e51b8152600490fd5b613bb3915060203d81116117f8576117f081836111d3565b38613b81565b613bc1612e70565b613b79565b90604051604081018181106001600160401b03821117613bfc575b60405291546001600160801b038116835260801c6020830152565b613c0461115d565b613be1565b906001600160801b0380809316911680920381116128e0570190565b906001600160801b03166001600160801b0319825416179055565b9060206001600160801b0391613c598382511685613c25565b0151908254916001600160801b03199060801b169116179055565b919290926001600160801b0390613c8e8284168583613b36565b613c97816127d4565b90613cbc613cb78260018060a01b03166000526002602052604060002090565b613bc6565b92613ce7613cda86613cd587516001600160801b031690565b613c09565b6001600160801b03168552565b83516001600160801b031690613d0a611e2260e08601516001600160801b031690565b911611613e0157613dd1613db185613dfc94613dcb7ffa56f7b24f17183d81894d3ac2ee654e3c26388d17a28dbd9549b8114304e1f49761190f87613d6f8e613d8d613d866132ea85613d6f8560018060a01b03166000526006602052604060002090565b9060018060a01b0316600052602052604060002090565b9889613c09565b988995613dac8560018060a01b03166000526002602052604060002090565b613c40565b6001600160a01b0316600090815260066020526040902090565b89613e13565b6040516001600160801b0390941684526001600160a01b039081169581169416929081906020820190565b0390a4565b604051637ac7b99d60e11b8152600490fd5b909290916001600160801b03908116158080613f0c575b15613e9257505050613e6a613e4e60ff610df2945116600160ff61ffff92161b1690565b6001600160a01b03909216600090815260056020526040902090565b805461ffff60e81b19811660e891821c61ffff16909317901b61ffff60e81b16919091179055565b159182613f01575b5050613ea4575050565b61ffff613edd613ec360ff610df2955116600160ff61ffff92161b1690565b199260018060a01b03166000526005602052604060002090565b91825460e81c161681549061ffff60e81b9060e81b169061ffff60e81b1916179055565b161590503880613e9a565b508183161515613e2a565b93929093600260015460f81c16611eac576137fc613f359186614f86565b611046576001600160a01b0384811683821614613fad57807f00000000000000000000000000000000000000000000000000000000000000001690821614600014613f995750610df2926000198303613fd0579150613f9382614ea1565b91613fd0565b90613fa7610df29493615161565b926142ae565b60405163e397a99b60e01b8152600490fd5b600160ff1b81146135e85760000390565b919091613fdb6128ec565b6001600160a01b0381166000908152600560205260409020613ffc90612858565b6001600160a01b038416600090815260056020526040902061401d90612858565b92815161402a90600c0b90565b93805161403790600c0b90565b9261404186614fce565b61404a846151bc565b61405391612fce565b9261405d85614fce565b90614067906151bc565b61407091613005565b9061407a84615065565b6140848193615065565b97889361409091614249565b9861409b9197613aa7565b98878a6001546140b1906001600160681b031690565b906140bb9161386b565b906140c591613887565b6140e5906001600160681b03166001600160681b03196001541617600155565b60015460681c6001600160681b0316906140fe9161386b565b9061410891613887565b6141119061389f565b61411b91876135f5565b61412591876135f5565b600081126141e0575b506001600160681b0391828216614191575b5050811661414c575050565b6000805160206153ba833981519152613a54614175600093613a3f85546001600160401b031690565b6040519081526001600160a01b03909416939081906020820190565b6000805160206153ba8339815191526141d66141ba600094613a3f86546001600160401b031690565b6040519081526001600160a01b03909316929081906020820190565b0390a33880614140565b6141e990613fbf565b7f0000000000000000000000000000000000000000000000000000000000000000116142375761421b6137fc8361316b565b614225573861412e565b604051630a62fbdb60e11b8152600490fd5b604051637139da2360e11b8152600490fd5b919082600c0b81600c0b818113613b145760001361426c5750613acb9192613a59565b60001261427d57613aeb9192613a59565b614286906135c9565b6001600160681b03928316921690565b6001600160801b0391821691168181106128b8570390565b6001600160a01b0381811660008181526006602081815260408084208987168086529083528185205489881686529383528185209085529091529091205494969591946001600160801b03949293929190851690851661430e8882614296565b916143198982613c09565b9183876143388760018060a01b03166000526006602052604060002090565b6001600160a01b039091166000908152602091909152604090209061435c91613c25565b6001600160a01b038b81166000908152600660209081526040808320938b1683529290522061438c908490613c25565b614395876127d4565b936143a1918587613e13565b6143ab928a613e13565b6143b49061316b565b1561422557806020927f29db89d45e1a802b4d55e202984fce9faf1d30aedf86503ff1ea0ed9ebb64201946040519716875216951693a4565b93929093600460015460f81c16611eac576137fc61440b9186614f86565b611046576001600160a01b038181167f0000000000000000000000000000000000000000000000000000000000000000909116036144625750610df292600019830361447657915061445c82614ea1565b91614476565b90614470610df29493615161565b9261468a565b90916139bd926144846128ec565b6001600160a01b03831660009081526005602052604090206144a590612858565b61450f6144b38251600c0b90565b6144c86144bf82614fce565b61311a876151bc565b926139c26144df6144d886615065565b8094614249565b6144fb613988836139b860019e959e546001600160681b031690565b60015460681c6001600160681b031661386b565b600081126145bb575b5061454482827f0000000000000000000000000000000000000000000000000000000000000000614600565b6040519182526001600160a01b0392831692169082907f9b1bfa7fa9ee420a16e124f794c35ac9f90472acc99140eb2f6447c714cad8eb90602090a36001600160681b038216614592575050565b6000805160206153ba833981519152613a54613a44600094613a3f86546001600160401b031690565b6145c490613fbf565b7f000000000000000000000000000000000000000000000000000000000000000011614237576145f66137fc8461316b565b6142255738614518565b60405163a9059cbb60e01b81526001600160a01b039283166004820152602481019390935260209183916044918391600091165af190811561467d575b60009161465f575b501561464d57565b60405163cefaffeb60e01b8152600490fd5b614677915060203d81116117f8576117f081836111d3565b38614645565b614685612e70565b61463d565b909260018060a01b0391828116928360005260066020526147436001600160801b0392610d55846146d18960406000209060018060a01b0316600052602052604060002090565b54166146dd8782614296565b906147106146fd8b60018060a01b03166000526002602052604060002090565b61470a8a8a835416614296565b90613c25565b6147348261190f8c613d6f8860018060a01b03166000526006602052604060002090565b61473d8a6127d4565b84613e13565b1561422557806020927fd6d480d5b3068db003533b170d67561494d72e3bf9fa40a266471351ebba9e1694169561477b878983614600565b60405196875216951693a4565b50634e487b7160e01b600052603260045260246000fd5b91908110156147b0575b60051b0190565b6147b8614788565b6147a9565b35610b6f81610625565b906040516060608082016001600160401b039083811082821117614819575b6040528294549063ffffffff821684528160201c1660208401526001600160801b0381831c16604084015260e01c910152565b61482161115d565b6147e6565b60019063ffffffff8091169081146128e0570190565b9291909260016008815460f81c16611eac575a946148586128ec565b60005b848110614994575050506149349061491a6148f46148ef614881610df297985a90612ba5565b6148e86148cf6148ab6148a68860018060a01b03166000526007602052604060002090565b6147c7565b98612a4a6148c56148c08c5163ffffffff1690565b614826565b63ffffffff168b52565b6136dd60208a0191612a5a83516001600160401b031690565b489061219e565b615161565b61490d6040860191613cd583516001600160801b031690565b6001600160801b03169052565b6001600160a01b0316600090815260076020526040902090565b815160208084015160408501516060958601516001600160e01b031960e09190911b166fffffffffffffffffffffffffffffffff60601b9190961b1663ffffffff9093166bffffffffffffffff000000009190921b161717919091179055565b806149b26149ac6149a78694898761479f565b6147bd565b866149b8565b0161485b565b916149c56137fc83613380565b614d7357906149e96139338260018060a01b03166000526005602052604060002090565b906149f58251600c0b90565b936149ff85614fce565b92606090614a118282015161ffff1690565b614a3a7f0000000000000000000000000000000000000000000000000000000000000000612e7d565b96600092839860ff9a8b7f0000000000000000000000000000000000000000000000000000000000000000169a5b8c8116908c821015614bc557908d91898c8c61ffff600180961b8c1616614a94575b5050500116614a68565b90919a614aa0846121d0565b6020818101516001600160a01b0386811660009081526006845260408082209290931680825291845282812080546001600160801b03198116909155600290945291909120805493946001600160801b039384169492939092614b0591869116614296565b614b0e91613c25565b604084810151909f906001600160a01b0316614b2990612e7d565b908501516001600160401b0316614b49916001600160801b0386166134c1565b60c09490940151614b63906001600160401b031685613483565b614b6c91612b99565b9d516001600160801b0392909216825260208201929092526001600160a01b0391821693821692909116907f9850ab1af75177e4a9201c65a2cf7976d5d28e40ef63494b44366f86b2f9412e90604090a4898c8c614a8a565b5050949796995094509691509750614c1c614c1661335285614c116001600160401b037f000000000000000000000000000000000000000000000000000000000000000016809a61219e565b612dc9565b82613005565b9160008312614d6a575b614c2f83615065565b9687614c3b91876135f5565b6001600160a01b03851660009081526005602052604090208790805461ffff60e81b19169055614c6a91613aa7565b6001546001600160681b031690614c809161386b565b614ca0906001600160681b03166001600160681b03196001541617600155565b60015460681c6001600160681b031690614cb991613887565b614cc29061389f565b614ccb91612fce565b614cd490615208565b92614cdf91846134c1565b6040805193845260208401919091526001600160a01b039182169485939216917f1547a878dc89ad3c367b6338b4be6a65a5dd74fb77ae044da1e8747ef1f4f62f9190a380600c0b600012614d32575050565b6000805160206153ba833981519152613a54613a44600093614d64614d5e86546001600160401b031690565b916151df565b90615040565b60009250614c26565b604051636ef5bcdd60e11b8152600490fd5b90614e4a614d95610b6f936127d4565b614e156060614e40614db260018060a01b03604086015116612e7d565b6001600160401b039384918260c088015116614e04670de0b6b3a7640000948286938410614e94575b8303167f000000000000000000000000000000000000000000000000000000000000000061219e565b04808410614e87575b83039061219e565b04956137d57f0000000000000000000000000000000000000000000000000000000000000000612e7d565b920151169061219e565b908015614e7a575b7f00000000000000000000000000000000000000000000000000000000000000009104612dc9565b614e8261212d565b614e52565b614e8f612144565b614e0d565b614e9c612144565b614ddb565b614ec4614eac615221565b61075164ffffffffff918260015460d01c16906128a2565b506001600160a01b03909116600090815260056020526040812054600c0b919080831315614ef95750614d64610b6f926151df565b91505090565b614f0a614eac615221565b6001600160a01b03909216600090815260056020526040812054600c0b92915080831215614ef95750614d64614f42610b6f936135c9565b6151df565b50600036818037808036817f00000000000000000000000000000000000000000000000000000000000000005af43d82803e15614f82573d90f35b3d90fd5b6001600160a01b03808316911690811491908215614fa357505090565b60009081526003602090815260408083206001600160a01b0390941683529290522060ff9150541690565b6000600c82900b1261500a5766038d7ea4c68000615004610b6f926001600160401b0360005416906001600160681b031661219e565b046151bc565b61503b613352610b6f9261502c6001600160401b0360005460401c16916135c9565b6001600160681b031690615040565b613fbf565b66038d7ea4c68000916001600160681b036001600160401b03612ddb9316911661219e565b600081126150a857615096610b6f916150896001600160401b03600054169161215b565b811561509b575b0461513b565b615187565b6150a361212d565b615090565b6150f66150966150d26150dc610b6f946150d76001600160401b0360005460401c16938492613fbf565b61215b565b612b99565b60018110615108575b81156150fb575b600019010461513b565b6135c9565b61510361212d565b6150ec565b615110612144565b6150e5565b6001600160401b0390818111615129571690565b6040516372a1cb5160e11b8152600490fd5b6001600160681b039081811161514f571690565b604051630dc7925560e11b8152600490fd5b6001600160801b0390818111615175571690565b60405163762ea71160e11b8152600490fd5b6001600160681b03166c7fffffffffffffffffffffffff81116151aa57600c0b90565b604051639369ae3560e01b8152600490fd5b6001600160ff1b0381116151cd5790565b60405163e7e828ad60e01b8152600490fd5b600081600c0b126151f6576001600160681b031690565b60405163363b64b760e11b8152600490fd5b600081126151f65790565b60009015610b6f5750600190565b60085480156152345764ffffffffff1690565b506501000000000042101561524e5764ffffffffff421690565b604051633d32ffdb60e01b8152600490fd5b64ffffffffff60c0610df2926001600160401b0381511660208201519060408301519067ffffffffffffffff60401b6001600160401b03861b6060860151871b169360401b1617906001600160401b0360801b9060801b1617176000556152f96001600160681b036152ee816080850151166001600160681b03166001600160681b03196001541617600155565b60a08301511661389f565b01516001805464ffffffffff60d01b19169290911660d01b64ffffffffff60d01b16919091179055565b60ff6001911660ff81146128e0570190565b6020906001600160401b03811161534d5760051b0190565b6147b861115d565b9061535f82615335565b61536c60405191826111d3565b828152809261537d601f1991615335565b0190602036910137565b602091815181101561539c575b60051b010190565b6153a4614788565b615394565b60019060001981146128e057019056feddf252ad1be2c89b69c2b068fc378daa952ba7f163c4a11628f55a4df523b3efa26469706673582212204f9d5495cedbee0563f2dcaf4cf37aafd1b9db75c40722f4329845a9548002ca64736f6c634300080f0033",
  "immutableReferences": {
    "11": [
      {
        "length": 32,
        "start": 1742
      },
      {
        "length": 32,
        "start": 3877
      },
      {
        "length": 32,
        "start": 5998
      },
      {
        "length": 32,
        "start": 7308
      }
    ],
    "15": [
      {
        "length": 32,
        "start": 2698
      },
      {
        "length": 32,
        "start": 4187
      }
    ],
    "19": [
      {
        "length": 32,
        "start": 2626
      },
      {
        "length": 32,
        "start": 5873
      },
      {
        "length": 32,
        "start": 6807
      },
      {
        "length": 32,
        "start": 7413
      },
      {
        "length": 32,
        "start": 7590
      },
      {
        "length": 32,
        "start": 12435
      },
      {
        "length": 32,
        "start": 14353
      },
      {
        "length": 32,
        "start": 14562
      },
      {
        "length": 32,
        "start": 16207
      },
      {
        "length": 32,
        "start": 17436
      },
      {
        "length": 32,
        "start": 17696
      }
    ],
    "23": [
      {
        "length": 32,
        "start": 7893
      },
      {
        "length": 32,
        "start": 12756
      },
      {
        "length": 32,
        "start": 18966
      },
      {
        "length": 32,
        "start": 19996
      }
    ],
    "27": [
      {
        "length": 32,
        "start": 4251
      },
      {
        "length": 32,
        "start": 20308
      }
    ],
    "31": [
      {
        "length": 32,
        "start": 5799
      },
      {
        "length": 32,
        "start": 11186
      }
    ],
    "35": [
      {
        "length": 32,
        "start": 4410
      },
      {
        "length": 32,
        "start": 11246
      },
      {
        "length": 32,
        "start": 11352
      }
    ],
    "39": [
      {
        "length": 32,
        "start": 5039
      },
      {
        "length": 32,
        "start": 11400
      }
    ],
    "43": [
      {
        "length": 32,
        "start": 5414
      },
      {
        "length": 32,
        "start": 11285
      }
    ],
    "47": [
      {
        "length": 32,
        "start": 5294
      },
      {
        "length": 32,
        "start": 11458
      }
    ],
    "51": [
      {
        "length": 32,
        "start": 3058
      },
      {
        "length": 32,
        "start": 11518
      },
      {
        "length": 32,
        "start": 11624
      }
    ],
    "55": [
      {
        "length": 32,
        "start": 2855
      },
      {
        "length": 32,
        "start": 11672
      }
    ],
    "59": [
      {
        "length": 32,
        "start": 4907
      },
      {
        "length": 32,
        "start": 11557
      }
    ],
    "63": [
      {
        "length": 32,
        "start": 2525
      },
      {
        "length": 32,
        "start": 19936
      }
    ],
    "67": [
      {
        "length": 32,
        "start": 3742
      },
      {
        "length": 32,
        "start": 12802
      },
      {
        "length": 32,
        "start": 13468
      },
      {
        "length": 32,
        "start": 19434
      },
      {
        "length": 32,
        "start": 20052
      }
    ],
    "71": [
      {
        "length": 32,
        "start": 5937
      },
      {
        "length": 32,
        "start": 13944
      }
    ],
    "75": [
      {
        "length": 32,
        "start": 1922
      },
      {
        "length": 32,
        "start": 10910
      }
    ],
    "79": [
      {
        "length": 32,
        "start": 5474
      },
      {
        "length": 32,
        "start": 10785
      }
    ],
    "83": [
      {
        "length": 32,
        "start": 5354
      },
      {
        "length": 32,
        "start": 10632
      }
    ],
    "87": [
      {
        "length": 32,
        "start": 3180
      },
      {
        "length": 32,
        "start": 16875
      },
      {
        "length": 32,
        "start": 17862
      }
    ],
    "91": [
      {
        "length": 32,
        "start": 3303
      },
      {
        "length": 32,
        "start": 7813
      }
    ],
    "95": [
      {
        "length": 32,
        "start": 3242
      }
    ],
    "99": [
      {
        "length": 32,
        "start": 2108
      },
      {
        "length": 32,
        "start": 5738
      },
      {
        "length": 32,
        "start": 8673
      },
      {
        "length": 32,
        "start": 10215
      },
      {
        "length": 32,
        "start": 12849
      },
      {
        "length": 32,
        "start": 13280
      },
      {
        "length": 32,
        "start": 19014
      }
    ],
    "102": [
      {
        "length": 32,
        "start": 13983
      }
    ],
    "105": [
      {
        "length": 32,
        "start": 8753
      }
    ],
    "107": [
      {
        "length": 32,
        "start": 8720
      }
    ],
    "109": [
      {
        "length": 32,
        "start": 9086
      }
    ],
    "111": [
      {
        "length": 32,
        "start": 9053
      }
    ],
    "113": [
      {
        "length": 32,
        "start": 9166
      }
    ],
    "115": [
      {
        "length": 32,
        "start": 9133
      }
    ],
    "117": [
      {
        "length": 32,
        "start": 9246
      }
    ],
    "119": [
      {
        "length": 32,
        "start": 9213
      }
    ],
    "121": [
      {
        "length": 32,
        "start": 9326
      }
    ],
    "123": [
      {
        "length": 32,
        "start": 9293
      }
    ],
    "125": [
      {
        "length": 32,
        "start": 9406
      }
    ],
    "127": [
      {
        "length": 32,
        "start": 9373
      }
    ],
    "129": [
      {
        "length": 32,
        "start": 9486
      }
    ],
    "131": [
      {
        "length": 32,
        "start": 9453
      }
    ],
    "133": [
      {
        "length": 32,
        "start": 9566
      }
    ],
    "135": [
      {
        "length": 32,
        "start": 9533
      }
    ],
    "137": [
      {
        "length": 32,
        "start": 9646
      }
    ],
    "139": [
      {
        "length": 32,
        "start": 9613
      }
    ],
    "141": [
      {
        "length": 32,
        "start": 9726
      }
    ],
    "143": [
      {
        "length": 32,
        "start": 9693
      }
    ],
    "145": [
      {
        "length": 32,
        "start": 9806
      }
    ],
    "147": [
      {
        "length": 32,
        "start": 9773
      }
    ],
    "149": [
      {
        "length": 32,
        "start": 9886
      }
    ],
    "151": [
      {
        "length": 32,
        "start": 9853
      }
    ],
    "153": [
      {
        "length": 32,
        "start": 9966
      }
    ],
    "155": [
      {
        "length": 32,
        "start": 9933
      }
    ],
    "157": [
      {
        "length": 32,
        "start": 10046
      }
    ],
    "159": [
      {
        "length": 32,
        "start": 10013
      }
    ],
    "161": [
      {
        "length": 32,
        "start": 10124
      }
    ],
    "163": [
      {
        "length": 32,
        "start": 10091
      }
    ]
  },
  "source": "// SPDX-License-Identifier: BUSL-1.1\npragma solidity 0.8.15;\n\nimport \"../Comet.sol\";\n\ncontract CometHarness is Comet {\n    uint public nowOverride;\n\n    constructor(Configuration memory config) Comet(config) {}\n\n    function getNowInternal() override internal view returns (uint40) {\n        return nowOverride > 0 ? uint40(nowOverride) : super.getNowInternal();\n    }\n\n    function getNow() public view returns (uint40) {\n        return getNowInternal();\n    }\n\n    function setNow(uint now_) external {\n        nowOverride = now_;\n    }\n\n    function setTotalsBasic(TotalsBasic memory totals) external {\n        baseSupplyIndex = totals.baseSupplyIndex;\n        baseBorrowIndex = totals.baseBorrowIndex;\n        trackingSupplyIndex = totals.trackingSupplyIndex;\n        trackingBorrowIndex = totals.trackingBorrowIndex;\n        totalSupplyBase = totals.totalSupplyBase;\n        totalBorrowBase = totals.totalBorrowBase;\n        lastAccrualTime = totals.lastAccrualTime;\n    }\n\n    function setTotalsCollateral(address asset, TotalsCollateral memory totals) external {\n        totalsCollateral[asset] = totals;\n    }\n\n    function setBasePrincipal(address account, int104 principal) external {\n        userBasic[account].principal = principal;\n    }\n\n    function setCollateralBalance(address account, address asset, uint128 balance) external {\n        uint128 oldBalance = userCollateral[account][asset].balance;\n        userCollateral[account][asset].balance = balance;\n        AssetInfo memory assetInfo = getAssetInfoByAddress(asset);\n        updateAssetsIn(account, assetInfo, oldBalance, balance);\n    }\n\n    function updateAssetsInExternal(\n        address account,\n        address asset,\n        uint128 initialUserBalance,\n        uint128 finalUserBalance\n    ) external {\n        AssetInfo memory assetInfo = getAssetInfoByAddress(asset);\n        updateAssetsIn(account, assetInfo, initialUserBalance, finalUserBalance);\n    }\n\n    function getAssetList(address account) external view returns (address[] memory result) {\n        uint16 assetsIn = userBasic[account].assetsIn;\n\n        uint8 count = 0;\n        for (uint8 i = 0; i < numAssets; i++) {\n            if (isInAsset(assetsIn, i)) {\n                count++;\n            }\n        }\n\n        result = new address[](count);\n\n        uint j = 0;\n        for (uint8 i = 0; i < numAssets; i++) {\n            if (isInAsset(assetsIn, i)) {\n                result[j] = getAssetInfo(i).asset;\n                j++;\n            }\n        }\n\n        return result;\n    }\n\n    function accrue() external {\n        accrueInternal();\n    }\n}",
  "sourcePath": "/home/stephensb/sb-labs/solidity-contracts/contracts/comet/contracts/test/CometHarness.sol",
  "compiler": {
    "name": "solc",
    "version": "0.8.15+commit.e14f2714.Emscripten.clang"
  },
  "schemaVersion": "3.4.12",
  "updatedAt": "2023-11-30T22:41:29.717Z",
  "devdoc": {
    "kind": "dev",
    "methods": {
      "absorb(address,address[])": {
        "params": {
          "absorber": "The recipient of the incentive paid to the caller of absorb",
          "accounts": "The list of underwater accounts to absorb"
        }
      },
      "approveThis(address,address,uint256)": {
        "details": "Only callable by governorNote: Setting the `asset` as Comet's address will allow the manager to withdraw from Comet's Comet balance",
        "params": {
          "amount": "The amount of an asset to approve",
          "asset": "The asset that the manager will gain approval of",
          "manager": "The account which will be allowed or disallowed"
        }
      },
      "balanceOf(address)": {
        "details": "Note: uses updated interest indices to calculate",
        "params": {
          "account": "The account whose balance to query"
        },
        "returns": {
          "_0": "The present day base balance magnitude of the account, if positive"
        }
      },
      "borrowBalanceOf(address)": {
        "details": "Note: uses updated interest indices to calculate",
        "params": {
          "account": "The account whose balance to query"
        },
        "returns": {
          "_0": "The present day base balance magnitude of the account, if negative"
        }
      },
      "buyCollateral(address,uint256,uint256,address)": {
        "params": {
          "asset": "The asset to buy",
          "baseAmount": "The amount of base tokens used to buy the collateral",
          "minAmount": "The minimum amount of collateral tokens that should be received by the buyer",
          "recipient": "The recipient address"
        }
      },
      "getAssetInfo(uint8)": {
        "params": {
          "i": "The index of the asset info to get"
        },
        "returns": {
          "_0": "The asset info object"
        }
      },
      "getAssetInfoByAddress(address)": {
        "details": "Determine index of asset that matches given address"
      },
      "getBorrowRate(uint256)": {
        "details": "Note: Does not accrue interest first",
        "params": {
          "utilization": "The utilization to check the borrow rate for"
        },
        "returns": {
          "_0": "The per second borrow rate at `utilization`"
        }
      },
      "getCollateralReserves(address)": {
        "details": "Note: Reverts if collateral reserves are somehow negative, which should not be possible",
        "params": {
          "asset": "The collateral asset"
        }
      },
      "getPrice(address)": {
        "params": {
          "priceFeed": "The address of a price feed"
        },
        "returns": {
          "_0": "The price, scaled by `PRICE_SCALE`"
        }
      },
      "getSupplyRate(uint256)": {
        "details": "Note: Does not accrue interest first",
        "params": {
          "utilization": "The utilization to check the supply rate for"
        },
        "returns": {
          "_0": "The per second supply rate at `utilization`"
        }
      },
      "getUtilization()": {
        "details": "Note: Does not accrue interest first",
        "returns": {
          "_0": "The utilization rate of the base asset"
        }
      },
      "hasPermission(address,address)": {
        "params": {
          "manager": "The manager account",
          "owner": "The owner account"
        },
        "returns": {
          "_0": "Whether or not the manager has permission"
        }
      },
      "initializeStorage()": {
        "details": "Can be used from constructor or proxy"
      },
      "isAbsorbPaused()": {
        "returns": {
          "_0": "Whether or not absorb actions are paused"
        }
      },
      "isBorrowCollateralized(address)": {
        "params": {
          "account": "The address to check"
        },
        "returns": {
          "_0": "Whether the account is minimally collateralized enough to borrow"
        }
      },
      "isBuyPaused()": {
        "returns": {
          "_0": "Whether or not buy actions are paused"
        }
      },
      "isLiquidatable(address)": {
        "params": {
          "account": "The address to check"
        },
        "returns": {
          "_0": "Whether the account is minimally collateralized enough to not be liquidated"
        }
      },
      "isSupplyPaused()": {
        "returns": {
          "_0": "Whether or not supply actions are paused"
        }
      },
      "isTransferPaused()": {
        "returns": {
          "_0": "Whether or not transfer actions are paused"
        }
      },
      "isWithdrawPaused()": {
        "returns": {
          "_0": "Whether or not withdraw actions are paused"
        }
      },
      "pause(bool,bool,bool,bool,bool)": {
        "params": {
          "absorbPaused": "Boolean for pausing absorb actions",
          "buyPaused": "Boolean for pausing buy actions",
          "supplyPaused": "Boolean for pausing supply actions",
          "transferPaused": "Boolean for pausing transfer actions",
          "withdrawPaused": "Boolean for pausing withdraw actions"
        }
      },
      "quoteCollateral(address,uint256)": {
        "params": {
          "asset": "The collateral asset to get the quote for",
          "baseAmount": "The amount of the base asset to get the quote for"
        },
        "returns": {
          "_0": "The quote in terms of the collateral asset"
        }
      },
      "supply(address,uint256)": {
        "params": {
          "amount": "The quantity to supply",
          "asset": "The asset to supply"
        }
      },
      "supplyFrom(address,address,address,uint256)": {
        "params": {
          "amount": "The quantity to supply",
          "asset": "The asset to supply",
          "dst": "The address which will hold the balance",
          "from": "The supplier address"
        }
      },
      "supplyTo(address,address,uint256)": {
        "params": {
          "amount": "The quantity to supply",
          "asset": "The asset to supply",
          "dst": "The address which will hold the balance"
        }
      },
      "totalBorrow()": {
        "details": "Note: uses updated interest indices to calculate",
        "returns": {
          "_0": "The amount of debt*"
        }
      },
      "totalSupply()": {
        "details": "Note: uses updated interest indices to calculate",
        "returns": {
          "_0": "The supply of tokens*"
        }
      },
      "transfer(address,uint256)": {
        "params": {
          "amount": "The quantity to transfer",
          "dst": "The recipient address"
        },
        "returns": {
          "_0": "true"
        }
      },
      "transferAsset(address,address,uint256)": {
        "params": {
          "amount": "The quantity to transfer",
          "asset": "The asset to transfer",
          "dst": "The recipient address"
        }
      },
      "transferAssetFrom(address,address,address,uint256)": {
        "params": {
          "amount": "The quantity to transfer",
          "asset": "The asset to transfer",
          "dst": "The recipient address",
          "src": "The sender address"
        }
      },
      "transferFrom(address,address,uint256)": {
        "params": {
          "amount": "The quantity to transfer",
          "dst": "The recipient address",
          "src": "The sender address"
        },
        "returns": {
          "_0": "true"
        }
      },
      "withdraw(address,uint256)": {
        "params": {
          "amount": "The quantity to withdraw",
          "asset": "The asset to withdraw"
        }
      },
      "withdrawFrom(address,address,address,uint256)": {
        "params": {
          "amount": "The quantity to withdraw",
          "asset": "The asset to withdraw",
          "src": "The sender address",
          "to": "The recipient address"
        }
      },
      "withdrawReserves(address,uint256)": {
        "params": {
          "amount": "The amount of reserves to be withdrawn from the protocol",
          "to": "An address of the receiver of withdrawn reserves"
        }
      },
      "withdrawTo(address,address,uint256)": {
        "params": {
          "amount": "The quantity to withdraw",
          "asset": "The asset to withdraw",
          "to": "The recipient address"
        }
      }
    },
    "version": 1
  },
  "userdoc": {
    "errors": {
      "InvalidUInt64()": [
        {
          "notice": "Custom errors *"
        }
      ]
    },
    "events": {
      "AbsorbCollateral(address,address,address,uint256,uint256)": {
        "notice": "Event emitted when a user's collateral is absorbed by the protocol"
      },
      "AbsorbDebt(address,address,uint256,uint256)": {
        "notice": "Event emitted when a borrow position is absorbed by the protocol"
      },
      "BuyCollateral(address,address,uint256,uint256)": {
        "notice": "Event emitted when a collateral asset is purchased from the protocol"
      },
      "PauseAction(bool,bool,bool,bool,bool)": {
        "notice": "Event emitted when an action is paused/unpaused"
      },
      "WithdrawReserves(address,uint256)": {
        "notice": "Event emitted when reserves are withdrawn by the governor"
      }
    },
    "kind": "user",
    "methods": {
      "absorb(address,address[])": {
        "notice": "Absorb a list of underwater accounts onto the protocol balance sheet"
      },
      "accrueAccount(address)": {
        "notice": "Accrue interest and rewards for an account*"
      },
      "approveThis(address,address,uint256)": {
        "notice": "Sets Comet's ERC20 allowance of an asset for a manager"
      },
      "balanceOf(address)": {
        "notice": "Query the current positive base balance of an account or zero"
      },
      "baseBorrowMin()": {
        "notice": "The minimum base amount required to initiate a borrow"
      },
      "baseMinForRewards()": {
        "notice": "The minimum amount of base principal wei for rewards to accrue"
      },
      "baseScale()": {
        "notice": "The scale for base token (must be less than 18 decimals)"
      },
      "baseToken()": {
        "notice": "The address of the base token contract"
      },
      "baseTokenPriceFeed()": {
        "notice": "The address of the price feed for the base token"
      },
      "baseTrackingBorrowSpeed()": {
        "notice": "The speed at which borrow rewards are tracked (in trackingIndexScale)"
      },
      "baseTrackingSupplySpeed()": {
        "notice": "The speed at which supply rewards are tracked (in trackingIndexScale)"
      },
      "borrowBalanceOf(address)": {
        "notice": "Query the current negative base balance of an account or zero"
      },
      "borrowKink()": {
        "notice": "The point in the borrow rate separating the low interest rate slope and the high interest rate slope (factor)"
      },
      "borrowPerSecondInterestRateBase()": {
        "notice": "Per second borrow base interest rate (factor)"
      },
      "borrowPerSecondInterestRateSlopeHigh()": {
        "notice": "Per second borrow interest rate slope applied when utilization is above kink (factor)"
      },
      "borrowPerSecondInterestRateSlopeLow()": {
        "notice": "Per second borrow interest rate slope applied when utilization is below kink (factor)"
      },
      "buyCollateral(address,uint256,uint256,address)": {
        "notice": "Buy collateral from the protocol using base tokens, increasing protocol reserves A minimum collateral amount should be specified to indicate the maximum slippage acceptable for the buyer."
      },
      "decimals()": {
        "notice": "The number of decimals for wrapped base token"
      },
      "extensionDelegate()": {
        "notice": "The address of the extension contract delegate"
      },
      "getAssetInfo(uint8)": {
        "notice": "Get the i-th asset info, according to the order they were passed in originally"
      },
      "getCollateralReserves(address)": {
        "notice": "Gets the total balance of protocol collateral reserves for an asset"
      },
      "getPrice(address)": {
        "notice": "Get the current price from a feed"
      },
      "getReserves()": {
        "notice": "Gets the total amount of protocol reserves of the base asset"
      },
      "governor()": {
        "notice": "The admin of the protocol"
      },
      "hasPermission(address,address)": {
        "notice": "Determine if the manager has permission to act on behalf of the owner"
      },
      "initializeStorage()": {
        "notice": "Initialize storage for the contract"
      },
      "isAllowed(address,address)": {
        "notice": "Mapping of users to accounts which may be permitted to manage the user account"
      },
      "isBorrowCollateralized(address)": {
        "notice": "Check whether an account has enough collateral to borrow"
      },
      "isLiquidatable(address)": {
        "notice": "Check whether an account has enough collateral to not be liquidated"
      },
      "liquidatorPoints(address)": {
        "notice": "Mapping of magic liquidator points"
      },
      "numAssets()": {
        "notice": "The number of assets this contract actually supports"
      },
      "pause(bool,bool,bool,bool,bool)": {
        "notice": "Pauses different actions within Comet"
      },
      "pauseGuardian()": {
        "notice": "The account which may trigger pauses"
      },
      "quoteCollateral(address,uint256)": {
        "notice": "Gets the quote for a collateral asset in exchange for an amount of base asset"
      },
      "storeFrontPriceFactor()": {
        "notice": "The fraction of the liquidation penalty that goes to buyers of collateral instead of the protocol"
      },
      "supply(address,uint256)": {
        "notice": "Supply an amount of asset to the protocol"
      },
      "supplyFrom(address,address,address,uint256)": {
        "notice": "Supply an amount of asset from `from` to dst, if allowed"
      },
      "supplyKink()": {
        "notice": "The point in the supply rates separating the low interest rate slope and the high interest rate slope (factor)"
      },
      "supplyPerSecondInterestRateBase()": {
        "notice": "Per second supply base interest rate (factor)"
      },
      "supplyPerSecondInterestRateSlopeHigh()": {
        "notice": "Per second supply interest rate slope applied when utilization is above kink (factor)"
      },
      "supplyPerSecondInterestRateSlopeLow()": {
        "notice": "Per second supply interest rate slope applied when utilization is below kink (factor)"
      },
      "supplyTo(address,address,uint256)": {
        "notice": "Supply an amount of asset to dst"
      },
      "targetReserves()": {
        "notice": "The minimum base token reserves which must be held before collateral is hodled"
      },
      "totalBorrow()": {
        "notice": "Get the total amount of debt"
      },
      "totalSupply()": {
        "notice": "Get the total number of tokens in circulation"
      },
      "totalsCollateral(address)": {
        "notice": "Aggregate variables tracked for each collateral asset"
      },
      "trackingIndexScale()": {
        "notice": "The scale for reward tracking"
      },
      "transfer(address,uint256)": {
        "notice": "ERC20 transfer an amount of base token to dst"
      },
      "transferAsset(address,address,uint256)": {
        "notice": "Transfer an amount of asset to dst"
      },
      "transferAssetFrom(address,address,address,uint256)": {
        "notice": "Transfer an amount of asset from src to dst, if allowed"
      },
      "transferFrom(address,address,uint256)": {
        "notice": "ERC20 transfer an amount of base token from src to dst, if allowed"
      },
      "userBasic(address)": {
        "notice": "Mapping of users to base principal and other basic data"
      },
      "userCollateral(address,address)": {
        "notice": "Mapping of users to collateral data per collateral asset"
      },
      "userNonce(address)": {
        "notice": "The next expected nonce for an address, for validating authorizations via signature"
      },
      "withdraw(address,uint256)": {
        "notice": "Withdraw an amount of asset from the protocol"
      },
      "withdrawFrom(address,address,address,uint256)": {
        "notice": "Withdraw an amount of asset from src to `to`, if allowed"
      },
      "withdrawReserves(address,uint256)": {
        "notice": "Withdraws base token reserves if called by the governor"
      },
      "withdrawTo(address,address,uint256)": {
        "notice": "Withdraw an amount of asset to `to`"
      }
    },
    "version": 1
  }
}