{
  "contractName": "CometFactory",
  "abi": [
    {
      "inputs": [
        {
          "components": [
            {
              "internalType": "address",
              "name": "governor",
              "type": "address"
            },
            {
              "internalType": "address",
              "name": "pauseGuardian",
              "type": "address"
            },
            {
              "internalType": "address",
              "name": "baseToken",
              "type": "address"
            },
            {
              "internalType": "address",
              "name": "baseTokenPriceFeed",
              "type": "address"
            },
            {
              "internalType": "address",
              "name": "extensionDelegate",
              "type": "address"
            },
            {
              "internalType": "uint64",
              "name": "supplyKink",
              "type": "uint64"
            },
            {
              "internalType": "uint64",
              "name": "supplyPerYearInterestRateSlopeLow",
              "type": "uint64"
            },
            {
              "internalType": "uint64",
              "name": "supplyPerYearInterestRateSlopeHigh",
              "type": "uint64"
            },
            {
              "internalType": "uint64",
              "name": "supplyPerYearInterestRateBase",
              "type": "uint64"
            },
            {
              "internalType": "uint64",
              "name": "borrowKink",
              "type": "uint64"
            },
            {
              "internalType": "uint64",
              "name": "borrowPerYearInterestRateSlopeLow",
              "type": "uint64"
            },
            {
              "internalType": "uint64",
              "name": "borrowPerYearInterestRateSlopeHigh",
              "type": "uint64"
            },
            {
              "internalType": "uint64",
              "name": "borrowPerYearInterestRateBase",
              "type": "uint64"
            },
            {
              "internalType": "uint64",
              "name": "storeFrontPriceFactor",
              "type": "uint64"
            },
            {
              "internalType": "uint64",
              "name": "trackingIndexScale",
              "type": "uint64"
            },
            {
              "internalType": "uint64",
              "name": "baseTrackingSupplySpeed",
              "type": "uint64"
            },
            {
              "internalType": "uint64",
              "name": "baseTrackingBorrowSpeed",
              "type": "uint64"
            },
            {
              "internalType": "uint104",
              "name": "baseMinForRewards",
              "type": "uint104"
            },
            {
              "internalType": "uint104",
              "name": "baseBorrowMin",
              "type": "uint104"
            },
            {
              "internalType": "uint104",
              "name": "targetReserves",
              "type": "uint104"
            },
            {
              "components": [
                {
                  "internalType": "address",
                  "name": "asset",
                  "type": "address"
                },
                {
                  "internalType": "address",
                  "name": "priceFeed",
                  "type": "address"
                },
                {
                  "internalType": "uint8",
                  "name": "decimals",
                  "type": "uint8"
                },
                {
                  "internalType": "uint64",
                  "name": "borrowCollateralFactor",
                  "type": "uint64"
                },
                {
                  "internalType": "uint64",
                  "name": "liquidateCollateralFactor",
                  "type": "uint64"
                },
                {
                  "internalType": "uint64",
                  "name": "liquidationFactor",
                  "type": "uint64"
                },
                {
                  "internalType": "uint128",
                  "name": "supplyCap",
                  "type": "uint128"
                }
              ],
              "internalType": "struct CometConfiguration.AssetConfig[]",
              "name": "assetConfigs",
              "type": "tuple[]"
            }
          ],
          "internalType": "struct CometConfiguration.Configuration",
          "name": "config",
          "type": "tuple"
        }
      ],
      "name": "clone",
      "outputs": [
        {
          "internalType": "address",
          "name": "",
          "type": "address"
        }
      ],
      "stateMutability": "nonpayable",
      "type": "function"
    }
  ],
  "bytecode": "0x60808060405234610016576163b6908161001c8239f35b600080fdfe6080604081815260043610156200001557600080fd5b60009060e0908235821c632d526439146200002f57600080fd5b34620003c5576020936003198581360112620003c15760043567ffffffffffffffff94858211620003bd578136036102a08094820112620003b957615f6c908186019186831089841117620003a5576200041587398982526001600160a01b03976102c08301949089620000a660048401620003c9565b168c85015289620000ba60248401620003c9565b168985015289620000ce60448401620003c9565b1693606094858201528a620000e660648501620003c9565b1690608091828201528b620000fe60848601620003c9565b169360a09485830152836200011660a48301620003e3565b169560c09687840152846200012e60c48401620003e3565b1689840152846200014260e48401620003e3565b1661010084015284620001596101048401620003e3565b1661012084015284620001706101248401620003e3565b1661014084015284620001876101448401620003e3565b16610160840152846200019e6101648401620003e3565b1661018084015284620001b56101848401620003e3565b166101a084015284620001cc6101a48401620003e3565b166101c084015284620001e36101c48401620003e3565b166101e084015284620001fa6101e48401620003e3565b1661020084015284620002116102048401620003e3565b166102208401526cffffffffffffffffffffffffff80620002366102248501620003f9565b16610240850152806200024d6102448501620003f9565b16610260850152620002636102648401620003f9565b166102808401526102848201359060221901811215620003a1570197602460048a0135990199848a11620003a157888a0236038b13620003a157968f9593918f999795938b6102e0928f9e9d9b8084015252019998955b888710620002e6578f8f8f8e8e038f84f0928315620002db57505191168152f35b9051903d90823e3d90fd5b90929496989a508d620002ff8c9b939597999b620003c9565b1682528d62000310828d01620003c9565b16908201528b8a013560ff8116809103620003a1578c8201528362000337838c01620003e3565b1682820152836200034a848c01620003e3565b1683820152836200035d868c01620003e3565b1685820152858a01356fffffffffffffffffffffffffffffffff8116809103620003a15788828192896001950152019a01960193918a999896979593918f620002ba565b8e80fd5b634e487b7160e01b8a52604160045260248afd5b8780fd5b8680fd5b8480fd5b8280fd5b35906001600160a01b0382168203620003de57565b600080fd5b359067ffffffffffffffff82168203620003de57565b35906cffffffffffffffffffffffffff82168203620003de5756fe6107406040523462000382576200001f6200001962000581565b620007c1565b604051614c5190816200131b823960805181818161060601528181610cea015281816113ae0152611769015260a0518181816108310152610e20015260c0518181816107e9015281816113310152818161159e015281816117d20152818161188301528181612a8d01528181613211015281816132e20152818161394601528181613e130152613f17015260e0518181816119b201528181612bd9015281816143f001526147f6015261010051818181610e60015261492e0152610120518181816112e701526125ac015261014051818181610eff015281816125e8015261265201526101605181818161100e0152612682015261018051818181611166015261260f01526101a0518181816110ee01526126bc01526101c0518181816109b7015281816126f8015261276201526101e0518181816108ce0152612792015261020051818181610f8a015261271f01526102205181818161078401526147ba015261024051818181610c6301528181612c0701528181612ea1015281816145c4015261482e015261026051818181611371015261307d0152610280518181816106ba015261249801526102a0518181816111a2015261241b01526102c05181818161112a015261238201526102e051818181610a3101528181613be20152613fbd015261030051818181610aac015261196201526103205181610a6f0152610340518181816112aa01528181611bb0015281816121b601528181612c3601528181612de50152614420015261036051816130a401526103805181611c0001526103a05181611bdf01526103c05181611d4d01526103e05181611d2c01526104005181611d9d01526104205181611d7c01526104405181611ded01526104605181611dcc01526104805181611e3d01526104a05181611e1c01526104c05181611e8d01526104e05181611e6c01526105005181611edd01526105205181611ebc01526105405181611f2d01526105605181611f0c01526105805181611f7d01526105a05181611f5c01526105c05181611fcd01526105e05181611fac0152610600518161201d01526106205181611ffc0152610640518161206d0152610660518161204c015261068051816120bd01526106a0518161209c01526106c0518161210d01526106e051816120ec0152610700518161215b0152610720518161213a0152f35b600080fd5b50634e487b7160e01b600052604160045260246000fd5b60e081019081106001600160401b03821117620003ba57604052565b620003c462000387565b604052565b601f909101601f19168101906001600160401b03821190821017620003ba57604052565b604051906102a082016001600160401b03811183821017620003ba57604052565b51906001600160a01b03821682036200038257565b51906001600160401b03821682036200038257565b51906001600160681b03821682036200038257565b519060ff821682036200038257565b81601f8201121562000382578051906001600160401b03821162000571575b604080519360209162000494838660051b0187620003c9565b848652828601918360e08097028601019481861162000382578401925b858410620004c3575050505050505090565b86848303126200038257825190620004db826200039e565b620004e6856200040e565b8252620004f58686016200040e565b86830152620005068486016200044d565b8483015260606200051981870162000423565b9083015260806200052c81870162000423565b9083015260a06200053f81870162000423565b9083015260c085810151929091906001600160801b0384168403620003825789938893820152815201930192620004b1565b6200057b62000387565b6200047b565b62005f6c8038038060405192620005998285620003c9565b8339810190602081830312620003825780516001600160401b03918282116200038257016102a0818403126200038257620005d3620003ed565b92620005df826200040e565b8452620005ef602083016200040e565b602085015262000602604083016200040e565b604085015262000615606083016200040e565b606085015262000628608083016200040e565b60808501526200063b60a0830162000423565b60a08501526200064e60c0830162000423565b60c08501526200066160e0830162000423565b60e08501526101006200067681840162000423565b908501526101206200068a81840162000423565b908501526101406200069e81840162000423565b90850152610160620006b281840162000423565b90850152610180620006c681840162000423565b908501526101a0620006da81840162000423565b908501526101c0620006ee81840162000423565b908501526101e06200070281840162000423565b908501526102006200071681840162000423565b908501526102206200072a81840162000438565b908501526102406200073e81840162000438565b908501526102606200075281840162000438565b90850152610280928383015190811162000382576200077292016200045c565b9082015290565b90816020910312620003825762000790906200044d565b90565b506040513d6000823e3d90fd5b8115620007ab570490565b634e487b7160e01b600052601260045260246000fd5b6040818101805190929190620007ee90620007e2906001600160a01b031681565b6001600160a01b031690565b9181518093819363313ce56760e01b91828452602093849160049889915afa94851562000c72575b60009562000c4e575b5060ff8516916012831162000c3e576101a08581018051919790946001600160401b0392909190670de0b6b3a76400009084161162000c2e57610280968789019b600f8d51511162000c1e576102208a810180519097919391906001600160681b03161562000c0e5790600860ff8f9493838f9160608e930197620008b2620007e2620007e28b5160018060a01b031690565b93518094819382525afa90811562000bfe575b60009162000bca575b50160362000bba576200092892916200090862000918928e620008f7815160018060a01b031690565b60805201516001600160a01b031690565b60a052516001600160a01b031690565b60c052516001600160a01b031690565b60e05260808901516001600160a01b031661010090815296516200095c906001600160401b03165b6001600160401b031690565b905261032052600a0a1690610240978289526101c093620f42406200098d62000950878b015160018060401b031690565b946102609586521062000bad5750508751620f4240900461036052516001600160681b039081166102c0526101e0868101516001600160401b039081169096526102008088015187166102a0529887015182166102e05291860151166103005260a0850151841661012090815260c08601516301e13380908616819004861661014090815260e0880151871682900487166101609081529588015187168290048716610180908152928801518716909852968601518516879004851690925291840151831685900483169091529091015181169190910416905280515160ff1661034052805162000a7e9062000cdc565b6103a05261038052805162000a939062000fc3565b6103e0526103c052805162000aa89062000ff1565b6104205261040052805162000abd906200101f565b6104605261044052805162000ad2906200104d565b6104a05261048052805162000ae79062001146565b6104e0526104c052805162000afc9062001174565b6105205261050052805162000b1190620011a2565b6105605261054052805162000b2690620011d1565b6105a05261058052805162000b3b9062001200565b6105e0526105c052805162000b50906200122f565b6106205261060052805162000b65906200125e565b6106605261064052805162000b7a906200128d565b6106a05261068052805162000b8f90620012bc565b6106e0526106c0525162000ba390620012eb565b6107205261070052565b51630456c65960e51b8152fd5b8851630456c65960e51b81528e90fd5b62000bef9150843d861162000bf6575b62000be68183620003c9565b81019062000779565b38620008ce565b503d62000bda565b62000c0862000793565b620008c5565b8851636e77247560e01b81528e90fd5b865163df8153c760e01b81528c90fd5b84516324dc918f60e11b81528a90fd5b8151630456c65960e51b81528790fd5b62000c6a919550833d851162000bf65762000be68183620003c9565b93386200081f565b62000c7c62000793565b62000816565b6040519060e082016001600160401b0381118382101762000ccc575b6040528160c06000918281528260208201528260408201528260608201528260808201528260a08201520152565b62000cd662000387565b62000c9e565b62000ce662000c82565b5080511562000fba576020015180519091906001600160a01b03165b6020838101516001600160a01b03169060409462000d238682015160ff1690565b936001600160a01b0390811693841562000faa57169286519263313ce56760e01b808552600860ff600496848189818c5afa90811562000f9a575b60009162000f78575b50160362000f68579060ff91895190815281818781875afa91821562000f58575b60009262000f36575b5050818716918291160362000f26576060830180519093906001600160401b03165b6080820180519095919062000dd1906001600160401b031662000950565b6001600160401b03918216101562000f16578551670de0b6b3a764000091166001600160401b03161162000f06575162000e4d9062000e389062000e229062000e3f9083906001600160401b031683565b655af3107a40006001600160401b039091160490565b61ffff1690565b96516001600160401b031690565b60a082015190959062000e6e9062000e38906001600160401b031662000e22565b9961ffff808816908716101562000ef957505060c0015162000ea5916200095091600a9190910a906001600160801b0316620007a0565b60a092831b61ffff60a01b169190911760b09390931b61ffff60b01b169290921760c09690961b61ffff60c01b1695909517949290921b60ff60a01b161760a89190911b600160a81b600160e81b03161790565b5163327d763960e21b8152fd5b89516304d6b32560e41b81528690fd5b8a5163327d763960e21b81528790fd5b8751630456c65960e51b81528490fd5b62000f509250803d1062000bf65762000be68183620003c9565b388062000d91565b62000f6262000793565b62000d88565b8851630456c65960e51b81528590fd5b62000f939150853d871162000bf65762000be68183620003c9565b3862000d67565b62000fa462000793565b62000d5e565b5050505050509050600090600090565b50600090600090565b62000fcd62000c82565b5080516001101562000fba576040015180519091906001600160a01b031662000d02565b62000ffb62000c82565b5080516002101562000fba576060015180519091906001600160a01b031662000d02565b6200102962000c82565b5080516003101562000fba576080015180519091906001600160a01b031662000d02565b906200105862000c82565b508151600492908310156200113d5760a0015180519092906001600160a01b0316602084810151919290916001600160a01b0316946040956200109e8783015160ff1690565b946001600160a01b039081169182156200112c5716938751600860ff63313ce56760e01b92838152848189818c5afa90811562000f9a5760009162000f785750160362000f68579060ff91895190815281818781875afa91821562000f585760009262000f36575050818716918291160362000f26576060830180519093906001600160401b031662000db3565b505050505050509050600090600090565b50600091508190565b6200115062000c82565b5080516005101562000fba5760c0015180519091906001600160a01b031662000d02565b6200117e62000c82565b5080516006101562000fba5760e0015180519091906001600160a01b031662000d02565b620011ac62000c82565b5080516007101562000fba57610100015180519091906001600160a01b031662000d02565b620011db62000c82565b5080516008101562000fba57610120015180519091906001600160a01b031662000d02565b6200120a62000c82565b5080516009101562000fba57610140015180519091906001600160a01b031662000d02565b6200123962000c82565b508051600a101562000fba57610160015180519091906001600160a01b031662000d02565b6200126862000c82565b508051600b101562000fba57610180015180519091906001600160a01b031662000d02565b6200129762000c82565b508051600c101562000fba576101a0015180519091906001600160a01b031662000d02565b620012c662000c82565b508051600d101562000fba576101c0015180519091906001600160a01b031662000d02565b620012f562000c82565b508051600e101562000fba576101e0015180519091906001600160a01b031662000d0256fe60806040526004361015610018575b610016614921565b005b60003560e01c8063042e02cf146105545780630902f1ac1461054b5780630bc47ad1146105425780630c340a241461053957806318160ddd14610530578063189bb2f1146105275780631c9f7fb91461051e5780631f5954bd1461051557806323b872dd1461050c57806324a3d6221461050357806326441318146104fa5780632a48cf12146104f15780632b92a07d146104e85780632d05670b146104df5780632e04b8e7146104d6578063300e6beb146104cd578063313ce567146104c457806332176c49146104bb578063374c49b4146104b257806338aa813f146104a95780633b3bec2e146104a057806341976e09146104975780634232cd631461048e578063439e2e451461048557806344c1e5eb1461047c57806344c35d071461047357806344ff241d1461046a57806359e017bd146104615780635a94b8d11461045857806367800b5f1461044f57806370a08231146104465780637914acc71461043d5780637ac88ed1146104345780637eb711311461042b578063804de71f146104225780638285ef40146104195780638d5d814c1461041057806390323177146104075780639241a561146103fe5780639364e18a146103f557806394920cca146103ec5780639ea99a5a146103e35780639fa83b5a146103da5780639ff567f8146103d1578063a1654379146103c8578063a1a1ef43146103bf578063a46fe83b146103b6578063a5b4ff79146103ad578063a9059cbb146103a4578063aba7f15e1461039b578063ad14777c14610392578063bfe69c8d14610389578063c1ee2c1814610380578063c3b35a7e14610377578063c3cecfd21461036e578063c55dae6314610365578063c5fa15cf1461035c578063c8c7fe6b14610353578063cde680411461034a578063d8e5f61114610341578063d955759d14610338578063dc4abafd1461032f578063e478795d14610326578063e4e6e7791461031d578063e7dad6bd14610314578063f2b9fdb81461030b5763f3fef3a30361000e57610306611a0e565b61000e565b506103066119e1565b5061030661199b565b50610306611828565b5061030661173d565b506103066116c9565b506103066116aa565b50610306611683565b50610306611669565b5061030661163e565b506103066115cd565b50610306611587565b50610306611522565b50610306611508565b506103066114ec565b5061030661144c565b50610306611394565b50610306611358565b5061030661130a565b506103066112ce565b5061030661128f565b50610306611268565b5061030661121d565b506103066111f5565b506103066111c5565b50610306611189565b5061030661114d565b50610306611111565b506103066110d5565b506103066110b9565b50610306611092565b50610306611031565b50610306610ff5565b50610306610fd9565b50610306610fad565b50610306610f71565b50610306610f49565b50610306610f22565b50610306610ee6565b50610306610e8f565b50610306610e49565b50610306610c90565b50610306610c4a565b50610306610c30565b50610306610c16565b50610306610bee565b50610306610bb9565b50610306610af7565b50610306610acf565b50610306610a93565b50610306610a54565b50610306610a18565b506103066109da565b5061030661099e565b50610306610933565b506103066108b5565b50610306610899565b5061030661081a565b506103066107d3565b5061030661076b565b506103066106dd565b506103066106a1565b50610306610635565b506103066105ef565b506103066105c9565b506103066105a5565b50610306610573565b6001600160a01b0381160361056e57565b600080fd5b503461056e57602036600319011261056e57602061059b6004356105968161055d565b612d85565b6040519015158152f35b503461056e57600036600319011261056e5760206105c1612a38565b604051908152f35b503461056e57600036600319011261056e5760206001805460f81c161515604051908152f35b503461056e57600036600319011261056e576040517f00000000000000000000000000000000000000000000000000000000000000006001600160a01b03168152602090f35b503461056e57600036600319011261056e57602066038d7ea4c6800061069861065c612227565b6001600160681b036001600160401b0361068f6001549361068964ffffffffff91828760d01c169061229c565b16612503565b50169116611b6d565b04604051908152f35b503461056e57600036600319011261056e5760206040517f00000000000000000000000000000000000000000000000000000000000000008152f35b503461056e576000806003193601126107685764ffffffffff60015460d01c166107575761073361070c612227565b6001805464ffffffffff60d01b191660d09290921b64ffffffffff60d01b16919091179055565b80546001600160801b0319166e038d7ea4c6800000038d7ea4c68000178155604051f35b60405162dc149f60e41b8152600490fd5b80fd5b503461056e57600036600319011261056e5760206040517f00000000000000000000000000000000000000000000000000000000000000008152f35b606090600319011261056e576004356107bf8161055d565b906024356107cc8161055d565b9060443590565b503461056e5761080f6107e5366107a7565b91907f0000000000000000000000000000000000000000000000000000000000000000913361390e565b602060405160018152f35b503461056e57600036600319011261056e576040517f00000000000000000000000000000000000000000000000000000000000000006001600160a01b03168152602090f35b608090600319011261056e576004356108788161055d565b906024356108858161055d565b906044356108928161055d565b9060643590565b503461056e576100166108ab36610860565b9291909133613de4565b503461056e57600036600319011261056e5760206040517f00000000000000000000000000000000000000000000000000000000000000008152f35b604090600319011261056e576004356109098161055d565b906024356109168161055d565b90565b6001600160a01b0316600090815260056020526040902090565b503461056e5761099a610975610948366108f1565b9060018060a01b0316600052600660205260406000209060018060a01b0316600052602052604060002090565b54604080516001600160801b038316815260809290921c602083015290918291820190565b0390f35b503461056e57600036600319011261056e5760206040517f00000000000000000000000000000000000000000000000000000000000000008152f35b503461056e57602036600319011261056e576004356109f88161055d565b60018060a01b031660005260046020526020604060002054604051908152f35b503461056e57600036600319011261056e5760206040517f00000000000000000000000000000000000000000000000000000000000000008152f35b503461056e57600036600319011261056e57602060405160ff7f0000000000000000000000000000000000000000000000000000000000000000168152f35b503461056e57600036600319011261056e5760206040517f00000000000000000000000000000000000000000000000000000000000000008152f35b503461056e57602036600319011261056e5760206105c1600435610af28161055d565b6148d9565b503461056e57602036600319011261056e57602061059b600435610b1a8161055d565b612b65565b610bb79092919260e08061010083019560ff815116845260018060a01b0380602083015116602086015260408201511660408501526001600160401b036060820151166060850152610b81608082015160808601906001600160401b03169052565b60a0818101516001600160401b03169085015260c0818101516001600160401b03169085015201516001600160801b0316910152565b565b503461056e57602036600319011261056e5761099a610be2600435610bdd8161055d565b6121a3565b60405191829182610b1f565b503461056e57602036600319011261056e5760206105c1600435610c118161055d565b612877565b503461056e57610016610c28366107a7565b9133336131df565b503461056e57610016610c42366107a7565b91333361390e565b503461056e57600036600319011261056e5760206040517f00000000000000000000000000000000000000000000000000000000000000008152f35b8015150361056e57565b503461056e5760a036600319011261056e57600435610cae81610c86565b602435610cba81610c86565b60443591610cc783610c86565b60643592610cd484610c86565b608435610ce081610c86565b60018060a01b03807f0000000000000000000000000000000000000000000000000000000000000000163314159081610e1c575b50610e0b577f3be39979091ae7ca962aa1c44e645f2df3c221b79f324afa5f44aedc8d2f690d94610e0692610dd1610d54610d4e87614bed565b60ff1690565b610d69610d6089614bed565b60011b60fe1690565b17610d7f610d7684614bed565b60021b60fc1690565b17610d95610d8c85614bed565b60031b60f81690565b17610dab610da286614bed565b60041b60f01690565b600180546001600160f81b03169290911760f81b6001600160f81b031916919091179055565b6040519586958693909594919260809360a0860197151586521515602086015215156040850152151560608401521515910152565b0390a1005b6040516282b42960e81b8152600490fd5b90507f00000000000000000000000000000000000000000000000000000000000000001633141538610d14565b503461056e57600036600319011261056e576040517f00000000000000000000000000000000000000000000000000000000000000006001600160a01b03168152602090f35b503461056e57602036600319011261056e57600435610ead8161055d565b6001600160a01b03166000908152600260209081526040918290205482516001600160801b038216815260809190911c91810191909152f35b503461056e57600036600319011261056e5760206040517f00000000000000000000000000000000000000000000000000000000000000008152f35b503461056e57600036600319011261056e576020600460015460f81c161515604051908152f35b503461056e57602036600319011261056e5760206105c1600435610f6c8161055d565b61487b565b503461056e57600036600319011261056e5760206040517f00000000000000000000000000000000000000000000000000000000000000008152f35b503461056e57604036600319011261056e5760206105c1600435610fd08161055d565b6024359061475f565b503461056e57600036600319011261056e5760206105c16127d9565b503461056e57600036600319011261056e5760206040517f00000000000000000000000000000000000000000000000000000000000000008152f35b503461056e57600036600319011261056e57602066038d7ea4c68000610698611058612227565b6001600160681b036001600160401b036110856001549361068964ffffffffff91828760d01c169061229c565b9050169160681c16611b6d565b503461056e57600036600319011261056e576020600860015460f81c161515604051908152f35b503461056e576100166110cb36610860565b92919091336131df565b503461056e57600036600319011261056e5760206040517f00000000000000000000000000000000000000000000000000000000000000008152f35b503461056e57600036600319011261056e5760206040517f00000000000000000000000000000000000000000000000000000000000000008152f35b503461056e57600036600319011261056e5760206040517f00000000000000000000000000000000000000000000000000000000000000008152f35b503461056e57600036600319011261056e5760206040517f00000000000000000000000000000000000000000000000000000000000000008152f35b503461056e57602036600319011261056e5760206111e46004356126ba565b6001600160401b0360405191168152f35b503461056e57602036600319011261056e5760206105c16004356112188161055d565b612931565b503461056e57602060ff61125c611233366108f1565b6001600160a01b0391821660009081526003865260408082209290931681526020919091522090565b54166040519015158152f35b503461056e57600036600319011261056e576020600260015460f81c161515604051908152f35b503461056e57600036600319011261056e57602060405160ff7f0000000000000000000000000000000000000000000000000000000000000000168152f35b503461056e57600036600319011261056e5760206040517f00000000000000000000000000000000000000000000000000000000000000008152f35b503461056e57604036600319011261056e5761080f60043561132b8161055d565b602435907f000000000000000000000000000000000000000000000000000000000000000090333361390e565b503461056e57600036600319011261056e5760206040517f00000000000000000000000000000000000000000000000000000000000000008152f35b503461056e576113a3366107a7565b6001600160a01b03917f000000000000000000000000000000000000000000000000000000000000000083163303610e0b5760405163095ea7b360e01b81526001600160a01b03949094166004850152602484019190915260209183916044918391600091165af1801561143f575b61141857005b6100169060203d8111611438575b6114308183611a6c565b810190613521565b503d611426565b61144761286a565b611412565b503461056e57602036600319011261056e5761001660043561146d8161055d565b6114756122e6565b60018060a01b038116600052600560205260406000206114e16040519161149b83611a3b565b5480600c0b83526001600160401b03808260681c1660208501528160a81c1660408401526114d761ffff8260e81c16606085019061ffff169052565b60f81c6080830152565b8051600c0b91612ffa565b503461056e576100166114fe36610860565b929190913361390e565b503461056e5761001661151a366107a7565b913333613de4565b503461056e57604036600319011261056e576004356115408161055d565b602435906001600160401b039081831161056e573660238401121561056e57826004013591821161056e573660248360051b8501011161056e576024610016930190614216565b503461056e57600036600319011261056e576040517f00000000000000000000000000000000000000000000000000000000000000006001600160a01b03168152602090f35b503461056e57602036600319011261056e576004356115eb8161055d565b60018060a01b0316600052600760205260806040600020546040519063ffffffff811682526001600160401b038160201c1660208301526001600160801b038160601c16604083015260e01c6060820152f35b503461056e57602036600319011261056e5760043560ff8116810361056e57610be261099a91611b9f565b503461056e57602061059b61167d366108f1565b90614960565b503461056e57600036600319011261056e576020601060015460f81c161515604051908152f35b503461056e57602036600319011261056e5760206111e46004356125aa565b503461056e57602036600319011261056e576004356116e78161055d565b60018060a01b0316600052600560205260a06040600020546040519080600c0b82526001600160401b03808260681c1660208401528160a81c16604083015261ffff8160e81c16606083015260f81c6080820152f35b503461056e57604036600319011261056e5760043561175b8161055d565b602435906001600160a01b037f000000000000000000000000000000000000000000000000000000000000000081163303610e0b57611798612a38565b60008112908115611816575b5061180457816117f6847fec4431f2ba1a9382f6b0c4352b888cba6f7db91667d9f776abe5ad8ddc5401b6947f0000000000000000000000000000000000000000000000000000000000000000613ff7565b6040519384521691602090a2005b60405163128bd24d60e31b8152600490fd5b6118209150614be2565b8311386117a4565b503461056e57608036600319011261056e576004356118468161055d565b604435606435916118568361055d565b601060015460f81c166119895761186b612a38565b6000811215908161195e575b5061194c576118a782337f0000000000000000000000000000000000000000000000000000000000000000613536565b6118b1828261475f565b92602435841061193a576118c482612931565b8411611804577ff891b2a411b0e66a5f0a6ff1368670fefa287a13f541eb633a386a1a9cc7046b916119126119359261190b6118ff88614b3b565b6001600160801b031690565b9083613ff7565b6040805194855260208501959095526001600160a01b0316933393918291820190565b0390a3005b60405163fa6ad35560e01b8152600490fd5b604051631d99ddbf60e01b8152600490fd5b90507f0000000000000000000000000000000000000000000000000000000000000000111538611877565b6040516313d0ff5960e31b8152600490fd5b503461056e57600036600319011261056e576040517f00000000000000000000000000000000000000000000000000000000000000006001600160a01b03168152602090f35b503461056e57604036600319011261056e57610016600435611a028161055d565b602435903333336131df565b503461056e57604036600319011261056e57610016600435611a2f8161055d565b60243590333333613de4565b60a081019081106001600160401b03821117611a5657604052565b634e487b7160e01b600052604160045260246000fd5b90601f801991011681019081106001600160401b03821117611a5657604052565b6040519061010082018281106001600160401b03821117611a5657604052565b6040519061010082018281106001600160401b03821117611a56576040528160e06000918281528260208201528260408201528260608201528260808201528260a08201528260c08201520152565b50634e487b7160e01b600052601260045260246000fd5b50634e487b7160e01b600052601160045260246000fd5b66038d7ea4c68000908060001904821181151516611b46570290565b611b4e611b13565b0290565b655af3107a4000908060001904821181151516611b46570290565b8060001904821181151516611b46570290565b60ff16604d8111611b92575b600a0a90565b611b9a611b13565b611b8c565b611ba7611aad565b5060ff811660ff7f0000000000000000000000000000000000000000000000000000000000000000168110156121915780611d2157507f00000000000000000000000000000000000000000000000000000000000000007f00000000000000000000000000000000000000000000000000000000000000005b61ffff808260a01c16611c3290611b52565b6001600160401b0316818360b01c16611c4a90611b52565b6001600160401b0316918360c01c16611c6290611b52565b6001600160401b0316928460a01c60ff16611c7c90611b80565b6001600160401b031690611ca06001600160401b038084169060a889901c16611b6d565b6001600160801b031695611cb2611a8d565b60ff90981688526001600160a01b039182166020890152166001600160a01b031660408701526001600160401b031660608601526001600160401b031660808501526001600160401b031660a08401526001600160401b031660c08301526001600160801b031660e082015290565b60018103611d7157507f00000000000000000000000000000000000000000000000000000000000000007f0000000000000000000000000000000000000000000000000000000000000000611c20565b60028103611dc157507f00000000000000000000000000000000000000000000000000000000000000007f0000000000000000000000000000000000000000000000000000000000000000611c20565b60038103611e1157507f00000000000000000000000000000000000000000000000000000000000000007f0000000000000000000000000000000000000000000000000000000000000000611c20565b60048103611e6157507f00000000000000000000000000000000000000000000000000000000000000007f0000000000000000000000000000000000000000000000000000000000000000611c20565b60058103611eb157507f00000000000000000000000000000000000000000000000000000000000000007f0000000000000000000000000000000000000000000000000000000000000000611c20565b60068103611f0157507f00000000000000000000000000000000000000000000000000000000000000007f0000000000000000000000000000000000000000000000000000000000000000611c20565b60078103611f5157507f00000000000000000000000000000000000000000000000000000000000000007f0000000000000000000000000000000000000000000000000000000000000000611c20565b60088103611fa157507f00000000000000000000000000000000000000000000000000000000000000007f0000000000000000000000000000000000000000000000000000000000000000611c20565b60098103611ff157507f00000000000000000000000000000000000000000000000000000000000000007f0000000000000000000000000000000000000000000000000000000000000000611c20565b600a810361204157507f00000000000000000000000000000000000000000000000000000000000000007f0000000000000000000000000000000000000000000000000000000000000000611c20565b600b810361209157507f00000000000000000000000000000000000000000000000000000000000000007f0000000000000000000000000000000000000000000000000000000000000000611c20565b600c81036120e157507f00000000000000000000000000000000000000000000000000000000000000007f0000000000000000000000000000000000000000000000000000000000000000611c20565b600d810361213157507f00000000000000000000000000000000000000000000000000000000000000007f0000000000000000000000000000000000000000000000000000000000000000611c20565b600e0361217f577f00000000000000000000000000000000000000000000000000000000000000007f0000000000000000000000000000000000000000000000000000000000000000611c20565b60405163971241a160e01b8152600490fd5b604051633640530560e01b8152600490fd5b906121ac611aad565b5060009060ff92837f000000000000000000000000000000000000000000000000000000000000000016925b83858216106121f357604051633640530560e01b8152600490fd5b6121fc81611b9f565b60208101516001600160a01b0384811691161461221e575060010184166121d8565b93505050915090565b650100000000004210156122405764ffffffffff421690565b604051633d32ffdb60e01b8152600490fd5b9060405161225f81611a3b565b608081935480600c0b83526001600160401b03808260681c1660208501528160a81c16604084015261ffff8160e81c16606084015260f81c910152565b64ffffffffff91821691168181106122b2570390565b6122ba611b13565b0390565b906001600160401b0380809316911680920381116122da570190565b6122e2611b13565b0190565b6122ee612227565b61231861230e61230860015464ffffffffff9060d01c1690565b8361229c565b64ffffffffff1690565b9081612322575050565b8161237d612361612335610bb795612503565b91909167ffffffffffffffff60401b6000549160401b169067ffffffffffffffff60401b191617600055565b6001600160401b03166001600160401b03196000541617600055565b6001547f000000000000000000000000000000000000000000000000000000000000000091906001600160681b031682811015612485575b506001546123d69060681c6001600160681b03165b6001600160681b031690565b91821015612408575b50506001805464ffffffffff60d01b191660d09290921b64ffffffffff60d01b16919091179055565b61244961244461247e9361243f612459947f0000000000000000000000000000000000000000000000000000000000000000611b6d565b612e9b565b614aef565b60005460c01c6122be565b6122be565b600080546001600160c01b031660c09290921b6001600160c01b031916919091179055565b38806123df565b6124d06124bc6124446124fd9361243f867f0000000000000000000000000000000000000000000000000000000000000000611b6d565b60005460801c6001600160401b03166122be565b6000805467ffffffffffffffff60801b191660809290921b67ffffffffffffffff60801b16919091179055565b386123b5565b906000546001600160401b0392838083169260401c169381612526575b50509190565b81612579612573612553979461258561258b9761257f8761255a61257f9961254c6127d9565b9e8f6125aa565b169d6126ba565b169b612579612573670de0b6b3a7640000998a93611b6d565b84611b6d565b04614aef565b906122be565b98611b6d565b913880612520565b811981116122da570190565b8181106122b2570390565b7f00000000000000000000000000000000000000000000000000000000000000008082116126335750612444670de0b6b3a764000061260c610916937f0000000000000000000000000000000000000000000000000000000000000000611b6d565b047f0000000000000000000000000000000000000000000000000000000000000000612593565b61091691612444916126a6670de0b6b3a7640000916126768361260c837f0000000000000000000000000000000000000000000000000000000000000000611b6d565b938181106126ad575b037f0000000000000000000000000000000000000000000000000000000000000000611b6d565b0490612593565b6126b5611b13565b61267f565b7f00000000000000000000000000000000000000000000000000000000000000008082116127435750612444670de0b6b3a764000061271c610916937f0000000000000000000000000000000000000000000000000000000000000000611b6d565b047f0000000000000000000000000000000000000000000000000000000000000000612593565b61091691612444916126a6670de0b6b3a7640000916127868361271c837f0000000000000000000000000000000000000000000000000000000000000000611b6d565b938181106127b6575b037f0000000000000000000000000000000000000000000000000000000000000000611b6d565b6127be611b13565b61278f565b81156127cd570490565b6127d5611afc565b0490565b60005460015461281b66038d7ea4c68000916001600160401b036001600160681b03908461280b828816848616611b6d565b049560401c169160681c16611b6d565b0481612828575050600090565b670de0b6b3a764000090806000190482118115151661284657020490565b61284e611b13565b020490565b519069ffffffffffffffffffff8216820361056e57565b506040513d6000823e3d90fd5b604051633fabe5a360e21b81529060a090829060049082906001600160a01b03165afa908115612915575b6000916128c9575b5060008113156128b75790565b60405163fd1ee34960e01b8152600490fd5b9060a0823d821161290d575b816128e260a09383611a6c565b8101031261076857506128f481612853565b50612906608060208301519201612853565b50386128aa565b3d91506128d5565b61291d61286a565b6128a2565b9081602091031261056e575190565b6040516370a0823160e01b8152306004820152906001600160a01b0316602082602481845afa9182156129bb575b60009261298b575b5060005260026020526001600160801b0360406000205416908181106122b2570390565b6129ad91925060203d81116129b4575b6129a58183611a6c565b810190612922565b9038612967565b503d61299b565b6129c361286a565b61295f565b600082128015600160ff1b84018312166129f2575b6001600160ff1b0383018213166122b2570390565b6129fa611b13565b6129dd565b6000811280156001600160ff1b03839003841316612a2b575b600160ff1b8290038312166122da570190565b612a33611b13565b612a18565b610916612a43612227565b612a66612a6161230e6001549364ffffffffff8560d01c169061229c565b612503565b6040516370a0823160e01b8152306004820152929091906020846024816001600160a01b037f0000000000000000000000000000000000000000000000000000000000000000165afa938415612b58575b600094612b20575b5091612b14612b0e612b0e93612b07612b1a9666038d7ea4c68000926001600160401b0384612afa826001600160681b039416848616611b6d565b0497169160681c16611b6d565b0495614b96565b91614b96565b906129c8565b906129ff565b612b1a93919450612b0e612b0e93612b07612b4b612b149460203d81116129b4576129a58183611a6c565b9794965050935050612abf565b612b6061286a565b612ab7565b90612b8c612b858360018060a01b03166000526005602052604060002090565b54600c0b90565b906000928383600c0b1215612d7c57612c2d612bd4612bce612bc38496959660018060a01b03166000526005602052604060002090565b5460e81c61ffff1690565b936149a8565b612bfd7f0000000000000000000000000000000000000000000000000000000000000000612877565b6001600160401b037f00000000000000000000000000000000000000000000000000000000000000001691612ee5565b90849360ff95867f000000000000000000000000000000000000000000000000000000000000000016955b8781169087821015612d6e5790889161ffff600180931b891616612c7e575b0116612c58565b9590915082811215612d625790612d5c8992612b1a612d5788612d51612d456080612d36612cfc8f612cd1612cb5612cef92611b9f565b6001600160a01b03909816600090815260066020526040902090565b6020888101516001600160a01b031660009081529190526040902090565b546001600160801b031690565b6040860151612d13906001600160a01b0316612877565b6001600160801b03612d2f60608901516001600160401b031690565b9216612ec6565b9301516001600160401b031690565b6001600160401b031690565b90612e88565b614b96565b95612c77565b50955050945050505090565b505094509450509050121590565b50915050600190565b90612da5612b858360018060a01b03166000526005602052604060002090565b906000928383600c0b1215612e8357612ddc612bd4612bce612bc38496959660018060a01b03166000526005602052604060002090565b90849360ff95867f000000000000000000000000000000000000000000000000000000000000000016955b8781169087821015612e765790889161ffff600180931b891616612e2d575b0116612e07565b9590915082811215612e6a5790612e648992612b1a612d5788612d51612d4560a0612d36612cfc8f612cd1612cb5612cef92611b9f565b95612e26565b50509450945050505090565b5050945094505090501290565b509050565b670de0b6b3a7640000916127d591611b6d565b6127c3907f000000000000000000000000000000000000000000000000000000000000000090611b6d565b6001600160401b0391612ed891611b6d565b91169081156127cd570490565b9190612ef86001600160401b0391614b96565b6000808513949082136001600160ff1b03868216848204841116612fa9575b600160ff1b96600085129185918316858a05831216612f9c575b60008512938416828a05861216612f8f575b058312911616612f82575b029116918215612f75575b8114600019831416612f69570590565b612f71611b13565b0590565b612f7d611afc565b612f59565b612f8a611b13565b612f4e565b612f97611b13565b612f43565b612fa4611b13565b612f31565b612fb1611b13565b612f17565b6001600160401b0391821691168181106122b2570390565b600c0b6c7fffffffffffffffffffffffff198114612fed575b60000390565b612ff5611b13565b612fe7565b61311990610bb79361300d8451600c0b90565b600c82900b855260009182918683600c83900b811361319f576130a261307b6130ef946001600160681b03613074612d456130c99761306e602061305f6124449a546001600160401b039060801c1690565b9201516001600160401b031690565b90612fb6565b9116611b6d565b7f0000000000000000000000000000000000000000000000000000000000000000906127c3565b7f0000000000000000000000000000000000000000000000000000000000000000906127c3565b6130e2604089019161245483516001600160401b031690565b6001600160401b03169052565b600c0b1261319257546109199060801c6001600160401b03165b6001600160401b03166020850152565b815160208301516040840151606085015160809095015160e89590951b61ffff60e81b1660a89190911b67ffffffffffffffff60a81b166001600160681b0390931660689290921b67ffffffffffffffff60681b169190911791909117176001600160f81b031960f89390931b92909216919091179055565b546109199060c01c613109565b6130a261307b6131da946131d56123ca6123ca6131cf612d456130c99961306e602061305f6124449c5460c01c90565b93612fce565b611b6d565b6130ef565b939290936001805460f81c16611989576131fc6132009186614960565b1590565b610e0b576001600160a01b038181167f0000000000000000000000000000000000000000000000000000000000000000909116036132575750610bb79260001983036132d6579150613251816148d9565b916132d6565b90613265610bb79493614b3b565b92613666565b906001600160681b0380809316911680920381116122da570190565b6001600160681b0391821691168181106122b2570390565b600180546cffffffffffffffffffffffffff60681b191660689290921b6cffffffffffffffffffffffffff60681b16919091179055565b6133bd919261330681837f0000000000000000000000000000000000000000000000000000000000000000613536565b61330e6122e6565b6001600160a01b03841660009081526005602052604090206133c89061333890612252565b612252565b8051600c0b906133c261336861336161335c613353866149a8565b612b1a89614b96565b614a3f565b80946134a7565b97906133a46133888a6133836001546001600160681b031690565b61326b565b6001600160681b03166001600160681b03196001541617600155565b60015460681c6001600160681b0316613287565b613287565b61329f565b86612ffa565b6040519081526001600160a01b0393841693849216907fd1cf3d156d5f8f0d50f6c122ed609cec09d35c9b9fb3fff6ea0959134dae424e90602090a36001600160681b038116613416575050565b600080516020614bfc83398151915261345461344460009361343f85546001600160401b031690565b614a1a565b6040519081529081906020820190565b0390a3565b600c91820b910b6000821280156c7fffffffffffffffffffffffff19840183121661349a575b826c7fffffffffffffffffffffffff018213166122b2570390565b6134a2611b13565b61347f565b91909180600c0b83600c0b818112613514576000126134da57506134cb9192613459565b6001600160681b031690600090565b6000136134fb576134eb9192613459565b6001600160681b03169060009190565b61350490612fce565b6001600160681b03908116921690565b5050509050600090600090565b9081602091031261056e575161091681610c86565b6040516323b872dd60e01b81526001600160a01b039283166004820152306024820152604481019390935260209183916064918391600091165af19081156135b9575b60009161359b575b501561358957565b60405163073d1efd60e51b8152600490fd5b6135b3915060203d8111611438576114308183611a6c565b38613581565b6135c161286a565b613579565b90604051604081018181106001600160401b03821117611a565760405291546001600160801b038116835260801c6020830152565b906001600160801b0380809316911680920381116122da570190565b906001600160801b03166001600160801b0319825416179055565b9060206001600160801b039161364b8382511685613617565b0151908254916001600160801b03199060801b169116179055565b919290926001600160801b03906136808284168583613536565b613689816121a3565b906136ae6136a98260018060a01b03166000526002602052604060002090565b6135c6565b926136d96136cc866136c787516001600160801b031690565b6135fb565b6001600160801b03168552565b83516001600160801b0316906136fc6118ff60e08601516001600160801b031690565b9116116137f8576137c86137a3856137f3946137c27ffa56f7b24f17183d81894d3ac2ee654e3c26388d17a28dbd9549b8114304e1f4976137bd876137618e61377f613778612cef856137618560018060a01b03166000526006602052604060002090565b9060018060a01b0316600052602052604060002090565b98896135fb565b98899561379e8560018060a01b03166000526002602052604060002090565b613632565b6001600160a01b0316600090815260066020526040902090565b613617565b8961380a565b6040516001600160801b0390941684526001600160a01b039081169581169416929081906020820190565b0390a4565b604051637ac7b99d60e11b8152600490fd5b909290916001600160801b03908116158080613903575b156138895750505061386161384560ff610bb7945116600160ff61ffff92161b1690565b6001600160a01b03909216600090815260056020526040902090565b805461ffff60e81b19811660e891821c61ffff16909317901b61ffff60e81b16919091179055565b1591826138f8575b505061389b575050565b61ffff6138d46138ba60ff610bb7955116600160ff61ffff92161b1690565b199260018060a01b03166000526005602052604060002090565b91825460e81c161681549061ffff60e81b9060e81b169061ffff60e81b1916179055565b161590503880613891565b508183161515613821565b93929093600260015460f81c16611989576131fc61392c9186614960565b610e0b576001600160a01b03848116838216146139a457807f000000000000000000000000000000000000000000000000000000000000000016908216146000146139905750610bb79260001983036139c757915061398a8261487b565b916139c7565b9061399e610bb79493614b3b565b92613ca5565b60405163e397a99b60e01b8152600490fd5b600160ff1b8114612fed5760000390565b9190916139d26122e6565b6001600160a01b03811660009081526005602052604090206139f390612252565b6001600160a01b0384166000908152600560205260409020613a1490612252565b928151613a2190600c0b90565b938051613a2e90600c0b90565b92613a38866149a8565b613a4184614b96565b613a4a916129c8565b92613a54856149a8565b90613a5e90614b96565b613a67916129ff565b90613a7184614a3f565b613a7b8193614a3f565b978893613a8791613c40565b98613a9291976134a7565b98878a600154613aa8906001600160681b031690565b90613ab29161326b565b90613abc91613287565b613adc906001600160681b03166001600160681b03196001541617600155565b60015460681c6001600160681b031690613af59161326b565b90613aff91613287565b613b089061329f565b613b129187612ffa565b613b1c9187612ffa565b60008112613bd7575b506001600160681b0391828216613b88575b50508116613b43575050565b600080516020614bfc833981519152613454613b6c60009361343f85546001600160401b031690565b6040519081526001600160a01b03909416939081906020820190565b600080516020614bfc833981519152613bcd613bb160009461343f86546001600160401b031690565b6040519081526001600160a01b03909316929081906020820190565b0390a33880613b37565b613be0906139b6565b7f000000000000000000000000000000000000000000000000000000000000000011613c2e57613c126131fc83612b65565b613c1c5738613b25565b604051630a62fbdb60e11b8152600490fd5b604051637139da2360e11b8152600490fd5b919082600c0b81600c0b81811361351457600013613c6357506134cb9192613459565b600012613c74576134eb9192613459565b613c7d90612fce565b6001600160681b03928316921690565b6001600160801b0391821691168181106122b2570390565b6001600160a01b0381811660008181526006602081815260408084208987168086529083528185205489881686529383528185209085529091529091205494969591946001600160801b039492939291908516908516613d058882613c8d565b91613d1089826135fb565b918387613d2f8760018060a01b03166000526006602052604060002090565b6001600160a01b0390911660009081526020919091526040902090613d5391613617565b6001600160a01b038b81166000908152600660209081526040808320938b16835292905220613d83908490613617565b613d8c876121a3565b93613d9891858761380a565b613da2928a61380a565b613dab90612b65565b15613c1c57806020927f29db89d45e1a802b4d55e202984fce9faf1d30aedf86503ff1ea0ed9ebb64201946040519716875216951693a4565b93929093600460015460f81c16611989576131fc613e029186614960565b610e0b576001600160a01b038181167f000000000000000000000000000000000000000000000000000000000000000090911603613e595750610bb7926000198303613e6d579150613e538261487b565b91613e6d565b90613e67610bb79493614b3b565b92614081565b90916133bd92613e7b6122e6565b6001600160a01b0383166000908152600560205260409020613e9c90612252565b613f06613eaa8251600c0b90565b613ebf613eb6826149a8565b612b1487614b96565b926133c2613ed6613ecf86614a3f565b8094613c40565b613ef2613388836133b860019e959e546001600160681b031690565b60015460681c6001600160681b031661326b565b60008112613fb2575b50613f3b82827f0000000000000000000000000000000000000000000000000000000000000000613ff7565b6040519182526001600160a01b0392831692169082907f9b1bfa7fa9ee420a16e124f794c35ac9f90472acc99140eb2f6447c714cad8eb90602090a36001600160681b038216613f89575050565b600080516020614bfc83398151915261345461344460009461343f86546001600160401b031690565b613fbb906139b6565b7f000000000000000000000000000000000000000000000000000000000000000011613c2e57613fed6131fc84612b65565b613c1c5738613f0f565b60405163a9059cbb60e01b81526001600160a01b039283166004820152602481019390935260209183916044918391600091165af1908115614074575b600091614056575b501561404457565b60405163cefaffeb60e01b8152600490fd5b61406e915060203d8111611438576114308183611a6c565b3861403c565b61407c61286a565b614034565b909260018060a01b03918281169283600052600660205261413a6001600160801b0392610b1a846140c88960406000209060018060a01b0316600052602052604060002090565b54166140d48782613c8d565b906141076140f48b60018060a01b03166000526002602052604060002090565b6141018a8a835416613c8d565b90613617565b61412b826137bd8c6137618860018060a01b03166000526006602052604060002090565b6141348a6121a3565b8461380a565b15613c1c57806020927fd6d480d5b3068db003533b170d67561494d72e3bf9fa40a266471351ebba9e16941695614172878983613ff7565b60405196875216951693a4565b919081101561418f5760051b0190565b634e487b7160e01b600052603260045260246000fd5b356109168161055d565b90604051608081016001600160401b0382821081831117611a56576060916040528294549063ffffffff821684528160201c1660208401526001600160801b0381831c16604084015260e01c910152565b60019063ffffffff8091169081146122da570190565b9291909260016008815460f81c16611989575a946142326122e6565b60005b84811061436e5750505061430e906142f46142ce6142c961425b610bb797985a9061259f565b6142c26142a96142856142808860018060a01b03166000526007602052604060002090565b6141af565b9861244461429f61429a8c5163ffffffff1690565b614200565b63ffffffff168b52565b6130e260208a019161245483516001600160401b031690565b4890611b6d565b614b3b565b6142e760408601916136c783516001600160801b031690565b6001600160801b03169052565b6001600160a01b0316600090815260076020526040902090565b815160208084015160408501516060958601516001600160e01b031960e09190911b166fffffffffffffffffffffffffffffffff60601b9190961b1663ffffffff9093166bffffffffffffffff000000009190921b161717919091179055565b8061438c6143866143818694898761417f565b6141a5565b86614392565b01614235565b9161439f6131fc83612d85565b61474d57906143c36133338260018060a01b03166000526005602052604060002090565b906143cf8251600c0b90565b936143d9856149a8565b926060906143eb8282015161ffff1690565b6144147f0000000000000000000000000000000000000000000000000000000000000000612877565b96600092839860ff9a8b7f0000000000000000000000000000000000000000000000000000000000000000169a5b8c8116908c82101561459f57908d91898c8c61ffff600180961b8c161661446e575b5050500116614442565b90919a61447a84611b9f565b6020818101516001600160a01b0386811660009081526006845260408082209290931680825291845282812080546001600160801b03198116909155600290945291909120805493946001600160801b0393841694929390926144df91869116613c8d565b6144e891613617565b604084810151909f906001600160a01b031661450390612877565b908501516001600160401b0316614523916001600160801b038616612ec6565b60c0949094015161453d906001600160401b031685612e88565b61454691612593565b9d516001600160801b0392909216825260208201929092526001600160a01b0391821693821692909116907f9850ab1af75177e4a9201c65a2cf7976d5d28e40ef63494b44366f86b2f9412e90604090a4898c8c614464565b50509497969950945096915097506145f66145f0612d57856145eb6001600160401b037f000000000000000000000000000000000000000000000000000000000000000016809a611b6d565b6127c3565b826129ff565b9160008312614744575b61460983614a3f565b96876146159187612ffa565b6001600160a01b03851660009081526005602052604090208790805461ffff60e81b19169055614644916134a7565b6001546001600160681b03169061465a9161326b565b61467a906001600160681b03166001600160681b03196001541617600155565b60015460681c6001600160681b03169061469391613287565b61469c9061329f565b6146a5916129c8565b6146ae90614be2565b926146b99184612ec6565b6040805193845260208401919091526001600160a01b039182169485939216917f1547a878dc89ad3c367b6338b4be6a65a5dd74fb77ae044da1e8747ef1f4f62f9190a380600c0b60001261470c575050565b600080516020614bfc83398151915261345461344460009361473e61473886546001600160401b031690565b91614bb9565b90614a1a565b60009250614600565b604051636ef5bcdd60e11b8152600490fd5b9061482461476f610916936121a3565b6147ef606061481a61478c60018060a01b03604086015116612877565b6001600160401b039384918260c0880151166147de670de0b6b3a764000094828693841061486e575b8303167f0000000000000000000000000000000000000000000000000000000000000000611b6d565b04808410614861575b830390611b6d565b04956131d57f0000000000000000000000000000000000000000000000000000000000000000612877565b9201511690611b6d565b908015614854575b7f000000000000000000000000000000000000000000000000000000000000000091046127c3565b61485c611afc565b61482c565b614869611b13565b6147e7565b614876611b13565b6147b5565b61489e614886612227565b61068964ffffffffff918260015460d01c169061229c565b506001600160a01b03909116600090815260056020526040812054600c0b9190808313156148d3575061473e61091692614bb9565b91505090565b6148e4614886612227565b6001600160a01b03909216600090815260056020526040812054600c0b929150808312156148d3575061473e61491c61091693612fce565b614bb9565b50600036818037808036817f00000000000000000000000000000000000000000000000000000000000000005af43d82803e1561495c573d90f35b3d90fd5b6001600160a01b0380831691169081149190821561497d57505090565b60009081526003602090815260408083206001600160a01b0390941683529290522060ff9150541690565b6000600c82900b126149e45766038d7ea4c680006149de610916926001600160401b0360005416906001600160681b0316611b6d565b04614b96565b614a15612d5761091692614a066001600160401b0360005460401c1691612fce565b6001600160681b031690614a1a565b6139b6565b66038d7ea4c68000916001600160681b036001600160401b036127d593169116611b6d565b60008112614a8257614a7061091691614a636001600160401b036000541691611b2a565b8115614a75575b04614b15565b614b61565b614a7d611afc565b614a6a565b614ad0614a70614aac614ab661091694614ab16001600160401b0360005460401c169384926139b6565b611b2a565b612593565b60018110614ae2575b8115614ad5575b6000190104614b15565b612fce565b614add611afc565b614ac6565b614aea611b13565b614abf565b6001600160401b0390818111614b03571690565b6040516372a1cb5160e11b8152600490fd5b6001600160681b0390818111614b29571690565b604051630dc7925560e11b8152600490fd5b6001600160801b0390818111614b4f571690565b60405163762ea71160e11b8152600490fd5b6001600160681b03166c7fffffffffffffffffffffffff8111614b8457600c0b90565b604051639369ae3560e01b8152600490fd5b6001600160ff1b038111614ba75790565b60405163e7e828ad60e01b8152600490fd5b600081600c0b12614bd0576001600160681b031690565b60405163363b64b760e11b8152600490fd5b60008112614bd05790565b60009015610916575060019056feddf252ad1be2c89b69c2b068fc378daa952ba7f163c4a11628f55a4df523b3efa264697066735822122087623c46b06b50c1a860354f6fef846da3ab824ca85173af6024d56e78f6078864736f6c634300080f0033a264697066735822122066ac367d9158d78a7b6e479647eb46108f82e8323324b1067ce35cd6965686c564736f6c634300080f0033",
  "immutableReferences": {},
  "source": "// SPDX-License-Identifier: BUSL-1.1\npragma solidity 0.8.15;\n\nimport \"./Comet.sol\";\nimport \"./CometConfiguration.sol\";\n\ncontract CometFactory is CometConfiguration {\n    function clone(Configuration calldata config) external returns (address) {\n        return address(new Comet(config));\n    }\n}",
  "sourcePath": "/home/stephensb/sb-labs/solidity-contracts/contracts/comet/contracts/CometFactory.sol",
  "compiler": {
    "name": "solc",
    "version": "0.8.15+commit.e14f2714.Emscripten.clang"
  },
  "schemaVersion": "3.4.12",
  "updatedAt": "2023-11-30T22:41:29.659Z",
  "devdoc": {
    "kind": "dev",
    "methods": {},
    "version": 1
  },
  "userdoc": {
    "kind": "user",
    "methods": {},
    "version": 1
  }
}