{
  "contractName": "CometModified",
  "abi": [
    {
      "inputs": [
        {
          "components": [
            {
              "internalType": "address",
              "name": "governor",
              "type": "address"
            },
            {
              "internalType": "address",
              "name": "pauseGuardian",
              "type": "address"
            },
            {
              "internalType": "address",
              "name": "baseToken",
              "type": "address"
            },
            {
              "internalType": "address",
              "name": "baseTokenPriceFeed",
              "type": "address"
            },
            {
              "internalType": "address",
              "name": "extensionDelegate",
              "type": "address"
            },
            {
              "internalType": "uint64",
              "name": "supplyKink",
              "type": "uint64"
            },
            {
              "internalType": "uint64",
              "name": "supplyPerYearInterestRateSlopeLow",
              "type": "uint64"
            },
            {
              "internalType": "uint64",
              "name": "supplyPerYearInterestRateSlopeHigh",
              "type": "uint64"
            },
            {
              "internalType": "uint64",
              "name": "supplyPerYearInterestRateBase",
              "type": "uint64"
            },
            {
              "internalType": "uint64",
              "name": "borrowKink",
              "type": "uint64"
            },
            {
              "internalType": "uint64",
              "name": "borrowPerYearInterestRateSlopeLow",
              "type": "uint64"
            },
            {
              "internalType": "uint64",
              "name": "borrowPerYearInterestRateSlopeHigh",
              "type": "uint64"
            },
            {
              "internalType": "uint64",
              "name": "borrowPerYearInterestRateBase",
              "type": "uint64"
            },
            {
              "internalType": "uint64",
              "name": "storeFrontPriceFactor",
              "type": "uint64"
            },
            {
              "internalType": "uint64",
              "name": "trackingIndexScale",
              "type": "uint64"
            },
            {
              "internalType": "uint64",
              "name": "baseTrackingSupplySpeed",
              "type": "uint64"
            },
            {
              "internalType": "uint64",
              "name": "baseTrackingBorrowSpeed",
              "type": "uint64"
            },
            {
              "internalType": "uint104",
              "name": "baseMinForRewards",
              "type": "uint104"
            },
            {
              "internalType": "uint104",
              "name": "baseBorrowMin",
              "type": "uint104"
            },
            {
              "internalType": "uint104",
              "name": "targetReserves",
              "type": "uint104"
            },
            {
              "components": [
                {
                  "internalType": "address",
                  "name": "asset",
                  "type": "address"
                },
                {
                  "internalType": "address",
                  "name": "priceFeed",
                  "type": "address"
                },
                {
                  "internalType": "uint8",
                  "name": "decimals",
                  "type": "uint8"
                },
                {
                  "internalType": "uint64",
                  "name": "borrowCollateralFactor",
                  "type": "uint64"
                },
                {
                  "internalType": "uint64",
                  "name": "liquidateCollateralFactor",
                  "type": "uint64"
                },
                {
                  "internalType": "uint64",
                  "name": "liquidationFactor",
                  "type": "uint64"
                },
                {
                  "internalType": "uint128",
                  "name": "supplyCap",
                  "type": "uint128"
                }
              ],
              "internalType": "struct CometConfiguration.AssetConfig[]",
              "name": "assetConfigs",
              "type": "tuple[]"
            }
          ],
          "internalType": "struct CometConfiguration.Configuration",
          "name": "config",
          "type": "tuple"
        }
      ],
      "stateMutability": "nonpayable",
      "type": "constructor"
    },
    {
      "inputs": [],
      "name": "Absurd",
      "type": "error"
    },
    {
      "inputs": [],
      "name": "AlreadyInitialized",
      "type": "error"
    },
    {
      "inputs": [],
      "name": "BadAsset",
      "type": "error"
    },
    {
      "inputs": [],
      "name": "BadDecimals",
      "type": "error"
    },
    {
      "inputs": [],
      "name": "BadDiscount",
      "type": "error"
    },
    {
      "inputs": [],
      "name": "BadMinimum",
      "type": "error"
    },
    {
      "inputs": [],
      "name": "BadPrice",
      "type": "error"
    },
    {
      "inputs": [],
      "name": "BorrowCFTooLarge",
      "type": "error"
    },
    {
      "inputs": [],
      "name": "BorrowTooSmall",
      "type": "error"
    },
    {
      "inputs": [],
      "name": "InsufficientReserves",
      "type": "error"
    },
    {
      "inputs": [],
      "name": "InvalidInt104",
      "type": "error"
    },
    {
      "inputs": [],
      "name": "InvalidInt256",
      "type": "error"
    },
    {
      "inputs": [],
      "name": "InvalidUInt104",
      "type": "error"
    },
    {
      "inputs": [],
      "name": "InvalidUInt128",
      "type": "error"
    },
    {
      "inputs": [],
      "name": "InvalidUInt64",
      "type": "error"
    },
    {
      "inputs": [],
      "name": "LiquidateCFTooLarge",
      "type": "error"
    },
    {
      "inputs": [],
      "name": "NegativeNumber",
      "type": "error"
    },
    {
      "inputs": [],
      "name": "NoSelfTransfer",
      "type": "error"
    },
    {
      "inputs": [],
      "name": "NotCollateralized",
      "type": "error"
    },
    {
      "inputs": [],
      "name": "NotForSale",
      "type": "error"
    },
    {
      "inputs": [],
      "name": "NotLiquidatable",
      "type": "error"
    },
    {
      "inputs": [],
      "name": "Paused",
      "type": "error"
    },
    {
      "inputs": [],
      "name": "SupplyCapExceeded",
      "type": "error"
    },
    {
      "inputs": [],
      "name": "TimestampTooLarge",
      "type": "error"
    },
    {
      "inputs": [],
      "name": "TooManyAssets",
      "type": "error"
    },
    {
      "inputs": [],
      "name": "TooMuchSlippage",
      "type": "error"
    },
    {
      "inputs": [],
      "name": "TransferInFailed",
      "type": "error"
    },
    {
      "inputs": [],
      "name": "TransferOutFailed",
      "type": "error"
    },
    {
      "inputs": [],
      "name": "Unauthorized",
      "type": "error"
    },
    {
      "anonymous": false,
      "inputs": [
        {
          "indexed": true,
          "internalType": "address",
          "name": "absorber",
          "type": "address"
        },
        {
          "indexed": true,
          "internalType": "address",
          "name": "borrower",
          "type": "address"
        },
        {
          "indexed": true,
          "internalType": "address",
          "name": "asset",
          "type": "address"
        },
        {
          "indexed": false,
          "internalType": "uint256",
          "name": "collateralAbsorbed",
          "type": "uint256"
        },
        {
          "indexed": false,
          "internalType": "uint256",
          "name": "usdValue",
          "type": "uint256"
        }
      ],
      "name": "AbsorbCollateral",
      "type": "event"
    },
    {
      "anonymous": false,
      "inputs": [
        {
          "indexed": true,
          "internalType": "address",
          "name": "absorber",
          "type": "address"
        },
        {
          "indexed": true,
          "internalType": "address",
          "name": "borrower",
          "type": "address"
        },
        {
          "indexed": false,
          "internalType": "uint256",
          "name": "basePaidOut",
          "type": "uint256"
        },
        {
          "indexed": false,
          "internalType": "uint256",
          "name": "usdValue",
          "type": "uint256"
        }
      ],
      "name": "AbsorbDebt",
      "type": "event"
    },
    {
      "anonymous": false,
      "inputs": [
        {
          "indexed": true,
          "internalType": "address",
          "name": "buyer",
          "type": "address"
        },
        {
          "indexed": true,
          "internalType": "address",
          "name": "asset",
          "type": "address"
        },
        {
          "indexed": false,
          "internalType": "uint256",
          "name": "baseAmount",
          "type": "uint256"
        },
        {
          "indexed": false,
          "internalType": "uint256",
          "name": "collateralAmount",
          "type": "uint256"
        }
      ],
      "name": "BuyCollateral",
      "type": "event"
    },
    {
      "anonymous": false,
      "inputs": [
        {
          "indexed": false,
          "internalType": "bool",
          "name": "supplyPaused",
          "type": "bool"
        },
        {
          "indexed": false,
          "internalType": "bool",
          "name": "transferPaused",
          "type": "bool"
        },
        {
          "indexed": false,
          "internalType": "bool",
          "name": "withdrawPaused",
          "type": "bool"
        },
        {
          "indexed": false,
          "internalType": "bool",
          "name": "absorbPaused",
          "type": "bool"
        },
        {
          "indexed": false,
          "internalType": "bool",
          "name": "buyPaused",
          "type": "bool"
        }
      ],
      "name": "PauseAction",
      "type": "event"
    },
    {
      "anonymous": false,
      "inputs": [
        {
          "indexed": true,
          "internalType": "address",
          "name": "from",
          "type": "address"
        },
        {
          "indexed": true,
          "internalType": "address",
          "name": "dst",
          "type": "address"
        },
        {
          "indexed": false,
          "internalType": "uint256",
          "name": "amount",
          "type": "uint256"
        }
      ],
      "name": "Supply",
      "type": "event"
    },
    {
      "anonymous": false,
      "inputs": [
        {
          "indexed": true,
          "internalType": "address",
          "name": "from",
          "type": "address"
        },
        {
          "indexed": true,
          "internalType": "address",
          "name": "dst",
          "type": "address"
        },
        {
          "indexed": true,
          "internalType": "address",
          "name": "asset",
          "type": "address"
        },
        {
          "indexed": false,
          "internalType": "uint256",
          "name": "amount",
          "type": "uint256"
        }
      ],
      "name": "SupplyCollateral",
      "type": "event"
    },
    {
      "anonymous": false,
      "inputs": [
        {
          "indexed": true,
          "internalType": "address",
          "name": "from",
          "type": "address"
        },
        {
          "indexed": true,
          "internalType": "address",
          "name": "to",
          "type": "address"
        },
        {
          "indexed": false,
          "internalType": "uint256",
          "name": "amount",
          "type": "uint256"
        }
      ],
      "name": "Transfer",
      "type": "event"
    },
    {
      "anonymous": false,
      "inputs": [
        {
          "indexed": true,
          "internalType": "address",
          "name": "from",
          "type": "address"
        },
        {
          "indexed": true,
          "internalType": "address",
          "name": "to",
          "type": "address"
        },
        {
          "indexed": true,
          "internalType": "address",
          "name": "asset",
          "type": "address"
        },
        {
          "indexed": false,
          "internalType": "uint256",
          "name": "amount",
          "type": "uint256"
        }
      ],
      "name": "TransferCollateral",
      "type": "event"
    },
    {
      "anonymous": false,
      "inputs": [
        {
          "indexed": true,
          "internalType": "address",
          "name": "src",
          "type": "address"
        },
        {
          "indexed": true,
          "internalType": "address",
          "name": "to",
          "type": "address"
        },
        {
          "indexed": false,
          "internalType": "uint256",
          "name": "amount",
          "type": "uint256"
        }
      ],
      "name": "Withdraw",
      "type": "event"
    },
    {
      "anonymous": false,
      "inputs": [
        {
          "indexed": true,
          "internalType": "address",
          "name": "src",
          "type": "address"
        },
        {
          "indexed": true,
          "internalType": "address",
          "name": "to",
          "type": "address"
        },
        {
          "indexed": true,
          "internalType": "address",
          "name": "asset",
          "type": "address"
        },
        {
          "indexed": false,
          "internalType": "uint256",
          "name": "amount",
          "type": "uint256"
        }
      ],
      "name": "WithdrawCollateral",
      "type": "event"
    },
    {
      "anonymous": false,
      "inputs": [
        {
          "indexed": true,
          "internalType": "address",
          "name": "to",
          "type": "address"
        },
        {
          "indexed": false,
          "internalType": "uint256",
          "name": "amount",
          "type": "uint256"
        }
      ],
      "name": "WithdrawReserves",
      "type": "event"
    },
    {
      "stateMutability": "payable",
      "type": "fallback"
    },
    {
      "inputs": [
        {
          "internalType": "address",
          "name": "absorber",
          "type": "address"
        },
        {
          "internalType": "address[]",
          "name": "accounts",
          "type": "address[]"
        }
      ],
      "name": "absorb",
      "outputs": [],
      "stateMutability": "nonpayable",
      "type": "function"
    },
    {
      "inputs": [
        {
          "internalType": "address",
          "name": "account",
          "type": "address"
        }
      ],
      "name": "accrueAccount",
      "outputs": [],
      "stateMutability": "nonpayable",
      "type": "function"
    },
    {
      "inputs": [
        {
          "internalType": "address",
          "name": "manager",
          "type": "address"
        },
        {
          "internalType": "address",
          "name": "asset",
          "type": "address"
        },
        {
          "internalType": "uint256",
          "name": "amount",
          "type": "uint256"
        }
      ],
      "name": "approveThis",
      "outputs": [],
      "stateMutability": "nonpayable",
      "type": "function"
    },
    {
      "inputs": [
        {
          "internalType": "address",
          "name": "account",
          "type": "address"
        }
      ],
      "name": "balanceOf",
      "outputs": [
        {
          "internalType": "uint256",
          "name": "",
          "type": "uint256"
        }
      ],
      "stateMutability": "view",
      "type": "function"
    },
    {
      "inputs": [],
      "name": "baseBorrowMin",
      "outputs": [
        {
          "internalType": "uint256",
          "name": "",
          "type": "uint256"
        }
      ],
      "stateMutability": "view",
      "type": "function"
    },
    {
      "inputs": [],
      "name": "baseMinForRewards",
      "outputs": [
        {
          "internalType": "uint256",
          "name": "",
          "type": "uint256"
        }
      ],
      "stateMutability": "view",
      "type": "function"
    },
    {
      "inputs": [],
      "name": "baseScale",
      "outputs": [
        {
          "internalType": "uint256",
          "name": "",
          "type": "uint256"
        }
      ],
      "stateMutability": "view",
      "type": "function"
    },
    {
      "inputs": [],
      "name": "baseToken",
      "outputs": [
        {
          "internalType": "address",
          "name": "",
          "type": "address"
        }
      ],
      "stateMutability": "view",
      "type": "function"
    },
    {
      "inputs": [],
      "name": "baseTokenPriceFeed",
      "outputs": [
        {
          "internalType": "address",
          "name": "",
          "type": "address"
        }
      ],
      "stateMutability": "view",
      "type": "function"
    },
    {
      "inputs": [],
      "name": "baseTrackingBorrowSpeed",
      "outputs": [
        {
          "internalType": "uint256",
          "name": "",
          "type": "uint256"
        }
      ],
      "stateMutability": "view",
      "type": "function"
    },
    {
      "inputs": [],
      "name": "baseTrackingSupplySpeed",
      "outputs": [
        {
          "internalType": "uint256",
          "name": "",
          "type": "uint256"
        }
      ],
      "stateMutability": "view",
      "type": "function"
    },
    {
      "inputs": [
        {
          "internalType": "address",
          "name": "account",
          "type": "address"
        }
      ],
      "name": "borrowBalanceOf",
      "outputs": [
        {
          "internalType": "uint256",
          "name": "",
          "type": "uint256"
        }
      ],
      "stateMutability": "view",
      "type": "function"
    },
    {
      "inputs": [],
      "name": "borrowKink",
      "outputs": [
        {
          "internalType": "uint256",
          "name": "",
          "type": "uint256"
        }
      ],
      "stateMutability": "view",
      "type": "function"
    },
    {
      "inputs": [],
      "name": "borrowPerSecondInterestRateBase",
      "outputs": [
        {
          "internalType": "uint256",
          "name": "",
          "type": "uint256"
        }
      ],
      "stateMutability": "view",
      "type": "function"
    },
    {
      "inputs": [],
      "name": "borrowPerSecondInterestRateSlopeHigh",
      "outputs": [
        {
          "internalType": "uint256",
          "name": "",
          "type": "uint256"
        }
      ],
      "stateMutability": "view",
      "type": "function"
    },
    {
      "inputs": [],
      "name": "borrowPerSecondInterestRateSlopeLow",
      "outputs": [
        {
          "internalType": "uint256",
          "name": "",
          "type": "uint256"
        }
      ],
      "stateMutability": "view",
      "type": "function"
    },
    {
      "inputs": [
        {
          "internalType": "address",
          "name": "asset",
          "type": "address"
        },
        {
          "internalType": "uint256",
          "name": "minAmount",
          "type": "uint256"
        },
        {
          "internalType": "uint256",
          "name": "baseAmount",
          "type": "uint256"
        },
        {
          "internalType": "address",
          "name": "recipient",
          "type": "address"
        }
      ],
      "name": "buyCollateral",
      "outputs": [],
      "stateMutability": "nonpayable",
      "type": "function"
    },
    {
      "inputs": [],
      "name": "decimals",
      "outputs": [
        {
          "internalType": "uint8",
          "name": "",
          "type": "uint8"
        }
      ],
      "stateMutability": "view",
      "type": "function"
    },
    {
      "inputs": [],
      "name": "extensionDelegate",
      "outputs": [
        {
          "internalType": "address",
          "name": "",
          "type": "address"
        }
      ],
      "stateMutability": "view",
      "type": "function"
    },
    {
      "inputs": [
        {
          "internalType": "uint8",
          "name": "i",
          "type": "uint8"
        }
      ],
      "name": "getAssetInfo",
      "outputs": [
        {
          "components": [
            {
              "internalType": "uint8",
              "name": "offset",
              "type": "uint8"
            },
            {
              "internalType": "address",
              "name": "asset",
              "type": "address"
            },
            {
              "internalType": "address",
              "name": "priceFeed",
              "type": "address"
            },
            {
              "internalType": "uint64",
              "name": "scale",
              "type": "uint64"
            },
            {
              "internalType": "uint64",
              "name": "borrowCollateralFactor",
              "type": "uint64"
            },
            {
              "internalType": "uint64",
              "name": "liquidateCollateralFactor",
              "type": "uint64"
            },
            {
              "internalType": "uint64",
              "name": "liquidationFactor",
              "type": "uint64"
            },
            {
              "internalType": "uint128",
              "name": "supplyCap",
              "type": "uint128"
            }
          ],
          "internalType": "struct CometCore.AssetInfo",
          "name": "",
          "type": "tuple"
        }
      ],
      "stateMutability": "view",
      "type": "function"
    },
    {
      "inputs": [
        {
          "internalType": "address",
          "name": "asset",
          "type": "address"
        }
      ],
      "name": "getAssetInfoByAddress",
      "outputs": [
        {
          "components": [
            {
              "internalType": "uint8",
              "name": "offset",
              "type": "uint8"
            },
            {
              "internalType": "address",
              "name": "asset",
              "type": "address"
            },
            {
              "internalType": "address",
              "name": "priceFeed",
              "type": "address"
            },
            {
              "internalType": "uint64",
              "name": "scale",
              "type": "uint64"
            },
            {
              "internalType": "uint64",
              "name": "borrowCollateralFactor",
              "type": "uint64"
            },
            {
              "internalType": "uint64",
              "name": "liquidateCollateralFactor",
              "type": "uint64"
            },
            {
              "internalType": "uint64",
              "name": "liquidationFactor",
              "type": "uint64"
            },
            {
              "internalType": "uint128",
              "name": "supplyCap",
              "type": "uint128"
            }
          ],
          "internalType": "struct CometCore.AssetInfo",
          "name": "",
          "type": "tuple"
        }
      ],
      "stateMutability": "view",
      "type": "function"
    },
    {
      "inputs": [
        {
          "internalType": "uint256",
          "name": "utilization",
          "type": "uint256"
        }
      ],
      "name": "getBorrowRate",
      "outputs": [
        {
          "internalType": "uint64",
          "name": "",
          "type": "uint64"
        }
      ],
      "stateMutability": "view",
      "type": "function"
    },
    {
      "inputs": [
        {
          "internalType": "address",
          "name": "asset",
          "type": "address"
        }
      ],
      "name": "getCollateralReserves",
      "outputs": [
        {
          "internalType": "uint256",
          "name": "",
          "type": "uint256"
        }
      ],
      "stateMutability": "view",
      "type": "function"
    },
    {
      "inputs": [
        {
          "internalType": "address",
          "name": "priceFeed",
          "type": "address"
        }
      ],
      "name": "getPrice",
      "outputs": [
        {
          "internalType": "uint256",
          "name": "",
          "type": "uint256"
        }
      ],
      "stateMutability": "view",
      "type": "function"
    },
    {
      "inputs": [],
      "name": "getReserves",
      "outputs": [
        {
          "internalType": "int256",
          "name": "",
          "type": "int256"
        }
      ],
      "stateMutability": "view",
      "type": "function"
    },
    {
      "inputs": [
        {
          "internalType": "uint256",
          "name": "utilization",
          "type": "uint256"
        }
      ],
      "name": "getSupplyRate",
      "outputs": [
        {
          "internalType": "uint64",
          "name": "",
          "type": "uint64"
        }
      ],
      "stateMutability": "view",
      "type": "function"
    },
    {
      "inputs": [],
      "name": "getUtilization",
      "outputs": [
        {
          "internalType": "uint256",
          "name": "",
          "type": "uint256"
        }
      ],
      "stateMutability": "view",
      "type": "function"
    },
    {
      "inputs": [],
      "name": "governor",
      "outputs": [
        {
          "internalType": "address",
          "name": "",
          "type": "address"
        }
      ],
      "stateMutability": "view",
      "type": "function"
    },
    {
      "inputs": [
        {
          "internalType": "address",
          "name": "owner",
          "type": "address"
        },
        {
          "internalType": "address",
          "name": "manager",
          "type": "address"
        }
      ],
      "name": "hasPermission",
      "outputs": [
        {
          "internalType": "bool",
          "name": "",
          "type": "bool"
        }
      ],
      "stateMutability": "view",
      "type": "function"
    },
    {
      "inputs": [],
      "name": "initializeStorage",
      "outputs": [],
      "stateMutability": "nonpayable",
      "type": "function"
    },
    {
      "inputs": [],
      "name": "isAbsorbPaused",
      "outputs": [
        {
          "internalType": "bool",
          "name": "",
          "type": "bool"
        }
      ],
      "stateMutability": "view",
      "type": "function"
    },
    {
      "inputs": [
        {
          "internalType": "address",
          "name": "",
          "type": "address"
        },
        {
          "internalType": "address",
          "name": "",
          "type": "address"
        }
      ],
      "name": "isAllowed",
      "outputs": [
        {
          "internalType": "bool",
          "name": "",
          "type": "bool"
        }
      ],
      "stateMutability": "view",
      "type": "function"
    },
    {
      "inputs": [
        {
          "internalType": "address",
          "name": "account",
          "type": "address"
        }
      ],
      "name": "isBorrowCollateralized",
      "outputs": [
        {
          "internalType": "bool",
          "name": "",
          "type": "bool"
        }
      ],
      "stateMutability": "view",
      "type": "function"
    },
    {
      "inputs": [],
      "name": "isBuyPaused",
      "outputs": [
        {
          "internalType": "bool",
          "name": "",
          "type": "bool"
        }
      ],
      "stateMutability": "view",
      "type": "function"
    },
    {
      "inputs": [
        {
          "internalType": "address",
          "name": "account",
          "type": "address"
        }
      ],
      "name": "isLiquidatable",
      "outputs": [
        {
          "internalType": "bool",
          "name": "",
          "type": "bool"
        }
      ],
      "stateMutability": "view",
      "type": "function"
    },
    {
      "inputs": [],
      "name": "isSupplyPaused",
      "outputs": [
        {
          "internalType": "bool",
          "name": "",
          "type": "bool"
        }
      ],
      "stateMutability": "view",
      "type": "function"
    },
    {
      "inputs": [],
      "name": "isTransferPaused",
      "outputs": [
        {
          "internalType": "bool",
          "name": "",
          "type": "bool"
        }
      ],
      "stateMutability": "view",
      "type": "function"
    },
    {
      "inputs": [],
      "name": "isWithdrawPaused",
      "outputs": [
        {
          "internalType": "bool",
          "name": "",
          "type": "bool"
        }
      ],
      "stateMutability": "view",
      "type": "function"
    },
    {
      "inputs": [
        {
          "internalType": "address",
          "name": "",
          "type": "address"
        }
      ],
      "name": "liquidatorPoints",
      "outputs": [
        {
          "internalType": "uint32",
          "name": "numAbsorbs",
          "type": "uint32"
        },
        {
          "internalType": "uint64",
          "name": "numAbsorbed",
          "type": "uint64"
        },
        {
          "internalType": "uint128",
          "name": "approxSpend",
          "type": "uint128"
        },
        {
          "internalType": "uint32",
          "name": "_reserved",
          "type": "uint32"
        }
      ],
      "stateMutability": "view",
      "type": "function"
    },
    {
      "inputs": [],
      "name": "numAssets",
      "outputs": [
        {
          "internalType": "uint8",
          "name": "",
          "type": "uint8"
        }
      ],
      "stateMutability": "view",
      "type": "function"
    },
    {
      "inputs": [
        {
          "internalType": "bool",
          "name": "supplyPaused",
          "type": "bool"
        },
        {
          "internalType": "bool",
          "name": "transferPaused",
          "type": "bool"
        },
        {
          "internalType": "bool",
          "name": "withdrawPaused",
          "type": "bool"
        },
        {
          "internalType": "bool",
          "name": "absorbPaused",
          "type": "bool"
        },
        {
          "internalType": "bool",
          "name": "buyPaused",
          "type": "bool"
        }
      ],
      "name": "pause",
      "outputs": [],
      "stateMutability": "nonpayable",
      "type": "function"
    },
    {
      "inputs": [],
      "name": "pauseGuardian",
      "outputs": [
        {
          "internalType": "address",
          "name": "",
          "type": "address"
        }
      ],
      "stateMutability": "view",
      "type": "function"
    },
    {
      "inputs": [
        {
          "internalType": "address",
          "name": "asset",
          "type": "address"
        },
        {
          "internalType": "uint256",
          "name": "baseAmount",
          "type": "uint256"
        }
      ],
      "name": "quoteCollateral",
      "outputs": [
        {
          "internalType": "uint256",
          "name": "",
          "type": "uint256"
        }
      ],
      "stateMutability": "view",
      "type": "function"
    },
    {
      "inputs": [],
      "name": "storeFrontPriceFactor",
      "outputs": [
        {
          "internalType": "uint256",
          "name": "",
          "type": "uint256"
        }
      ],
      "stateMutability": "view",
      "type": "function"
    },
    {
      "inputs": [
        {
          "internalType": "address",
          "name": "asset",
          "type": "address"
        },
        {
          "internalType": "uint256",
          "name": "amount",
          "type": "uint256"
        }
      ],
      "name": "supply",
      "outputs": [],
      "stateMutability": "nonpayable",
      "type": "function"
    },
    {
      "inputs": [
        {
          "internalType": "address",
          "name": "from",
          "type": "address"
        },
        {
          "internalType": "address",
          "name": "dst",
          "type": "address"
        },
        {
          "internalType": "address",
          "name": "asset",
          "type": "address"
        },
        {
          "internalType": "uint256",
          "name": "amount",
          "type": "uint256"
        }
      ],
      "name": "supplyFrom",
      "outputs": [],
      "stateMutability": "nonpayable",
      "type": "function"
    },
    {
      "inputs": [],
      "name": "supplyKink",
      "outputs": [
        {
          "internalType": "uint256",
          "name": "",
          "type": "uint256"
        }
      ],
      "stateMutability": "view",
      "type": "function"
    },
    {
      "inputs": [],
      "name": "supplyPerSecondInterestRateBase",
      "outputs": [
        {
          "internalType": "uint256",
          "name": "",
          "type": "uint256"
        }
      ],
      "stateMutability": "view",
      "type": "function"
    },
    {
      "inputs": [],
      "name": "supplyPerSecondInterestRateSlopeHigh",
      "outputs": [
        {
          "internalType": "uint256",
          "name": "",
          "type": "uint256"
        }
      ],
      "stateMutability": "view",
      "type": "function"
    },
    {
      "inputs": [],
      "name": "supplyPerSecondInterestRateSlopeLow",
      "outputs": [
        {
          "internalType": "uint256",
          "name": "",
          "type": "uint256"
        }
      ],
      "stateMutability": "view",
      "type": "function"
    },
    {
      "inputs": [
        {
          "internalType": "address",
          "name": "dst",
          "type": "address"
        },
        {
          "internalType": "address",
          "name": "asset",
          "type": "address"
        },
        {
          "internalType": "uint256",
          "name": "amount",
          "type": "uint256"
        }
      ],
      "name": "supplyTo",
      "outputs": [],
      "stateMutability": "nonpayable",
      "type": "function"
    },
    {
      "inputs": [],
      "name": "targetReserves",
      "outputs": [
        {
          "internalType": "uint256",
          "name": "",
          "type": "uint256"
        }
      ],
      "stateMutability": "view",
      "type": "function"
    },
    {
      "inputs": [],
      "name": "totalBorrow",
      "outputs": [
        {
          "internalType": "uint256",
          "name": "",
          "type": "uint256"
        }
      ],
      "stateMutability": "view",
      "type": "function"
    },
    {
      "inputs": [],
      "name": "totalSupply",
      "outputs": [
        {
          "internalType": "uint256",
          "name": "",
          "type": "uint256"
        }
      ],
      "stateMutability": "view",
      "type": "function"
    },
    {
      "inputs": [
        {
          "internalType": "address",
          "name": "",
          "type": "address"
        }
      ],
      "name": "totalsCollateral",
      "outputs": [
        {
          "internalType": "uint128",
          "name": "totalSupplyAsset",
          "type": "uint128"
        },
        {
          "internalType": "uint128",
          "name": "_reserved",
          "type": "uint128"
        }
      ],
      "stateMutability": "view",
      "type": "function"
    },
    {
      "inputs": [],
      "name": "trackingIndexScale",
      "outputs": [
        {
          "internalType": "uint256",
          "name": "",
          "type": "uint256"
        }
      ],
      "stateMutability": "view",
      "type": "function"
    },
    {
      "inputs": [
        {
          "internalType": "address",
          "name": "dst",
          "type": "address"
        },
        {
          "internalType": "uint256",
          "name": "amount",
          "type": "uint256"
        }
      ],
      "name": "transfer",
      "outputs": [
        {
          "internalType": "bool",
          "name": "",
          "type": "bool"
        }
      ],
      "stateMutability": "nonpayable",
      "type": "function"
    },
    {
      "inputs": [
        {
          "internalType": "address",
          "name": "dst",
          "type": "address"
        },
        {
          "internalType": "address",
          "name": "asset",
          "type": "address"
        },
        {
          "internalType": "uint256",
          "name": "amount",
          "type": "uint256"
        }
      ],
      "name": "transferAsset",
      "outputs": [],
      "stateMutability": "nonpayable",
      "type": "function"
    },
    {
      "inputs": [
        {
          "internalType": "address",
          "name": "src",
          "type": "address"
        },
        {
          "internalType": "address",
          "name": "dst",
          "type": "address"
        },
        {
          "internalType": "address",
          "name": "asset",
          "type": "address"
        },
        {
          "internalType": "uint256",
          "name": "amount",
          "type": "uint256"
        }
      ],
      "name": "transferAssetFrom",
      "outputs": [],
      "stateMutability": "nonpayable",
      "type": "function"
    },
    {
      "inputs": [
        {
          "internalType": "address",
          "name": "src",
          "type": "address"
        },
        {
          "internalType": "address",
          "name": "dst",
          "type": "address"
        },
        {
          "internalType": "uint256",
          "name": "amount",
          "type": "uint256"
        }
      ],
      "name": "transferFrom",
      "outputs": [
        {
          "internalType": "bool",
          "name": "",
          "type": "bool"
        }
      ],
      "stateMutability": "nonpayable",
      "type": "function"
    },
    {
      "inputs": [
        {
          "internalType": "address",
          "name": "",
          "type": "address"
        }
      ],
      "name": "userBasic",
      "outputs": [
        {
          "internalType": "int104",
          "name": "principal",
          "type": "int104"
        },
        {
          "internalType": "uint64",
          "name": "baseTrackingIndex",
          "type": "uint64"
        },
        {
          "internalType": "uint64",
          "name": "baseTrackingAccrued",
          "type": "uint64"
        },
        {
          "internalType": "uint16",
          "name": "assetsIn",
          "type": "uint16"
        },
        {
          "internalType": "uint8",
          "name": "_reserved",
          "type": "uint8"
        }
      ],
      "stateMutability": "view",
      "type": "function"
    },
    {
      "inputs": [
        {
          "internalType": "address",
          "name": "",
          "type": "address"
        },
        {
          "internalType": "address",
          "name": "",
          "type": "address"
        }
      ],
      "name": "userCollateral",
      "outputs": [
        {
          "internalType": "uint128",
          "name": "balance",
          "type": "uint128"
        },
        {
          "internalType": "uint128",
          "name": "_reserved",
          "type": "uint128"
        }
      ],
      "stateMutability": "view",
      "type": "function"
    },
    {
      "inputs": [
        {
          "internalType": "address",
          "name": "",
          "type": "address"
        }
      ],
      "name": "userNonce",
      "outputs": [
        {
          "internalType": "uint256",
          "name": "",
          "type": "uint256"
        }
      ],
      "stateMutability": "view",
      "type": "function"
    },
    {
      "inputs": [
        {
          "internalType": "address",
          "name": "asset",
          "type": "address"
        },
        {
          "internalType": "uint256",
          "name": "amount",
          "type": "uint256"
        }
      ],
      "name": "withdraw",
      "outputs": [],
      "stateMutability": "nonpayable",
      "type": "function"
    },
    {
      "inputs": [
        {
          "internalType": "address",
          "name": "src",
          "type": "address"
        },
        {
          "internalType": "address",
          "name": "to",
          "type": "address"
        },
        {
          "internalType": "address",
          "name": "asset",
          "type": "address"
        },
        {
          "internalType": "uint256",
          "name": "amount",
          "type": "uint256"
        }
      ],
      "name": "withdrawFrom",
      "outputs": [],
      "stateMutability": "nonpayable",
      "type": "function"
    },
    {
      "inputs": [
        {
          "internalType": "address",
          "name": "to",
          "type": "address"
        },
        {
          "internalType": "uint256",
          "name": "amount",
          "type": "uint256"
        }
      ],
      "name": "withdrawReserves",
      "outputs": [],
      "stateMutability": "nonpayable",
      "type": "function"
    },
    {
      "inputs": [
        {
          "internalType": "address",
          "name": "to",
          "type": "address"
        },
        {
          "internalType": "address",
          "name": "asset",
          "type": "address"
        },
        {
          "internalType": "uint256",
          "name": "amount",
          "type": "uint256"
        }
      ],
      "name": "withdrawTo",
      "outputs": [],
      "stateMutability": "nonpayable",
      "type": "function"
    },
    {
      "inputs": [
        {
          "internalType": "address",
          "name": "liquidator",
          "type": "address"
        }
      ],
      "name": "initialize",
      "outputs": [],
      "stateMutability": "nonpayable",
      "type": "function"
    },
    {
      "inputs": [],
      "name": "newFunction",
      "outputs": [
        {
          "internalType": "int256",
          "name": "",
          "type": "int256"
        }
      ],
      "stateMutability": "pure",
      "type": "function"
    }
  ],
  "bytecode": "0x6107406040523462000382576200001f6200001962000581565b620007c1565b604051614cde90816200131b823960805181818161062e01528181610d2f015281816113f301526117f6015260a0518181816108760152610e65015260c05181818161082e015281816113760152818161162b0152818161185f0152818161191001528181612b1a0152818161329e0152818161336f015281816139d301528181613ea00152613fa4015260e051818181611a3f01528181612c660152818161447d0152614883015261010051818181610ea501526149bb01526101205181818161132c0152612639015261014051818181610f440152818161267501526126df015261016051818181611053015261270f0152610180518181816111ab015261269c01526101a051818181611133015261274901526101c0518181816109fc0152818161278501526127ef01526101e051818181610913015261281f015261020051818181610fcf01526127ac0152610220518181816107c90152614847015261024051818181610ca801528181612c9401528181612f2e0152818161465101526148bb0152610260518181816113b6015261310a0152610280518181816106e2015261252501526102a0518181816111e701526124a801526102c05181818161116f015261240f01526102e051818181610a7601528181613c6f015261404a015261030051818181610af101526119ef01526103205181610ab40152610340518181816112ef01528181611c3d0152818161224301528181612cc301528181612e7201526144ad0152610360518161313101526103805181611c8d01526103a05181611c6c01526103c05181611dda01526103e05181611db901526104005181611e2a01526104205181611e0901526104405181611e7a01526104605181611e5901526104805181611eca01526104a05181611ea901526104c05181611f1a01526104e05181611ef901526105005181611f6a01526105205181611f4901526105405181611fba01526105605181611f990152610580518161200a01526105a05181611fe901526105c0518161205a01526105e05181612039015261060051816120aa01526106205181612089015261064051816120fa015261066051816120d90152610680518161214a01526106a0518161212901526106c0518161219a01526106e05181612179015261070051816121e8015261072051816121c70152f35b600080fd5b50634e487b7160e01b600052604160045260246000fd5b60e081019081106001600160401b03821117620003ba57604052565b620003c462000387565b604052565b601f909101601f19168101906001600160401b03821190821017620003ba57604052565b604051906102a082016001600160401b03811183821017620003ba57604052565b51906001600160a01b03821682036200038257565b51906001600160401b03821682036200038257565b51906001600160681b03821682036200038257565b519060ff821682036200038257565b81601f8201121562000382578051906001600160401b03821162000571575b604080519360209162000494838660051b0187620003c9565b848652828601918360e08097028601019481861162000382578401925b858410620004c3575050505050505090565b86848303126200038257825190620004db826200039e565b620004e6856200040e565b8252620004f58686016200040e565b86830152620005068486016200044d565b8483015260606200051981870162000423565b9083015260806200052c81870162000423565b9083015260a06200053f81870162000423565b9083015260c085810151929091906001600160801b0384168403620003825789938893820152815201930192620004b1565b6200057b62000387565b6200047b565b62005ff98038038060405192620005998285620003c9565b8339810190602081830312620003825780516001600160401b03918282116200038257016102a0818403126200038257620005d3620003ed565b92620005df826200040e565b8452620005ef602083016200040e565b602085015262000602604083016200040e565b604085015262000615606083016200040e565b606085015262000628608083016200040e565b60808501526200063b60a0830162000423565b60a08501526200064e60c0830162000423565b60c08501526200066160e0830162000423565b60e08501526101006200067681840162000423565b908501526101206200068a81840162000423565b908501526101406200069e81840162000423565b90850152610160620006b281840162000423565b90850152610180620006c681840162000423565b908501526101a0620006da81840162000423565b908501526101c0620006ee81840162000423565b908501526101e06200070281840162000423565b908501526102006200071681840162000423565b908501526102206200072a81840162000438565b908501526102406200073e81840162000438565b908501526102606200075281840162000438565b90850152610280928383015190811162000382576200077292016200045c565b9082015290565b90816020910312620003825762000790906200044d565b90565b506040513d6000823e3d90fd5b8115620007ab570490565b634e487b7160e01b600052601260045260246000fd5b6040818101805190929190620007ee90620007e2906001600160a01b031681565b6001600160a01b031690565b9181518093819363313ce56760e01b91828452602093849160049889915afa94851562000c72575b60009562000c4e575b5060ff8516916012831162000c3e576101a08581018051919790946001600160401b0392909190670de0b6b3a76400009084161162000c2e57610280968789019b600f8d51511162000c1e576102208a810180519097919391906001600160681b03161562000c0e5790600860ff8f9493838f9160608e930197620008b2620007e2620007e28b5160018060a01b031690565b93518094819382525afa90811562000bfe575b60009162000bca575b50160362000bba576200092892916200090862000918928e620008f7815160018060a01b031690565b60805201516001600160a01b031690565b60a052516001600160a01b031690565b60c052516001600160a01b031690565b60e05260808901516001600160a01b031661010090815296516200095c906001600160401b03165b6001600160401b031690565b905261032052600a0a1690610240978289526101c093620f42406200098d62000950878b015160018060401b031690565b946102609586521062000bad5750508751620f4240900461036052516001600160681b039081166102c0526101e0868101516001600160401b039081169096526102008088015187166102a0529887015182166102e05291860151166103005260a0850151841661012090815260c08601516301e13380908616819004861661014090815260e0880151871682900487166101609081529588015187168290048716610180908152928801518716909852968601518516879004851690925291840151831685900483169091529091015181169190910416905280515160ff1661034052805162000a7e9062000cdc565b6103a05261038052805162000a939062000fc3565b6103e0526103c052805162000aa89062000ff1565b6104205261040052805162000abd906200101f565b6104605261044052805162000ad2906200104d565b6104a05261048052805162000ae79062001146565b6104e0526104c052805162000afc9062001174565b6105205261050052805162000b1190620011a2565b6105605261054052805162000b2690620011d1565b6105a05261058052805162000b3b9062001200565b6105e0526105c052805162000b50906200122f565b6106205261060052805162000b65906200125e565b6106605261064052805162000b7a906200128d565b6106a05261068052805162000b8f90620012bc565b6106e0526106c0525162000ba390620012eb565b6107205261070052565b51630456c65960e51b8152fd5b8851630456c65960e51b81528e90fd5b62000bef9150843d861162000bf6575b62000be68183620003c9565b81019062000779565b38620008ce565b503d62000bda565b62000c0862000793565b620008c5565b8851636e77247560e01b81528e90fd5b865163df8153c760e01b81528c90fd5b84516324dc918f60e11b81528a90fd5b8151630456c65960e51b81528790fd5b62000c6a919550833d851162000bf65762000be68183620003c9565b93386200081f565b62000c7c62000793565b62000816565b6040519060e082016001600160401b0381118382101762000ccc575b6040528160c06000918281528260208201528260408201528260608201528260808201528260a08201520152565b62000cd662000387565b62000c9e565b62000ce662000c82565b5080511562000fba576020015180519091906001600160a01b03165b6020838101516001600160a01b03169060409462000d238682015160ff1690565b936001600160a01b0390811693841562000faa57169286519263313ce56760e01b808552600860ff600496848189818c5afa90811562000f9a575b60009162000f78575b50160362000f68579060ff91895190815281818781875afa91821562000f58575b60009262000f36575b5050818716918291160362000f26576060830180519093906001600160401b03165b6080820180519095919062000dd1906001600160401b031662000950565b6001600160401b03918216101562000f16578551670de0b6b3a764000091166001600160401b03161162000f06575162000e4d9062000e389062000e229062000e3f9083906001600160401b031683565b655af3107a40006001600160401b039091160490565b61ffff1690565b96516001600160401b031690565b60a082015190959062000e6e9062000e38906001600160401b031662000e22565b9961ffff808816908716101562000ef957505060c0015162000ea5916200095091600a9190910a906001600160801b0316620007a0565b60a092831b61ffff60a01b169190911760b09390931b61ffff60b01b169290921760c09690961b61ffff60c01b1695909517949290921b60ff60a01b161760a89190911b600160a81b600160e81b03161790565b5163327d763960e21b8152fd5b89516304d6b32560e41b81528690fd5b8a5163327d763960e21b81528790fd5b8751630456c65960e51b81528490fd5b62000f509250803d1062000bf65762000be68183620003c9565b388062000d91565b62000f6262000793565b62000d88565b8851630456c65960e51b81528590fd5b62000f939150853d871162000bf65762000be68183620003c9565b3862000d67565b62000fa462000793565b62000d5e565b5050505050509050600090600090565b50600090600090565b62000fcd62000c82565b5080516001101562000fba576040015180519091906001600160a01b031662000d02565b62000ffb62000c82565b5080516002101562000fba576060015180519091906001600160a01b031662000d02565b6200102962000c82565b5080516003101562000fba576080015180519091906001600160a01b031662000d02565b906200105862000c82565b508151600492908310156200113d5760a0015180519092906001600160a01b0316602084810151919290916001600160a01b0316946040956200109e8783015160ff1690565b946001600160a01b039081169182156200112c5716938751600860ff63313ce56760e01b92838152848189818c5afa90811562000f9a5760009162000f785750160362000f68579060ff91895190815281818781875afa91821562000f585760009262000f36575050818716918291160362000f26576060830180519093906001600160401b031662000db3565b505050505050509050600090600090565b50600091508190565b6200115062000c82565b5080516005101562000fba5760c0015180519091906001600160a01b031662000d02565b6200117e62000c82565b5080516006101562000fba5760e0015180519091906001600160a01b031662000d02565b620011ac62000c82565b5080516007101562000fba57610100015180519091906001600160a01b031662000d02565b620011db62000c82565b5080516008101562000fba57610120015180519091906001600160a01b031662000d02565b6200120a62000c82565b5080516009101562000fba57610140015180519091906001600160a01b031662000d02565b6200123962000c82565b508051600a101562000fba57610160015180519091906001600160a01b031662000d02565b6200126862000c82565b508051600b101562000fba57610180015180519091906001600160a01b031662000d02565b6200129762000c82565b508051600c101562000fba576101a0015180519091906001600160a01b031662000d02565b620012c662000c82565b508051600d101562000fba576101c0015180519091906001600160a01b031662000d02565b620012f562000c82565b508051600e101562000fba576101e0015180519091906001600160a01b031662000d0256fe60806040526004361015610018575b6100166149ae565b005b60003560e01c8063042e02cf1461057c5780630902f1ac146105735780630bc47ad11461056a5780630c340a241461056157806318160ddd14610558578063189bb2f11461054f5780631b28d63e146105465780631c9f7fb91461053d5780631f5954bd1461053457806323b872dd1461052b57806324a3d6221461052257806326441318146105195780632a48cf12146105105780632b92a07d146105075780632d05670b146104fe5780632e04b8e7146104f5578063300e6beb146104ec578063313ce567146104e357806332176c49146104da578063374c49b4146104d157806338aa813f146104c85780633b3bec2e146104bf57806341976e09146104b65780634232cd63146104ad578063439e2e45146104a457806344c1e5eb1461049b57806344c35d071461049257806344ff241d1461048957806359e017bd146104805780635a94b8d11461047757806367800b5f1461046e57806370a08231146104655780637914acc71461045c5780637ac88ed1146104535780637eb711311461044a578063804de71f146104415780638285ef40146104385780638d5d814c1461042f57806390323177146104265780639241a5611461041d5780639364e18a1461041457806394920cca1461040b5780639ea99a5a146104025780639fa83b5a146103f95780639ff567f8146103f0578063a1654379146103e7578063a1a1ef43146103de578063a46fe83b146103d5578063a5b4ff79146103cc578063a9059cbb146103c3578063aba7f15e146103ba578063ad14777c146103b1578063bfe69c8d146103a8578063c1ee2c181461039f578063c3b35a7e14610396578063c3cecfd21461038d578063c4d66de814610384578063c55dae631461037b578063c5fa15cf14610372578063c8c7fe6b14610369578063cde6804114610360578063d8e5f61114610357578063d955759d1461034e578063dc4abafd14610345578063e478795d1461033c578063e4e6e77914610333578063e7dad6bd1461032a578063f2b9fdb8146103215763f3fef3a30361000e5761031c611a9b565b61000e565b5061031c611a6e565b5061031c611a28565b5061031c6118b5565b5061031c6117ca565b5061031c611756565b5061031c611737565b5061031c611710565b5061031c6116f6565b5061031c6116cb565b5061031c61165a565b5061031c611614565b5061031c6115cc565b5061031c611567565b5061031c61154d565b5061031c611531565b5061031c611491565b5061031c6113d9565b5061031c61139d565b5061031c61134f565b5061031c611313565b5061031c6112d4565b5061031c6112ad565b5061031c611262565b5061031c61123a565b5061031c61120a565b5061031c6111ce565b5061031c611192565b5061031c611156565b5061031c61111a565b5061031c6110fe565b5061031c6110d7565b5061031c611076565b5061031c61103a565b5061031c61101e565b5061031c610ff2565b5061031c610fb6565b5061031c610f8e565b5061031c610f67565b5061031c610f2b565b5061031c610ed4565b5061031c610e8e565b5061031c610cd5565b5061031c610c8f565b5061031c610c75565b5061031c610c5b565b5061031c610c33565b5061031c610bfe565b5061031c610b3c565b5061031c610b14565b5061031c610ad8565b5061031c610a99565b5061031c610a5d565b5061031c610a1f565b5061031c6109e3565b5061031c610978565b5061031c6108fa565b5061031c6108de565b5061031c61085f565b5061031c610818565b5061031c6107b0565b5061031c610722565b5061031c610705565b5061031c6106c9565b5061031c61065d565b5061031c610617565b5061031c6105f1565b5061031c6105cd565b5061031c61059b565b6001600160a01b0381160361059657565b600080fd5b50346105965760203660031901126105965760206105c36004356105be81610585565b612e12565b6040519015158152f35b50346105965760003660031901126105965760206105e9612ac5565b604051908152f35b50346105965760003660031901126105965760206001805460f81c161515604051908152f35b5034610596576000366003190112610596576040517f00000000000000000000000000000000000000000000000000000000000000006001600160a01b03168152602090f35b503461059657600036600319011261059657602066038d7ea4c680006106c06106846122b4565b6001600160681b036001600160401b036106b7600154936106b164ffffffffff91828760d01c1690612329565b16612590565b50169116611bfa565b04604051908152f35b50346105965760003660031901126105965760206040517f00000000000000000000000000000000000000000000000000000000000000008152f35b503461059657600036600319011261059657602060405160658152f35b5034610596576000806003193601126107ad5764ffffffffff60015460d01c1661079c576107786107516122b4565b6001805464ffffffffff60d01b191660d09290921b64ffffffffff60d01b16919091179055565b80546001600160801b0319166e038d7ea4c6800000038d7ea4c68000178155604051f35b60405162dc149f60e41b8152600490fd5b80fd5b50346105965760003660031901126105965760206040517f00000000000000000000000000000000000000000000000000000000000000008152f35b60609060031901126105965760043561080481610585565b9060243561081181610585565b9060443590565b50346105965761085461082a366107ec565b91907f0000000000000000000000000000000000000000000000000000000000000000913361399b565b602060405160018152f35b5034610596576000366003190112610596576040517f00000000000000000000000000000000000000000000000000000000000000006001600160a01b03168152602090f35b6080906003190112610596576004356108bd81610585565b906024356108ca81610585565b906044356108d781610585565b9060643590565b5034610596576100166108f0366108a5565b9291909133613e71565b50346105965760003660031901126105965760206040517f00000000000000000000000000000000000000000000000000000000000000008152f35b60409060031901126105965760043561094e81610585565b9060243561095b81610585565b90565b6001600160a01b0316600090815260056020526040902090565b5034610596576109df6109ba61098d36610936565b9060018060a01b0316600052600660205260406000209060018060a01b0316600052602052604060002090565b54604080516001600160801b038316815260809290921c602083015290918291820190565b0390f35b50346105965760003660031901126105965760206040517f00000000000000000000000000000000000000000000000000000000000000008152f35b503461059657602036600319011261059657600435610a3d81610585565b60018060a01b031660005260046020526020604060002054604051908152f35b50346105965760003660031901126105965760206040517f00000000000000000000000000000000000000000000000000000000000000008152f35b503461059657600036600319011261059657602060405160ff7f0000000000000000000000000000000000000000000000000000000000000000168152f35b50346105965760003660031901126105965760206040517f00000000000000000000000000000000000000000000000000000000000000008152f35b50346105965760203660031901126105965760206105e9600435610b3781610585565b614966565b50346105965760203660031901126105965760206105c3600435610b5f81610585565b612bf2565b610bfc9092919260e08061010083019560ff815116845260018060a01b0380602083015116602086015260408201511660408501526001600160401b036060820151166060850152610bc6608082015160808601906001600160401b03169052565b60a0818101516001600160401b03169085015260c0818101516001600160401b03169085015201516001600160801b0316910152565b565b5034610596576020366003190112610596576109df610c27600435610c2281610585565b612230565b60405191829182610b64565b50346105965760203660031901126105965760206105e9600435610c5681610585565b612904565b503461059657610016610c6d366107ec565b91333361326c565b503461059657610016610c87366107ec565b91333361399b565b50346105965760003660031901126105965760206040517f00000000000000000000000000000000000000000000000000000000000000008152f35b8015150361059657565b50346105965760a036600319011261059657600435610cf381610ccb565b602435610cff81610ccb565b60443591610d0c83610ccb565b60643592610d1984610ccb565b608435610d2581610ccb565b60018060a01b03807f0000000000000000000000000000000000000000000000000000000000000000163314159081610e61575b50610e50577f3be39979091ae7ca962aa1c44e645f2df3c221b79f324afa5f44aedc8d2f690d94610e4b92610e16610d99610d9387614c7a565b60ff1690565b610dae610da589614c7a565b60011b60fe1690565b17610dc4610dbb84614c7a565b60021b60fc1690565b17610dda610dd185614c7a565b60031b60f81690565b17610df0610de786614c7a565b60041b60f01690565b600180546001600160f81b03169290911760f81b6001600160f81b031916919091179055565b6040519586958693909594919260809360a0860197151586521515602086015215156040850152151560608401521515910152565b0390a1005b6040516282b42960e81b8152600490fd5b90507f00000000000000000000000000000000000000000000000000000000000000001633141538610d59565b5034610596576000366003190112610596576040517f00000000000000000000000000000000000000000000000000000000000000006001600160a01b03168152602090f35b503461059657602036600319011261059657600435610ef281610585565b6001600160a01b03166000908152600260209081526040918290205482516001600160801b038216815260809190911c91810191909152f35b50346105965760003660031901126105965760206040517f00000000000000000000000000000000000000000000000000000000000000008152f35b5034610596576000366003190112610596576020600460015460f81c161515604051908152f35b50346105965760203660031901126105965760206105e9600435610fb181610585565b614908565b50346105965760003660031901126105965760206040517f00000000000000000000000000000000000000000000000000000000000000008152f35b50346105965760403660031901126105965760206105e960043561101581610585565b602435906147ec565b50346105965760003660031901126105965760206105e9612866565b50346105965760003660031901126105965760206040517f00000000000000000000000000000000000000000000000000000000000000008152f35b503461059657600036600319011261059657602066038d7ea4c680006106c061109d6122b4565b6001600160681b036001600160401b036110ca600154936106b164ffffffffff91828760d01c1690612329565b9050169160681c16611bfa565b5034610596576000366003190112610596576020600860015460f81c161515604051908152f35b503461059657610016611110366108a5565b929190913361326c565b50346105965760003660031901126105965760206040517f00000000000000000000000000000000000000000000000000000000000000008152f35b50346105965760003660031901126105965760206040517f00000000000000000000000000000000000000000000000000000000000000008152f35b50346105965760003660031901126105965760206040517f00000000000000000000000000000000000000000000000000000000000000008152f35b50346105965760003660031901126105965760206040517f00000000000000000000000000000000000000000000000000000000000000008152f35b5034610596576020366003190112610596576020611229600435612747565b6001600160401b0360405191168152f35b50346105965760203660031901126105965760206105e960043561125d81610585565b6129be565b503461059657602060ff6112a161127836610936565b6001600160a01b0391821660009081526003865260408082209290931681526020919091522090565b54166040519015158152f35b5034610596576000366003190112610596576020600260015460f81c161515604051908152f35b503461059657600036600319011261059657602060405160ff7f0000000000000000000000000000000000000000000000000000000000000000168152f35b50346105965760003660031901126105965760206040517f00000000000000000000000000000000000000000000000000000000000000008152f35b50346105965760403660031901126105965761085460043561137081610585565b602435907f000000000000000000000000000000000000000000000000000000000000000090333361399b565b50346105965760003660031901126105965760206040517f00000000000000000000000000000000000000000000000000000000000000008152f35b5034610596576113e8366107ec565b6001600160a01b03917f000000000000000000000000000000000000000000000000000000000000000083163303610e505760405163095ea7b360e01b81526001600160a01b03949094166004850152602484019190915260209183916044918391600091165af18015611484575b61145d57005b6100169060203d811161147d575b6114758183611af9565b8101906135ae565b503d61146b565b61148c6128f7565b611457565b5034610596576020366003190112610596576100166004356114b281610585565b6114ba612373565b60018060a01b03811660005260056020526040600020611526604051916114e083611ac8565b5480600c0b83526001600160401b03808260681c1660208501528160a81c16604084015261151c61ffff8260e81c16606085019061ffff169052565b60f81c6080830152565b8051600c0b91613087565b503461059657610016611543366108a5565b929190913361399b565b50346105965761001661155f366107ec565b913333613e71565b50346105965760403660031901126105965760043561158581610585565b602435906001600160401b03908183116105965736602384011215610596578260040135918211610596573660248360051b850101116105965760246100169301906142a3565b5034610596576020366003190112610596576004356115ea81610585565b6001600160a01b03166000908152600760205260409020805463ffffffff191663ffffffff179055005b5034610596576000366003190112610596576040517f00000000000000000000000000000000000000000000000000000000000000006001600160a01b03168152602090f35b50346105965760203660031901126105965760043561167881610585565b60018060a01b0316600052600760205260806040600020546040519063ffffffff811682526001600160401b038160201c1660208301526001600160801b038160601c16604083015260e01c6060820152f35b50346105965760203660031901126105965760043560ff8116810361059657610c276109df91611c2c565b50346105965760206105c361170a36610936565b906149ed565b5034610596576000366003190112610596576020601060015460f81c161515604051908152f35b5034610596576020366003190112610596576020611229600435612637565b50346105965760203660031901126105965760043561177481610585565b60018060a01b0316600052600560205260a06040600020546040519080600c0b82526001600160401b03808260681c1660208401528160a81c16604083015261ffff8160e81c16606083015260f81c6080820152f35b5034610596576040366003190112610596576004356117e881610585565b602435906001600160a01b037f000000000000000000000000000000000000000000000000000000000000000081163303610e5057611825612ac5565b600081129081156118a3575b506118915781611883847fec4431f2ba1a9382f6b0c4352b888cba6f7db91667d9f776abe5ad8ddc5401b6947f0000000000000000000000000000000000000000000000000000000000000000614084565b6040519384521691602090a2005b60405163128bd24d60e31b8152600490fd5b6118ad9150614c6f565b831138611831565b5034610596576080366003190112610596576004356118d381610585565b604435606435916118e383610585565b601060015460f81c16611a16576118f8612ac5565b600081121590816119eb575b506119d95761193482337f00000000000000000000000000000000000000000000000000000000000000006135c3565b61193e82826147ec565b9260243584106119c757611951826129be565b8411611891577ff891b2a411b0e66a5f0a6ff1368670fefa287a13f541eb633a386a1a9cc7046b9161199f6119c29261199861198c88614bc8565b6001600160801b031690565b9083614084565b6040805194855260208501959095526001600160a01b0316933393918291820190565b0390a3005b60405163fa6ad35560e01b8152600490fd5b604051631d99ddbf60e01b8152600490fd5b90507f0000000000000000000000000000000000000000000000000000000000000000111538611904565b6040516313d0ff5960e31b8152600490fd5b5034610596576000366003190112610596576040517f00000000000000000000000000000000000000000000000000000000000000006001600160a01b03168152602090f35b503461059657604036600319011261059657610016600435611a8f81610585565b6024359033333361326c565b503461059657604036600319011261059657610016600435611abc81610585565b60243590333333613e71565b60a081019081106001600160401b03821117611ae357604052565b634e487b7160e01b600052604160045260246000fd5b90601f801991011681019081106001600160401b03821117611ae357604052565b6040519061010082018281106001600160401b03821117611ae357604052565b6040519061010082018281106001600160401b03821117611ae3576040528160e06000918281528260208201528260408201528260608201528260808201528260a08201528260c08201520152565b50634e487b7160e01b600052601260045260246000fd5b50634e487b7160e01b600052601160045260246000fd5b66038d7ea4c68000908060001904821181151516611bd3570290565b611bdb611ba0565b0290565b655af3107a4000908060001904821181151516611bd3570290565b8060001904821181151516611bd3570290565b60ff16604d8111611c1f575b600a0a90565b611c27611ba0565b611c19565b611c34611b3a565b5060ff811660ff7f00000000000000000000000000000000000000000000000000000000000000001681101561221e5780611dae57507f00000000000000000000000000000000000000000000000000000000000000007f00000000000000000000000000000000000000000000000000000000000000005b61ffff808260a01c16611cbf90611bdf565b6001600160401b0316818360b01c16611cd790611bdf565b6001600160401b0316918360c01c16611cef90611bdf565b6001600160401b0316928460a01c60ff16611d0990611c0d565b6001600160401b031690611d2d6001600160401b038084169060a889901c16611bfa565b6001600160801b031695611d3f611b1a565b60ff90981688526001600160a01b039182166020890152166001600160a01b031660408701526001600160401b031660608601526001600160401b031660808501526001600160401b031660a08401526001600160401b031660c08301526001600160801b031660e082015290565b60018103611dfe57507f00000000000000000000000000000000000000000000000000000000000000007f0000000000000000000000000000000000000000000000000000000000000000611cad565b60028103611e4e57507f00000000000000000000000000000000000000000000000000000000000000007f0000000000000000000000000000000000000000000000000000000000000000611cad565b60038103611e9e57507f00000000000000000000000000000000000000000000000000000000000000007f0000000000000000000000000000000000000000000000000000000000000000611cad565b60048103611eee57507f00000000000000000000000000000000000000000000000000000000000000007f0000000000000000000000000000000000000000000000000000000000000000611cad565b60058103611f3e57507f00000000000000000000000000000000000000000000000000000000000000007f0000000000000000000000000000000000000000000000000000000000000000611cad565b60068103611f8e57507f00000000000000000000000000000000000000000000000000000000000000007f0000000000000000000000000000000000000000000000000000000000000000611cad565b60078103611fde57507f00000000000000000000000000000000000000000000000000000000000000007f0000000000000000000000000000000000000000000000000000000000000000611cad565b6008810361202e57507f00000000000000000000000000000000000000000000000000000000000000007f0000000000000000000000000000000000000000000000000000000000000000611cad565b6009810361207e57507f00000000000000000000000000000000000000000000000000000000000000007f0000000000000000000000000000000000000000000000000000000000000000611cad565b600a81036120ce57507f00000000000000000000000000000000000000000000000000000000000000007f0000000000000000000000000000000000000000000000000000000000000000611cad565b600b810361211e57507f00000000000000000000000000000000000000000000000000000000000000007f0000000000000000000000000000000000000000000000000000000000000000611cad565b600c810361216e57507f00000000000000000000000000000000000000000000000000000000000000007f0000000000000000000000000000000000000000000000000000000000000000611cad565b600d81036121be57507f00000000000000000000000000000000000000000000000000000000000000007f0000000000000000000000000000000000000000000000000000000000000000611cad565b600e0361220c577f00000000000000000000000000000000000000000000000000000000000000007f0000000000000000000000000000000000000000000000000000000000000000611cad565b60405163971241a160e01b8152600490fd5b604051633640530560e01b8152600490fd5b90612239611b3a565b5060009060ff92837f000000000000000000000000000000000000000000000000000000000000000016925b838582161061228057604051633640530560e01b8152600490fd5b61228981611c2c565b60208101516001600160a01b038481169116146122ab57506001018416612265565b93505050915090565b650100000000004210156122cd5764ffffffffff421690565b604051633d32ffdb60e01b8152600490fd5b906040516122ec81611ac8565b608081935480600c0b83526001600160401b03808260681c1660208501528160a81c16604084015261ffff8160e81c16606084015260f81c910152565b64ffffffffff918216911681811061233f570390565b612347611ba0565b0390565b906001600160401b038080931691168092038111612367570190565b61236f611ba0565b0190565b61237b6122b4565b6123a561239b61239560015464ffffffffff9060d01c1690565b83612329565b64ffffffffff1690565b90816123af575050565b8161240a6123ee6123c2610bfc95612590565b91909167ffffffffffffffff60401b6000549160401b169067ffffffffffffffff60401b191617600055565b6001600160401b03166001600160401b03196000541617600055565b6001547f000000000000000000000000000000000000000000000000000000000000000091906001600160681b031682811015612512575b506001546124639060681c6001600160681b03165b6001600160681b031690565b91821015612495575b50506001805464ffffffffff60d01b191660d09290921b64ffffffffff60d01b16919091179055565b6124d66124d161250b936124cc6124e6947f0000000000000000000000000000000000000000000000000000000000000000611bfa565b612f28565b614b7c565b60005460c01c61234b565b61234b565b600080546001600160c01b031660c09290921b6001600160c01b031916919091179055565b388061246c565b61255d6125496124d161258a936124cc867f0000000000000000000000000000000000000000000000000000000000000000611bfa565b60005460801c6001600160401b031661234b565b6000805467ffffffffffffffff60801b191660809290921b67ffffffffffffffff60801b16919091179055565b38612442565b906000546001600160401b0392838083169260401c1693816125b3575b50509190565b816126066126006125e097946126126126189761260c876125e761260c996125d9612866565b9e8f612637565b169d612747565b169b612606612600670de0b6b3a7640000998a93611bfa565b84611bfa565b04614b7c565b9061234b565b98611bfa565b9138806125ad565b81198111612367570190565b81811061233f570390565b7f00000000000000000000000000000000000000000000000000000000000000008082116126c057506124d1670de0b6b3a764000061269961095b937f0000000000000000000000000000000000000000000000000000000000000000611bfa565b047f0000000000000000000000000000000000000000000000000000000000000000612620565b61095b916124d191612733670de0b6b3a76400009161270383612699837f0000000000000000000000000000000000000000000000000000000000000000611bfa565b9381811061273a575b037f0000000000000000000000000000000000000000000000000000000000000000611bfa565b0490612620565b612742611ba0565b61270c565b7f00000000000000000000000000000000000000000000000000000000000000008082116127d057506124d1670de0b6b3a76400006127a961095b937f0000000000000000000000000000000000000000000000000000000000000000611bfa565b047f0000000000000000000000000000000000000000000000000000000000000000612620565b61095b916124d191612733670de0b6b3a764000091612813836127a9837f0000000000000000000000000000000000000000000000000000000000000000611bfa565b93818110612843575b037f0000000000000000000000000000000000000000000000000000000000000000611bfa565b61284b611ba0565b61281c565b811561285a570490565b612862611b89565b0490565b6000546001546128a866038d7ea4c68000916001600160401b036001600160681b039084612898828816848616611bfa565b049560401c169160681c16611bfa565b04816128b5575050600090565b670de0b6b3a76400009080600019048211811515166128d357020490565b6128db611ba0565b020490565b519069ffffffffffffffffffff8216820361059657565b506040513d6000823e3d90fd5b604051633fabe5a360e21b81529060a090829060049082906001600160a01b03165afa9081156129a2575b600091612956575b5060008113156129445790565b60405163fd1ee34960e01b8152600490fd5b9060a0823d821161299a575b8161296f60a09383611af9565b810103126107ad5750612981816128e0565b506129936080602083015192016128e0565b5038612937565b3d9150612962565b6129aa6128f7565b61292f565b90816020910312610596575190565b6040516370a0823160e01b8152306004820152906001600160a01b0316602082602481845afa918215612a48575b600092612a18575b5060005260026020526001600160801b03604060002054169081811061233f570390565b612a3a91925060203d8111612a41575b612a328183611af9565b8101906129af565b90386129f4565b503d612a28565b612a506128f7565b6129ec565b600082128015600160ff1b8401831216612a7f575b6001600160ff1b03830182131661233f570390565b612a87611ba0565b612a6a565b6000811280156001600160ff1b03839003841316612ab8575b600160ff1b829003831216612367570190565b612ac0611ba0565b612aa5565b61095b612ad06122b4565b612af3612aee61239b6001549364ffffffffff8560d01c1690612329565b612590565b6040516370a0823160e01b8152306004820152929091906020846024816001600160a01b037f0000000000000000000000000000000000000000000000000000000000000000165afa938415612be5575b600094612bad575b5091612ba1612b9b612b9b93612b94612ba79666038d7ea4c68000926001600160401b0384612b87826001600160681b039416848616611bfa565b0497169160681c16611bfa565b0495614c23565b91614c23565b90612a55565b90612a8c565b612ba793919450612b9b612b9b93612b94612bd8612ba19460203d8111612a4157612a328183611af9565b9794965050935050612b4c565b612bed6128f7565b612b44565b90612c19612c128360018060a01b03166000526005602052604060002090565b54600c0b90565b906000928383600c0b1215612e0957612cba612c61612c5b612c508496959660018060a01b03166000526005602052604060002090565b5460e81c61ffff1690565b93614a35565b612c8a7f0000000000000000000000000000000000000000000000000000000000000000612904565b6001600160401b037f00000000000000000000000000000000000000000000000000000000000000001691612f72565b90849360ff95867f000000000000000000000000000000000000000000000000000000000000000016955b8781169087821015612dfb5790889161ffff600180931b891616612d0b575b0116612ce5565b9590915082811215612def5790612de98992612ba7612de488612dde612dd26080612dc3612d898f612d5e612d42612d7c92611c2c565b6001600160a01b03909816600090815260066020526040902090565b6020888101516001600160a01b031660009081529190526040902090565b546001600160801b031690565b6040860151612da0906001600160a01b0316612904565b6001600160801b03612dbc60608901516001600160401b031690565b9216612f53565b9301516001600160401b031690565b6001600160401b031690565b90612f15565b614c23565b95612d04565b50955050945050505090565b505094509450509050121590565b50915050600190565b90612e32612c128360018060a01b03166000526005602052604060002090565b906000928383600c0b1215612f1057612e69612c61612c5b612c508496959660018060a01b03166000526005602052604060002090565b90849360ff95867f000000000000000000000000000000000000000000000000000000000000000016955b8781169087821015612f035790889161ffff600180931b891616612eba575b0116612e94565b9590915082811215612ef75790612ef18992612ba7612de488612dde612dd260a0612dc3612d898f612d5e612d42612d7c92611c2c565b95612eb3565b50509450945050505090565b5050945094505090501290565b509050565b670de0b6b3a76400009161286291611bfa565b612850907f000000000000000000000000000000000000000000000000000000000000000090611bfa565b6001600160401b0391612f6591611bfa565b911690811561285a570490565b9190612f856001600160401b0391614c23565b6000808513949082136001600160ff1b03868216848204841116613036575b600160ff1b96600085129185918316858a05831216613029575b60008512938416828a0586121661301c575b05831291161661300f575b029116918215613002575b8114600019831416612ff6570590565b612ffe611ba0565b0590565b61300a611b89565b612fe6565b613017611ba0565b612fdb565b613024611ba0565b612fd0565b613031611ba0565b612fbe565b61303e611ba0565b612fa4565b6001600160401b03918216911681811061233f570390565b600c0b6c7fffffffffffffffffffffffff19811461307a575b60000390565b613082611ba0565b613074565b6131a690610bfc9361309a8451600c0b90565b600c82900b855260009182918683600c83900b811361322c5761312f61310861317c946001600160681b03613101612dd2613156976130fb60206130ec6124d19a546001600160401b039060801c1690565b9201516001600160401b031690565b90613043565b9116611bfa565b7f000000000000000000000000000000000000000000000000000000000000000090612850565b7f000000000000000000000000000000000000000000000000000000000000000090612850565b61316f60408901916124e183516001600160401b031690565b6001600160401b03169052565b600c0b1261321f575461095e9060801c6001600160401b03165b6001600160401b03166020850152565b815160208301516040840151606085015160809095015160e89590951b61ffff60e81b1660a89190911b67ffffffffffffffff60a81b166001600160681b0390931660689290921b67ffffffffffffffff60681b169190911791909117176001600160f81b031960f89390931b92909216919091179055565b5461095e9060c01c613196565b61312f6131086132679461326261245761245761325c612dd2613156996130fb60206130ec6124d19c5460c01c90565b9361305b565b611bfa565b61317c565b939290936001805460f81c16611a165761328961328d91866149ed565b1590565b610e50576001600160a01b038181167f0000000000000000000000000000000000000000000000000000000000000000909116036132e45750610bfc9260001983036133635791506132de81614966565b91613363565b906132f2610bfc9493614bc8565b926136f3565b906001600160681b038080931691168092038111612367570190565b6001600160681b03918216911681811061233f570390565b600180546cffffffffffffffffffffffffff60681b191660689290921b6cffffffffffffffffffffffffff60681b16919091179055565b61344a919261339381837f00000000000000000000000000000000000000000000000000000000000000006135c3565b61339b612373565b6001600160a01b0384166000908152600560205260409020613455906133c5906122df565b6122df565b8051600c0b9061344f6133f56133ee6133e96133e086614a35565b612ba789614c23565b614acc565b8094613534565b97906134316134158a6134106001546001600160681b031690565b6132f8565b6001600160681b03166001600160681b03196001541617600155565b60015460681c6001600160681b0316613314565b613314565b61332c565b86613087565b6040519081526001600160a01b0393841693849216907fd1cf3d156d5f8f0d50f6c122ed609cec09d35c9b9fb3fff6ea0959134dae424e90602090a36001600160681b0381166134a3575050565b600080516020614c898339815191526134e16134d16000936134cc85546001600160401b031690565b614aa7565b6040519081529081906020820190565b0390a3565b600c91820b910b6000821280156c7fffffffffffffffffffffffff198401831216613527575b826c7fffffffffffffffffffffffff0182131661233f570390565b61352f611ba0565b61350c565b91909180600c0b83600c0b8181126135a157600012613567575061355891926134e6565b6001600160681b031690600090565b6000136135885761357891926134e6565b6001600160681b03169060009190565b6135919061305b565b6001600160681b03908116921690565b5050509050600090600090565b90816020910312610596575161095b81610ccb565b6040516323b872dd60e01b81526001600160a01b039283166004820152306024820152604481019390935260209183916064918391600091165af1908115613646575b600091613628575b501561361657565b60405163073d1efd60e51b8152600490fd5b613640915060203d811161147d576114758183611af9565b3861360e565b61364e6128f7565b613606565b90604051604081018181106001600160401b03821117611ae35760405291546001600160801b038116835260801c6020830152565b906001600160801b038080931691168092038111612367570190565b906001600160801b03166001600160801b0319825416179055565b9060206001600160801b03916136d883825116856136a4565b0151908254916001600160801b03199060801b169116179055565b919290926001600160801b039061370d82841685836135c3565b61371681612230565b9061373b6137368260018060a01b03166000526002602052604060002090565b613653565b926137666137598661375487516001600160801b031690565b613688565b6001600160801b03168552565b83516001600160801b03169061378961198c60e08601516001600160801b031690565b91161161388557613855613830856138809461384f7ffa56f7b24f17183d81894d3ac2ee654e3c26388d17a28dbd9549b8114304e1f49761384a876137ee8e61380c613805612d7c856137ee8560018060a01b03166000526006602052604060002090565b9060018060a01b0316600052602052604060002090565b9889613688565b98899561382b8560018060a01b03166000526002602052604060002090565b6136bf565b6001600160a01b0316600090815260066020526040902090565b6136a4565b89613897565b6040516001600160801b0390941684526001600160a01b039081169581169416929081906020820190565b0390a4565b604051637ac7b99d60e11b8152600490fd5b909290916001600160801b03908116158080613990575b15613916575050506138ee6138d260ff610bfc945116600160ff61ffff92161b1690565b6001600160a01b03909216600090815260056020526040902090565b805461ffff60e81b19811660e891821c61ffff16909317901b61ffff60e81b16919091179055565b159182613985575b5050613928575050565b61ffff61396161394760ff610bfc955116600160ff61ffff92161b1690565b199260018060a01b03166000526005602052604060002090565b91825460e81c161681549061ffff60e81b9060e81b169061ffff60e81b1916179055565b16159050388061391e565b5081831615156138ae565b93929093600260015460f81c16611a16576132896139b991866149ed565b610e50576001600160a01b0384811683821614613a3157807f00000000000000000000000000000000000000000000000000000000000000001690821614600014613a1d5750610bfc926000198303613a54579150613a1782614908565b91613a54565b90613a2b610bfc9493614bc8565b92613d32565b60405163e397a99b60e01b8152600490fd5b600160ff1b811461307a5760000390565b919091613a5f612373565b6001600160a01b0381166000908152600560205260409020613a80906122df565b6001600160a01b0384166000908152600560205260409020613aa1906122df565b928151613aae90600c0b90565b938051613abb90600c0b90565b92613ac586614a35565b613ace84614c23565b613ad791612a55565b92613ae185614a35565b90613aeb90614c23565b613af491612a8c565b90613afe84614acc565b613b088193614acc565b978893613b1491613ccd565b98613b1f9197613534565b98878a600154613b35906001600160681b031690565b90613b3f916132f8565b90613b4991613314565b613b69906001600160681b03166001600160681b03196001541617600155565b60015460681c6001600160681b031690613b82916132f8565b90613b8c91613314565b613b959061332c565b613b9f9187613087565b613ba99187613087565b60008112613c64575b506001600160681b0391828216613c15575b50508116613bd0575050565b600080516020614c898339815191526134e1613bf96000936134cc85546001600160401b031690565b6040519081526001600160a01b03909416939081906020820190565b600080516020614c89833981519152613c5a613c3e6000946134cc86546001600160401b031690565b6040519081526001600160a01b03909316929081906020820190565b0390a33880613bc4565b613c6d90613a43565b7f000000000000000000000000000000000000000000000000000000000000000011613cbb57613c9f61328983612bf2565b613ca95738613bb2565b604051630a62fbdb60e11b8152600490fd5b604051637139da2360e11b8152600490fd5b919082600c0b81600c0b8181136135a157600013613cf0575061355891926134e6565b600012613d015761357891926134e6565b613d0a9061305b565b6001600160681b03928316921690565b6001600160801b03918216911681811061233f570390565b6001600160a01b0381811660008181526006602081815260408084208987168086529083528185205489881686529383528185209085529091529091205494969591946001600160801b039492939291908516908516613d928882613d1a565b91613d9d8982613688565b918387613dbc8760018060a01b03166000526006602052604060002090565b6001600160a01b0390911660009081526020919091526040902090613de0916136a4565b6001600160a01b038b81166000908152600660209081526040808320938b16835292905220613e109084906136a4565b613e1987612230565b93613e25918587613897565b613e2f928a613897565b613e3890612bf2565b15613ca957806020927f29db89d45e1a802b4d55e202984fce9faf1d30aedf86503ff1ea0ed9ebb64201946040519716875216951693a4565b93929093600460015460f81c16611a1657613289613e8f91866149ed565b610e50576001600160a01b038181167f000000000000000000000000000000000000000000000000000000000000000090911603613ee65750610bfc926000198303613efa579150613ee082614908565b91613efa565b90613ef4610bfc9493614bc8565b9261410e565b909161344a92613f08612373565b6001600160a01b0383166000908152600560205260409020613f29906122df565b613f93613f378251600c0b90565b613f4c613f4382614a35565b612ba187614c23565b9261344f613f63613f5c86614acc565b8094613ccd565b613f7f6134158361344560019e959e546001600160681b031690565b60015460681c6001600160681b03166132f8565b6000811261403f575b50613fc882827f0000000000000000000000000000000000000000000000000000000000000000614084565b6040519182526001600160a01b0392831692169082907f9b1bfa7fa9ee420a16e124f794c35ac9f90472acc99140eb2f6447c714cad8eb90602090a36001600160681b038216614016575050565b600080516020614c898339815191526134e16134d16000946134cc86546001600160401b031690565b61404890613a43565b7f000000000000000000000000000000000000000000000000000000000000000011613cbb5761407a61328984612bf2565b613ca95738613f9c565b60405163a9059cbb60e01b81526001600160a01b039283166004820152602481019390935260209183916044918391600091165af1908115614101575b6000916140e3575b50156140d157565b60405163cefaffeb60e01b8152600490fd5b6140fb915060203d811161147d576114758183611af9565b386140c9565b6141096128f7565b6140c1565b909260018060a01b0391828116928360005260066020526141c76001600160801b0392610b5f846141558960406000209060018060a01b0316600052602052604060002090565b54166141618782613d1a565b906141946141818b60018060a01b03166000526002602052604060002090565b61418e8a8a835416613d1a565b906136a4565b6141b88261384a8c6137ee8860018060a01b03166000526006602052604060002090565b6141c18a612230565b84613897565b15613ca957806020927fd6d480d5b3068db003533b170d67561494d72e3bf9fa40a266471351ebba9e169416956141ff878983614084565b60405196875216951693a4565b919081101561421c5760051b0190565b634e487b7160e01b600052603260045260246000fd5b3561095b81610585565b90604051608081016001600160401b0382821081831117611ae3576060916040528294549063ffffffff821684528160201c1660208401526001600160801b0381831c16604084015260e01c910152565b60019063ffffffff809116908114612367570190565b9291909260016008815460f81c16611a16575a946142bf612373565b60005b8481106143fb5750505061439b9061438161435b6143566142e8610bfc97985a9061262c565b61434f61433661431261430d8860018060a01b03166000526007602052604060002090565b61423c565b986124d161432c6143278c5163ffffffff1690565b61428d565b63ffffffff168b52565b61316f60208a01916124e183516001600160401b031690565b4890611bfa565b614bc8565b614374604086019161375483516001600160801b031690565b6001600160801b03169052565b6001600160a01b0316600090815260076020526040902090565b815160208084015160408501516060958601516001600160e01b031960e09190911b166fffffffffffffffffffffffffffffffff60601b9190961b1663ffffffff9093166bffffffffffffffff000000009190921b161717919091179055565b8061441961441361440e8694898761420c565b614232565b8661441f565b016142c2565b9161442c61328983612e12565b6147da57906144506133c08260018060a01b03166000526005602052604060002090565b9061445c8251600c0b90565b9361446685614a35565b926060906144788282015161ffff1690565b6144a17f0000000000000000000000000000000000000000000000000000000000000000612904565b96600092839860ff9a8b7f0000000000000000000000000000000000000000000000000000000000000000169a5b8c8116908c82101561462c57908d91898c8c61ffff600180961b8c16166144fb575b50505001166144cf565b90919a61450784611c2c565b6020818101516001600160a01b0386811660009081526006845260408082209290931680825291845282812080546001600160801b03198116909155600290945291909120805493946001600160801b03938416949293909261456c91869116613d1a565b614575916136a4565b604084810151909f906001600160a01b031661459090612904565b908501516001600160401b03166145b0916001600160801b038616612f53565b60c094909401516145ca906001600160401b031685612f15565b6145d391612620565b9d516001600160801b0392909216825260208201929092526001600160a01b0391821693821692909116907f9850ab1af75177e4a9201c65a2cf7976d5d28e40ef63494b44366f86b2f9412e90604090a4898c8c6144f1565b505094979699509450969150975061468361467d612de4856146786001600160401b037f000000000000000000000000000000000000000000000000000000000000000016809a611bfa565b612850565b82612a8c565b91600083126147d1575b61469683614acc565b96876146a29187613087565b6001600160a01b03851660009081526005602052604090208790805461ffff60e81b191690556146d191613534565b6001546001600160681b0316906146e7916132f8565b614707906001600160681b03166001600160681b03196001541617600155565b60015460681c6001600160681b03169061472091613314565b6147299061332c565b61473291612a55565b61473b90614c6f565b926147469184612f53565b6040805193845260208401919091526001600160a01b039182169485939216917f1547a878dc89ad3c367b6338b4be6a65a5dd74fb77ae044da1e8747ef1f4f62f9190a380600c0b600012614799575050565b600080516020614c898339815191526134e16134d16000936147cb6147c586546001600160401b031690565b91614c46565b90614aa7565b6000925061468d565b604051636ef5bcdd60e11b8152600490fd5b906148b16147fc61095b93612230565b61487c60606148a761481960018060a01b03604086015116612904565b6001600160401b039384918260c08801511661486b670de0b6b3a76400009482869384106148fb575b8303167f0000000000000000000000000000000000000000000000000000000000000000611bfa565b048084106148ee575b830390611bfa565b04956132627f0000000000000000000000000000000000000000000000000000000000000000612904565b9201511690611bfa565b9080156148e1575b7f00000000000000000000000000000000000000000000000000000000000000009104612850565b6148e9611b89565b6148b9565b6148f6611ba0565b614874565b614903611ba0565b614842565b61492b6149136122b4565b6106b164ffffffffff918260015460d01c1690612329565b506001600160a01b03909116600090815260056020526040812054600c0b91908083131561496057506147cb61095b92614c46565b91505090565b6149716149136122b4565b6001600160a01b03909216600090815260056020526040812054600c0b9291508083121561496057506147cb6149a961095b9361305b565b614c46565b50600036818037808036817f00000000000000000000000000000000000000000000000000000000000000005af43d82803e156149e9573d90f35b3d90fd5b6001600160a01b03808316911690811491908215614a0a57505090565b60009081526003602090815260408083206001600160a01b0390941683529290522060ff9150541690565b6000600c82900b12614a715766038d7ea4c68000614a6b61095b926001600160401b0360005416906001600160681b0316611bfa565b04614c23565b614aa2612de461095b92614a936001600160401b0360005460401c169161305b565b6001600160681b031690614aa7565b613a43565b66038d7ea4c68000916001600160681b036001600160401b0361286293169116611bfa565b60008112614b0f57614afd61095b91614af06001600160401b036000541691611bb7565b8115614b02575b04614ba2565b614bee565b614b0a611b89565b614af7565b614b5d614afd614b39614b4361095b94614b3e6001600160401b0360005460401c16938492613a43565b611bb7565b612620565b60018110614b6f575b8115614b62575b6000190104614ba2565b61305b565b614b6a611b89565b614b53565b614b77611ba0565b614b4c565b6001600160401b0390818111614b90571690565b6040516372a1cb5160e11b8152600490fd5b6001600160681b0390818111614bb6571690565b604051630dc7925560e11b8152600490fd5b6001600160801b0390818111614bdc571690565b60405163762ea71160e11b8152600490fd5b6001600160681b03166c7fffffffffffffffffffffffff8111614c1157600c0b90565b604051639369ae3560e01b8152600490fd5b6001600160ff1b038111614c345790565b60405163e7e828ad60e01b8152600490fd5b600081600c0b12614c5d576001600160681b031690565b60405163363b64b760e11b8152600490fd5b60008112614c5d5790565b6000901561095b575060019056feddf252ad1be2c89b69c2b068fc378daa952ba7f163c4a11628f55a4df523b3efa2646970667358221220ebbb5992ff311ebfce549d45326cccce4311c56f7dbe1eccbf1a0389a5886b7364736f6c634300080f0033",
  "immutableReferences": {
    "11": [
      {
        "length": 32,
        "start": 1582
      },
      {
        "length": 32,
        "start": 3375
      },
      {
        "length": 32,
        "start": 5107
      },
      {
        "length": 32,
        "start": 6134
      }
    ],
    "15": [
      {
        "length": 32,
        "start": 2166
      },
      {
        "length": 32,
        "start": 3685
      }
    ],
    "19": [
      {
        "length": 32,
        "start": 2094
      },
      {
        "length": 32,
        "start": 4982
      },
      {
        "length": 32,
        "start": 5675
      },
      {
        "length": 32,
        "start": 6239
      },
      {
        "length": 32,
        "start": 6416
      },
      {
        "length": 32,
        "start": 11034
      },
      {
        "length": 32,
        "start": 12958
      },
      {
        "length": 32,
        "start": 13167
      },
      {
        "length": 32,
        "start": 14803
      },
      {
        "length": 32,
        "start": 16032
      },
      {
        "length": 32,
        "start": 16292
      }
    ],
    "23": [
      {
        "length": 32,
        "start": 6719
      },
      {
        "length": 32,
        "start": 11366
      },
      {
        "length": 32,
        "start": 17533
      },
      {
        "length": 32,
        "start": 18563
      }
    ],
    "27": [
      {
        "length": 32,
        "start": 3749
      },
      {
        "length": 32,
        "start": 18875
      }
    ],
    "31": [
      {
        "length": 32,
        "start": 4908
      },
      {
        "length": 32,
        "start": 9785
      }
    ],
    "35": [
      {
        "length": 32,
        "start": 3908
      },
      {
        "length": 32,
        "start": 9845
      },
      {
        "length": 32,
        "start": 9951
      }
    ],
    "39": [
      {
        "length": 32,
        "start": 4179
      },
      {
        "length": 32,
        "start": 9999
      }
    ],
    "43": [
      {
        "length": 32,
        "start": 4523
      },
      {
        "length": 32,
        "start": 9884
      }
    ],
    "47": [
      {
        "length": 32,
        "start": 4403
      },
      {
        "length": 32,
        "start": 10057
      }
    ],
    "51": [
      {
        "length": 32,
        "start": 2556
      },
      {
        "length": 32,
        "start": 10117
      },
      {
        "length": 32,
        "start": 10223
      }
    ],
    "55": [
      {
        "length": 32,
        "start": 2323
      },
      {
        "length": 32,
        "start": 10271
      }
    ],
    "59": [
      {
        "length": 32,
        "start": 4047
      },
      {
        "length": 32,
        "start": 10156
      }
    ],
    "63": [
      {
        "length": 32,
        "start": 1993
      },
      {
        "length": 32,
        "start": 18503
      }
    ],
    "67": [
      {
        "length": 32,
        "start": 3240
      },
      {
        "length": 32,
        "start": 11412
      },
      {
        "length": 32,
        "start": 12078
      },
      {
        "length": 32,
        "start": 18001
      },
      {
        "length": 32,
        "start": 18619
      }
    ],
    "71": [
      {
        "length": 32,
        "start": 5046
      },
      {
        "length": 32,
        "start": 12554
      }
    ],
    "75": [
      {
        "length": 32,
        "start": 1762
      },
      {
        "length": 32,
        "start": 9509
      }
    ],
    "79": [
      {
        "length": 32,
        "start": 4583
      },
      {
        "length": 32,
        "start": 9384
      }
    ],
    "83": [
      {
        "length": 32,
        "start": 4463
      },
      {
        "length": 32,
        "start": 9231
      }
    ],
    "87": [
      {
        "length": 32,
        "start": 2678
      },
      {
        "length": 32,
        "start": 15471
      },
      {
        "length": 32,
        "start": 16458
      }
    ],
    "91": [
      {
        "length": 32,
        "start": 2801
      },
      {
        "length": 32,
        "start": 6639
      }
    ],
    "95": [
      {
        "length": 32,
        "start": 2740
      }
    ],
    "99": [
      {
        "length": 32,
        "start": 4847
      },
      {
        "length": 32,
        "start": 7229
      },
      {
        "length": 32,
        "start": 8771
      },
      {
        "length": 32,
        "start": 11459
      },
      {
        "length": 32,
        "start": 11890
      },
      {
        "length": 32,
        "start": 17581
      }
    ],
    "102": [
      {
        "length": 32,
        "start": 12593
      }
    ],
    "105": [
      {
        "length": 32,
        "start": 7309
      }
    ],
    "107": [
      {
        "length": 32,
        "start": 7276
      }
    ],
    "109": [
      {
        "length": 32,
        "start": 7642
      }
    ],
    "111": [
      {
        "length": 32,
        "start": 7609
      }
    ],
    "113": [
      {
        "length": 32,
        "start": 7722
      }
    ],
    "115": [
      {
        "length": 32,
        "start": 7689
      }
    ],
    "117": [
      {
        "length": 32,
        "start": 7802
      }
    ],
    "119": [
      {
        "length": 32,
        "start": 7769
      }
    ],
    "121": [
      {
        "length": 32,
        "start": 7882
      }
    ],
    "123": [
      {
        "length": 32,
        "start": 7849
      }
    ],
    "125": [
      {
        "length": 32,
        "start": 7962
      }
    ],
    "127": [
      {
        "length": 32,
        "start": 7929
      }
    ],
    "129": [
      {
        "length": 32,
        "start": 8042
      }
    ],
    "131": [
      {
        "length": 32,
        "start": 8009
      }
    ],
    "133": [
      {
        "length": 32,
        "start": 8122
      }
    ],
    "135": [
      {
        "length": 32,
        "start": 8089
      }
    ],
    "137": [
      {
        "length": 32,
        "start": 8202
      }
    ],
    "139": [
      {
        "length": 32,
        "start": 8169
      }
    ],
    "141": [
      {
        "length": 32,
        "start": 8282
      }
    ],
    "143": [
      {
        "length": 32,
        "start": 8249
      }
    ],
    "145": [
      {
        "length": 32,
        "start": 8362
      }
    ],
    "147": [
      {
        "length": 32,
        "start": 8329
      }
    ],
    "149": [
      {
        "length": 32,
        "start": 8442
      }
    ],
    "151": [
      {
        "length": 32,
        "start": 8409
      }
    ],
    "153": [
      {
        "length": 32,
        "start": 8522
      }
    ],
    "155": [
      {
        "length": 32,
        "start": 8489
      }
    ],
    "157": [
      {
        "length": 32,
        "start": 8602
      }
    ],
    "159": [
      {
        "length": 32,
        "start": 8569
      }
    ],
    "161": [
      {
        "length": 32,
        "start": 8680
      }
    ],
    "163": [
      {
        "length": 32,
        "start": 8647
      }
    ]
  },
  "source": "// SPDX-License-Identifier: BUSL-1.1\npragma solidity 0.8.15;\n\nimport \"../Comet.sol\";\n\n/**\n * @title A modified version of Compound Comet\n * @notice This is solely used for testing upgrades\n * @author Compound\n */\ncontract CometModified is Comet {\n\n    constructor(Configuration memory config) Comet(config) {}\n\n    /**\n     * @notice Initialize storage for a liquidator\n     * @dev Solely used for testing upgrades\n     */\n    function initialize(address liquidator) external {\n        liquidatorPoints[liquidator].numAbsorbs = type(uint32).max;\n    }\n\n    function newFunction() external pure returns (int) {\n        return 101;\n    }\n}\n",
  "sourcePath": "/home/stephensb/sb-labs/solidity-contracts/contracts/comet/contracts/test/CometModified.sol",
  "compiler": {
    "name": "solc",
    "version": "0.8.15+commit.e14f2714.Emscripten.clang"
  },
  "schemaVersion": "3.4.12",
  "updatedAt": "2023-11-30T22:41:29.720Z",
  "devdoc": {
    "author": "Compound",
    "kind": "dev",
    "methods": {
      "absorb(address,address[])": {
        "params": {
          "absorber": "The recipient of the incentive paid to the caller of absorb",
          "accounts": "The list of underwater accounts to absorb"
        }
      },
      "approveThis(address,address,uint256)": {
        "details": "Only callable by governorNote: Setting the `asset` as Comet's address will allow the manager to withdraw from Comet's Comet balance",
        "params": {
          "amount": "The amount of an asset to approve",
          "asset": "The asset that the manager will gain approval of",
          "manager": "The account which will be allowed or disallowed"
        }
      },
      "balanceOf(address)": {
        "details": "Note: uses updated interest indices to calculate",
        "params": {
          "account": "The account whose balance to query"
        },
        "returns": {
          "_0": "The present day base balance magnitude of the account, if positive"
        }
      },
      "borrowBalanceOf(address)": {
        "details": "Note: uses updated interest indices to calculate",
        "params": {
          "account": "The account whose balance to query"
        },
        "returns": {
          "_0": "The present day base balance magnitude of the account, if negative"
        }
      },
      "buyCollateral(address,uint256,uint256,address)": {
        "params": {
          "asset": "The asset to buy",
          "baseAmount": "The amount of base tokens used to buy the collateral",
          "minAmount": "The minimum amount of collateral tokens that should be received by the buyer",
          "recipient": "The recipient address"
        }
      },
      "getAssetInfo(uint8)": {
        "params": {
          "i": "The index of the asset info to get"
        },
        "returns": {
          "_0": "The asset info object"
        }
      },
      "getAssetInfoByAddress(address)": {
        "details": "Determine index of asset that matches given address"
      },
      "getBorrowRate(uint256)": {
        "details": "Note: Does not accrue interest first",
        "params": {
          "utilization": "The utilization to check the borrow rate for"
        },
        "returns": {
          "_0": "The per second borrow rate at `utilization`"
        }
      },
      "getCollateralReserves(address)": {
        "details": "Note: Reverts if collateral reserves are somehow negative, which should not be possible",
        "params": {
          "asset": "The collateral asset"
        }
      },
      "getPrice(address)": {
        "params": {
          "priceFeed": "The address of a price feed"
        },
        "returns": {
          "_0": "The price, scaled by `PRICE_SCALE`"
        }
      },
      "getSupplyRate(uint256)": {
        "details": "Note: Does not accrue interest first",
        "params": {
          "utilization": "The utilization to check the supply rate for"
        },
        "returns": {
          "_0": "The per second supply rate at `utilization`"
        }
      },
      "getUtilization()": {
        "details": "Note: Does not accrue interest first",
        "returns": {
          "_0": "The utilization rate of the base asset"
        }
      },
      "hasPermission(address,address)": {
        "params": {
          "manager": "The manager account",
          "owner": "The owner account"
        },
        "returns": {
          "_0": "Whether or not the manager has permission"
        }
      },
      "initialize(address)": {
        "details": "Solely used for testing upgrades"
      },
      "initializeStorage()": {
        "details": "Can be used from constructor or proxy"
      },
      "isAbsorbPaused()": {
        "returns": {
          "_0": "Whether or not absorb actions are paused"
        }
      },
      "isBorrowCollateralized(address)": {
        "params": {
          "account": "The address to check"
        },
        "returns": {
          "_0": "Whether the account is minimally collateralized enough to borrow"
        }
      },
      "isBuyPaused()": {
        "returns": {
          "_0": "Whether or not buy actions are paused"
        }
      },
      "isLiquidatable(address)": {
        "params": {
          "account": "The address to check"
        },
        "returns": {
          "_0": "Whether the account is minimally collateralized enough to not be liquidated"
        }
      },
      "isSupplyPaused()": {
        "returns": {
          "_0": "Whether or not supply actions are paused"
        }
      },
      "isTransferPaused()": {
        "returns": {
          "_0": "Whether or not transfer actions are paused"
        }
      },
      "isWithdrawPaused()": {
        "returns": {
          "_0": "Whether or not withdraw actions are paused"
        }
      },
      "pause(bool,bool,bool,bool,bool)": {
        "params": {
          "absorbPaused": "Boolean for pausing absorb actions",
          "buyPaused": "Boolean for pausing buy actions",
          "supplyPaused": "Boolean for pausing supply actions",
          "transferPaused": "Boolean for pausing transfer actions",
          "withdrawPaused": "Boolean for pausing withdraw actions"
        }
      },
      "quoteCollateral(address,uint256)": {
        "params": {
          "asset": "The collateral asset to get the quote for",
          "baseAmount": "The amount of the base asset to get the quote for"
        },
        "returns": {
          "_0": "The quote in terms of the collateral asset"
        }
      },
      "supply(address,uint256)": {
        "params": {
          "amount": "The quantity to supply",
          "asset": "The asset to supply"
        }
      },
      "supplyFrom(address,address,address,uint256)": {
        "params": {
          "amount": "The quantity to supply",
          "asset": "The asset to supply",
          "dst": "The address which will hold the balance",
          "from": "The supplier address"
        }
      },
      "supplyTo(address,address,uint256)": {
        "params": {
          "amount": "The quantity to supply",
          "asset": "The asset to supply",
          "dst": "The address which will hold the balance"
        }
      },
      "totalBorrow()": {
        "details": "Note: uses updated interest indices to calculate",
        "returns": {
          "_0": "The amount of debt*"
        }
      },
      "totalSupply()": {
        "details": "Note: uses updated interest indices to calculate",
        "returns": {
          "_0": "The supply of tokens*"
        }
      },
      "transfer(address,uint256)": {
        "params": {
          "amount": "The quantity to transfer",
          "dst": "The recipient address"
        },
        "returns": {
          "_0": "true"
        }
      },
      "transferAsset(address,address,uint256)": {
        "params": {
          "amount": "The quantity to transfer",
          "asset": "The asset to transfer",
          "dst": "The recipient address"
        }
      },
      "transferAssetFrom(address,address,address,uint256)": {
        "params": {
          "amount": "The quantity to transfer",
          "asset": "The asset to transfer",
          "dst": "The recipient address",
          "src": "The sender address"
        }
      },
      "transferFrom(address,address,uint256)": {
        "params": {
          "amount": "The quantity to transfer",
          "dst": "The recipient address",
          "src": "The sender address"
        },
        "returns": {
          "_0": "true"
        }
      },
      "withdraw(address,uint256)": {
        "params": {
          "amount": "The quantity to withdraw",
          "asset": "The asset to withdraw"
        }
      },
      "withdrawFrom(address,address,address,uint256)": {
        "params": {
          "amount": "The quantity to withdraw",
          "asset": "The asset to withdraw",
          "src": "The sender address",
          "to": "The recipient address"
        }
      },
      "withdrawReserves(address,uint256)": {
        "params": {
          "amount": "The amount of reserves to be withdrawn from the protocol",
          "to": "An address of the receiver of withdrawn reserves"
        }
      },
      "withdrawTo(address,address,uint256)": {
        "params": {
          "amount": "The quantity to withdraw",
          "asset": "The asset to withdraw",
          "to": "The recipient address"
        }
      }
    },
    "title": "A modified version of Compound Comet",
    "version": 1
  },
  "userdoc": {
    "errors": {
      "InvalidUInt64()": [
        {
          "notice": "Custom errors *"
        }
      ]
    },
    "events": {
      "AbsorbCollateral(address,address,address,uint256,uint256)": {
        "notice": "Event emitted when a user's collateral is absorbed by the protocol"
      },
      "AbsorbDebt(address,address,uint256,uint256)": {
        "notice": "Event emitted when a borrow position is absorbed by the protocol"
      },
      "BuyCollateral(address,address,uint256,uint256)": {
        "notice": "Event emitted when a collateral asset is purchased from the protocol"
      },
      "PauseAction(bool,bool,bool,bool,bool)": {
        "notice": "Event emitted when an action is paused/unpaused"
      },
      "WithdrawReserves(address,uint256)": {
        "notice": "Event emitted when reserves are withdrawn by the governor"
      }
    },
    "kind": "user",
    "methods": {
      "absorb(address,address[])": {
        "notice": "Absorb a list of underwater accounts onto the protocol balance sheet"
      },
      "accrueAccount(address)": {
        "notice": "Accrue interest and rewards for an account*"
      },
      "approveThis(address,address,uint256)": {
        "notice": "Sets Comet's ERC20 allowance of an asset for a manager"
      },
      "balanceOf(address)": {
        "notice": "Query the current positive base balance of an account or zero"
      },
      "baseBorrowMin()": {
        "notice": "The minimum base amount required to initiate a borrow"
      },
      "baseMinForRewards()": {
        "notice": "The minimum amount of base principal wei for rewards to accrue"
      },
      "baseScale()": {
        "notice": "The scale for base token (must be less than 18 decimals)"
      },
      "baseToken()": {
        "notice": "The address of the base token contract"
      },
      "baseTokenPriceFeed()": {
        "notice": "The address of the price feed for the base token"
      },
      "baseTrackingBorrowSpeed()": {
        "notice": "The speed at which borrow rewards are tracked (in trackingIndexScale)"
      },
      "baseTrackingSupplySpeed()": {
        "notice": "The speed at which supply rewards are tracked (in trackingIndexScale)"
      },
      "borrowBalanceOf(address)": {
        "notice": "Query the current negative base balance of an account or zero"
      },
      "borrowKink()": {
        "notice": "The point in the borrow rate separating the low interest rate slope and the high interest rate slope (factor)"
      },
      "borrowPerSecondInterestRateBase()": {
        "notice": "Per second borrow base interest rate (factor)"
      },
      "borrowPerSecondInterestRateSlopeHigh()": {
        "notice": "Per second borrow interest rate slope applied when utilization is above kink (factor)"
      },
      "borrowPerSecondInterestRateSlopeLow()": {
        "notice": "Per second borrow interest rate slope applied when utilization is below kink (factor)"
      },
      "buyCollateral(address,uint256,uint256,address)": {
        "notice": "Buy collateral from the protocol using base tokens, increasing protocol reserves A minimum collateral amount should be specified to indicate the maximum slippage acceptable for the buyer."
      },
      "decimals()": {
        "notice": "The number of decimals for wrapped base token"
      },
      "extensionDelegate()": {
        "notice": "The address of the extension contract delegate"
      },
      "getAssetInfo(uint8)": {
        "notice": "Get the i-th asset info, according to the order they were passed in originally"
      },
      "getCollateralReserves(address)": {
        "notice": "Gets the total balance of protocol collateral reserves for an asset"
      },
      "getPrice(address)": {
        "notice": "Get the current price from a feed"
      },
      "getReserves()": {
        "notice": "Gets the total amount of protocol reserves of the base asset"
      },
      "governor()": {
        "notice": "The admin of the protocol"
      },
      "hasPermission(address,address)": {
        "notice": "Determine if the manager has permission to act on behalf of the owner"
      },
      "initialize(address)": {
        "notice": "Initialize storage for a liquidator"
      },
      "initializeStorage()": {
        "notice": "Initialize storage for the contract"
      },
      "isAllowed(address,address)": {
        "notice": "Mapping of users to accounts which may be permitted to manage the user account"
      },
      "isBorrowCollateralized(address)": {
        "notice": "Check whether an account has enough collateral to borrow"
      },
      "isLiquidatable(address)": {
        "notice": "Check whether an account has enough collateral to not be liquidated"
      },
      "liquidatorPoints(address)": {
        "notice": "Mapping of magic liquidator points"
      },
      "numAssets()": {
        "notice": "The number of assets this contract actually supports"
      },
      "pause(bool,bool,bool,bool,bool)": {
        "notice": "Pauses different actions within Comet"
      },
      "pauseGuardian()": {
        "notice": "The account which may trigger pauses"
      },
      "quoteCollateral(address,uint256)": {
        "notice": "Gets the quote for a collateral asset in exchange for an amount of base asset"
      },
      "storeFrontPriceFactor()": {
        "notice": "The fraction of the liquidation penalty that goes to buyers of collateral instead of the protocol"
      },
      "supply(address,uint256)": {
        "notice": "Supply an amount of asset to the protocol"
      },
      "supplyFrom(address,address,address,uint256)": {
        "notice": "Supply an amount of asset from `from` to dst, if allowed"
      },
      "supplyKink()": {
        "notice": "The point in the supply rates separating the low interest rate slope and the high interest rate slope (factor)"
      },
      "supplyPerSecondInterestRateBase()": {
        "notice": "Per second supply base interest rate (factor)"
      },
      "supplyPerSecondInterestRateSlopeHigh()": {
        "notice": "Per second supply interest rate slope applied when utilization is above kink (factor)"
      },
      "supplyPerSecondInterestRateSlopeLow()": {
        "notice": "Per second supply interest rate slope applied when utilization is below kink (factor)"
      },
      "supplyTo(address,address,uint256)": {
        "notice": "Supply an amount of asset to dst"
      },
      "targetReserves()": {
        "notice": "The minimum base token reserves which must be held before collateral is hodled"
      },
      "totalBorrow()": {
        "notice": "Get the total amount of debt"
      },
      "totalSupply()": {
        "notice": "Get the total number of tokens in circulation"
      },
      "totalsCollateral(address)": {
        "notice": "Aggregate variables tracked for each collateral asset"
      },
      "trackingIndexScale()": {
        "notice": "The scale for reward tracking"
      },
      "transfer(address,uint256)": {
        "notice": "ERC20 transfer an amount of base token to dst"
      },
      "transferAsset(address,address,uint256)": {
        "notice": "Transfer an amount of asset to dst"
      },
      "transferAssetFrom(address,address,address,uint256)": {
        "notice": "Transfer an amount of asset from src to dst, if allowed"
      },
      "transferFrom(address,address,uint256)": {
        "notice": "ERC20 transfer an amount of base token from src to dst, if allowed"
      },
      "userBasic(address)": {
        "notice": "Mapping of users to base principal and other basic data"
      },
      "userCollateral(address,address)": {
        "notice": "Mapping of users to collateral data per collateral asset"
      },
      "userNonce(address)": {
        "notice": "The next expected nonce for an address, for validating authorizations via signature"
      },
      "withdraw(address,uint256)": {
        "notice": "Withdraw an amount of asset from the protocol"
      },
      "withdrawFrom(address,address,address,uint256)": {
        "notice": "Withdraw an amount of asset from src to `to`, if allowed"
      },
      "withdrawReserves(address,uint256)": {
        "notice": "Withdraws base token reserves if called by the governor"
      },
      "withdrawTo(address,address,uint256)": {
        "notice": "Withdraw an amount of asset to `to`"
      }
    },
    "notice": "This is solely used for testing upgrades",
    "version": 1
  }
}