{
  "contractName": "CometStorage",
  "abi": [
    {
      "inputs": [
        {
          "internalType": "address",
          "name": "",
          "type": "address"
        },
        {
          "internalType": "address",
          "name": "",
          "type": "address"
        }
      ],
      "name": "isAllowed",
      "outputs": [
        {
          "internalType": "bool",
          "name": "",
          "type": "bool"
        }
      ],
      "stateMutability": "view",
      "type": "function"
    },
    {
      "inputs": [
        {
          "internalType": "address",
          "name": "",
          "type": "address"
        }
      ],
      "name": "liquidatorPoints",
      "outputs": [
        {
          "internalType": "uint32",
          "name": "numAbsorbs",
          "type": "uint32"
        },
        {
          "internalType": "uint64",
          "name": "numAbsorbed",
          "type": "uint64"
        },
        {
          "internalType": "uint128",
          "name": "approxSpend",
          "type": "uint128"
        },
        {
          "internalType": "uint32",
          "name": "_reserved",
          "type": "uint32"
        }
      ],
      "stateMutability": "view",
      "type": "function"
    },
    {
      "inputs": [
        {
          "internalType": "address",
          "name": "",
          "type": "address"
        }
      ],
      "name": "totalsCollateral",
      "outputs": [
        {
          "internalType": "uint128",
          "name": "totalSupplyAsset",
          "type": "uint128"
        },
        {
          "internalType": "uint128",
          "name": "_reserved",
          "type": "uint128"
        }
      ],
      "stateMutability": "view",
      "type": "function"
    },
    {
      "inputs": [
        {
          "internalType": "address",
          "name": "",
          "type": "address"
        }
      ],
      "name": "userBasic",
      "outputs": [
        {
          "internalType": "int104",
          "name": "principal",
          "type": "int104"
        },
        {
          "internalType": "uint64",
          "name": "baseTrackingIndex",
          "type": "uint64"
        },
        {
          "internalType": "uint64",
          "name": "baseTrackingAccrued",
          "type": "uint64"
        },
        {
          "internalType": "uint16",
          "name": "assetsIn",
          "type": "uint16"
        },
        {
          "internalType": "uint8",
          "name": "_reserved",
          "type": "uint8"
        }
      ],
      "stateMutability": "view",
      "type": "function"
    },
    {
      "inputs": [
        {
          "internalType": "address",
          "name": "",
          "type": "address"
        },
        {
          "internalType": "address",
          "name": "",
          "type": "address"
        }
      ],
      "name": "userCollateral",
      "outputs": [
        {
          "internalType": "uint128",
          "name": "balance",
          "type": "uint128"
        },
        {
          "internalType": "uint128",
          "name": "_reserved",
          "type": "uint128"
        }
      ],
      "stateMutability": "view",
      "type": "function"
    },
    {
      "inputs": [
        {
          "internalType": "address",
          "name": "",
          "type": "address"
        }
      ],
      "name": "userNonce",
      "outputs": [
        {
          "internalType": "uint256",
          "name": "",
          "type": "uint256"
        }
      ],
      "stateMutability": "view",
      "type": "function"
    }
  ],
  "bytecode": "0x60808060405234610016576102f1908161001c8239f35b600080fdfe60806040818152600436101561001457600080fd5b600091823560e01c9081632b92a07d14610220575080632e04b8e7146101e957806359e017bd1461018d578063a165437914610140578063c5fa15cf146100d55763dc4abafd1461006457600080fd5b346100d15760203660031901126100d15760a09181906001600160a01b0361008a61028a565b1681526005602052205481519181600c0b835267ffffffffffffffff808360681c1660208501528260a81c169083015261ffff8160e81c16606083015260f81c6080820152f35b5080fd5b50346100d15760203660031901126100d15760809181906001600160a01b036100fc61028a565b1681526007602052205481519163ffffffff8216835267ffffffffffffffff8260201c1660208401526001600160801b038260601c169083015260e01c6060820152f35b50346100d157806003193601126100d15760ff8160209361015f61028a565b6101676102a5565b6001600160a01b0391821683526003875283832091168252855220549151911615158152f35b50346100d15760203660031901126100d1576101e59181906001600160a01b036101b561028a565b168152600260209081529190205491516001600160801b038316815260809290921c908201529081906040820190565b0390f35b50346100d15760203660031901126100d15760209181906001600160a01b0361021061028a565b1681526004845220549051908152f35b919050346102865780600319360112610286576101e590829361024161028a565b6102496102a5565b6001600160a01b039182168352600660209081528484209190921683528152919020546001600160801b038116845260801c908301526040820190565b8280fd5b600435906001600160a01b03821682036102a057565b600080fd5b602435906001600160a01b03821682036102a05756fea2646970667358221220612ee6699836febd45566abd24f3943d4adbd78a098b364d075428d868136e3464736f6c634300080f0033",
  "immutableReferences": {},
  "source": "// SPDX-License-Identifier: BUSL-1.1\npragma solidity 0.8.15;\n\n/**\n * @title Compound's Comet Storage Interface\n * @dev Versions can enforce append-only storage slots via inheritance.\n * @author Compound\n */\ncontract CometStorage {\n    // 512 bits total = 2 slots\n    struct TotalsBasic {\n        // 1st slot\n        uint64 baseSupplyIndex;\n        uint64 baseBorrowIndex;\n        uint64 trackingSupplyIndex;\n        uint64 trackingBorrowIndex;\n        // 2nd slot\n        uint104 totalSupplyBase;\n        uint104 totalBorrowBase;\n        uint40 lastAccrualTime;\n        uint8 pauseFlags;\n    }\n\n    struct TotalsCollateral {\n        uint128 totalSupplyAsset;\n        uint128 _reserved;\n    }\n\n    struct UserBasic {\n        int104 principal;\n        uint64 baseTrackingIndex;\n        uint64 baseTrackingAccrued;\n        uint16 assetsIn;\n        uint8 _reserved;\n    }\n\n    struct UserCollateral {\n        uint128 balance;\n        uint128 _reserved;\n    }\n\n    struct LiquidatorPoints {\n        uint32 numAbsorbs;\n        uint64 numAbsorbed;\n        uint128 approxSpend;\n        uint32 _reserved;\n    }\n\n    /// @dev Aggregate variables tracked for the entire market\n    uint64 internal baseSupplyIndex;\n    uint64 internal baseBorrowIndex;\n    uint64 internal trackingSupplyIndex;\n    uint64 internal trackingBorrowIndex;\n    uint104 internal totalSupplyBase;\n    uint104 internal totalBorrowBase;\n    uint40 internal lastAccrualTime;\n    uint8 internal pauseFlags;\n\n    /// @notice Aggregate variables tracked for each collateral asset\n    mapping(address => TotalsCollateral) public totalsCollateral;\n\n    /// @notice Mapping of users to accounts which may be permitted to manage the user account\n    mapping(address => mapping(address => bool)) public isAllowed;\n\n    /// @notice The next expected nonce for an address, for validating authorizations via signature\n    mapping(address => uint) public userNonce;\n\n    /// @notice Mapping of users to base principal and other basic data\n    mapping(address => UserBasic) public userBasic;\n\n    /// @notice Mapping of users to collateral data per collateral asset\n    mapping(address => mapping(address => UserCollateral)) public userCollateral;\n\n    /// @notice Mapping of magic liquidator points\n    mapping(address => LiquidatorPoints) public liquidatorPoints;\n}\n",
  "sourcePath": "/home/stephensb/sb-labs/solidity-contracts/contracts/comet/contracts/CometStorage.sol",
  "compiler": {
    "name": "solc",
    "version": "0.8.15+commit.e14f2714.Emscripten.clang"
  },
  "schemaVersion": "3.4.12",
  "updatedAt": "2023-11-30T22:41:29.667Z",
  "devdoc": {
    "author": "Compound",
    "details": "Versions can enforce append-only storage slots via inheritance.",
    "kind": "dev",
    "methods": {},
    "stateVariables": {
      "baseSupplyIndex": {
        "details": "Aggregate variables tracked for the entire market"
      }
    },
    "title": "Compound's Comet Storage Interface",
    "version": 1
  },
  "userdoc": {
    "kind": "user",
    "methods": {
      "isAllowed(address,address)": {
        "notice": "Mapping of users to accounts which may be permitted to manage the user account"
      },
      "liquidatorPoints(address)": {
        "notice": "Mapping of magic liquidator points"
      },
      "totalsCollateral(address)": {
        "notice": "Aggregate variables tracked for each collateral asset"
      },
      "userBasic(address)": {
        "notice": "Mapping of users to base principal and other basic data"
      },
      "userCollateral(address,address)": {
        "notice": "Mapping of users to collateral data per collateral asset"
      },
      "userNonce(address)": {
        "notice": "The next expected nonce for an address, for validating authorizations via signature"
      }
    },
    "version": 1
  }
}