{
  "contractName": "CometProxyAdmin",
  "abi": [
    {
      "anonymous": false,
      "inputs": [
        {
          "indexed": true,
          "internalType": "address",
          "name": "previousOwner",
          "type": "address"
        },
        {
          "indexed": true,
          "internalType": "address",
          "name": "newOwner",
          "type": "address"
        }
      ],
      "name": "OwnershipTransferred",
      "type": "event"
    },
    {
      "inputs": [
        {
          "internalType": "contract TransparentUpgradeableProxy",
          "name": "proxy",
          "type": "address"
        },
        {
          "internalType": "address",
          "name": "newAdmin",
          "type": "address"
        }
      ],
      "name": "changeProxyAdmin",
      "outputs": [],
      "stateMutability": "nonpayable",
      "type": "function"
    },
    {
      "inputs": [
        {
          "internalType": "contract TransparentUpgradeableProxy",
          "name": "proxy",
          "type": "address"
        }
      ],
      "name": "getProxyAdmin",
      "outputs": [
        {
          "internalType": "address",
          "name": "",
          "type": "address"
        }
      ],
      "stateMutability": "view",
      "type": "function"
    },
    {
      "inputs": [
        {
          "internalType": "contract TransparentUpgradeableProxy",
          "name": "proxy",
          "type": "address"
        }
      ],
      "name": "getProxyImplementation",
      "outputs": [
        {
          "internalType": "address",
          "name": "",
          "type": "address"
        }
      ],
      "stateMutability": "view",
      "type": "function"
    },
    {
      "inputs": [],
      "name": "owner",
      "outputs": [
        {
          "internalType": "address",
          "name": "",
          "type": "address"
        }
      ],
      "stateMutability": "view",
      "type": "function"
    },
    {
      "inputs": [],
      "name": "renounceOwnership",
      "outputs": [],
      "stateMutability": "nonpayable",
      "type": "function"
    },
    {
      "inputs": [
        {
          "internalType": "address",
          "name": "newOwner",
          "type": "address"
        }
      ],
      "name": "transferOwnership",
      "outputs": [],
      "stateMutability": "nonpayable",
      "type": "function"
    },
    {
      "inputs": [
        {
          "internalType": "contract TransparentUpgradeableProxy",
          "name": "proxy",
          "type": "address"
        },
        {
          "internalType": "address",
          "name": "implementation",
          "type": "address"
        }
      ],
      "name": "upgrade",
      "outputs": [],
      "stateMutability": "nonpayable",
      "type": "function"
    },
    {
      "inputs": [
        {
          "internalType": "contract TransparentUpgradeableProxy",
          "name": "proxy",
          "type": "address"
        },
        {
          "internalType": "address",
          "name": "implementation",
          "type": "address"
        },
        {
          "internalType": "bytes",
          "name": "data",
          "type": "bytes"
        }
      ],
      "name": "upgradeAndCall",
      "outputs": [],
      "stateMutability": "payable",
      "type": "function"
    },
    {
      "inputs": [
        {
          "internalType": "contract Deployable",
          "name": "configuratorProxy",
          "type": "address"
        },
        {
          "internalType": "contract TransparentUpgradeableProxy",
          "name": "cometProxy",
          "type": "address"
        }
      ],
      "name": "deployAndUpgradeTo",
      "outputs": [],
      "stateMutability": "nonpayable",
      "type": "function"
    },
    {
      "inputs": [
        {
          "internalType": "contract Deployable",
          "name": "configuratorProxy",
          "type": "address"
        },
        {
          "internalType": "contract TransparentUpgradeableProxy",
          "name": "cometProxy",
          "type": "address"
        },
        {
          "internalType": "bytes",
          "name": "data",
          "type": "bytes"
        }
      ],
      "name": "deployUpgradeToAndCall",
      "outputs": [],
      "stateMutability": "nonpayable",
      "type": "function"
    }
  ],
  "bytecode": "0x6080806040523461005b5760008054336001600160a01b0319821681178355916001600160a01b03909116907f8be0079c531659141344cd1fd0a4f28419497f9722a3daafe3b4186f6b6457e09084a361088e90816100618239f35b600080fdfe6080604081815260048036101561001557600080fd5b600092833560e01c90848263204e1c7a1461069f5750508063715018a61461063f5780637eff275e146105b55780638da5cb5b1461058d5780639623609d146104a4578381639627816f146103cd57816399a88ec41461035d57508063c7d20733146101d3578063f2fde38b146100ff5763f3b7dead1461009557600080fd5b346100fb5760203660031901126100fb576001600160a01b039083908190836100bc6106de565b86516303e1469160e61b815291165afa926100d5610828565b93156100f857506100f0836020808096518301019101610809565b169051908152f35b80fd5b8280fd5b50346100fb5760203660031901126100fb576101196106de565b83546001600160a01b0391829161013390831633146107be565b16918215610181575060005492826bffffffffffffffffffffffff60a01b8516176000555192167f8be0079c531659141344cd1fd0a4f28419497f9722a3daafe3b4186f6b6457e0600084a3f35b608490602085519162461bcd60e51b8352820152602660248201527f4f776e61626c653a206e6577206f776e657220697320746865207a65726f206160448201526564647265737360d01b6064820152fd5b509190346102e95760603660031901126102e9576101ef6106de565b6101f76106f9565b9360443567ffffffffffffffff8111610359576102179036908301610777565b84546001600160a01b0396879161023190831633146107be565b169186855194634c96a38960e01b86528483870152856024818a60209c8d95165af194851561034f578795610320575b506102703382895416146107be565b833b1561031c57855163278f794360e11b81529416908401526024830184905280516044840181905294958695915b828810610306575050828092816000606489978689978d116102fa575b601f01601f191681010301925af180156102ed576102d957505051f35b6102e29061070f565b6102e95751f35b5080fd5b50505051903d90823e3d90fd5b878382840101526102bc565b878101820151858901606401529681019661029f565b8680fd5b610341919550883d8a11610348575b6103398183610739565b810190610809565b9338610261565b503d61032f565b86513d89823e3d90fd5b8480fd5b919050346102e957826003193601126102e9576103786106de565b6103806106f9565b9060018060a01b0380916103988287541633146107be565b16803b156103595784928360249288519687958694631b2ce7f360e11b865216908401525af180156102ed576102d957505051f35b919050346102e957826003193601126102e9578160246103eb6106de565b60206103f56106f9565b60018060a01b039384809261040e8289541633146107be565b169389519687938492634c96a38960e01b8452878b850152165af192831561049a57859361047a575b506104463383875416146107be565b803b156103595784928360249288519687958694631b2ce7f360e11b865216908401525af180156102ed576102d957505051f35b61049391935060203d8111610348576103398183610739565b9138610437565b86513d87823e3d90fd5b5060603660031901126100fb576104b96106de565b6104c16106f9565b9160443567ffffffffffffffff8111610589576104e19036908301610777565b9060018060a01b0380936104f98289541633146107be565b1692833b1561031c57855163278f794360e11b8152941690840152602483018490528051604484018190528593929184905b82821061056e57509183606481848195899711610562575b601f01601f1916810103019134905af180156102ed576102d957505051f35b86838284010152610543565b6020818301810151606487850101528896509091019061052b565b8580fd5b5050346102e957816003193601126102e957905490516001600160a01b039091168152602090f35b508290346102e957826003193601126102e9576105d06106de565b6105d86106f9565b83546001600160a01b039283916105f290831633146107be565b16803b156103595784929183602492885196879586946308f2839760e41b865216908401525af180156106355761062857509051f35b6106319061070f565b9051f35b83513d84823e3d90fd5b5050346102e957816003193601126102e95781546001600160a01b03811691839161066b3385146107be565b6001600160a01b031916825551917f8be0079c531659141344cd1fd0a4f28419497f9722a3daafe3b4186f6b6457e08284a3f35b915091346102e95760203660031901126102e9576001600160a01b0392829190846106c86106de565b635c60da1b60e01b8352165afa926100d5610828565b600435906001600160a01b03821682036106f457565b600080fd5b602435906001600160a01b03821682036106f457565b67ffffffffffffffff811161072357604052565b634e487b7160e01b600052604160045260246000fd5b90601f8019910116810190811067ffffffffffffffff82111761072357604052565b67ffffffffffffffff811161072357601f01601f191660200190565b81601f820112156106f45780359061078e8261075b565b9261079c6040519485610739565b828452602083830101116106f457816000926020809301838601378301015290565b156107c557565b606460405162461bcd60e51b815260206004820152602060248201527f4f776e61626c653a2063616c6c6572206973206e6f7420746865206f776e65726044820152fd5b908160209103126106f457516001600160a01b03811681036106f45790565b3d15610853573d906108398261075b565b916108476040519384610739565b82523d6000602084013e565b60609056fea2646970667358221220b2249b63d35d84d8835d6bac67d96890edcd86e9c37835655e99320f177b05fd64736f6c634300080f0033",
  "immutableReferences": {},
  "source": "// SPDX-License-Identifier: BUSL-1.1\npragma solidity 0.8.15;\n\nimport \"./vendor/proxy/transparent/ProxyAdmin.sol\";\n\ninterface Deployable {\n  function deploy(address cometProxy) external returns (address);\n}\n\ncontract CometProxyAdmin is ProxyAdmin {\n    /**\n     * @dev Deploy a new Comet and upgrade the implementation of the Comet proxy\n     *  Requirements:\n     *   - This contract must be the admin of `CometProxy`\n     */\n    function deployAndUpgradeTo(Deployable configuratorProxy, TransparentUpgradeableProxy cometProxy) public virtual onlyOwner {\n        address newCometImpl = configuratorProxy.deploy(address(cometProxy));\n        upgrade(cometProxy, newCometImpl);\n    }\n\n    /**\n     * @dev Deploy a new Comet and upgrade the implementation of the Comet proxy, then call the function\n     *  Requirements:\n     *   - This contract must be the admin of `CometProxy`\n     */\n    function deployUpgradeToAndCall(Deployable configuratorProxy, TransparentUpgradeableProxy cometProxy, bytes memory data) public virtual onlyOwner {\n        address newCometImpl = configuratorProxy.deploy(address(cometProxy));\n        upgradeAndCall(cometProxy, newCometImpl, data);\n    }\n}",
  "sourcePath": "/home/stephensb/sb-labs/solidity-contracts/contracts/comet/contracts/CometProxyAdmin.sol",
  "compiler": {
    "name": "solc",
    "version": "0.8.15+commit.e14f2714.Emscripten.clang"
  },
  "schemaVersion": "3.4.12",
  "updatedAt": "2023-11-30T22:41:29.664Z",
  "devdoc": {
    "kind": "dev",
    "methods": {
      "changeProxyAdmin(address,address)": {
        "details": "Changes the admin of `proxy` to `newAdmin`. Requirements: - This contract must be the current admin of `proxy`."
      },
      "deployAndUpgradeTo(address,address)": {
        "details": "Deploy a new Comet and upgrade the implementation of the Comet proxy  Requirements:   - This contract must be the admin of `CometProxy`"
      },
      "deployUpgradeToAndCall(address,address,bytes)": {
        "details": "Deploy a new Comet and upgrade the implementation of the Comet proxy, then call the function  Requirements:   - This contract must be the admin of `CometProxy`"
      },
      "getProxyAdmin(address)": {
        "details": "Returns the current admin of `proxy`. Requirements: - This contract must be the admin of `proxy`."
      },
      "getProxyImplementation(address)": {
        "details": "Returns the current implementation of `proxy`. Requirements: - This contract must be the admin of `proxy`."
      },
      "owner()": {
        "details": "Returns the address of the current owner."
      },
      "renounceOwnership()": {
        "details": "Leaves the contract without owner. It will not be possible to call `onlyOwner` functions anymore. Can only be called by the current owner. NOTE: Renouncing ownership will leave the contract without an owner, thereby removing any functionality that is only available to the owner."
      },
      "transferOwnership(address)": {
        "details": "Transfers ownership of the contract to a new account (`newOwner`). Can only be called by the current owner."
      },
      "upgrade(address,address)": {
        "details": "Upgrades `proxy` to `implementation`. See {TransparentUpgradeableProxy-upgradeTo}. Requirements: - This contract must be the admin of `proxy`."
      },
      "upgradeAndCall(address,address,bytes)": {
        "details": "Upgrades `proxy` to `implementation` and calls a function on the new implementation. See {TransparentUpgradeableProxy-upgradeToAndCall}. Requirements: - This contract must be the admin of `proxy`."
      }
    },
    "version": 1
  },
  "userdoc": {
    "kind": "user",
    "methods": {},
    "version": 1
  }
}