{
  "contractName": "CometRewards",
  "abi": [
    {
      "inputs": [
        {
          "internalType": "address",
          "name": "governor_",
          "type": "address"
        }
      ],
      "stateMutability": "nonpayable",
      "type": "constructor"
    },
    {
      "inputs": [
        {
          "internalType": "address",
          "name": "",
          "type": "address"
        }
      ],
      "name": "AlreadyConfigured",
      "type": "error"
    },
    {
      "inputs": [],
      "name": "BadData",
      "type": "error"
    },
    {
      "inputs": [
        {
          "internalType": "uint256",
          "name": "",
          "type": "uint256"
        }
      ],
      "name": "InvalidUInt64",
      "type": "error"
    },
    {
      "inputs": [
        {
          "internalType": "address",
          "name": "",
          "type": "address"
        }
      ],
      "name": "NotPermitted",
      "type": "error"
    },
    {
      "inputs": [
        {
          "internalType": "address",
          "name": "",
          "type": "address"
        }
      ],
      "name": "NotSupported",
      "type": "error"
    },
    {
      "inputs": [
        {
          "internalType": "address",
          "name": "",
          "type": "address"
        },
        {
          "internalType": "uint256",
          "name": "",
          "type": "uint256"
        }
      ],
      "name": "TransferOutFailed",
      "type": "error"
    },
    {
      "anonymous": false,
      "inputs": [
        {
          "indexed": true,
          "internalType": "address",
          "name": "oldGovernor",
          "type": "address"
        },
        {
          "indexed": true,
          "internalType": "address",
          "name": "newGovernor",
          "type": "address"
        }
      ],
      "name": "GovernorTransferred",
      "type": "event"
    },
    {
      "anonymous": false,
      "inputs": [
        {
          "indexed": true,
          "internalType": "address",
          "name": "src",
          "type": "address"
        },
        {
          "indexed": true,
          "internalType": "address",
          "name": "recipient",
          "type": "address"
        },
        {
          "indexed": true,
          "internalType": "address",
          "name": "token",
          "type": "address"
        },
        {
          "indexed": false,
          "internalType": "uint256",
          "name": "amount",
          "type": "uint256"
        }
      ],
      "name": "RewardClaimed",
      "type": "event"
    },
    {
      "anonymous": false,
      "inputs": [
        {
          "indexed": true,
          "internalType": "address",
          "name": "user",
          "type": "address"
        },
        {
          "indexed": true,
          "internalType": "address",
          "name": "comet",
          "type": "address"
        },
        {
          "indexed": false,
          "internalType": "uint256",
          "name": "amount",
          "type": "uint256"
        }
      ],
      "name": "RewardsClaimedSet",
      "type": "event"
    },
    {
      "inputs": [],
      "name": "governor",
      "outputs": [
        {
          "internalType": "address",
          "name": "",
          "type": "address"
        }
      ],
      "stateMutability": "view",
      "type": "function"
    },
    {
      "inputs": [
        {
          "internalType": "address",
          "name": "",
          "type": "address"
        }
      ],
      "name": "rewardConfig",
      "outputs": [
        {
          "internalType": "address",
          "name": "token",
          "type": "address"
        },
        {
          "internalType": "uint64",
          "name": "rescaleFactor",
          "type": "uint64"
        },
        {
          "internalType": "bool",
          "name": "shouldUpscale",
          "type": "bool"
        },
        {
          "internalType": "uint256",
          "name": "multiplier",
          "type": "uint256"
        }
      ],
      "stateMutability": "view",
      "type": "function"
    },
    {
      "inputs": [
        {
          "internalType": "address",
          "name": "",
          "type": "address"
        },
        {
          "internalType": "address",
          "name": "",
          "type": "address"
        }
      ],
      "name": "rewardsClaimed",
      "outputs": [
        {
          "internalType": "uint256",
          "name": "",
          "type": "uint256"
        }
      ],
      "stateMutability": "view",
      "type": "function"
    },
    {
      "inputs": [
        {
          "internalType": "address",
          "name": "comet",
          "type": "address"
        },
        {
          "internalType": "address",
          "name": "token",
          "type": "address"
        },
        {
          "internalType": "uint256",
          "name": "multiplier",
          "type": "uint256"
        }
      ],
      "name": "setRewardConfigWithMultiplier",
      "outputs": [],
      "stateMutability": "nonpayable",
      "type": "function"
    },
    {
      "inputs": [
        {
          "internalType": "address",
          "name": "comet",
          "type": "address"
        },
        {
          "internalType": "address",
          "name": "token",
          "type": "address"
        }
      ],
      "name": "setRewardConfig",
      "outputs": [],
      "stateMutability": "nonpayable",
      "type": "function"
    },
    {
      "inputs": [
        {
          "internalType": "address",
          "name": "comet",
          "type": "address"
        },
        {
          "internalType": "address[]",
          "name": "users",
          "type": "address[]"
        },
        {
          "internalType": "uint256[]",
          "name": "claimedAmounts",
          "type": "uint256[]"
        }
      ],
      "name": "setRewardsClaimed",
      "outputs": [],
      "stateMutability": "nonpayable",
      "type": "function"
    },
    {
      "inputs": [
        {
          "internalType": "address",
          "name": "token",
          "type": "address"
        },
        {
          "internalType": "address",
          "name": "to",
          "type": "address"
        },
        {
          "internalType": "uint256",
          "name": "amount",
          "type": "uint256"
        }
      ],
      "name": "withdrawToken",
      "outputs": [],
      "stateMutability": "nonpayable",
      "type": "function"
    },
    {
      "inputs": [
        {
          "internalType": "address",
          "name": "newGovernor",
          "type": "address"
        }
      ],
      "name": "transferGovernor",
      "outputs": [],
      "stateMutability": "nonpayable",
      "type": "function"
    },
    {
      "inputs": [
        {
          "internalType": "address",
          "name": "comet",
          "type": "address"
        },
        {
          "internalType": "address",
          "name": "account",
          "type": "address"
        }
      ],
      "name": "getRewardOwed",
      "outputs": [
        {
          "components": [
            {
              "internalType": "address",
              "name": "token",
              "type": "address"
            },
            {
              "internalType": "uint256",
              "name": "owed",
              "type": "uint256"
            }
          ],
          "internalType": "struct CometRewards.RewardOwed",
          "name": "",
          "type": "tuple"
        }
      ],
      "stateMutability": "nonpayable",
      "type": "function"
    },
    {
      "inputs": [
        {
          "internalType": "address",
          "name": "comet",
          "type": "address"
        },
        {
          "internalType": "address",
          "name": "src",
          "type": "address"
        },
        {
          "internalType": "bool",
          "name": "shouldAccrue",
          "type": "bool"
        }
      ],
      "name": "claim",
      "outputs": [],
      "stateMutability": "nonpayable",
      "type": "function"
    },
    {
      "inputs": [
        {
          "internalType": "address",
          "name": "comet",
          "type": "address"
        },
        {
          "internalType": "address",
          "name": "src",
          "type": "address"
        },
        {
          "internalType": "address",
          "name": "to",
          "type": "address"
        },
        {
          "internalType": "bool",
          "name": "shouldAccrue",
          "type": "bool"
        }
      ],
      "name": "claimTo",
      "outputs": [],
      "stateMutability": "nonpayable",
      "type": "function"
    }
  ],
  "bytecode": "0x60803461007457601f61108f38819003918201601f19168301916001600160401b038311848410176100795780849260209460405283398101031261007457516001600160a01b0381169081900361007457600080546001600160a01b031916919091179055604051610fff90816100908239f35b600080fd5b634e487b7160e01b600052604160045260246000fdfe608060408181526004918236101561001657600080fd5b60009260e0918435831c90816301e3366714610ac7575080630c340a2414610a9e5780632289b6b814610a3757806341e0cad6146108d85780634ff85d94146107fa5780636394f161146106b957806365e123921461066a57806395e36d2c146103ee578063b7034f7e146103ab578063b8cc9ce6146103195763cdc0ca091461009f57600080fd5b34610315576100ad36610b3c565b9192909360018060a01b0393846000541633036102ff578416806000526001946020868152818960002054166102e85788516351076acb60e11b81529781898781875afa9889156102dd576000996102ac575b50821697895163313ce56760e01b8152828188818d5afa9081156102a157600091610262575b5060ff16604d811161024d57600a0a6001600160401b039687821161023957509086899392169081888216116000146101ca579061016391610c40565b958a51996101708b610bd2565b8a52818a0196168652898901936000855260608a019788526000525287600020965116908654936001600160401b0360a01b905160a01b169260ff60e01b91511515901b169262ffffff60e81b1617171783555191015551f35b6101d391610c40565b958a51996101e08b610bd2565b8a52818a01961686528989019382855260608a019788526000525287600020965116908654936001600160401b0360a01b905160a01b169260ff60e01b91511515901b169262ffffff60e81b1617171783555191015551f35b6024918c5191624809a360e21b8352820152fd5b601187634e487b7160e01b6000525260246000fd5b8381813d831161029a575b6102778183610c00565b8101031261029657519060ff82168203610293575060ff610126565b80fd5b5080fd5b503d61026d565b8b513d6000823e3d90fd5b839199506102cf90833d85116102d6575b6102c78183610c00565b810190610c21565b9890610100565b503d6102bd565b8a513d6000823e3d90fd5b8851633a4406b560e01b8152808601849052602490fd5b86516319b1d90760e31b81523381850152602490fd5b8380fd5b848285346103a75760203660031901126103a757610335610b10565b83546001600160a01b038082169491939290913386900361039057501680926bffffffffffffffffffffffff60a01b1617845551917f6fadb1c244276388aee22be93b919985a18748c021e5d48553957a48101a25608484a3f35b6024908451906319b1d90760e31b82523390820152fd5b8280fd5b50505034610296576060366003190112610296576103c7610b10565b6103cf610b26565b6044359081151582036103e957806103e693610ce1565b51f35b600080fd5b509034610315578260031936011261031557610408610b10565b90610411610b26565b60005490936001600160a01b039390918416330361065457831691826000526001936020908582528088600020541661063d5787516351076acb60e11b81529682888681895afa97881561063257600098610611575b50811696885163313ce56760e01b8152838187818c5afa9081156102dd576000916105d9575b5060ff16604d81116105c457600a0a6001600160401b03958682116105b05750851690818682161160001461053757906104c691610c40565b938851976104d389610bd2565b8852828801941684528588880192600084526060890196670de0b6b3a764000088526000525287600020965116908654936001600160401b0360a01b905160a01b169260ff60e01b91511515901b169262ffffff60e81b1617171783555191015551f35b61054091610c40565b9388519761054d89610bd2565b88528288019416845285888801928184526060890196670de0b6b3a764000088526000525287600020965116908654936001600160401b0360a01b905160a01b169260ff60e01b91511515901b169262ffffff60e81b1617171783555191015551f35b6024918b5191624809a360e21b8352820152fd5b601186634e487b7160e01b6000525260246000fd5b8481813d831161060a575b6105ee8183610c00565b8101031261029657519060ff82168203610293575060ff61048d565b503d6105e4565b8291985061062b90843d86116102d6576102c78183610c00565b9790610467565b89513d6000823e3d90fd5b8751633a4406b560e01b8152808501869052602490fd5b85516319b1d90760e31b81523381840152602490fd5b50505034610296578060031936011261029657602091610688610b10565b82610691610b26565b6001600160a01b03928316845260028652922091166000908152908352819020549051908152f35b50838334610296576060366003190112610296576106d5610b10565b6001600160401b036024358181116107f6576106f49036908701610b71565b9590916044359081116107f25761070e9036908301610b71565b86546001600160a01b039390841633036107db578189036107cd57509293821692865b88811061073d57878751f35b848861074a838587610c6e565b3582825283878d8c602095600287522092610765918d610c6e565b61076e90610c94565b1660005282528960002055610784838c8a610c6e565b61078d90610c94565b86610799858789610c6e565b35918b5192835216917f8bd30d9ed3a8b430389fd4df14d7791abf777bfc8b82909777ea0a1ca271ac0d91a3600101610731565b865163a554dcdf60e01b8152fd5b6024908751906319b1d90760e31b82523390820152fd5b8580fd5b8480fd5b5083833461029657608036600319011261029657610816610b10565b9261081f610b26565b6001600160a01b0391604435919083831683036103e9576064359384151585036103e957602060449187519283809263cde6804160e01b8252808816878301523360248301528c165afa9081156108ce5787916108a0575b501561088957506103e6939495610ce1565b6024908551906319b1d90760e31b82523390820152fd5b6108c1915060203d81116108c7575b6108b98183610c00565b810190610cc9565b88610877565b503d6108af565b86513d89823e3d90fd5b509290923461029657826003193601126102965760ff92936108f8610b10565b92610901610b26565b9386519461090e86610ba1565b8286528260208097015260018060a01b0394858316948585526001885260018a86208b519a8b9361093e85610bd2565b8254908b82168096528d8d6001600160401b038460a01c169101521c1615158c8c0152015460608a015215610a2057843b1561031557885163bfe69c8d60e01b81528287169181018290528481602481838a5af18015610a16579089939291610a01575b5084956109c394955260028852898620906000528752886000205493610e60565b818111156109f9576109d59250610ca8565b925b5116918184516109e681610ba1565b8481520190815283519283525190820152f35b5050926109d7565b94610a0f6109c39596610bed565b94936109a2565b8a513d87823e3d90fd5b8851634e2c71db60e11b8152908101859052602490fd5b83858434610296576020366003190112610296576080926001600160a01b039260ff90829085610a65610b10565b1681526001602052206001815491015493835195821686526001600160401b038260a01c1660208701521c161515908301526060820152f35b50505034610296578160031936011261029657905490516001600160a01b039091168152602090f35b85858492346103a757610ad936610b3c565b85549093919291906001600160a01b03163303610afc5750906103e69291610f31565b6319b1d90760e31b81523387820152602490fd5b600435906001600160a01b03821682036103e957565b602435906001600160a01b03821682036103e957565b60609060031901126103e9576001600160a01b039060043582811681036103e9579160243590811681036103e9579060443590565b9181601f840112156103e9578235916001600160401b0383116103e9576020808501948460051b0101116103e957565b604081019081106001600160401b03821117610bbc57604052565b634e487b7160e01b600052604160045260246000fd5b608081019081106001600160401b03821117610bbc57604052565b6001600160401b038111610bbc57604052565b90601f801991011681019081106001600160401b03821117610bbc57604052565b908160209103126103e957516001600160401b03811681036103e95790565b906001600160401b03809116918215610c5857160490565b634e487b7160e01b600052601260045260246000fd5b9190811015610c7e5760051b0190565b634e487b7160e01b600052603260045260246000fd5b356001600160a01b03811681036103e95790565b818110610cb3570390565b634e487b7160e01b600052601160045260246000fd5b908160209103126103e9575180151581036103e95790565b600060018060a01b03808316948583526020926001845260409788822090895191610d0b83610bd2565b600181549160ff888416938487526001600160401b038160a01c168b88015260e01c1615158d8601520154606084015215610e3557610de5575b87825260028552610d69818a842098868116998a60005288528b6000205498610e60565b868111610d7d575b50505050505050505050565b898593610dab7f2422cac5e23c46c890fdcf42d0c64757409df6832174df639337558f09d99c689984610ca8565b9a815260028852208860005286528960002055610dcc888484845116610f31565b511696519586521693a438808080808080808080610d71565b90873b1561029357885163bfe69c8d60e01b815287851660048201528181602481838d5af18015610e2b57610e1c575b5090610d45565b610e2590610bed565b38610e15565b8a513d84823e3d90fd5b8951634e2c71db60e11b8152600481018a9052602490fd5b8060001904821181151516610cb3570290565b604051632ae6e9fd60e21b81526001600160a01b039283166004820152929160209184916024918391165afa918215610f2557600092610f05575b5060408101516001600160401b03928316929015610ee157906060610ed3670de0b6b3a764000094610edd9460208501511690610e4d565b915b015190610e4d565b0490565b602082015116908115610c58576060610edd92670de0b6b3a7640000940491610ed5565b610f1e91925060203d81116102d6576102c78183610c00565b9038610e9b565b6040513d6000823e3d90fd5b60405163a9059cbb60e01b81526001600160a01b03838116600483015260248201859052909160209183916044918391600091165af1908115610f2557600091610fab575b5015610f80575050565b60405163701ed0db60e01b81526001600160a01b039190911660048201526024810191909152604490fd5b610fc3915060203d81116108c7576108b98183610c00565b38610f7656fea2646970667358221220da9ad122faf1c9a7ccc1b6c4dc083a7247268ecdd52605feeba068bad5c5092664736f6c634300080f0033",
  "immutableReferences": {},
  "source": "// SPDX-License-Identifier: BUSL-1.1\npragma solidity 0.8.15;\n\nimport \"./CometInterface.sol\";\nimport \"./ERC20.sol\";\n\n/**\n * @title Compound's CometRewards Contract\n * @notice Hold and claim token rewards\n * @author Compound\n */\ncontract CometRewards {\n    struct RewardConfig {\n        address token;\n        uint64 rescaleFactor;\n        bool shouldUpscale;\n        // Note: We define new variables after existing variables to keep interface backwards-compatible\n        uint256 multiplier;\n    }\n\n    struct RewardOwed {\n        address token;\n        uint owed;\n    }\n\n    /// @notice The governor address which controls the contract\n    address public governor;\n\n    /// @notice Reward token address per Comet instance\n    mapping(address => RewardConfig) public rewardConfig;\n\n    /// @notice Rewards claimed per Comet instance and user account\n    mapping(address => mapping(address => uint)) public rewardsClaimed;\n\n    /// @dev The scale for factors\n    uint256 internal constant FACTOR_SCALE = 1e18;\n\n    /** Custom events **/\n\n    event GovernorTransferred(address indexed oldGovernor, address indexed newGovernor);\n    event RewardsClaimedSet(address indexed user, address indexed comet, uint256 amount);\n    event RewardClaimed(address indexed src, address indexed recipient, address indexed token, uint256 amount);\n\n    /** Custom errors **/\n\n    error AlreadyConfigured(address);\n    error BadData();\n    error InvalidUInt64(uint);\n    error NotPermitted(address);\n    error NotSupported(address);\n    error TransferOutFailed(address, uint);\n\n    /**\n     * @notice Construct a new rewards pool\n     * @param governor_ The governor who will control the contract\n     */\n    constructor(address governor_) {\n        governor = governor_;\n    }\n\n    /**\n     * @notice Set the reward token for a Comet instance\n     * @param comet The protocol instance\n     * @param token The reward token address\n     * @param multiplier The multiplier for converting a unit of accrued tracking to a unit of the reward token\n     */\n    function setRewardConfigWithMultiplier(address comet, address token, uint256 multiplier) public {\n        if (msg.sender != governor) revert NotPermitted(msg.sender);\n        if (rewardConfig[comet].token != address(0)) revert AlreadyConfigured(comet);\n\n        uint64 accrualScale = CometInterface(comet).baseAccrualScale();\n        uint8 tokenDecimals = ERC20(token).decimals();\n        uint64 tokenScale = safe64(10 ** tokenDecimals);\n        if (accrualScale > tokenScale) {\n            rewardConfig[comet] = RewardConfig({\n                token: token,\n                rescaleFactor: accrualScale / tokenScale,\n                shouldUpscale: false,\n                multiplier: multiplier\n            });\n        } else {\n            rewardConfig[comet] = RewardConfig({\n                token: token,\n                rescaleFactor: tokenScale / accrualScale,\n                shouldUpscale: true,\n                multiplier: multiplier\n            });\n        }\n    }\n\n    /**\n     * @notice Set the reward token for a Comet instance\n     * @param comet The protocol instance\n     * @param token The reward token address\n     */\n    function setRewardConfig(address comet, address token) external {\n        setRewardConfigWithMultiplier(comet, token, FACTOR_SCALE);\n    }\n\n    /**\n     * @notice Set the rewards claimed for a list of users\n     * @param comet The protocol instance to populate the data for\n     * @param users The list of users to populate the data for\n     * @param claimedAmounts The list of claimed amounts to populate the data with\n     */\n    function setRewardsClaimed(address comet, address[] calldata users, uint[] calldata claimedAmounts) external {\n        if (msg.sender != governor) revert NotPermitted(msg.sender);\n        if (users.length != claimedAmounts.length) revert BadData();\n\n        for (uint i = 0; i < users.length; ) {\n            rewardsClaimed[comet][users[i]] = claimedAmounts[i];\n            emit RewardsClaimedSet(users[i], comet, claimedAmounts[i]);\n            unchecked { i++; }\n        }\n    }\n\n    /**\n     * @notice Withdraw tokens from the contract\n     * @param token The reward token address\n     * @param to Where to send the tokens\n     * @param amount The number of tokens to withdraw\n     */\n    function withdrawToken(address token, address to, uint amount) external {\n        if (msg.sender != governor) revert NotPermitted(msg.sender);\n\n        doTransferOut(token, to, amount);\n    }\n\n    /**\n     * @notice Transfers the governor rights to a new address\n     * @param newGovernor The address of the new governor\n     */\n    function transferGovernor(address newGovernor) external {\n        if (msg.sender != governor) revert NotPermitted(msg.sender);\n\n        address oldGovernor = governor;\n        governor = newGovernor;\n        emit GovernorTransferred(oldGovernor, newGovernor);\n    }\n\n    /**\n     * @notice Calculates the amount of a reward token owed to an account\n     * @param comet The protocol instance\n     * @param account The account to check rewards for\n     */\n    function getRewardOwed(address comet, address account) external returns (RewardOwed memory) {\n        RewardConfig memory config = rewardConfig[comet];\n        if (config.token == address(0)) revert NotSupported(comet);\n\n        CometInterface(comet).accrueAccount(account);\n\n        uint claimed = rewardsClaimed[comet][account];\n        uint accrued = getRewardAccrued(comet, account, config);\n\n        uint owed = accrued > claimed ? accrued - claimed : 0;\n        return RewardOwed(config.token, owed);\n    }\n\n    /**\n     * @notice Claim rewards of token type from a comet instance to owner address\n     * @param comet The protocol instance\n     * @param src The owner to claim for\n     * @param shouldAccrue Whether or not to call accrue first\n     */\n    function claim(address comet, address src, bool shouldAccrue) external {\n        claimInternal(comet, src, src, shouldAccrue);\n    }\n\n    /**\n     * @notice Claim rewards of token type from a comet instance to a target address\n     * @param comet The protocol instance\n     * @param src The owner to claim for\n     * @param to The address to receive the rewards\n     */\n    function claimTo(address comet, address src, address to, bool shouldAccrue) external {\n        if (!CometInterface(comet).hasPermission(src, msg.sender)) revert NotPermitted(msg.sender);\n\n        claimInternal(comet, src, to, shouldAccrue);\n    }\n\n    /**\n     * @dev Claim to, assuming permitted\n     */\n    function claimInternal(address comet, address src, address to, bool shouldAccrue) internal {\n        RewardConfig memory config = rewardConfig[comet];\n        if (config.token == address(0)) revert NotSupported(comet);\n\n        if (shouldAccrue) {\n            CometInterface(comet).accrueAccount(src);\n        }\n\n        uint claimed = rewardsClaimed[comet][src];\n        uint accrued = getRewardAccrued(comet, src, config);\n\n        if (accrued > claimed) {\n            uint owed = accrued - claimed;\n            rewardsClaimed[comet][src] = accrued;\n            doTransferOut(config.token, to, owed);\n\n            emit RewardClaimed(src, to, config.token, owed);\n        }\n    }\n\n    /**\n     * @dev Calculates the reward accrued for an account on a Comet deployment\n     */\n    function getRewardAccrued(address comet, address account, RewardConfig memory config) internal view returns (uint) {\n        uint accrued = CometInterface(comet).baseTrackingAccrued(account);\n\n        if (config.shouldUpscale) {\n            accrued *= config.rescaleFactor;\n        } else {\n            accrued /= config.rescaleFactor;\n        }\n        return accrued * config.multiplier / FACTOR_SCALE;\n    }\n\n    /**\n     * @dev Safe ERC20 transfer out\n     */\n    function doTransferOut(address token, address to, uint amount) internal {\n        bool success = ERC20(token).transfer(to, amount);\n        if (!success) revert TransferOutFailed(to, amount);\n    }\n\n    /**\n     * @dev Safe cast to uint64\n     */\n    function safe64(uint n) internal pure returns (uint64) {\n        if (n > type(uint64).max) revert InvalidUInt64(n);\n        return uint64(n);\n    }\n}",
  "sourcePath": "/home/stephensb/sb-labs/solidity-contracts/contracts/comet/contracts/CometRewards.sol",
  "compiler": {
    "name": "solc",
    "version": "0.8.15+commit.e14f2714.Emscripten.clang"
  },
  "schemaVersion": "3.4.12",
  "updatedAt": "2023-11-30T22:41:29.666Z",
  "devdoc": {
    "author": "Compound",
    "kind": "dev",
    "methods": {
      "claim(address,address,bool)": {
        "params": {
          "comet": "The protocol instance",
          "shouldAccrue": "Whether or not to call accrue first",
          "src": "The owner to claim for"
        }
      },
      "claimTo(address,address,address,bool)": {
        "params": {
          "comet": "The protocol instance",
          "src": "The owner to claim for",
          "to": "The address to receive the rewards"
        }
      },
      "constructor": {
        "params": {
          "governor_": "The governor who will control the contract"
        }
      },
      "getRewardOwed(address,address)": {
        "params": {
          "account": "The account to check rewards for",
          "comet": "The protocol instance"
        }
      },
      "setRewardConfig(address,address)": {
        "params": {
          "comet": "The protocol instance",
          "token": "The reward token address"
        }
      },
      "setRewardConfigWithMultiplier(address,address,uint256)": {
        "params": {
          "comet": "The protocol instance",
          "multiplier": "The multiplier for converting a unit of accrued tracking to a unit of the reward token",
          "token": "The reward token address"
        }
      },
      "setRewardsClaimed(address,address[],uint256[])": {
        "params": {
          "claimedAmounts": "The list of claimed amounts to populate the data with",
          "comet": "The protocol instance to populate the data for",
          "users": "The list of users to populate the data for"
        }
      },
      "transferGovernor(address)": {
        "params": {
          "newGovernor": "The address of the new governor"
        }
      },
      "withdrawToken(address,address,uint256)": {
        "params": {
          "amount": "The number of tokens to withdraw",
          "to": "Where to send the tokens",
          "token": "The reward token address"
        }
      }
    },
    "stateVariables": {
      "FACTOR_SCALE": {
        "details": "The scale for factors"
      }
    },
    "title": "Compound's CometRewards Contract",
    "version": 1
  },
  "userdoc": {
    "errors": {
      "AlreadyConfigured(address)": [
        {
          "notice": "Custom errors *"
        }
      ]
    },
    "events": {
      "GovernorTransferred(address,address)": {
        "notice": "Custom events *"
      }
    },
    "kind": "user",
    "methods": {
      "claim(address,address,bool)": {
        "notice": "Claim rewards of token type from a comet instance to owner address"
      },
      "claimTo(address,address,address,bool)": {
        "notice": "Claim rewards of token type from a comet instance to a target address"
      },
      "constructor": {
        "notice": "Construct a new rewards pool"
      },
      "getRewardOwed(address,address)": {
        "notice": "Calculates the amount of a reward token owed to an account"
      },
      "governor()": {
        "notice": "The governor address which controls the contract"
      },
      "rewardConfig(address)": {
        "notice": "Reward token address per Comet instance"
      },
      "rewardsClaimed(address,address)": {
        "notice": "Rewards claimed per Comet instance and user account"
      },
      "setRewardConfig(address,address)": {
        "notice": "Set the reward token for a Comet instance"
      },
      "setRewardConfigWithMultiplier(address,address,uint256)": {
        "notice": "Set the reward token for a Comet instance"
      },
      "setRewardsClaimed(address,address[],uint256[])": {
        "notice": "Set the rewards claimed for a list of users"
      },
      "transferGovernor(address)": {
        "notice": "Transfers the governor rights to a new address"
      },
      "withdrawToken(address,address,uint256)": {
        "notice": "Withdraw tokens from the contract"
      }
    },
    "notice": "Hold and claim token rewards",
    "version": 1
  }
}