{
  "contractName": "ConfiguratorStorage",
  "abi": [
    {
      "inputs": [
        {
          "internalType": "address",
          "name": "",
          "type": "address"
        }
      ],
      "name": "factory",
      "outputs": [
        {
          "internalType": "address",
          "name": "",
          "type": "address"
        }
      ],
      "stateMutability": "view",
      "type": "function"
    },
    {
      "inputs": [],
      "name": "governor",
      "outputs": [
        {
          "internalType": "address",
          "name": "",
          "type": "address"
        }
      ],
      "stateMutability": "view",
      "type": "function"
    },
    {
      "inputs": [],
      "name": "version",
      "outputs": [
        {
          "internalType": "uint256",
          "name": "",
          "type": "uint256"
        }
      ],
      "stateMutability": "view",
      "type": "function"
    }
  ],
  "bytecode": "0x608080604052346100155760f8908161001b8239f35b600080fdfe6080806040526004361015601257600080fd5b600090813560e01c9081630c340a2414609b57508063395c0fda14605b576354fd4d5014603e57600080fd5b346058578060031936011260585760209054604051908152f35b80fd5b503460585760203660031901126058576001600160a01b0360043581811690819003609757826040916020945260038452205416604051908152f35b8280fd5b90503460be578160031936011260be576002546001600160a01b03168152602090f35b5080fdfea26469706673582212203c572748af9d6dc977a3e593a475cbf617a3423621d2570cbaee92c772e08ad164736f6c634300080f0033",
  "immutableReferences": {},
  "source": "// SPDX-License-Identifier: BUSL-1.1\npragma solidity 0.8.15;\n\nimport \"./CometConfiguration.sol\";\n\n/**\n * @title Compound's Comet Configuration Storage Interface\n * @dev Versions can enforce append-only storage slots via inheritance.\n * @author Compound\n */\ncontract ConfiguratorStorage is CometConfiguration {\n    /// @notice The current version of Configurator. This version should be\n    /// checked in the initializer function.\n    uint public version;\n\n    /// @notice Mapping of Comet proxy addresses to their Configuration settings\n    /// @dev This needs to be internal to avoid a `CompilerError: Stack too deep\n    /// when compiling inline assembly` error that is caused by the default\n    /// getters created for public variables.\n    mapping(address => Configuration) internal configuratorParams;\n\n    /// @notice The governor of the protocol\n    address public governor;\n\n    /// @notice Mapping of Comet proxy addresses to their Comet factory contracts\n    mapping(address => address) public factory;\n}",
  "sourcePath": "/home/stephensb/sb-labs/solidity-contracts/contracts/comet/contracts/ConfiguratorStorage.sol",
  "compiler": {
    "name": "solc",
    "version": "0.8.15+commit.e14f2714.Emscripten.clang"
  },
  "schemaVersion": "3.4.12",
  "updatedAt": "2023-11-30T22:41:29.675Z",
  "devdoc": {
    "author": "Compound",
    "details": "Versions can enforce append-only storage slots via inheritance.",
    "kind": "dev",
    "methods": {},
    "stateVariables": {
      "configuratorParams": {
        "details": "This needs to be internal to avoid a `CompilerError: Stack too deep when compiling inline assembly` error that is caused by the default getters created for public variables."
      }
    },
    "title": "Compound's Comet Configuration Storage Interface",
    "version": 1
  },
  "userdoc": {
    "kind": "user",
    "methods": {
      "factory(address)": {
        "notice": "Mapping of Comet proxy addresses to their Comet factory contracts"
      },
      "governor()": {
        "notice": "The governor of the protocol"
      },
      "version()": {
        "notice": "The current version of Configurator. This version should be checked in the initializer function."
      }
    },
    "version": 1
  }
}