{
  "contractName": "Configurator",
  "abi": [
    {
      "inputs": [],
      "stateMutability": "nonpayable",
      "type": "constructor"
    },
    {
      "inputs": [],
      "name": "AlreadyInitialized",
      "type": "error"
    },
    {
      "inputs": [],
      "name": "AssetDoesNotExist",
      "type": "error"
    },
    {
      "inputs": [],
      "name": "ConfigurationAlreadyExists",
      "type": "error"
    },
    {
      "inputs": [],
      "name": "InvalidAddress",
      "type": "error"
    },
    {
      "inputs": [],
      "name": "Unauthorized",
      "type": "error"
    },
    {
      "anonymous": false,
      "inputs": [
        {
          "indexed": true,
          "internalType": "address",
          "name": "cometProxy",
          "type": "address"
        },
        {
          "components": [
            {
              "internalType": "address",
              "name": "asset",
              "type": "address"
            },
            {
              "internalType": "address",
              "name": "priceFeed",
              "type": "address"
            },
            {
              "internalType": "uint8",
              "name": "decimals",
              "type": "uint8"
            },
            {
              "internalType": "uint64",
              "name": "borrowCollateralFactor",
              "type": "uint64"
            },
            {
              "internalType": "uint64",
              "name": "liquidateCollateralFactor",
              "type": "uint64"
            },
            {
              "internalType": "uint64",
              "name": "liquidationFactor",
              "type": "uint64"
            },
            {
              "internalType": "uint128",
              "name": "supplyCap",
              "type": "uint128"
            }
          ],
          "indexed": false,
          "internalType": "struct CometConfiguration.AssetConfig",
          "name": "assetConfig",
          "type": "tuple"
        }
      ],
      "name": "AddAsset",
      "type": "event"
    },
    {
      "anonymous": false,
      "inputs": [
        {
          "indexed": true,
          "internalType": "address",
          "name": "cometProxy",
          "type": "address"
        },
        {
          "indexed": true,
          "internalType": "address",
          "name": "newComet",
          "type": "address"
        }
      ],
      "name": "CometDeployed",
      "type": "event"
    },
    {
      "anonymous": false,
      "inputs": [
        {
          "indexed": true,
          "internalType": "address",
          "name": "oldGovernor",
          "type": "address"
        },
        {
          "indexed": true,
          "internalType": "address",
          "name": "newGovernor",
          "type": "address"
        }
      ],
      "name": "GovernorTransferred",
      "type": "event"
    },
    {
      "anonymous": false,
      "inputs": [
        {
          "indexed": true,
          "internalType": "address",
          "name": "cometProxy",
          "type": "address"
        },
        {
          "indexed": false,
          "internalType": "uint104",
          "name": "oldBaseBorrowMin",
          "type": "uint104"
        },
        {
          "indexed": false,
          "internalType": "uint104",
          "name": "newBaseBorrowMin",
          "type": "uint104"
        }
      ],
      "name": "SetBaseBorrowMin",
      "type": "event"
    },
    {
      "anonymous": false,
      "inputs": [
        {
          "indexed": true,
          "internalType": "address",
          "name": "cometProxy",
          "type": "address"
        },
        {
          "indexed": false,
          "internalType": "uint104",
          "name": "oldBaseMinForRewards",
          "type": "uint104"
        },
        {
          "indexed": false,
          "internalType": "uint104",
          "name": "newBaseMinForRewards",
          "type": "uint104"
        }
      ],
      "name": "SetBaseMinForRewards",
      "type": "event"
    },
    {
      "anonymous": false,
      "inputs": [
        {
          "indexed": true,
          "internalType": "address",
          "name": "cometProxy",
          "type": "address"
        },
        {
          "indexed": true,
          "internalType": "address",
          "name": "oldBaseTokenPriceFeed",
          "type": "address"
        },
        {
          "indexed": true,
          "internalType": "address",
          "name": "newBaseTokenPriceFeed",
          "type": "address"
        }
      ],
      "name": "SetBaseTokenPriceFeed",
      "type": "event"
    },
    {
      "anonymous": false,
      "inputs": [
        {
          "indexed": true,
          "internalType": "address",
          "name": "cometProxy",
          "type": "address"
        },
        {
          "indexed": false,
          "internalType": "uint64",
          "name": "oldBaseTrackingBorrowSpeed",
          "type": "uint64"
        },
        {
          "indexed": false,
          "internalType": "uint64",
          "name": "newBaseTrackingBorrowSpeed",
          "type": "uint64"
        }
      ],
      "name": "SetBaseTrackingBorrowSpeed",
      "type": "event"
    },
    {
      "anonymous": false,
      "inputs": [
        {
          "indexed": true,
          "internalType": "address",
          "name": "cometProxy",
          "type": "address"
        },
        {
          "indexed": false,
          "internalType": "uint64",
          "name": "oldBaseTrackingSupplySpeed",
          "type": "uint64"
        },
        {
          "indexed": false,
          "internalType": "uint64",
          "name": "newBaseTrackingSupplySpeed",
          "type": "uint64"
        }
      ],
      "name": "SetBaseTrackingSupplySpeed",
      "type": "event"
    },
    {
      "anonymous": false,
      "inputs": [
        {
          "indexed": true,
          "internalType": "address",
          "name": "cometProxy",
          "type": "address"
        },
        {
          "indexed": false,
          "internalType": "uint64",
          "name": "oldKink",
          "type": "uint64"
        },
        {
          "indexed": false,
          "internalType": "uint64",
          "name": "newKink",
          "type": "uint64"
        }
      ],
      "name": "SetBorrowKink",
      "type": "event"
    },
    {
      "anonymous": false,
      "inputs": [
        {
          "indexed": true,
          "internalType": "address",
          "name": "cometProxy",
          "type": "address"
        },
        {
          "indexed": false,
          "internalType": "uint64",
          "name": "oldIRBase",
          "type": "uint64"
        },
        {
          "indexed": false,
          "internalType": "uint64",
          "name": "newIRBase",
          "type": "uint64"
        }
      ],
      "name": "SetBorrowPerYearInterestRateBase",
      "type": "event"
    },
    {
      "anonymous": false,
      "inputs": [
        {
          "indexed": true,
          "internalType": "address",
          "name": "cometProxy",
          "type": "address"
        },
        {
          "indexed": false,
          "internalType": "uint64",
          "name": "oldIRSlopeHigh",
          "type": "uint64"
        },
        {
          "indexed": false,
          "internalType": "uint64",
          "name": "newIRSlopeHigh",
          "type": "uint64"
        }
      ],
      "name": "SetBorrowPerYearInterestRateSlopeHigh",
      "type": "event"
    },
    {
      "anonymous": false,
      "inputs": [
        {
          "indexed": true,
          "internalType": "address",
          "name": "cometProxy",
          "type": "address"
        },
        {
          "indexed": false,
          "internalType": "uint64",
          "name": "oldIRSlopeLow",
          "type": "uint64"
        },
        {
          "indexed": false,
          "internalType": "uint64",
          "name": "newIRSlopeLow",
          "type": "uint64"
        }
      ],
      "name": "SetBorrowPerYearInterestRateSlopeLow",
      "type": "event"
    },
    {
      "anonymous": false,
      "inputs": [
        {
          "indexed": true,
          "internalType": "address",
          "name": "cometProxy",
          "type": "address"
        },
        {
          "components": [
            {
              "internalType": "address",
              "name": "governor",
              "type": "address"
            },
            {
              "internalType": "address",
              "name": "pauseGuardian",
              "type": "address"
            },
            {
              "internalType": "address",
              "name": "baseToken",
              "type": "address"
            },
            {
              "internalType": "address",
              "name": "baseTokenPriceFeed",
              "type": "address"
            },
            {
              "internalType": "address",
              "name": "extensionDelegate",
              "type": "address"
            },
            {
              "internalType": "uint64",
              "name": "supplyKink",
              "type": "uint64"
            },
            {
              "internalType": "uint64",
              "name": "supplyPerYearInterestRateSlopeLow",
              "type": "uint64"
            },
            {
              "internalType": "uint64",
              "name": "supplyPerYearInterestRateSlopeHigh",
              "type": "uint64"
            },
            {
              "internalType": "uint64",
              "name": "supplyPerYearInterestRateBase",
              "type": "uint64"
            },
            {
              "internalType": "uint64",
              "name": "borrowKink",
              "type": "uint64"
            },
            {
              "internalType": "uint64",
              "name": "borrowPerYearInterestRateSlopeLow",
              "type": "uint64"
            },
            {
              "internalType": "uint64",
              "name": "borrowPerYearInterestRateSlopeHigh",
              "type": "uint64"
            },
            {
              "internalType": "uint64",
              "name": "borrowPerYearInterestRateBase",
              "type": "uint64"
            },
            {
              "internalType": "uint64",
              "name": "storeFrontPriceFactor",
              "type": "uint64"
            },
            {
              "internalType": "uint64",
              "name": "trackingIndexScale",
              "type": "uint64"
            },
            {
              "internalType": "uint64",
              "name": "baseTrackingSupplySpeed",
              "type": "uint64"
            },
            {
              "internalType": "uint64",
              "name": "baseTrackingBorrowSpeed",
              "type": "uint64"
            },
            {
              "internalType": "uint104",
              "name": "baseMinForRewards",
              "type": "uint104"
            },
            {
              "internalType": "uint104",
              "name": "baseBorrowMin",
              "type": "uint104"
            },
            {
              "internalType": "uint104",
              "name": "targetReserves",
              "type": "uint104"
            },
            {
              "components": [
                {
                  "internalType": "address",
                  "name": "asset",
                  "type": "address"
                },
                {
                  "internalType": "address",
                  "name": "priceFeed",
                  "type": "address"
                },
                {
                  "internalType": "uint8",
                  "name": "decimals",
                  "type": "uint8"
                },
                {
                  "internalType": "uint64",
                  "name": "borrowCollateralFactor",
                  "type": "uint64"
                },
                {
                  "internalType": "uint64",
                  "name": "liquidateCollateralFactor",
                  "type": "uint64"
                },
                {
                  "internalType": "uint64",
                  "name": "liquidationFactor",
                  "type": "uint64"
                },
                {
                  "internalType": "uint128",
                  "name": "supplyCap",
                  "type": "uint128"
                }
              ],
              "internalType": "struct CometConfiguration.AssetConfig[]",
              "name": "assetConfigs",
              "type": "tuple[]"
            }
          ],
          "indexed": false,
          "internalType": "struct CometConfiguration.Configuration",
          "name": "oldConfiguration",
          "type": "tuple"
        },
        {
          "components": [
            {
              "internalType": "address",
              "name": "governor",
              "type": "address"
            },
            {
              "internalType": "address",
              "name": "pauseGuardian",
              "type": "address"
            },
            {
              "internalType": "address",
              "name": "baseToken",
              "type": "address"
            },
            {
              "internalType": "address",
              "name": "baseTokenPriceFeed",
              "type": "address"
            },
            {
              "internalType": "address",
              "name": "extensionDelegate",
              "type": "address"
            },
            {
              "internalType": "uint64",
              "name": "supplyKink",
              "type": "uint64"
            },
            {
              "internalType": "uint64",
              "name": "supplyPerYearInterestRateSlopeLow",
              "type": "uint64"
            },
            {
              "internalType": "uint64",
              "name": "supplyPerYearInterestRateSlopeHigh",
              "type": "uint64"
            },
            {
              "internalType": "uint64",
              "name": "supplyPerYearInterestRateBase",
              "type": "uint64"
            },
            {
              "internalType": "uint64",
              "name": "borrowKink",
              "type": "uint64"
            },
            {
              "internalType": "uint64",
              "name": "borrowPerYearInterestRateSlopeLow",
              "type": "uint64"
            },
            {
              "internalType": "uint64",
              "name": "borrowPerYearInterestRateSlopeHigh",
              "type": "uint64"
            },
            {
              "internalType": "uint64",
              "name": "borrowPerYearInterestRateBase",
              "type": "uint64"
            },
            {
              "internalType": "uint64",
              "name": "storeFrontPriceFactor",
              "type": "uint64"
            },
            {
              "internalType": "uint64",
              "name": "trackingIndexScale",
              "type": "uint64"
            },
            {
              "internalType": "uint64",
              "name": "baseTrackingSupplySpeed",
              "type": "uint64"
            },
            {
              "internalType": "uint64",
              "name": "baseTrackingBorrowSpeed",
              "type": "uint64"
            },
            {
              "internalType": "uint104",
              "name": "baseMinForRewards",
              "type": "uint104"
            },
            {
              "internalType": "uint104",
              "name": "baseBorrowMin",
              "type": "uint104"
            },
            {
              "internalType": "uint104",
              "name": "targetReserves",
              "type": "uint104"
            },
            {
              "components": [
                {
                  "internalType": "address",
                  "name": "asset",
                  "type": "address"
                },
                {
                  "internalType": "address",
                  "name": "priceFeed",
                  "type": "address"
                },
                {
                  "internalType": "uint8",
                  "name": "decimals",
                  "type": "uint8"
                },
                {
                  "internalType": "uint64",
                  "name": "borrowCollateralFactor",
                  "type": "uint64"
                },
                {
                  "internalType": "uint64",
                  "name": "liquidateCollateralFactor",
                  "type": "uint64"
                },
                {
                  "internalType": "uint64",
                  "name": "liquidationFactor",
                  "type": "uint64"
                },
                {
                  "internalType": "uint128",
                  "name": "supplyCap",
                  "type": "uint128"
                }
              ],
              "internalType": "struct CometConfiguration.AssetConfig[]",
              "name": "assetConfigs",
              "type": "tuple[]"
            }
          ],
          "indexed": false,
          "internalType": "struct CometConfiguration.Configuration",
          "name": "newConfiguration",
          "type": "tuple"
        }
      ],
      "name": "SetConfiguration",
      "type": "event"
    },
    {
      "anonymous": false,
      "inputs": [
        {
          "indexed": true,
          "internalType": "address",
          "name": "cometProxy",
          "type": "address"
        },
        {
          "indexed": true,
          "internalType": "address",
          "name": "oldExt",
          "type": "address"
        },
        {
          "indexed": true,
          "internalType": "address",
          "name": "newExt",
          "type": "address"
        }
      ],
      "name": "SetExtensionDelegate",
      "type": "event"
    },
    {
      "anonymous": false,
      "inputs": [
        {
          "indexed": true,
          "internalType": "address",
          "name": "cometProxy",
          "type": "address"
        },
        {
          "indexed": true,
          "internalType": "address",
          "name": "oldFactory",
          "type": "address"
        },
        {
          "indexed": true,
          "internalType": "address",
          "name": "newFactory",
          "type": "address"
        }
      ],
      "name": "SetFactory",
      "type": "event"
    },
    {
      "anonymous": false,
      "inputs": [
        {
          "indexed": true,
          "internalType": "address",
          "name": "cometProxy",
          "type": "address"
        },
        {
          "indexed": true,
          "internalType": "address",
          "name": "oldGovernor",
          "type": "address"
        },
        {
          "indexed": true,
          "internalType": "address",
          "name": "newGovernor",
          "type": "address"
        }
      ],
      "name": "SetGovernor",
      "type": "event"
    },
    {
      "anonymous": false,
      "inputs": [
        {
          "indexed": true,
          "internalType": "address",
          "name": "cometProxy",
          "type": "address"
        },
        {
          "indexed": true,
          "internalType": "address",
          "name": "oldPauseGuardian",
          "type": "address"
        },
        {
          "indexed": true,
          "internalType": "address",
          "name": "newPauseGuardian",
          "type": "address"
        }
      ],
      "name": "SetPauseGuardian",
      "type": "event"
    },
    {
      "anonymous": false,
      "inputs": [
        {
          "indexed": true,
          "internalType": "address",
          "name": "cometProxy",
          "type": "address"
        },
        {
          "indexed": false,
          "internalType": "uint64",
          "name": "oldStoreFrontPriceFactor",
          "type": "uint64"
        },
        {
          "indexed": false,
          "internalType": "uint64",
          "name": "newStoreFrontPriceFactor",
          "type": "uint64"
        }
      ],
      "name": "SetStoreFrontPriceFactor",
      "type": "event"
    },
    {
      "anonymous": false,
      "inputs": [
        {
          "indexed": true,
          "internalType": "address",
          "name": "cometProxy",
          "type": "address"
        },
        {
          "indexed": false,
          "internalType": "uint64",
          "name": "oldKink",
          "type": "uint64"
        },
        {
          "indexed": false,
          "internalType": "uint64",
          "name": "newKink",
          "type": "uint64"
        }
      ],
      "name": "SetSupplyKink",
      "type": "event"
    },
    {
      "anonymous": false,
      "inputs": [
        {
          "indexed": true,
          "internalType": "address",
          "name": "cometProxy",
          "type": "address"
        },
        {
          "indexed": false,
          "internalType": "uint64",
          "name": "oldIRBase",
          "type": "uint64"
        },
        {
          "indexed": false,
          "internalType": "uint64",
          "name": "newIRBase",
          "type": "uint64"
        }
      ],
      "name": "SetSupplyPerYearInterestRateBase",
      "type": "event"
    },
    {
      "anonymous": false,
      "inputs": [
        {
          "indexed": true,
          "internalType": "address",
          "name": "cometProxy",
          "type": "address"
        },
        {
          "indexed": false,
          "internalType": "uint64",
          "name": "oldIRSlopeHigh",
          "type": "uint64"
        },
        {
          "indexed": false,
          "internalType": "uint64",
          "name": "newIRSlopeHigh",
          "type": "uint64"
        }
      ],
      "name": "SetSupplyPerYearInterestRateSlopeHigh",
      "type": "event"
    },
    {
      "anonymous": false,
      "inputs": [
        {
          "indexed": true,
          "internalType": "address",
          "name": "cometProxy",
          "type": "address"
        },
        {
          "indexed": false,
          "internalType": "uint64",
          "name": "oldIRSlopeLow",
          "type": "uint64"
        },
        {
          "indexed": false,
          "internalType": "uint64",
          "name": "newIRSlopeLow",
          "type": "uint64"
        }
      ],
      "name": "SetSupplyPerYearInterestRateSlopeLow",
      "type": "event"
    },
    {
      "anonymous": false,
      "inputs": [
        {
          "indexed": true,
          "internalType": "address",
          "name": "cometProxy",
          "type": "address"
        },
        {
          "indexed": false,
          "internalType": "uint104",
          "name": "oldTargetReserves",
          "type": "uint104"
        },
        {
          "indexed": false,
          "internalType": "uint104",
          "name": "newTargetReserves",
          "type": "uint104"
        }
      ],
      "name": "SetTargetReserves",
      "type": "event"
    },
    {
      "anonymous": false,
      "inputs": [
        {
          "indexed": true,
          "internalType": "address",
          "name": "cometProxy",
          "type": "address"
        },
        {
          "components": [
            {
              "internalType": "address",
              "name": "asset",
              "type": "address"
            },
            {
              "internalType": "address",
              "name": "priceFeed",
              "type": "address"
            },
            {
              "internalType": "uint8",
              "name": "decimals",
              "type": "uint8"
            },
            {
              "internalType": "uint64",
              "name": "borrowCollateralFactor",
              "type": "uint64"
            },
            {
              "internalType": "uint64",
              "name": "liquidateCollateralFactor",
              "type": "uint64"
            },
            {
              "internalType": "uint64",
              "name": "liquidationFactor",
              "type": "uint64"
            },
            {
              "internalType": "uint128",
              "name": "supplyCap",
              "type": "uint128"
            }
          ],
          "indexed": false,
          "internalType": "struct CometConfiguration.AssetConfig",
          "name": "oldAssetConfig",
          "type": "tuple"
        },
        {
          "components": [
            {
              "internalType": "address",
              "name": "asset",
              "type": "address"
            },
            {
              "internalType": "address",
              "name": "priceFeed",
              "type": "address"
            },
            {
              "internalType": "uint8",
              "name": "decimals",
              "type": "uint8"
            },
            {
              "internalType": "uint64",
              "name": "borrowCollateralFactor",
              "type": "uint64"
            },
            {
              "internalType": "uint64",
              "name": "liquidateCollateralFactor",
              "type": "uint64"
            },
            {
              "internalType": "uint64",
              "name": "liquidationFactor",
              "type": "uint64"
            },
            {
              "internalType": "uint128",
              "name": "supplyCap",
              "type": "uint128"
            }
          ],
          "indexed": false,
          "internalType": "struct CometConfiguration.AssetConfig",
          "name": "newAssetConfig",
          "type": "tuple"
        }
      ],
      "name": "UpdateAsset",
      "type": "event"
    },
    {
      "anonymous": false,
      "inputs": [
        {
          "indexed": true,
          "internalType": "address",
          "name": "cometProxy",
          "type": "address"
        },
        {
          "indexed": true,
          "internalType": "address",
          "name": "asset",
          "type": "address"
        },
        {
          "indexed": false,
          "internalType": "uint64",
          "name": "oldBorrowCF",
          "type": "uint64"
        },
        {
          "indexed": false,
          "internalType": "uint64",
          "name": "newBorrowCF",
          "type": "uint64"
        }
      ],
      "name": "UpdateAssetBorrowCollateralFactor",
      "type": "event"
    },
    {
      "anonymous": false,
      "inputs": [
        {
          "indexed": true,
          "internalType": "address",
          "name": "cometProxy",
          "type": "address"
        },
        {
          "indexed": true,
          "internalType": "address",
          "name": "asset",
          "type": "address"
        },
        {
          "indexed": false,
          "internalType": "uint64",
          "name": "oldLiquidateCF",
          "type": "uint64"
        },
        {
          "indexed": false,
          "internalType": "uint64",
          "name": "newLiquidateCF",
          "type": "uint64"
        }
      ],
      "name": "UpdateAssetLiquidateCollateralFactor",
      "type": "event"
    },
    {
      "anonymous": false,
      "inputs": [
        {
          "indexed": true,
          "internalType": "address",
          "name": "cometProxy",
          "type": "address"
        },
        {
          "indexed": true,
          "internalType": "address",
          "name": "asset",
          "type": "address"
        },
        {
          "indexed": false,
          "internalType": "uint64",
          "name": "oldLiquidationFactor",
          "type": "uint64"
        },
        {
          "indexed": false,
          "internalType": "uint64",
          "name": "newLiquidationFactor",
          "type": "uint64"
        }
      ],
      "name": "UpdateAssetLiquidationFactor",
      "type": "event"
    },
    {
      "anonymous": false,
      "inputs": [
        {
          "indexed": true,
          "internalType": "address",
          "name": "cometProxy",
          "type": "address"
        },
        {
          "indexed": true,
          "internalType": "address",
          "name": "asset",
          "type": "address"
        },
        {
          "indexed": false,
          "internalType": "address",
          "name": "oldPriceFeed",
          "type": "address"
        },
        {
          "indexed": false,
          "internalType": "address",
          "name": "newPriceFeed",
          "type": "address"
        }
      ],
      "name": "UpdateAssetPriceFeed",
      "type": "event"
    },
    {
      "anonymous": false,
      "inputs": [
        {
          "indexed": true,
          "internalType": "address",
          "name": "cometProxy",
          "type": "address"
        },
        {
          "indexed": true,
          "internalType": "address",
          "name": "asset",
          "type": "address"
        },
        {
          "indexed": false,
          "internalType": "uint128",
          "name": "oldSupplyCap",
          "type": "uint128"
        },
        {
          "indexed": false,
          "internalType": "uint128",
          "name": "newSupplyCap",
          "type": "uint128"
        }
      ],
      "name": "UpdateAssetSupplyCap",
      "type": "event"
    },
    {
      "inputs": [
        {
          "internalType": "address",
          "name": "",
          "type": "address"
        }
      ],
      "name": "factory",
      "outputs": [
        {
          "internalType": "address",
          "name": "",
          "type": "address"
        }
      ],
      "stateMutability": "view",
      "type": "function"
    },
    {
      "inputs": [],
      "name": "governor",
      "outputs": [
        {
          "internalType": "address",
          "name": "",
          "type": "address"
        }
      ],
      "stateMutability": "view",
      "type": "function"
    },
    {
      "inputs": [],
      "name": "version",
      "outputs": [
        {
          "internalType": "uint256",
          "name": "",
          "type": "uint256"
        }
      ],
      "stateMutability": "view",
      "type": "function"
    },
    {
      "inputs": [
        {
          "internalType": "address",
          "name": "governor_",
          "type": "address"
        }
      ],
      "name": "initialize",
      "outputs": [],
      "stateMutability": "nonpayable",
      "type": "function"
    },
    {
      "inputs": [
        {
          "internalType": "address",
          "name": "cometProxy",
          "type": "address"
        },
        {
          "internalType": "address",
          "name": "newFactory",
          "type": "address"
        }
      ],
      "name": "setFactory",
      "outputs": [],
      "stateMutability": "nonpayable",
      "type": "function"
    },
    {
      "inputs": [
        {
          "internalType": "address",
          "name": "cometProxy",
          "type": "address"
        },
        {
          "components": [
            {
              "internalType": "address",
              "name": "governor",
              "type": "address"
            },
            {
              "internalType": "address",
              "name": "pauseGuardian",
              "type": "address"
            },
            {
              "internalType": "address",
              "name": "baseToken",
              "type": "address"
            },
            {
              "internalType": "address",
              "name": "baseTokenPriceFeed",
              "type": "address"
            },
            {
              "internalType": "address",
              "name": "extensionDelegate",
              "type": "address"
            },
            {
              "internalType": "uint64",
              "name": "supplyKink",
              "type": "uint64"
            },
            {
              "internalType": "uint64",
              "name": "supplyPerYearInterestRateSlopeLow",
              "type": "uint64"
            },
            {
              "internalType": "uint64",
              "name": "supplyPerYearInterestRateSlopeHigh",
              "type": "uint64"
            },
            {
              "internalType": "uint64",
              "name": "supplyPerYearInterestRateBase",
              "type": "uint64"
            },
            {
              "internalType": "uint64",
              "name": "borrowKink",
              "type": "uint64"
            },
            {
              "internalType": "uint64",
              "name": "borrowPerYearInterestRateSlopeLow",
              "type": "uint64"
            },
            {
              "internalType": "uint64",
              "name": "borrowPerYearInterestRateSlopeHigh",
              "type": "uint64"
            },
            {
              "internalType": "uint64",
              "name": "borrowPerYearInterestRateBase",
              "type": "uint64"
            },
            {
              "internalType": "uint64",
              "name": "storeFrontPriceFactor",
              "type": "uint64"
            },
            {
              "internalType": "uint64",
              "name": "trackingIndexScale",
              "type": "uint64"
            },
            {
              "internalType": "uint64",
              "name": "baseTrackingSupplySpeed",
              "type": "uint64"
            },
            {
              "internalType": "uint64",
              "name": "baseTrackingBorrowSpeed",
              "type": "uint64"
            },
            {
              "internalType": "uint104",
              "name": "baseMinForRewards",
              "type": "uint104"
            },
            {
              "internalType": "uint104",
              "name": "baseBorrowMin",
              "type": "uint104"
            },
            {
              "internalType": "uint104",
              "name": "targetReserves",
              "type": "uint104"
            },
            {
              "components": [
                {
                  "internalType": "address",
                  "name": "asset",
                  "type": "address"
                },
                {
                  "internalType": "address",
                  "name": "priceFeed",
                  "type": "address"
                },
                {
                  "internalType": "uint8",
                  "name": "decimals",
                  "type": "uint8"
                },
                {
                  "internalType": "uint64",
                  "name": "borrowCollateralFactor",
                  "type": "uint64"
                },
                {
                  "internalType": "uint64",
                  "name": "liquidateCollateralFactor",
                  "type": "uint64"
                },
                {
                  "internalType": "uint64",
                  "name": "liquidationFactor",
                  "type": "uint64"
                },
                {
                  "internalType": "uint128",
                  "name": "supplyCap",
                  "type": "uint128"
                }
              ],
              "internalType": "struct CometConfiguration.AssetConfig[]",
              "name": "assetConfigs",
              "type": "tuple[]"
            }
          ],
          "internalType": "struct CometConfiguration.Configuration",
          "name": "newConfiguration",
          "type": "tuple"
        }
      ],
      "name": "setConfiguration",
      "outputs": [],
      "stateMutability": "nonpayable",
      "type": "function"
    },
    {
      "inputs": [
        {
          "internalType": "address",
          "name": "cometProxy",
          "type": "address"
        },
        {
          "internalType": "address",
          "name": "newGovernor",
          "type": "address"
        }
      ],
      "name": "setGovernor",
      "outputs": [],
      "stateMutability": "nonpayable",
      "type": "function"
    },
    {
      "inputs": [
        {
          "internalType": "address",
          "name": "cometProxy",
          "type": "address"
        },
        {
          "internalType": "address",
          "name": "newPauseGuardian",
          "type": "address"
        }
      ],
      "name": "setPauseGuardian",
      "outputs": [],
      "stateMutability": "nonpayable",
      "type": "function"
    },
    {
      "inputs": [
        {
          "internalType": "address",
          "name": "cometProxy",
          "type": "address"
        },
        {
          "internalType": "address",
          "name": "newBaseTokenPriceFeed",
          "type": "address"
        }
      ],
      "name": "setBaseTokenPriceFeed",
      "outputs": [],
      "stateMutability": "nonpayable",
      "type": "function"
    },
    {
      "inputs": [
        {
          "internalType": "address",
          "name": "cometProxy",
          "type": "address"
        },
        {
          "internalType": "address",
          "name": "newExtensionDelegate",
          "type": "address"
        }
      ],
      "name": "setExtensionDelegate",
      "outputs": [],
      "stateMutability": "nonpayable",
      "type": "function"
    },
    {
      "inputs": [
        {
          "internalType": "address",
          "name": "cometProxy",
          "type": "address"
        },
        {
          "internalType": "uint64",
          "name": "newSupplyKink",
          "type": "uint64"
        }
      ],
      "name": "setSupplyKink",
      "outputs": [],
      "stateMutability": "nonpayable",
      "type": "function"
    },
    {
      "inputs": [
        {
          "internalType": "address",
          "name": "cometProxy",
          "type": "address"
        },
        {
          "internalType": "uint64",
          "name": "newSlope",
          "type": "uint64"
        }
      ],
      "name": "setSupplyPerYearInterestRateSlopeLow",
      "outputs": [],
      "stateMutability": "nonpayable",
      "type": "function"
    },
    {
      "inputs": [
        {
          "internalType": "address",
          "name": "cometProxy",
          "type": "address"
        },
        {
          "internalType": "uint64",
          "name": "newSlope",
          "type": "uint64"
        }
      ],
      "name": "setSupplyPerYearInterestRateSlopeHigh",
      "outputs": [],
      "stateMutability": "nonpayable",
      "type": "function"
    },
    {
      "inputs": [
        {
          "internalType": "address",
          "name": "cometProxy",
          "type": "address"
        },
        {
          "internalType": "uint64",
          "name": "newBase",
          "type": "uint64"
        }
      ],
      "name": "setSupplyPerYearInterestRateBase",
      "outputs": [],
      "stateMutability": "nonpayable",
      "type": "function"
    },
    {
      "inputs": [
        {
          "internalType": "address",
          "name": "cometProxy",
          "type": "address"
        },
        {
          "internalType": "uint64",
          "name": "newBorrowKink",
          "type": "uint64"
        }
      ],
      "name": "setBorrowKink",
      "outputs": [],
      "stateMutability": "nonpayable",
      "type": "function"
    },
    {
      "inputs": [
        {
          "internalType": "address",
          "name": "cometProxy",
          "type": "address"
        },
        {
          "internalType": "uint64",
          "name": "newSlope",
          "type": "uint64"
        }
      ],
      "name": "setBorrowPerYearInterestRateSlopeLow",
      "outputs": [],
      "stateMutability": "nonpayable",
      "type": "function"
    },
    {
      "inputs": [
        {
          "internalType": "address",
          "name": "cometProxy",
          "type": "address"
        },
        {
          "internalType": "uint64",
          "name": "newSlope",
          "type": "uint64"
        }
      ],
      "name": "setBorrowPerYearInterestRateSlopeHigh",
      "outputs": [],
      "stateMutability": "nonpayable",
      "type": "function"
    },
    {
      "inputs": [
        {
          "internalType": "address",
          "name": "cometProxy",
          "type": "address"
        },
        {
          "internalType": "uint64",
          "name": "newBase",
          "type": "uint64"
        }
      ],
      "name": "setBorrowPerYearInterestRateBase",
      "outputs": [],
      "stateMutability": "nonpayable",
      "type": "function"
    },
    {
      "inputs": [
        {
          "internalType": "address",
          "name": "cometProxy",
          "type": "address"
        },
        {
          "internalType": "uint64",
          "name": "newStoreFrontPriceFactor",
          "type": "uint64"
        }
      ],
      "name": "setStoreFrontPriceFactor",
      "outputs": [],
      "stateMutability": "nonpayable",
      "type": "function"
    },
    {
      "inputs": [
        {
          "internalType": "address",
          "name": "cometProxy",
          "type": "address"
        },
        {
          "internalType": "uint64",
          "name": "newBaseTrackingSupplySpeed",
          "type": "uint64"
        }
      ],
      "name": "setBaseTrackingSupplySpeed",
      "outputs": [],
      "stateMutability": "nonpayable",
      "type": "function"
    },
    {
      "inputs": [
        {
          "internalType": "address",
          "name": "cometProxy",
          "type": "address"
        },
        {
          "internalType": "uint64",
          "name": "newBaseTrackingBorrowSpeed",
          "type": "uint64"
        }
      ],
      "name": "setBaseTrackingBorrowSpeed",
      "outputs": [],
      "stateMutability": "nonpayable",
      "type": "function"
    },
    {
      "inputs": [
        {
          "internalType": "address",
          "name": "cometProxy",
          "type": "address"
        },
        {
          "internalType": "uint104",
          "name": "newBaseMinForRewards",
          "type": "uint104"
        }
      ],
      "name": "setBaseMinForRewards",
      "outputs": [],
      "stateMutability": "nonpayable",
      "type": "function"
    },
    {
      "inputs": [
        {
          "internalType": "address",
          "name": "cometProxy",
          "type": "address"
        },
        {
          "internalType": "uint104",
          "name": "newBaseBorrowMin",
          "type": "uint104"
        }
      ],
      "name": "setBaseBorrowMin",
      "outputs": [],
      "stateMutability": "nonpayable",
      "type": "function"
    },
    {
      "inputs": [
        {
          "internalType": "address",
          "name": "cometProxy",
          "type": "address"
        },
        {
          "internalType": "uint104",
          "name": "newTargetReserves",
          "type": "uint104"
        }
      ],
      "name": "setTargetReserves",
      "outputs": [],
      "stateMutability": "nonpayable",
      "type": "function"
    },
    {
      "inputs": [
        {
          "internalType": "address",
          "name": "cometProxy",
          "type": "address"
        },
        {
          "components": [
            {
              "internalType": "address",
              "name": "asset",
              "type": "address"
            },
            {
              "internalType": "address",
              "name": "priceFeed",
              "type": "address"
            },
            {
              "internalType": "uint8",
              "name": "decimals",
              "type": "uint8"
            },
            {
              "internalType": "uint64",
              "name": "borrowCollateralFactor",
              "type": "uint64"
            },
            {
              "internalType": "uint64",
              "name": "liquidateCollateralFactor",
              "type": "uint64"
            },
            {
              "internalType": "uint64",
              "name": "liquidationFactor",
              "type": "uint64"
            },
            {
              "internalType": "uint128",
              "name": "supplyCap",
              "type": "uint128"
            }
          ],
          "internalType": "struct CometConfiguration.AssetConfig",
          "name": "assetConfig",
          "type": "tuple"
        }
      ],
      "name": "addAsset",
      "outputs": [],
      "stateMutability": "nonpayable",
      "type": "function"
    },
    {
      "inputs": [
        {
          "internalType": "address",
          "name": "cometProxy",
          "type": "address"
        },
        {
          "components": [
            {
              "internalType": "address",
              "name": "asset",
              "type": "address"
            },
            {
              "internalType": "address",
              "name": "priceFeed",
              "type": "address"
            },
            {
              "internalType": "uint8",
              "name": "decimals",
              "type": "uint8"
            },
            {
              "internalType": "uint64",
              "name": "borrowCollateralFactor",
              "type": "uint64"
            },
            {
              "internalType": "uint64",
              "name": "liquidateCollateralFactor",
              "type": "uint64"
            },
            {
              "internalType": "uint64",
              "name": "liquidationFactor",
              "type": "uint64"
            },
            {
              "internalType": "uint128",
              "name": "supplyCap",
              "type": "uint128"
            }
          ],
          "internalType": "struct CometConfiguration.AssetConfig",
          "name": "newAssetConfig",
          "type": "tuple"
        }
      ],
      "name": "updateAsset",
      "outputs": [],
      "stateMutability": "nonpayable",
      "type": "function"
    },
    {
      "inputs": [
        {
          "internalType": "address",
          "name": "cometProxy",
          "type": "address"
        },
        {
          "internalType": "address",
          "name": "asset",
          "type": "address"
        },
        {
          "internalType": "address",
          "name": "newPriceFeed",
          "type": "address"
        }
      ],
      "name": "updateAssetPriceFeed",
      "outputs": [],
      "stateMutability": "nonpayable",
      "type": "function"
    },
    {
      "inputs": [
        {
          "internalType": "address",
          "name": "cometProxy",
          "type": "address"
        },
        {
          "internalType": "address",
          "name": "asset",
          "type": "address"
        },
        {
          "internalType": "uint64",
          "name": "newBorrowCF",
          "type": "uint64"
        }
      ],
      "name": "updateAssetBorrowCollateralFactor",
      "outputs": [],
      "stateMutability": "nonpayable",
      "type": "function"
    },
    {
      "inputs": [
        {
          "internalType": "address",
          "name": "cometProxy",
          "type": "address"
        },
        {
          "internalType": "address",
          "name": "asset",
          "type": "address"
        },
        {
          "internalType": "uint64",
          "name": "newLiquidateCF",
          "type": "uint64"
        }
      ],
      "name": "updateAssetLiquidateCollateralFactor",
      "outputs": [],
      "stateMutability": "nonpayable",
      "type": "function"
    },
    {
      "inputs": [
        {
          "internalType": "address",
          "name": "cometProxy",
          "type": "address"
        },
        {
          "internalType": "address",
          "name": "asset",
          "type": "address"
        },
        {
          "internalType": "uint64",
          "name": "newLiquidationFactor",
          "type": "uint64"
        }
      ],
      "name": "updateAssetLiquidationFactor",
      "outputs": [],
      "stateMutability": "nonpayable",
      "type": "function"
    },
    {
      "inputs": [
        {
          "internalType": "address",
          "name": "cometProxy",
          "type": "address"
        },
        {
          "internalType": "address",
          "name": "asset",
          "type": "address"
        },
        {
          "internalType": "uint128",
          "name": "newSupplyCap",
          "type": "uint128"
        }
      ],
      "name": "updateAssetSupplyCap",
      "outputs": [],
      "stateMutability": "nonpayable",
      "type": "function"
    },
    {
      "inputs": [
        {
          "internalType": "address",
          "name": "cometProxy",
          "type": "address"
        },
        {
          "internalType": "address",
          "name": "asset",
          "type": "address"
        }
      ],
      "name": "getAssetIndex",
      "outputs": [
        {
          "internalType": "uint256",
          "name": "",
          "type": "uint256"
        }
      ],
      "stateMutability": "view",
      "type": "function"
    },
    {
      "inputs": [
        {
          "internalType": "address",
          "name": "cometProxy",
          "type": "address"
        }
      ],
      "name": "getConfiguration",
      "outputs": [
        {
          "components": [
            {
              "internalType": "address",
              "name": "governor",
              "type": "address"
            },
            {
              "internalType": "address",
              "name": "pauseGuardian",
              "type": "address"
            },
            {
              "internalType": "address",
              "name": "baseToken",
              "type": "address"
            },
            {
              "internalType": "address",
              "name": "baseTokenPriceFeed",
              "type": "address"
            },
            {
              "internalType": "address",
              "name": "extensionDelegate",
              "type": "address"
            },
            {
              "internalType": "uint64",
              "name": "supplyKink",
              "type": "uint64"
            },
            {
              "internalType": "uint64",
              "name": "supplyPerYearInterestRateSlopeLow",
              "type": "uint64"
            },
            {
              "internalType": "uint64",
              "name": "supplyPerYearInterestRateSlopeHigh",
              "type": "uint64"
            },
            {
              "internalType": "uint64",
              "name": "supplyPerYearInterestRateBase",
              "type": "uint64"
            },
            {
              "internalType": "uint64",
              "name": "borrowKink",
              "type": "uint64"
            },
            {
              "internalType": "uint64",
              "name": "borrowPerYearInterestRateSlopeLow",
              "type": "uint64"
            },
            {
              "internalType": "uint64",
              "name": "borrowPerYearInterestRateSlopeHigh",
              "type": "uint64"
            },
            {
              "internalType": "uint64",
              "name": "borrowPerYearInterestRateBase",
              "type": "uint64"
            },
            {
              "internalType": "uint64",
              "name": "storeFrontPriceFactor",
              "type": "uint64"
            },
            {
              "internalType": "uint64",
              "name": "trackingIndexScale",
              "type": "uint64"
            },
            {
              "internalType": "uint64",
              "name": "baseTrackingSupplySpeed",
              "type": "uint64"
            },
            {
              "internalType": "uint64",
              "name": "baseTrackingBorrowSpeed",
              "type": "uint64"
            },
            {
              "internalType": "uint104",
              "name": "baseMinForRewards",
              "type": "uint104"
            },
            {
              "internalType": "uint104",
              "name": "baseBorrowMin",
              "type": "uint104"
            },
            {
              "internalType": "uint104",
              "name": "targetReserves",
              "type": "uint104"
            },
            {
              "components": [
                {
                  "internalType": "address",
                  "name": "asset",
                  "type": "address"
                },
                {
                  "internalType": "address",
                  "name": "priceFeed",
                  "type": "address"
                },
                {
                  "internalType": "uint8",
                  "name": "decimals",
                  "type": "uint8"
                },
                {
                  "internalType": "uint64",
                  "name": "borrowCollateralFactor",
                  "type": "uint64"
                },
                {
                  "internalType": "uint64",
                  "name": "liquidateCollateralFactor",
                  "type": "uint64"
                },
                {
                  "internalType": "uint64",
                  "name": "liquidationFactor",
                  "type": "uint64"
                },
                {
                  "internalType": "uint128",
                  "name": "supplyCap",
                  "type": "uint128"
                }
              ],
              "internalType": "struct CometConfiguration.AssetConfig[]",
              "name": "assetConfigs",
              "type": "tuple[]"
            }
          ],
          "internalType": "struct CometConfiguration.Configuration",
          "name": "",
          "type": "tuple"
        }
      ],
      "stateMutability": "view",
      "type": "function"
    },
    {
      "inputs": [
        {
          "internalType": "address",
          "name": "cometProxy",
          "type": "address"
        }
      ],
      "name": "deploy",
      "outputs": [
        {
          "internalType": "address",
          "name": "",
          "type": "address"
        }
      ],
      "stateMutability": "nonpayable",
      "type": "function"
    },
    {
      "inputs": [
        {
          "internalType": "address",
          "name": "newGovernor",
          "type": "address"
        }
      ],
      "name": "transferGovernor",
      "outputs": [],
      "stateMutability": "nonpayable",
      "type": "function"
    }
  ],
  "bytecode": "0x6080806040523461001c57600019600055612c3b90816100228239f35b600080fdfe608080604052600436101561001357600080fd5b60003560e01c908163058e41551461246f575080630c340a2414612446578063240dd96d146123bb578063294be433146122eb57806335e67c1014612256578063395c0fda1461221b5780633dd40365146121905780634a900c5a146120ed5780634c96a38914611e3a57806354fd4d5014611e1c5780635bfb837314611d845780635c9ae49914611cf95780635e82556414611c6a57806374b20ab814611bdf57806377a7dafd14611aea578063786f0ac414611a5b5780637d5e1840146119b35780638145ae7d1461191e578063886fe70b146118ea5780638d2ed08d1461185f5780639340d433146117c75780639a01fe82146117025780639a0fd80814611631578063a2ced7fd1461154b578063b2f5ee19146114a8578063b73585f1146113bf578063b8cc9ce61461134e578063c1252f90146107e1578063c44b11f7146105bd578063c4d66de814610550578063d89e834f146104a8578063e1a533ed14610413578063e8623ec514610364578063ea31a447146102a75763ecb9a875146101a057600080fd5b346102a25760603660031901126102a2576101b9612525565b6101c161253b565b6101c961257b565b6002549091906001600160a01b039081163303610291578161028c826102107f4bce180f5fbcc3f04e85605e3179ceaa66041248373ced1a406d4c44d91e37979588612b7c565b96169485600052600160205261026481600261025d6001600160401b038261023f8d600a604060002001612b4a565b50015460401c169a8a6000526001602052600a604060002001612b4a565b50016128d0565b6040519384931696839060209093929360408301946001600160401b03809216845216910152565b0390a3005b6040516282b42960e81b8152600490fd5b600080fd5b346102a2576101003660031901126102a2576102c1612525565b60e03660231901126102a2576002546001600160a01b039190821633036102915716806000526001602052600a604060002001805490600160401b82101561034e578161031691600161031c94018155612b4a565b9061297d565b7f1f7dcc7122c2fe2d685db789d8cde941d28c9d5bf456dcd260705c8d4aef4ef860e060405161034b81612ab3565ba2005b634e487b7160e01b600052604160045260246000fd5b346102a25760403660031901126102a25761037d612525565b610385612565565b6002549091906001600160a01b039081163303610291577fec47838861ac4faa72ef1cf4d982f923880203912cd0c53d6fea2e611562f82c9116918260005260016020526001600160401b0360066040600020015460401c166103ef8260066040600020016128d0565b604080516001600160401b039283168152929091166020830152819081015b0390a2005b346102a25760403660031901126102a25761042c612525565b61043461253b565b6002546001600160a01b03919082163303610291578160009316918284526001602052806003604086200154169060036040862001921691826001600160601b0360a01b825416179055604051927f1e3daca7fe0d6c7ab58271d196454f1d9e867a09de95666bcad4ab688e750f1a8585a4f35b346102a25760403660031901126102a2576104c1612525565b6104c96125a5565b6002549091906001600160a01b039081163303610291571660008181526001602090815260409182902060080180546001600160681b039586166cffffffffffffffffffffffffff19821681179092558351951685529084015290917f635524bd339ec1b914f9b13607c72592cfa9538a3c56170a59094dde834bb41d918190810161040e565b346102a25760203660031901126102a257610569612525565b6000546105ac576001600160a01b0316801561059a57600280546001600160a01b0319169190911790556001600055005b60405163e6c4247b60e01b8152600490fd5b60405162dc149f60e41b8152600490fd5b346102a25760203660031901126102a2576105d6612525565b60606102806040516105e781612799565b60008152600060208201526000604082015260008382015260006080820152600060a0820152600060c0820152600060e08201526000610100820152600061012082015260006101408201526000610160820152600061018082015260006101a082015260006101c082015260006101e08201526000610200820152600061022082015260006102408201526000610260820152015260018060a01b031660005260016020526107dd60406000206107c3600a604051926106a784612799565b60018060a01b03815416845260018060a01b03600182015416602085015260018060a01b03600282015416604085015260018060a01b036003820154166060850152600481015460018060a01b03811660808601526001600160401b03809160a01c1660a0860152600582015481811660c0870152818160401c1660e0870152818160801c1661010087015260c01c6101208601526006820154818116610140870152818160401c16610160870152818160801c1661018087015260c01c6101a086015260078201548181166101c0870152818160401c166101e087015260801c1661020085015260088101546001600160681b03818180931661022088015260681c1661024086015260098201541661026085015201612848565b610280820152604051918291602083526020830190612633565b0390f35b346102a2576003196040368201126102a2576107fb612525565b906001600160401b03602435116102a2576102a090602435360301126102a2576002546001600160a01b031633036102915760018060a01b038116600052600160205260406000206109a7600a6040519261085584612799565b60018060a01b03815416845260018060a01b03600182015416602085015260018060a01b03600282015416604085015260018060a01b0360038201541660608501526001600160401b03600482015460018060a01b038116608087015260a01c1660a085015260058101546001600160401b03811660c08601526001600160401b038160401c1660e08601526001600160401b038160801c1661010086015260c01c61012085015260068101546001600160401b0381166101408601526001600160401b038160401c166101608601526001600160401b038160801c1661018086015260c01c6101a08501526001600160401b0360078201548181166101c0870152818160401c166101e087015260801c166102008501526001600160681b03600882015481811661022087015260681c166102408501526001600160681b0360098201541661026085015201612848565b61028082015260408101516001600160a01b031680151590816112f7575b506112e5576001600160a01b038281166000908152600160205260409020906109f26004602435016128a8565b82546001600160a01b03191691161781556001600160a01b03610a1860248035016128a8565b600183018054919092166001600160a01b0319909116179055600281016001600160a01b03610a4b6044602435016128a8565b82546001600160a01b0319169116179055600381016001600160a01b03610a766024356064016128a8565b82546001600160a01b0319169116179055610aeb600482016001600160a01b03610aa46024356084016128a8565b82546001600160a01b0319169116178155610ac360243560a4016128bc565b815467ffffffffffffffff60a01b191660a09190911b67ffffffffffffffff60a01b16179055565b6001600160401b03610b0160c4602435016128bc565b166001600160401b0319600583015416176005820155610b31610b2860e4602435016128bc565b600583016128d0565b610b4c610b43610104602435016128bc565b600583016128f8565b610b85610b5e610124602435016128bc565b6005830180546001600160c01b031660c09290921b6001600160c01b031916919091179055565b6001600160401b03610b9c610144602435016128bc565b166001600160401b0319600683015416176006820155610bcd610bc4610164602435016128bc565b600683016128d0565b610be8610bdf610184602435016128bc565b600683016128f8565b610c21610bfa6101a4602435016128bc565b6006830180546001600160c01b031660c09290921b6001600160c01b031916919091179055565b6001600160401b03610c386101c4602435016128bc565b166001600160401b0319600783015416176007820155610c69610c606101e4602435016128bc565b600783016128d0565b610c84610c7b610204602435016128bc565b600783016128f8565b6001600160681b03610c9b61022460243501612923565b166001600160681b0319600883015416176008820155610cf0610cc361024460243501612923565b600883018054600160681b600160d01b03191660689290921b600160681b600160d01b0316919091179055565b6001600160681b03610d0761026460243501612923565b1660098201906001600160681b0319825416179055602219602435360301610284602435013512156102a257602435610284810135016001600160401b036004820135116102a25760e0600482013502360360248201136102a257600160401b60048201351161034e57600a82018054600483013591829055908111611293575b50600a6024820192016000526020600020916000905b60048301358210611164578585610dc060405191604083526040830190612633565b8181036020830152916001600160a01b03610ddf600460243501612551565b1683526001600160a01b03610df76024803501612551565b1660208401526001600160a01b03610e13602435604401612551565b1660408401526001600160a01b03610e2f602435606401612551565b1660608401526001600160a01b03610e4b602435608401612551565b1660808401526001600160401b03610e6760a460243501612591565b1660a08401526001600160401b03610e8360c460243501612591565b1660c08401526001600160401b03610e9f60e460243501612591565b1660e08401526001600160401b03610ebc61010460243501612591565b166101008401526001600160401b03610eda61012460243501612591565b166101208401526001600160401b03610ef861014460243501612591565b166101408401526001600160401b03610f1661016460243501612591565b166101608401526001600160401b03610f3461018460243501612591565b166101808401526001600160401b03610f526101a460243501612591565b166101a08401526001600160401b03610f706101c460243501612591565b166101c08401526001600160401b03610f8e6101e460243501612591565b166101e08401526001600160401b03610fac61020460243501612591565b166102008401526001600160681b03610fca610224602435016125bb565b166102208401526001600160681b03610fe8610244602435016125bb565b166102408401526001600160681b03611006610264602435016125bb565b16610260840152602435610284602435013501926001600160401b036004850135116102a25760e0600485013502360360248501136102a257806102a06102806102c09301526102a0810160048601359052019260248101906000905b600481013582106110a0576001600160a01b0384167f11750c0169cdcebd42703782ec1a557a8ddebc9c3239aaf46662cd6c81cdb90b86880387a2005b91949091906001600160a01b036110b687612551565b1681526001600160a01b036110cd60208801612551565b166020820152604086013560ff811681036102a25760ff1660408201526001600160401b036110fe60608801612591565b1660608201526001600160401b0361111860808801612591565b1660808201526001600160401b0361113260a08801612591565b1660a082015260c08601356001600160801b0381168091036102a25760c082015260e090810195019160010190611063565b6001600160a01b03611175826128a8565b85546001600160a01b0319169116178455600184016001600160a01b0361119e602084016128a8565b1690805460408401359260ff841684036102a2576112099360ff60a01b9060a01b16916affffffffffffffffffffff60a81b16171781556111e1606084016128bc565b815467ffffffffffffffff60a81b191660a89190911b67ffffffffffffffff60a81b16179055565b60028401906001600160401b03611222608083016128bc565b166001600160401b031983541617825561124761124160a083016128bc565b836128d0565b60c0810135916001600160801b03831683036102a25760e0600192611285600495600394906001600160801b0382549181199060801b169116179055565b019501920191939050610d9e565b61129c90612937565b6112a96004830135612937565b90600a840160005260206000209182015b81830181106112ca575050610d88565b806000600392556000600182015560006002820155016112ba565b604051630735e0fd60e51b8152600490fd5b90506001600160a01b0361130f6024356044016128a8565b161480159061131f575b836109c5565b506001600160401b036101c0820151166001600160401b036113466101c4602435016128bc565b161415611319565b346102a25760203660031901126102a257611367612525565b6002546001600160a01b03808216919033839003610291576000931680916001600160601b0360a01b1617600255604051917f6fadb1c244276388aee22be93b919985a18748c021e5d48553957a48101a25608484a3f35b346102a25760603660031901126102a2576113d8612525565b6113e061253b565b6113e861257b565b6002549091906001600160a01b039081163303610291578161028c8261142f7f14bba7d3df0797b2f5143e4f2087f29fcd3ee3ec3197d38a7f77f85dc0d0ec639588612b7c565b96169485600052600160205261026481600161147b6001600160401b038261145e8d600a604060002001612b4a565b50015460a81c169a8a60005282602052600a604060002001612b4a565b5001805467ffffffffffffffff60a81b191660a89290921b67ffffffffffffffff60a81b16919091179055565b346102a25760403660031901126102a2576114c1612525565b6114c9612565565b6002549091906001600160a01b039081163303610291571660008181526001602090815260409182902060060180546001600160401b0395861667ffffffffffffffff19821681179092558351951685529084015290917fe5d8ea5f9f9bc1e3132e593561d5b440062de5e0d5585a7046c87ca172a60d46918190810161040e565b346102a25760603660031901126102a257611564612525565b61156c61253b565b604435906001600160801b0382168083036102a2576002546001600160a01b0390811633036102915782604092611622836115c87f561b42b6b7ded5005c55634f0a6bd24d306cb04b04533bab7e1a644b67245486978a612b7c565b9816968760005260016020526002611606816115ea8c600a8b60002001612b4a565b50015460801c9a8a6000526001602052600a8960002001612b4a565b5001906001600160801b0382549181199060801b169116179055565b835196875260208701521693a3005b346102a2576101003660031901126102a25761164b612525565b60e03660231901126102a2576002546001600160a01b0390811633036102915760243581811681036102a2577ff0d2e933bc5a83ab653c27f5ae312ee5f4a394a45c34bb90e8c790bf0ed38341916116a66101c09285612b7c565b9316928360005260016020526116e96103166116d26116cc84600a604060002001612b4a565b506127d6565b92866000526001602052600a604060002001612b4a565b6116f660405180926125cf565b61034b60e08201612ab3565b346102a25760403660031901126102a25761171b612525565b6117236125a5565b6002549091906001600160a01b039081163303610291571660008181526001602052604090206008018054600160681b600160d01b03198116606885811b600160681b600160d01b03169190911790925591927f2cc4a6aedb45911a1034b2320f16567fa4e2eca3f1f5d3b46804f6bc42b7c3f29290911c6001600160681b0316604080516001600160681b0392831681529290911660208301528190810161040e565b346102a25760403660031901126102a2576117e0612525565b6117e8612565565b6002549091906001600160a01b0390811633036102915716600081815260016020526040902060060180546001600160c01b03811660c085811b6001600160c01b0319169190911790925591927f864cdb8aef050e3718f73f8f3512418f04745083156b40523b128e79b411fc2d9290911c6103ef565b346102a25760403660031901126102a257611878612525565b611880612565565b6002549091906001600160a01b039081163303610291577fcd38d79accad9a0b2cec7a7f94a4ceb7d9b0df5f35bdcb6ee4212b695fad0aa19116918260005260016020526001600160401b0360076040600020015460801c166103ef8260076040600020016128f8565b346102a25760403660031901126102a2576020611916611908612525565b61191061253b565b90612b7c565b604051908152f35b346102a25760403660031901126102a257611937612525565b61193f61253b565b6002546001600160a01b03919082163303610291578160009316918284526001602052806001604086200154169060016040862001921691826001600160601b0360a01b825416179055604051927fb60cc4e8fd32e3f131099a821d4716afdb1e906f90421b5edb21070d209d0ee28585a4f35b346102a25760403660031901126102a2576119cc612525565b6119d46125a5565b6002549091906001600160a01b039081163303610291571660008181526001602090815260409182902060090180546001600160681b039586166cffffffffffffffffffffffffff19821681179092558351951685529084015290917f0fcb429b7790258a8e50ab0f30505a67d74d6571119febb9690e6264594e2e29918190810161040e565b346102a25760403660031901126102a257611a74612525565b611a7c61253b565b6002546001600160a01b03919082163303610291578160009316918284526001602052806040852054169060408520921691826001600160601b0360a01b825416179055604051927f54b27c9d187943783592d79e0380d54f9a545d098bd921e5919d4b3305bd603f8585a4f35b346102a25760603660031901126102a257611b03612525565b611b0b61253b565b611b1361257b565b6002549091906001600160a01b039081163303610291578161028c82611b5a7fbdfea73f1d581ded04f608d47cd124146963b03795e30c9f9e16d57bb1fed6529588612b7c565b961694856000526001602052600280611ba3611b7d8a600a604060002001612b4a565b506001600160401b0393849101541699896000526001602052600a604060002001612b4a565b50019082166001600160401b03198254161790556040519384931696839060209093929360408301946001600160401b03809216845216910152565b346102a25760403660031901126102a257611bf8612525565b611c00612565565b6002549091906001600160a01b039081163303610291577f7e237d05d262a573a6b2d126c2065264a3bcabb68e67a1d5a1e88b1dbef6666d9116918260005260016020526001600160401b0360066040600020015460801c166103ef8260066040600020016128f8565b346102a25760403660031901126102a257611c83612525565b611c8b61253b565b6002546001600160a01b03919082163303610291578160009316918284526003602052806040852054169060408520921691826001600160601b0360a01b825416179055604051927fcc826d20934cb90e9329d09ff55b4e43831c5bb3a3305fb536842ad49041e7d58585a4f35b346102a25760403660031901126102a257611d12612525565b611d1a612565565b6002549091906001600160a01b039081163303610291577f9fd77f9236bc26e7c30eaa679ccff4200f9a813e5950b2904c29f11d0b5f2a5e9116918260005260016020526001600160401b0360056040600020015460401c166103ef8260056040600020016128d0565b346102a25760403660031901126102a257611d9d612525565b611da5612565565b6002549091906001600160a01b0390811633036102915716600081815260016020526040902060050180546001600160c01b03811660c085811b6001600160c01b0319169190911790925591927fe4e8221220a251ab6772c13e04f6c54532602ec260a26f48ff23fa8b11f41be79290911c6103ef565b346102a25760003660031901126102a2576020600054604051908152f35b346102a25760203660031901126102a2576001600160a01b03611e5b612525565b1660008181526003602081815260408084205460018084528286208351632d52643960e01b8152600480820187905282546001600160a01b039081166024840152938301548416604483015260028301548416606483015296820154831660848201529581015480831660a488015260a01c6001600160401b0390811660c4880152600582015480821660e489015280861c8216610104890152608081811c83166101248a015260c091821c6101448a015260068401548084166101648b015280881c84166101848b015280821c84166101a48b015290911c6101c489015260078301548083166101e48a01529586901c82166102048901529490941c90931661022486015260088301546001600160681b0380821661024488015260689190911c81166102648701526009840154166102848601526102a06102a4860152600a90920180546102c4860181905290865292852093959491169285926102e48401925b81811061206d57505050918160008160209503925af180156120615760009061201c575b6020925060018060a01b031680604051927f3da528dfe78562a1f409134989443b5f21ee92023a64b90dedeb2002415189b6600085a38152f35b50906020813d602011612059575b81612037602093836127b5565b810103126102a25751906001600160a01b03821682036102a257602091611fe2565b3d915061202a565b6040513d6000823e3d90fd5b91935091600360e0600192838060a01b0387541681526001600160401b0384880154858060a01b038116602084015260ff8160a01c16604084015260a81c16606082015260028701546001600160401b03811660808301526001600160401b038160401c1660a083015260801c60c0820152019401910191869392611fbe565b346102a25760403660031901126102a257612106612525565b61210e612565565b6002549091906001600160a01b039081163303610291571660008181526001602090815260409182902060050180546001600160401b0395861667ffffffffffffffff19821681179092558351951685529084015290917fc936b3eb07b584b686d11042214266fed11036dbc226159d67b3cfaa4ce26f78918190810161040e565b346102a25760403660031901126102a2576121a9612525565b6121b1612565565b6002549091906001600160a01b039081163303610291577f56027dd4756fabe0c40c7de2c732b95d170796feaf975883a17a087b3718e6b99116918260005260016020526001600160401b0360056040600020015460801c166103ef8260056040600020016128f8565b346102a25760203660031901126102a25760206001600160a01b038061223f612525565b166000526003825260406000205416604051908152f35b346102a25760403660031901126102a25761226f612525565b61227761253b565b6002546001600160a01b03919082163303610291578160009316918284526001602052806004604086200154169060046040862001921691826001600160601b0360a01b825416179055604051927fc86eba353c79b422cdb4d71fcc7db3615603457a42c0559fcf1b31dfd66920b38585a4f35b346102a25760603660031901126102a257612304612525565b61230c61253b565b6001600160a01b0360443581811692908390036102a257816002541633036102915781817f1736faf0e37344d44b8757867808a35e1d4961804de8c3dec2896bf1c1d6fc519361235e60409488612b7c565b961694856000526001602052600161239a84826123818b600a8a60002001612b4a565b50015416988860005282602052600a8760002001612b4a565b500180546001600160a01b03191682179055835196875260208701521693a3005b346102a25760403660031901126102a2576123d4612525565b6123dc612565565b6002549091906001600160a01b039081163303610291577faf80475c4b413d347b2ac9b71b6c734ba09a6f4771aba12edc65346cffe273f59116918260005260016020526001600160401b0360076040600020015460401c166103ef8260076040600020016128d0565b346102a25760003660031901126102a2576002546040516001600160a01b039091168152602090f35b346102a25760403660031901126102a257612488612525565b612490612565565b60025490916001600160a01b03918216330361251757166000818152600160205260409020600401805467ffffffffffffffff60a01b19811660a085811b67ffffffffffffffff60a01b169190911790925591927f35ebb489f572b08259fa0a007e62d8390043159fcf4a6c9a517dd1eb4dc77dfc9290911c6001600160401b03166103ef565b6282b42960e81b8452600484fd5b600435906001600160a01b03821682036102a257565b602435906001600160a01b03821682036102a257565b35906001600160a01b03821682036102a257565b602435906001600160401b03821682036102a257565b604435906001600160401b03821682036102a257565b35906001600160401b03821682036102a257565b602435906001600160681b03821682036102a257565b35906001600160681b03821682036102a257565b6001600160801b0360c0809260018060a01b03808251168652602082015116602086015260ff60408201511660408601526001600160401b0380606083015116606087015280608083015116608087015260a08201511660a0860152015116910152565b906102a0908181019060018060a01b038085511682526102c060209282849384890151168483015280604089015116604083015280606089015116606083015260808801511660808201526001600160401b03958660a08901511660a08301528660c08901511660c083015260e09680888a0151168884015261010081818b0151169084015261012081818b0151169084015261014081818b0151169084015261016081818b0151169084015261018081818b015116908401526101a081818b015116908401526101c081818b015116908401526101e081818b0151169084015261020090818a015116908301526001600160681b0361022081818b0151169084015261024081818b0151169084015261026090818a0151169083015261028080980151978201528651809552019401926000905b83821061277757505050505090565b909192939483828261278c6001948a516125cf565b0196019493920190612768565b6102a081019081106001600160401b0382111761034e57604052565b90601f801991011681019081106001600160401b0382111761034e57604052565b9060405160e081016001600160401b038282108183111761034e5760c091604052600283958260018060a01b038083541687526001830154908116602088015260ff8160a01c16604088015260a81c16606086015201549080821660808501528160401c1660a084015260801c910152565b9081546001600160401b03811161034e5760405192602061286e818460051b01866127b5565b82855260009182528082208186015b84841061288b575050505050565b60038360019261289a856127d6565b81520192019301929061287d565b356001600160a01b03811681036102a25790565b356001600160401b03811681036102a25790565b9067ffffffffffffffff60401b82549160401b169067ffffffffffffffff60401b1916179055565b805467ffffffffffffffff60801b191660809290921b67ffffffffffffffff60801b16919091179055565b356001600160681b03811681036102a25790565b7f555555555555555555555555555555555555555555555555555555555555555581116001166129675760030290565b634e487b7160e01b600052601160045260246000fd5b90612a9d576001600160a01b0390602435828116908190036102a25781546001600160a01b0319161781556001810191604435908116908190036102a25782549060643560ff811681036102a25760ff60a01b9060a01b16916affffffffffffffffffffff60a81b1617178255608435906001600160401b039283831683036102a257805467ffffffffffffffff60a81b191660a89390931b67ffffffffffffffff60a81b16929092179091556002019060a4358181168091036102a257825467ffffffffffffffff191617825560c43590811681036102a257612a6190826128d0565b60e4356001600160801b03811681036102a25781546001600160801b031660809190911b6fffffffffffffffffffffffffffffffff1916179055565b634e487b7160e01b600052600060045260246000fd5b6001600160a01b03602435818116908190036102a25782526044359081168091036102a257602082015260643560ff81168091036102a25760408201526084356001600160401b03908181168091036102a257606083015260a4358181168091036102a257608083015260c4359081168091036102a25760a082015260e435906001600160801b0382168092036102a25760c00152565b8054821015612b66576000526003602060002091020190600090565b634e487b7160e01b600052603260045260246000fd5b9160009160018060a01b0380941683526001936020858152612ba3600a6040872001612848565b805195805b878110612bc1576040516367fa94e760e01b8152600490fd5b8251811015612bf15784848260051b85010151511685871614612be5578801612ba8565b96505050505050915090565b634e487b7160e01b82526032600452602482fdfea264697066735822122089574102611d2883e88a76ba966a2bfdb44c5b41a930a7770eb39ed5046234b064736f6c634300080f0033",
  "immutableReferences": {},
  "source": "// SPDX-License-Identifier: BUSL-1.1\npragma solidity 0.8.15;\n\nimport \"./CometFactory.sol\";\nimport \"./CometConfiguration.sol\";\nimport \"./ConfiguratorStorage.sol\";\n\ncontract Configurator is ConfiguratorStorage {\n\n    /** Custom events **/\n\n    event AddAsset(address indexed cometProxy, AssetConfig assetConfig);\n    event CometDeployed(address indexed cometProxy, address indexed newComet);\n    event GovernorTransferred(address indexed oldGovernor, address indexed newGovernor);\n    event SetFactory(address indexed cometProxy, address indexed oldFactory, address indexed newFactory);\n    event SetGovernor(address indexed cometProxy, address indexed oldGovernor, address indexed newGovernor);\n    event SetConfiguration(address indexed cometProxy, Configuration oldConfiguration, Configuration newConfiguration);\n    event SetPauseGuardian(address indexed cometProxy, address indexed oldPauseGuardian, address indexed newPauseGuardian);\n    event SetBaseTokenPriceFeed(address indexed cometProxy, address indexed oldBaseTokenPriceFeed, address indexed newBaseTokenPriceFeed);\n    event SetExtensionDelegate(address indexed cometProxy, address indexed oldExt, address indexed newExt);\n    event SetSupplyKink(address indexed cometProxy,uint64 oldKink, uint64 newKink);\n    event SetSupplyPerYearInterestRateSlopeLow(address indexed cometProxy,uint64 oldIRSlopeLow, uint64 newIRSlopeLow);\n    event SetSupplyPerYearInterestRateSlopeHigh(address indexed cometProxy,uint64 oldIRSlopeHigh, uint64 newIRSlopeHigh);\n    event SetSupplyPerYearInterestRateBase(address indexed cometProxy,uint64 oldIRBase, uint64 newIRBase);\n    event SetBorrowKink(address indexed cometProxy,uint64 oldKink, uint64 newKink);\n    event SetBorrowPerYearInterestRateSlopeLow(address indexed cometProxy,uint64 oldIRSlopeLow, uint64 newIRSlopeLow);\n    event SetBorrowPerYearInterestRateSlopeHigh(address indexed cometProxy,uint64 oldIRSlopeHigh, uint64 newIRSlopeHigh);\n    event SetBorrowPerYearInterestRateBase(address indexed cometProxy,uint64 oldIRBase, uint64 newIRBase);\n    event SetStoreFrontPriceFactor(address indexed cometProxy, uint64 oldStoreFrontPriceFactor, uint64 newStoreFrontPriceFactor);\n    event SetBaseTrackingSupplySpeed(address indexed cometProxy, uint64 oldBaseTrackingSupplySpeed, uint64 newBaseTrackingSupplySpeed);\n    event SetBaseTrackingBorrowSpeed(address indexed cometProxy, uint64 oldBaseTrackingBorrowSpeed, uint64 newBaseTrackingBorrowSpeed);\n    event SetBaseMinForRewards(address indexed cometProxy, uint104 oldBaseMinForRewards, uint104 newBaseMinForRewards);\n    event SetBaseBorrowMin(address indexed cometProxy, uint104 oldBaseBorrowMin, uint104 newBaseBorrowMin);\n    event SetTargetReserves(address indexed cometProxy, uint104 oldTargetReserves, uint104 newTargetReserves);\n    event UpdateAsset(address indexed cometProxy, AssetConfig oldAssetConfig, AssetConfig newAssetConfig);\n    event UpdateAssetPriceFeed(address indexed cometProxy, address indexed asset, address oldPriceFeed, address newPriceFeed);\n    event UpdateAssetBorrowCollateralFactor(address indexed cometProxy, address indexed asset, uint64 oldBorrowCF, uint64 newBorrowCF);\n    event UpdateAssetLiquidateCollateralFactor(address indexed cometProxy, address indexed asset, uint64 oldLiquidateCF, uint64 newLiquidateCF);\n    event UpdateAssetLiquidationFactor(address indexed cometProxy, address indexed asset, uint64 oldLiquidationFactor, uint64 newLiquidationFactor);\n    event UpdateAssetSupplyCap(address indexed cometProxy, address indexed asset, uint128 oldSupplyCap, uint128 newSupplyCap);\n\n    /** Custom errors **/\n\n    error AlreadyInitialized();\n    error AssetDoesNotExist();\n    error ConfigurationAlreadyExists();\n    error InvalidAddress();\n    error Unauthorized();\n\n    /**\n     * @notice Constructs a new Configurator instance\n     **/\n    constructor() {\n        // Set a high version to prevent the implementation contract from being initialized\n        version = type(uint256).max;\n    }\n\n    /**\n     * @notice Initializes the storage for Configurator\n     * @param governor_ The address of the governor\n     **/\n    function initialize(address governor_) public {\n        if (version != 0) revert AlreadyInitialized();\n        if (governor_ == address(0)) revert InvalidAddress();\n\n        governor = governor_;\n        version = 1;\n    }\n\n    /**\n     * @notice Sets the factory for a Comet proxy\n     * @dev Note: Only callable by governor\n     **/\n    function setFactory(address cometProxy, address newFactory) external {\n        if (msg.sender != governor) revert Unauthorized();\n\n        address oldFactory = factory[cometProxy];\n        factory[cometProxy] = newFactory;\n        emit SetFactory(cometProxy, oldFactory, newFactory);\n    }\n\n    /**\n     * @notice Sets the entire Configuration for a Comet proxy\n     * @dev Note: All params can later be updated by the governor except for `baseToken` and `trackingIndexScale`\n     **/\n    function setConfiguration(address cometProxy, Configuration calldata newConfiguration) external {\n        if (msg.sender != governor) revert Unauthorized();\n        Configuration memory oldConfiguration = configuratorParams[cometProxy];\n        if (oldConfiguration.baseToken != address(0) &&\n            (oldConfiguration.baseToken != newConfiguration.baseToken ||\n             oldConfiguration.trackingIndexScale != newConfiguration.trackingIndexScale))\n            revert ConfigurationAlreadyExists();\n\n        configuratorParams[cometProxy] = newConfiguration;\n        emit SetConfiguration(cometProxy, oldConfiguration, newConfiguration);\n    }\n\n    /** Governance setters for Comet-related configuration **/\n\n    function setGovernor(address cometProxy, address newGovernor) external {\n        if (msg.sender != governor) revert Unauthorized();\n\n        address oldGovernor = configuratorParams[cometProxy].governor;\n        configuratorParams[cometProxy].governor = newGovernor;\n        emit SetGovernor(cometProxy, oldGovernor, newGovernor);\n    }\n\n    function setPauseGuardian(address cometProxy, address newPauseGuardian) external {\n        if (msg.sender != governor) revert Unauthorized();\n\n        address oldPauseGuardian = configuratorParams[cometProxy].pauseGuardian;\n        configuratorParams[cometProxy].pauseGuardian = newPauseGuardian;\n        emit SetPauseGuardian(cometProxy, oldPauseGuardian, newPauseGuardian);\n    }\n\n    function setBaseTokenPriceFeed(address cometProxy, address newBaseTokenPriceFeed) external {\n        if (msg.sender != governor) revert Unauthorized();\n\n        address oldBaseTokenPriceFeed = configuratorParams[cometProxy].baseTokenPriceFeed;\n        configuratorParams[cometProxy].baseTokenPriceFeed = newBaseTokenPriceFeed;\n        emit SetBaseTokenPriceFeed(cometProxy, oldBaseTokenPriceFeed, newBaseTokenPriceFeed);\n    }\n\n    function setExtensionDelegate(address cometProxy, address newExtensionDelegate) external {\n        if (msg.sender != governor) revert Unauthorized();\n\n        address oldExtensionDelegate = configuratorParams[cometProxy].extensionDelegate;\n        configuratorParams[cometProxy].extensionDelegate = newExtensionDelegate;\n        emit SetExtensionDelegate(cometProxy, oldExtensionDelegate, newExtensionDelegate);\n    }\n\n    function setSupplyKink(address cometProxy, uint64 newSupplyKink) external {\n        if (msg.sender != governor) revert Unauthorized();\n\n        uint64 oldSupplyKink = configuratorParams[cometProxy].supplyKink;\n        configuratorParams[cometProxy].supplyKink = newSupplyKink;\n        emit SetSupplyKink(cometProxy, oldSupplyKink, newSupplyKink);\n    }\n\n    function setSupplyPerYearInterestRateSlopeLow(address cometProxy, uint64 newSlope) external {\n        if (msg.sender != governor) revert Unauthorized();\n\n        uint64 oldSlope = configuratorParams[cometProxy].supplyPerYearInterestRateSlopeLow;\n        configuratorParams[cometProxy].supplyPerYearInterestRateSlopeLow = newSlope;\n        emit SetSupplyPerYearInterestRateSlopeLow(cometProxy, oldSlope, newSlope);\n    }\n\n    function setSupplyPerYearInterestRateSlopeHigh(address cometProxy, uint64 newSlope) external {\n        if (msg.sender != governor) revert Unauthorized();\n\n        uint64 oldSlope = configuratorParams[cometProxy].supplyPerYearInterestRateSlopeHigh;\n        configuratorParams[cometProxy].supplyPerYearInterestRateSlopeHigh = newSlope;\n        emit SetSupplyPerYearInterestRateSlopeHigh(cometProxy, oldSlope, newSlope);\n    }\n\n    function setSupplyPerYearInterestRateBase(address cometProxy, uint64 newBase) external {\n        if (msg.sender != governor) revert Unauthorized();\n\n        uint64 oldBase = configuratorParams[cometProxy].supplyPerYearInterestRateBase;\n        configuratorParams[cometProxy].supplyPerYearInterestRateBase = newBase;\n        emit SetSupplyPerYearInterestRateBase(cometProxy, oldBase, newBase);\n    }\n\n    function setBorrowKink(address cometProxy, uint64 newBorrowKink) external {\n        if (msg.sender != governor) revert Unauthorized();\n\n        uint64 oldBorrowKink = configuratorParams[cometProxy].borrowKink;\n        configuratorParams[cometProxy].borrowKink = newBorrowKink;\n        emit SetBorrowKink(cometProxy, oldBorrowKink, newBorrowKink);\n    }\n\n    function setBorrowPerYearInterestRateSlopeLow(address cometProxy, uint64 newSlope) external {\n        if (msg.sender != governor) revert Unauthorized();\n\n        uint64 oldSlope = configuratorParams[cometProxy].borrowPerYearInterestRateSlopeLow;\n        configuratorParams[cometProxy].borrowPerYearInterestRateSlopeLow = newSlope;\n        emit SetBorrowPerYearInterestRateSlopeLow(cometProxy, oldSlope, newSlope);\n    }\n\n    function setBorrowPerYearInterestRateSlopeHigh(address cometProxy, uint64 newSlope) external {\n        if (msg.sender != governor) revert Unauthorized();\n\n        uint64 oldSlope = configuratorParams[cometProxy].borrowPerYearInterestRateSlopeHigh;\n        configuratorParams[cometProxy].borrowPerYearInterestRateSlopeHigh = newSlope;\n        emit SetBorrowPerYearInterestRateSlopeHigh(cometProxy, oldSlope, newSlope);\n    }\n\n    function setBorrowPerYearInterestRateBase(address cometProxy, uint64 newBase) external {\n        if (msg.sender != governor) revert Unauthorized();\n\n        uint64 oldBase = configuratorParams[cometProxy].borrowPerYearInterestRateBase;\n        configuratorParams[cometProxy].borrowPerYearInterestRateBase = newBase;\n        emit SetBorrowPerYearInterestRateBase(cometProxy, oldBase, newBase);\n    }\n\n    function setStoreFrontPriceFactor(address cometProxy, uint64 newStoreFrontPriceFactor) external {\n        if (msg.sender != governor) revert Unauthorized();\n\n        uint64 oldStoreFrontPriceFactor = configuratorParams[cometProxy].storeFrontPriceFactor;\n        configuratorParams[cometProxy].storeFrontPriceFactor = newStoreFrontPriceFactor;\n        emit SetStoreFrontPriceFactor(cometProxy, oldStoreFrontPriceFactor, newStoreFrontPriceFactor);\n    }\n\n    function setBaseTrackingSupplySpeed(address cometProxy, uint64 newBaseTrackingSupplySpeed) external {\n        if (msg.sender != governor) revert Unauthorized();\n\n        uint64 oldBaseTrackingSupplySpeed = configuratorParams[cometProxy].baseTrackingSupplySpeed;\n        configuratorParams[cometProxy].baseTrackingSupplySpeed = newBaseTrackingSupplySpeed;\n        emit SetBaseTrackingSupplySpeed(cometProxy, oldBaseTrackingSupplySpeed, newBaseTrackingSupplySpeed);\n    }\n\n    function setBaseTrackingBorrowSpeed(address cometProxy, uint64 newBaseTrackingBorrowSpeed) external {\n        if (msg.sender != governor) revert Unauthorized();\n\n        uint64 oldBaseTrackingBorrowSpeed = configuratorParams[cometProxy].baseTrackingBorrowSpeed;\n        configuratorParams[cometProxy].baseTrackingBorrowSpeed = newBaseTrackingBorrowSpeed;\n        emit SetBaseTrackingBorrowSpeed(cometProxy, oldBaseTrackingBorrowSpeed, newBaseTrackingBorrowSpeed);\n    }\n\n    function setBaseMinForRewards(address cometProxy, uint104 newBaseMinForRewards) external {\n        if (msg.sender != governor) revert Unauthorized();\n\n        uint104 oldBaseMinForRewards = configuratorParams[cometProxy].baseMinForRewards;\n        configuratorParams[cometProxy].baseMinForRewards = newBaseMinForRewards;\n        emit SetBaseMinForRewards(cometProxy, oldBaseMinForRewards, newBaseMinForRewards);\n    }\n\n    function setBaseBorrowMin(address cometProxy, uint104 newBaseBorrowMin) external {\n        if (msg.sender != governor) revert Unauthorized();\n\n        uint104 oldBaseBorrowMin = configuratorParams[cometProxy].baseBorrowMin;\n        configuratorParams[cometProxy].baseBorrowMin = newBaseBorrowMin;\n        emit SetBaseBorrowMin(cometProxy, oldBaseBorrowMin, newBaseBorrowMin);\n    }\n\n    function setTargetReserves(address cometProxy, uint104 newTargetReserves) external {\n        if (msg.sender != governor) revert Unauthorized();\n\n        uint104 oldTargetReserves = configuratorParams[cometProxy].targetReserves;\n        configuratorParams[cometProxy].targetReserves = newTargetReserves;\n        emit SetTargetReserves(cometProxy, oldTargetReserves, newTargetReserves);\n    }\n\n    function addAsset(address cometProxy, AssetConfig calldata assetConfig) external {\n        if (msg.sender != governor) revert Unauthorized();\n\n        configuratorParams[cometProxy].assetConfigs.push(assetConfig);\n        emit AddAsset(cometProxy, assetConfig);\n    }\n\n    function updateAsset(address cometProxy, AssetConfig calldata newAssetConfig) external {\n        if (msg.sender != governor) revert Unauthorized();\n\n        uint assetIndex = getAssetIndex(cometProxy, newAssetConfig.asset);\n        AssetConfig memory oldAssetConfig = configuratorParams[cometProxy].assetConfigs[assetIndex];\n        configuratorParams[cometProxy].assetConfigs[assetIndex] = newAssetConfig;\n        emit UpdateAsset(cometProxy, oldAssetConfig, newAssetConfig);\n    }\n\n    function updateAssetPriceFeed(address cometProxy, address asset, address newPriceFeed) external {\n        if (msg.sender != governor) revert Unauthorized();\n\n        uint assetIndex = getAssetIndex(cometProxy, asset);\n        address oldPriceFeed = configuratorParams[cometProxy].assetConfigs[assetIndex].priceFeed;\n        configuratorParams[cometProxy].assetConfigs[assetIndex].priceFeed = newPriceFeed;\n        emit UpdateAssetPriceFeed(cometProxy, asset, oldPriceFeed, newPriceFeed);\n    }\n\n    function updateAssetBorrowCollateralFactor(address cometProxy, address asset, uint64 newBorrowCF) external {\n        if (msg.sender != governor) revert Unauthorized();\n\n        uint assetIndex = getAssetIndex(cometProxy, asset);\n        uint64 oldBorrowCF = configuratorParams[cometProxy].assetConfigs[assetIndex].borrowCollateralFactor;\n        configuratorParams[cometProxy].assetConfigs[assetIndex].borrowCollateralFactor = newBorrowCF;\n        emit UpdateAssetBorrowCollateralFactor(cometProxy, asset, oldBorrowCF, newBorrowCF);\n    }\n\n    function updateAssetLiquidateCollateralFactor(address cometProxy, address asset, uint64 newLiquidateCF) external {\n        if (msg.sender != governor) revert Unauthorized();\n\n        uint assetIndex = getAssetIndex(cometProxy, asset);\n        uint64 oldLiquidateCF = configuratorParams[cometProxy].assetConfigs[assetIndex].liquidateCollateralFactor;\n        configuratorParams[cometProxy].assetConfigs[assetIndex].liquidateCollateralFactor = newLiquidateCF;\n        emit UpdateAssetLiquidateCollateralFactor(cometProxy, asset, oldLiquidateCF, newLiquidateCF);\n    }\n\n    function updateAssetLiquidationFactor(address cometProxy, address asset, uint64 newLiquidationFactor) external {\n        if (msg.sender != governor) revert Unauthorized();\n\n        uint assetIndex = getAssetIndex(cometProxy, asset);\n        uint64 oldLiquidationFactor = configuratorParams[cometProxy].assetConfigs[assetIndex].liquidationFactor;\n        configuratorParams[cometProxy].assetConfigs[assetIndex].liquidationFactor = newLiquidationFactor;\n        emit UpdateAssetLiquidationFactor(cometProxy, asset, oldLiquidationFactor, newLiquidationFactor);\n    }\n\n    function updateAssetSupplyCap(address cometProxy, address asset, uint128 newSupplyCap) external {\n        if (msg.sender != governor) revert Unauthorized();\n\n        uint assetIndex = getAssetIndex(cometProxy, asset);\n        uint128 oldSupplyCap = configuratorParams[cometProxy].assetConfigs[assetIndex].supplyCap;\n        configuratorParams[cometProxy].assetConfigs[assetIndex].supplyCap = newSupplyCap;\n        emit UpdateAssetSupplyCap(cometProxy, asset, oldSupplyCap, newSupplyCap);\n    }\n\n    /** Other helpers **/\n\n    /**\n     * @dev Determine index of asset that matches given address\n     */\n    function getAssetIndex(address cometProxy, address asset) public view returns (uint) {\n        AssetConfig[] memory assetConfigs = configuratorParams[cometProxy].assetConfigs;\n        uint numAssets = assetConfigs.length;\n        for (uint i = 0; i < numAssets; ) {\n            if (assetConfigs[i].asset == asset) {\n                return i;\n            }\n            unchecked { i++; }\n        }\n        revert AssetDoesNotExist();\n    }\n\n    /**\n     * @return The currently configured params for a Comet proxy\n     **/\n    function getConfiguration(address cometProxy) external view returns (Configuration memory) {\n        return configuratorParams[cometProxy];\n    }\n\n    /**\n     * @notice Deploy a new Comet implementation using the factory and Configuration for that Comet proxy\n     * @dev Note: Callable by anyone\n     */\n    function deploy(address cometProxy) external returns (address) {\n        address newComet = CometFactory(factory[cometProxy]).clone(configuratorParams[cometProxy]);\n        emit CometDeployed(cometProxy, newComet);\n        return newComet;\n    }\n\n    /**\n     * @notice Transfers the governor rights to a new address\n     */\n    function transferGovernor(address newGovernor) external {\n        if (msg.sender != governor) revert Unauthorized();\n        address oldGovernor = governor;\n        governor = newGovernor;\n        emit GovernorTransferred(oldGovernor, newGovernor);\n    }\n}\n",
  "sourcePath": "/home/stephensb/sb-labs/solidity-contracts/contracts/comet/contracts/Configurator.sol",
  "compiler": {
    "name": "solc",
    "version": "0.8.15+commit.e14f2714.Emscripten.clang"
  },
  "schemaVersion": "3.4.12",
  "updatedAt": "2023-11-30T22:41:29.670Z",
  "devdoc": {
    "kind": "dev",
    "methods": {
      "deploy(address)": {
        "details": "Note: Callable by anyone"
      },
      "getAssetIndex(address,address)": {
        "details": "Determine index of asset that matches given address"
      },
      "getConfiguration(address)": {
        "returns": {
          "_0": "The currently configured params for a Comet proxy*"
        }
      },
      "initialize(address)": {
        "params": {
          "governor_": "The address of the governor*"
        }
      },
      "setConfiguration(address,(address,address,address,address,address,uint64,uint64,uint64,uint64,uint64,uint64,uint64,uint64,uint64,uint64,uint64,uint64,uint104,uint104,uint104,(address,address,uint8,uint64,uint64,uint64,uint128)[]))": {
        "details": "Note: All params can later be updated by the governor except for `baseToken` and `trackingIndexScale`*"
      },
      "setFactory(address,address)": {
        "details": "Note: Only callable by governor*"
      }
    },
    "version": 1
  },
  "userdoc": {
    "errors": {
      "AlreadyInitialized()": [
        {
          "notice": "Custom errors *"
        }
      ]
    },
    "events": {
      "AddAsset(address,(address,address,uint8,uint64,uint64,uint64,uint128))": {
        "notice": "Custom events *"
      }
    },
    "kind": "user",
    "methods": {
      "constructor": {
        "notice": "Constructs a new Configurator instance*"
      },
      "deploy(address)": {
        "notice": "Deploy a new Comet implementation using the factory and Configuration for that Comet proxy"
      },
      "factory(address)": {
        "notice": "Mapping of Comet proxy addresses to their Comet factory contracts"
      },
      "governor()": {
        "notice": "The governor of the protocol"
      },
      "initialize(address)": {
        "notice": "Initializes the storage for Configurator"
      },
      "setConfiguration(address,(address,address,address,address,address,uint64,uint64,uint64,uint64,uint64,uint64,uint64,uint64,uint64,uint64,uint64,uint64,uint104,uint104,uint104,(address,address,uint8,uint64,uint64,uint64,uint128)[]))": {
        "notice": "Sets the entire Configuration for a Comet proxy"
      },
      "setFactory(address,address)": {
        "notice": "Sets the factory for a Comet proxy"
      },
      "setGovernor(address,address)": {
        "notice": "Governance setters for Comet-related configuration *"
      },
      "transferGovernor(address)": {
        "notice": "Transfers the governor rights to a new address"
      },
      "version()": {
        "notice": "The current version of Configurator. This version should be checked in the initializer function."
      }
    },
    "version": 1
  }
}