{
  "contractName": "ConstantPriceFeed",
  "abi": [
    {
      "inputs": [
        {
          "internalType": "uint8",
          "name": "decimals_",
          "type": "uint8"
        },
        {
          "internalType": "int256",
          "name": "constantPrice_",
          "type": "int256"
        }
      ],
      "stateMutability": "nonpayable",
      "type": "constructor"
    },
    {
      "inputs": [],
      "name": "constantPrice",
      "outputs": [
        {
          "internalType": "int256",
          "name": "",
          "type": "int256"
        }
      ],
      "stateMutability": "view",
      "type": "function"
    },
    {
      "inputs": [],
      "name": "decimals",
      "outputs": [
        {
          "internalType": "uint8",
          "name": "",
          "type": "uint8"
        }
      ],
      "stateMutability": "view",
      "type": "function"
    },
    {
      "inputs": [],
      "name": "description",
      "outputs": [
        {
          "internalType": "string",
          "name": "",
          "type": "string"
        }
      ],
      "stateMutability": "view",
      "type": "function"
    },
    {
      "inputs": [],
      "name": "version",
      "outputs": [
        {
          "internalType": "uint256",
          "name": "",
          "type": "uint256"
        }
      ],
      "stateMutability": "view",
      "type": "function"
    },
    {
      "inputs": [],
      "name": "latestRoundData",
      "outputs": [
        {
          "internalType": "uint80",
          "name": "roundId",
          "type": "uint80"
        },
        {
          "internalType": "int256",
          "name": "answer",
          "type": "int256"
        },
        {
          "internalType": "uint256",
          "name": "startedAt",
          "type": "uint256"
        },
        {
          "internalType": "uint256",
          "name": "updatedAt",
          "type": "uint256"
        },
        {
          "internalType": "uint80",
          "name": "answeredInRound",
          "type": "uint80"
        }
      ],
      "stateMutability": "view",
      "type": "function"
    }
  ],
  "bytecode": "0x60c03461007b57601f6102cb38819003918201601f19168301916001600160401b0383118484101761008057808492604094855283398101031261007b5780519060ff8216820361007b57602001519060805260a05260405161023490816100978239608051816101da015260a0518181816075015260c80152f35b600080fd5b634e487b7160e01b600052604160045260246000fdfe60806040818152600436101561001457600080fd5b600091823560e01c908163313ce567146101c15750806354fd4d50146101a65780637284e416146100eb578063eea72e28146100b15763feaf968c1461005957600080fd5b346100ad57816003193601126100ad578060a0915190600182527f00000000000000000000000000000000000000000000000000000000000000006020830152429082015242606082015260016080820152f35b5080fd5b50346100ad57816003193601126100ad57602090517f00000000000000000000000000000000000000000000000000000000000000008152f35b50346100ad57816003193601126100ad5780519181830183811067ffffffffffffffff821117610192578293919352601381526020907210dbdb9cdd185b9d081c1c9a58d94819995959606a1b828201528251938285938452825192838286015282915b84831061017a575050821061016e575b50601f01601f19168101030190f35b8382840101523861015f565b8183018101518884018801528795509182019161014f565b634e487b7160e01b82526041600452602482fd5b50346100ad57816003193601126100ad576020905160018152f35b8390346100ad57816003193601126100ad5760209060ff7f0000000000000000000000000000000000000000000000000000000000000000168152f3fea26469706673582212209755afbf347ddcd627cb4dd2be6aedeefb094c4e30708a891103b864671a3e1464736f6c634300080f0033",
  "immutableReferences": {
    "14167": [
      {
        "length": 32,
        "start": 474
      }
    ],
    "14170": [
      {
        "length": 32,
        "start": 117
      },
      {
        "length": 32,
        "start": 200
      }
    ]
  },
  "source": "// SPDX-License-Identifier: BUSL-1.1\npragma solidity 0.8.15;\n\nimport \"../IPriceFeed.sol\";\n\n/**\n * @title Constant price feed\n * @notice A custom price feed that always returns a constant price\n * @author Compound\n */\ncontract ConstantPriceFeed is IPriceFeed {\n    /// @notice Version of the price feed\n    uint public constant override version = 1;\n\n    /// @notice Description of the price feed\n    string public constant description = \"Constant price feed\";\n\n    /// @notice Number of decimals for returned prices\n    uint8 public immutable override decimals;\n\n    /// @notice The constant price\n    int public immutable constantPrice;\n\n    /**\n     * @notice Construct a new scaling price feed\n     * @param decimals_ The number of decimals for the returned prices\n     **/\n    constructor(uint8 decimals_, int256 constantPrice_) {\n        decimals = decimals_;\n        constantPrice = constantPrice_;\n    }\n\n    /**\n     * @notice Price for the latest round\n     * @return roundId Round id from the underlying price feed\n     * @return answer Latest price for the asset (will always be a constant price)\n     * @return startedAt Timestamp when the round was started; passed on from underlying price feed\n     * @return updatedAt Timestamp when the round was last updated; passed on from underlying price feed\n     * @return answeredInRound Round id in which the answer was computed; passed on from underlying price feed\n     **/\n    function latestRoundData() external view returns (\n        uint80 roundId,\n        int256 answer,\n        uint256 startedAt,\n        uint256 updatedAt,\n        uint80 answeredInRound\n    ) {\n        return (1, constantPrice, block.timestamp, block.timestamp, 1);\n    }\n}",
  "sourcePath": "/home/stephensb/sb-labs/solidity-contracts/contracts/comet/contracts/pricefeeds/ConstantPriceFeed.sol",
  "compiler": {
    "name": "solc",
    "version": "0.8.15+commit.e14f2714.Emscripten.clang"
  },
  "schemaVersion": "3.4.12",
  "updatedAt": "2023-11-30T22:41:29.712Z",
  "devdoc": {
    "author": "Compound",
    "kind": "dev",
    "methods": {
      "constructor": {
        "params": {
          "decimals_": "The number of decimals for the returned prices*"
        }
      },
      "latestRoundData()": {
        "returns": {
          "answer": "Latest price for the asset (will always be a constant price)",
          "answeredInRound": "Round id in which the answer was computed; passed on from underlying price feed*",
          "roundId": "Round id from the underlying price feed",
          "startedAt": "Timestamp when the round was started; passed on from underlying price feed",
          "updatedAt": "Timestamp when the round was last updated; passed on from underlying price feed"
        }
      }
    },
    "title": "Constant price feed",
    "version": 1
  },
  "userdoc": {
    "kind": "user",
    "methods": {
      "constantPrice()": {
        "notice": "The constant price"
      },
      "constructor": {
        "notice": "Construct a new scaling price feed"
      },
      "decimals()": {
        "notice": "Number of decimals for returned prices"
      },
      "description()": {
        "notice": "Description of the price feed"
      },
      "latestRoundData()": {
        "notice": "Price for the latest round"
      },
      "version()": {
        "notice": "Version of the price feed"
      }
    },
    "notice": "A custom price feed that always returns a constant price",
    "version": 1
  }
}