{
  "contractName": "CryptoRicks",
  "abi": [
    {
      "inputs": [
        {
          "internalType": "uint256",
          "name": "_maxSupply",
          "type": "uint256"
        },
        {
          "internalType": "uint256",
          "name": "_mintValue",
          "type": "uint256"
        },
        {
          "internalType": "uint256[2]",
          "name": "_publicKeyPoint",
          "type": "uint256[2]"
        },
        {
          "internalType": "address",
          "name": "_helper",
          "type": "address"
        }
      ],
      "stateMutability": "nonpayable",
      "type": "constructor"
    },
    {
      "anonymous": false,
      "inputs": [
        {
          "indexed": true,
          "internalType": "address",
          "name": "owner",
          "type": "address"
        },
        {
          "indexed": true,
          "internalType": "address",
          "name": "approved",
          "type": "address"
        },
        {
          "indexed": true,
          "internalType": "uint256",
          "name": "tokenId",
          "type": "uint256"
        }
      ],
      "name": "Approval",
      "type": "event"
    },
    {
      "anonymous": false,
      "inputs": [
        {
          "indexed": true,
          "internalType": "address",
          "name": "owner",
          "type": "address"
        },
        {
          "indexed": true,
          "internalType": "address",
          "name": "operator",
          "type": "address"
        },
        {
          "indexed": false,
          "internalType": "bool",
          "name": "approved",
          "type": "bool"
        }
      ],
      "name": "ApprovalForAll",
      "type": "event"
    },
    {
      "anonymous": false,
      "inputs": [
        {
          "indexed": true,
          "internalType": "address",
          "name": "from",
          "type": "address"
        },
        {
          "indexed": true,
          "internalType": "address",
          "name": "to",
          "type": "address"
        },
        {
          "indexed": true,
          "internalType": "uint256",
          "name": "tokenId",
          "type": "uint256"
        }
      ],
      "name": "Transfer",
      "type": "event"
    },
    {
      "inputs": [],
      "name": "BaseURI",
      "outputs": [
        {
          "internalType": "string",
          "name": "",
          "type": "string"
        }
      ],
      "stateMutability": "view",
      "type": "function"
    },
    {
      "inputs": [],
      "name": "Distributor",
      "outputs": [
        {
          "internalType": "address",
          "name": "",
          "type": "address"
        }
      ],
      "stateMutability": "view",
      "type": "function"
    },
    {
      "inputs": [],
      "name": "MaxSupply",
      "outputs": [
        {
          "internalType": "uint256",
          "name": "",
          "type": "uint256"
        }
      ],
      "stateMutability": "view",
      "type": "function"
    },
    {
      "inputs": [],
      "name": "MintValue",
      "outputs": [
        {
          "internalType": "uint256",
          "name": "",
          "type": "uint256"
        }
      ],
      "stateMutability": "view",
      "type": "function"
    },
    {
      "inputs": [],
      "name": "PublicKeyPointX",
      "outputs": [
        {
          "internalType": "uint256",
          "name": "",
          "type": "uint256"
        }
      ],
      "stateMutability": "view",
      "type": "function"
    },
    {
      "inputs": [],
      "name": "PublicKeyPointY",
      "outputs": [
        {
          "internalType": "uint256",
          "name": "",
          "type": "uint256"
        }
      ],
      "stateMutability": "view",
      "type": "function"
    },
    {
      "inputs": [],
      "name": "Root",
      "outputs": [
        {
          "internalType": "bytes32",
          "name": "",
          "type": "bytes32"
        }
      ],
      "stateMutability": "view",
      "type": "function"
    },
    {
      "inputs": [],
      "name": "TokenIds",
      "outputs": [
        {
          "internalType": "uint256",
          "name": "_value",
          "type": "uint256"
        }
      ],
      "stateMutability": "view",
      "type": "function"
    },
    {
      "inputs": [
        {
          "internalType": "address",
          "name": "to",
          "type": "address"
        },
        {
          "internalType": "uint256",
          "name": "tokenId",
          "type": "uint256"
        }
      ],
      "name": "approve",
      "outputs": [],
      "stateMutability": "nonpayable",
      "type": "function"
    },
    {
      "inputs": [
        {
          "internalType": "address",
          "name": "owner",
          "type": "address"
        }
      ],
      "name": "balanceOf",
      "outputs": [
        {
          "internalType": "uint256",
          "name": "",
          "type": "uint256"
        }
      ],
      "stateMutability": "view",
      "type": "function"
    },
    {
      "inputs": [
        {
          "internalType": "uint256",
          "name": "tokenId",
          "type": "uint256"
        }
      ],
      "name": "getApproved",
      "outputs": [
        {
          "internalType": "address",
          "name": "",
          "type": "address"
        }
      ],
      "stateMutability": "view",
      "type": "function"
    },
    {
      "inputs": [
        {
          "internalType": "address",
          "name": "owner",
          "type": "address"
        },
        {
          "internalType": "address",
          "name": "operator",
          "type": "address"
        }
      ],
      "name": "isApprovedForAll",
      "outputs": [
        {
          "internalType": "bool",
          "name": "",
          "type": "bool"
        }
      ],
      "stateMutability": "view",
      "type": "function"
    },
    {
      "inputs": [],
      "name": "name",
      "outputs": [
        {
          "internalType": "string",
          "name": "",
          "type": "string"
        }
      ],
      "stateMutability": "view",
      "type": "function"
    },
    {
      "inputs": [
        {
          "internalType": "uint256",
          "name": "tokenId",
          "type": "uint256"
        }
      ],
      "name": "ownerOf",
      "outputs": [
        {
          "internalType": "address",
          "name": "",
          "type": "address"
        }
      ],
      "stateMutability": "view",
      "type": "function"
    },
    {
      "inputs": [
        {
          "internalType": "address",
          "name": "from",
          "type": "address"
        },
        {
          "internalType": "address",
          "name": "to",
          "type": "address"
        },
        {
          "internalType": "uint256",
          "name": "tokenId",
          "type": "uint256"
        }
      ],
      "name": "safeTransferFrom",
      "outputs": [],
      "stateMutability": "nonpayable",
      "type": "function"
    },
    {
      "inputs": [
        {
          "internalType": "address",
          "name": "from",
          "type": "address"
        },
        {
          "internalType": "address",
          "name": "to",
          "type": "address"
        },
        {
          "internalType": "uint256",
          "name": "tokenId",
          "type": "uint256"
        },
        {
          "internalType": "bytes",
          "name": "data",
          "type": "bytes"
        }
      ],
      "name": "safeTransferFrom",
      "outputs": [],
      "stateMutability": "nonpayable",
      "type": "function"
    },
    {
      "inputs": [
        {
          "internalType": "address",
          "name": "operator",
          "type": "address"
        },
        {
          "internalType": "bool",
          "name": "approved",
          "type": "bool"
        }
      ],
      "name": "setApprovalForAll",
      "outputs": [],
      "stateMutability": "nonpayable",
      "type": "function"
    },
    {
      "inputs": [
        {
          "internalType": "bytes4",
          "name": "interfaceId",
          "type": "bytes4"
        }
      ],
      "name": "supportsInterface",
      "outputs": [
        {
          "internalType": "bool",
          "name": "",
          "type": "bool"
        }
      ],
      "stateMutability": "view",
      "type": "function"
    },
    {
      "inputs": [],
      "name": "symbol",
      "outputs": [
        {
          "internalType": "string",
          "name": "",
          "type": "string"
        }
      ],
      "stateMutability": "view",
      "type": "function"
    },
    {
      "inputs": [
        {
          "internalType": "uint256",
          "name": "index",
          "type": "uint256"
        }
      ],
      "name": "tokenByIndex",
      "outputs": [
        {
          "internalType": "uint256",
          "name": "",
          "type": "uint256"
        }
      ],
      "stateMutability": "view",
      "type": "function"
    },
    {
      "inputs": [
        {
          "internalType": "address",
          "name": "owner",
          "type": "address"
        },
        {
          "internalType": "uint256",
          "name": "index",
          "type": "uint256"
        }
      ],
      "name": "tokenOfOwnerByIndex",
      "outputs": [
        {
          "internalType": "uint256",
          "name": "",
          "type": "uint256"
        }
      ],
      "stateMutability": "view",
      "type": "function"
    },
    {
      "inputs": [],
      "name": "totalSupply",
      "outputs": [
        {
          "internalType": "uint256",
          "name": "",
          "type": "uint256"
        }
      ],
      "stateMutability": "view",
      "type": "function"
    },
    {
      "inputs": [
        {
          "internalType": "address",
          "name": "from",
          "type": "address"
        },
        {
          "internalType": "address",
          "name": "to",
          "type": "address"
        },
        {
          "internalType": "uint256",
          "name": "tokenId",
          "type": "uint256"
        }
      ],
      "name": "transferFrom",
      "outputs": [],
      "stateMutability": "nonpayable",
      "type": "function"
    },
    {
      "inputs": [
        {
          "internalType": "string",
          "name": "_uri",
          "type": "string"
        },
        {
          "internalType": "bytes32",
          "name": "_root",
          "type": "bytes32"
        }
      ],
      "name": "setProofVariables",
      "outputs": [],
      "stateMutability": "nonpayable",
      "type": "function"
    },
    {
      "inputs": [
        {
          "internalType": "uint256",
          "name": "_tokenId",
          "type": "uint256"
        }
      ],
      "name": "tokenURI",
      "outputs": [
        {
          "internalType": "string",
          "name": "",
          "type": "string"
        }
      ],
      "stateMutability": "view",
      "type": "function"
    },
    {
      "inputs": [
        {
          "internalType": "address",
          "name": "_receiver",
          "type": "address"
        }
      ],
      "name": "mint",
      "outputs": [],
      "stateMutability": "payable",
      "type": "function"
    },
    {
      "inputs": [],
      "name": "claim",
      "outputs": [],
      "stateMutability": "nonpayable",
      "type": "function"
    },
    {
      "inputs": [
        {
          "internalType": "bytes32[]",
          "name": "_merkleProof",
          "type": "bytes32[]"
        },
        {
          "internalType": "string",
          "name": "_CID",
          "type": "string"
        },
        {
          "internalType": "bytes",
          "name": "_vrfMessage",
          "type": "bytes"
        },
        {
          "internalType": "bytes",
          "name": "_vrfProof",
          "type": "bytes"
        }
      ],
      "name": "verify",
      "outputs": [
        {
          "internalType": "bool",
          "name": "_verified",
          "type": "bool"
        }
      ],
      "stateMutability": "view",
      "type": "function"
    }
  ],
  "bytecode": "0x60e06040818152346200069557620028458038038091620000218286620006b6565b8439820160a0838203126200069557825190602091828501519082605f87011215620006955784516001600160401b0396909390848701888111868210176200066e578752849060808101928311620006955787879101915b83831062000684575050506200009090620006da565b928551936200009f856200069a565b600b85526a43727970746f5269636b7360a81b86860152865197620000c4896200069a565b600289526121a960f11b878a0152855198818a116200066e576000998a54976001988981811c9116801562000663575b8b8210146200064f579081601f849311620005f7575b508a90601f831160011462000592578d9262000586575b5050600019600383901b1c191690881b178a555b8051918211620005725786548781811c9116801562000567575b8982101462000553579081601f849311620004fe575b508890601f83116001146200049a578b926200048e575b5050600019600383901b1c191690861b1785555b600e8054336080526001600160a81b031916600892831b610100600160a81b03161790819055825187840180518a516301d28e2d60e11b81526004810193909352602483015293926001600160a01b0392899183916044918391901c86165afa90811562000484578a9162000443575b50163303620003e5575160a0525160c052600a55600b553315620003a357600080526002602052600080516020620028258339815191525462000250906001600160a01b031615155b15620006ef565b600854848052600983528084862055680100000000000000008110156200038f57818101806008558110156200037b576008855282852001849055338452600382528284205460068352838520818652835283852085905584805260078352838520556000805260026020819052600080516020620028258339815191525490929190620002e9906001600160a01b0316151562000249565b33855260038252838520908154019055838052528082203360018060a01b0319825416179055519033817fddf252ad1be2c89b69c2b068fc378daa952ba7f163c4a11628f55a4df523b3ef8185a46120e890816200073d8239608051818181610c19015281816112290152611410015260a0518181816107710152610a28015260c051818181610794015261115b0152f35b634e487b7160e01b85526032600452602485fd5b634e487b7160e01b85526041600452602485fd5b50606491519062461bcd60e51b825280600483015260248201527f4552433732313a206d696e7420746f20746865207a65726f20616464726573736044820152fd5b865162461bcd60e51b815260048101879052603160248201527f496e76616c6964205075626c6963204b657920506f696e7420666f72204469736044820152703a3934b13aba37b91020b2323932b9b99760791b6064820152608490fd5b90508781813d83116200047c575b6200045d8183620006b6565b8101031262000478576200047190620006da565b3862000200565b8980fd5b503d62000451565b89513d8c823e3d90fd5b0151905038806200017c565b888c52898c208994509190601f1984168d5b8c828210620004e75750508411620004cd575b505050811b01855562000190565b015160001960f88460031b161c19169055388080620004bf565b8385015186558c97909501949384019301620004ac565b909150878b52888b20601f840160051c8101918a851062000548575b84939291601f8b920160051c01915b8281106200053957505062000165565b8d81558594508a910162000529565b90915081906200051a565b634e487b7160e01b8b52602260045260248bfd5b90607f16906200014f565b634e487b7160e01b8a52604160045260248afd5b01519050388062000121565b8d80528b8e208b94509190601f1984168f8e5b828210620005df5750508411620005c5575b505050811b018a5562000135565b015160001960f88460031b161c19169055388080620005b7565b8385015186558e979095019493840193018e620005a5565b9091508c80528a8d20601f840160051c8101918c851062000644575b8e85949392601f8e930160051c0192905b83821062000635575050506200010a565b81558594508c91018f62000624565b909150819062000613565b634e487b7160e01b8d52602260045260248dfd5b90607f1690620000f4565b634e487b7160e01b600052604160045260246000fd5b82518152918101918791016200007a565b600080fd5b604081019081106001600160401b038211176200066e57604052565b601f909101601f19168101906001600160401b038211908210176200066e57604052565b51906001600160a01b03821682036200069557565b15620006f757565b60405162461bcd60e51b815260206004820152601c60248201527f4552433732313a20746f6b656e20616c7265616479206d696e746564000000006044820152606490fdfe608060408181526004918236101561001657600080fd5b600092833560e01c91826301ffc9a7146116b45750816302ccb2101461169557816306fdde03146115ed578163081812fc146115cd578163095ea7b31461145e57816318160ddd1461143f5781632039d890146113fb57816323b872dd146113d55781632c640067146113b65781632f745c591461130a57816342842e0e146112ad5781634e71d92d146112125781634f6ccce71461117e578163502ce3a6146111435781636352211e146111125781636a62784214610e1957816370a0823114610dec5781639528012a14610be257816395d89b4114610b3a578163a22cb46514610a6a578163a3c5304e14610a4b578163a949dee314610a10578163b36c1284146109f1578163b831cc65146105cb578163b88d4fde1461054a578163c87b56dd1461027f57508063e985e9c5146102325763ffcc43c41461015957600080fd5b3461022e578160031936011261022e5780519082600c54610179816118b0565b8085529160019180831690811561020657506001146101bb575b5050506101a5826101b794038361182b565b5191829160208352602083019061176e565b0390f35b9450600c85526000805160206120938339815191525b8286106101ee575050506101a58260206101b79582010194610193565b805460208787018101919091529095019481016101d1565b6101b79750869350602092506101a594915060ff191682840152151560051b82010194610193565b5080fd5b503461022e578060031936011261022e5760ff81602093610251611793565b6102596117ae565b6001600160a01b0391821683526005875283832091168252855220549151911615158152f35b8391503461022e57602091826003193601126105475781356000818152600260205260409020546102ba906001600160a01b03161515611961565b8451928290600c546102cb816118b0565b80875286888101946001938a858216918260001461052c5750506001146104e3575b6102f99250038761182b565b8551156104c6578390849286957a184f03e93ff9f4daa797ed6e38ed64bf6a1f01000000000000000090818110156104b9575b5050886d04ee2d6d415b85acef8100000000808610156104ab575b5050662386f26fc100008085101561049c575b506305f5e1008085101561048d575b506127108085101561047f575b5050606483101561046f575b600a80931015610466575b90816021866103b6838d99016103ae6103a58261184d565b9a519a8b61182b565b808a5261184d565b888c019990601f1901368b3750870101905b610430575b505050506101b7936103f49361041f936104036025948a519788955180928c880190611739565b8401915180938a840190611739565b0164173539b7b760d91b8782015203600581018452018261182b565b925b5192828493845283019061176e565b600019019083906f181899199a1a9b1b9c1cb0b131b232b360811b8282061a835304918215610461579190826103c8565b6103cd565b8094019361038d565b9391606460029104920193610382565b950194909204918980610376565b6008919694049301948a610369565b6010919694049301948a61035a565b96019590930492888b610347565b8b97500493508a8061032c565b505050506101b791508351906104db826117f9565b815292610421565b5050600c8652868887846000805160206120938339815191525b8583106105135750506102f993508201016102ed565b80919294505483858d0101520191018990848a936104fd565b60ff191688526102f994151560051b84010191506102ed9050565b80fd5b9050346105c75760803660031901126105c757610565611793565b9061056e6117ae565b916044356064359367ffffffffffffffff85116105c3576105986105bb946105c096369101611869565b926105ab6105a68433611aea565b611a11565b6105b6838383611bb2565b611f1f565b611ac6565b51f35b8680fd5b8280fd5b90508234610547576080918260031936011261022e5780359367ffffffffffffffff8086116109ed57366023870112156109ed57858301358181116109da578251600582811b98602093610621858c018561182b565b83528383016024809b830101913683116109c6578b869101915b8383106109ca575050505088358481116109515761065c9036908801611869565b604435858111610966576106739036908901611869565b986064358681116109c65761068b9036908a01611869565b918a6106dc878a518093826106a98184019788815193849201611739565b82016106bd82518093868085019101611739565b018751906106d082858301868c01611739565b0103808452018261182b565b51902099600d549a968a975b865189101561073c5788861b8701880151908181101561072f578c528752888b205b97600019811461071d57600101976106e8565b634e487b7160e01b8c5260118b528d8cfd5b908c528752888b2061070a565b8b9496508995508a918d8f920361098d5760018060a01b03600e5460081c1694875198888a018a81108482111761097b5789527f00000000000000000000000000000000000000000000000000000000000000008a527f00000000000000000000000000000000000000000000000000000000000000008b8b0152885163c9d4ef1f60e01b81528581018c9052939291908190859081906107e0908288019061176e565b03818a5afa9384156109715788946108dd575b5050505095918793918651978894632efa56d360e21b865282860188905b600282106108c457505050604485019087915b8383106108aa575050505082610846819260e060c484015260e483019061176e565b03915afa92831561089e578193610862575b5050519015158152f35b909192508381813d8311610897575b61087b818361182b565b8101031261022e57519081151582036105475750908380610858565b503d610871565b509051903d90823e3d90fd5b815181528b978b9750600193909301929182019101610824565b825181528c988c98509283019260019092019101610811565b9080929394503d831161096a575b6108f5818361182b565b81019282828503126109665783601f8301121561096657895194838601918211868310176109555750895283918101928311610951578a915b8382106109425750505050888080806107f3565b8151815290820190820161092e565b8780fd5b634e487b7160e01b8a526041875289fd5b8880fd5b503d6108eb565b89513d8a823e3d90fd5b634e487b7160e01b8952604186528489fd5b865162461bcd60e51b81528084018a90526014818401527324b73b30b634b21026b2b935b63290283937b7b360611b6044820152606490fd5b8980fd5b823581529181019186910161063b565b634e487b7160e01b855260418452602485fd5b8380fd5b50503461022e578160031936011261022e57602090600a549051908152f35b50503461022e578160031936011261022e57602090517f00000000000000000000000000000000000000000000000000000000000000008152f35b50503461022e578160031936011261022e57602090600b549051908152f35b9050346105c757816003193601126105c757610a84611793565b60243590811515809203610b36576001600160a01b031691338314610af35750338452600560205282842082855260205282842060ff1981541660ff831617905582519081527f17307eab39ab6107e8899845ad3d59bd9653f200f220920489ca2b5937696c3160203392a351f35b606490602085519162461bcd60e51b8352820152601960248201527f4552433732313a20617070726f766520746f2063616c6c6572000000000000006044820152fd5b8480fd5b50503461022e578160031936011261022e57805190826001805491610b5e836118b0565b808652928281169081156102065750600114610b86575050506101a5826101b794038361182b565b94508085527fb10e2d527612073b26eecdfd717e6a320cf44b4afac2b0732d9fcbe2b7fa0cf65b828610610bca575050506101a58260206101b79582010194610193565b80546020878701810191909152909501948101610bad565b9050346105c757816003193601126105c75767ffffffffffffffff8135818111610b3657610c139036908401611869565b610c47337f00000000000000000000000000000000000000000000000000000000000000006001600160a01b031614611fe7565b600e549260ff8416610d9a576001809460ff191617600e558151928311610d875750610c74600c546118b0565b601f8111610d33575b5060209081601f8411600114610cc257509282939183928794610cb7575b50501b916000199060031b1c191617600c555b602435600d5551f35b015192503880610c9b565b919083601f198116600c89526000805160206120938339815191529489905b88838310610d195750505010610d00575b505050811b01600c55610cae565b015160001960f88460031b161c19169055388080610cf2565b858701518855909601959485019487935090810190610ce1565b600c8652600080516020612093833981519152601f840160051c81019160208510610d7d575b601f0160051c019084905b828110610d72575050610c7d565b878155018490610d64565b9091508190610d59565b634e487b7160e01b865260419052602485fd5b608490602086519162461bcd60e51b8352820152602660248201527f4261736555524920616e6420526f6f74206861766520616c7265616479206265604482015265195b881cd95d60d21b6064820152fd5b50503461022e57602036600319011261022e57602090610e12610e0d611793565b6118ea565b9051908152f35b60209150366003190182136109ed57610e30611793565b600f5460011981116110ff5760010191600a548310156110a65760ff600e54161561103d57600b543410610ffa5782600f55845193610e6e856117f9565b8685526001600160a01b038316918215610fba57600085815260026020526040902054610ea7906001600160a01b031615155b15612046565b600854908589526009835281888a2055600160401b821015610fa7575093809260026105c0979593610f0184610ee68a60016105bb9c01600855611f9a565b90919082549060031b600019811b9283911b16911916179055565b610f0a856118ea565b838c52600682528a8c20818d5282528a8c20859055848c52600782528a8c2055600084815260026020526040902054610f4d906001600160a01b03161515610ea1565b828b5260038152898b2060018154019055838b5252878920816bffffffffffffffffffffffff60a01b825416179055887fddf252ad1be2c89b69c2b068fc378daa952ba7f163c4a11628f55a4df523b3ef818a51a4611e2b565b634e487b7160e01b895260419052602488fd5b8160649288519262461bcd60e51b845283015260248201527f4552433732313a206d696e7420746f20746865207a65726f20616464726573736044820152fd5b845162461bcd60e51b8152908101849052601a60248201527f4e6f7420656e6f756768204574686572207761732073656e742e0000000000006044820152606490fd5b845162461bcd60e51b8152908101849052603d60248201527f54686520426173655552492c20565246205075626c6963204b657920616e642060448201527f4d65726b6c6520526f6f742068617665206e6f74206265656e207365740000006064820152608490fd5b845162461bcd60e51b8152908101849052602d60248201527f546865206d6178696d756d206e756d626572206f66207269636b73206861766560448201526c103132b2b71036b4b73a32b21760991b6064820152608490fd5b634e487b7160e01b865260118352602486fd5b8284346105475760203660031901126105475750611132602092356119ad565b90516001600160a01b039091168152f35b50503461022e578160031936011261022e57602090517f00000000000000000000000000000000000000000000000000000000000000008152f35b9050823461054757602036600319011261054757508035906008548210156111ba576020836111ac84611f9a565b91905490519160031b1c8152f35b608490602084519162461bcd60e51b8352820152602c60248201527f455243373231456e756d657261626c653a20676c6f62616c20696e646578206f60448201526b7574206f6620626f756e647360a01b6064820152fd5b9050346105c757826003193601126105c7578280807f000000000000000000000000000000000000000000000000000000000000000061125c336001600160a01b03831614611fe7565b478651915af161126a611dfb565b5015611274575051f35b6020606492519162461bcd60e51b835282015260146024820152732330b4b632b2103a379039b2b7321022ba3432b960611b6044820152fd5b9050346105c7576112bd366117c4565b91845193602085019085821067ffffffffffffffff8311176112f75750916105bb93916105c0959387528784526105ab6105a68433611aea565b634e487b7160e01b885260419052602487fd5b828434610547578160031936011261054757611324611793565b60243590611331816118ea565b82101561135f576001600160a01b031682526006602090815283832091835290815290829020548251908152f35b835162461bcd60e51b8152602081870152602b60248201527f455243373231456e756d657261626c653a206f776e657220696e646578206f7560448201526a74206f6620626f756e647360a81b6064820152608490fd5b50503461022e578160031936011261022e57602090600f549051908152f35b50503461022e576105c06113e8366117c4565b916113f66105a68433611aea565b611bb2565b50503461022e578160031936011261022e57517f00000000000000000000000000000000000000000000000000000000000000006001600160a01b03168152602090f35b50503461022e578160031936011261022e576020906008549051908152f35b9050346105c757816003193601126105c757611478611793565b602435916001600160a01b03908180611490866119ad565b1693169280841461158057803314908115611561575b50156114f85783865260205283852080546001600160a01b031916831790556114ce836119ad565b169251927f8c5be1e5ebec7d5bd14f71427d1e84f3dd0314c0f7b2291e5b200ac8c7c3b9258585a4f35b608490602086519162461bcd60e51b8352820152603d60248201527f4552433732313a20617070726f76652063616c6c6572206973206e6f7420746f60448201527f6b656e206f776e6572206f7220617070726f76656420666f7220616c6c0000006064820152fd5b90508652600560205284862033875260205260ff8587205416386114a6565b855162461bcd60e51b8152602081840152602160248201527f4552433732313a20617070726f76616c20746f2063757272656e74206f776e656044820152603960f91b6064820152608490fd5b8284346105475760203660031901126105475750611132602092356119d3565b50503461022e578160031936011261022e5780519082805461160e816118b0565b808552916001918083169081156102065750600114611639575050506101a5826101b794038361182b565b80809650527f290decd9548b62a8d60345a988386fc84ba6bc95484008f6362f93160ef3e5635b82861061167d575050506101a58260206101b79582010194610193565b80546020878701810191909152909501948101611660565b50503461022e578160031936011261022e57602090600d549051908152f35b8491346105c75760203660031901126105c7573563ffffffff60e01b81168091036105c7576020925063780e9d6360e01b81149081156116f6575b5015158152f35b6380ac58cd60e01b811491508115611728575b8115611717575b50836116ef565b6301ffc9a760e01b14905083611710565b635b5e139f60e01b81149150611709565b918091926000905b828210611759575011611752575050565b6000910152565b91508060209183015181860152018291611741565b9060209161178781518092818552858086019101611739565b601f01601f1916010190565b600435906001600160a01b03821682036117a957565b600080fd5b602435906001600160a01b03821682036117a957565b60609060031901126117a9576001600160a01b039060043582811681036117a9579160243590811681036117a9579060443590565b6020810190811067ffffffffffffffff82111761181557604052565b634e487b7160e01b600052604160045260246000fd5b90601f8019910116810190811067ffffffffffffffff82111761181557604052565b67ffffffffffffffff811161181557601f01601f191660200190565b81601f820112156117a9578035906118808261184d565b9261188e604051948561182b565b828452602083830101116117a957816000926020809301838601378301015290565b90600182811c921680156118e0575b60208310146118ca57565b634e487b7160e01b600052602260045260246000fd5b91607f16916118bf565b6001600160a01b0316801561190a57600052600360205260406000205490565b60405162461bcd60e51b815260206004820152602960248201527f4552433732313a2061646472657373207a65726f206973206e6f7420612076616044820152683634b21037bbb732b960b91b6064820152608490fd5b1561196857565b60405162461bcd60e51b815260206004820152601860248201527f4552433732313a20696e76616c696420746f6b656e20494400000000000000006044820152606490fd5b6000908152600260205260409020546001600160a01b03166119d0811515611961565b90565b6000818152600260205260409020546119f6906001600160a01b03161515611961565b6000908152600460205260409020546001600160a01b031690565b15611a1857565b60405162461bcd60e51b815260206004820152602d60248201527f4552433732313a2063616c6c6572206973206e6f7420746f6b656e206f776e6560448201526c1c881bdc88185c1c1c9bdd9959609a1b6064820152608490fd5b60809060208152603260208201527f4552433732313a207472616e7366657220746f206e6f6e20455243373231526560408201527131b2b4bb32b91034b6b83632b6b2b73a32b960711b60608201520190565b15611acd57565b60405162461bcd60e51b815280611ae660048201611a73565b0390fd5b906001600160a01b038080611afe846119ad565b16931691838314938415611b31575b508315611b1b575b50505090565b611b27919293506119d3565b1614388080611b15565b909350600052600560205260406000208260005260205260ff604060002054169238611b0d565b15611b5f57565b60405162461bcd60e51b815260206004820152602560248201527f4552433732313a207472616e736665722066726f6d20696e636f72726563742060448201526437bbb732b960d91b6064820152608490fd5b611bd691611bbf846119ad565b6001600160a01b0393848416939185168414611b58565b838216938415611daa57839182611cf1575090506008549085600052600960205281604060002055600160401b82101561181557611c3c92611c2387610ee6856001899701600855611f9a565b828603611cbe575b50611c35866119ad565b1614611b58565b7fddf252ad1be2c89b69c2b068fc378daa952ba7f163c4a11628f55a4df523b3ef60008481526004602052604081206bffffffffffffffffffffffff60a01b90818154169055838252600360205260408220600019815401905584825260408220600181540190558582526002602052846040832091825416179055604051a4565b611cc7906118ea565b60406000878152600660205281812083825260205288828220558881526007602052205538611c2b565b858303611d03575b50611c3c92611c23565b611d0e9192506118ea565b9060018210611d9457611c3c928492600019016000908882526020906007825260409182842054828103611d5d575b508a84528383812055868452600681528284209184525281205592611cf9565b8785526006825283852083865282528385205488865260068352848620828752835280858720558552600782528385205538611d3d565b634e487b7160e01b600052601160045260246000fd5b60405162461bcd60e51b8152602060048201526024808201527f4552433732313a207472616e7366657220746f20746865207a65726f206164646044820152637265737360e01b6064820152608490fd5b3d15611e26573d90611e0c8261184d565b91611e1a604051938461182b565b82523d6000602084013e565b606090565b9091600091803b15611f1657611e766020918493604051948580948193630a85bd0160e11b9a8b8452336004850152846024850152604484015260806064840152608483019061176e565b03926001600160a01b03165af190829082611ece575b5050611ec057611e9a611dfb565b80519081611ebb5760405162461bcd60e51b815280611ae660048201611a73565b602001fd5b6001600160e01b0319161490565b909192506020813d8211611f0e575b81611eea6020938361182b565b8101031261022e5751906001600160e01b0319821682036105475750903880611e8c565b3d9150611edd565b50505050600190565b91926000929190813b15611f9057602091611f759185604051958680958194630a85bd0160e11b9b8c845233600485015260018060a01b038095166024850152604484015260806064840152608483019061176e565b0393165af190829082611ece575050611ec057611e9a611dfb565b5050505050600190565b600854811015611fd15760086000527ff3f7a9fe364faab93b216da50a3214154f22a0a2b415b23a84c8169e8b636ee30190600090565b634e487b7160e01b600052603260045260246000fd5b15611fee57565b60405162461bcd60e51b815260206004820152602a60248201527f4f6e6c7920746865206469737472696275746f722063616e2063616c6c20746860448201526934b99036b2ba3437b21760b11b6064820152608490fd5b1561204d57565b60405162461bcd60e51b815260206004820152601c60248201527f4552433732313a20746f6b656e20616c7265616479206d696e746564000000006044820152606490fdfedf6966c971051c3d54ec59162606531493a51404a002842f56009d7e5cf4a8c7a2646970667358221220d04ef1f1db31c2d6ac7d0bad8608ea801b28f16d13b143f5f1a48172f0d5d9fc64736f6c634300080f0033ac33ff75c19e70fe83507db0d683fd3465c996598dc972688b7ace676c89077b",
  "immutableReferences": {
    "25729": [
      {
        "length": 32,
        "start": 3097
      },
      {
        "length": 32,
        "start": 4649
      },
      {
        "length": 32,
        "start": 5136
      }
    ],
    "25731": [
      {
        "length": 32,
        "start": 1905
      },
      {
        "length": 32,
        "start": 2600
      }
    ],
    "25733": [
      {
        "length": 32,
        "start": 1940
      },
      {
        "length": 32,
        "start": 4443
      }
    ]
  },
  "source": "// SPDX-License-Identifier: MIT\npragma solidity ^ 0.8.0;\n\nimport \"@openzeppelin/contracts/token/ERC721/extensions/ERC721Enumerable.sol\";\n\nimport \"@openzeppelin/contracts/utils/cryptography/MerkleProof.sol\";\n\nimport \"@openzeppelin/contracts/utils/Counters.sol\";\n\nimport \"@openzeppelin/contracts/utils/Strings.sol\";\n\nimport \"./VRFHelper.sol\";\n\ncontract CryptoRicks is ERC721Enumerable{\n\n    using Counters for Counters.Counter;\n\n    using Strings for uint256;\n\n    address public immutable Distributor;\n\n    uint public immutable PublicKeyPointX;\n\n    uint public immutable PublicKeyPointY;\n\n    uint public MaxSupply;\n\n    uint public MintValue;\n\n    string public BaseURI;\n\n    bytes32 public Root;\n\n    bool ProofVariables = false;\n\n    VRFHelper helper;\n\n    Counters.Counter public TokenIds;\n\n    modifier mintable(){\n        require(TokenIds.current() + 1 < MaxSupply, \"The maximum number of ricks have been minted.\");\n        require(ProofVariables, \"The BaseURI, VRF Public Key and Merkle Root have not been set\");\n        require(msg.value >= MintValue, \"Not enough Ether was sent.\");\n        _;\n    }\n\n    modifier onlyDistributor{\n        require(msg.sender == Distributor, \"Only the distributor can call this method.\");\n        _;\n    }\n\n    constructor(uint _maxSupply, uint _mintValue, uint[2] memory _publicKeyPoint, address _helper )ERC721(\"CryptoRicks\", \"CR\"){\n        Distributor = msg.sender;\n        helper = VRFHelper(_helper);\n        require(Distributor == helper.pointToAddress(_publicKeyPoint[0], _publicKeyPoint[1]), \"Invalid Public Key Point for Distributor Address.\");\n        PublicKeyPointX = _publicKeyPoint[0];\n        PublicKeyPointY = _publicKeyPoint[1];\n        MaxSupply = _maxSupply;\n        MintValue =_mintValue;\n        _mint(msg.sender, 0);\n    }\n\n    function _baseURI() internal override view returns (string memory) {\n        return BaseURI;\n    }\n\n    function setProofVariables(string memory _uri, bytes32 _root) public onlyDistributor{\n        require(ProofVariables == false, \"BaseURI and Root have already been set\");\n        //require(PublicKeyHash == keccak256(abi.encodePacked(_publicKey)), \"Invalid public key given.\");\n        ProofVariables = true;\n        BaseURI = _uri;\n        //PublicKey = _publicKey;\n        Root = _root;\n        //PublicKeyPoint = helper.decodePoint(_publicKey);\n    }\n\n    function tokenURI(uint256 _tokenId) public view virtual override returns (string memory) {\n        _requireMinted(_tokenId);\n\n        string memory baseURI = _baseURI();\n        \n        return bytes(baseURI).length > 0 ? string(abi.encodePacked(baseURI, _tokenId.toString(), \".json\")) : \"\";\n    }\n\n    function mint(address _receiver) public payable mintable {\n        TokenIds.increment();\n        uint _id = TokenIds.current();\n        _safeMint(_receiver, _id);\n    }\n\n    function claim() public onlyDistributor{\n        (bool sent, ) = Distributor.call{value: address(this).balance}(\"\");\n        require(sent, \"Failed to send Ether\");\n    }\n\n    /*\n    function createLeaf(string memory _CID, bytes memory _message, bytes memory _vrfProof) public pure returns(bytes32){\n        return keccak256(abi.encodePacked( _CID, _message, _vrfProof));\n    }\n    \n    function verifyLeaf(bytes32[] memory _merkleProof, bytes32 _leaf) public view returns(bool _verified){\n\n        return MerkleProof.verify(_merkleProof, Root, _leaf);\n    }\n    \n    function verifyVRF(bytes memory _message, bytes memory _vrfProof) public view returns(bool _verified){\n        uint[4] memory proof = helper.decodeProof(_vrfProof);\n        return helper.verify(PublicKeyPoint, proof, _message);\n    }*/\n\n    function verify(bytes32[] memory _merkleProof, string memory _CID, bytes memory _vrfMessage, bytes memory _vrfProof) public view returns(bool _verified){\n        bytes32 leaf = keccak256(abi.encodePacked(_CID, _vrfMessage, _vrfProof));\n        require(MerkleProof.verify(_merkleProof, Root, leaf), \"Invalid Merkle Proof\");\n        return helper.verify([PublicKeyPointX, PublicKeyPointY], helper.decodeProof(_vrfProof), _vrfMessage);\n    }\n}",
  "sourcePath": "/home/stephensb/sb-labs/solidity-contracts/contracts/crypto-ricks/CryptoRicks.sol",
  "compiler": {
    "name": "solc",
    "version": "0.8.15+commit.e14f2714.Emscripten.clang"
  },
  "schemaVersion": "3.4.12",
  "updatedAt": "2023-11-27T05:44:41.298Z",
  "devdoc": {
    "kind": "dev",
    "methods": {
      "approve(address,uint256)": {
        "details": "See {IERC721-approve}."
      },
      "balanceOf(address)": {
        "details": "See {IERC721-balanceOf}."
      },
      "getApproved(uint256)": {
        "details": "See {IERC721-getApproved}."
      },
      "isApprovedForAll(address,address)": {
        "details": "See {IERC721-isApprovedForAll}."
      },
      "name()": {
        "details": "See {IERC721Metadata-name}."
      },
      "ownerOf(uint256)": {
        "details": "See {IERC721-ownerOf}."
      },
      "safeTransferFrom(address,address,uint256)": {
        "details": "See {IERC721-safeTransferFrom}."
      },
      "safeTransferFrom(address,address,uint256,bytes)": {
        "details": "See {IERC721-safeTransferFrom}."
      },
      "setApprovalForAll(address,bool)": {
        "details": "See {IERC721-setApprovalForAll}."
      },
      "supportsInterface(bytes4)": {
        "details": "See {IERC165-supportsInterface}."
      },
      "symbol()": {
        "details": "See {IERC721Metadata-symbol}."
      },
      "tokenByIndex(uint256)": {
        "details": "See {IERC721Enumerable-tokenByIndex}."
      },
      "tokenOfOwnerByIndex(address,uint256)": {
        "details": "See {IERC721Enumerable-tokenOfOwnerByIndex}."
      },
      "totalSupply()": {
        "details": "See {IERC721Enumerable-totalSupply}."
      },
      "transferFrom(address,address,uint256)": {
        "details": "See {IERC721-transferFrom}."
      }
    },
    "version": 1
  },
  "userdoc": {
    "kind": "user",
    "methods": {},
    "version": 1
  }
}