{
  "contractName": "CurrencyLibrary",
  "abi": [
    {
      "inputs": [],
      "name": "ERC20TransferFailed",
      "type": "error"
    },
    {
      "inputs": [],
      "name": "NativeTransferFailed",
      "type": "error"
    },
    {
      "inputs": [],
      "name": "NATIVE",
      "outputs": [
        {
          "internalType": "Currency",
          "name": "",
          "type": "address"
        }
      ],
      "stateMutability": "view",
      "type": "function"
    }
  ],
  "bytecode": "0x60808060405234601857606f908161001d823930815050f35b5f80fdfe60808060405260043610156011575f80fd5b5f3560e01c63a0cf0aea146023575f80fd5b5f366003190112603557805f60209252f35b5f80fdfea26469706673582212202f8b50aac6c9725ddf1baea4ce1a74b4e2ac91d18cba4a17b27dba1afa8cdd3e64736f6c63430008170033",
  "immutableReferences": {},
  "source": "// SPDX-License-Identifier: MIT\npragma solidity ^0.8.20;\n\nimport {IERC20Minimal} from \"../interfaces/external/IERC20Minimal.sol\";\n\ntype Currency is address;\n\nusing {greaterThan as >, lessThan as <, greaterThanOrEqualTo as >=, equals as ==} for Currency global;\n\nfunction equals(Currency currency, Currency other) pure returns (bool) {\n    return Currency.unwrap(currency) == Currency.unwrap(other);\n}\n\nfunction greaterThan(Currency currency, Currency other) pure returns (bool) {\n    return Currency.unwrap(currency) > Currency.unwrap(other);\n}\n\nfunction lessThan(Currency currency, Currency other) pure returns (bool) {\n    return Currency.unwrap(currency) < Currency.unwrap(other);\n}\n\nfunction greaterThanOrEqualTo(Currency currency, Currency other) pure returns (bool) {\n    return Currency.unwrap(currency) >= Currency.unwrap(other);\n}\n\n/// @title CurrencyLibrary\n/// @dev This library allows for transferring and holding native tokens and ERC20 tokens\nlibrary CurrencyLibrary {\n    using CurrencyLibrary for Currency;\n\n    /// @notice Thrown when a native transfer fails\n    error NativeTransferFailed();\n\n    /// @notice Thrown when an ERC20 transfer fails\n    error ERC20TransferFailed();\n\n    Currency public constant NATIVE = Currency.wrap(address(0));\n\n    function transfer(Currency currency, address to, uint256 amount) internal {\n        // implementation from\n        // https://github.com/transmissions11/solmate/blob/e8f96f25d48fe702117ce76c79228ca4f20206cb/src/utils/SafeTransferLib.sol\n\n        bool success;\n        if (currency.isNative()) {\n            assembly {\n                // Transfer the ETH and store if it succeeded or not.\n                success := call(gas(), to, amount, 0, 0, 0, 0)\n            }\n\n            if (!success) revert NativeTransferFailed();\n        } else {\n            assembly {\n                // We'll write our calldata to this slot below, but restore it later.\n                let memPointer := mload(0x40)\n\n                // Write the abi-encoded calldata into memory, beginning with the function selector.\n                mstore(0, 0xa9059cbb00000000000000000000000000000000000000000000000000000000)\n                mstore(4, to) // Append the \"to\" argument.\n                mstore(36, amount) // Append the \"amount\" argument.\n\n                success :=\n                    and(\n                        // Set success to whether the call reverted, if not we check it either\n                        // returned exactly 1 (can't just be non-zero data), or had no return data.\n                        or(and(eq(mload(0), 1), gt(returndatasize(), 31)), iszero(returndatasize())),\n                        // We use 68 because that's the total length of our calldata (4 + 32 * 2)\n                        // Counterintuitively, this call() must be positioned after the or() in the\n                        // surrounding and() because and() evaluates its arguments from right to left.\n                        call(gas(), currency, 0, 0, 68, 0, 32)\n                    )\n\n                mstore(0x60, 0) // Restore the zero slot to zero.\n                mstore(0x40, memPointer) // Restore the memPointer.\n            }\n\n            if (!success) revert ERC20TransferFailed();\n        }\n    }\n\n    function balanceOfSelf(Currency currency) internal view returns (uint256) {\n        if (currency.isNative()) {\n            return address(this).balance;\n        } else {\n            return IERC20Minimal(Currency.unwrap(currency)).balanceOf(address(this));\n        }\n    }\n\n    function balanceOf(Currency currency, address owner) internal view returns (uint256) {\n        if (currency.isNative()) {\n            return owner.balance;\n        } else {\n            return IERC20Minimal(Currency.unwrap(currency)).balanceOf(owner);\n        }\n    }\n\n    function isNative(Currency currency) internal pure returns (bool) {\n        return Currency.unwrap(currency) == Currency.unwrap(NATIVE);\n    }\n\n    function toId(Currency currency) internal pure returns (uint256) {\n        return uint160(Currency.unwrap(currency));\n    }\n\n    function fromId(uint256 id) internal pure returns (Currency) {\n        return Currency.wrap(address(uint160(id)));\n    }\n}\n",
  "sourcePath": "/home/stephensb/sb-labs/solidity-contracts/contracts/v4-core/src/types/Currency.sol",
  "compiler": {
    "name": "solc",
    "version": "0.8.23+commit.f704f362.Emscripten.clang"
  },
  "schemaVersion": "3.4.12",
  "updatedAt": "2024-01-13T17:30:44.269Z",
  "devdoc": {
    "details": "This library allows for transferring and holding native tokens and ERC20 tokens",
    "kind": "dev",
    "methods": {},
    "title": "CurrencyLibrary",
    "version": 1
  },
  "userdoc": {
    "errors": {
      "ERC20TransferFailed()": [
        {
          "notice": "Thrown when an ERC20 transfer fails"
        }
      ],
      "NativeTransferFailed()": [
        {
          "notice": "Thrown when a native transfer fails"
        }
      ]
    },
    "kind": "user",
    "methods": {},
    "version": 1
  }
}