{
  "contractName": "Dog",
  "abi": [
    {
      "inputs": [
        {
          "internalType": "string",
          "name": "name_",
          "type": "string"
        },
        {
          "internalType": "contract Dog",
          "name": "father_",
          "type": "address"
        },
        {
          "internalType": "contract Dog[]",
          "name": "pups_",
          "type": "address[]"
        }
      ],
      "stateMutability": "nonpayable",
      "type": "constructor"
    },
    {
      "inputs": [],
      "name": "father",
      "outputs": [
        {
          "internalType": "contract Dog",
          "name": "",
          "type": "address"
        }
      ],
      "stateMutability": "view",
      "type": "function"
    },
    {
      "inputs": [],
      "name": "initialized",
      "outputs": [
        {
          "internalType": "bool",
          "name": "",
          "type": "bool"
        }
      ],
      "stateMutability": "view",
      "type": "function"
    },
    {
      "inputs": [],
      "name": "name",
      "outputs": [
        {
          "internalType": "string",
          "name": "",
          "type": "string"
        }
      ],
      "stateMutability": "view",
      "type": "function"
    },
    {
      "inputs": [
        {
          "internalType": "uint256",
          "name": "",
          "type": "uint256"
        }
      ],
      "name": "pups",
      "outputs": [
        {
          "internalType": "contract Dog",
          "name": "",
          "type": "address"
        }
      ],
      "stateMutability": "view",
      "type": "function"
    },
    {
      "inputs": [
        {
          "internalType": "string",
          "name": "name_",
          "type": "string"
        },
        {
          "internalType": "contract Dog",
          "name": "father_",
          "type": "address"
        },
        {
          "internalType": "contract Dog[]",
          "name": "pups_",
          "type": "address[]"
        }
      ],
      "name": "initializeDog",
      "outputs": [],
      "stateMutability": "nonpayable",
      "type": "function"
    },
    {
      "inputs": [
        {
          "internalType": "contract Dog",
          "name": "pup",
          "type": "address"
        }
      ],
      "name": "addPup",
      "outputs": [],
      "stateMutability": "nonpayable",
      "type": "function"
    },
    {
      "inputs": [],
      "name": "puppers",
      "outputs": [
        {
          "components": [
            {
              "internalType": "uint256",
              "name": "index",
              "type": "uint256"
            },
            {
              "internalType": "contract Dog",
              "name": "pup",
              "type": "address"
            }
          ],
          "internalType": "struct Dog.Puppers[]",
          "name": "",
          "type": "tuple[]"
        }
      ],
      "stateMutability": "nonpayable",
      "type": "function"
    }
  ],
  "bytecode": "0x6080604052346200039c5762000c59803803806200001d81620003ca565b92833981016060828203126200039c5781516001600160401b0392908381116200039c57810192601f928084860112156200039c578451938285116200024557602092601f19956200007585888584011601620003ca565b97818952848683830101116200039c578186916000905b828210620003b0575011620003a1575b620000aa91508601620003f0565b946040810151908282116200039c5701918381840112156200039c57825193828511620002455760059385851b908780620000e7818501620003ca565b8099815201928201019283116200039c5787809101915b8383106200038157505050506000549660ff88166200033c576001809860ff1916176000558851928311620002455787548881811c9116801562000331575b878210146200031b57828111620002d2575b50859183116001146200026d57508190879860009262000261575b5050600019600383901b1c191690861b1785555b600280546001600160a01b03199081166001600160a01b0396871617909155600095909492905b620001bb575b6040516108539081620004068239f35b80518610156200025b57828487841b830101511660038054906801000000000000000082101562000245578982018082558210156200022f5760005285600020019086825416179055600019861462000219578680960195620001a5565b634e487b7160e01b600052601160045260246000fd5b634e487b7160e01b600052603260045260246000fd5b634e487b7160e01b600052604160045260246000fd5b620001ab565b0151905038806200016a565b82169787600052856000209860005b818110620002bc575091889991848a959410620002a2575b505050811b0185556200017e565b015160001960f88460031b161c1916905538808062000294565b828401518b55998901999287019287016200027c565b886000528660002083808601871c82019289871062000311575b01861c019089905b828110620003045750506200014f565b60008155018990620002f4565b92508192620002ec565b634e487b7160e01b600052602260045260246000fd5b90607f16906200013d565b60405162461bcd60e51b815260048101879052601360248201527f616c726561647920696e697469616c697a6564000000000000000000000000006044820152606490fd5b81906200038e84620003f0565b8152019101908790620000fe565b600080fd5b6000918901015238846200009c565b92809250818401015182828d01015201829087926200008c565b6040519190601f01601f191682016001600160401b038111838210176200024557604052565b51906001600160a01b03821682036200039c5756fe6080604081815260048036101561001557600080fd5b600092833560e01c9081630166be8a1461039d5750806306fdde031461027b5780630bdae0c914610147578063158ef93e146101255780631c8aca3b146100f8578063380f4841146100c95763c8d228791461007057600080fd5b346100c55760203660031901126100c557356003548110156100c55760036020935260018060a01b03907fc2575a0e9e593c00f959f8c92f12db2869c3395a3b0502d05e2516446f71f85b0154169051908152f35b8280fd5b50346100c55760203660031901126100c557356001600160a01b03811681036100c5576100f5906107b4565b51f35b50503461012157816003193601126101215760025490516001600160a01b039091168152602090f35b5080fd5b50503461012157816003193601126101215760ff602092541690519015158152f35b505034610121578160031936011261012157600390815461016781610713565b92610174835194856106f1565b818452601f1961018383610713565b01855b818110610259575050845b8281106101f1575050815160208082528451818301819052919586958686019590830194505b8382106101c45786860387f35b8451805187528301516001600160a01b0316868401528796509485019493820193600191909101906101b7565b8186527fc2575a0e9e593c00f959f8c92f12db2869c3395a3b0502d05e2516446f71f85b810154845161025492916001600160a01b0316610231826106bf565b8282526020820152610243828861078a565b5261024e818761078a565b50610765565b610191565b6020908551610267816106bf565b888152828981830152828901015201610186565b505034610121578160031936011261012157805182816001918254926102a08461072b565b8084529381811690811561037b575060011461031f575b506102c7925094929403846106f1565b81519283916020808452825192838286015282915b84831061030757505082106102fb575b50601f01601f19168101030190f35b838284010152386102ec565b818301810151888401880152879550918201916102dc565b8087528691507fb10e2d527612073b26eecdfd717e6a320cf44b4afac2b0732d9fcbe2b7fa0cf65b84831061036057506102c79350508101602001386102b7565b81935090816020925483858901015201910190918492610347565b9050602092506102c794915060ff191682840152151560051b820101386102b7565b919050346106bb5760603660031901126106bb5780359167ffffffffffffffff908184116106b757366023850112156106b75783830135918083116106a45760209487601f19916103f58884601f89011601866106f1565b858552602495368782840101116100c55780878a930183880137850101526001600160a01b039584358781169491908590036106a0576044359584871161069c573660238801121561069c57868801359661044f88610713565b9761045c8c51998a6106f1565b80895282848a019160051b83010191368311610698578301905b82821061067c575050508a549760ff8916610646576001809960ff1916178c558351958611610635575050908392916104af885461072b565b601f81116105c3575b508092601f8511600114610545575050899261053a575b5050600019600383901b1c191690841b1783555b6bffffffffffffffffffffffff60a01b60025416176002558185905b61050857858551f35b8151811015610535578061052a8561052361052f948661078a565b51166107b4565b610765565b826104ff565b858551f35b0151905038806104cf565b88959392919316858c527fb10e2d527612073b26eecdfd717e6a320cf44b4afac2b0732d9fcbe2b7fa0cf6938c905b8282106105aa5750508411610591575b505050811b0183556104e3565b015160001960f88460031b161c19169055388080610584565b8484015186558a97909501949384019390810190610574565b9091929350878b527fb10e2d527612073b26eecdfd717e6a320cf44b4afac2b0732d9fcbe2b7fa0cf6601f860160051c81019183871061062b575b869594939291601f8b920160051c01915b82811061061d5750506104b8565b8d81558796508a910161060f565b90915081906105fe565b634e487b7160e01b8c52604190528afd5b6013606492848d519362461bcd60e51b855284015282015272185b1c9958591e481a5b9a5d1a585b1a5e9959606a1b6044820152fd5b81358c81168103610694578152908401908401610476565b8e80fd5b8d80fd5b8a80fd5b8980fd5b634e487b7160e01b875260418452602487fd5b8580fd5b8380fd5b6040810190811067ffffffffffffffff8211176106db57604052565b634e487b7160e01b600052604160045260246000fd5b90601f8019910116810190811067ffffffffffffffff8211176106db57604052565b67ffffffffffffffff81116106db5760051b60200190565b90600182811c9216801561075b575b602083101461074557565b634e487b7160e01b600052602260045260246000fd5b91607f169161073a565b60001981146107745760010190565b634e487b7160e01b600052601160045260246000fd5b805182101561079e5760209160051b010190565b634e487b7160e01b600052603260045260246000fd5b600354680100000000000000008110156106db57600181018060035581101561079e5760036000527fc2575a0e9e593c00f959f8c92f12db2869c3395a3b0502d05e2516446f71f85b0180546001600160a01b0319166001600160a01b0390921691909117905556fea2646970667358221220044ac3d2fba8f366abf4d26f182577757bf56c37f73de68c96801d99330c545364736f6c634300080f0033",
  "immutableReferences": {},
  "source": "// SPDX-License-Identifier: BUSL-1.1\npragma solidity 0.8.15;\n\ncontract Dog {\n    bool public initialized;\n    string public name;\n    Dog public father;\n    Dog[] public pups;\n\n    struct Puppers {\n        uint index;\n        Dog pup;\n    }\n\n    function initializeDog(string memory name_, Dog father_, Dog[] memory pups_) public {\n        require(!initialized, \"already initialized\");\n        initialized = true;\n        name = name_;\n        father = father_;\n        for (uint i = 0; i < pups_.length; i++) {\n            pups.push(pups_[i]);\n        }\n    }\n\n    constructor(string memory name_, Dog father_, Dog[] memory pups_) {\n        initializeDog(name_, father_, pups_);\n    }\n\n    function addPup(Dog pup) public {\n        pups.push(pup);\n    }\n\n    function puppers() public returns (Puppers[] memory) {\n        Puppers[] memory puppers = new Puppers[](pups.length);\n        for (uint i = 0; i < pups.length; i++) {\n            puppers[i] = Puppers({\n                index: i,\n                pup: pups[i]\n            });\n        }\n        return puppers;\n    }\n}\n",
  "sourcePath": "/home/stephensb/sb-labs/solidity-contracts/contracts/comet/contracts/test/Dog.sol",
  "compiler": {
    "name": "solc",
    "version": "0.8.15+commit.e14f2714.Emscripten.clang"
  },
  "schemaVersion": "3.4.12",
  "updatedAt": "2023-11-30T22:41:29.722Z",
  "devdoc": {
    "kind": "dev",
    "methods": {},
    "version": 1
  },
  "userdoc": {
    "kind": "user",
    "methods": {},
    "version": 1
  }
}