{
  "contractName": "EvilToken",
  "abi": [
    {
      "inputs": [
        {
          "internalType": "uint256",
          "name": "_initialAmount",
          "type": "uint256"
        },
        {
          "internalType": "string",
          "name": "_tokenName",
          "type": "string"
        },
        {
          "internalType": "uint8",
          "name": "_decimalUnits",
          "type": "uint8"
        },
        {
          "internalType": "string",
          "name": "_tokenSymbol",
          "type": "string"
        }
      ],
      "stateMutability": "nonpayable",
      "type": "constructor"
    },
    {
      "anonymous": false,
      "inputs": [
        {
          "indexed": true,
          "internalType": "address",
          "name": "owner",
          "type": "address"
        },
        {
          "indexed": true,
          "internalType": "address",
          "name": "spender",
          "type": "address"
        },
        {
          "indexed": false,
          "internalType": "uint256",
          "name": "value",
          "type": "uint256"
        }
      ],
      "name": "Approval",
      "type": "event"
    },
    {
      "anonymous": false,
      "inputs": [
        {
          "indexed": true,
          "internalType": "address",
          "name": "from",
          "type": "address"
        },
        {
          "indexed": true,
          "internalType": "address",
          "name": "to",
          "type": "address"
        },
        {
          "indexed": false,
          "internalType": "uint256",
          "name": "value",
          "type": "uint256"
        }
      ],
      "name": "Transfer",
      "type": "event"
    },
    {
      "inputs": [
        {
          "internalType": "address",
          "name": "_owner",
          "type": "address"
        },
        {
          "internalType": "uint256",
          "name": "value",
          "type": "uint256"
        }
      ],
      "name": "allocateTo",
      "outputs": [],
      "stateMutability": "nonpayable",
      "type": "function"
    },
    {
      "inputs": [
        {
          "internalType": "address",
          "name": "",
          "type": "address"
        },
        {
          "internalType": "address",
          "name": "",
          "type": "address"
        }
      ],
      "name": "allowance",
      "outputs": [
        {
          "internalType": "uint256",
          "name": "",
          "type": "uint256"
        }
      ],
      "stateMutability": "view",
      "type": "function"
    },
    {
      "inputs": [
        {
          "internalType": "address",
          "name": "_spender",
          "type": "address"
        },
        {
          "internalType": "uint256",
          "name": "amount",
          "type": "uint256"
        }
      ],
      "name": "approve",
      "outputs": [
        {
          "internalType": "bool",
          "name": "",
          "type": "bool"
        }
      ],
      "stateMutability": "nonpayable",
      "type": "function"
    },
    {
      "inputs": [],
      "name": "attack",
      "outputs": [
        {
          "internalType": "enum EvilToken.AttackType",
          "name": "attackType",
          "type": "uint8"
        },
        {
          "internalType": "address",
          "name": "source",
          "type": "address"
        },
        {
          "internalType": "address",
          "name": "destination",
          "type": "address"
        },
        {
          "internalType": "address",
          "name": "asset",
          "type": "address"
        },
        {
          "internalType": "uint256",
          "name": "amount",
          "type": "uint256"
        },
        {
          "internalType": "uint256",
          "name": "maxCalls",
          "type": "uint256"
        }
      ],
      "stateMutability": "view",
      "type": "function"
    },
    {
      "inputs": [
        {
          "internalType": "address",
          "name": "",
          "type": "address"
        }
      ],
      "name": "balanceOf",
      "outputs": [
        {
          "internalType": "uint256",
          "name": "",
          "type": "uint256"
        }
      ],
      "stateMutability": "view",
      "type": "function"
    },
    {
      "inputs": [],
      "name": "decimals",
      "outputs": [
        {
          "internalType": "uint8",
          "name": "",
          "type": "uint8"
        }
      ],
      "stateMutability": "view",
      "type": "function"
    },
    {
      "inputs": [],
      "name": "name",
      "outputs": [
        {
          "internalType": "string",
          "name": "",
          "type": "string"
        }
      ],
      "stateMutability": "view",
      "type": "function"
    },
    {
      "inputs": [],
      "name": "numberOfCalls",
      "outputs": [
        {
          "internalType": "uint256",
          "name": "",
          "type": "uint256"
        }
      ],
      "stateMutability": "view",
      "type": "function"
    },
    {
      "inputs": [],
      "name": "symbol",
      "outputs": [
        {
          "internalType": "string",
          "name": "",
          "type": "string"
        }
      ],
      "stateMutability": "view",
      "type": "function"
    },
    {
      "inputs": [],
      "name": "totalSupply",
      "outputs": [
        {
          "internalType": "uint256",
          "name": "",
          "type": "uint256"
        }
      ],
      "stateMutability": "view",
      "type": "function"
    },
    {
      "inputs": [],
      "name": "getAttack",
      "outputs": [
        {
          "components": [
            {
              "internalType": "enum EvilToken.AttackType",
              "name": "attackType",
              "type": "uint8"
            },
            {
              "internalType": "address",
              "name": "source",
              "type": "address"
            },
            {
              "internalType": "address",
              "name": "destination",
              "type": "address"
            },
            {
              "internalType": "address",
              "name": "asset",
              "type": "address"
            },
            {
              "internalType": "uint256",
              "name": "amount",
              "type": "uint256"
            },
            {
              "internalType": "uint256",
              "name": "maxCalls",
              "type": "uint256"
            }
          ],
          "internalType": "struct EvilToken.ReentryAttack",
          "name": "",
          "type": "tuple"
        }
      ],
      "stateMutability": "view",
      "type": "function"
    },
    {
      "inputs": [
        {
          "components": [
            {
              "internalType": "enum EvilToken.AttackType",
              "name": "attackType",
              "type": "uint8"
            },
            {
              "internalType": "address",
              "name": "source",
              "type": "address"
            },
            {
              "internalType": "address",
              "name": "destination",
              "type": "address"
            },
            {
              "internalType": "address",
              "name": "asset",
              "type": "address"
            },
            {
              "internalType": "uint256",
              "name": "amount",
              "type": "uint256"
            },
            {
              "internalType": "uint256",
              "name": "maxCalls",
              "type": "uint256"
            }
          ],
          "internalType": "struct EvilToken.ReentryAttack",
          "name": "attack_",
          "type": "tuple"
        }
      ],
      "name": "setAttack",
      "outputs": [],
      "stateMutability": "nonpayable",
      "type": "function"
    },
    {
      "inputs": [
        {
          "internalType": "address",
          "name": "",
          "type": "address"
        },
        {
          "internalType": "uint256",
          "name": "",
          "type": "uint256"
        }
      ],
      "name": "transfer",
      "outputs": [
        {
          "internalType": "bool",
          "name": "",
          "type": "bool"
        }
      ],
      "stateMutability": "nonpayable",
      "type": "function"
    },
    {
      "inputs": [
        {
          "internalType": "address",
          "name": "",
          "type": "address"
        },
        {
          "internalType": "address",
          "name": "",
          "type": "address"
        },
        {
          "internalType": "uint256",
          "name": "",
          "type": "uint256"
        }
      ],
      "name": "transferFrom",
      "outputs": [
        {
          "internalType": "bool",
          "name": "",
          "type": "bool"
        }
      ],
      "stateMutability": "nonpayable",
      "type": "function"
    }
  ],
  "bytecode": "0x60406080815234620003db5762000f1b90813803806200001f81620003e0565b938439820191608081840312620003db57805192602090818301519260018060401b0393848111620003db5782620000599183016200041c565b90858101519260ff8416809403620003db576060820151868111620003db576200008492016200041c565b8660035560009633885260058552868820558151858111620003c7578754906001938483811c93168015620003bc575b87841014620002c6578190601f9384811162000369575b50879084831160011462000305578b92620002f9575b5050600019600383901b1c191690841b1788555b815191868311620002e55783548481811c91168015620002da575b87821014620002c6579081838594931162000271575b50869183116001146200020d57899262000201575b5050600019600383901b1c191690821b1790555b60ff19600254161760025583600b5582519160c083019083821090821117620001ed5793839460a09452825230908201523083820152306060820152620f4240908160808201526000199283910152600654610100600160a81b033060081b169060018060a81b0319161760065560018060a01b03193081600754161760075530906008541617600855600955600a5551610a7b9081620004a08239f35b634e487b7160e01b85526041600452602485fd5b0151905038806200013b565b848a52868a208594509190601f1984168b5b898282106200025a575050841162000240575b505050811b0190556200014f565b015160001960f88460031b161c1916905538808062000232565b83850151865588979095019493840193016200021f565b90919250848a52868a208380860160051c820192898710620002bc575b91869588929594930160051c01915b828110620002ad57505062000126565b8c81558695508791016200029d565b925081926200028e565b634e487b7160e01b8a52602260045260248afd5b90607f169062000110565b634e487b7160e01b89526041600452602489fd5b015190503880620000e1565b8b8052888c208794509190601f1984168d5b8b82821062000352575050841162000338575b505050811b018855620000f5565b015160001960f88460031b161c191690553880806200032a565b8385015186558a9790950194938401930162000317565b9091508a8052878b208480850160051c8201928a8610620003b2575b918891869594930160051c01915b828110620003a3575050620000cb565b8d815585945088910162000393565b9250819262000385565b92607f1692620000b4565b634e487b7160e01b88526041600452602488fd5b600080fd5b6040519190601f01601f191682016001600160401b038111838210176200040657604052565b634e487b7160e01b600052604160045260246000fd5b81601f82011215620003db578051906001600160401b038211620004065760209062000451601f8401601f19168301620003e0565b93838552828483010111620003db5782906000905b8383831062000486575050116200047c57505090565b6000918301015290565b819350828193920101518282880101520183916200046656fe608060408181526004918236101561001657600080fd5b600092833560e01c918262c767201461059c5750816306fdde03146104df57816308bca56614610460578163095ea7b3146103f157816318160ddd146103d257816318d46199146103b357816323b872dd1461038c578163313ce5671461036a57816370a082311461033257816395d89b41146102325781639e5faafc146101cd578163a9059cbb1461019e578163dd62ed3e14610151575063f6a0e867146100be57600080fd5b3461014d578160031936011261014d5760c09160a082516100de81610678565b8281528260208201528284820152826060820152826080820152015260a061010461078b565b825192610112848351610768565b600180841b039081602084015116602086015281818401511690850152606082015116606084015260808101516080840152015160a0820152f35b5080fd5b90503461019a578160031936011261019a5760209282916101706106fb565b6101786106e0565b6001600160a01b03918216845291865283832091168252845220549051908152f35b8280fd5b50503461014d578060031936011261014d576020906101bb6106fb565b506101c46107e4565b90519015158152f35b50503461014d578160031936011261014d57600654600754600854600954600a54855160c0969095919492936001600160a01b03908116938116926102158860ff8316610768565b60081c1660208701528501526060840152608083015260a0820152f35b9190503461019a578260031936011261019a5780519183600180549182821c928281168015610328575b602095868610821461031557508488529081156102f3575060011461029b575b610297868661028d828b03836106be565b5191829182610711565b0390f35b9295508083527fb10e2d527612073b26eecdfd717e6a320cf44b4afac2b0732d9fcbe2b7fa0cf65b8284106102e057505050826102979461028d92820101943861027c565b80548685018801529286019281016102c3565b60ff191687860152505050151560051b830101925061028d826102973861027c565b634e487b7160e01b845260229052602483fd5b93607f169361025c565b50503461014d57602036600319011261014d5760209181906001600160a01b0361035a6106fb565b1681526005845220549051908152f35b50503461014d578160031936011261014d5760209060ff600254169051908152f35b50503461014d57606036600319011261014d576020906103aa6106fb565b506101bb6106e0565b50503461014d578160031936011261014d57602090600b549051908152f35b50503461014d578160031936011261014d576020906003549051908152f35b90503461019a578160031936011261019a5760209261040e6106fb565b918360243592839233825287528181209460018060a01b0316948582528752205582519081527f8c5be1e5ebec7d5bd14f71427d1e84f3dd0314c0f7b2291e5b200ac8c7c3b925843392a35160018152f35b50503461014d578060031936011261014d5761047a6106fb565b6001600160a01b03168083526005602052818320805460243591906104a0908390610a39565b90556104ae81600354610a39565b60035582519081527fddf252ad1be2c89b69c2b068fc378daa952ba7f163c4a11628f55a4df523b3ef60203092a351f35b9190503461019a578260031936011261019a578051918380549060019082821c928281168015610592575b602095868610821461031557508488529081156102f3575060011461053a57610297868661028d828b03836106be565b8080949750527f290decd9548b62a8d60345a988386fc84ba6bc95484008f6362f93160ef3e5635b82841061057f57505050826102979461028d92820101943861027c565b8054868501880152928601928101610562565b93607f169361050a565b9150346106745760c0366003190112610674576105b882610678565b35906003821015610674578181526105ce6106e0565b602082018190526001600160a01b039260443584811691908281036106705786850152606435948516928386036106705760a09560608601526084359485608082015260a435968791015260ff60065491610100600160a81b039060081b169216906affffffffffffffffffffff60a81b1617176006556bffffffffffffffffffffffff60a01b908160075416176007556008541617600855600955600a5551f35b8780fd5b8380fd5b60c0810190811067ffffffffffffffff82111761069457604052565b634e487b7160e01b600052604160045260246000fd5b67ffffffffffffffff811161069457604052565b90601f8019910116810190811067ffffffffffffffff82111761069457604052565b602435906001600160a01b03821682036106f657565b600080fd5b600435906001600160a01b03821682036106f657565b919091602080825283519081818401526000945b828610610752575050806040939411610745575b601f01601f1916010190565b6000838284010152610739565b8581018201518487016040015294810194610725565b9060038210156107755752565b634e487b7160e01b600052602160045260246000fd5b6040519061079882610678565b8160065460ff811660038110156107755782526001600160a01b03600891821c811660208401526007548116604084015290541660608201526009546080820152600a5460a090910152565b6107ec61078b565b600b546000198114610a235760010180600b5560a08201511015610811575b50600190565b80516003811015610775576108c15760208082015160408084015160809094015190516323b872dd60e01b81526001600160a01b0392831660048201529390911660248401526044830152600091908160648185335af180156108b65761087c575b50505b3861080b565b6020813d82116108ae575b81610894602093836106be565b8101031261014d5751801515036108ab5780610873565b80fd5b3d9150610887565b6040513d84823e3d90fd5b805160038110156107755760010361096a5760018060a01b0380602083015116906080816040850151169160608501511693015191333b156106f6576040516304c8826360e31b81526001600160a01b03918216600482015291811660248301529092166044830152606482015260008180608481015b038183335af1801561095e5761094f575b50610876565b610958906106aa565b38610949565b6040513d6000823e3d90fd5b80516003811015610775576002036109e55760018060a01b0380602083015116906080816040850151169160608501511693015191333b156106f657604051639032317760e01b81526001600160a01b0391821660048201529181166024830152909216604483015260648201526000818060848101610938565b60405162461bcd60e51b8152602060048201526016602482015275696e76616c6964207265656e7472792061747461636b60501b6044820152606490fd5b634e487b7160e01b600052601160045260246000fd5b81198111610a2357019056fea2646970667358221220b089a5b8b7def8f6a402563c74bef7d931848a5416bbe4ae2e4681776364579164736f6c634300080f0033",
  "immutableReferences": {},
  "source": "// SPDX-License-Identifier: BUSL-1.1\npragma solidity 0.8.15;\n\nimport \"./../ERC20.sol\";\nimport \"./../Comet.sol\";\nimport \"./FaucetToken.sol\";\n\n/**\n * @title Malicious ERC20 token\n * @dev FaucetToken that attempts reentrancy attacks\n */\ncontract EvilToken is FaucetToken {\n    enum AttackType {\n        TRANSFER_FROM,\n        WITHDRAW_FROM,\n        SUPPLY_FROM\n    }\n\n    struct ReentryAttack {\n        AttackType attackType;\n        address source;\n        address destination;\n        address asset;\n        uint amount;\n        uint maxCalls;\n    }\n\n    ReentryAttack public attack;\n    uint public numberOfCalls = 0;\n\n    constructor(\n        uint256 _initialAmount,\n        string memory _tokenName,\n        uint8 _decimalUnits,\n        string memory _tokenSymbol\n    ) FaucetToken(_initialAmount, _tokenName, _decimalUnits, _tokenSymbol) {\n        attack = ReentryAttack({\n            attackType: AttackType.TRANSFER_FROM,\n            source: address(this),\n            destination: address(this),\n            asset: address(this),\n            amount: 1e6,\n            maxCalls: type(uint).max\n        });\n    }\n\n    function getAttack() external view returns (ReentryAttack memory) {\n        return attack;\n    }\n\n    function setAttack(ReentryAttack memory attack_) external {\n        attack = attack_;\n    }\n\n    function transfer(address, uint256) external override returns (bool) {\n        return performAttack();\n    }\n\n    function transferFrom(address, address, uint256) external override returns (bool) {\n        return performAttack();\n    }\n\n    function performAttack() internal returns (bool) {\n        ReentryAttack memory reentryAttack = attack;\n        numberOfCalls++;\n        if (numberOfCalls > reentryAttack.maxCalls) {\n            // do nothing\n        } else if (reentryAttack.attackType == AttackType.TRANSFER_FROM) {\n            Comet(payable(msg.sender)).transferFrom(\n                reentryAttack.source,\n                reentryAttack.destination,\n                reentryAttack.amount\n            );\n        } else if (reentryAttack.attackType == AttackType.WITHDRAW_FROM) {\n            Comet(payable(msg.sender)).withdrawFrom(\n                reentryAttack.source,\n                reentryAttack.destination,\n                reentryAttack.asset,\n                reentryAttack.amount\n            );\n        } else if (reentryAttack.attackType == AttackType.SUPPLY_FROM) {\n            Comet(payable(msg.sender)).supplyFrom(\n                reentryAttack.source,\n                reentryAttack.destination,\n                reentryAttack.asset,\n                reentryAttack.amount\n            );\n        } else {\n            revert(\"invalid reentry attack\");\n        }\n        return true;\n    }\n\n}",
  "sourcePath": "/home/stephensb/sb-labs/solidity-contracts/contracts/comet/contracts/test/EvilToken.sol",
  "compiler": {
    "name": "solc",
    "version": "0.8.15+commit.e14f2714.Emscripten.clang"
  },
  "schemaVersion": "3.4.12",
  "updatedAt": "2023-11-30T22:41:29.723Z",
  "devdoc": {
    "details": "FaucetToken that attempts reentrancy attacks",
    "kind": "dev",
    "methods": {},
    "title": "Malicious ERC20 token",
    "version": 1
  },
  "userdoc": {
    "kind": "user",
    "methods": {},
    "version": 1
  }
}