{
  "contractName": "FaucetToken",
  "abi": [
    {
      "inputs": [
        {
          "internalType": "uint256",
          "name": "_initialAmount",
          "type": "uint256"
        },
        {
          "internalType": "string",
          "name": "_tokenName",
          "type": "string"
        },
        {
          "internalType": "uint8",
          "name": "_decimalUnits",
          "type": "uint8"
        },
        {
          "internalType": "string",
          "name": "_tokenSymbol",
          "type": "string"
        }
      ],
      "stateMutability": "nonpayable",
      "type": "constructor"
    },
    {
      "anonymous": false,
      "inputs": [
        {
          "indexed": true,
          "internalType": "address",
          "name": "owner",
          "type": "address"
        },
        {
          "indexed": true,
          "internalType": "address",
          "name": "spender",
          "type": "address"
        },
        {
          "indexed": false,
          "internalType": "uint256",
          "name": "value",
          "type": "uint256"
        }
      ],
      "name": "Approval",
      "type": "event"
    },
    {
      "anonymous": false,
      "inputs": [
        {
          "indexed": true,
          "internalType": "address",
          "name": "from",
          "type": "address"
        },
        {
          "indexed": true,
          "internalType": "address",
          "name": "to",
          "type": "address"
        },
        {
          "indexed": false,
          "internalType": "uint256",
          "name": "value",
          "type": "uint256"
        }
      ],
      "name": "Transfer",
      "type": "event"
    },
    {
      "inputs": [
        {
          "internalType": "address",
          "name": "",
          "type": "address"
        },
        {
          "internalType": "address",
          "name": "",
          "type": "address"
        }
      ],
      "name": "allowance",
      "outputs": [
        {
          "internalType": "uint256",
          "name": "",
          "type": "uint256"
        }
      ],
      "stateMutability": "view",
      "type": "function"
    },
    {
      "inputs": [
        {
          "internalType": "address",
          "name": "_spender",
          "type": "address"
        },
        {
          "internalType": "uint256",
          "name": "amount",
          "type": "uint256"
        }
      ],
      "name": "approve",
      "outputs": [
        {
          "internalType": "bool",
          "name": "",
          "type": "bool"
        }
      ],
      "stateMutability": "nonpayable",
      "type": "function"
    },
    {
      "inputs": [
        {
          "internalType": "address",
          "name": "",
          "type": "address"
        }
      ],
      "name": "balanceOf",
      "outputs": [
        {
          "internalType": "uint256",
          "name": "",
          "type": "uint256"
        }
      ],
      "stateMutability": "view",
      "type": "function"
    },
    {
      "inputs": [],
      "name": "decimals",
      "outputs": [
        {
          "internalType": "uint8",
          "name": "",
          "type": "uint8"
        }
      ],
      "stateMutability": "view",
      "type": "function"
    },
    {
      "inputs": [],
      "name": "name",
      "outputs": [
        {
          "internalType": "string",
          "name": "",
          "type": "string"
        }
      ],
      "stateMutability": "view",
      "type": "function"
    },
    {
      "inputs": [],
      "name": "symbol",
      "outputs": [
        {
          "internalType": "string",
          "name": "",
          "type": "string"
        }
      ],
      "stateMutability": "view",
      "type": "function"
    },
    {
      "inputs": [],
      "name": "totalSupply",
      "outputs": [
        {
          "internalType": "uint256",
          "name": "",
          "type": "uint256"
        }
      ],
      "stateMutability": "view",
      "type": "function"
    },
    {
      "inputs": [
        {
          "internalType": "address",
          "name": "dst",
          "type": "address"
        },
        {
          "internalType": "uint256",
          "name": "amount",
          "type": "uint256"
        }
      ],
      "name": "transfer",
      "outputs": [
        {
          "internalType": "bool",
          "name": "",
          "type": "bool"
        }
      ],
      "stateMutability": "nonpayable",
      "type": "function"
    },
    {
      "inputs": [
        {
          "internalType": "address",
          "name": "src",
          "type": "address"
        },
        {
          "internalType": "address",
          "name": "dst",
          "type": "address"
        },
        {
          "internalType": "uint256",
          "name": "amount",
          "type": "uint256"
        }
      ],
      "name": "transferFrom",
      "outputs": [
        {
          "internalType": "bool",
          "name": "",
          "type": "bool"
        }
      ],
      "stateMutability": "nonpayable",
      "type": "function"
    },
    {
      "inputs": [
        {
          "internalType": "address",
          "name": "_owner",
          "type": "address"
        },
        {
          "internalType": "uint256",
          "name": "value",
          "type": "uint256"
        }
      ],
      "name": "allocateTo",
      "outputs": [],
      "stateMutability": "nonpayable",
      "type": "function"
    }
  ],
  "bytecode": "0x608060405234620003395762000ba0803803806200001d816200033e565b9283398101608082820312620003395781516020808401519093916001600160401b0391828111620003395784620000579185016200037a565b9260408101519460ff86168096036200033957606082015184811162000339576200008392016200037a565b8160035560009133835260058752604083205583519183831162000243578054926001958685811c951680156200032e575b898610146200031a578190601f95868111620002c7575b5089908683116001146200026357849262000257575b5050600019600383901b1c191690861b1781555b8151938411620002435784548581811c9116801562000238575b888210146200022457838111620001dc575b508692841160011462000176578394959650926200016a575b5050600019600383901b1c191690821b1790555b60ff1960025416176002556040516107a29081620003fe8239f35b0151905038806200013b565b9190601f1984169685845280842093905b888210620001c45750508385969710620001aa575b505050811b0190556200014f565b015160001960f88460031b161c191690553880806200019c565b80878596829496860151815501950193019062000187565b8582528782208480870160051c8201928a88106200021a575b0160051c019086905b8281106200020e57505062000122565b838155018690620001fe565b92508192620001f5565b634e487b7160e01b82526022600452602482fd5b90607f169062000110565b634e487b7160e01b81526041600452602490fd5b015190503880620000e2565b8480528a85208994509190601f198416865b8d828210620002b0575050841162000296575b505050811b018155620000f6565b015160001960f88460031b161c1916905538808062000288565b8385015186558c9790950194938401930162000275565b9091508380528984208680850160051c8201928c861062000310575b918a91869594930160051c01915b82811062000301575050620000cc565b8681558594508a9101620002f1565b92508192620002e3565b634e487b7160e01b83526022600452602483fd5b94607f1694620000b5565b600080fd5b6040519190601f01601f191682016001600160401b038111838210176200036457604052565b634e487b7160e01b600052604160045260246000fd5b81601f8201121562000339578051906001600160401b0382116200036457602090620003af601f8401601f191683016200033e565b93838552828483010111620003395782906000905b83838310620003e457505011620003da57505090565b6000918301015290565b81935082819392010151828288010152018391620003c456fe6080604081815260048036101561001557600080fd5b600092833560e01c90816306fdde03146105695750806308bca566146104ea578063095ea7b31461047c57806318160ddd1461045d57806323b872dd14610306578063313ce567146102e457806370a08231146102ac57806395d89b411461018b578063a9059cbb146100dc5763dd62ed3e1461009157600080fd5b346100d857816003193601126100d85760209282916100ae6106b3565b6100b66106ce565b6001600160a01b03918216845291865283832091168252845220549051908152f35b8280fd5b5050346101875780600319360112610187576100f66106b3565b9160243533825260209360058552610113848420548311156106e4565b33835260058552610127828585205461073f565b338452600586528484205560018060a01b0316918281528361014c8382842054610760565b9184815260058752205582519081527fddf252ad1be2c89b69c2b068fc378daa952ba7f163c4a11628f55a4df523b3ef843392a35160018152f35b5080fd5b5091903461018757816003193601126101875780519082600180549081811c908083169283156102a2575b602093848410811461028f57838852908115610273575060011461021e575b505050829003601f01601f191682019267ffffffffffffffff84118385101761020b575082918261020792528261065c565b0390f35b634e487b7160e01b815260418552602490fd5b8087529192508591837fb10e2d527612073b26eecdfd717e6a320cf44b4afac2b0732d9fcbe2b7fa0cf65b83851061025f57505050508301013880806101d5565b805488860183015293019284908201610249565b60ff1916878501525050151560051b84010190503880806101d5565b634e487b7160e01b895260228a52602489fd5b91607f16916101b6565b5050346101875760203660031901126101875760209181906001600160a01b036102d46106b3565b1681526005845220549051908152f35b50503461018757816003193601126101875760209060ff600254169051908152f35b50913461045a57606036600319011261045a576103216106b3565b6103296106ce565b906044359060018060a01b0380911692838552602096808852868620338752885286862054841161040657917fddf252ad1be2c89b69c2b068fc378daa952ba7f163c4a11628f55a4df523b3ef9391889386885260058552610390898920548511156106e4565b86885280855288882033895285526103ab848a8a205461073f565b908789528552888820338952855288882055858752600584526103d1838989205461073f565b86885260058552888820551694858152866103ef8382842054610760565b918781526005855220558551908152a35160018152f35b865162461bcd60e51b8152908101889052602860248201527f45524332303a207472616e7366657220616d6f756e74206578636565647320616044820152676c6c6f77616e636560c01b6064820152608490fd5b80fd5b5050346101875781600319360112610187576020906003549051908152f35b50346100d857816003193601126100d8576020926104986106b3565b918360243592839233825287528181209460018060a01b0316948582528752205582519081527f8c5be1e5ebec7d5bd14f71427d1e84f3dd0314c0f7b2291e5b200ac8c7c3b925843392a35160018152f35b5050346101875780600319360112610187576105046106b3565b6001600160a01b031680835260056020528183208054602435919061052a908390610760565b905561053881600354610760565b60035582519081527fddf252ad1be2c89b69c2b068fc378daa952ba7f163c4a11628f55a4df523b3ef60203092a351f35b84915083346100d857826003193601126100d857828354600181811c90808316928315610652575b602093848410811461028f5783885290811561063657506001146105e157505050829003601f01601f191682019267ffffffffffffffff84118385101761020b575082918261020792528261065c565b8680529192508591837f290decd9548b62a8d60345a988386fc84ba6bc95484008f6362f93160ef3e5635b83851061062257505050508301018580806101d5565b80548886018301529301928490820161060c565b60ff1916878501525050151560051b84010190508580806101d5565b91607f1691610591565b919091602080825283519081818401526000945b82861061069d575050806040939411610690575b601f01601f1916010190565b6000838284010152610684565b8581018201518487016040015294810194610670565b600435906001600160a01b03821682036106c957565b600080fd5b602435906001600160a01b03821682036106c957565b156106eb57565b60405162461bcd60e51b815260206004820152602660248201527f45524332303a207472616e7366657220616d6f756e7420657863656564732062604482015265616c616e636560d01b6064820152608490fd5b81811061074a570390565b634e487b7160e01b600052601160045260246000fd5b8119811161074a57019056fea2646970667358221220e67746a2265dd008ae56198e9e1b8159d8cb4dff3d763f5d7aca1b437dbde68e64736f6c634300080f0033",
  "immutableReferences": {},
  "source": "// SPDX-License-Identifier: BUSL-1.1\npragma solidity 0.8.15;\n\n/**\n * @title Standard ERC20 token\n * @dev Implementation of the basic standard token.\n *  See https://github.com/ethereum/EIPs/issues/20\n */\ncontract StandardToken {\n    string public name;\n    string public symbol;\n    uint8 public decimals;\n    uint256 public totalSupply;\n    mapping (address => mapping (address => uint256)) public allowance;\n    mapping(address => uint256) public balanceOf;\n    event Approval(address indexed owner, address indexed spender, uint256 value);\n    event Transfer(address indexed from, address indexed to, uint256 value);\n\n    constructor(uint256 _initialAmount, string memory _tokenName, uint8 _decimalUnits, string memory _tokenSymbol) {\n        totalSupply = _initialAmount;\n        balanceOf[msg.sender] = _initialAmount;\n        name = _tokenName;\n        symbol = _tokenSymbol;\n        decimals = _decimalUnits;\n    }\n\n    function transfer(address dst, uint256 amount) external virtual returns (bool) {\n        require(amount <= balanceOf[msg.sender], \"ERC20: transfer amount exceeds balance\");\n        balanceOf[msg.sender] = balanceOf[msg.sender] - amount;\n        balanceOf[dst] = balanceOf[dst] + amount;\n        emit Transfer(msg.sender, dst, amount);\n        return true;\n    }\n\n    function transferFrom(address src, address dst, uint256 amount) external virtual returns (bool) {\n        require(amount <= allowance[src][msg.sender], \"ERC20: transfer amount exceeds allowance\");\n        require(amount <= balanceOf[src], \"ERC20: transfer amount exceeds balance\");\n        allowance[src][msg.sender] = allowance[src][msg.sender] - amount;\n        balanceOf[src] = balanceOf[src] - amount;\n        balanceOf[dst] = balanceOf[dst] + amount;\n        emit Transfer(src, dst, amount);\n        return true;\n    }\n\n    function approve(address _spender, uint256 amount) external returns (bool) {\n        allowance[msg.sender][_spender] = amount;\n        emit Approval(msg.sender, _spender, amount);\n        return true;\n    }\n}\n\n/**\n * @title The Compound Faucet Test Token\n * @author Compound\n * @notice A simple test token that lets anyone get more of it.\n */\ncontract FaucetToken is StandardToken {\n    constructor(uint256 _initialAmount, string memory _tokenName, uint8 _decimalUnits, string memory _tokenSymbol)\n        StandardToken(_initialAmount, _tokenName, _decimalUnits, _tokenSymbol) {\n    }\n\n    function allocateTo(address _owner, uint256 value) public {\n        balanceOf[_owner] += value;\n        totalSupply += value;\n        emit Transfer(address(this), _owner, value);\n    }\n}\n",
  "sourcePath": "/home/stephensb/sb-labs/solidity-contracts/contracts/comet/contracts/test/FaucetToken.sol",
  "compiler": {
    "name": "solc",
    "version": "0.8.15+commit.e14f2714.Emscripten.clang"
  },
  "schemaVersion": "3.4.12",
  "updatedAt": "2023-11-30T22:41:29.724Z",
  "devdoc": {
    "author": "Compound",
    "kind": "dev",
    "methods": {},
    "title": "The Compound Faucet Test Token",
    "version": 1
  },
  "userdoc": {
    "kind": "user",
    "methods": {},
    "notice": "A simple test token that lets anyone get more of it.",
    "version": 1
  }
}