{
  "contractName": "Fauceteer",
  "abi": [
    {
      "inputs": [],
      "name": "BalanceTooLow",
      "type": "error"
    },
    {
      "inputs": [],
      "name": "RequestedTooFrequently",
      "type": "error"
    },
    {
      "inputs": [],
      "name": "TransferFailed",
      "type": "error"
    },
    {
      "inputs": [
        {
          "internalType": "address",
          "name": "",
          "type": "address"
        },
        {
          "internalType": "address",
          "name": "",
          "type": "address"
        }
      ],
      "name": "lastReceived",
      "outputs": [
        {
          "internalType": "uint256",
          "name": "",
          "type": "uint256"
        }
      ],
      "stateMutability": "view",
      "type": "function"
    },
    {
      "inputs": [
        {
          "internalType": "address",
          "name": "token",
          "type": "address"
        }
      ],
      "name": "drip",
      "outputs": [],
      "stateMutability": "nonpayable",
      "type": "function"
    }
  ],
  "bytecode": "0x60808060405234610016576102a4908161001c8239f35b600080fdfe608060408181526004918236101561001657600080fd5b600092833560e01c91826367a5cd061461008f57505063978c5db51461003b57600080fd5b3461008b578060031936011261008b5761005361021b565b6001600160a01b03602435818116929083900361008757168352602083815282842091845290815291819020549051908152f35b8480fd5b5080fd5b909150346101985760209081600319360112610087576001600160a01b036100b561021b565b6370a0823160e01b8352308584015216908281602481855afa9081156102115786916101e0575b5080156101d0573386528583528486208287528352848620548042106101bd5762015180904203106101ad5761271060448492338952888452878920858a52845242888a2055888851958694859363a9059cbb60e01b8552338b8601520460248401525af19182156101a3578592610168575b50501561015a575051f35b90516312171d8360e31b8152fd5b90809250813d831161019c575b61017f8183610236565b810103126101985751801515810361019857388061014f565b8380fd5b503d610175565b84513d87823e3d90fd5b84516362e06c7b60e11b81528490fd5b634e487b7160e01b875260118552602487fd5b84516351940b3960e11b81528490fd5b90508281813d831161020a575b6101f78183610236565b810103126102065751386100dc565b8580fd5b503d6101ed565b85513d88823e3d90fd5b600435906001600160a01b038216820361023157565b600080fd5b90601f8019910116810190811067ffffffffffffffff82111761025857604052565b634e487b7160e01b600052604160045260246000fdfea26469706673582212207fdda4413deba3a7eb1170409d02016a64377407046c3a3928322ead8b8d0a1264736f6c634300080f0033",
  "immutableReferences": {},
  "source": "// SPDX-License-Identifier: BUSL-1.1\npragma solidity 0.8.15;\n\nimport \"../ERC20.sol\";\n\ncontract Fauceteer {\n    /// @notice Mapping of user address -> asset address -> last time the user\n    /// received that asset\n    mapping(address => mapping(address => uint)) public lastReceived;\n\n    /* errors */\n    error BalanceTooLow();\n    error RequestedTooFrequently();\n    error TransferFailed();\n\n    function drip(address token) public {\n        uint balance = ERC20(token).balanceOf(address(this));\n        if (balance <= 0) revert BalanceTooLow();\n\n        if (block.timestamp - lastReceived[msg.sender][token] < 1 days) revert RequestedTooFrequently();\n\n        lastReceived[msg.sender][token] = block.timestamp;\n\n        bool success = ERC20(token).transfer(msg.sender, balance / 10000); // 0.01%\n        if (!success) revert TransferFailed();\n    }\n}",
  "sourcePath": "/home/stephensb/sb-labs/solidity-contracts/contracts/comet/contracts/test/Fauceteer.sol",
  "compiler": {
    "name": "solc",
    "version": "0.8.15+commit.e14f2714.Emscripten.clang"
  },
  "schemaVersion": "3.4.12",
  "updatedAt": "2023-11-30T22:41:29.728Z",
  "devdoc": {
    "kind": "dev",
    "methods": {},
    "version": 1
  },
  "userdoc": {
    "kind": "user",
    "methods": {
      "lastReceived(address,address)": {
        "notice": "Mapping of user address -> asset address -> last time the user received that asset"
      }
    },
    "version": 1
  }
}