{
  "contractName": "FeedViewer",
  "abi": [
    {
      "inputs": [
        {
          "internalType": "address",
          "name": "_userRegister",
          "type": "address"
        },
        {
          "internalType": "address",
          "name": "_feed",
          "type": "address"
        }
      ],
      "stateMutability": "nonpayable",
      "type": "constructor"
    },
    {
      "inputs": [
        {
          "internalType": "uint256",
          "name": "_postId",
          "type": "uint256"
        }
      ],
      "name": "retrieve_post",
      "outputs": [
        {
          "components": [
            {
              "internalType": "address",
              "name": "_user",
              "type": "address"
            },
            {
              "internalType": "string",
              "name": "_cid",
              "type": "string"
            },
            {
              "internalType": "uint256",
              "name": "_index",
              "type": "uint256"
            },
            {
              "internalType": "uint256",
              "name": "_totalComments",
              "type": "uint256"
            },
            {
              "internalType": "uint256",
              "name": "_totalDonations",
              "type": "uint256"
            },
            {
              "internalType": "uint256",
              "name": "_totalDonated",
              "type": "uint256"
            },
            {
              "internalType": "uint256",
              "name": "_reposts",
              "type": "uint256"
            },
            {
              "internalType": "uint256",
              "name": "_block",
              "type": "uint256"
            },
            {
              "internalType": "uint256",
              "name": "_timestamp",
              "type": "uint256"
            }
          ],
          "internalType": "struct FeedViewer.post_info",
          "name": "_post",
          "type": "tuple"
        }
      ],
      "stateMutability": "view",
      "type": "function"
    },
    {
      "inputs": [
        {
          "internalType": "address",
          "name": "_following",
          "type": "address"
        },
        {
          "internalType": "uint256",
          "name": "_start",
          "type": "uint256"
        },
        {
          "internalType": "uint256",
          "name": "_end",
          "type": "uint256"
        }
      ],
      "name": "retrieve_posts",
      "outputs": [
        {
          "components": [
            {
              "internalType": "address",
              "name": "_user",
              "type": "address"
            },
            {
              "internalType": "string",
              "name": "_cid",
              "type": "string"
            },
            {
              "internalType": "uint256",
              "name": "_index",
              "type": "uint256"
            },
            {
              "internalType": "uint256",
              "name": "_totalComments",
              "type": "uint256"
            },
            {
              "internalType": "uint256",
              "name": "_totalDonations",
              "type": "uint256"
            },
            {
              "internalType": "uint256",
              "name": "_totalDonated",
              "type": "uint256"
            },
            {
              "internalType": "uint256",
              "name": "_reposts",
              "type": "uint256"
            },
            {
              "internalType": "uint256",
              "name": "_block",
              "type": "uint256"
            },
            {
              "internalType": "uint256",
              "name": "_timestamp",
              "type": "uint256"
            }
          ],
          "internalType": "struct FeedViewer.post_info[]",
          "name": "_posts",
          "type": "tuple[]"
        }
      ],
      "stateMutability": "view",
      "type": "function"
    },
    {
      "inputs": [
        {
          "internalType": "uint256",
          "name": "_start",
          "type": "uint256"
        },
        {
          "internalType": "uint256",
          "name": "_end",
          "type": "uint256"
        }
      ],
      "name": "retrieve_posts",
      "outputs": [
        {
          "components": [
            {
              "internalType": "address",
              "name": "_user",
              "type": "address"
            },
            {
              "internalType": "string",
              "name": "_cid",
              "type": "string"
            },
            {
              "internalType": "uint256",
              "name": "_index",
              "type": "uint256"
            },
            {
              "internalType": "uint256",
              "name": "_totalComments",
              "type": "uint256"
            },
            {
              "internalType": "uint256",
              "name": "_totalDonations",
              "type": "uint256"
            },
            {
              "internalType": "uint256",
              "name": "_totalDonated",
              "type": "uint256"
            },
            {
              "internalType": "uint256",
              "name": "_reposts",
              "type": "uint256"
            },
            {
              "internalType": "uint256",
              "name": "_block",
              "type": "uint256"
            },
            {
              "internalType": "uint256",
              "name": "_timestamp",
              "type": "uint256"
            }
          ],
          "internalType": "struct FeedViewer.post_info[]",
          "name": "_posts",
          "type": "tuple[]"
        }
      ],
      "stateMutability": "view",
      "type": "function"
    },
    {
      "inputs": [
        {
          "internalType": "uint256",
          "name": "_postId",
          "type": "uint256"
        },
        {
          "internalType": "uint256",
          "name": "_commentId",
          "type": "uint256"
        }
      ],
      "name": "retrieve_comment",
      "outputs": [
        {
          "components": [
            {
              "internalType": "address",
              "name": "_user",
              "type": "address"
            },
            {
              "internalType": "string",
              "name": "_cid",
              "type": "string"
            },
            {
              "internalType": "uint256",
              "name": "_totalDonations",
              "type": "uint256"
            },
            {
              "internalType": "uint256",
              "name": "_totalDonated",
              "type": "uint256"
            },
            {
              "internalType": "uint256",
              "name": "_block",
              "type": "uint256"
            },
            {
              "internalType": "uint256",
              "name": "_timestamp",
              "type": "uint256"
            }
          ],
          "internalType": "struct FeedViewer.comment_info",
          "name": "_comment",
          "type": "tuple"
        }
      ],
      "stateMutability": "view",
      "type": "function"
    },
    {
      "inputs": [
        {
          "internalType": "address",
          "name": "_following",
          "type": "address"
        },
        {
          "internalType": "uint256",
          "name": "_postNum",
          "type": "uint256"
        },
        {
          "internalType": "uint256",
          "name": "_start",
          "type": "uint256"
        },
        {
          "internalType": "uint256",
          "name": "_end",
          "type": "uint256"
        }
      ],
      "name": "retrieve_comments",
      "outputs": [
        {
          "components": [
            {
              "internalType": "address",
              "name": "_user",
              "type": "address"
            },
            {
              "internalType": "string",
              "name": "_cid",
              "type": "string"
            },
            {
              "internalType": "uint256",
              "name": "_totalDonations",
              "type": "uint256"
            },
            {
              "internalType": "uint256",
              "name": "_totalDonated",
              "type": "uint256"
            },
            {
              "internalType": "uint256",
              "name": "_block",
              "type": "uint256"
            },
            {
              "internalType": "uint256",
              "name": "_timestamp",
              "type": "uint256"
            }
          ],
          "internalType": "struct FeedViewer.comment_info[]",
          "name": "_comments",
          "type": "tuple[]"
        }
      ],
      "stateMutability": "view",
      "type": "function"
    },
    {
      "inputs": [
        {
          "internalType": "uint256",
          "name": "_postId",
          "type": "uint256"
        },
        {
          "internalType": "uint256",
          "name": "_start",
          "type": "uint256"
        },
        {
          "internalType": "uint256",
          "name": "_end",
          "type": "uint256"
        }
      ],
      "name": "retrieve_comments",
      "outputs": [
        {
          "components": [
            {
              "internalType": "address",
              "name": "_user",
              "type": "address"
            },
            {
              "internalType": "string",
              "name": "_cid",
              "type": "string"
            },
            {
              "internalType": "uint256",
              "name": "_totalDonations",
              "type": "uint256"
            },
            {
              "internalType": "uint256",
              "name": "_totalDonated",
              "type": "uint256"
            },
            {
              "internalType": "uint256",
              "name": "_block",
              "type": "uint256"
            },
            {
              "internalType": "uint256",
              "name": "_timestamp",
              "type": "uint256"
            }
          ],
          "internalType": "struct FeedViewer.comment_info[]",
          "name": "_comments",
          "type": "tuple[]"
        }
      ],
      "stateMutability": "view",
      "type": "function"
    },
    {
      "inputs": [
        {
          "internalType": "uint256",
          "name": "_postId",
          "type": "uint256"
        },
        {
          "internalType": "uint256",
          "name": "_donationId",
          "type": "uint256"
        }
      ],
      "name": "retrieve_post_donation",
      "outputs": [
        {
          "components": [
            {
              "internalType": "address",
              "name": "_user",
              "type": "address"
            },
            {
              "internalType": "string",
              "name": "_cid",
              "type": "string"
            },
            {
              "internalType": "uint256",
              "name": "_value",
              "type": "uint256"
            },
            {
              "internalType": "uint256",
              "name": "_block",
              "type": "uint256"
            },
            {
              "internalType": "uint256",
              "name": "_timestamp",
              "type": "uint256"
            }
          ],
          "internalType": "struct FeedViewer.donation_info",
          "name": "_dono",
          "type": "tuple"
        }
      ],
      "stateMutability": "view",
      "type": "function"
    },
    {
      "inputs": [
        {
          "internalType": "uint256",
          "name": "_postId",
          "type": "uint256"
        },
        {
          "internalType": "uint256",
          "name": "_start",
          "type": "uint256"
        },
        {
          "internalType": "uint256",
          "name": "_end",
          "type": "uint256"
        }
      ],
      "name": "retrieve_post_donations",
      "outputs": [
        {
          "components": [
            {
              "internalType": "address",
              "name": "_user",
              "type": "address"
            },
            {
              "internalType": "string",
              "name": "_cid",
              "type": "string"
            },
            {
              "internalType": "uint256",
              "name": "_value",
              "type": "uint256"
            },
            {
              "internalType": "uint256",
              "name": "_block",
              "type": "uint256"
            },
            {
              "internalType": "uint256",
              "name": "_timestamp",
              "type": "uint256"
            }
          ],
          "internalType": "struct FeedViewer.donation_info[]",
          "name": "_donos",
          "type": "tuple[]"
        }
      ],
      "stateMutability": "view",
      "type": "function"
    },
    {
      "inputs": [
        {
          "internalType": "address",
          "name": "_following",
          "type": "address"
        },
        {
          "internalType": "uint256",
          "name": "_postNum",
          "type": "uint256"
        },
        {
          "internalType": "uint256",
          "name": "_start",
          "type": "uint256"
        },
        {
          "internalType": "uint256",
          "name": "_end",
          "type": "uint256"
        }
      ],
      "name": "retrieve_post_donations",
      "outputs": [
        {
          "components": [
            {
              "internalType": "address",
              "name": "_user",
              "type": "address"
            },
            {
              "internalType": "string",
              "name": "_cid",
              "type": "string"
            },
            {
              "internalType": "uint256",
              "name": "_value",
              "type": "uint256"
            },
            {
              "internalType": "uint256",
              "name": "_block",
              "type": "uint256"
            },
            {
              "internalType": "uint256",
              "name": "_timestamp",
              "type": "uint256"
            }
          ],
          "internalType": "struct FeedViewer.donation_info[]",
          "name": "_donos",
          "type": "tuple[]"
        }
      ],
      "stateMutability": "view",
      "type": "function"
    },
    {
      "inputs": [
        {
          "internalType": "uint256",
          "name": "_postId",
          "type": "uint256"
        },
        {
          "internalType": "uint256",
          "name": "_commentId",
          "type": "uint256"
        },
        {
          "internalType": "uint256",
          "name": "_donationId",
          "type": "uint256"
        }
      ],
      "name": "retrieve_comment_donation",
      "outputs": [
        {
          "components": [
            {
              "internalType": "address",
              "name": "_user",
              "type": "address"
            },
            {
              "internalType": "string",
              "name": "_cid",
              "type": "string"
            },
            {
              "internalType": "uint256",
              "name": "_value",
              "type": "uint256"
            },
            {
              "internalType": "uint256",
              "name": "_block",
              "type": "uint256"
            },
            {
              "internalType": "uint256",
              "name": "_timestamp",
              "type": "uint256"
            }
          ],
          "internalType": "struct FeedViewer.donation_info",
          "name": "_dono",
          "type": "tuple"
        }
      ],
      "stateMutability": "view",
      "type": "function"
    },
    {
      "inputs": [
        {
          "internalType": "uint256",
          "name": "_postId",
          "type": "uint256"
        },
        {
          "internalType": "uint256",
          "name": "_commentId",
          "type": "uint256"
        },
        {
          "internalType": "uint256",
          "name": "_start",
          "type": "uint256"
        },
        {
          "internalType": "uint256",
          "name": "_end",
          "type": "uint256"
        }
      ],
      "name": "retrieve_comment_donations",
      "outputs": [
        {
          "components": [
            {
              "internalType": "address",
              "name": "_user",
              "type": "address"
            },
            {
              "internalType": "string",
              "name": "_cid",
              "type": "string"
            },
            {
              "internalType": "uint256",
              "name": "_value",
              "type": "uint256"
            },
            {
              "internalType": "uint256",
              "name": "_block",
              "type": "uint256"
            },
            {
              "internalType": "uint256",
              "name": "_timestamp",
              "type": "uint256"
            }
          ],
          "internalType": "struct FeedViewer.donation_info[]",
          "name": "_donos",
          "type": "tuple[]"
        }
      ],
      "stateMutability": "view",
      "type": "function"
    },
    {
      "inputs": [
        {
          "internalType": "address",
          "name": "_following",
          "type": "address"
        },
        {
          "internalType": "uint256",
          "name": "_postNum",
          "type": "uint256"
        },
        {
          "internalType": "uint256",
          "name": "_commentId",
          "type": "uint256"
        },
        {
          "internalType": "uint256",
          "name": "_start",
          "type": "uint256"
        },
        {
          "internalType": "uint256",
          "name": "_end",
          "type": "uint256"
        }
      ],
      "name": "retrieve_comment_donations",
      "outputs": [
        {
          "components": [
            {
              "internalType": "address",
              "name": "_user",
              "type": "address"
            },
            {
              "internalType": "string",
              "name": "_cid",
              "type": "string"
            },
            {
              "internalType": "uint256",
              "name": "_value",
              "type": "uint256"
            },
            {
              "internalType": "uint256",
              "name": "_block",
              "type": "uint256"
            },
            {
              "internalType": "uint256",
              "name": "_timestamp",
              "type": "uint256"
            }
          ],
          "internalType": "struct FeedViewer.donation_info[]",
          "name": "_donos",
          "type": "tuple[]"
        }
      ],
      "stateMutability": "view",
      "type": "function"
    }
  ],
  "bytecode": "0x608034608557601f611e1e38819003918201601f19168301916001600160401b038311848410176089578084926040948552833981010312608557604b6020604583609d565b9201609d565b5f80546001600160a01b039384166001600160a01b03199182161790915560018054929093169116179055604051611d6d90816100b18239f35b5f80fd5b634e487b7160e01b5f52604160045260245ffd5b51906001600160a01b038216820360855756fe6080806040526004361015610012575f80fd5b5f3560e01c9081630104764b146111da57508063012ec7ab14610ed75780632fb5f9ef14610eaf57806374f0f3ff14610d305780637954b3ef14610d16578063819bcb40146109755780638e54fad914610942578063902b6d06146107af578063972e322c14610781578063b1df577814610533578063d76a1be2146102305763fe919871146100a0575f80fd5b346101be576100ae36611454565b600154604051633050766d60e11b81526001600160a01b0390911690602081600481855afa9081156101f1575f916101fc575b506040516330994c1960e11b8152600481018590526024810184905260448101919091529060209082908180606481015b03915afa9081156101f1575f916101c2575b50156101be5761013482826116d4565b600181018091116101aa5761014890611ce8565b915f5b61015582846116d4565b811161019857816101908261017561017061015595856116e1565b611b71565b61017f828961178e565b5261018a818861178e565b50611780565b91505061014b565b604051806101a686826115d2565b0390f35b634e487b7160e01b5f52601160045260245ffd5b5f80fd5b6101e4915060203d6020116101ea575b6101dc818361169a565b8101906116bc565b5f610124565b503d6101d2565b6040513d5f823e3d90fd5b90506020813d602011610228575b816102176020938361169a565b810103126101be57516101126100e1565b3d915061020a565b346101be5761023e366114d4565b5f54604051634209fff160e01b81526001600160a01b0380871660048301819052949693959394939260209183916024918391165afa80156101f15761028b915f91610514575b506117b6565b6001546040516308c53cf360e31b815260048101939093526001600160a01b031691602081602481865afa9081156101f1575f916104de575b5090610308936102d76020938310611802565b604051630e545a2560e21b81526001600160a01b039091166004820152602481019190915292839081906044820190565b0381845afa9182156101f1575f926104aa575b50604051632f7c6a6960e21b815260048101839052602081602481855afa9081156101f1575f9161048b575b50156101be576040516327c520b960e21b815260048101839052602081602481855afa9081156101f1575f91610457575b506040516330994c1960e11b8152600481018690526024810185905260448101919091529060209082908180606481015b03915afa9081156101f1575f91610438575b50156101be576103cb83836116d4565b600181018091116101aa576103df90611731565b925f5b6103ec82856116d4565b811161042a57816104228261040d6104076103ec95856116e1565b87611c89565b610417828a61178e565b5261018a818961178e565b9150506103e2565b604051806101a687826113df565b610451915060203d6020116101ea576101dc818361169a565b846103bb565b90506020813d602011610483575b816104726020938361169a565b810103126101be57516103a9610378565b3d9150610465565b6104a4915060203d6020116101ea576101dc818361169a565b85610347565b9091506020813d6020116104d6575b816104c66020938361169a565b810103126101be5751908461031b565b3d91506104b9565b9190506020823d60201161050c575b816104fa6020938361169a565b810103126101be5790516103086102c4565b3d91506104ed565b61052d915060203d6020116101ea576101dc818361169a565b87610285565b346101be5760603660031901126101be5761054c61143e565b5f54604051634209fff160e01b81526001600160a01b038084166004830181905260248035956044359590949293602092849290918391165afa80156101f15761059c915f9161076257506117b6565b6001546040516308c53cf360e31b815260048101929092526001600160a01b031690602081602481855afa9081156101f1575f9161072f575b506040516330994c1960e11b815260048101869052602481018590526044810191909152602081606481855afa9081156101f1575f91610710575b50156101be5761062084846116d4565b600181018091116101aa5761063490611ce8565b935f5b61064182866116d4565b81116107025780602061065761068793856116e1565b604051630e545a2560e21b81526001600160a01b0388166004820152602481019190915292839081906044820190565b0381875afa80156101f15783925f916106ca575b5061064192916106ad6106c292611b71565b6106b7828b61178e565b5261018a818a61178e565b915050610637565b9250506020823d82116106fa575b816106e56020938361169a565b810103126101be57905182919061064161069b565b3d91506106d8565b604051806101a688826115d2565b610729915060203d6020116101ea576101dc818361169a565b85610610565b90506020813d60201161075a575b8161074a6020938361169a565b810103126101be575160206105d5565b3d915061073d565b61077b915060203d6020116101ea576101dc818361169a565b86610285565b346101be576101a661079b61079536611454565b90611c89565b604051918291602083526020830190611399565b346101be576107bd366114ba565b909160018060a01b0360015416604051632f7c6a6960e21b8152826004820152602081602481855afa9081156101f1575f91610923575b50156101be5760405163fb18cd6360e01b815260048101839052602081602481855afa9081156101f1575f916108ef575b506040516330994c1960e11b8152600481018690526024810185905260448101919091529060209082908180606481015b03915afa9081156101f1575f916108d0575b50156101be5761087883836116d4565b600181018091116101aa5761088c90611ade565b925f5b61089982856116d4565b81116108c257816108ba8261040d6108b461089995856116e1565b876118dc565b91505061088f565b604051806101a68782611502565b6108e9915060203d6020116101ea576101dc818361169a565b84610868565b90506020813d60201161091b575b8161090a6020938361169a565b810103126101be5751610856610825565b3d91506108fd565b61093c915060203d6020116101ea576101dc818361169a565b856107f4565b346101be5760203660031901126101be576101a6610961600435611b71565b604051918291602083526020830190611561565b346101be57610983366114d4565b5f54604051634209fff160e01b81526001600160a01b03868116600483018190529395939260209183916024918391165afa80156101f1576109cb915f9161051457506117b6565b6001546040516308c53cf360e31b815260048101929092526001600160a01b031690602081602481855afa80156101f1575f90610ce2575b610a0f91508310611802565b604051630e545a2560e21b81526001600160a01b038616600482015260248101839052602081604481855afa9081156101f1575f91610cb0575b5060405190632f7c6a6960e21b82526004820152602081602481855afa9081156101f1575f91610c91575b50156101be57604051630e545a2560e21b81526001600160a01b038616600482015260248101839052602081604481855afa9081156101f1575f91610c5f575b506040519063fb18cd6360e01b82526004820152602081602481855afa9081156101f1575f91610c2c575b506040516330994c1960e11b815260048101859052602481018690526044810191909152602081606481855afa9081156101f1575f91610c0d575b50156101be57610b2a83856116d4565b600181018091116101aa57610b3e90611ade565b945f5b610b4b85876116d4565b8111610bff57604051630e545a2560e21b81526001600160a01b03831660048201526024810185905290602082604481875afa80156101f15786925f91610bc7575b5081610baa610bbf92610ba48695610b4b976116e1565b906118dc565b610bb4828c61178e565b5261018a818b61178e565b915050610b41565b9250506020823d8211610bf7575b81610be26020938361169a565b810103126101be579051859190610b4b610b8d565b3d9150610bd5565b604051806101a68982611502565b610c26915060203d6020116101ea576101dc818361169a565b86610b1a565b90506020813d602011610c57575b81610c476020938361169a565b810103126101be57516020610adf565b3d9150610c3a565b90506020813d602011610c89575b81610c7a6020938361169a565b810103126101be575186610ab4565b3d9150610c6d565b610caa915060203d6020116101ea576101dc818361169a565b86610a74565b90506020813d602011610cda575b81610ccb6020938361169a565b810103126101be575186610a49565b3d9150610cbe565b506020813d602011610d0e575b81610cfc6020938361169a565b810103126101be57610a0f9051610a03565b3d9150610cef565b346101be576101a661079b610d2a366114ba565b91611a1b565b346101be57610d3e366114ba565b909160018060a01b0360015416604051632f7c6a6960e21b8152826004820152602081602481855afa9081156101f1575f91610e90575b50156101be576040516327c520b960e21b815260048101839052602081602481855afa9081156101f1575f91610e5c575b506040516330994c1960e11b8152600481018690526024810185905260448101919091529060209082908180606481015b03915afa9081156101f1575f91610e3d575b50156101be57610df983836116d4565b600181018091116101aa57610e0d90611731565b925f5b610e1a82856116d4565b811161042a5781610e358261040d610407610e1a95856116e1565b915050610e10565b610e56915060203d6020116101ea576101dc818361169a565b84610de9565b90506020813d602011610e88575b81610e776020938361169a565b810103126101be5751610dd7610da6565b3d9150610e6a565b610ea9915060203d6020116101ea576101dc818361169a565b85610d75565b346101be576101a6610ec3610ba436611454565b60405191829160208352602083019061146a565b346101be5760a03660031901126101be57610ef061143e565b5f54604051634209fff160e01b81526001600160a01b038084166004830181905260643594608435946044359391929160248035926020928892918391165afa9485156101f157610f8495610f4b915f916111bb57506117b6565b600154604051630e545a2560e21b81526001600160a01b0394851660048201526024810183905295931692602090869081906044820190565b0381865afa9485156101f1575f95611187575b50604051916308c53cf360e31b83526004830152602082602481865afa9081156101f1575f91611151575b610fcd925010611802565b60405163c5fe371960e01b8152836004820152826024820152602081604481855afa9081156101f1575f91611132575b50156101be5760405163e45b6c0f60e01b8152836004820152826024820152602081604481855afa9081156101f1575f916110fe575b506040516330994c1960e11b8152600481018790526024810186905260448101919091529060209082908180606481015b03915afa9081156101f1575f916110df575b50156101be5761108684846116d4565b600181018091116101aa5761109a90611731565b935f5b6110a782866116d4565b81116110d157816110c9826106ad6110c26110a795856116e1565b8789611a1b565b91505061109d565b604051806101a688826113df565b6110f8915060203d6020116101ea576101dc818361169a565b85611076565b90506020813d60201161112a575b816111196020938361169a565b810103126101be5751611064611033565b3d915061110c565b61114b915060203d6020116101ea576101dc818361169a565b86610ffd565b90506020823d60201161117f575b8161116c6020938361169a565b810103126101be57610fcd915190610fc2565b3d915061115f565b9094506020813d6020116111b3575b816111a36020938361169a565b810103126101be57519387610f97565b3d9150611196565b6111d4915060203d6020116101ea576101dc818361169a565b89610285565b346101be5760803660031901126101be5760015463c5fe371960e01b825260048035908301819052602480359084018190526044803594606435946001600160a01b031691602090829081855afa9081156101f1575f91611356575b50156101be5760405163e45b6c0f60e01b8152836004820152826024820152602081604481855afa9081156101f1575f91611322575b506040516330994c1960e11b8152600481018790526024810186905260448101919091529060209082908180606481015b03915afa9081156101f1575f91611303575b50156101be576112bf84846116d4565b600181018091116101aa576112d390611731565b935f5b6112e082866116d4565b81116110d157816112fb826106ad6110c26112e095856116e1565b9150506112d6565b61131c915060203d6020116101ea576101dc818361169a565b856112af565b90506020813d60201161134e575b8161133d6020938361169a565b810103126101be575161129d61126c565b3d9150611330565b61136f915060203d6020116101ea576101dc818361169a565b86611236565b805180835260209291819084018484015e5f828201840152601f01601f1916010190565b9060018060a01b0382511681526080806113c2602085015160a0602086015260a0850190611375565b936040810151604085015260608101516060850152015191015290565b602081016020825282518091526040820191602060408360051b8301019401925f915b83831061141157505050505090565b909192939460208061142f600193603f198682030187528951611399565b97019301930191939290611402565b600435906001600160a01b03821682036101be57565b60409060031901126101be576004359060243590565b9060018060a01b03825116815260a080611493602085015160c0602086015260c0850190611375565b93604081015160408501526060810151606085015260808101516080850152015191015290565b60609060031901126101be57600435906024359060443590565b60809060031901126101be576004356001600160a01b03811681036101be5790602435906044359060643590565b602081016020825282518091526040820191602060408360051b8301019401925f915b83831061153457505050505090565b9091929394602080611552600193603f19868203018752895161146a565b97019301930191939290611525565b9060018060a01b0382511681526101008061158d60208501516101206020860152610120850190611375565b9360408101516040850152606081015160608501526080810151608085015260a081015160a085015260c081015160c085015260e081015160e0850152015191015290565b602081016020825282518091526040820191602060408360051b8301019401925f915b83831061160457505050505090565b9091929394602080611622600193603f198682030187528951611561565b970193019301919392906115f5565b60a0810190811067ffffffffffffffff82111761164d57604052565b634e487b7160e01b5f52604160045260245ffd5b60c0810190811067ffffffffffffffff82111761164d57604052565b610120810190811067ffffffffffffffff82111761164d57604052565b90601f8019910116810190811067ffffffffffffffff82111761164d57604052565b908160209103126101be575180151581036101be5790565b919082039182116101aa57565b919082018092116101aa57565b67ffffffffffffffff811161164d5760051b60200190565b6040519061171382611631565b5f608083828152606060208201528260408201528260608201520152565b9061173b826116ee565b611748604051918261169a565b8281528092611759601f19916116ee565b01905f5b82811061176957505050565b602090611774611706565b8282850101520161175d565b5f1981146101aa5760010190565b80518210156117a25760209160051b010190565b634e487b7160e01b5f52603260045260245ffd5b156117bd57565b60405162461bcd60e51b815260206004820152601d60248201527f466f6c6c6f77696e67206d75737420626520726567697374657265642e0000006044820152606490fd5b1561180957565b60405162461bcd60e51b815260206004820152601060248201526f496e76616c6964205f706f73744e756d60801b6044820152606490fd5b6040519061184e82611661565b5f60a083828152606060208201528260408201528260608201528260808201520152565b51906001600160a01b03821682036101be57565b81601f820112156101be5780519067ffffffffffffffff821161164d57604051926118bb601f8401601f19166020018561169a565b828452602083830101116101be57815f9260208093018386015e8301015290565b905f906118e7611841565b50600154604051632fb5f9ef60e01b815260048101949094526024840191909152829060449082906001600160a01b03165afa80156101f1575f915f5f5f915f935f95611964575b506040519561193d87611661565b6001600160a01b03168652602086015260408501526060840152608083015260a082015290565b955050505050503d805f833e61197a818361169a565b81019060c0818303126101be5761199081611872565b9160208201519067ffffffffffffffff82116101be576119b1918301611886565b60408201516060830151608084015160a09094015193929091905f61192f565b909160a0828403126101be576119e682611872565b9260208301519067ffffffffffffffff82116101be57611a07918401611886565b916040810151916080606083015192015190565b91611a6b925f92611a2a611706565b50600154604051637954b3ef60e01b81526004810193909352602483019190915260448201929092529283916001600160a01b031690829081906064820190565b03915afa80156101f1575f915f5f905f925f94611ab3575b5060405194611a9186611631565b6001600160a01b03168552602085015260408401526060830152608082015290565b9350505050611ad491503d805f833e611acc818361169a565b8101906119d1565b919091925f611a83565b90611ae8826116ee565b611af5604051918261169a565b8281528092611b06601f19916116ee565b01905f5b828110611b1657505050565b602090611b21611841565b82828501015201611b0a565b60405190611b3a8261167d565b5f61010083828152606060208201528260408201528260608201528260808201528260a08201528260c08201528260e08201520152565b611b79611b2d565b50600154604051638e54fad960e01b815260048101929092525f90829060249082906001600160a01b03165afa80156101f1575f915f5f5f5f905f925f945f965f98611c05575b5060405198611bce8a61167d565b6001600160a01b03168952602089015260408801526060870152608086015260a085015260c084015260e083015261010082015290565b985050505050505050503d805f833e611c1e818361169a565b810190610120818303126101be57611c3581611872565b9160208201519067ffffffffffffffff82116101be57611c56918301611886565b60408201516060830151608084015160a085015160c086015160e08701516101009097015196959094919391905f611bc0565b905f90611c94611706565b506001546040516325cb8c8b60e21b815260048101949094526024840191909152829060449082906001600160a01b03165afa80156101f1575f915f5f905f925f94611ab3575060405194611a9186611631565b90611cf2826116ee565b611cff604051918261169a565b8281528092611d10601f19916116ee565b01905f5b828110611d2057505050565b602090611d2b611b2d565b82828501015201611d1456fea2646970667358221220300608fe8cf5e967325f23763451c19257a7035929530e113fd4107458047e7d64736f6c634300081c0033",
  "immutableReferences": {},
  "source": "pragma solidity ^0.8.0;\n\nimport \"../../user-register/UserRegister.sol\";\n\nimport \"../Feed.sol\";\n\ncontract FeedViewer{\n    UserRegister userRegister;\n    Feed feed;\n\n    struct post_info{\n        address _user;\n        string _cid;  \n        uint _index;\n        uint _totalComments;\n        uint _totalDonations; \n        uint _totalDonated;\n        uint _reposts;\n        uint _block;\n        uint _timestamp;\n    }\n\n    struct comment_info{\n        address _user;\n        string _cid;\n        uint _totalDonations;\n        uint _totalDonated;\n        uint _block;\n        uint _timestamp;\n    }\n\n    struct donation_info{\n        address _user;\n        string _cid;\n        uint _value;\n        uint _block;\n        uint _timestamp;\n    }\n    constructor(address _userRegister, address _feed){\n        userRegister = UserRegister(_userRegister);\n        feed = Feed(_feed);\n    }\n    // Retrieve Posts\n    function retrieve_post(uint _postId) public view returns(post_info memory _post){\n        (address _user, string memory _cid, uint _index, uint _totalComments, uint _totalDonations, uint _totalDonated, uint _reposts, uint _block, uint _timestamp) = feed.retrieve_post(_postId);\n        _post = post_info(_user, _cid, _index, _totalComments, _totalDonations, _totalDonated, _reposts, _block, _timestamp);\n    }\n    \n    function retrieve_posts(uint _start, uint _end) public view returns(post_info[] memory _posts){\n        require(feed.validStartEnd(_start, _end, feed.postId()));\n        _posts = new post_info[](_end - _start + 1);\n        for(uint i = 0; i <= _end - _start; i++){\n            _posts[i] = retrieve_post(_start + i);\n        }\n    }\n    \n    function retrieve_posts(address _following, uint _start, uint _end) public view returns(post_info[] memory _posts){\n        require(userRegister.isUser(_following), \"Following must be registered.\");\n        require(feed.validStartEnd(_start, _end, feed.userFeedLength(_following)));\n        _posts = new post_info[](_end - _start + 1);\n        for(uint i = 0; i <= _end - _start; i++){    \n            _posts[i] = retrieve_post(feed.userFeed(_following, _start + i));\n        }\n    }\n    \n    // Retrieve Comments\n    function retrieve_comment(uint _postId, uint _commentId) public view returns(comment_info memory _comment){\n        (address _user, string memory _cid, uint _totalDonations, uint _totalDonated, uint _block, uint _timestamp) = feed.retrieve_comment(_postId, _commentId);\n        _comment = comment_info(_user, _cid, _totalDonations, _totalDonated, _block, _timestamp);\n    }\n    \n    function retrieve_comments(uint _postId, uint _start, uint _end) public view returns(comment_info[] memory _comments){\n        require(feed.validPost(_postId));\n        require(feed.validStartEnd(_start, _end, feed.totalComments(_postId)));\n        _comments = new comment_info[](_end - _start + 1);\n        for(uint i = 0; i <= _end - _start; i++){\n            _comments[i] = retrieve_comment(_postId, _start + i);\n        }\n    }\n\n    function retrieve_comments(address _following, uint _postNum,  uint _start, uint _end) public view returns(comment_info[] memory _comments){\n        require(userRegister.isUser(_following), \"Following must be registered.\");\n        require(_postNum < feed.userFeedLength(_following), \"Invalid _postNum\");\n        require(feed.validPost(feed.userFeed(_following, _postNum)));\n        require(feed.validStartEnd(_start, _end, feed.totalComments(feed.userFeed(_following, _postNum))));\n        _comments = new comment_info[](_end - _start + 1);\n        for(uint i = 0; i <= _end - _start; i++){\n            _comments[i] = retrieve_comment(feed.userFeed(_following, _postNum), _start + i);\n        }\n    }\n    \n    // Retrieve Donations\n     function retrieve_post_donation(uint _postId, uint _donationId) public view returns(donation_info memory _dono){\n        (address _user, string memory _cid, uint _value, uint _block, uint _timestamp) = feed.retrieve_post_donation(_postId, _donationId);\n        _dono = donation_info(_user, _cid, _value, _block, _timestamp);\n    }\n    \n    function retrieve_post_donations(uint _postId, uint _start, uint _end) public view returns(donation_info[] memory _donos){\n        require(feed.validPost(_postId));\n        require(feed.validStartEnd(_start, _end, feed.totalDonations(_postId)));\n        _donos = new donation_info[](_end - _start + 1);\n        for(uint i = 0; i <= _end - _start; i++){\n            _donos[i] = retrieve_post_donation(_postId, _start + i);\n        }\n    }\n\n    function retrieve_post_donations(address _following, uint _postNum, uint _start, uint _end) public view returns(donation_info[] memory _donos){\n        require(userRegister.isUser(_following), \"Following must be registered.\");\n        require(_postNum < feed.userFeedLength(_following), \"Invalid _postNum\");\n        uint _postId = feed.userFeed(_following, _postNum);\n        require(feed.validPost(_postId));\n        require(feed.validStartEnd(_start, _end, feed.totalDonations(_postId)));\n        _donos = new donation_info[](_end - _start + 1);\n        for(uint i = 0; i <= _end - _start; i++){\n            _donos[i] = retrieve_post_donation(_postId, _start + i);\n        }\n    }\n\n    function retrieve_comment_donation(uint _postId, uint _commentId, uint _donationId) public view returns(donation_info memory _dono){\n        (address _user, string memory _cid, uint _value, uint _block, uint _timestamp) = feed.retrieve_comment_donation(_postId, _commentId, _donationId);\n        _dono = donation_info(_user, _cid, _value, _block, _timestamp);\n    }\n\n    function retrieve_comment_donations(uint _postId, uint _commentId, uint _start, uint _end) public view returns(donation_info[] memory _donos){\n        require(feed.validComment(_postId, _commentId));\n        require(feed.validStartEnd(_start, _end, feed.totalCommentDonations(_postId, _commentId)));\n        _donos = new donation_info[](_end - _start + 1);\n        for(uint i = 0; i <= _end - _start; i++){\n            _donos[i] = retrieve_comment_donation(_postId, _commentId, _start + i);\n        }\n    }\n\n    function retrieve_comment_donations(address _following, uint _postNum, uint _commentId, uint _start, uint _end) public view returns(donation_info[] memory _donos){\n        require(userRegister.isUser(_following), \"Following must be registered.\");\n        uint _postId = feed.userFeed(_following, _postNum);\n        require(_postNum < feed.userFeedLength(_following), \"Invalid _postNum\");\n        require(feed.validComment(_postId, _commentId));\n        require(feed.validStartEnd(_start, _end, feed.totalCommentDonations(_postId, _commentId)));\n        _donos = new donation_info[](_end - _start + 1);\n        for(uint i = 0; i <= _end - _start; i++){\n            _donos[i] = retrieve_comment_donation(_postId, _commentId, _start + i);\n        }\n    }\n}\n",
  "sourcePath": "/home/stephensb/sb-labs/solidity-contracts/contracts/feed/feed/feed-viewer/FeedViewer.sol",
  "compiler": {
    "name": "solc",
    "version": "0.8.28+commit.7893614a.Emscripten.clang"
  },
  "schemaVersion": "3.4.12",
  "updatedAt": "2024-12-18T06:10:39.491Z",
  "devdoc": {
    "kind": "dev",
    "methods": {},
    "version": 1
  },
  "userdoc": {
    "kind": "user",
    "methods": {},
    "version": 1
  }
}