{
  "contractName": "Feed",
  "abi": [
    {
      "inputs": [
        {
          "internalType": "address",
          "name": "_userRegister",
          "type": "address"
        }
      ],
      "stateMutability": "nonpayable",
      "type": "constructor"
    },
    {
      "anonymous": false,
      "inputs": [
        {
          "indexed": false,
          "internalType": "uint256",
          "name": "_postId",
          "type": "uint256"
        },
        {
          "indexed": false,
          "internalType": "uint256",
          "name": "_commentId",
          "type": "uint256"
        },
        {
          "indexed": false,
          "internalType": "address",
          "name": "_user",
          "type": "address"
        },
        {
          "indexed": false,
          "internalType": "string",
          "name": "_cid",
          "type": "string"
        }
      ],
      "name": "commented",
      "type": "event"
    },
    {
      "anonymous": false,
      "inputs": [
        {
          "indexed": false,
          "internalType": "uint256",
          "name": "_postId",
          "type": "uint256"
        },
        {
          "indexed": false,
          "internalType": "uint256",
          "name": "_commentId",
          "type": "uint256"
        },
        {
          "indexed": false,
          "internalType": "address",
          "name": "_user",
          "type": "address"
        },
        {
          "indexed": false,
          "internalType": "string",
          "name": "_cid",
          "type": "string"
        }
      ],
      "name": "donated_comment",
      "type": "event"
    },
    {
      "anonymous": false,
      "inputs": [
        {
          "indexed": false,
          "internalType": "uint256",
          "name": "_postId",
          "type": "uint256"
        },
        {
          "indexed": false,
          "internalType": "address",
          "name": "_user",
          "type": "address"
        },
        {
          "indexed": false,
          "internalType": "string",
          "name": "_cid",
          "type": "string"
        }
      ],
      "name": "donated_post",
      "type": "event"
    },
    {
      "anonymous": false,
      "inputs": [
        {
          "indexed": false,
          "internalType": "uint256",
          "name": "_postId",
          "type": "uint256"
        },
        {
          "indexed": false,
          "internalType": "address",
          "name": "_user",
          "type": "address"
        },
        {
          "indexed": false,
          "internalType": "string",
          "name": "_cid",
          "type": "string"
        }
      ],
      "name": "posted",
      "type": "event"
    },
    {
      "inputs": [
        {
          "internalType": "uint256",
          "name": "",
          "type": "uint256"
        }
      ],
      "name": "feed",
      "outputs": [
        {
          "internalType": "address",
          "name": "_user",
          "type": "address"
        },
        {
          "internalType": "string",
          "name": "_cid",
          "type": "string"
        },
        {
          "internalType": "uint256",
          "name": "_index",
          "type": "uint256"
        },
        {
          "internalType": "uint256",
          "name": "_totalComments",
          "type": "uint256"
        },
        {
          "internalType": "uint256",
          "name": "_totalDonations",
          "type": "uint256"
        },
        {
          "internalType": "uint256",
          "name": "_totalDonated",
          "type": "uint256"
        },
        {
          "internalType": "uint256",
          "name": "_reposts",
          "type": "uint256"
        },
        {
          "internalType": "uint256",
          "name": "_block",
          "type": "uint256"
        },
        {
          "internalType": "uint256",
          "name": "_timestamp",
          "type": "uint256"
        }
      ],
      "stateMutability": "view",
      "type": "function"
    },
    {
      "inputs": [],
      "name": "postId",
      "outputs": [
        {
          "internalType": "uint256",
          "name": "",
          "type": "uint256"
        }
      ],
      "stateMutability": "view",
      "type": "function"
    },
    {
      "inputs": [
        {
          "internalType": "address",
          "name": "",
          "type": "address"
        },
        {
          "internalType": "uint256",
          "name": "",
          "type": "uint256"
        }
      ],
      "name": "userFeed",
      "outputs": [
        {
          "internalType": "uint256",
          "name": "",
          "type": "uint256"
        }
      ],
      "stateMutability": "view",
      "type": "function"
    },
    {
      "inputs": [
        {
          "internalType": "uint256",
          "name": "_postId",
          "type": "uint256"
        }
      ],
      "name": "tokenURI",
      "outputs": [
        {
          "internalType": "string",
          "name": "",
          "type": "string"
        }
      ],
      "stateMutability": "view",
      "type": "function"
    },
    {
      "inputs": [
        {
          "internalType": "string",
          "name": "_cid",
          "type": "string"
        }
      ],
      "name": "submit",
      "outputs": [
        {
          "internalType": "uint256",
          "name": "_postId",
          "type": "uint256"
        }
      ],
      "stateMutability": "nonpayable",
      "type": "function"
    },
    {
      "inputs": [
        {
          "internalType": "uint256",
          "name": "_postId",
          "type": "uint256"
        }
      ],
      "name": "remove",
      "outputs": [],
      "stateMutability": "nonpayable",
      "type": "function"
    },
    {
      "inputs": [
        {
          "internalType": "uint256",
          "name": "_postId",
          "type": "uint256"
        }
      ],
      "name": "retrieve_post",
      "outputs": [
        {
          "internalType": "address",
          "name": "_user",
          "type": "address"
        },
        {
          "internalType": "string",
          "name": "_cid",
          "type": "string"
        },
        {
          "internalType": "uint256",
          "name": "_index",
          "type": "uint256"
        },
        {
          "internalType": "uint256",
          "name": "_totalComments",
          "type": "uint256"
        },
        {
          "internalType": "uint256",
          "name": "_totalDonations",
          "type": "uint256"
        },
        {
          "internalType": "uint256",
          "name": "_totalDonated",
          "type": "uint256"
        },
        {
          "internalType": "uint256",
          "name": "_reposts",
          "type": "uint256"
        },
        {
          "internalType": "uint256",
          "name": "_block",
          "type": "uint256"
        },
        {
          "internalType": "uint256",
          "name": "_timestamp",
          "type": "uint256"
        }
      ],
      "stateMutability": "view",
      "type": "function"
    },
    {
      "inputs": [
        {
          "internalType": "uint256",
          "name": "_postId",
          "type": "uint256"
        }
      ],
      "name": "repost",
      "outputs": [],
      "stateMutability": "nonpayable",
      "type": "function"
    },
    {
      "inputs": [
        {
          "internalType": "uint256",
          "name": "_index",
          "type": "uint256"
        }
      ],
      "name": "remove_repost",
      "outputs": [],
      "stateMutability": "nonpayable",
      "type": "function"
    },
    {
      "inputs": [
        {
          "internalType": "uint256",
          "name": "_postId",
          "type": "uint256"
        },
        {
          "internalType": "string",
          "name": "_cid",
          "type": "string"
        }
      ],
      "name": "submit_comment",
      "outputs": [],
      "stateMutability": "payable",
      "type": "function"
    },
    {
      "inputs": [
        {
          "internalType": "uint256",
          "name": "_postId",
          "type": "uint256"
        },
        {
          "internalType": "uint256",
          "name": "_commentId",
          "type": "uint256"
        }
      ],
      "name": "remove_comment",
      "outputs": [],
      "stateMutability": "nonpayable",
      "type": "function"
    },
    {
      "inputs": [
        {
          "internalType": "uint256",
          "name": "_postId",
          "type": "uint256"
        },
        {
          "internalType": "uint256",
          "name": "_commentId",
          "type": "uint256"
        }
      ],
      "name": "withdraw_comment",
      "outputs": [],
      "stateMutability": "nonpayable",
      "type": "function"
    },
    {
      "inputs": [
        {
          "internalType": "uint256",
          "name": "_postId",
          "type": "uint256"
        },
        {
          "internalType": "uint256",
          "name": "_commentId",
          "type": "uint256"
        }
      ],
      "name": "retrieve_comment",
      "outputs": [
        {
          "internalType": "address",
          "name": "_user",
          "type": "address"
        },
        {
          "internalType": "string",
          "name": "_cid",
          "type": "string"
        },
        {
          "internalType": "uint256",
          "name": "_totalDonations",
          "type": "uint256"
        },
        {
          "internalType": "uint256",
          "name": "_totalDonated",
          "type": "uint256"
        },
        {
          "internalType": "uint256",
          "name": "_block",
          "type": "uint256"
        },
        {
          "internalType": "uint256",
          "name": "_timestamp",
          "type": "uint256"
        }
      ],
      "stateMutability": "view",
      "type": "function"
    },
    {
      "inputs": [
        {
          "internalType": "uint256",
          "name": "_postId",
          "type": "uint256"
        },
        {
          "internalType": "uint256",
          "name": "_commentId",
          "type": "uint256"
        },
        {
          "internalType": "string",
          "name": "_cid",
          "type": "string"
        }
      ],
      "name": "donate",
      "outputs": [],
      "stateMutability": "payable",
      "type": "function"
    },
    {
      "inputs": [
        {
          "internalType": "uint256",
          "name": "_postId",
          "type": "uint256"
        },
        {
          "internalType": "string",
          "name": "_cid",
          "type": "string"
        }
      ],
      "name": "donate",
      "outputs": [],
      "stateMutability": "payable",
      "type": "function"
    },
    {
      "inputs": [
        {
          "internalType": "uint256",
          "name": "_postId",
          "type": "uint256"
        },
        {
          "internalType": "uint256",
          "name": "_donationId",
          "type": "uint256"
        }
      ],
      "name": "retrieve_post_donation",
      "outputs": [
        {
          "internalType": "address",
          "name": "_user",
          "type": "address"
        },
        {
          "internalType": "string",
          "name": "_cid",
          "type": "string"
        },
        {
          "internalType": "uint256",
          "name": "_value",
          "type": "uint256"
        },
        {
          "internalType": "uint256",
          "name": "_block",
          "type": "uint256"
        },
        {
          "internalType": "uint256",
          "name": "_timestamp",
          "type": "uint256"
        }
      ],
      "stateMutability": "view",
      "type": "function"
    },
    {
      "inputs": [
        {
          "internalType": "uint256",
          "name": "_postId",
          "type": "uint256"
        },
        {
          "internalType": "uint256",
          "name": "_commentId",
          "type": "uint256"
        },
        {
          "internalType": "uint256",
          "name": "_donationId",
          "type": "uint256"
        }
      ],
      "name": "retrieve_comment_donation",
      "outputs": [
        {
          "internalType": "address",
          "name": "_user",
          "type": "address"
        },
        {
          "internalType": "string",
          "name": "_cid",
          "type": "string"
        },
        {
          "internalType": "uint256",
          "name": "_value",
          "type": "uint256"
        },
        {
          "internalType": "uint256",
          "name": "_block",
          "type": "uint256"
        },
        {
          "internalType": "uint256",
          "name": "_timestamp",
          "type": "uint256"
        }
      ],
      "stateMutability": "view",
      "type": "function"
    },
    {
      "inputs": [
        {
          "internalType": "uint256",
          "name": "_postId",
          "type": "uint256"
        }
      ],
      "name": "validPost",
      "outputs": [
        {
          "internalType": "bool",
          "name": "",
          "type": "bool"
        }
      ],
      "stateMutability": "view",
      "type": "function"
    },
    {
      "inputs": [
        {
          "internalType": "uint256",
          "name": "_postId",
          "type": "uint256"
        },
        {
          "internalType": "uint256",
          "name": "_commentId",
          "type": "uint256"
        }
      ],
      "name": "validComment",
      "outputs": [
        {
          "internalType": "bool",
          "name": "",
          "type": "bool"
        }
      ],
      "stateMutability": "view",
      "type": "function"
    },
    {
      "inputs": [
        {
          "internalType": "uint256",
          "name": "_postId",
          "type": "uint256"
        },
        {
          "internalType": "uint256",
          "name": "_donationId",
          "type": "uint256"
        }
      ],
      "name": "validPostDonation",
      "outputs": [
        {
          "internalType": "bool",
          "name": "",
          "type": "bool"
        }
      ],
      "stateMutability": "view",
      "type": "function"
    },
    {
      "inputs": [
        {
          "internalType": "uint256",
          "name": "_postId",
          "type": "uint256"
        },
        {
          "internalType": "uint256",
          "name": "_commentId",
          "type": "uint256"
        },
        {
          "internalType": "uint256",
          "name": "_donationId",
          "type": "uint256"
        }
      ],
      "name": "validCommentDonation",
      "outputs": [
        {
          "internalType": "bool",
          "name": "",
          "type": "bool"
        }
      ],
      "stateMutability": "view",
      "type": "function"
    },
    {
      "inputs": [
        {
          "internalType": "uint256",
          "name": "_start",
          "type": "uint256"
        },
        {
          "internalType": "uint256",
          "name": "_end",
          "type": "uint256"
        },
        {
          "internalType": "uint256",
          "name": "_arrLen",
          "type": "uint256"
        }
      ],
      "name": "validStartEnd",
      "outputs": [
        {
          "internalType": "bool",
          "name": "",
          "type": "bool"
        }
      ],
      "stateMutability": "pure",
      "type": "function"
    },
    {
      "inputs": [
        {
          "internalType": "address",
          "name": "_user",
          "type": "address"
        }
      ],
      "name": "userFeedLength",
      "outputs": [
        {
          "internalType": "uint256",
          "name": "_length",
          "type": "uint256"
        }
      ],
      "stateMutability": "view",
      "type": "function"
    },
    {
      "inputs": [
        {
          "internalType": "uint256",
          "name": "_postId",
          "type": "uint256"
        }
      ],
      "name": "totalComments",
      "outputs": [
        {
          "internalType": "uint256",
          "name": "_totalComments",
          "type": "uint256"
        }
      ],
      "stateMutability": "view",
      "type": "function"
    },
    {
      "inputs": [
        {
          "internalType": "uint256",
          "name": "_postId",
          "type": "uint256"
        }
      ],
      "name": "totalDonations",
      "outputs": [
        {
          "internalType": "uint256",
          "name": "_totalDonations",
          "type": "uint256"
        }
      ],
      "stateMutability": "view",
      "type": "function"
    },
    {
      "inputs": [
        {
          "internalType": "uint256",
          "name": "_postId",
          "type": "uint256"
        },
        {
          "internalType": "uint256",
          "name": "_commentId",
          "type": "uint256"
        }
      ],
      "name": "totalCommentDonations",
      "outputs": [
        {
          "internalType": "uint256",
          "name": "_totalDonations",
          "type": "uint256"
        }
      ],
      "stateMutability": "view",
      "type": "function"
    }
  ],
  "bytecode": "0x608034606e57601f61205738819003918201601f19168301916001600160401b03831184841017607257808492602094604052833981010312606e57516001600160a01b03811690819003606e575f60015560018060a01b03195f5416175f55604051611fd090816100878239f35b5f80fd5b634e487b7160e01b5f52604160045260245ffdfe6080806040526004361015610012575f80fd5b5f3560e01c9081630ea37c641461179f5750806316c3cdf5146114305780631749dd9d146112d45780631c56038d146112bb5780632fb5f9ef146111fa57806339516894146111a25780634629e7981461116a5780634cc822151461106a578063517bdd2d14610f40578063606e4f7b14610e4357806360a0ecda14610e265780636132983214610d8f5780636b73201714610d765780637954b3ef14610ccf5780638d59d1f114610a305780638e54fad91461099c578063972e322c1461090c5780639f1482e4146108df578063bdf1a9a4146108c1578063c5fe37191461089e578063c87b56dd1461078a578063d99a8dc314610512578063e1a3ae5814610213578063e45b6c0f146101de578063f59dfdfb1461016b5763fb18cd631461013a575f80fd5b34610167576020366003190112610167576004355f5260036020526020600360405f200154604051908152f35b5f80fd5b34610167576020366003190112610167576004355f90815260036020526040902080546001600160a01b03166101da6101a660018401611a27565b9260028101549060038101546005820154600783015490600884015492600a600986015495015495604051998a998a61199e565b0390f35b34610167576101ec366118a2565b905f526003602052600460405f2001905f526020526020600260405f200154604051908152f35b61021c3661196b565b9060018060a01b035f5416604051634209fff160e01b8152336004820152602081602481855afa80156104a35761025a915f916104f3575b50611adf565b61026382611df7565b156101675761027183611ef3565b156104ae575f828152600360209081526040918290205491516366928d4d60e11b81526001600160a01b03909216600483015233602483015290918290604490829034905af19081156104a3575f91610474575b501561016757805f526003602052600360405f20018054906102e682611b2b565b90555f828152600360209081526040808320848452600401909152902080546001600160a01b03191633178155835160019091019067ffffffffffffffff81116104605761033e8161033884546119ef565b84611be1565b6020601f82116001146103da5791610391827fbfc5bad8d8cf5676c1669df7486f1e3484a07fad54a2d620bcf4bb56cc9b6dca97936103ca955f916103cf575b508160011b915f199060031b1c19161790565b90555b5f848152600360209081526040808320868452600401909152908190204360058201554260069091015551938493339185611c24565b0390a1005b90508401518961037e565b601f19821690835f52805f20915f5b8181106104485750926103ca9492600192827fbfc5bad8d8cf5676c1669df7486f1e3484a07fad54a2d620bcf4bb56cc9b6dca9a9610610430575b5050811b019055610394565b8501515f1960f88460031b161c191690558880610424565b9192602060018192868c0151815501940192016103e9565b634e487b7160e01b5f52604160045260245ffd5b610496915060203d60201161049c575b61048e818361182a565b810190611ac7565b836102c5565b503d610484565b6040513d5f823e3d90fd5b60405162461bcd60e51b815260206004820152601960248201527f496e76616c696420636f6d6d656e74204a534f4e204349442e000000000000006044820152606490fd5b61050c915060203d60201161049c5761048e818361182a565b85610254565b346101675760203660031901126101675760043567ffffffffffffffff81116101675761054390369060040161184c565b5f54604051634209fff160e01b815233600482015290602090829060249082906001600160a01b03165afa80156104a357610584915f9161076b5750611adf565b61058d81611ef3565b1561072d576001549061059f82611b2b565b600155335f5260026020526105b78260405f20611b39565b5f82815260036020526040902080546001600160a01b031916331781558151929060010167ffffffffffffffff8411610460576105fe846105f883546119ef565b83611be1565b602093601f81116001146106cd578061062d929394955f916106c257508160011b915f199060031b1c19161790565b90555b335f52600260205260405f2054915f1983019283116106ae575f82815260036020908152604091829020600281019590955543600986015542600a90950194909455517f8fbb910a53e3fc2339a2a5112d7ea9e88a99d2c7331d79b05143a26ff1793ca39181906106a390338684611dcf565b0390a1604051908152f35b634e487b7160e01b5f52601160045260245ffd5b90508501518661037e565b601f19811694825f52805f20905f5b878110610715575082600194959697106106fd575b5050811b019055610630565b8601515f1960f88460031b161c1916905585806106f1565b9091602060018192858a0151815501930191016106dc565b60405162461bcd60e51b815260206004820152601660248201527524b73b30b634b2103837b9ba102529a7a71021a4a21760511b6044820152606490fd5b610784915060203d60201161049c5761048e818361182a565b83610254565b34610167576020366003190112610167576004356107a781611df7565b156101675760408051906107bb818361182a565b60078252602082019266697066733a2f2f60c81b84525f5260036020526001815f200192815192518091602085015e8201602081015f81525f948054610800816119ef565b9260018216918215610880575050600114610841575b50505061082f826101da9403601f19810184528361182a565b519182916020835260208301906118b8565b909194505f5260205f205f905b82821061086a57505082602061082f926101da96010194610816565b6001816020925483858a0101520191019061084e565b60ff1916905250508015150201602001925061082f826101da610816565b346101675760206108b76108b1366118a2565b90611e91565b6040519015158152f35b346101675760203660031901126101675760206108b7600435611df7565b34610167576020366003190112610167576004355f5260036020526020600560405f200154604051908152f35b346101675761091a366118a2565b6109248183611c91565b15610167575f828152600360209081526040808320848452600601909152902080546001600160a01b0316916101da9161096090600101611a27565b5f948552600360208181526040808820948852600690940190529482902060028101549581015460049091015492519586959192909186611935565b34610167576020366003190112610167576004356109b981611df7565b15610167575f81815260036020526040902080546001600160a01b0316906101da906109e790600101611a27565b5f938452600360208190526040948590206002810154918101546005820154600783015460088401546009850154600a909501549951998a99909795969195929492908a61199e565b610a393661196b565b5f54604051634209fff160e01b81523360048201526001600160a01b0390911690602081602481855afa80156104a357610a79915f916104f35750611adf565b610a8283611df7565b15610167576020610ade91610a9e610a9985611ef3565b611b72565b5f858152600383526040908190205490516366928d4d60e11b81526001600160a01b03909116600482015233602482015292839190829081906044820190565b039134905af19081156104a3575f91610cb0575b501561016757815f526003602052600760405f2001610b12348254611bbe565b9055815f526003602052600560405f200191825492610b3084611b2b565b90555f818152600360209081526040808320868452600601909152902080546001600160a01b031916331781553460028201558251939060010167ffffffffffffffff851161046057610b87856105f883546119ef565b6020601f8611600114610c2f57857fe2e9235dd39e3f772881df2511af7e77c11f83062440e2f70c0ce1b72c88998296610bd4925f91610c2457508160011b915f199060031b1c19161790565b90555b815f526003602052600660405f2001815f5260205243600360405f200155815f526003602052600660405f2001905f5260205242600460405f2001556103ca604051928392339084611dcf565b90508601518861037e565b601f19861690825f52805f20915f5b818110610c9857509187917fe2e9235dd39e3f772881df2511af7e77c11f83062440e2f70c0ce1b72c8899829860019410610c80575b5050811b019055610bd7565b8701515f1960f88460031b161c191690558780610c74565b9192602060018192868b015181550194019201610c3e565b610cc9915060203d60201161049c5761048e818361182a565b83610af2565b3461016757610cdd3661191b565b9190610cea838284611d98565b15610167575f82815260036020818152604080842085855260040182528084208785529092019052902080546001600160a01b0316926101da9291610d3190600101611a27565b5f918252600360208181526040808520958552600495860182528085209885529782019052918690206002810154928101549301549551958695909392919086611935565b346101675760206108b7610d893661191b565b91611d98565b3461016757610d9d3661191b565b908281119283610e10575b5082610e06575b505015610dc157602060405160018152f35b60405162461bcd60e51b815260206004820152601d60248201527f496e76616c6964205f7374617274202f205f656e642076616c7565732e0000006044820152606490fd5b1090508180610daf565b90925082038281116106ae576064119183610da8565b34610167575f366003190112610167576020600154604051908152f35b3461016757610e51366118a2565b5f54604051634209fff160e01b815233600482015291929190602090829060249082906001600160a01b03165afa80156104a357610e95915f91610f215750611adf565b610e9e81611df7565b15610167575f81815260036020526040902054610ec5906001600160a01b03163314611cbe565b805f526003602052610edf600360405f2001548310611d58565b5f526003602052600460405f2001905f526020525f600660408220828155610f0960018201611d0a565b82600282015582600482015582600582015501555f80f35b610f3a915060203d60201161049c5761048e818361182a565b84610254565b3461016757610f4e366118a2565b5f54604051634209fff160e01b815233600482015291929190602090829060249082906001600160a01b03165afa80156104a357610f92915f91610f215750611adf565b610f9b81611df7565b1561016757805f526003602052610fbb600360405f200154831115611d58565b805f526003602052600460405f2001825f526020523360018060a01b0360405f20541603611031575f526003602052600460405f2001905f526020525f6001604082200161100981546119ef565b601f8111611015575055005b8183526020832061102e91601f0160051c810190611bcb565b55005b60405162461bcd60e51b815260206004820152601160248201527024b73b30b634b21031b7b6b6b2b73a32b960791b6044820152606490fd5b34610167576020366003190112610167576004356024602060018060a01b035f541660405192838092634209fff160e01b82523360048301525afa80156104a3576110bb915f9161076b5750611adf565b6110c481611df7565b15610167575f818152600360205260409020546110eb906001600160a01b03163314611cbe565b335f52600260205261112361111360405f20835f526003602052600260405f200154906118f2565b8154905f199060031b1b19169055565b5f5260036020525f600a6040822082815561114060018201611d0a565b82600282015582600382015582600582015582600782015582600882015582600982015501555f80f35b34610167576020366003190112610167576001600160a01b0361118b6118dc565b165f526002602052602060405f2054604051908152f35b34610167576040366003190112610167576111bb6118dc565b6001600160a01b03165f90815260026020526040902080546024359190821015610167576020916111eb916118f2565b90549060031b1c604051908152f35b3461016757611208366118a2565b906112138282611e91565b15610167575f818152600360209081526040808320858452600401909152902080546001600160a01b0316919061124c90600101611a27565b5f91825260036020908152604080842095845260049586018252928390206002810154958101546005820154600690920154945195865260c092860183905294958695909493919290916112a2918701906118b8565b9360408601526060850152608084015260a08301520390f35b346101675760206108b76112ce366118a2565b90611c91565b34610167576020366003190112610167576004356024602060018060a01b035f541660405192838092634209fff160e01b82523360048301525afa80156104a357611325915f9161076b5750611adf565b335f52600260205260405f20548110156113eb57335f52600260205261134e8160405f206118f2565b90549060031b1c5f5260036020523360018060a01b0360405f205416146113895761111361138791335f52600260205260405f206118f2565b005b60405162461bcd60e51b815260206004820152603460248201527f496e76616c696420706f737420757365722c205573652072656d6f766520746f604482015273103932b6b7bb32903737b936b0b6103837b9ba1760611b6064820152608490fd5b60405162461bcd60e51b815260206004820152601960248201527f496e76616c696420757365722066656564206c656e6774682e000000000000006044820152606490fd5b60603660031901126101675760243560043560443567ffffffffffffffff81116101675761146290369060040161184c565b9160018060a01b035f5416604051634209fff160e01b8152336004820152602081602481855afa80156104a35761149f915f916117805750611adf565b6114a98284611e91565b15610167576114ba610a9985611ef3565b825f526003602052600460405f2001825f5260205260018060a01b0360405f20541615611745575f83815260036020908152604080832085845260049081018352928190205490516366928d4d60e11b81526001600160a01b039091169281019290925233602483015290918290604490829034905af19081156104a3575f91611726575b501561016757815f526003602052600460405f2001815f52602052600460405f200161156c348254611bbe565b9055815f526003602052600460405f2001815f52602052600260405f20019283549361159785611b2b565b90555f83815260036020818152604080842086855260040182528084208885529092019052902080546001600160a01b031916331781553460028201558151949060010167ffffffffffffffff8611610460576115f8866105f883546119ef565b602095601f811160011461169f579061164c826103ca9594937fb7eee1f0447f71720de443a41946a65e77f2bba8d98be3955748f071d4156b88995f9161169457508160011b915f199060031b1c19161790565b90555b5f858152600360208181526040808420888552600490810183528185209585529483019091529182902043918101919091554292019190915551938493339185611c24565b90508501518a61037e565b601f19811696825f52805f20975f5b81811061170e5750917fb7eee1f0447f71720de443a41946a65e77f2bba8d98be3955748f071d4156b8898600192826103ca98979695106116f6575b5050811b01905561164f565b8601515f1960f88460031b161c1916905589806116ea565b868301518a55600190990198602092830192016116ae565b61173f915060203d60201161049c5761048e818361182a565b8461153f565b60405162461bcd60e51b815260206004820152601360248201527210dbdb5b595b9d081dd85cc819195b195d1959606a1b6044820152606490fd5b611799915060203d60201161049c5761048e818361182a565b86610254565b34610167576020366003190112610167576004359060208160248160018060a01b035f5416634209fff160e01b82523360048301525afa80156104a3576117ec915f9161076b5750611adf565b6117f581611df7565b156101675780611387915f526003602052600860405f20016118178154611b2b565b9055335f52600260205260405f20611b39565b90601f8019910116810190811067ffffffffffffffff82111761046057604052565b81601f820112156101675780359067ffffffffffffffff82116104605760405192611881601f8401601f19166020018561182a565b8284526020838301011161016757815f926020809301838601378301015290565b6040906003190112610167576004359060243590565b805180835260209291819084018484015e5f828201840152601f01601f1916010190565b600435906001600160a01b038216820361016757565b8054821015611907575f5260205f2001905f90565b634e487b7160e01b5f52603260045260245ffd5b606090600319011261016757600435906024359060443590565b9161195c906080949796959260018060a01b0316845260a0602085015260a08401906118b8565b95604083015260608201520152565b90604060031983011261016757600435916024359067ffffffffffffffff82116101675761199b9160040161184c565b90565b959299989794916119cc9061010098959260018060a01b0316885261012060208901526101208801906118b8565b9960408701526060860152608085015260a084015260c083015260e08201520152565b90600182811c92168015611a1d575b6020831014611a0957565b634e487b7160e01b5f52602260045260245ffd5b91607f16916119fe565b9060405191825f825492611a3a846119ef565b8084529360018116908115611aa55750600114611a61575b50611a5f9250038361182a565b565b90505f9291925260205f20905f915b818310611a89575050906020611a5f928201015f611a52565b6020919350806001915483858901015201910190918492611a70565b905060209250611a5f94915060ff191682840152151560051b8201015f611a52565b90816020910312610167575180151581036101675790565b15611ae657565b60405162461bcd60e51b815260206004820152601a60248201527f53656e646572206d75737420626520726567697374657265642e0000000000006044820152606490fd5b5f1981146106ae5760010190565b80546801000000000000000081101561046057611b5b916001820181556118f2565b819291549060031b91821b915f19901b1916179055565b15611b7957565b60405162461bcd60e51b815260206004820152601a60248201527f496e76616c696420646f6e6174696f6e204a534f4e204349442e0000000000006044820152606490fd5b919082018092116106ae57565b818110611bd6575050565b5f8155600101611bcb565b9190601f8111611bf057505050565b611a5f925f5260205f20906020601f840160051c83019310611c1a575b601f0160051c0190611bcb565b9091508190611c0d565b909260809261199b95948352602083015260018060a01b0316604082015281606082015201906118b8565b15611c5657565b60405162461bcd60e51b8152602060048201526013602482015272125b9d985b1a590817d91bdb985d1a5bdb9259606a1b6044820152606490fd5b90611c9b82611df7565b1561016757611cb9915f526003602052600560405f20015411611c4f565b600190565b15611cc557565b60405162461bcd60e51b815260206004820152601960248201527f506f73742075736572206d7573742062652073656e6465722e000000000000006044820152606490fd5b611d1481546119ef565b9081611d1e575050565b81601f5f9311600114611d2f575055565b81835260208320611d4b91601f0160051c810190600101611bcb565b8082528160208120915555565b15611d5f57565b60405162461bcd60e51b8152602060048201526011602482015270125b9d985b1a590818dbdb5b595b9d1259607a1b6044820152606490fd5b9190611da48184611e91565b1561016757611cb9925f526003602052600460405f2001905f52602052600260405f20015411611c4f565b9081526001600160a01b03909116602082015260606040820181905261199b929101906118b8565b600154811015611e5a575f908152600360205260409020546001600160a01b031615611e2257600190565b60405162461bcd60e51b815260206004820152601060248201526f141bdcdd081dd85cc81c995b5bdd995960821b6044820152606490fd5b60405162461bcd60e51b815260206004820152600f60248201526e125b9d985b1a590817dc1bdcdd1259608a1b6044820152606490fd5b611e9a81611df7565b15610167575f526003602052600360405f2001541115611eb957600190565b60405162461bcd60e51b8152602060048201526012602482015271125b9d985b1a590817d8dbdb5b595b9d125960721b6044820152606490fd5b805160208201516001600160b81b03198116919060098210611f7a575b5050604051602081019168ffffffffffffffffff60b81b16825260098152611f3960298261182a565b5190206040516862616761616965726160b81b602082019081526009825290611f6360298261182a565b519020149081611f71575090565b603d9150511490565b6001600160b81b031960099290920360031b82901b161690505f80611f1056fea264697066735822122045e2b224ec28204b05cd7aa3418eb39febd24918dd54a9ff8a8072f74f04eb9b64736f6c634300081c0033",
  "immutableReferences": {},
  "source": "\n// SPDX-License-Identifier: MIT\npragma solidity ^0.8.0;\n\nimport \"../user-register/UserRegister.sol\";\n\nimport \"../helper/Helper.sol\";\n\ncontract Feed {\n    \n    UserRegister userRegister;\n\n    uint public postId = 0;\n\n    mapping(address => uint[]) public userFeed;\n\n    mapping(uint => post) public feed;\n\n    struct post {\n        address _user;\n        string _cid;  \n        uint _index;   \n        uint _totalComments;\n        mapping(uint => comment) _comments;\n        uint _totalDonations;\n        mapping(uint => donation) _donations;\n        uint _totalDonated;\n        uint _reposts;\n        uint _block;\n        uint _timestamp;\n    }\n\n    struct comment {\n        address _user;\n        string _cid;\n        uint _totalDonations;\n        mapping(uint => donation) _donations;\n        uint _totalDonated;\n        uint _block;\n        uint _timestamp;\n    }\n\n    struct donation{\n        address _user;\n        string _cid;\n        uint _value;\n        uint _block;\n        uint _timestamp;\n    }\n\n    event posted (uint _postId, address _user, string _cid);\n\n    event commented (uint _postId, uint _commentId, address _user, string _cid);\n\n    event donated_post (uint _postId, address _user, string _cid);\n\n    event donated_comment (uint _postId, uint _commentId, address _user, string _cid);\n\n    modifier isUser(){\n        require(userRegister.isUser(msg.sender), \"Sender must be registered.\");\n        _;\n    }\n\n    constructor(address _userRegister){\n        userRegister = UserRegister(_userRegister);\n    }\n\n    function _baseURI() internal pure returns(string memory){\n        return \"ipfs://\";\n    }\n\n    function tokenURI(uint _postId) public view returns(string memory){\n        require(validPost(_postId));\n        return string(abi.encodePacked(_baseURI(), feed[_postId]._cid)); \n    }\n\n    function submit(string memory _cid) public isUser returns(uint _postId){\n        require(Helper.isV1JSONCID(_cid), \"Invalid post JSON CID.\");\n        _postId = postId++;\n        userFeed[msg.sender].push(_postId);\n        feed[_postId]._user = msg.sender;\n        feed[_postId]._cid = _cid;\n        feed[_postId]._index = userFeed[msg.sender].length - 1;\n        feed[_postId]._block = block.number;\n        feed[_postId]._timestamp = block.timestamp;\n        emit posted(_postId, msg.sender, _cid);\n    }\n\n    function remove(uint _postId) public isUser{\n        require(validPost(_postId));\n        require(feed[_postId]._user == msg.sender, \"Post user must be sender.\");\n        delete userFeed[msg.sender][feed[_postId]._index];\n        delete feed[_postId];\n    }\n\n    function retrieve_post(uint _postId) public view returns(address _user, string memory _cid, uint _index, uint _totalComments, uint _totalDonations, uint _totalDonated, uint _reposts, uint _block, uint _timestamp){\n        require(validPost(_postId));\n        _user = feed[_postId]._user;\n        _cid = feed[_postId]._cid;\n        _index = feed[_postId]._index;\n        _totalComments = feed[_postId]._totalComments;\n        _totalDonations = feed[_postId]._totalDonations;\n        _totalDonated = feed[_postId]._totalDonated;\n        _reposts = feed[_postId]._reposts;\n        _block = feed[_postId]._block;\n        _timestamp = feed[_postId]._timestamp;\n    }\n\n    function repost(uint _postId) public isUser{\n        require(validPost(_postId));\n        feed[_postId]._reposts++;\n        userFeed[msg.sender].push(_postId);\n    }\n\n    function remove_repost(uint _index) public isUser{\n        require(_index < userFeedLength(msg.sender), \"Invalid user feed length.\");\n        require(feed[userFeed[msg.sender][_index]]._user != msg.sender, \"Invalid post user, Use remove to remove normal post.\");\n        delete userFeed[msg.sender][_index];\n    }\n\n    function submit_comment(uint _postId, string memory _cid) public payable isUser{\n        require(validPost(_postId));\n        require(Helper.isV1JSONCID(_cid), \"Invalid comment JSON CID.\");\n        require(userRegister.validInteraction{value: msg.value}(feed[_postId]._user, msg.sender));\n        uint _totalComments = feed[_postId]._totalComments++;\n        feed[_postId]._comments[_totalComments]._user = msg.sender;\n        feed[_postId]._comments[_totalComments]._cid = _cid;\n        feed[_postId]._comments[_totalComments]._block = block.number;\n        feed[_postId]._comments[_totalComments]._timestamp = block.timestamp;\n        emit commented(_postId, _totalComments, msg.sender, _cid);\n    }\n\n    function remove_comment(uint _postId, uint _commentId) public isUser{\n        require(validPost(_postId));\n        require(feed[_postId]._user == msg.sender, \"Post user must be sender.\");\n        require(_commentId < feed[_postId]._totalComments, \"Invalid commentId\");\n        delete feed[_postId]._comments[_commentId];\n    }\n\n    function withdraw_comment(uint _postId, uint _commentId) public isUser{\n        require(validPost(_postId));\n        require(_commentId <= feed[_postId]._totalComments, \"Invalid commentId\");\n        require(feed[_postId]._comments[_commentId]._user == msg.sender, \"Invalid commenter\");\n        feed[_postId]._comments[_commentId]._cid = \"\";\n    }\n\n    function retrieve_comment(uint _postId, uint _commentId) public view returns(address _user, string memory _cid, uint _totalDonations, uint _totalDonated, uint _block, uint _timestamp){\n        require(validComment(_postId, _commentId));\n        _user = feed[_postId]._comments[_commentId]._user;\n        _cid = feed[_postId]._comments[_commentId]._cid;\n        _totalDonations = feed[_postId]._comments[_commentId]._totalDonations;\n        _totalDonated = feed[_postId]._comments[_commentId]._totalDonated;\n        _block = feed[_postId]._comments[_commentId]._block;\n        _timestamp = feed[_postId]._comments[_commentId]._timestamp;\n    }\n\n    function donate(uint _postId, string memory _cid) public payable isUser{\n        require(validPost(_postId));\n        require(Helper.isV1JSONCID(_cid), \"Invalid donation JSON CID.\");\n        require(userRegister.validInteraction{value: msg.value}(feed[_postId]._user, msg.sender));\n        feed[_postId]._totalDonated += msg.value;\n        uint _totalDonations = feed[_postId]._totalDonations++;\n        feed[_postId]._donations[_totalDonations]._user = msg.sender;\n        feed[_postId]._donations[_totalDonations]._value = msg.value;\n        feed[_postId]._donations[_totalDonations]._cid = _cid;\n        feed[_postId]._donations[_totalDonations]._block = block.number;\n        feed[_postId]._donations[_totalDonations]._timestamp = block.timestamp;\n        emit donated_post(_postId, msg.sender, _cid);\n    }\n    \n    function donate(uint _postId, uint _commentId, string memory _cid) public payable isUser{\n        require(validComment(_postId, _commentId));\n        require(Helper.isV1JSONCID(_cid), \"Invalid donation JSON CID.\");\n        require(feed[_postId]._comments[_commentId]._user != address(0), \"Comment was deleted\");\n        require(userRegister.validInteraction{value: msg.value}(feed[_postId]._comments[_commentId]._user, msg.sender));\n        feed[_postId]._comments[_commentId]._totalDonated += msg.value;\n        uint _totalDonations = feed[_postId]._comments[_commentId]._totalDonations++;\n        feed[_postId]._comments[_commentId]._donations[_totalDonations]._user = msg.sender;\n        feed[_postId]._comments[_commentId]._donations[_totalDonations]._value = msg.value;\n        feed[_postId]._comments[_commentId]._donations[_totalDonations]._cid = _cid;\n        feed[_postId]._comments[_commentId]._donations[_totalDonations]._block = block.number;\n        feed[_postId]._comments[_commentId]._donations[_totalDonations]._timestamp = block.timestamp;\n        emit donated_comment(_postId, _commentId, msg.sender, _cid);\n    }\n\n    function retrieve_post_donation(uint _postId, uint _donationId) public view returns(address _user, string memory _cid, uint _value, uint _block, uint _timestamp){\n        require(validPostDonation(_postId, _donationId));\n        _user = feed[_postId]._donations[_donationId]._user;\n        _cid = feed[_postId]._donations[_donationId]._cid;\n        _value = feed[_postId]._donations[_donationId]._value;\n        _block = feed[_postId]._donations[_donationId]._block;\n        _timestamp = feed[_postId]._donations[_donationId]._timestamp;\n    }\n\n    function retrieve_comment_donation(uint _postId, uint _commentId, uint _donationId) public view returns(address _user, string memory _cid, uint _value, uint _block, uint _timestamp){\n        require(validCommentDonation(_postId, _commentId, _donationId));\n        _user = feed[_postId]._comments[_commentId]._donations[_donationId]._user;\n        _cid = feed[_postId]._comments[_commentId]._donations[_donationId]._cid;\n        _value = feed[_postId]._comments[_commentId]._donations[_donationId]._value;\n        _block = feed[_postId]._comments[_commentId]._donations[_donationId]._block;\n        _timestamp = feed[_postId]._comments[_commentId]._donations[_donationId]._timestamp;\n    }\n\n    // helper methods\n    function validPost(uint _postId) public view returns(bool){\n        require(_postId < postId, \"Invalid _postId\");\n        require(feed[_postId]._user != address(0), \"Post was removed\");\n        return true;\n    }\n\n    function validComment(uint _postId, uint _commentId) public view returns(bool){\n        require(validPost(_postId));\n        require(_commentId < feed[_postId]._totalComments, \"Invalid _commentId\");\n        return true;\n    }\n\n    function validPostDonation(uint _postId, uint _donationId) public view returns(bool){\n        require(validPost(_postId));\n        require(_donationId < feed[_postId]._totalDonations, \"Invalid _donationId\");\n        return true;\n    }\n\n    function validCommentDonation(uint _postId, uint _commentId, uint _donationId) public view returns(bool){\n        require(validComment(_postId, _commentId));\n        require(_donationId < feed[_postId]._comments[_commentId]._totalDonations, \"Invalid _donationId\");\n        return true;\n    }\n\n    function validStartEnd(uint _start, uint _end, uint _arrLen) public pure returns(bool){\n        require(_end > _start && _end - _start < 100 && _end < _arrLen, \"Invalid _start / _end values.\");\n        return true;\n    }\n\n    function userFeedLength(address _user) public view returns(uint _length){\n        return userFeed[_user].length;\n    }\n\n    function totalComments(uint _postId) public view returns (uint _totalComments){\n        return feed[_postId]._totalComments;\n    }\n\n    function totalDonations(uint _postId) public view returns (uint _totalDonations){\n        return feed[_postId]._totalDonations;\n    }\n\n    function totalCommentDonations(uint _postId, uint _commentId) public view returns(uint _totalDonations){\n        return feed[_postId]._comments[_commentId]._totalDonations;\n    }\n    \n}",
  "sourcePath": "/home/stephensb/sb-labs/solidity-contracts/contracts/feed/feed/Feed.sol",
  "compiler": {
    "name": "solc",
    "version": "0.8.28+commit.7893614a.Emscripten.clang"
  },
  "schemaVersion": "3.4.12",
  "updatedAt": "2024-12-18T06:10:39.485Z",
  "devdoc": {
    "kind": "dev",
    "methods": {},
    "version": 1
  },
  "userdoc": {
    "kind": "user",
    "methods": {},
    "version": 1
  }
}