{
  "contractName": "FeeLibrary",
  "abi": [
    {
      "inputs": [],
      "name": "DYNAMIC_FEE_FLAG",
      "outputs": [
        {
          "internalType": "uint24",
          "name": "",
          "type": "uint24"
        }
      ],
      "stateMutability": "view",
      "type": "function"
    },
    {
      "inputs": [],
      "name": "HOOK_SWAP_FEE_FLAG",
      "outputs": [
        {
          "internalType": "uint24",
          "name": "",
          "type": "uint24"
        }
      ],
      "stateMutability": "view",
      "type": "function"
    },
    {
      "inputs": [],
      "name": "HOOK_WITHDRAW_FEE_FLAG",
      "outputs": [
        {
          "internalType": "uint24",
          "name": "",
          "type": "uint24"
        }
      ],
      "stateMutability": "view",
      "type": "function"
    },
    {
      "inputs": [],
      "name": "STATIC_FEE_MASK",
      "outputs": [
        {
          "internalType": "uint24",
          "name": "",
          "type": "uint24"
        }
      ],
      "stateMutability": "view",
      "type": "function"
    }
  ],
  "bytecode": "0x608080604052346100195760d7908161001e823930815050f35b5f80fdfe60808060405260043610156011575f80fd5b5f3560e01c9081634f7deff714608c57508063c7a97b4e146075578063d11e7dee14605e5763f26ef49d146043575f80fd5b5f366003190112605a576020604051628000008152f35b5f80fd5b5f366003190112605a576020604051624000008152f35b5f366003190112605a576020604051620fffff8152f35b5f366003190112605a57806220000060209252f3fea264697066735822122054872ae76252f635317c7845db7d8821c5e7b09fbbfc332c04ae00f5fde86dfe64736f6c63430008170033",
  "immutableReferences": {},
  "source": "// SPDX-License-Identifier: GPL-2.0-or-later\npragma solidity ^0.8.20;\n\nlibrary FeeLibrary {\n    uint24 public constant STATIC_FEE_MASK = 0x0FFFFF;\n    uint24 public constant DYNAMIC_FEE_FLAG = 0x800000; // 1000\n    uint24 public constant HOOK_SWAP_FEE_FLAG = 0x400000; // 0100\n    uint24 public constant HOOK_WITHDRAW_FEE_FLAG = 0x200000; // 0010\n\n    function isDynamicFee(uint24 self) internal pure returns (bool) {\n        return self & DYNAMIC_FEE_FLAG != 0;\n    }\n\n    function hasHookSwapFee(uint24 self) internal pure returns (bool) {\n        return self & HOOK_SWAP_FEE_FLAG != 0;\n    }\n\n    function hasHookWithdrawFee(uint24 self) internal pure returns (bool) {\n        return self & HOOK_WITHDRAW_FEE_FLAG != 0;\n    }\n\n    function isStaticFeeTooLarge(uint24 self) internal pure returns (bool) {\n        return self & STATIC_FEE_MASK >= 1000000;\n    }\n\n    function getStaticFee(uint24 self) internal pure returns (uint24) {\n        return self & STATIC_FEE_MASK;\n    }\n}\n",
  "sourcePath": "/home/stephensb/sb-labs/solidity-contracts/contracts/v4-core/src/libraries/FeeLibrary.sol",
  "compiler": {
    "name": "solc",
    "version": "0.8.23+commit.f704f362.Emscripten.clang"
  },
  "schemaVersion": "3.4.12",
  "updatedAt": "2023-12-02T16:40:01.669Z",
  "devdoc": {
    "kind": "dev",
    "methods": {},
    "version": 1
  },
  "userdoc": {
    "kind": "user",
    "methods": {},
    "version": 1
  }
}