{
  "contractName": "Following",
  "abi": [
    {
      "inputs": [
        {
          "internalType": "address",
          "name": "_public_keys",
          "type": "address"
        }
      ],
      "stateMutability": "nonpayable",
      "type": "constructor"
    },
    {
      "anonymous": false,
      "inputs": [
        {
          "indexed": true,
          "internalType": "address",
          "name": "previousOwner",
          "type": "address"
        },
        {
          "indexed": true,
          "internalType": "address",
          "name": "newOwner",
          "type": "address"
        }
      ],
      "name": "OwnershipTransferred",
      "type": "event"
    },
    {
      "inputs": [
        {
          "internalType": "address",
          "name": "",
          "type": "address"
        },
        {
          "internalType": "uint256",
          "name": "",
          "type": "uint256"
        }
      ],
      "name": "FollowersChannel",
      "outputs": [
        {
          "internalType": "address",
          "name": "",
          "type": "address"
        }
      ],
      "stateMutability": "view",
      "type": "function"
    },
    {
      "inputs": [
        {
          "internalType": "address",
          "name": "",
          "type": "address"
        },
        {
          "internalType": "uint256",
          "name": "",
          "type": "uint256"
        }
      ],
      "name": "FollowingChannel",
      "outputs": [
        {
          "internalType": "address",
          "name": "",
          "type": "address"
        }
      ],
      "stateMutability": "view",
      "type": "function"
    },
    {
      "inputs": [
        {
          "internalType": "address",
          "name": "",
          "type": "address"
        },
        {
          "internalType": "address",
          "name": "",
          "type": "address"
        }
      ],
      "name": "Follows",
      "outputs": [
        {
          "internalType": "bool",
          "name": "",
          "type": "bool"
        }
      ],
      "stateMutability": "view",
      "type": "function"
    },
    {
      "inputs": [],
      "name": "Public_Keys",
      "outputs": [
        {
          "internalType": "contract PublicKeys",
          "name": "",
          "type": "address"
        }
      ],
      "stateMutability": "view",
      "type": "function"
    },
    {
      "inputs": [],
      "name": "owner",
      "outputs": [
        {
          "internalType": "address",
          "name": "",
          "type": "address"
        }
      ],
      "stateMutability": "view",
      "type": "function"
    },
    {
      "inputs": [],
      "name": "renounceOwnership",
      "outputs": [],
      "stateMutability": "nonpayable",
      "type": "function"
    },
    {
      "inputs": [
        {
          "internalType": "address",
          "name": "newOwner",
          "type": "address"
        }
      ],
      "name": "transferOwnership",
      "outputs": [],
      "stateMutability": "nonpayable",
      "type": "function"
    },
    {
      "inputs": [
        {
          "internalType": "address",
          "name": "_follow",
          "type": "address"
        }
      ],
      "name": "follow",
      "outputs": [],
      "stateMutability": "nonpayable",
      "type": "function"
    },
    {
      "inputs": [
        {
          "internalType": "address",
          "name": "_unfollow",
          "type": "address"
        }
      ],
      "name": "unfollow",
      "outputs": [],
      "stateMutability": "nonpayable",
      "type": "function"
    },
    {
      "inputs": [
        {
          "internalType": "uint256",
          "name": "_start",
          "type": "uint256"
        },
        {
          "internalType": "uint256",
          "name": "_end",
          "type": "uint256"
        }
      ],
      "name": "following",
      "outputs": [
        {
          "internalType": "address[]",
          "name": "_following",
          "type": "address[]"
        }
      ],
      "stateMutability": "view",
      "type": "function"
    },
    {
      "inputs": [
        {
          "internalType": "address",
          "name": "_follow",
          "type": "address"
        },
        {
          "internalType": "uint256",
          "name": "_start",
          "type": "uint256"
        },
        {
          "internalType": "uint256",
          "name": "_end",
          "type": "uint256"
        }
      ],
      "name": "followers",
      "outputs": [
        {
          "internalType": "address[]",
          "name": "_followers",
          "type": "address[]"
        }
      ],
      "stateMutability": "view",
      "type": "function"
    },
    {
      "inputs": [],
      "name": "numFollowing",
      "outputs": [
        {
          "internalType": "uint256",
          "name": "",
          "type": "uint256"
        }
      ],
      "stateMutability": "view",
      "type": "function"
    },
    {
      "inputs": [
        {
          "internalType": "address",
          "name": "_follow",
          "type": "address"
        }
      ],
      "name": "numFollowers",
      "outputs": [
        {
          "internalType": "uint256",
          "name": "",
          "type": "uint256"
        }
      ],
      "stateMutability": "view",
      "type": "function"
    }
  ],
  "bytecode": "0x608060405234801561001057600080fd5b5060405161133138038061133183398101604081905261002f916100ad565b6100383361005d565b600480546001600160a01b0319166001600160a01b03929092169190911790556100dd565b600080546001600160a01b038381166001600160a01b0319831681178455604051919092169283917f8be0079c531659141344cd1fd0a4f28419497f9722a3daafe3b4186f6b6457e09190a35050565b6000602082840312156100bf57600080fd5b81516001600160a01b03811681146100d657600080fd5b9392505050565b611245806100ec6000396000f3fe608060405234801561001057600080fd5b50600436106100cf5760003560e01c806380975e4a1161008c578063a6461f3e11610066578063a6461f3e146101db578063c8059e16146101ee578063df0e08d3146101f6578063f2fde38b1461020957600080fd5b806380975e4a1461017957806384a583901461018c5780638da5cb5b146101ca57600080fd5b8063015a4ead146100d4578063053acf85146100e957806339e3c480146101125780634dbf27cc146101335780636b891a2414610146578063715018a614610171575b600080fd5b6100e76100e236600461102a565b61021c565b005b6100fc6100f73660046110fe565b610658565b6040516101099190611120565b60405180910390f35b61012561012036600461102a565b6108bf565b604051908152602001610109565b6100e761014136600461102a565b61097a565b600454610159906001600160a01b031681565b6040516001600160a01b039091168152602001610109565b6100e7610b56565b6100fc6101873660046110a9565b610b6a565b6101ba61019a36600461104c565b600360209081526000928352604080842090915290825290205460ff1681565b6040519015158152602001610109565b6000546001600160a01b0316610159565b6101596101e936600461107f565b610de6565b610125610e1e565b61015961020436600461107f565b610ecf565b6100e761021736600461102a565b610eeb565b60048054604051630c7c018f60e31b815233928101929092526001600160a01b0316906363e00c789060240160206040518083038186803b15801561026057600080fd5b505afa158015610274573d6000803e3d6000fd5b505050506040513d601f19601f8201168201806040525081019061029891906110dc565b6102bd5760405162461bcd60e51b81526004016102b49061116d565b60405180910390fd5b60048054604051630c7c018f60e31b81526001600160a01b03848116938201939093529116906363e00c789060240160206040518083038186803b15801561030457600080fd5b505afa158015610318573d6000803e3d6000fd5b505050506040513d601f19601f8201168201806040525081019061033c91906110dc565b6103815760405162461bcd60e51b81526020600482015260166024820152752337b63637bb903737ba103932b3b4b9ba32b932b21760511b60448201526064016102b4565b60005b336000908152600160205260409020548110156104f55733600090815260016020526040902080546001600160a01b0384169190839081106103c8576103c86111e3565b6000918252602090912001546001600160a01b031614156104e357336000908152600160208190526040909120805490916104029161119b565b81548110610412576104126111e3565b60009182526020808320909101543383526001909152604090912080546001600160a01b03909216918390811061044b5761044b6111e3565b600091825260208083209190910180546001600160a01b0319166001600160a01b03949094169390931790925533815260019182905260409020805490916104929161119b565b815481106104a2576104a26111e3565b6000918252602080832090910180546001600160a01b03191690553382526003815260408083206001600160a01b03861684529091529020805460ff191690555b806104ed816111b2565b915050610384565b5060005b6001600160a01b038216600090815260026020526040902054811015610654576001600160a01b0382166000908152600260205260409020805433919083908110610546576105466111e3565b6000918252602090912001546001600160a01b03161415610642576001600160a01b038216600090815260026020526040902080546105879060019061119b565b81548110610597576105976111e3565b60009182526020808320909101546001600160a01b038581168452600290925260409092208054919092169190839081106105d4576105d46111e3565b600091825260208083209190910180546001600160a01b0319166001600160a01b03948516179055918416815260029091526040902080546106189060019061119b565b81548110610628576106286111e3565b600091825260209091200180546001600160a01b03191690555b8061064c816111b2565b9150506104f9565b5050565b60048054604051630c7c018f60e31b815233928101929092526060916001600160a01b03909116906363e00c789060240160206040518083038186803b1580156106a157600080fd5b505afa1580156106b5573d6000803e3d6000fd5b505050506040513d601f19601f820116820180604052508101906106d991906110dc565b6106f55760405162461bcd60e51b81526004016102b49061116d565b336000908152600160205260409020548211156107475760405162461bcd60e51b815260206004820152601060248201526f24b73b30b634b2103930b733b290189760811b60448201526064016102b4565b8183106107895760405162461bcd60e51b815260206004820152601060248201526f24b73b30b634b2103930b733b290191760811b60448201526064016102b4565b6064610795848461119b565b106107e25760405162461bcd60e51b815260206004820152601d60248201527f546f6f206d616e7920666f6c6c6f77696e67207265717565737465642e00000060448201526064016102b4565b6107ec838361119b565b67ffffffffffffffff811115610804576108046111f9565b60405190808252806020026020018201604052801561082d578160200160208202803683370190505b5090506000835b838110156108b75733600090815260016020526040902080548290811061085d5761085d6111e3565b9060005260206000200160009054906101000a90046001600160a01b031683838151811061088d5761088d6111e3565b6001600160a01b0390921660209283029190910190910152806108af816111b2565b915050610834565b505092915050565b60048054604051630c7c018f60e31b81526001600160a01b0384811693820193909352600092909116906363e00c789060240160206040518083038186803b15801561090a57600080fd5b505afa15801561091e573d6000803e3d6000fd5b505050506040513d601f19601f8201168201806040525081019061094291906110dc565b61095e5760405162461bcd60e51b81526004016102b49061116d565b506001600160a01b031660009081526002602052604090205490565b60048054604051630c7c018f60e31b815233928101929092526001600160a01b0316906363e00c789060240160206040518083038186803b1580156109be57600080fd5b505afa1580156109d2573d6000803e3d6000fd5b505050506040513d601f19601f820116820180604052508101906109f691906110dc565b610a125760405162461bcd60e51b81526004016102b49061116d565b60048054604051630c7c018f60e31b81526001600160a01b03848116938201939093529116906363e00c789060240160206040518083038186803b158015610a5957600080fd5b505afa158015610a6d573d6000803e3d6000fd5b505050506040513d601f19601f82011682018060405250810190610a9191906110dc565b610ad65760405162461bcd60e51b81526020600482015260166024820152752337b63637bb903737ba103932b3b4b9ba32b932b21760511b60448201526064016102b4565b336000818152600160208181526040808420805480850182559085528285200180546001600160a01b03979097166001600160a01b0319978816811790915580855260028352818520805480860182559086528386200180549097168617909655938352600381528383209483529390935220805460ff19169091179055565b610b5e610f64565b610b686000610fbe565b565b60048054604051630c7c018f60e31b81526001600160a01b0386811693820193909352606092909116906363e00c789060240160206040518083038186803b158015610bb557600080fd5b505afa158015610bc9573d6000803e3d6000fd5b505050506040513d601f19601f82011682018060405250810190610bed91906110dc565b610c095760405162461bcd60e51b81526004016102b49061116d565b6001600160a01b038416600090815260026020526040902054821115610c645760405162461bcd60e51b815260206004820152601060248201526f24b73b30b634b2103930b733b290189760811b60448201526064016102b4565b818310610ca65760405162461bcd60e51b815260206004820152601060248201526f24b73b30b634b2103930b733b290191760811b60448201526064016102b4565b6064610cb2848461119b565b10610cff5760405162461bcd60e51b815260206004820152601d60248201527f546f6f206d616e7920666f6c6c6f77696e67207265717565737465642e00000060448201526064016102b4565b610d09838361119b565b67ffffffffffffffff811115610d2157610d216111f9565b604051908082528060200260200182016040528015610d4a578160200160208202803683370190505b5090506000835b83811015610ddd576001600160a01b0386166000908152600260205260409020805482908110610d8357610d836111e3565b9060005260206000200160009054906101000a90046001600160a01b0316838381518110610db357610db36111e3565b6001600160a01b039092166020928302919091019091015280610dd5816111b2565b915050610d51565b50509392505050565b60016020528160005260406000208181548110610e0257600080fd5b6000918252602090912001546001600160a01b03169150829050565b60048054604051630c7c018f60e31b815233928101929092526000916001600160a01b03909116906363e00c789060240160206040518083038186803b158015610e6757600080fd5b505afa158015610e7b573d6000803e3d6000fd5b505050506040513d601f19601f82011682018060405250810190610e9f91906110dc565b610ebb5760405162461bcd60e51b81526004016102b49061116d565b503360009081526001602052604090205490565b60026020528160005260406000208181548110610e0257600080fd5b610ef3610f64565b6001600160a01b038116610f585760405162461bcd60e51b815260206004820152602660248201527f4f776e61626c653a206e6577206f776e657220697320746865207a65726f206160448201526564647265737360d01b60648201526084016102b4565b610f6181610fbe565b50565b6000546001600160a01b03163314610b685760405162461bcd60e51b815260206004820181905260248201527f4f776e61626c653a2063616c6c6572206973206e6f7420746865206f776e657260448201526064016102b4565b600080546001600160a01b038381166001600160a01b0319831681178455604051919092169283917f8be0079c531659141344cd1fd0a4f28419497f9722a3daafe3b4186f6b6457e09190a35050565b80356001600160a01b038116811461102557600080fd5b919050565b60006020828403121561103c57600080fd5b6110458261100e565b9392505050565b6000806040838503121561105f57600080fd5b6110688361100e565b91506110766020840161100e565b90509250929050565b6000806040838503121561109257600080fd5b61109b8361100e565b946020939093013593505050565b6000806000606084860312156110be57600080fd5b6110c78461100e565b95602085013595506040909401359392505050565b6000602082840312156110ee57600080fd5b8151801515811461104557600080fd5b6000806040838503121561111157600080fd5b50508035926020909101359150565b6020808252825182820181905260009190848201906040850190845b818110156111615783516001600160a01b03168352928401929184019160010161113c565b50909695505050505050565b6020808252601490820152732ab9b2b9103737ba103932b3b4b9ba32b932b21760611b604082015260600190565b6000828210156111ad576111ad6111cd565b500390565b60006000198214156111c6576111c66111cd565b5060010190565b634e487b7160e01b600052601160045260246000fd5b634e487b7160e01b600052603260045260246000fd5b634e487b7160e01b600052604160045260246000fdfea264697066735822122059554ddab0a4668273bfaffbce66b3fe3489852af4524de7e5f4afe9480e8c1c64736f6c63430008050033",
  "immutableReferences": {},
  "source": "pragma solidity ^0.8.0;\nimport  \"@openzeppelin/contracts/access/Ownable.sol\";\nimport \"../public-keys/PublicKeys.sol\";\n\ncontract Following is Ownable{\n    // Following\n    mapping(address => address[]) public FollowingChannel;\n    mapping(address => address[]) public FollowersChannel;\n\n    mapping(address => mapping(address => bool)) public Follows;\n    \n\n    PublicKeys public Public_Keys;\n\n    constructor(address _public_keys) {\n        Public_Keys = PublicKeys(_public_keys);\n    }\n\n    function follow(address _follow) public {\n        require(Public_Keys.onlyRegistered(msg.sender), \"User not registered.\");\n        require(Public_Keys.onlyRegistered(_follow), \"Follow not registered.\");\n        FollowingChannel[msg.sender].push(_follow);\n        FollowersChannel[_follow].push(msg.sender);\n        Follows[msg.sender][_follow] = true;\n    }\n\n    function unfollow(address _unfollow) public {\n        require(Public_Keys.onlyRegistered(msg.sender), \"User not registered.\");\n        require(Public_Keys.onlyRegistered(_unfollow), \"Follow not registered.\");\n        \n        for(uint i = 0; i < FollowingChannel[msg.sender].length; i++){\n            if(FollowingChannel[msg.sender][i] == _unfollow){\n                FollowingChannel[msg.sender][i] = FollowingChannel[msg.sender][FollowingChannel[msg.sender].length - 1];\n                delete FollowingChannel[msg.sender][FollowingChannel[msg.sender].length - 1];\n                Follows[msg.sender][_unfollow] = false;\n            }\n        }\n\n        for(uint i = 0; i < FollowersChannel[_unfollow].length; i++){\n            if(FollowersChannel[_unfollow][i] == msg.sender){\n                FollowersChannel[_unfollow][i] = FollowersChannel[_unfollow][FollowersChannel[_unfollow].length - 1];\n                delete FollowersChannel[_unfollow][FollowersChannel[_unfollow].length - 1];\n            }\n        }\n    }\n\n    function following(uint _start, uint _end) public view returns(address[] memory _following){\n        require(Public_Keys.onlyRegistered(msg.sender), \"User not registered.\");\n        require(_end <= FollowingChannel[msg.sender].length , \"Invalid range 1.\");\n        require(_start < _end, \"Invalid range 2.\");\n        require(_end - _start < 100, \"Too many following requested.\");\n        _following = new address[](_end - _start);\n        uint j = 0;\n        for(uint i = _start; i < _end; i++){\n            _following[j] = FollowingChannel[msg.sender][i];\n        }\n        return _following;\n    }\n\n    function followers(address _follow, uint _start, uint _end) public view returns(address[] memory _followers){\n        require(Public_Keys.onlyRegistered(_follow), \"User not registered.\");\n        require(_end <= FollowersChannel[_follow].length , \"Invalid range 1.\");\n        require(_start < _end, \"Invalid range 2.\");\n        require(_end - _start < 100, \"Too many following requested.\");\n        _followers = new address[](_end - _start);\n        uint j = 0;\n        for(uint i = _start; i < _end; i++){\n            _followers[j] = FollowersChannel[_follow][i];\n        }\n        return _followers;\n    }\n\n    function numFollowing() public view returns(uint){\n        require(Public_Keys.onlyRegistered(msg.sender), \"User not registered.\");\n        return FollowingChannel[msg.sender].length;\n    }\n\n    function numFollowers(address _follow) public view returns(uint){\n        require(Public_Keys.onlyRegistered(_follow), \"User not registered.\");\n        return FollowersChannel[_follow].length;\n    }\n}\n",
  "sourcePath": "/home/stephensb/sb-labs/solidity-contracts/contracts/following/Following.sol",
  "compiler": {
    "name": "solc",
    "version": "0.8.5+commit.a4f2e591.Emscripten.clang"
  },
  "schemaVersion": "3.4.16",
  "updatedAt": "2025-01-14T02:43:28.633Z",
  "devdoc": {
    "kind": "dev",
    "methods": {
      "owner()": {
        "details": "Returns the address of the current owner."
      },
      "renounceOwnership()": {
        "details": "Leaves the contract without owner. It will not be possible to call `onlyOwner` functions. Can only be called by the current owner. NOTE: Renouncing ownership will leave the contract without an owner, thereby disabling any functionality that is only available to the owner."
      },
      "transferOwnership(address)": {
        "details": "Transfers ownership of the contract to a new account (`newOwner`). Can only be called by the current owner."
      }
    },
    "version": 1
  },
  "userdoc": {
    "kind": "user",
    "methods": {},
    "version": 1
  }
}