{
  "contractName": "FullRange",
  "abi": [
    {
      "inputs": [
        {
          "internalType": "contract IPoolManager",
          "name": "_poolManager",
          "type": "address"
        }
      ],
      "stateMutability": "nonpayable",
      "type": "constructor"
    },
    {
      "inputs": [],
      "name": "ERC20TransferFailed",
      "type": "error"
    },
    {
      "inputs": [],
      "name": "ExpiredPastDeadline",
      "type": "error"
    },
    {
      "inputs": [
        {
          "internalType": "address",
          "name": "hooks",
          "type": "address"
        }
      ],
      "name": "HookAddressNotValid",
      "type": "error"
    },
    {
      "inputs": [],
      "name": "HookNotImplemented",
      "type": "error"
    },
    {
      "inputs": [],
      "name": "InvalidPool",
      "type": "error"
    },
    {
      "inputs": [],
      "name": "InvalidTick",
      "type": "error"
    },
    {
      "inputs": [],
      "name": "LiquidityDoesntMeetMinimum",
      "type": "error"
    },
    {
      "inputs": [],
      "name": "LockFailure",
      "type": "error"
    },
    {
      "inputs": [],
      "name": "NativeTransferFailed",
      "type": "error"
    },
    {
      "inputs": [],
      "name": "NotPoolManager",
      "type": "error"
    },
    {
      "inputs": [],
      "name": "NotSelf",
      "type": "error"
    },
    {
      "inputs": [],
      "name": "PoolNotInitialized",
      "type": "error"
    },
    {
      "inputs": [],
      "name": "SafeCastOverflow",
      "type": "error"
    },
    {
      "inputs": [],
      "name": "SenderMustBeHook",
      "type": "error"
    },
    {
      "inputs": [],
      "name": "TickSpacingNotDefault",
      "type": "error"
    },
    {
      "inputs": [],
      "name": "TooMuchSlippage",
      "type": "error"
    },
    {
      "inputs": [
        {
          "internalType": "address",
          "name": "",
          "type": "address"
        },
        {
          "components": [
            {
              "internalType": "Currency",
              "name": "currency0",
              "type": "address"
            },
            {
              "internalType": "Currency",
              "name": "currency1",
              "type": "address"
            },
            {
              "internalType": "uint24",
              "name": "fee",
              "type": "uint24"
            },
            {
              "internalType": "int24",
              "name": "tickSpacing",
              "type": "int24"
            },
            {
              "internalType": "contract IHooks",
              "name": "hooks",
              "type": "address"
            }
          ],
          "internalType": "struct PoolKey",
          "name": "",
          "type": "tuple"
        },
        {
          "internalType": "uint256",
          "name": "",
          "type": "uint256"
        },
        {
          "internalType": "uint256",
          "name": "",
          "type": "uint256"
        },
        {
          "internalType": "bytes",
          "name": "",
          "type": "bytes"
        }
      ],
      "name": "afterDonate",
      "outputs": [
        {
          "internalType": "bytes4",
          "name": "",
          "type": "bytes4"
        }
      ],
      "stateMutability": "nonpayable",
      "type": "function"
    },
    {
      "inputs": [
        {
          "internalType": "address",
          "name": "",
          "type": "address"
        },
        {
          "components": [
            {
              "internalType": "Currency",
              "name": "currency0",
              "type": "address"
            },
            {
              "internalType": "Currency",
              "name": "currency1",
              "type": "address"
            },
            {
              "internalType": "uint24",
              "name": "fee",
              "type": "uint24"
            },
            {
              "internalType": "int24",
              "name": "tickSpacing",
              "type": "int24"
            },
            {
              "internalType": "contract IHooks",
              "name": "hooks",
              "type": "address"
            }
          ],
          "internalType": "struct PoolKey",
          "name": "",
          "type": "tuple"
        },
        {
          "internalType": "uint160",
          "name": "",
          "type": "uint160"
        },
        {
          "internalType": "int24",
          "name": "",
          "type": "int24"
        },
        {
          "internalType": "bytes",
          "name": "",
          "type": "bytes"
        }
      ],
      "name": "afterInitialize",
      "outputs": [
        {
          "internalType": "bytes4",
          "name": "",
          "type": "bytes4"
        }
      ],
      "stateMutability": "nonpayable",
      "type": "function"
    },
    {
      "inputs": [
        {
          "internalType": "address",
          "name": "",
          "type": "address"
        },
        {
          "components": [
            {
              "internalType": "Currency",
              "name": "currency0",
              "type": "address"
            },
            {
              "internalType": "Currency",
              "name": "currency1",
              "type": "address"
            },
            {
              "internalType": "uint24",
              "name": "fee",
              "type": "uint24"
            },
            {
              "internalType": "int24",
              "name": "tickSpacing",
              "type": "int24"
            },
            {
              "internalType": "contract IHooks",
              "name": "hooks",
              "type": "address"
            }
          ],
          "internalType": "struct PoolKey",
          "name": "",
          "type": "tuple"
        },
        {
          "components": [
            {
              "internalType": "int24",
              "name": "tickLower",
              "type": "int24"
            },
            {
              "internalType": "int24",
              "name": "tickUpper",
              "type": "int24"
            },
            {
              "internalType": "int256",
              "name": "liquidityDelta",
              "type": "int256"
            }
          ],
          "internalType": "struct IPoolManager.ModifyPositionParams",
          "name": "",
          "type": "tuple"
        },
        {
          "internalType": "BalanceDelta",
          "name": "",
          "type": "int256"
        },
        {
          "internalType": "bytes",
          "name": "",
          "type": "bytes"
        }
      ],
      "name": "afterModifyPosition",
      "outputs": [
        {
          "internalType": "bytes4",
          "name": "",
          "type": "bytes4"
        }
      ],
      "stateMutability": "nonpayable",
      "type": "function"
    },
    {
      "inputs": [
        {
          "internalType": "address",
          "name": "",
          "type": "address"
        },
        {
          "components": [
            {
              "internalType": "Currency",
              "name": "currency0",
              "type": "address"
            },
            {
              "internalType": "Currency",
              "name": "currency1",
              "type": "address"
            },
            {
              "internalType": "uint24",
              "name": "fee",
              "type": "uint24"
            },
            {
              "internalType": "int24",
              "name": "tickSpacing",
              "type": "int24"
            },
            {
              "internalType": "contract IHooks",
              "name": "hooks",
              "type": "address"
            }
          ],
          "internalType": "struct PoolKey",
          "name": "",
          "type": "tuple"
        },
        {
          "components": [
            {
              "internalType": "bool",
              "name": "zeroForOne",
              "type": "bool"
            },
            {
              "internalType": "int256",
              "name": "amountSpecified",
              "type": "int256"
            },
            {
              "internalType": "uint160",
              "name": "sqrtPriceLimitX96",
              "type": "uint160"
            }
          ],
          "internalType": "struct IPoolManager.SwapParams",
          "name": "",
          "type": "tuple"
        },
        {
          "internalType": "BalanceDelta",
          "name": "",
          "type": "int256"
        },
        {
          "internalType": "bytes",
          "name": "",
          "type": "bytes"
        }
      ],
      "name": "afterSwap",
      "outputs": [
        {
          "internalType": "bytes4",
          "name": "",
          "type": "bytes4"
        }
      ],
      "stateMutability": "nonpayable",
      "type": "function"
    },
    {
      "inputs": [
        {
          "internalType": "address",
          "name": "",
          "type": "address"
        },
        {
          "components": [
            {
              "internalType": "Currency",
              "name": "currency0",
              "type": "address"
            },
            {
              "internalType": "Currency",
              "name": "currency1",
              "type": "address"
            },
            {
              "internalType": "uint24",
              "name": "fee",
              "type": "uint24"
            },
            {
              "internalType": "int24",
              "name": "tickSpacing",
              "type": "int24"
            },
            {
              "internalType": "contract IHooks",
              "name": "hooks",
              "type": "address"
            }
          ],
          "internalType": "struct PoolKey",
          "name": "",
          "type": "tuple"
        },
        {
          "internalType": "uint256",
          "name": "",
          "type": "uint256"
        },
        {
          "internalType": "uint256",
          "name": "",
          "type": "uint256"
        },
        {
          "internalType": "bytes",
          "name": "",
          "type": "bytes"
        }
      ],
      "name": "beforeDonate",
      "outputs": [
        {
          "internalType": "bytes4",
          "name": "",
          "type": "bytes4"
        }
      ],
      "stateMutability": "nonpayable",
      "type": "function"
    },
    {
      "inputs": [
        {
          "internalType": "PoolId",
          "name": "",
          "type": "bytes32"
        }
      ],
      "name": "poolInfo",
      "outputs": [
        {
          "internalType": "bool",
          "name": "hasAccruedFees",
          "type": "bool"
        },
        {
          "internalType": "address",
          "name": "liquidityToken",
          "type": "address"
        }
      ],
      "stateMutability": "view",
      "type": "function"
    },
    {
      "inputs": [],
      "name": "poolManager",
      "outputs": [
        {
          "internalType": "contract IPoolManager",
          "name": "",
          "type": "address"
        }
      ],
      "stateMutability": "view",
      "type": "function"
    },
    {
      "inputs": [],
      "name": "getHooksCalls",
      "outputs": [
        {
          "components": [
            {
              "internalType": "bool",
              "name": "beforeInitialize",
              "type": "bool"
            },
            {
              "internalType": "bool",
              "name": "afterInitialize",
              "type": "bool"
            },
            {
              "internalType": "bool",
              "name": "beforeModifyPosition",
              "type": "bool"
            },
            {
              "internalType": "bool",
              "name": "afterModifyPosition",
              "type": "bool"
            },
            {
              "internalType": "bool",
              "name": "beforeSwap",
              "type": "bool"
            },
            {
              "internalType": "bool",
              "name": "afterSwap",
              "type": "bool"
            },
            {
              "internalType": "bool",
              "name": "beforeDonate",
              "type": "bool"
            },
            {
              "internalType": "bool",
              "name": "afterDonate",
              "type": "bool"
            },
            {
              "internalType": "bool",
              "name": "noOp",
              "type": "bool"
            }
          ],
          "internalType": "struct Hooks.Calls",
          "name": "",
          "type": "tuple"
        }
      ],
      "stateMutability": "pure",
      "type": "function"
    },
    {
      "inputs": [
        {
          "components": [
            {
              "internalType": "Currency",
              "name": "currency0",
              "type": "address"
            },
            {
              "internalType": "Currency",
              "name": "currency1",
              "type": "address"
            },
            {
              "internalType": "uint24",
              "name": "fee",
              "type": "uint24"
            },
            {
              "internalType": "uint256",
              "name": "amount0Desired",
              "type": "uint256"
            },
            {
              "internalType": "uint256",
              "name": "amount1Desired",
              "type": "uint256"
            },
            {
              "internalType": "uint256",
              "name": "amount0Min",
              "type": "uint256"
            },
            {
              "internalType": "uint256",
              "name": "amount1Min",
              "type": "uint256"
            },
            {
              "internalType": "address",
              "name": "to",
              "type": "address"
            },
            {
              "internalType": "uint256",
              "name": "deadline",
              "type": "uint256"
            }
          ],
          "internalType": "struct FullRange.AddLiquidityParams",
          "name": "params",
          "type": "tuple"
        }
      ],
      "name": "addLiquidity",
      "outputs": [
        {
          "internalType": "uint128",
          "name": "liquidity",
          "type": "uint128"
        }
      ],
      "stateMutability": "nonpayable",
      "type": "function"
    },
    {
      "inputs": [
        {
          "components": [
            {
              "internalType": "Currency",
              "name": "currency0",
              "type": "address"
            },
            {
              "internalType": "Currency",
              "name": "currency1",
              "type": "address"
            },
            {
              "internalType": "uint24",
              "name": "fee",
              "type": "uint24"
            },
            {
              "internalType": "uint256",
              "name": "liquidity",
              "type": "uint256"
            },
            {
              "internalType": "uint256",
              "name": "deadline",
              "type": "uint256"
            }
          ],
          "internalType": "struct FullRange.RemoveLiquidityParams",
          "name": "params",
          "type": "tuple"
        }
      ],
      "name": "removeLiquidity",
      "outputs": [
        {
          "internalType": "BalanceDelta",
          "name": "delta",
          "type": "int256"
        }
      ],
      "stateMutability": "nonpayable",
      "type": "function"
    },
    {
      "inputs": [
        {
          "internalType": "address",
          "name": "",
          "type": "address"
        },
        {
          "components": [
            {
              "internalType": "Currency",
              "name": "currency0",
              "type": "address"
            },
            {
              "internalType": "Currency",
              "name": "currency1",
              "type": "address"
            },
            {
              "internalType": "uint24",
              "name": "fee",
              "type": "uint24"
            },
            {
              "internalType": "int24",
              "name": "tickSpacing",
              "type": "int24"
            },
            {
              "internalType": "contract IHooks",
              "name": "hooks",
              "type": "address"
            }
          ],
          "internalType": "struct PoolKey",
          "name": "key",
          "type": "tuple"
        },
        {
          "internalType": "uint160",
          "name": "",
          "type": "uint160"
        },
        {
          "internalType": "bytes",
          "name": "",
          "type": "bytes"
        }
      ],
      "name": "beforeInitialize",
      "outputs": [
        {
          "internalType": "bytes4",
          "name": "",
          "type": "bytes4"
        }
      ],
      "stateMutability": "nonpayable",
      "type": "function"
    },
    {
      "inputs": [
        {
          "internalType": "address",
          "name": "sender",
          "type": "address"
        },
        {
          "components": [
            {
              "internalType": "Currency",
              "name": "currency0",
              "type": "address"
            },
            {
              "internalType": "Currency",
              "name": "currency1",
              "type": "address"
            },
            {
              "internalType": "uint24",
              "name": "fee",
              "type": "uint24"
            },
            {
              "internalType": "int24",
              "name": "tickSpacing",
              "type": "int24"
            },
            {
              "internalType": "contract IHooks",
              "name": "hooks",
              "type": "address"
            }
          ],
          "internalType": "struct PoolKey",
          "name": "",
          "type": "tuple"
        },
        {
          "components": [
            {
              "internalType": "int24",
              "name": "tickLower",
              "type": "int24"
            },
            {
              "internalType": "int24",
              "name": "tickUpper",
              "type": "int24"
            },
            {
              "internalType": "int256",
              "name": "liquidityDelta",
              "type": "int256"
            }
          ],
          "internalType": "struct IPoolManager.ModifyPositionParams",
          "name": "",
          "type": "tuple"
        },
        {
          "internalType": "bytes",
          "name": "",
          "type": "bytes"
        }
      ],
      "name": "beforeModifyPosition",
      "outputs": [
        {
          "internalType": "bytes4",
          "name": "",
          "type": "bytes4"
        }
      ],
      "stateMutability": "view",
      "type": "function"
    },
    {
      "inputs": [
        {
          "internalType": "address",
          "name": "",
          "type": "address"
        },
        {
          "components": [
            {
              "internalType": "Currency",
              "name": "currency0",
              "type": "address"
            },
            {
              "internalType": "Currency",
              "name": "currency1",
              "type": "address"
            },
            {
              "internalType": "uint24",
              "name": "fee",
              "type": "uint24"
            },
            {
              "internalType": "int24",
              "name": "tickSpacing",
              "type": "int24"
            },
            {
              "internalType": "contract IHooks",
              "name": "hooks",
              "type": "address"
            }
          ],
          "internalType": "struct PoolKey",
          "name": "key",
          "type": "tuple"
        },
        {
          "components": [
            {
              "internalType": "bool",
              "name": "zeroForOne",
              "type": "bool"
            },
            {
              "internalType": "int256",
              "name": "amountSpecified",
              "type": "int256"
            },
            {
              "internalType": "uint160",
              "name": "sqrtPriceLimitX96",
              "type": "uint160"
            }
          ],
          "internalType": "struct IPoolManager.SwapParams",
          "name": "",
          "type": "tuple"
        },
        {
          "internalType": "bytes",
          "name": "",
          "type": "bytes"
        }
      ],
      "name": "beforeSwap",
      "outputs": [
        {
          "internalType": "bytes4",
          "name": "",
          "type": "bytes4"
        }
      ],
      "stateMutability": "nonpayable",
      "type": "function"
    },
    {
      "inputs": [
        {
          "internalType": "bytes",
          "name": "rawData",
          "type": "bytes"
        }
      ],
      "name": "lockAcquired",
      "outputs": [
        {
          "internalType": "bytes",
          "name": "",
          "type": "bytes"
        }
      ],
      "stateMutability": "nonpayable",
      "type": "function"
    },
    {
      "inputs": [
        {
          "components": [
            {
              "internalType": "Currency",
              "name": "currency0",
              "type": "address"
            },
            {
              "internalType": "Currency",
              "name": "currency1",
              "type": "address"
            },
            {
              "internalType": "uint24",
              "name": "fee",
              "type": "uint24"
            },
            {
              "internalType": "int24",
              "name": "tickSpacing",
              "type": "int24"
            },
            {
              "internalType": "contract IHooks",
              "name": "hooks",
              "type": "address"
            }
          ],
          "internalType": "struct PoolKey",
          "name": "key",
          "type": "tuple"
        }
      ],
      "name": "_rebalance",
      "outputs": [],
      "stateMutability": "nonpayable",
      "type": "function"
    }
  ],
  "bytecode": "0x60a06040523461021257604051601f613c4838819003918201601f19168301916001600160401b038311848410176102165780849260209460405283398101031261021257516001600160a01b0381168103610212576080525f61010061006461022a565b8281528260208201528260408201528260608201528260808201528260a08201528260c08201528260e082015201525f61010061009f61022a565b6001815282602082015260016040820152826060820152600160808201528260a08201528260c08201528260e082015201526001609f1b30161515600114801590610203575b80156101f0575b80156101e1575b80156101ce575b80156101bf575b80156101b0575b80156101a1575b8015610192575b61017f576040516139fd908161024b82396080518181816105e301528181610b5101528181610ee501528181610fd20152818161150c01528181611fea015281816120f301528181612275015281816126cb015281816127220152818161277e01526127d40152f35b630732d7b560e51b5f523060045260245ffd5b5030600160971b161515610116565b5030600160981b16151561010f565b5030600160991b161515610108565b50306001609a1b161515610101565b50306001609b1b161515600114156100fa565b50306001609c1b1615156100f3565b50306001609d1b161515600114156100ec565b50306001609e1b1615156100e5565b5f80fd5b634e487b7160e01b5f52604160045260245ffd5b6040519061012082016001600160401b038111838210176102165760405256fe60806040526004361015610011575f80fd5b5f3560e01c806330b7cdef146100d75780633440d820146100fa578063575e24b4146100f5578063610fc66c146100f0578063612c39b7146100eb5780638cebd942146100e6578063a910f80f146100e1578063ab6291fe146100dc578063b47b2fb1146100d7578063b6a8b0fa146100c8578063c0e02678146100d2578063dc4c90d3146100cd578063e1b4af69146100c8578063ea402653146100c35763fe9a6f45146100be575f80fd5b6110e7565b610f14565b610cb5565b610ed0565b610e57565b6101c3565b610b1f565b610a79565b610a30565b610993565b61053c565b6104da565b6101e6565b6001600160a01b0381160361011057565b5f80fd5b60a090602319011261011057602490565b60a090600319011261011057600490565b9181601f84011215610110578235916001600160401b038311610110576020838186019501011161011057565b6101606003198201126101105760043561017c816100ff565b9160a060231983011261011057602491606060c3198201126101105760c491610124359161014435906001600160401b038211610110576101bf91600401610136565b9091565b34610110576101d136610163565b505050505050630a85dc2960e01b5f5260045ffd5b3461011057610100366003190112610110576102036004356100ff565b61020c36610114565b61021760c4356100ff565b60e4356001600160401b03811161011057610236903690600401610136565b5050603c61024660608301611129565b60020b0361047357600461026261025d3684610de4565b61187a565b915f61028261027661027661027685611157565b6001600160a01b031690565b6040516395d89b4160e01b815293849182905afa8015610414576004925f91610459575b505f6102bd61027661027661027660208701611157565b6040516395d89b4160e01b815294859182905afa92831561041457610337936103589361034a925f9261041e575b5061033761031161030c610304604061034495016111f3565b62ffffff1690565b6118f2565b9261034460405198899761034461033760208b0160059064155b9a558d60da1b81520190565b602d60f81b815260010190565b906111fd565b03601f198101835282610d79565b604051906110ca90818301908382106001600160401b0383111761041957806103879285946128fe863961120f565b03905ff08015610414576103c56103fd926103b86103a3610d9a565b5f81526001600160a01b039094166020850152565b5f525f60205260405f2090565b815181546020909301516001600160a81b031990931660ff911515919091161760089290921b610100600160a81b0316919091179055565b6040516301a206c160e51b815280602081015b0390f35b6111dc565b610d13565b61034491925061031161030c610304604061044d610337953d805f833e6104458183610d79565b81019061117c565b969550505050506102eb565b61046d91503d805f833e6104458183610d79565b5f6102a6565b637acf913b60e11b5f5260045ffd5b906101406003198301126101105760043561049c816100ff565b9160a060231982011261011057602491606060c3198301126101105760c49161012435906001600160401b038211610110576101bf91600401610136565b34610110576104fa61025d6104ee36610482565b50505090503690610de4565b805f525f60205260ff60405f20541615610521575b6040516315d7892d60e21b8152602090f35b5f525f60205260405f20600160ff198254161790555f61050f565b3461011057610120366003190112610110576101043542116108fd57610560611133565b6105ad61056b61113f565b6105a16105766111e7565b91610591610582610da9565b6001600160a01b039096168652565b6001600160a01b03166020850152565b62ffffff166040830152565b603c60608201523060808201526105c38161187a565b604051633205590760e21b81526004810182905290916001600160a01b037f00000000000000000000000000000000000000000000000000000000000000001690608083602481855afa928315610414575f936108c9575b506001600160a01b038316156108ba57602084610642610663965f525f60205260405f2090565b93604051808098819463fa6793d560e01b8352600483019190602083019252565b03915afa938415610414575f94610889575b506001600160801b036106a6610689611a48565b94620d89b49561069887611b3c565b606435916084355b93611e8c565b941615928380610874575b610865576106f2916106cb6001600160801b038716611f27565b6106e86106d6610db8565b620d89b31981529360020b6020850152565b6040830152611f9a565b916107d9575b54610710906102769060081c6001600160a01b031681565b61071861114b565b90803b15610110576040516340c10f1960e01b81526001600160a01b039290921660048301526001600160801b03841660248301525f908290604490829084905af18015610414576107bf575b5060a4356001600160801b038260801d16109081156107a9575b5061079a576040516001600160801b03919091168152602090f35b63fa6ad35560e01b5f5260045ffd5b90506001600160801b0360c4359116105f61077f565b806107cd5f6107d393610d79565b8061090c565b5f610765565b916107e3906112aa565b82549092906107ff906102769060081c6001600160a01b031681565b803b15610110576040516340c10f1960e01b81525f600482018190526103e8602483015290918290604490829084905af1801561041457610710926102769261027692610851575b50925050506106f8565b806107cd5f61085f93610d79565b5f610847565b630e2dfa3360e21b5f5260045ffd5b506103e86001600160801b03861611156106b1565b6108ac91945060203d6020116108b3575b6108a48183610d79565b810190611277565b925f610675565b503d61089a565b63486aa30760e01b5f5260045ffd5b6108ec91935060803d6080116108f6575b6108e48183610d79565b810190611234565b505050915f61061b565b503d6108da565b63105f622d60e31b5f5260045ffd5b5f91031261011057565b610991909291926101008061012083019580511515845260208101511515602085015261094c6040820151604086019015159052565b60608181015115159085015260808181015115159085015260a08181015115159085015260c08181015115159085015260e08181015115159085015201511515910152565b565b34610110575f366003190112610110575f6101006040516109b381610d27565b8281528260208201528260408201528260608201528260808201528260a08201528260c08201528260e082015201526104106109ed610dc7565b600181525f6020820152600160408201525f6060820152600160808201525f60a08201525f60c08201525f60e08201525f61010082015260405191829182610916565b34610110576020366003190112610110576004355f525f6020526040805f205481519060ff81161515825260018060a01b039060081c166020820152f35b8060020b0361011057565b346101105761012036600319011261011057610a966004356100ff565b610a9f36610114565b50610aab60c4356100ff565b610ab660e435610a6e565b610104356001600160401b03811161011057610ad6903690600401610136565b5050630a85dc2960e01b5f5260045ffd5b805180835260209291819084018484015e5f828201840152601f01601f1916010190565b906020610b1c928181520190610ae7565b90565b34610110576020366003190112610110576004356001600160401b03811161011057610b4f903690600401610136565b7f00000000000000000000000000000000000000000000000000000000000000006001600160a01b03169133839003610ca657610b8e918101906112cf565b604081019182515f6040820151125f14610c01575050610bf5610bd9610be18361041095610bc7602061034a9701918251905190612097565b9151919384926001600160a01b031690565b905190612266565b604051928391602083019190602083019252565b60405191829182610b0b565b610c379350602090818401928351915f610c19611354565b6040516330d7224d60e11b81529889958694859391600485016113ba565b03925af191821561041457610c7061034a93610bf593610410965f92610c75575b509251909283916001600160a01b031690519061204f565b610be1565b610c9891925060203d602011610c9f575b610c908183610d79565b810190611368565b905f610c58565b503d610c86565b63570c108560e11b5f5260045ffd5b346101105761012036600319011261011057600435610cd3816100ff565b5060a036602319011261011057610104356001600160401b03811161011057610d00903690600401610136565b5050630a85dc2960e01b5f908152600490fd5b634e487b7160e01b5f52604160045260245ffd5b61012081019081106001600160401b0382111761041957604052565b60a081019081106001600160401b0382111761041957604052565b606081019081106001600160401b0382111761041957604052565b90601f801991011681019081106001600160401b0382111761041957604052565b60405190610991604083610d79565b6040519061099160a083610d79565b60405190610991606083610d79565b6040519061099161012083610d79565b62ffffff81160361011057565b91908260a091031261011057604051610dfc81610d43565b60808082948035610e0c816100ff565b84526020810135610e1c816100ff565b60208501526040810135610e2f81610dd7565b60408501526060810135610e4281610a6e565b6060850152013591610e53836100ff565b0152565b346101105760a036600319011261011057610ece604051610e7781610d43565b600435610e83816100ff565b8152602435610e91816100ff565b6020820152604435610ea281610dd7565b6040820152606435610eb381610a6e565b6060820152608435610ec4816100ff565b60808201526114e4565b005b34610110575f366003190112610110576040517f00000000000000000000000000000000000000000000000000000000000000006001600160a01b03168152602090f35b346101105760a036600319011261011057610f2e36610125565b608081013542116108fd57610f4281611157565b90610f98610f5260208301611157565b610f8c610f61604085016111f3565b91610f7c610f6d610da9565b6001600160a01b039097168752565b6001600160a01b03166020860152565b62ffffff166040840152565b603c6060830152306080830152610fae8261187a565b604051633205590760e21b8152600481018290526080816024816001600160a01b037f0000000000000000000000000000000000000000000000000000000000000000165afa908115610414575f916110c5575b506001600160a01b0316156108ba5761103b61027661102b611057935f525f60205260405f2090565b5460081c6001600160a01b031690565b916060620d89b4910135936106cb61105286611f27565b611400565b906001600160a01b0316803b1561011057604051632770a7eb60e21b815233600482015260248101939093525f908390604490829084905af191821561041457610410926110b1575b506040519081529081906020820190565b806107cd5f6110bf93610d79565b5f6110a0565b6110de915060803d6080116108f6576108e48183610d79565b5050505f611002565b34610110576110f536610482565b50505050309060018060a01b03160361111a5760405163fe9a6f4560e01b8152602090f35b63025f657960e61b5f5260045ffd5b35610b1c81610a6e565b600435610b1c816100ff565b602435610b1c816100ff565b60e435610b1c816100ff565b35610b1c816100ff565b6001600160401b03811161041957601f01601f191660200190565b602081830312610110578051906001600160401b038211610110570181601f82011215610110576020815191016111b282611161565b926111c06040519485610d79565b8284528282011161011057815f926020928386015e8301015290565b6040513d5f823e3d90fd5b604435610b1c81610dd7565b35610b1c81610dd7565b805191908290602001825e015f815290565b9091611226610b1c93604084526040840190610ae7565b916020818403910152610ae7565b919082608091031261011057815161124b816100ff565b91602081015161125a81610a6e565b916060604083015161126b81610dd7565b920151610b1c81610dd7565b9081602091031261011057516001600160801b03811681036101105790565b634e487b7160e01b5f52601160045260245ffd5b6001600160801b036103e719911601906001600160801b0382116112ca57565b611296565b808203610120811261011057606090611304604051946112ee86610d5e565b84356112f9816100ff565b865260208501610de4565b602085015260bf190112610110576101006040519161132283610d5e565b60c081013561133081610a6e565b835260e081013561134081610a6e565b602084015201356040820152604082015290565b60405190611363602083610d79565b5f8252565b90816020910312610110575190565b80516001600160a01b03908116835260208083015182169084015260408083015162ffffff169084015260608083015160020b9084015260809182015116910152565b6113f2610b1c94936113cf8361012095611377565b8051600290810b60a08501526020820151900b60c08401526040015160e0830152565b816101008201520190610ae7565b600160ff1b81146112ca575f0390565b600f0b60016001607f1b031981146112ca575f0390565b818102929181159184041417156112ca57565b610b1c939261144c8261012094611377565b8051151560a0830152602081015160c0830152604001516001600160a01b031660e082015261010081018290520190610ae7565b600f91820b910b039060016001607f1b031982126f7fffffffffffffffffffffffffffffff8313176112ca57565b90610b1c94936001600160801b03610100946114cb858395611377565b1660a08401521660c08201528160e08201520190610ae7565b6114ed8161187a565b60405163fa6793d560e01b815260048101829052906001600160a01b037f000000000000000000000000000000000000000000000000000000000000000016620d89b4602084602481855afa8015610414576115626110526001600160801b036020936115a6985f9161185d575b5016611f27565b61156a610db8565b620d89b319815290600284900b828401525b6040820152611589611354565b6040516330d7224d60e11b81529687928392908a600485016113ba565b03815f865af19283156104145761163f945f9461183c575b506115d76115cb85611410565b6001600160801b031690565b91608061161f61161a61160c61160789851c976001600160801b03806115ff6115cb8c611410565b169116612391565b6124ea565b660100000000000090611427565b6125ac565b9260405180988192633205590760e21b8352600483019190602083019252565b0381875afa958615610414576116bb966020915f9161181a575b5061167b611665610db8565b6001600160a01b03928316928616929092108252565b6001600160ff1b03818301526001600160a01b038416604082015261169e611354565b604051633cf3645360e21b81529889928392908c6004850161143a565b03815f885af1918215610414576001600160801b0361171661171c92611738996020966117ff575b508887866106a06115cb6115cb6117106115cb6115cb61170a611704611a48565b97611b3c565b97611410565b95611410565b16611f27565b61157c611727610db8565b620d89b31981529260020b83850152565b03815f865af193841561041457602094611779926115cb925f926117d0575b506117106115cb61176a61177493611410565b8460801c90611480565b611480565b915f611783611354565b956117a46040519788968795869463234266d760e01b8652600486016114ae565b03925af18015610414576117b55750565b6117cd9060203d602011610c9f57610c908183610d79565b50565b6117749192506115cb61176a6117f5611710938b3d8d11610c9f57610c908183610d79565b9493505050611757565b61181590873d8911610c9f57610c908183610d79565b6116e3565b611833915060803d6080116108f6576108e48183610d79565b5050505f611659565b61185691945060203d602011610c9f57610c908183610d79565b925f6115be565b6118749150853d87116108b3576108a48183610d79565b5f61155b565b60405161188b602082018093611377565b60a0815261189a60c082610d79565b51902090565b906118aa82611161565b6118b76040519182610d79565b82815280926118c8601f1991611161565b0190602036910137565b80156118de575f190490565b634e487b7160e01b5f52601260045260245ffd5b805f9172184f03e93ff9f4daa797ed6e38ed64bf6a1f0160401b821015611a25575b806d04ee2d6d415b85acef8100000000600a921015611a09575b662386f26fc100008110156119f4575b6305f5e1008110156119e2575b6127108110156119d2575b60648110156119c3575b10156119b8575b6119a36021611978600185016118a0565b938401015b5f1901916f181899199a1a9b1b9c1cb0b131b232b360811b600a82061a8353600a900490565b80156119b3576119a3909161197d565b505090565b600190910190611967565b60029060649004930192611960565b6004906127109004930192611956565b6008906305f5e100900493019261194b565b601090662386f26fc10000900493019261193e565b6020906d04ee2d6d415b85acef8100000000900493019261192e565b506040915072184f03e93ff9f4daa797ed6e38ed64bf6a1f0160401b8104611914565b611b036b048a170391f7dc42444e8fa2611afc6d2216e584f5fa1ea926041bedfe98816f09aa508b5b7a84e1c677de54f3e99bc9816f31be135f97d08fd981231505542fcfa6816fe7159475a2c29b7443b29c7fa6e889d9816ffcbe86c7900a88aedcffc83b479aa3a4816ffe5dee046a99a2a811c461f1969c3053816fff973b41fa98c081472e6896dfb254c0816fffcb9843d60f6159c9db58835c9266446ffff2e50f5f656932ef12357cf3c7fdcc82565b0260801c90565b611b1a611b108260201c90565b9163ffffffff1690565b611b34575f905b60ff91909116016001600160a01b031690565b600190611b21565b60020b5f811215611e8657805f03905b620d89e88211611e77576001821615611e65576001600160881b036ffffcb933bd6fad37aa2d162d1a5940015b169160028116611e49575b60048116611e2d575b60088116611e11575b60108116611df5575b60208116611dd9575b60408116611dbd575b60808116611da1575b6101008116611d85575b6102008116611d69575b6104008116611d4d575b6108008116611d31575b6110008116611d15575b6120008116611cf9575b6140008116611cdd575b6180008116611cc1575b620100008116611ca5575b620200008116611c8a575b620400008116611c6f575b6208000016611c56575b5f12611c4857611b1a611b108260201c90565b611c51906118d2565b611b03565b6b048a170391f7dc42444e8fa290910260801c90611c35565b6d2216e584f5fa1ea926041bedfe9890920260801c91611c2b565b916e5d6af8dedb81196699c329225ee6040260801c91611c20565b916f09aa508b5b7a84e1c677de54f3e99bc90260801c91611c15565b916f31be135f97d08fd981231505542fcfa60260801c91611c0a565b916f70d869a156d2a1b890bb3df62baf32f70260801c91611c00565b916fa9f746462d870fdf8a65dc1f90e061e50260801c91611bf6565b916fd097f3bdfd2022b8845ad8f792aa58250260801c91611bec565b916fe7159475a2c29b7443b29c7fa6e889d90260801c91611be2565b916ff3392b0822b70005940c7a398e4b70f30260801c91611bd8565b916ff987a7253ac413176f2b074cf7815e540260801c91611bce565b916ffcbe86c7900a88aedcffc83b479aa3a40260801c91611bc4565b916ffe5dee046a99a2a811c461f1969c30530260801c91611bba565b916fff2ea16466c96a3843ec78b326b528610260801c91611bb1565b916fff973b41fa98c081472e6896dfb254c00260801c91611ba8565b916fffcb9843d60f6159c9db58835c9266440260801c91611b9f565b916fffe5caca7e10e4e61c3624eaa0941cd00260801c91611b96565b916ffff2e50f5f656932ef12357cf3c7fdcc0260801c91611b8d565b916ffff97272373d413259a46990580e213a0260801c91611b84565b6001600160881b03600160801b611b79565b6333a3bdff60e21b5f5260045ffd5b80611b4c565b936001600160a01b0383811690831611611f1f575b6001600160a01b03858116959083168611611ec2575050610b1c935061261c565b919490939192906001600160a01b0382161115611f13578291611ee991611eef959461261c565b936125d9565b6001600160801b0381166001600160801b038316105f14611f0e575090565b905090565b915050610b1c926125d9565b909190611ea1565b6001600160ff1b038111611f385790565b6393dafdf160e01b5f5260045ffd5b6109919092919260c0604061012083019560018060a01b038151168452611f7660208201516020860190611377565b015191019060408091805160020b8452602081015160020b60208501520151910152565b61034a611fcb5f92611fe594611fae610db8565b338152916020830152604082015260405192839160208301611f47565b60405180938192638154831960e01b835260048301610b0b565b0381837f00000000000000000000000000000000000000000000000000000000000000006001600160a01b03165af1801561041457610b1c915f91612035575b5060208082518301019101611368565b61204991503d805f833e6104458183610d79565b5f612025565b81516109919391929061207a90608084901d6001600160801b0316906001600160a01b031685612688565b602060018060a01b0391015116906001600160801b031691612688565b919061212a906120a68461187a565b936120b8855f525f60205260405f2090565b946120c4865460ff1690565b612258575b60408301926120d88451611400565b60405163fa6793d560e01b81526004810193909352919491937f00000000000000000000000000000000000000000000000000000000000000006001600160a01b031692602090879081906024820190565b0381865afa948515610414576004965f96612237575b50885460209061215d906102769060081c6001600160a01b031681565b6040516318160ddd60e01b815298899182905afa958615610414576121a16020976121a693611052936121cf9b5f9361220f575b506001600160801b031690612467565b611f27565b90525f6121b1611354565b6040516330d7224d60e11b81529687958694859391600485016113ba565b03925af1801561041457610991915f916121f0575b50835460ff1916909355565b612209915060203d602011610c9f57610c908183610d79565b5f6121e4565b6001600160801b03919350612230908c3d8e11610c9f57610c908183610d79565b9290612191565b61225191965060203d6020116108b3576108a48183610d79565b945f612140565b612261826114e4565b6120c9565b81519092916001600160a01b037f000000000000000000000000000000000000000000000000000000000000000081169216906122ab6115cb6115cb8660801c611410565b91833b1561011057604051630b0d9c0960e01b81526001600160a01b039182166004820152908616602482015260448101929092525f8260648183875af19081156104145761231560206115cb9261231b956115cb95612376575b5001516001600160a01b031690565b94611410565b90803b1561011057604051630b0d9c0960e01b81526001600160a01b03938416600482015293909216602484015260448301525f908290606490829084905af18015610414576123685750565b806107cd5f61099193610d79565b806107cd5f61238493610d79565b5f612306565b1561011057565b90606082901b905f19600160601b84099282808510940393808503946123b886851161238a565b14612417578190600160601b900981805f03168092046002816003021880820260020302808202600203028082026002030280820260020302808202600203028091026002030293600183805f03040190848311900302920304170290565b5091500490565b81810291905f1982820991838084109303928084039384600160601b1115610110571461245e57600160601b910990828211900360a01b910360601c1790565b50505060601c90565b91818302915f1981850993838086109503948086039561248887861161238a565b146124e2579082910981805f03168092046002816003021880820260020302808202600203028082026002030280820260020302808202600203028091026002030293600183805f03040190848311900302920304170290565b505091500490565b60b581600160881b811015612595575b80690100000000000000000062010000921015612588575b6501000000000081101561257b575b630100000081101561256e575b010260121c8082040160011c8082040160011c8082040160011c8082040160011c8082040160011c8082040160011c8082040160011c8080920410900390565b60101c9160081b9161252e565b60201c9160101b91612521565b60401c9160201b91612512565b5068b500000000000000009050608082901c6124fa565b6001600160a01b03811691908203611f3857565b6001600160a01b0391821690821603919082116112ca57565b610b1c926126119290916001600160a01b0380831690821611612616575b6001600160a01b039161260a91906125c0565b1690612391565b612868565b906125f7565b610b1c92612611929091906001600160a01b038082169083161161266a575b6126636126546001600160a01b0383811690851661241e565b926001600160a01b03926125c0565b1691612467565b9061263b565b90816020910312610110575180151581036101105790565b6001600160a01b0382166126fa5750604051636a256b2960e01b81526001600160a01b03918216600482015291602091839160249183916001600160801b0316907f0000000000000000000000000000000000000000000000000000000000000000165af18015610414576117b55750565b6001600160a01b03811630036127b557506127799160209190612750906001600160801b03167f00000000000000000000000000000000000000000000000000000000000000006001600160a01b03168361287c565b604051636a256b2960e01b81526001600160a01b03909116600482015291829081906024820190565b03815f7f00000000000000000000000000000000000000000000000000000000000000006001600160a01b03165af18015610414576117b55750565b6040516323b872dd60e01b81526001600160a01b0391821660048201527f000000000000000000000000000000000000000000000000000000000000000090911660248201526001600160801b039092166044830152602082806064810103815f6001600160a01b0386165af1908115610414576127799260209261283b575b50612750565b61285a90833d8511612861575b6128528183610d79565b810190612670565b505f612835565b503d612848565b906001600160801b03821691820361011057565b9091906001600160a01b0381166128b257505f8080809361289d955af11590565b6128a357565b633d2cec6f60e21b5f5260045ffd5b60445f8080936020956040519763a9059cbb60e01b84526004526024525af13d15601f3d1160015f5114161716905f606052604052156128ee57565b633c9fd93960e21b5f5260045ffdfe60e0806040523461042f576110ca803803809161001c8285610433565b833981019060408183031261042f5780516001600160401b03811161042f5782610047918301610456565b60208201519092906001600160401b03811161042f576100679201610456565b81516001600160401b038111610362576100815f546104ab565b601f81116103e0575b50602092601f821160011461038157928192935f92610376575b50508160011b915f199060031b1c1916175f555b80516001600160401b038111610362576100d36001546104ab565b601f81116102ff575b50602091601f821160011461029f579181925f92610294575b50508160011b915f199060031b1c1916176001555b60126080524660a0526040515f905f549181610125846104ab565b9182825260208201946001811690815f14610278575060011461022e575b61014f92500382610433565b51902060405160208101917f8b73c3c69bb8fe3d512ecc4cf759cc79239f7b179b0ffacaa9a75d522b39400f835260408201527fc89efdaa54c0f20c7adf612882df0950f5a951637e0307cdcb4c672f298b8bc660608201524660808201523060a082015260a081526101c360c082610433565b51902060c052600680546001600160a01b03191633908117909155604051905f7f8be0079c531659141344cd1fd0a4f28419497f9722a3daafe3b4186f6b6457e08180a3610bc690816104e48239608051816106be015260a051816109be015260c051816109e40152f35b505f80805290915f5160206110aa5f395f51905f525b81831061025c57505090602061014f92820101610143565b6020919350806001915483858801015201910190918392610244565b60ff191686525061014f92151560051b82016020019050610143565b015190505f806100f5565b601f1982169260015f52805f20915f5b8581106102e7575083600195106102cf575b505050811b0160015561010a565b01515f1960f88460031b161c191690555f80806102c1565b919260206001819286850151815501940192016102af565b60015f527fb10e2d527612073b26eecdfd717e6a320cf44b4afac2b0732d9fcbe2b7fa0cf6601f830160051c81019160208410610358575b601f0160051c01905b81811061034d57506100dc565b5f8155600101610340565b9091508190610337565b634e487b7160e01b5f52604160045260245ffd5b015190505f806100a4565b601f198216935f8052805f20915f5b8681106103c857508360019596106103b0575b505050811b015f556100b8565b01515f1960f88460031b161c191690555f80806103a3565b91926020600181928685015181550194019201610390565b5f80525f5160206110aa5f395f51905f52601f830160051c81019160208410610425575b601f0160051c01905b81811061041a575061008a565b5f815560010161040d565b9091508190610404565b5f80fd5b601f909101601f19168101906001600160401b0382119082101761036257604052565b81601f8201121561042f578051906001600160401b038211610362576040519261048a601f8401601f191660200185610433565b8284526020838301011161042f57815f9260208093018386015e8301015290565b90600182811c921680156104d9575b60208310146104c557565b634e487b7160e01b5f52602260045260245ffd5b91607f16916104ba56fe60806040526004361015610011575f80fd5b5f3560e01c806306fdde0314610848578063095ea7b3146107cf57806318160ddd146107b257806323b872dd146106e2578063313ce567146106a55780633644e5151461068357806340c10f19146105f657806370a08231146105be5780637ecebe00146105865780638da5cb5b1461055e57806395d89b41146104845780639dc29fac1461040f578063a9059cbb1461039a578063d505accf14610190578063dd62ed3e146101405763f2fde38b146100c9575f80fd5b3461013c57602036600319011261013c576100e2610982565b600654906100fa336001600160a01b03841614610b35565b6001600160a01b03166001600160a01b0319919091168117600655337f8be0079c531659141344cd1fd0a4f28419497f9722a3daafe3b4186f6b6457e05f80a3005b5f80fd5b3461013c57604036600319011261013c57610159610982565b610161610998565b6001600160a01b039182165f908152600460209081526040808320949093168252928352819020549051908152f35b3461013c5760e036600319011261013c576101a9610982565b6101b1610998565b6044356064359260843560ff811680910361013c574285106103555760805f916020936101dc6109bb565b9060018060a01b03169687855260058652604085209889549960018b01905560405190878201927f6e71edae12b1b97f4d1f60370fef10105fa2faae0126114a169c64845d6126c984528a604084015260018060a01b03169a8b6060840152898784015260a083015260c082015260c0815261025960e082610922565b519020604051908682019261190160f01b84526022830152604282015260428152610285606282610922565b519020906040519182528482015260a435604082015260c435606082015282805260015afa1561034a575f516001600160a01b031680151580610341575b1561030b577f8c5be1e5ebec7d5bd14f71427d1e84f3dd0314c0f7b2291e5b200ac8c7c3b925916020915f526004825260405f20855f5282528060405f2055604051908152a3005b60405162461bcd60e51b815260206004820152600e60248201526d24a72b20a624a22fa9a4a3a722a960911b6044820152606490fd5b508281146102c3565b6040513d5f823e3d90fd5b60405162461bcd60e51b815260206004820152601760248201527f5045524d49545f444541444c494e455f455850495245440000000000000000006044820152606490fd5b3461013c57604036600319011261013c576103b3610982565b60243590335f52600360205260405f206103ce8382546109ae565b905560018060a01b031690815f52600360205260405f208181540190556040519081525f516020610b715f395f51905f5260203392a3602060405160018152f35b3461013c57604036600319011261013c575f610429610982565b5f516020610b715f395f51905f5260206024359261045260018060a01b03600654163314610b35565b60018060a01b03169283855260038252604085206104718282546109ae565b90558060025403600255604051908152a3005b3461013c575f36600319011261013c576040515f6001546104a4816108ea565b808452906001811690811561053a57506001146104dc575b6104d8836104cc81850382610922565b60405191829182610958565b0390f35b60015f9081527fb10e2d527612073b26eecdfd717e6a320cf44b4afac2b0732d9fcbe2b7fa0cf6939250905b808210610520575090915081016020016104cc6104bc565b919260018160209254838588010152019101909291610508565b60ff191660208086019190915291151560051b840190910191506104cc90506104bc565b3461013c575f36600319011261013c576006546040516001600160a01b039091168152602090f35b3461013c57602036600319011261013c576001600160a01b036105a7610982565b165f526005602052602060405f2054604051908152f35b3461013c57602036600319011261013c576001600160a01b036105df610982565b165f526003602052602060405f2054604051908152f35b3461013c57604036600319011261013c5761060f610982565b6024359061062860018060a01b03600654163314610b35565b6002549082820180921161066f5760205f516020610b715f395f51905f52915f9360025560018060a01b0316938484526003825260408420818154019055604051908152a3005b634e487b7160e01b5f52601160045260245ffd5b3461013c575f36600319011261013c57602061069d6109bb565b604051908152f35b3461013c575f36600319011261013c57602060405160ff7f0000000000000000000000000000000000000000000000000000000000000000168152f35b3461013c57606036600319011261013c576106fb610982565b610703610998565b6001600160a01b039091165f818152600460209081526040808320338452825290912054604435935f516020610b715f395f51905f529291856001820161078d575b5050835f526003825260405f2061075d8682546109ae565b90556001600160a01b03165f818152600383526040908190208054870190555194855293a3602060405160018152f35b610796916109ae565b5f85815260048452604080822033835285529020558585610745565b3461013c575f36600319011261013c576020600254604051908152f35b3461013c57604036600319011261013c576107e8610982565b335f8181526004602090815260408083206001600160a01b03909516808452948252918290206024359081905591519182527f8c5be1e5ebec7d5bd14f71427d1e84f3dd0314c0f7b2291e5b200ac8c7c3b92591a3602060405160018152f35b3461013c575f36600319011261013c576040515f5f54610867816108ea565b808452906001811690811561053a575060011461088e576104d8836104cc81850382610922565b5f8080527f290decd9548b62a8d60345a988386fc84ba6bc95484008f6362f93160ef3e563939250905b8082106108d0575090915081016020016104cc6104bc565b9192600181602092548385880101520191019092916108b8565b90600182811c92168015610918575b602083101461090457565b634e487b7160e01b5f52602260045260245ffd5b91607f16916108f9565b90601f8019910116810190811067ffffffffffffffff82111761094457604052565b634e487b7160e01b5f52604160045260245ffd5b602060409281835280519182918282860152018484015e5f828201840152601f01601f1916010190565b600435906001600160a01b038216820361013c57565b602435906001600160a01b038216820361013c57565b9190820391821161066f57565b467f000000000000000000000000000000000000000000000000000000000000000003610a06577f000000000000000000000000000000000000000000000000000000000000000090565b6040515f905f549181610a18846108ea565b9182825260208201946001811690815f14610b195750600114610abc575b610a4292500382610922565b51902060405160208101917f8b73c3c69bb8fe3d512ecc4cf759cc79239f7b179b0ffacaa9a75d522b39400f835260408201527fc89efdaa54c0f20c7adf612882df0950f5a951637e0307cdcb4c672f298b8bc660608201524660808201523060a082015260a08152610ab660c082610922565b51902090565b505f80805290917f290decd9548b62a8d60345a988386fc84ba6bc95484008f6362f93160ef3e5635b818310610afd575050906020610a4292820101610a36565b6020919350806001915483858801015201910190918392610ae5565b60ff1916865250610a4292151560051b82016020019050610a36565b15610b3c57565b60405162461bcd60e51b815260206004820152600c60248201526b15539055551213d49256915160a21b6044820152606490fdfeddf252ad1be2c89b69c2b068fc378daa952ba7f163c4a11628f55a4df523b3efa2646970667358221220b26380c5be2bfb35c78f5fbec06b0bdc477e77eacea7245274bb3f743cc04e5f64736f6c634300081c0033290decd9548b62a8d60345a988386fc84ba6bc95484008f6362f93160ef3e563a26469706673582212203196902bd2ce3f54759ac7536893cdb99e0a1152aa26f6d398a76f7ac8d21d5b64736f6c634300081c0033",
  "immutableReferences": {
    "14615": [
      {
        "length": 32,
        "start": 1507
      },
      {
        "length": 32,
        "start": 2897
      },
      {
        "length": 32,
        "start": 3813
      },
      {
        "length": 32,
        "start": 4050
      },
      {
        "length": 32,
        "start": 5388
      },
      {
        "length": 32,
        "start": 8170
      },
      {
        "length": 32,
        "start": 8435
      },
      {
        "length": 32,
        "start": 8821
      },
      {
        "length": 32,
        "start": 9931
      },
      {
        "length": 32,
        "start": 10018
      },
      {
        "length": 32,
        "start": 10110
      },
      {
        "length": 32,
        "start": 10196
      }
    ]
  },
  "source": "// SPDX-License-Identifier: UNLICENSED\npragma solidity ^0.8.19;\n\nimport {IPoolManager} from \"../../../../v4-core/src/interfaces/IPoolManager.sol\";\nimport {PoolManager} from \"../../../../v4-core/src/PoolManager.sol\";\nimport {Hooks} from \"../../../../v4-core/src//libraries/Hooks.sol\";\nimport {BaseHook} from \"../../BaseHook.sol\";\nimport {SafeCast} from \"../../../../v4-core/src/libraries/SafeCast.sol\";\nimport {IHooks} from \"../../../../v4-core/src/interfaces/IHooks.sol\";\nimport {CurrencyLibrary, Currency} from \"../../../../v4-core/src/types/Currency.sol\";\nimport {TickMath} from \"../../../../v4-core/src/libraries/TickMath.sol\";\nimport {BalanceDelta} from \"../../../../v4-core/src/types/BalanceDelta.sol\";\nimport {IERC20Minimal} from \"../../../../v4-core/src/interfaces/external/IERC20Minimal.sol\";\nimport {ILockCallback} from \"../../../../v4-core/src/interfaces/callback/ILockCallback.sol\";\nimport {PoolId, PoolIdLibrary} from \"../../../../v4-core/src/types/PoolId.sol\";\nimport {PoolKey} from \"../../../../v4-core/src/types/PoolKey.sol\";\nimport {FullMath} from \"../../../../v4-core/src/libraries/FullMath.sol\";\nimport {UniswapV4ERC20} from \"../../libraries/UniswapV4ERC20.sol\";\nimport {FixedPoint96} from \"../../../../v4-core/src/libraries/FixedPoint96.sol\";\nimport {FixedPointMathLib} from \"solmate/src/utils/FixedPointMathLib.sol\";\nimport {IERC20Metadata} from \"@openzeppelin/contracts/interfaces/IERC20Metadata.sol\";\nimport {Strings} from \"@openzeppelin/contracts/utils/Strings.sol\";\n\nimport \"../../libraries/LiquidityAmounts.sol\";\n\ncontract FullRange is BaseHook, ILockCallback {\n    using CurrencyLibrary for Currency;\n    using PoolIdLibrary for PoolKey;\n    using SafeCast for uint256;\n    using SafeCast for uint128;\n\n    /// @notice Thrown when trying to interact with a non-initialized pool\n    error PoolNotInitialized();\n    error TickSpacingNotDefault();\n    error LiquidityDoesntMeetMinimum();\n    error SenderMustBeHook();\n    error ExpiredPastDeadline();\n    error TooMuchSlippage();\n\n    bytes internal constant ZERO_BYTES = bytes(\"\");\n\n    /// @dev Min tick for full range with tick spacing of 60\n    int24 internal constant MIN_TICK = -887220;\n    /// @dev Max tick for full range with tick spacing of 60\n    int24 internal constant MAX_TICK = -MIN_TICK;\n\n    int256 internal constant MAX_INT = type(int256).max;\n    uint16 internal constant MINIMUM_LIQUIDITY = 1000;\n\n    struct CallbackData {\n        address sender;\n        PoolKey key;\n        IPoolManager.ModifyPositionParams params;\n    }\n\n    struct PoolInfo {\n        bool hasAccruedFees;\n        address liquidityToken;\n    }\n\n    struct AddLiquidityParams {\n        Currency currency0;\n        Currency currency1;\n        uint24 fee;\n        uint256 amount0Desired;\n        uint256 amount1Desired;\n        uint256 amount0Min;\n        uint256 amount1Min;\n        address to;\n        uint256 deadline;\n    }\n\n    struct RemoveLiquidityParams {\n        Currency currency0;\n        Currency currency1;\n        uint24 fee;\n        uint256 liquidity;\n        uint256 deadline;\n    }\n\n    mapping(PoolId => PoolInfo) public poolInfo;\n\n    constructor(IPoolManager _poolManager) BaseHook(_poolManager) {}\n\n    modifier ensure(uint256 deadline) {\n        if (deadline < block.timestamp) revert ExpiredPastDeadline();\n        _;\n    }\n\n    function getHooksCalls() public pure override returns (Hooks.Calls memory) {\n        return Hooks.Calls({\n            beforeInitialize: true,\n            afterInitialize: false,\n            beforeModifyPosition: true,\n            afterModifyPosition: false,\n            beforeSwap: true,\n            afterSwap: false,\n            beforeDonate: false,\n            afterDonate: false,\n            noOp: false\n        });\n    }\n\n    function addLiquidity(AddLiquidityParams calldata params)\n        external\n        ensure(params.deadline)\n        returns (uint128 liquidity)\n    {\n        PoolKey memory key = PoolKey({\n            currency0: params.currency0,\n            currency1: params.currency1,\n            fee: params.fee,\n            tickSpacing: 60,\n            hooks: IHooks(address(this))\n        });\n\n        PoolId poolId = key.toId();\n\n        (uint160 sqrtPriceX96,,,) = poolManager.getSlot0(poolId);\n\n        if (sqrtPriceX96 == 0) revert PoolNotInitialized();\n\n        PoolInfo storage pool = poolInfo[poolId];\n\n        uint128 poolLiquidity = poolManager.getLiquidity(poolId);\n\n        liquidity = LiquidityAmounts.getLiquidityForAmounts(\n            sqrtPriceX96,\n            TickMath.getSqrtRatioAtTick(MIN_TICK),\n            TickMath.getSqrtRatioAtTick(MAX_TICK),\n            params.amount0Desired,\n            params.amount1Desired\n        );\n\n        if (poolLiquidity == 0 && liquidity <= MINIMUM_LIQUIDITY) {\n            revert LiquidityDoesntMeetMinimum();\n        }\n        BalanceDelta addedDelta = modifyPosition(\n            key,\n            IPoolManager.ModifyPositionParams({\n                tickLower: MIN_TICK,\n                tickUpper: MAX_TICK,\n                liquidityDelta: liquidity.toInt256()\n            })\n        );\n\n        if (poolLiquidity == 0) {\n            // permanently lock the first MINIMUM_LIQUIDITY tokens\n            liquidity -= MINIMUM_LIQUIDITY;\n            UniswapV4ERC20(pool.liquidityToken).mint(address(0), MINIMUM_LIQUIDITY);\n        }\n\n        UniswapV4ERC20(pool.liquidityToken).mint(params.to, liquidity);\n\n        if (uint128(addedDelta.amount0()) < params.amount0Min || uint128(addedDelta.amount1()) < params.amount1Min) {\n            revert TooMuchSlippage();\n        }\n    }\n\n    function removeLiquidity(RemoveLiquidityParams calldata params)\n        public\n        virtual\n        ensure(params.deadline)\n        returns (BalanceDelta delta)\n    {\n        PoolKey memory key = PoolKey({\n            currency0: params.currency0,\n            currency1: params.currency1,\n            fee: params.fee,\n            tickSpacing: 60,\n            hooks: IHooks(address(this))\n        });\n\n        PoolId poolId = key.toId();\n\n        (uint160 sqrtPriceX96,,,) = poolManager.getSlot0(poolId);\n\n        if (sqrtPriceX96 == 0) revert PoolNotInitialized();\n\n        UniswapV4ERC20 erc20 = UniswapV4ERC20(poolInfo[poolId].liquidityToken);\n\n        delta = modifyPosition(\n            key,\n            IPoolManager.ModifyPositionParams({\n                tickLower: MIN_TICK,\n                tickUpper: MAX_TICK,\n                liquidityDelta: -(params.liquidity.toInt256())\n            })\n        );\n\n        erc20.burn(msg.sender, params.liquidity);\n    }\n\n    function beforeInitialize(address, PoolKey calldata key, uint160, bytes calldata)\n        external\n        override\n        returns (bytes4)\n    {\n        if (key.tickSpacing != 60) revert TickSpacingNotDefault();\n\n        PoolId poolId = key.toId();\n\n        string memory tokenSymbol = string(\n            abi.encodePacked(\n                \"UniV4\",\n                \"-\",\n                IERC20Metadata(Currency.unwrap(key.currency0)).symbol(),\n                \"-\",\n                IERC20Metadata(Currency.unwrap(key.currency1)).symbol(),\n                \"-\",\n                Strings.toString(uint256(key.fee))\n            )\n        );\n        address poolToken = address(new UniswapV4ERC20(tokenSymbol, tokenSymbol));\n\n        poolInfo[poolId] = PoolInfo({hasAccruedFees: false, liquidityToken: poolToken});\n\n        return FullRange.beforeInitialize.selector;\n    }\n\n    function beforeModifyPosition(\n        address sender,\n        PoolKey calldata,\n        IPoolManager.ModifyPositionParams calldata,\n        bytes calldata\n    ) external view override returns (bytes4) {\n        if (sender != address(this)) revert SenderMustBeHook();\n\n        return FullRange.beforeModifyPosition.selector;\n    }\n\n    function beforeSwap(address, PoolKey calldata key, IPoolManager.SwapParams calldata, bytes calldata)\n        external\n        override\n        returns (bytes4)\n    {\n        PoolId poolId = key.toId();\n\n        if (!poolInfo[poolId].hasAccruedFees) {\n            PoolInfo storage pool = poolInfo[poolId];\n            pool.hasAccruedFees = true;\n        }\n\n        return IHooks.beforeSwap.selector;\n    }\n\n    function modifyPosition(PoolKey memory key, IPoolManager.ModifyPositionParams memory params)\n        internal\n        returns (BalanceDelta delta)\n    {\n        delta = abi.decode(poolManager.lock(abi.encode(CallbackData(msg.sender, key, params))), (BalanceDelta));\n    }\n\n    function _settleDeltas(address sender, PoolKey memory key, BalanceDelta delta) internal {\n        _settleDelta(sender, key.currency0, uint128(delta.amount0()));\n        _settleDelta(sender, key.currency1, uint128(delta.amount1()));\n    }\n\n    function _settleDelta(address sender, Currency currency, uint128 amount) internal {\n        if (currency.isNative()) {\n            poolManager.settle{value: amount}(currency);\n        } else {\n            if (sender == address(this)) {\n                currency.transfer(address(poolManager), amount);\n            } else {\n                IERC20Minimal(Currency.unwrap(currency)).transferFrom(sender, address(poolManager), amount);\n            }\n            poolManager.settle(currency);\n        }\n    }\n\n    function _takeDeltas(address sender, PoolKey memory key, BalanceDelta delta) internal {\n        poolManager.take(key.currency0, sender, uint256(uint128(-delta.amount0())));\n        poolManager.take(key.currency1, sender, uint256(uint128(-delta.amount1())));\n    }\n\n    function _removeLiquidity(PoolKey memory key, IPoolManager.ModifyPositionParams memory params)\n        internal\n        returns (BalanceDelta delta)\n    {\n        PoolId poolId = key.toId();\n        PoolInfo storage pool = poolInfo[poolId];\n\n        if (pool.hasAccruedFees) {\n            _rebalance(key);\n        }\n\n        uint256 liquidityToRemove = FullMath.mulDiv(\n            uint256(-params.liquidityDelta),\n            poolManager.getLiquidity(poolId),\n            UniswapV4ERC20(pool.liquidityToken).totalSupply()\n        );\n\n        params.liquidityDelta = -(liquidityToRemove.toInt256());\n        delta = poolManager.modifyPosition(key, params, ZERO_BYTES);\n        pool.hasAccruedFees = false;\n    }\n\n    function lockAcquired(bytes calldata rawData)\n        external\n        override(ILockCallback, BaseHook)\n        poolManagerOnly\n        returns (bytes memory)\n    {\n        CallbackData memory data = abi.decode(rawData, (CallbackData));\n        BalanceDelta delta;\n\n        if (data.params.liquidityDelta < 0) {\n            delta = _removeLiquidity(data.key, data.params);\n            _takeDeltas(data.sender, data.key, delta);\n        } else {\n            delta = poolManager.modifyPosition(data.key, data.params, ZERO_BYTES);\n            _settleDeltas(data.sender, data.key, delta);\n        }\n        return abi.encode(delta);\n    }\n\n    function _rebalance(PoolKey memory key) public {\n        PoolId poolId = key.toId();\n        BalanceDelta balanceDelta = poolManager.modifyPosition(\n            key,\n            IPoolManager.ModifyPositionParams({\n                tickLower: MIN_TICK,\n                tickUpper: MAX_TICK,\n                liquidityDelta: -(poolManager.getLiquidity(poolId).toInt256())\n            }),\n            ZERO_BYTES\n        );\n\n        uint160 newSqrtPriceX96 = (\n            FixedPointMathLib.sqrt(\n                FullMath.mulDiv(uint128(-balanceDelta.amount1()), FixedPoint96.Q96, uint128(-balanceDelta.amount0()))\n            ) * FixedPointMathLib.sqrt(FixedPoint96.Q96)\n        ).toUint160();\n\n        (uint160 sqrtPriceX96,,,) = poolManager.getSlot0(poolId);\n\n        poolManager.swap(\n            key,\n            IPoolManager.SwapParams({\n                zeroForOne: newSqrtPriceX96 < sqrtPriceX96,\n                amountSpecified: MAX_INT,\n                sqrtPriceLimitX96: newSqrtPriceX96\n            }),\n            ZERO_BYTES\n        );\n\n        uint128 liquidity = LiquidityAmounts.getLiquidityForAmounts(\n            newSqrtPriceX96,\n            TickMath.getSqrtRatioAtTick(MIN_TICK),\n            TickMath.getSqrtRatioAtTick(MAX_TICK),\n            uint256(uint128(-balanceDelta.amount0())),\n            uint256(uint128(-balanceDelta.amount1()))\n        );\n\n        BalanceDelta balanceDeltaAfter = poolManager.modifyPosition(\n            key,\n            IPoolManager.ModifyPositionParams({\n                tickLower: MIN_TICK,\n                tickUpper: MAX_TICK,\n                liquidityDelta: liquidity.toInt256()\n            }),\n            ZERO_BYTES\n        );\n\n        // Donate any \"dust\" from the sqrtRatio change as fees\n        uint128 donateAmount0 = uint128(-balanceDelta.amount0() - balanceDeltaAfter.amount0());\n        uint128 donateAmount1 = uint128(-balanceDelta.amount1() - balanceDeltaAfter.amount1());\n\n        poolManager.donate(key, donateAmount0, donateAmount1, ZERO_BYTES);\n    }\n}\n",
  "sourcePath": "/home/stephensb/sb-labs/solidity-contracts/contracts/v4-periphery/contracts/hooks/examples/FullRange.sol",
  "compiler": {
    "name": "solc",
    "version": "0.8.28+commit.7893614a.Emscripten.clang"
  },
  "schemaVersion": "3.4.12",
  "updatedAt": "2024-12-18T07:36:00.869Z",
  "devdoc": {
    "errors": {
      "HookAddressNotValid(address)": [
        {
          "params": {
            "hooks": "The address of the hooks contract"
          }
        }
      ]
    },
    "kind": "dev",
    "methods": {},
    "stateVariables": {
      "MAX_TICK": {
        "details": "Max tick for full range with tick spacing of 60"
      },
      "MIN_TICK": {
        "details": "Min tick for full range with tick spacing of 60"
      }
    },
    "version": 1
  },
  "userdoc": {
    "errors": {
      "ERC20TransferFailed()": [
        {
          "notice": "Thrown when an ERC20 transfer fails"
        }
      ],
      "HookAddressNotValid(address)": [
        {
          "notice": "Thrown if the address will not lead to the specified hook calls being called"
        }
      ],
      "InvalidTick()": [
        {
          "notice": "Thrown when the tick passed to #getSqrtRatioAtTick is not between MIN_TICK and MAX_TICK"
        }
      ],
      "NativeTransferFailed()": [
        {
          "notice": "Thrown when a native transfer fails"
        }
      ],
      "PoolNotInitialized()": [
        {
          "notice": "Thrown when trying to interact with a non-initialized pool"
        }
      ]
    },
    "kind": "user",
    "methods": {
      "poolManager()": {
        "notice": "The address of the pool manager"
      }
    },
    "version": 1
  }
}