{
  "contractName": "GeomeanOracle",
  "abi": [
    {
      "inputs": [
        {
          "internalType": "contract IPoolManager",
          "name": "_poolManager",
          "type": "address"
        }
      ],
      "stateMutability": "nonpayable",
      "type": "constructor"
    },
    {
      "inputs": [
        {
          "internalType": "address",
          "name": "hooks",
          "type": "address"
        }
      ],
      "name": "HookAddressNotValid",
      "type": "error"
    },
    {
      "inputs": [],
      "name": "HookNotImplemented",
      "type": "error"
    },
    {
      "inputs": [],
      "name": "InvalidPool",
      "type": "error"
    },
    {
      "inputs": [],
      "name": "LockFailure",
      "type": "error"
    },
    {
      "inputs": [],
      "name": "NotPoolManager",
      "type": "error"
    },
    {
      "inputs": [],
      "name": "NotSelf",
      "type": "error"
    },
    {
      "inputs": [],
      "name": "OnlyOneOraclePoolAllowed",
      "type": "error"
    },
    {
      "inputs": [],
      "name": "OracleCardinalityCannotBeZero",
      "type": "error"
    },
    {
      "inputs": [],
      "name": "OraclePoolMustLockLiquidity",
      "type": "error"
    },
    {
      "inputs": [],
      "name": "OraclePositionsMustBeFullRange",
      "type": "error"
    },
    {
      "inputs": [
        {
          "internalType": "uint32",
          "name": "oldestTimestamp",
          "type": "uint32"
        },
        {
          "internalType": "uint32",
          "name": "targetTimestamp",
          "type": "uint32"
        }
      ],
      "name": "TargetPredatesOldestObservation",
      "type": "error"
    },
    {
      "inputs": [
        {
          "internalType": "address",
          "name": "",
          "type": "address"
        },
        {
          "components": [
            {
              "internalType": "Currency",
              "name": "currency0",
              "type": "address"
            },
            {
              "internalType": "Currency",
              "name": "currency1",
              "type": "address"
            },
            {
              "internalType": "uint24",
              "name": "fee",
              "type": "uint24"
            },
            {
              "internalType": "int24",
              "name": "tickSpacing",
              "type": "int24"
            },
            {
              "internalType": "contract IHooks",
              "name": "hooks",
              "type": "address"
            }
          ],
          "internalType": "struct PoolKey",
          "name": "",
          "type": "tuple"
        },
        {
          "internalType": "uint256",
          "name": "",
          "type": "uint256"
        },
        {
          "internalType": "uint256",
          "name": "",
          "type": "uint256"
        },
        {
          "internalType": "bytes",
          "name": "",
          "type": "bytes"
        }
      ],
      "name": "afterDonate",
      "outputs": [
        {
          "internalType": "bytes4",
          "name": "",
          "type": "bytes4"
        }
      ],
      "stateMutability": "nonpayable",
      "type": "function"
    },
    {
      "inputs": [
        {
          "internalType": "address",
          "name": "",
          "type": "address"
        },
        {
          "components": [
            {
              "internalType": "Currency",
              "name": "currency0",
              "type": "address"
            },
            {
              "internalType": "Currency",
              "name": "currency1",
              "type": "address"
            },
            {
              "internalType": "uint24",
              "name": "fee",
              "type": "uint24"
            },
            {
              "internalType": "int24",
              "name": "tickSpacing",
              "type": "int24"
            },
            {
              "internalType": "contract IHooks",
              "name": "hooks",
              "type": "address"
            }
          ],
          "internalType": "struct PoolKey",
          "name": "",
          "type": "tuple"
        },
        {
          "components": [
            {
              "internalType": "int24",
              "name": "tickLower",
              "type": "int24"
            },
            {
              "internalType": "int24",
              "name": "tickUpper",
              "type": "int24"
            },
            {
              "internalType": "int256",
              "name": "liquidityDelta",
              "type": "int256"
            }
          ],
          "internalType": "struct IPoolManager.ModifyPositionParams",
          "name": "",
          "type": "tuple"
        },
        {
          "internalType": "BalanceDelta",
          "name": "",
          "type": "int256"
        },
        {
          "internalType": "bytes",
          "name": "",
          "type": "bytes"
        }
      ],
      "name": "afterModifyPosition",
      "outputs": [
        {
          "internalType": "bytes4",
          "name": "",
          "type": "bytes4"
        }
      ],
      "stateMutability": "nonpayable",
      "type": "function"
    },
    {
      "inputs": [
        {
          "internalType": "address",
          "name": "",
          "type": "address"
        },
        {
          "components": [
            {
              "internalType": "Currency",
              "name": "currency0",
              "type": "address"
            },
            {
              "internalType": "Currency",
              "name": "currency1",
              "type": "address"
            },
            {
              "internalType": "uint24",
              "name": "fee",
              "type": "uint24"
            },
            {
              "internalType": "int24",
              "name": "tickSpacing",
              "type": "int24"
            },
            {
              "internalType": "contract IHooks",
              "name": "hooks",
              "type": "address"
            }
          ],
          "internalType": "struct PoolKey",
          "name": "",
          "type": "tuple"
        },
        {
          "components": [
            {
              "internalType": "bool",
              "name": "zeroForOne",
              "type": "bool"
            },
            {
              "internalType": "int256",
              "name": "amountSpecified",
              "type": "int256"
            },
            {
              "internalType": "uint160",
              "name": "sqrtPriceLimitX96",
              "type": "uint160"
            }
          ],
          "internalType": "struct IPoolManager.SwapParams",
          "name": "",
          "type": "tuple"
        },
        {
          "internalType": "BalanceDelta",
          "name": "",
          "type": "int256"
        },
        {
          "internalType": "bytes",
          "name": "",
          "type": "bytes"
        }
      ],
      "name": "afterSwap",
      "outputs": [
        {
          "internalType": "bytes4",
          "name": "",
          "type": "bytes4"
        }
      ],
      "stateMutability": "nonpayable",
      "type": "function"
    },
    {
      "inputs": [
        {
          "internalType": "address",
          "name": "",
          "type": "address"
        },
        {
          "components": [
            {
              "internalType": "Currency",
              "name": "currency0",
              "type": "address"
            },
            {
              "internalType": "Currency",
              "name": "currency1",
              "type": "address"
            },
            {
              "internalType": "uint24",
              "name": "fee",
              "type": "uint24"
            },
            {
              "internalType": "int24",
              "name": "tickSpacing",
              "type": "int24"
            },
            {
              "internalType": "contract IHooks",
              "name": "hooks",
              "type": "address"
            }
          ],
          "internalType": "struct PoolKey",
          "name": "",
          "type": "tuple"
        },
        {
          "internalType": "uint256",
          "name": "",
          "type": "uint256"
        },
        {
          "internalType": "uint256",
          "name": "",
          "type": "uint256"
        },
        {
          "internalType": "bytes",
          "name": "",
          "type": "bytes"
        }
      ],
      "name": "beforeDonate",
      "outputs": [
        {
          "internalType": "bytes4",
          "name": "",
          "type": "bytes4"
        }
      ],
      "stateMutability": "nonpayable",
      "type": "function"
    },
    {
      "inputs": [
        {
          "internalType": "bytes",
          "name": "data",
          "type": "bytes"
        }
      ],
      "name": "lockAcquired",
      "outputs": [
        {
          "internalType": "bytes",
          "name": "",
          "type": "bytes"
        }
      ],
      "stateMutability": "nonpayable",
      "type": "function"
    },
    {
      "inputs": [
        {
          "internalType": "PoolId",
          "name": "",
          "type": "bytes32"
        },
        {
          "internalType": "uint256",
          "name": "",
          "type": "uint256"
        }
      ],
      "name": "observations",
      "outputs": [
        {
          "internalType": "uint32",
          "name": "blockTimestamp",
          "type": "uint32"
        },
        {
          "internalType": "int56",
          "name": "tickCumulative",
          "type": "int56"
        },
        {
          "internalType": "uint160",
          "name": "secondsPerLiquidityCumulativeX128",
          "type": "uint160"
        },
        {
          "internalType": "bool",
          "name": "initialized",
          "type": "bool"
        }
      ],
      "stateMutability": "view",
      "type": "function"
    },
    {
      "inputs": [],
      "name": "poolManager",
      "outputs": [
        {
          "internalType": "contract IPoolManager",
          "name": "",
          "type": "address"
        }
      ],
      "stateMutability": "view",
      "type": "function"
    },
    {
      "inputs": [
        {
          "internalType": "PoolId",
          "name": "",
          "type": "bytes32"
        }
      ],
      "name": "states",
      "outputs": [
        {
          "internalType": "uint16",
          "name": "index",
          "type": "uint16"
        },
        {
          "internalType": "uint16",
          "name": "cardinality",
          "type": "uint16"
        },
        {
          "internalType": "uint16",
          "name": "cardinalityNext",
          "type": "uint16"
        }
      ],
      "stateMutability": "view",
      "type": "function"
    },
    {
      "inputs": [
        {
          "components": [
            {
              "internalType": "Currency",
              "name": "currency0",
              "type": "address"
            },
            {
              "internalType": "Currency",
              "name": "currency1",
              "type": "address"
            },
            {
              "internalType": "uint24",
              "name": "fee",
              "type": "uint24"
            },
            {
              "internalType": "int24",
              "name": "tickSpacing",
              "type": "int24"
            },
            {
              "internalType": "contract IHooks",
              "name": "hooks",
              "type": "address"
            }
          ],
          "internalType": "struct PoolKey",
          "name": "key",
          "type": "tuple"
        },
        {
          "internalType": "uint256",
          "name": "index",
          "type": "uint256"
        }
      ],
      "name": "getObservation",
      "outputs": [
        {
          "components": [
            {
              "internalType": "uint32",
              "name": "blockTimestamp",
              "type": "uint32"
            },
            {
              "internalType": "int56",
              "name": "tickCumulative",
              "type": "int56"
            },
            {
              "internalType": "uint160",
              "name": "secondsPerLiquidityCumulativeX128",
              "type": "uint160"
            },
            {
              "internalType": "bool",
              "name": "initialized",
              "type": "bool"
            }
          ],
          "internalType": "struct Oracle.Observation",
          "name": "observation",
          "type": "tuple"
        }
      ],
      "stateMutability": "view",
      "type": "function"
    },
    {
      "inputs": [
        {
          "components": [
            {
              "internalType": "Currency",
              "name": "currency0",
              "type": "address"
            },
            {
              "internalType": "Currency",
              "name": "currency1",
              "type": "address"
            },
            {
              "internalType": "uint24",
              "name": "fee",
              "type": "uint24"
            },
            {
              "internalType": "int24",
              "name": "tickSpacing",
              "type": "int24"
            },
            {
              "internalType": "contract IHooks",
              "name": "hooks",
              "type": "address"
            }
          ],
          "internalType": "struct PoolKey",
          "name": "key",
          "type": "tuple"
        }
      ],
      "name": "getState",
      "outputs": [
        {
          "components": [
            {
              "internalType": "uint16",
              "name": "index",
              "type": "uint16"
            },
            {
              "internalType": "uint16",
              "name": "cardinality",
              "type": "uint16"
            },
            {
              "internalType": "uint16",
              "name": "cardinalityNext",
              "type": "uint16"
            }
          ],
          "internalType": "struct GeomeanOracle.ObservationState",
          "name": "state",
          "type": "tuple"
        }
      ],
      "stateMutability": "view",
      "type": "function"
    },
    {
      "inputs": [],
      "name": "getHooksCalls",
      "outputs": [
        {
          "components": [
            {
              "internalType": "bool",
              "name": "beforeInitialize",
              "type": "bool"
            },
            {
              "internalType": "bool",
              "name": "afterInitialize",
              "type": "bool"
            },
            {
              "internalType": "bool",
              "name": "beforeModifyPosition",
              "type": "bool"
            },
            {
              "internalType": "bool",
              "name": "afterModifyPosition",
              "type": "bool"
            },
            {
              "internalType": "bool",
              "name": "beforeSwap",
              "type": "bool"
            },
            {
              "internalType": "bool",
              "name": "afterSwap",
              "type": "bool"
            },
            {
              "internalType": "bool",
              "name": "beforeDonate",
              "type": "bool"
            },
            {
              "internalType": "bool",
              "name": "afterDonate",
              "type": "bool"
            },
            {
              "internalType": "bool",
              "name": "noOp",
              "type": "bool"
            }
          ],
          "internalType": "struct Hooks.Calls",
          "name": "",
          "type": "tuple"
        }
      ],
      "stateMutability": "pure",
      "type": "function"
    },
    {
      "inputs": [
        {
          "internalType": "address",
          "name": "",
          "type": "address"
        },
        {
          "components": [
            {
              "internalType": "Currency",
              "name": "currency0",
              "type": "address"
            },
            {
              "internalType": "Currency",
              "name": "currency1",
              "type": "address"
            },
            {
              "internalType": "uint24",
              "name": "fee",
              "type": "uint24"
            },
            {
              "internalType": "int24",
              "name": "tickSpacing",
              "type": "int24"
            },
            {
              "internalType": "contract IHooks",
              "name": "hooks",
              "type": "address"
            }
          ],
          "internalType": "struct PoolKey",
          "name": "key",
          "type": "tuple"
        },
        {
          "internalType": "uint160",
          "name": "",
          "type": "uint160"
        },
        {
          "internalType": "bytes",
          "name": "",
          "type": "bytes"
        }
      ],
      "name": "beforeInitialize",
      "outputs": [
        {
          "internalType": "bytes4",
          "name": "",
          "type": "bytes4"
        }
      ],
      "stateMutability": "view",
      "type": "function"
    },
    {
      "inputs": [
        {
          "internalType": "address",
          "name": "",
          "type": "address"
        },
        {
          "components": [
            {
              "internalType": "Currency",
              "name": "currency0",
              "type": "address"
            },
            {
              "internalType": "Currency",
              "name": "currency1",
              "type": "address"
            },
            {
              "internalType": "uint24",
              "name": "fee",
              "type": "uint24"
            },
            {
              "internalType": "int24",
              "name": "tickSpacing",
              "type": "int24"
            },
            {
              "internalType": "contract IHooks",
              "name": "hooks",
              "type": "address"
            }
          ],
          "internalType": "struct PoolKey",
          "name": "key",
          "type": "tuple"
        },
        {
          "internalType": "uint160",
          "name": "",
          "type": "uint160"
        },
        {
          "internalType": "int24",
          "name": "",
          "type": "int24"
        },
        {
          "internalType": "bytes",
          "name": "",
          "type": "bytes"
        }
      ],
      "name": "afterInitialize",
      "outputs": [
        {
          "internalType": "bytes4",
          "name": "",
          "type": "bytes4"
        }
      ],
      "stateMutability": "nonpayable",
      "type": "function"
    },
    {
      "inputs": [
        {
          "internalType": "address",
          "name": "",
          "type": "address"
        },
        {
          "components": [
            {
              "internalType": "Currency",
              "name": "currency0",
              "type": "address"
            },
            {
              "internalType": "Currency",
              "name": "currency1",
              "type": "address"
            },
            {
              "internalType": "uint24",
              "name": "fee",
              "type": "uint24"
            },
            {
              "internalType": "int24",
              "name": "tickSpacing",
              "type": "int24"
            },
            {
              "internalType": "contract IHooks",
              "name": "hooks",
              "type": "address"
            }
          ],
          "internalType": "struct PoolKey",
          "name": "key",
          "type": "tuple"
        },
        {
          "components": [
            {
              "internalType": "int24",
              "name": "tickLower",
              "type": "int24"
            },
            {
              "internalType": "int24",
              "name": "tickUpper",
              "type": "int24"
            },
            {
              "internalType": "int256",
              "name": "liquidityDelta",
              "type": "int256"
            }
          ],
          "internalType": "struct IPoolManager.ModifyPositionParams",
          "name": "params",
          "type": "tuple"
        },
        {
          "internalType": "bytes",
          "name": "",
          "type": "bytes"
        }
      ],
      "name": "beforeModifyPosition",
      "outputs": [
        {
          "internalType": "bytes4",
          "name": "",
          "type": "bytes4"
        }
      ],
      "stateMutability": "nonpayable",
      "type": "function"
    },
    {
      "inputs": [
        {
          "internalType": "address",
          "name": "",
          "type": "address"
        },
        {
          "components": [
            {
              "internalType": "Currency",
              "name": "currency0",
              "type": "address"
            },
            {
              "internalType": "Currency",
              "name": "currency1",
              "type": "address"
            },
            {
              "internalType": "uint24",
              "name": "fee",
              "type": "uint24"
            },
            {
              "internalType": "int24",
              "name": "tickSpacing",
              "type": "int24"
            },
            {
              "internalType": "contract IHooks",
              "name": "hooks",
              "type": "address"
            }
          ],
          "internalType": "struct PoolKey",
          "name": "key",
          "type": "tuple"
        },
        {
          "components": [
            {
              "internalType": "bool",
              "name": "zeroForOne",
              "type": "bool"
            },
            {
              "internalType": "int256",
              "name": "amountSpecified",
              "type": "int256"
            },
            {
              "internalType": "uint160",
              "name": "sqrtPriceLimitX96",
              "type": "uint160"
            }
          ],
          "internalType": "struct IPoolManager.SwapParams",
          "name": "",
          "type": "tuple"
        },
        {
          "internalType": "bytes",
          "name": "",
          "type": "bytes"
        }
      ],
      "name": "beforeSwap",
      "outputs": [
        {
          "internalType": "bytes4",
          "name": "",
          "type": "bytes4"
        }
      ],
      "stateMutability": "nonpayable",
      "type": "function"
    },
    {
      "inputs": [
        {
          "components": [
            {
              "internalType": "Currency",
              "name": "currency0",
              "type": "address"
            },
            {
              "internalType": "Currency",
              "name": "currency1",
              "type": "address"
            },
            {
              "internalType": "uint24",
              "name": "fee",
              "type": "uint24"
            },
            {
              "internalType": "int24",
              "name": "tickSpacing",
              "type": "int24"
            },
            {
              "internalType": "contract IHooks",
              "name": "hooks",
              "type": "address"
            }
          ],
          "internalType": "struct PoolKey",
          "name": "key",
          "type": "tuple"
        },
        {
          "internalType": "uint32[]",
          "name": "secondsAgos",
          "type": "uint32[]"
        }
      ],
      "name": "observe",
      "outputs": [
        {
          "internalType": "int56[]",
          "name": "tickCumulatives",
          "type": "int56[]"
        },
        {
          "internalType": "uint160[]",
          "name": "secondsPerLiquidityCumulativeX128s",
          "type": "uint160[]"
        }
      ],
      "stateMutability": "view",
      "type": "function"
    },
    {
      "inputs": [
        {
          "components": [
            {
              "internalType": "Currency",
              "name": "currency0",
              "type": "address"
            },
            {
              "internalType": "Currency",
              "name": "currency1",
              "type": "address"
            },
            {
              "internalType": "uint24",
              "name": "fee",
              "type": "uint24"
            },
            {
              "internalType": "int24",
              "name": "tickSpacing",
              "type": "int24"
            },
            {
              "internalType": "contract IHooks",
              "name": "hooks",
              "type": "address"
            }
          ],
          "internalType": "struct PoolKey",
          "name": "key",
          "type": "tuple"
        },
        {
          "internalType": "uint16",
          "name": "cardinalityNext",
          "type": "uint16"
        }
      ],
      "name": "increaseCardinalityNext",
      "outputs": [
        {
          "internalType": "uint16",
          "name": "cardinalityNextOld",
          "type": "uint16"
        },
        {
          "internalType": "uint16",
          "name": "cardinalityNextNew",
          "type": "uint16"
        }
      ],
      "stateMutability": "nonpayable",
      "type": "function"
    }
  ],
  "bytecode": "0x60a0604052346101fa57604051601f611c6738819003918201601f19168301916001600160401b038311848410176101fe578084926020946040528339810103126101fa57516001600160a01b03811681036101fa576080525f610100610064610212565b8281528260208201528260408201528260608201528260808201528260a08201528260c08201528260e082015201525f61010061009f610212565b600181526001602082015260016040820152826060820152600160808201528260a08201528260c08201528260e082015201526001609f1b301615156001148015906101e7575b80156101d4575b80156101c5575b80156101b2575b80156101a3575b8015610194575b8015610185575b8015610176575b61016357604051611a349081610233823960805181818160ea015281816103b10152818161080a0152818161088e0152818161095301528181610c0d01528181610ca9015261129d0152f35b630732d7b560e51b5f523060045260245ffd5b5030600160971b161515610117565b5030600160981b161515610110565b5030600160991b161515610109565b50306001609a1b161515610102565b50306001609b1b161515600114156100fb565b50306001609c1b1615156100f4565b50306001609d1b161515600114156100ed565b50306001609e1b161515600114156100e6565b5f80fd5b634e487b7160e01b5f52604160045260245ffd5b6040519061012082016001600160401b038111838210176101fe5760405256fe60806040526004361015610011575f80fd5b5f3560e01c806330b7cdef146108395780633440d82014610c56578063575e24b414610bf7578063612c39b714610b095780638f1c921714610a75578063a910f80f146108f6578063ab6291fe1461085c578063b47b2fb114610839578063b6a8b0fa14610781578063dc4c90d3146107f5578063dd71cea814610786578063e1b4af6914610781578063e3b077a1146106eb578063efb40e5714610649578063f96f97f214610292578063fbdc1ef11461024e5763fe9a6f45146100d4575f80fd5b34610219576100e236610e6d565b5091925090507f00000000000000000000000000000000000000000000000000000000000000006001600160a01b03163381900361023f575f60408301351261023057602060049160405192838092633023078360e11b82525afa908115610225575f916101e7575b5061015582610f65565b908060020b9182156101d3578183620d89e719050260020b9060020b14928315936101ac575b50505061019d5761018b90611210565b60405163fe9a6f4560e01b8152602090f35b63d07a010d60e01b5f5260045ffd5b6101bb91929350602001610f65565b91620d89e8050260020b9060020b14155f808061017b565b634e487b7160e01b5f52601260045260245ffd5b90506020813d60201161021d575b8161020260209383610ff4565b810103126102195761021390611015565b5f61014b565b5f80fd5b3d91506101f5565b6040513d5f823e3d90fd5b63c7e87ced60e01b5f5260045ffd5b63570c108560e11b5f5260045ffd5b34610219576020366003190112610219576004355f526001602052606060405f205461ffff604051918181168352818160101c16602084015260201c166040820152f35b3461021957366003190160c081126102195760a0136102195760a4356001600160401b03811161021957366023820112156102195780600401356001600160401b0381116102195760248160051b83010190368211610219576040516102f781610fd9565b6004356001600160a01b03811681036102195781526024356001600160a01b038116810361021957602082015260443562ffffff811681036102195760408201526064358060020b8103610219576060820152608435906001600160a01b03821682036102195761036c916080820152611419565b91825f52600160205260405f20926040519361038785610fbe565b5461ffff8116855261ffff6020860191818160101c16835260201c16604086015260018060a01b037f00000000000000000000000000000000000000000000000000000000000000001660405192633205590760e21b8452806004850152608084602481855afa918215610225576024945f93610611575b506020906040519586809263fa6793d560e01b82528560048301525afa938415610225575f946105e0575b505f525f60205260405f209661ffff8063ffffffff421698511693511694610451876111f9565b9661045f6040519889610ff4565b87526024602088019201915b8183106105c35750505083156105b4578451966104a061048a896111f9565b986104986040519a8b610ff4565b808a526111f9565b602089019790601f19013689378651966104bc61048a896111f9565b6020890190601f19013682375f5b8b835182101561052b57908a61051f82600194816105108f8f908f918f928f938f948f9563ffffffff6105008a61050899611482565b5116916115a9565b929096611482565b90878060a01b03169052611482565b9060060b9052016104ca565b8a90838d604051938493604085019060408652518091526060850192905f5b818110610598575050506020908483038286015251918281520191905f5b818110610576575050500390f35b82516001600160a01b0316845285945060209384019390920191600101610568565b825160060b85528796506020948501949092019160010161054a565b632addd83360e21b5f5260045ffd5b823563ffffffff811681036102195781526020928301920161046b565b61060391945060203d60201161060a575b6105fb8183610ff4565b8101906111da565b928861042a565b503d6105f1565b60209193506106379060803d608011610642575b61062f8183610ff4565b810190611193565b5050905092906103ff565b503d610625565b3461021957366003190160c081126102195760a0136102195761066a61111c565b50604051602081019061068e8161068084611023565b03601f198101835282610ff4565b5190205f525f60205260806106b16106ab60a43560405f20610f41565b50611140565b60606040519163ffffffff8151168352602081015160060b602084015260018060a01b036040820151166040840152015115156060820152f35b346102195760a0366003190112610219575f6040805161070a81610fbe565b8281528260208201520152604051602081019061072a8161068084611023565b5190205f526001602052606060405f2061ffff6040519161074a83610fbe565b5481808216938481528160406020830192828660101c168452019360201c1683526040519485525116602084015251166040820152f35b610edc565b34610219576040366003190112610219576024356004355f525f60205260405f2061ffff821015610219576080916107bd91610f41565b50546040519063ffffffff811682528060201c60060b602083015260018060a01b038160581c16604083015260f81c15156060820152f35b34610219575f366003190112610219576040517f00000000000000000000000000000000000000000000000000000000000000006001600160a01b03168152602090f35b346102195761084736610df0565b505050505050630a85dc2960e01b5f5260045ffd5b34610219576020366003190112610219576004356001600160401b0381116102195761088c903690600401610dc3565b7f00000000000000000000000000000000000000000000000000000000000000006001600160a01b0316330361023f576108ca60409160209361109e565b815192839181835280519182918282860152018484015e5f828201840152601f01601f19168101030190f35b346102195761012036600319011261021957610910610d99565b5060a036602319011261021957610925610e57565b5061092e610ecc565b50610104356001600160401b0381116102195761094f903690600401610dc3565b50507f00000000000000000000000000000000000000000000000000000000000000006001600160a01b0316330361023f5760405161098d81610fd9565b6024356001600160a01b03811681036102195781526044356001600160a01b038116810361021957602082015260643562ffffff811681036102195760408201526084358060020b810361021957606082015260a435906001600160a01b038216820361021957610a02916080820152611419565b805f525f60205260405f20604051610a1981610fa3565b63ffffffff42168082525f6020808401829052604080850183905260016060909501859052600160f81b90931790945593845290825291829020805465ffffffff00001916640100010000179055905163a910f80f60e01b8152f35b3461021957366003190160c081126102195760a0136102195760a43561ffff811681036102195760409061ffff82516020810190610ab68161068084611023565b51902091825f526001602052610ae0845f209183835460201c16945f525f60205284865f206113c2565b90805465ffff000000008360201b169065ffff0000000019161790558351928352166020820152f35b34610219575f366003190112610219575f610100604051610b2981610f73565b8281528260208201528260408201528260608201528260808201528260a08201528260c08201528260e08201520152610120604051610b6781610f73565b60018152602081019060018252604081019060018252606081015f8152608082016001815260a08301905f825260c08401925f845261010060e08601955f875201955f87526040519760018952511515602089015251151560408801525115156060870152511515608086015251151560a085015251151560c084015251151560e0830152511515610100820152f35b3461021957610c0536610e6d565b5091925050507f00000000000000000000000000000000000000000000000000000000000000006001600160a01b0316330361023f57610c4490611210565b6040516315d7892d60e21b8152602090f35b346102195761010036600319011261021957610c70610d99565b5060a036602319011261021957610c85610e57565b5060e4356001600160401b03811161021957610ca5903690600401610dc3565b50507f00000000000000000000000000000000000000000000000000000000000000006001600160a01b03163381900361023f5760643562ffffff8116809103610219571590811591610d19575b50610d0a576040516301a206c160e51b8152602090f35b6362124b2560e11b5f5260045ffd5b608435600281900b92508281036102195750604051633023078360e11b815290602090829060049082905afa908115610225575f91610d5f575b5060020b141581610cf3565b90506020813d602011610d91575b81610d7a60209383610ff4565b8101031261021957610d8b90611015565b82610d53565b3d9150610d6d565b600435906001600160a01b038216820361021957565b35906001600160a01b038216820361021957565b9181601f84011215610219578235916001600160401b038311610219576020838186019501011161021957565b610160600319820112610219576004356001600160a01b0381168103610219579160a060231983011261021957602491606060c3198201126102195760c491610124359161014435906001600160401b03821161021957610e5391600401610dc3565b9091565b60c435906001600160a01b038216820361021957565b90610140600319830112610219576004356001600160a01b0381168103610219579160a060231982011261021957602491606060c3198301126102195760c49161012435906001600160401b03821161021957610e5391600401610dc3565b60e435908160020b820361021957565b3461021957610120366003190112610219576004356001600160a01b0381168103610219575060a036602319011261021957610104356001600160401b03811161021957610f2e903690600401610dc3565b5050630a85dc2960e01b5f908152600490fd5b61ffff821015610f515701905f90565b634e487b7160e01b5f52603260045260245ffd5b358060020b81036102195790565b61012081019081106001600160401b03821117610f8f57604052565b634e487b7160e01b5f52604160045260245ffd5b608081019081106001600160401b03821117610f8f57604052565b606081019081106001600160401b03821117610f8f57604052565b60a081019081106001600160401b03821117610f8f57604052565b90601f801991011681019081106001600160401b03821117610f8f57604052565b51908160020b820361021957565b60a0810191906004356001600160a01b038116908190036102195781526024356001600160a01b0381169081900361021957602082015260443562ffffff81168091036102195760408201526064358060020b8091036102195760608201526084356001600160a01b03811691908290036102195760800152565b5f9182918160405192839283378101838152039082305af1903d15611114573d916001600160401b038311610f8f57604051926110e5601f8201601f191660200185610ff4565b83523d5f602085013e5b611112575080511561110357602081519101fd5b6314815f4760e31b5f5260045ffd5b565b6060916110ef565b6040519061112982610fa3565b5f6060838281528260208201528260408201520152565b9060405161114d81610fa3565b915463ffffffff81168352602081811c60060b90840152605881901c6001600160a01b0316604084015260f81c15156060830152565b519062ffffff8216820361021957565b91908260809103126102195781516001600160a01b038116810361021957916111be60208201611015565b916111d760606111d060408501611183565b9301611183565b90565b9081602091031261021957516001600160801b03811681036102195790565b6001600160401b038111610f8f5760051b60200190565b60a0813603126102195760405161122681610fd9565b61122f82610daf565b815261123d60208301610daf565b6020820152604082013562ffffff811681036102195760408201526060820135918260020b830361021957608061127d9161128794606085015201610daf565b6080820152611419565b604051633205590760e21b8152600481018290527f00000000000000000000000000000000000000000000000000000000000000006001600160a01b0316608082602481845afa918215610225575f92611397575b5060206024916040519283809263fa6793d560e01b82528760048301525afa9182156102255761ffff9261134a925f91611378575b505f85815260208181526040808320600183529220549081901c861693601082901c8716939290914263ffffffff1691908816906114aa565b5f93845260016020526040909320805463ffffffff191660109490941b63ffff000016939093179116179055565b611391915060203d60201161060a576105fb8183610ff4565b5f611311565b60249192506113b660209160803d6080116106425761062f8183610ff4565b505090509291506112dc565b61ffff82169182156105b45761ffff841692831115611412575b8261ffff8216106113ed5750505090565b6001816113fd61ffff9385610f41565b50805463ffffffff19168317905501166113dc565b9250505090565b604051602081019160018060a01b03815116835260018060a01b03602082015116604083015262ffffff6040820151166060830152606081015160020b6080830152608060018060a01b039101511660a082015260a0815261147c60c082610ff4565b51902090565b8051821015610f515760209160051b010190565b9061ffff169081156101d35761ffff160690565b93919592909694966114bf6106ab8287610f41565b9363ffffffff85511663ffffffff89161461159f579161150761151595949261ffff61150f958c8260019d9e16838316118061158f575b1561158557509a8b925b0116611496565b988994611701565b92610f41565b91909161157257805160208083015160408401516060909401516001600160f81b031990151560f81b16600160581b600160f81b0360589590951b9490941663ffffffff909316911b6affffffffffffff00000000161717179055565b634e487b7160e01b5f525f60045260245ffd5b90509a8b92611500565b508383165f1982018416146114f6565b5096955050505050565b9492909695939163ffffffff8116156116ab579463ffffffff6115d1968903169788916117bb565b909263ffffffff8451168082145f1461160057505050602082015160060b91604060018060a01b039101511690565b63ffffffff839592935116908184145f146116325750505050602082015160060b91604060018060a01b039101511690565b63ffffffff818193031693031691602082015160060b9182602087015160060b0360060b918060060b9182156101d3576040908101519701516001600160a01b039788169790811688900316850281156101d357049360060b91050260060b0160060b9260018060a01b039160018060a01b0316011690565b5092506106ab906116bc9294610f41565b9363ffffffff85511663ffffffff8216036116ee575b505050602082015160060b91604060018060a01b039101511690565b6116f89394611701565b905f80806116d2565b9192909261170d61111c565b5063ffffffff835116840392602081015160060b90604060018060a01b0391015116926001600160801b03811615155f146117ab576001600160801b03905b169182156101d35763ffffffff6040519661176688610fa3565b16865263ffffffff851660060b9060020b0260060b0160060b602085015260018060a01b039263ffffffff60801b9060801b1604011660408201526001606082015290565b506001600160801b03600161174c565b96929490949391936117cb61111c565b506117d461111c565b916117e26106ab858b610f41565b9163ffffffff8351166117f688828b611976565b61194b575050505050600161ffff91011661181d6106ab6118178784611496565b88610f41565b606081015115611935575b5163ffffffff1661183a848287611976565b15611919575061ffff61186086829361185161111c565b5061185a61111c565b50611496565b169416935f19858201015b80820160011c906118886106ab61188289856119f4565b8a610f41565b60608101511561190e5760018301906118ad6106ab6118a78b856119f4565b8c610f41565b6118bf8863ffffffff8451168b611976565b9182806118f6575b6118e75750506118de5750505f1901905b9061186b565b915091506118d8565b9a509850949650505050505050565b5061190963ffffffff8351168a8c611976565b6118c7565b5091506001016118d8565b8363ffffffff9162a3913760e61b5f526004521660245260445ffd5b5063ffffffff61194487611140565b9050611828565b93995094975090955093915063ffffffff82160361196a575050509190565b836111d7949650611701565b63ffffffff9182169291168083118015806119e4575b6119d7579063ffffffff64ffffffffff939484935f146119c857945b16908111156119ba575b169116111590565b6401000000000181166119b2565b640100000000018316946119a8565b505063ffffffff16101590565b508163ffffffff8416111561198c565b81156101d357069056fea264697066735822122086df95315f469a902d9cf313ff78db8c87ca8a951bc27259b227cd951d1f559764736f6c634300081c0033",
  "immutableReferences": {
    "14615": [
      {
        "length": 32,
        "start": 234
      },
      {
        "length": 32,
        "start": 945
      },
      {
        "length": 32,
        "start": 2058
      },
      {
        "length": 32,
        "start": 2190
      },
      {
        "length": 32,
        "start": 2387
      },
      {
        "length": 32,
        "start": 3085
      },
      {
        "length": 32,
        "start": 3241
      },
      {
        "length": 32,
        "start": 4765
      }
    ]
  },
  "source": "// SPDX-License-Identifier: UNLICENSED\npragma solidity ^0.8.19;\n\nimport {IPoolManager} from \"../../../../v4-core/src/interfaces/IPoolManager.sol\";\nimport {PoolId, PoolIdLibrary} from \"../../../../v4-core/src/types/PoolId.sol\";\nimport {Hooks} from \"../../../../v4-core/src/libraries/Hooks.sol\";\nimport {TickMath} from \"../../../../v4-core/src/libraries/TickMath.sol\";\nimport {Oracle} from \"../../libraries/Oracle.sol\";\nimport {BaseHook} from \"../../BaseHook.sol\";\nimport {PoolKey} from \"../../../../v4-core/src/types/PoolKey.sol\";\n\n/// @notice A hook for a pool that allows a Uniswap pool to act as an oracle. Pools that use this hook must have full range\n///     tick spacing and liquidity is always permanently locked in these pools. This is the suggested configuration\n///     for protocols that wish to use a V3 style geomean oracle.\ncontract GeomeanOracle is BaseHook {\n    using Oracle for Oracle.Observation[65535];\n    using PoolIdLibrary for PoolKey;\n\n    /// @notice Oracle pools do not have fees because they exist to serve as an oracle for a pair of tokens\n    error OnlyOneOraclePoolAllowed();\n\n    /// @notice Oracle positions must be full range\n    error OraclePositionsMustBeFullRange();\n\n    /// @notice Oracle pools must have liquidity locked so that they cannot become more susceptible to price manipulation\n    error OraclePoolMustLockLiquidity();\n\n    /// @member index The index of the last written observation for the pool\n    /// @member cardinality The cardinality of the observations array for the pool\n    /// @member cardinalityNext The cardinality target of the observations array for the pool, which will replace cardinality when enough observations are written\n    struct ObservationState {\n        uint16 index;\n        uint16 cardinality;\n        uint16 cardinalityNext;\n    }\n\n    /// @notice The list of observations for a given pool ID\n    mapping(PoolId => Oracle.Observation[65535]) public observations;\n    /// @notice The current observation array state for the given pool ID\n    mapping(PoolId => ObservationState) public states;\n\n    /// @notice Returns the observation for the given pool key and observation index\n    function getObservation(PoolKey calldata key, uint256 index)\n        external\n        view\n        returns (Oracle.Observation memory observation)\n    {\n        observation = observations[PoolId.wrap(keccak256(abi.encode(key)))][index];\n    }\n\n    /// @notice Returns the state for the given pool key\n    function getState(PoolKey calldata key) external view returns (ObservationState memory state) {\n        state = states[PoolId.wrap(keccak256(abi.encode(key)))];\n    }\n\n    /// @dev For mocking\n    function _blockTimestamp() internal view virtual returns (uint32) {\n        return uint32(block.timestamp);\n    }\n\n    constructor(IPoolManager _poolManager) BaseHook(_poolManager) {}\n\n    function getHooksCalls() public pure override returns (Hooks.Calls memory) {\n        return Hooks.Calls({\n            beforeInitialize: true,\n            afterInitialize: true,\n            beforeModifyPosition: true,\n            afterModifyPosition: false,\n            beforeSwap: true,\n            afterSwap: false,\n            beforeDonate: false,\n            afterDonate: false,\n            noOp: false\n        });\n    }\n\n    function beforeInitialize(address, PoolKey calldata key, uint160, bytes calldata)\n        external\n        view\n        override\n        poolManagerOnly\n        returns (bytes4)\n    {\n        // This is to limit the fragmentation of pools using this oracle hook. In other words,\n        // there may only be one pool per pair of tokens that use this hook. The tick spacing is set to the maximum\n        // because we only allow max range liquidity in this pool.\n        if (key.fee != 0 || key.tickSpacing != poolManager.MAX_TICK_SPACING()) revert OnlyOneOraclePoolAllowed();\n        return GeomeanOracle.beforeInitialize.selector;\n    }\n\n    function afterInitialize(address, PoolKey calldata key, uint160, int24, bytes calldata)\n        external\n        override\n        poolManagerOnly\n        returns (bytes4)\n    {\n        PoolId id = key.toId();\n        (states[id].cardinality, states[id].cardinalityNext) = observations[id].initialize(_blockTimestamp());\n        return GeomeanOracle.afterInitialize.selector;\n    }\n\n    /// @dev Called before any action that potentially modifies pool price or liquidity, such as swap or modify position\n    function _updatePool(PoolKey calldata key) private {\n        PoolId id = key.toId();\n        (, int24 tick,,) = poolManager.getSlot0(id);\n\n        uint128 liquidity = poolManager.getLiquidity(id);\n\n        (states[id].index, states[id].cardinality) = observations[id].write(\n            states[id].index, _blockTimestamp(), tick, liquidity, states[id].cardinality, states[id].cardinalityNext\n        );\n    }\n\n    function beforeModifyPosition(\n        address,\n        PoolKey calldata key,\n        IPoolManager.ModifyPositionParams calldata params,\n        bytes calldata\n    ) external override poolManagerOnly returns (bytes4) {\n        if (params.liquidityDelta < 0) revert OraclePoolMustLockLiquidity();\n        int24 maxTickSpacing = poolManager.MAX_TICK_SPACING();\n        if (\n            params.tickLower != TickMath.minUsableTick(maxTickSpacing)\n                || params.tickUpper != TickMath.maxUsableTick(maxTickSpacing)\n        ) revert OraclePositionsMustBeFullRange();\n        _updatePool(key);\n        return GeomeanOracle.beforeModifyPosition.selector;\n    }\n\n    function beforeSwap(address, PoolKey calldata key, IPoolManager.SwapParams calldata, bytes calldata)\n        external\n        override\n        poolManagerOnly\n        returns (bytes4)\n    {\n        _updatePool(key);\n        return GeomeanOracle.beforeSwap.selector;\n    }\n\n    /// @notice Observe the given pool for the timestamps\n    function observe(PoolKey calldata key, uint32[] calldata secondsAgos)\n        external\n        view\n        returns (int56[] memory tickCumulatives, uint160[] memory secondsPerLiquidityCumulativeX128s)\n    {\n        PoolId id = key.toId();\n\n        ObservationState memory state = states[id];\n\n        (, int24 tick,,) = poolManager.getSlot0(id);\n\n        uint128 liquidity = poolManager.getLiquidity(id);\n\n        return observations[id].observe(_blockTimestamp(), secondsAgos, tick, state.index, liquidity, state.cardinality);\n    }\n\n    /// @notice Increase the cardinality target for the given pool\n    function increaseCardinalityNext(PoolKey calldata key, uint16 cardinalityNext)\n        external\n        returns (uint16 cardinalityNextOld, uint16 cardinalityNextNew)\n    {\n        PoolId id = PoolId.wrap(keccak256(abi.encode(key)));\n\n        ObservationState storage state = states[id];\n\n        cardinalityNextOld = state.cardinalityNext;\n        cardinalityNextNew = observations[id].grow(cardinalityNextOld, cardinalityNext);\n        state.cardinalityNext = cardinalityNextNew;\n    }\n}\n",
  "sourcePath": "/home/stephensb/sb-labs/solidity-contracts/contracts/v4-periphery/contracts/hooks/examples/GeomeanOracle.sol",
  "compiler": {
    "name": "solc",
    "version": "0.8.28+commit.7893614a.Emscripten.clang"
  },
  "schemaVersion": "3.4.12",
  "updatedAt": "2024-12-18T07:36:00.873Z",
  "devdoc": {
    "errors": {
      "HookAddressNotValid(address)": [
        {
          "params": {
            "hooks": "The address of the hooks contract"
          }
        }
      ],
      "TargetPredatesOldestObservation(uint32,uint32)": [
        {
          "params": {
            "oldestTimestamp": "Timestamp of the oldest remaining observation",
            "targetTimestamp": "Invalid timestamp targeted to be observed"
          }
        }
      ]
    },
    "kind": "dev",
    "methods": {},
    "version": 1
  },
  "userdoc": {
    "errors": {
      "HookAddressNotValid(address)": [
        {
          "notice": "Thrown if the address will not lead to the specified hook calls being called"
        }
      ],
      "OnlyOneOraclePoolAllowed()": [
        {
          "notice": "Oracle pools do not have fees because they exist to serve as an oracle for a pair of tokens"
        }
      ],
      "OracleCardinalityCannotBeZero()": [
        {
          "notice": "Thrown when trying to interact with an Oracle of a non-initialized pool"
        }
      ],
      "OraclePoolMustLockLiquidity()": [
        {
          "notice": "Oracle pools must have liquidity locked so that they cannot become more susceptible to price manipulation"
        }
      ],
      "OraclePositionsMustBeFullRange()": [
        {
          "notice": "Oracle positions must be full range"
        }
      ],
      "TargetPredatesOldestObservation(uint32,uint32)": [
        {
          "notice": "Thrown when trying to observe a price that is older than the oldest recorded price"
        }
      ]
    },
    "kind": "user",
    "methods": {
      "getObservation((address,address,uint24,int24,address),uint256)": {
        "notice": "Returns the observation for the given pool key and observation index"
      },
      "getState((address,address,uint24,int24,address))": {
        "notice": "Returns the state for the given pool key"
      },
      "increaseCardinalityNext((address,address,uint24,int24,address),uint16)": {
        "notice": "Increase the cardinality target for the given pool"
      },
      "observations(bytes32,uint256)": {
        "notice": "The list of observations for a given pool ID"
      },
      "observe((address,address,uint24,int24,address),uint32[])": {
        "notice": "Observe the given pool for the timestamps"
      },
      "poolManager()": {
        "notice": "The address of the pool manager"
      },
      "states(bytes32)": {
        "notice": "The current observation array state for the given pool ID"
      }
    },
    "notice": "A hook for a pool that allows a Uniswap pool to act as an oracle. Pools that use this hook must have full range     tick spacing and liquidity is always permanently locked in these pools. This is the suggested configuration     for protocols that wish to use a V3 style geomean oracle.",
    "version": 1
  }
}