{
  "contractName": "GovernorSimple",
  "abi": [
    {
      "anonymous": false,
      "inputs": [
        {
          "indexed": false,
          "internalType": "uint256",
          "name": "id",
          "type": "uint256"
        }
      ],
      "name": "ProposalCanceled",
      "type": "event"
    },
    {
      "anonymous": false,
      "inputs": [
        {
          "indexed": false,
          "internalType": "uint256",
          "name": "id",
          "type": "uint256"
        },
        {
          "indexed": false,
          "internalType": "address",
          "name": "proposer",
          "type": "address"
        },
        {
          "indexed": false,
          "internalType": "address[]",
          "name": "targets",
          "type": "address[]"
        },
        {
          "indexed": false,
          "internalType": "uint256[]",
          "name": "values",
          "type": "uint256[]"
        },
        {
          "indexed": false,
          "internalType": "string[]",
          "name": "signatures",
          "type": "string[]"
        },
        {
          "indexed": false,
          "internalType": "bytes[]",
          "name": "calldatas",
          "type": "bytes[]"
        },
        {
          "indexed": false,
          "internalType": "uint256",
          "name": "startBlock",
          "type": "uint256"
        },
        {
          "indexed": false,
          "internalType": "string",
          "name": "description",
          "type": "string"
        }
      ],
      "name": "ProposalCreated",
      "type": "event"
    },
    {
      "anonymous": false,
      "inputs": [
        {
          "indexed": false,
          "internalType": "uint256",
          "name": "id",
          "type": "uint256"
        }
      ],
      "name": "ProposalExecuted",
      "type": "event"
    },
    {
      "anonymous": false,
      "inputs": [
        {
          "indexed": false,
          "internalType": "uint256",
          "name": "id",
          "type": "uint256"
        }
      ],
      "name": "ProposalQueued",
      "type": "event"
    },
    {
      "inputs": [
        {
          "internalType": "uint256",
          "name": "",
          "type": "uint256"
        }
      ],
      "name": "admins",
      "outputs": [
        {
          "internalType": "address",
          "name": "",
          "type": "address"
        }
      ],
      "stateMutability": "view",
      "type": "function"
    },
    {
      "inputs": [],
      "name": "proposalCount",
      "outputs": [
        {
          "internalType": "uint256",
          "name": "",
          "type": "uint256"
        }
      ],
      "stateMutability": "view",
      "type": "function"
    },
    {
      "inputs": [],
      "name": "proposalMaxOperations",
      "outputs": [
        {
          "internalType": "uint256",
          "name": "",
          "type": "uint256"
        }
      ],
      "stateMutability": "view",
      "type": "function"
    },
    {
      "inputs": [
        {
          "internalType": "uint256",
          "name": "",
          "type": "uint256"
        }
      ],
      "name": "proposals",
      "outputs": [
        {
          "internalType": "uint256",
          "name": "id",
          "type": "uint256"
        },
        {
          "internalType": "address",
          "name": "proposer",
          "type": "address"
        },
        {
          "internalType": "uint256",
          "name": "startBlock",
          "type": "uint256"
        },
        {
          "internalType": "bool",
          "name": "canceled",
          "type": "bool"
        },
        {
          "internalType": "bool",
          "name": "queued",
          "type": "bool"
        },
        {
          "internalType": "bool",
          "name": "executed",
          "type": "bool"
        }
      ],
      "stateMutability": "view",
      "type": "function"
    },
    {
      "inputs": [],
      "name": "timelock",
      "outputs": [
        {
          "internalType": "contract TimelockInterface",
          "name": "",
          "type": "address"
        }
      ],
      "stateMutability": "view",
      "type": "function"
    },
    {
      "inputs": [
        {
          "internalType": "address",
          "name": "timelock_",
          "type": "address"
        },
        {
          "internalType": "address[]",
          "name": "admins_",
          "type": "address[]"
        }
      ],
      "name": "initialize",
      "outputs": [],
      "stateMutability": "nonpayable",
      "type": "function"
    },
    {
      "inputs": [
        {
          "internalType": "address[]",
          "name": "targets",
          "type": "address[]"
        },
        {
          "internalType": "uint256[]",
          "name": "values",
          "type": "uint256[]"
        },
        {
          "internalType": "string[]",
          "name": "signatures",
          "type": "string[]"
        },
        {
          "internalType": "bytes[]",
          "name": "calldatas",
          "type": "bytes[]"
        },
        {
          "internalType": "string",
          "name": "description",
          "type": "string"
        }
      ],
      "name": "propose",
      "outputs": [
        {
          "internalType": "uint256",
          "name": "",
          "type": "uint256"
        }
      ],
      "stateMutability": "nonpayable",
      "type": "function"
    },
    {
      "inputs": [
        {
          "internalType": "uint256",
          "name": "proposalId",
          "type": "uint256"
        }
      ],
      "name": "queue",
      "outputs": [],
      "stateMutability": "nonpayable",
      "type": "function"
    },
    {
      "inputs": [
        {
          "internalType": "uint256",
          "name": "proposalId",
          "type": "uint256"
        }
      ],
      "name": "execute",
      "outputs": [],
      "stateMutability": "payable",
      "type": "function"
    },
    {
      "inputs": [
        {
          "internalType": "uint256",
          "name": "proposalId",
          "type": "uint256"
        }
      ],
      "name": "cancel",
      "outputs": [],
      "stateMutability": "nonpayable",
      "type": "function"
    },
    {
      "inputs": [
        {
          "internalType": "uint256",
          "name": "proposalId",
          "type": "uint256"
        }
      ],
      "name": "getActions",
      "outputs": [
        {
          "internalType": "address[]",
          "name": "targets",
          "type": "address[]"
        },
        {
          "internalType": "uint256[]",
          "name": "values",
          "type": "uint256[]"
        },
        {
          "internalType": "string[]",
          "name": "signatures",
          "type": "string[]"
        },
        {
          "internalType": "bytes[]",
          "name": "calldatas",
          "type": "bytes[]"
        }
      ],
      "stateMutability": "view",
      "type": "function"
    },
    {
      "inputs": [
        {
          "internalType": "uint256",
          "name": "proposalId",
          "type": "uint256"
        }
      ],
      "name": "state",
      "outputs": [
        {
          "internalType": "enum GovernorSimple.ProposalState",
          "name": "",
          "type": "uint8"
        }
      ],
      "stateMutability": "view",
      "type": "function"
    },
    {
      "inputs": [
        {
          "internalType": "address",
          "name": "account",
          "type": "address"
        }
      ],
      "name": "isAdmin",
      "outputs": [
        {
          "internalType": "bool",
          "name": "",
          "type": "bool"
        }
      ],
      "stateMutability": "view",
      "type": "function"
    },
    {
      "inputs": [
        {
          "internalType": "address",
          "name": "newAdminAddress",
          "type": "address"
        }
      ],
      "name": "addAdmin",
      "outputs": [],
      "stateMutability": "nonpayable",
      "type": "function"
    },
    {
      "inputs": [
        {
          "internalType": "address",
          "name": "adminAddress",
          "type": "address"
        }
      ],
      "name": "removeAdmin",
      "outputs": [],
      "stateMutability": "nonpayable",
      "type": "function"
    }
  ],
  "bytecode": "0x608080604052346100165761203e908161001c8239f35b600080fdfe608080604052600436101561001357600080fd5b60003560e01c908163013cf08b146118465750806314bfd6d0146117fd5780631785f53c1461163457806324d7806c14611607578063328dd982146115655780633e4f49e61461153657806340e58ee51461130a57806370480275146112315780637bdbe4d014611215578063946d9204146110c5578063d33219b41461109c578063da35c6641461107e578063da95691a146106f0578063ddf0b009146103785763fe0d94c1146100c457600080fd5b60208060031936011261024a576004356100dd33611f96565b15610317576100eb81611e5c565b60048110156103015760020361028757600081815260038084526040822060078101805462ffff001916620100001790558082019260058201926004830192600201915b825481101561025b57600080546001600160a01b03908116929190610154838a6118f2565b905490861b1c9061016584886118f2565b905490871b1c1693610177848b6118f2565b905490871b1c610187858a6118f2565b5092610193868c6118f2565b50966101b560405198899687958694632224fa2560e01b865260048601611d11565b03925af1801561024f576101d3575b6101ce9150611bb5565b61012f565b3d806000843e6101e38184611a63565b820191898184031261024a578051906001600160401b03821161024a57019180601f8401121561024a57825161021881611b09565b916102266040519384611a63565b8183528b828601011161024a576101ce938b8061024594019101611991565b6101c4565b600080fd5b6040513d6000823e3d90fd5b7f712ae1383f79ac853f8d882153778e0260ef8f03b504e2866e0593e04d2b291f8888604051908152a1005b60405162461bcd60e51b815260048101839052604660248201527f476f7665726e6f7253696d706c653a3a657865637574653a2070726f706f736160448201527f6c2063616e206f6e6c79206265206578656375746564206966206974206973206064820152651c5d595d595960d21b608482015260a490fd5b634e487b7160e01b600052602160045260246000fd5b60405162461bcd60e51b815260048101839052603360248201527f476f7665726e6f7253696d706c653a3a657865637574653a206f6e6c7920676f6044820152727665726e6f72732063616e206578656375746560681b6064820152608490fd5b3461024a57602036600319011261024a5760043561039533611f96565b15610693576103a381611e5c565b60048110156103015761061d578060005260038060205260406000206007810161010061ff00198254161790556000908281019160058201905b60028301548110156105f05761044b61044b6103fc83600287016118f2565b90546001600160a01b0391891b1c8116919061041885896118f2565b9054908a1b1c9061045e61042f8760048b016118f2565b5061045261043d898b6118f2565b509160405196878092611c43565b0386611a63565b60405196878092611c43565b6000541690604051602081019061048a8161047c8988878b88611cd9565b03601f198101835282611a63565b5190206040519063f2b0653760e01b82526004820152602081602481865afa90811561024f576000916105b5575b5061052b5760006020946104e260405197889687958694633275cf4d60e01b865260048601611cd9565b03925af1801561024f57610500575b506104fb90611bb5565b6103dd565b602090813d8311610524575b6105168183611a63565b8101031261024a57866104f1565b503d61050c565b60405162461bcd60e51b815260206004820152605660248201527f476f7665726e6f7253696d706c653a3a71756575654f72526576657274496e7460448201527f65726e616c3a206964656e746963616c2070726f706f73616c20616374696f6e60648201527520616c7265616479207175657565642061742065746160501b608482015260a490fd5b90506020813d6020116105e8575b816105d060209383611a63565b8101031261024a5751801515810361024a578c6104b8565b3d91506105c3565b7f3358bd34aca93e3ad9a243de48c96b8a820ec804097b77ee85179c1bcdfe9e9f602087604051908152a1005b60405162461bcd60e51b815260206004820152604260248201527f476f7665726e6f7253696d706c653a3a71756575653a2070726f706f73616c2060448201527f63616e206f6e6c79206265207175657565642069662069742069732061637469606482015261766560f01b608482015260a490fd5b60405162461bcd60e51b815260206004820152602f60248201527f476f7665726e6f7253696d706c653a3a71756575653a206f6e6c7920676f766560448201526e726e6f72732063616e20717565756560881b6064820152608490fd5b3461024a5760a036600319011261024a576004356001600160401b03811161024a57610720903690600401611a9b565b6024356001600160401b03811161024a573660238201121561024a5780600401359061074b82611a84565b916107596040519384611a63565b8083526024602084019160051b8301019136831161024a57602401905b82821061106e57505050604435906001600160401b03821161024a573660238301121561024a5781600401356107ab81611a84565b926107b96040519485611a63565b8184526024602085019260051b8201019036821161024a5760248101925b82841061103f57505050506001600160401b036064351161024a5736602360643501121561024a576064356004013561080f81611a84565b9061081d6040519283611a63565b80825260208201903660248260051b60643501011161024a57602460643501915b60248260051b60643501018310610ff3575050506084356001600160401b03811161024a57610871903690600401611b5b565b9061087b33611f96565b15610f92578451835181149081610f87575b81610f7c575b5015610f0357845115610ea857600a855111610e51576108b4600254611bb5565b9384600255604051946108c686611a47565b8086523360208701528660408701528460608701528160808701528260a08701524360c0870152600060e08701526000610100870152600061012087015260005260036020526040600020855181556001810160018060a01b036020880151166bffffffffffffffffffffffff60a01b8254161790556040860151805190600160401b8211610c1a576020600284019161096584845481865585611b90565b019060005260206000206000915b838310610e2157505050506060860151805190600160401b8211610c1a57602060038401916109a784845481865585611b90565b019060005260206000206000915b838310610e0b57505050506080860151805190600160401b8211610c1a576004830154826004850155808310610d8c575b5060200190600483016000526020600020916000905b828210610caf575050505060a0860151805190600160401b8211610c1a576005830154826005850155808310610c30575b5060200190600583016000526020600020916000905b828210610b3757506020897fecb3cef6b7909dbd326874efa66fc26c8143a104b3fcb06e34712a411bc8417b8c8b610b2b8c610b178d610b098e60078f60c08c015160068201550160e08b015115158b825460ff62ff000061012061ff00610100860151151560081b16940151151560101b1693169062ffffff19161717179055610afb8a5197610aed6040519a8b9a8b52338f8c015261010060408c01526101008b0190611920565b9089820360608b015261195d565b9087820360808901526119eb565b9085820360a08701526119eb565b904360c085015283820360e08501526119c6565b0390a151604051908152f35b80518051906001600160401b038211610c1a57610b5e82610b588854611bc4565b88611bfe565b602090601f8311600114610baa579282600194936020938695600092610b9f575b5050600019600383901b1c191690841b1787555b01940191019092610a43565b015190503880610b7f565b908660005260206000209160005b601f1985168110610c02575083602093600196938796938794601f19811610610be9575b505050811b018755610b93565b015160001960f88460031b161c19169055388080610bdc565b91926020600181928685015181550194019201610bb8565b634e487b7160e01b600052604160045260246000fd5b600584016000526020600020908382015b8183018110610c51575050610a2d565b80610c5e60019254611bc4565b80610c6b575b5001610c41565b601f908181118414610c84575050600081555b8d610c64565b83610ca092846000526020600020920160051c82019101611b79565b60006020812081835555610c7e565b80518051906001600160401b038211610c1a57610cd082610b588854611bc4565b602090601f8311600114610d1c579282600194936020938695600092610d11575b5050600019600383901b1c191690841b1787555b019401910190926109fc565b015190503880610cf1565b908660005260206000209160005b601f1985168110610d74575083602093600196938796938794601f19811610610d5b575b505050811b018755610d05565b015160001960f88460031b161c19169055388080610d4e565b91926020600181928685015181550194019201610d2a565b600484016000526020600020908382015b8183018110610dad5750506109e6565b80610dba60019254611bc4565b80610dc7575b5001610d9d565b601f908181118414610de0575050600081555b8d610dc0565b83610dfc92846000526020600020920160051c82019101611b79565b60006020812081835555610dda565b60016020828293518555019201920191906109b5565b805182546001600160a01b0319166001600160a01b03919091161782556001928301929190910190602001610973565b60405162461bcd60e51b815260206004820152602960248201527f476f7665726e6f7253696d706c653a3a70726f706f73653a20746f6f206d616e6044820152687920616374696f6e7360b81b6064820152608490fd5b60405162461bcd60e51b815260206004820152602d60248201527f476f7665726e6f7253696d706c653a3a70726f706f73653a206d75737420707260448201526c6f7669646520616374696f6e7360981b6064820152608490fd5b60405162461bcd60e51b815260206004820152604560248201527f476f7665726e6f7253696d706c653a3a70726f706f73653a2070726f706f736160448201527f6c2066756e6374696f6e20696e666f726d6174696f6e206172697479206d69736064820152640dac2e8c6d60db1b608482015260a490fd5b905081511486610893565b85518114915061088d565b60405162461bcd60e51b815260206004820152603360248201527f476f7665726e6f7253696d706c653a3a70726f706f73653a206f6e6c7920676f6044820152727665726e6f72732063616e2070726f706f736560681b6064820152608490fd5b8235906001600160401b03821161024a57366043836064350101121561024a576024916020918291611032903690606435018087013590604401611b24565b815201930192905061083e565b83356001600160401b03811161024a57602091611063839260243691870101611b5b565b8152019301926107d7565b8135815260209182019101610776565b3461024a57600036600319011261024a576020600254604051908152f35b3461024a57600036600319011261024a576000546040516001600160a01b039091168152602090f35b3461024a57604036600319011261024a576110de61190a565b6024356001600160401b03811161024a576110fd903690600401611a9b565b60005490916001600160a01b03918281166111b35782916bffffffffffffffffffffffff60a01b93849116911617600055825191600160401b8311610c1a57600193845484865580851061118f575b5060208091019185600052600080516020611fe9833981519152906000935b86851061117457005b8784828883945116858754161786550193019401939161116b565b6111ad9085600080516020611fe98339815191529182019101611b79565b8561114c565b60405162461bcd60e51b815260206004820152603460248201527f476f7665726e6f7253696d706c653a3a696e697469616c697a653a2063616e206044820152736f6e6c7920696e697469616c697a65206f6e636560601b6064820152608490fd5b3461024a57600036600319011261024a576020604051600a8152f35b3461024a57602036600319011261024a5761124a61190a565b61125333611f96565b1561129f57600154600160401b811015610c1a5780600161127792016001556118b7565b81546001600160a01b0393841660039290921b91821b9390911b928316921916919091179055005b60405162461bcd60e51b815260206004820152603a60248201527f476f7665726e6f7253696d706c653a3a61646441646d696e3a206f6e6c79206760448201527f6f7665726e6f72732063616e2061646420676f7665726e6f72730000000000006064820152608490fd5b3461024a57602036600319011261024a5760043561132733611f96565b156114d75761133581611e5c565b600481101561030157600380911461146c57816000528060205260406000209060078201906001918260ff19825416179055816000916002850190808601936005600488019701935b6113b0575b7f789cf55be980739dad1d0699b93b58e806b51c9d96619bfa8fe0a28abaa7b30c602089604051908152a1005b8254811015611467576000546001600160a01b0390811691906113d382866118f2565b905490851b1c166113e482886118f2565b905490851b1c926113f5838b6118f2565b509061140184896118f2565b5094813b1561024a576000809461142e60405198899687958694635f8bac3b60e11b865260048601611d11565b03925af1801561024f5761144d575b6114479150611bb5565b8561137e565b6001600160401b038211610c1a576114479160405261143d565b611383565b60405162461bcd60e51b815260206004820152603760248201527f476f7665726e6f7253696d706c653a3a63616e63656c3a2063616e6e6f74206360448201527f616e63656c2065786563757465642070726f706f73616c0000000000000000006064820152608490fd5b60405162461bcd60e51b815260206004820152603160248201527f476f7665726e6f7253696d706c653a3a63616e63656c3a206f6e6c7920676f76604482015270195c9b9bdc9cc818d85b8818d85b98d95b607a1b6064820152608490fd5b3461024a57602036600319011261024a57611552600435611e5c565b6040516004821015610301576020918152f35b3461024a57602036600319011261024a5760043560005260036020526115d9604060002061160361159860028301611d49565b916115f56115a860038301611da1565b916115e76115c460056115bd60048501611df0565b9301611df0565b93604051978897608089526080890190611920565b90878203602089015261195d565b9085820360408701526119eb565b9083820360608501526119eb565b0390f35b3461024a57602036600319011261024a57602061162a61162561190a565b611f96565b6040519015158152f35b3461024a57602036600319011261024a5761164d61190a565b61165633611f96565b15611793576001600160a01b03908116338114611728576000806001928354925b8381106116c057505061168657005b80156116aa57600019019161169a836118b7565b909182549160031b1b1916905555005b634e487b7160e01b600052603160045260246000fd5b81866116cb836118b7565b90549060031b1c16146116e7575b6116e290611bb5565b611677565b91506116f2826118b7565b50508383106117125761170860001984016118b7565b50849290506116d9565b634e487b7160e01b600052601160045260246000fd5b60405162461bcd60e51b815260206004820152603860248201527f476f7665726e6f7253696d706c653a3a72656d6f766541646d696e3a2063616e60448201527f6e6f742072656d6f76652073656c662061732061646d696e00000000000000006064820152608490fd5b608460405162461bcd60e51b815260206004820152604060248201527f476f7665726e6f7253696d706c653a3a72656d6f766541646d696e3a206f6e6c60448201527f7920676f7665726e6f72732063616e2072656d6f766520676f7665726e6f72736064820152fd5b3461024a57602036600319011261024a5760043560015481101561024a576001600052600080516020611fe983398151915201546040516001600160a01b039091168152602090f35b3461024a57602036600319011261024a5760c090600435600052600360205260ff604060002080549060018060a01b03600182015416600760068301549201549285526020850152604084015281811615156060840152818160081c161515608084015260101c16151560a0820152f35b6001548110156118dc576001600052600080516020611fe98339815191520190600090565b634e487b7160e01b600052603260045260246000fd5b80548210156118dc5760005260206000200190600090565b600435906001600160a01b038216820361024a57565b90815180825260208080930193019160005b828110611940575050505090565b83516001600160a01b031685529381019392810192600101611932565b90815180825260208080930193019160005b82811061197d575050505090565b83518552938101939281019260010161196f565b918091926000905b8282106119b15750116119aa575050565b6000910152565b91508060209183015181860152018291611999565b906020916119df81518092818552858086019101611991565b601f01601f1916010190565b908082519081815260208091019281808460051b8301019501936000915b848310611a195750505050505090565b9091929394958480611a37600193601f198682030187528a516119c6565b9801930193019194939290611a09565b61014081019081106001600160401b03821117610c1a57604052565b90601f801991011681019081106001600160401b03821117610c1a57604052565b6001600160401b038111610c1a5760051b60200190565b81601f8201121561024a57803591611ab283611a84565b92611ac06040519485611a63565b808452602092838086019260051b82010192831161024a578301905b828210611aea575050505090565b81356001600160a01b038116810361024a578152908301908301611adc565b6001600160401b038111610c1a57601f01601f191660200190565b929192611b3082611b09565b91611b3e6040519384611a63565b82948184528183011161024a578281602093846000960137010152565b9080601f8301121561024a57816020611b7693359101611b24565b90565b818110611b84575050565b60008155600101611b79565b91818110611b9d57505050565b611bb39260005260206000209182019101611b79565b565b60001981146117125760010190565b90600182811c92168015611bf4575b6020831014611bde57565b634e487b7160e01b600052602260045260246000fd5b91607f1691611bd3565b9190601f8111611c0d57505050565b611bb3926000526020600020906020601f840160051c83019310611c39575b601f0160051c0190611b79565b9091508190611c2c565b9060009291805491611c5483611bc4565b918282526001938481169081600014611cb65750600114611c76575b50505050565b90919394506000526020928360002092846000945b838610611ca2575050505001019038808080611c70565b805485870183015294019385908201611c8b565b9294505050602093945060ff191683830152151560051b01019038808080611c70565b92611b769492611d039260018060a01b0316855260208501526080604085015260808401906119c6565b9160608184039101526119c6565b92611b769492611d3b9260018060a01b031685526020850152608060408501526080840190611c43565b916060818403910152611c43565b9060405191828154918282526020928383019160005283600020936000905b828210611d7e57505050611bb392500383611a63565b85546001600160a01b031684526001958601958895509381019390910190611d68565b9060405191828154918282526020928383019160005283600020936000905b828210611dd657505050611bb392500383611a63565b855484526001958601958895509381019390910190611dc0565b908154611dfc81611a84565b92604093611e0c85519182611a63565b828152809460208092019260005281600020906000935b858510611e3257505050505050565b60018481928451611e4e81611e47818a611c43565b0382611a63565b815201930194019391611e23565b8060025410611f3e5760005260036020526101206040600020600760405191611e8483611a47565b8054835260018101546001600160a01b03166020840152611ea760028201611d49565b6040840152611eb860038201611da1565b6060840152611ec960048201611df0565b6080840152611eda60058201611df0565b60a0840152600681015460c084015201549060ff82161515908160e082015260ff808460081c161515938461010084015260101c1615159384910152600014611f24575050600190565b15611f2f5750600290565b15611f3957600390565b600090565b60405162461bcd60e51b815260206004820152602a60248201527f476f7665726e6f7253696d706c653a3a73746174653a20696e76616c696420706044820152691c9bdc1bdcd85b081a5960b21b6064820152608490fd5b600180549160005b838110611fae5750505050600090565b611fb7816118b7565b905460039190911b1c6001600160a01b0390811690831614611fe157611fdc90611bb5565b611f9e565b505090509056feb10e2d527612073b26eecdfd717e6a320cf44b4afac2b0732d9fcbe2b7fa0cf6a2646970667358221220db50106c134876c377915810842e114ef13b3111a45ce7d955fd3cafc7b0661264736f6c634300080f0033",
  "immutableReferences": {},
  "source": "// SPDX-License-Identifier: BUSL-1.1\npragma solidity 0.8.15;\n\ninterface TimelockInterface {\n    function queuedTransactions(bytes32 hash) external view returns (bool);\n    function queueTransaction(address target, uint value, string calldata signature, bytes calldata data) external returns (bytes32);\n    function cancelTransaction(address target, uint value, string calldata signature, bytes calldata data) external;\n    function executeTransaction(address target, uint value, string calldata signature, bytes calldata data) external payable returns (bytes memory);\n    function executeTransactions(address[] calldata targets, uint[] calldata values, string[] calldata signatures, bytes[] calldata data) external payable;\n}\n\n/**\n  * GovSimple:\n  *  - A system similar to Compound's Governor{Alpha, Bravo, Charlie} but just for test-net.\n  *  - Instead of allowing voting by tokens, the system is run by a set of admins with unlimited power. Anyone in this set should be able to add or remove other admins (it's test-net).\n  *  - There is no voting - everything passes by will of any admin.\n  *  - The ABI for proposing, queueing, executing should be identical to main-net. The execution should, similarly, go through a simple test-net Timelock.\n  *  - ABI:\n  *    - function propose(address[] memory targets, uint[] memory values, string[] memory signatures, bytes[] memory calldatas, string memory description) public returns (uint)\n  *    - function queue(uint proposalId) public\n  *    - function execute(uint proposalId) public payable\n */\ncontract GovernorSimple {\n\n    /// @notice An event emitted when a new proposal is created\n    event ProposalCreated(uint id, address proposer, address[] targets, uint[] values, string[] signatures, bytes[] calldatas, uint startBlock, string description);\n\n    /// @notice An event emitted when a proposal has been canceled\n    event ProposalCanceled(uint id);\n\n    /// @notice An event emitted when a proposal has been queued in the Timelock\n    event ProposalQueued(uint id);\n\n    /// @notice An event emitted when a proposal has been executed in the Timelock\n    event ProposalExecuted(uint id);\n\n    /// @notice The maximum number of actions that can be included in a proposal\n    uint public constant proposalMaxOperations = 10; // 10 actions\n\n    /// @notice The timelock\n    TimelockInterface public timelock;\n\n    /// @notice The list of admins that can propose, cancel, queue, and execute proposals\n    address[] public admins;\n\n    /// @notice The total number of proposals\n    uint public proposalCount;\n\n    /// @notice The official record of all proposals ever proposed\n    mapping (uint => Proposal) public proposals;\n\n    struct Proposal {\n        /// @notice Unique id for looking up a proposal\n        uint id;\n\n        /// @notice Creator of the proposal\n        address proposer;\n\n        /// @notice the ordered list of target addresses for calls to be made\n        address[] targets;\n\n        /// @notice The ordered list of values (i.e. msg.value) to be passed to the calls to be made\n        uint[] values;\n\n        /// @notice The ordered list of function signatures to be called\n        string[] signatures;\n\n        /// @notice The ordered list of calldata to be passed to each call\n        bytes[] calldatas;\n\n        /// @notice The block at which voting begins: holders must delegate their votes prior to this block\n        uint startBlock;\n\n        /// @notice Flag marking whether the proposal has been canceled\n        bool canceled;\n\n        /// @notice Flag marking whether the proposal has been queued\n        bool queued;\n\n        /// @notice Flag marking whether the proposal has been executed\n        bool executed;\n    }\n\n    /// @notice Possible states that a proposal may be in\n    enum ProposalState {\n        Active,\n        Canceled,\n        Queued,\n        Executed\n    }\n\n    /**\n      * @notice Initialize the initial contract storage\n      * @param timelock_ The address of the Timelock\n      * @param admins_ The admins of governor\n      */\n    function initialize(address timelock_, address[] memory admins_) external {\n        require(address(timelock) == address(0), \"GovernorSimple::initialize: can only initialize once\");\n        timelock = TimelockInterface(timelock_);\n        admins = admins_;\n    }\n\n    /**\n      * @notice Function used to propose a new proposal. Sender must be a governor\n      * @param targets Target addresses for proposal calls\n      * @param values Eth values for proposal calls\n      * @param signatures Function signatures for proposal calls\n      * @param calldatas Calldatas for proposal calls\n      * @param description String description of the proposal\n      * @return Proposal id of new proposal\n      */\n    function propose(address[] memory targets, uint[] memory values, string[] memory signatures, bytes[] memory calldatas, string memory description) public returns (uint) {\n        require(isAdmin(msg.sender), \"GovernorSimple::propose: only governors can propose\");\n        require(targets.length == values.length && targets.length == signatures.length && targets.length == calldatas.length, \"GovernorSimple::propose: proposal function information arity mismatch\");\n        require(targets.length != 0, \"GovernorSimple::propose: must provide actions\");\n        require(targets.length <= proposalMaxOperations, \"GovernorSimple::propose: too many actions\");\n\n        uint startBlock = block.number;\n\n        proposalCount++;\n        Proposal memory newProposal = Proposal({\n            id: proposalCount,\n            proposer: msg.sender,\n            targets: targets,\n            values: values,\n            signatures: signatures,\n            calldatas: calldatas,\n            startBlock: startBlock,\n            canceled: false,\n            queued: false,\n            executed: false\n        });\n\n        proposals[newProposal.id] = newProposal;\n\n        emit ProposalCreated(newProposal.id, msg.sender, targets, values, signatures, calldatas, startBlock, description);\n        return newProposal.id;\n    }\n\n    /**\n      * @notice Queues a proposal of state active\n      * @param proposalId The id of the proposal to queue\n      */\n    function queue(uint proposalId) external {\n        require(isAdmin(msg.sender), \"GovernorSimple::queue: only governors can queue\");\n        require(state(proposalId) == ProposalState.Active, \"GovernorSimple::queue: proposal can only be queued if it is active\");\n\n        Proposal storage proposal = proposals[proposalId];\n        proposal.queued = true;\n        for (uint i = 0; i < proposal.targets.length; i++) {\n            queueOrRevertInternal(proposal.targets[i], proposal.values[i], proposal.signatures[i], proposal.calldatas[i]);\n        }\n        emit ProposalQueued(proposalId);\n    }\n\n    function queueOrRevertInternal(address target, uint value, string memory signature, bytes memory data) internal {\n        require(!timelock.queuedTransactions(keccak256(abi.encode(target, value, signature, data))), \"GovernorSimple::queueOrRevertInternal: identical proposal action already queued at eta\");\n        timelock.queueTransaction(target, value, signature, data);\n    }\n\n    /**\n      * @notice Executes a queued proposal if eta has passed\n      * @param proposalId The id of the proposal to execute\n      */\n    function execute(uint proposalId) external payable {\n        require(isAdmin(msg.sender), \"GovernorSimple::execute: only governors can execute\");\n        require(state(proposalId) == ProposalState.Queued, \"GovernorSimple::execute: proposal can only be executed if it is queued\");\n\n        Proposal storage proposal = proposals[proposalId];\n        proposal.queued = false;\n        proposal.executed = true;\n        for (uint i = 0; i < proposal.targets.length; i++) {\n            timelock.executeTransaction{ value:proposal.values[i] }(proposal.targets[i], proposal.values[i], proposal.signatures[i], proposal.calldatas[i]);\n        }\n        emit ProposalExecuted(proposalId);\n    }\n\n    /**\n      * @notice Cancels a proposal only if sender is a governor\n      * @param proposalId The id of the proposal to cancel\n      */\n    function cancel(uint proposalId) external {\n        require(isAdmin(msg.sender), \"GovernorSimple::cancel: only governors can cancel\");\n        require(state(proposalId) != ProposalState.Executed, \"GovernorSimple::cancel: cannot cancel executed proposal\");\n\n        Proposal storage proposal = proposals[proposalId];\n        proposal.canceled = true;\n        for (uint i = 0; i < proposal.targets.length; i++) {\n            timelock.cancelTransaction(proposal.targets[i], proposal.values[i], proposal.signatures[i], proposal.calldatas[i]);\n        }\n        emit ProposalCanceled(proposalId);\n    }\n\n    /**\n      * @notice Gets actions of a proposal\n      * @param proposalId the id of the proposal\n      */\n    function getActions(uint proposalId) external view returns (address[] memory targets, uint[] memory values, string[] memory signatures, bytes[] memory calldatas) {\n        Proposal storage p = proposals[proposalId];\n        return (p.targets, p.values, p.signatures, p.calldatas);\n    }\n\n    /**\n      * @notice Gets the state of a proposal\n      * @param proposalId The id of the proposal\n      * @return Proposal state\n      */\n    function state(uint proposalId) public view returns (ProposalState) {\n        require(proposalCount >= proposalId, \"GovernorSimple::state: invalid proposal id\");\n        Proposal memory proposal = proposals[proposalId];\n        if (proposal.canceled) {\n            return ProposalState.Canceled;\n        } else if (proposal.queued) {\n            return ProposalState.Queued;\n        } else if (proposal.executed) {\n            return ProposalState.Executed;\n        } else {\n            return ProposalState.Active;\n        }\n    }\n\n    /// @notice Checks whether an account is a governor or not\n    function isAdmin(address account) public view returns (bool) {\n        for (uint i = 0; i < admins.length; i++) {\n            if (admins[i] == account) {\n                return true;\n            }\n        }\n        return false;\n    }\n\n    /**\n     * @notice Add new admin\n     * @param newAdminAddress Address of admin to add\n     */\n    function addAdmin(address newAdminAddress) external {\n        require(isAdmin(msg.sender), \"GovernorSimple::addAdmin: only governors can add governors\");\n        admins.push(newAdminAddress);\n    }\n\n    /**\n     * @notice Remove admin from admin array\n     * @param adminAddress Address of admin to remove\n     */\n    function removeAdmin(address adminAddress) external {\n        require(isAdmin(msg.sender), \"GovernorSimple::removeAdmin: only governors can remove governors\");\n        require(msg.sender != adminAddress, \"GovernorSimple::removeAdmin: cannot remove self as admin\"); // ensure there is always one admin\n\n        bool addressFound = false;\n\n        for (uint i = 0; i < admins.length; i++) {\n            if (admins[i] == adminAddress) {\n                admins[i] == admins[admins.length - 1];\n                addressFound = true;\n            }\n        }\n        if (addressFound) {\n            admins.pop();\n        }\n    }\n}",
  "sourcePath": "/home/stephensb/sb-labs/solidity-contracts/contracts/comet/contracts/test/GovernorSimple.sol",
  "compiler": {
    "name": "solc",
    "version": "0.8.15+commit.e14f2714.Emscripten.clang"
  },
  "schemaVersion": "3.4.12",
  "updatedAt": "2023-11-30T22:41:29.730Z",
  "devdoc": {
    "kind": "dev",
    "methods": {
      "addAdmin(address)": {
        "params": {
          "newAdminAddress": "Address of admin to add"
        }
      },
      "cancel(uint256)": {
        "params": {
          "proposalId": "The id of the proposal to cancel"
        }
      },
      "execute(uint256)": {
        "params": {
          "proposalId": "The id of the proposal to execute"
        }
      },
      "getActions(uint256)": {
        "params": {
          "proposalId": "the id of the proposal"
        }
      },
      "initialize(address,address[])": {
        "params": {
          "admins_": "The admins of governor",
          "timelock_": "The address of the Timelock"
        }
      },
      "propose(address[],uint256[],string[],bytes[],string)": {
        "params": {
          "calldatas": "Calldatas for proposal calls",
          "description": "String description of the proposal",
          "signatures": "Function signatures for proposal calls",
          "targets": "Target addresses for proposal calls",
          "values": "Eth values for proposal calls"
        },
        "returns": {
          "_0": "Proposal id of new proposal"
        }
      },
      "queue(uint256)": {
        "params": {
          "proposalId": "The id of the proposal to queue"
        }
      },
      "removeAdmin(address)": {
        "params": {
          "adminAddress": "Address of admin to remove"
        }
      },
      "state(uint256)": {
        "params": {
          "proposalId": "The id of the proposal"
        },
        "returns": {
          "_0": "Proposal state"
        }
      }
    },
    "version": 1
  },
  "userdoc": {
    "events": {
      "ProposalCanceled(uint256)": {
        "notice": "An event emitted when a proposal has been canceled"
      },
      "ProposalCreated(uint256,address,address[],uint256[],string[],bytes[],uint256,string)": {
        "notice": "An event emitted when a new proposal is created"
      },
      "ProposalExecuted(uint256)": {
        "notice": "An event emitted when a proposal has been executed in the Timelock"
      },
      "ProposalQueued(uint256)": {
        "notice": "An event emitted when a proposal has been queued in the Timelock"
      }
    },
    "kind": "user",
    "methods": {
      "addAdmin(address)": {
        "notice": "Add new admin"
      },
      "admins(uint256)": {
        "notice": "The list of admins that can propose, cancel, queue, and execute proposals"
      },
      "cancel(uint256)": {
        "notice": "Cancels a proposal only if sender is a governor"
      },
      "execute(uint256)": {
        "notice": "Executes a queued proposal if eta has passed"
      },
      "getActions(uint256)": {
        "notice": "Gets actions of a proposal"
      },
      "initialize(address,address[])": {
        "notice": "Initialize the initial contract storage"
      },
      "isAdmin(address)": {
        "notice": "Checks whether an account is a governor or not"
      },
      "proposalCount()": {
        "notice": "The total number of proposals"
      },
      "proposalMaxOperations()": {
        "notice": "The maximum number of actions that can be included in a proposal"
      },
      "proposals(uint256)": {
        "notice": "The official record of all proposals ever proposed"
      },
      "propose(address[],uint256[],string[],bytes[],string)": {
        "notice": "Function used to propose a new proposal. Sender must be a governor"
      },
      "queue(uint256)": {
        "notice": "Queues a proposal of state active"
      },
      "removeAdmin(address)": {
        "notice": "Remove admin from admin array"
      },
      "state(uint256)": {
        "notice": "Gets the state of a proposal"
      },
      "timelock()": {
        "notice": "The timelock"
      }
    },
    "notice": "GovSimple:  - A system similar to Compound's Governor{Alpha, Bravo, Charlie} but just for test-net.  - Instead of allowing voting by tokens, the system is run by a set of admins with unlimited power. Anyone in this set should be able to add or remove other admins (it's test-net).  - There is no voting - everything passes by will of any admin.  - The ABI for proposing, queueing, executing should be identical to main-net. The execution should, similarly, go through a simple test-net Timelock.  - ABI:    - function propose(address[] memory targets, uint[] memory values, string[] memory signatures, bytes[] memory calldatas, string memory description) public returns (uint)    - function queue(uint proposalId) public    - function execute(uint proposalId) public payable",
    "version": 1
  }
}