{
  "contractName": "Hooks",
  "abi": [
    {
      "inputs": [
        {
          "internalType": "address",
          "name": "hooks",
          "type": "address"
        }
      ],
      "name": "HookAddressNotValid",
      "type": "error"
    },
    {
      "inputs": [],
      "name": "InvalidHookResponse",
      "type": "error"
    },
    {
      "inputs": [],
      "name": "NO_OP_SELECTOR",
      "outputs": [
        {
          "internalType": "bytes4",
          "name": "",
          "type": "bytes4"
        }
      ],
      "stateMutability": "view",
      "type": "function"
    }
  ],
  "bytecode": "0x6080806040523460175760bb9081601c823930815050f35b5f80fdfe60806004361015600d575f80fd5b5f3560e01c636240e10914601f575f80fd5b5f36600319011260815760208101906304e6f4f760e41b825260048152604081019080821067ffffffffffffffff831117606d576040829052519091206001600160e01b0319168152602090f35b634e487b7160e01b5f52604160045260245ffd5b5f80fdfea2646970667358221220a47c69d946c5da6ba20b0ed3ec8a8e63b185b63c406941d7982c3ee4bb280fb764736f6c634300081c0033",
  "immutableReferences": {},
  "source": "// SPDX-License-Identifier: MIT\npragma solidity ^0.8.20;\n\nimport {IHooks} from \"../interfaces/IHooks.sol\";\nimport {FeeLibrary} from \"../libraries/FeeLibrary.sol\";\n\n/// @notice V4 decides whether to invoke specific hooks by inspecting the leading bits of the address that\n/// the hooks contract is deployed to.\n/// For example, a hooks contract deployed to address: 0x9000000000000000000000000000000000000000\n/// has leading bits '1001' which would cause the 'before initialize' and 'after modify position' hooks to be used.\nlibrary Hooks {\n    using FeeLibrary for uint24;\n\n    uint256 internal constant BEFORE_INITIALIZE_FLAG = 1 << 159;\n    uint256 internal constant AFTER_INITIALIZE_FLAG = 1 << 158;\n    uint256 internal constant BEFORE_MODIFY_POSITION_FLAG = 1 << 157;\n    uint256 internal constant AFTER_MODIFY_POSITION_FLAG = 1 << 156;\n    uint256 internal constant BEFORE_SWAP_FLAG = 1 << 155;\n    uint256 internal constant AFTER_SWAP_FLAG = 1 << 154;\n    uint256 internal constant BEFORE_DONATE_FLAG = 1 << 153;\n    uint256 internal constant AFTER_DONATE_FLAG = 1 << 152;\n    uint256 internal constant NO_OP_FLAG = 1 << 151;\n\n    bytes4 public constant NO_OP_SELECTOR = bytes4(keccak256(abi.encodePacked(\"NoOp\")));\n\n    struct Calls {\n        bool beforeInitialize;\n        bool afterInitialize;\n        bool beforeModifyPosition;\n        bool afterModifyPosition;\n        bool beforeSwap;\n        bool afterSwap;\n        bool beforeDonate;\n        bool afterDonate;\n        bool noOp;\n    }\n\n    /// @notice Thrown if the address will not lead to the specified hook calls being called\n    /// @param hooks The address of the hooks contract\n    error HookAddressNotValid(address hooks);\n\n    /// @notice Hook did not return its selector\n    error InvalidHookResponse();\n\n    /// @notice Utility function intended to be used in hook constructors to ensure\n    /// the deployed hooks address causes the intended hooks to be called\n    /// @param calls The hooks that are intended to be called\n    /// @dev calls param is memory as the function will be called from constructors\n    function validateHookAddress(IHooks self, Calls memory calls) internal pure {\n        if (\n            calls.beforeInitialize != shouldCallBeforeInitialize(self)\n                || calls.afterInitialize != shouldCallAfterInitialize(self)\n                || calls.beforeModifyPosition != shouldCallBeforeModifyPosition(self)\n                || calls.afterModifyPosition != shouldCallAfterModifyPosition(self)\n                || calls.beforeSwap != shouldCallBeforeSwap(self) || calls.afterSwap != shouldCallAfterSwap(self)\n                || calls.beforeDonate != shouldCallBeforeDonate(self) || calls.afterDonate != shouldCallAfterDonate(self)\n                || calls.noOp != hasPermissionToNoOp(self)\n        ) {\n            revert HookAddressNotValid(address(self));\n        }\n    }\n\n    /// @notice Ensures that the hook address includes at least one hook flag or dynamic fees, or is the 0 address\n    /// @param hook The hook to verify\n    function isValidHookAddress(IHooks hook, uint24 fee) internal pure returns (bool) {\n        // if NoOp is allowed, at least one of beforeModifyPosition, beforeSwap and beforeDonate should be allowed\n        if (\n            hasPermissionToNoOp(hook) && !shouldCallBeforeModifyPosition(hook) && !shouldCallBeforeSwap(hook)\n                && !shouldCallBeforeDonate(hook)\n        ) {\n            return false;\n        }\n        // If there is no hook contract set, then fee cannot be dynamic and there cannot be a hook fee on swap or withdrawal.\n        return address(hook) == address(0)\n            ? !fee.isDynamicFee() && !fee.hasHookSwapFee() && !fee.hasHookWithdrawFee()\n            : (\n                uint160(address(hook)) >= AFTER_DONATE_FLAG || fee.isDynamicFee() || fee.hasHookSwapFee()\n                    || fee.hasHookWithdrawFee()\n            );\n    }\n\n    function shouldCallBeforeInitialize(IHooks self) internal pure returns (bool) {\n        return uint256(uint160(address(self))) & BEFORE_INITIALIZE_FLAG != 0;\n    }\n\n    function shouldCallAfterInitialize(IHooks self) internal pure returns (bool) {\n        return uint256(uint160(address(self))) & AFTER_INITIALIZE_FLAG != 0;\n    }\n\n    function shouldCallBeforeModifyPosition(IHooks self) internal pure returns (bool) {\n        return uint256(uint160(address(self))) & BEFORE_MODIFY_POSITION_FLAG != 0;\n    }\n\n    function shouldCallAfterModifyPosition(IHooks self) internal pure returns (bool) {\n        return uint256(uint160(address(self))) & AFTER_MODIFY_POSITION_FLAG != 0;\n    }\n\n    function shouldCallBeforeSwap(IHooks self) internal pure returns (bool) {\n        return uint256(uint160(address(self))) & BEFORE_SWAP_FLAG != 0;\n    }\n\n    function shouldCallAfterSwap(IHooks self) internal pure returns (bool) {\n        return uint256(uint160(address(self))) & AFTER_SWAP_FLAG != 0;\n    }\n\n    function shouldCallBeforeDonate(IHooks self) internal pure returns (bool) {\n        return uint256(uint160(address(self))) & BEFORE_DONATE_FLAG != 0;\n    }\n\n    function shouldCallAfterDonate(IHooks self) internal pure returns (bool) {\n        return uint256(uint160(address(self))) & AFTER_DONATE_FLAG != 0;\n    }\n\n    function hasPermissionToNoOp(IHooks self) internal pure returns (bool) {\n        return uint256(uint160(address(self))) & NO_OP_FLAG != 0;\n    }\n\n    function isValidNoOpCall(IHooks self, bytes4 selector) internal pure returns (bool) {\n        return hasPermissionToNoOp(self) && selector == NO_OP_SELECTOR;\n    }\n}\n",
  "sourcePath": "/home/stephensb/sb-labs/solidity-contracts/contracts/v4-core/src/libraries/Hooks.sol",
  "compiler": {
    "name": "solc",
    "version": "0.8.28+commit.7893614a.Emscripten.clang"
  },
  "schemaVersion": "3.4.12",
  "updatedAt": "2024-12-18T07:36:00.863Z",
  "devdoc": {
    "errors": {
      "HookAddressNotValid(address)": [
        {
          "params": {
            "hooks": "The address of the hooks contract"
          }
        }
      ]
    },
    "kind": "dev",
    "methods": {},
    "version": 1
  },
  "userdoc": {
    "errors": {
      "HookAddressNotValid(address)": [
        {
          "notice": "Thrown if the address will not lead to the specified hook calls being called"
        }
      ],
      "InvalidHookResponse()": [
        {
          "notice": "Hook did not return its selector"
        }
      ]
    },
    "kind": "user",
    "methods": {},
    "notice": "V4 decides whether to invoke specific hooks by inspecting the leading bits of the address that the hooks contract is deployed to. For example, a hooks contract deployed to address: 0x9000000000000000000000000000000000000000 has leading bits '1001' which would cause the 'before initialize' and 'after modify position' hooks to be used.",
    "version": 1
  }
}