{
  "contractName": "LimitOrder",
  "abi": [
    {
      "inputs": [
        {
          "internalType": "contract IPoolManager",
          "name": "_poolManager",
          "type": "address"
        }
      ],
      "stateMutability": "nonpayable",
      "type": "constructor"
    },
    {
      "inputs": [],
      "name": "CrossedRange",
      "type": "error"
    },
    {
      "inputs": [],
      "name": "Filled",
      "type": "error"
    },
    {
      "inputs": [
        {
          "internalType": "address",
          "name": "hooks",
          "type": "address"
        }
      ],
      "name": "HookAddressNotValid",
      "type": "error"
    },
    {
      "inputs": [],
      "name": "HookNotImplemented",
      "type": "error"
    },
    {
      "inputs": [],
      "name": "InRange",
      "type": "error"
    },
    {
      "inputs": [],
      "name": "InvalidPool",
      "type": "error"
    },
    {
      "inputs": [],
      "name": "LockFailure",
      "type": "error"
    },
    {
      "inputs": [],
      "name": "NotFilled",
      "type": "error"
    },
    {
      "inputs": [],
      "name": "NotPoolManager",
      "type": "error"
    },
    {
      "inputs": [],
      "name": "NotPoolManagerToken",
      "type": "error"
    },
    {
      "inputs": [],
      "name": "NotSelf",
      "type": "error"
    },
    {
      "inputs": [],
      "name": "ZeroLiquidity",
      "type": "error"
    },
    {
      "anonymous": false,
      "inputs": [
        {
          "indexed": true,
          "internalType": "Epoch",
          "name": "epoch",
          "type": "uint232"
        },
        {
          "components": [
            {
              "internalType": "Currency",
              "name": "currency0",
              "type": "address"
            },
            {
              "internalType": "Currency",
              "name": "currency1",
              "type": "address"
            },
            {
              "internalType": "uint24",
              "name": "fee",
              "type": "uint24"
            },
            {
              "internalType": "int24",
              "name": "tickSpacing",
              "type": "int24"
            },
            {
              "internalType": "contract IHooks",
              "name": "hooks",
              "type": "address"
            }
          ],
          "indexed": false,
          "internalType": "struct PoolKey",
          "name": "key",
          "type": "tuple"
        },
        {
          "indexed": false,
          "internalType": "int24",
          "name": "tickLower",
          "type": "int24"
        },
        {
          "indexed": false,
          "internalType": "bool",
          "name": "zeroForOne",
          "type": "bool"
        }
      ],
      "name": "Fill",
      "type": "event"
    },
    {
      "anonymous": false,
      "inputs": [
        {
          "indexed": true,
          "internalType": "address",
          "name": "owner",
          "type": "address"
        },
        {
          "indexed": true,
          "internalType": "Epoch",
          "name": "epoch",
          "type": "uint232"
        },
        {
          "components": [
            {
              "internalType": "Currency",
              "name": "currency0",
              "type": "address"
            },
            {
              "internalType": "Currency",
              "name": "currency1",
              "type": "address"
            },
            {
              "internalType": "uint24",
              "name": "fee",
              "type": "uint24"
            },
            {
              "internalType": "int24",
              "name": "tickSpacing",
              "type": "int24"
            },
            {
              "internalType": "contract IHooks",
              "name": "hooks",
              "type": "address"
            }
          ],
          "indexed": false,
          "internalType": "struct PoolKey",
          "name": "key",
          "type": "tuple"
        },
        {
          "indexed": false,
          "internalType": "int24",
          "name": "tickLower",
          "type": "int24"
        },
        {
          "indexed": false,
          "internalType": "bool",
          "name": "zeroForOne",
          "type": "bool"
        },
        {
          "indexed": false,
          "internalType": "uint128",
          "name": "liquidity",
          "type": "uint128"
        }
      ],
      "name": "Kill",
      "type": "event"
    },
    {
      "anonymous": false,
      "inputs": [
        {
          "indexed": true,
          "internalType": "address",
          "name": "owner",
          "type": "address"
        },
        {
          "indexed": true,
          "internalType": "Epoch",
          "name": "epoch",
          "type": "uint232"
        },
        {
          "components": [
            {
              "internalType": "Currency",
              "name": "currency0",
              "type": "address"
            },
            {
              "internalType": "Currency",
              "name": "currency1",
              "type": "address"
            },
            {
              "internalType": "uint24",
              "name": "fee",
              "type": "uint24"
            },
            {
              "internalType": "int24",
              "name": "tickSpacing",
              "type": "int24"
            },
            {
              "internalType": "contract IHooks",
              "name": "hooks",
              "type": "address"
            }
          ],
          "indexed": false,
          "internalType": "struct PoolKey",
          "name": "key",
          "type": "tuple"
        },
        {
          "indexed": false,
          "internalType": "int24",
          "name": "tickLower",
          "type": "int24"
        },
        {
          "indexed": false,
          "internalType": "bool",
          "name": "zeroForOne",
          "type": "bool"
        },
        {
          "indexed": false,
          "internalType": "uint128",
          "name": "liquidity",
          "type": "uint128"
        }
      ],
      "name": "Place",
      "type": "event"
    },
    {
      "anonymous": false,
      "inputs": [
        {
          "indexed": true,
          "internalType": "address",
          "name": "owner",
          "type": "address"
        },
        {
          "indexed": true,
          "internalType": "Epoch",
          "name": "epoch",
          "type": "uint232"
        },
        {
          "indexed": false,
          "internalType": "uint128",
          "name": "liquidity",
          "type": "uint128"
        }
      ],
      "name": "Withdraw",
      "type": "event"
    },
    {
      "inputs": [
        {
          "internalType": "address",
          "name": "",
          "type": "address"
        },
        {
          "components": [
            {
              "internalType": "Currency",
              "name": "currency0",
              "type": "address"
            },
            {
              "internalType": "Currency",
              "name": "currency1",
              "type": "address"
            },
            {
              "internalType": "uint24",
              "name": "fee",
              "type": "uint24"
            },
            {
              "internalType": "int24",
              "name": "tickSpacing",
              "type": "int24"
            },
            {
              "internalType": "contract IHooks",
              "name": "hooks",
              "type": "address"
            }
          ],
          "internalType": "struct PoolKey",
          "name": "",
          "type": "tuple"
        },
        {
          "internalType": "uint256",
          "name": "",
          "type": "uint256"
        },
        {
          "internalType": "uint256",
          "name": "",
          "type": "uint256"
        },
        {
          "internalType": "bytes",
          "name": "",
          "type": "bytes"
        }
      ],
      "name": "afterDonate",
      "outputs": [
        {
          "internalType": "bytes4",
          "name": "",
          "type": "bytes4"
        }
      ],
      "stateMutability": "nonpayable",
      "type": "function"
    },
    {
      "inputs": [
        {
          "internalType": "address",
          "name": "",
          "type": "address"
        },
        {
          "components": [
            {
              "internalType": "Currency",
              "name": "currency0",
              "type": "address"
            },
            {
              "internalType": "Currency",
              "name": "currency1",
              "type": "address"
            },
            {
              "internalType": "uint24",
              "name": "fee",
              "type": "uint24"
            },
            {
              "internalType": "int24",
              "name": "tickSpacing",
              "type": "int24"
            },
            {
              "internalType": "contract IHooks",
              "name": "hooks",
              "type": "address"
            }
          ],
          "internalType": "struct PoolKey",
          "name": "",
          "type": "tuple"
        },
        {
          "components": [
            {
              "internalType": "int24",
              "name": "tickLower",
              "type": "int24"
            },
            {
              "internalType": "int24",
              "name": "tickUpper",
              "type": "int24"
            },
            {
              "internalType": "int256",
              "name": "liquidityDelta",
              "type": "int256"
            }
          ],
          "internalType": "struct IPoolManager.ModifyPositionParams",
          "name": "",
          "type": "tuple"
        },
        {
          "internalType": "BalanceDelta",
          "name": "",
          "type": "int256"
        },
        {
          "internalType": "bytes",
          "name": "",
          "type": "bytes"
        }
      ],
      "name": "afterModifyPosition",
      "outputs": [
        {
          "internalType": "bytes4",
          "name": "",
          "type": "bytes4"
        }
      ],
      "stateMutability": "nonpayable",
      "type": "function"
    },
    {
      "inputs": [
        {
          "internalType": "address",
          "name": "",
          "type": "address"
        },
        {
          "components": [
            {
              "internalType": "Currency",
              "name": "currency0",
              "type": "address"
            },
            {
              "internalType": "Currency",
              "name": "currency1",
              "type": "address"
            },
            {
              "internalType": "uint24",
              "name": "fee",
              "type": "uint24"
            },
            {
              "internalType": "int24",
              "name": "tickSpacing",
              "type": "int24"
            },
            {
              "internalType": "contract IHooks",
              "name": "hooks",
              "type": "address"
            }
          ],
          "internalType": "struct PoolKey",
          "name": "",
          "type": "tuple"
        },
        {
          "internalType": "uint256",
          "name": "",
          "type": "uint256"
        },
        {
          "internalType": "uint256",
          "name": "",
          "type": "uint256"
        },
        {
          "internalType": "bytes",
          "name": "",
          "type": "bytes"
        }
      ],
      "name": "beforeDonate",
      "outputs": [
        {
          "internalType": "bytes4",
          "name": "",
          "type": "bytes4"
        }
      ],
      "stateMutability": "nonpayable",
      "type": "function"
    },
    {
      "inputs": [
        {
          "internalType": "address",
          "name": "",
          "type": "address"
        },
        {
          "components": [
            {
              "internalType": "Currency",
              "name": "currency0",
              "type": "address"
            },
            {
              "internalType": "Currency",
              "name": "currency1",
              "type": "address"
            },
            {
              "internalType": "uint24",
              "name": "fee",
              "type": "uint24"
            },
            {
              "internalType": "int24",
              "name": "tickSpacing",
              "type": "int24"
            },
            {
              "internalType": "contract IHooks",
              "name": "hooks",
              "type": "address"
            }
          ],
          "internalType": "struct PoolKey",
          "name": "",
          "type": "tuple"
        },
        {
          "internalType": "uint160",
          "name": "",
          "type": "uint160"
        },
        {
          "internalType": "bytes",
          "name": "",
          "type": "bytes"
        }
      ],
      "name": "beforeInitialize",
      "outputs": [
        {
          "internalType": "bytes4",
          "name": "",
          "type": "bytes4"
        }
      ],
      "stateMutability": "nonpayable",
      "type": "function"
    },
    {
      "inputs": [
        {
          "internalType": "address",
          "name": "",
          "type": "address"
        },
        {
          "components": [
            {
              "internalType": "Currency",
              "name": "currency0",
              "type": "address"
            },
            {
              "internalType": "Currency",
              "name": "currency1",
              "type": "address"
            },
            {
              "internalType": "uint24",
              "name": "fee",
              "type": "uint24"
            },
            {
              "internalType": "int24",
              "name": "tickSpacing",
              "type": "int24"
            },
            {
              "internalType": "contract IHooks",
              "name": "hooks",
              "type": "address"
            }
          ],
          "internalType": "struct PoolKey",
          "name": "",
          "type": "tuple"
        },
        {
          "components": [
            {
              "internalType": "int24",
              "name": "tickLower",
              "type": "int24"
            },
            {
              "internalType": "int24",
              "name": "tickUpper",
              "type": "int24"
            },
            {
              "internalType": "int256",
              "name": "liquidityDelta",
              "type": "int256"
            }
          ],
          "internalType": "struct IPoolManager.ModifyPositionParams",
          "name": "",
          "type": "tuple"
        },
        {
          "internalType": "bytes",
          "name": "",
          "type": "bytes"
        }
      ],
      "name": "beforeModifyPosition",
      "outputs": [
        {
          "internalType": "bytes4",
          "name": "",
          "type": "bytes4"
        }
      ],
      "stateMutability": "nonpayable",
      "type": "function"
    },
    {
      "inputs": [
        {
          "internalType": "address",
          "name": "",
          "type": "address"
        },
        {
          "components": [
            {
              "internalType": "Currency",
              "name": "currency0",
              "type": "address"
            },
            {
              "internalType": "Currency",
              "name": "currency1",
              "type": "address"
            },
            {
              "internalType": "uint24",
              "name": "fee",
              "type": "uint24"
            },
            {
              "internalType": "int24",
              "name": "tickSpacing",
              "type": "int24"
            },
            {
              "internalType": "contract IHooks",
              "name": "hooks",
              "type": "address"
            }
          ],
          "internalType": "struct PoolKey",
          "name": "",
          "type": "tuple"
        },
        {
          "components": [
            {
              "internalType": "bool",
              "name": "zeroForOne",
              "type": "bool"
            },
            {
              "internalType": "int256",
              "name": "amountSpecified",
              "type": "int256"
            },
            {
              "internalType": "uint160",
              "name": "sqrtPriceLimitX96",
              "type": "uint160"
            }
          ],
          "internalType": "struct IPoolManager.SwapParams",
          "name": "",
          "type": "tuple"
        },
        {
          "internalType": "bytes",
          "name": "",
          "type": "bytes"
        }
      ],
      "name": "beforeSwap",
      "outputs": [
        {
          "internalType": "bytes4",
          "name": "",
          "type": "bytes4"
        }
      ],
      "stateMutability": "nonpayable",
      "type": "function"
    },
    {
      "inputs": [
        {
          "internalType": "Epoch",
          "name": "",
          "type": "uint232"
        }
      ],
      "name": "epochInfos",
      "outputs": [
        {
          "internalType": "bool",
          "name": "filled",
          "type": "bool"
        },
        {
          "internalType": "Currency",
          "name": "currency0",
          "type": "address"
        },
        {
          "internalType": "Currency",
          "name": "currency1",
          "type": "address"
        },
        {
          "internalType": "uint256",
          "name": "token0Total",
          "type": "uint256"
        },
        {
          "internalType": "uint256",
          "name": "token1Total",
          "type": "uint256"
        },
        {
          "internalType": "uint128",
          "name": "liquidityTotal",
          "type": "uint128"
        }
      ],
      "stateMutability": "view",
      "type": "function"
    },
    {
      "inputs": [],
      "name": "epochNext",
      "outputs": [
        {
          "internalType": "Epoch",
          "name": "",
          "type": "uint232"
        }
      ],
      "stateMutability": "view",
      "type": "function"
    },
    {
      "inputs": [
        {
          "internalType": "bytes32",
          "name": "",
          "type": "bytes32"
        }
      ],
      "name": "epochs",
      "outputs": [
        {
          "internalType": "Epoch",
          "name": "",
          "type": "uint232"
        }
      ],
      "stateMutability": "view",
      "type": "function"
    },
    {
      "inputs": [
        {
          "internalType": "bytes",
          "name": "data",
          "type": "bytes"
        }
      ],
      "name": "lockAcquired",
      "outputs": [
        {
          "internalType": "bytes",
          "name": "",
          "type": "bytes"
        }
      ],
      "stateMutability": "nonpayable",
      "type": "function"
    },
    {
      "inputs": [],
      "name": "poolManager",
      "outputs": [
        {
          "internalType": "contract IPoolManager",
          "name": "",
          "type": "address"
        }
      ],
      "stateMutability": "view",
      "type": "function"
    },
    {
      "inputs": [
        {
          "internalType": "PoolId",
          "name": "",
          "type": "bytes32"
        }
      ],
      "name": "tickLowerLasts",
      "outputs": [
        {
          "internalType": "int24",
          "name": "",
          "type": "int24"
        }
      ],
      "stateMutability": "view",
      "type": "function"
    },
    {
      "inputs": [],
      "name": "getHooksCalls",
      "outputs": [
        {
          "components": [
            {
              "internalType": "bool",
              "name": "beforeInitialize",
              "type": "bool"
            },
            {
              "internalType": "bool",
              "name": "afterInitialize",
              "type": "bool"
            },
            {
              "internalType": "bool",
              "name": "beforeModifyPosition",
              "type": "bool"
            },
            {
              "internalType": "bool",
              "name": "afterModifyPosition",
              "type": "bool"
            },
            {
              "internalType": "bool",
              "name": "beforeSwap",
              "type": "bool"
            },
            {
              "internalType": "bool",
              "name": "afterSwap",
              "type": "bool"
            },
            {
              "internalType": "bool",
              "name": "beforeDonate",
              "type": "bool"
            },
            {
              "internalType": "bool",
              "name": "afterDonate",
              "type": "bool"
            },
            {
              "internalType": "bool",
              "name": "noOp",
              "type": "bool"
            }
          ],
          "internalType": "struct Hooks.Calls",
          "name": "",
          "type": "tuple"
        }
      ],
      "stateMutability": "pure",
      "type": "function"
    },
    {
      "inputs": [
        {
          "internalType": "PoolId",
          "name": "poolId",
          "type": "bytes32"
        }
      ],
      "name": "getTickLowerLast",
      "outputs": [
        {
          "internalType": "int24",
          "name": "",
          "type": "int24"
        }
      ],
      "stateMutability": "view",
      "type": "function"
    },
    {
      "inputs": [
        {
          "components": [
            {
              "internalType": "Currency",
              "name": "currency0",
              "type": "address"
            },
            {
              "internalType": "Currency",
              "name": "currency1",
              "type": "address"
            },
            {
              "internalType": "uint24",
              "name": "fee",
              "type": "uint24"
            },
            {
              "internalType": "int24",
              "name": "tickSpacing",
              "type": "int24"
            },
            {
              "internalType": "contract IHooks",
              "name": "hooks",
              "type": "address"
            }
          ],
          "internalType": "struct PoolKey",
          "name": "key",
          "type": "tuple"
        },
        {
          "internalType": "int24",
          "name": "tickLower",
          "type": "int24"
        },
        {
          "internalType": "bool",
          "name": "zeroForOne",
          "type": "bool"
        }
      ],
      "name": "getEpoch",
      "outputs": [
        {
          "internalType": "Epoch",
          "name": "",
          "type": "uint232"
        }
      ],
      "stateMutability": "view",
      "type": "function"
    },
    {
      "inputs": [
        {
          "internalType": "Epoch",
          "name": "epoch",
          "type": "uint232"
        },
        {
          "internalType": "address",
          "name": "owner",
          "type": "address"
        }
      ],
      "name": "getEpochLiquidity",
      "outputs": [
        {
          "internalType": "uint256",
          "name": "",
          "type": "uint256"
        }
      ],
      "stateMutability": "view",
      "type": "function"
    },
    {
      "inputs": [
        {
          "internalType": "address",
          "name": "",
          "type": "address"
        },
        {
          "components": [
            {
              "internalType": "Currency",
              "name": "currency0",
              "type": "address"
            },
            {
              "internalType": "Currency",
              "name": "currency1",
              "type": "address"
            },
            {
              "internalType": "uint24",
              "name": "fee",
              "type": "uint24"
            },
            {
              "internalType": "int24",
              "name": "tickSpacing",
              "type": "int24"
            },
            {
              "internalType": "contract IHooks",
              "name": "hooks",
              "type": "address"
            }
          ],
          "internalType": "struct PoolKey",
          "name": "key",
          "type": "tuple"
        },
        {
          "internalType": "uint160",
          "name": "",
          "type": "uint160"
        },
        {
          "internalType": "int24",
          "name": "tick",
          "type": "int24"
        },
        {
          "internalType": "bytes",
          "name": "",
          "type": "bytes"
        }
      ],
      "name": "afterInitialize",
      "outputs": [
        {
          "internalType": "bytes4",
          "name": "",
          "type": "bytes4"
        }
      ],
      "stateMutability": "nonpayable",
      "type": "function"
    },
    {
      "inputs": [
        {
          "internalType": "address",
          "name": "",
          "type": "address"
        },
        {
          "components": [
            {
              "internalType": "Currency",
              "name": "currency0",
              "type": "address"
            },
            {
              "internalType": "Currency",
              "name": "currency1",
              "type": "address"
            },
            {
              "internalType": "uint24",
              "name": "fee",
              "type": "uint24"
            },
            {
              "internalType": "int24",
              "name": "tickSpacing",
              "type": "int24"
            },
            {
              "internalType": "contract IHooks",
              "name": "hooks",
              "type": "address"
            }
          ],
          "internalType": "struct PoolKey",
          "name": "key",
          "type": "tuple"
        },
        {
          "components": [
            {
              "internalType": "bool",
              "name": "zeroForOne",
              "type": "bool"
            },
            {
              "internalType": "int256",
              "name": "amountSpecified",
              "type": "int256"
            },
            {
              "internalType": "uint160",
              "name": "sqrtPriceLimitX96",
              "type": "uint160"
            }
          ],
          "internalType": "struct IPoolManager.SwapParams",
          "name": "params",
          "type": "tuple"
        },
        {
          "internalType": "BalanceDelta",
          "name": "",
          "type": "int256"
        },
        {
          "internalType": "bytes",
          "name": "",
          "type": "bytes"
        }
      ],
      "name": "afterSwap",
      "outputs": [
        {
          "internalType": "bytes4",
          "name": "",
          "type": "bytes4"
        }
      ],
      "stateMutability": "nonpayable",
      "type": "function"
    },
    {
      "inputs": [
        {
          "components": [
            {
              "internalType": "Currency",
              "name": "currency0",
              "type": "address"
            },
            {
              "internalType": "Currency",
              "name": "currency1",
              "type": "address"
            },
            {
              "internalType": "uint24",
              "name": "fee",
              "type": "uint24"
            },
            {
              "internalType": "int24",
              "name": "tickSpacing",
              "type": "int24"
            },
            {
              "internalType": "contract IHooks",
              "name": "hooks",
              "type": "address"
            }
          ],
          "internalType": "struct PoolKey",
          "name": "key",
          "type": "tuple"
        },
        {
          "internalType": "int24",
          "name": "tickLower",
          "type": "int24"
        },
        {
          "internalType": "int256",
          "name": "liquidityDelta",
          "type": "int256"
        }
      ],
      "name": "lockAcquiredFill",
      "outputs": [
        {
          "internalType": "uint128",
          "name": "amount0",
          "type": "uint128"
        },
        {
          "internalType": "uint128",
          "name": "amount1",
          "type": "uint128"
        }
      ],
      "stateMutability": "nonpayable",
      "type": "function"
    },
    {
      "inputs": [
        {
          "components": [
            {
              "internalType": "Currency",
              "name": "currency0",
              "type": "address"
            },
            {
              "internalType": "Currency",
              "name": "currency1",
              "type": "address"
            },
            {
              "internalType": "uint24",
              "name": "fee",
              "type": "uint24"
            },
            {
              "internalType": "int24",
              "name": "tickSpacing",
              "type": "int24"
            },
            {
              "internalType": "contract IHooks",
              "name": "hooks",
              "type": "address"
            }
          ],
          "internalType": "struct PoolKey",
          "name": "key",
          "type": "tuple"
        },
        {
          "internalType": "int24",
          "name": "tickLower",
          "type": "int24"
        },
        {
          "internalType": "bool",
          "name": "zeroForOne",
          "type": "bool"
        },
        {
          "internalType": "uint128",
          "name": "liquidity",
          "type": "uint128"
        }
      ],
      "name": "place",
      "outputs": [],
      "stateMutability": "nonpayable",
      "type": "function"
    },
    {
      "inputs": [
        {
          "components": [
            {
              "internalType": "Currency",
              "name": "currency0",
              "type": "address"
            },
            {
              "internalType": "Currency",
              "name": "currency1",
              "type": "address"
            },
            {
              "internalType": "uint24",
              "name": "fee",
              "type": "uint24"
            },
            {
              "internalType": "int24",
              "name": "tickSpacing",
              "type": "int24"
            },
            {
              "internalType": "contract IHooks",
              "name": "hooks",
              "type": "address"
            }
          ],
          "internalType": "struct PoolKey",
          "name": "key",
          "type": "tuple"
        },
        {
          "internalType": "int24",
          "name": "tickLower",
          "type": "int24"
        },
        {
          "internalType": "bool",
          "name": "zeroForOne",
          "type": "bool"
        },
        {
          "internalType": "int256",
          "name": "liquidityDelta",
          "type": "int256"
        },
        {
          "internalType": "address",
          "name": "owner",
          "type": "address"
        }
      ],
      "name": "lockAcquiredPlace",
      "outputs": [],
      "stateMutability": "nonpayable",
      "type": "function"
    },
    {
      "inputs": [
        {
          "components": [
            {
              "internalType": "Currency",
              "name": "currency0",
              "type": "address"
            },
            {
              "internalType": "Currency",
              "name": "currency1",
              "type": "address"
            },
            {
              "internalType": "uint24",
              "name": "fee",
              "type": "uint24"
            },
            {
              "internalType": "int24",
              "name": "tickSpacing",
              "type": "int24"
            },
            {
              "internalType": "contract IHooks",
              "name": "hooks",
              "type": "address"
            }
          ],
          "internalType": "struct PoolKey",
          "name": "key",
          "type": "tuple"
        },
        {
          "internalType": "int24",
          "name": "tickLower",
          "type": "int24"
        },
        {
          "internalType": "bool",
          "name": "zeroForOne",
          "type": "bool"
        },
        {
          "internalType": "address",
          "name": "to",
          "type": "address"
        }
      ],
      "name": "kill",
      "outputs": [
        {
          "internalType": "uint256",
          "name": "amount0",
          "type": "uint256"
        },
        {
          "internalType": "uint256",
          "name": "amount1",
          "type": "uint256"
        }
      ],
      "stateMutability": "nonpayable",
      "type": "function"
    },
    {
      "inputs": [
        {
          "components": [
            {
              "internalType": "Currency",
              "name": "currency0",
              "type": "address"
            },
            {
              "internalType": "Currency",
              "name": "currency1",
              "type": "address"
            },
            {
              "internalType": "uint24",
              "name": "fee",
              "type": "uint24"
            },
            {
              "internalType": "int24",
              "name": "tickSpacing",
              "type": "int24"
            },
            {
              "internalType": "contract IHooks",
              "name": "hooks",
              "type": "address"
            }
          ],
          "internalType": "struct PoolKey",
          "name": "key",
          "type": "tuple"
        },
        {
          "internalType": "int24",
          "name": "tickLower",
          "type": "int24"
        },
        {
          "internalType": "int256",
          "name": "liquidityDelta",
          "type": "int256"
        },
        {
          "internalType": "address",
          "name": "to",
          "type": "address"
        },
        {
          "internalType": "bool",
          "name": "removingAllLiquidity",
          "type": "bool"
        }
      ],
      "name": "lockAcquiredKill",
      "outputs": [
        {
          "internalType": "uint256",
          "name": "amount0",
          "type": "uint256"
        },
        {
          "internalType": "uint256",
          "name": "amount1",
          "type": "uint256"
        },
        {
          "internalType": "uint128",
          "name": "amount0Fee",
          "type": "uint128"
        },
        {
          "internalType": "uint128",
          "name": "amount1Fee",
          "type": "uint128"
        }
      ],
      "stateMutability": "nonpayable",
      "type": "function"
    },
    {
      "inputs": [
        {
          "internalType": "Epoch",
          "name": "epoch",
          "type": "uint232"
        },
        {
          "internalType": "address",
          "name": "to",
          "type": "address"
        }
      ],
      "name": "withdraw",
      "outputs": [
        {
          "internalType": "uint256",
          "name": "amount0",
          "type": "uint256"
        },
        {
          "internalType": "uint256",
          "name": "amount1",
          "type": "uint256"
        }
      ],
      "stateMutability": "nonpayable",
      "type": "function"
    },
    {
      "inputs": [
        {
          "internalType": "Currency",
          "name": "currency0",
          "type": "address"
        },
        {
          "internalType": "Currency",
          "name": "currency1",
          "type": "address"
        },
        {
          "internalType": "uint256",
          "name": "token0Amount",
          "type": "uint256"
        },
        {
          "internalType": "uint256",
          "name": "token1Amount",
          "type": "uint256"
        },
        {
          "internalType": "address",
          "name": "to",
          "type": "address"
        }
      ],
      "name": "lockAcquiredWithdraw",
      "outputs": [],
      "stateMutability": "nonpayable",
      "type": "function"
    },
    {
      "inputs": [
        {
          "internalType": "address",
          "name": "",
          "type": "address"
        },
        {
          "internalType": "address",
          "name": "",
          "type": "address"
        },
        {
          "internalType": "uint256",
          "name": "",
          "type": "uint256"
        },
        {
          "internalType": "uint256",
          "name": "",
          "type": "uint256"
        },
        {
          "internalType": "bytes",
          "name": "",
          "type": "bytes"
        }
      ],
      "name": "onERC1155Received",
      "outputs": [
        {
          "internalType": "bytes4",
          "name": "",
          "type": "bytes4"
        }
      ],
      "stateMutability": "view",
      "type": "function"
    }
  ],
  "bytecode": "0x60a06040523461023457604051601f61299338819003918201601f19168301916001600160401b038311848410176102385780849260209460405283398101031261023457516001600160a01b0381168103610234576080525f61010061006461024c565b8281528260208201528260408201528260608201528260808201528260a08201528260c08201528260e082015201525f61010061009f61024c565b82815260016020820152826040820152826060820152826080820152600160a08201528260c08201528260e082015201526001609f1b301615801590610221575b8015610212575b8015610203575b80156101f4575b80156101e1575b80156101d2575b80156101c3575b80156101b4575b6101a157600180546001600160e81b03191681179055604051612726908161026d82396080518181816101a7015281816102150152818161031f0152818161059301528181610623015281816106d80152818161097601528181610b8301528181610ed2015281816113050152818161144d015281816114d4015281816115dd015281816117f401526122b30152f35b630732d7b560e51b5f523060045260245ffd5b5030600160971b161515610111565b5030600160981b16151561010a565b5030600160991b161515610103565b50306001609a1b161515600114156100fc565b50306001609b1b1615156100f5565b50306001609c1b1615156100ee565b50306001609d1b1615156100e7565b50306001609e1b161515600114156100e0565b5f80fd5b634e487b7160e01b5f52604160045260245ffd5b6040519061012082016001600160401b038111838210176102385760405256fe6080806040526004361015610012575f80fd5b5f905f3560e01c9081622f79f614611a815750806330b7cdef14611a5e578063323b5ae714611a365780633440d820146119d657806334eb074214611577578063365df6b3146113f35780634907c68e146111a1578063575e24b41461118f5780635aaff51714610e89578063612c39b714610d9e578063622b76ae14610b52578063624f723c14610ac45780637d9248a814610a7c578063977e65aa14610a1d5780639b9da8241461054e578063a23c0c34146107e3578063a910f80f14610676578063ab6291fe146105ef578063b47b2fb11461057a578063b6a8b0fa146101fa578063c53b81aa1461054e578063cb37d85114610244578063dc4c90d3146101ff578063e1b4af69146101fa578063f23a6e61146101605763fe9a6f451461013b575f80fd5b3461015d5760049061014c36611bdc565b5050630a85dc2960e01b8452505050fd5b80fd5b503461015d5760a036600319011261015d5761017a611aaf565b50610183611adb565b506084356001600160401b0381116101f6576101a3903690600401611b05565b50507f00000000000000000000000000000000000000000000000000000000000000006001600160a01b031633036101e75760405163f23a6e6160e01b8152602090f35b6314fe96b960e21b8152600490fd5b5080fd5b611dfc565b503461015d578060031936011261015d576040517f00000000000000000000000000000000000000000000000000000000000000006001600160a01b03168152602090f35b503461015d57366003190161010081126101f65760a01361015d57610267611baf565b61026f611bcd565b9060e4356001600160801b03811680820361054a576084356001600160a01b0381169081900361054657300361053857801561052957604051635aaff51760e01b602082015261031a92918691906102c960248301611edb565b8560020b60c483015286151560e48301526101048201523361012482015261012481526102f861014482611cb7565b60405180948192638154831960e01b8352602060048401526024830190611dd8565b0381837f00000000000000000000000000000000000000000000000000000000000000006001600160a01b03165af191821561051e577f4f0ea5e4591f78ece28e0e576ad3e8430e47ef23df32f6d4a04911558b5803f5926104fe575b5061038b848461038636611ce8565b6121c6565b6001600160e81b038116806104ec5750506001546001600160e81b03166103b136611ce8565b6040516103d6816103c889896020840196876121a2565b03601f198101835282611cb7565b519020865260026020526040862060018060e81b03821662ffffff60e81b82541617905560018060e81b03600182011662ffffff60e81b6001541617600155808652600360205260056040872061042b61200a565b8154610100600160a81b03191660089190911b610100600160a81b0316178155610453612020565b6001820180546001600160a01b0319166001600160a01b039092169190911790555b600481016001600160801b038086818454160116166001600160801b031982541617905560018060a01b0333165f520160205260405f206001600160801b038084818454160116166001600160801b03198254161790556104e660405192839260018060e81b031696339684612112565b0390a380f35b86526003602052600560408720610475565b610519903d8088833e6105118183611cb7565b8101906120b0565b610377565b6040513d87823e3d90fd5b630200e8a960e31b8552600485fd5b62820f3560e61b8552600485fd5b8580fd5b8480fd5b503461015d57602036600319011261015d5760406020916004358152808352205460020b604051908152f35b503461015d5761058936611b32565b50919492935050507f00000000000000000000000000000000000000000000000000000000000000006001600160a01b031633036105e05760206105cd8484612279565b6040516001600160e01b03199091168152f35b63570c108560e11b8152600490fd5b503461015d57602036600319011261015d576004356001600160401b0381116101f657610620903690600401611b05565b917f00000000000000000000000000000000000000000000000000000000000000006001600160a01b031633036105e05761067261065e848461220a565b604051918291602083526020830190611dd8565b0390f35b503461015d5761012036600319011261015d57610691611aaf565b5060a036602319011261015d576106a6611b99565b5060e4358060020b81036101f657610104356001600160401b0381116107df576106d4903690600401611b05565b50507f00000000000000000000000000000000000000000000000000000000000000006001600160a01b031633036107d0576040519061071382611c9c565b6024356001600160a01b03811681036107cc5782526044356001600160a01b03811681036107cc57602083015260643562ffffff811681036107cc576040830152608435918260020b83036107cc576060810183905260a4356001600160a01b038116810361054a57916107948261079b9460806107ba989795015261263b565b9350612661565b905f525f60205260405f209062ffffff198254169062ffffff16179055565b60405163a910f80f60e01b8152602090f35b8380fd5b63570c108560e11b8252600482fd5b8280fd5b503461015d57604036600319011261015d576107fd611c3b565b90610806611adb565b6001600160e81b0390921680825260036020526040822080549093919060ff1615610a0e57335f9081526005850160208190526040909120546001600160801b031690811561052957600160a01b6001900333165f5260205260405f206001600160801b0319815416905560028501938454936003870180548460048a019283546001600160801b03169261089c84848c6125bb565b809b6108a98686856125bb565b9b8c926108b5916121fd565b90556108c0916121fd565b90556108cb91612080565b81546fffffffffffffffffffffffffffffffff19166001600160801b039190911617905586546001979097015460405163365df6b360e01b602082015260089890981c6001600160a01b0390811660248a0152908116604489015260648801879052608488018690521660a480880191909152865261094b60c487611cb7565b80604051808098638154831960e01b825260048201602090526024820161097191611dd8565b0381837f00000000000000000000000000000000000000000000000000000000000000006001600160a01b03165af1958615610a01576040966109e8575b505084519081527fcfd201c31748d4bd85efe95ceda3bac90f7fd44d075465d1624a5ce18bcf558860203392a382519182526020820152f35b6109fb913d8091833e6105118183611cb7565b5f6109af565b50604051903d90823e3d90fd5b6306cb6fbf60e41b8352600483fd5b503461015d57604036600319011261015d5760056040610a3b611c3b565b92610a44611adb565b9360018060e81b03168152600360205220019060018060a01b03165f5260205260206001600160801b0360405f205416604051908152f35b503461015d5760e036600319011261015d576020610ab2610a9c36611ce8565b610aa4611baf565b610aac611bcd565b916121c6565b6040516001600160e81b039091168152f35b503461015d57602036600319011261015d5760c0906040906001600160e81b03610aec611c3b565b16815260036020522080549060018060a01b036001820154169060028101546001600160801b036004600384015493015416926040519460ff81161515865260018060a01b039060081c16602086015260408501526060840152608083015260a0820152f35b503461015d57366003190160e081126101f65760a01361015d57610b74611baf565b303303610d8f578190610c0e827f00000000000000000000000000000000000000000000000000000000000000006001600160a01b0316610bbc610bb6611e61565b85611e7f565b60405194610bc986611c51565b60020b855260020b602085015260c43560408501526020809460405190610bf08383611cb7565b8482526040516330d7224d60e11b8152958692839260048401611fc5565b038185855af1928315610ccb578293610d5c575b50818360801d12610cd6575b8183600f0b12610c55575b5050506001600160801b03604093818551941684521690820152f35b90919450610c6a610c64612020565b95612036565b6001600160801b031694813b156107df5785610ca192849283604051809681958294636361ddf360e11b8452309060048501612056565b03925af18015610ccb57610cb6575b80610c39565b610cc1828092611cb7565b61015d5780610cb0565b6040513d84823e3d90fd5b9350610ce061200a565b93610ced8360801c612036565b6001600160801b031694813b156107df578286610d21926040519384928392636361ddf360e11b8452309060048501612056565b038183865af18015610d5157908391610d3c575b5050610c2e565b81610d4691611cb7565b6101f657815f610d35565b6040513d85823e3d90fd5b9092508381813d8311610d88575b610d748183611cb7565b81010312610d845751915f610c22565b5f80fd5b503d610d6a565b6314e1dbf760e11b8252600482fd5b503461015d578060031936011261015d578061012091610100604051610dc381611c80565b8281528260208201528260408201528260608201528260808201528260a08201528260c08201528260e08201520152604051610dfe81611c80565b81815260208101906001825260408101838152606082018481526080830185815260a08401916001835260c085019387855261010060e08701968988520196888852604051988952511515602089015251151560408801525115156060870152511515608086015251151560a085015251151560c084015251151560e0830152511515610100820152f35b503461015d57366003190161012081126101f65760a01361015d57610eac611baf565b610eb4611bcd565b61010435906001600160a01b03821682036107cc57303303611180577f00000000000000000000000000000000000000000000000000000000000000006001600160a01b031690610f6290610f10610f0a611e61565b86611e7f565b60405195610f1d87611c51565b60020b865260020b602086015260e43560408601526020809560405190610f448383611cb7565b8882526040516330d7224d60e11b8152948592839260048401611fc5565b038189875af1918215611175578692611146575b508160801d918683135f146110ad57600f0b61109e571561108f5784929190849082906001600160801b03866001600160a01b03610fb261200a565b6040516323b872dd60e01b81526001600160a01b03998a166004820152959098166024860152929091166044840152919485926064928492165af1918215610d51578492611064575b50602461100661200a565b604051636a256b2960e01b81526001600160a01b0390911660048201529384928391905af18015610d515761103a57505080f35b8161105992903d1061105d575b6110518183611cb7565b810190611ecc565b5080f35b503d611047565b61108390833d8511611088575b61107b8183611cb7565b810190612147565b610ffb565b503d611071565b63b319920d60e01b8552600485fd5b6323ac68e760e01b8652600486fd5b9161109e5761108f5784929190849082906001600160801b03866001600160a01b036110d7612020565b6040516323b872dd60e01b81526001600160a01b03998a166004820152959098166024860152929091166044840152919485926064928492165af1918215610d5157849261112b575b506024611006612020565b61114190833d85116110885761107b8183611cb7565b611120565b9091508481813d831161116e575b61115e8183611cb7565b81010312610d845751905f610f76565b503d611154565b6040513d88823e3d90fd5b6314e1dbf760e11b8452600484fd5b503461015d5760049061014c36611bdc565b503461015d57366003190161010081126101f65760a01361015d576111c4611baf565b6111cc611bcd565b6111d4611ac5565b916001600160e81b036111eb838361038636611ce8565b16908185526003602052604085209260ff8454166113e457335f9081526005850160208190526040909120546001600160801b0316959086156113d557968091611300979860018060a01b0333165f5260205260405f206001600160801b03198154169055600487016001600160801b03815416906001600160801b036112728c84612080565b166001600160801b031982541617905561128b8a6120a0565b604051631a7583a160e11b602082015292906112a960248501611edb565b8760020b60c485015260e484015260018060a01b0316610104830152891461012482015261012481526112de61014482611cb7565b60405180988192638154831960e01b8352602060048401526024830190611dd8565b0381837f00000000000000000000000000000000000000000000000000000000000000006001600160a01b03165af1958615610a015781966113b9575b5060808680518101031261015d57506040957f1fcdf3a63cf3db59982665c5a85b5b5d46a623a9216a89da970cbad511ff02359160208701519660038982015197608060608401519301519260028201908154019055019081540190556113aa8851928392339684612112565b0390a382519182526020820152f35b6113ce9196503d8088833e6105118183611cb7565b945f61133d565b630200e8a960e31b8852600488fd5b63413e917360e11b8652600486fd5b503461015d5760a036600319011261015d5761140d611aaf565b90611416611adb565b608435906064356044356001600160a01b038416840361054a57303303611568578495816114d2575b50508061144b57505050f35b7f00000000000000000000000000000000000000000000000000000000000000006001600160a01b0316803b1561054a57604051630b0d9c0960e01b81526001600160a01b039384166004820152939092166024840152604483015282908290606490829084905af18015610ccb576114c15750f35b816114cb91611cb7565b61015d5780f35b7f00000000000000000000000000000000000000000000000000000000000000006001600160a01b031691823b1561156457604051630b0d9c0960e01b81526001600160a01b039283166004820152918616602483015260448201529085908290606490829084905af190811561051e5785911561143f578161155491611cb7565b61155f57835f61143f565b505050fd5b8680fd5b6314e1dbf760e11b8552600485fd5b5034610d845736600319016101208112610d845760a013610d845761159a611baf565b6115a2611ac5565b916101043590811591821503610d84573033036119c7575f925f915f935f966115cc610bb6611e61565b916117ef575b6040519361165593927f00000000000000000000000000000000000000000000000000000000000000006001600160a01b0316929161161087611c51565b60020b865260020b602086015260c435604086015260208095604051906116378383611cb7565b8582526040516330d7224d60e11b8152968792839260048401611fc5565b038186865af1938415610d515783946117c0575b50828460801d1261172e575b8284600f0b126116a7575b6080886001600160801b038b818b8b8b604051968752860152166040840152166060820152f35b90919294506001600160801b036116c56116bf612020565b96612036565b1694823b156107cc57604051630b0d9c0960e01b81526001600160a01b03918216600482015291166024820152604481018590529082908290606490829084905af18015610ccb57611719575b8080611680565b611724828092611cb7565b61015d5780611712565b965061173861200a565b966001600160801b0361174d8560801c612036565b1697823b156107cc57604051630b0d9c0960e01b81526001600160a01b039182166004820152908216602482015260448101899052838160648183875af180156117b5579084916117a0575b5050611675565b816117aa91611cb7565b6107df57825f611799565b6040513d86823e3d90fd5b9093508481813d83116117e8575b6117d88183611cb7565b81010312610d845751925f611669565b503d6117ce565b6040517f00000000000000000000000000000000000000000000000000000000000000006001600160a01b031661182582611c51565b8560020b82528360020b60208301525f604083015261186d602080936040519061184f8383611cb7565b5f82526040516330d7224d60e11b8152938492839260048401611fc5565b03815f865af192831561198c575f93611997575b50505f8260801d12611915575b8482600f0b126118a0575b50506115d2565b9098506118b46118ae612020565b99612036565b6001600160801b031698813b1561054a57896118eb92869283604051809681958294636361ddf360e11b8452309060048501612056565b03925af180156117b557611900575b80611899565b61190b848092611cb7565b6107df575f6118fa565b965061191f61200a565b9661192c8260801c612036565b6001600160801b031697813b15610d84575f89611960926040519384928392636361ddf360e11b8452309060048501612056565b038183865af1801561198c57611977575b5061188e565b6119849195505f90611cb7565b5f935f611971565b6040513d5f823e3d90fd5b9080929350813d83116119c0575b6119af8183611cb7565b81010312610d845751905f80611881565b503d6119a5565b6314e1dbf760e11b5f5260045ffd5b34610d8457610100366003190112610d84576119f0611aaf565b5060a0366023190112610d8457611a05611b99565b5060e4356001600160401b038111610d8457611a25903690600401611b05565b5050630a85dc2960e01b5f5260045ffd5b34610d84575f366003190112610d84576001546040516001600160e81b039091168152602090f35b34610d8457611a6c36611b32565b505050505050630a85dc2960e01b5f5260045ffd5b34610d84576020366003190112610d84576020906004355f526002825260018060e81b0360405f2054168152f35b600435906001600160a01b0382168203610d8457565b60e435906001600160a01b0382168203610d8457565b602435906001600160a01b0382168203610d8457565b35906001600160a01b0382168203610d8457565b9181601f84011215610d84578235916001600160401b038311610d845760208381860195010111610d8457565b610160600319820112610d84576004356001600160a01b0381168103610d84579160a0602319830112610d8457602491606060c319820112610d845760c491610124359161014435906001600160401b038211610d8457611b9591600401611b05565b9091565b60c435906001600160a01b0382168203610d8457565b60a435908160020b8203610d8457565b35908160020b8203610d8457565b60c435908115158203610d8457565b90610140600319830112610d84576004356001600160a01b0381168103610d84579160a0602319820112610d8457602491606060c319830112610d845760c49161012435906001600160401b038211610d8457611b9591600401611b05565b600435906001600160e81b0382168203610d8457565b606081019081106001600160401b03821117611c6c57604052565b634e487b7160e01b5f52604160045260245ffd5b61012081019081106001600160401b03821117611c6c57604052565b60a081019081106001600160401b03821117611c6c57604052565b90601f801991011681019081106001600160401b03821117611c6c57604052565b359062ffffff82168203610d8457565b60a0906003190112610d845760405190611d0182611c9c565b816004356001600160a01b0381168103610d845781526024356001600160a01b0381168103610d8457602082015260443562ffffff81168103610d845760408201526064358060020b8103610d84576060820152608435906001600160a01b0382168203610d845760800152565b91908260a0910312610d8457604051611d8781611c9c565b6080611dd3818395611d9881611af1565b8552611da660208201611af1565b6020860152611db760408201611cd8565b6040860152611dc860608201611bbf565b606086015201611af1565b910152565b805180835260209291819084018484015e5f828201840152601f01601f1916010190565b34610d8457610120366003190112610d84576004356001600160a01b0381168103610d84575060a0366023190112610d8457610104356001600160401b038111610d8457611e4e903690600401611b05565b5050630a85dc2960e01b5f908152600490fd5b6064358060020b8103610d845790565b358060020b8103610d845790565b9060020b9060020b0190627fffff198212627fffff831317611e9d57565b634e487b7160e01b5f52601160045260245ffd5b6001600160401b038111611c6c57601f01601f191660200190565b90816020910312610d84575190565b6004356001600160a01b03811690819003610d845781526024356001600160a01b03811690819003610d8457602082015260443562ffffff8116809103610d845760408201526064358060020b809103610d845760608201526084356001600160a01b0381169190829003610d845760800152565b6080906001600160a01b03611f6482611af1565b1683526001600160a01b03611f7b60208301611af1565b16602084015262ffffff611f9160408301611cd8565b166040840152611fa360608201611bbf565b60020b60608401526001600160a01b0390611fbf908301611af1565b16910152565b6101209060406120079493611fdb836004611f50565b805160020b60a0840152602081015160020b60c0840152015160e0820152816101008201520190611dd8565b90565b6004356001600160a01b0381168103610d845790565b6024356001600160a01b0381168103610d845790565b600f0b6f7fffffffffffffffffffffffffffffff198114611e9d575f0390565b6001600160a01b039182168152911660208201526001600160801b03909116604082015260600190565b906001600160801b03809116911603906001600160801b038211611e9d57565b600160ff1b8114611e9d575f0390565b602081830312610d84578051906001600160401b038211610d84570181601f82011215610d84578051906120e382611eb1565b926120f16040519485611cb7565b82845260208383010111610d8457815f9260208093018386015e8301015290565b9160e09194936001600160801b0391610100850196612132866004611f50565b60020b60a0860152151560c085015216910152565b90816020910312610d8457518015158103610d845790565b80516001600160a01b03908116835260208083015182169084015260408083015162ffffff169084015260608083015160020b9084015260809182015116910152565b919260c09194936121b78460e081019761215f565b60020b60a08401521515910152565b91906121e0906103c86040519384926020840196876121a2565b5190205f908152600260205260409020546001600160e81b031690565b91908203918211611e9d57565b5f9182918160405192839283378101838152039082305af1903d15612271573d9161223483611eb1565b926122426040519485611cb7565b83523d5f602085013e5b61226f575080511561226057602081519101fd5b6314815f4760e31b5f5260045ffd5b565b60609161224c565b9161228c6122873685611d6f565b61263b565b90606084019361229b85611e71565b604051633205590760e21b81526004810185905290927f00000000000000000000000000000000000000000000000000000000000000006001600160a01b031691608081602481865afa801561198c5785905f9061254b575b6122fe9250612661565b945f525f60205260405f205460020b938560020b8581125f1461252d57506123269086611e7f565b93955b849660020b809560020b1361251a573594851595861503610d8457955b8060020b908582136124d65761236187826103863689611d6f565b6001600160e81b03168061238a575b50612385915061237f89611e71565b90611e7f565b612346565b805f5260036020526123f460405f20600160ff198254161781555f6123bb6001600160801b036004840154166120a0565b604051633115bb5760e11b6020820152906123d9602483018c611f50565b8760c483015260e482015260e481526102f861010482611cb7565b0381838b5af191821561198c575f926124ba575b50604082805181010312610d84576123859482600360e093604060207f315051c5c119908100a3f90ce0f119abf8a2b85f89378f72e13c7fe0dad56f6e970151930151926002820190815401905501908154019055612467368a611d6f565b6103c86124808d6040519283918a6020840196876121a2565b5190205f52600260205260405f2062ffffff60e81b8154169055604051906124a8828b611f50565b60a08201528a60c0820152a25f612370565b6124cf9192503d805f833e6105118183611cb7565b905f612408565b505095505061250f9392506124f19150612287903690611d6f565b5f525f60205260405f209062ffffff198254169062ffffff16179055565b63b47b2fb160e01b90565b5063b47b2fb160e01b9650945050505050565b9060020b9003627fffff8113627fffff19821217611e9d5795612329565b50506080813d6080116125b3575b8161256660809383611cb7565b81010312610d845780516001600160a01b03811603610d84576020810151908160020b8203610d84576122fe916125ad6060836125a660408b96016126e0565b50016126e0565b506122f4565b3d9150612559565b91818302915f1981850993838086109503948086039586851115610d845714612633579082910981805f03168092046002816003021880820260020302808202600203028082026002030280820260020302808202600203028091026002030293600183805f03040190848311900302920304170290565b505091500490565b60405161264c60208201809361215f565b60a0815261265b60c082611cb7565b51902090565b60020b9060020b9081156126cc57627fffff1981145f19831416611e9d5781810590825f821291826126bd575b50506126a7575b60020b028060020b908103611e9d5790565b60020b627fffff198114611e9d575f1901612695565b0760020b15159050825f61268e565b634e487b7160e01b5f52601260045260245ffd5b519062ffffff82168203610d845756fea2646970667358221220aabb141552f2403ca2979a2f4a15da91b2aa3275766f8fc939e29198c6cdfcfb64736f6c634300081c0033",
  "immutableReferences": {
    "14615": [
      {
        "length": 32,
        "start": 423
      },
      {
        "length": 32,
        "start": 533
      },
      {
        "length": 32,
        "start": 799
      },
      {
        "length": 32,
        "start": 1427
      },
      {
        "length": 32,
        "start": 1571
      },
      {
        "length": 32,
        "start": 1752
      },
      {
        "length": 32,
        "start": 2422
      },
      {
        "length": 32,
        "start": 2947
      },
      {
        "length": 32,
        "start": 3794
      },
      {
        "length": 32,
        "start": 4869
      },
      {
        "length": 32,
        "start": 5197
      },
      {
        "length": 32,
        "start": 5332
      },
      {
        "length": 32,
        "start": 5597
      },
      {
        "length": 32,
        "start": 6132
      },
      {
        "length": 32,
        "start": 8883
      }
    ]
  },
  "source": "// SPDX-License-Identifier: UNLICENSED\npragma solidity ^0.8.19;\n\nimport {IPoolManager} from \"../../../../v4-core/src/interfaces/IPoolManager.sol\";\nimport {PoolId, PoolIdLibrary} from \"../../../../v4-core/src/types/PoolId.sol\";\nimport {Hooks} from \"../../../../v4-core/src/libraries/Hooks.sol\";\nimport {FullMath} from \"../../../../v4-core/src/libraries/FullMath.sol\";\nimport {SafeCast} from \"../../../../v4-core/src/libraries/SafeCast.sol\";\nimport {IERC20Minimal} from \"../../../../v4-core/src/interfaces/external/IERC20Minimal.sol\";\nimport {IERC1155Receiver} from \"@openzeppelin/contracts/token/ERC1155/IERC1155Receiver.sol\";\nimport {BaseHook} from \"../../BaseHook.sol\";\nimport {Currency, CurrencyLibrary} from \"../../../../v4-core/src/types/Currency.sol\";\nimport {BalanceDelta} from \"../../../../v4-core/src/types/BalanceDelta.sol\";\nimport {PoolKey} from \"../../../../v4-core/src/types/PoolKey.sol\";\n\ntype Epoch is uint232;\n\nlibrary EpochLibrary {\n    function equals(Epoch a, Epoch b) internal pure returns (bool) {\n        return Epoch.unwrap(a) == Epoch.unwrap(b);\n    }\n\n    function unsafeIncrement(Epoch a) internal pure returns (Epoch) {\n        unchecked {\n            return Epoch.wrap(Epoch.unwrap(a) + 1);\n        }\n    }\n}\n\ncontract LimitOrder is BaseHook {\n    using EpochLibrary for Epoch;\n    using PoolIdLibrary for PoolKey;\n    using CurrencyLibrary for Currency;\n\n    error ZeroLiquidity();\n    error InRange();\n    error CrossedRange();\n    error Filled();\n    error NotFilled();\n    error NotPoolManagerToken();\n\n    event Place(\n        address indexed owner, Epoch indexed epoch, PoolKey key, int24 tickLower, bool zeroForOne, uint128 liquidity\n    );\n\n    event Fill(Epoch indexed epoch, PoolKey key, int24 tickLower, bool zeroForOne);\n\n    event Kill(\n        address indexed owner, Epoch indexed epoch, PoolKey key, int24 tickLower, bool zeroForOne, uint128 liquidity\n    );\n\n    event Withdraw(address indexed owner, Epoch indexed epoch, uint128 liquidity);\n\n    bytes internal constant ZERO_BYTES = bytes(\"\");\n\n    Epoch private constant EPOCH_DEFAULT = Epoch.wrap(0);\n\n    mapping(PoolId => int24) public tickLowerLasts;\n    Epoch public epochNext = Epoch.wrap(1);\n\n    struct EpochInfo {\n        bool filled;\n        Currency currency0;\n        Currency currency1;\n        uint256 token0Total;\n        uint256 token1Total;\n        uint128 liquidityTotal;\n        mapping(address => uint128) liquidity;\n    }\n\n    mapping(bytes32 => Epoch) public epochs;\n    mapping(Epoch => EpochInfo) public epochInfos;\n\n    constructor(IPoolManager _poolManager) BaseHook(_poolManager) {}\n\n    function getHooksCalls() public pure override returns (Hooks.Calls memory) {\n        return Hooks.Calls({\n            beforeInitialize: false,\n            afterInitialize: true,\n            beforeModifyPosition: false,\n            afterModifyPosition: false,\n            beforeSwap: false,\n            afterSwap: true,\n            beforeDonate: false,\n            afterDonate: false, \n            noOp: false\n        });\n    }\n\n    function getTickLowerLast(PoolId poolId) public view returns (int24) {\n        return tickLowerLasts[poolId];\n    }\n\n    function setTickLowerLast(PoolId poolId, int24 tickLower) private {\n        tickLowerLasts[poolId] = tickLower;\n    }\n\n    function getEpoch(PoolKey memory key, int24 tickLower, bool zeroForOne) public view returns (Epoch) {\n        return epochs[keccak256(abi.encode(key, tickLower, zeroForOne))];\n    }\n\n    function setEpoch(PoolKey memory key, int24 tickLower, bool zeroForOne, Epoch epoch) private {\n        epochs[keccak256(abi.encode(key, tickLower, zeroForOne))] = epoch;\n    }\n\n    function getEpochLiquidity(Epoch epoch, address owner) external view returns (uint256) {\n        return epochInfos[epoch].liquidity[owner];\n    }\n\n    function getTick(PoolId poolId) private view returns (int24 tick) {\n        (, tick,,) = poolManager.getSlot0(poolId);\n    }\n\n    function getTickLower(int24 tick, int24 tickSpacing) private pure returns (int24) {\n        int24 compressed = tick / tickSpacing;\n        if (tick < 0 && tick % tickSpacing != 0) compressed--; // round towards negative infinity\n        return compressed * tickSpacing;\n    }\n\n    function afterInitialize(address, PoolKey calldata key, uint160, int24 tick, bytes calldata)\n        external\n        override\n        poolManagerOnly\n        returns (bytes4)\n    {\n        setTickLowerLast(key.toId(), getTickLower(tick, key.tickSpacing));\n        return LimitOrder.afterInitialize.selector;\n    }\n\n    function afterSwap(\n        address,\n        PoolKey calldata key,\n        IPoolManager.SwapParams calldata params,\n        BalanceDelta,\n        bytes calldata\n    ) external override poolManagerOnly returns (bytes4) {\n        (int24 tickLower, int24 lower, int24 upper) = _getCrossedTicks(key.toId(), key.tickSpacing);\n        if (lower > upper) return LimitOrder.afterSwap.selector;\n\n        // note that a zeroForOne swap means that the pool is actually gaining token0, so limit\n        // order fills are the opposite of swap fills, hence the inversion below\n        bool zeroForOne = !params.zeroForOne;\n        for (; lower <= upper; lower += key.tickSpacing) {\n            _fillEpoch(key, lower, zeroForOne);\n        }\n\n        setTickLowerLast(key.toId(), tickLower);\n        return LimitOrder.afterSwap.selector;\n    }\n\n    function _fillEpoch(PoolKey calldata key, int24 lower, bool zeroForOne) internal {\n        Epoch epoch = getEpoch(key, lower, zeroForOne);\n        if (!epoch.equals(EPOCH_DEFAULT)) {\n            EpochInfo storage epochInfo = epochInfos[epoch];\n\n            epochInfo.filled = true;\n\n            (uint256 amount0, uint256 amount1) = abi.decode(\n                poolManager.lock(\n                    abi.encodeCall(this.lockAcquiredFill, (key, lower, -int256(uint256(epochInfo.liquidityTotal))))\n                ),\n                (uint256, uint256)\n            );\n\n            unchecked {\n                epochInfo.token0Total += amount0;\n                epochInfo.token1Total += amount1;\n            }\n\n            setEpoch(key, lower, zeroForOne, EPOCH_DEFAULT);\n\n            emit Fill(epoch, key, lower, zeroForOne);\n        }\n    }\n\n    function _getCrossedTicks(PoolId poolId, int24 tickSpacing)\n        internal\n        view\n        returns (int24 tickLower, int24 lower, int24 upper)\n    {\n        tickLower = getTickLower(getTick(poolId), tickSpacing);\n        int24 tickLowerLast = getTickLowerLast(poolId);\n\n        if (tickLower < tickLowerLast) {\n            lower = tickLower + tickSpacing;\n            upper = tickLowerLast;\n        } else {\n            lower = tickLowerLast;\n            upper = tickLower - tickSpacing;\n        }\n    }\n\n    function lockAcquiredFill(PoolKey calldata key, int24 tickLower, int256 liquidityDelta)\n        external\n        selfOnly\n        returns (uint128 amount0, uint128 amount1)\n    {\n        BalanceDelta delta = poolManager.modifyPosition(\n            key,\n            IPoolManager.ModifyPositionParams({\n                tickLower: tickLower,\n                tickUpper: tickLower + key.tickSpacing,\n                liquidityDelta: liquidityDelta\n            }),\n            ZERO_BYTES\n        );\n\n        if (delta.amount0() < 0) poolManager.mint(key.currency0, address(this), amount0 = uint128(-delta.amount0()));\n        if (delta.amount1() < 0) poolManager.mint(key.currency1, address(this), amount1 = uint128(-delta.amount1()));\n    }\n\n    function place(PoolKey calldata key, int24 tickLower, bool zeroForOne, uint128 liquidity)\n        external\n        onlyValidPools(key.hooks)\n    {\n        if (liquidity == 0) revert ZeroLiquidity();\n\n        poolManager.lock(\n            abi.encodeCall(this.lockAcquiredPlace, (key, tickLower, zeroForOne, int256(uint256(liquidity)), msg.sender))\n        );\n\n        EpochInfo storage epochInfo;\n        Epoch epoch = getEpoch(key, tickLower, zeroForOne);\n        if (epoch.equals(EPOCH_DEFAULT)) {\n            unchecked {\n                setEpoch(key, tickLower, zeroForOne, epoch = epochNext);\n                // since epoch was just assigned the current value of epochNext,\n                // this is equivalent to epochNext++, which is what's intended,\n                // and it saves an SLOAD\n                epochNext = epoch.unsafeIncrement();\n            }\n            epochInfo = epochInfos[epoch];\n            epochInfo.currency0 = key.currency0;\n            epochInfo.currency1 = key.currency1;\n        } else {\n            epochInfo = epochInfos[epoch];\n        }\n\n        unchecked {\n            epochInfo.liquidityTotal += liquidity;\n            epochInfo.liquidity[msg.sender] += liquidity;\n        }\n\n        emit Place(msg.sender, epoch, key, tickLower, zeroForOne, liquidity);\n    }\n\n    function lockAcquiredPlace(\n        PoolKey calldata key,\n        int24 tickLower,\n        bool zeroForOne,\n        int256 liquidityDelta,\n        address owner\n    ) external selfOnly {\n        BalanceDelta delta = poolManager.modifyPosition(\n            key,\n            IPoolManager.ModifyPositionParams({\n                tickLower: tickLower,\n                tickUpper: tickLower + key.tickSpacing,\n                liquidityDelta: liquidityDelta\n            }),\n            ZERO_BYTES\n        );\n\n        if (delta.amount0() > 0) {\n            if (delta.amount1() != 0) revert InRange();\n            if (!zeroForOne) revert CrossedRange();\n            // TODO use safeTransferFrom\n            IERC20Minimal(Currency.unwrap(key.currency0)).transferFrom(\n                owner, address(poolManager), uint256(uint128(delta.amount0()))\n            );\n            poolManager.settle(key.currency0);\n        } else {\n            if (delta.amount0() != 0) revert InRange();\n            if (zeroForOne) revert CrossedRange();\n            // TODO use safeTransferFrom\n            IERC20Minimal(Currency.unwrap(key.currency1)).transferFrom(\n                owner, address(poolManager), uint256(uint128(delta.amount1()))\n            );\n            poolManager.settle(key.currency1);\n        }\n    }\n\n    function kill(PoolKey calldata key, int24 tickLower, bool zeroForOne, address to)\n        external\n        returns (uint256 amount0, uint256 amount1)\n    {\n        Epoch epoch = getEpoch(key, tickLower, zeroForOne);\n        EpochInfo storage epochInfo = epochInfos[epoch];\n\n        if (epochInfo.filled) revert Filled();\n\n        uint128 liquidity = epochInfo.liquidity[msg.sender];\n        if (liquidity == 0) revert ZeroLiquidity();\n        delete epochInfo.liquidity[msg.sender];\n        uint128 liquidityTotal = epochInfo.liquidityTotal;\n        epochInfo.liquidityTotal = liquidityTotal - liquidity;\n\n        uint256 amount0Fee;\n        uint256 amount1Fee;\n        (amount0, amount1, amount0Fee, amount1Fee) = abi.decode(\n            poolManager.lock(\n                abi.encodeCall(\n                    this.lockAcquiredKill,\n                    (key, tickLower, -int256(uint256(liquidity)), to, liquidity == liquidityTotal)\n                )\n            ),\n            (uint256, uint256, uint256, uint256)\n        );\n\n        unchecked {\n            epochInfo.token0Total += amount0Fee;\n            epochInfo.token1Total += amount1Fee;\n        }\n\n        emit Kill(msg.sender, epoch, key, tickLower, zeroForOne, liquidity);\n    }\n\n    function lockAcquiredKill(\n        PoolKey calldata key,\n        int24 tickLower,\n        int256 liquidityDelta,\n        address to,\n        bool removingAllLiquidity\n    ) external selfOnly returns (uint256 amount0, uint256 amount1, uint128 amount0Fee, uint128 amount1Fee) {\n        int24 tickUpper = tickLower + key.tickSpacing;\n\n        // because `modifyPosition` includes not just principal value but also fees, we cannot allocate\n        // the proceeds pro-rata. if we were to do so, users who have been in a limit order that's partially filled\n        // could be unfairly diluted by a user sychronously placing then killing a limit order to skim off fees.\n        // to prevent this, we allocate all fee revenue to remaining limit order placers, unless this is the last order.\n        if (!removingAllLiquidity) {\n            BalanceDelta deltaFee = poolManager.modifyPosition(\n                key,\n                IPoolManager.ModifyPositionParams({tickLower: tickLower, tickUpper: tickUpper, liquidityDelta: 0}),\n                ZERO_BYTES\n            );\n\n            if (deltaFee.amount0() < 0) {\n                poolManager.mint(key.currency0, address(this), amount0Fee = uint128(-deltaFee.amount0()));\n            }\n            if (deltaFee.amount1() < 0) {\n                poolManager.mint(key.currency1, address(this), amount1Fee = uint128(-deltaFee.amount1()));\n            }\n        }\n\n        BalanceDelta delta = poolManager.modifyPosition(\n            key,\n            IPoolManager.ModifyPositionParams({\n                tickLower: tickLower,\n                tickUpper: tickUpper,\n                liquidityDelta: liquidityDelta\n            }),\n            ZERO_BYTES\n        );\n\n        if (delta.amount0() < 0) poolManager.take(key.currency0, to, amount0 = uint128(-delta.amount0()));\n        if (delta.amount1() < 0) poolManager.take(key.currency1, to, amount1 = uint128(-delta.amount1()));\n    }\n\n    function withdraw(Epoch epoch, address to) external returns (uint256 amount0, uint256 amount1) {\n        EpochInfo storage epochInfo = epochInfos[epoch];\n\n        if (!epochInfo.filled) revert NotFilled();\n\n        uint128 liquidity = epochInfo.liquidity[msg.sender];\n        if (liquidity == 0) revert ZeroLiquidity();\n        delete epochInfo.liquidity[msg.sender];\n\n        uint256 token0Total = epochInfo.token0Total;\n        uint256 token1Total = epochInfo.token1Total;\n        uint128 liquidityTotal = epochInfo.liquidityTotal;\n\n        amount0 = FullMath.mulDiv(token0Total, liquidity, liquidityTotal);\n        amount1 = FullMath.mulDiv(token1Total, liquidity, liquidityTotal);\n\n        epochInfo.token0Total = token0Total - amount0;\n        epochInfo.token1Total = token1Total - amount1;\n        epochInfo.liquidityTotal = liquidityTotal - liquidity;\n\n        poolManager.lock(\n            abi.encodeCall(this.lockAcquiredWithdraw, (epochInfo.currency0, epochInfo.currency1, amount0, amount1, to))\n        );\n\n        emit Withdraw(msg.sender, epoch, liquidity);\n    }\n\n    function lockAcquiredWithdraw(\n        Currency currency0,\n        Currency currency1,\n        uint256 token0Amount,\n        uint256 token1Amount,\n        address to\n    ) external selfOnly {\n        if (token0Amount > 0) {\n           /* poolManager.safeTransferFrom(\n                address(this), address(poolManager), uint256(uint160(Currency.unwrap(currency0))), token0Amount, \"\"\n            );*/\n            poolManager.take(currency0, to, token0Amount);\n        }\n        if (token1Amount > 0) {\n            /*poolManager.safeTransferFrom(\n                address(this), address(poolManager), uint256(uint160(Currency.unwrap(currency1))), token1Amount, \"\"\n            );*/\n            poolManager.take(currency1, to, token1Amount);\n        }\n    }\n\n    function onERC1155Received(address, address, uint256, uint256, bytes calldata) external view returns (bytes4) {\n        if (msg.sender != address(poolManager)) revert NotPoolManagerToken();\n        return IERC1155Receiver.onERC1155Received.selector;\n    }\n}\n",
  "sourcePath": "/home/stephensb/sb-labs/solidity-contracts/contracts/v4-periphery/contracts/hooks/examples/LimitOrder.sol",
  "compiler": {
    "name": "solc",
    "version": "0.8.28+commit.7893614a.Emscripten.clang"
  },
  "schemaVersion": "3.4.12",
  "updatedAt": "2024-12-18T07:36:00.883Z",
  "devdoc": {
    "errors": {
      "HookAddressNotValid(address)": [
        {
          "params": {
            "hooks": "The address of the hooks contract"
          }
        }
      ]
    },
    "kind": "dev",
    "methods": {},
    "version": 1
  },
  "userdoc": {
    "errors": {
      "HookAddressNotValid(address)": [
        {
          "notice": "Thrown if the address will not lead to the specified hook calls being called"
        }
      ]
    },
    "kind": "user",
    "methods": {
      "poolManager()": {
        "notice": "The address of the pool manager"
      }
    },
    "version": 1
  }
}