{
  "contractName": "LineaBridgeReceiver",
  "abi": [
    {
      "inputs": [
        {
          "internalType": "address",
          "name": "_messageService",
          "type": "address"
        }
      ],
      "stateMutability": "nonpayable",
      "type": "constructor"
    },
    {
      "inputs": [],
      "name": "AlreadyInitialized",
      "type": "error"
    },
    {
      "inputs": [],
      "name": "BadData",
      "type": "error"
    },
    {
      "inputs": [],
      "name": "FailedToSendNativeToken",
      "type": "error"
    },
    {
      "inputs": [],
      "name": "InvalidProposalId",
      "type": "error"
    },
    {
      "inputs": [],
      "name": "InvalidTimelockAdmin",
      "type": "error"
    },
    {
      "inputs": [],
      "name": "ProposalNotExecutable",
      "type": "error"
    },
    {
      "inputs": [],
      "name": "TransactionAlreadyQueued",
      "type": "error"
    },
    {
      "inputs": [],
      "name": "TransferOutFailed",
      "type": "error"
    },
    {
      "inputs": [],
      "name": "Unauthorized",
      "type": "error"
    },
    {
      "anonymous": false,
      "inputs": [
        {
          "indexed": true,
          "internalType": "address",
          "name": "govTimelock",
          "type": "address"
        },
        {
          "indexed": true,
          "internalType": "address",
          "name": "localTimelock",
          "type": "address"
        }
      ],
      "name": "Initialized",
      "type": "event"
    },
    {
      "anonymous": false,
      "inputs": [
        {
          "indexed": true,
          "internalType": "address",
          "name": "rootMessageSender",
          "type": "address"
        },
        {
          "indexed": false,
          "internalType": "uint256",
          "name": "id",
          "type": "uint256"
        },
        {
          "indexed": false,
          "internalType": "address[]",
          "name": "targets",
          "type": "address[]"
        },
        {
          "indexed": false,
          "internalType": "uint256[]",
          "name": "values",
          "type": "uint256[]"
        },
        {
          "indexed": false,
          "internalType": "string[]",
          "name": "signatures",
          "type": "string[]"
        },
        {
          "indexed": false,
          "internalType": "bytes[]",
          "name": "calldatas",
          "type": "bytes[]"
        },
        {
          "indexed": false,
          "internalType": "uint256",
          "name": "eta",
          "type": "uint256"
        }
      ],
      "name": "ProposalCreated",
      "type": "event"
    },
    {
      "anonymous": false,
      "inputs": [
        {
          "indexed": true,
          "internalType": "uint256",
          "name": "id",
          "type": "uint256"
        }
      ],
      "name": "ProposalExecuted",
      "type": "event"
    },
    {
      "stateMutability": "payable",
      "type": "fallback"
    },
    {
      "inputs": [
        {
          "internalType": "uint256",
          "name": "proposalId",
          "type": "uint256"
        }
      ],
      "name": "executeProposal",
      "outputs": [],
      "stateMutability": "nonpayable",
      "type": "function"
    },
    {
      "inputs": [],
      "name": "govTimelock",
      "outputs": [
        {
          "internalType": "address",
          "name": "",
          "type": "address"
        }
      ],
      "stateMutability": "view",
      "type": "function"
    },
    {
      "inputs": [
        {
          "internalType": "address",
          "name": "_govTimelock",
          "type": "address"
        },
        {
          "internalType": "address",
          "name": "_localTimelock",
          "type": "address"
        }
      ],
      "name": "initialize",
      "outputs": [],
      "stateMutability": "nonpayable",
      "type": "function"
    },
    {
      "inputs": [],
      "name": "initialized",
      "outputs": [
        {
          "internalType": "bool",
          "name": "",
          "type": "bool"
        }
      ],
      "stateMutability": "view",
      "type": "function"
    },
    {
      "inputs": [],
      "name": "localTimelock",
      "outputs": [
        {
          "internalType": "address",
          "name": "",
          "type": "address"
        }
      ],
      "stateMutability": "view",
      "type": "function"
    },
    {
      "inputs": [],
      "name": "messageService",
      "outputs": [
        {
          "internalType": "contract IMessageService",
          "name": "",
          "type": "address"
        }
      ],
      "stateMutability": "view",
      "type": "function"
    },
    {
      "inputs": [],
      "name": "proposalCount",
      "outputs": [
        {
          "internalType": "uint256",
          "name": "",
          "type": "uint256"
        }
      ],
      "stateMutability": "view",
      "type": "function"
    },
    {
      "inputs": [
        {
          "internalType": "uint256",
          "name": "",
          "type": "uint256"
        }
      ],
      "name": "proposals",
      "outputs": [
        {
          "internalType": "uint256",
          "name": "id",
          "type": "uint256"
        },
        {
          "internalType": "uint256",
          "name": "eta",
          "type": "uint256"
        },
        {
          "internalType": "bool",
          "name": "executed",
          "type": "bool"
        }
      ],
      "stateMutability": "view",
      "type": "function"
    },
    {
      "inputs": [
        {
          "internalType": "uint256",
          "name": "proposalId",
          "type": "uint256"
        }
      ],
      "name": "state",
      "outputs": [
        {
          "internalType": "enum BaseBridgeReceiver.ProposalState",
          "name": "",
          "type": "uint8"
        }
      ],
      "stateMutability": "view",
      "type": "function"
    },
    {
      "inputs": [
        {
          "internalType": "address",
          "name": "recipient",
          "type": "address"
        }
      ],
      "name": "sweepNativeToken",
      "outputs": [],
      "stateMutability": "nonpayable",
      "type": "function"
    },
    {
      "inputs": [
        {
          "internalType": "address",
          "name": "recipient",
          "type": "address"
        },
        {
          "internalType": "address",
          "name": "asset",
          "type": "address"
        }
      ],
      "name": "sweepToken",
      "outputs": [],
      "stateMutability": "nonpayable",
      "type": "function"
    }
  ],
  "bytecode": "0x60803461007457601f6118cf38819003918201601f19168301916001600160401b038311848410176100795780849260209460405283398101031261007457516001600160a01b0381169081900361007457600480546001600160a01b03191691909117905560405161183f90816100908239f35b600080fd5b634e487b7160e01b600052604160045260246000fdfe60806040526004361015610018575b610016610cf6565b005b60003560e01c8063013cf08b146100f45780630d61b519146100eb578063158ef93e146100e257806322086dbe146100d9578063258836fe146100d05780633e4f49e6146100c7578063485cc955146100be578063824343dd146100b55780638dae45dd146100ac578063b660c156146100a35763da35c6640361000e5761009e61069e565b61000e565b5061009e61061b565b5061009e6105f1565b5061009e6105c7565b5061009e610489565b5061009e610459565b5061009e610380565b5061009e61031d565b5061009e6102f6565b5061009e610142565b503461013d57602036600319011261013d5760043560005260036020526060604060002080549060ff600660058301549201541690604051928352602083015215156040820152f35b600080fd5b503461013d57602036600319011261013d576004803561016181610b67565b61016a81610439565b6102db57610182816000526003602052604060002090565b60068101805460ff19166001179055916003830192600191808201918381019160028201916005016000865b6101e0575b600088604051907f712ae1383f79ac853f8d882153778e0260ef8f03b504e2866e0593e04d2b291f8383a2f35b84548110156102d6576102a0818760008c8989838a8f9961026b816102648161025e8f8261024e61023961028a99610233610227610227610254975460018060a01b031690565b6001600160a01b031690565b9e61079f565b905460039190911b1c6001600160a01b031690565b9a61079f565b90549060031b1c90565b9961079f565b509961079f565b508c5490604051998a9889978896630825f38f60e01b88528701610963565b03925af180156102c9575b6102a6575b5061076c565b906101ae565b6102c2903d806000833e6102ba8183610711565b810190610834565b503861029a565b6102d1610748565b610295565b6101b3565b50604051633c7e994560e11b8152fd5b600091031261013d57565b503461013d57600036600319011261013d57602060ff60015460a01c166040519015158152f35b503461013d57600036600319011261013d576000546040516001600160a01b039091168152602090f35b6001600160a01b0381160361013d57565b604090600319011261013d5760043561037081610347565b9060243561037d81610347565b90565b503461013d5761038f36610358565b6001546103a4906001600160a01b0316610227565b3303610428576040516370a0823160e01b81523060048201526100169290916020836024816001600160a01b0385165afa92831561041b575b6000936103eb575b50610c4a565b61040d91935060203d8111610414575b6104058183610711565b810190610b4c565b91386103e5565b503d6103fb565b610423610748565b6103dd565b6040516282b42960e81b8152600490fd5b6003111561044357565b634e487b7160e01b600052602160045260246000fd5b503461013d57602036600319011261013d57610476600435610b67565b6040516003821015610443576020918152f35b503461013d5761049836610358565b906104a960015460ff9060a01c1690565b6105b6576040516303e1469160e61b81526001600160a01b0383811691602081600481865afa9081156105a9575b60009161057b575b50813091160361056957600080546001600160a01b0319166001600160a01b0385161781559361052b9060018060a01b03166bffffffffffffffffffffffff60a01b6001541617600155565b6001805460ff60a01b1916600160a01b17905560405192167f3cd5ec01b1ae7cfec6ca1863e2cd6aa25d6d1702825803ff2b7cc95010fffdc28484a3f35b6040516336e038cd60e21b8152600490fd5b61059c915060203d81116105a2575b6105948183610711565b810190610733565b386104df565b503d61058a565b6105b1610748565b6104d7565b60405162dc149f60e41b8152600490fd5b503461013d57600036600319011261013d576001546040516001600160a01b039091168152602090f35b503461013d57600036600319011261013d576004546040516001600160a01b039091168152602090f35b503461013d57602036600319011261013d5760043561063981610347565b6001546001600160a01b0316330361042857600080809247604051915af13d15610699573d610667816107d4565b906106756040519283610711565b8152600060203d92013e5b1561068757005b60405163d1a4579f60e01b8152600490fd5b610680565b503461013d57600036600319011261013d576020600254604051908152f35b50634e487b7160e01b600052604160045260246000fd5b60e0810190811067ffffffffffffffff8211176106f057604052565b6106f86106bd565b604052565b67ffffffffffffffff81116106f057604052565b90601f8019910116810190811067ffffffffffffffff8211176106f057604052565b9081602091031261013d575161037d81610347565b506040513d6000823e3d90fd5b50634e487b7160e01b600052601160045260246000fd5b600190600019811461077c570190565b610784610755565b0190565b50634e487b7160e01b600052603260045260246000fd5b80548210156107b8575b60005260206000200190600090565b6107c0610788565b6107a9565b604051906107d2826106d4565b565b60209067ffffffffffffffff81116107f2575b601f01601f19160190565b6107fa6106bd565b6107e7565b918091926000905b82821061081f575011610818575050565b6000910152565b91508060209183015181860152018291610807565b60208183031261013d5780519067ffffffffffffffff821161013d570181601f8201121561013d578051610867816107d4565b926108756040519485610711565b8184526020828401011161013d5761037d91602080850191016107ff565b90600182811c921680156108c3575b60208310146108ad57565b634e487b7160e01b600052602260045260246000fd5b91607f16916108a2565b90600092918054916108de83610893565b9182825260019384811690816000146109405750600114610900575b50505050565b90919394506000526020928360002092846000945b83861061092c5750505050010190388080806108fa565b805485870183015294019385908201610915565b9294505050602093945060ff191683830152151560051b010190388080806108fa565b959493906080936109a0936109929260018060a01b03168952602089015260a0604089015260a08801906108cd565b9086820360608801526108cd565b930152565b9060405191828154918282526020928383019160005283600020936000905b8282106109da575050506107d292500383610711565b8554845260019586019588955093810193909101906109c4565b60209067ffffffffffffffff8111610a0e575b60051b0190565b610a166106bd565b610a07565b908154610a27816109f4565b92604093610a3785519182610711565b828152809460208092019260005281600020906000935b858510610a5d57505050505050565b60018481928451610a7981610a72818a6108cd565b0382610711565b815201930194019391610a4e565b90604051610a94816106d4565b8092805482526001808201604051908192815490818452602080940192600052836000209160005b818110610b3057505050506107d2949383610b2993610ae160c0966006950383610711565b860152610af0600282016109a5565b6040860152610b0160038201610a1b565b6060860152610b1260048201610a1b565b6080860152600581015460a0860152015460ff1690565b1515910152565b83546001600160a01b0316855293850193928201928201610abc565b9081602091031261013d575190565b8119811161077c570190565b60025481118015610c42575b610c3057610b8e610b93916000526003602052604060002090565b610a87565b60c081015115610ba35750600290565b60a00151600154610bf291600491602090610bc890610227906001600160a01b031681565b6040516360d143f160e11b815293849182905afa918215610c23575b600092610c03575b50610b5b565b421115610bfe57600190565b600090565b610c1c91925060203d8111610414576104058183610711565b9038610bec565b610c2b610748565b610be4565b604051630992f7ad60e01b8152600490fd5b508015610b73565b6001600160a01b03939290841690813b1561013d5760405194859363a9059cbb60e01b855216600484015260248301528160446000958680945af18015610ce9575b610cd0575b503d8015610cc557602014610ca4575080fd5b90602081803e515b15610cb357565b60405163cefaffeb60e01b8152600490fd5b509050600019610cac565b80610cdd610ce3926106fd565b806102eb565b38610c91565b610cf1610748565b610c8c565b600480549091906001600160a01b03908116338190036110b557604080519283926333f2026760e11b8452838760209586935afa9384156110a8575b600094611089575b50600054610d50906001600160a01b0316610227565b931692830361107b57610d62366111ed565b9792948291925186510361106b57825186510361106b57885186510361106b57600193610dca8183610da06102276102278a5460018060a01b031690565b8951630d48571f60e31b815292839182905afa90811561105e575b600091611041575b5042610b5b565b946000815b610e74575b505050917f216ba108683905cf17ff4c7b04b9711edbdf8ebf5cc06eeecee4b5d5e7c3c6d29697989186610e63610e6f9695610e19610e1460025461076c565b600255565b610e5e600254610e276107c5565b948593828552840152858b8401528660608401528760808401528860a0840152600060c08401526000526003602052604060002090565b61160c565b51955196879687611783565b0390a2565b885181101561103c578084818a8f828c8f928d8d84958c54610e9b9060018060a01b031690565b6001600160a01b03169a610eae916112c5565b516001600160a01b031694610ec2916112c5565b5196610ecd916112c5565b5193610ed8916112c5565b51935193849387850196610eec948861130c565b03601f1981018252610efe9082610711565b5190208a5163f2b0653760e01b81528681019182529283918290819060200103915a90600091f190811561102f575b600091611002575b50610ff257610fc9818d86898d8a60008f8f610fb4908d92610f998b8f9e8f90610f9281610f8c610f7f82610f79610227610227610f92995460018060a01b031690565b9f6112c5565b516001600160a01b031690565b9b6112c5565b519b6112c5565b519051633a66f90160e01b8152998a9889978896870161130c565b03925af18015610fe5575b610fcf575061076c565b90610dcf565b6102c290873d8911610414576104058183610711565b610fed610748565b610fbf565b87516333108cbb60e01b81528390fd5b6110229150853d8711611028575b61101a8183610711565b810190611349565b38610f35565b503d611010565b611037610748565b610f2d565b610dd4565b6110589150843d8611610414576104058183610711565b38610dc3565b611066610748565b610dbb565b845163a554dcdf60e01b81528490fd5b516282b42960e81b81528490fd5b6110a1919450833d85116105a2576105948183610711565b9238610d3a565b6110b0610748565b610d32565b6040516282b42960e81b81528490fd5b81601f8201121561013d578035916110dc836109f4565b926110ea6040519485610711565b808452602092838086019260051b82010192831161013d578301905b828210611114575050505090565b81358152908301908301611106565b92919261112f826107d4565b9161113d6040519384610711565b82948184528183011161013d578281602093846000960137010152565b81601f8201121561013d57803590611171826109f4565b9260409261118184519586610711565b808552602093848087019260051b8501019383851161013d57858101925b8584106111b0575050505050505090565b833567ffffffffffffffff811161013d57820185603f8201121561013d5787916111e287838786809601359101611123565b81520193019261119f565b6080811261013d57600080359267ffffffffffffffff928385116112c15780601f860112156112c157843594611222866109f4565b906112306040519283610711565b868252602096878084019160051b830101918483116112bd579088809201905b8382106112a4575050505094358481116112a0578161126e916110c5565b9360403581811161129c57826112839161115a565b9360603591821161129957509061037d9161115a565b80fd5b8480fd5b8380fd5b82809183356112b281610347565b815201910190611250565b8680fd5b8280fd5b60209181518110156112da575b60051b010190565b6112e2610788565b6112d2565b90602091611300815180928185528580860191016107ff565b601f01601f1916010190565b959493906080936109a09361133b9260018060a01b03168952602089015260a0604089015260a08801906112e7565b9086820360608801526112e7565b9081602091031261013d5751801515810361013d5790565b81811061136c575050565b60008155600101611361565b9181811061138557505050565b6107d29260005260206000209182019101611361565b815191600160401b83116113ed575b6113b983835481855584611378565b602080910191600052806000206000925b8484106113d8575050505050565b600183828293518555019201930192906113ca565b6113f56106bd565b6113aa565b9190601f811161140957505050565b6107d2926000526020600020906020601f840160051c83019310611435575b601f0160051c0190611361565b9091508190611428565b919091825167ffffffffffffffff811161150f575b611468816114628454610893565b846113fa565b602080601f83116001146114a4575081929394600092611499575b50508160011b916000199060031b1c1916179055565b015190503880611483565b90601f198316956114ba85600052602060002090565b926000905b8882106114f7575050836001959697106114de575b505050811b019055565b015160001960f88460031b161c191690553880806114d4565b806001859682949686015181550195019301906114bf565b6115176106bd565b611454565b815191600160401b83116115ff575b815483835580841061157b575b5061154d602080920192600052602060002090565b6000925b84841061155f575050505050565b6001838261156f8394518661143f565b01920193019290611551565b6000838152846020822092830192015b828110611599575050611538565b806115a660019254610893565b806115b3575b500161158b565b601f9081811184146115cb5750508281555b386115ac565b836115ed926115df85600052602060002090565b920160051c82019101611361565b600081815260208120818355556115c5565b6116076106bd565b61152b565b90805182556001808301602090818401519180835193600160401b85116116e6575b61163d85855481875586611378565b0191600052806000206000925b8484106116ba575050505050509060066116a760c08461167460406107d29701516002870161139b565b61168560608201516003870161151c565b61169660808201516004870161151c565b60a081015160058601550151151590565b91019060ff801983541691151516179055565b805182546001600160a01b0319166001600160a01b03919091161782559285019290850190820161164a565b6116ee6106bd565b61162e565b90815180825260208080930193019160005b828110611713575050505090565b835185529381019392810192600101611705565b908082519081815260208091019281808460051b8301019501936000915b8483106117555750505050505090565b9091929394958480611773600193601f198682030187528a516112e7565b9801930193019194939290611745565b96959493929060c0880190885260209060c0828a015283518091528160e08a0194019160005b8281106117ec57505050506109a0926117d0836117de938a60a098960360408c01526116f3565b9088820360608a0152611727565b908682036080880152611727565b83516001600160a01b0316865294810194928101926001016117a956fea264697066735822122093bc80c36c5f57d55d5bfdb5618552ef2eab62cf9e544147e736093dbe00e81c64736f6c634300080f0033",
  "immutableReferences": {},
  "source": "// SPDX-License-Identifier: BUSL-1.1\npragma solidity 0.8.15;\n\nimport \"./IMessageService.sol\";\nimport \"../SweepableBridgeReceiver.sol\";\n\ncontract LineaBridgeReceiver is SweepableBridgeReceiver {\n    /// @notice Address of Linea Message Service\n    IMessageService public messageService;\n\n    constructor(address _messageService) {\n        messageService = IMessageService(_messageService);\n    }\n\n    fallback() external payable {\n        if (msg.sender != address(messageService)) revert Unauthorized();\n        processMessage(messageService.sender(), msg.data);\n    }\n}\n",
  "sourcePath": "/home/stephensb/sb-labs/solidity-contracts/contracts/comet/contracts/bridges/linea/LineaBridgeReceiver.sol",
  "compiler": {
    "name": "solc",
    "version": "0.8.15+commit.e14f2714.Emscripten.clang"
  },
  "schemaVersion": "3.4.12",
  "updatedAt": "2023-11-30T22:41:29.683Z",
  "devdoc": {
    "kind": "dev",
    "methods": {
      "executeProposal(uint256)": {
        "params": {
          "proposalId": "The id of the proposal to execute"
        }
      },
      "initialize(address,address)": {
        "params": {
          "_govTimelock": "Address of the governing contract that this contract will receive messages from (likely on another chain)",
          "_localTimelock": "Address of the timelock contract that this contract will send messages to"
        }
      },
      "state(uint256)": {
        "params": {
          "proposalId": "Id of the proposal"
        },
        "returns": {
          "_0": "The state of the given proposal (queued, expired or executed)"
        }
      },
      "sweepNativeToken(address)": {
        "params": {
          "recipient": "The address that will receive the swept funds"
        }
      },
      "sweepToken(address,address)": {
        "details": "Note: Make sure to check that the asset being swept out is not malicious",
        "params": {
          "asset": "The address of the ERC-20 token to sweep",
          "recipient": "The address that will receive the swept funds"
        }
      }
    },
    "version": 1
  },
  "userdoc": {
    "errors": {
      "AlreadyInitialized()": [
        {
          "notice": "Custom errors *"
        }
      ]
    },
    "events": {
      "Initialized(address,address)": {
        "notice": "Events *"
      }
    },
    "kind": "user",
    "methods": {
      "executeProposal(uint256)": {
        "notice": "Execute a queued proposal"
      },
      "govTimelock()": {
        "notice": "Address of the governing contract that this bridge receiver expects to  receive messages from; likely an address from another chain (e.g. mainnet)"
      },
      "initialize(address,address)": {
        "notice": "Initialize the contract"
      },
      "initialized()": {
        "notice": "Whether contract has been initialized"
      },
      "localTimelock()": {
        "notice": "Address of the timelock on this chain that the bridge receiver will send messages to"
      },
      "messageService()": {
        "notice": "Address of Linea Message Service"
      },
      "proposalCount()": {
        "notice": "Total count of proposals generated"
      },
      "proposals(uint256)": {
        "notice": "Mapping of proposal ids to their full proposal data"
      },
      "state(uint256)": {
        "notice": "Get the state of a proposal"
      },
      "sweepNativeToken(address)": {
        "notice": "A public function to sweep accidental native token transfers to this contract"
      },
      "sweepToken(address,address)": {
        "notice": "A public function to sweep accidental ERC-20 transfers to this contract"
      }
    },
    "version": 1
  }
}