{
  "contractName": "LiquidatableQuery",
  "abi": [
    {
      "inputs": [
        {
          "internalType": "contract CometMainInterface",
          "name": "comet",
          "type": "address"
        },
        {
          "internalType": "address[]",
          "name": "accounts",
          "type": "address[]"
        }
      ],
      "name": "query",
      "outputs": [
        {
          "internalType": "uint256",
          "name": "",
          "type": "uint256"
        },
        {
          "internalType": "bool[]",
          "name": "",
          "type": "bool[]"
        }
      ],
      "stateMutability": "view",
      "type": "function"
    }
  ],
  "bytecode": "0x6080806040523461001657610269908161001c8239f35b600080fdfe604060808152600490600436101561001657600080fd5b600090813560e01c63b1a241351461002d57600080fd5b346101df57806003193601126101df576001600160a01b03600435818116949193908590036101dc57602467ffffffffffffffff81358181116101d857366023820112156101d85780600401359182116101d8576005943660248460051b840101116101d4576100a28399989795969961021b565b976100af8651998a6101e3565b8389526100bb8461021b565b60209a8a8c019991601f1901368b37885b86811061011b578c8c8c8c8c80519485948286019243875282870152518092526060850193925b82811061010257505050500390f35b83511515855286955093810193928101926001016100f3565b80829d9a999b9c9d1b8881880101358481168091036101bf578c519063042e02cf60e01b8252878201528b818b81895afa9081156101ca578f908c9261018d575b505183101561017b571515908e018b0152989b9a9997986001016100cc565b634e487b7160e01b8b5260328752898bfd5b8092508d8092503d83116101c3575b6101a681836101e3565b810103126101bf575180151581036101bf578e3861015c565b8a80fd5b503d61019c565b8d513d8d823e3d90fd5b8480fd5b8380fd5b80fd5b5080fd5b90601f8019910116810190811067ffffffffffffffff82111761020557604052565b634e487b7160e01b600052604160045260246000fd5b67ffffffffffffffff81116102055760051b6020019056fea26469706673582212209cd75df9288ffeb41c8df1ea1adc8e3960116fb3b447038163b626188832034864736f6c63430008170033",
  "immutableReferences": {},
  "source": "// SPDX-License-Identifier: BUSL-1.1\npragma solidity ^0.8.15;\n\nimport \"../CometMainInterface.sol\";\n\ncontract LiquidatableQuery {\n  function query(CometMainInterface comet, address[] calldata accounts) public view returns (uint256, bool[] memory) {\n    bool[] memory responses = new bool[](accounts.length);\n    for (uint256 i = 0; i < accounts.length; i++) {\n      responses[i] = comet.isLiquidatable(accounts[i]);\n    }\n    return (block.number, responses);\n  }\n}\n",
  "sourcePath": "/home/stephensb/sb-labs/solidity-contracts/contracts/comet/liquidator/LiquidatableQuery.sol",
  "compiler": {
    "name": "solc",
    "version": "0.8.23+commit.f704f362.Emscripten.clang"
  },
  "schemaVersion": "3.4.12",
  "updatedAt": "2023-11-27T23:49:18.141Z",
  "devdoc": {
    "kind": "dev",
    "methods": {},
    "version": 1
  },
  "userdoc": {
    "kind": "user",
    "methods": {},
    "version": 1
  }
}