{
  "contractName": "MainnetBulker",
  "abi": [
    {
      "inputs": [
        {
          "internalType": "address",
          "name": "admin_",
          "type": "address"
        },
        {
          "internalType": "address payable",
          "name": "weth_",
          "type": "address"
        },
        {
          "internalType": "address",
          "name": "wsteth_",
          "type": "address"
        }
      ],
      "stateMutability": "nonpayable",
      "type": "constructor"
    },
    {
      "inputs": [],
      "name": "FailedToSendNativeToken",
      "type": "error"
    },
    {
      "inputs": [],
      "name": "InvalidAddress",
      "type": "error"
    },
    {
      "inputs": [],
      "name": "InvalidArgument",
      "type": "error"
    },
    {
      "inputs": [],
      "name": "TransferInFailed",
      "type": "error"
    },
    {
      "inputs": [],
      "name": "TransferOutFailed",
      "type": "error"
    },
    {
      "inputs": [],
      "name": "Unauthorized",
      "type": "error"
    },
    {
      "inputs": [],
      "name": "UnhandledAction",
      "type": "error"
    },
    {
      "inputs": [],
      "name": "UnsupportedBaseAsset",
      "type": "error"
    },
    {
      "anonymous": false,
      "inputs": [
        {
          "indexed": true,
          "internalType": "address",
          "name": "oldAdmin",
          "type": "address"
        },
        {
          "indexed": true,
          "internalType": "address",
          "name": "newAdmin",
          "type": "address"
        }
      ],
      "name": "AdminTransferred",
      "type": "event"
    },
    {
      "inputs": [],
      "name": "ACTION_CLAIM_REWARD",
      "outputs": [
        {
          "internalType": "bytes32",
          "name": "",
          "type": "bytes32"
        }
      ],
      "stateMutability": "view",
      "type": "function"
    },
    {
      "inputs": [],
      "name": "ACTION_SUPPLY_ASSET",
      "outputs": [
        {
          "internalType": "bytes32",
          "name": "",
          "type": "bytes32"
        }
      ],
      "stateMutability": "view",
      "type": "function"
    },
    {
      "inputs": [],
      "name": "ACTION_SUPPLY_NATIVE_TOKEN",
      "outputs": [
        {
          "internalType": "bytes32",
          "name": "",
          "type": "bytes32"
        }
      ],
      "stateMutability": "view",
      "type": "function"
    },
    {
      "inputs": [],
      "name": "ACTION_SUPPLY_STETH",
      "outputs": [
        {
          "internalType": "bytes32",
          "name": "",
          "type": "bytes32"
        }
      ],
      "stateMutability": "view",
      "type": "function"
    },
    {
      "inputs": [],
      "name": "ACTION_TRANSFER_ASSET",
      "outputs": [
        {
          "internalType": "bytes32",
          "name": "",
          "type": "bytes32"
        }
      ],
      "stateMutability": "view",
      "type": "function"
    },
    {
      "inputs": [],
      "name": "ACTION_WITHDRAW_ASSET",
      "outputs": [
        {
          "internalType": "bytes32",
          "name": "",
          "type": "bytes32"
        }
      ],
      "stateMutability": "view",
      "type": "function"
    },
    {
      "inputs": [],
      "name": "ACTION_WITHDRAW_NATIVE_TOKEN",
      "outputs": [
        {
          "internalType": "bytes32",
          "name": "",
          "type": "bytes32"
        }
      ],
      "stateMutability": "view",
      "type": "function"
    },
    {
      "inputs": [],
      "name": "ACTION_WITHDRAW_STETH",
      "outputs": [
        {
          "internalType": "bytes32",
          "name": "",
          "type": "bytes32"
        }
      ],
      "stateMutability": "view",
      "type": "function"
    },
    {
      "inputs": [],
      "name": "admin",
      "outputs": [
        {
          "internalType": "address",
          "name": "",
          "type": "address"
        }
      ],
      "stateMutability": "view",
      "type": "function"
    },
    {
      "inputs": [
        {
          "internalType": "bytes32[]",
          "name": "actions",
          "type": "bytes32[]"
        },
        {
          "internalType": "bytes[]",
          "name": "data",
          "type": "bytes[]"
        }
      ],
      "name": "invoke",
      "outputs": [],
      "stateMutability": "payable",
      "type": "function"
    },
    {
      "inputs": [],
      "name": "steth",
      "outputs": [
        {
          "internalType": "address",
          "name": "",
          "type": "address"
        }
      ],
      "stateMutability": "view",
      "type": "function"
    },
    {
      "inputs": [
        {
          "internalType": "address",
          "name": "recipient",
          "type": "address"
        }
      ],
      "name": "sweepNativeToken",
      "outputs": [],
      "stateMutability": "nonpayable",
      "type": "function"
    },
    {
      "inputs": [
        {
          "internalType": "address",
          "name": "recipient",
          "type": "address"
        },
        {
          "internalType": "address",
          "name": "asset",
          "type": "address"
        }
      ],
      "name": "sweepToken",
      "outputs": [],
      "stateMutability": "nonpayable",
      "type": "function"
    },
    {
      "inputs": [
        {
          "internalType": "address",
          "name": "newAdmin",
          "type": "address"
        }
      ],
      "name": "transferAdmin",
      "outputs": [],
      "stateMutability": "nonpayable",
      "type": "function"
    },
    {
      "inputs": [],
      "name": "wrappedNativeToken",
      "outputs": [
        {
          "internalType": "address payable",
          "name": "",
          "type": "address"
        }
      ],
      "stateMutability": "view",
      "type": "function"
    },
    {
      "inputs": [],
      "name": "wsteth",
      "outputs": [
        {
          "internalType": "address",
          "name": "",
          "type": "address"
        }
      ],
      "stateMutability": "view",
      "type": "function"
    },
    {
      "stateMutability": "payable",
      "type": "receive"
    }
  ],
  "bytecode": "0x60e080604052346200015c5760608162001979803803809162000023828562000161565b8339810103126200015c5762000039816200019b565b60208201516001600160a01b03929083811681036200015c5760048491620000666040602095016200019b565b600080546001600160a01b0319169690971695909517865560805260c084905260405163183fc7c960e31b81529493859283918691165af19182156200014f57819262000107575b8260a0526040516117c89081620001b1823960805181818161018b01528181610b9e0152610e55015260a05181818161064e015281816112e501526114b9015260c051818181610817015281816111e0015261147b0152f35b9091506020813d821162000146575b81620001256020938362000161565b8101031262000142576200013a91506200019b565b3880620000ae565b5080fd5b3d915062000116565b50604051903d90823e3d90fd5b600080fd5b601f909101601f19168101906001600160401b038211908210176200018557604052565b634e487b7160e01b600052604160045260246000fd5b51906001600160a01b03821682036200015c5756fe6080604052600436101561001b575b361561001957600080fd5b005b60003560e01c806317fcb39b1461015b5780631aa7c53e14610152578063258836fe14610149578063555029a61461014057806375829def14610137578063953d7ee21461012e5780639860d6e6146101255780639f2929151461011c578063b660c15614610113578063b69d34151461010a578063b8ef9d9814610101578063c7f6d7b5146100f8578063cc157905146100ef578063d1d8bce7146100e6578063d69adac4146100dd5763f851a4400361000e576100d8610882565b61000e565b506100d8610846565b506100d8610800565b506100d86107c4565b506100d8610791565b506100d861075e565b506100d861072b565b506100d86106e7565b506100d86106b2565b506100d861067d565b506100d8610637565b506100d86105a6565b506100d86102fc565b506100d8610200565b506100d86101ba565b506100d8610174565b600091031261016f57565b600080fd5b503461016f57600036600319011261016f576040517f00000000000000000000000000000000000000000000000000000000000000006001600160a01b03168152602090f35b503461016f57600036600319011261016f57604051741050d51253d397d514905394d1915497d054d4d155605a1b8152602090f35b6001600160a01b0381160361016f57565b503461016f57604036600319011261016f5760043561021e816101ef565b60243561022a816101ef565b6000546001600160a01b031633036102ba576040516370a0823160e01b81523060048201526100199290916020836024816001600160a01b0385165afa9283156102ad575b60009361027d575b50611082565b61029f91935060203d81116102a6575b61029781836108e4565b810190610906565b9138610277565b503d61028d565b6102b5610915565b61026f565b6040516282b42960e81b8152600490fd5b9181601f8401121561016f5782359167ffffffffffffffff831161016f576020808501948460051b01011161016f57565b50604036600319011261016f5767ffffffffffffffff60043581811161016f5761032a9036906004016102cb565b9160243590811161016f576103439036906004016102cb565b9081840361059457349360005b81811061038d57858061035f57005b600080809260405190335af1610373610922565b501561037b57005b60405163d1a4579f60e01b8152600490fd5b610398818387610987565b35721050d51253d397d4d55414131657d054d4d155606a1b81036103ee5750806103e86103d36103cb60019488886109a5565b810190610a72565b9290868060a01b038080921693169116610af5565b01610350565b9095907f414354494f4e5f535550504c595f4e41544956455f544f4b454e0000000000008103610457575061045060019161044a6104386104308a89896109a5565b810190610a45565b9190868060a01b038091169116610b83565b90610aa9565b955b6103e8565b9095600191741050d51253d397d514905394d1915497d054d4d155605a1b81036104a2575061045261048d6103cb8388886109a5565b9290868060a01b038080921693169116610dce565b741050d51253d397d5d2551211149055d7d054d4d155605a1b81036104e857506104526104d36103cb8388886109a5565b9290868060a01b038080921693169116610e08565b7f414354494f4e5f57495448445241575f4e41544956455f544f4b454e00000000810361053357506104526105216104308388886109a5565b9190858060a01b038091169116610e42565b721050d51253d397d0d310525357d49155d05491606a1b810361057f575061045261056a6105628388886109a5565b8101906109ff565b9290868060a01b038080921693169116611030565b6104529061058e8388886109a5565b91611133565b60405163a9cb9e0d60e01b8152600490fd5b503461016f57602036600319011261016f576004356105c4816101ef565b600054906001600160a01b0380831691338390036102ba5716801561062557806000936bffffffffffffffffffffffff60a01b16178355604051917ff8ccb027dfcd135e000e9d45e6cc2d662578a8825d4c45b5e32e0adf67e79ec68484a3f35b60405163e6c4247b60e01b8152600490fd5b503461016f57600036600319011261016f576040517f00000000000000000000000000000000000000000000000000000000000000006001600160a01b03168152602090f35b503461016f57600036600319011261016f57604051741050d51253d397d5d2551211149055d7d054d4d155605a1b8152602090f35b503461016f57600036600319011261016f576040517408286a8929e9cbeae92a89088a482aebea6a88aa89605b1b8152602090f35b503461016f57602036600319011261016f57600435610705816101ef565b6000546001600160a01b031633036102ba57600080809247604051915af1610373610922565b503461016f57600036600319011261016f576040517208286a8929e9cbea6aaa0a098b2bea6a88aa89606b1b8152602090f35b503461016f57600036600319011261016f57604051721050d51253d397d4d55414131657d054d4d155606a1b8152602090f35b503461016f57600036600319011261016f57604051721050d51253d397d0d310525357d49155d05491606a1b8152602090f35b503461016f57600036600319011261016f5760206040517f414354494f4e5f535550504c595f4e41544956455f544f4b454e0000000000008152f35b503461016f57600036600319011261016f576040517f00000000000000000000000000000000000000000000000000000000000000006001600160a01b03168152602090f35b503461016f57600036600319011261016f5760206040517f414354494f4e5f57495448445241575f4e41544956455f544f4b454e000000008152f35b503461016f57600036600319011261016f576000546040516001600160a01b039091168152602090f35b50634e487b7160e01b600052604160045260246000fd5b67ffffffffffffffff81116108d757604052565b6108df6108ac565b604052565b90601f8019910116810190811067ffffffffffffffff8211176108d757604052565b9081602091031261016f575190565b506040513d6000823e3d90fd5b3d1561096b573d9067ffffffffffffffff821161095e575b60405191610952601f8201601f1916602001846108e4565b82523d6000602084013e565b6109666108ac565b61093a565b606090565b50634e487b7160e01b600052603260045260246000fd5b9190811015610998575b60051b0190565b6109a0610970565b610991565b91908110156109e8575b60051b81013590601e198136030182121561016f57019081359167ffffffffffffffff831161016f57602001823603811361016f579190565b6109f0610970565b6109af565b8015150361016f57565b919082608091031261016f578135610a16816101ef565b916020810135610a25816101ef565b9160606040830135610a36816101ef565b920135610a42816109f5565b90565b9081606091031261016f578035610a5b816101ef565b9160406020830135610a6c816101ef565b92013590565b919082608091031261016f578135610a89816101ef565b916020810135610a98816101ef565b9160606040830135610a6c816101ef565b818110610ab4570390565b634e487b7160e01b600052601160045260246000fd5b6001600160a01b03918216815291811660208301529091166040820152606081019190915260800190565b919290916001600160a01b0316803b1561016f57610b2f936000809460405196879586948593639032317760e01b85523360048601610aca565b03925af18015610b4c575b610b415750565b610b4a906108c3565b565b610b54610915565b610b3a565b9081602091031261016f5751610a42816101ef565b9081602091031261016f5751610a42816109f5565b60405163c55dae6360e01b81526001600160a01b03808316937f0000000000000000000000000000000000000000000000000000000000000000939092602092879084836004818b5afa928315610dc1575b600093610d92575b5080871692168214610d24575b50803b1561016f57868391610c5593604051630d0e30db60e41b815260008160048187875af18015610d17575b610d04575b5060405163095ea7b360e01b81526001600160a01b03909116600482015260248101929092529092839190829060009082906044820190565b03925af18015610cf7575b610cc9575b5050823b1561016f57610c969260009283869360405196879586948593639032317760e01b85523060048601610aca565b03925af18015610cbc575b610ca9575090565b80610cb6610a42926108c3565b80610164565b610cc4610915565b610ca1565b81610ce892903d10610cf0575b610ce081836108e4565b810190610b6e565b503880610c65565b503d610cd6565b610cff610915565b610c60565b80610cb6610d11926108c3565b38610c1c565b610d1f610915565b610c17565b60001914610d33575b38610bea565b604051630dd3126d60e21b81523360048201529096508281602481895afa908115610d85575b600091610d68575b5095610d2d565b610d7f9150833d85116102a65761029781836108e4565b38610d61565b610d8d610915565b610d59565b610db3919350853d8711610dba575b610dab81836108e4565b810190610b59565b9138610bdd565b503d610da1565b610dc9610915565b610bd5565b919290916001600160a01b0316803b1561016f57610b2f93600080946040519687958694859363183dc58360e31b85523360048601610aca565b919290916001600160a01b0316803b1561016f57610b2f9360008094604051968795869485936304c8826360e31b85523360048601610aca565b6040805163c55dae6360e01b81529093917f0000000000000000000000000000000000000000000000000000000000000000906001600160a01b039081169060209085908286600481875afa958615611023575b600096611004575b5080851695168514610f94575b5050803b1561016f5783600091610eda938389518096819582946304c8826360e31b8452303360048601610aca565b03925af18015610f87575b610f74575b50803b1561016f57600092839283928387518092632e1a7d4d60e01b8252818381610f1d88600483019190602083019252565b03925af18015610f67575b610f54575b508551915af1610f3b610922565b5015610f445750565b5163d1a4579f60e01b8152600490fd5b80610cb6610f61926108c3565b38610f2d565b610f6f610915565b610f28565b80610cb6610f81926108c3565b38610eea565b610f8f610915565b610ee5565b60001914610fa3575b80610eab565b86516370a0823160e01b8152336004820152919450908181602481885afa918215610ff7575b600092610fda575b50509238610f9d565b610ff09250803d106102a65761029781836108e4565b3880610fd1565b610fff610915565b610fc9565b61101c919650833d8511610dba57610dab81836108e4565b9438610e9e565b61102b610915565b610e96565b9192916001600160a01b0391821690813b1561016f5760006064928195856040519889978896635b81a7bf60e11b8852166004870152166024850152151560448401525af18015610b4c57610b415750565b9092916001600160a01b0390911690813b1561016f5760405163a9059cbb60e01b81526001600160a01b0394909416600485015260248401526000929083908290604490829084905af18015611126575b611117575b503d801561110c576020146110eb575080fd5b90602081803e515b156110fa57565b60405163cefaffeb60e01b8152600490fd5b5090506000196110f3565b611120906108c3565b386110d8565b61112e610915565b6110d3565b7208286a8929e9cbea6aaa0a098b2bea6a88aa89606b1b8103611174575080610b4a92611161920190610a45565b916001600160a01b03918216911661143a565b7408286a8929e9cbeae92a89088a482aebea6a88aa89605b1b036114285761119e91810190610a45565b6040805163c55dae6360e01b81526001600160a01b03948516946020949093909291906004908590878484818c5afa93841561141b575b6000946113fc575b507f000000000000000000000000000000000000000000000000000000000000000093828516921682146113ec5760009088600019820361138f5750508451632e12a4f760e11b8152338482019081526001600160a01b03861660208201526001600160801b03925089908290819060400103818d5afa908115611382575b600091611355575b5016915b883b1561016f5760008561129e8286610b4a9d8d99836112cc9c518096819582946304c8826360e31b8452308d33908601610aca565b03925af18015611348575b611335575b5051809681958294636f074d1f60e11b845283019190602083019252565b03925af1938415611328575b600094611309575b5050167f0000000000000000000000000000000000000000000000000000000000000000611082565b611320929450803d106102a65761029781836108e4565b9138806112e0565b611330610915565b6112d8565b80610cb6611342926108c3565b386112ae565b611350610915565b6112a9565b6113759150893d8b1161137b575b61136d81836108e4565b810190611773565b38611264565b503d611363565b61138a610915565b61125c565b865162b0e38960e81b815285810192835291829081906020010381865afa9182156113df575b916113c2575b5091611268565b6113d99150883d8a116102a65761029781836108e4565b386113bb565b6113e7610915565b6113b5565b84516382d6580f60e01b81528390fd5b611414919450883d8a11610dba57610dab81836108e4565b92386111dd565b611423610915565b6111d5565b60405163fb90de7160e01b8152600490fd5b6040805163c55dae6360e01b815293949360049390926001600160a01b03808216939160209182878981895afa9687156116ab575b60009761168c575b50807f000000000000000000000000000000000000000000000000000000000000000097818916928391161461167c57838b611514826115439d9e8d958d60007f0000000000000000000000000000000000000000000000000000000000000000926114e48533866116b8565b8d5180978196829563095ea7b360e01b9d8e8552840160209093929193604081019460018060a01b031681520152565b0393165af1801561166f575b611652575b508651809c8192630ea598cb60e41b83528d83019190602083019252565b03816000865af1998a15611645575b60009a611619575b5084519081526001600160a01b03909216828901908152602081018a9052839183918290600090829060400103925af1801561160c575b6115ee575b5050823b1561016f576000946115c286925197889687958694639032317760e01b865230908601610aca565b03925af180156115e1575b6115d45750565b80610cb6610b4a926108c3565b6115e9610915565b6115cd565b8161160492903d10610cf057610ce081836108e4565b503880611596565b611614610915565b611591565b60009a5091896116398694859694963d87116102a65761029781836108e4565b9b50509192909261155a565b61164d610915565b611552565b61166890833d8511610cf057610ce081836108e4565b5038611525565b611677610915565b611520565b84516382d6580f60e01b81528990fd5b6116a4919750833d8511610dba57610dab81836108e4565b9538611477565b6116b3610915565b61146f565b9092916001600160a01b0390911690813b1561016f576040516323b872dd60e01b81526001600160a01b0394909416600485015230602485015260448401526000929083908290606490829084905af18015611766575b611753575b503d801561174857602014611727575080fd5b90602081803e515b1561173657565b60405163073d1efd60e51b8152600490fd5b50905060001961172f565b80610cb6611760926108c3565b38611714565b61176e610915565b61170f565b9081602091031261016f57516001600160801b038116810361016f579056fea2646970667358221220e51ac8936b65e9191034a49d4a8c8d3ff9e19ac87278861e04cd2ac9d6c38a7264736f6c634300080f0033",
  "immutableReferences": {
    "10096": [
      {
        "length": 32,
        "start": 395
      },
      {
        "length": 32,
        "start": 2974
      },
      {
        "length": 32,
        "start": 3669
      }
    ],
    "10886": [
      {
        "length": 32,
        "start": 1614
      },
      {
        "length": 32,
        "start": 4837
      },
      {
        "length": 32,
        "start": 5305
      }
    ],
    "10889": [
      {
        "length": 32,
        "start": 2071
      },
      {
        "length": 32,
        "start": 4576
      },
      {
        "length": 32,
        "start": 5243
      }
    ]
  },
  "source": "// SPDX-License-Identifier: BUSL-1.1\npragma solidity 0.8.15;\n\nimport \"./BaseBulker.sol\";\nimport \"../IWstETH.sol\";\n\n/**\n * @title Compound's Bulker contract for Ethereum mainnet\n * @notice Executes multiple Comet-related actions in a single transaction\n * @author Compound\n */\ncontract MainnetBulker is BaseBulker {\n    /** General configuration constants **/\n\n    /// @notice The address of Lido staked ETH\n    address public immutable steth;\n\n    /// @notice The address of Lido wrapped staked ETH\n    address public immutable wsteth;\n\n    /** Actions **/\n\n    /// @notice The action for supplying staked ETH to Comet\n    bytes32 public constant ACTION_SUPPLY_STETH = \"ACTION_SUPPLY_STETH\";\n\n    /// @notice The action for withdrawing staked ETH from Comet\n    bytes32 public constant ACTION_WITHDRAW_STETH = \"ACTION_WITHDRAW_STETH\";\n\n    /** Custom errors **/\n\n    error UnsupportedBaseAsset();\n\n    /**\n     * @notice Construct a new MainnetBulker instance\n     * @param admin_ The admin of the Bulker contract\n     * @param weth_ The address of wrapped ETH\n     * @param wsteth_ The address of Lido wrapped staked ETH\n     **/\n    constructor(\n        address admin_,\n        address payable weth_,\n        address wsteth_\n    ) BaseBulker(admin_, weth_) {\n        wsteth = wsteth_;\n        steth = IWstETH(wsteth_).stETH();\n    }\n\n    /**\n     * @notice Handles actions specific to the Ethereum mainnet version of Bulker, specifically supplying and withdrawing stETH\n     */\n    function handleAction(bytes32 action, bytes calldata data) override internal {\n        if (action == ACTION_SUPPLY_STETH) {\n            (address comet, address to, uint stETHAmount) = abi.decode(data, (address, address, uint));\n            supplyStEthTo(comet, to, stETHAmount);\n        } else if (action == ACTION_WITHDRAW_STETH) {\n            (address comet, address to, uint wstETHAmount) = abi.decode(data, (address, address, uint));\n            withdrawStEthTo(comet, to, wstETHAmount);\n        } else {\n            revert UnhandledAction();\n        }\n    }\n\n    /**\n     * @notice Wraps stETH to wstETH and supplies to a user in Comet\n     * @dev Note: This contract must have permission to manage msg.sender's Comet account\n     * @dev Note: wstETH base asset is NOT supported\n     */\n    function supplyStEthTo(address comet, address to, uint stETHAmount) internal {\n        if (CometInterface(comet).baseToken() == wsteth) revert UnsupportedBaseAsset();\n\n        doTransferIn(steth, msg.sender, stETHAmount);\n        ERC20(steth).approve(wsteth, stETHAmount);\n        uint wstETHAmount = IWstETH(wsteth).wrap(stETHAmount);\n        ERC20(wsteth).approve(comet, wstETHAmount);\n        CometInterface(comet).supplyFrom(address(this), to, wsteth, wstETHAmount);\n    }\n\n    /**\n     * @notice Withdraws wstETH from Comet, unwraps it to stETH, and transfers it to a user\n     * @dev Note: This contract must have permission to manage msg.sender's Comet account\n     * @dev Note: wstETH base asset is NOT supported\n     * @dev Note: Supports `amount` of `uint256.max` to withdraw all wstETH from Comet\n     */\n    function withdrawStEthTo(address comet, address to, uint stETHAmount) internal {\n        if (CometInterface(comet).baseToken() == wsteth) revert UnsupportedBaseAsset();\n\n        uint wstETHAmount = stETHAmount == type(uint256).max\n            ? CometInterface(comet).collateralBalanceOf(msg.sender, wsteth)\n            : IWstETH(wsteth).getWstETHByStETH(stETHAmount);\n        CometInterface(comet).withdrawFrom(msg.sender, address(this), wsteth, wstETHAmount);\n        uint unwrappedStETHAmount = IWstETH(wsteth).unwrap(wstETHAmount);\n        doTransferOut(steth, to, unwrappedStETHAmount);\n    }\n}",
  "sourcePath": "/home/stephensb/sb-labs/solidity-contracts/contracts/comet/contracts/bulkers/MainnetBulker.sol",
  "compiler": {
    "name": "solc",
    "version": "0.8.15+commit.e14f2714.Emscripten.clang"
  },
  "schemaVersion": "3.4.12",
  "updatedAt": "2023-11-30T22:41:29.693Z",
  "devdoc": {
    "author": "Compound",
    "kind": "dev",
    "methods": {
      "constructor": {
        "params": {
          "admin_": "The admin of the Bulker contract",
          "weth_": "The address of wrapped ETH",
          "wsteth_": "The address of Lido wrapped staked ETH*"
        }
      },
      "invoke(bytes32[],bytes[])": {
        "params": {
          "actions": "The list of actions to execute in order",
          "data": "The list of calldata to use for each action"
        }
      },
      "sweepNativeToken(address)": {
        "params": {
          "recipient": "The address that will receive the swept funds"
        }
      },
      "sweepToken(address,address)": {
        "details": "Note: Make sure to check that the asset being swept out is not malicious",
        "params": {
          "asset": "The address of the ERC-20 token to sweep",
          "recipient": "The address that will receive the swept funds"
        }
      },
      "transferAdmin(address)": {
        "params": {
          "newAdmin": "The address that will become the new admin"
        }
      }
    },
    "title": "Compound's Bulker contract for Ethereum mainnet",
    "version": 1
  },
  "userdoc": {
    "errors": {
      "InvalidAddress()": [
        {
          "notice": "Custom errors *"
        }
      ],
      "UnsupportedBaseAsset()": [
        {
          "notice": "Custom errors *"
        }
      ]
    },
    "events": {
      "AdminTransferred(address,address)": {
        "notice": "Custom events *"
      }
    },
    "kind": "user",
    "methods": {
      "ACTION_CLAIM_REWARD()": {
        "notice": "The action for claiming rewards from the Comet rewards contract"
      },
      "ACTION_SUPPLY_ASSET()": {
        "notice": "The action for supplying an asset to Comet"
      },
      "ACTION_SUPPLY_NATIVE_TOKEN()": {
        "notice": "The action for supplying a native asset (e.g. ETH on Ethereum mainnet) to Comet"
      },
      "ACTION_SUPPLY_STETH()": {
        "notice": "The action for supplying staked ETH to Comet"
      },
      "ACTION_TRANSFER_ASSET()": {
        "notice": "The action for transferring an asset within Comet"
      },
      "ACTION_WITHDRAW_ASSET()": {
        "notice": "The action for withdrawing an asset from Comet"
      },
      "ACTION_WITHDRAW_NATIVE_TOKEN()": {
        "notice": "The action for withdrawing a native asset from Comet"
      },
      "ACTION_WITHDRAW_STETH()": {
        "notice": "The action for withdrawing staked ETH from Comet"
      },
      "admin()": {
        "notice": "The admin of the Bulker contract"
      },
      "constructor": {
        "notice": "Construct a new MainnetBulker instance"
      },
      "invoke(bytes32[],bytes[])": {
        "notice": "Executes a list of actions in order"
      },
      "steth()": {
        "notice": "The address of Lido staked ETH"
      },
      "sweepNativeToken(address)": {
        "notice": "A public function to sweep accidental native token transfers to this contract"
      },
      "sweepToken(address,address)": {
        "notice": "A public function to sweep accidental ERC-20 transfers to this contract"
      },
      "transferAdmin(address)": {
        "notice": "Transfers the admin rights to a new address"
      },
      "wrappedNativeToken()": {
        "notice": "The address of the wrapped representation of the chain's native asset"
      },
      "wsteth()": {
        "notice": "The address of Lido wrapped staked ETH"
      }
    },
    "notice": "Executes multiple Comet-related actions in a single transaction",
    "version": 1
  }
}