{
  "contractName": "Messages",
  "abi": [
    {
      "inputs": [
        {
          "internalType": "address",
          "name": "_userRegister",
          "type": "address"
        }
      ],
      "stateMutability": "nonpayable",
      "type": "constructor"
    },
    {
      "inputs": [],
      "name": "enableHash",
      "outputs": [
        {
          "internalType": "bytes32",
          "name": "",
          "type": "bytes32"
        }
      ],
      "stateMutability": "view",
      "type": "function"
    },
    {
      "inputs": [
        {
          "internalType": "address",
          "name": "",
          "type": "address"
        }
      ],
      "name": "recieverInfo",
      "outputs": [
        {
          "internalType": "bytes",
          "name": "_signature",
          "type": "bytes"
        },
        {
          "internalType": "bytes32",
          "name": "_r",
          "type": "bytes32"
        },
        {
          "internalType": "bytes32",
          "name": "_s",
          "type": "bytes32"
        },
        {
          "internalType": "uint8",
          "name": "_v",
          "type": "uint8"
        },
        {
          "internalType": "bool",
          "name": "_enabled",
          "type": "bool"
        }
      ],
      "stateMutability": "view",
      "type": "function"
    },
    {
      "inputs": [
        {
          "internalType": "bytes",
          "name": "_signature",
          "type": "bytes"
        }
      ],
      "name": "enable",
      "outputs": [],
      "stateMutability": "nonpayable",
      "type": "function"
    },
    {
      "inputs": [
        {
          "internalType": "address",
          "name": "_receiver",
          "type": "address"
        },
        {
          "internalType": "string",
          "name": "_cid",
          "type": "string"
        }
      ],
      "name": "send",
      "outputs": [],
      "stateMutability": "payable",
      "type": "function"
    },
    {
      "inputs": [
        {
          "internalType": "uint256",
          "name": "_index",
          "type": "uint256"
        }
      ],
      "name": "remove",
      "outputs": [],
      "stateMutability": "nonpayable",
      "type": "function"
    },
    {
      "inputs": [
        {
          "internalType": "uint256",
          "name": "_index",
          "type": "uint256"
        },
        {
          "internalType": "bool",
          "name": "_strong",
          "type": "bool"
        }
      ],
      "name": "remove",
      "outputs": [],
      "stateMutability": "nonpayable",
      "type": "function"
    },
    {
      "inputs": [
        {
          "internalType": "address",
          "name": "_receiver",
          "type": "address"
        },
        {
          "internalType": "uint256",
          "name": "_index",
          "type": "uint256"
        }
      ],
      "name": "withdraw",
      "outputs": [],
      "stateMutability": "payable",
      "type": "function"
    },
    {
      "inputs": [
        {
          "internalType": "uint256",
          "name": "_start",
          "type": "uint256"
        },
        {
          "internalType": "uint256",
          "name": "_end",
          "type": "uint256"
        }
      ],
      "name": "retrieve",
      "outputs": [
        {
          "components": [
            {
              "internalType": "string",
              "name": "_cid",
              "type": "string"
            },
            {
              "internalType": "address",
              "name": "_sender",
              "type": "address"
            },
            {
              "internalType": "uint256",
              "name": "_value",
              "type": "uint256"
            },
            {
              "internalType": "uint256",
              "name": "_block",
              "type": "uint256"
            },
            {
              "internalType": "uint256",
              "name": "_timestamp",
              "type": "uint256"
            }
          ],
          "internalType": "struct Messages.message[]",
          "name": "_messages",
          "type": "tuple[]"
        }
      ],
      "stateMutability": "view",
      "type": "function"
    },
    {
      "inputs": [
        {
          "internalType": "uint256",
          "name": "_index",
          "type": "uint256"
        }
      ],
      "name": "retrieve",
      "outputs": [
        {
          "components": [
            {
              "internalType": "string",
              "name": "_cid",
              "type": "string"
            },
            {
              "internalType": "address",
              "name": "_sender",
              "type": "address"
            },
            {
              "internalType": "uint256",
              "name": "_value",
              "type": "uint256"
            },
            {
              "internalType": "uint256",
              "name": "_block",
              "type": "uint256"
            },
            {
              "internalType": "uint256",
              "name": "_timestamp",
              "type": "uint256"
            }
          ],
          "internalType": "struct Messages.message",
          "name": "_message",
          "type": "tuple"
        }
      ],
      "stateMutability": "view",
      "type": "function"
    },
    {
      "inputs": [],
      "name": "number",
      "outputs": [
        {
          "internalType": "uint256",
          "name": "_num",
          "type": "uint256"
        }
      ],
      "stateMutability": "view",
      "type": "function"
    }
  ],
  "bytecode": "0x60c0806040523461017e576020816115ab803803809161001f8285610182565b83398101031261017e57516001600160a01b0381169081900361017e576080526040805161004d8282610182565b6010815260208101906f22b730b136329026b2b9b9b0b3b2b99760811b825260109160019261007c60026101b9565b9361008986519586610182565b6002855261009760026101b9565b602086019290601f190136843760228601825b610148575b505050603a61010e92865194859360208501977f19457468657265756d205369676e6564204d6573736167653a0a00000000000089525180918587015e840190838201905f8252519283915e01015f815203601f198101835282610182565b51902060a052516113d690816101d582396080518181816102bc015281816107930152610bf5015260a051818181610b750152610c370152f35b5f190190600a906f181899199a1a9b1b9c1cb0b131b232b360811b8282061a835304918215610179579190826100aa565b6100af565b5f80fd5b601f909101601f19168101906001600160401b038211908210176101a557604052565b634e487b7160e01b5f52604160045260245ffd5b6001600160401b0381116101a557601f01601f19166020019056fe60806040526004361015610011575f80fd5b5f3560e01c80630c95955614610b9857806322cdaf5f14610b5e5780634cc8221514610b1e5780636a433f3114610a145780637c252208146108095780638381f58a146107685780638f88708b146106b957806399142b5f1461025f578063d5f615c6146101615763f3fef3a314610087575f80fd5b604036600319011261015d5761009b610f95565b6001600160a01b03165f8181526001602052604090205460243591906100c2908310611133565b805f5260016020526100d78260405f2061118a565b50600101546001600160a01b03163303610118575f9161010191835260016020526040832061118a565b5061011561010f8254610fab565b826110c8565b55005b60405162461bcd60e51b815260206004820152601c60248201527f596f7520646964206e6f742073656e6420746865206d657373616765000000006044820152606490fd5b5f80fd5b3461015d57604036600319011261015d57600435602435801515810361015d57335f52600160205261019860405f20548310611133565b335f5260016020525f6101ae836040832061118a565b506101bc61010f8254610fab565b556101c357005b6101d890335f52600160205260405f2061118a565b61024c576004816101ea5f9354610fab565b80610209575b5082600182015582600282015582600382015501555f80f35b601f811160011461021f57508281555b836101f0565b8184526020842061023b91601f0160051c8101906001016110b2565b808352826020812081835555610219565b634e487b7160e01b5f525f60045260245ffd5b604036600319011261015d57610273610f95565b60243567ffffffffffffffff811161015d573660238201121561015d576102a4903690602481600401359101610f5f565b604051634209fff160e01b81523360048201529091907f00000000000000000000000000000000000000000000000000000000000000006001600160a01b031690602081602481855afa801561061257610305915f9161069a575b50611066565b604051634209fff160e01b81526001600160a01b039092166004830181905291602081602481855afa908115610612575f9161067b575b501561061d576020604491604051928380926366928d4d60e11b825286600483015233602483015234905af1908115610612575f916105e3575b501561015d57815160208301516001600160b81b031981169190600982106105c3575b5050604051602081019168ffffffffffffffffff60b81b168252600981526103c2602982610f21565b5190206040516862616761616965726160b81b6020820190815260098252906103ec602982610f21565b51902014806105b8575b15610573575f52600160205260405f20906040519061041482610f05565b81526020810191338352604082013481526060830190438252608084019242845280546801000000000000000081101561055f576104579160018201815561118a565b94909461024c575194855167ffffffffffffffff811161055f576104858161047f8854610fab565b886110f0565b6020601f82116001146104fa5790806104b792600498995f926104ef575b50508160011b915f199060031b1c19161790565b86555b516001860180546001600160a01b0319166001600160a01b039290921691909117905551600285015551600384015551910155005b0151905089806104a3565b601f19821697875f52815f20985f5b818110610547575091600498999184600195941061052f575b505050811b0186556104ba565b01515f1960f88460031b161c19169055888080610522565b838301518b556001909a019960209384019301610509565b634e487b7160e01b5f52604160045260245ffd5b60405162461bcd60e51b815260206004820152601760248201527f434944206d7573742062652076616c6964204a534f4e2e0000000000000000006044820152606490fd5b50603d8251146103f6565b6001600160b81b031960099290920360031b82901b161690508380610399565b610605915060203d60201161060b575b6105fd8183610f21565b81019061104e565b83610376565b503d6105f3565b6040513d5f823e3d90fd5b60405162461bcd60e51b815260206004820152603060248201527f546865207265636965766572206f6620796f7572206d657373616765206d757360448201526f3a103132903932b3b4b9ba32b932b21760811b6064820152608490fd5b610694915060203d60201161060b576105fd8183610f21565b8461033c565b6106b3915060203d60201161060b576105fd8183610f21565b856102ff565b3461015d57602036600319011261015d576004356106d56111dc565b50335f52600160205260405f20548110156107235761070b61070561071f92335f52600160205260405f2061118a565b5061121b565b604051918291602083526020830190611007565b0390f35b60405162461bcd60e51b815260206004820152601860248201527f5f696e64657820776173206f7574206f662072616e67652e00000000000000006044820152606490fd5b3461015d575f36600319011261015d57604051634209fff160e01b81523360048201526020816024817f00000000000000000000000000000000000000000000000000000000000000006001600160a01b03165afa8015610612576107d3915f916107ea5750611066565b335f526001602052602060405f2054604051908152f35b610803915060203d60201161060b576105fd8183610f21565b826102ff565b3461015d57604036600319011261015d5760243560043580821180610a01575b156109bc57335f52600160205260405f20548210156109775761084c81836111b7565b600181018091116108e557610860816111c4565b9061086e6040519283610f21565b80825261087d601f19916111c4565b015f5b8181106109605750505f5b61089583856111b7565b81116108f957335f52600160205260405f20818401908185116108e5576108bf916107059161118a565b6108c98284611207565b526108d48183611207565b505f1981146108e55760010161088b565b634e487b7160e01b5f52601160045260245ffd5b506040518091602082016020835281518091526040830190602060408260051b8601019301915f905b82821061093157505050500390f35b919360019193955060206109508192603f198a82030186528851611007565b9601920192018594939192610922565b60209061096b6111dc565b82828601015201610880565b60405162461bcd60e51b815260206004820152601c60248201527f496e76616c6964206d657373616765206172726179206c656e677468000000006044820152606490fd5b60405162461bcd60e51b815260206004820152601a60248201527f496e76616c69642073746172742f656e642076616c75652f732e0000000000006044820152606490fd5b506064610a0e82846111b7565b10610829565b3461015d57602036600319011261015d576001600160a01b03610a35610f95565b165f525f60205260405f206040515f918054610a5081610fab565b8084529060018116908115610afa5750600114610ac1575b50610a7882610a9f940383610f21565b60ff600182015491600360028201549101549060405195869560a0875260a0870190610fe3565b9360208601526040850152818116606085015260081c16151560808301520390f35b9250805f5260205f205f905b848210610ae4575082016020019250610a78610a68565b6001816020925483858801015201910190610acd565b60ff191660208086019190915291151560051b84019091019350610a789050610a68565b3461015d57602036600319011261015d575f6101016004353383526001602052610b4d60408420548210611133565b33835260016020526040832061118a565b3461015d575f36600319011261015d5760206040517f00000000000000000000000000000000000000000000000000000000000000008152f35b3461015d57602036600319011261015d5760043567ffffffffffffffff811161015d573660238201121561015d57610bda903690602481600401359101610f5f565b604051634209fff160e01b81523360048201526020816024817f00000000000000000000000000000000000000000000000000000000000000006001600160a01b03165afa801561061257610c35915f91610ee65750611066565b7f0000000000000000000000000000000000000000000000000000000000000000610c6082826112f0565b6005819392931015610ed257159182610ebf575b508115610e06575b5015610dcd57602081015160408201519160608101515f1a9260405191610ca283610f05565b8252602082019283526040820190815260608201938452608082019260018452335f525f60205260405f20925180519067ffffffffffffffff821161055f57610cf582610cef8754610fab565b876110f0565b602090601f8311600114610d6457826003959360ff979593610d2b935f92610d595750508160011b915f199060031b1c19161790565b83555b5160018301555160028201550192511661ff0083549251151560081b169161ffff1916171790555f80f35b015190508a806104a3565b90601f19831691865f52815f20925f5b818110610db557509260019285926003989660ff9a989610610d9e575b505050811b018355610d2e565b01515f1983891b60f8161c19169055898080610d91565b92936020600181928786015181550195019301610d74565b60405162461bcd60e51b8152602060048201526011602482015270496e76616c6964205369676e617475726560781b6044820152606490fd5b5f915081906040516020810191630b135d3f60e11b8352602482015260406044820152610e4881610e3a6064820188610fe3565b03601f198101835282610f21565b5190335afa3d15610eb8573d610e5d81610f43565b90610e6b6040519283610f21565b81523d5f602083013e5b81610eaa575b81610e88575b5082610c7c565b905060208180518101031261015d5760200151630b135d3f60e11b1482610e81565b905060208151101590610e7b565b6060610e75565b6001600160a01b03163314915083610c74565b634e487b7160e01b5f52602160045260245ffd5b610eff915060203d60201161060b576105fd8183610f21565b836102ff565b60a0810190811067ffffffffffffffff82111761055f57604052565b90601f8019910116810190811067ffffffffffffffff82111761055f57604052565b67ffffffffffffffff811161055f57601f01601f191660200190565b929192610f6b82610f43565b91610f796040519384610f21565b82948184528183011161015d578281602093845f960137010152565b600435906001600160a01b038216820361015d57565b90600182811c92168015610fd9575b6020831014610fc557565b634e487b7160e01b5f52602260045260245ffd5b91607f1691610fba565b805180835260209291819084018484015e5f828201840152601f01601f1916010190565b9060808061101e845160a0855260a0850190610fe3565b6020808601516001600160a01b031690850152604080860151908501526060808601519085015293015191015290565b9081602091031261015d5751801515810361015d5790565b1561106d57565b60405162461bcd60e51b815260206004820152601a60248201527f53656e646572206d75737420626520726567697374657265642e0000000000006044820152606490fd5b8181106110bd575050565b5f81556001016110b2565b90601f81116110d5575050565b6110ee915f52601f60205f20910160051c8101906110b2565b565b9190601f81116110ff57505050565b6110ee925f5260205f20906020601f840160051c83019310611129575b601f0160051c01906110b2565b909150819061111c565b1561113a57565b60405162461bcd60e51b815260206004820152602260248201527f546865206d65737361676520696e646578206973206f7574206f662072616e67604482015261329760f11b6064820152608490fd5b80548210156111a3575f52600560205f20910201905f90565b634e487b7160e01b5f52603260045260245ffd5b919082039182116108e557565b67ffffffffffffffff811161055f5760051b60200190565b604051906111e982610f05565b5f608083606081528260208201528260408201528260608201520152565b80518210156111a35760209160051b010190565b9060405161122881610f05565b80926040515f825461123981610fab565b80845290600181169081156112ce5750600114611294575b5091816112646004936080950382610f21565b845260018101546001600160a01b0316602085015260028101546040850152600381015460608501520154910152565b5f848152602081209092505b8183106112b4575050810160200181611251565b6001816020929493945483858801015201910191906112a0565b60ff191660208086019190915291151560051b84019091019150829050611251565b9060418151145f1461131c5761131891602082015190606060408401519301515f1a90611325565b9091565b50505f90600290565b7f7fffffffffffffffffffffffffffffff5d576e7357a4501ddfe92f46681b20a08411611395576020935f9360ff60809460405194855216868401526040830152606082015282805260015afa15610612575f516001600160a01b0381161561138d57905f90565b505f90600190565b505050505f9060039056fea26469706673582212201849ff276b33098d102d861ab4663f8683a3faac4e10c156053a49371307c24064736f6c634300081c0033",
  "immutableReferences": {
    "5529": [
      {
        "length": 32,
        "start": 700
      },
      {
        "length": 32,
        "start": 1939
      },
      {
        "length": 32,
        "start": 3061
      }
    ],
    "5531": [
      {
        "length": 32,
        "start": 2933
      },
      {
        "length": 32,
        "start": 3127
      }
    ]
  },
  "source": "// SPDX-License-Identifier: MIT\npragma solidity ^0.8.17;\n\nimport \"@openzeppelin/contracts/token/ERC721/IERC721.sol\";\n\nimport \"@openzeppelin/contracts/utils/cryptography/SignatureChecker.sol\";\n\nimport \"@openzeppelin/contracts/utils/cryptography/ECDSA.sol\";\n\nimport \"../user-register/UserRegister.sol\";\n\nimport \"../helper/Helper.sol\";\n\ncontract Messages{\n\n    UserRegister immutable userRegister;\n\n    bytes32 public immutable enableHash;\n\n    mapping(address => info) public recieverInfo;\n\n    mapping(address => message[]) messages;\n\n    struct info{\n        bytes _signature;\n        bytes32 _r;\n        bytes32 _s;\n        uint8 _v;\n        bool _enabled;\n    }\n\n    struct message{\n        string _cid;\n        address _sender;\n        uint _value;\n        uint _block;\n        uint _timestamp;\n    }\n\n    modifier isUser(){\n        require(userRegister.isUser(msg.sender), \"Sender must be registered.\");\n        _;\n    }\n\n    constructor(address _userRegister){\n        userRegister = UserRegister(_userRegister);\n        enableHash = ECDSA.toEthSignedMessageHash(bytes(\"Enable Messages.\"));\n    }\n    \n    function enable(bytes memory _signature) public isUser{\n        require(SignatureChecker.isValidSignatureNow(msg.sender, enableHash, _signature), \"Invalid Signature\");\n        \n        bytes32 r;\n        bytes32 s;\n        uint8 v;\n        // ecrecover takes the signature parameters, and the only way to get them\n        // currently is to use assembly.\n        /// @solidity memory-safe-assembly\n        assembly {\n            r := mload(add(_signature, 0x20))\n            s := mload(add(_signature, 0x40))\n            v := byte(0, mload(add(_signature, 0x60)))\n        }\n        \n        recieverInfo[msg.sender] = info(_signature, r, s, v, true);\n\n    }\n\n    //( string memory _name, , , , ) = userRegister.userRegister(msg.sender);\n\n    function send(address _receiver, string memory _cid) public payable isUser{\n        require(userRegister.isUser(_receiver), \"The reciever of your message must be registered.\");\n        require(userRegister.validInteraction{value: msg.value}(_receiver, msg.sender));\n        require(Helper.isV1JSONCID(_cid), \"CID must be valid JSON.\");\n        messages[_receiver].push(message(_cid, msg.sender, msg.value, block.number, block.timestamp));\n    }\n\n            /*\n        messages[msg.sender][_index] = messages[msg.sender][messages[msg.sender].length - 1];\n        messages[msg.sender].pop();*/\n\n    function remove(uint _index) public{\n        require(_index < messages[msg.sender].length, \"The message index is out of range.\");\n        messages[msg.sender][_index]._cid = \"\";\n    }\n\n    function remove(uint _index, bool _strong) public {\n        require(_index < messages[msg.sender].length, \"The message index is out of range.\");\n        messages[msg.sender][_index]._cid = \"\";\n        if(_strong){\n            delete messages[msg.sender][_index];   \n        }\n    }\n\n    function withdraw(address _receiver, uint _index) public payable{\n        require(_index < messages[_receiver].length, \"The message index is out of range.\");\n        require(messages[_receiver][_index]._sender == msg.sender, \"You did not send the message\");\n        messages[_receiver][_index]._cid = \"\";\n    }\n\n    function retrieve(uint _index) public view returns(message memory _message){\n        require(_index < messages[msg.sender].length, \"_index was out of range.\");\n        return messages[msg.sender][_index];\n    }\n\n    function retrieve(uint _start, uint _end) public view returns(message[] memory _messages){\n        require(_end > _start && (_end - _start) < 100, \"Invalid start/end value/s.\");\n        require(_end < messages[msg.sender].length, \"Invalid message array length\");\n        _messages = new message[](_end - _start + 1);\n        for(uint i = 0; i <= _end - _start; i++){\n            _messages[i] = messages[msg.sender][_start + i];\n        }\n    }\n\n    function number() public view isUser returns(uint _num){\n        return messages[msg.sender].length;\n    }\n}",
  "sourcePath": "/home/stephensb/sb-labs/solidity-contracts/contracts/feed/messages/Messages.sol",
  "compiler": {
    "name": "solc",
    "version": "0.8.28+commit.7893614a.Emscripten.clang"
  },
  "schemaVersion": "3.4.12",
  "updatedAt": "2024-12-18T06:10:39.496Z",
  "devdoc": {
    "kind": "dev",
    "methods": {},
    "version": 1
  },
  "userdoc": {
    "kind": "user",
    "methods": {},
    "version": 1
  }
}