{
  "contractName": "Messages",
  "abi": [
    {
      "inputs": [
        {
          "internalType": "address",
          "name": "_public_keys",
          "type": "address"
        }
      ],
      "stateMutability": "nonpayable",
      "type": "constructor"
    },
    {
      "anonymous": false,
      "inputs": [
        {
          "indexed": true,
          "internalType": "address",
          "name": "previousOwner",
          "type": "address"
        },
        {
          "indexed": true,
          "internalType": "address",
          "name": "newOwner",
          "type": "address"
        }
      ],
      "name": "OwnershipTransferred",
      "type": "event"
    },
    {
      "inputs": [
        {
          "internalType": "address",
          "name": "",
          "type": "address"
        },
        {
          "internalType": "address",
          "name": "",
          "type": "address"
        },
        {
          "internalType": "uint256",
          "name": "",
          "type": "uint256"
        }
      ],
      "name": "MessagesChannel",
      "outputs": [
        {
          "internalType": "address",
          "name": "to",
          "type": "address"
        },
        {
          "internalType": "uint256",
          "name": "value",
          "type": "uint256"
        },
        {
          "internalType": "string",
          "name": "message",
          "type": "string"
        },
        {
          "internalType": "bytes",
          "name": "message_encrypted",
          "type": "bytes"
        }
      ],
      "stateMutability": "view",
      "type": "function"
    },
    {
      "inputs": [],
      "name": "Public_Keys",
      "outputs": [
        {
          "internalType": "contract PublicKeys",
          "name": "",
          "type": "address"
        }
      ],
      "stateMutability": "view",
      "type": "function"
    },
    {
      "inputs": [],
      "name": "owner",
      "outputs": [
        {
          "internalType": "address",
          "name": "",
          "type": "address"
        }
      ],
      "stateMutability": "view",
      "type": "function"
    },
    {
      "inputs": [],
      "name": "renounceOwnership",
      "outputs": [],
      "stateMutability": "nonpayable",
      "type": "function"
    },
    {
      "inputs": [
        {
          "internalType": "address",
          "name": "newOwner",
          "type": "address"
        }
      ],
      "name": "transferOwnership",
      "outputs": [],
      "stateMutability": "nonpayable",
      "type": "function"
    },
    {
      "inputs": [
        {
          "internalType": "address",
          "name": "_from",
          "type": "address"
        }
      ],
      "name": "numMessages",
      "outputs": [
        {
          "internalType": "uint256",
          "name": "",
          "type": "uint256"
        }
      ],
      "stateMutability": "view",
      "type": "function"
    },
    {
      "inputs": [
        {
          "components": [
            {
              "internalType": "address",
              "name": "to",
              "type": "address"
            },
            {
              "internalType": "uint256",
              "name": "value",
              "type": "uint256"
            },
            {
              "internalType": "string",
              "name": "message",
              "type": "string"
            },
            {
              "internalType": "bytes",
              "name": "message_encrypted",
              "type": "bytes"
            }
          ],
          "internalType": "struct Messages.Message",
          "name": "_message",
          "type": "tuple"
        }
      ],
      "name": "sendMessage",
      "outputs": [],
      "stateMutability": "payable",
      "type": "function"
    }
  ],
  "bytecode": "0x608060405234801561001057600080fd5b50604051610ce2380380610ce283398101604081905261002f916100ad565b6100383361005d565b600280546001600160a01b0319166001600160a01b03929092169190911790556100dd565b600080546001600160a01b038381166001600160a01b0319831681178455604051919092169283917f8be0079c531659141344cd1fd0a4f28419497f9722a3daafe3b4186f6b6457e09190a35050565b6000602082840312156100bf57600080fd5b81516001600160a01b03811681146100d657600080fd5b9392505050565b610bf6806100ec6000396000f3fe6080604052600436106100705760003560e01c80637e0872d31161004e5780637e0872d3146100f75780638da5cb5b1461010a578063b1ed097014610128578063f2fde38b1461015857600080fd5b806331073d93146100755780636b891a24146100a8578063715018a6146100e0575b600080fd5b34801561008157600080fd5b5061009561009036600461097c565b610178565b6040519081526020015b60405180910390f35b3480156100b457600080fd5b506002546100c8906001600160a01b031681565b6040516001600160a01b03909116815260200161009f565b3480156100ec57600080fd5b506100f5610325565b005b6100f56101053660046109f5565b610339565b34801561011657600080fd5b506000546001600160a01b03166100c8565b34801561013457600080fd5b50610148610143366004610997565b610595565b60405161009f9493929190610b02565b34801561016457600080fd5b506100f561017336600461097c565b610707565b600254604051630c7c018f60e31b81523360048201526000916001600160a01b0316906363e00c789060240160206040518083038186803b1580156101bc57600080fd5b505afa1580156101d0573d6000803e3d6000fd5b505050506040513d601f19601f820116820180604052508101906101f491906109d3565b61023c5760405162461bcd60e51b81526020600482015260146024820152732ab9b2b9103737ba103932b3b4b9ba32b932b21760611b60448201526064015b60405180910390fd5b600254604051630c7c018f60e31b81526001600160a01b038481166004830152909116906363e00c789060240160206040518083038186803b15801561028157600080fd5b505afa158015610295573d6000803e3d6000fd5b505050506040513d601f19601f820116820180604052508101906102b991906109d3565b6102fc5760405162461bcd60e51b8152602060048201526014602482015273233937b6903737ba103932b3b4b9ba32b932b21760611b6044820152606401610233565b503360009081526001602090815260408083206001600160a01b03949094168352929052205490565b61032d610780565b61033760006107da565b565b600254604051630c7c018f60e31b81523360048201526001600160a01b03909116906363e00c789060240160206040518083038186803b15801561037c57600080fd5b505afa158015610390573d6000803e3d6000fd5b505050506040513d601f19601f820116820180604052508101906103b491906109d3565b6103f75760405162461bcd60e51b81526020600482015260146024820152732ab9b2b9103737ba103932b3b4b9ba32b932b21760611b6044820152606401610233565b6002548151604051630c7c018f60e31b81526001600160a01b0391821660048201529116906363e00c789060240160206040518083038186803b15801561043d57600080fd5b505afa158015610451573d6000803e3d6000fd5b505050506040513d601f19601f8201168201806040525081019061047591906109d3565b6104b65760405162461bcd60e51b81526020600482015260126024820152712a37903737ba103932b3b4b9ba32b932b21760711b6044820152606401610233565b806020015134146104fc5760405162461bcd60e51b815260206004820152601060248201526f24b731b7b93932b1ba103b30b63ab29760811b6044820152606401610233565b80516001600160a01b03908116600090815260016020818152604080842033855282528084208054808501825590855293829020865160049095020180546001600160a01b03191694909516939093178455808501519184019190915590830151805184939261057392600285019291019061082a565b506060820151805161058f91600384019160209091019061082a565b50505050565b600160205282600052604060002060205281600052604060002081815481106105bd57600080fd5b60009182526020909120600490910201805460018201546002830180546001600160a01b0390931696509094509192506105f690610b6f565b80601f016020809104026020016040519081016040528092919081815260200182805461062290610b6f565b801561066f5780601f106106445761010080835404028352916020019161066f565b820191906000526020600020905b81548152906001019060200180831161065257829003601f168201915b50505050509080600301805461068490610b6f565b80601f01602080910402602001604051908101604052809291908181526020018280546106b090610b6f565b80156106fd5780601f106106d2576101008083540402835291602001916106fd565b820191906000526020600020905b8154815290600101906020018083116106e057829003601f168201915b5050505050905084565b61070f610780565b6001600160a01b0381166107745760405162461bcd60e51b815260206004820152602660248201527f4f776e61626c653a206e6577206f776e657220697320746865207a65726f206160448201526564647265737360d01b6064820152608401610233565b61077d816107da565b50565b6000546001600160a01b031633146103375760405162461bcd60e51b815260206004820181905260248201527f4f776e61626c653a2063616c6c6572206973206e6f7420746865206f776e65726044820152606401610233565b600080546001600160a01b038381166001600160a01b0319831681178455604051919092169283917f8be0079c531659141344cd1fd0a4f28419497f9722a3daafe3b4186f6b6457e09190a35050565b82805461083690610b6f565b90600052602060002090601f016020900481019282610858576000855561089e565b82601f1061087157805160ff191683800117855561089e565b8280016001018555821561089e579182015b8281111561089e578251825591602001919060010190610883565b506108aa9291506108ae565b5090565b5b808211156108aa57600081556001016108af565b600067ffffffffffffffff808411156108de576108de610baa565b604051601f8501601f19908116603f0116810190828211818310171561090657610906610baa565b8160405280935085815286868601111561091f57600080fd5b858560208301376000602087830101525050509392505050565b80356001600160a01b038116811461095057600080fd5b919050565b600082601f83011261096657600080fd5b610975838335602085016108c3565b9392505050565b60006020828403121561098e57600080fd5b61097582610939565b6000806000606084860312156109ac57600080fd5b6109b584610939565b92506109c360208501610939565b9150604084013590509250925092565b6000602082840312156109e557600080fd5b8151801515811461097557600080fd5b600060208284031215610a0757600080fd5b813567ffffffffffffffff80821115610a1f57600080fd5b9083019060808286031215610a3357600080fd5b610a3b610b46565b610a4483610939565b815260208301356020820152604083013582811115610a6257600080fd5b8301601f81018713610a7357600080fd5b610a82878235602084016108c3565b604083015250606083013582811115610a9a57600080fd5b610aa687828601610955565b60608301525095945050505050565b6000815180845260005b81811015610adb57602081850181015186830182015201610abf565b81811115610aed576000602083870101525b50601f01601f19169290920160200192915050565b60018060a01b0385168152836020820152608060408201526000610b296080830185610ab5565b8281036060840152610b3b8185610ab5565b979650505050505050565b6040516080810167ffffffffffffffff81118282101715610b6957610b69610baa565b60405290565b600181811c90821680610b8357607f821691505b60208210811415610ba457634e487b7160e01b600052602260045260246000fd5b50919050565b634e487b7160e01b600052604160045260246000fdfea2646970667358221220de420126d2aa54e3f20b4eff0ecedab2453fb7df0455993ceca94ac6a529e73664736f6c63430008050033",
  "immutableReferences": {},
  "source": "pragma solidity ^0.8.0;\nimport \"@openzeppelin/contracts/access/Ownable.sol\";\nimport \"../public-keys/PublicKeys.sol\";\ncontract Messages is Ownable{\n    // Messages\n    mapping(address => mapping(address => Message[])) public MessagesChannel;\n\n    struct Message{\n        address to;\n        uint256 value;\n        string message;\n        bytes message_encrypted;\n    }\n\n    PublicKeys public Public_Keys;\n\n    constructor(address _public_keys) {\n        Public_Keys = PublicKeys(_public_keys);\n    }\n\n    function numMessages(address _from) public view returns(uint){\n        require(Public_Keys.onlyRegistered(msg.sender), \"User not registered.\");\n        require(Public_Keys.onlyRegistered(_from), \"From not registered.\");\n        return MessagesChannel[msg.sender][_from].length;\n    }\n\n    function sendMessage(Message memory _message) public payable {\n        require(Public_Keys.onlyRegistered(msg.sender), \"User not registered.\");\n        require(Public_Keys.onlyRegistered(_message.to), \"To not registered.\");\n        require(msg.value == _message.value, \"Incorrect value.\");\n        MessagesChannel[_message.to][msg.sender].push(_message);\n    }\n\n}",
  "sourcePath": "/home/stephensb/sb-labs/solidity-contracts/contracts/messages/Messages.sol",
  "compiler": {
    "name": "solc",
    "version": "0.8.5+commit.a4f2e591.Emscripten.clang"
  },
  "schemaVersion": "3.4.16",
  "updatedAt": "2025-01-14T02:43:28.637Z",
  "devdoc": {
    "kind": "dev",
    "methods": {
      "owner()": {
        "details": "Returns the address of the current owner."
      },
      "renounceOwnership()": {
        "details": "Leaves the contract without owner. It will not be possible to call `onlyOwner` functions. Can only be called by the current owner. NOTE: Renouncing ownership will leave the contract without an owner, thereby disabling any functionality that is only available to the owner."
      },
      "transferOwnership(address)": {
        "details": "Transfers ownership of the contract to a new account (`newOwner`). Can only be called by the current owner."
      }
    },
    "version": 1
  },
  "userdoc": {
    "kind": "user",
    "methods": {},
    "version": 1
  }
}