{
  "contractName": "MessagesENS",
  "abi": [
    {
      "inputs": [],
      "stateMutability": "nonpayable",
      "type": "constructor"
    },
    {
      "anonymous": false,
      "inputs": [
        {
          "indexed": true,
          "internalType": "address",
          "name": "previousOwner",
          "type": "address"
        },
        {
          "indexed": true,
          "internalType": "address",
          "name": "newOwner",
          "type": "address"
        }
      ],
      "name": "OwnershipTransferred",
      "type": "event"
    },
    {
      "inputs": [
        {
          "internalType": "address",
          "name": "",
          "type": "address"
        },
        {
          "internalType": "address",
          "name": "",
          "type": "address"
        }
      ],
      "name": "AllowList",
      "outputs": [
        {
          "internalType": "bool",
          "name": "",
          "type": "bool"
        }
      ],
      "stateMutability": "view",
      "type": "function"
    },
    {
      "inputs": [],
      "name": "EnableHash",
      "outputs": [
        {
          "internalType": "bytes32",
          "name": "",
          "type": "bytes32"
        }
      ],
      "stateMutability": "view",
      "type": "function"
    },
    {
      "inputs": [
        {
          "internalType": "address",
          "name": "",
          "type": "address"
        },
        {
          "internalType": "address",
          "name": "",
          "type": "address"
        },
        {
          "internalType": "uint256",
          "name": "",
          "type": "uint256"
        }
      ],
      "name": "MessagesChannel",
      "outputs": [
        {
          "internalType": "address",
          "name": "sender",
          "type": "address"
        },
        {
          "internalType": "uint256",
          "name": "value",
          "type": "uint256"
        },
        {
          "internalType": "string",
          "name": "message",
          "type": "string"
        },
        {
          "internalType": "string",
          "name": "image",
          "type": "string"
        },
        {
          "internalType": "bytes",
          "name": "iv",
          "type": "bytes"
        },
        {
          "internalType": "bytes",
          "name": "ephemPublicKey",
          "type": "bytes"
        },
        {
          "internalType": "bytes",
          "name": "ciphertext",
          "type": "bytes"
        },
        {
          "internalType": "bytes",
          "name": "mac",
          "type": "bytes"
        }
      ],
      "stateMutability": "view",
      "type": "function"
    },
    {
      "inputs": [
        {
          "internalType": "address",
          "name": "",
          "type": "address"
        },
        {
          "internalType": "uint256",
          "name": "",
          "type": "uint256"
        }
      ],
      "name": "Messengers",
      "outputs": [
        {
          "internalType": "address",
          "name": "",
          "type": "address"
        }
      ],
      "stateMutability": "view",
      "type": "function"
    },
    {
      "inputs": [
        {
          "internalType": "address",
          "name": "",
          "type": "address"
        }
      ],
      "name": "SignKeys",
      "outputs": [
        {
          "internalType": "bytes32",
          "name": "r",
          "type": "bytes32"
        },
        {
          "internalType": "bytes32",
          "name": "s",
          "type": "bytes32"
        },
        {
          "internalType": "uint8",
          "name": "v",
          "type": "uint8"
        }
      ],
      "stateMutability": "view",
      "type": "function"
    },
    {
      "inputs": [],
      "name": "owner",
      "outputs": [
        {
          "internalType": "address",
          "name": "",
          "type": "address"
        }
      ],
      "stateMutability": "view",
      "type": "function"
    },
    {
      "inputs": [],
      "name": "renounceOwnership",
      "outputs": [],
      "stateMutability": "nonpayable",
      "type": "function"
    },
    {
      "inputs": [
        {
          "internalType": "address",
          "name": "newOwner",
          "type": "address"
        }
      ],
      "name": "transferOwnership",
      "outputs": [],
      "stateMutability": "nonpayable",
      "type": "function"
    },
    {
      "inputs": [
        {
          "internalType": "bytes",
          "name": "_signature",
          "type": "bytes"
        }
      ],
      "name": "register",
      "outputs": [],
      "stateMutability": "nonpayable",
      "type": "function"
    },
    {
      "inputs": [
        {
          "internalType": "address",
          "name": "_sender",
          "type": "address"
        },
        {
          "internalType": "bool",
          "name": "_allow",
          "type": "bool"
        }
      ],
      "name": "allow",
      "outputs": [],
      "stateMutability": "nonpayable",
      "type": "function"
    },
    {
      "inputs": [
        {
          "internalType": "address payable",
          "name": "_receiver",
          "type": "address"
        },
        {
          "internalType": "string",
          "name": "_message",
          "type": "string"
        },
        {
          "internalType": "string",
          "name": "_image",
          "type": "string"
        },
        {
          "internalType": "bytes",
          "name": "_iv",
          "type": "bytes"
        },
        {
          "internalType": "bytes",
          "name": "_ephemPublicKey",
          "type": "bytes"
        },
        {
          "internalType": "bytes",
          "name": "_ciphertext",
          "type": "bytes"
        },
        {
          "internalType": "bytes",
          "name": "_mac",
          "type": "bytes"
        }
      ],
      "name": "message",
      "outputs": [],
      "stateMutability": "payable",
      "type": "function"
    },
    {
      "inputs": [
        {
          "internalType": "address",
          "name": "_receiver",
          "type": "address"
        },
        {
          "internalType": "uint256",
          "name": "_start",
          "type": "uint256"
        },
        {
          "internalType": "uint256",
          "name": "_end",
          "type": "uint256"
        }
      ],
      "name": "retrieve",
      "outputs": [
        {
          "components": [
            {
              "internalType": "address",
              "name": "sender",
              "type": "address"
            },
            {
              "internalType": "uint256",
              "name": "value",
              "type": "uint256"
            },
            {
              "internalType": "string",
              "name": "message",
              "type": "string"
            },
            {
              "internalType": "string",
              "name": "image",
              "type": "string"
            },
            {
              "internalType": "bytes",
              "name": "iv",
              "type": "bytes"
            },
            {
              "internalType": "bytes",
              "name": "ephemPublicKey",
              "type": "bytes"
            },
            {
              "internalType": "bytes",
              "name": "ciphertext",
              "type": "bytes"
            },
            {
              "internalType": "bytes",
              "name": "mac",
              "type": "bytes"
            }
          ],
          "internalType": "struct MessagesENS.Message[]",
          "name": "_messages",
          "type": "tuple[]"
        }
      ],
      "stateMutability": "view",
      "type": "function"
    },
    {
      "inputs": [
        {
          "internalType": "address",
          "name": "_receiver",
          "type": "address"
        },
        {
          "internalType": "uint256",
          "name": "_index",
          "type": "uint256"
        }
      ],
      "name": "retrieve",
      "outputs": [
        {
          "components": [
            {
              "internalType": "address",
              "name": "sender",
              "type": "address"
            },
            {
              "internalType": "uint256",
              "name": "value",
              "type": "uint256"
            },
            {
              "internalType": "string",
              "name": "message",
              "type": "string"
            },
            {
              "internalType": "string",
              "name": "image",
              "type": "string"
            },
            {
              "internalType": "bytes",
              "name": "iv",
              "type": "bytes"
            },
            {
              "internalType": "bytes",
              "name": "ephemPublicKey",
              "type": "bytes"
            },
            {
              "internalType": "bytes",
              "name": "ciphertext",
              "type": "bytes"
            },
            {
              "internalType": "bytes",
              "name": "mac",
              "type": "bytes"
            }
          ],
          "internalType": "struct MessagesENS.Message",
          "name": "_message",
          "type": "tuple"
        }
      ],
      "stateMutability": "view",
      "type": "function"
    },
    {
      "inputs": [
        {
          "internalType": "uint256",
          "name": "_start",
          "type": "uint256"
        },
        {
          "internalType": "uint256",
          "name": "_end",
          "type": "uint256"
        }
      ],
      "name": "retrieve_messengers",
      "outputs": [
        {
          "internalType": "address[]",
          "name": "_messengers",
          "type": "address[]"
        }
      ],
      "stateMutability": "view",
      "type": "function"
    },
    {
      "inputs": [
        {
          "internalType": "uint256",
          "name": "_index",
          "type": "uint256"
        }
      ],
      "name": "retrieve_messenger",
      "outputs": [
        {
          "internalType": "address",
          "name": "_messenger",
          "type": "address"
        }
      ],
      "stateMutability": "view",
      "type": "function"
    },
    {
      "inputs": [
        {
          "internalType": "address",
          "name": "_receiver",
          "type": "address"
        }
      ],
      "name": "total",
      "outputs": [
        {
          "internalType": "uint256",
          "name": "_total",
          "type": "uint256"
        }
      ],
      "stateMutability": "view",
      "type": "function"
    },
    {
      "inputs": [],
      "name": "total_messengers",
      "outputs": [
        {
          "internalType": "uint256",
          "name": "_total",
          "type": "uint256"
        }
      ],
      "stateMutability": "view",
      "type": "function"
    }
  ],
  "bytecode": "0x608060405234610165575f8054336001600160a01b0319821681178355916001600160a01b03909116907f8be0079c531659141344cd1fd0a4f28419497f9722a3daafe3b4186f6b6457e09080a36040805161005b8282610169565b6010815260208101906f22b730b136329026b2b9b9b0b3b2b99760811b825260109160019261008a60026101a0565b9361009786519586610169565b600285526100a560026101a0565b602086019290601f190136843760228601825b61012f575b505050603a61011c92865194859360208501977f19457468657265756d205369676e6564204d6573736167653a0a00000000000089525180918587015e840190838201905f8252519283915e01015f815203601f198101835282610169565b51902060055551611c6b90816101bc8239f35b5f190190600a906f181899199a1a9b1b9c1cb0b131b232b360811b8282061a835304918215610160579190826100b8565b6100bd565b5f80fd5b601f909101601f19168101906001600160401b0382119082101761018c57604052565b634e487b7160e01b5f52604160045260245ffd5b6001600160401b03811161018c57601f01601f19166020019056fe6080806040526004361015610012575f80fd5b5f3560e01c90816301471a4914610dd257508063110496e514610d365780631851253314610c0b57806325abeba91461080657806356dfffe014610777578063604b4d9114610725578063715018a6146106ce57806375cac6631461067757806382fbdc9c146104945780638da5cb5b1461046d578063b1ed0970146102d4578063c2b041d7146102ad578063c3a2a6651461026d578063d2514e8414610242578063dd6c32f014610203578063f2fde38b1461013d5763f9206d61146100d7575f80fd5b34610139576040366003190112610139576100f0610dec565b6001600160a01b03165f90815260026020526040902080546024359190821015610139576020916101209161107c565b905460405160039290921b1c6001600160a01b03168152f35b5f80fd5b3461013957602036600319011261013957610156610dec565b61015e611b23565b6001600160a01b031680156101af575f80546001600160a01b03198116831782556001600160a01b0316907f8be0079c531659141344cd1fd0a4f28419497f9722a3daafe3b4186f6b6457e09080a3005b60405162461bcd60e51b815260206004820152602660248201527f4f776e61626c653a206e6577206f776e657220697320746865207a65726f206160448201526564647265737360d01b6064820152608490fd5b34610139576020366003190112610139576020610120600435335f52600283526102328160405f205411611178565b335f526002835260405f2061107c565b34610139576020366003190112610139576020610265610260610dec565b611add565b604051908152f35b34610139576040366003190112610139576102a961029561028c610dec565b60243590611a30565b604051918291602083526020830190610e69565b0390f35b34610139575f36600319011261013957335f526002602052602060405f2054604051908152f35b34610139576060366003190112610139576102ed610dec565b6102f5610e02565b6001600160a01b039182165f90815260016020908152604080832093909416825291909152208054604435908110156101395761033191610f96565b508054600182015460405190926001600160a01b039092169190806103598160028501610ffb565b036103649082610f24565b604051806103758160038601610ffb565b036103809082610f24565b604051806103918160048701610ffb565b0361039c9082610f24565b60405191826103ae8160058801610ffb565b036103b99084610f24565b60405193846103cb8160068901610ffb565b036103d69086610f24565b604051806007819801906103e991610ffb565b036103f49087610f24565b60405197889788526020880152604087016101009052610100870161041891610e45565b868103606088015261042991610e45565b858103608087015261043a91610e45565b84810360a086015261044b91610e45565b83810360c085015261045c91610e45565b82810360e08401526102a991610e45565b34610139575f366003190112610139575f546040516001600160a01b039091168152602090f35b34610139576020366003190112610139576004356001600160401b0381116101395736602382011215610139576104d5903690602481600401359101610f60565b6005546104e28282611b7a565b600581939293101561066357159182610650575b5081156105be575b5015610584576020810151606060408301519201515f1a9160405160608101918183106001600160401b038411176105705760ff9360029360405282526020820190815260408201948552335f52600360205260405f20915182555160018201550191511660ff198254161790555f80f35b634e487b7160e01b5f52604160045260245ffd5b60405162461bcd60e51b815260206004820152601260248201527124b73b30b634b21029b4b3b730ba3ab9329760711b6044820152606490fd5b5f915081906040516020810191630b135d3f60e11b8352602482015260406044820152610600816105f26064820188610e45565b03601f198101835282610f24565b5190335afa61060d611201565b81610642575b81610620575b50826104fe565b90506020818051810103126101395760200151630b135d3f60e11b1482610619565b905060208151101590610613565b6001600160a01b031633149150836104f6565b634e487b7160e01b5f52602160045260245ffd5b3461013957604036600319011261013957610690610dec565b610698610e02565b9060018060a01b03165f52600460205260405f209060018060a01b03165f52602052602060ff60405f2054166040519015158152f35b34610139575f366003190112610139576106e6611b23565b5f80546001600160a01b0319811682556001600160a01b03167f8be0079c531659141344cd1fd0a4f28419497f9722a3daafe3b4186f6b6457e08280a3005b34610139576020366003190112610139576001600160a01b03610746610dec565b165f526003602052606060405f2080549060ff60026001830154920154169060405192835260208301526040820152f35b34610139576060366003190112610139576107a0610793610dec565b60443590602435906118ac565b6040518091602082016020835281518091526040830190602060408260051b8601019301915f905b8282106107d757505050500390f35b919360019193955060206107f68192603f198a82030186528851610e69565b96019201920185949391926107c8565b60e0366003190112610139576004356001600160a01b03811690819003610139576024356001600160401b03811161013957610846903690600401610e18565b6044356001600160401b03811161013957610865903690600401610e18565b906064356001600160401b03811161013957610885903690600401610e18565b906084356001600160401b038111610139576108a5903690600401610e18565b60a4356001600160401b038111610139576108c4903690600401610e18565b93909460c4356001600160401b038111610139576108e6903690600401610e18565b979098335f52600360205261090660ff600260405f200154161515611091565b8c5f52600360205261092360ff600260405f2001541615156110d4565b5f8d815260046020908152604080832033845290915290205460ff1615610bb357335f52600460205260405f208d5f5260205260ff60405f20541615610b58578c34610af6575b50338d1015610a5a578c5f52600160205260405f20600160a01b6001900333165f5260205260405f209b6040519b6109a18d610f08565b338d528c34906020015236906109b692610f60565b60408c015236906109c692610f60565b60608a015236906109d692610f60565b608088015236906109e692610f60565b60a086015236906109f692610f60565b60c08401523690610a0692610f60565b60e0820152610a149161127f565b5f52600260205260405f208054600160401b81101561057057610a3c9160018201815561107c565b81546001600160a01b0360039290921b91821b19163390911b179055005b335f52600160205260405f208d5f5260205260405f209b6040519b610a7e8d610f08565b338d528c3490602001523690610a9392610f60565b60408c01523690610aa392610f60565b60608a01523690610ab392610f60565b60808801523690610ac392610f60565b60a08601523690610ad392610f60565b60c08401523690610ae392610f60565b60e0820152610af19161127f565b610a14565b5f8080809334905af1610b07611201565b5015610b13578c61096a565b60405162461bcd60e51b815260206004820152601960248201527f4d6573736167652077697468206574686572206661696c6564000000000000006044820152606490fd5b60405162461bcd60e51b815260206004820152602d60248201527f596f752068617665206e6f7420616c6c6f77656420726563656976657220746f60448201526c1036b2b9b9b0b3b2903cb7ba9760991b6064820152608490fd5b60405162461bcd60e51b815260206004820152602a60248201527f5573657220686173206e6f7420616c6c6f77656420796f7520746f2073656e646044820152691036b2b9b9b0b3b2b99760b11b6064820152608490fd5b3461013957604036600319011261013957600435610c4d81602435610c31828211611120565b335f526002602052610c488160405f205411611178565b6111bc565b9060018201809211610d2257610c7b610c65836111d6565b92610c736040519485610f24565b8084526111d6565b602083019190601f19013683375f5b8351811015610cd457600190335f526002602052610cb560405f20610caf83866111c9565b9061107c565b838060a01b0391549060031b1c16610ccd82876111ed565b5201610c8a565b505090604051918291602083019060208452518091526040830191905f5b818110610d00575050500390f35b82516001600160a01b0316845285945060209384019390920191600101610cf2565b634e487b7160e01b5f52601160045260245ffd5b3461013957604036600319011261013957610d4f610dec565b6024359081151580920361013957335f526003602052610d7a60ff600260405f200154161515611091565b6001600160a01b0381165f90815260036020526040902060020154610da39060ff1615156110d4565b335f52600460205260405f209060018060a01b03165f5260205260405f209060ff801983541691161790555f80f35b34610139575f366003190112610139576020906005548152f35b600435906001600160a01b038216820361013957565b602435906001600160a01b038216820361013957565b9181601f84011215610139578235916001600160401b038311610139576020838186019501011161013957565b805180835260209291819084018484015e5f828201840152601f01601f1916010190565b610f059160018060a01b0382511681526020820151602082015260e0610ef4610ee2610ed0610ebe610eac60408801516101006040890152610100880190610e45565b60608801518782036060890152610e45565b60808701518682036080880152610e45565b60a086015185820360a0870152610e45565b60c085015184820360c0860152610e45565b9201519060e0818403910152610e45565b90565b61010081019081106001600160401b0382111761057057604052565b90601f801991011681019081106001600160401b0382111761057057604052565b6001600160401b03811161057057601f01601f191660200190565b929192610f6c82610f45565b91610f7a6040519384610f24565b829481845281830111610139578281602093845f960137010152565b8054821015610faf575f5260205f209060031b01905f90565b634e487b7160e01b5f52603260045260245ffd5b90600182811c92168015610ff1575b6020831014610fdd57565b634e487b7160e01b5f52602260045260245ffd5b91607f1691610fd2565b5f929181549161100a83610fc3565b808352926001811690811561105f575060011461102657505050565b5f9081526020812093945091925b838310611045575060209250010190565b600181602092949394548385870101520191019190611034565b915050602093945060ff929192191683830152151560051b010190565b8054821015610faf575f5260205f2001905f90565b1561109857565b60405162461bcd60e51b81526020600482015260146024820152732ab9b2b9103737ba103932b3b4b9ba32b932b21760611b6044820152606490fd5b156110db57565b60405162461bcd60e51b815260206004820152601b60248201527f5265636569766572206973206e6f7420726567697374657265642e00000000006044820152606490fd5b1561112757565b60405162461bcd60e51b8152602060048201526024808201527f5f73746172742067726561746572207468656e206f7220657175616c20746f2060448201526317d95b9960e21b6064820152608490fd5b1561117f57565b60405162461bcd60e51b81526020600482015260156024820152744e6f7420656e6f756768206d657373656e6765727360581b6044820152606490fd5b91908203918211610d2257565b91908201809211610d2257565b6001600160401b0381116105705760051b60200190565b8051821015610faf5760209160051b010190565b3d1561122b573d9061121282610f45565b916112206040519384610f24565b82523d5f602084013e565b606090565b601f821161123d57505050565b5f5260205f20906020601f840160051c83019310611275575b601f0160051c01905b81811061126a575050565b5f815560010161125f565b9091508190611256565b9190918054600160401b8110156105705761129f91600182018155610f96565b61174f57825181546001600160a01b0319166001600160a01b0391909116178155602083015160018201556040830151805160028301916001600160401b038211610570576112f8826112f28554610fc3565b85611230565b602090601f83116001146116ec5761132792915f91836114f1575b50508160011b915f199060031b1c19161790565b90555b6003810160608401518051906001600160401b03821161057057611352826112f28554610fc3565b602090601f83116001146116895761138092915f91836114f15750508160011b915f199060031b1c19161790565b90555b6004810160808401518051906001600160401b038211610570576113ab826112f28554610fc3565b602090601f8311600114611626576113d992915f91836114f15750508160011b915f199060031b1c19161790565b90555b6005810160a08401518051906001600160401b03821161057057611404826112f28554610fc3565b602090601f83116001146115c35761143292915f91836114f15750508160011b915f199060031b1c19161790565b90555b6006810160c08401518051906001600160401b0382116105705761145d826112f28554610fc3565b602090601f831160011461155a578260e0959360079593611492935f926114f15750508160011b915f199060031b1c19161790565b90555b019201519182516001600160401b038111610570576114be816114b88454610fc3565b84611230565b6020601f82116001146114fc5781906114ed9394955f926114f15750508160011b915f199060031b1c19161790565b9055565b015190505f80611313565b601f19821690835f52805f20915f5b8181106115425750958360019596971061152a575b505050811b019055565b01515f1960f88460031b161c191690555f8080611520565b9192602060018192868b01518155019401920161150b565b90601f19831691845f52815f20925f5b8181106115ab575092600192859260e098966007989610611593575b505050811b019055611495565b01515f1960f88460031b161c191690555f8080611586565b9293602060018192878601518155019501930161156a565b90601f19831691845f52815f20925f5b81811061160e57509084600195949392106115f6575b505050811b019055611435565b01515f1960f88460031b161c191690555f80806115e9565b929360206001819287860151815501950193016115d3565b90601f19831691845f52815f20925f5b8181106116715750908460019594939210611659575b505050811b0190556113dc565b01515f1960f88460031b161c191690555f808061164c565b92936020600181928786015181550195019301611636565b90601f19831691845f52815f20925f5b8181106116d457509084600195949392106116bc575b505050811b019055611383565b01515f1960f88460031b161c191690555f80806116af565b92936020600181928786015181550195019301611699565b90601f19831691845f52815f20925f5b818110611737575090846001959493921061171f575b505050811b01905561132a565b01515f1960f88460031b161c191690555f8080611712565b929360206001819287860151815501950193016116fc565b634e487b7160e01b5f525f60045260245ffd5b6040519061176f82610f08565b606060e0835f81525f602082015282604082015282808201528260808201528260a08201528260c08201520152565b156117a557565b60405162461bcd60e51b81526020600482015260146024820152732737ba1032b737bab3b41036b2b9b9b0b3b2b99760611b6044820152606490fd5b90600760e06040516117f281610f08565b6118a8819560018060a01b03815416835260018101546020840152604051611828816118218160028601610ffb565b0382610f24565b6040840152604051611841816118218160038601610ffb565b606084015260405161185a816118218160048601610ffb565b6080840152604051611873816118218160058601610ffb565b60a084015260405161188c816118218160068601610ffb565b60c08401526118a16040518096819301610ffb565b0384610f24565b0152565b92916118b9828211611120565b6118c382826111bc565b9060018201809211610d22576118d8826111d6565b916118e66040519384610f24565b8083526118f5601f19916111d6565b015f5b818110611a19575091946001600160a01b0316915084338310611997575061193790335f52600160205260405f20835f5260205260405f20541161179e565b5f5b845181101561199257600190335f528160205260405f20835f5260205261197661197060405f2061196a84886111c9565b90610f96565b506117e1565b61198082886111ed565b5261198b81876111ed565b5001611939565b505050565b94506119c290825f52600160205260405f2060018060a01b0333165f5260205260405f20541161179e565b33905f5b8551811015611a1357600190825f528160205260405f20845f526020526119f761197060405f2061196a84896111c9565b611a0182896111ed565b52611a0c81886111ed565b50016119c6565b50505050565b602090611a24611762565b828287010152016118f8565b611a38611762565b506001600160a01b0316338110611a8e57610f059161197091335f52600160205260405f20815f52602052611a738260405f2054101561179e565b335f52600160205260405f20905f5260205260405f20610f96565b610f059181611970925f52600160205260405f2060018060a01b0333165f52602052611ac08260405f2054101561179e565b5f9081526001602090815260408083203384529091529020610f96565b6001600160a01b0316338110611b0757335f52600160205260405f20905f5260205260405f205490565b5f90815260016020908152604080832033845290915290205490565b5f546001600160a01b03163303611b3657565b606460405162461bcd60e51b815260206004820152602060248201527f4f776e61626c653a2063616c6c6572206973206e6f7420746865206f776e65726044820152fd5b9060418151145f14611ba657611ba291602082015190606060408401519301515f1a90611baf565b9091565b50505f90600290565b7f7fffffffffffffffffffffffffffffff5d576e7357a4501ddfe92f46681b20a08411611c2a576020935f9360ff60809460405194855216868401526040830152606082015282805260015afa15611c1f575f516001600160a01b03811615611c1757905f90565b505f90600190565b6040513d5f823e3d90fd5b505050505f9060039056fea2646970667358221220be8d4512db20d13174f1a21ae971a7cd6c0b4359ea050e26e39cb748b72d270a64736f6c634300081c0033",
  "immutableReferences": {},
  "source": "pragma solidity ^0.8.0;\n\nimport { Ownable } from \"@openzeppelin/contracts/access/Ownable.sol\";\n\nimport { ECDSA } from \"@openzeppelin/contracts/utils/cryptography/ECDSA.sol\";\nimport { SignatureChecker } from \"@openzeppelin/contracts/utils/cryptography/SignatureChecker.sol\";\nimport { Helper } from \"../helper/Helper.sol\";\n \ncontract MessagesENS is Ownable{\n\n    // Messages\n    mapping(address => mapping(address => Message[])) public MessagesChannel;\n\n    mapping(address => address[]) public Messengers;\n\n    // Keys used to encrypt user message information\n    mapping(address => Key) public SignKeys;\n\n    // List to allow a user to give messages.\n    mapping(address => mapping(address => bool)) public AllowList;\n\n    struct Message{\n        address sender;\n        uint256 value;\n        string message;\n        string image;\n        bytes iv;\n        bytes ephemPublicKey;\n        bytes ciphertext;\n        bytes mac;\n    }\n\n    // Struct to define keys of users.\n    struct Key{\n        bytes32 r;\n        bytes32 s;\n        uint8 v;\n    }\n\n    // Hash for SignKeys signature verification.\n    bytes32 public EnableHash;\n\n    modifier onlyRegistered(address _second){\n        require(SignKeys[msg.sender].v != 0, \"User not registered.\");\n        require(SignKeys[_second].v != 0, \"Receiver is not registered.\");\n        _;\n    }\n\n    constructor(){\n         EnableHash = ECDSA.toEthSignedMessageHash(bytes(\"Enable Messages.\"));\n    }   \n\n    function register(bytes memory _signature) public{\n\n        require(SignatureChecker.isValidSignatureNow(msg.sender, EnableHash, _signature), \"Invalid Signature.\");\n        \n        bytes32 _r;\n        bytes32 _s;\n        uint8 _v;\n        // ecrecover takes the signature parameters, and the only way to get them\n        // currently is to use assembly.\n        /// @solidity memory-safe-assembly\n        assembly {\n            _r := mload(add(_signature, 0x20))\n            _s := mload(add(_signature, 0x40))\n            _v := byte(0, mload(add(_signature, 0x60)))\n        }\n\n        SignKeys[msg.sender] = Key(_r, _s, _v);\n    }\n\n    // Blocks the receiver \n    function allow(address _sender, bool _allow) public onlyRegistered(_sender){\n        AllowList[msg.sender][_sender] = _allow;\n    }\n\n    function message(address payable _receiver, string calldata _message, string calldata _image, bytes calldata _iv, bytes calldata _ephemPublicKey,  bytes calldata _ciphertext, bytes calldata _mac) public payable onlyRegistered(_receiver){\n       require(AllowList[_receiver][msg.sender], \"User has not allowed you to send messages.\");\n       require(AllowList[msg.sender][_receiver], \"You have not allowed receiver to message you.\");\n       if(msg.value != 0){\n            (bool sent, ) = _receiver.call{value: msg.value}(\"\");\n            require(sent, \"Message with ether failed\");\n       }\n       if(_receiver < msg.sender){\n            MessagesChannel[_receiver][msg.sender].push(Message(msg.sender, msg.value, _message, _image, _iv, _ephemPublicKey, _ciphertext, _mac));\n       }else{\n            MessagesChannel[msg.sender][_receiver].push(Message(msg.sender, msg.value, _message, _image, _iv, _ephemPublicKey, _ciphertext, _mac));\n       }\n       Messengers[_receiver].push(msg.sender);\n    }\n\n    function retrieve(address _receiver, uint256 _start, uint256 _end) public view returns(Message[] memory _messages){\n        require(_end > _start, \"_start greater then or equal to _end\");\n        _messages = new Message[]((_end - _start + 1));\n        if(_receiver < msg.sender){\n            require(MessagesChannel[_receiver][msg.sender].length > _end, \"Not enough messages.\");\n            for(uint256 i = 0; i < _messages.length; i++){\n                _messages[i] = MessagesChannel[_receiver][msg.sender][_start + i];\n            }\n            return _messages;\n        }\n        require(MessagesChannel[msg.sender][_receiver].length > _end, \"Not enough messages.\");\n        for(uint256 i = 0; i < _messages.length; i++){\n            _messages[i] = MessagesChannel[msg.sender][_receiver][_start + i];\n        }\n        \n    }\n\n    function retrieve(address _receiver, uint256 _index) public view returns(Message memory _message){ \n        if(_receiver < msg.sender){\n            require(MessagesChannel[_receiver][msg.sender].length >= _index, \"Not enough messages.\");\n            return MessagesChannel[_receiver][msg.sender][_index];\n        }\n        require(MessagesChannel[msg.sender][_receiver].length >= _index, \"Not enough messages.\");\n        return MessagesChannel[msg.sender][_receiver][_index];\n    }\n\n    function retrieve_messengers(uint256 _start, uint _end) public view returns(address[] memory _messengers){\n        require(_end > _start, \"_start greater then or equal to _end\");\n        require(Messengers[msg.sender].length > _end, \"Not enough messengers\");\n        _messengers = new address[]((_end - _start + 1));\n        for(uint256 i = 0; i < _messengers.length; i++){\n            _messengers[i] = Messengers[msg.sender][_start + i];\n        }\n    }\n\n    function retrieve_messenger(uint256 _index) public view returns(address _messenger){\n        require(Messengers[msg.sender].length > _index, \"Not enough messengers\");\n        return Messengers[msg.sender][_index];\n    }\n\n    function total(address _receiver) public view returns(uint256 _total){\n        if(_receiver < msg.sender){\n            return MessagesChannel[_receiver][msg.sender].length;\n        }\n        return MessagesChannel[msg.sender][_receiver].length;\n    }\n\n    function total_messengers() public view returns (uint256 _total){\n        return Messengers[msg.sender].length;\n    }\n\n}",
  "sourcePath": "/home/stephensb/sb-labs/solidity-contracts/contracts/messages-ens/MessagesENS.sol",
  "compiler": {
    "name": "solc",
    "version": "0.8.28+commit.7893614a.Emscripten.clang"
  },
  "schemaVersion": "3.4.12",
  "updatedAt": "2024-12-18T07:36:00.840Z",
  "devdoc": {
    "kind": "dev",
    "methods": {
      "owner()": {
        "details": "Returns the address of the current owner."
      },
      "renounceOwnership()": {
        "details": "Leaves the contract without owner. It will not be possible to call `onlyOwner` functions. Can only be called by the current owner. NOTE: Renouncing ownership will leave the contract without an owner, thereby disabling any functionality that is only available to the owner."
      },
      "transferOwnership(address)": {
        "details": "Transfers ownership of the contract to a new account (`newOwner`). Can only be called by the current owner."
      }
    },
    "version": 1
  },
  "userdoc": {
    "kind": "user",
    "methods": {},
    "version": 1
  }
}