{
  "contractName": "MockAsset",
  "abi": [
    {
      "inputs": [
        {
          "internalType": "string",
          "name": "_name",
          "type": "string"
        },
        {
          "internalType": "string",
          "name": "_symbol",
          "type": "string"
        },
        {
          "internalType": "uint256",
          "name": "_amount",
          "type": "uint256"
        },
        {
          "internalType": "uint8",
          "name": "_decimal",
          "type": "uint8"
        }
      ],
      "stateMutability": "nonpayable",
      "type": "constructor"
    },
    {
      "anonymous": false,
      "inputs": [
        {
          "indexed": true,
          "internalType": "address",
          "name": "owner",
          "type": "address"
        },
        {
          "indexed": true,
          "internalType": "address",
          "name": "spender",
          "type": "address"
        },
        {
          "indexed": false,
          "internalType": "uint256",
          "name": "value",
          "type": "uint256"
        }
      ],
      "name": "Approval",
      "type": "event"
    },
    {
      "anonymous": false,
      "inputs": [
        {
          "indexed": true,
          "internalType": "address",
          "name": "from",
          "type": "address"
        },
        {
          "indexed": true,
          "internalType": "address",
          "name": "to",
          "type": "address"
        },
        {
          "indexed": false,
          "internalType": "uint256",
          "name": "value",
          "type": "uint256"
        }
      ],
      "name": "Transfer",
      "type": "event"
    },
    {
      "inputs": [
        {
          "internalType": "address",
          "name": "owner",
          "type": "address"
        },
        {
          "internalType": "address",
          "name": "spender",
          "type": "address"
        }
      ],
      "name": "allowance",
      "outputs": [
        {
          "internalType": "uint256",
          "name": "",
          "type": "uint256"
        }
      ],
      "stateMutability": "view",
      "type": "function"
    },
    {
      "inputs": [
        {
          "internalType": "address",
          "name": "spender",
          "type": "address"
        },
        {
          "internalType": "uint256",
          "name": "amount",
          "type": "uint256"
        }
      ],
      "name": "approve",
      "outputs": [
        {
          "internalType": "bool",
          "name": "",
          "type": "bool"
        }
      ],
      "stateMutability": "nonpayable",
      "type": "function"
    },
    {
      "inputs": [
        {
          "internalType": "address",
          "name": "account",
          "type": "address"
        }
      ],
      "name": "balanceOf",
      "outputs": [
        {
          "internalType": "uint256",
          "name": "",
          "type": "uint256"
        }
      ],
      "stateMutability": "view",
      "type": "function"
    },
    {
      "inputs": [],
      "name": "decimal",
      "outputs": [
        {
          "internalType": "uint8",
          "name": "",
          "type": "uint8"
        }
      ],
      "stateMutability": "view",
      "type": "function"
    },
    {
      "inputs": [
        {
          "internalType": "address",
          "name": "spender",
          "type": "address"
        },
        {
          "internalType": "uint256",
          "name": "subtractedValue",
          "type": "uint256"
        }
      ],
      "name": "decreaseAllowance",
      "outputs": [
        {
          "internalType": "bool",
          "name": "",
          "type": "bool"
        }
      ],
      "stateMutability": "nonpayable",
      "type": "function"
    },
    {
      "inputs": [
        {
          "internalType": "address",
          "name": "spender",
          "type": "address"
        },
        {
          "internalType": "uint256",
          "name": "addedValue",
          "type": "uint256"
        }
      ],
      "name": "increaseAllowance",
      "outputs": [
        {
          "internalType": "bool",
          "name": "",
          "type": "bool"
        }
      ],
      "stateMutability": "nonpayable",
      "type": "function"
    },
    {
      "inputs": [],
      "name": "name",
      "outputs": [
        {
          "internalType": "string",
          "name": "",
          "type": "string"
        }
      ],
      "stateMutability": "view",
      "type": "function"
    },
    {
      "inputs": [],
      "name": "symbol",
      "outputs": [
        {
          "internalType": "string",
          "name": "",
          "type": "string"
        }
      ],
      "stateMutability": "view",
      "type": "function"
    },
    {
      "inputs": [],
      "name": "totalSupply",
      "outputs": [
        {
          "internalType": "uint256",
          "name": "",
          "type": "uint256"
        }
      ],
      "stateMutability": "view",
      "type": "function"
    },
    {
      "inputs": [
        {
          "internalType": "address",
          "name": "to",
          "type": "address"
        },
        {
          "internalType": "uint256",
          "name": "amount",
          "type": "uint256"
        }
      ],
      "name": "transfer",
      "outputs": [
        {
          "internalType": "bool",
          "name": "",
          "type": "bool"
        }
      ],
      "stateMutability": "nonpayable",
      "type": "function"
    },
    {
      "inputs": [
        {
          "internalType": "address",
          "name": "from",
          "type": "address"
        },
        {
          "internalType": "address",
          "name": "to",
          "type": "address"
        },
        {
          "internalType": "uint256",
          "name": "amount",
          "type": "uint256"
        }
      ],
      "name": "transferFrom",
      "outputs": [
        {
          "internalType": "bool",
          "name": "",
          "type": "bool"
        }
      ],
      "stateMutability": "nonpayable",
      "type": "function"
    },
    {
      "inputs": [],
      "name": "decimals",
      "outputs": [
        {
          "internalType": "uint8",
          "name": "",
          "type": "uint8"
        }
      ],
      "stateMutability": "view",
      "type": "function"
    }
  ],
  "bytecode": "0x60a06040523415620000115760006000fd5b620012908038036200002381620001b7565b818382398181019250608081840312156200003e5760006000fd5b8051915067ffffffffffffffff808311156200005a5760006000fd5b6200006884848401620000ea565b92506020820151818111156200007e5760006000fd5b6200008c85828501620000ea565b9450505060408101516060820151915060ff821682141515620000af5760006000fd5b620000bd828286866200021d565b50505050608051610b8e806200070260003981600081816101b3015261027d0152806000f3505062000700565b600082601f8301121515620000fd578081fd5b815167ffffffffffffffff8111156200011b576200011a620006cf565b5b60206200014f817fffffffffffffffffffffffffffffffffffffffffffffffffffffffffffffffe0601f85011601620001b7565b828152858284870101111562000163578384fd5b835b8381101562000186578281870101518382840101525b828101905062000165565b838111156200019757848385840101525b508093505050505b92915050565b60006020820190508282525b92915050565b6000604051905081810181811067ffffffffffffffff82111715620001e157620001e0620006cf565b5b80604052505b919050565b60008181526020812090505b919050565b5b818110156200021857600081555b600181019050620001fe565b5b5050565b805167ffffffffffffffff8111156200023b576200023a620006cf565b5b6200024860035462000534565b6000602090506000601f8411601f84118181171562000270576200026d6003620001ec565b92505b8015620002a15783601f8701048301848710156200028c578390505b6200029f85601f880104850182620001fd565b505b508060018114620002f557600094508515620002be578387015194505b856002027fffffffffffffffffffffffffffffffffffffffffffffffffffffffffffffffff876008021c1986161760035562000390565b7fffffffffffffffffffffffffffffffffffffffffffffffffffffffffffffffe0861694508260005b8681101562000346578589015182556001820191506020860195505b6020810190506200031e565b50868610156200038457848801517fffffffffffffffffffffffffffffffffffffffffffffffffffffffffffffffff601f89166008021c1981168255505b50600160028702016003555b505050505050620003a3826004620003ba565b83608052620003b3833362000591565b5b50505050565b815167ffffffffffffffff811115620003d857620003d7620006cf565b5b620003e4825462000534565b6000602090506000601f8411601f8411818117156200040b576200040887620001ec565b92505b80156200043c5783601f87010483018487101562000427578390505b6200043a85601f880104850182620001fd565b505b5080600181146200048f5760009450851562000459578388015194505b856002027fffffffffffffffffffffffffffffffffffffffffffffffffffffffffffffffff876008021c19861617875562000529565b7fffffffffffffffffffffffffffffffffffffffffffffffffffffffffffffffe0861694508260005b86811015620004e057858a015182556001820191506020860195505b602081019050620004b8565b50868610156200051e57848901517fffffffffffffffffffffffffffffffffffffffffffffffffffffffffffffffff601f89166008021c1981168255505b506001600287020187555b5050505050505b5050565b6000600282049050600182168015156200054f57607f821691505b602082108114156200058a577f4e487b7100000000000000000000000000000000000000000000000000000000600052602260045260246000fd5b505b919050565b73ffffffffffffffffffffffffffffffffffffffff811615156200060f576040517f08c379a000000000000000000000000000000000000000000000000000000000815260206004820152601f60248201527f45524332303a206d696e7420746f20746865207a65726f2061646472657373006044820152606481fd505b60025482198111156200064b577f4e487b7100000000000000000000000000000000000000000000000000000000600052601160045260246000fd5b828101600255506200065f816000620006a3565b828154018155506040518160007fddf252ad1be2c89b69c2b068fc378daa952ba7f163c4a11628f55a4df523b3ef836200069a8786620001a5565b0384a3505b5050565b600073ffffffffffffffffffffffffffffffffffffffff83168152816020526040812090505b92915050565b7f4e487b7100000000000000000000000000000000000000000000000000000000600052604160045260246000fd5b565bfe6080604052600480361015156103ad576000803560e01c6306fdde03811461009f5763095ea7b381146100db576318160ddd811461011a576323b872dd811461014f5763313ce567811461019057633950935181146101e1576370a082318114610220576376809ce3811461025a576395d89b4181146102ab5763a457c2d781146102e65763a9059cbb81146103255763dd62ed3e8114610364576103aa565b34156100a9578182fd5b6100b336846103dc565b6100bd60036105aa565b6100c683610548565b806100d183836104c7565b0381f350506103aa565b34156100e5578182fd5b6100ef3684610486565b6100f981836108a8565b91505061010583610548565b8061011083836104b3565b0381f350506103aa565b3415610124578182fd5b61012e36846103dc565b60025461013a83610548565b806101458383610521565b0381f350506103aa565b3415610159578182fd5b6101633684610449565b61016e8183856109c8565b9250505061017b83610548565b8061018683836104b3565b0381f350506103aa565b341561019a578182fd5b6101a436846103dc565b6101ad82610548565b806101d87f000000000000000000000000000000000000000000000000000000000000000083610533565b0381f3506103aa565b34156101eb578182fd5b6101f53684610486565b6101ff818361097a565b91505061020b83610548565b8061021683836104b3565b0381f350506103aa565b341561022a578182fd5b61023c61023736856103f2565b6108c0565b61024583610548565b806102508383610521565b0381f350506103aa565b3415610264578182fd5b61026e36846103dc565b61027782610548565b806102a27f000000000000000000000000000000000000000000000000000000000000000083610533565b0381f3506103aa565b34156102b5578182fd5b6102bf36846103dc565b6102c8836105aa565b6102d183610548565b806102dc83836104c7565b0381f350506103aa565b34156102f0578182fd5b6102fa3684610486565b61030481836108d5565b91505061031083610548565b8061031b83836104b3565b0381f350506103aa565b341561032f578182fd5b6103393684610486565b6103438183610a68565b91505061034f83610548565b8061035a83836104b3565b0381f350506103aa565b341561036e578182fd5b6103783684610415565b61038c81610387846001610a80565b610a80565b5491505061039983610548565b806103a48383610521565b0381f350505b50505b5060006000fd610b8d565b6000813590506001600160a01b038116811415156103d65760006000fd5b5b919050565b600081830312156103ed5760006000fd5b5b5050565b600060208284031215610403578081fd5b61040c826103b8565b90505b92915050565b6000600060408385031215610428578081fd5b610431836103b8565b915061043f602084016103b8565b90505b9250929050565b6000600060006060848603121561045e578081fd5b610467846103b8565b9250610475602085016103b8565b9150604084013590505b9250925092565b6000600060408385031215610499578182fd5b6104a2836103b8565b9150602083013590505b9250929050565b600060208201905082151582525b92915050565b6000602080835283518082850152825b818110156104f757828187010151604082870101525b82810190506104d7565b818111156105085783604083870101525b506040601f19601f830116850101925050505b92915050565b60006020820190508282525b92915050565b600060208201905060ff831682525b92915050565b6000604051905081810181811067ffffffffffffffff8211171561057c57634e487b7160e01b600052604160045260246000fd5b80604052505b919050565b60008181526020812090505b919050565b60008282526020820190505b92915050565b60006040519050600082548160028204905060018083168015156105cf57607f831692505b60208084108214156105ef57634e487b7160e01b86526022600452602486fd5b6105f98488610598565b826000811461060f576001811461062057610652565b60ff19871682528282019750610652565b6106298a610587565b60005b8781101561064a5781548185015286820191505b848101905061062c565b808401995050505b5050505050505080604052505b919050565b6001600160a01b0380821615156106e15760405162461bcd60e51b815260206004820152602460248201527f45524332303a20617070726f76652066726f6d20746865207a65726f2061646460448201527f72657373000000000000000000000000000000000000000000000000000000006064820152608481fd505b80831615156107565760405162461bcd60e51b815260206004820152602260248201527f45524332303a20617070726f766520746f20746865207a65726f20616464726560448201527f73730000000000000000000000000000000000000000000000000000000000006064820152608481fd505b508261076c83610767846001610a80565b610a80565b5560405182827f8c5be1e5ebec7d5bd14f71427d1e84f3dd0314c0f7b2291e5b200ac8c7c3b9258361079e8886610521565b0384a3505b505050565b6001600160a01b0380821615156108255760405162461bcd60e51b815260206004820152602560248201527f45524332303a207472616e736665722066726f6d20746865207a65726f20616460448201527f64726573730000000000000000000000000000000000000000000000000000006064820152608481fd505b6108328184161515610a9f565b5061083e816000610a80565b5461084b84821015610b16565b838103610859836000610a80565b5550610866826000610a80565b8381540181555060405182827fddf252ad1be2c89b69c2b068fc378daa952ba7f163c4a11628f55a4df523b3ef8361089e8886610521565b0384a3505b505050565b60006108b5838333610664565b600190505b92915050565b60006108cc8282610a80565b5490505b919050565b600033815260016020526108ec8260408320610a80565b54838110156109615760405162461bcd60e51b815260206004820152602560248201527f45524332303a2064656372656173656420616c6c6f77616e63652062656c6f7760448201527f207a65726f0000000000000000000000000000000000000000000000000000006064820152608481fd505b61096e8482038433610664565b50600190505b92915050565b600033815260016020526109918260408320610a80565b5483198111156109af57634e487b7160e01b82526011600452602482fd5b6109bc8482018433610664565b50600190505b92915050565b60006001600160a01b038216815260016020526109e83360408320610a80565b5460001981141515610a505784811015610a425760405162461bcd60e51b815260206004820152601d60248201527f45524332303a20696e73756666696369656e7420616c6c6f77616e63650000006044820152606481fd505b610a4f8582033385610664565b5b50610a5c8484846107a8565b600190505b9392505050565b6000610a758383336107a8565b600190505b92915050565b60006001600160a01b0383168152816020526040812090505b92915050565b801515610b125760405162461bcd60e51b815260206004820152602360248201527f45524332303a207472616e7366657220746f20746865207a65726f206164647260448201527f65737300000000000000000000000000000000000000000000000000000000006064820152608481fd505b5b50565b801515610b895760405162461bcd60e51b815260206004820152602660248201527f45524332303a207472616e7366657220616d6f756e742065786365656473206260448201527f616c616e636500000000000000000000000000000000000000000000000000006064820152608481fd505b5b50565b",
  "deployedBytecode": "0x",
  "immutableReferences": {},
  "source": "// SPDX-License-Identifier: MIT\npragma solidity =0.8.0;\n\nimport \"@openzeppelin/contracts/token/ERC20/ERC20.sol\";\n\ncontract MockAsset is ERC20{\n\n    uint8 public immutable decimal; \n\n    constructor(string memory _name, string memory _symbol, uint256 _amount, uint8 _decimal)ERC20(_name, _symbol){\n        decimal = _decimal;\n        _mint(msg.sender, _amount);\n    }\n    \n    function decimals() public view virtual override returns (uint8) {\n        return decimal;\n    }\n    \n}",
  "sourcePath": "/home/stephensb/sb-labs/solidity-contracts/contracts/mock-asset/MockAsset.sol",
  "compiler": {
    "name": "solc",
    "version": "0.8.0+commit.c7dfd78e.Emscripten.clang"
  },
  "schemaVersion": "3.4.12",
  "updatedAt": "2023-11-30T23:53:03.309Z",
  "devdoc": {
    "kind": "dev",
    "methods": {
      "allowance(address,address)": {
        "details": "See {IERC20-allowance}."
      },
      "approve(address,uint256)": {
        "details": "See {IERC20-approve}. NOTE: If `amount` is the maximum `uint256`, the allowance is not updated on `transferFrom`. This is semantically equivalent to an infinite approval. Requirements: - `spender` cannot be the zero address."
      },
      "balanceOf(address)": {
        "details": "See {IERC20-balanceOf}."
      },
      "decimals()": {
        "details": "Returns the number of decimals used to get its user representation. For example, if `decimals` equals `2`, a balance of `505` tokens should be displayed to a user as `5.05` (`505 / 10 ** 2`). Tokens usually opt for a value of 18, imitating the relationship between Ether and Wei. This is the default value returned by this function, unless it's overridden. NOTE: This information is only used for _display_ purposes: it in no way affects any of the arithmetic of the contract, including {IERC20-balanceOf} and {IERC20-transfer}."
      },
      "decreaseAllowance(address,uint256)": {
        "details": "Atomically decreases the allowance granted to `spender` by the caller. This is an alternative to {approve} that can be used as a mitigation for problems described in {IERC20-approve}. Emits an {Approval} event indicating the updated allowance. Requirements: - `spender` cannot be the zero address. - `spender` must have allowance for the caller of at least `subtractedValue`."
      },
      "increaseAllowance(address,uint256)": {
        "details": "Atomically increases the allowance granted to `spender` by the caller. This is an alternative to {approve} that can be used as a mitigation for problems described in {IERC20-approve}. Emits an {Approval} event indicating the updated allowance. Requirements: - `spender` cannot be the zero address."
      },
      "name()": {
        "details": "Returns the name of the token."
      },
      "symbol()": {
        "details": "Returns the symbol of the token, usually a shorter version of the name."
      },
      "totalSupply()": {
        "details": "See {IERC20-totalSupply}."
      },
      "transfer(address,uint256)": {
        "details": "See {IERC20-transfer}. Requirements: - `to` cannot be the zero address. - the caller must have a balance of at least `amount`."
      },
      "transferFrom(address,address,uint256)": {
        "details": "See {IERC20-transferFrom}. Emits an {Approval} event indicating the updated allowance. This is not required by the EIP. See the note at the beginning of {ERC20}. NOTE: Does not update the allowance if the current allowance is the maximum `uint256`. Requirements: - `from` and `to` cannot be the zero address. - `from` must have a balance of at least `amount`. - the caller must have allowance for ``from``'s tokens of at least `amount`."
      }
    },
    "version": 1
  },
  "userdoc": {
    "kind": "user",
    "methods": {},
    "version": 1
  }
}