{
  "contractName": "MultiplicativePriceFeed",
  "abi": [
    {
      "inputs": [
        {
          "internalType": "address",
          "name": "priceFeedA_",
          "type": "address"
        },
        {
          "internalType": "address",
          "name": "priceFeedB_",
          "type": "address"
        },
        {
          "internalType": "uint8",
          "name": "decimals_",
          "type": "uint8"
        },
        {
          "internalType": "string",
          "name": "description_",
          "type": "string"
        }
      ],
      "stateMutability": "nonpayable",
      "type": "constructor"
    },
    {
      "inputs": [],
      "name": "BadDecimals",
      "type": "error"
    },
    {
      "inputs": [],
      "name": "InvalidInt256",
      "type": "error"
    },
    {
      "inputs": [],
      "name": "VERSION",
      "outputs": [
        {
          "internalType": "uint256",
          "name": "",
          "type": "uint256"
        }
      ],
      "stateMutability": "view",
      "type": "function"
    },
    {
      "inputs": [],
      "name": "combinedScale",
      "outputs": [
        {
          "internalType": "int256",
          "name": "",
          "type": "int256"
        }
      ],
      "stateMutability": "view",
      "type": "function"
    },
    {
      "inputs": [],
      "name": "decimals",
      "outputs": [
        {
          "internalType": "uint8",
          "name": "",
          "type": "uint8"
        }
      ],
      "stateMutability": "view",
      "type": "function"
    },
    {
      "inputs": [],
      "name": "description",
      "outputs": [
        {
          "internalType": "string",
          "name": "",
          "type": "string"
        }
      ],
      "stateMutability": "view",
      "type": "function"
    },
    {
      "inputs": [],
      "name": "priceFeedA",
      "outputs": [
        {
          "internalType": "address",
          "name": "",
          "type": "address"
        }
      ],
      "stateMutability": "view",
      "type": "function"
    },
    {
      "inputs": [],
      "name": "priceFeedB",
      "outputs": [
        {
          "internalType": "address",
          "name": "",
          "type": "address"
        }
      ],
      "stateMutability": "view",
      "type": "function"
    },
    {
      "inputs": [],
      "name": "priceFeedScale",
      "outputs": [
        {
          "internalType": "int256",
          "name": "",
          "type": "int256"
        }
      ],
      "stateMutability": "view",
      "type": "function"
    },
    {
      "inputs": [],
      "name": "latestRoundData",
      "outputs": [
        {
          "internalType": "uint80",
          "name": "",
          "type": "uint80"
        },
        {
          "internalType": "int256",
          "name": "",
          "type": "int256"
        },
        {
          "internalType": "uint256",
          "name": "",
          "type": "uint256"
        },
        {
          "internalType": "uint256",
          "name": "",
          "type": "uint256"
        },
        {
          "internalType": "uint80",
          "name": "",
          "type": "uint80"
        }
      ],
      "stateMutability": "view",
      "type": "function"
    },
    {
      "inputs": [],
      "name": "version",
      "outputs": [
        {
          "internalType": "uint256",
          "name": "",
          "type": "uint256"
        }
      ],
      "stateMutability": "pure",
      "type": "function"
    }
  ],
  "bytecode": "0x610120604090808252346200042e5762000b6c803803809162000023828562000449565b83398101906080818303126200042e576200003e816200046d565b6020906200004e8284016200046d565b916200005c86850162000482565b60608501516001600160401b03959192918682116200042e570191601f938785850112156200042e5783518781116200043357895194601f1999620000a8868c8a860116018862000449565b8287528583830101116200042e578185916000905b8282106200041457501162000405575b50508060a0528560c052885163313ce56760e01b80825260049785838a8160018060a01b038098165afa928315620003fa5786928a91600095620003b5575b508d5195869384928352165afa918215620003aa5760009262000364575b5060ff8091169116908160ff0381116200034f576200014a910162000491565b6001600160ff1b0381116200033f5760e052601260ff8216116200032f5760805281519485116200031a576000546001948582811c921680156200030f575b83831014620002fa5750838111620002af575b50809285116001146200024557508394509083929160009462000239575b50501b916000199060031b1c1916176000555b620001dd60ff6080511662000491565b90610100918252516106b29182620004ba8339608051826102e9015260a0518281816102a101526104c8015260c05182818161035b015261050a015260e051828181610324015261058c01525181818161024f01526105640152f35b015192503880620001ba565b9294849081166000805284600020946000905b888383106200029457505050106200027a575b505050811b01600055620001cd565b015160001960f88460031b161c191690553880806200026b565b85870151885590960195948501948793509081019062000258565b60008052816000208480880160051c820192848910620002f0575b0160051c019085905b828110620002e35750506200019c565b60008155018590620002d3565b92508192620002ca565b602290634e487b7160e01b6000525260246000fd5b91607f169162000189565b604184634e487b7160e01b6000525260246000fd5b8751630456c65960e51b81528590fd5b885163e7e828ad60e01b81528690fd5b601187634e487b7160e01b6000525260246000fd5b90918482813d8311620003a2575b6200037e818362000449565b810103126200039f575060ff62000396819262000482565b9291506200012a565b80fd5b503d62000372565b8a513d6000823e3d90fd5b84819495929693503d8311620003f2575b620003d2818362000449565b810103126200039f57509088620003ea879362000482565b93386200010c565b503d620003c6565b8c513d6000823e3d90fd5b600091860101523883620000cd565b92809250818401015182828a0101520182908692620000bd565b600080fd5b634e487b7160e01b600052604160045260246000fd5b601f909101601f19168101906001600160401b038211908210176200043357604052565b51906001600160a01b03821682036200042e57565b519060ff821682036200042e57565b60ff16604d8111620004a357600a0a90565b634e487b7160e01b600052601160045260246000fdfe60806040818152600436101561001457600080fd5b600091823560e01c90816314c04ff114610347575080632b9357df1461030d578063313ce567146102d0578063383cae1d1461028d57806354fd4d50146102725780635fd4c7c5146102385780637284e416146100ec578063feaf968c146100a35763ffa1ad741461008557600080fd5b3461009f578160031936011261009f576020905160018152f35b5080fd5b503461009f578160031936011261009f5760a0906100bf6104a4565b929480929192519569ffffffffffffffffffff809616875260208701528501526060840152166080820152f35b503461009f578160031936011261009f578051918080549160019083821c9180851694851561022e575b602095868510811461021a5784895288939291879082156101fa5750506001146101a1575b5061014b9250959295038261038a565b8251938285938452825192838286015282915b848310610189575050821061017d575b50601f01601f19168101030190f35b8382840101523861016e565b8183018101518884018801528795509182019161015e565b84805285915084907f290decd9548b62a8d60345a988386fc84ba6bc95484008f6362f93160ef3e5635b8583106101e257505061014b93508201013861013b565b8054838b0185015289945087939092019181016101cb565b60ff19168582015261014b95151560051b850101925038915061013b9050565b634e487b7160e01b86526022600452602486fd5b92607f1692610116565b503461009f578160031936011261009f57602090517f00000000000000000000000000000000000000000000000000000000000000008152f35b503461009f578160031936011261009f576020905160018152f35b503461009f578160031936011261009f57517f00000000000000000000000000000000000000000000000000000000000000006001600160a01b03168152602090f35b503461009f578160031936011261009f576020905160ff7f0000000000000000000000000000000000000000000000000000000000000000168152f35b503461009f578160031936011261009f57602090517f00000000000000000000000000000000000000000000000000000000000000008152f35b83903461009f578160031936011261009f577f00000000000000000000000000000000000000000000000000000000000000006001600160a01b03168152602090f35b90601f8019910116810190811067ffffffffffffffff8211176103ac57604052565b634e487b7160e01b600052604160045260246000fd5b519069ffffffffffffffffffff821682036103d957565b600080fd5b908160a09103126103d9576103f2816103c2565b916020820151916040810151916104106080606084015193016103c2565b90565b60008082138184136001600160ff1b0382821686820486111661047c57600160ff1b92848712929083168685058812166104905786858712940586129084161661047c57859005841291161661046857500290565b634e487b7160e01b81526011600452602490fd5b634e487b7160e01b84526011600452602484fd5b634e487b7160e01b85526011600452602485fd5b604051633fabe5a360e21b80825290916001600160a01b039160a0919082856004817f000000000000000000000000000000000000000000000000000000000000000088165afa94851561064a57600095610656575b50829060046040518096819382527f0000000000000000000000000000000000000000000000000000000000000000165afa90811561064a57600094859086958795889561060c575b505060008113801590610601575b6105f7576105899161056291610413565b7f000000000000000000000000000000000000000000000000000000000000000090610413565b947f00000000000000000000000000000000000000000000000000000000000000009081156105e157600160ff1b87146000198314166105cb57950593929190565b634e487b7160e01b600052601160045260246000fd5b634e487b7160e01b600052601260045260246000fd5b5050600093929190565b506000821315610551565b93965093509550506106339250803d10610643575b61062b818361038a565b8101906103de565b9395919490939290913880610543565b503d610621565b6040513d6000823e3d90fd5b8391955061067090823d84116106435761062b818361038a565b505050905094906104fa56fea2646970667358221220782e88b106381156574fd2fcea2129bbd861283288e259fe11f7a67a10c9a0be64736f6c634300080f0033",
  "immutableReferences": {
    "14236": [
      {
        "length": 32,
        "start": 745
      }
    ],
    "14239": [
      {
        "length": 32,
        "start": 673
      },
      {
        "length": 32,
        "start": 1224
      }
    ],
    "14242": [
      {
        "length": 32,
        "start": 859
      },
      {
        "length": 32,
        "start": 1290
      }
    ],
    "14245": [
      {
        "length": 32,
        "start": 804
      },
      {
        "length": 32,
        "start": 1420
      }
    ],
    "14248": [
      {
        "length": 32,
        "start": 591
      },
      {
        "length": 32,
        "start": 1380
      }
    ]
  },
  "source": "// SPDX-License-Identifier: BUSL-1.1\npragma solidity 0.8.15;\n\nimport \"../vendor/@chainlink/contracts/src/v0.8/interfaces/AggregatorV3Interface.sol\";\nimport \"../IPriceFeed.sol\";\n\n/**\n * @title Multiplicative price feed\n * @notice A custom price feed that multiplies the prices from two price feeds and returns the result\n * @author Compound\n */\ncontract MultiplicativePriceFeed is IPriceFeed {\n    /** Custom errors **/\n    error BadDecimals();\n    error InvalidInt256();\n\n    /// @notice Version of the price feed\n    uint public constant VERSION = 1;\n\n    /// @notice Description of the price feed\n    string public override description;\n\n    /// @notice Number of decimals for returned prices\n    uint8 public immutable override decimals;\n\n    /// @notice Chainlink price feed A\n    address public immutable priceFeedA;\n\n    /// @notice Chainlink price feed B\n    address public immutable priceFeedB;\n\n    /// @notice Combined scale of the two underlying Chainlink price feeds\n    int public immutable combinedScale;\n\n    /// @notice Scale of this price feed\n    int public immutable priceFeedScale;\n\n    /**\n     * @notice Construct a new multiplicative price feed\n     * @param priceFeedA_ The address of the first price feed to fetch prices from\n     * @param priceFeedB_ The address of the second price feed to fetch prices from\n     * @param decimals_ The number of decimals for the returned prices\n     * @param description_ The description of the price feed\n     **/\n    constructor(address priceFeedA_, address priceFeedB_, uint8 decimals_, string memory description_) {\n        priceFeedA = priceFeedA_;\n        priceFeedB = priceFeedB_;\n        uint8 priceFeedADecimals = AggregatorV3Interface(priceFeedA_).decimals();\n        uint8 priceFeedBDecimals = AggregatorV3Interface(priceFeedB_).decimals();\n        combinedScale = signed256(10 ** (priceFeedADecimals + priceFeedBDecimals));\n\n        if (decimals_ > 18) revert BadDecimals();\n        decimals = decimals_;\n        description = description_;\n        priceFeedScale = int256(10 ** decimals);\n    }\n\n    /**\n     * @notice Calculates the latest round data using data from the two price feeds\n     * @return roundId Round id from price feed B\n     * @return answer Latest price\n     * @return startedAt Timestamp when the round was started; passed on from price feed B\n     * @return updatedAt Timestamp when the round was last updated; passed on from price feed B\n     * @return answeredInRound Round id in which the answer was computed; passed on from price feed B\n     * @dev Note: Only the `answer` really matters for downstream contracts that use this price feed (e.g. Comet)\n     **/\n    function latestRoundData() override external view returns (uint80, int256, uint256, uint256, uint80) {\n        (, int256 priceA, , , ) = AggregatorV3Interface(priceFeedA).latestRoundData();\n        (uint80 roundId_, int256 priceB, uint256 startedAt_, uint256 updatedAt_, uint80 answeredInRound_) = AggregatorV3Interface(priceFeedB).latestRoundData();\n\n        if (priceA <= 0 || priceB <= 0) return (roundId_, 0, startedAt_, updatedAt_, answeredInRound_);\n\n        int256 price = priceA * priceB * priceFeedScale / combinedScale;\n        return (roundId_, price, startedAt_, updatedAt_, answeredInRound_);\n    }\n\n    function signed256(uint256 n) internal pure returns (int256) {\n        if (n > uint256(type(int256).max)) revert InvalidInt256();\n        return int256(n);\n    }\n\n    /**\n     * @notice Price for the latest round\n     * @return The version of the price feed contract\n     **/\n    function version() external pure returns (uint256) {\n        return VERSION;\n    }\n}",
  "sourcePath": "/home/stephensb/sb-labs/solidity-contracts/contracts/comet/contracts/pricefeeds/MultiplicativePriceFeed.sol",
  "compiler": {
    "name": "solc",
    "version": "0.8.15+commit.e14f2714.Emscripten.clang"
  },
  "schemaVersion": "3.4.12",
  "updatedAt": "2023-11-30T22:41:29.713Z",
  "devdoc": {
    "author": "Compound",
    "kind": "dev",
    "methods": {
      "constructor": {
        "params": {
          "decimals_": "The number of decimals for the returned prices",
          "description_": "The description of the price feed*",
          "priceFeedA_": "The address of the first price feed to fetch prices from",
          "priceFeedB_": "The address of the second price feed to fetch prices from"
        }
      },
      "latestRoundData()": {
        "details": "Note: Only the `answer` really matters for downstream contracts that use this price feed (e.g. Comet)*",
        "returns": {
          "_0": "roundId Round id from price feed B",
          "_1": "answer Latest price",
          "_2": "startedAt Timestamp when the round was started; passed on from price feed B",
          "_3": "updatedAt Timestamp when the round was last updated; passed on from price feed B",
          "_4": "answeredInRound Round id in which the answer was computed; passed on from price feed B"
        }
      },
      "version()": {
        "returns": {
          "_0": "The version of the price feed contract*"
        }
      }
    },
    "title": "Multiplicative price feed",
    "version": 1
  },
  "userdoc": {
    "errors": {
      "BadDecimals()": [
        {
          "notice": "Custom errors *"
        }
      ]
    },
    "kind": "user",
    "methods": {
      "VERSION()": {
        "notice": "Version of the price feed"
      },
      "combinedScale()": {
        "notice": "Combined scale of the two underlying Chainlink price feeds"
      },
      "constructor": {
        "notice": "Construct a new multiplicative price feed"
      },
      "decimals()": {
        "notice": "Number of decimals for returned prices"
      },
      "description()": {
        "notice": "Description of the price feed"
      },
      "latestRoundData()": {
        "notice": "Calculates the latest round data using data from the two price feeds"
      },
      "priceFeedA()": {
        "notice": "Chainlink price feed A"
      },
      "priceFeedB()": {
        "notice": "Chainlink price feed B"
      },
      "priceFeedScale()": {
        "notice": "Scale of this price feed"
      },
      "version()": {
        "notice": "Price for the latest round"
      }
    },
    "notice": "A custom price feed that multiplies the prices from two price feeds and returns the result",
    "version": 1
  }
}