{
  "contractName": "Name",
  "abi": [
    {
      "inputs": [],
      "stateMutability": "nonpayable",
      "type": "constructor"
    },
    {
      "inputs": [
        {
          "internalType": "address",
          "name": "",
          "type": "address"
        }
      ],
      "name": "Info",
      "outputs": [
        {
          "internalType": "string",
          "name": "name",
          "type": "string"
        },
        {
          "internalType": "string",
          "name": "bio",
          "type": "string"
        },
        {
          "internalType": "string",
          "name": "link",
          "type": "string"
        },
        {
          "internalType": "string",
          "name": "avatar",
          "type": "string"
        }
      ],
      "stateMutability": "view",
      "type": "function"
    },
    {
      "inputs": [
        {
          "internalType": "address",
          "name": "",
          "type": "address"
        }
      ],
      "name": "Names",
      "outputs": [
        {
          "internalType": "string",
          "name": "",
          "type": "string"
        }
      ],
      "stateMutability": "view",
      "type": "function"
    },
    {
      "inputs": [
        {
          "internalType": "string",
          "name": "",
          "type": "string"
        }
      ],
      "name": "NamesResolver",
      "outputs": [
        {
          "internalType": "address",
          "name": "",
          "type": "address"
        }
      ],
      "stateMutability": "view",
      "type": "function"
    },
    {
      "inputs": [
        {
          "internalType": "string",
          "name": "_name",
          "type": "string"
        },
        {
          "internalType": "string",
          "name": "_bio",
          "type": "string"
        },
        {
          "internalType": "string",
          "name": "_link",
          "type": "string"
        },
        {
          "internalType": "string",
          "name": "_avatar",
          "type": "string"
        }
      ],
      "name": "createName",
      "outputs": [],
      "stateMutability": "nonpayable",
      "type": "function"
    },
    {
      "inputs": [
        {
          "internalType": "string",
          "name": "_bio",
          "type": "string"
        },
        {
          "internalType": "string",
          "name": "_link",
          "type": "string"
        },
        {
          "internalType": "string",
          "name": "_avatar",
          "type": "string"
        }
      ],
      "name": "editInfo",
      "outputs": [],
      "stateMutability": "nonpayable",
      "type": "function"
    }
  ],
  "bytecode": "0x608060405234801561001057600080fd5b50610f7f806100206000396000f3fe608060405234801561001057600080fd5b50600436106100575760003560e01c806318bce5f61461005c5780631de39af4146100715780635c9355d71461009a578063fc017f25146100bd578063fcec0bcb146100d0575b600080fd5b61006f61006a366004610c95565b61011c565b005b61008461007f366004610ba0565b610452565b6040516100919190610e26565b60405180910390f35b6100ad6100a8366004610ba0565b6104ec565b6040516100919493929190610e39565b61006f6100cb366004610c0d565b610734565b6101046100de366004610bd0565b80516020818301810180516002825292820191909301209152546001600160a01b031681565b6040516001600160a01b039091168152602001610091565b604051600060208201528490849084908490603401604051602081830303815290604052805190602001206002856040516101579190610d6e565b90815260405190819003602090810182205460601b6bffffffffffffffffffffffff19169082015260340160405160208183030381529060405280519060200120146101ea5760405162461bcd60e51b815260206004820152601860248201527f546865204e616d6520416c7265616479204578697374732e000000000000000060448201526064015b60405180910390fd5b600284511161022e5760405162461bcd60e51b815260206004820152601060248201526f13985b59481a5cc81d1bc81cda1bdc9d60821b60448201526064016101e1565b60238451106102715760405162461bcd60e51b815260206004820152600f60248201526e4e616d6520697320746f206c6f6e6760881b60448201526064016101e1565b61012d8351106102b55760405162461bcd60e51b815260206004820152600f60248201526e2134b79034b9903a37903637b7339760891b60448201526064016101e1565b6102be82610a00565b6103015760405162461bcd60e51b815260206004820152601460248201527324b73b30b634b2102634b735902337b936b0ba1760611b60448201526064016101e1565b61030a81610a00565b61034f5760405162461bcd60e51b815260206004820152601660248201527524b73b30b634b21020bb30ba30b9102337b936b0ba1760511b60448201526064016101e1565b33600090815260208181526040909120895161036d928b0190610a7a565b506040805160808101825289815260208082018a905281830189905260608201889052336000908152600182529290922081518051929391926103b39284920190610a7a565b5060208281015180516103cc9260018501920190610a7a565b50604082015180516103e8916002840191602090910190610a7a565b5060608201518051610404916003840191602090910190610a7a565b50905050336002896040516104199190610d6e565b90815260405190819003602001902080546001600160a01b03929092166001600160a01b03199092169190911790555050505050505050565b6000602081905290815260409020805461046b90610ef8565b80601f016020809104026020016040519081016040528092919081815260200182805461049790610ef8565b80156104e45780601f106104b9576101008083540402835291602001916104e4565b820191906000526020600020905b8154815290600101906020018083116104c757829003601f168201915b505050505081565b60016020526000908152604090208054819061050790610ef8565b80601f016020809104026020016040519081016040528092919081815260200182805461053390610ef8565b80156105805780601f1061055557610100808354040283529160200191610580565b820191906000526020600020905b81548152906001019060200180831161056357829003601f168201915b50505050509080600101805461059590610ef8565b80601f01602080910402602001604051908101604052809291908181526020018280546105c190610ef8565b801561060e5780601f106105e35761010080835404028352916020019161060e565b820191906000526020600020905b8154815290600101906020018083116105f157829003601f168201915b50505050509080600201805461062390610ef8565b80601f016020809104026020016040519081016040528092919081815260200182805461064f90610ef8565b801561069c5780601f106106715761010080835404028352916020019161069c565b820191906000526020600020905b81548152906001019060200180831161067f57829003601f168201915b5050505050908060030180546106b190610ef8565b80601f01602080910402602001604051908101604052809291908181526020018280546106dd90610ef8565b801561072a5780601f106106ff5761010080835404028352916020019161072a565b820191906000526020600020905b81548152906001019060200180831161070d57829003601f168201915b5050505050905084565b828282604051806020016040528060008152506040516020016107579190610d6e565b60408051601f198184030181528282528051602091820120336000908152808352929092209192610789929101610d8a565b6040516020818303038152906040528051906020012014156107e35760405162461bcd60e51b81526020600482015260136024820152722730b6b2902737ba102932b3b4b9ba32b9321760691b60448201526064016101e1565b61012d8351106108275760405162461bcd60e51b815260206004820152600f60248201526e2134b79034b9903a37903637b7339760891b60448201526064016101e1565b61083082610a00565b6108735760405162461bcd60e51b815260206004820152601460248201527324b73b30b634b2102634b735902337b936b0ba1760611b60448201526064016101e1565b61087c81610a00565b6108c15760405162461bcd60e51b815260206004820152601660248201527524b73b30b634b21020bb30ba30b9102337b936b0ba1760511b60448201526064016101e1565b6040805160808101825233600090815260208190529190912080548291906108e890610ef8565b80601f016020809104026020016040519081016040528092919081815260200182805461091490610ef8565b80156109615780601f1061093657610100808354040283529160200191610961565b820191906000526020600020905b81548152906001019060200180831161094457829003601f168201915b505050918352505060208082018990526040808301899052606090920187905233600090815260018252919091208251805191926109a492849290910190610a7a565b5060208281015180516109bd9260018501920190610a7a565b50604082015180516109d9916002840191602090910190610a7a565b50606082015180516109f5916003840191602090910190610a7a565b505050505050505050565b604051666261666b72656960c81b60208201526000906027016040516020818303038152906040528051906020012082610a3990610e91565b6040516001600160c81b0319909116602082015260270160405160208183030381529060405280519060200120148015610a7457508151603b145b92915050565b828054610a8690610ef8565b90600052602060002090601f016020900481019282610aa85760008555610aee565b82601f10610ac157805160ff1916838001178555610aee565b82800160010185558215610aee579182015b82811115610aee578251825591602001919060010190610ad3565b50610afa929150610afe565b5090565b5b80821115610afa5760008155600101610aff565b600082601f830112610b2457600080fd5b813567ffffffffffffffff80821115610b3f57610b3f610f33565b604051601f8301601f19908116603f01168101908282118183101715610b6757610b67610f33565b81604052838152866020858801011115610b8057600080fd5b836020870160208301376000602085830101528094505050505092915050565b600060208284031215610bb257600080fd5b81356001600160a01b0381168114610bc957600080fd5b9392505050565b600060208284031215610be257600080fd5b813567ffffffffffffffff811115610bf957600080fd5b610c0584828501610b13565b949350505050565b600080600060608486031215610c2257600080fd5b833567ffffffffffffffff80821115610c3a57600080fd5b610c4687838801610b13565b94506020860135915080821115610c5c57600080fd5b610c6887838801610b13565b93506040860135915080821115610c7e57600080fd5b50610c8b86828701610b13565b9150509250925092565b60008060008060808587031215610cab57600080fd5b843567ffffffffffffffff80821115610cc357600080fd5b610ccf88838901610b13565b95506020870135915080821115610ce557600080fd5b610cf188838901610b13565b94506040870135915080821115610d0757600080fd5b610d1388838901610b13565b93506060870135915080821115610d2957600080fd5b50610d3687828801610b13565b91505092959194509250565b60008151808452610d5a816020860160208601610ec8565b601f01601f19169290920160200192915050565b60008251610d80818460208701610ec8565b9190910192915050565b600080835481600182811c915080831680610da657607f831692505b6020808410821415610dc657634e487b7160e01b86526022600452602486fd5b818015610dda5760018114610deb57610e18565b60ff19861689528489019650610e18565b60008a81526020902060005b86811015610e105781548b820152908501908301610df7565b505084890196505b509498975050505050505050565b602081526000610bc96020830184610d42565b608081526000610e4c6080830187610d42565b8281036020840152610e5e8187610d42565b90508281036040840152610e728186610d42565b90508281036060840152610e868185610d42565b979650505050505050565b805160208201516001600160c81b03198082169291906007831015610ec05780818460070360031b1b83161693505b505050919050565b60005b83811015610ee3578181015183820152602001610ecb565b83811115610ef2576000848401525b50505050565b600181811c90821680610f0c57607f821691505b60208210811415610f2d57634e487b7160e01b600052602260045260246000fd5b50919050565b634e487b7160e01b600052604160045260246000fdfea2646970667358221220046f787357c12f93a1395fc6261bf2e357e9a3f589138c95a13a742473ffeb5e64736f6c63430008050033",
  "immutableReferences": {},
  "source": "// SPDX-License-Identifier: SEE LICENSE IN LICENSE\npragma solidity ^0.8.0;\n\nimport \"../helper/Helper.sol\";\n\ncontract Name {\n\n    mapping(address => string) public Names;\n    mapping(address =>  NameInfo) public Info;\n    mapping(string => address) public NamesResolver;\n\n    struct NameInfo{\n        string name;\n        string bio;\n        string link;\n        string avatar;\n    }\n\n    constructor(){\n\n    }\n\n    modifier  _validName(string memory _name, string memory _bio, string memory _link, string memory _avatar){\n        require(keccak256(abi.encodePacked(NamesResolver[_name])) == keccak256(abi.encodePacked(address(0))), \"The Name Already Exists.\");\n        require(bytes(_name).length > 2, \"Name is to short\");\n        require(bytes(_name).length < 35, \"Name is to long\");\n        require(bytes(_bio).length < 301, \"Bio is to long.\");\n        require(Helper.isV1RawCID(_link), \"Invalid Link Format.\");\n        require(Helper.isV1RawCID(_avatar), \"Invalid Avatar Format.\");\n        _;\n    }\n\n    modifier _validEdit(string memory _bio, string memory _link, string memory _avatar){\n            require(keccak256(abi.encodePacked(bytes(Names[msg.sender]))) != keccak256( abi.encodePacked(bytes(\"\")) ), \"Name Not Registerd.\");\n            require(bytes(_bio).length < 301, \"Bio is to long.\");\n            require(Helper.isV1RawCID(_link), \"Invalid Link Format.\");\n            require(Helper.isV1RawCID(_avatar), \"Invalid Avatar Format.\");\n        _;\n    }\n\n    function createName(string memory _name, string memory _bio, string memory _link, string memory _avatar) public _validName(_name, _bio, _link, _avatar) {\n        Names[msg.sender] = _name;\n        Info[msg.sender] = NameInfo(_name, _bio, _link, _avatar);\n        NamesResolver[_name] = msg.sender;\n    }\n\n    function editInfo(string memory _bio, string memory _link, string memory _avatar) public _validEdit(_bio, _link, _avatar){\n        Info[msg.sender] = NameInfo(Names[msg.sender], _bio, _link, _avatar);\n    }\n}",
  "sourcePath": "/home/stephensb/sb-labs/solidity-contracts/contracts/name/Name.sol",
  "compiler": {
    "name": "solc",
    "version": "0.8.5+commit.a4f2e591.Emscripten.clang"
  },
  "schemaVersion": "3.4.16",
  "updatedAt": "2025-01-06T04:25:36.403Z",
  "devdoc": {
    "kind": "dev",
    "methods": {},
    "version": 1
  },
  "userdoc": {
    "kind": "user",
    "methods": {},
    "version": 1
  }
}