{
  "contractName": "Name",
  "abi": [
    {
      "inputs": [],
      "stateMutability": "nonpayable",
      "type": "constructor"
    },
    {
      "inputs": [
        {
          "internalType": "address",
          "name": "",
          "type": "address"
        }
      ],
      "name": "Info",
      "outputs": [
        {
          "internalType": "string",
          "name": "name",
          "type": "string"
        },
        {
          "internalType": "string",
          "name": "bio",
          "type": "string"
        },
        {
          "internalType": "string",
          "name": "link",
          "type": "string"
        },
        {
          "internalType": "string",
          "name": "avatar",
          "type": "string"
        }
      ],
      "stateMutability": "view",
      "type": "function"
    },
    {
      "inputs": [
        {
          "internalType": "address",
          "name": "",
          "type": "address"
        }
      ],
      "name": "Names",
      "outputs": [
        {
          "internalType": "string",
          "name": "",
          "type": "string"
        }
      ],
      "stateMutability": "view",
      "type": "function"
    },
    {
      "inputs": [
        {
          "internalType": "string",
          "name": "",
          "type": "string"
        }
      ],
      "name": "NamesResolver",
      "outputs": [
        {
          "internalType": "address",
          "name": "",
          "type": "address"
        }
      ],
      "stateMutability": "view",
      "type": "function"
    },
    {
      "inputs": [
        {
          "internalType": "string",
          "name": "_name",
          "type": "string"
        },
        {
          "internalType": "string",
          "name": "_bio",
          "type": "string"
        },
        {
          "internalType": "string",
          "name": "_link",
          "type": "string"
        },
        {
          "internalType": "string",
          "name": "_avatar",
          "type": "string"
        }
      ],
      "name": "createName",
      "outputs": [],
      "stateMutability": "nonpayable",
      "type": "function"
    },
    {
      "inputs": [
        {
          "internalType": "string",
          "name": "_bio",
          "type": "string"
        },
        {
          "internalType": "string",
          "name": "_link",
          "type": "string"
        },
        {
          "internalType": "string",
          "name": "_avatar",
          "type": "string"
        }
      ],
      "name": "editInfo",
      "outputs": [],
      "stateMutability": "nonpayable",
      "type": "function"
    }
  ],
  "bytecode": "0x608060405234801561001057600080fd5b50610f3b806100206000396000f3fe608060405234801561001057600080fd5b50600436106100575760003560e01c806318bce5f61461005c5780631de39af4146100715780635c9355d71461009a578063fc017f25146100bd578063fcec0bcb146100d0575b600080fd5b61006f61006a366004610c51565b61011c565b005b61008461007f366004610b5c565b61040e565b6040516100919190610de2565b60405180910390f35b6100ad6100a8366004610b5c565b6104a8565b6040516100919493929190610df5565b61006f6100cb366004610bc9565b6106f0565b6101046100de366004610b8c565b80516020818301810180516002825292820191909301209152546001600160a01b031681565b6040516001600160a01b039091168152602001610091565b604051600060208201528490849084908490603401604051602081830303815290604052805190602001206002856040516101579190610d2a565b90815260405190819003602090810182205460601b6bffffffffffffffffffffffff19169082015260340160405160208183030381529060405280519060200120146101ea5760405162461bcd60e51b815260206004820152601860248201527f546865204e616d6520416c7265616479204578697374732e000000000000000060448201526064015b60405180910390fd5b604184511061022d5760405162461bcd60e51b815260206004820152600f60248201526e4e616d6520697320746f206c6f6e6760881b60448201526064016101e1565b61012d8351106102715760405162461bcd60e51b815260206004820152600f60248201526e2134b79034b9903a37903637b7339760891b60448201526064016101e1565b61027a826109bc565b6102bd5760405162461bcd60e51b815260206004820152601460248201527324b73b30b634b2102634b735902337b936b0ba1760611b60448201526064016101e1565b6102c6816109bc565b61030b5760405162461bcd60e51b815260206004820152601660248201527524b73b30b634b21020bb30ba30b9102337b936b0ba1760511b60448201526064016101e1565b336000908152602081815260409091208951610329928b0190610a36565b506040805160808101825289815260208082018a9052818301899052606082018890523360009081526001825292909220815180519293919261036f9284920190610a36565b5060208281015180516103889260018501920190610a36565b50604082015180516103a4916002840191602090910190610a36565b50606082015180516103c0916003840191602090910190610a36565b50905050336002896040516103d59190610d2a565b90815260405190819003602001902080546001600160a01b03929092166001600160a01b03199092169190911790555050505050505050565b6000602081905290815260409020805461042790610eb4565b80601f016020809104026020016040519081016040528092919081815260200182805461045390610eb4565b80156104a05780601f10610475576101008083540402835291602001916104a0565b820191906000526020600020905b81548152906001019060200180831161048357829003601f168201915b505050505081565b6001602052600090815260409020805481906104c390610eb4565b80601f01602080910402602001604051908101604052809291908181526020018280546104ef90610eb4565b801561053c5780601f106105115761010080835404028352916020019161053c565b820191906000526020600020905b81548152906001019060200180831161051f57829003601f168201915b50505050509080600101805461055190610eb4565b80601f016020809104026020016040519081016040528092919081815260200182805461057d90610eb4565b80156105ca5780601f1061059f576101008083540402835291602001916105ca565b820191906000526020600020905b8154815290600101906020018083116105ad57829003601f168201915b5050505050908060020180546105df90610eb4565b80601f016020809104026020016040519081016040528092919081815260200182805461060b90610eb4565b80156106585780601f1061062d57610100808354040283529160200191610658565b820191906000526020600020905b81548152906001019060200180831161063b57829003601f168201915b50505050509080600301805461066d90610eb4565b80601f016020809104026020016040519081016040528092919081815260200182805461069990610eb4565b80156106e65780601f106106bb576101008083540402835291602001916106e6565b820191906000526020600020905b8154815290600101906020018083116106c957829003601f168201915b5050505050905084565b828282604051806020016040528060008152506040516020016107139190610d2a565b60408051601f198184030181528282528051602091820120336000908152808352929092209192610745929101610d46565b60405160208183030381529060405280519060200120141561079f5760405162461bcd60e51b81526020600482015260136024820152722730b6b2902737ba102932b3b4b9ba32b9321760691b60448201526064016101e1565b61012d8351106107e35760405162461bcd60e51b815260206004820152600f60248201526e2134b79034b9903a37903637b7339760891b60448201526064016101e1565b6107ec826109bc565b61082f5760405162461bcd60e51b815260206004820152601460248201527324b73b30b634b2102634b735902337b936b0ba1760611b60448201526064016101e1565b610838816109bc565b61087d5760405162461bcd60e51b815260206004820152601660248201527524b73b30b634b21020bb30ba30b9102337b936b0ba1760511b60448201526064016101e1565b6040805160808101825233600090815260208190529190912080548291906108a490610eb4565b80601f01602080910402602001604051908101604052809291908181526020018280546108d090610eb4565b801561091d5780601f106108f25761010080835404028352916020019161091d565b820191906000526020600020905b81548152906001019060200180831161090057829003601f168201915b5050509183525050602080820189905260408083018990526060909201879052336000908152600182529190912082518051919261096092849290910190610a36565b5060208281015180516109799260018501920190610a36565b5060408201518051610995916002840191602090910190610a36565b50606082015180516109b1916003840191602090910190610a36565b505050505050505050565b604051666261666b72656960c81b602082015260009060270160405160208183030381529060405280519060200120826109f590610e4d565b6040516001600160c81b0319909116602082015260270160405160208183030381529060405280519060200120148015610a3057508151603b145b92915050565b828054610a4290610eb4565b90600052602060002090601f016020900481019282610a645760008555610aaa565b82601f10610a7d57805160ff1916838001178555610aaa565b82800160010185558215610aaa579182015b82811115610aaa578251825591602001919060010190610a8f565b50610ab6929150610aba565b5090565b5b80821115610ab65760008155600101610abb565b600082601f830112610ae057600080fd5b813567ffffffffffffffff80821115610afb57610afb610eef565b604051601f8301601f19908116603f01168101908282118183101715610b2357610b23610eef565b81604052838152866020858801011115610b3c57600080fd5b836020870160208301376000602085830101528094505050505092915050565b600060208284031215610b6e57600080fd5b81356001600160a01b0381168114610b8557600080fd5b9392505050565b600060208284031215610b9e57600080fd5b813567ffffffffffffffff811115610bb557600080fd5b610bc184828501610acf565b949350505050565b600080600060608486031215610bde57600080fd5b833567ffffffffffffffff80821115610bf657600080fd5b610c0287838801610acf565b94506020860135915080821115610c1857600080fd5b610c2487838801610acf565b93506040860135915080821115610c3a57600080fd5b50610c4786828701610acf565b9150509250925092565b60008060008060808587031215610c6757600080fd5b843567ffffffffffffffff80821115610c7f57600080fd5b610c8b88838901610acf565b95506020870135915080821115610ca157600080fd5b610cad88838901610acf565b94506040870135915080821115610cc357600080fd5b610ccf88838901610acf565b93506060870135915080821115610ce557600080fd5b50610cf287828801610acf565b91505092959194509250565b60008151808452610d16816020860160208601610e84565b601f01601f19169290920160200192915050565b60008251610d3c818460208701610e84565b9190910192915050565b600080835481600182811c915080831680610d6257607f831692505b6020808410821415610d8257634e487b7160e01b86526022600452602486fd5b818015610d965760018114610da757610dd4565b60ff19861689528489019650610dd4565b60008a81526020902060005b86811015610dcc5781548b820152908501908301610db3565b505084890196505b509498975050505050505050565b602081526000610b856020830184610cfe565b608081526000610e086080830187610cfe565b8281036020840152610e1a8187610cfe565b90508281036040840152610e2e8186610cfe565b90508281036060840152610e428185610cfe565b979650505050505050565b805160208201516001600160c81b03198082169291906007831015610e7c5780818460070360031b1b83161693505b505050919050565b60005b83811015610e9f578181015183820152602001610e87565b83811115610eae576000848401525b50505050565b600181811c90821680610ec857607f821691505b60208210811415610ee957634e487b7160e01b600052602260045260246000fd5b50919050565b634e487b7160e01b600052604160045260246000fdfea2646970667358221220d5bbff69b949fcfaffa35b71d79e55b040d0d2e81a2d06ac8a654cc7a5d1223864736f6c63430008050033",
  "immutableReferences": {},
  "source": "// SPDX-License-Identifier: SEE LICENSE IN LICENSE\npragma solidity ^0.8.0;\n\nimport \"../helper/Helper.sol\";\n\ncontract Name {\n\n    mapping(address => string) public Names;\n    mapping(address =>  NameInfo) public Info;\n    mapping(string => address) public NamesResolver;\n\n    struct NameInfo{\n        string name;\n        string bio;\n        string link;\n        string avatar;\n    }\n\n    constructor(){\n\n    }\n\n    modifier  _validName(string memory _name, string memory _bio, string memory _link, string memory _avatar){\n        require(keccak256(abi.encodePacked(NamesResolver[_name])) == keccak256(abi.encodePacked(address(0))), \"The Name Already Exists.\");\n        require(bytes(_name).length < 65, \"Name is to long\");\n        require(bytes(_bio).length < 301, \"Bio is to long.\");\n        require(Helper.isV1RawCID(_link), \"Invalid Link Format.\" );\n        require(Helper.isV1RawCID(_avatar), \"Invalid Avatar Format.\" );\n        _;\n    }\n\n    modifier _validEdit(string memory _bio, string memory _link, string memory _avatar){\n            require(keccak256(abi.encodePacked(bytes(Names[msg.sender]))) != keccak256( abi.encodePacked(bytes(\"\")) ), \"Name Not Registerd.\");\n            require(bytes(_bio).length < 301, \"Bio is to long.\");\n            require(Helper.isV1RawCID(_link), \"Invalid Link Format.\" );\n            require(Helper.isV1RawCID(_avatar), \"Invalid Avatar Format.\" );\n        _;\n    }\n\n    \n\n    function createName(string memory _name, string memory _bio, string memory _link, string memory _avatar) public _validName(_name, _bio, _link, _avatar) {\n        Names[msg.sender] = _name;\n        Info[msg.sender] = NameInfo(_name, _bio, _link, _avatar);\n        NamesResolver[_name] = msg.sender;\n    }\n\n    function editInfo(string memory _bio, string memory _link, string memory _avatar) public _validEdit(_bio, _link, _avatar){\n        Info[msg.sender] = NameInfo(Names[msg.sender], _bio, _link, _avatar);\n    }\n}",
  "sourcePath": "/home/stephensb/sb-labs/solidity-contracts/contracts/name/Name.sol",
  "compiler": {
    "name": "solc",
    "version": "0.8.5+commit.a4f2e591.Emscripten.clang"
  },
  "schemaVersion": "3.4.12",
  "updatedAt": "2024-12-24T02:16:12.917Z",
  "devdoc": {
    "kind": "dev",
    "methods": {},
    "version": 1
  },
  "userdoc": {
    "kind": "user",
    "methods": {},
    "version": 1
  }
}