{
  "contractName": "NFT_Register",
  "abi": [
    {
      "inputs": [
        {
          "internalType": "uint256",
          "name": "_minimumRequestValue",
          "type": "uint256"
        },
        {
          "internalType": "address",
          "name": "_userRegister",
          "type": "address"
        }
      ],
      "stateMutability": "nonpayable",
      "type": "constructor"
    },
    {
      "anonymous": false,
      "inputs": [
        {
          "indexed": true,
          "internalType": "address",
          "name": "previousOwner",
          "type": "address"
        },
        {
          "indexed": true,
          "internalType": "address",
          "name": "newOwner",
          "type": "address"
        }
      ],
      "name": "OwnershipTransferred",
      "type": "event"
    },
    {
      "anonymous": false,
      "inputs": [
        {
          "components": [
            {
              "internalType": "bytes32",
              "name": "_prev",
              "type": "bytes32"
            },
            {
              "internalType": "bytes32",
              "name": "_root",
              "type": "bytes32"
            },
            {
              "internalType": "string",
              "name": "_cid",
              "type": "string"
            },
            {
              "internalType": "uint256",
              "name": "_block",
              "type": "uint256"
            }
          ],
          "indexed": false,
          "internalType": "struct NFT_Register.nftBlock",
          "name": "_block",
          "type": "tuple"
        }
      ],
      "name": "blockSubmitted",
      "type": "event"
    },
    {
      "anonymous": false,
      "inputs": [
        {
          "indexed": false,
          "internalType": "address",
          "name": "_contract",
          "type": "address"
        },
        {
          "indexed": false,
          "internalType": "address",
          "name": "_distributor",
          "type": "address"
        },
        {
          "indexed": false,
          "internalType": "uint8",
          "name": "_type",
          "type": "uint8"
        },
        {
          "indexed": false,
          "internalType": "string",
          "name": "_cid",
          "type": "string"
        },
        {
          "indexed": false,
          "internalType": "uint256",
          "name": "_block",
          "type": "uint256"
        }
      ],
      "name": "verificationRequest",
      "type": "event"
    },
    {
      "anonymous": false,
      "inputs": [
        {
          "indexed": false,
          "internalType": "address",
          "name": "_contract",
          "type": "address"
        },
        {
          "indexed": false,
          "internalType": "string",
          "name": "_cid",
          "type": "string"
        }
      ],
      "name": "verified",
      "type": "event"
    },
    {
      "inputs": [
        {
          "internalType": "bytes32",
          "name": "",
          "type": "bytes32"
        }
      ],
      "name": "blockMap",
      "outputs": [
        {
          "internalType": "bytes32",
          "name": "_prev",
          "type": "bytes32"
        },
        {
          "internalType": "bytes32",
          "name": "_root",
          "type": "bytes32"
        },
        {
          "internalType": "string",
          "name": "_cid",
          "type": "string"
        },
        {
          "internalType": "uint256",
          "name": "_block",
          "type": "uint256"
        }
      ],
      "stateMutability": "view",
      "type": "function"
    },
    {
      "inputs": [
        {
          "internalType": "string",
          "name": "",
          "type": "string"
        }
      ],
      "name": "cidToContract",
      "outputs": [
        {
          "internalType": "address",
          "name": "",
          "type": "address"
        }
      ],
      "stateMutability": "view",
      "type": "function"
    },
    {
      "inputs": [
        {
          "internalType": "address",
          "name": "",
          "type": "address"
        }
      ],
      "name": "contractInfo",
      "outputs": [
        {
          "internalType": "uint8",
          "name": "_type",
          "type": "uint8"
        },
        {
          "internalType": "address",
          "name": "_distributor",
          "type": "address"
        },
        {
          "internalType": "string",
          "name": "_baseCID",
          "type": "string"
        }
      ],
      "stateMutability": "view",
      "type": "function"
    },
    {
      "inputs": [
        {
          "internalType": "address",
          "name": "",
          "type": "address"
        },
        {
          "internalType": "uint256",
          "name": "",
          "type": "uint256"
        }
      ],
      "name": "distributorContracts",
      "outputs": [
        {
          "internalType": "address",
          "name": "",
          "type": "address"
        }
      ],
      "stateMutability": "view",
      "type": "function"
    },
    {
      "inputs": [],
      "name": "minimumRequestValue",
      "outputs": [
        {
          "internalType": "uint256",
          "name": "",
          "type": "uint256"
        }
      ],
      "stateMutability": "view",
      "type": "function"
    },
    {
      "inputs": [],
      "name": "networkId",
      "outputs": [
        {
          "internalType": "uint256",
          "name": "",
          "type": "uint256"
        }
      ],
      "stateMutability": "view",
      "type": "function"
    },
    {
      "inputs": [
        {
          "internalType": "uint256",
          "name": "",
          "type": "uint256"
        }
      ],
      "name": "nftBlocks",
      "outputs": [
        {
          "internalType": "bytes32",
          "name": "_prev",
          "type": "bytes32"
        },
        {
          "internalType": "bytes32",
          "name": "_root",
          "type": "bytes32"
        },
        {
          "internalType": "string",
          "name": "_cid",
          "type": "string"
        },
        {
          "internalType": "uint256",
          "name": "_block",
          "type": "uint256"
        }
      ],
      "stateMutability": "view",
      "type": "function"
    },
    {
      "inputs": [
        {
          "internalType": "address",
          "name": "",
          "type": "address"
        }
      ],
      "name": "nftSlashed",
      "outputs": [
        {
          "internalType": "bool",
          "name": "",
          "type": "bool"
        }
      ],
      "stateMutability": "view",
      "type": "function"
    },
    {
      "inputs": [],
      "name": "owner",
      "outputs": [
        {
          "internalType": "address",
          "name": "",
          "type": "address"
        }
      ],
      "stateMutability": "view",
      "type": "function"
    },
    {
      "inputs": [],
      "name": "renounceOwnership",
      "outputs": [],
      "stateMutability": "nonpayable",
      "type": "function"
    },
    {
      "inputs": [
        {
          "internalType": "address",
          "name": "newOwner",
          "type": "address"
        }
      ],
      "name": "transferOwnership",
      "outputs": [],
      "stateMutability": "nonpayable",
      "type": "function"
    },
    {
      "inputs": [
        {
          "internalType": "string",
          "name": "_cid",
          "type": "string"
        }
      ],
      "name": "requestVerification",
      "outputs": [],
      "stateMutability": "payable",
      "type": "function"
    },
    {
      "inputs": [
        {
          "internalType": "bytes32[]",
          "name": "_proof",
          "type": "bytes32[]"
        },
        {
          "internalType": "bytes32",
          "name": "_root",
          "type": "bytes32"
        },
        {
          "internalType": "bytes32",
          "name": "_transactionHash",
          "type": "bytes32"
        },
        {
          "components": [
            {
              "internalType": "address",
              "name": "_contract",
              "type": "address"
            },
            {
              "internalType": "address",
              "name": "_distributor",
              "type": "address"
            },
            {
              "internalType": "string[]",
              "name": "_cids",
              "type": "string[]"
            },
            {
              "internalType": "uint8",
              "name": "_type",
              "type": "uint8"
            }
          ],
          "internalType": "struct NFT_Register.transaction",
          "name": "_transaction",
          "type": "tuple"
        }
      ],
      "name": "verifyNFT",
      "outputs": [],
      "stateMutability": "nonpayable",
      "type": "function"
    },
    {
      "inputs": [
        {
          "components": [
            {
              "internalType": "bytes32",
              "name": "_prev",
              "type": "bytes32"
            },
            {
              "internalType": "bytes32",
              "name": "_root",
              "type": "bytes32"
            },
            {
              "internalType": "string",
              "name": "_cid",
              "type": "string"
            },
            {
              "internalType": "uint256",
              "name": "_block",
              "type": "uint256"
            }
          ],
          "internalType": "struct NFT_Register.nftBlock",
          "name": "_block",
          "type": "tuple"
        }
      ],
      "name": "submitBlock",
      "outputs": [],
      "stateMutability": "nonpayable",
      "type": "function"
    }
  ],
  "bytecode": "0x6080604052346102bd57604051601f610fbf38819003918201601f19168301916001600160401b038311848410176102955780849260409485528339810103126102bd5780516020909101516001600160a01b03811691908290036102bd575f8054336001600160a01b0319821681178355916001600160a01b03909116907f8be0079c531659141344cd1fd0a4f28419497f9722a3daafe3b4186f6b6457e09080a3600355600180546001600160a01b031916919091179055604051608081016001600160401b038111828210176102955760409081525f80835260208084019182529151929183016001600160401b03811184821017610295576040525f8352604082019283526060820190438252600854680100000000000000008110156102955760018101806008558110156102a95760085f5260205f209060021b019251835551600183015560028201925192835160018060401b038111610295578154600181811c9116801561028b575b602082101461027757601f8111610232575b506020601f82116001146101ce578190600395965f926101c3575b50508160011b915f1990861b1c19161790555b51910155604051610cfd90816102c28239f35b015190505f8061019d565b601f19821695835f52815f20965f5b81811061021a5750916003969791846001959410610203575b505050811b0190556101b0565b01515f1983881b60f8161c191690555f80806101f6565b838301518955600190980197602093840193016101dd565b825f5260205f20601f830160051c8101916020841061026d575b601f0160051c01905b8181106102625750610182565b5f8155600101610255565b909150819061024c565b634e487b7160e01b5f52602260045260245ffd5b90607f1690610170565b634e487b7160e01b5f52604160045260245ffd5b634e487b7160e01b5f52603260045260245ffd5b5f80fdfe6080806040526004361015610012575f80fd5b5f3560e01c9081630f3f77c2146108fb5750806320c43075146108a15780632dd5cbdd14610840578063490a3fb8146107ff578063539975de146107b75780635dc3f9dd146106645780636cbff42a14610589578063715018a6146105325780638da5cb5b1461050b5780639025e64c146104ee578063bee03c7a146104d1578063e11eb98d1461045e578063e4f1b4c4146101805763f2fde38b146100b6575f80fd5b3461017c57602036600319011261017c576100cf610934565b6100d7610c70565b6001600160a01b03168015610128575f80546001600160a01b03198116831782556001600160a01b0316907f8be0079c531659141344cd1fd0a4f28419497f9722a3daafe3b4186f6b6457e09080a3005b60405162461bcd60e51b815260206004820152602660248201527f4f776e61626c653a206e6577206f776e657220697320746865207a65726f206160448201526564647265737360d01b6064820152608490fd5b5f80fd5b3461017c57602036600319011261017c576004356001600160401b03811161017c576080600319823603011261017c576040516101bc8161095e565b8160040135815260208101906024830135825260448301356001600160401b03811161017c576101f2906004369186010161099a565b9260408201938452606460608301910135815261020d610c70565b805161040d57438152600854680100000000000000008110156103e65780600161023a92016008556109ef565b6103fa5782518155835160018201556002810185518051906001600160401b0382116103e6576102748261026e8554610a1f565b85610b42565b602090601f8311600114610383576102a392915f9183610378575b50508160011b915f199060031b1c19161790565b90555b600382519101556008545f198101908111610364577ff0f7a747ddd719a9ee54b88bf6dcb480f8a468f59efc9b9a2b5d1da647488fff946102e961032a926109ef565b5085515f52600960205260405f2090808203610336575b505060405194859460208652516020860152516040850152516080606085015260a0840190610af7565b905160808301520390a1005b6003818192548455600181015460018501556103586002820160028601610b91565b01549101558680610300565b634e487b7160e01b5f52601160045260245ffd5b01519050898061028f565b90601f19831691845f52815f20925f5b8181106103ce57509084600195949392106103b6575b505050811b0190556102a6565b01515f1960f88460031b161c191690558880806103a9565b92936020600181928786015181550195019301610393565b634e487b7160e01b5f52604160045260245ffd5b634e487b7160e01b5f525f60045260245ffd5b60405162461bcd60e51b815260206004820152602360248201527f426c6f636b206d757374206265203020666f7220696e697469616c697a61746960448201526237b71760e91b6064820152608490fd5b3461017c57602036600319011261017c576001600160a01b0361047f610934565b165f52600460205260405f20610499600182549201610a57565b6040805160ff8416815260089390931c6001600160a01b03166020840152606090830181905282916104cd91830190610af7565b0390f35b3461017c575f36600319011261017c576020600354604051908152f35b3461017c575f36600319011261017c576020600254604051908152f35b3461017c575f36600319011261017c575f546040516001600160a01b039091168152602090f35b3461017c575f36600319011261017c5761054a610c70565b5f80546001600160a01b0319811682556001600160a01b03167f8be0079c531659141344cd1fd0a4f28419497f9722a3daafe3b4186f6b6457e08280a3005b602036600319011261017c576004356001600160401b03811161017c573660238201121561017c5780600401356001600160401b03811161017c573691016024011161017c57600354341061062657333b156105e157005b60405162461bcd60e51b815260206004820152601960248201527f53656e646572206d757374206265206120636f6e7472616374000000000000006044820152606490fd5b60405162461bcd60e51b815260206004820152601660248201527524b73b30b634b2103932b8bab2b9ba103b30b63ab29760511b6044820152606490fd5b3461017c57608036600319011261017c576004356001600160401b03811161017c573660238201121561017c578060040135906001600160401b03821161017c57602490369260051b01011161017c576064356001600160401b03811161017c576080600319823603011261017c576040516106df8161095e565b6106eb8260040161094a565b81526106f96024830161094a565b602082015260448201356001600160401b03811161017c578201913660238401121561017c5760048301356001600160401b0381116103e6578060051b93604051916107486020870184610979565b8252602082019481016024019036821161017c5760248101955b828710610786578560648686604084015201359060ff8216820361017c5760600152005b86356001600160401b03811161017c576020916107ac839283600436928801010161099a565b815201960195610762565b3461017c57602036600319011261017c576004355f52600960205260405f2080546104cd60018301549260036107ef60028301610a57565b9101549060405194859485610b1b565b3461017c57602036600319011261017c5760043560085481101561017c57610826906109ef565b5080546104cd60018301549260036107ef60028301610a57565b3461017c57602036600319011261017c576004356001600160401b03811161017c57610872602091369060040161099a565b8160405191805191829101835e600590820190815281900382019020546040516001600160a01b039091168152f35b3461017c57604036600319011261017c576108ba610934565b6001600160a01b03165f90815260066020526040902080546024359081101561017c575f91825260209182902001546040516001600160a01b039091168152f35b3461017c57602036600319011261017c576020906001600160a01b0361091f610934565b165f52600b825260ff60405f20541615158152f35b600435906001600160a01b038216820361017c57565b35906001600160a01b038216820361017c57565b608081019081106001600160401b038211176103e657604052565b90601f801991011681019081106001600160401b038211176103e657604052565b81601f8201121561017c578035906001600160401b0382116103e657604051926109ce601f8401601f191660200185610979565b8284526020838301011161017c57815f926020809301838601378301015290565b600854811015610a0b5760085f5260205f209060021b01905f90565b634e487b7160e01b5f52603260045260245ffd5b90600182811c92168015610a4d575b6020831014610a3957565b634e487b7160e01b5f52602260045260245ffd5b91607f1691610a2e565b9060405191825f825492610a6a84610a1f565b8084529360018116908115610ad55750600114610a91575b50610a8f92500383610979565b565b90505f9291925260205f20905f915b818310610ab9575050906020610a8f928201015f610a82565b6020919350806001915483858901015201910190918492610aa0565b905060209250610a8f94915060ff191682840152151560051b8201015f610a82565b805180835260209291819084018484015e5f828201840152601f01601f1916010190565b949392606092610b3d9287526020870152608060408701526080860190610af7565b930152565b601f8211610b4f57505050565b5f5260205f20906020601f840160051c83019310610b87575b601f0160051c01905b818110610b7c575050565b5f8155600101610b71565b9091508190610b68565b919091828114610c6b57610ba58354610a1f565b6001600160401b0381116103e657610bc781610bc18454610a1f565b84610b42565b5f93601f8211600114610c0557610bf692939482915f92610bfa5750508160011b915f199060031b1c19161790565b9055565b015490505f8061028f565b601f198216905f5260205f2094835f5260205f20915f5b818110610c5357509583600195969710610c3b575b505050811b019055565b01545f1960f88460031b161c191690555f8080610c31565b9192600180602092868b015481550194019201610c1c565b509050565b5f546001600160a01b03163303610c8357565b606460405162461bcd60e51b815260206004820152602060248201527f4f776e61626c653a2063616c6c6572206973206e6f7420746865206f776e65726044820152fdfea26469706673582212202f6f47ad9a5f1e5dd192993914aa534a9ec441a48d2117e45e99b5f4e306c40264736f6c634300081c0033",
  "immutableReferences": {},
  "source": "pragma solidity ^0.8.0 ;\n\nimport \"@openzeppelin/contracts/access/Ownable.sol\";\n\nimport \"@openzeppelin/contracts/utils/Address.sol\";\n\n// SPDX-License-Identifier: MIT\nimport \"@openzeppelin/contracts/utils/cryptography/MerkleProof.sol\";\n\nimport \"../feed/user-register/UserRegister.sol\";\n\nimport \"./nft-types/Asset.sol\";\n\ncontract NFT_Register is Ownable{\n\n    // User register filter metadata register participants\n    UserRegister userRegister;\n\n    // ID of the current network\n    uint public networkId;\n\n    // Minimum value for a cid validation/ host request.\n    uint public minimumRequestValue;\n\n    mapping(address => nftInfo) public contractInfo;\n\n    mapping(string => address) public cidToContract;\n\n    // Mapping to determine all contracts verified at one time to a distributor. \n    // WARNING! array may contain contracts containing subCIDs not distributed by distributor. \n    // contractInfo will determine if the distributor is the rightful distributor of the NFT!\n    mapping(address => address[]) public distributorContracts;\n\n    // Array to hold all nfts contracts verified at one time.\n    // WARNING! array may contain contracts no longer verified.\n    address[] nftContracts;\n    \n    // Struct to contain necesarry info on validated contracts.\n    struct nftInfo{\n        uint8    _type;                 // 0: single,  1: collection, 2: dynamic.\n        address  _distributor;          // distributor of the NFT.\n        string   _baseCID;              // baseCID for single and collection assets.\n        string[] _subCIDs;              // array of subCIDS owned by the contract.\n        mapping(string => uint) _block; // block numbers of cid requests.\n    }\n\n    struct nftBlock{\n        bytes32 _prev;          // previous nft block hash\n        bytes32 _root;          // merkle root of transactions\n        string _cid;            // cid of nftBlock containing transactions\n        uint _block;            // base network block when submitted\n    }\n\n    struct transaction{\n        address _contract;      // contract owner of the cid.\n        address _distributor;   // distributor of NFT\n        string[] _cids;         // cids transaction is validating\n        uint8 _type;            // contract type.\n    }\n\n    nftBlock[] public nftBlocks;\n\n    mapping(bytes32 => nftBlock) public blockMap;\n\n    // Event emitted when a new nft block is submitted.\n    event blockSubmitted(nftBlock _block);\n\n    // Event emitted when a verification request is submitted.\n    event verificationRequest(address _contract, address _distributor, uint8 _type, string _cid, uint _block);\n\n    // Event emitted when an nft cid has been verifed!\n    event verified(address _contract, string _cid);\n\n    // Mapping to hold transactions that have been verified.\n    mapping(bytes32 => bool) transactionVerified;\n\n    // Mapping to hold contracts that have been slashed.\n    mapping(address => bool) public nftSlashed;\n    \n    constructor(uint _minimumRequestValue, address _userRegister){\n        minimumRequestValue = _minimumRequestValue;\n        userRegister = UserRegister(_userRegister);\n        nftBlock memory n = nftBlock(bytes32(0), bytes32(0) , \"\", block.number);\n        nftBlocks.push(n);\n    }\n\n    function requestVerification(string calldata _cid) public payable {\n        require(msg.value >= minimumRequestValue, \"Invalid request value.\");\n\n        require(Address.isContract(msg.sender), \"Sender must be a contract\");\n\n        Asset asset = Asset(msg.sender);\n\n    }\n\n    function verifyNFT(bytes32[] calldata _proof, bytes32 _root, bytes32 _transactionHash, transaction memory _transaction) public {\n\n    }\n\n    function submitBlock(nftBlock memory _block) public onlyOwner{\n        require(_block._block == 0, \"Block must be 0 for initialization.\");\n        _block._block = block.number;\n        nftBlocks.push(_block);\n        blockMap[_block._root] = nftBlocks[nftBlocks.length-1];\n        emit blockSubmitted(_block);\n    }\n}",
  "sourcePath": "/home/stephensb/sb-labs/solidity-contracts/contracts/nft-protocol/NFT_Register.sol",
  "compiler": {
    "name": "solc",
    "version": "0.8.28+commit.7893614a.Emscripten.clang"
  },
  "schemaVersion": "3.4.12",
  "updatedAt": "2024-12-18T06:10:39.500Z",
  "devdoc": {
    "kind": "dev",
    "methods": {
      "owner()": {
        "details": "Returns the address of the current owner."
      },
      "renounceOwnership()": {
        "details": "Leaves the contract without owner. It will not be possible to call `onlyOwner` functions. Can only be called by the current owner. NOTE: Renouncing ownership will leave the contract without an owner, thereby disabling any functionality that is only available to the owner."
      },
      "transferOwnership(address)": {
        "details": "Transfers ownership of the contract to a new account (`newOwner`). Can only be called by the current owner."
      }
    },
    "version": 1
  },
  "userdoc": {
    "kind": "user",
    "methods": {},
    "version": 1
  }
}