{
  "contractName": "OnChainLiquidator",
  "abi": [
    {
      "inputs": [
        {
          "internalType": "address",
          "name": "balancerVault_",
          "type": "address"
        },
        {
          "internalType": "address",
          "name": "sushiSwapRouter_",
          "type": "address"
        },
        {
          "internalType": "address",
          "name": "uniswapRouter_",
          "type": "address"
        },
        {
          "internalType": "address",
          "name": "uniswapV3Factory_",
          "type": "address"
        },
        {
          "internalType": "address",
          "name": "stEth_",
          "type": "address"
        },
        {
          "internalType": "address",
          "name": "wstEth_",
          "type": "address"
        },
        {
          "internalType": "address",
          "name": "WETH9_",
          "type": "address"
        }
      ],
      "stateMutability": "nonpayable",
      "type": "constructor"
    },
    {
      "inputs": [
        {
          "internalType": "address",
          "name": "tokenIn",
          "type": "address"
        },
        {
          "internalType": "address",
          "name": "tokenOut",
          "type": "address"
        },
        {
          "internalType": "uint256",
          "name": "amountIn",
          "type": "uint256"
        },
        {
          "internalType": "uint256",
          "name": "amountOut",
          "type": "uint256"
        },
        {
          "internalType": "uint256",
          "name": "amountOutMin",
          "type": "uint256"
        },
        {
          "components": [
            {
              "internalType": "enum OnChainLiquidator.Exchange",
              "name": "exchange",
              "type": "uint8"
            },
            {
              "internalType": "uint24",
              "name": "uniswapPoolFee",
              "type": "uint24"
            },
            {
              "internalType": "bool",
              "name": "swapViaWeth",
              "type": "bool"
            },
            {
              "internalType": "bytes32",
              "name": "balancerPoolId",
              "type": "bytes32"
            },
            {
              "internalType": "address",
              "name": "curvePool",
              "type": "address"
            }
          ],
          "internalType": "struct OnChainLiquidator.PoolConfig",
          "name": "poolConfig",
          "type": "tuple"
        }
      ],
      "name": "InsufficientAmountOut",
      "type": "error"
    },
    {
      "inputs": [
        {
          "internalType": "uint256",
          "name": "available",
          "type": "uint256"
        },
        {
          "internalType": "uint256",
          "name": "required",
          "type": "uint256"
        }
      ],
      "name": "InsufficientBalance",
      "type": "error"
    },
    {
      "inputs": [],
      "name": "InvalidArgument",
      "type": "error"
    },
    {
      "inputs": [],
      "name": "InvalidExchange",
      "type": "error"
    },
    {
      "inputs": [
        {
          "internalType": "address",
          "name": "swapToken",
          "type": "address"
        },
        {
          "components": [
            {
              "internalType": "enum OnChainLiquidator.Exchange",
              "name": "exchange",
              "type": "uint8"
            },
            {
              "internalType": "uint24",
              "name": "uniswapPoolFee",
              "type": "uint24"
            },
            {
              "internalType": "bool",
              "name": "swapViaWeth",
              "type": "bool"
            },
            {
              "internalType": "bytes32",
              "name": "balancerPoolId",
              "type": "bytes32"
            },
            {
              "internalType": "address",
              "name": "curvePool",
              "type": "address"
            }
          ],
          "internalType": "struct OnChainLiquidator.PoolConfig",
          "name": "poolConfig",
          "type": "tuple"
        }
      ],
      "name": "InvalidPoolConfig",
      "type": "error"
    },
    {
      "inputs": [],
      "name": "Unauthorized",
      "type": "error"
    },
    {
      "anonymous": false,
      "inputs": [
        {
          "indexed": true,
          "internalType": "address",
          "name": "initiator",
          "type": "address"
        },
        {
          "indexed": false,
          "internalType": "address[]",
          "name": "accounts",
          "type": "address[]"
        }
      ],
      "name": "Absorb",
      "type": "event"
    },
    {
      "anonymous": false,
      "inputs": [],
      "name": "AbsorbWithoutBuyingCollateral",
      "type": "event"
    },
    {
      "anonymous": false,
      "inputs": [
        {
          "indexed": true,
          "internalType": "address",
          "name": "tokenIn",
          "type": "address"
        },
        {
          "indexed": true,
          "internalType": "address",
          "name": "tokenOut",
          "type": "address"
        },
        {
          "indexed": false,
          "internalType": "uint256",
          "name": "baseAmountPaid",
          "type": "uint256"
        },
        {
          "indexed": false,
          "internalType": "uint256",
          "name": "assetBalance",
          "type": "uint256"
        },
        {
          "indexed": false,
          "internalType": "uint256",
          "name": "amountOut",
          "type": "uint256"
        }
      ],
      "name": "BuyAndSwap",
      "type": "event"
    },
    {
      "anonymous": false,
      "inputs": [
        {
          "indexed": true,
          "internalType": "address",
          "name": "token",
          "type": "address"
        },
        {
          "indexed": true,
          "internalType": "address",
          "name": "payer",
          "type": "address"
        },
        {
          "indexed": true,
          "internalType": "address",
          "name": "recipient",
          "type": "address"
        },
        {
          "indexed": false,
          "internalType": "uint256",
          "name": "value",
          "type": "uint256"
        }
      ],
      "name": "Pay",
      "type": "event"
    },
    {
      "anonymous": false,
      "inputs": [
        {
          "indexed": true,
          "internalType": "address",
          "name": "tokenIn",
          "type": "address"
        },
        {
          "indexed": true,
          "internalType": "address",
          "name": "tokenOut",
          "type": "address"
        },
        {
          "indexed": false,
          "internalType": "uint256",
          "name": "amountIn",
          "type": "uint256"
        },
        {
          "indexed": false,
          "internalType": "uint256",
          "name": "amountOut",
          "type": "uint256"
        },
        {
          "components": [
            {
              "internalType": "enum OnChainLiquidator.Exchange",
              "name": "exchange",
              "type": "uint8"
            },
            {
              "internalType": "uint24",
              "name": "uniswapPoolFee",
              "type": "uint24"
            },
            {
              "internalType": "bool",
              "name": "swapViaWeth",
              "type": "bool"
            },
            {
              "internalType": "bytes32",
              "name": "balancerPoolId",
              "type": "bytes32"
            },
            {
              "internalType": "address",
              "name": "curvePool",
              "type": "address"
            }
          ],
          "indexed": false,
          "internalType": "struct OnChainLiquidator.PoolConfig",
          "name": "poolConfig",
          "type": "tuple"
        }
      ],
      "name": "Swap",
      "type": "event"
    },
    {
      "inputs": [],
      "name": "NULL_ADDRESS",
      "outputs": [
        {
          "internalType": "address",
          "name": "",
          "type": "address"
        }
      ],
      "stateMutability": "view",
      "type": "function"
    },
    {
      "inputs": [],
      "name": "QUOTE_PRICE_SCALE",
      "outputs": [
        {
          "internalType": "uint256",
          "name": "",
          "type": "uint256"
        }
      ],
      "stateMutability": "view",
      "type": "function"
    },
    {
      "inputs": [],
      "name": "WETH9",
      "outputs": [
        {
          "internalType": "address",
          "name": "",
          "type": "address"
        }
      ],
      "stateMutability": "view",
      "type": "function"
    },
    {
      "inputs": [],
      "name": "balancerVault",
      "outputs": [
        {
          "internalType": "address",
          "name": "",
          "type": "address"
        }
      ],
      "stateMutability": "view",
      "type": "function"
    },
    {
      "inputs": [],
      "name": "factory",
      "outputs": [
        {
          "internalType": "address",
          "name": "",
          "type": "address"
        }
      ],
      "stateMutability": "view",
      "type": "function"
    },
    {
      "inputs": [
        {
          "internalType": "address",
          "name": "",
          "type": "address"
        }
      ],
      "name": "poolConfigs",
      "outputs": [
        {
          "internalType": "enum OnChainLiquidator.Exchange",
          "name": "exchange",
          "type": "uint8"
        },
        {
          "internalType": "uint24",
          "name": "uniswapPoolFee",
          "type": "uint24"
        },
        {
          "internalType": "bool",
          "name": "swapViaWeth",
          "type": "bool"
        },
        {
          "internalType": "bytes32",
          "name": "balancerPoolId",
          "type": "bytes32"
        },
        {
          "internalType": "address",
          "name": "curvePool",
          "type": "address"
        }
      ],
      "stateMutability": "view",
      "type": "function"
    },
    {
      "inputs": [],
      "name": "refundETH",
      "outputs": [],
      "stateMutability": "payable",
      "type": "function"
    },
    {
      "inputs": [],
      "name": "stEth",
      "outputs": [
        {
          "internalType": "address",
          "name": "",
          "type": "address"
        }
      ],
      "stateMutability": "view",
      "type": "function"
    },
    {
      "inputs": [],
      "name": "sushiSwapRouter",
      "outputs": [
        {
          "internalType": "address",
          "name": "",
          "type": "address"
        }
      ],
      "stateMutability": "view",
      "type": "function"
    },
    {
      "inputs": [
        {
          "internalType": "address",
          "name": "token",
          "type": "address"
        },
        {
          "internalType": "uint256",
          "name": "amountMinimum",
          "type": "uint256"
        },
        {
          "internalType": "address",
          "name": "recipient",
          "type": "address"
        }
      ],
      "name": "sweepToken",
      "outputs": [],
      "stateMutability": "payable",
      "type": "function"
    },
    {
      "inputs": [],
      "name": "uniswapRouter",
      "outputs": [
        {
          "internalType": "address",
          "name": "",
          "type": "address"
        }
      ],
      "stateMutability": "view",
      "type": "function"
    },
    {
      "inputs": [
        {
          "internalType": "uint256",
          "name": "amountMinimum",
          "type": "uint256"
        },
        {
          "internalType": "address",
          "name": "recipient",
          "type": "address"
        }
      ],
      "name": "unwrapWETH9",
      "outputs": [],
      "stateMutability": "payable",
      "type": "function"
    },
    {
      "inputs": [],
      "name": "wstEth",
      "outputs": [
        {
          "internalType": "address",
          "name": "",
          "type": "address"
        }
      ],
      "stateMutability": "view",
      "type": "function"
    },
    {
      "stateMutability": "payable",
      "type": "receive"
    },
    {
      "inputs": [
        {
          "internalType": "address",
          "name": "comet",
          "type": "address"
        },
        {
          "internalType": "address[]",
          "name": "liquidatableAccounts",
          "type": "address[]"
        },
        {
          "internalType": "address[]",
          "name": "assets",
          "type": "address[]"
        },
        {
          "components": [
            {
              "internalType": "enum OnChainLiquidator.Exchange",
              "name": "exchange",
              "type": "uint8"
            },
            {
              "internalType": "uint24",
              "name": "uniswapPoolFee",
              "type": "uint24"
            },
            {
              "internalType": "bool",
              "name": "swapViaWeth",
              "type": "bool"
            },
            {
              "internalType": "bytes32",
              "name": "balancerPoolId",
              "type": "bytes32"
            },
            {
              "internalType": "address",
              "name": "curvePool",
              "type": "address"
            }
          ],
          "internalType": "struct OnChainLiquidator.PoolConfig[]",
          "name": "poolConfigs",
          "type": "tuple[]"
        },
        {
          "internalType": "uint256[]",
          "name": "maxAmountsToPurchase",
          "type": "uint256[]"
        },
        {
          "internalType": "address",
          "name": "flashLoanPairToken",
          "type": "address"
        },
        {
          "internalType": "uint24",
          "name": "flashLoanPoolFee",
          "type": "uint24"
        },
        {
          "internalType": "uint256",
          "name": "liquidationThreshold",
          "type": "uint256"
        }
      ],
      "name": "absorbAndArbitrage",
      "outputs": [],
      "stateMutability": "nonpayable",
      "type": "function"
    },
    {
      "inputs": [
        {
          "internalType": "uint256",
          "name": "fee0",
          "type": "uint256"
        },
        {
          "internalType": "uint256",
          "name": "fee1",
          "type": "uint256"
        },
        {
          "internalType": "bytes",
          "name": "data",
          "type": "bytes"
        }
      ],
      "name": "uniswapV3FlashCallback",
      "outputs": [],
      "stateMutability": "nonpayable",
      "type": "function"
    }
  ],
  "bytecode": "0x610160346200016957601f6200324c38819003918201601f19168301916001600160401b038311848410176200016e5780849260e09460405283398101031262000169576200004e8162000184565b6200005c6020830162000184565b916200006b6040820162000184565b926200007a6060830162000184565b92620000896080840162000184565b93620000a660c06200009e60a0870162000184565b950162000184565b9060805260a05260c05260e052610100928352610120918252610140908152604051916130b293846200019a853960805184818161034c015281816108f301526115f5015260a051848181610b1301528181610b7a01528181611c3a01528181611eb6015281816128d50152612bd1015260c051848181610ca00152818161217e01526123cb015260e05184818160e00152611e54015251838181610aab0152611af90152518281816109380152612b1501525181818161097d01526127050152f35b600080fd5b634e487b7160e01b600052604160045260246000fd5b51906001600160a01b0382168203620001695756fe60e080604052600436101561001d575b50361561001b57600080fd5b005b600090813560e01c9081630792d51314610cef5750806312210e8a14610ccf578063158274a514610c8a57806349404b7c14610b425780634aa4a4fc14610afd5780636fdeec5114610ada578063735de9f714610a955780638160b7e2146109ac57806391815a981461096757806399940ece14610922578063c45a0155146108dd578063de0ce17d146108ae578063df2ab5bb146107b8578063e9cbafb0146101125763fd829a230361000f573461010f578060031936011261010f576040517f00000000000000000000000000000000000000000000000000000000000000006001600160a01b03168152602090f35b80fd5b503461010f57606036600319011261010f57604435906001600160401b03821161010f573660238301121561010f5781600401356001600160401b0381116107b4578201913660248401116107b4576020818403126107b4576024810135906001600160401b0382116107b05781810184039361012085126107ac5760606040519561019d87610e1a565b6101ab602486860101610d7a565b8752838501604481013560208901526101c690606401610d7a565b6040880152605f1901126107ac576040516101e081610e35565b6101ee608485850101610d7a565b81526101fe60a485850101610d7a565b602082015261021160c485850101610de1565b6040820152606086015260e483830101356001600160401b0381116107935760248201604382868601010112156107935761025d90602483810191858701019081013590604401610fb6565b608086015261010483830101356001600160401b0381116107935760248201604382868601010112156107935760248185850101013561029c81610f07565b916102aa6040519384610ea2565b81835260208301906024850160448460051b838a8a010101011161057557906044828888010101915b60448460051b828a8a010101018310610797575050505060a08601526101248383010135906001600160401b038211610793576024810160438386860101011215610793576103339360249182019301909101908101359060440161100c565b60c083015260608201516001600160a01b0390610370907f0000000000000000000000000000000000000000000000000000000000000000612d96565b16330361010f576080820151825160405163c55dae6360e01b815291939190602090829060049082906001600160a01b03165afa908115610788578391610759575b50815160208301516103cd916001600160a01b031683612f47565b82805b8551821015610582576001600160a01b036103eb8388610f83565b51166103fb8360a0870151610f83565b519182156105795785516001600160a01b0316803b156105755787809160846040518094819363e4e6e77960e01b83528860048401528160248401528960448401523060648401525af180156105525790889161055d575b50506040516370a0823160e01b815230600482015292602084602481865afa928315610552578893610517575b6104ef94506104aa8883836104a38a60c060018060a01b03865116950151610f83565b51926118d1565b9360405192835260208301528360408301527f679a450fe473e3a0032f6d1f25c79e8cefa33a581578c23f279a0826883d2a4b606060018060a01b03891693a3610f44565b905b600019811461050357600101906103d0565b634e487b7160e01b85526011600452602485fd5b92506020843d60201161054a575b8161053260209383610ea2565b81010312610545576104ef935192610480565b600080fd5b3d9150610525565b6040513d8a823e3d90fd5b61056690610df1565b610571578638610453565b8680fd5b8780fd5b929150506104f1565b50506105ae60018060a01b03604084015116926105a9602435916020600435910151610f44565b610f44565b6040516370a0823160e01b808252306004830152926001600160a01b038116929091602081602481875afa90811561074e57879161071c575b508082116106ff57506105fb813084612f47565b806106be575b50604051928352306004840152602083602481855afa9283156106b357859361067f575b5082610632575b84604051f35b828461064a92610643833083612f47565b3090612bc4565b6040519182527f428a71022c65d48a5617ad1aa0b2ec7f865096caee9b5cd593fe1d83f01e36ca60203093a48180808061062c565b9092506020813d6020116106ab575b8161069b60209383610ea2565b8101031261054557519185610625565b3d915061068e565b6040513d87823e3d90fd5b6106ca81333085612bc4565b6040519081523390837f428a71022c65d48a5617ad1aa0b2ec7f865096caee9b5cd593fe1d83f01e36ca60203093a485610601565b6044916040519163cf47918160e01b835260048301526024820152fd5b90506020813d602011610746575b8161073760209383610ea2565b810103126105455751876105e7565b3d915061072a565b6040513d89823e3d90fd5b61077b915060203d602011610781575b6107738183610ea2565b810190610f97565b386103b2565b503d610769565b6040513d85823e3d90fd5b8480fd5b602080604493853581520193019291506102d3565b8380fd5b8280fd5b5080fd5b50606036600319011261010f576107cd610d64565b6001600160a01b036044358181168103610545576020602492604051938480926370a0823160e01b825230600483015287165afa9182156108a3578492610870575b5060243582106108365781610825575b83604051f35b61082e92612e8b565b38808061081f565b60405162461bcd60e51b815260206004820152601260248201527124b739bab33334b1b4b2b73a103a37b5b2b760711b6044820152606490fd5b9091506020813d821161089b575b8161088b60209383610ea2565b810103126105455751903861080f565b3d915061087e565b6040513d86823e3d90fd5b503461010f578060031936011261010f57602060405173eeeeeeeeeeeeeeeeeeeeeeeeeeeeeeeeeeeeeeee8152f35b503461010f578060031936011261010f576040517f00000000000000000000000000000000000000000000000000000000000000006001600160a01b03168152602090f35b503461010f578060031936011261010f576040517f00000000000000000000000000000000000000000000000000000000000000006001600160a01b03168152602090f35b503461010f578060031936011261010f576040517f00000000000000000000000000000000000000000000000000000000000000006001600160a01b03168152602090f35b503461010f5761010036600319011261010f576109c7610d64565b6001600160401b036024358181116107ac576109e7903690600401610db1565b9092604435838111610a9157610a01903690600401610db1565b60649291923594808611610575573660238701121561057557856004013590808211610a8d5736602460a0840289010111610a8d57608435908111610a8d57610a4e903690600401610db1565b60a4359590949193906001600160a01b03871687036105455760c4359762ffffff8916890361054557610a889a602460e4359b01946111b5565b604051f35b8880fd5b8580fd5b503461010f578060031936011261010f576040517f00000000000000000000000000000000000000000000000000000000000000006001600160a01b03168152602090f35b503461010f578060031936011261010f576020604051670de0b6b3a76400008152f35b503461010f578060031936011261010f576040517f00000000000000000000000000000000000000000000000000000000000000006001600160a01b03168152602090f35b50604036600319011261010f57602435906001600160a01b0380831683036107b4576040516370a0823160e01b8152306004820152907f000000000000000000000000000000000000000000000000000000000000000016602082602481845afa918215610788578392610c57575b506004358210610c1d5781610bc7575b82604051f35b803b156107b057828091602460405180948193632e1a7d4d60e01b83528760048401525af1801561078857610c0a575b50610c029192612ff9565b803880610bc1565b91610c17610c0293610df1565b91610bf7565b60405162461bcd60e51b8152602060048201526012602482015271496e73756666696369656e7420574554483960701b6044820152606490fd5b9091506020813d8211610c82575b81610c7260209383610ea2565b810103126107b057519038610bb1565b3d9150610c65565b503461010f578060031936011261010f576040517f00000000000000000000000000000000000000000000000000000000000000006001600160a01b03168152602090f35b508060031936011261010f5747610ce557604051f35b610a884733612ff9565b9050346107b45760203660031901126107b45760a0916001600160a01b039060409082610d1a610d64565b168152806020522060ff815492600260018401549301541692610d3f85838316610d8e565b62ffffff8160081c16602086015260201c161515604084015260608301526080820152f35b600435906001600160a01b038216820361054557565b35906001600160a01b038216820361054557565b906004821015610d9b5752565b634e487b7160e01b600052602160045260246000fd5b9181601f84011215610545578235916001600160401b038311610545576020808501948460051b01011161054557565b359062ffffff8216820361054557565b6001600160401b038111610e0457604052565b634e487b7160e01b600052604160045260246000fd5b60e081019081106001600160401b03821117610e0457604052565b606081019081106001600160401b03821117610e0457604052565b61010081019081106001600160401b03821117610e0457604052565b60a081019081106001600160401b03821117610e0457604052565b608081019081106001600160401b03821117610e0457604052565b90601f801991011681019081106001600160401b03821117610e0457604052565b91908082526020809201929160005b828110610ee0575050505090565b909192938280600192838060a01b03610ef889610d7a565b16815201950193929101610ed2565b6001600160401b038111610e045760051b60200190565b9190811015610f2e5760051b0190565b634e487b7160e01b600052603260045260246000fd5b81198111610f50570190565b634e487b7160e01b600052601160045260246000fd5b805115610f2e5760200190565b805160011015610f2e5760400190565b8051821015610f2e5760209160051b010190565b9081602091031261054557516001600160a01b03811681036105455790565b9291610fc182610f07565b91610fcf6040519384610ea2565b829481845260208094019160051b810192831161054557905b828210610ff55750505050565b83809161100184610d7a565b815201910190610fe8565b92919261101882610f07565b60409461102786519283610ea2565b819584835260208093019160a080960285019481861161054557925b8584106110535750505050505050565b8684830312610545578251908782018281106001600160401b038211176110ce5784528435600481101561054557825261108e868601610de1565b868301528385013590811515820361054557828792868b9501526060808801359082015260806110bf818901610d7a565b90820152815201930192611043565b60246000634e487b7160e01b81526041600452fd5b90815180825260208080930193019160005b828110611103575050505090565b83516001600160a01b0316855293810193928101926001016110f5565b60809061112e838251610d8e565b60208181015162ffffff1690840152604080820151151590840152606080820151908401528101516001600160a01b0316910152565b91908251928382526000905b84821061119d575092806020939411611190575b601f01601f1916010190565b6000838284010152611184565b90602090818082850101519082860101520190611170565b9b949993959b9a9892969a608052858c036118bf578588036118bf576080516001600160a01b03163b1561054557604051906361e767e960e11b8252600060a0523360048301526040602483015260a0518280611216604482018786610ec3565b038160a05160018060a01b03608051165af19081156114d5577fb1028d078643fcfb861b26e34ccd6b29efab9b6a6bf83cc8f95e094b372cebd992611271926118b0575b506040519182916020835233956020840191610ec3565b0390a260a0519761129061128486610f07565b6040518060c052610ea2565b8460c05152601f196112a186610f07565b0136602060c051013760a0515b8560ff82161015611558576112c760ff82168789610f1e565b356001600160a01b0381168103611552576112e660ff83168a8e610f1e565b6040516313feacff60e31b81526001600160a01b0383811660048301526080519192359160209184916024918391165afa9182156114d55760a0519261151e575b508082116115165750905b604051916344c1e5eb60e01b835260208360048160018060a01b03608051165afa9283156114d55760a051936114e2575b507812725dd1d243aba0e75fe645cc4873f9e65afe688c928e1f218311600116610f5057604051637ac88ed160e01b81526001600160a01b039283166004820152670de0b6b3a764000084026024820152608051909260209184916044918391165afa9182156114d55760a051926114a1575b50600019831515848204670de0b6b3a76400001116610f5057670de0b6b3a764000084028015159104821116610f50578115611489578b82670de0b6b3a7640000838602020411611451575b50505060ff809116908114611439576001016112ae565b634e487b7160e01b60a051526011600452602460a051fd5b61146d839d83670de0b6b3a76400008481969702020490610f44565b9c02020461148060ff831660c051610f83565b52388080611422565b634e487b7160e01b60a051526012600452602460a051fd5b9091506020813d6020116114cd575b816114bd60209383610ea2565b81010312610545575190386113d6565b3d91506114b0565b6040513d60a051823e3d90fd5b9092506020813d60201161150e575b816114fe60209383610ea2565b8101031261054557519138611363565b3d91506114f1565b905090611332565b9091506020813d60201161154a575b8161153a60209383610ea2565b8101031261054557519038611327565b3d915061152d565b60a05180fd5b50939850939550935096851561187f5782946040519763c55dae6360e01b895260208960048160018060a01b03608051165afa9586156114d5576115d39960a0519761184b575b50959694956116939561167f93929162ffffff918a906001600160a01b03808316908c1611611842575b6040519d8e610e35565b6001600160a01b039081168e5290811660208e0152911660408c01526116198b7f0000000000000000000000000000000000000000000000000000000000000000612d96565b60a051911697816001600160a01b038b8116908316111561183c57508a995b6001600160a01b039081169116111561183457995b6040519961165a8b610e1a565b6080516001600160a01b03168b5260208b01523360408b015260608a01523691610fb6565b608087015260c05160a0870152369161100c565b60c08401526040519260208085015260018060a01b0381511660408501526020810151606085015260018060a01b03604082015116608085015262ffffff6040606083015160018060a01b0381511660a088015260018060a01b0360208201511660c088015201511660e08501528360808201519161172161012093846101008501526101608401906110e3565b60a082015193603f1984830301908401526020808551928381520194019060a0515b81811061181b5750505060c00151603f19828403016101408301526020808251948581520191019260a0515b8181106117f557505061178b925003601f198101855284610ea2565b803b15611552576040519384926312439b2f60e21b8452306004850152602484015260448301526080606483015281806117cc60a051956084830190611164565b039160a051905af180156114d5576117e15750565b6117ea90610df1565b60a0518061010f5750565b91600191935060a08161180b6020938851611120565b019401910191869293919361176f565b8251865260209586019589955090920191600101611743565b50889961164d565b99611638565b5050888a6115c9565b61169396975061167f93929161187362ffffff9260203d602011610781576107738183610ea2565b9897509192935061159f565b505050505050507f78d9347709ebbd3971aec37454d16c73acd21998f6020ae2e2e3e2842c81c23c60a051604051a1565b6118b990610df1565b3861125a565b60405163a9cb9e0d60e01b8152600490fd5b9392919060009483519560049687811015611975576118f957506118f6949550611a68565b90565b8451878110156119755760010361191657506118f6949550611ddf565b8451878110156119755760020361193357506118f6949550612105565b845190878210156119625750600303611951576118f69495506126b4565b6040516340892c3360e01b81528690fd5b634e487b7160e01b815260218852602490fd5b634e487b7160e01b825260218852602482fd5b6001600160a01b03909116815260c0810192916119a89160200190611120565b565b91909160e06101008201938160018060a01b039182815116855282602082015116602086015262ffffff60408201511660408601528260608201511660608601526080810151608086015260a081015160a086015260c081015160c0860152015116910152565b6040906119a8939594929560e0820196825260208201520190611120565b9196959360a0936119a89692610140850199600180881b0380921686521660208501526040840152606083015260808201520190611120565b919060018060a01b0393848216936040908151946370a0823160e01b8652600490308288015260209889886024818c5afa978815611dd457600098611da5575b5087968815611d955762ffffff98898c890151169a8b15611d7b579082918d859498888b518098819363c55dae6360e01b8352165afa948515611d5157908e939291600096611d5c575b50611b1f827f00000000000000000000000000000000000000000000000000000000000000008095612f47565b898b0151611c2f575b5050611b8a908851611b3981610e50565b8489169c8d82528587169e8f86840152168a8201523060608201524260808201528b60a0820152600060c0820152600060e082015260008a5195868095819463414bf38960e01b83528c83016119aa565b0393165af19a8b15611c245760009b611bf3575b5050818a10611bd1575050505091611bcb869260008051602061305d833981519152945193849384611a11565b0390a390565b611bef918a8888938851978897630e6d018560e11b89528801611a2f565b0390fd5b81819c92939c3d8311611c1d575b611c0b8183610ea2565b8101031261010f575051983880611b9e565b503d611c01565b86513d6000823e3d90fd5b919a509b91508296507f00000000000000000000000000000000000000000000000000000000000000009b8d8d858b5191611c6983610e50565b858352169485838301528b8201523060608201524260808201528260a082015260c081016000905260e08101600090528c8b51809b81809463414bf38960e01b82528d820190611cb8916119aa565b0392165a90600091f1978815611d51578e600099611d12575b50508760008051602061305d83398151915291611cf38c8c5193849384611a11565b0390a38a611b8a8699611d0b8d98826101f49f612f47565b9038611b28565b81819a92939a3d8311611d4a575b611d2a8183610ea2565b8101031261010f5750519660008051602061305d8339815191528e611cd1565b503d611d20565b89513d6000823e3d90fd5b611d74919650843d8611610781576107738183610ea2565b9438611af2565b8751635e581d2f60e01b815280611bef8b86838b01611988565b5050505050505050505050600090565b90978a82813d8311611dcd575b611dbc8183610ea2565b8101031261010f5750519638611aa8565b503d611db2565b85513d6000823e3d90fd5b604080516370a0823160e01b815230600480830191909152949590946001600160a01b038086169590949391602080896024818b5afa9889156120bc576000996120d6575b5088156120c7578087968386518099819363c55dae6360e01b8352165afa9586156120bc5760009661209d575b507f0000000000000000000000000000000000000000000000000000000000000000611e7e8a8286612f47565b858501511561206257845190611e9382610e87565b6003825260603684840137818a611ea982610f66565b52611eb381610f73565b8a7f000000000000000000000000000000000000000000000000000000000000000016905280516002101561204d5791600091611f24949360608c8c169101525b8c838c8a518098819682956338ed173960e01b84528c84015284602484015260a0604484015260a48301906110e3565b3060648301524260848301520393165af1918215611dd457600092611fc1575b5050805160018110611fac5790611f5f916000190190610f83565b5198808a10611f8e5750505060008051602061305d83398151915293929187611bcb9251948594169784611a11565b84611bef918b8b898851978897630e6d018560e11b89528801611a2f565b601183634e487b7160e01b6000525260246000fd5b3d8084833e611fd08183610ea2565b81019082818303126107ac578051906001600160401b038211610793570181601f820112156107ac5780519061200582610f07565b9461201289519687610ea2565b828652848087019360051b83010193841161010f57508301905b82821061203e57505050503880611f44565b8151815290830190830161202c565b603285634e487b7160e01b6000525260246000fd5b906000611f249286519061207582610e35565b60028252873685840137612093828d61208d82610f66565b52610f73565b8b8b169052611ef4565b816120b59297503d8811610781576107738183610ea2565b9438611e51565b84513d6000823e3d90fd5b50505050505050505050600090565b90988982813d83116120fe575b6120ed8183610ea2565b8101031261010f5750519738611e24565b503d6120e3565b6040516370a0823160e01b815230600482015292939192916020836024816001600160a01b0388165afa92831561256f57600093612680575b5082156126765760405163c55dae6360e01b815291602090839060049082906001600160a01b03165afa91821561256f57600092612655575b506121a3837f000000000000000000000000000000000000000000000000000000000000000086612f47565b6040516121af81610e35565b6002815260403660208301376001600160ff1b03806121cd83610f66565b526121d782610f73565b52604051906121e582610e35565b6002825260403660208401376001600160a01b03861661220483610f66565b526001600160a01b03841661221883610f73565b5260405191604083018381106001600160401b03821117610e04576040526001835260005b6020811061261c575060608401516040518060208101106001600160401b03602083011117610e045760208101604052600081526040519161227e83610e6c565b8252600060208301526001604083015287606083015260808201526122a284610f66565b526122ac83610f66565b506040518060808101106001600160401b03608083011117610e045792919060808401604052308452600060208501523060408501526000606085015260405193849363945bcec960e01b85526101248501600060048701526101206024870152815180915261014486019060206101448260051b8901019301916000905b8282106125b657505050506003198582030160448601526020808451928381520193019060005b81811061259457505081516001600160a01b03908116606487015260208084015115156084880152604084015190911660a4870152606090920151151560c4860152506003198483030160e4850152825180835291810192019060005b81811061257b57505042610104840152506000919081900381837f00000000000000000000000000000000000000000000000000000000000000006001600160a01b03165af190811561256f576000916124e0575b5080519060018210610f505761241e916000190190610f83565b51600160ff1b8114610f505760000394600086126124915780861061247157506040516001600160a01b03928316949092169260008051602061305d83398151915292918291611bcb9190889084611a11565b909194611bef93604051968796630e6d018560e11b885260048801611a2f565b604051630e6d018560e11b81526001600160a01b039586166004820152949092166024850152604484019290925260006064840152608483015261014491906124de9060a4830190611120565bfd5b3d8083833e6124ef8183610ea2565b8101906020818303126107b0578051906001600160401b0382116107ac570181601f820112156107b05780519061252582610f07565b936125336040519586610ea2565b82855260208086019360051b83010193841161010f5750602001905b82821061255f5750505038612404565b815181526020918201910161254f565b6040513d6000823e3d90fd5b82518452859450602093840193909201916001016123af565b82516001600160a01b0316855287965060209485019490920191600101612352565b919360019193959697985060206126098192610143198d820301865260808951805183528481015185840152604081015160408401526060810151606084015201519060a0908160808201520190611164565b960192019201889796959493919261232b565b60209060405161262b81610e6c565b6000815260008382015260006040820152606060008183015260808201528282870101520161223d565b61266f91925060203d602011610781576107738183610ea2565b9038612177565b5050505050600090565b90926020823d6020116126ac575b8161269b60209383610ea2565b8101031261010f575051913861213e565b3d915061268e565b6040516370a0823160e01b81523060048201529293600092916020856024816001600160a01b0387165afa9485156108a3578495612b78575b5084938515612b6e5792948593906001600160a01b037f00000000000000000000000000000000000000000000000000000000000000008116919086168214612ade575b505060808301516001600160a01b03169161274d868489612f47565b60405163c661065760e01b8082526004820184905291602082602481885afa9182156108a3578492612abd575b5060405192835260016004840152602083602481885afa9283156108a3578493612a9c575b506001600160a01b03828116908a16141580612a86575b612a6a5760405163c55dae6360e01b815290602090829060049082906001600160a01b03165afa9081156108a3578491612a4b575b509573eeeeeeeeeeeeeeeeeeeeeeeeeeeeeeeeeeeeeeee926001600160a01b03831684149084908215612a38575b5050612a2f575b6001600160a01b03918216911603612a26576020825b600f0b80612a1d5760846001915b856040519788948593630f7c084960e21b85526004850152600f0b60248401528b60448401528160648401525af1928315612a125782936129de575b5082978084106129bb57506001600160a01b038516146128d0575b50506040516001600160a01b03928316949092169260008051602061305d83398151915292918291611bcb9190889084611a11565b9195507f000000000000000000000000000000000000000000000000000000000000000092506001600160a01b03831690813b156107b0578260049160405192838092630d0e30db60e41b8252865af18015610788576129a4575b506020602491604051928380926370a0823160e01b82523060048301525afa9182156129985791612962575b509380611bcb61289b565b9190506020823d602011612990575b8161297e60209383610ea2565b81010312610545579051611bcb612957565b3d9150612971565b604051903d90823e3d90fd5b602491926129b3602092610df1565b92915061292b565b939497505050611bef93604051968796630e6d018560e11b885260048801611a2f565b9092506020813d602011612a0a575b816129fa60209383610ea2565b810103126107b457519138612880565b3d91506129ed565b6040513d84823e3d90fd5b60848491612844565b60206001612836565b95508195612820565b6001600160a01b03161490508338612819565b612a64915060203d602011610781576107738183610ea2565b386127eb565b604051635e581d2f60e01b815280611bef888c60048401611988565b506001600160a01b03838116908a1614156127b6565b612ab691935060203d602011610781576107738183610ea2565b913861279f565b612ad791925060203d602011610781576107738183610ea2565b903861277a565b8297506020929396506024906040519485938492636f074d1f60e11b845260048401525af19081156106b3578591612b3c575b50927f0000000000000000000000000000000000000000000000000000000000000000943880612731565b90506020813d602011612b66575b81612b5760209383610ea2565b81010312610793575138612b11565b3d9150612b4a565b9550505050505090565b9094506020813d602011612ba4575b81612b9460209383610ea2565b810103126107ac575193386126ed565b3d9150612b87565b90816020910312610545575180151581036105455790565b9293926001600160a01b037f0000000000000000000000000000000000000000000000000000000000000000811692818316841480612d8c575b15612cc457505050803b1561054557604051630d0e30db60e41b815293600091828660048185855af195861561078857612c759596612cb2575b5060405163a9059cbb60e01b81526001600160a01b0390941660048501526024840191909152919290916020918491908290859082906044820190565b03925af19081156129985750612c885750565b612ca89060203d8111612cab575b612ca08183610ea2565b810190612bac565b50565b503d612c96565b92612cbe602094610df1565b92612c38565b81929350959394951690308214600014612ce4575050916119a892612e8b565b600094859485926040519260208401956323b872dd60e01b87526024850152166044830152606482015260648152612d1b81610e6c565b51925af1612d27612e4c565b81612d5d575b506119a85760405162461bcd60e51b815260206004820152600360248201526229aa2360e91b6044820152606490fd5b8051801592508215612d72575b505038612d2d565b612d859250602080918301019101612bac565b3880612d6a565b5086471015612bfe565b815160208301516001600160a01b039391841691908416908183101561054557604062ffffff9101511660405191602083019384526040830152606082015260608152612de281610e87565b51902060405190602082019260ff60f81b84526bffffffffffffffffffffffff199060601b16602183015260358201527fe34f199b19b2b4f47f68442619d555527d244f78a3297ea89325f843f87b8b54605582015260558152612e4581610e87565b5190201690565b3d15612e86573d906001600160401b038211610e045760405191612e7a601f8201601f191660200184610ea2565b82523d6000602084013e565b606090565b60405163a9059cbb60e01b602082019081526001600160a01b03909316602482015260448101939093526000928392908390612ed481606481015b03601f198101835282610ea2565b51925af1612ee0612e4c565b81612f18575b5015612eee57565b60405162461bcd60e51b815260206004820152600260248201526114d560f21b6044820152606490fd5b8051801592508215612f2d575b505038612ee6565b612f409250602080918301019101612bac565b3880612f25565b60405163095ea7b360e01b602082019081526001600160a01b03909316602482015260448101939093526000928392908390612f868160648101612ec6565b51925af1612f92612e4c565b81612fca575b5015612fa057565b60405162461bcd60e51b8152602060048201526002602482015261534160f01b6044820152606490fd5b8051801592508215612fdf575b505038612f98565b612ff29250602080918301019101612bac565b3880612fd7565b604051602081018181106001600160401b03821117610e0457600093849384809484604052525af1613029612e4c565b501561303157565b60405162461bcd60e51b815260206004820152600360248201526253544560e81b6044820152606490fdfec531bb8a6cb2a2607a21f2bfe81d5fd38a38b79f4c3180d8800f52ef84c2c3c5a26469706673582212209d8c4196f2d7299790c83e6b25a4d3ab331a7cec438e7cb7ffb7a2b132920ba764736f6c634300080f0033",
  "immutableReferences": {
    "11265": [
      {
        "length": 32,
        "start": 3232
      },
      {
        "length": 32,
        "start": 8574
      },
      {
        "length": 32,
        "start": 9163
      }
    ],
    "11268": [
      {
        "length": 32,
        "start": 224
      },
      {
        "length": 32,
        "start": 7764
      }
    ],
    "11271": [
      {
        "length": 32,
        "start": 2731
      },
      {
        "length": 32,
        "start": 6905
      }
    ],
    "11274": [
      {
        "length": 32,
        "start": 2360
      },
      {
        "length": 32,
        "start": 11029
      }
    ],
    "11277": [
      {
        "length": 32,
        "start": 2429
      },
      {
        "length": 32,
        "start": 9989
      }
    ],
    "13437": [
      {
        "length": 32,
        "start": 844
      },
      {
        "length": 32,
        "start": 2291
      },
      {
        "length": 32,
        "start": 5621
      }
    ],
    "13441": [
      {
        "length": 32,
        "start": 2835
      },
      {
        "length": 32,
        "start": 2938
      },
      {
        "length": 32,
        "start": 7226
      },
      {
        "length": 32,
        "start": 7862
      },
      {
        "length": 32,
        "start": 10453
      },
      {
        "length": 32,
        "start": 11217
      }
    ]
  },
  "source": "// SPDX-License-Identifier: MIT\npragma solidity 0.8.15;\n\nimport \"./vendor/@uniswap/v3-core/contracts/interfaces/callback/IUniswapV3FlashCallback.sol\";\nimport \"./vendor/@uniswap/v3-periphery/contracts/base/PeripheryPayments.sol\";\nimport \"./vendor/@uniswap/v3-periphery/contracts/base/PeripheryImmutableState.sol\";\nimport \"./vendor/@uniswap/v3-periphery/contracts/libraries/PoolAddress.sol\";\nimport \"./vendor/@uniswap/v3-periphery/contracts/libraries/CallbackValidation.sol\";\nimport \"./vendor/@uniswap/v3-periphery/contracts/libraries/TransferHelper.sol\";\nimport \"./vendor/@uniswap/v3-periphery/contracts/interfaces/ISwapRouter.sol\";\n\nimport \"../CometInterface.sol\";\nimport \"../ERC20.sol\";\nimport \"../IWstETH.sol\";\nimport \"./interfaces/IStableSwap.sol\";\nimport \"./interfaces/IUniswapV2Router.sol\";\nimport \"./interfaces/IVault.sol\";\n\n/**\n * @title Compound's on-chain liquidation contract\n * @author Compound\n */\ncontract OnChainLiquidator is IUniswapV3FlashCallback, PeripheryImmutableState, PeripheryPayments {\n    /** Errors */\n    error InsufficientAmountOut(address tokenIn, address tokenOut, uint256 amountIn, uint256 amountOut, uint256 amountOutMin, PoolConfig poolConfig);\n    error InvalidArgument();\n    error InsufficientBalance(uint256 available, uint256 required);\n    error InvalidExchange();\n    error InvalidPoolConfig(address swapToken, PoolConfig poolConfig);\n    error Unauthorized();\n\n    /** Events **/\n    event Absorb(address indexed initiator, address[] accounts);\n    event AbsorbWithoutBuyingCollateral();\n    event BuyAndSwap(address indexed tokenIn, address indexed tokenOut, uint256 baseAmountPaid, uint256 assetBalance, uint256 amountOut);\n    event Pay(address indexed token, address indexed payer, address indexed recipient, uint256 value);\n    event Swap(address indexed tokenIn, address indexed tokenOut, uint256 amountIn, uint256 amountOut, PoolConfig poolConfig);\n\n    enum Exchange {\n        Uniswap,\n        SushiSwap,\n        Balancer,\n        Curve\n    }\n\n    // XXX make this less gassy; rearrange fields\n    struct PoolConfig {\n        Exchange exchange;      // which exchange the config applies to\n        uint24 uniswapPoolFee;  // fee for the swap pool (e.g. 3000, 500, 100); only applies to Uniswap pool configs\n        bool swapViaWeth;       // whether to swap the asset to WETH before swapping to base token; applies to SushiSwap and Uniswap pool configs\n        bytes32 balancerPoolId; // pool id for the asset pair; only applies to Balancer pool configs\n        address curvePool;      // address of target Curve pool; only applies to Curve pool configs\n    }\n\n    /** OnChainLiquidator immutables **/\n\n    /// @notice Balancer Vault used for token exchange\n    address public immutable balancerVault;\n\n    /// @notice SushiSwap router used for token exchange\n    address public immutable sushiSwapRouter;\n\n    /// @notice Uniswap router used for token exchange\n    address public immutable uniswapRouter;\n\n    /// @notice Lido Staked Ether 2.0 address\n    address public immutable stEth;\n\n    /// @notice Wrapped liquid staked Ether 2.0 address\n    address public immutable wstEth;\n\n    /** OnChainLiquidator configuration constants **/\n\n    /// @notice Address used by Curve to represent null\n    address public constant NULL_ADDRESS = 0xEeeeeEeeeEeEeeEeEeEeeEEEeeeeEeeeeeeeEEeE;\n\n    /// @notice The scale for asset price calculations\n    uint256 public constant QUOTE_PRICE_SCALE = 1e18;\n\n    /// @notice The asset pool configurations\n    mapping(address => PoolConfig) public poolConfigs;\n\n    /**\n     * @notice Construct a new liquidator instance\n     * @param balancerVault_ Address of Balancer Vault\n     * @param sushiSwapRouter_ Address of SushiSwap Router\n     * @param uniswapRouter_ Address of Uniswap Router\n     * @param uniswapV3Factory_ Address of Uniswap V3 Factory\n     * @param stEth_ Address of stETH contract\n     * @param wstEth_ Address of wstETH contract\n     * @param WETH9_ Address of WETH9\n     **/\n    constructor(\n        address balancerVault_,\n        address sushiSwapRouter_,\n        address uniswapRouter_,\n        address uniswapV3Factory_,\n        address stEth_,\n        address wstEth_,\n        address WETH9_\n    ) PeripheryImmutableState(uniswapV3Factory_, WETH9_) {\n        balancerVault = balancerVault_;\n        sushiSwapRouter = sushiSwapRouter_;\n        uniswapRouter = uniswapRouter_;\n        stEth = stEth_;\n        wstEth = wstEth_;\n    }\n\n    /**\n     * @notice Calls the pools flash function with data needed in `uniswapV3FlashCallback`\n     * @param comet Instance of Comet to liquidate from\n     * @param liquidatableAccounts List of addresses where Comet.isLiquidatable(address) is true\n     * @param assets List of Comet collateral assets to buy and sell\n     * @param poolConfigs List of PoolConfig structs for each asset in `assets`; determines which exchange to use when swapping\n     * @param maxAmountsToPurchase Max amount of each asset to attempt to buy and sell\n     * @param flashLoanPairToken Address used (in combination with Comet base asset) to find the Uniswap pool to request flash loan from (e.g. USDC/DAI/500)\n     * @param flashLoanPoolFee Pool fee of the Uniswap pool to request flash loan from (e.g. USDC/DAI/500)\n     * @param liquidationThreshold Minimum amount (in terms of Comet base token) to attempt to buy/sell\n     */\n    function absorbAndArbitrage(\n        address comet,\n        address[] calldata liquidatableAccounts,\n        address[] calldata assets,\n        PoolConfig[] calldata poolConfigs,\n        uint[] calldata maxAmountsToPurchase,\n        address flashLoanPairToken,\n        uint24 flashLoanPoolFee,\n        uint liquidationThreshold\n    ) external {\n        if (poolConfigs.length != assets.length) revert InvalidArgument();\n        if (maxAmountsToPurchase.length != assets.length) revert InvalidArgument();\n\n        // Absorb Comet underwater accounts\n        CometInterface(comet).absorb(msg.sender, liquidatableAccounts);\n        emit Absorb(msg.sender, liquidatableAccounts);\n\n        uint256 flashLoanAmount = 0;\n        uint256[] memory assetBaseAmounts = new uint256[](assets.length);\n\n        for (uint8 i = 0; i < assets.length; i++) {\n            ( , uint256 collateralBalanceInBase) = purchasableBalanceOfAsset(\n                comet,\n                assets[i],\n                maxAmountsToPurchase[i]\n            );\n            if (collateralBalanceInBase > liquidationThreshold) {\n                flashLoanAmount += collateralBalanceInBase;\n                assetBaseAmounts[i] = collateralBalanceInBase;\n            }\n        }\n\n        // if there is nothing to buy, just absorb the accounts\n        if (flashLoanAmount == 0) {\n            emit AbsorbWithoutBuyingCollateral();\n            return;\n        }\n\n        address poolToken0 = flashLoanPairToken;\n        address poolToken1 = CometInterface(comet).baseToken();\n        bool reversedPair = poolToken0 > poolToken1;\n        // Use Uniswap approach to determining order of tokens https://github.com/Uniswap/v3-periphery/blob/main/contracts/libraries/PoolAddress.sol#L20-L27\n        if (reversedPair) (poolToken0, poolToken1) = (poolToken1, poolToken0);\n\n        // Find the desired Uniswap pool to borrow base token from, for ex DAI-USDC\n        PoolAddress.PoolKey memory poolKey =\n            PoolAddress.PoolKey({token0: poolToken0, token1: poolToken1, fee: flashLoanPoolFee});\n        IUniswapV3Pool pool = IUniswapV3Pool(PoolAddress.computeAddress(factory, poolKey));\n\n        pool.flash(\n            address(this),\n            reversedPair ? flashLoanAmount : 0,\n            reversedPair ? 0 : flashLoanAmount,\n            abi.encode(\n                FlashCallbackData({\n                    comet: comet,\n                    flashLoanAmount: flashLoanAmount,\n                    recipient: msg.sender,\n                    poolKey: poolKey,\n                    assets: assets,\n                    assetBaseAmounts: assetBaseAmounts,\n                    poolConfigs: poolConfigs\n                })\n            )\n        );\n    }\n\n    struct FlashCallbackData {\n        address comet;\n        uint256 flashLoanAmount;\n        address recipient;\n        PoolAddress.PoolKey poolKey;\n        address[] assets;\n        uint256[] assetBaseAmounts;\n        PoolConfig[] poolConfigs;\n    }\n\n    /**\n     * @notice Uniswap flashloan callback\n     * @param fee0 The fee for borrowing token0 from pool\n     * @param fee1 The fee for borrowing token1 from pool\n     * @param data The encoded data passed from loan initiation function\n     */\n    function uniswapV3FlashCallback(\n        uint256 fee0,\n        uint256 fee1,\n        bytes calldata data\n    ) external override {\n        // Verify uniswap callback, recommended security measure\n        FlashCallbackData memory flashCallbackData = abi.decode(data, (FlashCallbackData));\n        CallbackValidation.verifyCallback(factory, flashCallbackData.poolKey);\n\n        address[] memory assets = flashCallbackData.assets;\n\n        address baseToken = CometInterface(flashCallbackData.comet).baseToken();\n\n        // Allow Comet protocol to withdraw USDC (base token) for collateral purchase\n        TransferHelper.safeApprove(baseToken, address(flashCallbackData.comet), flashCallbackData.flashLoanAmount);\n\n        uint256 totalAmountOut = 0;\n        for (uint i = 0; i < assets.length; i++) {\n            address asset = assets[i];\n            uint256 assetBaseAmount = flashCallbackData.assetBaseAmounts[i];\n\n            if (assetBaseAmount == 0) continue;\n\n            CometInterface(flashCallbackData.comet).buyCollateral(asset, 0, assetBaseAmount, address(this));\n\n            uint256 assetBalance = ERC20(asset).balanceOf(address(this));\n\n            uint256 amountOut = swapCollateral(\n                flashCallbackData.comet,\n                asset,\n                assetBaseAmount,\n                flashCallbackData.poolConfigs[i]\n            );\n\n            emit BuyAndSwap(asset, baseToken, assetBaseAmount, assetBalance, amountOut);\n\n            totalAmountOut += amountOut;\n        }\n\n        address recipient = flashCallbackData.recipient;\n        uint256 totalAmountOwed = flashCallbackData.flashLoanAmount + fee0 + fee1;\n        uint256 balance = ERC20(baseToken).balanceOf(address(this));\n\n        if (totalAmountOwed > balance) {\n            revert InsufficientBalance(balance, totalAmountOwed);\n        }\n\n        TransferHelper.safeApprove(baseToken, address(this), totalAmountOwed);\n\n        // Repay the loan\n        if (totalAmountOwed > 0) {\n            pay(baseToken, address(this), msg.sender, totalAmountOwed);\n            emit Pay(baseToken, address(this), msg.sender, totalAmountOwed);\n        }\n\n        uint256 remainingBalance = ERC20(baseToken).balanceOf(address(this));\n\n        // If profitable, pay profits to the original caller\n        if (remainingBalance > 0) {\n            TransferHelper.safeApprove(baseToken, address(this), remainingBalance);\n            pay(baseToken, address(this), recipient, remainingBalance);\n            emit Pay(baseToken, address(this), recipient, remainingBalance);\n        }\n    }\n\n    /**\n     * @dev Returns lesser of two values\n     */\n    function min(uint256 a, uint256 b) internal view returns (uint256) {\n        return a <= b ? a : b;\n    }\n\n    function purchasableBalanceOfAsset(address comet, address asset, uint maxCollateralToPurchase) internal returns (uint256, uint256) {\n        uint256 collateralBalance = CometInterface(comet).getCollateralReserves(asset);\n\n        collateralBalance = min(collateralBalance, maxCollateralToPurchase);\n\n        uint256 baseScale = CometInterface(comet).baseScale();\n\n        uint256 quotePrice = CometInterface(comet).quoteCollateral(asset, QUOTE_PRICE_SCALE * baseScale);\n        uint256 collateralBalanceInBase = baseScale * QUOTE_PRICE_SCALE * collateralBalance / quotePrice;\n\n        return (collateralBalance, collateralBalanceInBase);\n    }\n\n    function swapCollateral(\n        address comet,\n        address asset,\n        uint256 amountOutMin,\n        PoolConfig memory poolConfig\n    ) internal returns (uint256) {\n        if (poolConfig.exchange == Exchange.Uniswap) {\n            return swapViaUniswap(comet, asset, amountOutMin, poolConfig);\n        } else if (poolConfig.exchange == Exchange.SushiSwap) {\n            return swapViaSushiSwap(comet, asset, amountOutMin, poolConfig);\n        } else if (poolConfig.exchange == Exchange.Balancer) {\n            return swapViaBalancer(comet, asset, amountOutMin, poolConfig);\n        } else if (poolConfig.exchange == Exchange.Curve) {\n            return swapViaCurve(comet, asset, amountOutMin, poolConfig);\n        } else {\n            revert InvalidExchange();\n        }\n    }\n\n    /**\n     * @dev Swaps the given asset to USDC (base token) using Uniswap pools\n     */\n    function swapViaUniswap(address comet, address asset, uint256 amountOutMin, PoolConfig memory poolConfig) internal returns (uint256) {\n        uint256 swapAmount = ERC20(asset).balanceOf(address(this));\n        // Safety check, make sure residue balance in protocol is ignored\n        if (swapAmount == 0) return 0;\n\n        uint24 poolFee = poolConfig.uniswapPoolFee;\n\n        if (poolFee == 0) {\n            revert InvalidPoolConfig(asset, poolConfig);\n        }\n\n        address swapToken = asset;\n\n        address baseToken = CometInterface(comet).baseToken();\n\n        TransferHelper.safeApprove(asset, address(uniswapRouter), swapAmount);\n        // For low liquidity asset, swap it to ETH first\n        if (poolConfig.swapViaWeth) {\n            uint256 swapAmountNew = ISwapRouter(uniswapRouter).exactInputSingle(\n                ISwapRouter.ExactInputSingleParams({\n                    tokenIn: asset,\n                    tokenOut: WETH9,\n                    fee: poolFee,\n                    recipient: address(this),\n                    deadline: block.timestamp,\n                    amountIn: swapAmount,\n                    amountOutMinimum: 0,\n                    sqrtPriceLimitX96: 0\n                })\n            );\n            emit Swap(asset, WETH9, swapAmount, swapAmountNew, poolConfig);\n            swapAmount = swapAmountNew;\n            swapToken = WETH9;\n            poolFee = 500; // XXX move into constant\n\n            TransferHelper.safeApprove(WETH9, address(uniswapRouter), swapAmount);\n        }\n\n        // Swap asset or received ETH to base asset\n        uint256 amountOut = ISwapRouter(uniswapRouter).exactInputSingle(\n            ISwapRouter.ExactInputSingleParams({\n                tokenIn: swapToken,\n                tokenOut: baseToken,\n                fee: poolFee,\n                recipient: address(this),\n                deadline: block.timestamp,\n                amountIn: swapAmount,\n                amountOutMinimum: 0,\n                sqrtPriceLimitX96: 0\n            })\n        );\n\n        // we do a manual check against `amountOutMin` (instead of specifying an\n        // `amountOutMinimum` in the swap) so we can provide better information\n        // in the error message\n        if (amountOut < amountOutMin) {\n            revert InsufficientAmountOut(swapToken, baseToken, swapAmount, amountOut, amountOutMin, poolConfig);\n        }\n\n        emit Swap(swapToken, baseToken, swapAmount, amountOut, poolConfig);\n\n        return amountOut;\n    }\n\n    /**\n     * @dev Swaps the given asset to USDC (base token) using Sushi Swap pools\n     */\n    function swapViaSushiSwap(address comet, address asset, uint256 amountOutMin, PoolConfig memory poolConfig) internal returns (uint256) {\n        uint256 swapAmount = ERC20(asset).balanceOf(address(this));\n        // Safety check, make sure residue balance in protocol is ignored\n        if (swapAmount == 0) return 0;\n\n        address swapToken = asset;\n\n        address baseToken = CometInterface(comet).baseToken();\n\n        TransferHelper.safeApprove(asset, sushiSwapRouter, swapAmount);\n\n        address[] memory path;\n        if (poolConfig.swapViaWeth) {\n            path = new address[](3);\n            path[0] = swapToken;\n            path[1] = WETH9;\n            path[2] = baseToken;\n        } else {\n            path = new address[](2);\n            path[0] = swapToken;\n            path[1] = baseToken;\n        }\n\n        uint256[] memory amounts = IUniswapV2Router(sushiSwapRouter).swapExactTokensForTokens(\n            swapAmount,     // amountIn\n            0,              // amountOutMin\n            path,           // path\n            address(this),  // to\n            block.timestamp // deadline\n        );\n        uint256 amountOut = amounts[amounts.length - 1];\n\n        // we do a manual check against `amountOutMin` (instead of specifying an\n        // `amountOutMinimum` in the swap) so we can provide better information\n        // in the error message\n        if (amountOut < amountOutMin) {\n            revert InsufficientAmountOut(swapToken, baseToken, swapAmount, amountOut, amountOutMin, poolConfig);\n        }\n\n        emit Swap(swapToken, baseToken, swapAmount, amountOut, poolConfig);\n\n        return amountOut;\n    }\n\n    function swapViaBalancer(address comet, address asset, uint256 amountOutMin, PoolConfig memory poolConfig) internal returns (uint256) {\n        uint256 swapAmount = ERC20(asset).balanceOf(address(this));\n        // Safety check, make sure residue balance in protocol is ignored\n        if (swapAmount == 0) return 0;\n\n        address swapToken = asset;\n\n        address baseToken = CometInterface(comet).baseToken();\n\n        TransferHelper.safeApprove(asset, address(balancerVault), swapAmount);\n\n        int256[] memory limits = new int256[](2);\n        limits[0] = type(int256).max;\n        limits[1] = type(int256).max;\n\n        IAsset[] memory assets = new IAsset[](2);\n        assets[0] = IAsset(asset);\n        assets[1] = IAsset(baseToken);\n\n        IVault.BatchSwapStep[] memory steps = new IVault.BatchSwapStep[](1);\n        steps[0] = IVault.BatchSwapStep({\n            poolId: poolConfig.balancerPoolId,\n            assetInIndex: 0,\n            assetOutIndex: 1,\n            amount: swapAmount,\n            userData: bytes(\"\")\n        });\n\n        int256[] memory assetDeltas = IVault(balancerVault).batchSwap(\n            IVault.SwapKind.GIVEN_IN,\n            steps,\n            assets,\n            IVault.FundManagement({\n                sender: address(this),\n                fromInternalBalance: false,\n                recipient: payable(this),\n                toInternalBalance: false\n            }),\n            limits,\n            block.timestamp\n        );\n\n        int256 signedAmountOut = -assetDeltas[assetDeltas.length - 1];\n\n        if (signedAmountOut < 0) {\n            revert InsufficientAmountOut(swapToken, baseToken, swapAmount, 0, amountOutMin, poolConfig);\n        }\n\n        uint256 amountOut = uint256(signedAmountOut);\n\n        if (amountOut < amountOutMin) {\n            revert InsufficientAmountOut(swapToken, baseToken, swapAmount, amountOut, amountOutMin, poolConfig);\n        }\n\n        emit Swap(swapToken, baseToken, swapAmount, amountOut, poolConfig);\n\n        return amountOut;\n    }\n\n    function swapViaCurve(address comet, address asset, uint256 amountOutMin, PoolConfig memory poolConfig) internal returns (uint256) {\n        uint256 swapAmount = ERC20(asset).balanceOf(address(this));\n        // Safety check, make sure residue balance in protocol is ignored\n        if (swapAmount == 0) return 0;\n\n        address tokenIn = asset;\n\n        // unwrap wstETH\n        if (tokenIn == wstEth) {\n            swapAmount = IWstETH(wstEth).unwrap(swapAmount);\n            tokenIn = stEth;\n        }\n\n        address curvePool = poolConfig.curvePool;\n\n        TransferHelper.safeApprove(tokenIn, address(curvePool), swapAmount);\n\n        address coin0 = IStableSwap(curvePool).coins(0);\n        address coin1 = IStableSwap(curvePool).coins(1);\n\n        if (coin0 != tokenIn && coin1 != tokenIn) {\n            revert InvalidPoolConfig(tokenIn, poolConfig);\n        }\n\n        address tokenOut = CometInterface(comet).baseToken();\n\n        // Curve uses the null address to represent ETH\n        if (coin0 == NULL_ADDRESS || coin1 == NULL_ADDRESS) {\n            tokenOut = NULL_ADDRESS;\n        }\n\n        int128 idxOfTokenIn = coin0 == asset ? int128(0) : int128(1);\n        int128 idxOfTokenOut = idxOfTokenIn == 0 ? int128(1) : int128(0);\n\n        uint amountOut = IStableSwap(curvePool).exchange(\n            idxOfTokenIn,  // i idx of token to send\n            idxOfTokenOut, // j idx of token to receive\n            swapAmount,    // _dx amount of i to be exchanged\n            0              // _min_dy min amount of j to receive\n        );\n\n        if (amountOut < amountOutMin) {\n            revert InsufficientAmountOut(tokenIn, tokenOut, swapAmount, amountOut, amountOutMin, poolConfig);\n        }\n\n        // wrap any received ETH to WETH\n        if (tokenOut == NULL_ADDRESS) {\n            IWETH9(WETH9).deposit{value: amountOut}();\n            amountOut = IWETH9(WETH9).balanceOf(address(this));\n            tokenOut = WETH9;\n        }\n\n        emit Swap(tokenIn, tokenOut, swapAmount, amountOut, poolConfig);\n\n        return amountOut;\n    }\n\n    receive() external payable {}\n}\n",
  "sourcePath": "/home/stephensb/sb-labs/solidity-contracts/contracts/comet/contracts/liquidator/OnChainLiquidator.sol",
  "compiler": {
    "name": "solc",
    "version": "0.8.15+commit.e14f2714.Emscripten.clang"
  },
  "schemaVersion": "3.4.12",
  "updatedAt": "2023-11-30T22:41:29.697Z",
  "devdoc": {
    "author": "Compound",
    "kind": "dev",
    "methods": {
      "absorbAndArbitrage(address,address[],address[],(uint8,uint24,bool,bytes32,address)[],uint256[],address,uint24,uint256)": {
        "params": {
          "assets": "List of Comet collateral assets to buy and sell",
          "comet": "Instance of Comet to liquidate from",
          "flashLoanPairToken": "Address used (in combination with Comet base asset) to find the Uniswap pool to request flash loan from (e.g. USDC/DAI/500)",
          "flashLoanPoolFee": "Pool fee of the Uniswap pool to request flash loan from (e.g. USDC/DAI/500)",
          "liquidatableAccounts": "List of addresses where Comet.isLiquidatable(address) is true",
          "liquidationThreshold": "Minimum amount (in terms of Comet base token) to attempt to buy/sell",
          "maxAmountsToPurchase": "Max amount of each asset to attempt to buy and sell",
          "poolConfigs": "List of PoolConfig structs for each asset in `assets`; determines which exchange to use when swapping"
        }
      },
      "constructor": {
        "params": {
          "WETH9_": "Address of WETH9*",
          "balancerVault_": "Address of Balancer Vault",
          "stEth_": "Address of stETH contract",
          "sushiSwapRouter_": "Address of SushiSwap Router",
          "uniswapRouter_": "Address of Uniswap Router",
          "uniswapV3Factory_": "Address of Uniswap V3 Factory",
          "wstEth_": "Address of wstETH contract"
        }
      },
      "refundETH()": {
        "details": "Useful for bundling with mint or increase liquidity that uses ether, or exact output swaps that use ether for the input amount"
      },
      "sweepToken(address,uint256,address)": {
        "details": "The amountMinimum parameter prevents malicious contracts from stealing the token from users",
        "params": {
          "amountMinimum": "The minimum amount of token required for a transfer",
          "recipient": "The destination address of the token",
          "token": "The contract address of the token which will be transferred to `recipient`"
        }
      },
      "uniswapV3FlashCallback(uint256,uint256,bytes)": {
        "params": {
          "data": "The encoded data passed from loan initiation function",
          "fee0": "The fee for borrowing token0 from pool",
          "fee1": "The fee for borrowing token1 from pool"
        }
      },
      "unwrapWETH9(uint256,address)": {
        "details": "The amountMinimum parameter prevents malicious contracts from stealing WETH9 from users.",
        "params": {
          "amountMinimum": "The minimum amount of WETH9 to unwrap",
          "recipient": "The address receiving ETH"
        }
      }
    },
    "title": "Compound's on-chain liquidation contract",
    "version": 1
  },
  "userdoc": {
    "errors": {
      "InsufficientAmountOut(address,address,uint256,uint256,uint256,(uint8,uint24,bool,bytes32,address))": [
        {
          "notice": "Errors "
        }
      ]
    },
    "events": {
      "Absorb(address,address[])": {
        "notice": "Events *"
      }
    },
    "kind": "user",
    "methods": {
      "NULL_ADDRESS()": {
        "notice": "Address used by Curve to represent null"
      },
      "QUOTE_PRICE_SCALE()": {
        "notice": "The scale for asset price calculations"
      },
      "absorbAndArbitrage(address,address[],address[],(uint8,uint24,bool,bytes32,address)[],uint256[],address,uint24,uint256)": {
        "notice": "Calls the pools flash function with data needed in `uniswapV3FlashCallback`"
      },
      "balancerVault()": {
        "notice": "Balancer Vault used for token exchange"
      },
      "constructor": {
        "notice": "Construct a new liquidator instance"
      },
      "poolConfigs(address)": {
        "notice": "The asset pool configurations"
      },
      "refundETH()": {
        "notice": "Refunds any ETH balance held by this contract to the `msg.sender`"
      },
      "stEth()": {
        "notice": "Lido Staked Ether 2.0 address"
      },
      "sushiSwapRouter()": {
        "notice": "SushiSwap router used for token exchange"
      },
      "sweepToken(address,uint256,address)": {
        "notice": "Transfers the full amount of a token held by this contract to recipient"
      },
      "uniswapRouter()": {
        "notice": "Uniswap router used for token exchange"
      },
      "uniswapV3FlashCallback(uint256,uint256,bytes)": {
        "notice": "Uniswap flashloan callback"
      },
      "unwrapWETH9(uint256,address)": {
        "notice": "Unwraps the contract's WETH9 balance and sends it to recipient as ETH."
      },
      "wstEth()": {
        "notice": "Wrapped liquid staked Ether 2.0 address"
      }
    },
    "version": 1
  }
}