{
  "contractName": "OptimismBridgeReceiver",
  "abi": [
    {
      "inputs": [
        {
          "internalType": "address",
          "name": "crossDomainMessenger_",
          "type": "address"
        }
      ],
      "stateMutability": "nonpayable",
      "type": "constructor"
    },
    {
      "inputs": [],
      "name": "AlreadyInitialized",
      "type": "error"
    },
    {
      "inputs": [],
      "name": "BadData",
      "type": "error"
    },
    {
      "inputs": [],
      "name": "FailedToSendNativeToken",
      "type": "error"
    },
    {
      "inputs": [],
      "name": "InvalidCrossDomainMessenger",
      "type": "error"
    },
    {
      "inputs": [],
      "name": "InvalidProposalId",
      "type": "error"
    },
    {
      "inputs": [],
      "name": "InvalidTimelockAdmin",
      "type": "error"
    },
    {
      "inputs": [],
      "name": "ProposalNotExecutable",
      "type": "error"
    },
    {
      "inputs": [],
      "name": "TransactionAlreadyQueued",
      "type": "error"
    },
    {
      "inputs": [],
      "name": "TransferOutFailed",
      "type": "error"
    },
    {
      "inputs": [],
      "name": "Unauthorized",
      "type": "error"
    },
    {
      "anonymous": false,
      "inputs": [
        {
          "indexed": true,
          "internalType": "address",
          "name": "govTimelock",
          "type": "address"
        },
        {
          "indexed": true,
          "internalType": "address",
          "name": "localTimelock",
          "type": "address"
        }
      ],
      "name": "Initialized",
      "type": "event"
    },
    {
      "anonymous": false,
      "inputs": [
        {
          "indexed": true,
          "internalType": "address",
          "name": "oldCrossDomainMessenger",
          "type": "address"
        },
        {
          "indexed": true,
          "internalType": "address",
          "name": "newCrossDomainMessenger",
          "type": "address"
        }
      ],
      "name": "NewCrossDomainMessenger",
      "type": "event"
    },
    {
      "anonymous": false,
      "inputs": [
        {
          "indexed": true,
          "internalType": "address",
          "name": "rootMessageSender",
          "type": "address"
        },
        {
          "indexed": false,
          "internalType": "uint256",
          "name": "id",
          "type": "uint256"
        },
        {
          "indexed": false,
          "internalType": "address[]",
          "name": "targets",
          "type": "address[]"
        },
        {
          "indexed": false,
          "internalType": "uint256[]",
          "name": "values",
          "type": "uint256[]"
        },
        {
          "indexed": false,
          "internalType": "string[]",
          "name": "signatures",
          "type": "string[]"
        },
        {
          "indexed": false,
          "internalType": "bytes[]",
          "name": "calldatas",
          "type": "bytes[]"
        },
        {
          "indexed": false,
          "internalType": "uint256",
          "name": "eta",
          "type": "uint256"
        }
      ],
      "name": "ProposalCreated",
      "type": "event"
    },
    {
      "anonymous": false,
      "inputs": [
        {
          "indexed": true,
          "internalType": "uint256",
          "name": "id",
          "type": "uint256"
        }
      ],
      "name": "ProposalExecuted",
      "type": "event"
    },
    {
      "stateMutability": "payable",
      "type": "fallback"
    },
    {
      "inputs": [],
      "name": "crossDomainMessenger",
      "outputs": [
        {
          "internalType": "address",
          "name": "",
          "type": "address"
        }
      ],
      "stateMutability": "view",
      "type": "function"
    },
    {
      "inputs": [
        {
          "internalType": "uint256",
          "name": "proposalId",
          "type": "uint256"
        }
      ],
      "name": "executeProposal",
      "outputs": [],
      "stateMutability": "nonpayable",
      "type": "function"
    },
    {
      "inputs": [],
      "name": "govTimelock",
      "outputs": [
        {
          "internalType": "address",
          "name": "",
          "type": "address"
        }
      ],
      "stateMutability": "view",
      "type": "function"
    },
    {
      "inputs": [
        {
          "internalType": "address",
          "name": "_govTimelock",
          "type": "address"
        },
        {
          "internalType": "address",
          "name": "_localTimelock",
          "type": "address"
        }
      ],
      "name": "initialize",
      "outputs": [],
      "stateMutability": "nonpayable",
      "type": "function"
    },
    {
      "inputs": [],
      "name": "initialized",
      "outputs": [
        {
          "internalType": "bool",
          "name": "",
          "type": "bool"
        }
      ],
      "stateMutability": "view",
      "type": "function"
    },
    {
      "inputs": [],
      "name": "localTimelock",
      "outputs": [
        {
          "internalType": "address",
          "name": "",
          "type": "address"
        }
      ],
      "stateMutability": "view",
      "type": "function"
    },
    {
      "inputs": [],
      "name": "proposalCount",
      "outputs": [
        {
          "internalType": "uint256",
          "name": "",
          "type": "uint256"
        }
      ],
      "stateMutability": "view",
      "type": "function"
    },
    {
      "inputs": [
        {
          "internalType": "uint256",
          "name": "",
          "type": "uint256"
        }
      ],
      "name": "proposals",
      "outputs": [
        {
          "internalType": "uint256",
          "name": "id",
          "type": "uint256"
        },
        {
          "internalType": "uint256",
          "name": "eta",
          "type": "uint256"
        },
        {
          "internalType": "bool",
          "name": "executed",
          "type": "bool"
        }
      ],
      "stateMutability": "view",
      "type": "function"
    },
    {
      "inputs": [
        {
          "internalType": "uint256",
          "name": "proposalId",
          "type": "uint256"
        }
      ],
      "name": "state",
      "outputs": [
        {
          "internalType": "enum BaseBridgeReceiver.ProposalState",
          "name": "",
          "type": "uint8"
        }
      ],
      "stateMutability": "view",
      "type": "function"
    },
    {
      "inputs": [
        {
          "internalType": "address",
          "name": "recipient",
          "type": "address"
        }
      ],
      "name": "sweepNativeToken",
      "outputs": [],
      "stateMutability": "nonpayable",
      "type": "function"
    },
    {
      "inputs": [
        {
          "internalType": "address",
          "name": "recipient",
          "type": "address"
        },
        {
          "internalType": "address",
          "name": "asset",
          "type": "address"
        }
      ],
      "name": "sweepToken",
      "outputs": [],
      "stateMutability": "nonpayable",
      "type": "function"
    },
    {
      "inputs": [
        {
          "internalType": "address",
          "name": "newCrossDomainMessenger",
          "type": "address"
        }
      ],
      "name": "changeCrossDomainMessenger",
      "outputs": [],
      "stateMutability": "nonpayable",
      "type": "function"
    }
  ],
  "bytecode": "0x60803461007457601f61195138819003918201601f19168301916001600160401b038311848410176100795780849260209460405283398101031261007457516001600160a01b0381169081900361007457600480546001600160a01b0319169190911790556040516118c190816100908239f35b600080fd5b634e487b7160e01b600052604160045260246000fdfe60806040526004361015610018575b610016610d89565b005b60003560e01c8063013cf08b146101085780630d61b519146100ff578063158ef93e146100f657806322086dbe146100ed578063258836fe146100e45780633e4f49e6146100db578063485cc955146100d2578063793332d6146100c9578063824343dd146100c0578063b660c156146100b7578063da35c664146100ae5763f43b36130361000e576100a9610726565b61000e565b506100a9610707565b506100a9610684565b506100a961065a565b506100a96105db565b506100a961049d565b506100a961046d565b506100a9610394565b506100a9610331565b506100a961030a565b506100a9610156565b50346101515760203660031901126101515760043560005260036020526060604060002080549060ff600660058301549201541690604051928352602083015215156040820152f35b600080fd5b5034610151576020366003190112610151576004803561017581610bfa565b61017e8161044d565b6102ef57610196816000526003602052604060002090565b60068101805460ff19166001179055916003830192600191808201918381019160028201916005016000865b6101f4575b600088604051907f712ae1383f79ac853f8d882153778e0260ef8f03b504e2866e0593e04d2b291f8383a2f35b84548110156102ea576102b4818760008c8989838a8f9961027f81610278816102728f8261026261024d61029e9961024761023b61023b610268975460018060a01b031690565b6001600160a01b031690565b9e610832565b905460039190911b1c6001600160a01b031690565b9a610832565b90549060031b1c90565b99610832565b5099610832565b508c5490604051998a9889978896630825f38f60e01b885287016109f6565b03925af180156102dd575b6102ba575b506107ff565b906101c2565b6102d6903d806000833e6102ce81836107a4565b8101906108c7565b50386102ae565b6102e56107db565b6102a9565b6101c7565b50604051633c7e994560e11b8152fd5b600091031261015157565b503461015157600036600319011261015157602060ff60015460a01c166040519015158152f35b5034610151576000366003190112610151576000546040516001600160a01b039091168152602090f35b6001600160a01b0381160361015157565b6040906003190112610151576004356103848161035b565b906024356103918161035b565b90565b5034610151576103a33661036c565b6001546103b8906001600160a01b031661023b565b330361043c576040516370a0823160e01b81523060048201526100169290916020836024816001600160a01b0385165afa92831561042f575b6000936103ff575b50610cdd565b61042191935060203d8111610428575b61041981836107a4565b810190610bdf565b91386103f9565b503d61040f565b6104376107db565b6103f1565b6040516282b42960e81b8152600490fd5b6003111561045757565b634e487b7160e01b600052602160045260246000fd5b50346101515760203660031901126101515761048a600435610bfa565b6040516003821015610457576020918152f35b5034610151576104ac3661036c565b906104bd60015460ff9060a01c1690565b6105ca576040516303e1469160e61b81526001600160a01b0383811691602081600481865afa9081156105bd575b60009161058f575b50813091160361057d57600080546001600160a01b0319166001600160a01b0385161781559361053f9060018060a01b03166bffffffffffffffffffffffff60a01b6001541617600155565b6001805460ff60a01b1916600160a01b17905560405192167f3cd5ec01b1ae7cfec6ca1863e2cd6aa25d6d1702825803ff2b7cc95010fffdc28484a3f35b6040516336e038cd60e21b8152600490fd5b6105b0915060203d81116105b6575b6105a881836107a4565b8101906107c6565b386104f3565b503d61059e565b6105c56107db565b6104eb565b60405162dc149f60e41b8152600490fd5b5034610151576020366003190112610151576004356105f98161035b565b6001546001600160a01b0391908216330361043c5781600092600454921690816bffffffffffffffffffffffff60a01b84161760045560405192167fb08c5f7c2da6622db1a15d4c66943d7d24affac11e640a991fb4c3eaa9e431138484a3f35b5034610151576000366003190112610151576001546040516001600160a01b039091168152602090f35b5034610151576020366003190112610151576004356106a28161035b565b6001546001600160a01b0316330361043c57600080809247604051915af13d15610702573d6106d081610867565b906106de60405192836107a4565b8152600060203d92013e5b156106f057005b60405163d1a4579f60e01b8152600490fd5b6106e9565b5034610151576000366003190112610151576020600254604051908152f35b5034610151576000366003190112610151576004546040516001600160a01b039091168152602090f35b50634e487b7160e01b600052604160045260246000fd5b60e0810190811067ffffffffffffffff82111761078357604052565b61078b610750565b604052565b67ffffffffffffffff811161078357604052565b90601f8019910116810190811067ffffffffffffffff82111761078357604052565b9081602091031261015157516103918161035b565b506040513d6000823e3d90fd5b50634e487b7160e01b600052601160045260246000fd5b600190600019811461080f570190565b6108176107e8565b0190565b50634e487b7160e01b600052603260045260246000fd5b805482101561084b575b60005260206000200190600090565b61085361081b565b61083c565b6040519061086582610767565b565b60209067ffffffffffffffff8111610885575b601f01601f19160190565b61088d610750565b61087a565b918091926000905b8282106108b25750116108ab575050565b6000910152565b9150806020918301518186015201829161089a565b6020818303126101515780519067ffffffffffffffff8211610151570181601f820112156101515780516108fa81610867565b9261090860405194856107a4565b81845260208284010111610151576103919160208085019101610892565b90600182811c92168015610956575b602083101461094057565b634e487b7160e01b600052602260045260246000fd5b91607f1691610935565b906000929180549161097183610926565b9182825260019384811690816000146109d35750600114610993575b50505050565b90919394506000526020928360002092846000945b8386106109bf57505050500101903880808061098d565b8054858701830152940193859082016109a8565b9294505050602093945060ff191683830152151560051b0101903880808061098d565b95949390608093610a3393610a259260018060a01b03168952602089015260a0604089015260a0880190610960565b908682036060880152610960565b930152565b9060405191828154918282526020928383019160005283600020936000905b828210610a6d57505050610865925003836107a4565b855484526001958601958895509381019390910190610a57565b60209067ffffffffffffffff8111610aa1575b60051b0190565b610aa9610750565b610a9a565b908154610aba81610a87565b92604093610aca855191826107a4565b828152809460208092019260005281600020906000935b858510610af057505050505050565b60018481928451610b0c81610b05818a610960565b03826107a4565b815201930194019391610ae1565b90604051610b2781610767565b8092805482526001808201604051908192815490818452602080940192600052836000209160005b818110610bc35750505050610865949383610bbc93610b7460c09660069503836107a4565b860152610b8360028201610a38565b6040860152610b9460038201610aae565b6060860152610ba560048201610aae565b6080860152600581015460a0860152015460ff1690565b1515910152565b83546001600160a01b0316855293850193928201928201610b4f565b90816020910312610151575190565b8119811161080f570190565b60025481118015610cd5575b610cc357610c21610c26916000526003602052604060002090565b610b1a565b60c081015115610c365750600290565b60a00151600154610c8591600491602090610c5b9061023b906001600160a01b031681565b6040516360d143f160e11b815293849182905afa918215610cb6575b600092610c96575b50610bee565b421115610c9157600190565b600090565b610caf91925060203d81116104285761041981836107a4565b9038610c7f565b610cbe6107db565b610c77565b604051630992f7ad60e01b8152600490fd5b508015610c06565b6001600160a01b03939290841690813b156101515760405194859363a9059cbb60e01b855216600484015260248301528160446000958680945af18015610d7c575b610d63575b503d8015610d5857602014610d37575080fd5b90602081803e515b15610d4657565b60405163cefaffeb60e01b8152600490fd5b509050600019610d3f565b80610d70610d7692610790565b806102ff565b38610d24565b610d846107db565b610d1f565b600480546001600160a01b03908116330361113e5760408051636e296e4560e01b8152926000926020908186848188335af1958615611131575b8596611112575b508454610ddf906001600160a01b031661023b565b951694850361110457610df136611276565b9390929682518851036110f45783518851036110f45784518851036110f457600195610e578184610e2e61023b61023b8c5460018060a01b031690565b8b51630d48571f60e31b815292839182905afa9081156110e7575b84916110ca575b5042610bee565b9682815b610f00575b5050509187610eef7f216ba108683905cf17ff4c7b04b9711edbdf8ebf5cc06eeecee4b5d5e7c3c6d29998979593610eea610efb9896610ea9610ea46002546107ff565b600255565b60025490610eb5610858565b958694838652850152868c8501528760608501528860808501528960a085015260c08401526000526003602052604060002090565b611695565b51955196879687611805565b0390a2565b8a518110156110c557838582808d8f828f8f8f8f84958d54610f279060018060a01b031690565b6001600160a01b031699610f3a9161134e565b516001600160a01b031694610f4e9161134e565b5196610f599161134e565b5193610f649161134e565b51935193849388850196610f789488611395565b03601f1981018252610f8a90826107a4565b5190208d5163f2b0653760e01b815287810191825293849291839190829060200103925af19081156110b8575b859161108b575b5061107b576110528189878a8f8f8f8a61103d8f93928e936110228b8f9e8f9061101b816110156110088261100261023b61023b61101b995460018060a01b031690565b9f61134e565b516001600160a01b031690565b9b61134e565b519b61134e565b519051633a66f90160e01b8152998a98899788968701611395565b03925af1801561106e575b61105857506107ff565b90610e5b565b6102d690883d8a116104285761041981836107a4565b6110766107db565b611048565b89516333108cbb60e01b81528390fd5b6110ab9150863d88116110b1575b6110a381836107a4565b8101906113d2565b38610fbe565b503d611099565b6110c06107db565b610fb7565b610e60565b6110e19150853d87116104285761041981836107a4565b38610e50565b6110ef6107db565b610e49565b865163a554dcdf60e01b81528690fd5b5090516282b42960e81b8152fd5b61112a919650823d84116105b6576105a881836107a4565b9438610dca565b6111396107db565b610dc3565b5060405163128d7cbd60e21b8152fd5b81601f820112156101515780359161116583610a87565b9261117360405194856107a4565b808452602092838086019260051b820101928311610151578301905b82821061119d575050505090565b8135815290830190830161118f565b9291926111b882610867565b916111c660405193846107a4565b829481845281830111610151578281602093846000960137010152565b81601f82011215610151578035906111fa82610a87565b9260409261120a845195866107a4565b808552602093848087019260051b8501019383851161015157858101925b858410611239575050505050505090565b833567ffffffffffffffff811161015157820185603f8201121561015157879161126b878387868096013591016111ac565b815201930192611228565b6080811261015157600080359267ffffffffffffffff9283851161134a5780601f8601121561134a578435946112ab86610a87565b906112b960405192836107a4565b868252602096878084019160051b83010191848311611346579088809201905b83821061132d5750505050943584811161132957816112f79161114e565b93604035818111611325578261130c916111e3565b93606035918211611322575090610391916111e3565b80fd5b8480fd5b8380fd5b828091833561133b8161035b565b8152019101906112d9565b8680fd5b8280fd5b6020918151811015611363575b60051b010190565b61136b61081b565b61135b565b9060209161138981518092818552858086019101610892565b601f01601f1916010190565b95949390608093610a33936113c49260018060a01b03168952602089015260a0604089015260a0880190611370565b908682036060880152611370565b90816020910312610151575180151581036101515790565b8181106113f5575050565b600081556001016113ea565b9181811061140e57505050565b61086592600052602060002091820191016113ea565b815191600160401b8311611476575b61144283835481855584611401565b602080910191600052806000206000925b848410611461575050505050565b60018382829351855501920193019290611453565b61147e610750565b611433565b9190601f811161149257505050565b610865926000526020600020906020601f840160051c830193106114be575b601f0160051c01906113ea565b90915081906114b1565b919091825167ffffffffffffffff8111611598575b6114f1816114eb8454610926565b84611483565b602080601f831160011461152d575081929394600092611522575b50508160011b916000199060031b1c1916179055565b01519050388061150c565b90601f1983169561154385600052602060002090565b926000905b88821061158057505083600195969710611567575b505050811b019055565b015160001960f88460031b161c1916905538808061155d565b80600185968294968601518155019501930190611548565b6115a0610750565b6114dd565b815191600160401b8311611688575b8154838355808410611604575b506115d6602080920192600052602060002090565b6000925b8484106115e8575050505050565b600183826115f8839451866114c8565b019201930192906115da565b6000838152846020822092830192015b8281106116225750506115c1565b8061162f60019254610926565b8061163c575b5001611614565b601f9081811184146116545750508281555b38611635565b836116769261166885600052602060002090565b920160051c820191016113ea565b6000818152602081208183555561164e565b611690610750565b6115b4565b90805182556001808301602090818401519180835193600160401b851161176f575b6116c685855481875586611401565b0191600052806000206000925b8484106117435750505050505090600661173060c0846116fd604061086597015160028701611424565b61170e6060820151600387016115a5565b61171f6080820151600487016115a5565b60a081015160058601550151151590565b91019060ff801983541691151516179055565b805182546001600160a01b0319166001600160a01b0391909116178255928501929085019082016116d3565b611777610750565b6116b7565b90815180825260208080930193019160005b82811061179c575050505090565b83518552938101939281019260010161178e565b90815180825260208092019182818360051b85019501936000915b8483106117db5750505050505090565b90919293949584806117f583856001950387528a51611370565b98019301930191949392906117cb565b96959493929060c0880190885260209060c0828a015283518091528160e08a0194019160005b82811061186e5750505050610a339261185283611860938a60a098960360408c015261177c565b9088820360608a01526117b0565b9086820360808801526117b0565b83516001600160a01b03168652948101949281019260010161182b56fea26469706673582212205a25c7543a40eb4af8274e0afd6b07bfc3513114446fab7a51df6ffa5f0c8b1a64736f6c634300080f0033",
  "immutableReferences": {},
  "source": "// SPDX-License-Identifier: BUSL-1.1\npragma solidity 0.8.15;\n\nimport \"../SweepableBridgeReceiver.sol\";\nimport \"./IOvmL2CrossDomainMessengerInterface.sol\";\n\ncontract OptimismBridgeReceiver is SweepableBridgeReceiver {\n    error InvalidCrossDomainMessenger();\n\n    event NewCrossDomainMessenger(address indexed oldCrossDomainMessenger, address indexed newCrossDomainMessenger);\n\n    address public crossDomainMessenger;\n\n    constructor(address crossDomainMessenger_) {\n        crossDomainMessenger = crossDomainMessenger_;\n    }\n\n    function changeCrossDomainMessenger(address newCrossDomainMessenger) public {\n        if (msg.sender != localTimelock) revert Unauthorized();\n        address oldCrossDomainMessenger = crossDomainMessenger;\n        crossDomainMessenger = newCrossDomainMessenger;\n        emit NewCrossDomainMessenger(oldCrossDomainMessenger, newCrossDomainMessenger);\n    }\n\n    fallback() external payable {\n        if (msg.sender != crossDomainMessenger) revert InvalidCrossDomainMessenger();\n        address messageSender = IOvmL2CrossDomainMessengerInterface(msg.sender).xDomainMessageSender();\n        processMessage(messageSender, msg.data);\n    }\n}",
  "sourcePath": "/home/stephensb/sb-labs/solidity-contracts/contracts/comet/contracts/bridges/optimism/OptimismBridgeReceiver.sol",
  "compiler": {
    "name": "solc",
    "version": "0.8.15+commit.e14f2714.Emscripten.clang"
  },
  "schemaVersion": "3.4.12",
  "updatedAt": "2023-11-30T22:41:29.684Z",
  "devdoc": {
    "kind": "dev",
    "methods": {
      "executeProposal(uint256)": {
        "params": {
          "proposalId": "The id of the proposal to execute"
        }
      },
      "initialize(address,address)": {
        "params": {
          "_govTimelock": "Address of the governing contract that this contract will receive messages from (likely on another chain)",
          "_localTimelock": "Address of the timelock contract that this contract will send messages to"
        }
      },
      "state(uint256)": {
        "params": {
          "proposalId": "Id of the proposal"
        },
        "returns": {
          "_0": "The state of the given proposal (queued, expired or executed)"
        }
      },
      "sweepNativeToken(address)": {
        "params": {
          "recipient": "The address that will receive the swept funds"
        }
      },
      "sweepToken(address,address)": {
        "details": "Note: Make sure to check that the asset being swept out is not malicious",
        "params": {
          "asset": "The address of the ERC-20 token to sweep",
          "recipient": "The address that will receive the swept funds"
        }
      }
    },
    "version": 1
  },
  "userdoc": {
    "errors": {
      "AlreadyInitialized()": [
        {
          "notice": "Custom errors *"
        }
      ]
    },
    "events": {
      "Initialized(address,address)": {
        "notice": "Events *"
      }
    },
    "kind": "user",
    "methods": {
      "executeProposal(uint256)": {
        "notice": "Execute a queued proposal"
      },
      "govTimelock()": {
        "notice": "Address of the governing contract that this bridge receiver expects to  receive messages from; likely an address from another chain (e.g. mainnet)"
      },
      "initialize(address,address)": {
        "notice": "Initialize the contract"
      },
      "initialized()": {
        "notice": "Whether contract has been initialized"
      },
      "localTimelock()": {
        "notice": "Address of the timelock on this chain that the bridge receiver will send messages to"
      },
      "proposalCount()": {
        "notice": "Total count of proposals generated"
      },
      "proposals(uint256)": {
        "notice": "Mapping of proposal ids to their full proposal data"
      },
      "state(uint256)": {
        "notice": "Get the state of a proposal"
      },
      "sweepNativeToken(address)": {
        "notice": "A public function to sweep accidental native token transfers to this contract"
      },
      "sweepToken(address,address)": {
        "notice": "A public function to sweep accidental ERC-20 transfers to this contract"
      }
    },
    "version": 1
  }
}