{
  "contractName": "PolygonBridgeReceiver",
  "abi": [
    {
      "inputs": [
        {
          "internalType": "address",
          "name": "_fxChild",
          "type": "address"
        }
      ],
      "stateMutability": "nonpayable",
      "type": "constructor"
    },
    {
      "inputs": [],
      "name": "AlreadyInitialized",
      "type": "error"
    },
    {
      "inputs": [],
      "name": "BadData",
      "type": "error"
    },
    {
      "inputs": [],
      "name": "InvalidChild",
      "type": "error"
    },
    {
      "inputs": [],
      "name": "InvalidProposalId",
      "type": "error"
    },
    {
      "inputs": [],
      "name": "InvalidTimelockAdmin",
      "type": "error"
    },
    {
      "inputs": [],
      "name": "ProposalNotExecutable",
      "type": "error"
    },
    {
      "inputs": [],
      "name": "TransactionAlreadyQueued",
      "type": "error"
    },
    {
      "inputs": [],
      "name": "Unauthorized",
      "type": "error"
    },
    {
      "anonymous": false,
      "inputs": [
        {
          "indexed": true,
          "internalType": "address",
          "name": "govTimelock",
          "type": "address"
        },
        {
          "indexed": true,
          "internalType": "address",
          "name": "localTimelock",
          "type": "address"
        }
      ],
      "name": "Initialized",
      "type": "event"
    },
    {
      "anonymous": false,
      "inputs": [
        {
          "indexed": true,
          "internalType": "address",
          "name": "oldFxChild",
          "type": "address"
        },
        {
          "indexed": true,
          "internalType": "address",
          "name": "newFxChild",
          "type": "address"
        }
      ],
      "name": "NewFxChild",
      "type": "event"
    },
    {
      "anonymous": false,
      "inputs": [
        {
          "indexed": true,
          "internalType": "address",
          "name": "rootMessageSender",
          "type": "address"
        },
        {
          "indexed": false,
          "internalType": "uint256",
          "name": "id",
          "type": "uint256"
        },
        {
          "indexed": false,
          "internalType": "address[]",
          "name": "targets",
          "type": "address[]"
        },
        {
          "indexed": false,
          "internalType": "uint256[]",
          "name": "values",
          "type": "uint256[]"
        },
        {
          "indexed": false,
          "internalType": "string[]",
          "name": "signatures",
          "type": "string[]"
        },
        {
          "indexed": false,
          "internalType": "bytes[]",
          "name": "calldatas",
          "type": "bytes[]"
        },
        {
          "indexed": false,
          "internalType": "uint256",
          "name": "eta",
          "type": "uint256"
        }
      ],
      "name": "ProposalCreated",
      "type": "event"
    },
    {
      "anonymous": false,
      "inputs": [
        {
          "indexed": true,
          "internalType": "uint256",
          "name": "id",
          "type": "uint256"
        }
      ],
      "name": "ProposalExecuted",
      "type": "event"
    },
    {
      "inputs": [
        {
          "internalType": "uint256",
          "name": "proposalId",
          "type": "uint256"
        }
      ],
      "name": "executeProposal",
      "outputs": [],
      "stateMutability": "nonpayable",
      "type": "function"
    },
    {
      "inputs": [],
      "name": "fxChild",
      "outputs": [
        {
          "internalType": "address",
          "name": "",
          "type": "address"
        }
      ],
      "stateMutability": "view",
      "type": "function"
    },
    {
      "inputs": [],
      "name": "govTimelock",
      "outputs": [
        {
          "internalType": "address",
          "name": "",
          "type": "address"
        }
      ],
      "stateMutability": "view",
      "type": "function"
    },
    {
      "inputs": [
        {
          "internalType": "address",
          "name": "_govTimelock",
          "type": "address"
        },
        {
          "internalType": "address",
          "name": "_localTimelock",
          "type": "address"
        }
      ],
      "name": "initialize",
      "outputs": [],
      "stateMutability": "nonpayable",
      "type": "function"
    },
    {
      "inputs": [],
      "name": "initialized",
      "outputs": [
        {
          "internalType": "bool",
          "name": "",
          "type": "bool"
        }
      ],
      "stateMutability": "view",
      "type": "function"
    },
    {
      "inputs": [],
      "name": "localTimelock",
      "outputs": [
        {
          "internalType": "address",
          "name": "",
          "type": "address"
        }
      ],
      "stateMutability": "view",
      "type": "function"
    },
    {
      "inputs": [],
      "name": "proposalCount",
      "outputs": [
        {
          "internalType": "uint256",
          "name": "",
          "type": "uint256"
        }
      ],
      "stateMutability": "view",
      "type": "function"
    },
    {
      "inputs": [
        {
          "internalType": "uint256",
          "name": "",
          "type": "uint256"
        }
      ],
      "name": "proposals",
      "outputs": [
        {
          "internalType": "uint256",
          "name": "id",
          "type": "uint256"
        },
        {
          "internalType": "uint256",
          "name": "eta",
          "type": "uint256"
        },
        {
          "internalType": "bool",
          "name": "executed",
          "type": "bool"
        }
      ],
      "stateMutability": "view",
      "type": "function"
    },
    {
      "inputs": [
        {
          "internalType": "uint256",
          "name": "proposalId",
          "type": "uint256"
        }
      ],
      "name": "state",
      "outputs": [
        {
          "internalType": "enum BaseBridgeReceiver.ProposalState",
          "name": "",
          "type": "uint8"
        }
      ],
      "stateMutability": "view",
      "type": "function"
    },
    {
      "inputs": [
        {
          "internalType": "address",
          "name": "newFxChild",
          "type": "address"
        }
      ],
      "name": "changeFxChild",
      "outputs": [],
      "stateMutability": "nonpayable",
      "type": "function"
    },
    {
      "inputs": [
        {
          "internalType": "uint256",
          "name": "stateId",
          "type": "uint256"
        },
        {
          "internalType": "address",
          "name": "rootMessageSender",
          "type": "address"
        },
        {
          "internalType": "bytes",
          "name": "data",
          "type": "bytes"
        }
      ],
      "name": "processMessageFromRoot",
      "outputs": [],
      "stateMutability": "nonpayable",
      "type": "function"
    }
  ],
  "bytecode": "0x60803461007457601f6117b438819003918201601f19168301916001600160401b038311848410176100795780849260209460405283398101031261007457516001600160a01b0381169081900361007457600480546001600160a01b03191691909117905560405161172490816100908239f35b600080fd5b634e487b7160e01b600052604160045260246000fdfe608080604052600436101561001357600080fd5b60003560e01c908163013cf08b14611106575080630d61b51914610f13578063158ef93e14610eed57806322086dbe14610ec45780633e4f49e614610e7f578063450d11f014610e56578063485cc95514610d355780634b72f5c114610cbb578063824343dd14610c925780639a7c4b71146100bb5763da35c6641461009857600080fd5b346100b65760003660031901126100b6576020600254604051908152f35b600080fd5b346100b65760603660031901126100b6576100d4611161565b6001600160401b03604435116100b6573660236044350112156100b657604435600401356001600160401b0381116100b65760443501903660248301116100b6576004546001600160a01b03163303610c80576000546001600160a01b0390811690821603610c6f5760806044358303126100b657602460443501356001600160401b0381116100b65760443501602483016043820112156100b65760248101359261017f84611326565b9161018d6040519384611192565b84835260208301906044829660051b820101906024840182116100b657604401915b818310610c4f575050506044803501356001600160401b0381116100b6576044350191602482016043840112156100b6576024830135936101ef85611326565b936101fd6040519586611192565b858552602085016044819760051b830101916024860183116100b657604401905b828210610c3f57505050606460443501356001600160401b0381116100b65760248401604382604435010112156100b6576024816044350101359161026283611326565b926102706040519485611192565b8084526020840180936024880160448460051b838235010101116100b65760448181350101915b60448460051b8382350101018310610bf1575050505060846044350135916001600160401b0383116100b65760248601604384604435010112156100b6576102e6602484604435010135611326565b956102f46040519788611192565b6024846044350101358752602087018094602483016044602483823501013560051b838235010101116100b65760448181350101915b604480358301602481013560051b01018310610b9e57505050508651855103610b8c578351855103610b8c578551855103610b8c57600154604051630d48571f60e31b815290602090829060049082906001600160a01b03165afa80156104f057600090610b58575b61039e91504261133d565b9760005b865181101561054957600060208860248c8c8f8c610406610414926103f58b6103ee816103ee8160018060a01b03600154169d6103e68260018060a01b03926115f2565b51169b6115f2565b51966115f2565b516040519586948b8601988961162b565b03601f198101835282611192565b519020604051948593849263f2b0653760e01b845260048401525af19081156104f05760009161050e575b506104fc5789602089898960008e6104a761048889610481816104818160018060a01b03600154169a6104798260018060a01b03926115f2565b5116976115f2565b51976115f2565b519760405198899788968795633a66f90160e01b87526004870161162b565b03925af180156104f0576104c5575b506104c0906111b3565b6103a2565b602090813d83116104e9575b6104db8183611192565b810103126100b6578b6104b6565b503d6104d1565b6040513d6000823e3d90fd5b6040516333108cbb60e01b8152600490fd5b90506020813d602011610541575b8161052960209383611192565b810103126100b6575180151581036100b6578c61043f565b3d915061051c565b508893969192948a8961055d6002546111b3565b806002556040519061056e82611177565b80825260208201908b82528360408401528560608401528760808401528960a0840152600060c084015260005260036020526040600020908251825551805190600160401b821161092157602060018401916105cf84845481865585611684565b019060005260206000206000915b838310610b2857505050506040820151805190600160401b8211610921576020600284019161061184845481865585611684565b019060005260206000206000915b838310610b1257505050506060820151805190600160401b8211610921576003830154826003850155808310610a93575b5060200190600383016000526020600020916000905b8282106109b657505050506080820151805190600160401b8211610921576004830154826004850155808310610937575b5060200190600483016000526020600020916000905b82821061083e575050505060069060a083015160058201550160c0820151151560ff80198354169116179055516040519960c08b01918b5260c060208c01525180915260e08a01929060005b81811061081f5750505060209089830360408b0152519182815201929060005b81811061080957505050868203606088015251808252602082019160208260051b82010194926000915b8383106107dc575050505050848203608086015251808252602082019160208260051b82010196926000915b8383106107af5760a088018690526001600160a01b0387167f216ba108683905cf17ff4c7b04b9711edbdf8ebf5cc06eeecee4b5d5e7c3c6d2898b038aa2005b90919293976020806107cd600193601f198682030187528c51611606565b9a01930193019193929061076f565b90919293956020806107fa600193601f198682030187528a51611606565b98019301930191939290610743565b8251855260209485019490920191600101610719565b82516001600160a01b03168552602094850194909201916001016106f9565b80518051906001600160401b038211610921576108658261085f8854611256565b886116a9565b602090601f83116001146108b15792826001949360209386956000926108a6575b5050600019600383901b1c191690841b1787555b019401910190926106ad565b015190503880610886565b908660005260206000209160005b601f1985168110610909575083602093600196938796938794601f198116106108f0575b505050811b01875561089a565b015160001960f88460031b161c191690553880806108e3565b919260206001819286850151815501940192016108bf565b634e487b7160e01b600052604160045260246000fd5b600484016000526020600020908382015b8183018110610958575050610697565b8061096560019254611256565b80610972575b5001610948565b601f90818111841461098b575050600081555b3861096b565b836109a792846000526020600020920160051c8201910161166d565b60006020812081835555610985565b80518051906001600160401b038211610921576109d78261085f8854611256565b602090601f8311600114610a23579282600194936020938695600092610a18575b5050600019600383901b1c191690841b1787555b01940191019092610666565b0151905038806109f8565b908660005260206000209160005b601f1985168110610a7b575083602093600196938796938794601f19811610610a62575b505050811b018755610a0c565b015160001960f88460031b161c19169055388080610a55565b91926020600181928685015181550194019201610a31565b600384016000526020600020908382015b8183018110610ab4575050610650565b80610ac160019254611256565b80610ace575b5001610aa4565b601f908181118414610ae7575050600081555b38610ac7565b83610b0392846000526020600020920160051c8201910161166d565b60006020812081835555610ae1565b600160208282935185550192019201919061061f565b805182546001600160a01b0319166001600160a01b039190911617825560019283019291909101906020016105dd565b506020813d602011610b84575b81610b7260209383611192565b810103126100b65761039e9051610393565b3d9150610b65565b60405163a554dcdf60e01b8152600490fd5b82356001600160401b0381116100b657602485016063828560443501010112156100b6576020918291610be690602488019060448035880190910190810135906064016115bb565b81520192019161032a565b82356001600160401b0381116100b6578260443501019060248a016063830112156100b65760208091610c3260449460248e019060648782013591016115bb565b8152019301929050610297565b813581526020918201910161021e565b82356001600160a01b03811681036100b6578152602092830192016101af565b6040516282b42960e81b8152600490fd5b60405163bfb8ddef60e01b8152600490fd5b346100b65760003660031901126100b6576001546040516001600160a01b039091168152602090f35b346100b65760203660031901126100b657610cd461114b565b6001546001600160a01b03919082163303610c6f5781600092600454921690816bffffffffffffffffffffffff60a01b84161760045560405192167f8c7990c8264248aa20a2ac5680607a402e741b7f53d9fd055bf648640e25bdc28484a3f35b346100b65760403660031901126100b657610d4e61114b565b610d56611161565b6001549060ff8260a01c16610e45576040516303e1469160e61b81526001600160a01b039182169190602081600481865afa9081156104f057600091610e0b575b508130911603610df957600080546001600160a01b0319169190941690811784556001600160a81b03199092168117600160a01b17600155604051917f3cd5ec01b1ae7cfec6ca1863e2cd6aa25d6d1702825803ff2b7cc95010fffdc28484a3f35b6040516336e038cd60e21b8152600490fd5b90506020813d8211610e3d575b81610e2560209383611192565b810103126100b6575181811681036100b65785610d97565b3d9150610e18565b60405162dc149f60e41b8152600490fd5b346100b65760003660031901126100b6576004546040516001600160a01b039091168152602090f35b346100b65760203660031901126100b657610e9b600435611349565b6040516003821015610eae576020918152f35b634e487b7160e01b600052602160045260246000fd5b346100b65760003660031901126100b6576000546040516001600160a01b039091168152602090f35b346100b65760003660031901126100b657602060ff60015460a01c166040519015158152f35b346100b657602060031981813601126100b65760043590610f3382611349565b9060039182811015610eae576110f45760008381528285526040812060068101805460ff191660019081179091559360058201926004830192808301929160028201918801885b610fac575b60008a604051907f712ae1383f79ac853f8d882153778e0260ef8f03b504e2866e0593e04d2b291f8383a2f35b80548210156110ef5788546001600160a01b039081169290610fce82846111d8565b905490871b1c1692610fe082866111d8565b905490871b1c610ff083896111d8565b5094610ffc848b6111d8565b508b54908d6040519889958695630825f38f60e01b8752600487015260248601526044850160a0905260a4850161103291611290565b9084820301606485015261104591611290565b90608483015203815a6000948591f19283156104f0578a93611072575b5061106c906111b3565b91610f7a565b92503d806000853e6110848185611192565b8301928c818503126100b6578051906001600160401b0382116100b657019083601f830112156100b6578c8251946110bb86611206565b916110c96040519384611192565b86835286850101116100b6578b9461106c938f806110e994019101611221565b90611062565b610f7f565b604051633c7e994560e11b8152600490fd5b346100b65760203660031901126100b6576060906004356000526003602052604060002080549060ff6006600583015492015416918352602083015215156040820152f35b600435906001600160a01b03821682036100b657565b602435906001600160a01b03821682036100b657565b60e081019081106001600160401b0382111761092157604052565b90601f801991011681019081106001600160401b0382111761092157604052565b60001981146111c25760010190565b634e487b7160e01b600052601160045260246000fd5b80548210156111f05760005260206000200190600090565b634e487b7160e01b600052603260045260246000fd5b6001600160401b03811161092157601f01601f191660200190565b918091926000905b82821061124157501161123a575050565b6000910152565b91508060209183015181860152018291611229565b90600182811c92168015611286575b602083101461127057565b634e487b7160e01b600052602260045260246000fd5b91607f1691611265565b90600092918054916112a183611256565b91828252600193848116908160001461130357506001146112c3575b50505050565b90919394506000526020928360002092846000945b8386106112ef5750505050010190388080806112bd565b8054858701830152940193859082016112d8565b9294505050602093945060ff191683830152151560051b010190388080806112bd565b6001600160401b0381116109215760051b60200190565b811981116111c2570190565b600254811180156115b3575b6115a15760009081526020906003825260408082209080519361137785611177565b825485526001948584018351808285829454938481520190895285892092895b8b8883831061158357505050506113b092500382611192565b82820152600284018351808285829454938481520190895285892092895b8b8883831061156e57505050506113e792500382611192565b838201526003840180546113fa81611326565b9161140786519384611192565b81835287528387208790898685015b8785851061154c57505050505050606082015260048401805461143881611326565b9161144586519384611192565b8183528752838720879089868086015b858510611521575050505050509060c091608082015260ff60066005870154968760a085015201541615159182910152600014611496575050505050600290565b845482516360d143f160e11b815291908190839060049082906001600160a01b03165afa928315611518575084926114e4575b50506114d49161133d565b4211156114df575090565b905090565b90809250813d8311611511575b6114fb8183611192565b8101031261150d57516114d4386114c9565b8280fd5b503d6114f1565b513d86823e3d90fd5b9082918a5161153b816115348189611290565b0382611192565b815201920192019190868b91611455565b82918a5161155e816115348189611290565b8152019201920191908a90611416565b865485529581019587955090930192016113ce565b86546001600160a01b03168552958101958795509093019201611397565b604051630992f7ad60e01b8152600490fd5b508015611355565b9291926115c782611206565b916115d56040519384611192565b8294818452818301116100b6578281602093846000960137010152565b80518210156111f05760209160051b010190565b9060209161161f81518092818552858086019101611221565b601f01601f1916010190565b959493906080936116689361165a9260018060a01b03168952602089015260a0604089015260a0880190611606565b908682036060880152611606565b930152565b818110611678575050565b6000815560010161166d565b9181811061169157505050565b6116a7926000526020600020918201910161166d565b565b9190601f81116116b857505050565b6116a7926000526020600020906020601f840160051c830193106116e4575b601f0160051c019061166d565b90915081906116d756fea264697066735822122088c9b01e06eaf7e7703d2292edb3c5578c8333b71aa576c174820bd967451f8e64736f6c634300080f0033",
  "immutableReferences": {},
  "source": "// SPDX-License-Identifier: BUSL-1.1\npragma solidity 0.8.15;\n\nimport \"./IFxMessageProcessor.sol\";\nimport \"../BaseBridgeReceiver.sol\";\n\ncontract PolygonBridgeReceiver is IFxMessageProcessor, BaseBridgeReceiver {\n    error InvalidChild();\n\n    event NewFxChild(address indexed oldFxChild, address indexed newFxChild);\n\n    /// @notice Address of Polygon's bridged message receiver\n    address public fxChild;\n\n    /**\n     * @notice Construct a new PolygonBridgeReceiver instance\n     * @param _fxChild Address of Polygon bridged message receiver\n     **/\n    constructor(address _fxChild) {\n        fxChild = _fxChild;\n    }\n\n    /**\n     * @notice Update the fxChild address\n     * @param newFxChild New value for fxAddress\n     */\n    function changeFxChild(address newFxChild) public {\n        if (msg.sender != localTimelock) revert Unauthorized();\n        address oldFxChild = fxChild;\n        fxChild = newFxChild;\n        emit NewFxChild(oldFxChild, newFxChild);\n    }\n\n    /**\n     * @notice Receive bridged message and enqueue in the Timelock\n     * @param stateId Value provided by fxChild when function is called; ignored\n     * @param rootMessageSender Mainnet address that initiated the bridged message\n     * @param data ABI-encoded data of the bridged message\n     */\n    function processMessageFromRoot(\n        uint256 stateId,\n        address rootMessageSender,\n        bytes calldata data\n    ) public override {\n        if (msg.sender != fxChild) revert InvalidChild();\n        processMessage(rootMessageSender, data);\n    }\n}",
  "sourcePath": "/home/stephensb/sb-labs/solidity-contracts/contracts/comet/contracts/bridges/polygon/PolygonBridgeReceiver.sol",
  "compiler": {
    "name": "solc",
    "version": "0.8.15+commit.e14f2714.Emscripten.clang"
  },
  "schemaVersion": "3.4.12",
  "updatedAt": "2023-11-30T22:41:29.685Z",
  "devdoc": {
    "kind": "dev",
    "methods": {
      "changeFxChild(address)": {
        "params": {
          "newFxChild": "New value for fxAddress"
        }
      },
      "constructor": {
        "params": {
          "_fxChild": "Address of Polygon bridged message receiver*"
        }
      },
      "executeProposal(uint256)": {
        "params": {
          "proposalId": "The id of the proposal to execute"
        }
      },
      "initialize(address,address)": {
        "params": {
          "_govTimelock": "Address of the governing contract that this contract will receive messages from (likely on another chain)",
          "_localTimelock": "Address of the timelock contract that this contract will send messages to"
        }
      },
      "processMessageFromRoot(uint256,address,bytes)": {
        "params": {
          "data": "ABI-encoded data of the bridged message",
          "rootMessageSender": "Mainnet address that initiated the bridged message",
          "stateId": "Value provided by fxChild when function is called; ignored"
        }
      },
      "state(uint256)": {
        "params": {
          "proposalId": "Id of the proposal"
        },
        "returns": {
          "_0": "The state of the given proposal (queued, expired or executed)"
        }
      }
    },
    "version": 1
  },
  "userdoc": {
    "errors": {
      "AlreadyInitialized()": [
        {
          "notice": "Custom errors *"
        }
      ]
    },
    "events": {
      "Initialized(address,address)": {
        "notice": "Events *"
      }
    },
    "kind": "user",
    "methods": {
      "changeFxChild(address)": {
        "notice": "Update the fxChild address"
      },
      "constructor": {
        "notice": "Construct a new PolygonBridgeReceiver instance"
      },
      "executeProposal(uint256)": {
        "notice": "Execute a queued proposal"
      },
      "fxChild()": {
        "notice": "Address of Polygon's bridged message receiver"
      },
      "govTimelock()": {
        "notice": "Address of the governing contract that this bridge receiver expects to  receive messages from; likely an address from another chain (e.g. mainnet)"
      },
      "initialize(address,address)": {
        "notice": "Initialize the contract"
      },
      "initialized()": {
        "notice": "Whether contract has been initialized"
      },
      "localTimelock()": {
        "notice": "Address of the timelock on this chain that the bridge receiver will send messages to"
      },
      "processMessageFromRoot(uint256,address,bytes)": {
        "notice": "Receive bridged message and enqueue in the Timelock"
      },
      "proposalCount()": {
        "notice": "Total count of proposals generated"
      },
      "proposals(uint256)": {
        "notice": "Mapping of proposal ids to their full proposal data"
      },
      "state(uint256)": {
        "notice": "Get the state of a proposal"
      }
    },
    "version": 1
  }
}