{
  "contractName": "PoolManager",
  "abi": [
    {
      "inputs": [
        {
          "internalType": "uint256",
          "name": "controllerGasLimit",
          "type": "uint256"
        }
      ],
      "stateMutability": "nonpayable",
      "type": "constructor"
    },
    {
      "inputs": [],
      "name": "CannotUpdateEmptyPosition",
      "type": "error"
    },
    {
      "inputs": [],
      "name": "CurrenciesOutOfOrderOrEqual",
      "type": "error"
    },
    {
      "inputs": [],
      "name": "CurrencyNotSettled",
      "type": "error"
    },
    {
      "inputs": [],
      "name": "DelegateCallNotAllowed",
      "type": "error"
    },
    {
      "inputs": [],
      "name": "ERC20TransferFailed",
      "type": "error"
    },
    {
      "inputs": [],
      "name": "FeeNotDynamic",
      "type": "error"
    },
    {
      "inputs": [],
      "name": "FeeTooLarge",
      "type": "error"
    },
    {
      "inputs": [
        {
          "internalType": "address",
          "name": "hooks",
          "type": "address"
        }
      ],
      "name": "HookAddressNotValid",
      "type": "error"
    },
    {
      "inputs": [],
      "name": "InsufficientBalance",
      "type": "error"
    },
    {
      "inputs": [],
      "name": "InvalidAddress",
      "type": "error"
    },
    {
      "inputs": [],
      "name": "InvalidCaller",
      "type": "error"
    },
    {
      "inputs": [],
      "name": "InvalidHookResponse",
      "type": "error"
    },
    {
      "inputs": [],
      "name": "InvalidPrice",
      "type": "error"
    },
    {
      "inputs": [],
      "name": "InvalidPriceOrLiquidity",
      "type": "error"
    },
    {
      "inputs": [],
      "name": "InvalidSqrtRatio",
      "type": "error"
    },
    {
      "inputs": [],
      "name": "InvalidTick",
      "type": "error"
    },
    {
      "inputs": [
        {
          "internalType": "address",
          "name": "locker",
          "type": "address"
        }
      ],
      "name": "LockedBy",
      "type": "error"
    },
    {
      "inputs": [],
      "name": "MaxCurrenciesTouched",
      "type": "error"
    },
    {
      "inputs": [],
      "name": "NativeTransferFailed",
      "type": "error"
    },
    {
      "inputs": [],
      "name": "NoLiquidityToReceiveFees",
      "type": "error"
    },
    {
      "inputs": [],
      "name": "NotEnoughLiquidity",
      "type": "error"
    },
    {
      "inputs": [],
      "name": "NotPoolManagerToken",
      "type": "error"
    },
    {
      "inputs": [],
      "name": "PoolAlreadyInitialized",
      "type": "error"
    },
    {
      "inputs": [],
      "name": "PoolNotInitialized",
      "type": "error"
    },
    {
      "inputs": [],
      "name": "PoolNotInitialized",
      "type": "error"
    },
    {
      "inputs": [
        {
          "internalType": "uint160",
          "name": "sqrtPriceCurrentX96",
          "type": "uint160"
        },
        {
          "internalType": "uint160",
          "name": "sqrtPriceLimitX96",
          "type": "uint160"
        }
      ],
      "name": "PriceLimitAlreadyExceeded",
      "type": "error"
    },
    {
      "inputs": [
        {
          "internalType": "uint160",
          "name": "sqrtPriceLimitX96",
          "type": "uint160"
        }
      ],
      "name": "PriceLimitOutOfBounds",
      "type": "error"
    },
    {
      "inputs": [],
      "name": "PriceOverflow",
      "type": "error"
    },
    {
      "inputs": [],
      "name": "ProtocolFeeCannotBeFetched",
      "type": "error"
    },
    {
      "inputs": [],
      "name": "SafeCastOverflow",
      "type": "error"
    },
    {
      "inputs": [],
      "name": "SwapAmountCannotBeZero",
      "type": "error"
    },
    {
      "inputs": [
        {
          "internalType": "int24",
          "name": "tick",
          "type": "int24"
        }
      ],
      "name": "TickLiquidityOverflow",
      "type": "error"
    },
    {
      "inputs": [
        {
          "internalType": "int24",
          "name": "tickLower",
          "type": "int24"
        }
      ],
      "name": "TickLowerOutOfBounds",
      "type": "error"
    },
    {
      "inputs": [
        {
          "internalType": "int24",
          "name": "tick",
          "type": "int24"
        },
        {
          "internalType": "int24",
          "name": "tickSpacing",
          "type": "int24"
        }
      ],
      "name": "TickMisaligned",
      "type": "error"
    },
    {
      "inputs": [],
      "name": "TickSpacingTooLarge",
      "type": "error"
    },
    {
      "inputs": [],
      "name": "TickSpacingTooSmall",
      "type": "error"
    },
    {
      "inputs": [
        {
          "internalType": "int24",
          "name": "tickUpper",
          "type": "int24"
        }
      ],
      "name": "TickUpperOutOfBounds",
      "type": "error"
    },
    {
      "inputs": [
        {
          "internalType": "int24",
          "name": "tickLower",
          "type": "int24"
        },
        {
          "internalType": "int24",
          "name": "tickUpper",
          "type": "int24"
        }
      ],
      "name": "TicksMisordered",
      "type": "error"
    },
    {
      "anonymous": false,
      "inputs": [
        {
          "indexed": true,
          "internalType": "address",
          "name": "from",
          "type": "address"
        },
        {
          "indexed": true,
          "internalType": "Currency",
          "name": "currency",
          "type": "address"
        },
        {
          "indexed": false,
          "internalType": "uint256",
          "name": "amount",
          "type": "uint256"
        }
      ],
      "name": "Burn",
      "type": "event"
    },
    {
      "anonymous": false,
      "inputs": [
        {
          "indexed": true,
          "internalType": "PoolId",
          "name": "id",
          "type": "bytes32"
        },
        {
          "indexed": false,
          "internalType": "uint24",
          "name": "dynamicSwapFee",
          "type": "uint24"
        }
      ],
      "name": "DynamicSwapFeeUpdated",
      "type": "event"
    },
    {
      "anonymous": false,
      "inputs": [
        {
          "indexed": true,
          "internalType": "PoolId",
          "name": "id",
          "type": "bytes32"
        },
        {
          "indexed": false,
          "internalType": "uint24",
          "name": "hookFees",
          "type": "uint24"
        }
      ],
      "name": "HookFeeUpdated",
      "type": "event"
    },
    {
      "anonymous": false,
      "inputs": [
        {
          "indexed": true,
          "internalType": "PoolId",
          "name": "id",
          "type": "bytes32"
        },
        {
          "indexed": true,
          "internalType": "Currency",
          "name": "currency0",
          "type": "address"
        },
        {
          "indexed": true,
          "internalType": "Currency",
          "name": "currency1",
          "type": "address"
        },
        {
          "indexed": false,
          "internalType": "uint24",
          "name": "fee",
          "type": "uint24"
        },
        {
          "indexed": false,
          "internalType": "int24",
          "name": "tickSpacing",
          "type": "int24"
        },
        {
          "indexed": false,
          "internalType": "contract IHooks",
          "name": "hooks",
          "type": "address"
        }
      ],
      "name": "Initialize",
      "type": "event"
    },
    {
      "anonymous": false,
      "inputs": [
        {
          "indexed": true,
          "internalType": "address",
          "name": "to",
          "type": "address"
        },
        {
          "indexed": true,
          "internalType": "Currency",
          "name": "currency",
          "type": "address"
        },
        {
          "indexed": false,
          "internalType": "uint256",
          "name": "amount",
          "type": "uint256"
        }
      ],
      "name": "Mint",
      "type": "event"
    },
    {
      "anonymous": false,
      "inputs": [
        {
          "indexed": true,
          "internalType": "PoolId",
          "name": "id",
          "type": "bytes32"
        },
        {
          "indexed": true,
          "internalType": "address",
          "name": "sender",
          "type": "address"
        },
        {
          "indexed": false,
          "internalType": "int24",
          "name": "tickLower",
          "type": "int24"
        },
        {
          "indexed": false,
          "internalType": "int24",
          "name": "tickUpper",
          "type": "int24"
        },
        {
          "indexed": false,
          "internalType": "int256",
          "name": "liquidityDelta",
          "type": "int256"
        }
      ],
      "name": "ModifyPosition",
      "type": "event"
    },
    {
      "anonymous": false,
      "inputs": [
        {
          "indexed": true,
          "internalType": "address",
          "name": "oldOwner",
          "type": "address"
        },
        {
          "indexed": true,
          "internalType": "address",
          "name": "newOwner",
          "type": "address"
        }
      ],
      "name": "OwnerChanged",
      "type": "event"
    },
    {
      "anonymous": false,
      "inputs": [
        {
          "indexed": false,
          "internalType": "address",
          "name": "protocolFeeController",
          "type": "address"
        }
      ],
      "name": "ProtocolFeeControllerUpdated",
      "type": "event"
    },
    {
      "anonymous": false,
      "inputs": [
        {
          "indexed": true,
          "internalType": "PoolId",
          "name": "id",
          "type": "bytes32"
        },
        {
          "indexed": false,
          "internalType": "uint24",
          "name": "protocolFees",
          "type": "uint24"
        }
      ],
      "name": "ProtocolFeeUpdated",
      "type": "event"
    },
    {
      "anonymous": false,
      "inputs": [
        {
          "indexed": true,
          "internalType": "PoolId",
          "name": "id",
          "type": "bytes32"
        },
        {
          "indexed": true,
          "internalType": "address",
          "name": "sender",
          "type": "address"
        },
        {
          "indexed": false,
          "internalType": "int128",
          "name": "amount0",
          "type": "int128"
        },
        {
          "indexed": false,
          "internalType": "int128",
          "name": "amount1",
          "type": "int128"
        },
        {
          "indexed": false,
          "internalType": "uint160",
          "name": "sqrtPriceX96",
          "type": "uint160"
        },
        {
          "indexed": false,
          "internalType": "uint128",
          "name": "liquidity",
          "type": "uint128"
        },
        {
          "indexed": false,
          "internalType": "int24",
          "name": "tick",
          "type": "int24"
        },
        {
          "indexed": false,
          "internalType": "uint24",
          "name": "fee",
          "type": "uint24"
        }
      ],
      "name": "Swap",
      "type": "event"
    },
    {
      "anonymous": false,
      "inputs": [
        {
          "indexed": true,
          "internalType": "address",
          "name": "from",
          "type": "address"
        },
        {
          "indexed": true,
          "internalType": "address",
          "name": "to",
          "type": "address"
        },
        {
          "indexed": true,
          "internalType": "Currency",
          "name": "currency",
          "type": "address"
        },
        {
          "indexed": false,
          "internalType": "uint256",
          "name": "amount",
          "type": "uint256"
        }
      ],
      "name": "Transfer",
      "type": "event"
    },
    {
      "inputs": [],
      "name": "MAX_SWAP_FEE",
      "outputs": [
        {
          "internalType": "uint24",
          "name": "",
          "type": "uint24"
        }
      ],
      "stateMutability": "view",
      "type": "function"
    },
    {
      "inputs": [],
      "name": "MAX_TICK_SPACING",
      "outputs": [
        {
          "internalType": "int24",
          "name": "",
          "type": "int24"
        }
      ],
      "stateMutability": "view",
      "type": "function"
    },
    {
      "inputs": [],
      "name": "MIN_PROTOCOL_FEE_DENOMINATOR",
      "outputs": [
        {
          "internalType": "uint8",
          "name": "",
          "type": "uint8"
        }
      ],
      "stateMutability": "view",
      "type": "function"
    },
    {
      "inputs": [],
      "name": "MIN_TICK_SPACING",
      "outputs": [
        {
          "internalType": "int24",
          "name": "",
          "type": "int24"
        }
      ],
      "stateMutability": "view",
      "type": "function"
    },
    {
      "inputs": [
        {
          "internalType": "address",
          "name": "account",
          "type": "address"
        },
        {
          "internalType": "Currency",
          "name": "currency",
          "type": "address"
        }
      ],
      "name": "balanceOf",
      "outputs": [
        {
          "internalType": "uint256",
          "name": "",
          "type": "uint256"
        }
      ],
      "stateMutability": "view",
      "type": "function"
    },
    {
      "inputs": [
        {
          "internalType": "address",
          "name": "recipient",
          "type": "address"
        },
        {
          "internalType": "Currency",
          "name": "currency",
          "type": "address"
        },
        {
          "internalType": "uint256",
          "name": "amount",
          "type": "uint256"
        }
      ],
      "name": "collectHookFees",
      "outputs": [
        {
          "internalType": "uint256",
          "name": "amountCollected",
          "type": "uint256"
        }
      ],
      "stateMutability": "nonpayable",
      "type": "function"
    },
    {
      "inputs": [
        {
          "internalType": "address",
          "name": "recipient",
          "type": "address"
        },
        {
          "internalType": "Currency",
          "name": "currency",
          "type": "address"
        },
        {
          "internalType": "uint256",
          "name": "amount",
          "type": "uint256"
        }
      ],
      "name": "collectProtocolFees",
      "outputs": [
        {
          "internalType": "uint256",
          "name": "amountCollected",
          "type": "uint256"
        }
      ],
      "stateMutability": "nonpayable",
      "type": "function"
    },
    {
      "inputs": [
        {
          "internalType": "address",
          "name": "locker",
          "type": "address"
        },
        {
          "internalType": "Currency",
          "name": "currency",
          "type": "address"
        }
      ],
      "name": "currencyDelta",
      "outputs": [
        {
          "internalType": "int256",
          "name": "currencyDelta",
          "type": "int256"
        }
      ],
      "stateMutability": "view",
      "type": "function"
    },
    {
      "inputs": [
        {
          "internalType": "address",
          "name": "hookAddress",
          "type": "address"
        },
        {
          "internalType": "Currency",
          "name": "currency",
          "type": "address"
        }
      ],
      "name": "hookFeesAccrued",
      "outputs": [
        {
          "internalType": "uint256",
          "name": "",
          "type": "uint256"
        }
      ],
      "stateMutability": "view",
      "type": "function"
    },
    {
      "inputs": [],
      "name": "owner",
      "outputs": [
        {
          "internalType": "address",
          "name": "",
          "type": "address"
        }
      ],
      "stateMutability": "view",
      "type": "function"
    },
    {
      "inputs": [
        {
          "internalType": "PoolId",
          "name": "id",
          "type": "bytes32"
        }
      ],
      "name": "pools",
      "outputs": [
        {
          "components": [
            {
              "internalType": "uint160",
              "name": "sqrtPriceX96",
              "type": "uint160"
            },
            {
              "internalType": "int24",
              "name": "tick",
              "type": "int24"
            },
            {
              "internalType": "uint24",
              "name": "protocolFees",
              "type": "uint24"
            },
            {
              "internalType": "uint24",
              "name": "hookFees",
              "type": "uint24"
            },
            {
              "internalType": "uint24",
              "name": "swapFee",
              "type": "uint24"
            }
          ],
          "internalType": "struct Pool.Slot0",
          "name": "slot0",
          "type": "tuple"
        },
        {
          "internalType": "uint256",
          "name": "feeGrowthGlobal0X128",
          "type": "uint256"
        },
        {
          "internalType": "uint256",
          "name": "feeGrowthGlobal1X128",
          "type": "uint256"
        },
        {
          "internalType": "uint128",
          "name": "liquidity",
          "type": "uint128"
        }
      ],
      "stateMutability": "view",
      "type": "function"
    },
    {
      "inputs": [],
      "name": "protocolFeeController",
      "outputs": [
        {
          "internalType": "contract IProtocolFeeController",
          "name": "",
          "type": "address"
        }
      ],
      "stateMutability": "view",
      "type": "function"
    },
    {
      "inputs": [
        {
          "internalType": "Currency",
          "name": "currency",
          "type": "address"
        }
      ],
      "name": "protocolFeesAccrued",
      "outputs": [
        {
          "internalType": "uint256",
          "name": "",
          "type": "uint256"
        }
      ],
      "stateMutability": "view",
      "type": "function"
    },
    {
      "inputs": [
        {
          "internalType": "Currency",
          "name": "currency",
          "type": "address"
        }
      ],
      "name": "reservesOf",
      "outputs": [
        {
          "internalType": "uint256",
          "name": "",
          "type": "uint256"
        }
      ],
      "stateMutability": "view",
      "type": "function"
    },
    {
      "inputs": [
        {
          "internalType": "address",
          "name": "_owner",
          "type": "address"
        }
      ],
      "name": "setOwner",
      "outputs": [],
      "stateMutability": "nonpayable",
      "type": "function"
    },
    {
      "inputs": [
        {
          "internalType": "contract IProtocolFeeController",
          "name": "controller",
          "type": "address"
        }
      ],
      "name": "setProtocolFeeController",
      "outputs": [],
      "stateMutability": "nonpayable",
      "type": "function"
    },
    {
      "inputs": [
        {
          "internalType": "address",
          "name": "to",
          "type": "address"
        },
        {
          "internalType": "Currency",
          "name": "currency",
          "type": "address"
        },
        {
          "internalType": "uint256",
          "name": "amount",
          "type": "uint256"
        }
      ],
      "name": "transfer",
      "outputs": [],
      "stateMutability": "nonpayable",
      "type": "function"
    },
    {
      "stateMutability": "payable",
      "type": "receive"
    },
    {
      "inputs": [
        {
          "internalType": "PoolId",
          "name": "id",
          "type": "bytes32"
        }
      ],
      "name": "getSlot0",
      "outputs": [
        {
          "internalType": "uint160",
          "name": "sqrtPriceX96",
          "type": "uint160"
        },
        {
          "internalType": "int24",
          "name": "tick",
          "type": "int24"
        },
        {
          "internalType": "uint24",
          "name": "protocolFees",
          "type": "uint24"
        },
        {
          "internalType": "uint24",
          "name": "hookFees",
          "type": "uint24"
        }
      ],
      "stateMutability": "view",
      "type": "function"
    },
    {
      "inputs": [
        {
          "internalType": "PoolId",
          "name": "id",
          "type": "bytes32"
        },
        {
          "internalType": "address",
          "name": "_owner",
          "type": "address"
        },
        {
          "internalType": "int24",
          "name": "tickLower",
          "type": "int24"
        },
        {
          "internalType": "int24",
          "name": "tickUpper",
          "type": "int24"
        }
      ],
      "name": "getLiquidity",
      "outputs": [
        {
          "internalType": "uint128",
          "name": "liquidity",
          "type": "uint128"
        }
      ],
      "stateMutability": "view",
      "type": "function"
    },
    {
      "inputs": [
        {
          "internalType": "PoolId",
          "name": "id",
          "type": "bytes32"
        }
      ],
      "name": "getLiquidity",
      "outputs": [
        {
          "internalType": "uint128",
          "name": "liquidity",
          "type": "uint128"
        }
      ],
      "stateMutability": "view",
      "type": "function"
    },
    {
      "inputs": [
        {
          "internalType": "PoolId",
          "name": "id",
          "type": "bytes32"
        },
        {
          "internalType": "address",
          "name": "owner",
          "type": "address"
        },
        {
          "internalType": "int24",
          "name": "tickLower",
          "type": "int24"
        },
        {
          "internalType": "int24",
          "name": "tickUpper",
          "type": "int24"
        }
      ],
      "name": "getPosition",
      "outputs": [
        {
          "components": [
            {
              "internalType": "uint128",
              "name": "liquidity",
              "type": "uint128"
            },
            {
              "internalType": "uint256",
              "name": "feeGrowthInside0LastX128",
              "type": "uint256"
            },
            {
              "internalType": "uint256",
              "name": "feeGrowthInside1LastX128",
              "type": "uint256"
            }
          ],
          "internalType": "struct Position.Info",
          "name": "position",
          "type": "tuple"
        }
      ],
      "stateMutability": "view",
      "type": "function"
    },
    {
      "inputs": [
        {
          "internalType": "uint256",
          "name": "i",
          "type": "uint256"
        }
      ],
      "name": "getLock",
      "outputs": [
        {
          "internalType": "address",
          "name": "locker",
          "type": "address"
        }
      ],
      "stateMutability": "view",
      "type": "function"
    },
    {
      "inputs": [
        {
          "components": [
            {
              "internalType": "Currency",
              "name": "currency0",
              "type": "address"
            },
            {
              "internalType": "Currency",
              "name": "currency1",
              "type": "address"
            },
            {
              "internalType": "uint24",
              "name": "fee",
              "type": "uint24"
            },
            {
              "internalType": "int24",
              "name": "tickSpacing",
              "type": "int24"
            },
            {
              "internalType": "contract IHooks",
              "name": "hooks",
              "type": "address"
            }
          ],
          "internalType": "struct PoolKey",
          "name": "key",
          "type": "tuple"
        },
        {
          "internalType": "uint160",
          "name": "sqrtPriceX96",
          "type": "uint160"
        },
        {
          "internalType": "bytes",
          "name": "hookData",
          "type": "bytes"
        }
      ],
      "name": "initialize",
      "outputs": [
        {
          "internalType": "int24",
          "name": "tick",
          "type": "int24"
        }
      ],
      "stateMutability": "nonpayable",
      "type": "function"
    },
    {
      "inputs": [
        {
          "internalType": "bytes",
          "name": "data",
          "type": "bytes"
        }
      ],
      "name": "lock",
      "outputs": [
        {
          "internalType": "bytes",
          "name": "result",
          "type": "bytes"
        }
      ],
      "stateMutability": "nonpayable",
      "type": "function"
    },
    {
      "inputs": [
        {
          "components": [
            {
              "internalType": "Currency",
              "name": "currency0",
              "type": "address"
            },
            {
              "internalType": "Currency",
              "name": "currency1",
              "type": "address"
            },
            {
              "internalType": "uint24",
              "name": "fee",
              "type": "uint24"
            },
            {
              "internalType": "int24",
              "name": "tickSpacing",
              "type": "int24"
            },
            {
              "internalType": "contract IHooks",
              "name": "hooks",
              "type": "address"
            }
          ],
          "internalType": "struct PoolKey",
          "name": "key",
          "type": "tuple"
        },
        {
          "components": [
            {
              "internalType": "int24",
              "name": "tickLower",
              "type": "int24"
            },
            {
              "internalType": "int24",
              "name": "tickUpper",
              "type": "int24"
            },
            {
              "internalType": "int256",
              "name": "liquidityDelta",
              "type": "int256"
            }
          ],
          "internalType": "struct IPoolManager.ModifyPositionParams",
          "name": "params",
          "type": "tuple"
        },
        {
          "internalType": "bytes",
          "name": "hookData",
          "type": "bytes"
        }
      ],
      "name": "modifyPosition",
      "outputs": [
        {
          "internalType": "BalanceDelta",
          "name": "delta",
          "type": "int256"
        }
      ],
      "stateMutability": "nonpayable",
      "type": "function"
    },
    {
      "inputs": [
        {
          "components": [
            {
              "internalType": "Currency",
              "name": "currency0",
              "type": "address"
            },
            {
              "internalType": "Currency",
              "name": "currency1",
              "type": "address"
            },
            {
              "internalType": "uint24",
              "name": "fee",
              "type": "uint24"
            },
            {
              "internalType": "int24",
              "name": "tickSpacing",
              "type": "int24"
            },
            {
              "internalType": "contract IHooks",
              "name": "hooks",
              "type": "address"
            }
          ],
          "internalType": "struct PoolKey",
          "name": "key",
          "type": "tuple"
        },
        {
          "components": [
            {
              "internalType": "bool",
              "name": "zeroForOne",
              "type": "bool"
            },
            {
              "internalType": "int256",
              "name": "amountSpecified",
              "type": "int256"
            },
            {
              "internalType": "uint160",
              "name": "sqrtPriceLimitX96",
              "type": "uint160"
            }
          ],
          "internalType": "struct IPoolManager.SwapParams",
          "name": "params",
          "type": "tuple"
        },
        {
          "internalType": "bytes",
          "name": "hookData",
          "type": "bytes"
        }
      ],
      "name": "swap",
      "outputs": [
        {
          "internalType": "BalanceDelta",
          "name": "delta",
          "type": "int256"
        }
      ],
      "stateMutability": "nonpayable",
      "type": "function"
    },
    {
      "inputs": [
        {
          "components": [
            {
              "internalType": "Currency",
              "name": "currency0",
              "type": "address"
            },
            {
              "internalType": "Currency",
              "name": "currency1",
              "type": "address"
            },
            {
              "internalType": "uint24",
              "name": "fee",
              "type": "uint24"
            },
            {
              "internalType": "int24",
              "name": "tickSpacing",
              "type": "int24"
            },
            {
              "internalType": "contract IHooks",
              "name": "hooks",
              "type": "address"
            }
          ],
          "internalType": "struct PoolKey",
          "name": "key",
          "type": "tuple"
        },
        {
          "internalType": "uint256",
          "name": "amount0",
          "type": "uint256"
        },
        {
          "internalType": "uint256",
          "name": "amount1",
          "type": "uint256"
        },
        {
          "internalType": "bytes",
          "name": "hookData",
          "type": "bytes"
        }
      ],
      "name": "donate",
      "outputs": [
        {
          "internalType": "BalanceDelta",
          "name": "delta",
          "type": "int256"
        }
      ],
      "stateMutability": "nonpayable",
      "type": "function"
    },
    {
      "inputs": [
        {
          "internalType": "Currency",
          "name": "currency",
          "type": "address"
        },
        {
          "internalType": "address",
          "name": "to",
          "type": "address"
        },
        {
          "internalType": "uint256",
          "name": "amount",
          "type": "uint256"
        }
      ],
      "name": "take",
      "outputs": [],
      "stateMutability": "nonpayable",
      "type": "function"
    },
    {
      "inputs": [
        {
          "internalType": "Currency",
          "name": "currency",
          "type": "address"
        }
      ],
      "name": "settle",
      "outputs": [
        {
          "internalType": "uint256",
          "name": "paid",
          "type": "uint256"
        }
      ],
      "stateMutability": "payable",
      "type": "function"
    },
    {
      "inputs": [
        {
          "internalType": "Currency",
          "name": "currency",
          "type": "address"
        },
        {
          "internalType": "address",
          "name": "to",
          "type": "address"
        },
        {
          "internalType": "uint256",
          "name": "amount",
          "type": "uint256"
        }
      ],
      "name": "mint",
      "outputs": [],
      "stateMutability": "nonpayable",
      "type": "function"
    },
    {
      "inputs": [
        {
          "internalType": "Currency",
          "name": "currency",
          "type": "address"
        },
        {
          "internalType": "uint256",
          "name": "amount",
          "type": "uint256"
        }
      ],
      "name": "burn",
      "outputs": [],
      "stateMutability": "nonpayable",
      "type": "function"
    },
    {
      "inputs": [
        {
          "components": [
            {
              "internalType": "Currency",
              "name": "currency0",
              "type": "address"
            },
            {
              "internalType": "Currency",
              "name": "currency1",
              "type": "address"
            },
            {
              "internalType": "uint24",
              "name": "fee",
              "type": "uint24"
            },
            {
              "internalType": "int24",
              "name": "tickSpacing",
              "type": "int24"
            },
            {
              "internalType": "contract IHooks",
              "name": "hooks",
              "type": "address"
            }
          ],
          "internalType": "struct PoolKey",
          "name": "key",
          "type": "tuple"
        }
      ],
      "name": "setProtocolFees",
      "outputs": [],
      "stateMutability": "nonpayable",
      "type": "function"
    },
    {
      "inputs": [
        {
          "components": [
            {
              "internalType": "Currency",
              "name": "currency0",
              "type": "address"
            },
            {
              "internalType": "Currency",
              "name": "currency1",
              "type": "address"
            },
            {
              "internalType": "uint24",
              "name": "fee",
              "type": "uint24"
            },
            {
              "internalType": "int24",
              "name": "tickSpacing",
              "type": "int24"
            },
            {
              "internalType": "contract IHooks",
              "name": "hooks",
              "type": "address"
            }
          ],
          "internalType": "struct PoolKey",
          "name": "key",
          "type": "tuple"
        }
      ],
      "name": "setHookFees",
      "outputs": [],
      "stateMutability": "nonpayable",
      "type": "function"
    },
    {
      "inputs": [
        {
          "components": [
            {
              "internalType": "Currency",
              "name": "currency0",
              "type": "address"
            },
            {
              "internalType": "Currency",
              "name": "currency1",
              "type": "address"
            },
            {
              "internalType": "uint24",
              "name": "fee",
              "type": "uint24"
            },
            {
              "internalType": "int24",
              "name": "tickSpacing",
              "type": "int24"
            },
            {
              "internalType": "contract IHooks",
              "name": "hooks",
              "type": "address"
            }
          ],
          "internalType": "struct PoolKey",
          "name": "key",
          "type": "tuple"
        }
      ],
      "name": "updateDynamicSwapFee",
      "outputs": [],
      "stateMutability": "nonpayable",
      "type": "function"
    },
    {
      "inputs": [
        {
          "internalType": "bytes32",
          "name": "slot",
          "type": "bytes32"
        }
      ],
      "name": "extsload",
      "outputs": [
        {
          "internalType": "bytes32",
          "name": "value",
          "type": "bytes32"
        }
      ],
      "stateMutability": "view",
      "type": "function"
    },
    {
      "inputs": [
        {
          "internalType": "bytes32",
          "name": "startSlot",
          "type": "bytes32"
        },
        {
          "internalType": "uint256",
          "name": "nSlots",
          "type": "uint256"
        }
      ],
      "name": "extsload",
      "outputs": [
        {
          "internalType": "bytes",
          "name": "",
          "type": "bytes"
        }
      ],
      "stateMutability": "view",
      "type": "function"
    },
    {
      "inputs": [],
      "name": "getLockLength",
      "outputs": [
        {
          "internalType": "uint256",
          "name": "_length",
          "type": "uint256"
        }
      ],
      "stateMutability": "view",
      "type": "function"
    },
    {
      "inputs": [],
      "name": "getLockNonzeroDeltaCount",
      "outputs": [
        {
          "internalType": "uint256",
          "name": "_nonzeroDeltaCount",
          "type": "uint256"
        }
      ],
      "stateMutability": "view",
      "type": "function"
    }
  ],
  "bytecode": "0x60c034609d57601f6159f538819003918201601f19168301916001600160401b0383118484101760a157808492602094604052833981010312609d57515f80546001600160a01b03191633908117825560405192917fb532073b38c83145e3e5135377a08bf9aab55bc0fd7c1179cd4fb995d2a5159c8180a36080523060a05261593f90816100b6823960805181612a91015260a051816127040152f35b5f80fd5b634e487b7160e01b5f52604160045260245ffdfe6080604052600436101561001a575b3615610018575f80fd5b005b5f3560e01c8063048d9c701461027957806307eff0dd146102745780630b0d9c091461026f57806313af40351461026a5780631e2eaeaf14610265578063234266d714610260578063282076cc1461025b5780632d7713891461025657806333aa955b1461025157806335fd631a1461024c57806346063d051461024757806348a767031461024257806360460f061461023d57806361ae449a1461023857806361f5c65b14610233578063695c5bf51461022e5780636a256b291461022957806381548319146102245780638161b8741461021f57806384e41c5e1461021a5780638da5cb5b1461021557806393c85a211461021057806397e8cd4e1461020b5780639dc29fac14610206578063a54b283114610201578063ab3d8544146101fc578063af440f82146101f7578063b4c41939146101f2578063b5217bb4146101ed578063beabacc8146101e8578063c6c3bbe6146101e3578063c815641c146101de578063d68f4dd1146101d9578063effd18c0146101d4578063f02de3b2146101cf578063f3cd914c146101ca578063f7888aec146101c55763fa6793d50361000e576118bf565b611885565b6117fb565b6117d3565b61173c565b61170c565b6116a6565b6115e2565b611505565b61146b565b6113e3565b611358565b61133b565b6112f7565b6111e1565b6111a6565b61116b565b611116565b6110fb565b611062565b610f26565b610e81565b610a74565b610a4b565b6109c9565b6109ad565b610902565b6108d9565b610852565b6107ed565b610773565b6106c9565b610630565b6104ba565b61043a565b6103a5565b61035e565b6102ee565b6001600160a01b0381160361028f57565b5f80fd5b60a435908160020b820361028f57565b60c435908160020b820361028f57565b608090600319011261028f57600435906024356102cf8161027e565b906044358060020b810361028f57906064358060020b810361028f5790565b3461028f576060610339610334610304366102b3565b925f60408094939451610316816104ed565b82815282602082015201525f526007602052600660405f20016126b2565b6118f5565b60408051916001600160801b0381511683526020810151602084015201516040820152f35b3461028f575f36600319011261028f57602060405160018152f35b606090600319011261028f576004356103918161027e565b9060243561039e8161027e565b9060443590565b3461028f576103b336610379565b906103bc612702565b5f5160206158ca5f395f51905f52516001600160a01b03906103dd906121fc565b1680330361042857506103f86103f283612743565b84612781565b60018060a01b0383165f52600660205260405f20928354838103908111610423576100189455612841565b611926565b6313d2c13360e21b5f5260045260245ffd5b3461028f57602036600319011261028f576004356104578161027e565b5f546001600160a01b03811691338390036104ab576001600160a01b03169182907fb532073b38c83145e3e5135377a08bf9aab55bc0fd7c1179cd4fb995d2a5159c5f80a36001600160a01b031916175f55005b6348f5c3ed60e01b5f5260045ffd5b3461028f57602036600319011261028f57602060043554604051908152f35b634e487b7160e01b5f52604160045260245ffd5b606081019081106001600160401b0382111761050857604052565b6104d9565b60a081019081106001600160401b0382111761050857604052565b90601f801991011681019081106001600160401b0382111761050857604052565b6040519061055860a083610528565b565b60405190610558608083610528565b60405190610558606083610528565b6040519061055860c083610528565b62ffffff81160361028f57565b60a090600319011261028f57604051906105ad8261050d565b816004356105ba8161027e565b81526024356105c88161027e565b60208201526044356105d981610587565b60408201526064358060020b810361028f5760608201526080608435916105ff8361027e565b0152565b9181601f8401121561028f578235916001600160401b03831161028f576020838186019501011161028f57565b3461028f5761010036600319011261028f5761064b36610594565b60a4359060c43560e4356001600160401b03811161028f57610671903690600401610603565b93909261067c612702565b5f5160206158ca5f395f51905f52516001600160a01b039061069d906121fc565b16803303610428576106c56106b58787878787611a10565b6040519081529081906020820190565b0390f35b3461028f5760a036600319011261028f576106e336610594565b6106f56106ef82612a5a565b916128d2565b5f81815260076020526040902080549192916001600160a01b03161561076457805462ffffff60b81b191660b883901b62ffffff60b81b161790557fe9c42593e71f84403b84352cd168d693e2c9fcd1fdbcc3feb21d92b43e6696f9906020905b62ffffff60405191168152a2005b63486aa30760e01b5f5260045ffd5b3461028f57602036600319011261028f576004356107908161027e565b5f546001600160a01b031633036104ab57600380546001600160a01b0319166001600160a01b0390921691821790556040519081527fb4bd8ef53df690b9943d3318996006dbb82a25f54719d8c8035b516a2a5b8acc90602090a1005b3461028f5760206001600160801b0361081e610808366102b3565b925f9291925260078652600660405f20016126b2565b5416604051908152f35b602060409281835280519182918282860152018484015e5f828201840152601f01601f1916010190565b3461028f57604036600319011261028f57600435602435600581901b916001600160fb1b03821682036104235761088883611bd1565b926108966040519485610528565b8084526108a5601f1991611bd1565b013660208501375f5b8281106108c357604051806106c58682610828565b8060019183015482820160051b860152016108ae565b3461028f575f36600319011261028f5760205f5160206158ea5f395f51905f5251604051908152f35b3461028f5760a036600319011261028f5761091c36610594565b604081015162800000161561099e576109376106ef82612b96565b5f81815260076020526040902080549192916001600160a01b0316156107645780546001600160e81b031660e883901b6001600160e81b0319161790557fdda45bdfb4c4d89a045919c537cb189db3745c4b1977d65f1d7cf60b585e7b7290602090610756565b636807896960e11b5f5260045ffd5b3461028f575f36600319011261028f576020604051617fff8152f35b3461028f5761012036600319011261028f576109e436610594565b60603660a319011261028f576040516109fc816104ed565b610a04610293565b8152610a0e6102a3565b602082015260e435604082015261010435906001600160401b03821161028f576106c592610a436106b5933690600401610603565b929091611bec565b3461028f575f36600319011261028f5760205f5160206158ca5f395f51905f5251604051908152f35b3461028f5760e036600319011261028f57610a8e36610594565b60a435610a9a8161027e565b60c4356001600160401b03811161028f57610ab9903690600401610603565b5f5160206158ca5f395f51905f52519193916001600160a01b0390610add906121fc565b1680330361042857506040820193610b0a610afb865162ffffff1690565b620fffff620f42409116101590565b610e72576060830191617fff610b21845160020b90565b60020b13610e63576001610b36845160020b90565b60020b12610e545783516020850180519095916001600160a01b0391821691161015610e45576080810180519092906001600160a01b0316610b8b610b87610b818b5162ffffff1690565b8361321b565b1590565b610e295750825181906001600160a01b03166001609f1b8116610da7575b5050610bb4826128d2565b93610bc2895162ffffff1690565b62800000811615610d995750610c05610bda84612b96565b610bec875f52600760205260405f2090565b610bf586612a5a565b8b610bff886132f3565b926133d7565b84519098906001600160a01b03166001609e1b8116610cea575b50505050906106c596610cd2610c96610c88610c80610c76610c687f3fd553db44f207b1f41348cfc4d251860814af9eadc470e8e7895e4d120511f4985160018060a01b031690565b9a516001600160a01b031690565b945162ffffff1690565b975160020b90565b93516001600160a01b031690565b6040805162ffffff909816885260029490940b60208801526001600160a01b039081169387019390935290821695909116939081906060820190565b0390a460405160029190910b81529081906020820190565b93949360209291908a905f906001600160a01b031692610d226040519788968795869463a910f80f60e01b86528d336004880161211d565b03925af1908115610d94575f91610d65575b506001600160e01b0319166356ef07f160e01b01610d5657905f808080610c1f565b631e048e1d60e01b5f5260045ffd5b610d87915060203d602011610d8d575b610d7f8183610528565b810190611947565b5f610d34565b503d610d75565b611a05565b610c0590620fffff16610bda565b610dd9916020916001600160a01b0316875f8c604051968795869485936301a206c160e51b85528c33600487016120dd565b03925af1908115610d94575f91610e0a575b506001600160e01b03191663065df93f60e51b01610d5657805f610ba9565b610e23915060203d602011610d8d57610d7f8183610528565b5f610deb565b630732d7b560e51b5f526001600160a01b031660045260245b5ffd5b63eaa6c6eb60e01b5f5260045ffd5b630b7f3b4b60e11b5f5260045ffd5b635815aee160e11b5f5260045ffd5b637e2df70960e11b5f5260045ffd5b602036600319011261028f57600435610e998161027e565b610ea1612702565b5f5160206158ca5f395f51905f52516001600160a01b0390610ec2906121fc565b1680330361042857506001600160a01b0381165f8181526006602052604090205490610eed836134bf565b5f91825260066020526040909120819055908103908111610423576106b56106c592610f20610f1b84612743565b612165565b90612781565b3461028f57602036600319011261028f576004356001600160401b03811161028f575f610f5a610fb0923690600401610603565b5f5160206158ca5f395f51905f528051337f722b431450ce53c44434ec138439e45a0639fe031b803ee019b776fae5cfa2b08201526001019052906040516355b148ff60e11b81529384928392600484016121de565b038183335af1908115610d94575f91611040575b505f5160206158ca5f395f51905f5251600103611022575f5160206158ea5f395f51905f5251611013576106c5906110075f5f5160206158ca5f395f51905f5252565b60405191829182610828565b635212cba160e01b5f5260045ffd5b5f5160206158ca5f395f51905f5280515f190190526106c590611007565b61105c91503d805f833e6110548183610528565b81019061217c565b5f610fc4565b3461028f5761107036610379565b5f549192916001600160a01b0316331415806110e6575b6104ab576106c5926106b591806110de57506001600160a01b0381165f908152600160205260409020549283915b6001600160a01b0381165f9081526001602052604090206110d784825461193a565b9055612841565b9283916110b5565b506003546001600160a01b0316331415611087565b3461028f575f36600319011261028f57602060405160048152f35b3461028f575f36600319011261028f575f546040516001600160a01b039091168152602090f35b6001600160a01b03165f90815260016020526040902090565b9060018060a01b03165f5260205260405f2090565b3461028f57602036600319011261028f576004356111888161027e565b60018060a01b03165f526006602052602060405f2054604051908152f35b3461028f57602036600319011261028f576004356111c38161027e565b60018060a01b03165f526001602052602060405f2054604051908152f35b3461028f57604036600319011261028f576004356111fe8161027e565b6024359061120a612702565b5f5160206158ca5f395f51905f52516001600160a01b039061122b906121fc565b168033036104285750611249611243610f1b84612743565b82612781565b6001600160a01b03165f81815260046020908152604080832033845290915290209091905481116112c0575f82815260046020908152604080832033845290915290208181540390556040519081527fbac40739b0d4ca32fa2d82fc91630465ba3eddd1598da6fca393b26fb63b945360203392a3005b631e9acf1760e31b5f5260045ffd5b604090600319011261028f576004356112e78161027e565b906024356112f48161027e565b90565b3461028f57602061133261130a366112cf565b6001600160a01b039182165f9081526005855260408082209290931681526020919091522090565b54604051908152f35b3461028f575f36600319011261028f576020604051620f42408152f35b3461028f5760a036600319011261028f5761137236610594565b61137e6106ef826132f3565b5f81815260076020526040902080549192916001600160a01b03161561076457805462ffffff60d01b191660d083901b62ffffff60d01b161790557fc939c5b4f4e3398eb275de825cd913cca3ade8d1f42daa0ffe1d88accd40715890602090610756565b3461028f5760206113326113f6366112cf565b6001600160a01b039182165f9081526002855260408082209290931681526020919091522090565b9060405161142b8161050d565b91546001600160a01b038116835260a081901c60020b602084015262ffffff60b882901c8116604085015260d082901c16606084015260e81c6080830152565b3461028f57602036600319011261028f576004355f52600760205261010060405f206114968161141e565b906001810154906001600160801b0360036002830154920154169162ffffff60806040519560018060a01b038151168752602081015160020b6020880152826040820151166040880152826060820151166060880152015116608085015260a084015260c083015260e0820152f35b3461028f5761151336610379565b6001600160a01b038316913083146115d3576001600160a01b0381165f81815260046020908152604080832033845290915290209094905483116112c05761115661159692611576336111568360018060a01b03165f52600460205260405f2090565b805486900390556001600160a01b03165f90815260046020526040902090565b6115a18282546121ef565b905560405190815233907fd1398bee19313d6bf672ccb116e51f4a1a947e91c757907f51fbb5b5e56c698f90602090a4005b63e6c4247b60e01b5f5260045ffd5b3461028f576115f036610379565b90916115fa612702565b5f5160206158ca5f395f51905f52516001600160a01b039061161b906121fc565b16803303610428575061163061124383612743565b60018060a01b031691825f52600460205261165e8160405f209060018060a01b03165f5260205260405f2090565b805491838301809311610423579190556040519182526001600160a01b0316907fab8530f87dc9b59234c4623bf917212bb2536d647574c8e7e5da92c2ede0c9f890602090a3005b3461028f57602036600319011261028f576004355f52600760205260806116cf60405f2061141e565b60018060a01b0381511690602081015160020b9062ffffff6060816040840151169201511691604051938452602084015260408301526060820152f35b3461028f57602036600319011261028f57602061172a6004356121fc565b6040516001600160a01b039091168152f35b3461028f5761174a36610379565b909190806117cd5750335f9081526002602090815260408083206001600160a01b0386168452909152902054905b6001600160a01b0381166117c85750335b335f9081526002602090815260408083206001600160a01b03871684529091529020805491838303928311610423576106c5946106b593859355612841565b611789565b90611778565b3461028f575f36600319011261028f576003546040516001600160a01b039091168152602090f35b3461028f5761012036600319011261028f5761181636610594565b60603660a319011261028f5760405161182e816104ed565b60a435801515810361028f57815260c435602082015260e4356118508161027e565b604082015261010435906001600160401b03821161028f576106c59261187d6106b5933690600401610603565b929091612218565b3461028f576020611332611898366112cf565b60018060a01b03165f526004835260405f209060018060a01b03165f5260205260405f2090565b3461028f57602036600319011261028f576004355f52600760205260206001600160801b03600360405f20015416604051908152f35b90604051611902816104ed565b6040600282946001600160801b038154168452600181015460208501520154910152565b634e487b7160e01b5f52601160045260245ffd5b9190820391821161042357565b9081602091031261028f57516001600160e01b03198116810361028f5790565b80516001600160a01b03908116835260208083015182169084015260408083015162ffffff169084015260608083015160020b9084015260809182015116910152565b908060209392818452848401375f828201840152601f01601f1916010190565b91926119ed610120946112f498969360018060a01b031685526020850190611967565b60c083015260e08201528161010082015201916119aa565b6040513d5f823e3d90fd5b91909493611a1d836128d2565b95611a27876128f8565b8281608086019887611a3f8b5160018060a01b031690565b600160991b8116611b1d575b505091611a6c91611a67611a84945f52600760205260405f2090565b612960565b97611a778987612a13565b516001600160a01b031690565b600160981b8116611a98575b505050505050565b6020945f91611ac9906001600160a01b0316946040519889978896879563e1b4af6960e01b875233600488016119ca565b03925af1908115610d94575f91611afe575b506001600160e01b031916631e4b509760e01b01610d56575f8080808080611a90565b611b17915060203d602011610d8d57610d7f8183610528565b5f611adb565b91939092506020916001600160a01b0316855f8a611b538a60405198899788968795635b54587d60e11b875233600488016119ca565b03925af1908115610d94575f91611bb2575b508851611b7c9082906001600160a01b0316612916565b15611b8e57505f199750505050505050565b6001600160e01b0319166324aba78360e11b01610d56578390829087611a67611a4b565b611bcb915060203d602011610d8d57610d7f8183610528565b5f611b65565b6001600160401b03811161050857601f01601f191660200190565b93929190611bf8612702565b5f5160206158ca5f395f51905f52516001600160a01b0390611c19906121fc565b1694853303611c2d576112f4949550611d2d565b856313d2c13360e21b5f5260045260245ffd5b6001600160a01b0390911681526112f4949261014092611c8d9190611c69906020850190611967565b8051600290810b60c08501526020820151900b60e084015260400151610100830152565b8161012082015201916119aa565b60405190608082018281106001600160401b03821117610508576040525f6060838281528260208201528260408201520152565b9161016093611cf5611d19926112f499979460018060a01b031686526020860190611967565b8051600290810b60c08601526020820151900b60e085015260400151610100840152565b6101208201528161014082015201916119aa565b91939290611d3a836128d2565b91611d44836128f8565b6080840180519096906001600160a01b03166001609d1b8116612035575b50611e4e96611d6f611c9b565b50611d82855f52600760205260405f2090565b92611d8e855160020b90565b96611e066020870198611da28a5160020b90565b96611e0160408a0198611df7611db88b51612c1b565b611ded611dc960608a015160020b90565b93611de3611dd5610549565b3381529860020b60208a0152565b60020b6040880152565b600f0b6060860152565b60020b6080840152565b612c8f565b9a90936060859c611e178786612a13565b805180612015575b50602081015180611ff2575b50604081015180611fba575b50015180611f4e575b50516001600160a01b031690565b6001609c1b8116611ec6575b5050505050611e96611e8e7fc54f65a0367b92850ef8e90f7e302da8b0a137ab343132a9b8d0e63e684bf53c935160020b90565b945160020b90565b905190611ec1604051928392339784604091949392606082019560020b825260020b60208201520152565b0390a3565b6040516330b7cdef60e01b81529460209486946001600160a01b039093169385935f938593611efb938d903360048801611ccf565b03925af1908115610d94575f91611f2f575b506001600160e01b03191663cf48321160e01b01610d56575f80808080611e5a565b611f48915060203d602011610d8d57610d7f8183610528565b5f611f0d565b8151611fae90611f8b90611f72906001600160a01b03165b6001600160a01b031690565b6001600160a01b03165f90815260026020526040902090565b60208601516001600160a01b03165b60018060a01b03165f5260205260405f2090565b9081540190555f611e40565b8351611fe690611fd690611f72906001600160a01b0316611f66565b87516001600160a01b0316611f9a565b9081540190555f611e37565b6020860151612009906001600160a01b031661113d565b9081540190555f611e2b565b8551612029906001600160a01b031661113d565b9081540190555f611e1f565b60405163fe9a6f4560e01b81529060209082906001600160a01b0316815f8161206589898c8f3360048701611c40565b03925af1908115610d94575f916120be575b50875161208e9082906001600160a01b0316612916565b1561209f57505f1996505050505050565b6001600160e01b03191663016590bb60e01b01610d5657611e4e611d62565b6120d7915060203d602011610d8d57610d7f8183610528565b5f612077565b6001600160a01b0390911681526112f4949261010092612101906020840190611967565b6001600160a01b031660c082015260e0810182905201916119aa565b9192612140610120946112f498969360018060a01b031685526020850190611967565b6001600160a01b031660c083015260020b60e0820152610100810182905201916119aa565b600f0b60016001607f1b03198114610423575f0390565b60208183031261028f578051906001600160401b03821161028f570181601f8201121561028f578051906121af82611bd1565b926121bd6040519485610528565b8284526020838301011161028f57815f9260208093018386015e8301015290565b9160206112f49381815201916119aa565b9190820180921161042357565b5f5160206158ca5f395f51905f52908101809111610423575190565b93929190612224612702565b5f5160206158ca5f395f51905f52516001600160a01b0390612245906121fc565b1694853303611c2d576112f4949550612338565b6001600160a01b0390911681526112f4949261014092611c8d9190612282906020850190611967565b8051151560c0840152602081015160e0840152604001516001600160a01b0316610100830152565b6040519060c082018281106001600160401b03821117610508576040525f60a0838281528260208201528260408201528260608201528260808201520152565b9161016093612310611d19926112f499979460018060a01b031686526020860190611967565b8051151560c0850152602081015160e0850152604001516001600160a01b0316610100840152565b9392919093612346816128d2565b91612350836128f8565b60808201805190919085906001600160a01b03166001609b1b8116612609575b50506124299061237e6122aa565b506123fa612394865f52600760205260405f2090565b606086015160020b906123f56123aa8c51151590565b60208d015160408e01516123e0906001600160a01b0316926123d76123cd61055a565b97889060020b9052565b15156020870152565b60408501526001600160a01b03166060840152565b6135c2565b96849a939c92859792979d61240f878c612a13565b806125c1575b50806125715750516001600160a01b031690565b6001609a1b81166124e7575b5050505060408301517f40e9cecb9f5f1f1c5b9c97dec2917b7ee92e57ba5563708daca94dd84ad7112f9450611ec191506001600160a01b031691612492606061248960a08701516001600160801b031690565b95015160020b90565b60405194859433998060801c87949096959160a09462ffffff946001600160801b039260c089019a600f0b8952600f0b6020890152600180881b0316604088015216606086015260020b608085015216910152565b60405163b47b2fb160e01b8152959760209587956001600160a01b039093169486945f94869461251d94929033600488016122ea565b03925af1908115610d94575f91612552575b506001600160e01b031916634b84d04f60e01b01610d5657815f85818080612435565b61256b915060203d602011610d8d57610d7f8183610528565b5f61252f565b8151611fae9061258d90611f72906001600160a01b0316611f66565b8551156125a4578b516001600160a01b0316611f9a565b60208c8101516001600160a01b03165f9081529190526040902090565b8451156125e8578a516125dc906001600160a01b031661113d565b9081540190555f612415565b60208b8101516001600160a01b03165f9081526001909152604090206125dc565b61263b916020916001600160a01b0316845f8c604051968795869485936315d7892d60e21b85528d3360048701612259565b03925af1908115610d94575f91612693575b5082516126649082906001600160a01b0316612916565b1561267557505f1996505050505050565b6001600160e01b031916632a2876d360e21b01610d5657845f612370565b6126ac915060203d602011610d8d57610d7f8183610528565b5f61264d565b929190916040519160208301936bffffffffffffffffffffffff199060601b16845260e81b603483015260e81b6037820152601a81526126f3603a82610528565b5190205f5260205260405f2090565b7f00000000000000000000000000000000000000000000000000000000000000006001600160a01b0316300361273457565b6306c4a1c760e11b5f5260045ffd5b60016001607f1b03811161275757600f0b90565b6393dafdf160e01b5f5260045ffd5b9190915f838201938412911290801582169115161761042357565b90600f0b90811561283d5761281c906127a75f5160206158ca5f395f51905f52516121fc565b6001600160a01b038181165f9081526005602090815260408083209386168352929052206127d790549485612766565b938461281f57505f5160206158ea5f395f51905f5280515f190190525b60018060a01b03165f52600560205260405f209060018060a01b03165f5260205260405f2090565b55565b6127f4575f5160206158ea5f395f51905f52600181510190526127f4565b5050565b9091906001600160a01b03811661287757505f80808093612862955af11590565b61286857565b633d2cec6f60e21b5f5260045ffd5b60445f8080936020956040519763a9059cbb60e01b84526004526024525af13d15601f3d1160015f5114161716905f606052604052156128b357565b633c9fd93960e21b5f5260045ffd5b60a0810192916105589190611967565b6040516128e3602082018093611967565b60a081526128f260c082610528565b51902090565b5f908152600760205260409020546001600160a01b03161561076457565b600160971b1615159081612928575090565b9050604051602081016304e6f4f760e41b81526004825261294a602483610528565b905190206001600160e01b031991821691161490565b9092916003820180546001600160801b03811615612a045761298186612743565b61298a84612743565b6001600160801b03169060801b1795806129e1575b5050816129ab57505050565b6002916129d16129c56129d793546001600160801b031690565b6001600160801b031690565b90613eb2565b9101908154019055565b6129f3916001600160801b03166129d1565b600184019081540190555f8061299f565b63a74f97ab60e01b5f5260045ffd5b8051610558929190612a3390608084901c906001600160a01b0316612781565b602001516001600160a01b0316612781565b9081602091031261028f57516112f481610587565b6003545f92918391829190612a77906001600160a01b0316611f66565b906001600160a01b038216612a8d575b50505050565b5a907f0000000000000000000000000000000000000000000000000000000000000000809210612b6757602091612ada9160405194858094819363d6ec458560e01b8352600483016128c2565b0392fa5f9181612b36575b50612b07575b5090612af9612afe92614146565b614146565b5f808080612a87565b93505050612afe612b27612b2084610fff90600c1c1690565b61ffff1690565b610fff84169150612af9612aeb565b612b5991925060203d602011612b60575b612b518183610528565b810190612a45565b905f612ae5565b503d612b47565b630f724b8160e11b5f5260045ffd5b6001600160a01b03909116815260c0810192916105589160200190611967565b6080810151612bd59291602091612bb990611f669081906001600160a01b031681565b6040518080968194630a43ce8960e01b83523360048401612b76565b03915afa918215610d94575f92612bfa575b50620f424062ffffff83161015610e7257565b612c1491925060203d602011612b6057612b518183610528565b905f612be7565b9081600f0b91820361275757565b906001600160801b03809116911601906001600160801b03821161042357565b906001600160801b03809116911603906001600160801b03821161042357565b90600f0b90600f0b019060016001607f1b0319821260016001607f1b0383131761042357565b905f90612c9a611c9b565b926020820190612cab825160020b90565b92612cc56040820194612cbf865160020b90565b906141a3565b612ccd6122aa565b926060820191612cde8351600f0b90565b80600f0b6130a0575b50612d5790612d2d612d41612d0c612d00865160020b90565b8a5160020b9089614473565b60a08a0190815260808a0191825293519093926001600160a01b0390911690565b855160020b8a5160020b9160068a016126b2565b91612d4d8651600f0b90565b9051915192614531565b9590945f612d6f612d698651600f0b90565b600f0b90565b12613047575b50612d84612d698451600f0b90565b612e73575b5050612d9a612d695f9251600f0b90565b1280612e4c575b612ddb575b50612dd89291612dc1612dbb612dd293612743565b91612743565b6001600160801b03169060801b1790565b90614c45565b91565b83945091612dc1612dbb612e41612df9612dd897612dd29697614ad3565b97612e3b612e1d612e0d60408c0151612743565b612e178c51612743565b90612c69565b612dc18b612e176020612e336060840151612743565b920151612743565b90614a5b565b955050509190612da6565b5061ffff612e6b612e64835462ffffff9060d01c1690565b610fff1690565b161515612da1565b612d9a918397612d69925f958754612e8e8160a01c60020b90565b855160020b90819060020b9081128a14612ef157505050612edd612e3b92612ee292612ed7612ecf612eca611e8e612eca612ee89b5160020b90565b614683565b9151600f0b90565b91614a76565b612c1b565b60801b90565b965b9250612d89565b612f08612f02869498965160020b90565b60020b90565b1389146130075750612edd612e3b9392612dc192612f57612f4f612eca610c80612edd612f43612eca610c80612f5d9f60018060a01b031690565b8751600f0b9087614a76565b9251600f0b90565b91614a00565b96612f698151600f0b90565b84612f7482600f0b90565b128514612fd15750612fcc612fad612f9660038801546001600160801b031690565b612fa76129c5610f1b8651600f0b90565b90612c49565b60038701906001600160801b03166001600160801b0319825416179055565b612eea565b613002612fcc91612ffc612fef60038a01546001600160801b031690565b916001600160801b031690565b90612c29565b612fad565b613041955061303c94506129c59350612edd9250612eca61302a61303292614683565b925160020b90565b8c51600f0b612f57565b614a44565b96612eea565b6040816130576130639351151590565b613087575b0151151590565b61306e575b5f612d75565b61308261307c825160020b90565b8561465b565b613068565b61309b613095865160020b90565b8861465b565b61305c565b6130b86130d0916130b2855160020b90565b8761422a565b6001600160801b031660208801908152919015158752565b6130ea6130de885160020b90565b8551600f0b90876142f9565b6001600160801b03166060880190815290151560408801908152915f613114612d698851600f0b90565b1361318e575b505090613139612d579261312e8851151590565b613169575b51151590565b613144575b90612ce7565b613164613152885160020b90565b608083015160020b9060058801614400565b61313e565b613189613177865160020b90565b608085015160020b9060058a01614400565b613133565b906001600160801b0391826131c06131b26131ad608089015160020b90565b6143ba565b92516001600160801b031690565b9116928391161161320d57516131de906001600160801b03166129c5565b116131ea575f8061311a565b610e426131f8885160020b90565b63b8e3c38560e01b5f5260020b600452602490565b610e426131f8865160020b90565b600160971b81161515806132e5575b806132d7575b806132c9575b6132c3576001600160a01b031680613279575062800000811615908161326b575b81613260575090565b622000001615905090565b624000008116159150613257565b600160981b11801591906132b4575b81156132a5575b8115613299575090565b62200000161515905090565b6240000081161515915061328f565b62800000811615159150613288565b50505f90565b50600160991b811615613236565b506001609b1b811615613230565b506001609d1b81161561322a565b60808101515f92919061330e906001600160a01b0316611f66565b6001600160a01b038116613320575050565b613332906001600160a01b0316611f66565b9060206040518093630b5c99cb60e31b8252818061335386600483016128c2565b03915afa5f92816133b6575b50613368575050565b604001519192509062ffffff16624000008116156133a85762fff00090622000001615155b1561339f5761ffff610fff5b16171690565b61ffff5f613399565b5f906220000016151561338d565b6133d091935060203d602011612b6057612b518183610528565b915f61335f565b91949392909260018060a01b038354166134a1578362ffffff608092818095816134036105589a614c60565b9b604051966134118861050d565b6001600160a01b03908116885260028e900b6020890190815292909116604088019081529390921660608701908152949093169585018690529351915190519251861660d01b62ffffff60d01b1692861660b81b62ffffff60b81b169190931660a09390931b62ffffff60a01b169290921791909117176001600160e81b03199290911660e81b91909116179055565b637983c05160e01b5f5260045ffd5b9081602091031261028f575190565b6001600160a01b0381166134d257504790565b6040516370a0823160e01b815230600482015290602090829060249082906001600160a01b03165afa908115610d94575f9161350c575090565b6112f4915060203d60201161352e575b6135268183610528565b8101906134b0565b503d61351c565b634e487b7160e01b5f52601260045260245ffd5b6040519060e082018281106001600160401b03821117610508576040525f60c0838281528260208201528260408201528260608201528260808201528260a08201520152565b81810392915f13801582851316918412161761042357565b80156135b3575f190490565b613535565b81156135b3570490565b91905f925f6135cf6122aa565b50604083015115613e9c576135e38261141e565b946135f4608087015162ffffff1690565b906136026020860151151590565b15613e4c5760608501805188516001600160a01b03918216911680821015613e2b575050516001600160a01b0316966401000276a3881115613e0f5760409697505b60038501546001600160801b0316926136606020880151151590565b15613df2576136e161368d61368761367d8b86015162ffffff1690565b600c1c610fff1690565b603f1690565b602089015115613dc9576136d76136b061368761367d606088015162ffffff1690565b915b6136cc6136bd610569565b6001600160801b039099168952565b61ffff166020880152565b61ffff16858a0152565b868801518251909261377391613706906020906001600160a01b031692015160020b90565b60208a015115613dbb5761375e60018a0154915b61375461372e8a516001600160801b031690565b94613737610578565b8981525f60208201526001600160a01b039091169e81019e909e52565b60020b60608d0152565b60808b01526001600160801b031660a08a0152565b879861377d613549565b995b8951151580613d83575b15613c44576138e260808c6138c0868d8f6138008f6137ec6137f6916137c86137bb604087015160018060a01b031690565b6001600160a01b03168a52565b606085015160020b865160020b9060056137e560208a0151151590565b9301614f18565b1515604089015290565b60020b6020870152565b602085015160020b620d89e719811215613c205750620d89e71960208601525b613844613834612eca602088015160020b90565b6001600160a01b03166060870152565b60408101516001600160a01b0316916138606020820151151590565b15613bea5760608601516001600160a01b0316606082015161388a906001600160a01b0316611f66565b6001600160a01b03909116105b15613bd657606001516001600160a01b03165b60a08201516001600160801b031691519261507e565b60c085015260a084015292909101919091526001600160a01b031660408c0152565b898b5f861315613b905761391960a0602061391f9461390a608086015160c087015101615266565b81510381520151920151615266565b9061358f565b60208b01525b613937612b20602088015161ffff1690565b80613b6c575b508a8a613952612b2060408a015161ffff1690565b80613b36575b50611f66606061399360408461397e6129c560a06139a29801516001600160801b031690565b80613b17575b5001516001600160a01b031690565b9301516001600160a01b031690565b6001600160a01b038216908d908203613ae65760408101518c93508d9250613a09575b505060200151156139f35760208b01516139ee905f199060020b0160020b5b60020b60608c0152565b61377f565b6139ee613a0460208d015160020b90565b6139e4565b613a9292613a2a6020613a2281613a4995015160020b90565b920151151590565b8015613adb576080840151905b15613ad05760028d0154915b8d615277565b60208c0151613ac6575b5f81600f0b125f14613a9a57612fa76129c5613a7c60a0613a829501516001600160801b031690565b92612165565b6001600160801b031660a08c0152565b888a8c6139c5565b613ab160a0613ac19301516001600160801b031690565b906001600160801b031690612c29565b613a82565b5f03600f0b613a53565b608084015191613a43565b60018d015490613a37565b51613af9906001600160a01b0316611f66565b03613b05575b5061377f565b6139e4613b1191614c60565b5f613aff565b613b259060c0890151613eb2565b60808201510160808201525f613984565b606061399360406139a2949c613b53611f669560c08901516135b8565b908160c08901510360c0890152019c9450505050613958565b613b7d9060c08d97939701516135b8565b60c08c018051829003905201935f61393d565b613bc6613bc16020613bcc94613ba960a0860151615266565b815101815201519260c06080820151910151906121ef565b615266565b90612766565b60208b0152613925565b5060608501516001600160a01b03166138aa565b60608601516001600160a01b03166060820151613c0f906001600160a01b0316611f66565b6001600160a01b0390911611613897565b620d89e890819060020b13613c36575b50613820565b60020b60208601525f613c30565b95979398945f929793919a50613cc490613cb7613c6a604089015160018060a01b031690565b613c9b613c7b60608b015160020b90565b885460a09190911b62ffffff60a01b1662ffffff60a01b19909116178855565b86546001600160a01b0319166001600160a01b03909116178655565b516001600160801b031690565b60a08601516001600160801b039081169116819003613d5a575b506020840151151592838314613d4b57600160808701519101555b13901515145f14613d295790612dc16020613d1e6040613d2695015184519003612c1b565b920151612c1b565b94565b612dc1826040613d3f6020613d26960151612c1b565b93015190519003612c1b565b60026080870151910155613cf9565b613d7d9060038501906001600160801b03166001600160801b0319825416179055565b5f613cde565b5060408a01516001600160a01b031660608a0151613da9906001600160a01b0316611f66565b6001600160a01b039091161415613789565b61375e60028a01549161371a565b6136d7613dec613de261367d606088015162ffffff1690565b60061c6103ff1690565b916136b2565b6136e1613e0a613de261367d8b86015162ffffff1690565b61368d565b639e4d7cc760e01b5f526001600160a01b03881660045260245ffd5b637c9c6e8f60e01b5f526001600160a01b039081166004521660245260445ffd5b60608501805188516001600160a01b03918216911680821115613e2b575050516001600160a01b03169673fffd8963efd1fc6a506488495d951d5263988d26881015613e0f576040969750613644565b63be8b850760e01b5f5260045ffd5b1561028f57565b90608082901b905f19600160801b8409928280851094039380850394613ed9868511613eab565b14613f38578190600160801b900981805f03168092046002816003021880820260020302808202600203028082026002030280820260020302808202600203028091026002030293600183805f03040190848311900302920304170290565b5091500490565b81810291905f1982820991838084109303928084039384600160801b111561028f5714613f7f57600160801b910990828211900360801b910360801c1790565b50505060801c90565b808202905f1983820990828083109203918083039283620f4240111561028f5714613fe8577fde8f6cefed634549b62c77574f722e1ac57e23f24d8fd5cb790fb65668c2613993620f4240910990828211900360fa1b910360061c170290565b5050620f424091500490565b81810291905f1982820991838084109303928084039384600160601b111561028f571461403457600160601b910990828211900360a01b910360601c1790565b50505060601c90565b90606082901b905f19600160601b8409928280851094039380850394614064868511613eab565b14613f38578190600160601b900981805f03168092046002816003021880820260020302808202600203028082026002030280820260020302808202600203028091026002030293600183805f03040190848311900302920304170290565b91818302915f198185099383808610950394808603956140e4878611613eab565b1461413e579082910981805f03168092046002816003021880820260020302808202600203028082026002030280820260020302808202600203028091026002030293600183805f03040190848311900302920304170290565b505091500490565b61ffff81166141525750565b603f81168015159160061c6103ff169082614198575b508115614177575b50610e7257565b61ffff1680151591508161418d575b505f614170565b60049150105f614186565b60041191505f614168565b9060020b9060020b818112156141f057620d89e71981126141de5750620d89e881136141cc5750565b63035aeeff60e31b5f5260045260245ffd5b63d5e2f7ab60e01b5f5260045260245ffd5b63c4433ed560e01b5f5260045260245260445ffd5b600f91820b910b039060016001607f1b0319821260016001607f1b0383131761042357565b92909261424584600483019060020b5f5260205260405f2090565b9061429c8254946001600160801b038616955f82600f0b125f146142e0576142786142726129c584612165565b88612c49565b935b84971598896001600160801b038716151415996142a4575b505060801c612c69565b60801b179055565b6142b5612f02835460a01c60020b90565b9060020b13156142c6575b80614292565b80600160029201546001880155015460028601555f6142c0565b6142f3826001600160801b031688612c29565b9361427a565b92909261431484600483019060020b5f5260205260405f2090565b9061429c8254946001600160801b038616955f82600f0b125f146143a1576143416142726129c584612165565b935b84971598896001600160801b03871615141599614365575b505060801c614205565b614376612f02835460a01c60020b90565b9060020b1315614387575b8061435b565b80600160029201546001880155015460028601555f614381565b6143b4826001600160801b031688612c29565b93614343565b621b13d0810160020b80156135b3576001600160801b039160020b8202041690565b9060020b9081156135b35760020b0790565b9060020b9081156135b35760020b0590565b919061440c82826143dc565b60020b6144585761444e61443d61442760019460ff946143ee565b60020b906101008260081d60010b920760ff1690565b949060010b5f5260205260405f2090565b92161b8154189055565b636a6c79f360e11b5f5260020b60045260020b60245260445ffd5b9291909260048101936144a68361449583889060020b5f5260205260405f2090565b969060020b5f5260205260405f2090565b926144b5835460a01c60020b90565b60020b9160020b82125f146144e157505050600280600185015460018401549003940154910154900390565b92949260020b136145075750600280600185015460018401549003940154910154900390565b92906002908180600187015460018401549003600186015490039601549101549003910154900390565b939192909261453f856118f5565b9484600f0b94851595865f146146195750506001600160801b0361456a87516001600160801b031690565b161561460a5760029161458487516001600160801b031690565b6145d0602089015183036145ca60406145b86145a78d516001600160801b031690565b936001600160801b03851690613f3f565b9b01518803916001600160801b031690565b90613f3f565b96156145e1575b5060018201550155565b82546fffffffffffffffffffffffffffffffff19166001600160801b039091161782555f6145d7565b632bbfae4960e21b5f5260045ffd5b905f60029492125f146146465761464190612fa76129c5613a7c8b516001600160801b031690565b614584565b61464190613ab189516001600160801b031690565b6146765f926004600293019060020b5f5260205260405f2090565b8281558260018201550155565b60020b5f8112156149fa57805f03905b620d89e882116149eb5760018216156149d9576001600160881b036ffffcb933bd6fad37aa2d162d1a5940015b1691600281166149bd575b600481166149a1575b60088116614985575b60108116614969575b6020811661494d575b60408116614931575b60808116614915575b61010081166148f9575b61020081166148dd575b61040081166148c1575b61080081166148a5575b6110008116614889575b612000811661486d575b6140008116614851575b6180008116614835575b620100008116614819575b6202000081166147fe575b6204000081166147e3575b62080000166147ca575b5f126147bc575b61479a6147908260201c90565b9163ffffffff1690565b6147b4575f905b60ff91909116016001600160a01b031690565b6001906147a1565b6147c5906135a7565b614783565b6b048a170391f7dc42444e8fa290910260801c9061477c565b6d2216e584f5fa1ea926041bedfe9890920260801c91614772565b916e5d6af8dedb81196699c329225ee6040260801c91614767565b916f09aa508b5b7a84e1c677de54f3e99bc90260801c9161475c565b916f31be135f97d08fd981231505542fcfa60260801c91614751565b916f70d869a156d2a1b890bb3df62baf32f70260801c91614747565b916fa9f746462d870fdf8a65dc1f90e061e50260801c9161473d565b916fd097f3bdfd2022b8845ad8f792aa58250260801c91614733565b916fe7159475a2c29b7443b29c7fa6e889d90260801c91614729565b916ff3392b0822b70005940c7a398e4b70f30260801c9161471f565b916ff987a7253ac413176f2b074cf7815e540260801c91614715565b916ffcbe86c7900a88aedcffc83b479aa3a40260801c9161470b565b916ffe5dee046a99a2a811c461f1969c30530260801c91614701565b916fff2ea16466c96a3843ec78b326b528610260801c916146f8565b916fff973b41fa98c081472e6896dfb254c00260801c916146ef565b916fffcb9843d60f6159c9db58835c9266440260801c916146e6565b916fffe5caca7e10e4e61c3624eaa0941cd00260801c916146dd565b916ffff2e50f5f656932ef12357cf3c7fdcc0260801c916146d4565b916ffff97272373d413259a46990580e213a0260801c916146cb565b6001600160881b03600160801b6146c0565b6333a3bdff60e21b5f5260045ffd5b80614693565b915f81600f0b125f14614a2c5791613bc191614a27935f036001600160801b031691615330565b5f0390565b91613bc1916112f4936001600160801b0316916152c9565b612dc1614a548260801c5f612c69565b915f612c69565b90612dc190614a708160801c8460801c612c69565b92612c69565b915f81600f0b125f14614a9d5791613bc191614a27935f036001600160801b0316916153e1565b91613bc1916112f4936001600160801b031691615373565b906001600160801b03169081156135b3576001600160801b03160490565b9061ffff9081614aea614ae4611c9b565b9461141e565b91610fff614b0e6040614b03606087015162ffffff1690565b95015162ffffff1690565b931692610fff614b26603f86169560061c6103ff1690565b911691614b3b603f84169360061c6103ff1690565b945f8260801d1280614c3a575b614c18575b505f81600f0b1280614c0d575b614be5575b50501680151580614bd8575b614bb4575b501680151580614ba7575b614b83575090565b614ba2614b95606084019283516135b8565b806020850152825161193a565b905290565b5060608201511515614b7b565b614bd0614bc6604086019283516135b8565b808652825161193a565b90525f614b70565b5060408401511515614b6b565b614c019184614bf96129c56129c594612165565b911690614ab5565b60608601525f80614b5f565b508382161515614b5a565b6129c5614c2f9186614bf96129c58660801c612165565b60408801525f614b4d565b508481161515614b48565b90612dc190614c5a8160801c8460801c614205565b92614205565b6001600160a01b03166401000276a381108015614efa575b614eeb57614c868160201b90565b806001600160801b03811160071b90811c6001600160401b03811160061b90811c63ffffffff811160051b90811c61ffff811160041b90811c9060ff821160031b91821c92600f841160021b93841c94600160038711811b96871c1196171717171717179060808210155f14614ee057607e1982011c905b607f190160401b90800280607f1c8160ff1c1c800280607f1c8160ff1c1c800280607f1c8160ff1c1c800280607f1c8160ff1c1c800280607f1c8160ff1c1c800280607f1c8160ff1c1c80029081607f1c8260ff1c1c80029283607f1c8460ff1c1c80029485607f1c8660ff1c1c80029687607f1c8860ff1c1c80029889607f1c8a60ff1c1c80029a8b607f1c8c60ff1c1c80029c8d80607f1c9060ff1c1c800260cd1c6604000000000000169d60cc1c6608000000000000169c60cb1c6610000000000000169b60ca1c6620000000000000169a60c91c6640000000000000169960c81c6680000000000000169860c71c670100000000000000169760c61c670200000000000000169660c51c670400000000000000169560c41c670800000000000000169460c31c671000000000000000169360c21c672000000000000000169260c11c674000000000000000169160c01c678000000000000000161717171717171717171717171717693627a301d71055774c85026f028f6481ab7f045a5af012a19d003aa9198101614e949060801d90565b60020b906fdb2df09e81959a81455e260799a0632f0160801d60020b918260020b8260020b145f14614ec65750905090565b614ed2611f6684614683565b11614edb575090565b905090565b81607f031b90614cfe565b63015680db60e11b5f5260045ffd5b5073fffd8963efd1fc6a506488495d951d5263988d26811015614c78565b9092614f2483856143ee565b93835f8260020b129182615066575b5050615059575b15614fe15791614f7e92614f5e8260020b906101008260081d60010b920760ff1690565b9490600160ff87161b5f1990800101929060010b5f5260205260405f2090565b541680158015949190614fce5791614fbf614fb4614fae614fc794614fa6612dd89897615528565b60ff91031690565b60ff1690565b62ffffff1660020b90565b900360020b90565b0260020b90565b5060ff1660020b900360020b0260020b91565b600192830160020b600881901d840b5f9081526020929092526040909120545f1960ff61010084071694851b01191680158015949190615044579161503d614fb4614fae614fc794615036612dd89897615439565b0360ff1690565b0160020b90565b5060ff9081031660020b0160020b0260020b91565b925f190160020b92614f3a565b615075925090612f02916143dc565b1515835f614f33565b919491935f808512946001600160a01b038481169088168111159491939287159290808961521d57506150bb62ffffff86620f4240031687613f88565b91878b8d83831561520e57916150d092615373565b935b8481106151fa5750509a8b925b6001600160a01b03841685811499909483918e9190156151a2578b8061519b575b1561518c575050505b9a8b9880615185575b156151755750505b975b8061516a575b61515f575b82615154575b50501561513957500390565b90506112f4915062ffffff8082620f424003169116856157b2565b141590505f8061512d565b9650835f0396615127565b50845f038811615122565b61518092508c615330565b61511a565b508a615112565b6151969350615373565b615109565b5088615100565b809392918c806151f3575b156151e4575050505b9b8c99806151dd575b156151ce575050505b9761511c565b6151d893506153e1565b6151c8565b508b6151bf565b6151ee93506152c9565b6151b6565b50896151ad565b61520692508d8d615720565b9a8b926150df565b615217926152c9565b936150d2565b9190508615615255576152318b8b83615330565b905b875f8890038381106152495750509a8b926150df565b61520692508d8d615638565b6152608b828c6153e1565b90615233565b6001600160ff1b0381116127575790565b90600461529292949394019060020b5f5260205260405f2090565b91600183019081549003905560028201908154900390555460801d90565b6001600160a01b03918216908216039190821161042357565b6001600160801b0391906001600160a01b038083169082161161532a575b6001600160a01b03916152fa91906152b0565b16911661530c600160601b83836140c3565b91600160601b910961531b5790565b5f1981101561028f5760010190565b906152e7565b6112f492916001600160801b03916001600160a01b038083169082161161536d575b6001600160a01b039161536591906152b0565b169116613ff4565b90615352565b6001600160a01b03828116908216116153db575b6001600160a01b0381169283156153cd576153c1926001600160a01b0380821693909103169060601b600160601b600160e01b03166157b2565b90808206151591040190565b62bfc92160e01b5f5260045ffd5b90615387565b6001600160a01b0382811690821611615433575b6001600160a01b0381169283156153cd5761542f926001600160a01b0380821693909103169060601b600160601b600160e01b03166140c3565b0490565b906153f5565b90615445821515613eab565b60ff6001600160801b0383161561551e5750607f5b6001600160401b0383161561551457603f190160ff165b63ffffffff83161561550a57601f190160ff165b61ffff83161561550057600f190160ff165b60ff8316156154f6576007190160ff165b600f8316156154ec576003190160ff165b60038316156154e0576001190160ff16916001905b166154d557565b5f1990910160ff1690565b9160019060021c6154ce565b9160041c916154b9565b9160081c916154a8565b9160101c91615497565b9160201c91615485565b9160401c91615471565b9160801c9161545a565b905f91615536811515613eab565b600160801b81101561562d575b80680100000000000000006002921015615616575b6401000000008110156155ff575b620100008110156155e8575b6101008110156155d1575b60108110156155ba575b60048110156155a4575b101561559957565b90600160ff91011690565b816155b160ff9260021c90565b94011692615591565b60046155c860ff9260041c90565b94011692615587565b60086155df60ff9260081c90565b9401169261557d565b60106155f660ff9260101c90565b94011692615572565b602061560d60ff9260201c90565b94011692615566565b604061562460ff9260401c90565b94011692615558565b60809250821c615543565b926001600160a01b03841615801561570f575b61570057156156f7576001600160a01b0382116156b5576001600160801b036156776156849360601b90565b9116808206151591040190565b905b6001600160a01b031690808211156156a65790036001600160a01b031690565b634323a55560e01b5f5260045ffd5b6001600160801b03166156cd81600160601b846140c3565b9181156135b357600160601b90096156e6575b90615686565b5f1981101561028f576001016156e0565b6112f4926157de565b6309e48c3760e31b5f5260045ffd5b506001600160801b0382161561564b565b926001600160a01b0384161580156157a1575b6157005715615745576112f49261584c565b906001600160a01b038111615788576001600160801b039060601b91169081156135b35704905b6001600160a01b0316908101908110610423576112f4906158b5565b6001600160801b0361579b92169061403d565b9061576c565b506001600160801b03821615615733565b9291906157c08282866140c3565b9382156135b357096157ce57565b905f1981101561028f5760010190565b91908115615847576001600160a01b03909216918183029160609190911b600160601b600160e01b0316908204831480159061583d575b61582e576112f492615829928203916157b2565b6158b5565b63f5c787f160e01b5f5260045ffd5b5081811115615815565b505090565b919081156158475760601b600160601b600160e01b0316916001600160a01b031681810282810482146158a1575b5080156135b35782049081018091116104235780820615159104016001600160a01b031690565b830183811061587a579150611f66926157b2565b6001600160a01b038116919082036127575756fe722b431450ce53c44434ec138439e45a0639fe031b803ee019b776fae5cfa2af7d4b3164c6e45b97e7d87b7125a44c5828d005af88f9d751cfd78729c5d99a0ba2646970667358221220f489be3f4a4d687217976f72b50d403eb20811bb0b5dde7f331239f8eb0fd42a64736f6c634300081c0033",
  "immutableReferences": {
    "6283": [
      {
        "length": 32,
        "start": 10897
      }
    ],
    "6663": [
      {
        "length": 32,
        "start": 9988
      }
    ]
  },
  "source": "// SPDX-License-Identifier: BUSL-1.1\npragma solidity ^0.8.20;\n\nimport {Hooks} from \"./libraries/Hooks.sol\";\nimport {Pool} from \"./libraries/Pool.sol\";\nimport {SafeCast} from \"./libraries/SafeCast.sol\";\nimport {Position} from \"./libraries/Position.sol\";\nimport {FeeLibrary} from \"./libraries/FeeLibrary.sol\";\nimport {Currency, CurrencyLibrary} from \"./types/Currency.sol\";\nimport {PoolKey} from \"./types/PoolKey.sol\";\nimport {TickMath} from \"./libraries/TickMath.sol\";\nimport {NoDelegateCall} from \"./NoDelegateCall.sol\";\nimport {Owned} from \"./Owned.sol\";\nimport {IHooks} from \"./interfaces/IHooks.sol\";\nimport {IDynamicFeeManager} from \"./interfaces/IDynamicFeeManager.sol\";\nimport {IHookFeeManager} from \"./interfaces/IHookFeeManager.sol\";\nimport {IPoolManager} from \"./interfaces/IPoolManager.sol\";\nimport {ILockCallback} from \"./interfaces/callback/ILockCallback.sol\";\nimport {Fees} from \"./Fees.sol\";\nimport {Claims} from \"./Claims.sol\";\nimport {PoolId, PoolIdLibrary} from \"./types/PoolId.sol\";\nimport {BalanceDelta, BalanceDeltaLibrary} from \"./types/BalanceDelta.sol\";\nimport {Lockers} from \"./libraries/Lockers.sol\";\n\n/// @notice Holds the state for all pools\ncontract PoolManager is IPoolManager, Fees, NoDelegateCall, Claims {\n    using PoolIdLibrary for PoolKey;\n    using SafeCast for *;\n    using Pool for *;\n    using Hooks for IHooks;\n    using Position for mapping(bytes32 => Position.Info);\n    using CurrencyLibrary for Currency;\n    using FeeLibrary for uint24;\n\n    /// @inheritdoc IPoolManager\n    int24 public constant MAX_TICK_SPACING = TickMath.MAX_TICK_SPACING;\n\n    /// @inheritdoc IPoolManager\n    int24 public constant MIN_TICK_SPACING = TickMath.MIN_TICK_SPACING;\n\n    /// @dev Represents the currencies due/owed to each locker.\n    /// Must all net to zero when the last lock is released.\n    mapping(address locker => mapping(Currency currency => int256 currencyDelta)) public currencyDelta;\n\n    /// @inheritdoc IPoolManager\n    mapping(Currency currency => uint256) public override reservesOf;\n\n    mapping(PoolId id => Pool.State) public pools;\n\n    constructor(uint256 controllerGasLimit) Fees(controllerGasLimit) {}\n\n    /// @inheritdoc IPoolManager\n    function getSlot0(PoolId id)\n        external\n        view\n        override\n        returns (uint160 sqrtPriceX96, int24 tick, uint24 protocolFees, uint24 hookFees)\n    {\n        Pool.Slot0 memory slot0 = pools[id].slot0;\n\n        return (slot0.sqrtPriceX96, slot0.tick, slot0.protocolFees, slot0.hookFees);\n    }\n\n    /// @inheritdoc IPoolManager\n    function getLiquidity(PoolId id) external view override returns (uint128 liquidity) {\n        return pools[id].liquidity;\n    }\n\n    /// @inheritdoc IPoolManager\n    function getLiquidity(PoolId id, address _owner, int24 tickLower, int24 tickUpper)\n        external\n        view\n        override\n        returns (uint128 liquidity)\n    {\n        return pools[id].positions.get(_owner, tickLower, tickUpper).liquidity;\n    }\n\n    function getPosition(PoolId id, address owner, int24 tickLower, int24 tickUpper)\n        external\n        view\n        override\n        returns (Position.Info memory position)\n    {\n        return pools[id].positions.get(owner, tickLower, tickUpper);\n    }\n\n    /// @inheritdoc IPoolManager\n    function getLock(uint256 i) external view override returns (address locker) {\n        return Lockers.getLocker(i);\n    }\n\n    /// @inheritdoc IPoolManager\n    function initialize(PoolKey memory key, uint160 sqrtPriceX96, bytes calldata hookData)\n        external\n        override\n        onlyByLocker\n        returns (int24 tick)\n    {\n        if (key.fee.isStaticFeeTooLarge()) revert FeeTooLarge();\n\n        // see TickBitmap.sol for overflow conditions that can arise from tick spacing being too large\n        if (key.tickSpacing > MAX_TICK_SPACING) revert TickSpacingTooLarge();\n        if (key.tickSpacing < MIN_TICK_SPACING) revert TickSpacingTooSmall();\n        if (key.currency0 >= key.currency1) revert CurrenciesOutOfOrderOrEqual();\n        if (!key.hooks.isValidHookAddress(key.fee)) revert Hooks.HookAddressNotValid(address(key.hooks));\n\n        if (key.hooks.shouldCallBeforeInitialize()) {\n            if (key.hooks.beforeInitialize(msg.sender, key, sqrtPriceX96, hookData) != IHooks.beforeInitialize.selector)\n            {\n                revert Hooks.InvalidHookResponse();\n            }\n        }\n\n        PoolId id = key.toId();\n\n        uint24 swapFee = key.fee.isDynamicFee() ? _fetchDynamicSwapFee(key) : key.fee.getStaticFee();\n\n        tick = pools[id].initialize(sqrtPriceX96, _fetchProtocolFees(key), _fetchHookFees(key), swapFee);\n\n        if (key.hooks.shouldCallAfterInitialize()) {\n            if (\n                key.hooks.afterInitialize(msg.sender, key, sqrtPriceX96, tick, hookData)\n                    != IHooks.afterInitialize.selector\n            ) {\n                revert Hooks.InvalidHookResponse();\n            }\n        }\n\n        // On intitalize we emit the key's fee, which tells us all fee settings a pool can have: either a static swap fee or dynamic swap fee and if the hook has enabled swap or withdraw fees.\n        emit Initialize(id, key.currency0, key.currency1, key.fee, key.tickSpacing, key.hooks);\n    }\n\n    /// @inheritdoc IPoolManager\n    function lock(bytes calldata data) external override returns (bytes memory result) {\n        Lockers.push(msg.sender);\n\n        // the caller does everything in this callback, including paying what they owe via calls to settle\n        result = ILockCallback(msg.sender).lockAcquired(data);\n\n        if (Lockers.length() == 1) {\n            if (Lockers.nonzeroDeltaCount() != 0) revert CurrencyNotSettled();\n            Lockers.clear();\n        } else {\n            Lockers.pop();\n        }\n    }\n\n    function _accountDelta(Currency currency, int128 delta) internal {\n        if (delta == 0) return;\n\n        address locker = Lockers.getCurrentLocker();\n        int256 current = currencyDelta[locker][currency];\n        int256 next = current + delta;\n\n        unchecked {\n            if (next == 0) {\n                Lockers.decrementNonzeroDeltaCount();\n            } else if (current == 0) {\n                Lockers.incrementNonzeroDeltaCount();\n            }\n        }\n\n        currencyDelta[locker][currency] = next;\n    }\n\n    /// @dev Accumulates a balance change to a map of currency to balance changes\n    function _accountPoolBalanceDelta(PoolKey memory key, BalanceDelta delta) internal {\n        _accountDelta(key.currency0, delta.amount0());\n        _accountDelta(key.currency1, delta.amount1());\n    }\n\n    function _checkPoolInitialized(PoolId id) internal view {\n        if (pools[id].isNotInitialized()) revert PoolNotInitialized();\n    }\n\n    modifier onlyByLocker() {\n        address locker = Lockers.getCurrentLocker();\n        if (msg.sender != locker) revert LockedBy(locker);\n        _;\n    }\n\n    /// @inheritdoc IPoolManager\n    function modifyPosition(\n        PoolKey memory key,\n        IPoolManager.ModifyPositionParams memory params,\n        bytes calldata hookData\n    ) external override noDelegateCall onlyByLocker returns (BalanceDelta delta) {\n        PoolId id = key.toId();\n        _checkPoolInitialized(id);\n\n        if (key.hooks.shouldCallBeforeModifyPosition()) {\n            bytes4 selector = key.hooks.beforeModifyPosition(msg.sender, key, params, hookData);\n            // Sentinel return value used to signify that a NoOp occurred.\n            if (key.hooks.isValidNoOpCall(selector)) return BalanceDeltaLibrary.MAXIMUM_DELTA;\n            else if (selector != IHooks.beforeModifyPosition.selector) revert Hooks.InvalidHookResponse();\n        }\n\n        Pool.FeeAmounts memory feeAmounts;\n        (delta, feeAmounts) = pools[id].modifyPosition(\n            Pool.ModifyPositionParams({\n                owner: msg.sender,\n                tickLower: params.tickLower,\n                tickUpper: params.tickUpper,\n                liquidityDelta: params.liquidityDelta.toInt128(),\n                tickSpacing: key.tickSpacing\n            })\n        );\n\n        _accountPoolBalanceDelta(key, delta);\n\n        unchecked {\n            if (feeAmounts.feeForProtocol0 > 0) {\n                protocolFeesAccrued[key.currency0] += feeAmounts.feeForProtocol0;\n            }\n            if (feeAmounts.feeForProtocol1 > 0) {\n                protocolFeesAccrued[key.currency1] += feeAmounts.feeForProtocol1;\n            }\n            if (feeAmounts.feeForHook0 > 0) {\n                hookFeesAccrued[address(key.hooks)][key.currency0] += feeAmounts.feeForHook0;\n            }\n            if (feeAmounts.feeForHook1 > 0) {\n                hookFeesAccrued[address(key.hooks)][key.currency1] += feeAmounts.feeForHook1;\n            }\n        }\n\n        if (key.hooks.shouldCallAfterModifyPosition()) {\n            if (\n                key.hooks.afterModifyPosition(msg.sender, key, params, delta, hookData)\n                    != IHooks.afterModifyPosition.selector\n            ) {\n                revert Hooks.InvalidHookResponse();\n            }\n        }\n\n        emit ModifyPosition(id, msg.sender, params.tickLower, params.tickUpper, params.liquidityDelta);\n    }\n\n    /// @inheritdoc IPoolManager\n    function swap(PoolKey memory key, IPoolManager.SwapParams memory params, bytes calldata hookData)\n        external\n        override\n        noDelegateCall\n        onlyByLocker\n        returns (BalanceDelta delta)\n    {\n        PoolId id = key.toId();\n        _checkPoolInitialized(id);\n\n        if (key.hooks.shouldCallBeforeSwap()) {\n            bytes4 selector = key.hooks.beforeSwap(msg.sender, key, params, hookData);\n            // Sentinel return value used to signify that a NoOp occurred.\n            if (key.hooks.isValidNoOpCall(selector)) return BalanceDeltaLibrary.MAXIMUM_DELTA;\n            else if (selector != IHooks.beforeSwap.selector) revert Hooks.InvalidHookResponse();\n        }\n\n        uint256 feeForProtocol;\n        uint256 feeForHook;\n        uint24 swapFee;\n        Pool.SwapState memory state;\n        (delta, feeForProtocol, feeForHook, swapFee, state) = pools[id].swap(\n            Pool.SwapParams({\n                tickSpacing: key.tickSpacing,\n                zeroForOne: params.zeroForOne,\n                amountSpecified: params.amountSpecified,\n                sqrtPriceLimitX96: params.sqrtPriceLimitX96\n            })\n        );\n\n        _accountPoolBalanceDelta(key, delta);\n        // the fee is on the input currency\n\n        unchecked {\n            if (feeForProtocol > 0) {\n                protocolFeesAccrued[params.zeroForOne ? key.currency0 : key.currency1] += feeForProtocol;\n            }\n            if (feeForHook > 0) {\n                hookFeesAccrued[address(key.hooks)][params.zeroForOne ? key.currency0 : key.currency1] += feeForHook;\n            }\n        }\n\n        if (key.hooks.shouldCallAfterSwap()) {\n            if (key.hooks.afterSwap(msg.sender, key, params, delta, hookData) != IHooks.afterSwap.selector) {\n                revert Hooks.InvalidHookResponse();\n            }\n        }\n\n        emit Swap(\n            id, msg.sender, delta.amount0(), delta.amount1(), state.sqrtPriceX96, state.liquidity, state.tick, swapFee\n        );\n    }\n\n    /// @inheritdoc IPoolManager\n    function donate(PoolKey memory key, uint256 amount0, uint256 amount1, bytes calldata hookData)\n        external\n        override\n        noDelegateCall\n        onlyByLocker\n        returns (BalanceDelta delta)\n    {\n        PoolId id = key.toId();\n        _checkPoolInitialized(id);\n\n        if (key.hooks.shouldCallBeforeDonate()) {\n            bytes4 selector = key.hooks.beforeDonate(msg.sender, key, amount0, amount1, hookData);\n            // Sentinel return value used to signify that a NoOp occurred.\n            if (key.hooks.isValidNoOpCall(selector)) return BalanceDeltaLibrary.MAXIMUM_DELTA;\n            else if (selector != IHooks.beforeDonate.selector) revert Hooks.InvalidHookResponse();\n        }\n\n        delta = pools[id].donate(amount0, amount1);\n\n        _accountPoolBalanceDelta(key, delta);\n\n        if (key.hooks.shouldCallAfterDonate()) {\n            if (key.hooks.afterDonate(msg.sender, key, amount0, amount1, hookData) != IHooks.afterDonate.selector) {\n                revert Hooks.InvalidHookResponse();\n            }\n        }\n    }\n\n    /// @inheritdoc IPoolManager\n    function take(Currency currency, address to, uint256 amount) external override noDelegateCall onlyByLocker {\n        _accountDelta(currency, amount.toInt128());\n        reservesOf[currency] -= amount;\n        currency.transfer(to, amount);\n    }\n\n    /// @inheritdoc IPoolManager\n    function settle(Currency currency) external payable override noDelegateCall onlyByLocker returns (uint256 paid) {\n        uint256 reservesBefore = reservesOf[currency];\n        reservesOf[currency] = currency.balanceOfSelf();\n        paid = reservesOf[currency] - reservesBefore;\n        // subtraction must be safe\n        _accountDelta(currency, -(paid.toInt128()));\n    }\n\n    /// @inheritdoc IPoolManager\n    function mint(Currency currency, address to, uint256 amount) external noDelegateCall onlyByLocker {\n        _accountDelta(currency, amount.toInt128());\n        _mint(to, currency, amount);\n    }\n\n    /// @inheritdoc IPoolManager\n    function burn(Currency currency, uint256 amount) external noDelegateCall onlyByLocker {\n        _accountDelta(currency, -(amount.toInt128()));\n        _burn(currency, amount);\n    }\n\n    function setProtocolFees(PoolKey memory key) external {\n        uint24 newProtocolFees = _fetchProtocolFees(key);\n        PoolId id = key.toId();\n        pools[id].setProtocolFees(newProtocolFees);\n        emit ProtocolFeeUpdated(id, newProtocolFees);\n    }\n\n    function setHookFees(PoolKey memory key) external {\n        uint24 newHookFees = _fetchHookFees(key);\n        PoolId id = key.toId();\n        pools[id].setHookFees(newHookFees);\n        emit HookFeeUpdated(id, newHookFees);\n    }\n\n    function updateDynamicSwapFee(PoolKey memory key) external {\n        if (key.fee.isDynamicFee()) {\n            uint24 newDynamicSwapFee = _fetchDynamicSwapFee(key);\n            PoolId id = key.toId();\n            pools[id].setSwapFee(newDynamicSwapFee);\n            emit DynamicSwapFeeUpdated(id, newDynamicSwapFee);\n        } else {\n            revert FeeNotDynamic();\n        }\n    }\n\n    function extsload(bytes32 slot) external view returns (bytes32 value) {\n        /// @solidity memory-safe-assembly\n        assembly {\n            value := sload(slot)\n        }\n    }\n\n    function extsload(bytes32 startSlot, uint256 nSlots) external view returns (bytes memory) {\n        bytes memory value = new bytes(32 * nSlots);\n\n        /// @solidity memory-safe-assembly\n        assembly {\n            for { let i := 0 } lt(i, nSlots) { i := add(i, 1) } {\n                mstore(add(value, mul(add(i, 1), 32)), sload(add(startSlot, i)))\n            }\n        }\n\n        return value;\n    }\n\n    function getLockLength() external view returns (uint256 _length) {\n        return Lockers.length();\n    }\n\n    function getLockNonzeroDeltaCount() external view returns (uint256 _nonzeroDeltaCount) {\n        return Lockers.nonzeroDeltaCount();\n    }\n\n    /// @notice receive native tokens for native pools\n    receive() external payable {}\n}\n",
  "sourcePath": "/home/stephensb/sb-labs/solidity-contracts/contracts/v4-core/src/PoolManager.sol",
  "compiler": {
    "name": "solc",
    "version": "0.8.28+commit.7893614a.Emscripten.clang"
  },
  "schemaVersion": "3.4.12",
  "updatedAt": "2024-12-18T07:36:00.854Z",
  "devdoc": {
    "errors": {
      "HookAddressNotValid(address)": [
        {
          "params": {
            "hooks": "The address of the hooks contract"
          }
        }
      ],
      "LockedBy(address)": [
        {
          "params": {
            "locker": "The current locker"
          }
        }
      ],
      "PriceLimitAlreadyExceeded(uint160,uint160)": [
        {
          "params": {
            "sqrtPriceCurrentX96": "The invalid, already surpassed sqrtPriceLimitX96",
            "sqrtPriceLimitX96": "The surpassed price limit"
          }
        }
      ],
      "PriceLimitOutOfBounds(uint160)": [
        {
          "params": {
            "sqrtPriceLimitX96": "The invalid, out-of-bounds sqrtPriceLimitX96"
          }
        }
      ],
      "TickLowerOutOfBounds(int24)": [
        {
          "params": {
            "tickLower": "The invalid tickLower"
          }
        }
      ],
      "TickMisaligned(int24,int24)": [
        {
          "params": {
            "tick": "the invalid tick",
            "tickSpacing": "The tick spacing of the pool"
          }
        }
      ],
      "TickUpperOutOfBounds(int24)": [
        {
          "params": {
            "tickUpper": "The invalid tickUpper"
          }
        }
      ],
      "TicksMisordered(int24,int24)": [
        {
          "params": {
            "tickLower": "The invalid tickLower",
            "tickUpper": "The invalid tickUpper"
          }
        }
      ]
    },
    "events": {
      "Initialize(bytes32,address,address,uint24,int24,address)": {
        "params": {
          "currency0": "The first currency of the pool by address sort order",
          "currency1": "The second currency of the pool by address sort order",
          "fee": "The fee collected upon every swap in the pool, denominated in hundredths of a bip",
          "hooks": "The hooks contract address for the pool, or address(0) if none",
          "id": "The abi encoded hash of the pool key struct for the new pool",
          "tickSpacing": "The minimum number of ticks between initialized ticks"
        }
      },
      "ModifyPosition(bytes32,address,int24,int24,int256)": {
        "params": {
          "id": "The abi encoded hash of the pool key struct for the pool that was modified",
          "liquidityDelta": "The amount of liquidity that was added or removed",
          "sender": "The address that modified the pool",
          "tickLower": "The lower tick of the position",
          "tickUpper": "The upper tick of the position"
        }
      },
      "OwnerChanged(address,address)": {
        "params": {
          "newOwner": "The owner after the owner was changed",
          "oldOwner": "The owner before the owner was changed"
        }
      },
      "Swap(bytes32,address,int128,int128,uint160,uint128,int24,uint24)": {
        "params": {
          "amount0": "The delta of the currency0 balance of the pool",
          "amount1": "The delta of the currency1 balance of the pool",
          "id": "The abi encoded hash of the pool key struct for the pool that was modified",
          "liquidity": "The liquidity of the pool after the swap",
          "sender": "The address that initiated the swap call, and that received the callback",
          "sqrtPriceX96": "The sqrt(price) of the pool after the swap, as a Q64.96",
          "tick": "The log base 1.0001 of the price of the pool after the swap"
        }
      }
    },
    "kind": "dev",
    "methods": {
      "balanceOf(address,address)": {
        "params": {
          "account": "The account to get the balance of",
          "currency": "The currency to get the balance of"
        }
      },
      "extsload(bytes32)": {
        "params": {
          "slot": "Key of slot to sload"
        },
        "returns": {
          "value": "The value of the slot as bytes32"
        }
      },
      "lock(bytes)": {
        "params": {
          "data": "Any data to pass to the callback, via `ILockCallback(msg.sender).lockAcquired(data)`"
        },
        "returns": {
          "result": "The data returned by the call to `ILockCallback(msg.sender).lockAcquired(data)`"
        }
      },
      "take(address,address,uint256)": {
        "details": "Can also be used as a mechanism for _free_ flash loans"
      },
      "transfer(address,address,uint256)": {
        "details": "Will revert if the sender does not have enough balance",
        "params": {
          "amount": "The amount to transfer",
          "currency": "The currency to transfer",
          "to": "The address to transfer to"
        }
      }
    },
    "stateVariables": {
      "currencyDelta": {
        "details": "Represents the currencies due/owed to each locker. Must all net to zero when the last lock is released."
      }
    },
    "version": 1
  },
  "userdoc": {
    "errors": {
      "CannotUpdateEmptyPosition()": [
        {
          "notice": "Cannot update a position with no liquidity"
        }
      ],
      "CurrenciesOutOfOrderOrEqual()": [
        {
          "notice": "PoolKey must have currencies where address(currency0) < address(currency1)"
        }
      ],
      "CurrencyNotSettled()": [
        {
          "notice": "Thrown when a currency is not netted out after a lock"
        }
      ],
      "ERC20TransferFailed()": [
        {
          "notice": "Thrown when an ERC20 transfer fails"
        }
      ],
      "FeeNotDynamic()": [
        {
          "notice": "Thrown when a pool does not have a dynamic fee."
        }
      ],
      "FeeTooLarge()": [
        {
          "notice": "Thrown when the protocol fee denominator is less than 4. Also thrown when the static or dynamic fee on a pool is exceeds 100%."
        }
      ],
      "HookAddressNotValid(address)": [
        {
          "notice": "Thrown if the address will not lead to the specified hook calls being called"
        }
      ],
      "InsufficientBalance()": [
        {
          "notice": "Thrown when user has insufficient Claims balance"
        }
      ],
      "InvalidAddress()": [
        {
          "notice": "Thrown when transferring Claims to this address"
        }
      ],
      "InvalidHookResponse()": [
        {
          "notice": "Hook did not return its selector"
        }
      ],
      "InvalidSqrtRatio()": [
        {
          "notice": "Thrown when the ratio passed to #getTickAtSqrtRatio does not correspond to a price between MIN_TICK and MAX_TICK"
        }
      ],
      "InvalidTick()": [
        {
          "notice": "Thrown when the tick passed to #getSqrtRatioAtTick is not between MIN_TICK and MAX_TICK"
        }
      ],
      "LockedBy(address)": [
        {
          "notice": "Thrown when a function is called by an address that is not the current locker"
        }
      ],
      "MaxCurrenciesTouched()": [
        {
          "notice": "Thrown when currencies touched has exceeded max of 256"
        }
      ],
      "NativeTransferFailed()": [
        {
          "notice": "Thrown when a native transfer fails"
        }
      ],
      "NoLiquidityToReceiveFees()": [
        {
          "notice": "Thrown by donate if there is currently 0 liquidity, since the fees will not go to any liquidity providers"
        }
      ],
      "NotPoolManagerToken()": [
        {
          "notice": "The ERC1155 being deposited is not the Uniswap ERC1155"
        }
      ],
      "PoolAlreadyInitialized()": [
        {
          "notice": "Thrown when trying to initialize an already initialized pool"
        }
      ],
      "PoolNotInitialized()": [
        {
          "notice": "Thrown when trying to interact with a non-initialized pool"
        },
        {
          "notice": "Thrown when trying to interact with a non-initialized pool"
        }
      ],
      "PriceLimitAlreadyExceeded(uint160,uint160)": [
        {
          "notice": "Thrown when sqrtPriceLimitX96 on a swap has already exceeded its limit"
        }
      ],
      "PriceLimitOutOfBounds(uint160)": [
        {
          "notice": "Thrown when sqrtPriceLimitX96 lies outside of valid tick/price range"
        }
      ],
      "ProtocolFeeCannotBeFetched()": [
        {
          "notice": "Thrown when not enough gas is provided to look up the protocol fee"
        }
      ],
      "SwapAmountCannotBeZero()": [
        {
          "notice": "Thrown when trying to swap amount of 0"
        }
      ],
      "TickLiquidityOverflow(int24)": [
        {
          "notice": "For the tick spacing, the tick has too much liquidity"
        }
      ],
      "TickLowerOutOfBounds(int24)": [
        {
          "notice": "Thrown when tickLower is less than min tick"
        }
      ],
      "TickMisaligned(int24,int24)": [
        {
          "notice": "Thrown when the tick is not enumerated by the tick spacing"
        }
      ],
      "TickSpacingTooLarge()": [
        {
          "notice": "Pools are limited to type(int16).max tickSpacing in #initialize, to prevent overflow"
        }
      ],
      "TickSpacingTooSmall()": [
        {
          "notice": "Pools must have a positive non-zero tickSpacing passed to #initialize"
        }
      ],
      "TickUpperOutOfBounds(int24)": [
        {
          "notice": "Thrown when tickUpper exceeds max tick"
        }
      ],
      "TicksMisordered(int24,int24)": [
        {
          "notice": "Thrown when tickLower is not below tickUpper"
        }
      ]
    },
    "events": {
      "Burn(address,address,uint256)": {
        "notice": "Emitted when burning `amount` of currency Claims from address"
      },
      "Initialize(bytes32,address,address,uint24,int24,address)": {
        "notice": "Emitted when a new pool is initialized"
      },
      "Mint(address,address,uint256)": {
        "notice": "Emitted when minting `amount` of currency Claims to address"
      },
      "ModifyPosition(bytes32,address,int24,int24,int256)": {
        "notice": "Emitted when a liquidity position is modified"
      },
      "OwnerChanged(address,address)": {
        "notice": "Emitted when the owner of the factory is changed"
      },
      "Swap(bytes32,address,int128,int128,uint160,uint128,int24,uint24)": {
        "notice": "Emitted for swaps between currency0 and currency1"
      },
      "Transfer(address,address,address,uint256)": {
        "notice": "Emitted when transferring `amount` of currency Claims"
      }
    },
    "kind": "user",
    "methods": {
      "MAX_TICK_SPACING()": {
        "notice": "Returns the constant representing the maximum tickSpacing for an initialized pool key"
      },
      "MIN_PROTOCOL_FEE_DENOMINATOR()": {
        "notice": "Returns the minimum denominator for the protocol fee, which restricts it to a maximum of 25%"
      },
      "MIN_TICK_SPACING()": {
        "notice": "Returns the constant representing the minimum tickSpacing for an initialized pool key"
      },
      "balanceOf(address,address)": {
        "notice": "Get the balance of `account` for `currency`"
      },
      "burn(address,uint256)": {
        "notice": "Called by the user to redeem their Claims balance"
      },
      "donate((address,address,uint24,int24,address),uint256,uint256,bytes)": {
        "notice": "Donate the given currency amounts to the pool with the given pool key"
      },
      "extsload(bytes32)": {
        "notice": "Called by external contracts to access granular pool state"
      },
      "getLiquidity(bytes32)": {
        "notice": "Get the current value of liquidity of the given pool"
      },
      "getLiquidity(bytes32,address,int24,int24)": {
        "notice": "Get the current value of liquidity for the specified pool and position"
      },
      "getLock(uint256)": {
        "notice": "Returns the locker in the ith position of the locker queue."
      },
      "getLockLength()": {
        "notice": "Returns the length of the lockers array, which is the number of locks open on the PoolManager."
      },
      "getLockNonzeroDeltaCount()": {
        "notice": "Returns the number of nonzero deltas open on the PoolManager that must be zerod by the close of the initial lock."
      },
      "getPosition(bytes32,address,int24,int24)": {
        "notice": "Get the position struct for a specified pool and position"
      },
      "getSlot0(bytes32)": {
        "notice": "Get the current value in slot0 of the given pool"
      },
      "hookFeesAccrued(address,address)": {
        "notice": "Given a hook and a currency address, returns the fees accrued"
      },
      "initialize((address,address,uint24,int24,address),uint160,bytes)": {
        "notice": "Initialize the state for a given pool ID"
      },
      "lock(bytes)": {
        "notice": "All operations go through this function"
      },
      "mint(address,address,uint256)": {
        "notice": "Called by the user to move value into Claims balance"
      },
      "modifyPosition((address,address,uint24,int24,address),(int24,int24,int256),bytes)": {
        "notice": "Modify the position for the given pool"
      },
      "protocolFeesAccrued(address)": {
        "notice": "Given a currency address, returns the protocol fees accrued in that currency"
      },
      "reservesOf(address)": {
        "notice": "Returns the reserves for a given ERC20 currency"
      },
      "setHookFees((address,address,uint24,int24,address))": {
        "notice": "Sets the hook's swap and withdrawal fees for the given pool"
      },
      "setProtocolFees((address,address,uint24,int24,address))": {
        "notice": "Sets the protocol's swap and withdrawal fees for the given pool Protocol fees are always a portion of a fee that is owed. If that underlying fee is 0, no protocol fees will accrue even if it is set to > 0."
      },
      "settle(address)": {
        "notice": "Called by the user to pay what is owed"
      },
      "swap((address,address,uint24,int24,address),(bool,int256,uint160),bytes)": {
        "notice": "Swap against the given pool"
      },
      "take(address,address,uint256)": {
        "notice": "Called by the user to net out some value owed to the user"
      },
      "transfer(address,address,uint256)": {
        "notice": "Transfer `amount` of `currency` from sender to `to`"
      },
      "updateDynamicSwapFee((address,address,uint24,int24,address))": {
        "notice": "Updates the pools swap fees for the a pool that has enabled dynamic swap fees."
      }
    },
    "notice": "Holds the state for all pools",
    "version": 1
  }
}