{
  "contractName": "PublicKeys",
  "abi": [
    {
      "inputs": [],
      "stateMutability": "nonpayable",
      "type": "constructor"
    },
    {
      "anonymous": false,
      "inputs": [
        {
          "indexed": true,
          "internalType": "address",
          "name": "previousOwner",
          "type": "address"
        },
        {
          "indexed": true,
          "internalType": "address",
          "name": "newOwner",
          "type": "address"
        }
      ],
      "name": "OwnershipTransferred",
      "type": "event"
    },
    {
      "inputs": [],
      "name": "EnableHash",
      "outputs": [
        {
          "internalType": "bytes32",
          "name": "",
          "type": "bytes32"
        }
      ],
      "stateMutability": "view",
      "type": "function"
    },
    {
      "inputs": [
        {
          "internalType": "address",
          "name": "",
          "type": "address"
        }
      ],
      "name": "SignKeys",
      "outputs": [
        {
          "internalType": "bytes32",
          "name": "r",
          "type": "bytes32"
        },
        {
          "internalType": "bytes32",
          "name": "s",
          "type": "bytes32"
        },
        {
          "internalType": "uint8",
          "name": "v",
          "type": "uint8"
        }
      ],
      "stateMutability": "view",
      "type": "function"
    },
    {
      "inputs": [],
      "name": "owner",
      "outputs": [
        {
          "internalType": "address",
          "name": "",
          "type": "address"
        }
      ],
      "stateMutability": "view",
      "type": "function"
    },
    {
      "inputs": [],
      "name": "renounceOwnership",
      "outputs": [],
      "stateMutability": "nonpayable",
      "type": "function"
    },
    {
      "inputs": [
        {
          "internalType": "address",
          "name": "newOwner",
          "type": "address"
        }
      ],
      "name": "transferOwnership",
      "outputs": [],
      "stateMutability": "nonpayable",
      "type": "function"
    },
    {
      "inputs": [
        {
          "internalType": "address",
          "name": "_user",
          "type": "address"
        }
      ],
      "name": "onlyRegistered",
      "outputs": [
        {
          "internalType": "bool",
          "name": "",
          "type": "bool"
        }
      ],
      "stateMutability": "view",
      "type": "function"
    },
    {
      "inputs": [
        {
          "internalType": "bytes",
          "name": "_signature",
          "type": "bytes"
        }
      ],
      "name": "register",
      "outputs": [],
      "stateMutability": "nonpayable",
      "type": "function"
    }
  ],
  "bytecode": "0x60806040523480156200001157600080fd5b506200001d3362000066565b6200005d6040518060400160405280601281526020017122b730b1363290283ab13634b19025b2bc9760711b815250620000b660201b620002cf1760201c565b60025562000342565b600080546001600160a01b038381166001600160a01b0319831681178455604051919092169283917f8be0079c531659141344cd1fd0a4f28419497f9722a3daafe3b4186f6b6457e09190a35050565b6000620000cf82516200010060201b6200030a1760201c565b82604051602001620000e39291906200029a565b604051602081830303815290604052805190602001209050919050565b606060006200011a83620001b060201b620003a71760201c565b60010190506000816001600160401b038111156200013c576200013c6200032c565b6040519080825280601f01601f19166020018201604052801562000167576020820181803683370190505b5090508181016020015b600019016f181899199a1a9b1b9c1cb0b131b232b360811b600a86061a8153600a8504945084620001a257620001a8565b62000171565b509392505050565b6000807a184f03e93ff9f4daa797ed6e38ed64bf6a1f0100000000000000008310620001fa577a184f03e93ff9f4daa797ed6e38ed64bf6a1f010000000000000000830492506040015b6d04ee2d6d415b85acef8100000000831062000227576d04ee2d6d415b85acef8100000000830492506020015b662386f26fc1000083106200024657662386f26fc10000830492506010015b6305f5e10083106200025f576305f5e100830492506008015b61271083106200027457612710830492506004015b6064831062000287576064830492506002015b600a831062000294576001015b92915050565b7f19457468657265756d205369676e6564204d6573736167653a0a000000000000815260008351620002d481601a850160208801620002f9565b835190830190620002ed81601a840160208801620002f9565b01601a01949350505050565b60005b8381101562000316578181015183820152602001620002fc565b8381111562000326576000848401525b50505050565b634e487b7160e01b600052604160045260246000fd5b6109be80620003526000396000f3fe608060405234801561001057600080fd5b506004361061007d5760003560e01c8063715018a61161005b578063715018a61461011057806382fbdc9c1461011a5780638da5cb5b1461012d578063f2fde38b1461014857600080fd5b806301471a4914610082578063604b4d911461009e57806363e00c78146100ed575b600080fd5b61008b60025481565b6040519081526020015b60405180910390f35b6100cf6100ac366004610781565b600160208190526000918252604090912080549181015460029091015460ff1683565b60408051938452602084019290925260ff1690820152606001610095565b6101006100fb366004610781565b61015b565b6040519015158152602001610095565b61011861018f565b005b6101186101283660046107ca565b6101a3565b6000546040516001600160a01b039091168152602001610095565b610118610156366004610781565b610256565b6001600160a01b03811660009081526001602052604081206002015460ff161561018757506001919050565b506000919050565b610197610480565b6101a160006104da565b565b6101b0336002548361052a565b6101f65760405162461bcd60e51b815260206004820152601260248201527124b73b30b634b21029b4b3b730ba3ab9329760711b60448201526064015b60405180910390fd5b60208181015160408084015160609485015182519586018352928552848401908152600092831a8583019081523384526001948590529190922093518455905191830191909155516002909101805460ff191660ff909216919091179055565b61025e610480565b6001600160a01b0381166102c35760405162461bcd60e51b815260206004820152602660248201527f4f776e61626c653a206e6577206f776e657220697320746865207a65726f206160448201526564647265737360d01b60648201526084016101ed565b6102cc816104da565b50565b60006102db825161030a565b826040516020016102ed929190610897565b604051602081830303815290604052805190602001209050919050565b60606000610317836103a7565b600101905060008167ffffffffffffffff81111561033757610337610972565b6040519080825280601f01601f191660200182016040528015610361576020820181803683370190505b5090508181016020015b600019016f181899199a1a9b1b9c1cb0b131b232b360811b600a86061a8153600a850494508461039a5761039f565b61036b565b509392505050565b60008072184f03e93ff9f4daa797ed6e38ed64bf6a1f0160401b83106103e65772184f03e93ff9f4daa797ed6e38ed64bf6a1f0160401b830492506040015b6d04ee2d6d415b85acef81000000008310610412576d04ee2d6d415b85acef8100000000830492506020015b662386f26fc10000831061043057662386f26fc10000830492506010015b6305f5e1008310610448576305f5e100830492506008015b612710831061045c57612710830492506004015b6064831061046e576064830492506002015b600a831061047a576001015b92915050565b6000546001600160a01b031633146101a15760405162461bcd60e51b815260206004820181905260248201527f4f776e61626c653a2063616c6c6572206973206e6f7420746865206f776e657260448201526064016101ed565b600080546001600160a01b038381166001600160a01b0319831681178455604051919092169283917f8be0079c531659141344cd1fd0a4f28419497f9722a3daafe3b4186f6b6457e09190a35050565b6000806000610539858561058b565b909250905060008160048111156105525761055261095c565b1480156105705750856001600160a01b0316826001600160a01b0316145b8061058157506105818686866105d1565b9695505050505050565b6000808251604114156105c25760208301516040840151606085015160001a6105b6878285856106bd565b945094505050506105ca565b506000905060025b9250929050565b6000806000856001600160a01b0316631626ba7e60e01b86866040516024016105fb9291906108f2565b60408051601f198184030181529181526020820180516001600160e01b03166001600160e01b0319909416939093179092529051610639919061087b565b600060405180830381855afa9150503d8060008114610674576040519150601f19603f3d011682016040523d82523d6000602084013e610679565b606091505b509150915081801561068d57506020815110155b801561058157508051630b135d3f60e11b906106b290830160209081019084016107b1565b149695505050505050565b6000807f7fffffffffffffffffffffffffffffff5d576e7357a4501ddfe92f46681b20a08311156106f45750600090506003610778565b6040805160008082526020820180845289905260ff881692820192909252606081018690526080810185905260019060a0016020604051602081039080840390855afa158015610748573d6000803e3d6000fd5b5050604051601f1901519150506001600160a01b03811661077157600060019250925050610778565b9150600090505b94509492505050565b60006020828403121561079357600080fd5b81356001600160a01b03811681146107aa57600080fd5b9392505050565b6000602082840312156107c357600080fd5b5051919050565b6000602082840312156107dc57600080fd5b813567ffffffffffffffff808211156107f457600080fd5b818401915084601f83011261080857600080fd5b81358181111561081a5761081a610972565b604051601f8201601f19908116603f0116810190838211818310171561084257610842610972565b8160405282815287602084870101111561085b57600080fd5b826020860160208301376000928101602001929092525095945050505050565b6000825161088d81846020870161092c565b9190910192915050565b7f19457468657265756d205369676e6564204d6573736167653a0a0000000000008152600083516108cf81601a85016020880161092c565b8351908301906108e681601a84016020880161092c565b01601a01949350505050565b828152604060208201526000825180604084015261091781606085016020870161092c565b601f01601f1916919091016060019392505050565b60005b8381101561094757818101518382015260200161092f565b83811115610956576000848401525b50505050565b634e487b7160e01b600052602160045260246000fd5b634e487b7160e01b600052604160045260246000fdfea2646970667358221220668feb3c95daf0b452daff6bc09d2a5c9e5fe6d1407c898ced0b7b4606d01ce364736f6c63430008050033",
  "immutableReferences": {},
  "source": "pragma solidity ^ 0.8.0;\n\nimport { Ownable } from \"@openzeppelin/contracts/access/Ownable.sol\";\n\nimport { ECDSA } from \"@openzeppelin/contracts/utils/cryptography/ECDSA.sol\";\n\nimport { SignatureChecker } from \"@openzeppelin/contracts/utils/cryptography/SignatureChecker.sol\";\n\ncontract PublicKeys is Ownable{\n\n    // Keys used to encrypt user message information\n    mapping(address => Key) public SignKeys;\n\n    // Struct to define keys of users.\n    struct Key{\n        bytes32 r;\n        bytes32 s;\n        uint8 v;\n    }\n\n    // Hash for SignKeys signature verification.\n    bytes32 public EnableHash;\n\n    constructor(){\n        EnableHash = ECDSA.toEthSignedMessageHash(bytes(\"Enable Public Key.\"));\n    }\n\n    function onlyRegistered(address _user) public view returns(bool){\n        if(SignKeys[_user].v != 0){\n            return true;\n        }\n        return false;\n       \n    }\n\n    function register(bytes memory _signature) public{\n\n        require(SignatureChecker.isValidSignatureNow(msg.sender, EnableHash, _signature), \"Invalid Signature.\");\n        \n        bytes32 _r;\n        bytes32 _s;\n        uint8 _v;\n        // ecrecover takes the signature parameters, and the only way to get them\n        // currently is to use assembly.\n        /// @solidity memory-safe-assembly\n        assembly {\n            _r := mload(add(_signature, 0x20))\n            _s := mload(add(_signature, 0x40))\n            _v := byte(0, mload(add(_signature, 0x60)))\n        }\n\n        SignKeys[msg.sender] = Key(_r, _s, _v);\n    }\n\n}",
  "sourcePath": "/home/stephensb/sb-labs/solidity-contracts/contracts/public-keys/PublicKeys.sol",
  "compiler": {
    "name": "solc",
    "version": "0.8.5+commit.a4f2e591.Emscripten.clang"
  },
  "schemaVersion": "3.4.16",
  "updatedAt": "2025-01-14T02:43:28.639Z",
  "devdoc": {
    "kind": "dev",
    "methods": {
      "owner()": {
        "details": "Returns the address of the current owner."
      },
      "renounceOwnership()": {
        "details": "Leaves the contract without owner. It will not be possible to call `onlyOwner` functions. Can only be called by the current owner. NOTE: Renouncing ownership will leave the contract without an owner, thereby disabling any functionality that is only available to the owner."
      },
      "transferOwnership(address)": {
        "details": "Transfers ownership of the contract to a new account (`newOwner`). Can only be called by the current owner."
      }
    },
    "version": 1
  },
  "userdoc": {
    "kind": "user",
    "methods": {},
    "version": 1
  }
}