{
  "contractName": "PublicKeys",
  "abi": [
    {
      "inputs": [],
      "stateMutability": "nonpayable",
      "type": "constructor"
    },
    {
      "anonymous": false,
      "inputs": [
        {
          "indexed": true,
          "internalType": "address",
          "name": "previousOwner",
          "type": "address"
        },
        {
          "indexed": true,
          "internalType": "address",
          "name": "newOwner",
          "type": "address"
        }
      ],
      "name": "OwnershipTransferred",
      "type": "event"
    },
    {
      "inputs": [],
      "name": "EnableHash",
      "outputs": [
        {
          "internalType": "bytes32",
          "name": "",
          "type": "bytes32"
        }
      ],
      "stateMutability": "view",
      "type": "function"
    },
    {
      "inputs": [
        {
          "internalType": "address",
          "name": "",
          "type": "address"
        }
      ],
      "name": "SignKeys",
      "outputs": [
        {
          "internalType": "bytes32",
          "name": "r",
          "type": "bytes32"
        },
        {
          "internalType": "bytes32",
          "name": "s",
          "type": "bytes32"
        },
        {
          "internalType": "uint8",
          "name": "v",
          "type": "uint8"
        }
      ],
      "stateMutability": "view",
      "type": "function"
    },
    {
      "inputs": [],
      "name": "owner",
      "outputs": [
        {
          "internalType": "address",
          "name": "",
          "type": "address"
        }
      ],
      "stateMutability": "view",
      "type": "function"
    },
    {
      "inputs": [],
      "name": "renounceOwnership",
      "outputs": [],
      "stateMutability": "nonpayable",
      "type": "function"
    },
    {
      "inputs": [
        {
          "internalType": "address",
          "name": "newOwner",
          "type": "address"
        }
      ],
      "name": "transferOwnership",
      "outputs": [],
      "stateMutability": "nonpayable",
      "type": "function"
    },
    {
      "inputs": [
        {
          "internalType": "bytes",
          "name": "_signature",
          "type": "bytes"
        }
      ],
      "name": "register",
      "outputs": [],
      "stateMutability": "nonpayable",
      "type": "function"
    }
  ],
  "bytecode": "0x60806040523480156200001157600080fd5b5062000026620000206200006f565b62000073565b620000666040518060400160405280601281526020017122b730b1363290283ab13634b19025b2bc9760711b815250620000c360201b620002041760201c565b60025562000345565b3390565b600080546001600160a01b038381166001600160a01b0319831681178455604051919092169283917f8be0079c531659141344cd1fd0a4f28419497f9722a3daafe3b4186f6b6457e09190a35050565b6000620000dc82516200010d60201b6200023f1760201c565b82604051602001620000f0929190620002b3565b604051602081830303815290604052805190602001209050919050565b606060006200012783620001c960201b620002ea1760201c565b60010190506000816001600160401b038111156200015557634e487b7160e01b600052604160045260246000fd5b6040519080825280601f01601f19166020018201604052801562000180576020820181803683370190505b5090508181016020015b600019016f181899199a1a9b1b9c1cb0b131b232b360811b600a86061a8153600a8504945084620001bb57620001c1565b6200018a565b509392505050565b6000807a184f03e93ff9f4daa797ed6e38ed64bf6a1f010000000000000000831062000213577a184f03e93ff9f4daa797ed6e38ed64bf6a1f010000000000000000830492506040015b6d04ee2d6d415b85acef8100000000831062000240576d04ee2d6d415b85acef8100000000830492506020015b662386f26fc1000083106200025f57662386f26fc10000830492506010015b6305f5e100831062000278576305f5e100830492506008015b61271083106200028d57612710830492506004015b60648310620002a0576064830492506002015b600a8310620002ad576001015b92915050565b60007f19457468657265756d205369676e6564204d6573736167653a0a00000000000082528351620002ed81601a85016020880162000312565b8351908301906200030681601a84016020880162000312565b01601a01949350505050565b60005b838110156200032f57818101518382015260200162000315565b838111156200033f576000848401525b50505050565b6109bd80620003556000396000f3fe608060405234801561001057600080fd5b50600436106100625760003560e01c806301471a4914610067578063604b4d9114610085578063715018a6146100a757806382fbdc9c146100b15780638da5cb5b146100c4578063f2fde38b146100d9575b600080fd5b61006f6100ec565b60405161007c9190610820565b60405180910390f35b6100986100933660046106ae565b6100f2565b60405161007c93929190610829565b6100af610115565b005b6100af6100bf3660046106f4565b610129565b6100cc6101bb565b60405161007c919061080c565b6100af6100e73660046106ae565b6101ca565b60025481565b600160208190526000918252604090912080549181015460029091015460ff1683565b61011d6103c3565b6101276000610402565b565b6101363360025483610452565b61015b5760405162461bcd60e51b81526004016101529061089a565b60405180910390fd5b60208181015160408084015160609485015182519586018352928552848401908152600092831a8583019081523384526001948590529190922093518455905191830191909155516002909101805460ff191660ff909216919091179055565b6000546001600160a01b031690565b6101d26103c3565b6001600160a01b0381166101f85760405162461bcd60e51b8152600401610152906108c6565b61020181610402565b50565b6000610210825161023f565b826040516020016102229291906107b1565b604051602081830303815290604052805190602001209050919050565b6060600061024c836102ea565b600101905060008167ffffffffffffffff81111561027a57634e487b7160e01b600052604160045260246000fd5b6040519080825280601f01601f1916602001820160405280156102a4576020820181803683370190505b5090508181016020015b600019016f181899199a1a9b1b9c1cb0b131b232b360811b600a86061a8153600a85049450846102dd576102e2565b6102ae565b509392505050565b60008072184f03e93ff9f4daa797ed6e38ed64bf6a1f0160401b83106103295772184f03e93ff9f4daa797ed6e38ed64bf6a1f0160401b830492506040015b6d04ee2d6d415b85acef81000000008310610355576d04ee2d6d415b85acef8100000000830492506020015b662386f26fc10000831061037357662386f26fc10000830492506010015b6305f5e100831061038b576305f5e100830492506008015b612710831061039f57612710830492506004015b606483106103b1576064830492506002015b600a83106103bd576001015b92915050565b6103cb6104c1565b6001600160a01b03166103dc6101bb565b6001600160a01b0316146101275760405162461bcd60e51b81526004016101529061090c565b600080546001600160a01b038381166001600160a01b0319831681178455604051919092169283917f8be0079c531659141344cd1fd0a4f28419497f9722a3daafe3b4186f6b6457e09190a35050565b600080600061046185856104c5565b9092509050600081600481111561048857634e487b7160e01b600052602160045260246000fd5b1480156104a65750856001600160a01b0316826001600160a01b0316145b806104b757506104b786868661050b565b9695505050505050565b3390565b6000808251604114156104fc5760208301516040840151606085015160001a6104f0878285856105f7565b94509450505050610504565b506000905060025b9250929050565b6000806000856001600160a01b0316631626ba7e60e01b8686604051602401610535929190610842565b60408051601f198184030181529181526020820180516001600160e01b03166001600160e01b03199094169390931790925290516105739190610795565b600060405180830381855afa9150503d80600081146105ae576040519150601f19603f3d011682016040523d82523d6000602084013e6105b3565b606091505b50915091508180156105c757506020815110155b80156104b757508051630b135d3f60e11b906105ec90830160209081019084016106dc565b149695505050505050565b6000807f7fffffffffffffffffffffffffffffff5d576e7357a4501ddfe92f46681b20a083111561062e57506000905060036106a5565b600060018787878760405160008152602001604052604051610653949392919061087c565b6020604051602081039080840390855afa158015610675573d6000803e3d6000fd5b5050604051601f1901519150506001600160a01b03811661069e576000600192509250506106a5565b9150600090505b94509492505050565b6000602082840312156106bf578081fd5b81356001600160a01b03811681146106d5578182fd5b9392505050565b6000602082840312156106ed578081fd5b5051919050565b60006020808385031215610706578182fd5b823567ffffffffffffffff8082111561071d578384fd5b818501915085601f830112610730578384fd5b81358181111561074257610742610971565b604051601f8201601f191681018501838111828210171561076557610765610971565b604052818152838201850188101561077b578586fd5b818585018683013790810190930193909352509392505050565b600082516107a7818460208701610941565b9190910192915050565b60007f19457468657265756d205369676e6564204d6573736167653a0a000000000000825283516107e981601a850160208801610941565b83519083019061080081601a840160208801610941565b01601a01949350505050565b6001600160a01b0391909116815260200190565b90815260200190565b928352602083019190915260ff16604082015260600190565b6000838252604060208301528251806040840152610867816060850160208701610941565b601f01601f1916919091016060019392505050565b93845260ff9290921660208401526040830152606082015260800190565b60208082526012908201527124b73b30b634b21029b4b3b730ba3ab9329760711b604082015260600190565b60208082526026908201527f4f776e61626c653a206e6577206f776e657220697320746865207a65726f206160408201526564647265737360d01b606082015260800190565b6020808252818101527f4f776e61626c653a2063616c6c6572206973206e6f7420746865206f776e6572604082015260600190565b60005b8381101561095c578181015183820152602001610944565b8381111561096b576000848401525b50505050565b634e487b7160e01b600052604160045260246000fdfea26469706673582212203b3aa398be32dd2cbcf9d3534ca0c7d2b06da8e0a4346f1865c97b5b9d2c3bc764736f6c63430008000033",
  "immutableReferences": {},
  "source": "pragma solidity ^ 0.8.0;\n\nimport { Ownable } from \"@openzeppelin/contracts/access/Ownable.sol\";\n\nimport { ECDSA } from \"@openzeppelin/contracts/utils/cryptography/ECDSA.sol\";\n\nimport { SignatureChecker } from \"@openzeppelin/contracts/utils/cryptography/SignatureChecker.sol\";\n\ncontract PublicKeys is Ownable{\n\n    // Keys used to encrypt user message information\n    mapping(address => Key) public SignKeys;\n\n    // Struct to define keys of users.\n    struct Key{\n        bytes32 r;\n        bytes32 s;\n        uint8 v;\n    }\n\n    // Hash for SignKeys signature verification.\n    bytes32 public EnableHash;\n\n    constructor(){\n        EnableHash = ECDSA.toEthSignedMessageHash(bytes(\"Enable Public Key.\"));\n    }\n\n    function register(bytes memory _signature) public{\n\n        require(SignatureChecker.isValidSignatureNow(msg.sender, EnableHash, _signature), \"Invalid Signature.\");\n        \n        bytes32 _r;\n        bytes32 _s;\n        uint8 _v;\n        // ecrecover takes the signature parameters, and the only way to get them\n        // currently is to use assembly.\n        /// @solidity memory-safe-assembly\n        assembly {\n            _r := mload(add(_signature, 0x20))\n            _s := mload(add(_signature, 0x40))\n            _v := byte(0, mload(add(_signature, 0x60)))\n        }\n\n        SignKeys[msg.sender] = Key(_r, _s, _v);\n    }\n\n}",
  "sourcePath": "/home/stephensb/sb-labs/solidity-contracts/contracts/public-keys/PublicKeys.sol",
  "compiler": {
    "name": "solc",
    "version": "0.8.0+commit.c7dfd78e.Emscripten.clang"
  },
  "schemaVersion": "3.4.12",
  "updatedAt": "2024-12-21T14:16:25.989Z",
  "devdoc": {
    "kind": "dev",
    "methods": {
      "owner()": {
        "details": "Returns the address of the current owner."
      },
      "renounceOwnership()": {
        "details": "Leaves the contract without owner. It will not be possible to call `onlyOwner` functions. Can only be called by the current owner. NOTE: Renouncing ownership will leave the contract without an owner, thereby disabling any functionality that is only available to the owner."
      },
      "transferOwnership(address)": {
        "details": "Transfers ownership of the contract to a new account (`newOwner`). Can only be called by the current owner."
      }
    },
    "version": 1
  },
  "userdoc": {
    "kind": "user",
    "methods": {},
    "version": 1
  }
}