{
  "contractName": "ScalingPriceFeed",
  "abi": [
    {
      "inputs": [
        {
          "internalType": "address",
          "name": "underlyingPriceFeed_",
          "type": "address"
        },
        {
          "internalType": "uint8",
          "name": "decimals_",
          "type": "uint8"
        }
      ],
      "stateMutability": "nonpayable",
      "type": "constructor"
    },
    {
      "inputs": [],
      "name": "InvalidInt256",
      "type": "error"
    },
    {
      "inputs": [],
      "name": "decimals",
      "outputs": [
        {
          "internalType": "uint8",
          "name": "",
          "type": "uint8"
        }
      ],
      "stateMutability": "view",
      "type": "function"
    },
    {
      "inputs": [],
      "name": "description",
      "outputs": [
        {
          "internalType": "string",
          "name": "",
          "type": "string"
        }
      ],
      "stateMutability": "view",
      "type": "function"
    },
    {
      "inputs": [],
      "name": "underlyingPriceFeed",
      "outputs": [
        {
          "internalType": "address",
          "name": "",
          "type": "address"
        }
      ],
      "stateMutability": "view",
      "type": "function"
    },
    {
      "inputs": [],
      "name": "version",
      "outputs": [
        {
          "internalType": "uint256",
          "name": "",
          "type": "uint256"
        }
      ],
      "stateMutability": "view",
      "type": "function"
    },
    {
      "inputs": [],
      "name": "latestRoundData",
      "outputs": [
        {
          "internalType": "uint80",
          "name": "roundId",
          "type": "uint80"
        },
        {
          "internalType": "int256",
          "name": "answer",
          "type": "int256"
        },
        {
          "internalType": "uint256",
          "name": "startedAt",
          "type": "uint256"
        },
        {
          "internalType": "uint256",
          "name": "updatedAt",
          "type": "uint256"
        },
        {
          "internalType": "uint80",
          "name": "answeredInRound",
          "type": "uint80"
        }
      ],
      "stateMutability": "view",
      "type": "function"
    }
  ],
  "bytecode": "0x61010060409080825234620003e0578181620009898038038091620000258285620003e5565b833981010312620003e05780516001600160a01b038116808203620003e0576200005360208094016200041f565b9160a052816080528351633942720b60e11b81526000918282600481845afa918215620001fa57839262000303575b5081516001600160401b038111620002ef578354926001938481811c91168015620002e4575b88821014620002d0579081601f8994931162000279575b508290601f83116001146200021057600494929187918362000204575b5050600019600383901b1c191690851b1785555b875163313ce56760e01b815292839182905afa948515620001fa578395620001b6575b505060ff831660ff851610600014620001ae57905b5060c08190521562000194576200014862000154926200014e926200042e565b62000457565b62000469565b60e052516104fb90816200048e82396080518161040a015260a051818181607e0152610442015260c0518160bf015260e05181818160e501526101be0152f35b620001486200014e91620001a8936200042e565b62000154565b508062000128565b9080929550813d8311620001f2575b620001d18183620003e5565b81010312620001ee57620001e5906200041f565b92388062000113565b5080fd5b503d620001c5565b86513d85823e3d90fd5b015190503880620000dc565b93918591601f1982169088805285892091895b81811062000260575096836004981062000246575b505050811b018555620000f0565b015160001960f88460031b161c1916905538808062000238565b8289015184558c978a9690940193928301920162000223565b90919250858052878620601f840160051c810191898510620002c5575b8994939291601f88920160051c01915b828110620002b6575050620000bf565b8881558a9550879101620002a6565b909150819062000296565b634e487b7160e01b86526022600452602486fd5b90607f1690620000a8565b634e487b7160e01b84526041600452602484fd5b9091503d8084833e620003178183620003e5565b8101908581830312620003dc5780516001600160401b0391828211620003d8570182601f82011215620003c0578051918211620003c45787519262000366601f8401601f1916890185620003e5565b828452878383010111620003c0578491879183905b828210620003a45750811062000397575b505050903862000082565b830101528285386200038c565b928092945081840101518282870101520191859288926200037b565b8480fd5b634e487b7160e01b85526041600452602485fd5b8580fd5b8380fd5b600080fd5b601f909101601f19168101906001600160401b038211908210176200040957604052565b634e487b7160e01b600052604160045260246000fd5b519060ff82168203620003e057565b60ff918216911681811062000441570390565b634e487b7160e01b600052601160045260246000fd5b60ff16604d81116200044157600a0a90565b6001600160ff1b0381116200047b5790565b60405163e7e828ad60e01b8152600490fdfe608060408181526004918236101561001657600080fd5b600090813560e01c9081632ac0a1a51461042e57508063313ce567146103f057806354fd4d50146103d05780637284e416146102815763feaf968c1461005b57600080fd5b3461026c578060031936011261026c578151633fabe5a360e21b815260a08185817f00000000000000000000000000000000000000000000000000000000000000006001600160a01b03165afa908115610277578280809181938295610214575b507f0000000000000000000000000000000000000000000000000000000000000000156101bc577f0000000000000000000000000000000000000000000000000000000000000000918082138184136001600160ff1b0382821686820486111661019657600160ff1b92848712929083168685058812166101a957868587129405861290841616610196578590058412911616610183575060a0975002945b80519569ffffffffffffffffffff809616875260208701528501526060840152166080820152f35b634e487b7160e01b815260118952602490fd5b634e487b7160e01b845260118c52602484fd5b634e487b7160e01b855260118d52602485fd5b7f000000000000000000000000000000000000000000000000000000000000000091821561020157600160ff1b8214600019841416610183575060a09750059461015b565b634e487b7160e01b815260128952602490fd5b9550509250505060a0823d821161026f575b8161023360a09383610471565b8101031261026c57610244826104a9565b60208301519284810151926102606080606084015193016104a9565b929493919293386100bc565b80fd5b3d9150610226565b83513d84823e3d90fd5b5091346103cc57826003193601126103cc5781519280815490600182811c9281811680156103c2575b60209687861082146103af5750848952889392918790821561038f575050600114610336575b506102e092509592950382610471565b8251938285938452825192838286015282915b84831061031e5750508210610312575b50601f01601f19168101030190f35b83828401015238610303565b818301810151888401880152879550918201916102f3565b84805285915084907f290decd9548b62a8d60345a988386fc84ba6bc95484008f6362f93160ef3e5635b8583106103775750506102e09350820101386102d0565b8054838b018501528994508793909201918101610360565b60ff1916858201526102e095151560051b85010192503891506102d09050565b634e487b7160e01b875260229052602486fd5b93607f16936102aa565b8280fd5b5090346103ec57816003193601126103ec576020905160018152f35b5080fd5b5090346103ec57816003193601126103ec576020905160ff7f0000000000000000000000000000000000000000000000000000000000000000168152f35b9050346103ec57816003193601126103ec577f00000000000000000000000000000000000000000000000000000000000000006001600160a01b03168152602090f35b90601f8019910116810190811067ffffffffffffffff82111761049357604052565b634e487b7160e01b600052604160045260246000fd5b519069ffffffffffffffffffff821682036104c057565b600080fdfea264697066735822122023994e5a619640978164110727cfdd7fd8543ef5f6dff3740e195c2ce9674a1d64736f6c634300080f0033",
  "immutableReferences": {
    "14451": [
      {
        "length": 32,
        "start": 1034
      }
    ],
    "14454": [
      {
        "length": 32,
        "start": 126
      },
      {
        "length": 32,
        "start": 1090
      }
    ],
    "14457": [
      {
        "length": 32,
        "start": 191
      }
    ],
    "14460": [
      {
        "length": 32,
        "start": 229
      },
      {
        "length": 32,
        "start": 446
      }
    ]
  },
  "source": "// SPDX-License-Identifier: BUSL-1.1\npragma solidity 0.8.15;\n\nimport \"../vendor/@chainlink/contracts/src/v0.8/interfaces/AggregatorV3Interface.sol\";\nimport \"../IPriceFeed.sol\";\n\n/**\n * @title Scaling price feed\n * @notice A custom price feed that scales up or down the price received from an underlying Chainlink price feed and returns the result\n * @author Compound\n */\ncontract ScalingPriceFeed is IPriceFeed {\n    /** Custom errors **/\n    error InvalidInt256();\n\n    /// @notice Version of the price feed\n    uint public constant override version = 1;\n\n    /// @notice Description of the price feed\n    string public description;\n\n    /// @notice Number of decimals for returned prices\n    uint8 public immutable override decimals;\n\n    /// @notice Underlying Chainlink price feed where prices are fetched from\n    address public immutable underlyingPriceFeed;\n\n    /// @notice Whether or not the price should be upscaled\n    bool internal immutable shouldUpscale;\n\n    /// @notice The amount to upscale or downscale the price by\n    int256 internal immutable rescaleFactor;\n\n    /**\n     * @notice Construct a new scaling price feed\n     * @param underlyingPriceFeed_ The address of the underlying price feed to fetch prices from\n     * @param decimals_ The number of decimals for the returned prices\n     **/\n    constructor(address underlyingPriceFeed_, uint8 decimals_) {\n        underlyingPriceFeed = underlyingPriceFeed_;\n        decimals = decimals_;\n        description = AggregatorV3Interface(underlyingPriceFeed_).description();\n\n        uint8 chainlinkPriceFeedDecimals = AggregatorV3Interface(underlyingPriceFeed_).decimals();\n        // Note: Solidity does not allow setting immutables in if/else statements\n        shouldUpscale = chainlinkPriceFeedDecimals < decimals_ ? true : false;\n        rescaleFactor = (shouldUpscale\n            ? signed256(10 ** (decimals_ - chainlinkPriceFeedDecimals))\n            : signed256(10 ** (chainlinkPriceFeedDecimals - decimals_))\n        );\n    }\n\n    /**\n     * @notice Price for the latest round\n     * @return roundId Round id from the underlying price feed\n     * @return answer Latest price for the asset in terms of ETH\n     * @return startedAt Timestamp when the round was started; passed on from underlying price feed\n     * @return updatedAt Timestamp when the round was last updated; passed on from underlying price feed\n     * @return answeredInRound Round id in which the answer was computed; passed on from underlying price feed\n     **/\n    function latestRoundData() override external view returns (\n        uint80 roundId,\n        int256 answer,\n        uint256 startedAt,\n        uint256 updatedAt,\n        uint80 answeredInRound\n    ) {\n        (uint80 roundId_, int256 price, uint256 startedAt_, uint256 updatedAt_, uint80 answeredInRound_) = AggregatorV3Interface(underlyingPriceFeed).latestRoundData();\n        return (roundId_, scalePrice(price), startedAt_, updatedAt_, answeredInRound_);\n    }\n\n    function signed256(uint256 n) internal pure returns (int256) {\n        if (n > uint256(type(int256).max)) revert InvalidInt256();\n        return int256(n);\n    }\n\n    function scalePrice(int256 price) internal view returns (int256) {\n        int256 scaledPrice;\n        if (shouldUpscale) {\n            scaledPrice = price * rescaleFactor;\n        } else {\n            scaledPrice = price / rescaleFactor;\n        }\n        return scaledPrice;\n    }\n}",
  "sourcePath": "/home/stephensb/sb-labs/solidity-contracts/contracts/comet/contracts/pricefeeds/ScalingPriceFeed.sol",
  "compiler": {
    "name": "solc",
    "version": "0.8.15+commit.e14f2714.Emscripten.clang"
  },
  "schemaVersion": "3.4.12",
  "updatedAt": "2023-11-30T22:41:29.714Z",
  "devdoc": {
    "author": "Compound",
    "kind": "dev",
    "methods": {
      "constructor": {
        "params": {
          "decimals_": "The number of decimals for the returned prices*",
          "underlyingPriceFeed_": "The address of the underlying price feed to fetch prices from"
        }
      },
      "latestRoundData()": {
        "returns": {
          "answer": "Latest price for the asset in terms of ETH",
          "answeredInRound": "Round id in which the answer was computed; passed on from underlying price feed*",
          "roundId": "Round id from the underlying price feed",
          "startedAt": "Timestamp when the round was started; passed on from underlying price feed",
          "updatedAt": "Timestamp when the round was last updated; passed on from underlying price feed"
        }
      }
    },
    "title": "Scaling price feed",
    "version": 1
  },
  "userdoc": {
    "errors": {
      "InvalidInt256()": [
        {
          "notice": "Custom errors *"
        }
      ]
    },
    "kind": "user",
    "methods": {
      "constructor": {
        "notice": "Construct a new scaling price feed"
      },
      "decimals()": {
        "notice": "Number of decimals for returned prices"
      },
      "description()": {
        "notice": "Description of the price feed"
      },
      "latestRoundData()": {
        "notice": "Price for the latest round"
      },
      "underlyingPriceFeed()": {
        "notice": "Underlying Chainlink price feed where prices are fetched from"
      },
      "version()": {
        "notice": "Version of the price feed"
      }
    },
    "notice": "A custom price feed that scales up or down the price received from an underlying Chainlink price feed and returns the result",
    "version": 1
  }
}