{
  "contractName": "ShopV0",
  "abi": [
    {
      "inputs": [
        {
          "internalType": "string[]",
          "name": "_product_name",
          "type": "string[]"
        },
        {
          "components": [
            {
              "internalType": "uint256",
              "name": "price",
              "type": "uint256"
            },
            {
              "internalType": "uint256",
              "name": "inventory",
              "type": "uint256"
            }
          ],
          "internalType": "struct ShopV0.Product[]",
          "name": "_product_info",
          "type": "tuple[]"
        },
        {
          "internalType": "address",
          "name": "_usdc",
          "type": "address"
        }
      ],
      "stateMutability": "nonpayable",
      "type": "constructor"
    },
    {
      "anonymous": false,
      "inputs": [
        {
          "indexed": false,
          "internalType": "address",
          "name": "_buyer",
          "type": "address"
        },
        {
          "indexed": false,
          "internalType": "string",
          "name": "_name",
          "type": "string"
        },
        {
          "indexed": false,
          "internalType": "uint256",
          "name": "_id",
          "type": "uint256"
        }
      ],
      "name": "Purchased",
      "type": "event"
    },
    {
      "inputs": [],
      "name": "Owner",
      "outputs": [
        {
          "internalType": "address",
          "name": "",
          "type": "address"
        }
      ],
      "stateMutability": "view",
      "type": "function"
    },
    {
      "inputs": [
        {
          "internalType": "uint256",
          "name": "",
          "type": "uint256"
        }
      ],
      "name": "Products",
      "outputs": [
        {
          "internalType": "string",
          "name": "",
          "type": "string"
        }
      ],
      "stateMutability": "view",
      "type": "function"
    },
    {
      "inputs": [
        {
          "internalType": "string",
          "name": "",
          "type": "string"
        }
      ],
      "name": "ProductsMap",
      "outputs": [
        {
          "internalType": "uint256",
          "name": "price",
          "type": "uint256"
        },
        {
          "internalType": "uint256",
          "name": "inventory",
          "type": "uint256"
        }
      ],
      "stateMutability": "view",
      "type": "function"
    },
    {
      "inputs": [],
      "name": "PurchaseID",
      "outputs": [
        {
          "internalType": "uint256",
          "name": "",
          "type": "uint256"
        }
      ],
      "stateMutability": "view",
      "type": "function"
    },
    {
      "inputs": [
        {
          "internalType": "uint256",
          "name": "",
          "type": "uint256"
        }
      ],
      "name": "Purchases",
      "outputs": [
        {
          "internalType": "uint256",
          "name": "id",
          "type": "uint256"
        },
        {
          "internalType": "address",
          "name": "buyer",
          "type": "address"
        },
        {
          "internalType": "string",
          "name": "name",
          "type": "string"
        },
        {
          "internalType": "string",
          "name": "encrypted_ship",
          "type": "string"
        },
        {
          "internalType": "enum ShopV0.Status",
          "name": "status",
          "type": "uint8"
        }
      ],
      "stateMutability": "view",
      "type": "function"
    },
    {
      "inputs": [],
      "name": "USDC",
      "outputs": [
        {
          "internalType": "contract IERC20",
          "name": "",
          "type": "address"
        }
      ],
      "stateMutability": "view",
      "type": "function"
    },
    {
      "inputs": [
        {
          "internalType": "string",
          "name": "_name",
          "type": "string"
        },
        {
          "internalType": "uint256",
          "name": "_price",
          "type": "uint256"
        },
        {
          "internalType": "uint256",
          "name": "_inventory",
          "type": "uint256"
        }
      ],
      "name": "addProduct",
      "outputs": [],
      "stateMutability": "nonpayable",
      "type": "function"
    },
    {
      "inputs": [
        {
          "internalType": "string",
          "name": "_name",
          "type": "string"
        },
        {
          "internalType": "uint256",
          "name": "_price",
          "type": "uint256"
        },
        {
          "internalType": "uint256",
          "name": "_inventory",
          "type": "uint256"
        }
      ],
      "name": "modifyProduct",
      "outputs": [],
      "stateMutability": "nonpayable",
      "type": "function"
    },
    {
      "inputs": [
        {
          "internalType": "string",
          "name": "_name",
          "type": "string"
        },
        {
          "internalType": "uint256",
          "name": "_id",
          "type": "uint256"
        }
      ],
      "name": "removeProduct",
      "outputs": [],
      "stateMutability": "nonpayable",
      "type": "function"
    },
    {
      "inputs": [
        {
          "internalType": "string",
          "name": "_name",
          "type": "string"
        },
        {
          "internalType": "string",
          "name": "_encrypted_ship",
          "type": "string"
        }
      ],
      "name": "purchase",
      "outputs": [],
      "stateMutability": "nonpayable",
      "type": "function"
    },
    {
      "inputs": [
        {
          "internalType": "uint256",
          "name": "_id",
          "type": "uint256"
        }
      ],
      "name": "ship",
      "outputs": [],
      "stateMutability": "nonpayable",
      "type": "function"
    },
    {
      "inputs": [
        {
          "internalType": "uint256",
          "name": "_id",
          "type": "uint256"
        },
        {
          "internalType": "uint256",
          "name": "_amount",
          "type": "uint256"
        }
      ],
      "name": "revoke",
      "outputs": [],
      "stateMutability": "nonpayable",
      "type": "function"
    },
    {
      "inputs": [],
      "name": "claim",
      "outputs": [],
      "stateMutability": "nonpayable",
      "type": "function"
    }
  ],
  "bytecode": "0x60a0604052346103a6576113c8803803806100198161045f565b9283398101906060818303126103a65780516001600160401b0381116103a65781019082601f830112156103a65781519161005b61005684610484565b61045f565b9260208085838152019160051b830101918583116103a65760208101915b8383106103ee575050505060208101516001600160401b0381116103a657810183601f820112156103a6578051906100b361005683610484565b9460208087858152019360061b830101918183116103a657602001925b8284106103aa576040850151879087906001600160a01b038116908190036103a6575f60025581518351036103615733608052600480546001600160a01b03191690911790555f9082905b805183101561031f5761012e838261049b565b51925f54680100000000000000008110156102f75760018101805f5581101561030b575f80528451947f290decd9548b62a8d60345a988386fc84ba6bc95484008f6362f93160ef3e56391909101906001600160401b0386116102f7578154600181811c911680156102ed575b60208210146102d957601f8111610294575b50602090601f871160011461022d5795809160019596975f92610222575b50505f19600383901b1c191690841b1790555b6101e8818561049b565b5182602080806101f8868961049b565b51604051928184925191829101835e8101858152030190209280518455015191015501919061011b565b0151905087806101cb565b90601f19871691835f52815f20925f5b81811061027c575091600196979892918388959310610264575b505050811b0190556101de565b01515f1960f88460031b161c19169055878080610257565b8284015185556001909401936020938401930161023d565b825f5260205f20601f880160051c810191602089106102cf575b601f0160051c01905b8181106102c457506101ad565b5f81556001016102b7565b90915081906102ae565b634e487b7160e01b5f52602260045260245ffd5b90607f169061019b565b634e487b7160e01b5f52604160045260245ffd5b634e487b7160e01b5f52603260045260245ffd5b604051610f1890816104b08239608051818181610148015281816103a8015281816104970152818161080f0152818161090101528181610a440152610ac50152f35b60405162461bcd60e51b815260206004820152601e60248201527f496e76616c696420696e697469616c2070726f6475637420666f726d617400006044820152606490fd5b5f80fd5b6040848303126103a6576040805191908201906001600160401b038211838310176102f75760409260209284528651815282870151838201528152019301926100d0565b82516001600160401b0381116103a657820187603f820112156103a6576020810151916001600160401b0383116102f757610432601f8401601f191660200161045f565b8381526040838501018a106103a6575f602085819660408397018386015e83010152815201920191610079565b6040519190601f01601f191682016001600160401b038111838210176102f757604052565b6001600160401b0381116102f75760051b60200190565b805182101561030b5760209160051b01019056fe60806040526004361015610011575f80fd5b5f3560e01c8063125b0b3414610aae57806322a6cef114610a91578063244f643b14610a2d57806324cbb86b146109cd57806329155de7146108ea5780634e71d92d146107fd5780638346881e146104ee57806389a30271146104c6578063b4a99a4e14610482578063be1b6fc614610388578063d2b1fbc4146102df578063d2bdefc81461010d5763dba3f6aa146100a8575f80fd5b34610109576020366003190112610109576004355f54811015610109576100ce90610d6c565b6100f6576100de6100f291610ca8565b604051918291602083526020830190610d48565b0390f35b634e487b7160e01b5f525f60045260245ffd5b5f80fd5b346101095760403660031901126101095760043567ffffffffffffffff81116101095761013e903690600401610be4565b60243590610176337f00000000000000000000000000000000000000000000000000000000000000006001600160a01b031614610d96565b61018861018283610d6c565b50610ca8565b9160405192602084018351946101b860208281880198808a875e81015f838201520301601f198101835282610bc2565b519020906040516101e86020828180820195805191829101875e81015f838201520301601f198101835282610bc2565b51902003610274576101f990610d6c565b9290926100f6576020600192846102115f9654610c70565b9081610235575b5050604051928391518091835e8101848152030190208281550155005b81601f889311871461024b5750555b8580610218565b81835284832061026591601f0160051c8101908801610dbb565b80825281848120915555610244565b60405162461bcd60e51b815260206004820152603a60248201527f546865206964206f72206e616d65206f66207468652070726f6475637420746f60448201527f2062652072656d6f7665642077617320696e636f72726563742e0000000000006064820152608490fd5b34610109576020366003190112610109576004355f52600360205260405f2080549061036060018060a01b036001830154169161035261032160028301610ca8565b60ff600461033160038601610ca8565b9401541694604051968752602087015260a0604087015260a0860190610d48565b908482036060860152610d48565b600382101561037457829160808301520390f35b634e487b7160e01b5f52602160045260245ffd5b34610109576040366003190112610109575f602061043d6004356103d6337f00000000000000000000000000000000000000000000000000000000000000006001600160a01b031614610d96565b808452600380845260408086206004908101805460ff19166002179055805493875291855280862060010154905163a9059cbb60e01b81526001600160a01b0391821692810192909252602480359083015290948593929091169183919082906044820190565b03925af180156104775761044d57005b61046e9060203d602011610470575b6104668183610bc2565b810190610eca565b005b503d61045c565b6040513d5f823e3d90fd5b34610109575f366003190112610109576040517f00000000000000000000000000000000000000000000000000000000000000006001600160a01b03168152602090f35b34610109575f366003190112610109576004546040516001600160a01b039091168152602090f35b346101095760403660031901126101095760043567ffffffffffffffff81116101095761051f903690600401610be4565b60243567ffffffffffffffff81116101095761053f903690600401610be4565b90604051815190602081818501938085835e81016001815203019020541515806107dc575b156107975760048054604051636eb1769f60e11b815230928101929092523360248301526001600160a01b03169190602081604481865afa908115610477575f91610765575b5060405160208186518086835e810160018152030190205411610109575f91606460209283604051809288518091835e810160018152030190205460405194859384926323b872dd60e01b845233600485015230602485015260448401525af1801561047757610748575b506002545f19811461073457600101918260025560405160a0810181811067ffffffffffffffff821117610720576004926106b9916040528583526106af6020840133815260408501908782526060860193845260808601985f8a525f52600360205260405f2095518655600186019060018060a01b039051166bffffffffffffffffffffffff60a01b8254161790555160028501610dd1565b5160038301610dd1565b019151906003821015610374577faa062fc7ccb9cdc876ccf889751726211ebb32ff49e1974de57579e3afbfc1e8926107159260ff80198354169116179055600254604051928392338452606060208501526060840190610d48565b9060408301520390a1005b634e487b7160e01b5f52604160045260245ffd5b634e487b7160e01b5f52601160045260245ffd5b6107609060203d602011610470576104668183610bc2565b610615565b90506020813d60201161078f575b8161078060209383610bc2565b810103126101095751856105aa565b3d9150610773565b60405162461bcd60e51b815260206004820152601c60248201527f496e76616c69642070726f64756374206f7220696e76656e746f7279000000006044820152606490fd5b50600160405160208185518086835e81018481520301902001541515610564565b34610109575f366003190112610109577f0000000000000000000000000000000000000000000000000000000000000000610842336001600160a01b03831614610d96565b600480546040516370a0823160e01b815230928101929092526001600160a01b031691602082602481865afa918215610477575f926108b4575b5060405163a9059cbb60e01b81526001600160a01b0390911660048201526024810191909152906020908290815f816044810161043d565b91506020823d6020116108e2575b816108cf60209383610bc2565b810103126101095790519061043d61087c565b3d91506108c2565b34610109576108f836610c3a565b90919061092f337f00000000000000000000000000000000000000000000000000000000000000006001600160a01b031614610d96565b604051825190602081818601938085835e8101600181520301902054156109885760206001936040519561096287610ba6565b8652818601938452604051928391518091835e8101858152030190209251835551910155005b60405162461bcd60e51b815260206004820152601760248201527f54686520686173206e6f74206265656e2061646465642e0000000000000000006044820152606490fd5b346101095760203660031901126101095760043567ffffffffffffffff811161010957602080610a036040933690600401610be4565b8351928184925191829101835e810160018152030190206001815491015482519182526020820152f35b3461010957602036600319011261010957610a72337f00000000000000000000000000000000000000000000000000000000000000006001600160a01b031614610d96565b600480355f90815260036020526040902001805460ff19166001179055005b34610109575f366003190112610109576020600254604051908152f35b3461010957610abc36610c3a565b909190610af3337f00000000000000000000000000000000000000000000000000000000000000006001600160a01b031614610d96565b604051825190602081818601938085835e8101600181520301902054610b55575f546801000000000000000081101561072057806001610b3592015f55610d6c565b6100f65783610b48600195602093610dd1565b6040519561096287610ba6565b60405162461bcd60e51b815260206004820152602360248201527f5468652070726f647563742068617320616c7265616479206265656e2061646460448201526232b21760e91b6064820152608490fd5b6040810190811067ffffffffffffffff82111761072057604052565b90601f8019910116810190811067ffffffffffffffff82111761072057604052565b81601f820112156101095780359067ffffffffffffffff82116107205760405192610c19601f8401601f191660200185610bc2565b8284526020838301011161010957815f926020809301838601378301015290565b6060600319820112610109576004359067ffffffffffffffff821161010957610c6591600401610be4565b906024359060443590565b90600182811c92168015610c9e575b6020831014610c8a57565b634e487b7160e01b5f52602260045260245ffd5b91607f1691610c7f565b9060405191825f825492610cbb84610c70565b8084529360018116908115610d265750600114610ce2575b50610ce092500383610bc2565b565b90505f9291925260205f20905f915b818310610d0a575050906020610ce0928201015f610cd3565b6020919350806001915483858901015201910190918492610cf1565b905060209250610ce094915060ff191682840152151560051b8201015f610cd3565b805180835260209291819084018484015e5f828201840152601f01601f1916010190565b5f54811015610d82575f805260205f2001905f90565b634e487b7160e01b5f52603260045260245ffd5b15610d9d57565b60405162461bcd60e51b8152602060048201525f6024820152604490fd5b818110610dc6575050565b5f8155600101610dbb565b919091825167ffffffffffffffff811161072057610def8254610c70565b601f8111610e8f575b506020601f8211600114610e3157819293945f92610e26575b50508160011b915f199060031b1c1916179055565b015190505f80610e11565b601f19821690835f52805f20915f5b818110610e7757509583600195969710610e5f575b505050811b019055565b01515f1960f88460031b161c191690555f8080610e55565b9192602060018192868b015181550194019201610e40565b610eba90835f5260205f20601f840160051c81019160208510610ec0575b601f0160051c0190610dbb565b5f610df8565b9091508190610ead565b9081602091031261010957518015158103610109579056fea264697066735822122001bd34d3eb224eb4c02302680d9f1a3033b3f0e0e80fb72010066489784c5de664736f6c634300081c0033",
  "immutableReferences": {
    "5615": [
      {
        "length": 32,
        "start": 328
      },
      {
        "length": 32,
        "start": 936
      },
      {
        "length": 32,
        "start": 1175
      },
      {
        "length": 32,
        "start": 2063
      },
      {
        "length": 32,
        "start": 2305
      },
      {
        "length": 32,
        "start": 2628
      },
      {
        "length": 32,
        "start": 2757
      }
    ]
  },
  "source": "// SPDX-License-Identifier: MIT\npragma solidity ^ 0.8.0;\n\nimport { IERC20 } from \"@openzeppelin/contracts/token/ERC20/IERC20.sol\";\nimport { Helper } from \"../helper/Helper.sol\";\n\n// Contract For a sigle item purchase Shop\ncontract ShopV0 {\n\n    // Address of the Onwer of the Shop\n    address public immutable Owner;\n\n    // Array of products.\n    string[] public Products;\n    \n    // Mapping to hold information of the product with the given name.\n    mapping(string => Product) public ProductsMap;\n\n    // Variable to reference the Purchase made.\n    uint public PurchaseID = 0;\n\n    mapping(uint256 => Purchase) public Purchases;\n\n    // Variable to hold USDC contract\n    IERC20 public USDC;\n\n    // Modifier to ensure the owner is calling the method.\n    modifier onlyOwner(){\n        require(msg.sender == Owner, \"\");\n        _;\n    }\n\n    // Struct to hold Product Information.\n    struct Product{\n        uint256 price;\n        uint256 inventory;\n    }\n\n    // Enum to define status of purchase.\n    enum Status{\n        purchased,\n        shipped,\n        revoked\n    }\n\n    // Struct to define a purchase.\n    struct Purchase {\n        uint256 id;\n        address buyer;\n        string name;\n        string encrypted_ship;\n        Status status;\n    }\n\n    // Event to emit that an item was Purchased.\n    event Purchased(address _buyer, string _name, uint256 _id);\n\n    // Constructor \n    constructor(string[] memory _product_name, Product[] memory _product_info, address _usdc){\n        require(_product_name.length == _product_info.length, \"Invalid initial product format\");\n        Owner = msg.sender;\n        USDC = IERC20(_usdc);\n        for(uint i = 0; i < _product_name.length; i++){\n            Products.push(_product_name[i]);\n            ProductsMap[_product_name[i]] = _product_info[i];\n        }\n    }\n\n    /*\n    * Function to add a product to the Shop.\n    * @Param _name, name of the product.\n    * @Param _price, price of the product.\n    * @Param _inventory, initial inventory of the product.\n    */\n    function addProduct(string memory _name, uint _price, uint _inventory) public onlyOwner{\n        require(ProductsMap[_name].price == 0, \"The product has already been added.\");\n        Products.push(_name);\n        ProductsMap[_name] = Product(_price, _inventory);\n    }\n\n    /*\n    * Function to modify a product in the shop.\n    * @Param _name, name of the product.\n    * @Param _price, price of the product.\n    * @Param _inventory, inventory of the product.\n    */\n    function modifyProduct(string memory _name, uint _price, uint _inventory) public onlyOwner{\n        require(ProductsMap[_name].price != 0, \"The has not been added.\");\n        ProductsMap[_name] = Product(_price, _inventory);\n    }\n\n    /*\n    * Function to remove a product from the shop.\n    * @Param _name, name of the product\n    */\n    function removeProduct(string memory _name, uint _id) public onlyOwner{\n        require(Helper.compareStrings(_name, Products[_id]), \"The id or name of the product to be removed was incorrect.\");\n        delete Products[_id];\n        delete ProductsMap[_name];\n    }\n\n    /*\n    * Function to purchase a product by the sender (buyer)\n    * @Param _name, name of the product to purchase\n    * @Param _encrypted_ship, the encrypted shipping information for the purchaser.\n    */\n    function purchase(string memory _name, string memory _encrypted_ship) public{\n        require(ProductsMap[_name].price != 0 && ProductsMap[_name].inventory != 0, \"Invalid product or inventory\");\n        require(USDC.allowance(address(this), msg.sender) >= ProductsMap[_name].price);\n        USDC.transferFrom(msg.sender, address(this), ProductsMap[_name].price);\n        ++PurchaseID;\n        Purchases[PurchaseID] = Purchase(PurchaseID, msg.sender, _name, _encrypted_ship, Status.purchased);\n        emit Purchased(msg.sender, _name, PurchaseID);\n    }\n\n    /* \n    *  Function to indicate an item has been shiped\n    * @Param _id, id of the purchase\n    */\n    function ship(uint256 _id) public onlyOwner{\n        Purchases[_id].status = Status.shipped;\n    }\n\n    /*\n    * Function to revoke a perchase of the buyer\n    * @Param _id, id of the purchase\n    * @Param _amount, amount of USDC to be sent back to the buyer.\n    */\n    function revoke(uint _id, uint _amount) public onlyOwner{\n        Purchases[_id].status = Status.revoked;\n        USDC.transfer(Purchases[_id].buyer, _amount);\n    }\n\n    /*\n    *   Function to claim revenue from contract. // called after potential revoke for efficiency.\n    */\n    function claim() public onlyOwner{\n        USDC.transfer(Owner, USDC.balanceOf(address(this)));\n    }\n}",
  "sourcePath": "/home/stephensb/sb-labs/solidity-contracts/contracts/shop/ShopV0.sol",
  "compiler": {
    "name": "solc",
    "version": "0.8.28+commit.7893614a.Emscripten.clang"
  },
  "schemaVersion": "3.4.12",
  "updatedAt": "2024-12-18T07:36:00.847Z",
  "devdoc": {
    "kind": "dev",
    "methods": {},
    "version": 1
  },
  "userdoc": {
    "kind": "user",
    "methods": {},
    "version": 1
  }
}