{
  "contractName": "Shop",
  "abi": [
    {
      "inputs": [
        {
          "internalType": "string[]",
          "name": "_product_name",
          "type": "string[]"
        },
        {
          "components": [
            {
              "internalType": "uint256",
              "name": "id",
              "type": "uint256"
            },
            {
              "internalType": "uint256",
              "name": "price",
              "type": "uint256"
            },
            {
              "internalType": "uint256",
              "name": "inventory",
              "type": "uint256"
            },
            {
              "internalType": "uint256",
              "name": "holds",
              "type": "uint256"
            },
            {
              "internalType": "uint256",
              "name": "last_purchase",
              "type": "uint256"
            }
          ],
          "internalType": "struct Shop.Product[]",
          "name": "_product_info",
          "type": "tuple[]"
        },
        {
          "internalType": "address",
          "name": "_usdc",
          "type": "address"
        },
        {
          "internalType": "bytes",
          "name": "_signature",
          "type": "bytes"
        }
      ],
      "stateMutability": "nonpayable",
      "type": "constructor"
    },
    {
      "anonymous": false,
      "inputs": [
        {
          "indexed": false,
          "internalType": "address",
          "name": "buyer",
          "type": "address"
        },
        {
          "components": [
            {
              "internalType": "string[]",
              "name": "names",
              "type": "string[]"
            },
            {
              "internalType": "uint256[]",
              "name": "inventory",
              "type": "uint256[]"
            },
            {
              "internalType": "bool[]",
              "name": "accepted",
              "type": "bool[]"
            },
            {
              "internalType": "string",
              "name": "encrypted_ship",
              "type": "string"
            }
          ],
          "indexed": false,
          "internalType": "struct Shop.Cart",
          "name": "cart",
          "type": "tuple"
        },
        {
          "indexed": false,
          "internalType": "uint256",
          "name": "id",
          "type": "uint256"
        }
      ],
      "name": "Purchased",
      "type": "event"
    },
    {
      "inputs": [],
      "name": "EnableHash",
      "outputs": [
        {
          "internalType": "bytes32",
          "name": "",
          "type": "bytes32"
        }
      ],
      "stateMutability": "view",
      "type": "function"
    },
    {
      "inputs": [],
      "name": "Owner",
      "outputs": [
        {
          "internalType": "address",
          "name": "",
          "type": "address"
        }
      ],
      "stateMutability": "view",
      "type": "function"
    },
    {
      "inputs": [],
      "name": "ProductCount",
      "outputs": [
        {
          "internalType": "uint256",
          "name": "",
          "type": "uint256"
        }
      ],
      "stateMutability": "view",
      "type": "function"
    },
    {
      "inputs": [
        {
          "internalType": "uint256",
          "name": "",
          "type": "uint256"
        }
      ],
      "name": "Products",
      "outputs": [
        {
          "internalType": "string",
          "name": "",
          "type": "string"
        }
      ],
      "stateMutability": "view",
      "type": "function"
    },
    {
      "inputs": [
        {
          "internalType": "string",
          "name": "",
          "type": "string"
        }
      ],
      "name": "ProductsMap",
      "outputs": [
        {
          "internalType": "uint256",
          "name": "id",
          "type": "uint256"
        },
        {
          "internalType": "uint256",
          "name": "price",
          "type": "uint256"
        },
        {
          "internalType": "uint256",
          "name": "inventory",
          "type": "uint256"
        },
        {
          "internalType": "uint256",
          "name": "holds",
          "type": "uint256"
        },
        {
          "internalType": "uint256",
          "name": "last_purchase",
          "type": "uint256"
        }
      ],
      "stateMutability": "view",
      "type": "function"
    },
    {
      "inputs": [],
      "name": "PurchaseID",
      "outputs": [
        {
          "internalType": "uint256",
          "name": "",
          "type": "uint256"
        }
      ],
      "stateMutability": "view",
      "type": "function"
    },
    {
      "inputs": [
        {
          "internalType": "uint256",
          "name": "",
          "type": "uint256"
        }
      ],
      "name": "Purchases",
      "outputs": [
        {
          "internalType": "uint256",
          "name": "id",
          "type": "uint256"
        },
        {
          "internalType": "address",
          "name": "buyer",
          "type": "address"
        },
        {
          "components": [
            {
              "internalType": "string[]",
              "name": "names",
              "type": "string[]"
            },
            {
              "internalType": "uint256[]",
              "name": "inventory",
              "type": "uint256[]"
            },
            {
              "internalType": "bool[]",
              "name": "accepted",
              "type": "bool[]"
            },
            {
              "internalType": "string",
              "name": "encrypted_ship",
              "type": "string"
            }
          ],
          "internalType": "struct Shop.Cart",
          "name": "cart",
          "type": "tuple"
        },
        {
          "internalType": "enum Shop.Status",
          "name": "status",
          "type": "uint8"
        }
      ],
      "stateMutability": "view",
      "type": "function"
    },
    {
      "inputs": [],
      "name": "SignKey",
      "outputs": [
        {
          "internalType": "bytes32",
          "name": "r",
          "type": "bytes32"
        },
        {
          "internalType": "bytes32",
          "name": "s",
          "type": "bytes32"
        },
        {
          "internalType": "uint8",
          "name": "v",
          "type": "uint8"
        }
      ],
      "stateMutability": "view",
      "type": "function"
    },
    {
      "inputs": [],
      "name": "USDC",
      "outputs": [
        {
          "internalType": "contract IERC20",
          "name": "",
          "type": "address"
        }
      ],
      "stateMutability": "view",
      "type": "function"
    },
    {
      "inputs": [
        {
          "internalType": "string",
          "name": "_name",
          "type": "string"
        },
        {
          "components": [
            {
              "internalType": "uint256",
              "name": "id",
              "type": "uint256"
            },
            {
              "internalType": "uint256",
              "name": "price",
              "type": "uint256"
            },
            {
              "internalType": "uint256",
              "name": "inventory",
              "type": "uint256"
            },
            {
              "internalType": "uint256",
              "name": "holds",
              "type": "uint256"
            },
            {
              "internalType": "uint256",
              "name": "last_purchase",
              "type": "uint256"
            }
          ],
          "internalType": "struct Shop.Product",
          "name": "_info",
          "type": "tuple"
        }
      ],
      "name": "addProduct",
      "outputs": [],
      "stateMutability": "nonpayable",
      "type": "function"
    },
    {
      "inputs": [
        {
          "internalType": "string[]",
          "name": "_names",
          "type": "string[]"
        },
        {
          "components": [
            {
              "internalType": "uint256",
              "name": "id",
              "type": "uint256"
            },
            {
              "internalType": "uint256",
              "name": "price",
              "type": "uint256"
            },
            {
              "internalType": "uint256",
              "name": "inventory",
              "type": "uint256"
            },
            {
              "internalType": "uint256",
              "name": "holds",
              "type": "uint256"
            },
            {
              "internalType": "uint256",
              "name": "last_purchase",
              "type": "uint256"
            }
          ],
          "internalType": "struct Shop.Product[]",
          "name": "_info",
          "type": "tuple[]"
        }
      ],
      "name": "addProducts",
      "outputs": [],
      "stateMutability": "nonpayable",
      "type": "function"
    },
    {
      "inputs": [
        {
          "internalType": "string",
          "name": "_name",
          "type": "string"
        },
        {
          "components": [
            {
              "internalType": "uint256",
              "name": "id",
              "type": "uint256"
            },
            {
              "internalType": "uint256",
              "name": "price",
              "type": "uint256"
            },
            {
              "internalType": "uint256",
              "name": "inventory",
              "type": "uint256"
            },
            {
              "internalType": "uint256",
              "name": "holds",
              "type": "uint256"
            },
            {
              "internalType": "uint256",
              "name": "last_purchase",
              "type": "uint256"
            }
          ],
          "internalType": "struct Shop.Product",
          "name": "_info",
          "type": "tuple"
        }
      ],
      "name": "modifyProduct",
      "outputs": [],
      "stateMutability": "nonpayable",
      "type": "function"
    },
    {
      "inputs": [
        {
          "internalType": "string[]",
          "name": "_names",
          "type": "string[]"
        },
        {
          "components": [
            {
              "internalType": "uint256",
              "name": "id",
              "type": "uint256"
            },
            {
              "internalType": "uint256",
              "name": "price",
              "type": "uint256"
            },
            {
              "internalType": "uint256",
              "name": "inventory",
              "type": "uint256"
            },
            {
              "internalType": "uint256",
              "name": "holds",
              "type": "uint256"
            },
            {
              "internalType": "uint256",
              "name": "last_purchase",
              "type": "uint256"
            }
          ],
          "internalType": "struct Shop.Product[]",
          "name": "_info",
          "type": "tuple[]"
        }
      ],
      "name": "modifyProducts",
      "outputs": [],
      "stateMutability": "nonpayable",
      "type": "function"
    },
    {
      "inputs": [
        {
          "internalType": "string",
          "name": "_name",
          "type": "string"
        }
      ],
      "name": "removeProduct",
      "outputs": [],
      "stateMutability": "nonpayable",
      "type": "function"
    },
    {
      "inputs": [
        {
          "internalType": "string[]",
          "name": "_names",
          "type": "string[]"
        }
      ],
      "name": "removeProducts",
      "outputs": [],
      "stateMutability": "nonpayable",
      "type": "function"
    },
    {
      "inputs": [
        {
          "components": [
            {
              "internalType": "string[]",
              "name": "names",
              "type": "string[]"
            },
            {
              "internalType": "uint256[]",
              "name": "inventory",
              "type": "uint256[]"
            },
            {
              "internalType": "bool[]",
              "name": "accepted",
              "type": "bool[]"
            },
            {
              "internalType": "string",
              "name": "encrypted_ship",
              "type": "string"
            }
          ],
          "internalType": "struct Shop.Cart",
          "name": "_cart",
          "type": "tuple"
        }
      ],
      "name": "purchase",
      "outputs": [],
      "stateMutability": "nonpayable",
      "type": "function"
    },
    {
      "inputs": [
        {
          "internalType": "uint256",
          "name": "_id",
          "type": "uint256"
        },
        {
          "components": [
            {
              "internalType": "string[]",
              "name": "names",
              "type": "string[]"
            },
            {
              "internalType": "uint256[]",
              "name": "inventory",
              "type": "uint256[]"
            },
            {
              "internalType": "bool[]",
              "name": "accepted",
              "type": "bool[]"
            },
            {
              "internalType": "string",
              "name": "encrypted_ship",
              "type": "string"
            }
          ],
          "internalType": "struct Shop.Cart",
          "name": "_cart",
          "type": "tuple"
        }
      ],
      "name": "ship",
      "outputs": [],
      "stateMutability": "nonpayable",
      "type": "function"
    },
    {
      "inputs": [
        {
          "internalType": "uint256",
          "name": "_id",
          "type": "uint256"
        },
        {
          "components": [
            {
              "internalType": "string[]",
              "name": "names",
              "type": "string[]"
            },
            {
              "internalType": "uint256[]",
              "name": "inventory",
              "type": "uint256[]"
            },
            {
              "internalType": "bool[]",
              "name": "accepted",
              "type": "bool[]"
            },
            {
              "internalType": "string",
              "name": "encrypted_ship",
              "type": "string"
            }
          ],
          "internalType": "struct Shop.Cart",
          "name": "_cart",
          "type": "tuple"
        },
        {
          "internalType": "uint256",
          "name": "_amount",
          "type": "uint256"
        }
      ],
      "name": "revoke",
      "outputs": [],
      "stateMutability": "nonpayable",
      "type": "function"
    },
    {
      "inputs": [],
      "name": "claim",
      "outputs": [],
      "stateMutability": "nonpayable",
      "type": "function"
    }
  ],
  "bytecode": "0x60a0806040523461060057613508803803809161001c8285610770565b83398101906080818303126106005780516001600160401b03811161060057810182601f8201121561060057805161005381610793565b916100616040519384610770565b81835260208084019260051b820101908582116106005760208101925b828410610732575050505060208201516001600160401b0381116106005782019280601f850112156106005783516100b581610793565b946100c36040519687610770565b818652602060a081880193028201019083821161060057602001915b8183106106cf5750505060408301516001600160a01b0381169390849003610600576060810151906001600160401b03821161060057019080601f83011215610600578151610130926020016107c5565b915f600355815184510361068a5733608052600580546001600160a01b0319169190911790555f5b8151811015610384578061016c81866107fb565b515261017881836107fb565b515f546801000000000000000081101561035c5760018101805f55811015610370575f805281517f290decd9548b62a8d60345a988386fc84ba6bc95484008f6362f93160ef3e56391909101916001600160401b03821161035c578254600181811c91168015610352575b602082101461033e57601f81116102f9575b50602090601f8311600114610292576001949392915f9183610287575b50505f19600383901b1c191690841b1790555b61022f81866107fb565b516004608060208061024186896107fb565b51604051928184925191829101835e8101600281520301902092805184556020810151868501556040810151600285015560608101516003850155015191015501610158565b015190505f80610212565b90601f19831691845f52815f20925f5b8181106102e15750916001969594929183889593106102c9575b505050811b019055610225565b01515f1960f88460031b161c191690555f80806102bc565b929360206001819287860151815501950193016102a2565b835f5260205f20601f840160051c81019160208510610334575b601f0160051c01905b81811061032957506101f5565b5f815560010161031c565b9091508190610313565b634e487b7160e01b5f52602260045260245ffd5b90607f16906101e3565b634e487b7160e01b5f52604160045260245ffd5b634e487b7160e01b5f52603260045260245ffd5b50516001549081018091116106765760015560409081516103a58382610770565b600f815260208101906e456e61626c65205368697070696e6760881b8252600f916001926103d360026107aa565b936103e087519586610770565b600285526103ee60026107aa565b602086019290601f190136843760228601825b610640575b505050603a61046592875194859360208501977f19457468657265756d205369676e6564204d6573736167653a0a00000000000089525180918587015e840190838201905f8252519283915e01015f815203601f198101835282610770565b51902080600955610476828261080f565b600581939293101561062c57159182610619575b508115610548575b5015610510576020810151906060838201519101515f1a9160065560075560ff19600854161760085551612c4790816108c18239608051818181610123015281816102010152818161033201528181610e0601528181610e4a01528181610f51015281816110da01528181611d7601528181611f2c015261221d0152f35b815162461bcd60e51b8152602060048201526011602482015270496e76616c6964205369676e617475726560781b6044820152606490fd5b5f9150819084516020810191630b135d3f60e11b8352602482015285604482015261059f60848287518060648301528060208a018484015e86838284010152601f801991011681010301601f198101835282610770565b5190335afa3d15610612573d6105b4816107aa565b906105c185519283610770565b81523d5f602083013e5b81610604575b816105de575b5083610492565b90506020818051810103126106005760200151630b135d3f60e11b14836105d7565b5f80fd5b9050602081511015906105d1565b60606105cb565b6001600160a01b0316331491508461048a565b634e487b7160e01b5f52602160045260245ffd5b5f190190600a906f181899199a1a9b1b9c1cb0b131b232b360811b8282061a83530491821561067157919082610401565b610406565b634e487b7160e01b5f52601160045260245ffd5b60405162461bcd60e51b815260206004820152601e60248201527f496e76616c696420696e697469616c2070726f6475637420666f726d617400006044820152606490fd5b60a083850312610600576040519060a08201906001600160401b0382118383101761035c5760a0926020926040528551815282860151838201526040860151604082015260608601516060820152608086015160808201528152019201916100df565b83516001600160401b03811161060057820187603f820112156106005760209161076589836040868096015191016107c5565b81520193019261007e565b601f909101601f19168101906001600160401b0382119082101761035c57604052565b6001600160401b03811161035c5760051b60200190565b6001600160401b03811161035c57601f01601f191660200190565b9291926107d1826107aa565b916107df6040519384610770565b829481845281830111610600578281602093845f96015e010152565b80518210156103705760209160051b010190565b9060418151145f1461083b5761083791602082015190606060408401519301515f1a90610844565b9091565b50505f90600290565b6fa2a8918ca85bafe22016d0b997e4df60600160ff1b0384116108b5576020935f9360ff60809460405194855216868401526040830152606082015282805260015afa156108aa575f516001600160a01b038116156108a257905f90565b505f90600190565b6040513d5f823e3d90fd5b505050505f9060039056fe6080806040526004361015610012575f80fd5b5f3560e01c90816301471a49146123865750806303ed69b6146122075780632190b8b814611eef57806322a6cef114611ed257806324cbb86b14611e505780634e71d92d14611d645780634f67c62414611d4757806364cc1389146112ba5780636d158b491461128957806389a30271146112615780639726dd19146110a457806397cb8d1714610f145780639d60c60514610e35578063b4a99a4e14610df1578063d2b1fbc414610587578063dba3f6aa14610526578063de32ccd41461031c578063e3701116146101eb5763f69e9b8c146100ed575f80fd5b346101e75760203660031901126101e7576004356001600160401b0381116101e75761011d9036906004016123a0565b610151337f00000000000000000000000000000000000000000000000000000000000000006001600160a01b03161461268c565b5f5b63ffffffff811690828210156101e5576101db60206101a9846101a261019c846101816101e0998b8d6126fa565b91908260405193849283378101600281520301902054612662565b90612842565b86886126fa565b91908260405193849283378101600281520301902060045f918281558260018201558260028201558260038201550155565b6126b1565b610153565b005b5f80fd5b346101e7576101f936612510565b909161022f337f00000000000000000000000000000000000000000000000000000000000000006001600160a01b03161461268c565b60016040518483823760208186810160028152030190200154156102d75760606004928360405186858237602081888101600281520301902001549461027b6080830135809714612725565b6020604051828682378181848101600281520301902054946102a08435809714612781565b8260405193849283378101600281520301902092835560208101356001840155604081013560028401550135600382015501555f80f35b60405162461bcd60e51b815260206004820152601f60248201527f5468652070726f6475637420686173206e6f74206265656e2061646465642e006044820152606490fd5b346101e75761032a366123d0565b9192610360337f00000000000000000000000000000000000000000000000000000000000000006001600160a01b03161461268c565b8284036104e15760015493925f5b63ffffffff81169085821015610440576001602061038d8489886126fa565b91908260405193849283378101600281520301902001546103f1576103be6103b6838588612715565b359288612ad6565b91600183018093116103dd576103d8926101db9114612b83565b61036e565b634e487b7160e01b5f52601160045260245ffd5b60405162461bcd60e51b815260206004820152602160248201527f412070726f647563742068617320616c7265616479206265656e2061646465646044820152601760f91b6064820152608490fd5b5050915f5b63ffffffff8116858110156104d057908161046d6104676104cb9489886126fa565b90612bc4565b600460806020610489610481858b8a612715565b948b8a6126fa565b919082604051938492833781016002815203019020928035845560208101356001850155604081013560028501556060810135600385015501359101556126b1565b610445565b6104dc86600154612ad6565b600155005b60405162461bcd60e51b815260206004820152601860248201527f496e76616c69642070726f647563747320666f726d61742e00000000000000006044820152606490fd5b346101e75760203660031901126101e7576004355f548110156101e75761054c90612662565b6105745761055c6105709161259e565b60405191829160208352602083019061263e565b0390f35b634e487b7160e01b5f525f60045260245ffd5b346101e75760203660031901126101e7576004355f52600460205260405f2080549060018060a01b03600182015416906002810190604051916105c983612444565b80546105d48161254f565b916105e2604051938461245f565b81835260208301905f5260205f205f915b838310610dd45750505050825260038101604051808260208294549384815201905f5260205f20925f5b818110610dbb5750506106329250038261245f565b602083019081526004820190604051808360208295549384815201905f5260205f20925f905b80601f830110610bd35761076e945491818110610bbd575b818110610ba4575b818110610b8b575b818110610b72575b818110610b5a575b818110610b41575b818110610b28575b818110610b0f575b818110610af6575b818110610add575b818110610ac4575b818110610aab575b818110610a92575b818110610a79575b818110610a60575b818110610a47575b818110610a2e575b818110610a15575b8181106109fc575b8181106109e3575b8181106109ca575b8181106109b1575b818110610998575b81811061097f575b818110610966575b81811061094d575b818110610934575b81811061091b575b818110610902575b8181106108e9575b8181106108d0575b106108c0575b50038361245f565b6040840191825260ff60066107856005860161259e565b9460608701958652015416946040519687526020870152608060408701526101008601935193608080880152845180915261012087019060206101208260051b8a01019601915f905b82821061089357505050505192607f198682030160a0870152602080855192838152019401905f5b81811061087d575050505190607f198584030160c0860152602080835194858152019201925f5b81811061086557505051848203607f190160e086015261083d925061263e565b600382101561085157829160608301520390f35b634e487b7160e01b5f52602160045260245ffd5b8451151584526020948501949093019260010161081d565b82518652602095860195909201916001016107f6565b909192966020806108b26001938d61011f199082030186528b5161263e565b9901920192019092916107ce565b60f81c1515815260200189610766565b92602060019160ff8560f01c1615158152019301610760565b92602060019160ff8560e81c1615158152019301610758565b92602060019160ff8560e01c1615158152019301610750565b92602060019160ff8560d81c1615158152019301610748565b92602060019160ff8560d01c1615158152019301610740565b92602060019160ff8560c81c1615158152019301610738565b92602060019160ff8560c01c1615158152019301610730565b92602060019160ff8560b81c1615158152019301610728565b92602060019160ff8560b01c1615158152019301610720565b92602060019160ff8560a81c1615158152019301610718565b92602060019160ff8560a01c1615158152019301610710565b92602060019160ff8560981c1615158152019301610708565b92602060019160ff8560901c1615158152019301610700565b92602060019160ff8560881c16151581520193016106f8565b92602060019160ff8560801c16151581520193016106f0565b92602060019160ff8560781c16151581520193016106e8565b92602060019160ff8560701c16151581520193016106e0565b92602060019160ff8560681c16151581520193016106d8565b92602060019160ff8560601c16151581520193016106d0565b92602060019160ff8560581c16151581520193016106c8565b92602060019160ff8560501c16151581520193016106c0565b92602060019160ff8560481c16151581520193016106b8565b92602060019160ff8560401c16151581520193016106b0565b92602060019160ff8560381c16151581520193016106a8565b92602060019160ff8560301c16151581520193016106a0565b92602060019160ff8560281c1615158152019301610698565b92602060019160ff85831c1615158152019301610690565b92602060019160ff8560181c1615158152019301610688565b92602060019160ff8560101c1615158152019301610680565b92602060019160ff8560081c1615158152019301610678565b92602060019160ff851615158152019301610670565b916020919350610400600191865460ff81161515825260ff8160081c1615158583015260ff8160101c161515604083015260ff8160181c161515606083015260ff81861c161515608083015260ff8160281c16151560a083015260ff8160301c16151560c083015260ff8160381c16151560e083015260ff8160401c16151561010083015260ff8160481c16151561012083015260ff8160501c16151561014083015260ff8160581c16151561016083015260ff8160601c16151561018083015260ff8160681c1615156101a083015260ff8160701c1615156101c083015260ff8160781c1615156101e083015260ff8160801c16151561020083015260ff8160881c16151561022083015260ff8160901c16151561024083015260ff8160981c16151561026083015260ff8160a01c16151561028083015260ff8160a81c1615156102a083015260ff8160b01c1615156102c083015260ff8160b81c1615156102e083015260ff8160c01c16151561030083015260ff8160c81c16151561032083015260ff8160d01c16151561034083015260ff8160d81c16151561036083015260ff8160e01c16151561038083015260ff8160e81c1615156103a083015260ff8160f01c1615156103c083015260f81c15156103e0820152019401920185929391610658565b845483526001948501948694506020909301920161061d565b600160208192610de38561259e565b8152019201920191906105f3565b346101e7575f3660031901126101e7576040517f00000000000000000000000000000000000000000000000000000000000000006001600160a01b03168152602090f35b346101e757610e4336612510565b91610e78337f00000000000000000000000000000000000000000000000000000000000000006001600160a01b03161461268c565b60016040518383823760208185810160028152030190200154610ec35760015492600184018094116103dd57610eb893610eb3913514612b83565b612bc4565b6104dc600154612ae3565b60405162461bcd60e51b815260206004820152602360248201527f5468652070726f647563742068617320616c7265616479206265656e2061646460448201526232b21760e91b6064820152608490fd5b346101e75760603660031901126101e7576004356024356001600160401b0381116101e75780600401608060031983360301126101e757610f7f337f00000000000000000000000000000000000000000000000000000000000000006001600160a01b03161461268c565b60245f9201915b610f9082806127cd565b63ffffffff83169150811015610fff579081610ff360036020610fd5610fc3610ffa97610fbd8b8b6127cd565b90612802565b3594610fcf89806127cd565b906126fa565b9190826040519384928337810160028152030190200191825461281f565b90556126b1565b610f86565b5f85815260046020818152604080842060068101805460ff19166002179055600554600190910154915163a9059cbb60e01b81526001600160a01b03928316948101949094526044803560248601529394929385939190921691839190829081015b03925af180156110995761107157005b6101e59060203d602011611092575b61108a818361245f565b810190612abe565b503d611080565b6040513d5f823e3d90fd5b346101e75760203660031901126101e7576004356001600160401b0381116101e7576110d49036906004016124e3565b611108337f00000000000000000000000000000000000000000000000000000000000000006001600160a01b03161461268c565b61112660405182848237602081848101600281520301902054612662565b5061113b611135368486612480565b9161259e565b906040516111686020828180820195805191829101875e81015f838201520301601f19810183528261245f565b519020906040516111986020828180820195805191829101875e81015f838201520301601f19810183528261245f565b519020036111f65760206101e5926111c661019c604051858482378481878101600281520301902054612662565b8260405193849283378101600281520301902060045f918281558260018201558260028201558260038201550155565b60405162461bcd60e51b815260206004820152603a60248201527f546865206964206f72206e616d65206f66207468652070726f6475637420746f60448201527f2062652072656d6f7665642077617320696e636f72726563742e0000000000006064820152608490fd5b346101e7575f3660031901126101e7576005546040516001600160a01b039091168152602090f35b346101e7575f3660031901126101e757606060065460075460ff600854169060405192835260208301526040820152f35b346101e75760203660031901126101e7576004356001600160401b0381116101e7578060040190608060031982360301126101e7575f6112fa83806127cd565b60248401915061130a82866127cd565b91905003611ce757604483019261132184866127cd565b9050611c8b575f925b61133486806127cd565b63ffffffff8616929150821015611485576001602061135784610fcf8b806127cd565b919082604051938492833781016002815203019020015415611448576113e56113d088600360206113b387610fcf60028461139684610fcf8a806127cd565b9190826040519384928337810184815203019020015495806127cd565b919082604051938492833781016002815203019020015490612ad6565b6113de84610fbd888c6127cd565b359061281f565b5061141d600160206113fb85610fcf8c806127cd565b919082604051938492833781016002815203019020015492610fbd868a6127cd565b35918281029281840414901517156103dd576114429161143c91612ad6565b936126b1565b9261132a565b60405162461bcd60e51b8152602060048201526015602482015274496e76616c69642070726f6475637420707269636560581b6044820152606490fd5b600554604051636eb1769f60e11b81523360048201523060248201529395506001600160a01b031692909150602081604481865afa80156110995782915f91611c56575b50106101e7575f91606460209260405194859384926323b872dd60e01b845233600485015230602485015260448401525af1801561109957611c39575b505f5b61151385806127cd565b90508563ffffffff8316918210156115715790610ff36003602061154e61154285610fbd8a61156c9a996127cd565b3594610fcf8c806127cd565b91908260405193849283378101600281520301902001918254612ad6565b611509565b83868661157f600354612ae3565b8060035560405161158f81612444565b81815260208101338152604051906115a682612444565b87356001600160401b0381116101e7578501366023820112156101e75760048101356115d18161254f565b916115df604051938461245f565b818352602060048185019360051b83010101903682116101e75760248101925b828410611c085750505050825286356001600160401b0381116101e7578501366023820112156101e7576004810135906116388261254f565b91611646604051938461245f565b808352602060048185019260051b84010101913683116101e757602401905b828210611bf857505050602083015285356001600160401b0381116101e7578501366023820112156101e7576004810135906116a08261254f565b916116ae604051938461245f565b808352602060048185019260051b84010101913683116101e757602401905b828210611be057505050604083015260648501948535906001600160401b0382116101e757600461170192369201016124c5565b60608301526040830191825260608301935f85525f52600460205260405f2092518355600183019060018060a01b039051166bffffffffffffffffffffffff60a01b82541617905560028201905190815160208151916117618385612895565b01915f5260205f20915f905b828210611b005750505050600382016020820151908151916001600160401b038311611a4a576020906117a08484612a2a565b01905f5260205f205f5b838110611aec57505050506004820160408201518051906001600160401b038211611a4a576020906117dc8385612a5c565b01915f5260205f208160051c915f5b838110611aa75750601f198116900380611a5e575b5050505060600151805160058301916001600160401b038211611a4a576118318261182b8554612566565b85612926565b602090601f83116001146119e35791806118659260069695945f926119d8575b50508160011b915f199060031b1c19161790565b90555b01905160038110156108515760ff8019835416911617905560035493604051933385526060602086015260e08501906118a18380612afe565b809193608060608a0152526101008701906101008160051b8901019380925f915b8a8484106119a1575050505050506118da9083612afe565b868303605f190160808801528083529091906001600160fb1b0381116101e75760051b80926020830137016040611915602083019584612afe565b603f198885030160a0890152958690529101935f5b818110611980577fe0ee052435a22848f47c57cea9d74945b0c31b30d822105b61550570326197e287808a6119758a6119638b8b612b52565b858303605f190160c087015290612b32565b9060408301520390a1005b90919460208060019261199289612af1565b1515815201960192910161192a565b60206119c96001939495969799829360ff199082030187526119c38b87612b52565b90612b32565b980193019301919392906118c2565b015190508b80611851565b90601f19831691845f52815f20925f5b818110611a32575091600193918560069897969410611a1a575b505050811b019055611868565b01515f1960f88460031b161c191690558a8080611a0d565b929360206001819287860151815501950193016119f3565b634e487b7160e01b5f52604160045260245ffd5b925f935f5b818110611a7857505050015587808080611800565b9091946020611a9d6001928489511515919060ff809160031b9316831b921b19161790565b9601929101611a63565b5f5f5b60208110611abf5750838201556001016117eb565b95906020611ae36001928985511515919060ff809160031b9316831b921b19161790565b92019601611aaa565b6001906020845194019381840155016117aa565b80518051906001600160401b038211611a4a57611b2782611b218854612566565b88612926565b602090601f8311600114611b775792611b5d836001959460209487965f92611b6c5750508160011b915f199060031b1c19161790565b87555b0194019101909261176d565b015190505f80611851565b90601f19831691875f52815f20925f5b818110611bc85750936020936001969387969383889510611bb0575b505050811b018755611b60565b01515f1960f88460031b161c191690555f8080611ba3565b92936020600181928786015181550195019301611b87565b60208091611bed84612af1565b8152019101906116cd565b8135815260209182019101611665565b83356001600160401b0381116101e757602091611c2e83928360043692880101016124c5565b8152019301926115ff565b611c519060203d6020116110925761108a818361245f565b611506565b9150506020813d602011611c83575b81611c726020938361245f565b810103126101e757819051886114c9565b3d9150611c65565b60405162461bcd60e51b815260206004820152602e60248201527f496e76616c6964206361727420666f726d61742028616363657074656420736860448201526d6f756c6420626520656d7074792960901b6064820152608490fd5b60405162461bcd60e51b815260206004820152603260248201527f496e76616c6964206361727420666f726d617420286e616d657320646f6e27746044820152711036b0ba31b41034b73b32b73a37b93c949760711b6064820152608490fd5b346101e7575f3660031901126101e7576020600154604051908152f35b346101e7575f3660031901126101e7577f0000000000000000000000000000000000000000000000000000000000000000611da9336001600160a01b0383161461268c565b6005546040516370a0823160e01b81523060048201526001600160a01b0390911691602082602481865afa918215611099575f92611e1a575b5060405163a9059cbb60e01b81526001600160a01b0390911660048201526024810191909152906020908290815f8160448101611061565b91506020823d602011611e48575b81611e356020938361245f565b810103126101e757905190611061611de2565b3d9150611e28565b346101e75760203660031901126101e7576004356001600160401b0381116101e757602080611e8560a09336906004016124c5565b604051928184925191829101835e81016002815203019020805490600181015490600281015460046003830154920154926040519485526020850152604084015260608301526080820152f35b346101e7575f3660031901126101e7576020600354604051908152f35b346101e75760403660031901126101e7576024356004356001600160401b0382116101e75781600401608060031984360301126101e757611f5a337f00000000000000000000000000000000000000000000000000000000000000006001600160a01b03161461268c565b60248301604484015f5b611f6e82856127cd565b63ffffffff8316915081101561204257906004611fdd8387611fd160036020610fd585610fcf611fc9828f8f90611ffd9f611fbb611fb6600192610fbd8f96610fbd976127cd565b612812565b151514612002575b8a6127cd565b3596806127cd565b9055610fcf88806127cd565b6040519291819084378201916002835260208143940301902001556126b1565b611f64565b8a61203b60028a61201e87610fcf611fc982610fbd8a8a6127cd565b91908260405193849283378101848152030190200191825461281f565b9055611fc3565b8584868986845f52600460205260405f20936002850161206285806127cd565b919061206e8383612895565b5f9182526020822090805b8484106121e15750505050506120936003860191856127cd565b91906001600160401b038311611a4a576120ad8383612a2a565b905f5260205f205f5b8381106121cd57505050506120cf6004850191846127cd565b906001600160401b038211611a4a576120e88284612a5c565b915f5260205f208160051c915f5b8381106121985750601f198116900380612145575b8761212860058961211f60648a018b6126c8565b92909101612969565b5f908152600460205260409020600601805460ff19166001179055005b925f935f5b81811061216457505050015561211f82606461212861210b565b909194602061218e600192846121798a612812565b919060ff809160031b9316831b921b19161790565b960192910161214a565b5f5f5b602081106121b05750838201556001016120f6565b959060206121c46001928961217986612812565b9201960161219b565b6001906020843594019381840155016120b6565b60016020826121fb6121f48495876126c8565b9088612969565b01930193019291612079565b346101e757612215366123d0565b929061224b337f00000000000000000000000000000000000000000000000000000000000000006001600160a01b03161461268c565b5f5b63ffffffff8116908482101561234c576001602061226c8488886126fa565b919082604051938492833781016002815203019020015415612307576101db826122cd600460206122a1612302978b8b6126fa565b919082604051938492833781016002815203019020015460806122c5848c8a612715565b013514612725565b6122fb60206122dd838a8a6126fa565b91908260405193849283378101600281520301902054918987612715565b3514612781565b61224d565b60405162461bcd60e51b815260206004820152601d60248201527f412070726f6475637420686173206e6f74206265656e2061646465642e0000006044820152606490fd5b5050925f5b63ffffffff811690848210156101e5578160046080602061048961237961238197898d612715565b948a8a6126fa565b612351565b346101e7575f3660031901126101e7576020906009548152f35b9181601f840112156101e7578235916001600160401b0383116101e7576020808501948460051b0101116101e757565b9060406003198301126101e7576004356001600160401b0381116101e757826123fb916004016123a0565b929092916024356001600160401b0381116101e757826023820112156101e7578060040135926001600160401b0384116101e757602460a08502830101116101e7576024019190565b608081019081106001600160401b03821117611a4a57604052565b90601f801991011681019081106001600160401b03821117611a4a57604052565b9291926001600160401b038211611a4a57604051916124a9601f8201601f19166020018461245f565b8294818452818301116101e7578281602093845f960137010152565b9080601f830112156101e7578160206124e093359101612480565b90565b9181601f840112156101e7578235916001600160401b0383116101e757602083818601950101116101e757565b60c06003198201126101e757600435916001600160401b0383116101e75761253d8260a0946004016124e3565b9093909260231901126101e757602490565b6001600160401b038111611a4a5760051b60200190565b90600182811c92168015612594575b602083101461258057565b634e487b7160e01b5f52602260045260245ffd5b91607f1691612575565b9060405191825f8254926125b184612566565b808452936001811690811561261c57506001146125d8575b506125d69250038361245f565b565b90505f9291925260205f20905f915b8183106126005750509060206125d6928201015f6125c9565b60209193508060019154838589010152019101909184926125e7565b9050602092506125d694915060ff191682840152151560051b8201015f6125c9565b805180835260209291819084018484015e5f828201840152601f01601f1916010190565b5f54811015612678575f805260205f2001905f90565b634e487b7160e01b5f52603260045260245ffd5b1561269357565b60405162461bcd60e51b8152602060048201525f6024820152604490fd5b63ffffffff1663ffffffff81146103dd5760010190565b903590601e19813603018212156101e757018035906001600160401b0382116101e7576020019181360383136101e757565b90821015612678576127119160051b8101906126c8565b9091565b91908110156126785760a0020190565b1561272c57565b60405162461bcd60e51b815260206004820152602760248201527f43616e6e6f74206d6f64696679206c617374207075726368617365206f6620706044820152663937b23ab1ba1760c91b6064820152608490fd5b1561278857565b60405162461bcd60e51b815260206004820152601960248201527f43616e6e6f74206d6f646966792070726f647563742069642e000000000000006044820152606490fd5b903590601e19813603018212156101e757018035906001600160401b0382116101e757602001918160051b360383136101e757565b91908110156126785760051b0190565b3580151581036101e75790565b919082039182116103dd57565b818110612837575050565b5f815560010161282c565b90610574576128518154612566565b908161285b575050565b81601f5f931160011461286c575055565b8183526020832061288891601f0160051c81019060010161282c565b8082528160208120915555565b90600160401b8111611a4a578154918181558282106128b357505050565b5f5260205f2091820191015b8181106128ca575050565b6001906128d78154612566565b806128e4575b50016128bf565b601f811183146128f957505f81555b5f6128dd565b61291590825f5283601f60205f20920160051c8201910161282c565b805f525f60208120818355556128f3565b9190601f811161293557505050565b6125d6925f5260205f20906020601f840160051c8301931061295f575b601f0160051c019061282c565b9091508190612952565b9092916001600160401b038111611a4a5761298e816129888454612566565b84612926565b5f601f82116001146129cb5781906129bc9394955f926129c05750508160011b915f199060031b1c19161790565b9055565b013590505f80611851565b601f19821694835f5260205f20915f5b878110612a125750836001959697106129f9575b505050811b019055565b01355f19600384901b60f8161c191690555f80806129ef565b909260206001819286860135815501940191016129db565b90600160401b8111611a4a57815490808355818110612a4857505050565b6125d6925f5260205f20918201910161282c565b90600160401b8111611a4a578154818355808210612a7957505050565b6125d6925f52601f60205f20918180850160051c8401941680612aa3575b500160051c019061282c565b5f198501908154905f199060200360031b1c1690555f612a97565b908160209103126101e7575180151581036101e75790565b919082018092116103dd57565b5f1981146103dd5760010190565b359081151582036101e757565b9035601e19823603018112156101e75701602081359101916001600160401b0382116101e7578160051b360383136101e757565b908060209392818452848401375f828201840152601f01601f1916010190565b9035601e19823603018112156101e75701602081359101916001600160401b0382116101e75781360383136101e757565b15612b8a57565b60405162461bcd60e51b8152602060048201526012602482015271125b9d985b1a59081c1c9bd91d58dd081a5960721b6044820152606490fd5b905f54600160401b811015611a4a57600181015f555f54811015612678575f80527f290decd9548b62a8d60345a988386fc84ba6bc95484008f6362f93160ef3e56301916125d69261296956fea26469706673582212200ce2ef0cdd5bdf797cedf50c3e8d0ab5ba35ab6cce3f95b395fcbbce24ccf5b964736f6c634300081c0033",
  "immutableReferences": {
    "4697": [
      {
        "length": 32,
        "start": 291
      },
      {
        "length": 32,
        "start": 513
      },
      {
        "length": 32,
        "start": 818
      },
      {
        "length": 32,
        "start": 3590
      },
      {
        "length": 32,
        "start": 3658
      },
      {
        "length": 32,
        "start": 3921
      },
      {
        "length": 32,
        "start": 4314
      },
      {
        "length": 32,
        "start": 7542
      },
      {
        "length": 32,
        "start": 7980
      },
      {
        "length": 32,
        "start": 8733
      }
    ]
  },
  "source": "// SPDX-License-Identifier: MIT\npragma solidity ^0.8.0;\n\nimport { IERC20 } from \"@openzeppelin/contracts/token/ERC20/IERC20.sol\";\nimport { ECDSA } from \"@openzeppelin/contracts/utils/cryptography/ECDSA.sol\";\nimport { SignatureChecker } from \"@openzeppelin/contracts/utils/cryptography/SignatureChecker.sol\";\nimport { Helper } from \"../helper/Helper.sol\";\n\n// Contract For A Shop\ncontract Shop {\n\n    // Address of the Onwer of the Shop\n    address public immutable Owner;\n\n    // Array of products.\n    string[] public Products;\n\n    // Number of products\n    uint public ProductCount; \n    \n    // Mapping to hold information of the product with the given name.\n    mapping(string => Product) public ProductsMap;\n\n    // Variable to reference the Purchase made.\n    uint public PurchaseID = 0;\n\n    mapping(uint256 => Purchase) public Purchases;\n\n    // Variable to hold USDC contract\n    IERC20 public USDC;\n\n    // Key used to encrypt shipping information\n    Key public SignKey;\n\n    // Hash for SignKey signature verification.\n    bytes32 public EnableHash;\n\n    // Modifier to ensure the owner is calling the method.\n    modifier onlyOwner(){\n        require(msg.sender == Owner, \"\");\n        _;\n    }\n    \n    // Struct to define owner key to encrypt shipping information.\n    struct Key{\n        bytes32 r;\n        bytes32 s;\n        uint8 v;\n    }\n        \n    // Struct to hold Product Information.\n    struct Product{\n        uint256 id;\n        uint256 price;\n        uint256 inventory;\n        uint256 holds;\n        uint256 last_purchase;\n    }\n\n    // Enum to define status of purchase.\n    enum Status{\n        purchased,\n        shipped,\n        revoked\n    }\n\n    // Struct to define products to be purchased.\n    struct Cart {\n        string[] names;\n        uint[] inventory;\n        bool[] accepted;\n        string encrypted_ship;\n    }\n\n    // Struct to define a purchase.\n    struct Purchase {\n        uint256 id;\n        address buyer;\n        Cart cart;\n        Status status;\n    }\n\n    // Event to emit that an item was Purchased.\n    event Purchased(address buyer, Cart cart, uint256 id);\n\n    // Constructor \n    constructor(string[] memory _product_name, Product[] memory _product_info, address _usdc, bytes memory _signature){\n        require(_product_name.length == _product_info.length, \"Invalid initial product format\");\n        Owner = msg.sender;\n        USDC = IERC20(_usdc);\n        for(uint i = 0; i < _product_name.length; i++){\n            _product_info[i].id = i;\n            Products.push(_product_name[i]);\n            ProductsMap[_product_name[i]] = _product_info[i];\n        }\n        ProductCount += _product_name.length;\n\n        EnableHash = ECDSA.toEthSignedMessageHash(bytes(\"Enable Shipping\"));\n\n        require(SignatureChecker.isValidSignatureNow(msg.sender, EnableHash, _signature), \"Invalid Signature\");\n        \n        bytes32 _r;\n        bytes32 _s;\n        uint8 _v;\n        // ecrecover takes the signature parameters, and the only way to get them\n        // currently is to use assembly.\n        /// @solidity memory-safe-assembly\n        assembly {\n            _r := mload(add(_signature, 0x20))\n            _s := mload(add(_signature, 0x40))\n            _v := byte(0, mload(add(_signature, 0x60)))\n        }\n\n        SignKey.r = _r;\n        SignKey.s = _s;\n        SignKey.v = _v;\n    }\n\n    /*\n    * Function to add product to the Shop.\n    * @Param _name, name of the product.\n    * @Param _info, price and inventory of the product.\n    */\n\n   function addProduct(string calldata _name, Product calldata _info) public onlyOwner{\n        require(ProductsMap[_name].price == 0, \"The product has already been added.\");\n        require(_info.id == ProductCount + 1, \"Invalid product id\");\n        Products.push(_name);\n        ProductCount++;\n   }\n\n    /*\n    * Function to add products to the Shop.\n    * @Param _name, name of the product.\n    * @Param _info, price and inventory of the product.\n    */\n    function addProducts(string[] calldata _names, Product[] calldata _info) public onlyOwner{\n        require(_names.length == _info.length, \"Invalid products format.\");\n        for(uint32 i = 0; i < _names.length; i++){\n            require(ProductsMap[_names[i]].price == 0, \"A product has already been added.\");\n            require(_info[i].id == ProductCount + i + 1, \"Invalid product id\");\n        }\n        for(uint32 i = 0; i < _names.length; i++){\n            Products.push(_names[i]);\n            ProductsMap[_names[i]] = _info[i];\n        }\n        ProductCount += _names.length;\n    }\n\n    /*\n    * Function to modify a product in the shop.\n    * @Param _name, name of the product.\n    * @Param _info, price and inventory of the product.\n    */\n    function modifyProduct(string calldata _name, Product calldata _info) public onlyOwner{\n        require(ProductsMap[_name].price != 0, \"The product has not been added.\");\n        require(ProductsMap[_name].last_purchase == _info.last_purchase, \"Cannot modify last purchase of product.\");\n        require(ProductsMap[_name].id == _info.id, \"Cannot modify product id.\");\n        ProductsMap[_name] = _info;\n    }\n\n    /* \n    * Function to modify multiple products in the shop\n    *   @Param _names, names of the products\n    *   @Param _info, price and inventory of the products.\n    * */\n    function modifyProducts(string[] calldata _names, Product[] calldata _info) public onlyOwner{\n        for(uint32 i = 0; i < _names.length; i++){\n            require(ProductsMap[_names[i]].price != 0, \"A product has not been added.\");\n            require(ProductsMap[_names[i]].last_purchase == _info[i].last_purchase, \"Cannot modify last purchase of product.\");\n            require(ProductsMap[_names[i]].id == _info[i].id, \"Cannot modify product id.\");\n        }\n        for(uint32 i = 0; i < _names.length; i++){\n            ProductsMap[_names[i]] = _info[i];\n        }\n    }\n\n    /*\n    * Function to remove a product from the shop.\n    * @Param _name, name of the product\n    * @Param _id, location of the product in the names array.\n    */\n    function removeProduct(string calldata _name) public onlyOwner{\n        require(Helper.compareStrings(_name, Products[ProductsMap[_name].id]), \"The id or name of the product to be removed was incorrect.\");\n        delete Products[ProductsMap[_name].id];\n        delete ProductsMap[_name];\n        \n    }\n\n    /*\n    * Function to remove a product from the shop.\n    * @Param _names, names of the product\n    * @Param _ids, locations of the products in the names array.\n    */\n    function removeProducts(string[] calldata _names) public onlyOwner{\n        for(uint32 i = 0; i < _names.length; i++){\n            delete Products[ProductsMap[_names[i]].id];\n            delete ProductsMap[_names[i]];\n        }\n    }\n\n    /*\n    * Function to purchase a product by the sender (buyer)\n    * @Param _name, name of the product to purchase\n    * @Param _encrypted_ship, the encrypted shipping information for the purchaser.\n    */\n    function purchase(Cart calldata _cart) public{\n        uint totalCost = 0;\n        require(_cart.names.length == _cart.inventory.length, \"Invalid cart format (names don't match inventory).\");\n        require(_cart.accepted.length == 0, \"Invalid cart format (accepted should be empty)\");\n        for(uint32 i = 0; i < _cart.names.length; i++){\n            require(ProductsMap[_cart.names[i]].price != 0, \"Invalid product price\");\n            require((ProductsMap[_cart.names[i]].inventory + ProductsMap[_cart.names[i]].holds) - _cart.inventory[i] >= 0, \"\");\n            totalCost += (ProductsMap[_cart.names[i]].price * _cart.inventory[i]);\n        }\n        require(USDC.allowance(msg.sender, address(this)) >= totalCost);\n        USDC.transferFrom(msg.sender, address(this), totalCost);\n\n        for(uint32 i = 0; i < _cart.names.length; i++){\n            ProductsMap[_cart.names[i]].holds += _cart.inventory[i];\n        }\n\n        ++PurchaseID;\n        Purchases[PurchaseID] = Purchase(PurchaseID, msg.sender, _cart, Status.purchased);\n        emit Purchased(msg.sender, _cart, PurchaseID);\n    }\n\n    /* \n    *  Function to indicate an item has been shiped\n    * @Param _id, id of the purchase\n    */\n    function ship(uint256 _id, Cart calldata _cart) public onlyOwner{\n        for(uint32 i = 0; i < _cart.accepted.length; i++){\n            if(_cart.accepted[i] == true){\n                ProductsMap[_cart.names[i]].inventory -= _cart.inventory[i]; \n            }\n            ProductsMap[_cart.names[i]].holds -= _cart.inventory[i];\n            ProductsMap[_cart.names[i]].last_purchase = block.number;\n        }\n        Purchases[_id].cart = _cart;        \n        Purchases[_id].status = Status.shipped;\n    }\n\n    /*\n    * Function to revoke a purchase of the buyer\n    * @Param _id, id of the purchase\n    * @Param _amount, amount of USDC to be sent back to the buyer.\n    */\n    function revoke(uint _id, Cart calldata _cart, uint256 _amount) public onlyOwner{\n        for(uint32 i = 0; i < _cart.names.length; i++){\n            ProductsMap[_cart.names[i]].holds -= _cart.inventory[i];\n        }\n        Purchases[_id].status = Status.revoked;\n        USDC.transfer(Purchases[_id].buyer, _amount);\n    }\n\n    /*\n    *   Function to claim revenue from contract. // called after potential revoke for efficiency.\n    */\n    function claim() public onlyOwner{\n        USDC.transfer(Owner, USDC.balanceOf(address(this)));\n    }\n}",
  "sourcePath": "/home/stephensb/sb-labs/solidity-contracts/contracts/shop/Shop.sol",
  "compiler": {
    "name": "solc",
    "version": "0.8.28+commit.7893614a.Emscripten.clang"
  },
  "schemaVersion": "3.4.12",
  "updatedAt": "2024-12-18T07:36:00.844Z",
  "devdoc": {
    "kind": "dev",
    "methods": {},
    "version": 1
  },
  "userdoc": {
    "kind": "user",
    "methods": {},
    "version": 1
  }
}