{
  "contractName": "SimplePriceFeed",
  "abi": [
    {
      "inputs": [
        {
          "internalType": "int256",
          "name": "answer_",
          "type": "int256"
        },
        {
          "internalType": "uint8",
          "name": "decimals_",
          "type": "uint8"
        }
      ],
      "stateMutability": "nonpayable",
      "type": "constructor"
    },
    {
      "inputs": [],
      "name": "decimals",
      "outputs": [
        {
          "internalType": "uint8",
          "name": "",
          "type": "uint8"
        }
      ],
      "stateMutability": "view",
      "type": "function"
    },
    {
      "inputs": [],
      "name": "description",
      "outputs": [
        {
          "internalType": "string",
          "name": "",
          "type": "string"
        }
      ],
      "stateMutability": "view",
      "type": "function"
    },
    {
      "inputs": [],
      "name": "version",
      "outputs": [
        {
          "internalType": "uint256",
          "name": "",
          "type": "uint256"
        }
      ],
      "stateMutability": "view",
      "type": "function"
    },
    {
      "inputs": [
        {
          "internalType": "uint80",
          "name": "roundId_",
          "type": "uint80"
        },
        {
          "internalType": "int256",
          "name": "answer_",
          "type": "int256"
        },
        {
          "internalType": "uint256",
          "name": "startedAt_",
          "type": "uint256"
        },
        {
          "internalType": "uint256",
          "name": "updatedAt_",
          "type": "uint256"
        },
        {
          "internalType": "uint80",
          "name": "answeredInRound_",
          "type": "uint80"
        }
      ],
      "name": "setRoundData",
      "outputs": [],
      "stateMutability": "nonpayable",
      "type": "function"
    },
    {
      "inputs": [
        {
          "internalType": "uint80",
          "name": "roundId_",
          "type": "uint80"
        }
      ],
      "name": "getRoundData",
      "outputs": [
        {
          "internalType": "uint80",
          "name": "",
          "type": "uint80"
        },
        {
          "internalType": "int256",
          "name": "",
          "type": "int256"
        },
        {
          "internalType": "uint256",
          "name": "",
          "type": "uint256"
        },
        {
          "internalType": "uint256",
          "name": "",
          "type": "uint256"
        },
        {
          "internalType": "uint80",
          "name": "",
          "type": "uint80"
        }
      ],
      "stateMutability": "view",
      "type": "function"
    },
    {
      "inputs": [],
      "name": "latestRoundData",
      "outputs": [
        {
          "internalType": "uint80",
          "name": "",
          "type": "uint80"
        },
        {
          "internalType": "int256",
          "name": "",
          "type": "int256"
        },
        {
          "internalType": "uint256",
          "name": "",
          "type": "uint256"
        },
        {
          "internalType": "uint256",
          "name": "",
          "type": "uint256"
        },
        {
          "internalType": "uint80",
          "name": "",
          "type": "uint80"
        }
      ],
      "stateMutability": "view",
      "type": "function"
    }
  ],
  "bytecode": "0x60a03461006d57601f61037e38819003918201601f19168301916001600160401b0383118484101761007257808492604094855283398101031261006d57602081519101519060ff8216820361006d576001556080526040516102f5908161008982396080518161021e0152f35b600080fd5b634e487b7160e01b600052604160045260246000fdfe608060408181526004908136101561001657600080fd5b600092833560e01c9081631c12940a14610242578163313ce567146102055750806354fd4d50146101e55780637284e4161461011e5780639a6fc8f5146100bc5763feaf968c1461006657600080fd5b346100b857826003193601126100b8579154600154600254600354935494516001600160501b039384168152602081019290925260408201526060810192909252909116608082015260a090f35b0390f35b8280fd5b50823461011b57602036600319011261011b57506100b46100db6102a4565b600154600254600354955494516001600160501b0393841681526020810192909252604082015260608101949094529091166080830152819060a0820190565b80fd5b50823461011b578060031936011261011b578151928284019084821067ffffffffffffffff8311176101d257508293919352601f81526020907f4d6f636b20436861696e6c696e6b2070726963652061676772656761746f7200828201528251938285938452825192838286015282915b8483106101ba57505082106101ae575b50601f01601f19168101030190f35b8382840101528461019f565b8183018101518884018801528795509182019161018f565b634e487b7160e01b835260419052602482fd5b8382346102015781600319360112610201576020905160018152f35b5080fd5b84903461020157816003193601126102015760209060ff7f0000000000000000000000000000000000000000000000000000000000000000168152f35b849084346100b85760a03660031901126100b85761025e6102a4565b608435906001600160501b038083168093036102a0576001600160501b0319911681865416178555602435600155604435600255606435600355825416179055f35b8580fd5b600435906001600160501b03821682036102ba57565b600080fdfea264697066735822122017417b7547047c355066925884237ebe70d55de89ea10a33afe7676838498a8164736f6c634300080f0033",
  "immutableReferences": {
    "17306": [
      {
        "length": 32,
        "start": 542
      }
    ]
  },
  "source": "// SPDX-License-Identifier: BUSL-1.1\npragma solidity 0.8.15;\n\nimport \"../vendor/@chainlink/contracts/src/v0.8/interfaces/AggregatorV3Interface.sol\";\n\ncontract SimplePriceFeed is AggregatorV3Interface {\n    string public constant override description = \"Mock Chainlink price aggregator\";\n\n    uint public constant override version = 1;\n\n    uint8 public immutable override decimals;\n\n    uint80 internal roundId;\n    int256 internal answer;\n    uint256 internal startedAt;\n    uint256 internal updatedAt;\n    uint80 internal answeredInRound;\n\n    constructor(int answer_, uint8 decimals_) {\n        answer = answer_;\n        decimals = decimals_;\n    }\n\n    function setRoundData(\n        uint80 roundId_,\n        int256 answer_,\n        uint256 startedAt_,\n        uint256 updatedAt_,\n        uint80 answeredInRound_\n    ) public {\n        roundId = roundId_;\n        answer = answer_;\n        startedAt = startedAt_;\n        updatedAt = updatedAt_;\n        answeredInRound = answeredInRound_;\n    }\n\n    function getRoundData(uint80 roundId_) override external view returns (uint80, int256, uint256, uint256, uint80) {\n        return (roundId_, answer, startedAt, updatedAt, answeredInRound);\n    }\n\n    function latestRoundData() override external view returns (uint80, int256, uint256, uint256, uint80) {\n        return (roundId, answer, startedAt, updatedAt, answeredInRound);\n    }\n}\n",
  "sourcePath": "/home/stephensb/sb-labs/solidity-contracts/contracts/comet/contracts/test/SimplePriceFeed.sol",
  "compiler": {
    "name": "solc",
    "version": "0.8.15+commit.e14f2714.Emscripten.clang"
  },
  "schemaVersion": "3.4.12",
  "updatedAt": "2023-11-30T22:41:29.737Z",
  "devdoc": {
    "kind": "dev",
    "methods": {},
    "version": 1
  },
  "userdoc": {
    "kind": "user",
    "methods": {},
    "version": 1
  }
}