{
  "contractName": "SimpleTimelock",
  "abi": [
    {
      "inputs": [
        {
          "internalType": "address",
          "name": "admin_",
          "type": "address"
        }
      ],
      "stateMutability": "nonpayable",
      "type": "constructor"
    },
    {
      "inputs": [],
      "name": "Unauthorized",
      "type": "error"
    },
    {
      "anonymous": false,
      "inputs": [
        {
          "indexed": true,
          "internalType": "bytes32",
          "name": "txHash",
          "type": "bytes32"
        },
        {
          "indexed": true,
          "internalType": "address",
          "name": "target",
          "type": "address"
        },
        {
          "indexed": false,
          "internalType": "uint256",
          "name": "value",
          "type": "uint256"
        },
        {
          "indexed": false,
          "internalType": "string",
          "name": "signature",
          "type": "string"
        },
        {
          "indexed": false,
          "internalType": "bytes",
          "name": "data",
          "type": "bytes"
        },
        {
          "indexed": false,
          "internalType": "uint256",
          "name": "eta",
          "type": "uint256"
        }
      ],
      "name": "CancelTransaction",
      "type": "event"
    },
    {
      "anonymous": false,
      "inputs": [
        {
          "indexed": true,
          "internalType": "bytes32",
          "name": "txHash",
          "type": "bytes32"
        },
        {
          "indexed": true,
          "internalType": "address",
          "name": "target",
          "type": "address"
        },
        {
          "indexed": false,
          "internalType": "uint256",
          "name": "value",
          "type": "uint256"
        },
        {
          "indexed": false,
          "internalType": "string",
          "name": "signature",
          "type": "string"
        },
        {
          "indexed": false,
          "internalType": "bytes",
          "name": "data",
          "type": "bytes"
        },
        {
          "indexed": false,
          "internalType": "uint256",
          "name": "eta",
          "type": "uint256"
        }
      ],
      "name": "ExecuteTransaction",
      "type": "event"
    },
    {
      "anonymous": false,
      "inputs": [
        {
          "indexed": true,
          "internalType": "address",
          "name": "newAdmin",
          "type": "address"
        }
      ],
      "name": "NewAdmin",
      "type": "event"
    },
    {
      "anonymous": false,
      "inputs": [
        {
          "indexed": true,
          "internalType": "bytes32",
          "name": "txHash",
          "type": "bytes32"
        },
        {
          "indexed": true,
          "internalType": "address",
          "name": "target",
          "type": "address"
        },
        {
          "indexed": false,
          "internalType": "uint256",
          "name": "value",
          "type": "uint256"
        },
        {
          "indexed": false,
          "internalType": "string",
          "name": "signature",
          "type": "string"
        },
        {
          "indexed": false,
          "internalType": "bytes",
          "name": "data",
          "type": "bytes"
        },
        {
          "indexed": false,
          "internalType": "uint256",
          "name": "eta",
          "type": "uint256"
        }
      ],
      "name": "QueueTransaction",
      "type": "event"
    },
    {
      "inputs": [],
      "name": "GRACE_PERIOD",
      "outputs": [
        {
          "internalType": "uint256",
          "name": "",
          "type": "uint256"
        }
      ],
      "stateMutability": "view",
      "type": "function"
    },
    {
      "inputs": [],
      "name": "admin",
      "outputs": [
        {
          "internalType": "address",
          "name": "",
          "type": "address"
        }
      ],
      "stateMutability": "view",
      "type": "function"
    },
    {
      "inputs": [],
      "name": "delay",
      "outputs": [
        {
          "internalType": "uint256",
          "name": "",
          "type": "uint256"
        }
      ],
      "stateMutability": "view",
      "type": "function"
    },
    {
      "inputs": [],
      "name": "proposalCount",
      "outputs": [
        {
          "internalType": "uint256",
          "name": "",
          "type": "uint256"
        }
      ],
      "stateMutability": "view",
      "type": "function"
    },
    {
      "inputs": [
        {
          "internalType": "bytes32",
          "name": "",
          "type": "bytes32"
        }
      ],
      "name": "queuedTransactions",
      "outputs": [
        {
          "internalType": "bool",
          "name": "",
          "type": "bool"
        }
      ],
      "stateMutability": "view",
      "type": "function"
    },
    {
      "stateMutability": "payable",
      "type": "receive"
    },
    {
      "inputs": [],
      "name": "acceptAdmin",
      "outputs": [],
      "stateMutability": "nonpayable",
      "type": "function"
    },
    {
      "inputs": [
        {
          "internalType": "address",
          "name": "newAdmin",
          "type": "address"
        }
      ],
      "name": "setAdmin",
      "outputs": [],
      "stateMutability": "nonpayable",
      "type": "function"
    },
    {
      "inputs": [
        {
          "internalType": "address",
          "name": "target",
          "type": "address"
        },
        {
          "internalType": "uint256",
          "name": "value",
          "type": "uint256"
        },
        {
          "internalType": "string",
          "name": "signature",
          "type": "string"
        },
        {
          "internalType": "bytes",
          "name": "data",
          "type": "bytes"
        },
        {
          "internalType": "uint256",
          "name": "eta",
          "type": "uint256"
        }
      ],
      "name": "queueTransaction",
      "outputs": [
        {
          "internalType": "bytes32",
          "name": "",
          "type": "bytes32"
        }
      ],
      "stateMutability": "nonpayable",
      "type": "function"
    },
    {
      "inputs": [
        {
          "internalType": "address",
          "name": "target",
          "type": "address"
        },
        {
          "internalType": "uint256",
          "name": "value",
          "type": "uint256"
        },
        {
          "internalType": "string",
          "name": "signature",
          "type": "string"
        },
        {
          "internalType": "bytes",
          "name": "data",
          "type": "bytes"
        },
        {
          "internalType": "uint256",
          "name": "eta",
          "type": "uint256"
        }
      ],
      "name": "cancelTransaction",
      "outputs": [],
      "stateMutability": "nonpayable",
      "type": "function"
    },
    {
      "inputs": [
        {
          "internalType": "address",
          "name": "target",
          "type": "address"
        },
        {
          "internalType": "uint256",
          "name": "value",
          "type": "uint256"
        },
        {
          "internalType": "string",
          "name": "signature",
          "type": "string"
        },
        {
          "internalType": "bytes",
          "name": "data",
          "type": "bytes"
        },
        {
          "internalType": "uint256",
          "name": "eta",
          "type": "uint256"
        }
      ],
      "name": "executeTransaction",
      "outputs": [
        {
          "internalType": "bytes",
          "name": "",
          "type": "bytes"
        }
      ],
      "stateMutability": "payable",
      "type": "function"
    },
    {
      "inputs": [
        {
          "internalType": "address[]",
          "name": "targets",
          "type": "address[]"
        },
        {
          "internalType": "uint256[]",
          "name": "values",
          "type": "uint256[]"
        },
        {
          "internalType": "string[]",
          "name": "signatures",
          "type": "string[]"
        },
        {
          "internalType": "bytes[]",
          "name": "data",
          "type": "bytes[]"
        }
      ],
      "name": "executeTransactions",
      "outputs": [],
      "stateMutability": "payable",
      "type": "function"
    }
  ],
  "bytecode": "0x60803461007457601f610a9738819003918201601f19168301916001600160401b038311848410176100795780849260209460405283398101031261007457516001600160a01b0381169081900361007457600080546001600160a01b031916919091179055604051610a0790816100908239f35b600080fd5b634e487b7160e01b600052604160045260246000fdfe60406080815260049081361015610020575b5050361561001e57600080fd5b005b600091823560e01c9081630825f38f1461051d5781630e18b681146105085781633a66f901146104655781634bc24c8914610283578163591fcdfe146101cf5781636a42b8f8146101b4578163704b6c0214610137578163c1a287e214610119578163da35c664146100fd578163f2b06537146100cc575063f851a4400361001157346100c857816003193601126100c857905490516001600160a01b039091168152602090f35b5080fd5b9050346100f95760203660031901126100f9578160209360ff923581526001855220541690519015158152f35b8280fd5b5050346100c857816003193601126100c8576020905160018152f35b5050346100c857816003193601126100c85760209051621275008152f35b919050346100f95760203660031901126100f9576001600160a01b03823581811693908490036101b057845491821633036101a357506001600160a01b0319168217835551907f71614071b88dee5e0b2ae578a9dd7b2ebbe9ae832ba419dc0242cd065a290b6c8383a2f35b82516282b42960e81b8152fd5b8480fd5b5050346100c857816003193601126100c85751908152602090f35b9050346100f9576101df366107b9565b8754939592946001600160a01b03949093919291908516330361027657507f2fffc091a501fd91bfbff27141450d3acb40fb8e6d8382b243ec7a812a3aaf879392916102709187895161024c8161023e86868d60208501978c896108c9565b03601f198101835282610729565b51902096878b526001602052898b2060ff198154169055895195869516988561090b565b0390a351f35b87516282b42960e81b8152fd5b905060803660031901126100f95767ffffffffffffffff9080358281116101b0576102b19036908301610898565b9190928560249485358381116100f9576102ce9036908601610898565b604493918435868111610461576102e89036908901610898565b606499919997883590811161045d576103049036908b01610898565b95546001600160a01b039692908716330361044e578e808f5b8683106103275751f35b8f8f908f868693610339858383610969565b151590506103f6575050505061035c9150610355908787610969565b369161077d565b905b61036983888d6109c1565b358a811681036100c8578190610380858c8c6109c1565b35908451916020809601915af1610395610939565b50156103c2575060001981146103af576001018f8f61031d565b50634e487b7160e01b8f5260118b528c8ffd5b8f8f8c8f928f94926d19985a5b1959081d1bc818d85b1b60921b93600e92519562461bcd60e51b8752860152840152820152fd5b610448946104079261035592610969565b80516020918201206001600160e01b03191694610425888c8c610969565b919082915197889485015285840137810186848201520390810184520182610729565b9061035e565b8d516282b42960e81b81528b90fd5b8580fd5b8380fd5b82843461050557610475366107b9565b855493976001600160a01b039594919391861633036102765750926104fc7f76e2796dc3a81d57b0e8504b647febcbeeb5f4af818e164f11eef8131a6a763f9389969389989660209b8a516104d6818f87878761023e938501978d896108c9565b5190209a888c809a5260018e5220600160ff19825416179055895195869516988561090b565b0390a351908152f35b80fd5b5050346100c857816003193601126100c85751f35b905082610529366107b9565b85546001600160a01b03989396939592908916330361071a578551966020978881019061055e8161023e8787878d8c896108c9565b519020948581526001895260ff8882205416156106b1578581526001895287812060ff19815416905580898b8451801560001461066d57505050835b8a8151910189885af1986105ac610939565b99156106045750610600979899927fa560e3198060a2f10670c1ec5b403077ea6ae93ca8de1c32b451dc1a943cd6e794926105ee92895195869516988561090b565b0390a351928284938452830190610873565b0390f35b875162461bcd60e51b8152908101899052603d60248201527f54696d656c6f636b3a3a657865637574655472616e73616374696f6e3a20547260448201527f616e73616374696f6e20657865637574696f6e2072657665727465642e0000006064820152608490fd5b6106ac9160249163ffffffff60e01b9085890120168d519485918183015261069d8a518092868501908d0161083e565b81010390810184520182610729565b61059a565b875162461bcd60e51b8152808b018a9052603d60248201527f54696d656c6f636b3a3a657865637574655472616e73616374696f6e3a20547260448201527f616e73616374696f6e206861736e2774206265656e207175657565642e0000006064820152608490fd5b85516282b42960e81b81528890fd5b90601f8019910116810190811067ffffffffffffffff82111761074b57604052565b634e487b7160e01b600052604160045260246000fd5b67ffffffffffffffff811161074b57601f01601f191660200190565b92919261078982610761565b916107976040519384610729565b8294818452818301116107b4578281602093846000960137010152565b600080fd5b9060a06003198301126107b4576004356001600160a01b03811681036107b457916024359167ffffffffffffffff6044358181116107b457836023820112156107b4578381602461080f9360040135910161077d565b926064359182116107b457806023830112156107b4578160246108379360040135910161077d565b9060843590565b918091926000905b82821061085e575011610857575050565b6000910152565b91508060209183015181860152018291610846565b9060209161088c8151809281855285808601910161083e565b601f01601f1916010190565b9181601f840112156107b45782359167ffffffffffffffff83116107b4576020808501948460051b0101116107b457565b95949390608093610906936108f89260018060a01b03168952602089015260a0604089015260a0880190610873565b908682036060880152610873565b930152565b94939261092b606093610906938852608060208901526080880190610873565b908682036040880152610873565b3d15610964573d9061094a82610761565b916109586040519384610729565b82523d6000602084013e565b606090565b91908110156109ab5760051b81013590601e19813603018212156107b457019081359167ffffffffffffffff83116107b45760200182360381136107b4579190565b634e487b7160e01b600052603260045260246000fd5b91908110156109ab5760051b019056fea2646970667358221220da2be680a292aa0b0fdf3eee89b1d8397a334d462b7829720d0d5c87cabea88364736f6c634300080f0033",
  "immutableReferences": {},
  "source": "// SPDX-License-Identifier: BUSL-1.1\npragma solidity 0.8.15;\n\n/**\n * @dev Simple Timelock for more realistic deployments and scenarios.\n *  Note: do not use in production!\n */\ncontract SimpleTimelock {\n    event NewAdmin(address indexed newAdmin);\n    event CancelTransaction(bytes32 indexed txHash, address indexed target, uint value, string signature, bytes data, uint eta);\n    event ExecuteTransaction(bytes32 indexed txHash, address indexed target, uint value, string signature, bytes data, uint eta);\n    event QueueTransaction(bytes32 indexed txHash, address indexed target, uint value, string signature, bytes data, uint eta);\n\n    address public admin;\n    mapping (bytes32 => bool) public queuedTransactions;\n\n    // For GovernorBravo initiation and compatability\n    uint public constant proposalCount = 1;\n    uint public constant delay = 0;\n    uint public constant GRACE_PERIOD = 14 days;\n\n    error Unauthorized();\n\n    constructor(address admin_) {\n        admin = admin_;\n    }\n\n    receive() external payable {}\n\n    function acceptAdmin() external {\n        return; // Note: not used, just for GovernorBravo compatability\n    }\n\n    function setAdmin(address newAdmin) external {\n        if (msg.sender != admin) revert Unauthorized();\n        admin = newAdmin;\n\n        emit NewAdmin(newAdmin);\n    }\n\n    function queueTransaction(address target, uint value, string memory signature, bytes memory data, uint eta) external returns (bytes32) {\n        if (msg.sender != admin) revert Unauthorized();\n\n        bytes32 txHash = keccak256(abi.encode(target, value, signature, data, eta));\n        queuedTransactions[txHash] = true;\n\n        emit QueueTransaction(txHash, target, value, signature, data, eta);\n        return txHash;\n    }\n\n    function cancelTransaction(address target, uint value, string memory signature, bytes memory data, uint eta) external {\n        if (msg.sender != admin) revert Unauthorized();\n\n        bytes32 txHash = keccak256(abi.encode(target, value, signature, data, eta));\n        queuedTransactions[txHash] = false;\n\n        emit CancelTransaction(txHash, target, value, signature, data, eta);\n    }\n\n    function executeTransaction(address target, uint value, string memory signature, bytes memory data, uint eta) external payable returns (bytes memory) {\n        if (msg.sender != admin) revert Unauthorized();\n\n        bytes32 txHash = keccak256(abi.encode(target, value, signature, data, eta));\n        require(queuedTransactions[txHash], \"Timelock::executeTransaction: Transaction hasn't been queued.\");\n\n        queuedTransactions[txHash] = false;\n\n        bytes memory callData;\n\n        if (bytes(signature).length == 0) {\n            callData = data;\n        } else {\n            callData = abi.encodePacked(bytes4(keccak256(bytes(signature))), data);\n        }\n\n        (bool success, bytes memory returnData) = target.call{value: value}(callData);\n        require(success, \"Timelock::executeTransaction: Transaction execution reverted.\");\n\n        emit ExecuteTransaction(txHash, target, value, signature, data, eta);\n\n        return returnData;\n    }\n\n    // Executes multiple transactions without having to queue them up. Used for easier testing. Can be removed.\n    function executeTransactions(address[] calldata targets, uint[] calldata values, string[] calldata signatures, bytes[] calldata data) external payable {\n        if (msg.sender != admin) revert Unauthorized();\n\n        for (uint i = 0; i < targets.length; i++) {\n            bytes memory callData;\n\n            if (bytes(signatures[i]).length == 0) {\n                callData = data[i];\n            } else {\n                callData = abi.encodePacked(bytes4(keccak256(bytes(signatures[i]))), data[i]);\n            }\n\n            (bool success, ) = targets[i].call{value: values[i]}(callData);\n            require(success, \"failed to call\");\n        }\n    }\n}\n",
  "sourcePath": "/home/stephensb/sb-labs/solidity-contracts/contracts/comet/contracts/test/SimpleTimelock.sol",
  "compiler": {
    "name": "solc",
    "version": "0.8.15+commit.e14f2714.Emscripten.clang"
  },
  "schemaVersion": "3.4.12",
  "updatedAt": "2023-11-30T22:41:29.738Z",
  "devdoc": {
    "details": "Simple Timelock for more realistic deployments and scenarios.  Note: do not use in production!",
    "kind": "dev",
    "methods": {},
    "version": 1
  },
  "userdoc": {
    "kind": "user",
    "methods": {},
    "version": 1
  }
}