{
  "contractName": "SimpleWstETH",
  "abi": [
    {
      "inputs": [
        {
          "internalType": "uint256",
          "name": "tokensPerStEth_",
          "type": "uint256"
        }
      ],
      "stateMutability": "nonpayable",
      "type": "constructor"
    },
    {
      "inputs": [],
      "name": "decimals",
      "outputs": [
        {
          "internalType": "uint8",
          "name": "",
          "type": "uint8"
        }
      ],
      "stateMutability": "view",
      "type": "function"
    },
    {
      "inputs": [],
      "name": "tokensPerStEth",
      "outputs": [
        {
          "internalType": "uint256",
          "name": "",
          "type": "uint256"
        }
      ],
      "stateMutability": "view",
      "type": "function"
    }
  ],
  "bytecode": "0x60a03461005857601f61013638819003918201601f19168301916001600160401b0383118484101761005d57808492602094604052833981010312610058575160805260405160c2908161007482396080518160490152f35b600080fd5b634e487b7160e01b600052604160045260246000fdfe6080806040526004361015601257600080fd5b600090813560e01c908163313ce56714606f5750639576a0c814603457600080fd5b34606c5780600319360112606c5760206040517f00000000000000000000000000000000000000000000000000000000000000008152f35b80fd5b9050346088578160031936011260885780601260209252f35b5080fdfea2646970667358221220e4a18eb642144acd28dfff7446bb9fae253814fb579e24b618af811f4f23776b64736f6c634300080f0033",
  "immutableReferences": {
    "17838": [
      {
        "length": 32,
        "start": 73
      }
    ]
  },
  "source": "// SPDX-License-Identifier: BUSL-1.1\npragma solidity 0.8.15;\n\ncontract SimpleWstETH {\n    uint8 public constant decimals = 18;\n\n    uint public immutable tokensPerStEth;\n\n    constructor(uint tokensPerStEth_) {\n        tokensPerStEth = tokensPerStEth_;\n    }\n}",
  "sourcePath": "/home/stephensb/sb-labs/solidity-contracts/contracts/comet/contracts/test/SimpleWstETH.sol",
  "compiler": {
    "name": "solc",
    "version": "0.8.15+commit.e14f2714.Emscripten.clang"
  },
  "schemaVersion": "3.4.12",
  "updatedAt": "2023-11-30T22:41:29.739Z",
  "devdoc": {
    "kind": "dev",
    "methods": {},
    "version": 1
  },
  "userdoc": {
    "kind": "user",
    "methods": {},
    "version": 1
  }
}