{
  "contractName": "SweepableBridgeReceiver",
  "abi": [
    {
      "inputs": [],
      "name": "AlreadyInitialized",
      "type": "error"
    },
    {
      "inputs": [],
      "name": "BadData",
      "type": "error"
    },
    {
      "inputs": [],
      "name": "FailedToSendNativeToken",
      "type": "error"
    },
    {
      "inputs": [],
      "name": "InvalidProposalId",
      "type": "error"
    },
    {
      "inputs": [],
      "name": "InvalidTimelockAdmin",
      "type": "error"
    },
    {
      "inputs": [],
      "name": "ProposalNotExecutable",
      "type": "error"
    },
    {
      "inputs": [],
      "name": "TransactionAlreadyQueued",
      "type": "error"
    },
    {
      "inputs": [],
      "name": "TransferOutFailed",
      "type": "error"
    },
    {
      "inputs": [],
      "name": "Unauthorized",
      "type": "error"
    },
    {
      "anonymous": false,
      "inputs": [
        {
          "indexed": true,
          "internalType": "address",
          "name": "govTimelock",
          "type": "address"
        },
        {
          "indexed": true,
          "internalType": "address",
          "name": "localTimelock",
          "type": "address"
        }
      ],
      "name": "Initialized",
      "type": "event"
    },
    {
      "anonymous": false,
      "inputs": [
        {
          "indexed": true,
          "internalType": "address",
          "name": "rootMessageSender",
          "type": "address"
        },
        {
          "indexed": false,
          "internalType": "uint256",
          "name": "id",
          "type": "uint256"
        },
        {
          "indexed": false,
          "internalType": "address[]",
          "name": "targets",
          "type": "address[]"
        },
        {
          "indexed": false,
          "internalType": "uint256[]",
          "name": "values",
          "type": "uint256[]"
        },
        {
          "indexed": false,
          "internalType": "string[]",
          "name": "signatures",
          "type": "string[]"
        },
        {
          "indexed": false,
          "internalType": "bytes[]",
          "name": "calldatas",
          "type": "bytes[]"
        },
        {
          "indexed": false,
          "internalType": "uint256",
          "name": "eta",
          "type": "uint256"
        }
      ],
      "name": "ProposalCreated",
      "type": "event"
    },
    {
      "anonymous": false,
      "inputs": [
        {
          "indexed": true,
          "internalType": "uint256",
          "name": "id",
          "type": "uint256"
        }
      ],
      "name": "ProposalExecuted",
      "type": "event"
    },
    {
      "inputs": [
        {
          "internalType": "uint256",
          "name": "proposalId",
          "type": "uint256"
        }
      ],
      "name": "executeProposal",
      "outputs": [],
      "stateMutability": "nonpayable",
      "type": "function"
    },
    {
      "inputs": [],
      "name": "govTimelock",
      "outputs": [
        {
          "internalType": "address",
          "name": "",
          "type": "address"
        }
      ],
      "stateMutability": "view",
      "type": "function"
    },
    {
      "inputs": [
        {
          "internalType": "address",
          "name": "_govTimelock",
          "type": "address"
        },
        {
          "internalType": "address",
          "name": "_localTimelock",
          "type": "address"
        }
      ],
      "name": "initialize",
      "outputs": [],
      "stateMutability": "nonpayable",
      "type": "function"
    },
    {
      "inputs": [],
      "name": "initialized",
      "outputs": [
        {
          "internalType": "bool",
          "name": "",
          "type": "bool"
        }
      ],
      "stateMutability": "view",
      "type": "function"
    },
    {
      "inputs": [],
      "name": "localTimelock",
      "outputs": [
        {
          "internalType": "address",
          "name": "",
          "type": "address"
        }
      ],
      "stateMutability": "view",
      "type": "function"
    },
    {
      "inputs": [],
      "name": "proposalCount",
      "outputs": [
        {
          "internalType": "uint256",
          "name": "",
          "type": "uint256"
        }
      ],
      "stateMutability": "view",
      "type": "function"
    },
    {
      "inputs": [
        {
          "internalType": "uint256",
          "name": "",
          "type": "uint256"
        }
      ],
      "name": "proposals",
      "outputs": [
        {
          "internalType": "uint256",
          "name": "id",
          "type": "uint256"
        },
        {
          "internalType": "uint256",
          "name": "eta",
          "type": "uint256"
        },
        {
          "internalType": "bool",
          "name": "executed",
          "type": "bool"
        }
      ],
      "stateMutability": "view",
      "type": "function"
    },
    {
      "inputs": [
        {
          "internalType": "uint256",
          "name": "proposalId",
          "type": "uint256"
        }
      ],
      "name": "state",
      "outputs": [
        {
          "internalType": "enum BaseBridgeReceiver.ProposalState",
          "name": "",
          "type": "uint8"
        }
      ],
      "stateMutability": "view",
      "type": "function"
    },
    {
      "inputs": [
        {
          "internalType": "address",
          "name": "recipient",
          "type": "address"
        },
        {
          "internalType": "address",
          "name": "asset",
          "type": "address"
        }
      ],
      "name": "sweepToken",
      "outputs": [],
      "stateMutability": "nonpayable",
      "type": "function"
    },
    {
      "inputs": [
        {
          "internalType": "address",
          "name": "recipient",
          "type": "address"
        }
      ],
      "name": "sweepNativeToken",
      "outputs": [],
      "stateMutability": "nonpayable",
      "type": "function"
    }
  ],
  "bytecode": "0x6080806040523461001657610c9c908161001c8239f35b600080fdfe60806040526004361015610013575b600080fd5b60003560e01c8063013cf08b146100db5780630d61b519146100d2578063158ef93e146100c957806322086dbe146100c0578063258836fe146100b75780633e4f49e6146100ae578063485cc955146100a5578063824343dd1461009c578063b660c156146100935763da35c6641461008b57600080fd5b61000e610655565b5061000e6105d2565b5061000e6105a8565b5061000e61046a565b5061000e610440565b5061000e610365565b5061000e610302565b5061000e6102db565b5061000e61012a565b3461000e576100e936610118565b6000526003602052604060002080549060ff60066005830154920154169160805260a052151560c05260606080f35b602090600319011261000e5760043590565b503461000e5761013936610118565b61014281610ad7565b61014b81610420565b6102be57610163816000526003602052604060002090565b60068101805460ff191660011790559060038201916001906004808201918381019160028201916005016000865b6101c3575b600088604051907f712ae1383f79ac853f8d882153778e0260ef8f03b504e2866e0593e04d2b291f8383a2f35b84548110156102b957610283818760008c8989838a8f9961024e81610247816102418f8261023161021c61026d9961021661020a61020a610237975460018060a01b031690565b6001600160a01b031690565b9e61073f565b905460039190911b1c6001600160a01b031690565b9a61073f565b90549060031b1c90565b9961073f565b509961073f565b508c5490604051998a9889978896630825f38f60e01b885287016108e3565b03925af180156102ac575b610289575b50610723565b90610191565b6102a5903d806000833e61029d81836106c8565b810190610798565b503861027d565b6102b46106ff565b610278565b610196565b604051633c7e994560e11b8152600490fd5b600091031261000e57565b503461000e57600036600319011261000e57602060ff60015460a01c166040519015158152f35b503461000e57600036600319011261000e576000546040516001600160a01b039091168152602090f35b6001600160a01b0381160361000e57565b604090600319011261000e576004356103558161032c565b906024356103628161032c565b90565b503461000e576103743661033d565b600154610389906001600160a01b031661020a565b330361040f576040516370a0823160e01b81523060048201526103d09290916020836024816001600160a01b0385165afa928315610402575b6000936103d2575b50610bba565b005b6103f491935060203d81116103fb575b6103ec81836106c8565b810190610abc565b91386103ca565b503d6103e2565b61040a6106ff565b6103c2565b6040516282b42960e81b8152600490fd5b6003111561042a57565b634e487b7160e01b600052602160045260246000fd5b503461000e5761045761045236610118565b610ad7565b604051600382101561042a576020918152f35b503461000e576104793661033d565b9061048a60015460ff9060a01c1690565b610597576040516303e1469160e61b81526001600160a01b0383811691602081600481865afa90811561058a575b60009161055c575b50813091160361054a57600080546001600160a01b0319166001600160a01b0385161781559361050c9060018060a01b03166bffffffffffffffffffffffff60a01b6001541617600155565b6001805460ff60a01b1916600160a01b17905560405192167f3cd5ec01b1ae7cfec6ca1863e2cd6aa25d6d1702825803ff2b7cc95010fffdc28484a3f35b6040516336e038cd60e21b8152600490fd5b61057d915060203d8111610583575b61057581836106c8565b8101906106ea565b386104c0565b503d61056b565b6105926106ff565b6104b8565b60405162dc149f60e41b8152600490fd5b503461000e57600036600319011261000e576001546040516001600160a01b039091168152602090f35b503461000e57602036600319011261000e576004356105f08161032c565b6001546001600160a01b0316330361040f57600080809247604051915af13d15610650573d61061e8161076d565b9061062c60405192836106c8565b8152600060203d92013e5b1561063e57005b60405163d1a4579f60e01b8152600490fd5b610637565b503461000e57600036600319011261000e576020600254604051908152f35b50634e487b7160e01b600052604160045260246000fd5b60e0810190811067ffffffffffffffff8211176106a757604052565b6106af610674565b604052565b67ffffffffffffffff81116106a757604052565b90601f8019910116810190811067ffffffffffffffff8211176106a757604052565b9081602091031261000e57516103628161032c565b506040513d6000823e3d90fd5b50634e487b7160e01b600052601160045260246000fd5b6001906000198114610733570190565b61073b61070c565b0190565b80548210156107575760005260206000200190600090565b634e487b7160e01b600052603260045260246000fd5b60209067ffffffffffffffff811161078b575b601f01601f19160190565b610793610674565b610780565b602090818184031261000e5780519067ffffffffffffffff821161000e57019082601f8301121561000e578151916107cf8361076d565b936107dd60405195866106c8565b83855282848301011161000e5782906000905b8383831061080e5750501161080457505090565b6000918301015290565b819350828193920101518282880101520183916107f0565b80546000939260018083169383821c9385156108d9575b60209586861081146108c3578585529081156108a45750600114610863575b5050505050565b90939495506000929192528360002092846000945b8386106108905750505050010190388080808061085c565b805485870183015294019385908201610878565b60ff19168685015250505090151560051b01019150388080808061085c565b634e487b7160e01b600052602260045260246000fd5b93607f169361083d565b95949390608093610920936109129260018060a01b03168952602089015260a0604089015260a0880190610826565b908682036060880152610826565b930152565b9060405191828154918282526020928383019160005283600020936000905b82821061095c5750505061095a925003836106c8565b565b855484526001958601958895509381019390910190610944565b90815467ffffffffffffffff81116109ea575b6020926040938451946109a1828560051b01876106c8565b8386526000928352818320908287015b8585106109c057505050505050565b600184819284516109dc816109d5818a610826565b03826106c8565b8152019301940193916109b1565b6109f2610674565b610989565b90604051610a048161068b565b8092805482526001808201604051908192815490818452602080940192600052836000209160005b818110610aa0575050505061095a949383610a9993610a5160c09660069503836106c8565b860152610a6060028201610925565b6040860152610a7160038201610976565b6060860152610a8260048201610976565b6080860152600581015460a0860152015460ff1690565b1515910152565b83546001600160a01b0316855293850193928201928201610a2c565b9081602091031261000e575190565b81198111610733570190565b60025481118015610bb2575b610ba057610afe610b03916000526003602052604060002090565b6109f7565b60c081015115610b135750600290565b60a00151600154610b6291600491602090610b389061020a906001600160a01b031681565b6040516360d143f160e11b815293849182905afa918215610b93575b600092610b73575b50610acb565b421115610b6e57600190565b600090565b610b8c91925060203d81116103fb576103ec81836106c8565b9038610b5c565b610b9b6106ff565b610b54565b604051630992f7ad60e01b8152600490fd5b508015610ae3565b6001600160a01b03939290841690813b1561000e5760405194859363a9059cbb60e01b855216600484015260248301528160446000958680945af18015610c59575b610c40575b503d8015610c3557602014610c14575080fd5b90602081803e515b15610c2357565b60405163cefaffeb60e01b8152600490fd5b509050600019610c1c565b80610c4d610c53926106b4565b806102d0565b38610c01565b610c616106ff565b610bfc56fea2646970667358221220a20e44634975773a08410e32595dc24d9b37493e30ca4754103de991ab4865b964736f6c634300080f0033",
  "immutableReferences": {},
  "source": "// SPDX-License-Identifier: BUSL-1.1\npragma solidity 0.8.15;\n\nimport \"../IERC20NonStandard.sol\";\nimport \"./BaseBridgeReceiver.sol\";\n\ncontract SweepableBridgeReceiver is BaseBridgeReceiver {\n    error FailedToSendNativeToken();\n    error TransferOutFailed();\n\n    /**\n     * @notice A public function to sweep accidental ERC-20 transfers to this contract\n     * @dev Note: Make sure to check that the asset being swept out is not malicious\n     * @param recipient The address that will receive the swept funds\n     * @param asset The address of the ERC-20 token to sweep\n     */\n    function sweepToken(address recipient, address asset) external {\n        if (msg.sender != localTimelock) revert Unauthorized();\n\n        uint256 balance = IERC20NonStandard(asset).balanceOf(address(this));\n        doTransferOut(asset, recipient, balance);\n    }\n\n    /**\n     * @notice A public function to sweep accidental native token transfers to this contract\n     * @param recipient The address that will receive the swept funds\n     */\n    function sweepNativeToken(address recipient) external {\n        if (msg.sender != localTimelock) revert Unauthorized();\n\n        uint256 balance = address(this).balance;\n        (bool success, ) = recipient.call{ value: balance }(\"\");\n        if (!success) revert FailedToSendNativeToken();\n    }\n\n    /**\n     * @notice Similar to ERC-20 transfer, except it properly handles `transfer` from non-standard ERC-20 tokens\n     * @param asset The ERC-20 token to transfer out\n     * @param to The recipient of the token transfer\n     * @param amount The amount of the token to transfer\n     * @dev Note: This wrapper safely handles non-standard ERC-20 tokens that do not return a value. See here: https://medium.com/coinmonks/missing-return-value-bug-at-least-130-tokens-affected-d67bf08521ca\n     */\n    function doTransferOut(address asset, address to, uint amount) internal {\n        IERC20NonStandard(asset).transfer(to, amount);\n\n        bool success;\n        assembly {\n            switch returndatasize()\n                case 0 {                      // This is a non-standard ERC-20\n                    success := not(0)         // set success to true\n                }\n                case 32 {                     // This is a compliant ERC-20\n                    returndatacopy(0, 0, 32)\n                    success := mload(0)       // Set `success = returndata` of override external call\n                }\n                default {                     // This is an excessively non-compliant ERC-20, revert.\n                    revert(0, 0)\n                }\n        }\n        if (!success) revert TransferOutFailed();\n    }\n}",
  "sourcePath": "/home/stephensb/sb-labs/solidity-contracts/contracts/comet/contracts/bridges/SweepableBridgeReceiver.sol",
  "compiler": {
    "name": "solc",
    "version": "0.8.15+commit.e14f2714.Emscripten.clang"
  },
  "schemaVersion": "3.4.12",
  "updatedAt": "2023-11-30T22:41:29.681Z",
  "devdoc": {
    "kind": "dev",
    "methods": {
      "executeProposal(uint256)": {
        "params": {
          "proposalId": "The id of the proposal to execute"
        }
      },
      "initialize(address,address)": {
        "params": {
          "_govTimelock": "Address of the governing contract that this contract will receive messages from (likely on another chain)",
          "_localTimelock": "Address of the timelock contract that this contract will send messages to"
        }
      },
      "state(uint256)": {
        "params": {
          "proposalId": "Id of the proposal"
        },
        "returns": {
          "_0": "The state of the given proposal (queued, expired or executed)"
        }
      },
      "sweepNativeToken(address)": {
        "params": {
          "recipient": "The address that will receive the swept funds"
        }
      },
      "sweepToken(address,address)": {
        "details": "Note: Make sure to check that the asset being swept out is not malicious",
        "params": {
          "asset": "The address of the ERC-20 token to sweep",
          "recipient": "The address that will receive the swept funds"
        }
      }
    },
    "version": 1
  },
  "userdoc": {
    "errors": {
      "AlreadyInitialized()": [
        {
          "notice": "Custom errors *"
        }
      ]
    },
    "events": {
      "Initialized(address,address)": {
        "notice": "Events *"
      }
    },
    "kind": "user",
    "methods": {
      "executeProposal(uint256)": {
        "notice": "Execute a queued proposal"
      },
      "govTimelock()": {
        "notice": "Address of the governing contract that this bridge receiver expects to  receive messages from; likely an address from another chain (e.g. mainnet)"
      },
      "initialize(address,address)": {
        "notice": "Initialize the contract"
      },
      "initialized()": {
        "notice": "Whether contract has been initialized"
      },
      "localTimelock()": {
        "notice": "Address of the timelock on this chain that the bridge receiver will send messages to"
      },
      "proposalCount()": {
        "notice": "Total count of proposals generated"
      },
      "proposals(uint256)": {
        "notice": "Mapping of proposal ids to their full proposal data"
      },
      "state(uint256)": {
        "notice": "Get the state of a proposal"
      },
      "sweepNativeToken(address)": {
        "notice": "A public function to sweep accidental native token transfers to this contract"
      },
      "sweepToken(address,address)": {
        "notice": "A public function to sweep accidental ERC-20 transfers to this contract"
      }
    },
    "version": 1
  }
}