{
  "contractName": "SweepableBridgeReceiverHarness",
  "abi": [
    {
      "inputs": [],
      "name": "AlreadyInitialized",
      "type": "error"
    },
    {
      "inputs": [],
      "name": "BadData",
      "type": "error"
    },
    {
      "inputs": [],
      "name": "FailedToSendNativeToken",
      "type": "error"
    },
    {
      "inputs": [],
      "name": "InvalidProposalId",
      "type": "error"
    },
    {
      "inputs": [],
      "name": "InvalidTimelockAdmin",
      "type": "error"
    },
    {
      "inputs": [],
      "name": "ProposalNotExecutable",
      "type": "error"
    },
    {
      "inputs": [],
      "name": "TransactionAlreadyQueued",
      "type": "error"
    },
    {
      "inputs": [],
      "name": "TransferOutFailed",
      "type": "error"
    },
    {
      "inputs": [],
      "name": "Unauthorized",
      "type": "error"
    },
    {
      "anonymous": false,
      "inputs": [
        {
          "indexed": true,
          "internalType": "address",
          "name": "govTimelock",
          "type": "address"
        },
        {
          "indexed": true,
          "internalType": "address",
          "name": "localTimelock",
          "type": "address"
        }
      ],
      "name": "Initialized",
      "type": "event"
    },
    {
      "anonymous": false,
      "inputs": [
        {
          "indexed": true,
          "internalType": "address",
          "name": "rootMessageSender",
          "type": "address"
        },
        {
          "indexed": false,
          "internalType": "uint256",
          "name": "id",
          "type": "uint256"
        },
        {
          "indexed": false,
          "internalType": "address[]",
          "name": "targets",
          "type": "address[]"
        },
        {
          "indexed": false,
          "internalType": "uint256[]",
          "name": "values",
          "type": "uint256[]"
        },
        {
          "indexed": false,
          "internalType": "string[]",
          "name": "signatures",
          "type": "string[]"
        },
        {
          "indexed": false,
          "internalType": "bytes[]",
          "name": "calldatas",
          "type": "bytes[]"
        },
        {
          "indexed": false,
          "internalType": "uint256",
          "name": "eta",
          "type": "uint256"
        }
      ],
      "name": "ProposalCreated",
      "type": "event"
    },
    {
      "anonymous": false,
      "inputs": [
        {
          "indexed": true,
          "internalType": "uint256",
          "name": "id",
          "type": "uint256"
        }
      ],
      "name": "ProposalExecuted",
      "type": "event"
    },
    {
      "stateMutability": "payable",
      "type": "fallback"
    },
    {
      "inputs": [
        {
          "internalType": "uint256",
          "name": "proposalId",
          "type": "uint256"
        }
      ],
      "name": "executeProposal",
      "outputs": [],
      "stateMutability": "nonpayable",
      "type": "function"
    },
    {
      "inputs": [],
      "name": "govTimelock",
      "outputs": [
        {
          "internalType": "address",
          "name": "",
          "type": "address"
        }
      ],
      "stateMutability": "view",
      "type": "function"
    },
    {
      "inputs": [
        {
          "internalType": "address",
          "name": "_govTimelock",
          "type": "address"
        },
        {
          "internalType": "address",
          "name": "_localTimelock",
          "type": "address"
        }
      ],
      "name": "initialize",
      "outputs": [],
      "stateMutability": "nonpayable",
      "type": "function"
    },
    {
      "inputs": [],
      "name": "initialized",
      "outputs": [
        {
          "internalType": "bool",
          "name": "",
          "type": "bool"
        }
      ],
      "stateMutability": "view",
      "type": "function"
    },
    {
      "inputs": [],
      "name": "localTimelock",
      "outputs": [
        {
          "internalType": "address",
          "name": "",
          "type": "address"
        }
      ],
      "stateMutability": "view",
      "type": "function"
    },
    {
      "inputs": [],
      "name": "proposalCount",
      "outputs": [
        {
          "internalType": "uint256",
          "name": "",
          "type": "uint256"
        }
      ],
      "stateMutability": "view",
      "type": "function"
    },
    {
      "inputs": [
        {
          "internalType": "uint256",
          "name": "",
          "type": "uint256"
        }
      ],
      "name": "proposals",
      "outputs": [
        {
          "internalType": "uint256",
          "name": "id",
          "type": "uint256"
        },
        {
          "internalType": "uint256",
          "name": "eta",
          "type": "uint256"
        },
        {
          "internalType": "bool",
          "name": "executed",
          "type": "bool"
        }
      ],
      "stateMutability": "view",
      "type": "function"
    },
    {
      "inputs": [
        {
          "internalType": "uint256",
          "name": "proposalId",
          "type": "uint256"
        }
      ],
      "name": "state",
      "outputs": [
        {
          "internalType": "enum BaseBridgeReceiver.ProposalState",
          "name": "",
          "type": "uint8"
        }
      ],
      "stateMutability": "view",
      "type": "function"
    },
    {
      "inputs": [
        {
          "internalType": "address",
          "name": "recipient",
          "type": "address"
        }
      ],
      "name": "sweepNativeToken",
      "outputs": [],
      "stateMutability": "nonpayable",
      "type": "function"
    },
    {
      "inputs": [
        {
          "internalType": "address",
          "name": "recipient",
          "type": "address"
        },
        {
          "internalType": "address",
          "name": "asset",
          "type": "address"
        }
      ],
      "name": "sweepToken",
      "outputs": [],
      "stateMutability": "nonpayable",
      "type": "function"
    },
    {
      "inputs": [
        {
          "internalType": "address",
          "name": "rootMessageSender",
          "type": "address"
        },
        {
          "internalType": "bytes",
          "name": "data",
          "type": "bytes"
        }
      ],
      "name": "processMessageExternal",
      "outputs": [],
      "stateMutability": "nonpayable",
      "type": "function"
    }
  ],
  "bytecode": "0x60808060405234610016576117f7908161001c8239f35b600080fdfe6080604052600436101561000f57005b60003560e01c8063013cf08b146100ea5780630d61b519146100e1578063158ef93e146100d857806322086dbe146100cf578063258836fe146100c65780633e4f49e6146100bd578063485cc955146100b4578063824343dd146100ab578063b660c156146100a2578063da35c664146100995763e231ac361461008f57005b610097610689565b005b5061009761066a565b506100976105e7565b506100976105bd565b5061009761047f565b5061009761044f565b50610097610376565b50610097610313565b506100976102ec565b50610097610138565b50346101335760203660031901126101335760043560005260036020526060604060002080549060ff600660058301549201541690604051928352602083015215156040820152f35b600080fd5b5034610133576020366003190112610133576004803561015781610efe565b6101608161042f565b6102d157610178816000526003602052604060002090565b60068101805460ff19166001179055916003830192600191808201918381019160028201916005016000865b6101d6575b600088604051907f712ae1383f79ac853f8d882153778e0260ef8f03b504e2866e0593e04d2b291f8383a2f35b84548110156102cc57610296818760008c8989838a8f996102618161025a816102548f8261024461022f6102809961022961021d61021d61024a975460018060a01b031690565b6001600160a01b031690565b9e610b36565b905460039190911b1c6001600160a01b031690565b9a610b36565b90549060031b1c90565b99610b36565b5099610b36565b508c5490604051998a9889978896630825f38f60e01b88528701610cfa565b03925af180156102bf575b61029c575b50610b03565b906101a4565b6102b8903d806000833e6102b08183610aa8565b810190610bcb565b5038610290565b6102c7610adf565b61028b565b6101a9565b50604051633c7e994560e11b8152fd5b600091031261013357565b503461013357600036600319011261013357602060ff60015460a01c166040519015158152f35b5034610133576000366003190112610133576000546040516001600160a01b039091168152602090f35b6001600160a01b0381160361013357565b6040906003190112610133576004356103668161033d565b906024356103738161033d565b90565b5034610133576103853661034e565b60015461039a906001600160a01b031661021d565b330361041e576040516370a0823160e01b81523060048201526100979290916020836024816001600160a01b0385165afa928315610411575b6000936103e1575b50610fe1565b61040391935060203d811161040a575b6103fb8183610aa8565b810190610ee3565b91386103db565b503d6103f1565b610419610adf565b6103d3565b6040516282b42960e81b8152600490fd5b6003111561043957565b634e487b7160e01b600052602160045260246000fd5b50346101335760203660031901126101335761046c600435610efe565b6040516003821015610439576020918152f35b50346101335761048e3661034e565b9061049f60015460ff9060a01c1690565b6105ac576040516303e1469160e61b81526001600160a01b0383811691602081600481865afa90811561059f575b600091610571575b50813091160361055f57600080546001600160a01b0319166001600160a01b038516178155936105219060018060a01b03166bffffffffffffffffffffffff60a01b6001541617600155565b6001805460ff60a01b1916600160a01b17905560405192167f3cd5ec01b1ae7cfec6ca1863e2cd6aa25d6d1702825803ff2b7cc95010fffdc28484a3f35b6040516336e038cd60e21b8152600490fd5b610592915060203d8111610598575b61058a8183610aa8565b810190610aca565b386104d5565b503d610580565b6105a7610adf565b6104cd565b60405162dc149f60e41b8152600490fd5b5034610133576000366003190112610133576001546040516001600160a01b039091168152602090f35b5034610133576020366003190112610133576004356106058161033d565b6001546001600160a01b0316330361041e57600080809247604051915af13d15610665573d61063381610b6b565b906106416040519283610aa8565b8152600060203d92013e5b1561065357005b60405163d1a4579f60e01b8152600490fd5b61064c565b5034610133576000366003190112610133576020600254604051908152f35b5034610133576040806003193601126101335760049081356106aa8161033d565b6024359267ffffffffffffffff8085116101335736602386011215610133578482013590811161013357840160240136811161013357600080549095906106f9906001600160a01b031661021d565b6001600160a01b03909416938403610a455790602461071892016111b5565b908293949251855103610a35578051855103610a35578151855103610a3557600180549093906107529061021d906001600160a01b031681565b9061078889518093630d48571f60e31b8252818460209687935afa908115610a28575b8c91610a0b575b50918b918b9342610ef2565b9682815b610832575b5050509661081f61082c959361081a83999896947f216ba108683905cf17ff4c7b04b9711edbdf8ebf5cc06eeecee4b5d5e7c3c6d29b6107da6107d5600254610b03565b600255565b8a600254926107e7610b5c565b9788968588528701528501528660608501528760808501528860a085015260c08401526000526003602052604060002090565b6115cb565b519489519687968761173b565b0390a251f35b91938a93919351831015610a0257859083808b818f8f8d8f9184938d5461085e9060018060a01b031690565b6001600160a01b03169861087191611284565b516001600160a01b03169361088591611284565b519561089091611284565b519261089b91611284565b51928651938493898501966108b094886112cb565b03601f19810182526108c29082610aa8565b519020915163f2b0653760e01b8152878101928352938492839190829060200103925af19081156109f5575b8d916109c8575b506109b85761098a8187868f8f8d8f91928a8f610975908f9661095a8b8f9e8f906109538161094d6109408261093a61021d61021d610953995460018060a01b031690565b9f611284565b516001600160a01b031690565b9b611284565b519b611284565b519051633a66f90160e01b8152998a988997889687016112cb565b03925af180156109ab575b6109955750610b03565b918c928c949261078c565b6102b890873d891161040a576103fb8183610aa8565b6109b3610adf565b610980565b8a516333108cbb60e01b81528390fd5b6109e89150853d87116109ee575b6109e08183610aa8565b810190611308565b386108f5565b503d6109d6565b6109fd610adf565b6108ee565b93819350610791565b610a229150843d861161040a576103fb8183610aa8565b3861077c565b610a30610adf565b610775565b865163a554dcdf60e01b81528390fd5b84516282b42960e81b81528390fd5b50634e487b7160e01b600052604160045260246000fd5b60e0810190811067ffffffffffffffff821117610a8757604052565b610a8f610a54565b604052565b67ffffffffffffffff8111610a8757604052565b90601f8019910116810190811067ffffffffffffffff821117610a8757604052565b9081602091031261013357516103738161033d565b506040513d6000823e3d90fd5b50634e487b7160e01b600052601160045260246000fd5b6001906000198114610b13570190565b610b1b610aec565b0190565b50634e487b7160e01b600052603260045260246000fd5b8054821015610b4f575b60005260206000200190600090565b610b57610b1f565b610b40565b60405190610b6982610a6b565b565b60209067ffffffffffffffff8111610b89575b601f01601f19160190565b610b91610a54565b610b7e565b918091926000905b828210610bb6575011610baf575050565b6000910152565b91508060209183015181860152018291610b9e565b6020818303126101335780519067ffffffffffffffff8211610133570181601f82011215610133578051610bfe81610b6b565b92610c0c6040519485610aa8565b81845260208284010111610133576103739160208085019101610b96565b90600182811c92168015610c5a575b6020831014610c4457565b634e487b7160e01b600052602260045260246000fd5b91607f1691610c39565b9060009291805491610c7583610c2a565b918282526001938481169081600014610cd75750600114610c97575b50505050565b90919394506000526020928360002092846000945b838610610cc3575050505001019038808080610c91565b805485870183015294019385908201610cac565b9294505050602093945060ff191683830152151560051b01019038808080610c91565b95949390608093610d3793610d299260018060a01b03168952602089015260a0604089015260a0880190610c64565b908682036060880152610c64565b930152565b9060405191828154918282526020928383019160005283600020936000905b828210610d7157505050610b6992500383610aa8565b855484526001958601958895509381019390910190610d5b565b60209067ffffffffffffffff8111610da5575b60051b0190565b610dad610a54565b610d9e565b908154610dbe81610d8b565b92604093610dce85519182610aa8565b828152809460208092019260005281600020906000935b858510610df457505050505050565b60018481928451610e1081610e09818a610c64565b0382610aa8565b815201930194019391610de5565b90604051610e2b81610a6b565b8092805482526001808201604051908192815490818452602080940192600052836000209160005b818110610ec75750505050610b69949383610ec093610e7860c0966006950383610aa8565b860152610e8760028201610d3c565b6040860152610e9860038201610db2565b6060860152610ea960048201610db2565b6080860152600581015460a0860152015460ff1690565b1515910152565b83546001600160a01b0316855293850193928201928201610e53565b90816020910312610133575190565b81198111610b13570190565b60025481118015610fd9575b610fc757610f25610f2a916000526003602052604060002090565b610e1e565b60c081015115610f3a5750600290565b60a00151600154610f8991600491602090610f5f9061021d906001600160a01b031681565b6040516360d143f160e11b815293849182905afa918215610fba575b600092610f9a575b50610ef2565b421115610f9557600190565b600090565b610fb391925060203d811161040a576103fb8183610aa8565b9038610f83565b610fc2610adf565b610f7b565b604051630992f7ad60e01b8152600490fd5b508015610f0a565b6001600160a01b03939290841690813b156101335760405194859363a9059cbb60e01b855216600484015260248301528160446000958680945af18015611080575b611067575b503d801561105c5760201461103b575080fd5b90602081803e515b1561104a57565b60405163cefaffeb60e01b8152600490fd5b509050600019611043565b8061107461107a92610a94565b806102e1565b38611028565b611088610adf565b611023565b81601f82011215610133578035916110a483610d8b565b926110b26040519485610aa8565b808452602092838086019260051b820101928311610133578301905b8282106110dc575050505090565b813581529083019083016110ce565b9291926110f782610b6b565b916111056040519384610aa8565b829481845281830111610133578281602093846000960137010152565b81601f820112156101335780359061113982610d8b565b9260409261114984519586610aa8565b808552602093848087019260051b8501019383851161013357858101925b858410611178575050505050505090565b833567ffffffffffffffff811161013357820185603f820112156101335787916111aa878387868096013591016110eb565b815201930192611167565b916080838303126101335767ffffffffffffffff9083358281116101335784019383601f860112156101335784356111ec81610d8b565b906111fa6040519283610aa8565b808252602096878084019260051b820101918783116101335788809201905b83821061126b575050505094810135838111610133578461123b91830161108d565b9360408201358481116101335781611254918401611122565b936060830135908111610133576103739201611122565b82809183356112798161033d565b815201910190611219565b6020918151811015611299575b60051b010190565b6112a1610b1f565b611291565b906020916112bf81518092818552858086019101610b96565b601f01601f1916010190565b95949390608093610d37936112fa9260018060a01b03168952602089015260a0604089015260a08801906112a6565b9086820360608801526112a6565b90816020910312610133575180151581036101335790565b81811061132b575050565b60008155600101611320565b9181811061134457505050565b610b699260005260206000209182019101611320565b815191600160401b83116113ac575b61137883835481855584611337565b602080910191600052806000206000925b848410611397575050505050565b60018382829351855501920193019290611389565b6113b4610a54565b611369565b9190601f81116113c857505050565b610b69926000526020600020906020601f840160051c830193106113f4575b601f0160051c0190611320565b90915081906113e7565b919091825167ffffffffffffffff81116114ce575b611427816114218454610c2a565b846113b9565b602080601f8311600114611463575081929394600092611458575b50508160011b916000199060031b1c1916179055565b015190503880611442565b90601f1983169561147985600052602060002090565b926000905b8882106114b65750508360019596971061149d575b505050811b019055565b015160001960f88460031b161c19169055388080611493565b8060018596829496860151815501950193019061147e565b6114d6610a54565b611413565b815191600160401b83116115be575b815483835580841061153a575b5061150c602080920192600052602060002090565b6000925b84841061151e575050505050565b6001838261152e839451866113fe565b01920193019290611510565b6000838152846020822092830192015b8281106115585750506114f7565b8061156560019254610c2a565b80611572575b500161154a565b601f90818111841461158a5750508281555b3861156b565b836115ac9261159e85600052602060002090565b920160051c82019101611320565b60008181526020812081835555611584565b6115c6610a54565b6114ea565b90805182556001808301602090818401519180835193600160401b85116116a5575b6115fc85855481875586611337565b0191600052806000206000925b8484106116795750505050505090600661166660c0846116336040610b699701516002870161135a565b6116446060820151600387016114db565b6116556080820151600487016114db565b60a081015160058601550151151590565b91019060ff801983541691151516179055565b805182546001600160a01b0319166001600160a01b039190911617825592850192908501908201611609565b6116ad610a54565b6115ed565b90815180825260208080930193019160005b8281106116d2575050505090565b8351855293810193928101926001016116c4565b90815180825260208092019182818360051b85019501936000915b8483106117115750505050505090565b909192939495848061172b83856001950387528a516112a6565b9801930193019194939290611701565b96959493929060c0880190885260209060c0828a015283518091528160e08a0194019160005b8281106117a45750505050610d379261178883611796938a60a098960360408c01526116b2565b9088820360608a01526116e6565b9086820360808801526116e6565b83516001600160a01b03168652948101949281019260010161176156fea2646970667358221220802591f409ae6981f4d6cf196c9828eee0245e93a207861ec45f5dedf3ed9f0c64736f6c634300080f0033",
  "immutableReferences": {},
  "source": "// SPDX-License-Identifier: BUSL-1.1\npragma solidity 0.8.15;\n\nimport \"../SweepableBridgeReceiver.sol\";\n\ncontract SweepableBridgeReceiverHarness is SweepableBridgeReceiver {\n    function processMessageExternal(\n        address rootMessageSender,\n        bytes calldata data\n    ) external {\n        processMessage(rootMessageSender, data);\n    }\n\n    fallback() external payable { }\n}\n",
  "sourcePath": "/home/stephensb/sb-labs/solidity-contracts/contracts/comet/contracts/bridges/test/SweepableBridgeReceiverHarness.sol",
  "compiler": {
    "name": "solc",
    "version": "0.8.15+commit.e14f2714.Emscripten.clang"
  },
  "schemaVersion": "3.4.12",
  "updatedAt": "2023-11-30T22:41:29.686Z",
  "devdoc": {
    "kind": "dev",
    "methods": {
      "executeProposal(uint256)": {
        "params": {
          "proposalId": "The id of the proposal to execute"
        }
      },
      "initialize(address,address)": {
        "params": {
          "_govTimelock": "Address of the governing contract that this contract will receive messages from (likely on another chain)",
          "_localTimelock": "Address of the timelock contract that this contract will send messages to"
        }
      },
      "state(uint256)": {
        "params": {
          "proposalId": "Id of the proposal"
        },
        "returns": {
          "_0": "The state of the given proposal (queued, expired or executed)"
        }
      },
      "sweepNativeToken(address)": {
        "params": {
          "recipient": "The address that will receive the swept funds"
        }
      },
      "sweepToken(address,address)": {
        "details": "Note: Make sure to check that the asset being swept out is not malicious",
        "params": {
          "asset": "The address of the ERC-20 token to sweep",
          "recipient": "The address that will receive the swept funds"
        }
      }
    },
    "version": 1
  },
  "userdoc": {
    "errors": {
      "AlreadyInitialized()": [
        {
          "notice": "Custom errors *"
        }
      ]
    },
    "events": {
      "Initialized(address,address)": {
        "notice": "Events *"
      }
    },
    "kind": "user",
    "methods": {
      "executeProposal(uint256)": {
        "notice": "Execute a queued proposal"
      },
      "govTimelock()": {
        "notice": "Address of the governing contract that this bridge receiver expects to  receive messages from; likely an address from another chain (e.g. mainnet)"
      },
      "initialize(address,address)": {
        "notice": "Initialize the contract"
      },
      "initialized()": {
        "notice": "Whether contract has been initialized"
      },
      "localTimelock()": {
        "notice": "Address of the timelock on this chain that the bridge receiver will send messages to"
      },
      "proposalCount()": {
        "notice": "Total count of proposals generated"
      },
      "proposals(uint256)": {
        "notice": "Mapping of proposal ids to their full proposal data"
      },
      "state(uint256)": {
        "notice": "Get the state of a proposal"
      },
      "sweepNativeToken(address)": {
        "notice": "A public function to sweep accidental native token transfers to this contract"
      },
      "sweepToken(address,address)": {
        "notice": "A public function to sweep accidental ERC-20 transfers to this contract"
      }
    },
    "version": 1
  }
}