{
  "contractName": "Tags",
  "abi": [
    {
      "anonymous": false,
      "inputs": [
        {
          "indexed": true,
          "internalType": "address",
          "name": "previousOwner",
          "type": "address"
        },
        {
          "indexed": true,
          "internalType": "address",
          "name": "newOwner",
          "type": "address"
        }
      ],
      "name": "OwnershipTransferred",
      "type": "event"
    },
    {
      "anonymous": false,
      "inputs": [
        {
          "indexed": false,
          "internalType": "string",
          "name": "_tag",
          "type": "string"
        },
        {
          "indexed": false,
          "internalType": "string",
          "name": "_content",
          "type": "string"
        },
        {
          "indexed": false,
          "internalType": "address",
          "name": "_tager",
          "type": "address"
        }
      ],
      "name": "TagAdded",
      "type": "event"
    },
    {
      "inputs": [
        {
          "internalType": "string",
          "name": "",
          "type": "string"
        }
      ],
      "name": "TagsMap",
      "outputs": [
        {
          "internalType": "string",
          "name": "content",
          "type": "string"
        },
        {
          "internalType": "address",
          "name": "tager",
          "type": "address"
        },
        {
          "internalType": "uint256",
          "name": "blockNumber",
          "type": "uint256"
        }
      ],
      "stateMutability": "view",
      "type": "function"
    },
    {
      "inputs": [
        {
          "internalType": "address",
          "name": "",
          "type": "address"
        },
        {
          "internalType": "string",
          "name": "",
          "type": "string"
        }
      ],
      "name": "TagsRequested",
      "outputs": [
        {
          "internalType": "string",
          "name": "content",
          "type": "string"
        },
        {
          "internalType": "address",
          "name": "tager",
          "type": "address"
        },
        {
          "internalType": "uint256",
          "name": "blockNumber",
          "type": "uint256"
        }
      ],
      "stateMutability": "view",
      "type": "function"
    },
    {
      "inputs": [],
      "name": "owner",
      "outputs": [
        {
          "internalType": "address",
          "name": "",
          "type": "address"
        }
      ],
      "stateMutability": "view",
      "type": "function"
    },
    {
      "inputs": [],
      "name": "renounceOwnership",
      "outputs": [],
      "stateMutability": "nonpayable",
      "type": "function"
    },
    {
      "inputs": [
        {
          "internalType": "address",
          "name": "newOwner",
          "type": "address"
        }
      ],
      "name": "transferOwnership",
      "outputs": [],
      "stateMutability": "nonpayable",
      "type": "function"
    },
    {
      "inputs": [
        {
          "internalType": "string",
          "name": "_tag",
          "type": "string"
        },
        {
          "internalType": "string",
          "name": "_content",
          "type": "string"
        }
      ],
      "name": "requestTag",
      "outputs": [],
      "stateMutability": "payable",
      "type": "function"
    },
    {
      "inputs": [
        {
          "internalType": "string",
          "name": "_tag",
          "type": "string"
        },
        {
          "components": [
            {
              "internalType": "string",
              "name": "content",
              "type": "string"
            },
            {
              "internalType": "address",
              "name": "tager",
              "type": "address"
            },
            {
              "internalType": "uint256",
              "name": "blockNumber",
              "type": "uint256"
            }
          ],
          "internalType": "struct Tags.Tag",
          "name": "_Tag",
          "type": "tuple"
        }
      ],
      "name": "addTag",
      "outputs": [],
      "stateMutability": "nonpayable",
      "type": "function"
    },
    {
      "inputs": [
        {
          "internalType": "string",
          "name": "_tag",
          "type": "string"
        }
      ],
      "name": "removeTag",
      "outputs": [],
      "stateMutability": "nonpayable",
      "type": "function"
    },
    {
      "inputs": [],
      "name": "getValue",
      "outputs": [],
      "stateMutability": "nonpayable",
      "type": "function"
    }
  ],
  "bytecode": "0x608060405234801561001057600080fd5b5061001a3361001f565b61006f565b600080546001600160a01b038381166001600160a01b0319831681178455604051919092169283917f8be0079c531659141344cd1fd0a4f28419497f9722a3daafe3b4186f6b6457e09190a35050565b610d108061007e6000396000f3fe6080604052600436106100865760003560e01c80633d434e05116100595780633d434e051461010d578063715018a61461012d5780638da5cb5b14610142578063df09e3711461016a578063f2fde38b1461018a57600080fd5b8063068a8ab91461008b5780630885c0f2146100a057806320965255146100d857806336a74bfd146100ed575b600080fd5b61009e610099366004610a27565b6101aa565b005b3480156100ac57600080fd5b506100c06100bb36600461099c565b6103a5565b6040516100cf93929190610b8e565b60405180910390f35b3480156100e457600080fd5b5061009e610475565b3480156100f957600080fd5b5061009e610108366004610a81565b6104d1565b34801561011957600080fd5b506100c06101283660046109ea565b6105b8565b34801561013957600080fd5b5061009e6105de565b34801561014e57600080fd5b506000546040516001600160a01b0390911681526020016100cf565b34801561017657600080fd5b5061009e6101853660046109ea565b6105f2565b34801561019657600080fd5b5061009e6101a536600461097a565b610665565b60038251101580156101bd575060418251105b6102025760405162461bcd60e51b815260206004820152601160248201527021b7b73a32b73a1034b99032b6b83a3c9760791b60448201526064015b60405180910390fd5b60006001600160a01b031660018360405161021d9190610b72565b908152604051908190036020019020600101546001600160a01b03161461027c5760405162461bcd60e51b81526020600482015260136024820152722a30b39030b63932b0b23c9032bc34b9ba399760691b60448201526064016101f9565b610285816106de565b6102c05760405162461bcd60e51b815260206004820152600c60248201526b24b73b30b634b21021a4a21760a11b60448201526064016101f9565b66038d7ea4c6800034101561030d5760405162461bcd60e51b815260206004820152601360248201527224b739bab33334b1b4b2b73a10333ab732399760691b60448201526064016101f9565b6040805160608101825282815233602080830182905243838501526000918252600290528290209151909190610344908590610b72565b9081526020016040518091039020600082015181600001908051906020019061036e929190610802565b5060208201516001820180546001600160a01b0319166001600160a01b039092169190911790556040909101516002909101555050565b600260209081526000928352604090922081518083018401805192815290840192909301919091209152805481906103dc90610c89565b80601f016020809104026020016040519081016040528092919081815260200182805461040890610c89565b80156104555780601f1061042a57610100808354040283529160200191610455565b820191906000526020600020905b81548152906001019060200180831161043857829003601f168201915b50505050600183015460029093015491926001600160a01b031691905083565b6000546001600160a01b0316331461049f5760405162461bcd60e51b81526004016101f990610bfa565b604051339081904780156108fc02916000818181858888f193505050501580156104cd573d6000803e3d6000fd5b5050565b6000546001600160a01b031633146104fb5760405162461bcd60e51b81526004016101f990610bfa565b8060018360405161050c9190610b72565b90815260200160405180910390206000820151816000019080519060200190610536929190610802565b5060208201518160010160006101000a8154816001600160a01b0302191690836001600160a01b03160217905550604082015181600201559050507f9f83b4d8d79d3aeb005fe122b65300588e5f78943e8b22a21dc33fffb385f70482826000015183602001516040516105ac93929190610bbc565b60405180910390a15050565b80516020818301810180516001825292820191909301209152805481906103dc90610c89565b6105e6610758565b6105f060006107b2565b565b6000546001600160a01b0316331461061c5760405162461bcd60e51b81526004016101f990610bfa565b60018160405161062c9190610b72565b90815260405190819003602001902060006106478282610886565b506001810180546001600160a01b0319169055600060029091015550565b61066d610758565b6001600160a01b0381166106d25760405162461bcd60e51b815260206004820152602660248201527f4f776e61626c653a206e6577206f776e657220697320746865207a65726f206160448201526564647265737360d01b60648201526084016101f9565b6106db816107b2565b50565b604051666261666b72656960c81b6020820152600090602701604051602081830303815290604052805190602001208261071790610c22565b6040516001600160c81b031990911660208201526027016040516020818303038152906040528051906020012014801561075257508151603b145b92915050565b6000546001600160a01b031633146105f05760405162461bcd60e51b815260206004820181905260248201527f4f776e61626c653a2063616c6c6572206973206e6f7420746865206f776e657260448201526064016101f9565b600080546001600160a01b038381166001600160a01b0319831681178455604051919092169283917f8be0079c531659141344cd1fd0a4f28419497f9722a3daafe3b4186f6b6457e09190a35050565b82805461080e90610c89565b90600052602060002090601f0160209004810192826108305760008555610876565b82601f1061084957805160ff1916838001178555610876565b82800160010185558215610876579182015b8281111561087657825182559160200191906001019061085b565b506108829291506108bc565b5090565b50805461089290610c89565b6000825580601f106108a2575050565b601f0160209004906000526020600020908101906106db91905b5b8082111561088257600081556001016108bd565b80356001600160a01b03811681146108e857600080fd5b919050565b600082601f8301126108fe57600080fd5b813567ffffffffffffffff8082111561091957610919610cc4565b604051601f8301601f19908116603f0116810190828211818310171561094157610941610cc4565b8160405283815286602085880101111561095a57600080fd5b836020870160208301376000602085830101528094505050505092915050565b60006020828403121561098c57600080fd5b610995826108d1565b9392505050565b600080604083850312156109af57600080fd5b6109b8836108d1565b9150602083013567ffffffffffffffff8111156109d457600080fd5b6109e0858286016108ed565b9150509250929050565b6000602082840312156109fc57600080fd5b813567ffffffffffffffff811115610a1357600080fd5b610a1f848285016108ed565b949350505050565b60008060408385031215610a3a57600080fd5b823567ffffffffffffffff80821115610a5257600080fd5b610a5e868387016108ed565b93506020850135915080821115610a7457600080fd5b506109e0858286016108ed565b60008060408385031215610a9457600080fd5b823567ffffffffffffffff80821115610aac57600080fd5b610ab8868387016108ed565b93506020850135915080821115610ace57600080fd5b9084019060608287031215610ae257600080fd5b604051606081018181108382111715610afd57610afd610cc4565b604052823582811115610b0f57600080fd5b610b1b888286016108ed565b825250610b2a602084016108d1565b6020820152604083013560408201528093505050509250929050565b60008151808452610b5e816020860160208601610c59565b601f01601f19169290920160200192915050565b60008251610b84818460208701610c59565b9190910192915050565b606081526000610ba16060830186610b46565b6001600160a01b039490941660208301525060400152919050565b606081526000610bcf6060830186610b46565b8281036020840152610be18186610b46565b91505060018060a01b0383166040830152949350505050565b6020808252600e908201526d2737ba103a34329037bbb732b91760911b604082015260600190565b805160208201516001600160c81b03198082169291906007831015610c515780818460070360031b1b83161693505b505050919050565b60005b83811015610c74578181015183820152602001610c5c565b83811115610c83576000848401525b50505050565b600181811c90821680610c9d57607f821691505b60208210811415610cbe57634e487b7160e01b600052602260045260246000fd5b50919050565b634e487b7160e01b600052604160045260246000fdfea2646970667358221220ec382cf7ee262aa83caf73b4e4bcde15deb0f06d37b35757149c43b4c1fe6a5964736f6c63430008050033",
  "immutableReferences": {},
  "source": "// SPDX-License-Identifier: SEE LICENSE IN LICENSE\npragma solidity ^0.8.0;\nimport \"@openzeppelin/contracts/access/Ownable.sol\";\nimport \"../helper/Helper.sol\";\n\ncontract Tags is Ownable {\n\n    mapping(string => Tag) public TagsMap;\n    mapping (address => mapping(string => Tag)) public TagsRequested;\n    //Tag[] public TagRequests;\n    //event TagRequested(string _tag, string _content, address _requester);\n    event TagAdded(string _tag, string _content, address _tager);\n\n    struct Tag {\n        string content;\n        address tager;\n        uint blockNumber;\n    }\n\n    modifier _onlyOwner() {\n        require(msg.sender == owner(), \"Not the owner.\");\n        _;\n    }\n    \n    function requestTag(string memory _tag, string memory _content) public payable {\n        require(bytes(_tag).length >= 3 && bytes(_tag).length < 65, \"Content is empty.\");\n        require(TagsMap[_tag].tager == address(0), \"Tag already exists.\");\n        require(Helper.isV1RawCID(_content), \"Invalid CID.\");\n        require(msg.value >= 0.001 ether, \"Insufficient funds.\");\n        //TagRequests.push(Tag(_content, msg.sender));\n        TagsRequested[msg.sender][_tag] = Tag(_content, msg.sender, block.number);\n        //emit TagRequested(_tag, _content, msg.sender);\n    }\n\n    function addTag( string memory _tag, Tag memory _Tag) public _onlyOwner {\n        TagsMap[_tag] = _Tag;\n        emit TagAdded(_tag, _Tag.content, _Tag.tager);\n    }\n\n    function removeTag(string memory _tag) public _onlyOwner {\n        delete TagsMap[_tag];\n    }\n\n    function getValue() public _onlyOwner{\n        address payable owner = payable(msg.sender);\n        owner.transfer(address(this).balance);\n    }\n}",
  "sourcePath": "/home/stephensb/sb-labs/solidity-contracts/contracts/tags/Tags.sol",
  "compiler": {
    "name": "solc",
    "version": "0.8.5+commit.a4f2e591.Emscripten.clang"
  },
  "schemaVersion": "3.4.16",
  "updatedAt": "2025-01-16T06:39:11.896Z",
  "devdoc": {
    "kind": "dev",
    "methods": {
      "owner()": {
        "details": "Returns the address of the current owner."
      },
      "renounceOwnership()": {
        "details": "Leaves the contract without owner. It will not be possible to call `onlyOwner` functions. Can only be called by the current owner. NOTE: Renouncing ownership will leave the contract without an owner, thereby disabling any functionality that is only available to the owner."
      },
      "transferOwnership(address)": {
        "details": "Transfers ownership of the contract to a new account (`newOwner`). Can only be called by the current owner."
      }
    },
    "version": 1
  },
  "userdoc": {
    "kind": "user",
    "methods": {},
    "version": 1
  }
}