{
  "contractName": "TWAMM",
  "abi": [
    {
      "inputs": [
        {
          "internalType": "contract IPoolManager",
          "name": "_poolManager",
          "type": "address"
        },
        {
          "internalType": "uint256",
          "name": "_expirationInterval",
          "type": "uint256"
        }
      ],
      "stateMutability": "nonpayable",
      "type": "constructor"
    },
    {
      "inputs": [
        {
          "components": [
            {
              "internalType": "address",
              "name": "owner",
              "type": "address"
            },
            {
              "internalType": "uint160",
              "name": "expiration",
              "type": "uint160"
            },
            {
              "internalType": "bool",
              "name": "zeroForOne",
              "type": "bool"
            }
          ],
          "internalType": "struct ITWAMM.OrderKey",
          "name": "orderKey",
          "type": "tuple"
        }
      ],
      "name": "CannotModifyCompletedOrder",
      "type": "error"
    },
    {
      "inputs": [],
      "name": "ERC20TransferFailed",
      "type": "error"
    },
    {
      "inputs": [
        {
          "internalType": "uint256",
          "name": "expiration",
          "type": "uint256"
        }
      ],
      "name": "ExpirationLessThanBlocktime",
      "type": "error"
    },
    {
      "inputs": [
        {
          "internalType": "uint256",
          "name": "expiration",
          "type": "uint256"
        }
      ],
      "name": "ExpirationNotOnInterval",
      "type": "error"
    },
    {
      "inputs": [
        {
          "internalType": "address",
          "name": "hooks",
          "type": "address"
        }
      ],
      "name": "HookAddressNotValid",
      "type": "error"
    },
    {
      "inputs": [],
      "name": "HookNotImplemented",
      "type": "error"
    },
    {
      "inputs": [
        {
          "components": [
            {
              "internalType": "address",
              "name": "owner",
              "type": "address"
            },
            {
              "internalType": "uint160",
              "name": "expiration",
              "type": "uint160"
            },
            {
              "internalType": "bool",
              "name": "zeroForOne",
              "type": "bool"
            }
          ],
          "internalType": "struct ITWAMM.OrderKey",
          "name": "orderKey",
          "type": "tuple"
        },
        {
          "internalType": "uint256",
          "name": "unsoldAmount",
          "type": "uint256"
        },
        {
          "internalType": "int256",
          "name": "amountDelta",
          "type": "int256"
        }
      ],
      "name": "InvalidAmountDelta",
      "type": "error"
    },
    {
      "inputs": [],
      "name": "InvalidPool",
      "type": "error"
    },
    {
      "inputs": [],
      "name": "InvalidPrice",
      "type": "error"
    },
    {
      "inputs": [],
      "name": "InvalidPriceOrLiquidity",
      "type": "error"
    },
    {
      "inputs": [],
      "name": "InvalidSqrtRatio",
      "type": "error"
    },
    {
      "inputs": [],
      "name": "InvalidTick",
      "type": "error"
    },
    {
      "inputs": [],
      "name": "LockFailure",
      "type": "error"
    },
    {
      "inputs": [
        {
          "internalType": "address",
          "name": "owner",
          "type": "address"
        },
        {
          "internalType": "address",
          "name": "currentAccount",
          "type": "address"
        }
      ],
      "name": "MustBeOwner",
      "type": "error"
    },
    {
      "inputs": [],
      "name": "NativeTransferFailed",
      "type": "error"
    },
    {
      "inputs": [],
      "name": "NotEnoughLiquidity",
      "type": "error"
    },
    {
      "inputs": [],
      "name": "NotInitialized",
      "type": "error"
    },
    {
      "inputs": [],
      "name": "NotPoolManager",
      "type": "error"
    },
    {
      "inputs": [],
      "name": "NotSelf",
      "type": "error"
    },
    {
      "inputs": [
        {
          "components": [
            {
              "internalType": "address",
              "name": "owner",
              "type": "address"
            },
            {
              "internalType": "uint160",
              "name": "expiration",
              "type": "uint160"
            },
            {
              "internalType": "bool",
              "name": "zeroForOne",
              "type": "bool"
            }
          ],
          "internalType": "struct ITWAMM.OrderKey",
          "name": "orderKey",
          "type": "tuple"
        }
      ],
      "name": "OrderAlreadyExists",
      "type": "error"
    },
    {
      "inputs": [
        {
          "components": [
            {
              "internalType": "address",
              "name": "owner",
              "type": "address"
            },
            {
              "internalType": "uint160",
              "name": "expiration",
              "type": "uint160"
            },
            {
              "internalType": "bool",
              "name": "zeroForOne",
              "type": "bool"
            }
          ],
          "internalType": "struct ITWAMM.OrderKey",
          "name": "orderKey",
          "type": "tuple"
        }
      ],
      "name": "OrderDoesNotExist",
      "type": "error"
    },
    {
      "inputs": [],
      "name": "PriceOverflow",
      "type": "error"
    },
    {
      "inputs": [],
      "name": "SafeCastOverflow",
      "type": "error"
    },
    {
      "inputs": [],
      "name": "SellRateCannotBeZero",
      "type": "error"
    },
    {
      "anonymous": false,
      "inputs": [
        {
          "indexed": true,
          "internalType": "PoolId",
          "name": "poolId",
          "type": "bytes32"
        },
        {
          "indexed": true,
          "internalType": "address",
          "name": "owner",
          "type": "address"
        },
        {
          "indexed": false,
          "internalType": "uint160",
          "name": "expiration",
          "type": "uint160"
        },
        {
          "indexed": false,
          "internalType": "bool",
          "name": "zeroForOne",
          "type": "bool"
        },
        {
          "indexed": false,
          "internalType": "uint256",
          "name": "sellRate",
          "type": "uint256"
        },
        {
          "indexed": false,
          "internalType": "uint256",
          "name": "earningsFactorLast",
          "type": "uint256"
        }
      ],
      "name": "SubmitOrder",
      "type": "event"
    },
    {
      "anonymous": false,
      "inputs": [
        {
          "indexed": true,
          "internalType": "PoolId",
          "name": "poolId",
          "type": "bytes32"
        },
        {
          "indexed": true,
          "internalType": "address",
          "name": "owner",
          "type": "address"
        },
        {
          "indexed": false,
          "internalType": "uint160",
          "name": "expiration",
          "type": "uint160"
        },
        {
          "indexed": false,
          "internalType": "bool",
          "name": "zeroForOne",
          "type": "bool"
        },
        {
          "indexed": false,
          "internalType": "uint256",
          "name": "sellRate",
          "type": "uint256"
        },
        {
          "indexed": false,
          "internalType": "uint256",
          "name": "earningsFactorLast",
          "type": "uint256"
        }
      ],
      "name": "UpdateOrder",
      "type": "event"
    },
    {
      "inputs": [
        {
          "internalType": "address",
          "name": "",
          "type": "address"
        },
        {
          "components": [
            {
              "internalType": "Currency",
              "name": "currency0",
              "type": "address"
            },
            {
              "internalType": "Currency",
              "name": "currency1",
              "type": "address"
            },
            {
              "internalType": "uint24",
              "name": "fee",
              "type": "uint24"
            },
            {
              "internalType": "int24",
              "name": "tickSpacing",
              "type": "int24"
            },
            {
              "internalType": "contract IHooks",
              "name": "hooks",
              "type": "address"
            }
          ],
          "internalType": "struct PoolKey",
          "name": "",
          "type": "tuple"
        },
        {
          "internalType": "uint256",
          "name": "",
          "type": "uint256"
        },
        {
          "internalType": "uint256",
          "name": "",
          "type": "uint256"
        },
        {
          "internalType": "bytes",
          "name": "",
          "type": "bytes"
        }
      ],
      "name": "afterDonate",
      "outputs": [
        {
          "internalType": "bytes4",
          "name": "",
          "type": "bytes4"
        }
      ],
      "stateMutability": "nonpayable",
      "type": "function"
    },
    {
      "inputs": [
        {
          "internalType": "address",
          "name": "",
          "type": "address"
        },
        {
          "components": [
            {
              "internalType": "Currency",
              "name": "currency0",
              "type": "address"
            },
            {
              "internalType": "Currency",
              "name": "currency1",
              "type": "address"
            },
            {
              "internalType": "uint24",
              "name": "fee",
              "type": "uint24"
            },
            {
              "internalType": "int24",
              "name": "tickSpacing",
              "type": "int24"
            },
            {
              "internalType": "contract IHooks",
              "name": "hooks",
              "type": "address"
            }
          ],
          "internalType": "struct PoolKey",
          "name": "",
          "type": "tuple"
        },
        {
          "internalType": "uint160",
          "name": "",
          "type": "uint160"
        },
        {
          "internalType": "int24",
          "name": "",
          "type": "int24"
        },
        {
          "internalType": "bytes",
          "name": "",
          "type": "bytes"
        }
      ],
      "name": "afterInitialize",
      "outputs": [
        {
          "internalType": "bytes4",
          "name": "",
          "type": "bytes4"
        }
      ],
      "stateMutability": "nonpayable",
      "type": "function"
    },
    {
      "inputs": [
        {
          "internalType": "address",
          "name": "",
          "type": "address"
        },
        {
          "components": [
            {
              "internalType": "Currency",
              "name": "currency0",
              "type": "address"
            },
            {
              "internalType": "Currency",
              "name": "currency1",
              "type": "address"
            },
            {
              "internalType": "uint24",
              "name": "fee",
              "type": "uint24"
            },
            {
              "internalType": "int24",
              "name": "tickSpacing",
              "type": "int24"
            },
            {
              "internalType": "contract IHooks",
              "name": "hooks",
              "type": "address"
            }
          ],
          "internalType": "struct PoolKey",
          "name": "",
          "type": "tuple"
        },
        {
          "components": [
            {
              "internalType": "int24",
              "name": "tickLower",
              "type": "int24"
            },
            {
              "internalType": "int24",
              "name": "tickUpper",
              "type": "int24"
            },
            {
              "internalType": "int256",
              "name": "liquidityDelta",
              "type": "int256"
            }
          ],
          "internalType": "struct IPoolManager.ModifyPositionParams",
          "name": "",
          "type": "tuple"
        },
        {
          "internalType": "BalanceDelta",
          "name": "",
          "type": "int256"
        },
        {
          "internalType": "bytes",
          "name": "",
          "type": "bytes"
        }
      ],
      "name": "afterModifyPosition",
      "outputs": [
        {
          "internalType": "bytes4",
          "name": "",
          "type": "bytes4"
        }
      ],
      "stateMutability": "nonpayable",
      "type": "function"
    },
    {
      "inputs": [
        {
          "internalType": "address",
          "name": "",
          "type": "address"
        },
        {
          "components": [
            {
              "internalType": "Currency",
              "name": "currency0",
              "type": "address"
            },
            {
              "internalType": "Currency",
              "name": "currency1",
              "type": "address"
            },
            {
              "internalType": "uint24",
              "name": "fee",
              "type": "uint24"
            },
            {
              "internalType": "int24",
              "name": "tickSpacing",
              "type": "int24"
            },
            {
              "internalType": "contract IHooks",
              "name": "hooks",
              "type": "address"
            }
          ],
          "internalType": "struct PoolKey",
          "name": "",
          "type": "tuple"
        },
        {
          "components": [
            {
              "internalType": "bool",
              "name": "zeroForOne",
              "type": "bool"
            },
            {
              "internalType": "int256",
              "name": "amountSpecified",
              "type": "int256"
            },
            {
              "internalType": "uint160",
              "name": "sqrtPriceLimitX96",
              "type": "uint160"
            }
          ],
          "internalType": "struct IPoolManager.SwapParams",
          "name": "",
          "type": "tuple"
        },
        {
          "internalType": "BalanceDelta",
          "name": "",
          "type": "int256"
        },
        {
          "internalType": "bytes",
          "name": "",
          "type": "bytes"
        }
      ],
      "name": "afterSwap",
      "outputs": [
        {
          "internalType": "bytes4",
          "name": "",
          "type": "bytes4"
        }
      ],
      "stateMutability": "nonpayable",
      "type": "function"
    },
    {
      "inputs": [
        {
          "internalType": "address",
          "name": "",
          "type": "address"
        },
        {
          "components": [
            {
              "internalType": "Currency",
              "name": "currency0",
              "type": "address"
            },
            {
              "internalType": "Currency",
              "name": "currency1",
              "type": "address"
            },
            {
              "internalType": "uint24",
              "name": "fee",
              "type": "uint24"
            },
            {
              "internalType": "int24",
              "name": "tickSpacing",
              "type": "int24"
            },
            {
              "internalType": "contract IHooks",
              "name": "hooks",
              "type": "address"
            }
          ],
          "internalType": "struct PoolKey",
          "name": "",
          "type": "tuple"
        },
        {
          "internalType": "uint256",
          "name": "",
          "type": "uint256"
        },
        {
          "internalType": "uint256",
          "name": "",
          "type": "uint256"
        },
        {
          "internalType": "bytes",
          "name": "",
          "type": "bytes"
        }
      ],
      "name": "beforeDonate",
      "outputs": [
        {
          "internalType": "bytes4",
          "name": "",
          "type": "bytes4"
        }
      ],
      "stateMutability": "nonpayable",
      "type": "function"
    },
    {
      "inputs": [],
      "name": "expirationInterval",
      "outputs": [
        {
          "internalType": "uint256",
          "name": "",
          "type": "uint256"
        }
      ],
      "stateMutability": "view",
      "type": "function"
    },
    {
      "inputs": [],
      "name": "poolManager",
      "outputs": [
        {
          "internalType": "contract IPoolManager",
          "name": "",
          "type": "address"
        }
      ],
      "stateMutability": "view",
      "type": "function"
    },
    {
      "inputs": [
        {
          "internalType": "Currency",
          "name": "",
          "type": "address"
        },
        {
          "internalType": "address",
          "name": "",
          "type": "address"
        }
      ],
      "name": "tokensOwed",
      "outputs": [
        {
          "internalType": "uint256",
          "name": "",
          "type": "uint256"
        }
      ],
      "stateMutability": "view",
      "type": "function"
    },
    {
      "inputs": [],
      "name": "getHooksCalls",
      "outputs": [
        {
          "components": [
            {
              "internalType": "bool",
              "name": "beforeInitialize",
              "type": "bool"
            },
            {
              "internalType": "bool",
              "name": "afterInitialize",
              "type": "bool"
            },
            {
              "internalType": "bool",
              "name": "beforeModifyPosition",
              "type": "bool"
            },
            {
              "internalType": "bool",
              "name": "afterModifyPosition",
              "type": "bool"
            },
            {
              "internalType": "bool",
              "name": "beforeSwap",
              "type": "bool"
            },
            {
              "internalType": "bool",
              "name": "afterSwap",
              "type": "bool"
            },
            {
              "internalType": "bool",
              "name": "beforeDonate",
              "type": "bool"
            },
            {
              "internalType": "bool",
              "name": "afterDonate",
              "type": "bool"
            },
            {
              "internalType": "bool",
              "name": "noOp",
              "type": "bool"
            }
          ],
          "internalType": "struct Hooks.Calls",
          "name": "",
          "type": "tuple"
        }
      ],
      "stateMutability": "pure",
      "type": "function"
    },
    {
      "inputs": [
        {
          "internalType": "address",
          "name": "",
          "type": "address"
        },
        {
          "components": [
            {
              "internalType": "Currency",
              "name": "currency0",
              "type": "address"
            },
            {
              "internalType": "Currency",
              "name": "currency1",
              "type": "address"
            },
            {
              "internalType": "uint24",
              "name": "fee",
              "type": "uint24"
            },
            {
              "internalType": "int24",
              "name": "tickSpacing",
              "type": "int24"
            },
            {
              "internalType": "contract IHooks",
              "name": "hooks",
              "type": "address"
            }
          ],
          "internalType": "struct PoolKey",
          "name": "key",
          "type": "tuple"
        },
        {
          "internalType": "uint160",
          "name": "",
          "type": "uint160"
        },
        {
          "internalType": "bytes",
          "name": "",
          "type": "bytes"
        }
      ],
      "name": "beforeInitialize",
      "outputs": [
        {
          "internalType": "bytes4",
          "name": "",
          "type": "bytes4"
        }
      ],
      "stateMutability": "nonpayable",
      "type": "function"
    },
    {
      "inputs": [
        {
          "internalType": "address",
          "name": "",
          "type": "address"
        },
        {
          "components": [
            {
              "internalType": "Currency",
              "name": "currency0",
              "type": "address"
            },
            {
              "internalType": "Currency",
              "name": "currency1",
              "type": "address"
            },
            {
              "internalType": "uint24",
              "name": "fee",
              "type": "uint24"
            },
            {
              "internalType": "int24",
              "name": "tickSpacing",
              "type": "int24"
            },
            {
              "internalType": "contract IHooks",
              "name": "hooks",
              "type": "address"
            }
          ],
          "internalType": "struct PoolKey",
          "name": "key",
          "type": "tuple"
        },
        {
          "components": [
            {
              "internalType": "int24",
              "name": "tickLower",
              "type": "int24"
            },
            {
              "internalType": "int24",
              "name": "tickUpper",
              "type": "int24"
            },
            {
              "internalType": "int256",
              "name": "liquidityDelta",
              "type": "int256"
            }
          ],
          "internalType": "struct IPoolManager.ModifyPositionParams",
          "name": "",
          "type": "tuple"
        },
        {
          "internalType": "bytes",
          "name": "",
          "type": "bytes"
        }
      ],
      "name": "beforeModifyPosition",
      "outputs": [
        {
          "internalType": "bytes4",
          "name": "",
          "type": "bytes4"
        }
      ],
      "stateMutability": "nonpayable",
      "type": "function"
    },
    {
      "inputs": [
        {
          "internalType": "address",
          "name": "",
          "type": "address"
        },
        {
          "components": [
            {
              "internalType": "Currency",
              "name": "currency0",
              "type": "address"
            },
            {
              "internalType": "Currency",
              "name": "currency1",
              "type": "address"
            },
            {
              "internalType": "uint24",
              "name": "fee",
              "type": "uint24"
            },
            {
              "internalType": "int24",
              "name": "tickSpacing",
              "type": "int24"
            },
            {
              "internalType": "contract IHooks",
              "name": "hooks",
              "type": "address"
            }
          ],
          "internalType": "struct PoolKey",
          "name": "key",
          "type": "tuple"
        },
        {
          "components": [
            {
              "internalType": "bool",
              "name": "zeroForOne",
              "type": "bool"
            },
            {
              "internalType": "int256",
              "name": "amountSpecified",
              "type": "int256"
            },
            {
              "internalType": "uint160",
              "name": "sqrtPriceLimitX96",
              "type": "uint160"
            }
          ],
          "internalType": "struct IPoolManager.SwapParams",
          "name": "",
          "type": "tuple"
        },
        {
          "internalType": "bytes",
          "name": "",
          "type": "bytes"
        }
      ],
      "name": "beforeSwap",
      "outputs": [
        {
          "internalType": "bytes4",
          "name": "",
          "type": "bytes4"
        }
      ],
      "stateMutability": "nonpayable",
      "type": "function"
    },
    {
      "inputs": [
        {
          "internalType": "PoolId",
          "name": "key",
          "type": "bytes32"
        }
      ],
      "name": "lastVirtualOrderTimestamp",
      "outputs": [
        {
          "internalType": "uint256",
          "name": "",
          "type": "uint256"
        }
      ],
      "stateMutability": "view",
      "type": "function"
    },
    {
      "inputs": [
        {
          "components": [
            {
              "internalType": "Currency",
              "name": "currency0",
              "type": "address"
            },
            {
              "internalType": "Currency",
              "name": "currency1",
              "type": "address"
            },
            {
              "internalType": "uint24",
              "name": "fee",
              "type": "uint24"
            },
            {
              "internalType": "int24",
              "name": "tickSpacing",
              "type": "int24"
            },
            {
              "internalType": "contract IHooks",
              "name": "hooks",
              "type": "address"
            }
          ],
          "internalType": "struct PoolKey",
          "name": "poolKey",
          "type": "tuple"
        },
        {
          "components": [
            {
              "internalType": "address",
              "name": "owner",
              "type": "address"
            },
            {
              "internalType": "uint160",
              "name": "expiration",
              "type": "uint160"
            },
            {
              "internalType": "bool",
              "name": "zeroForOne",
              "type": "bool"
            }
          ],
          "internalType": "struct ITWAMM.OrderKey",
          "name": "orderKey",
          "type": "tuple"
        }
      ],
      "name": "getOrder",
      "outputs": [
        {
          "components": [
            {
              "internalType": "uint256",
              "name": "sellRate",
              "type": "uint256"
            },
            {
              "internalType": "uint256",
              "name": "earningsFactorLast",
              "type": "uint256"
            }
          ],
          "internalType": "struct ITWAMM.Order",
          "name": "",
          "type": "tuple"
        }
      ],
      "stateMutability": "view",
      "type": "function"
    },
    {
      "inputs": [
        {
          "components": [
            {
              "internalType": "Currency",
              "name": "currency0",
              "type": "address"
            },
            {
              "internalType": "Currency",
              "name": "currency1",
              "type": "address"
            },
            {
              "internalType": "uint24",
              "name": "fee",
              "type": "uint24"
            },
            {
              "internalType": "int24",
              "name": "tickSpacing",
              "type": "int24"
            },
            {
              "internalType": "contract IHooks",
              "name": "hooks",
              "type": "address"
            }
          ],
          "internalType": "struct PoolKey",
          "name": "key",
          "type": "tuple"
        },
        {
          "internalType": "bool",
          "name": "zeroForOne",
          "type": "bool"
        }
      ],
      "name": "getOrderPool",
      "outputs": [
        {
          "internalType": "uint256",
          "name": "sellRateCurrent",
          "type": "uint256"
        },
        {
          "internalType": "uint256",
          "name": "earningsFactorCurrent",
          "type": "uint256"
        }
      ],
      "stateMutability": "view",
      "type": "function"
    },
    {
      "inputs": [
        {
          "components": [
            {
              "internalType": "Currency",
              "name": "currency0",
              "type": "address"
            },
            {
              "internalType": "Currency",
              "name": "currency1",
              "type": "address"
            },
            {
              "internalType": "uint24",
              "name": "fee",
              "type": "uint24"
            },
            {
              "internalType": "int24",
              "name": "tickSpacing",
              "type": "int24"
            },
            {
              "internalType": "contract IHooks",
              "name": "hooks",
              "type": "address"
            }
          ],
          "internalType": "struct PoolKey",
          "name": "key",
          "type": "tuple"
        }
      ],
      "name": "executeTWAMMOrders",
      "outputs": [],
      "stateMutability": "nonpayable",
      "type": "function"
    },
    {
      "inputs": [
        {
          "components": [
            {
              "internalType": "Currency",
              "name": "currency0",
              "type": "address"
            },
            {
              "internalType": "Currency",
              "name": "currency1",
              "type": "address"
            },
            {
              "internalType": "uint24",
              "name": "fee",
              "type": "uint24"
            },
            {
              "internalType": "int24",
              "name": "tickSpacing",
              "type": "int24"
            },
            {
              "internalType": "contract IHooks",
              "name": "hooks",
              "type": "address"
            }
          ],
          "internalType": "struct PoolKey",
          "name": "key",
          "type": "tuple"
        },
        {
          "components": [
            {
              "internalType": "address",
              "name": "owner",
              "type": "address"
            },
            {
              "internalType": "uint160",
              "name": "expiration",
              "type": "uint160"
            },
            {
              "internalType": "bool",
              "name": "zeroForOne",
              "type": "bool"
            }
          ],
          "internalType": "struct ITWAMM.OrderKey",
          "name": "orderKey",
          "type": "tuple"
        },
        {
          "internalType": "uint256",
          "name": "amountIn",
          "type": "uint256"
        }
      ],
      "name": "submitOrder",
      "outputs": [
        {
          "internalType": "bytes32",
          "name": "orderId",
          "type": "bytes32"
        }
      ],
      "stateMutability": "nonpayable",
      "type": "function"
    },
    {
      "inputs": [
        {
          "components": [
            {
              "internalType": "Currency",
              "name": "currency0",
              "type": "address"
            },
            {
              "internalType": "Currency",
              "name": "currency1",
              "type": "address"
            },
            {
              "internalType": "uint24",
              "name": "fee",
              "type": "uint24"
            },
            {
              "internalType": "int24",
              "name": "tickSpacing",
              "type": "int24"
            },
            {
              "internalType": "contract IHooks",
              "name": "hooks",
              "type": "address"
            }
          ],
          "internalType": "struct PoolKey",
          "name": "key",
          "type": "tuple"
        },
        {
          "components": [
            {
              "internalType": "address",
              "name": "owner",
              "type": "address"
            },
            {
              "internalType": "uint160",
              "name": "expiration",
              "type": "uint160"
            },
            {
              "internalType": "bool",
              "name": "zeroForOne",
              "type": "bool"
            }
          ],
          "internalType": "struct ITWAMM.OrderKey",
          "name": "orderKey",
          "type": "tuple"
        },
        {
          "internalType": "int256",
          "name": "amountDelta",
          "type": "int256"
        }
      ],
      "name": "updateOrder",
      "outputs": [
        {
          "internalType": "uint256",
          "name": "tokens0Owed",
          "type": "uint256"
        },
        {
          "internalType": "uint256",
          "name": "tokens1Owed",
          "type": "uint256"
        }
      ],
      "stateMutability": "nonpayable",
      "type": "function"
    },
    {
      "inputs": [
        {
          "internalType": "Currency",
          "name": "token",
          "type": "address"
        },
        {
          "internalType": "address",
          "name": "to",
          "type": "address"
        },
        {
          "internalType": "uint256",
          "name": "amountRequested",
          "type": "uint256"
        }
      ],
      "name": "claimTokens",
      "outputs": [
        {
          "internalType": "uint256",
          "name": "amountTransferred",
          "type": "uint256"
        }
      ],
      "stateMutability": "nonpayable",
      "type": "function"
    },
    {
      "inputs": [
        {
          "internalType": "bytes",
          "name": "rawData",
          "type": "bytes"
        }
      ],
      "name": "lockAcquired",
      "outputs": [
        {
          "internalType": "bytes",
          "name": "",
          "type": "bytes"
        }
      ],
      "stateMutability": "nonpayable",
      "type": "function"
    }
  ],
  "bytecode": "0x60c06040523461020857604051601f616fba38819003918201601f19168301916001600160401b0383118484101761020c578084926040948552833981010312610208578051906001600160a01b03821682036102085760200151906080525f61010061006a610220565b8281528260208201528260408201528260608201528260808201528260a08201528260c08201528260e082015201525f6101006100a5610220565b6001815282602082015260016040820152826060820152600160808201528260a08201528260c08201528260e082015201526001609f1b301615156001148015906101f9575b80156101e6575b80156101d7575b80156101c4575b80156101b5575b80156101a6575b8015610197575b8015610188575b6101755760a052604051616d79908161024182396080518181816107d5015281816108a801528181610e38015281816112a5015281816112ea0152611511015260a0518181816111cf01528181611d620152611fd50152f35b630732d7b560e51b5f523060045260245ffd5b5030600160971b16151561011c565b5030600160981b161515610115565b5030600160991b16151561010e565b50306001609a1b161515610107565b50306001609b1b16151560011415610100565b50306001609c1b1615156100f9565b50306001609d1b161515600114156100f2565b50306001609e1b1615156100eb565b5f80fd5b634e487b7160e01b5f52604160045260245ffd5b6040519061012082016001600160401b0381118382101761020c5760405256fe60806040526004361015610011575f80fd5b5f3560e01c8062e7b1be1461014957806327ac08811461014457806330b7cdef1461010d5780633440d8201461013f578063575e24b41461013a5780635f65a29514610135578063612c39b7146101305780636fc389ae1461012b57806386fd4fdc146101265780639d544ca8146101215780639fc314c81461011c578063a910f80f14610117578063ab6291fe14610112578063b47b2fb11461010d578063b6a8b0fa146100f9578063c01f960614610108578063ccf4b24714610103578063dc4c90d3146100fe578063e1b4af69146100f95763fe9a6f45146100f4575f80fd5b6112d4565b61115a565b611290565b6111f2565b6111b8565b61075e565b610e06565b610d60565b610c87565b610b02565b610a9b565b610a3c565b61099f565b6108fb565b610892565b610781565b610675565b6103f7565b634e487b7160e01b5f52604160045260245ffd5b60a081019081106001600160401b0382111761017d57604052565b61014e565b606081019081106001600160401b0382111761017d57604052565b61012081019081106001600160401b0382111761017d57604052565b604081019081106001600160401b0382111761017d57604052565b90601f801991011681019081106001600160401b0382111761017d57604052565b60405190610205610120836101d4565b565b604051906102056040836101d4565b604051906102056060836101d4565b6040519061020560a0836101d4565b604051906102056080836101d4565b6040519061020560c0836101d4565b6001600160a01b0381160361026357565b5f80fd5b62ffffff81160361026357565b8060020b0361026357565b60a0906003190112610263576040519061029882610162565b816004356102a581610252565b81526024356102b381610252565b60208201526044356102c481610267565b60408201526064356102d581610274565b60608201526080608435916102e983610252565b0152565b91908260a09103126102635760405161030581610162565b6080808294803561031581610252565b8452602081013561032581610252565b6020850152604081013561033881610267565b6040850152606081013561034b81610274565b60608501520135916102e983610252565b8015150361026357565b60609060a3190112610263576040519061037f82610182565b8160a43561038c81610252565b815260c43561039a81610252565b6020820152604060e435916102e98361035c565b9190826060910312610263576040516103c681610182565b604080829480356103d681610252565b845260208101356103e681610252565b60208501520135916102e98361035c565b3461026357610120366003190112610263576104123661027f565b61041b36610366565b9061010435915f905f9260405160208101906104498161043b858561137b565b03601f1981018352826101d4565b519020916104718682610463865f525f60205260405f2090565b61046c866114f1565b611914565b9290949160408501976104848951151590565b15610642577f0419b3b20aa8f170fc09bc80fa2437166bce38232cb28c36a035b65c79742a09969594926104bf6105c495936104c5936113bb565b9a6113bb565b995b8151610514906104f4906001600160a01b03165b6001600160a01b03165f90815260016020526040902090565b86516001600160a01b03165b60018060a01b03165f5260205260405f2090565b61051f8b82546113bb565b905560208201805190929061055090610540906001600160a01b03166104db565b87516001600160a01b0316610500565b61055b8d82546113bb565b90555f82136105e0575b50508351610594915061058d906020906001600160a01b03169501516001600160a01b031690565b9751151590565b604080516001600160a01b03998a1681529115156020830152810194909452606084015294169381906080820190565b0390a360408051918252602082019290925290819081015b0390f35b610621926105ee8b51151590565b1561062957505161060f906001600160a01b03165b6001600160a01b031690565b309033906001600160a01b0316611c16565b5f8080610565565b5161063d91506001600160a01b0316610603565b61060f565b509750916105c4917f0419b3b20aa8f170fc09bc80fa2437166bce38232cb28c36a035b65c79742a0995949398996104c7565b34610263576020366003190112610263576004355f525f602052602060405f2054604051908152f35b60a090602319011261026357602490565b60a090600319011261026357600490565b60609060a31901126102635760a490565b9181601f84011215610263578235916001600160401b038311610263576020838186019501011161026357565b6101606003198201126102635760043561071781610252565b9160a060231983011261026357602491606060c3198201126102635760c491610124359161014435906001600160401b0382116102635761075a916004016106d1565b9091565b346102635761076c366106fe565b505050505050630a85dc2960e01b5f5260045ffd5b34610263576101003660031901126102635761079e600435610252565b6107a73661069e565b6107b260c435610252565b60e4356001600160401b038111610263576107d19036906004016106d1565b50507f00000000000000000000000000000000000000000000000000000000000000006001600160a01b0316330361082b576108116108169136906102ed565b611cd9565b4290556040516301a206c160e51b8152602090f35b63570c108560e11b5f5260045ffd5b906101406003198301126102635760043561085481610252565b9160a060231982011261026357602491606060c3198301126102635760c49161012435906001600160401b0382116102635761075a916004016106d1565b34610263576108a03661083a565b5091925050507f00000000000000000000000000000000000000000000000000000000000000006001600160a01b0316330361082b576108e46108e99136906102ed565b6114f1565b6040516315d7892d60e21b8152602090f35b346102635760a0366003190112610263576109186108e43661027f565b005b5f91031261026357565b610205909291926101008061012083019580511515845260208101511515602085015261095a6040820151604086019015159052565b60608181015115159085015260808181015115159085015260a08181015115159085015260c08181015115159085015260e08181015115159085015201511515910152565b34610263575f366003190112610263575f6101006040516109bf8161019d565b8281528260208201528260408201528260608201528260808201528260a08201528260c08201528260e082015201526105dc6109f96101f5565b600181525f6020820152600160408201525f6060820152600160808201525f60a08201525f60c08201525f60e08201525f61010082015260405191829182610924565b34610263576040366003190112610263576020610a92600435610a5e81610252565b60243590610a6b82610252565b60018060a01b03165f526001835260405f209060018060a01b03165f5260205260405f2090565b54604051908152f35b346102635760c036600319011261026357610ab5366106af565b610acf61081160a43592610ac88461035c565b36906102ed565b9015610af25760036001820154910154905b604080519182526020820192909252f35b6007600582015491015490610ae1565b3461026357610120366003190112610263576105dc610b20366106af565b610b2936610366565b9061010435917ffaaa07ce082dc5fd8da3b5871f3bea299c149b02540be2d1c9169e94a8be84846040516020810190610b668161043b8785611714565b51902091610b7b835f525f60205260405f2090565b90610b896108e436876102ed565b610c5f60208201916001610c2d610bba610ba9865160018060a01b031690565b4290848060a01b031603809b6117bd565b92610bff610bc985838a611f90565b9b604083019b610bd98d51151590565b15610c7257610603610bea916117c7565b905b86029030903390878060a01b0316611c16565b8051610c2790610c20906001600160a01b031697516001600160a01b031690565b9a51151590565b96612136565b0154604080516001600160a01b03998a1681529515156020870152850191909152606084015294169381906080820190565b0390a36040519081529081906020820190565b6106036020610c8192016117c7565b90610bec565b3461026357606036600319011261026357600435610ca481610252565b602435610cb081610252565b60443590610cbd8361214e565b6001600160a01b039093165f8181526001602090815260408083203384529091529020909390549280151580610d57575b610d4f575b50828110610d47575b505f8381526001602090815260408083203384529091529020805491838303928311610d42576105dc94610d32938593556121b4565b6040519081529081906020820190565b61138b565b91505f610cfc565b92505f610cf3565b50838110610cee565b346102635761012036600319011261026357610d7d600435610252565b610d863661069e565b50610d9260c435610252565b610d9d60e435610274565b610104356001600160401b03811161026357610dbd9036906004016106d1565b5050630a85dc2960e01b5f5260045ffd5b805180835260209291819084018484015e5f828201840152601f01601f1916010190565b906020610e03928181520190610dce565b90565b34610263576020366003190112610263576004356001600160401b03811161026357610e369036906004016106d1565b7f00000000000000000000000000000000000000000000000000000000000000006001600160a01b031691903383900361082b5781610e7a91610ea09301906117de565b6020610e8461183e565b60405180958192633cf3645360e21b8352858760048501611861565b03815f885af1928315610f84575f93611135575b505115155b15611025578160801d5f8113610f89575b505f82600f0b12610ef1575b5050505b6105dc610ee561183e565b60405191829182610df2565b60200151610f1a90610f0e9081906001600160a01b0316936118ab565b6001600160801b031690565b823b1561026357604051630b0d9c0960e01b81526001600160a01b039290921660048301523060248301526044820152905f908290606490829084905af18015610f8457610f6a575b8080610ed6565b80610f785f610f7e936101d4565b8061091a565b5f610f63565b61140b565b8151610fa9916001600160801b03169085906001600160a01b0316612223565b8051610fe5906020906001600160a01b03165b604051636a256b2960e01b81526001600160a01b03909116600482015291829081906024820190565b03815f885af18015610f845715610eca576110179060203d60201161101e575b61100f81836101d4565b810190611852565b505f610eca565b503d611005565b5f82600f0b136110c4575b5f8260801d12611043575b505050610eda565b5161106090610f0e9081906001600160a01b03169360801c6118ab565b823b1561026357604051630b0d9c0960e01b81526001600160a01b039290921660048301523060248301526044820152905f908290606490829084905af18015610f84576110b0575b808061103b565b80610f785f6110be936101d4565b5f6110a9565b602081810180516110ff9291610fbc916110f2906001600160a01b0316886001600160801b03891691612223565b516001600160a01b031690565b03815f885af18015610f8457611116575b50611030565b61112e9060203d60201161101e5761100f81836101d4565b505f611110565b610eb99193506111539060203d60201161101e5761100f81836101d4565b9290610eb4565b34610263576101203660031901126102635760043561117881610252565b5060a036602319011261026357610104356001600160401b038111610263576111a59036906004016106d1565b5050630a85dc2960e01b5f908152600490fd5b34610263575f3660031901126102635760206040517f00000000000000000000000000000000000000000000000000000000000000008152f35b3461026357610100366003190112610263576105dc611259611213366106af565b61121c366106c0565b906112256118cb565b5060405161123b8161043b602082019485611714565b5190205f525f60205261125360405f209136906103ae565b90612136565b600160405191611268836101b9565b8054835201546020820152604051918291829190916020806040830194805184520151910152565b34610263575f366003190112610263576040517f00000000000000000000000000000000000000000000000000000000000000006001600160a01b03168152602090f35b34610263576112e23661083a565b5091925050507f00000000000000000000000000000000000000000000000000000000000000006001600160a01b0316330361082b576108e46113269136906102ed565b60405163fe9a6f4560e01b8152602090f35b80516001600160a01b03908116835260208083015182169084015260408083015162ffffff169084015260608083015160020b9084015260809182015116910152565b60a0810192916102059190611338565b634e487b7160e01b5f52601160045260245ffd5b9060048201809211610d4257565b9060058201809211610d4257565b91908201809211610d4257565b91908260809103126102635781516113df81610252565b9160208101516113ee81610274565b91606060408301516113ff81610267565b920151610e0381610267565b6040513d5f823e3d90fd5b9081602091031261026357516001600160801b03811681036102635790565b9160a061020592949361144d81610100810197611338565b825115159101908152602080830151908201526040918201516001600160a01b0316910152565b6001600160401b03811161017d57601f01601f191660200190565b602081830312610263578051906001600160401b038211610263570181601f82011215610263578051906114c282611474565b926114d060405194856101d4565b8284526020838301011161026357815f9260208093018386015e8301015290565b6114fa81611d09565b604051633205590760e21b815260048101829052917f00000000000000000000000000000000000000000000000000000000000000006001600160a01b0381169290608085602481875afa948515610f84575f956116e0575b5061158a602061156a845f525f60205260405f2090565b936040518093819263fa6793d560e01b8352600483019190602083019252565b0381885afa918215610f84576115d19385925f946116af575b506115cc6115af610207565b6001600160a01b038a168152946001600160801b03166020860152565b611d39565b90939092906001600160a01b038416801515918261169b575b50506115f7575b50505050565b5f93611646611662936116348796611617611610610216565b9515158652565b6001600160ff1b0360208601526001600160a01b03166040850152565b61043b60405193849260208401611435565b604051948580948193638154831960e01b835260048301610df2565b03925af18015610f8457611679575b8080806115f1565b611694903d805f833e61168c81836101d4565b81019061148f565b505f611671565b6001600160a01b0316141590505f806115ea565b6116d291945060203d6020116116d9575b6116ca81836101d4565b810190611416565b925f6115a3565b503d6116c0565b61170391955060803d60801161170d575b6116fb81836101d4565b8101906113c8565b505050935f611553565b503d6116f1565b91909160808060a0830194803561172a81610252565b6001600160a01b03168452602081013561174381610252565b6001600160a01b0316602085015262ffffff604082013561176381610267565b166040850152606081013561177781610274565b60020b6060850152013561178a81610252565b6001600160a01b0316910152565b634e487b7160e01b5f52601260045260245ffd5b80156117b8575f190490565b611798565b81156117b8570490565b35610e0381610252565b91908203918211610d4257565b80820392916101008412610263576117f8606091836102ed565b93609f1901126102635760e06040519161181183610182565b60a081013561181f8161035c565b835260c08101356020840152013561183681610252565b604082015290565b6040519061184d6020836101d4565b5f8252565b90816020910312610263575190565b61189d610e0394936118768361012095611338565b8051151560a0840152602081015160c0840152604001516001600160a01b031660e0830152565b816101008201520190610dce565b600f0b6f7fffffffffffffffffffffffffffffff198114610d42575f0390565b604051906118d8826101b9565b5f6020838281520152565b81516001600160a01b0390811682526020808401519091169082015260409182015115159181019190915260600190565b9092915f925f926119258682612136565b906119336040880151151590565b15611bc55760018101965b80516001600160a01b0316338103611ba657508254948515611b8b578015158080611b72575b611b575760028a015499611981600187019889548d030260601c90565b9a809855602084019161199a835160018060a01b031690565b426001600160a01b039091161115611b32575b6119ba575b505050505050565b9091929394989750426119d6610603845160018060a01b031690565b0397895498808a025f198614611b1f575b856119f1826122e2565b01905f8212611ad0575090611a05916117bd565b985f851215611a9d57505090611a4c8893926001611a33868d5403948584540384555160018060a01b031690565b6001600160a01b03165f90815291016020526040902090565b9081540390555f03965b81611a94575050611a89916009611a6f611a7e936122a4565b9101905f5260205260405f2090565b60015f918281550155565b5f80808080806119b2565b5550611a899050565b8254908a039081018355925190998994509291611ac5916001906001600160a01b0316611a33565b908154019055611a56565b6040805163513043ff60e11b815289516001600160a01b03908116600483015260208b015116602482015290890151151560448201526064810191909152608481018790528060a481015b0390fd5b9450611b2a856122e2565b5f03946119e7565b611b52611a7e611b41876122a4565b60098901905f5260205260405f2090565b6119ad565b604051630918b28960e01b815280611b1b85600483016118e3565b506020830151426001600160a01b039091161115611964565b604051639044eb2760e01b815280611b1b84600483016118e3565b63e2aaff7360e01b5f526001600160a01b03166004523360245260445ffd5b600581019661193e565b908160209103126102635751610e038161035c565b15611beb57565b60405162461bcd60e51b815260206004820152600360248201526229aa2360e91b6044820152606490fd5b6040516323b872dd60e01b602082019081526001600160a01b039384166024830152939092166044830152606480830194909452928152610205925f9283928390611c626084826101d4565b51926001600160a01b03165af13d15611cd2573d611c7f81611474565b90611c8d60405192836101d4565b81523d5f602083013e5b81611ca3575b50611be4565b8051801592508215611cb8575b50505f611c9d565b611ccb9250602080918301019101611bcf565b5f80611cb0565b6060611c97565b604051611cea602082018093611338565b60a08152611cf960c0826101d4565b5190205f525f60205260405f2090565b604051611d1a602082018093611338565b60a08152611d2960c0826101d4565b51902090565b81156117b8570690565b92909192611d4d611d4982612302565b1590565b611f835781516001600160a01b0316938154907f000000000000000000000000000000000000000000000000000000000000000090611d9e611d98611d928486611d2f565b846117d1565b846113bb565b956001850196600586019060028701905b42811115611e9c575b5050611de59742861080611e8d575b611df9575b505042909455505091516001600160a01b031692915050565b6001600160a01b0380821692169190911191565b9691929394959654151580918192611e82575b5015611e475750611e3a94611e1f610234565b94855242602086015242036040850152606084015284612610565b905b5f8080808080611dcc565b611e7691611e7c96611e57610225565b9687524260208801819052036040870152606086015215156080850152565b8461238b565b90611e3c565b90505415155f611e0c565b50611e9787612302565b611dc7565b611eae8183905f5260205260405f2090565b5415801590611f6b575b611edb575b850190611ecc611d4989612302565b611ed65790611daf565b611db8565b9589989198541515808091611f61575b15611f235750611f1b91611efd610234565b91878352886020840152880360408301526060820152848489612610565b965b85611ebd565b611f5390611f5b93611f33610225565b898152602081018b9052938a036040850152606084015215156080830152565b84848961238b565b96611f1d565b5083541515611eeb565b505f8181526006890160205260409020541515611eb8565b925050504290555f905f90565b815190939291906001600160a01b0316338103611ba65750835415612127576020810180516001600160a01b03164281111561210c575082156120fd578051612003907f0000000000000000000000000000000000000000000000000000000000000000906001600160a01b0316611d2f565b6120e157612010826122a4565b9460098101926120288785905f5260205260405f2090565b546120c4579260026120aa9361208561206a8a9561204d60406102059b9a0151151590565b156120bb57600101925b835489018455516001600160a01b031690565b6001600160a01b03165f908152600183016020526040902090565b8681540190550154612095610207565b9485526020850152905f5260205260405f2090565b906020600191805184550151910155565b60050192612057565b6040516304a9e54d60e01b8152908190611b1b90600483016118e3565b51632990d56760e21b5f526001600160a01b031660045260245ffd5b637832636960e01b5f5260045ffd5b63cd87c18d60e01b5f526001600160a01b031660045260245ffd5b6321c4e35760e21b5f5260045ffd5b6121416009926122a4565b5f520160205260405f2090565b6001600160a01b03811661216157504790565b6040516370a0823160e01b815230600482015290602090829060249082906001600160a01b03165afa908115610f84575f9161219b575090565b610e03915060203d60201161101e5761100f81836101d4565b5f91826044926020956040519363a9059cbb60e01b8552600485015260248401525af13d15601f3d1160015f5114161716156121ec57565b60405162461bcd60e51b815260206004820152600f60248201526e1514905394d1915497d19052531151608a1b6044820152606490fd5b9091906001600160a01b03811661225957505f80808093612244955af11590565b61224a57565b633d2cec6f60e21b5f5260045ffd5b60445f8080936020956040519763a9059cbb60e01b84526004526024525af13d15601f3d1160015f5114161716905f6060526040521561229557565b633c9fd93960e21b5f5260045ffd5b6040805182516001600160a01b0390811660208084019182528501519091168284015292909101511515606082015260608152611d296080826101d4565b6001600160ff1b0381116122f35790565b6393dafdf160e01b5f5260045ffd5b60018101541590811591612314575090565b600591500154151590565b908160601b91808304600160601b1490151715610d4257565b81810292918115918404141715610d4257565b906001600160801b03809116911601906001600160801b038211610d4257565b906001600160801b03809116911603906001600160801b038211610d4257565b9290926123966118cb565b5060808201906123a68251151590565b1561260457600101939491945b8454936123c4604088015186612338565b935f945b606089016124008151836123f660206123e7845160018060a01b031690565b9301516001600160801b031690565b89511515926127c2565b61240d8186888551612863565b91901561252757506124c961243461242e8361242889611d09565b8a612a21565b92612ae0565b61245584518261244f60206123e7845160018060a01b031690565b91612940565b936124b961247a82518461247460206123e7845160018060a01b031690565b916129ae565b946124858c51151590565b156124f6578251602001516124a6916001600160801b03908116911661236b565b6020835101906001600160801b03169052565b516001600160a01b039091169052565b865115159788156124ef5781905b0197156124e75750905b036123c8565b9050906124e1565b82906124d7565b6125229061251c610f0e61251660208751016001600160801b0390511690565b926118ab565b9061234b565b6124a6565b9661257a92965060609a955061257f949b9993506125cb98915061254b9051151590565b156125e5576125759061256f87518961247460206123e7845160018060a01b031690565b906113bb565b61231f565b6117bd565b60208601916125918351885190611d2f565b6125d0576124b9925190916002830190815401809155815f526003830160205260405f20555f526001810160205260405f20548154039055565b015190565b6125e09250600201908154019055565b6124b9565b6125759061256f87518961244f60206123e7845160018060a01b031690565b600501939491946123b3565b93929161261b6118cb565b50612629604084015161231f565b91600186019560058101935b606086018051805191929161265f906020906001600160a01b03169201516001600160801b031690565b8a54612697895492612687612672610225565b8781526001600160a01b039096166020870152565b6001600160801b03166040850152565b606083015260808201526126aa81612e5d565b6126b78188888751612863565b9290156127015750506126f99060208901518451906126e16126d7610234565b93849060020b9052565b60208301528360408301526060820152868686613119565b925203612635565b9096506125cb979395506060999a945061271e9250869150612fd5565b9190602088019061273282518a5190611d2f565b6127a357612771906124b995835190916002830190815401809155815f526003830160205260405f20555f526001810160205260405f20548154039055565b5190916002830190815401809155815f526003830160205260405f20555f526001810160205260405f20548154039055565b6127b791506125e094600201908154019055565b600201908154019055565b926001600160a01b038416158015612852575b61284357156127e757610e03926132b7565b906001600160a01b03811161282a576001600160801b039060601b91169081156117b85704905b6001600160a01b0316908101908110610d4257610e0390614ac9565b6001600160801b0361283d921690613747565b9061280e565b6309e48c3760e31b5f5260045ffd5b506001600160801b038216156127d5565b80515f959391929061287d906001600160a01b0316613325565b9461289b61060361288d83613325565b95516001600160a01b031690565b5f946001600160a01b0390921610905b84156128c1575b505050506128bc57565b5f9250565b9296508093506128f191958161292f575b6128db88611d09565b906128ea60608a015160020b90565b91886135e1565b9290948396600187845f14612921578560020b9060020b13155b9515151461291c57929190916128ab565b6128b2565b8560020b9060020b1361290b565b5f190160020b6128d2565b60701b90565b6001600160a01b03828116908216116129a8575b6001600160a01b03811692831561299a5761298e926001600160a01b0380821693909103169060601b600160601b600160e01b0316613857565b90808206151591040190565b62bfc92160e01b5f5260045ffd5b90612954565b6001600160a01b0382811690821611612a1b575b6001600160a01b0390811691811691909103908111610d42576001600160a01b0316906001600160801b03166129fd600160601b83836137d4565b91600160601b9109612a0c5790565b5f198110156102635760010190565b906129c2565b612a9f9261043b612a7b612a5b602095604051612a538161043b8a820194856020600a91939293604081019481520152565b51902061139f565b604051928391878301958660209093929193604081019460020b81520152565b519020906040518080958194631e2eaeaf60e01b8352600483019190602083019252565b03916001600160a01b03165afa908115610f84575f91612ac1575b5060801c90565b612ada915060203d60201161101e5761100f81836101d4565b5f612aba565b60020b5f811215612e5757805f03905b620d89e88211612e48576001821615612e36576001600160881b036ffffcb933bd6fad37aa2d162d1a5940015b169160028116612e1a575b60048116612dfe575b60088116612de2575b60108116612dc6575b60208116612daa575b60408116612d8e575b60808116612d72575b6101008116612d56575b6102008116612d3a575b6104008116612d1e575b6108008116612d02575b6110008116612ce6575b6120008116612cca575b6140008116612cae575b6180008116612c92575b620100008116612c76575b620200008116612c5b575b620400008116612c40575b6208000016612c27575b5f12612c19575b612bf7612bed8260201c90565b9163ffffffff1690565b612c11575f905b60ff91909116016001600160a01b031690565b600190612bfe565b612c22906117ac565b612be0565b6b048a170391f7dc42444e8fa290910260801c90612bd9565b6d2216e584f5fa1ea926041bedfe9890920260801c91612bcf565b916e5d6af8dedb81196699c329225ee6040260801c91612bc4565b916f09aa508b5b7a84e1c677de54f3e99bc90260801c91612bb9565b916f31be135f97d08fd981231505542fcfa60260801c91612bae565b916f70d869a156d2a1b890bb3df62baf32f70260801c91612ba4565b916fa9f746462d870fdf8a65dc1f90e061e50260801c91612b9a565b916fd097f3bdfd2022b8845ad8f792aa58250260801c91612b90565b916fe7159475a2c29b7443b29c7fa6e889d90260801c91612b86565b916ff3392b0822b70005940c7a398e4b70f30260801c91612b7c565b916ff987a7253ac413176f2b074cf7815e540260801c91612b72565b916ffcbe86c7900a88aedcffc83b479aa3a40260801c91612b68565b916ffe5dee046a99a2a811c461f1969c30530260801c91612b5e565b916fff2ea16466c96a3843ec78b326b528610260801c91612b55565b916fff973b41fa98c081472e6896dfb254c00260801c91612b4c565b916fffcb9843d60f6159c9db58835c9266440260801c91612b43565b916fffe5caca7e10e4e61c3624eaa0941cd00260801c91612b3a565b916ffff2e50f5f656932ef12357cf3c7fdcc0260801c91612b31565b916ffff97272373d413259a46990580e213a0260801c91612b28565b6001600160881b03600160801b612b1d565b6333a3bdff60e21b5f5260045ffd5b80612af0565b612fad612fa8610e03926060810190612e7682516138de565b612f7b612eb06080840193612f76612eb5612eb0612ea5612e9789516138de565b97612eaa612ea58a83613e0d565b614074565b986146a9565b61394b565b94612f65612ec28761421c565b93612f54612ed8612ed383516138de565b61421c565b612f43612f16612f02610f0e6040612f07612ed3612f0261060360208c015160018060a01b031690565b6138de565b9701516001600160801b031690565b95612f32612f22610225565b6001600160801b0319909a168a52565b6001600160801b0319166020890152565b6001600160801b0319166040870152565b6001600160801b0319166060850152565b6001600160801b0319166080830152565b614925565b608081901c60016001607f1b0316617fff60701b148015612fba575b15612fb25750915b51905110614a11565b614a60565b614ac9565b905091612f9f565b50617fff60701b608082901c60016001607f1b031611612f97565b9190916060810151612fe6906138de565b906080810151612ff5906138de565b9161300081846146a9565b9261300a91613e0d565b61301390614074565b93815161301f906138de565b6130289061421c565b6020830151909590613042906001600160a01b03166138de565b61304b9061421c565b9161305e906001600160a01b03166138de565b6130679061421c565b60409390930151613080906001600160801b03166138de565b93613089610243565b6001600160801b031990971687526001600160801b03191660208701526001600160801b03191660408601526001600160801b03191660608501526001600160801b03191660808401526001600160801b03191660a08301526130eb82614add565b6130f49061394b565b6130fd90614a60565b9161310790614b71565b6131109061394b565b610e0390614a60565b91909392936131266118cb565b50845160020b61313590612ae0565b94859260608201948551906020820151613155906001600160801b031690565b91516001600160a01b031690866001820192835492600501948386549d6001600160801b038f93169361318794614c18565b9a8b928a51805161319d9060018060a01b031690565b6020909101516001600160801b0316906131b5610225565b9586526001600160a01b031660208601526001600160801b03166040850152606084015260808301526131e791612fd5565b91906131f891600201908154019055565b61320791600201908154019055565b61321090611d09565b905160020b9061321f92612a21565b82518051613290939261327f92916020916001600160801b03916001600160a01b03908116908716106132ad575b5f81600f0b125f1461329557838301516001600160801b0316905f038216900316915b01906001600160801b03169052565b82516001600160a01b039091169052565b519190565b838301516001600160801b0316908216011691613270565b5f03600f0b61324d565b919081156133205760601b600160601b600160e01b0316916001600160a01b0316818102828104821461330c575b5080156117b8578204908101809111610d425780820615159104016001600160a01b031690565b83018381106132e557915061060392613857565b505090565b6001600160a01b03166401000276a38110801561359f575b6135905761334b8160201b90565b806001600160801b03811160071b90811c6001600160401b03811160061b90811c63ffffffff811160051b90811c61ffff811160041b90811c9060ff821160031b91821c92600f841160021b93841c94600160038711811b96871c1196171717171717179060808210155f1461358557607e1982011c905b607f190160401b90800280607f1c8160ff1c1c800280607f1c8160ff1c1c800280607f1c8160ff1c1c800280607f1c8160ff1c1c800280607f1c8160ff1c1c800280607f1c8160ff1c1c80029081607f1c8260ff1c1c80029283607f1c8460ff1c1c80029485607f1c8660ff1c1c80029687607f1c8860ff1c1c80029889607f1c8a60ff1c1c80029a8b607f1c8c60ff1c1c80029c8d80607f1c9060ff1c1c800260cd1c6604000000000000169d60cc1c6608000000000000169c60cb1c6610000000000000169b60ca1c6620000000000000169a60c91c6640000000000000169960c81c6680000000000000169860c71c600160381b169760c61c600160391b169660c51c6001603a1b169560c41c6001603b1b169460c31c6001603c1b169360c21c6001603d1b169260c11c6001603e1b169160c01c6001603f1b161717171717171717171717171717693627a301d71055774c85026f028f6481ab7f045a5af012a19d003aa91981016135399060801d90565b60020b906fdb2df09e81959a81455e260799a0632f0160801d60020b918260020b8260020b145f1461356b5750905090565b61357761060384612ae0565b11613580575090565b905090565b81607f031b906133c3565b63015680db60e11b5f5260045ffd5b5073fffd8963efd1fc6a506488495d951d5263988d2681101561333d565b9060020b9081156117b85760020b0590565b9060020b9081156117b85760020b0790565b90936135ed84846135bd565b92845f8260020b129182613722575b5050613715575b1561369d576136386136258360020b906101008260081d60010b920760ff1690565b95600160ff88161b80015f190193614d23565b168015801594919061368a579161367861366d6136676136809461365f6136879897614e8a565b60ff91031690565b60ff1690565b62ffffff1660020b90565b900360020b90565b0260020b90565b91565b5060ff1660020b900360020b0260020b91565b600191820160020b916136cb90600884901d900b60ff610100850716955f19600160ff89161b011993614d23565b168015801594919061370057916136f961366d613667613680946136f26136879897614d9b565b0360ff1690565b0160020b90565b5060ff9081031660020b0160020b0260020b91565b915f190160020b91613603565b613737925090613731916135cf565b60020b90565b1515845f6135fc565b1561026357565b90606082901b905f19600160601b840992828085109403938085039461376e868511613740565b146137cd578190600160601b900981805f03168092046002816003021880820260020302808202600203028082026002030280820260020302808202600203028091026002030293600183805f03040190848311900302920304170290565b5091500490565b91818302915f198185099383808610950394808603956137f5878611613740565b1461384f579082910981805f03168092046002816003021880820260020302808202600203028082026002030280820260020302808202600203028091026002030293600183805f03040190848311900302920304170290565b505091500490565b9291906138658282866137d4565b9382156117b8570961387357565b905f198110156102635760010190565b600261388e81614f95565b9060708210156138ca57816070031b5b6001600160701b0316613fff90910160701b6001600160801b03161760801b6001600160801b03191690565b607082111561389e57606f1982011c61389e565b806138e857505f90565b806138f282614f95565b91607083101561392e5750816070031b6001600160701b0316613fff90910160701b6001600160801b03161760801b6001600160801b03191690565b6070831161393d575b5061389e565b606f1983011c90505f613937565b608081901c617fff60f083901c16613970617fff61405f5b166001600160801b031690565b91617fff82036139cd575050617fff03610e03576001600160801b0319811661405f60f01b0361399d5790565b61405f60f01b81186001600160801b031916600160ff1b036139c35761405f60f01b1790565b5061ffff60ef1b90565b617fff8303613a0457505050600160801b600160ff1b0381166139f4575061ffff60ef1b90565b600160ff1b1661405f60f01b1890565b6001600160701b03169080613b8757506001915b5f9080613b7a57506001915b02918215613b5957610e0393613a87939092909101600160e11b8210613b395760e15b81810190614070821015613a9757505f939250839150613a649050565b6001600160801b0361405f60f01b90921860801c6001607f1b1617919091171690565b60801b6001600160801b03191690565b6140e0821015613ad7575050614070811015613aba57614070031c905b5f613a64565b6140708111613acb575b5090613ab4565b61406f19011b5f613ac4565b909392915061c0dd841115613af757505f9250613a649050617fff61293a565b613a64916001600160701b03916070811115613b2057606f19011c5b16926140de190160701b90565b60708110613b2f575b50613b13565b6070031b5f613b29565b600160e01b8210613b4b5760e0613a47565b613b5482614f95565b613a47565b50505061405f60f01b18600160ff1b1615613b7657600160ff1b90565b5f90565b91600160701b9150613a24565b91600160701b90911790613a18565b608081901c617fff60f083901c16613bb2617fff613ffe613963565b91617fff8203613c2f575050617fff03610e03576001600160801b031981166f3ffe62e42fefa39ef35793c7673007e560801b03613bed5790565b6f3ffe62e42fefa39ef35793c7673007e560801b81186001600160801b031916600160ff1b036139c3576f3ffe62e42fefa39ef35793c7673007e560801b1790565b617fff8303613c7457505050600160801b600160ff1b038116613c56575061ffff60ef1b90565b600160ff1b166f3ffe62e42fefa39ef35793c7673007e560801b1890565b6001600160701b03169080613dfe57506001915b6d62e42fefa39ef35793c7673007e59080613de657506001915b02918215613dbb57610e0393613a87939092909101600160e11b8210613d9b5760e15b81810190614070821015613d1357505f939250839150613ce29050565b6001600160801b036f3ffe62e42fefa39ef35793c7673007e560801b90921860801c6001607f1b1617919091171690565b6140e0821015613d53575050614070811015613d3657614070031c905b5f613ce2565b6140708111613d47575b5090613d30565b61406f19011b5f613d40565b909392915061c0dd841115613d7357505f9250613ce29050617fff61293a565b613ce2916001600160701b03916070811115613b2057606f19011c16926140de190160701b90565b600160e01b8210613dad5760e0613cc5565b613db682614f95565b613cc5565b5050506f3ffe62e42fefa39ef35793c7673007e560801b18600160ff1b1615613b7657600160ff1b90565b916e0162e42fefa39ef35793c7673007e59150613ca2565b91600160701b90911790613c88565b90608082901c617fff60f084901c608084901c929116613e33617fff60f086901c613963565b91617fff8203613eb7575050617fff14159050613e90576001600160801b031982811690821603613e6857600160ff1b161890565b908082186001600160801b031916600160ff1b03613e84571790565b5061ffff60ef1b919050565b600160801b600160ff1b038116613ead575061ffff60ef1b919050565b600160ff1b161890565b617fff839293145f14613ee85750929392505050600160801b600160ff1b038116613ead575061ffff60ef1b919050565b6001600160701b0316918061405c57506001600160701b036001935b16908061404d57506001915b0291821561403657610e0394613a879490939092909101600160e11b82106140165760e15b81810190614070821015613f6c57505f949250849150613f529050565b916001607f1b911860801c1617176001600160801b031690565b6140e0821015613fb2575050614070811015613f8f57614070031c915b5f613f52565b6140708194929411613fa2575b50613f89565b61406f19019290921b915f613f9c565b9092915061c0dd831115613fd157505050617fff91613f525f9361293a565b919391613f52916001600160701b03916070811115613ffd57606f19011c5b16936140de190160701b90565b6070811061400c575b50613ff0565b6070031b5f614006565b600160e01b82106140285760e0613f35565b61403182614f95565b613f35565b50505018600160ff1b1615613b7657600160ff1b90565b91600160701b90911790613f10565b92600160701b909217916001600160701b0390613f04565b608081901c6001607f1b811115614091575061ffff60ef1b919050565b607081901c617fff1690617ffe1982016140aa57505090565b6001600160701b03169150806141f557506001905b80156141ef576140d8613fff6001841615930160011c90565b91156141bb57600160701b81106141925760711b5b61415a61415361414961413f61413561412b614121614117600160701b60708a901c5b0160011c90565b614110818a6117bd565b61411081896117bd565b61411081886117bd565b61411081876117bd565b61411081866117bd565b61411081856117bd565b80926117bd565b81811061418a575b506001600160701b036001600160801b0361417f81199460701b90565b1691161760801b1690565b90505f614162565b906141b360fe6141a184614f95565b60e2031692831b92606f190160011c90565b9003906140ed565b600160701b81106141ce5760701b6140ed565b906141b360fe6141dd84614f95565b60e1031692831b92606f190160011c90565b50505f90565b90600160701b176140bf565b1561420857565b634e487b7160e01b5f52600160045260245ffd5b5f608082901c617fff60f084901c16614239617fff61405f613963565b91617fff820361425a575050617fff14159050610e03575061ffff60ef1b90565b9091617fff8103614288575050505f14614278575061ffff60ef1b90565b61405f60f01b18600160ff1b1690565b919250905f908061441a57506001600160701b036001925b168361440757806143df575b906142b6916117bd565b918215613b595791610e039391613a87936142d76001606c1b841015614201565b600160731b83106143ac576142eb83614f95565b81810190614071840182111561431057505f949350617fff60701b9250613a64915050565b83613ffc8301105f1461432d57505f949350849250613a64915050565b83613f8c8301105f14614378575050613ffc81018281111561435a575003613ffc011b90613a645f61293a565b8211614369575b505090613ab4565b9003613ffb19011c5f80614361565b613f8d9250613a64939195948160706001600160701b0393116143a1575b501694030160701b90565b606f19011c5f614396565b600160721b83106143c25760ff60725b166142eb565b600160711b83106143d65760ff60716143bc565b60ff60706143bc565b92506142b6906143ee84614f95565b60e20393841b92600194607119910101929091506142ac565b6142b69190600160701b1760721b6117bd565b91600160701b91506001600160701b03906142a0565b613fff608082901c614448617fff60f085901c613963565b90617fff83036144785750617fff14159050614468575061ffff60ef1b90565b600160ff1b16613fff60f01b1890565b617fff82036144b057505050600160801b600160f01b038116156144a0575061ffff60ef1b90565b613fff60f01b18600160ff1b1690565b600160801b600160ff1b0384166144de57505050600160ff1b613fff60f01b9190911816617fff60f01b1790565b6001600160701b0316908061469d57506001905b5f8361468e5780614666575b90614508916117bd565b9182156146495791610e039391613a87936145296001606c1b841015614201565b600160731b83106146165761453d83614f95565b81810190614071840182111561458557505f949350617fff60701b9250614562915050565b6001600160801b03613fff60f01b90921860801c6001607f1b1617919091171690565b83613ffc8301105f146145a257505f949350849250614562915050565b83613f8c8301105f146145ee575050613ffc8101828111156145d0575003613ffc011b905b6145625f61293a565b82116145df575b5050906145c7565b9003613ffb19011c5f806145d7565b613f8d9250614562939195948160706001600160701b0393116143a157501694030160701b90565b600160721b831061462c5760ff60725b1661453d565b600160711b83106146405760ff6071614626565b60ff6070614626565b505050613fff60f01b18600160ff1b1615613b7657600160ff1b90565b92506145089061467584614f95565b60e20393841b92600194607119910101929091506144fe565b5061450890600160e21b6117bd565b90600160701b176144f2565b90608082901c617fff60f084901c1690608083901c906146cf617fff60f086901c613963565b91617fff84036146f2575050617fff14159050613ead575061ffff60ef1b919050565b617fff839293145f1461472b5750505050600160801b600160f01b03811615614721575061ffff60ef1b919050565b18600160ff1b1690565b600160801b600160ff1b03851661476f5750505050600160801b600160ff1b03821661475d575061ffff60ef1b919050565b617fff60f01b9118600160ff1b161790565b6001600160701b0316908061490d57506001600160701b036001925b16836148fa57806148d2575b906147a1916117bd565b9182156140365791613a879391610e0395936147c36001606c1b841015614201565b600160731b831061489f576147d783614f95565b8181019061407184018211156147fc57505f959350617fff60701b9250613f52915050565b83613ffc8301105f1461481957505f959350859250613f52915050565b83613f8c8301105f1461486b575050613ffc810182811115614846575003613ffc011b91613f525f61293a565b829095939510614858575b5050613f89565b9003613ffb19019290921c915f80614851565b613f8d9250613f52939196948160706001600160701b039311614894575b501695030160701b90565b606f19011c5f614889565b600160721b83106148b55760ff60725b166147d7565b600160711b83106148c95760ff60716148af565b60ff60706148af565b92506147a1906148e184614f95565b60e20393841b9260019460711991010192909150614797565b6147a19190600160701b1760721b6117bd565b91600160701b909117906001600160701b039061478b565b610e03906149ba61497c61496761495261493d613883565b60208601516001600160801b03191690613e0d565b60408501516001600160801b03191690613e0d565b60808401516001600160801b031916906146a9565b91614a0c6149f66149c083516001600160801b0319166149ba60608601516001600160801b0319166149b4600160ff1b821884615066565b92615066565b906146a9565b92516f1fffb8aa3b295c17f0bbbe87fed0691d60811b90614a06906001600160801b031916614a00866149fb6149f6868c613e0d565b61556f565b61505a565b90613e0d565b95613e0d565b615066565b15614a36576001614a21826154e3565b5f0b03610e035750651007c0009da960d21b90565b6001614a4182615410565b5f0b03610e0357506f204f7ffd8963efd1fc6a506488495d9560811b90565b60f081901c617fff169060801c613fff82106141ef576001607f1b81101561026357614a906140fe831115613740565b6001600160701b0316600160701b179061406f811015614ab25761406f031c90565b61406f8111614ac0575b5090565b61406e19011b90565b6001600160a01b038116919082036122f357565b610e0390614b656001600160801b031960208301511691614b4f614b28614b0f6001600160801b031984511686613e0d565b94614a006001600160801b031960a08601511691614074565b60808301516060840151614a0091600160ff1b6001600160801b0319928316189116615066565b6040909101516001600160801b031916906146a9565b600160ff1b1890615066565b610e0390614b656001600160801b0319825116916040614c05614bd4614ba760208501966001600160801b0319885116906146a9565b95614a00614bcf6001600160801b031960a088015116926001600160801b0319905116614074565b614430565b614a00614bee6001600160801b0319608087015116614430565b614b656001600160801b0319606088015116614430565b9101516001600160801b031916906146a9565b92614c25909291926138de565b93614c2f906138de565b91614c42906001600160a01b03166138de565b90614c55906001600160a01b03166138de565b93614c6081846146a9565b614c6990614074565b614c729061394b565b92614c7c91613e0d565b614c8590614074565b93614c908184615066565b90614ca190600160ff1b1884615066565b614caa916146a9565b91614cbb600160ff1b831882615066565b91614cc591615066565b614cce916146a9565b614cd791613e0d565b614ce090616ba5565b614ce990613b96565b90614cf3906138de565b614cfc91613e0d565b90614d05613883565b90614d0f91613e0d565b90614d199061394b565b90613110916146a9565b614d7d9261043b612a7b614d5d602095604051614d558161043b8a820194856020600a91939293604081019481520152565b5190206113ad565b604051928391878301958660209093929193604081019460010b81520152565b03916001600160a01b03165afa908115610f84575f9161219b575090565b90614da7821515613740565b60ff6001600160801b03831615614e805750607f5b6001600160401b03831615614e7657603f190160ff165b63ffffffff831615614e6c57601f190160ff165b61ffff831615614e6257600f190160ff165b60ff831615614e58576007190160ff165b600f831615614e4e576003190160ff165b6003831615614e42576001190160ff16916001905b16614e3757565b5f1990910160ff1690565b9160019060021c614e30565b9160041c91614e1b565b9160081c91614e0a565b9160101c91614df9565b9160201c91614de7565b9160401c91614dd3565b9160801c91614dbc565b905f91614e98811515613740565b600160801b811015614f8a575b80600160401b6002921015614f73575b640100000000811015614f5c575b62010000811015614f45575b610100811015614f2e575b6010811015614f17575b6004811015614f01575b1015614ef657565b90600160ff91011690565b81614f0e60ff9260021c90565b94011692614eee565b6004614f2560ff9260041c90565b94011692614ee4565b6008614f3c60ff9260081c90565b94011692614eda565b6010614f5360ff9260101c90565b94011692614ecf565b6020614f6a60ff9260201c90565b94011692614ec3565b6040614f8160ff9260401c90565b94011692614eb5565b60809250821c614ea5565b614fa0811515613740565b5f90600160801b81101561504f575b80600160401b6002921015615043575b640100000000811015615037575b6201000081101561502b575b61010081101561501f575b6010811015615013575b6004811015615007575b10156150015790565b60010190565b9181019160021c614ff8565b6004928301921c614fee565b6008928301921c614fe4565b6010928301921c614fd9565b6020928301921c614fcd565b6040928301921c614fbf565b60809150811c614faf565b610e0391600160ff1b18905b90608082901c617fff60f084901c1690608083901c61508b617fff60f086901c613963565b92617fff81036150b657505050617fff03614abc576001600160801b03198281169116036139c35790565b909192617fff81969596145f146150cf57505050505090565b6001607f1b841015936001600160701b0316918061540157506001925b6001600160701b038116916001607f1b9091101590806153f3575060015b836151335750505050506001600160801b03198316600160ff1b14159150610e03905057505f90565b8293949596979192155f146151665750505050506001600160801b03198316600160ff1b14159150610e03905057505f90565b8086039287810361527b57506070831315615185575050505050505090565b90919293949596505f83135f146152405750501c905b0190600160711b821015615234575b617fff81036151cf575050156151c6576001600160f01b031990565b617fff60f01b90565b610e0392613a879291600160701b83101561522357505f905b15615210576001607f1b906001600160801b039060701b5b911617176001600160801b031690565b6001600160801b036152005f9260701b90565b90916001600160701b0316916151e8565b600191821c91016151aa565b9095949391606f198112156152585750505050505090565b909192939495505f811261526e575b505061519b565b9093505f031c5f80615267565b95949280949798505f919250135f146153d3575060011b915f1901935b607082131561537d5750506001915b8282106153745750035b801561536d576152c081614f95565b6071810361532357506001600160701b036152dd60019260011c90565b1691015b617fff81036152fd575050156151c6576001600160f01b031990565b90613a8791610e03935f14615210576001607f1b906001600160801b039060701b615200565b9190607083101561535d57826070038083115f14615350571b6001600160701b03169101606f19016152e1565b5091505f19011b5f6152e1565b6001600160701b031691506152e1565b5050505f90565b935090036152b1565b6001821315615397575f1990810191011c600101916152a7565b9290606f198112156153ad5750600191506152a7565b5f1981126153bc575b506152a7565b600191925f1901905f19905f03011c01905f6153b6565b5f8396929496126153e5575b50615298565b5f1901945060011b5f6153df565b600160701b9092179161510a565b92600160701b909217916150ec565b5f908060801c60016001607f1b03811691615432617fff60701b841115613740565b61543c6001613740565b6001600160801b0319166f204f7ffd8963efd1fc6a506488495d9560811b148015816154d5575b61546c90613740565b1561547657505090565b6001607f1b116154b15781156154aa576f409efffb12c7dfa3f8d4a0c91092bb2a9150115f146154a5575f1990565b600190565b50505f1990565b6f409efffb12c7dfa3f8d4a0c91092bb2a9150115f146154d057600190565b5f1990565b50617fff60701b8310615463565b5f906154ef6001613740565b8060801c60016001607f1b0381169161550f617fff60701b841115613740565b6001600160801b031916651007c0009da960d21b14801581615567575b61553590613740565b1561553f57505090565b9091506001607f1b116155525750600190565b651007c0009da960521b11156154d057600190565b50600161552c565b6001607f1b608082901c908111916001600160701b0390617fff9060f01c16911690617fff811480616b9c575b156155ae575061ffff60ef1b92915050565b61400d8111156155c3575050156151c6575f90565b613f7f8110156155da5750613fff60f01b92915050565b80616b8e575060015b613fef811115616b7357613fee19011b5b8180616b65575b6141ef578115908180616b4a575b616b3d57610e0392613a87926001600160801b036156278460801c90565b93169180616b34575b616b26575b6001607f1b91808316616b0e575b6001607e1b8116616af1575b6001607d1b8116616ad4575b6001607c1b8116616ab7575b6001607b1b8116616a9a575b6001607a1b8116616a7d575b600160791b8116616a60575b600160781b8116616a43575b600160771b8116616a26575b600160761b8116616a09575b600160751b81166169ec575b600160741b81166169cf575b600160731b81166169b2575b600160721b8116616995575b600160711b8116616978575b600160701b811661695b575b6001606f1b811661693e575b6001606e1b8116616921575b6001606d1b8116616904575b6001606c1b81166168e7575b6001606b1b81166168ca575b6001606a1b81166168ad575b600160691b8116616890575b600160681b8116616873575b600160671b8116616856575b600160661b8116616839575b600160651b811661681c575b600160641b81166167ff575b600160631b81166167e2575b600160621b81166167c5575b600160611b81166167a8575b600160601b811661678b575b6001605f1b811661676e575b6001605e1b8116616751575b6001605d1b8116616734575b6001605c1b8116616717575b6001605b1b81166166fa575b6001605a1b81166166dd575b600160591b81166166c0575b600160581b81166166a3575b600160571b8116616686575b600160561b8116616669575b600160551b811661664c575b600160541b811661662f575b600160531b8116616612575b600160521b81166165f5575b600160511b81166165d8575b600160501b81166165bb575b6980000000000000000000811661659e575b69400000000000000000008116616581575b69200000000000000000008116616564575b69100000000000000000008116616547575b6908000000000000000000811661652a575b6904000000000000000000811661650d575b690200000000000000000081166164f0575b690100000000000000000081166164d3575b6880000000000000000081166164b6575b684000000000000000008116616499575b68200000000000000000811661647c575b68100000000000000000811661645f575b680800000000000000008116616442575b680400000000000000008116616425575b680200000000000000008116616408575b600160401b81166163eb575b6001603f1b81166163ce575b6001603e1b81166163b1575b6001603d1b8116616394575b6001603c1b8116616377575b6001603b1b811661635a575b6001603a1b811661633d575b600160391b8116616320575b600160381b8116616303575b668000000000000081166162e6575b664000000000000081166162c9575b662000000000000081166162ac575b6610000000000000811661628f575b66080000000000008116616272575b66040000000000008116616255575b66020000000000008116616238575b6601000000000000811661621b575b6580000000000081166161fe575b6540000000000081166161e1575b6520000000000081166161c4575b6510000000000081166161a7575b65080000000000811661618a575b65040000000000811661616d575b650200000000008116616150575b650100000000008116616133575b6480000000008116616116575b64400000000081166160f9575b64200000000081166160dc575b64100000000081166160bf575b64080000000081166160a2575b6404000000008116616085575b6402000000008116616068575b640100000000811661604b575b6380000000811661602e575b63400000008116616011575b63200000008116615ff4575b63100000008116615fd7575b63080000008116615fba575b63040000008116615f9d575b63020000008116615f80575b63010000008116615f63575b628000008116615f46575b624000008116615f29575b622000008116615f0c575b621000008116615eef575b620800008116615ed2575b620400008116615eb5575b620200008116615e98575b620100008116615e7b575b6180008116615e5e575b6140008116615e41575b6120008116615e24575b6110008116615e07575b6108008116615dea575b6104008116615dcd575b6102008116615db0575b6101008116615d93575b60808116615d76575b60408116615d59575b60208116615d3c575b60108116615d1f575b60088116615d01575b600416615ce4575b15615caa57613fff6001600160701b03615c94615c9d93600f1c90565b16920160701b90565b176001600160801b031690565b613ffe8211615cd4576001600160701b03615cc8615c9d92600f1c90565b1691613fff0360701b90565b90613fee19011c615c9d5f61293a565b907001000000000000000000000000000000010260801c90615c77565b70010000000000000000000000000000000490920260801c91615c6f565b9170010000000000000000000000000000000a0260801c91615c66565b917001000000000000000000000000000000150260801c91615c5d565b9170010000000000000000000000000000002b0260801c91615c54565b917001000000000000000000000000000000570260801c91615c4b565b917001000000000000000000000000000000b00260801c91615c42565b917001000000000000000000000000000001610260801c91615c38565b917001000000000000000000000000000002c40260801c91615c2e565b9170010000000000000000000000000000058a0260801c91615c24565b91700100000000000000000000000000000b160260801c91615c1a565b9170010000000000000000000000000000162d0260801c91615c10565b91700100000000000000000000000000002c5b0260801c91615c06565b917001000000000000000000000000000058b80260801c91615bfc565b9170010000000000000000000000000000b1710260801c91615bf2565b917001000000000000000000000000000162e30260801c91615be7565b9170010000000000000000000000000002c5c70260801c91615bdc565b91700100000000000000000000000000058b8f0260801c91615bd1565b917001000000000000000000000000000b17200260801c91615bc6565b91700100000000000000000000000000162e410260801c91615bbb565b917001000000000000000000000000002c5c840260801c91615bb0565b9170010000000000000000000000000058b90a0260801c91615ba5565b91700100000000000000000000000000b172160260801c91615b9a565b9170010000000000000000000000000162e42e0260801c91615b8e565b91700100000000000000000000000002c5c85e0260801c91615b82565b917001000000000000000000000000058b90be0260801c91615b76565b9170010000000000000000000000000b17217e0260801c91615b6a565b917001000000000000000000000000162e42fd0260801c91615b5e565b9170010000000000000000000000002c5c85fc0260801c91615b52565b91700100000000000000000000000058b90bfa0260801c91615b46565b917001000000000000000000000000b17217f60260801c91615b3a565b91700100000000000000000000000162e42fee0260801c91615b2d565b917001000000000000000000000002c5c85fde0260801c91615b20565b9170010000000000000000000000058b90bfbd0260801c91615b13565b91700100000000000000000000000b17217f7c0260801c91615b06565b9170010000000000000000000000162e42fef90260801c91615af9565b91700100000000000000000000002c5c85fdf30260801c91615aec565b917001000000000000000000000058b90bfbe70260801c91615adf565b9170010000000000000000000000b17217f7d00260801c91615ad2565b917001000000000000000000000162e42fefa20260801c91615ac4565b9170010000000000000000000002c5c85fdf460260801c91615ab6565b91700100000000000000000000058b90bfbe8d0260801c91615aa8565b917001000000000000000000000b17217f7d1b0260801c91615a9a565b91700100000000000000000000162e42fefa380260801c91615a8c565b917001000000000000000000002c5c85fdf4720260801c91615a7e565b9170010000000000000000000058b90bfbe8e60260801c91615a70565b91700100000000000000000000b17217f7d1ce0260801c91615a62565b9170010000000000000000000162e42fefa39d0260801c91615a53565b91700100000000000000000002c5c85fdf473c0260801c91615a44565b917001000000000000000000058b90bfbe8e7a0260801c91615a35565b9170010000000000000000000b17217f7d1cf60260801c91615a26565b917001000000000000000000162e42fefa39ee0260801c91615a17565b9170010000000000000000002c5c85fdf473dd0260801c91615a08565b91700100000000000000000058b90bfbe8e7bb0260801c916159f9565b917001000000000000000000b17217f7d1cf780260801c916159ea565b91700100000000000000000162e42fefa39ef20260801c916159de565b917001000000000000000002c5c85fdf473de50260801c916159d2565b9170010000000000000000058b90bfbe8e7bcc0260801c916159c6565b91700100000000000000000b17217f7d1cf7990260801c916159ba565b9170010000000000000000162e42fefa39ef340260801c916159ae565b91700100000000000000002c5c85fdf473de6a0260801c916159a2565b917001000000000000000058b90bfbe8e7bcd50260801c91615996565b9170010000000000000000b17217f7d1cf79ab0260801c9161598a565b917001000000000000000162e42fefa39ef3580260801c9161597e565b9170010000000000000002c5c85fdf473de6b20260801c9161596d565b91700100000000000000058b90bfbe8e7bcd6d0260801c9161595c565b917001000000000000000b17217f7d1cf79afa0260801c9161594b565b91700100000000000000162e42fefa39ef366f0260801c9161593a565b917001000000000000002c5c85fdf473de6eca0260801c91615929565b9170010000000000000058b90bfbe8e7bce5440260801c91615918565b91700100000000000000b17217f7d1cf79e9490260801c91615907565b9170010000000000000162e42fefa39ef44d910260801c916158f5565b91700100000000000002c5c85fdf473dea871f0260801c916158e3565b917001000000000000058b90bfbe8e7bdcbe2e0260801c916158d1565b9170010000000000000b17217f7d1cf7d83c1a0260801c916158bf565b917001000000000000162e42fefa39f02b772c0260801c916158ad565b9170010000000000002c5c85fdf473e242ea380260801c9161589b565b91700100000000000058b90bfbe8e7cc35c3f00260801c91615889565b917001000000000000b17217f7d1cfb72b45e10260801c91615877565b91700100000000000162e42fefa39fe95583c20260801c9161586b565b917001000000000002c5c85fdf4741bea6e77e0260801c9161585f565b9170010000000000058b90bfbe8e8b2d3d4ede0260801c91615853565b91700100000000000b17217f7d1d351a389d400260801c91615847565b9170010000000000162e42fefa3ae53369388c0260801c9161583b565b91700100000000002c5c85fdf477b662b269450260801c9161582f565b917001000000000058b90bfbe8f71cb4e4b33d0260801c91615823565b9170010000000000b17217f7d20cf927c8e94c0260801c91615817565b917001000000000162e42fefa494f1478fde050260801c9161580b565b9170010000000002c5c85fdf4b15de6f17eb0d0260801c916157ff565b91700100000000058b90bfbe9ddbac5e109cce0260801c916157f3565b917001000000000b17217f7d5a7716bba4a9ae0260801c916157e7565b91700100000000162e42fefb2fed257559bdaa0260801c916157db565b917001000000002c5c85fdf84bd62ae30a74cc0260801c916157cf565b9170010000000058b90bfbf8479bd5a81b51ad0260801c916157c3565b91700100000000b17217f80f4ef5aadda455540260801c916157b7565b9170010000000162e42ff0999ce3541b9fffcf0260801c916157ab565b91700100000002c5c85fe31f35a6a30da1be500260801c9161579f565b917001000000058b90bfcdee5acd3c1cedc8230260801c91615793565b9170010000000b17217fba9c739aa5819f44f90260801c91615787565b917001000000162e42fff037df38aa2b219f060260801c9161577b565b9170010000002c5c8601cc6b9e94213c72737a0260801c9161576f565b91700100000058b90c0b48c6be5df846c5b2ef0260801c91615763565b917001000000b1721835514b86e6d96efd1bfe0260801c91615757565b91700100000162e430e5a18f6119e3c02282a50260801c9161574b565b917001000002c5c863b73f016468f6bac5ca2b0260801c9161573f565b9170010000058b90cf1e6d97f9ca14dbcc16280260801c91615733565b91700100000b1721bcfc99d9f890ea069117630260801c91615727565b9170010000162e43f4f831060e02d839a9d16d0260801c9161571b565b91700100002c5c89d5ec6ca4d7c8acc017b7c90260801c9161570f565b917001000058b91b5bc9ae2eed81e9b7d4cfab0260801c91615703565b9170010000b17255775c040618bf4a4ade83fc0260801c916156f7565b917001000162e525ee054754457d59952920260260801c916156eb565b9170010002c5cc37da9491d0985c348c68e7b30260801c916156df565b91700100058ba01fb9f96d6cacd4b180917c3d0260801c916156d3565b917001000b175effdc76ba38e31671ca9397250260801c916156c7565b91700100162f3904051fa128bca9c55c31e5df0260801c916156bb565b917001002c605e2e8cec506d21bfc89a23a00f0260801c916156af565b9170010058c86da1c09ea1ff19d294cf2f679b0260801c916156a3565b91700100b1afa5abcbed6129ab13ec11dc95430260801c91615697565b9170010163da9fb33356d84a66ae336dcdfa3f0260801c9161568b565b91700102c9a3e778060ee6f7caca4f7a29bde80260801c9161567f565b917001059b0d31585743ae7c548eb68ca417fd0260801c91615673565b9170010b5586cf9890f6298b92b71842a983630260801c91615667565b917001172b83c7d517adcdf7c8c50eb14a791f0260801c9161565b565b917001306fe0a31b7152de8d5a46305c85edec0260801c9161564f565b6fb504f333f9de6484597d89b3754abe9f9250615643565b919060019019910191615635565b50811515615630565b50617fff60f01b92915050565b50713fffffffffffffffffffffffffffffffffff8111615609565b5061203760811b81116155fb565b613fef8110616b83575b506155f4565b613fef031c5f616b7d565b600160701b909117906155e3565b5081151561559c565b608081901c6001607f1b811115616bc2575061ffff60ef1b919050565b6001600160801b03198216613fff60f01b03616bde5750505f90565b607081901c617fff1690617ffe198201616bf757505090565b6001600160701b0316915080616d3757506001905b8015616d285761406f613fff8310616cf3575f92613ffe190191600f1b5b6001607f1b8103616ca2575082616c98575b616c4582614f95565b91826070031b91606f19910101915b15616c8a576001600160701b036001607f1b5b6001600160801b0380616c7c81199660701b90565b1691161791161760801b1690565b6001600160701b035f616c67565b9060010190616c3c565b9092908115616ceb5760ff60015b165b600160701b8410616cc4575050616c54565b90939260011b925f1901938002616cdb8160ff1c90565b938285180193607f011c90616cb2565b60ff5f616cb0565b600192600160701b8310616d0e57613ffe0391600f1b616c2a565b50616d1882614f95565b918261406d0392607f031b616c2a565b506001600160f01b0319919050565b90600160701b17616c0c56fea2646970667358221220cd530f781a0f99d5fc4aa9e7384589faceceb8431b1bc27eb214fa6aa2a5313664736f6c634300081c0033",
  "immutableReferences": {
    "14615": [
      {
        "length": 32,
        "start": 2005
      },
      {
        "length": 32,
        "start": 2216
      },
      {
        "length": 32,
        "start": 3640
      },
      {
        "length": 32,
        "start": 4773
      },
      {
        "length": 32,
        "start": 4842
      },
      {
        "length": 32,
        "start": 5393
      }
    ],
    "18254": [
      {
        "length": 32,
        "start": 4559
      },
      {
        "length": 32,
        "start": 7522
      },
      {
        "length": 32,
        "start": 8149
      }
    ]
  },
  "source": "// SPDX-License-Identifier: UNLICENSED\npragma solidity ^0.8.15;\n\nimport {Hooks} from \"../../../../v4-core/src/libraries/Hooks.sol\";\nimport {TickBitmap} from \"../../../../v4-core/src/libraries/TickBitmap.sol\";\nimport {SqrtPriceMath} from \"../../../../v4-core/src/libraries/SqrtPriceMath.sol\";\nimport {FixedPoint96} from \"../../../../v4-core/src/libraries/FixedPoint96.sol\";\nimport {PoolId, PoolIdLibrary} from \"../../../../v4-core/src/types/PoolId.sol\";\nimport {SafeCast} from \"../../../../v4-core/src/libraries/SafeCast.sol\";\nimport {BaseHook} from \"../../BaseHook.sol\";\nimport {IERC20Minimal} from \"../../../../v4-core/src/interfaces/external/IERC20Minimal.sol\";\nimport {IPoolManager} from \"../../../../v4-core/src/interfaces/IPoolManager.sol\";\nimport {ITWAMM} from \"../../interfaces/ITWAMM.sol\";\nimport {TickMath} from \"../../../../v4-core/src/libraries/TickMath.sol\";\nimport {TransferHelper} from \"../../libraries/TransferHelper.sol\";\nimport {TwammMath} from \"../../libraries/TWAMM/TwammMath.sol\";\nimport {OrderPool} from \"../../libraries/TWAMM/OrderPool.sol\";\nimport {Currency, CurrencyLibrary} from \"../../../../v4-core/src/types/Currency.sol\";\nimport {BalanceDelta} from \"../../../../v4-core/src/types/BalanceDelta.sol\";\nimport {PoolGetters} from \"../../libraries/PoolGetters.sol\";\nimport {PoolKey} from \"../../../../v4-core/src/types/PoolKey.sol\";\n\ncontract TWAMM is BaseHook, ITWAMM {\n    using TransferHelper for IERC20Minimal;\n    using CurrencyLibrary for Currency;\n    using OrderPool for OrderPool.State;\n    using PoolIdLibrary for PoolKey;\n    using TickMath for int24;\n    using TickMath for uint160;\n    using SafeCast for uint256;\n    using PoolGetters for IPoolManager;\n    using TickBitmap for mapping(int16 => uint256);\n\n    bytes internal constant ZERO_BYTES = bytes(\"\");\n\n    int256 internal constant MIN_DELTA = -1;\n    bool internal constant ZERO_FOR_ONE = true;\n    bool internal constant ONE_FOR_ZERO = false;\n\n    /// @notice Contains full state related to the TWAMM\n    /// @member lastVirtualOrderTimestamp Last timestamp in which virtual orders were executed\n    /// @member orderPool0For1 Order pool trading token0 for token1 of pool\n    /// @member orderPool1For0 Order pool trading token1 for token0 of pool\n    /// @member orders Mapping of orderId to individual orders on pool\n    struct State {\n        uint256 lastVirtualOrderTimestamp;\n        OrderPool.State orderPool0For1;\n        OrderPool.State orderPool1For0;\n        mapping(bytes32 => Order) orders;\n    }\n\n    /// @inheritdoc ITWAMM\n    uint256 public immutable expirationInterval;\n    // twammStates[poolId] => Twamm.State\n    mapping(PoolId => State) internal twammStates;\n    // tokensOwed[token][owner] => amountOwed\n    mapping(Currency => mapping(address => uint256)) public tokensOwed;\n\n    constructor(IPoolManager _poolManager, uint256 _expirationInterval) BaseHook(_poolManager) {\n        expirationInterval = _expirationInterval;\n    }\n\n    function getHooksCalls() public pure override returns (Hooks.Calls memory) {\n        return Hooks.Calls({\n            beforeInitialize: true,\n            afterInitialize: false,\n            beforeModifyPosition: true,\n            afterModifyPosition: false,\n            beforeSwap: true,\n            afterSwap: false,\n            beforeDonate: false,\n            afterDonate: false,\n            noOp: false\n        });\n    }\n\n    function beforeInitialize(address, PoolKey calldata key, uint160, bytes calldata)\n        external\n        virtual\n        override\n        poolManagerOnly\n        returns (bytes4)\n    {\n        // one-time initialization enforced in PoolManager\n        initialize(_getTWAMM(key));\n        return BaseHook.beforeInitialize.selector;\n    }\n\n    function beforeModifyPosition(\n        address,\n        PoolKey calldata key,\n        IPoolManager.ModifyPositionParams calldata,\n        bytes calldata\n    ) external override poolManagerOnly returns (bytes4) {\n        executeTWAMMOrders(key);\n        return BaseHook.beforeModifyPosition.selector;\n    }\n\n    function beforeSwap(address, PoolKey calldata key, IPoolManager.SwapParams calldata, bytes calldata)\n        external\n        override\n        poolManagerOnly\n        returns (bytes4)\n    {\n        executeTWAMMOrders(key);\n        return BaseHook.beforeSwap.selector;\n    }\n\n    function lastVirtualOrderTimestamp(PoolId key) external view returns (uint256) {\n        return twammStates[key].lastVirtualOrderTimestamp;\n    }\n\n    function getOrder(PoolKey calldata poolKey, OrderKey calldata orderKey) external view returns (Order memory) {\n        return _getOrder(twammStates[PoolId.wrap(keccak256(abi.encode(poolKey)))], orderKey);\n    }\n\n    function getOrderPool(PoolKey calldata key, bool zeroForOne)\n        external\n        view\n        returns (uint256 sellRateCurrent, uint256 earningsFactorCurrent)\n    {\n        State storage twamm = _getTWAMM(key);\n        return zeroForOne\n            ? (twamm.orderPool0For1.sellRateCurrent, twamm.orderPool0For1.earningsFactorCurrent)\n            : (twamm.orderPool1For0.sellRateCurrent, twamm.orderPool1For0.earningsFactorCurrent);\n    }\n\n    /// @notice Initialize TWAMM state\n    function initialize(State storage self) internal {\n        self.lastVirtualOrderTimestamp = block.timestamp;\n    }\n\n    struct CallbackData {\n        address sender;\n        PoolKey key;\n        IPoolManager.SwapParams params;\n    }\n\n    /// @inheritdoc ITWAMM\n    function executeTWAMMOrders(PoolKey memory key) public {\n        PoolId poolId = key.toId();\n        (uint160 sqrtPriceX96,,,) = poolManager.getSlot0(poolId);\n        State storage twamm = twammStates[poolId];\n\n        (bool zeroForOne, uint160 sqrtPriceLimitX96) = _executeTWAMMOrders(\n            twamm, poolManager, key, PoolParamsOnExecute(sqrtPriceX96, poolManager.getLiquidity(poolId))\n        );\n\n        if (sqrtPriceLimitX96 != 0 && sqrtPriceLimitX96 != sqrtPriceX96) {\n            poolManager.lock(abi.encode(key, IPoolManager.SwapParams(zeroForOne, type(int256).max, sqrtPriceLimitX96)));\n        }\n    }\n\n    /// @inheritdoc ITWAMM\n    function submitOrder(PoolKey calldata key, OrderKey memory orderKey, uint256 amountIn)\n        external\n        returns (bytes32 orderId)\n    {\n        PoolId poolId = PoolId.wrap(keccak256(abi.encode(key)));\n        State storage twamm = twammStates[poolId];\n        executeTWAMMOrders(key);\n\n        uint256 sellRate;\n        unchecked {\n            // checks done in TWAMM library\n            uint256 duration = orderKey.expiration - block.timestamp;\n            sellRate = amountIn / duration;\n            orderId = _submitOrder(twamm, orderKey, sellRate);\n            IERC20Minimal(orderKey.zeroForOne ? Currency.unwrap(key.currency0) : Currency.unwrap(key.currency1))\n                .safeTransferFrom(msg.sender, address(this), sellRate * duration);\n        }\n\n        emit SubmitOrder(\n            poolId,\n            orderKey.owner,\n            orderKey.expiration,\n            orderKey.zeroForOne,\n            sellRate,\n            _getOrder(twamm, orderKey).earningsFactorLast\n        );\n    }\n\n    /// @notice Submits a new long term order into the TWAMM\n    /// @dev executeTWAMMOrders must be executed up to current timestamp before calling submitOrder\n    /// @param orderKey The OrderKey for the new order\n    function _submitOrder(State storage self, OrderKey memory orderKey, uint256 sellRate)\n        internal\n        returns (bytes32 orderId)\n    {\n        if (orderKey.owner != msg.sender) revert MustBeOwner(orderKey.owner, msg.sender);\n        if (self.lastVirtualOrderTimestamp == 0) revert NotInitialized();\n        if (orderKey.expiration <= block.timestamp) revert ExpirationLessThanBlocktime(orderKey.expiration);\n        if (sellRate == 0) revert SellRateCannotBeZero();\n        if (orderKey.expiration % expirationInterval != 0) revert ExpirationNotOnInterval(orderKey.expiration);\n\n        orderId = _orderId(orderKey);\n        if (self.orders[orderId].sellRate != 0) revert OrderAlreadyExists(orderKey);\n\n        OrderPool.State storage orderPool = orderKey.zeroForOne ? self.orderPool0For1 : self.orderPool1For0;\n\n        unchecked {\n            orderPool.sellRateCurrent += sellRate;\n            orderPool.sellRateEndingAtInterval[orderKey.expiration] += sellRate;\n        }\n\n        self.orders[orderId] = Order({sellRate: sellRate, earningsFactorLast: orderPool.earningsFactorCurrent});\n    }\n\n    /// @inheritdoc ITWAMM\n    function updateOrder(PoolKey memory key, OrderKey memory orderKey, int256 amountDelta)\n        external\n        returns (uint256 tokens0Owed, uint256 tokens1Owed)\n    {\n        PoolId poolId = PoolId.wrap(keccak256(abi.encode(key)));\n        State storage twamm = twammStates[poolId];\n\n        executeTWAMMOrders(key);\n\n        // This call reverts if the caller is not the owner of the order\n        (uint256 buyTokensOwed, uint256 sellTokensOwed, uint256 newSellrate, uint256 newEarningsFactorLast) =\n            _updateOrder(twamm, orderKey, amountDelta);\n\n        if (orderKey.zeroForOne) {\n            tokens0Owed += sellTokensOwed;\n            tokens1Owed += buyTokensOwed;\n        } else {\n            tokens0Owed += buyTokensOwed;\n            tokens1Owed += sellTokensOwed;\n        }\n\n        tokensOwed[key.currency0][orderKey.owner] += tokens0Owed;\n        tokensOwed[key.currency1][orderKey.owner] += tokens1Owed;\n\n        if (amountDelta > 0) {\n            IERC20Minimal(orderKey.zeroForOne ? Currency.unwrap(key.currency0) : Currency.unwrap(key.currency1))\n                .safeTransferFrom(msg.sender, address(this), uint256(amountDelta));\n        }\n\n        emit UpdateOrder(\n            poolId, orderKey.owner, orderKey.expiration, orderKey.zeroForOne, newSellrate, newEarningsFactorLast\n        );\n    }\n\n    function _updateOrder(State storage self, OrderKey memory orderKey, int256 amountDelta)\n        internal\n        returns (uint256 buyTokensOwed, uint256 sellTokensOwed, uint256 newSellRate, uint256 earningsFactorLast)\n    {\n        Order storage order = _getOrder(self, orderKey);\n        OrderPool.State storage orderPool = orderKey.zeroForOne ? self.orderPool0For1 : self.orderPool1For0;\n\n        if (orderKey.owner != msg.sender) revert MustBeOwner(orderKey.owner, msg.sender);\n        if (order.sellRate == 0) revert OrderDoesNotExist(orderKey);\n        if (amountDelta != 0 && orderKey.expiration <= block.timestamp) revert CannotModifyCompletedOrder(orderKey);\n\n        unchecked {\n            uint256 earningsFactor = orderPool.earningsFactorCurrent - order.earningsFactorLast;\n            buyTokensOwed = (earningsFactor * order.sellRate) >> FixedPoint96.RESOLUTION;\n            earningsFactorLast = orderPool.earningsFactorCurrent;\n            order.earningsFactorLast = earningsFactorLast;\n\n            if (orderKey.expiration <= block.timestamp) {\n                delete self.orders[_orderId(orderKey)];\n            }\n\n            if (amountDelta != 0) {\n                uint256 duration = orderKey.expiration - block.timestamp;\n                uint256 unsoldAmount = order.sellRate * duration;\n                if (amountDelta == MIN_DELTA) amountDelta = -(unsoldAmount.toInt256());\n                int256 newSellAmount = unsoldAmount.toInt256() + amountDelta;\n                if (newSellAmount < 0) revert InvalidAmountDelta(orderKey, unsoldAmount, amountDelta);\n\n                newSellRate = uint256(newSellAmount) / duration;\n\n                if (amountDelta < 0) {\n                    uint256 sellRateDelta = order.sellRate - newSellRate;\n                    orderPool.sellRateCurrent -= sellRateDelta;\n                    orderPool.sellRateEndingAtInterval[orderKey.expiration] -= sellRateDelta;\n                    sellTokensOwed = uint256(-amountDelta);\n                } else {\n                    uint256 sellRateDelta = newSellRate - order.sellRate;\n                    orderPool.sellRateCurrent += sellRateDelta;\n                    orderPool.sellRateEndingAtInterval[orderKey.expiration] += sellRateDelta;\n                }\n                if (newSellRate == 0) {\n                    delete self.orders[_orderId(orderKey)];\n                } else {\n                    order.sellRate = newSellRate;\n                }\n            }\n        }\n    }\n\n    /// @inheritdoc ITWAMM\n    function claimTokens(Currency token, address to, uint256 amountRequested)\n        external\n        returns (uint256 amountTransferred)\n    {\n        uint256 currentBalance = token.balanceOfSelf();\n        amountTransferred = tokensOwed[token][msg.sender];\n        if (amountRequested != 0 && amountRequested < amountTransferred) amountTransferred = amountRequested;\n        if (currentBalance < amountTransferred) amountTransferred = currentBalance; // to catch precision errors\n        tokensOwed[token][msg.sender] -= amountTransferred;\n        IERC20Minimal(Currency.unwrap(token)).safeTransfer(to, amountTransferred);\n    }\n\n    function lockAcquired(bytes calldata rawData) external override poolManagerOnly returns (bytes memory) {\n        (PoolKey memory key, IPoolManager.SwapParams memory swapParams) =\n            abi.decode(rawData, (PoolKey, IPoolManager.SwapParams));\n\n        BalanceDelta delta = poolManager.swap(key, swapParams, ZERO_BYTES);\n\n        if (swapParams.zeroForOne) {\n            if (delta.amount0() > 0) {\n                key.currency0.transfer(address(poolManager), uint256(uint128(delta.amount0())));\n                poolManager.settle(key.currency0);\n            }\n            if (delta.amount1() < 0) {\n                poolManager.take(key.currency1, address(this), uint256(uint128(-delta.amount1())));\n            }\n        } else {\n            if (delta.amount1() > 0) {\n                key.currency1.transfer(address(poolManager), uint256(uint128(delta.amount1())));\n                poolManager.settle(key.currency1);\n            }\n            if (delta.amount0() < 0) {\n                poolManager.take(key.currency0, address(this), uint256(uint128(-delta.amount0())));\n            }\n        }\n        return bytes(\"\");\n    }\n\n    function _getTWAMM(PoolKey memory key) private view returns (State storage) {\n        return twammStates[PoolId.wrap(keccak256(abi.encode(key)))];\n    }\n\n    struct PoolParamsOnExecute {\n        uint160 sqrtPriceX96;\n        uint128 liquidity;\n    }\n\n    /// @notice Executes all existing long term orders in the TWAMM\n    /// @param pool The relevant state of the pool\n    function _executeTWAMMOrders(\n        State storage self,\n        IPoolManager poolManager,\n        PoolKey memory key,\n        PoolParamsOnExecute memory pool\n    ) internal returns (bool zeroForOne, uint160 newSqrtPriceX96) {\n        if (!_hasOutstandingOrders(self)) {\n            self.lastVirtualOrderTimestamp = block.timestamp;\n            return (false, 0);\n        }\n\n        uint160 initialSqrtPriceX96 = pool.sqrtPriceX96;\n        uint256 prevTimestamp = self.lastVirtualOrderTimestamp;\n        uint256 nextExpirationTimestamp = prevTimestamp + (expirationInterval - (prevTimestamp % expirationInterval));\n\n        OrderPool.State storage orderPool0For1 = self.orderPool0For1;\n        OrderPool.State storage orderPool1For0 = self.orderPool1For0;\n\n        unchecked {\n            while (nextExpirationTimestamp <= block.timestamp) {\n                if (\n                    orderPool0For1.sellRateEndingAtInterval[nextExpirationTimestamp] > 0\n                        || orderPool1For0.sellRateEndingAtInterval[nextExpirationTimestamp] > 0\n                ) {\n                    if (orderPool0For1.sellRateCurrent != 0 && orderPool1For0.sellRateCurrent != 0) {\n                        pool = _advanceToNewTimestamp(\n                            self,\n                            poolManager,\n                            key,\n                            AdvanceParams(\n                                expirationInterval,\n                                nextExpirationTimestamp,\n                                nextExpirationTimestamp - prevTimestamp,\n                                pool\n                            )\n                        );\n                    } else {\n                        pool = _advanceTimestampForSinglePoolSell(\n                            self,\n                            poolManager,\n                            key,\n                            AdvanceSingleParams(\n                                expirationInterval,\n                                nextExpirationTimestamp,\n                                nextExpirationTimestamp - prevTimestamp,\n                                pool,\n                                orderPool0For1.sellRateCurrent != 0\n                            )\n                        );\n                    }\n                    prevTimestamp = nextExpirationTimestamp;\n                }\n                nextExpirationTimestamp += expirationInterval;\n\n                if (!_hasOutstandingOrders(self)) break;\n            }\n\n            if (prevTimestamp < block.timestamp && _hasOutstandingOrders(self)) {\n                if (orderPool0For1.sellRateCurrent != 0 && orderPool1For0.sellRateCurrent != 0) {\n                    pool = _advanceToNewTimestamp(\n                        self,\n                        poolManager,\n                        key,\n                        AdvanceParams(expirationInterval, block.timestamp, block.timestamp - prevTimestamp, pool)\n                    );\n                } else {\n                    pool = _advanceTimestampForSinglePoolSell(\n                        self,\n                        poolManager,\n                        key,\n                        AdvanceSingleParams(\n                            expirationInterval,\n                            block.timestamp,\n                            block.timestamp - prevTimestamp,\n                            pool,\n                            orderPool0For1.sellRateCurrent != 0\n                        )\n                    );\n                }\n            }\n        }\n\n        self.lastVirtualOrderTimestamp = block.timestamp;\n        newSqrtPriceX96 = pool.sqrtPriceX96;\n        zeroForOne = initialSqrtPriceX96 > newSqrtPriceX96;\n    }\n\n    struct AdvanceParams {\n        uint256 expirationInterval;\n        uint256 nextTimestamp;\n        uint256 secondsElapsed;\n        PoolParamsOnExecute pool;\n    }\n\n    function _advanceToNewTimestamp(\n        State storage self,\n        IPoolManager poolManager,\n        PoolKey memory poolKey,\n        AdvanceParams memory params\n    ) private returns (PoolParamsOnExecute memory) {\n        uint160 finalSqrtPriceX96;\n        uint256 secondsElapsedX96 = params.secondsElapsed * FixedPoint96.Q96;\n\n        OrderPool.State storage orderPool0For1 = self.orderPool0For1;\n        OrderPool.State storage orderPool1For0 = self.orderPool1For0;\n\n        while (true) {\n            TwammMath.ExecutionUpdateParams memory executionParams = TwammMath.ExecutionUpdateParams(\n                secondsElapsedX96,\n                params.pool.sqrtPriceX96,\n                params.pool.liquidity,\n                orderPool0For1.sellRateCurrent,\n                orderPool1For0.sellRateCurrent\n            );\n\n            finalSqrtPriceX96 = TwammMath.getNewSqrtPriceX96(executionParams);\n\n            (bool crossingInitializedTick, int24 tick) =\n                _isCrossingInitializedTick(params.pool, poolManager, poolKey, finalSqrtPriceX96);\n            unchecked {\n                if (crossingInitializedTick) {\n                    uint256 secondsUntilCrossingX96;\n                    (params.pool, secondsUntilCrossingX96) = _advanceTimeThroughTickCrossing(\n                        self,\n                        poolManager,\n                        poolKey,\n                        TickCrossingParams(tick, params.nextTimestamp, secondsElapsedX96, params.pool)\n                    );\n                    secondsElapsedX96 = secondsElapsedX96 - secondsUntilCrossingX96;\n                } else {\n                    (uint256 earningsFactorPool0, uint256 earningsFactorPool1) =\n                        TwammMath.calculateEarningsUpdates(executionParams, finalSqrtPriceX96);\n\n                    if (params.nextTimestamp % params.expirationInterval == 0) {\n                        orderPool0For1.advanceToInterval(params.nextTimestamp, earningsFactorPool0);\n                        orderPool1For0.advanceToInterval(params.nextTimestamp, earningsFactorPool1);\n                    } else {\n                        orderPool0For1.advanceToCurrentTime(earningsFactorPool0);\n                        orderPool1For0.advanceToCurrentTime(earningsFactorPool1);\n                    }\n                    params.pool.sqrtPriceX96 = finalSqrtPriceX96;\n                    break;\n                }\n            }\n        }\n\n        return params.pool;\n    }\n\n    struct AdvanceSingleParams {\n        uint256 expirationInterval;\n        uint256 nextTimestamp;\n        uint256 secondsElapsed;\n        PoolParamsOnExecute pool;\n        bool zeroForOne;\n    }\n\n    function _advanceTimestampForSinglePoolSell(\n        State storage self,\n        IPoolManager poolManager,\n        PoolKey memory poolKey,\n        AdvanceSingleParams memory params\n    ) private returns (PoolParamsOnExecute memory) {\n        OrderPool.State storage orderPool = params.zeroForOne ? self.orderPool0For1 : self.orderPool1For0;\n        uint256 sellRateCurrent = orderPool.sellRateCurrent;\n        uint256 amountSelling = sellRateCurrent * params.secondsElapsed;\n        uint256 totalEarnings;\n\n        while (true) {\n            uint160 finalSqrtPriceX96 = SqrtPriceMath.getNextSqrtPriceFromInput(\n                params.pool.sqrtPriceX96, params.pool.liquidity, amountSelling, params.zeroForOne\n            );\n\n            (bool crossingInitializedTick, int24 tick) =\n                _isCrossingInitializedTick(params.pool, poolManager, poolKey, finalSqrtPriceX96);\n\n            if (crossingInitializedTick) {\n                int128 liquidityNetAtTick = poolManager.getNetLiquidityAtTick(poolKey.toId(), tick);\n                uint160 initializedSqrtPrice = TickMath.getSqrtRatioAtTick(tick);\n\n                uint256 swapDelta0 = SqrtPriceMath.getAmount0Delta(\n                    params.pool.sqrtPriceX96, initializedSqrtPrice, params.pool.liquidity, true\n                );\n                uint256 swapDelta1 = SqrtPriceMath.getAmount1Delta(\n                    params.pool.sqrtPriceX96, initializedSqrtPrice, params.pool.liquidity, true\n                );\n\n                params.pool.liquidity = params.zeroForOne\n                    ? params.pool.liquidity - uint128(liquidityNetAtTick)\n                    : params.pool.liquidity + uint128(-liquidityNetAtTick);\n                params.pool.sqrtPriceX96 = initializedSqrtPrice;\n\n                unchecked {\n                    totalEarnings += params.zeroForOne ? swapDelta1 : swapDelta0;\n                    amountSelling -= params.zeroForOne ? swapDelta0 : swapDelta1;\n                }\n            } else {\n                if (params.zeroForOne) {\n                    totalEarnings += SqrtPriceMath.getAmount1Delta(\n                        params.pool.sqrtPriceX96, finalSqrtPriceX96, params.pool.liquidity, true\n                    );\n                } else {\n                    totalEarnings += SqrtPriceMath.getAmount0Delta(\n                        params.pool.sqrtPriceX96, finalSqrtPriceX96, params.pool.liquidity, true\n                    );\n                }\n\n                uint256 accruedEarningsFactor = (totalEarnings * FixedPoint96.Q96) / sellRateCurrent;\n\n                if (params.nextTimestamp % params.expirationInterval == 0) {\n                    orderPool.advanceToInterval(params.nextTimestamp, accruedEarningsFactor);\n                } else {\n                    orderPool.advanceToCurrentTime(accruedEarningsFactor);\n                }\n                params.pool.sqrtPriceX96 = finalSqrtPriceX96;\n                break;\n            }\n        }\n\n        return params.pool;\n    }\n\n    struct TickCrossingParams {\n        int24 initializedTick;\n        uint256 nextTimestamp;\n        uint256 secondsElapsedX96;\n        PoolParamsOnExecute pool;\n    }\n\n    function _advanceTimeThroughTickCrossing(\n        State storage self,\n        IPoolManager poolManager,\n        PoolKey memory poolKey,\n        TickCrossingParams memory params\n    ) private returns (PoolParamsOnExecute memory, uint256) {\n        uint160 initializedSqrtPrice = params.initializedTick.getSqrtRatioAtTick();\n\n        uint256 secondsUntilCrossingX96 = TwammMath.calculateTimeBetweenTicks(\n            params.pool.liquidity,\n            params.pool.sqrtPriceX96,\n            initializedSqrtPrice,\n            self.orderPool0For1.sellRateCurrent,\n            self.orderPool1For0.sellRateCurrent\n        );\n\n        (uint256 earningsFactorPool0, uint256 earningsFactorPool1) = TwammMath.calculateEarningsUpdates(\n            TwammMath.ExecutionUpdateParams(\n                secondsUntilCrossingX96,\n                params.pool.sqrtPriceX96,\n                params.pool.liquidity,\n                self.orderPool0For1.sellRateCurrent,\n                self.orderPool1For0.sellRateCurrent\n            ),\n            initializedSqrtPrice\n        );\n\n        self.orderPool0For1.advanceToCurrentTime(earningsFactorPool0);\n        self.orderPool1For0.advanceToCurrentTime(earningsFactorPool1);\n\n        unchecked {\n            // update pool\n            int128 liquidityNet = poolManager.getNetLiquidityAtTick(poolKey.toId(), params.initializedTick);\n            if (initializedSqrtPrice < params.pool.sqrtPriceX96) liquidityNet = -liquidityNet;\n            params.pool.liquidity = liquidityNet < 0\n                ? params.pool.liquidity - uint128(-liquidityNet)\n                : params.pool.liquidity + uint128(liquidityNet);\n\n            params.pool.sqrtPriceX96 = initializedSqrtPrice;\n        }\n        return (params.pool, secondsUntilCrossingX96);\n    }\n\n    function _isCrossingInitializedTick(\n        PoolParamsOnExecute memory pool,\n        IPoolManager poolManager,\n        PoolKey memory poolKey,\n        uint160 nextSqrtPriceX96\n    ) internal view returns (bool crossingInitializedTick, int24 nextTickInit) {\n        // use current price as a starting point for nextTickInit\n        nextTickInit = pool.sqrtPriceX96.getTickAtSqrtRatio();\n        int24 targetTick = nextSqrtPriceX96.getTickAtSqrtRatio();\n        bool searchingLeft = nextSqrtPriceX96 < pool.sqrtPriceX96;\n        bool nextTickInitFurtherThanTarget = false; // initialize as false\n\n        // nextTickInit returns the furthest tick within one word if no tick within that word is initialized\n        // so we must keep iterating if we haven't reached a tick further than our target tick\n        while (!nextTickInitFurtherThanTarget) {\n            unchecked {\n                if (searchingLeft) nextTickInit -= 1;\n            }\n            (nextTickInit, crossingInitializedTick) = poolManager.getNextInitializedTickWithinOneWord(\n                poolKey.toId(), nextTickInit, poolKey.tickSpacing, searchingLeft\n            );\n            nextTickInitFurtherThanTarget = searchingLeft ? nextTickInit <= targetTick : nextTickInit > targetTick;\n            if (crossingInitializedTick == true) break;\n        }\n        if (nextTickInitFurtherThanTarget) crossingInitializedTick = false;\n    }\n\n    function _getOrder(State storage self, OrderKey memory key) internal view returns (Order storage) {\n        return self.orders[_orderId(key)];\n    }\n\n    function _orderId(OrderKey memory key) private pure returns (bytes32) {\n        return keccak256(abi.encode(key));\n    }\n\n    function _hasOutstandingOrders(State storage self) internal view returns (bool) {\n        return self.orderPool0For1.sellRateCurrent != 0 || self.orderPool1For0.sellRateCurrent != 0;\n    }\n}\n",
  "sourcePath": "/home/stephensb/sb-labs/solidity-contracts/contracts/v4-periphery/contracts/hooks/examples/TWAMM.sol",
  "compiler": {
    "name": "solc",
    "version": "0.8.28+commit.7893614a.Emscripten.clang"
  },
  "schemaVersion": "3.4.12",
  "updatedAt": "2024-12-18T07:36:00.890Z",
  "devdoc": {
    "errors": {
      "CannotModifyCompletedOrder((address,uint160,bool))": [
        {
          "params": {
            "orderKey": "The orderKey"
          }
        }
      ],
      "ExpirationLessThanBlocktime(uint256)": [
        {
          "params": {
            "expiration": "The expiration timestamp of the order"
          }
        }
      ],
      "ExpirationNotOnInterval(uint256)": [
        {
          "params": {
            "expiration": "The expiration timestamp of the order"
          }
        }
      ],
      "HookAddressNotValid(address)": [
        {
          "params": {
            "hooks": "The address of the hooks contract"
          }
        }
      ],
      "InvalidAmountDelta((address,uint160,bool),uint256,int256)": [
        {
          "params": {
            "amountDelta": "The amount delta for the order",
            "orderKey": "The orderKey",
            "unsoldAmount": "The amount still unsold"
          }
        }
      ],
      "MustBeOwner(address,address)": [
        {
          "params": {
            "currentAccount": "The invalid account attempting to interact with the order",
            "owner": "The owner of the order"
          }
        }
      ],
      "OrderAlreadyExists((address,uint160,bool))": [
        {
          "params": {
            "orderKey": "The already existing orderKey"
          }
        }
      ],
      "OrderDoesNotExist((address,uint160,bool))": [
        {
          "params": {
            "orderKey": "The already existing orderKey"
          }
        }
      ]
    },
    "events": {
      "SubmitOrder(bytes32,address,uint160,bool,uint256,uint256)": {
        "params": {
          "earningsFactorLast": "The current earningsFactor of the order pool",
          "expiration": "The expiration timestamp of the order",
          "owner": "The owner of the new order",
          "poolId": "The id of the corresponding pool",
          "sellRate": "The sell rate of tokens per second being sold in the order",
          "zeroForOne": "Whether the order is selling token 0 for token 1"
        }
      },
      "UpdateOrder(bytes32,address,uint160,bool,uint256,uint256)": {
        "params": {
          "earningsFactorLast": "The current earningsFactor of the order pool   (since updated orders will claim existing earnings)",
          "expiration": "The expiration timestamp of the order",
          "owner": "The owner of the existing order",
          "poolId": "The id of the corresponding pool",
          "sellRate": "The updated sellRate of tokens per second being sold in the order",
          "zeroForOne": "Whether the order is selling token 0 for token 1"
        }
      }
    },
    "kind": "dev",
    "methods": {
      "claimTokens(address,address,uint256)": {
        "params": {
          "amountRequested": "The amount of tokens requested to claim. Set to 0 to claim all.",
          "to": "The receipient of the claim",
          "token": "The token to claim"
        },
        "returns": {
          "amountTransferred": "The total token amount to be collected"
        }
      },
      "executeTWAMMOrders((address,address,uint24,int24,address))": {
        "params": {
          "key": "The pool key associated with the TWAMM"
        }
      },
      "submitOrder((address,address,uint24,int24,address),(address,uint160,bool),uint256)": {
        "params": {
          "amountIn": "The amount of sell token to add to the order. Some precision on amountIn may be lost up to the magnitude of (orderKey.expiration - block.timestamp)",
          "key": "The PoolKey for which to identify the amm pool of the order",
          "orderKey": "The OrderKey for the new order"
        },
        "returns": {
          "orderId": "The bytes32 ID of the order"
        }
      },
      "updateOrder((address,address,uint24,int24,address),(address,uint160,bool),int256)": {
        "params": {
          "amountDelta": "The delta for the order sell amount. Negative to remove from order, positive to add, or    -1 to remove full amount from order.",
          "key": "The PoolKey for which to identify the amm pool of the order",
          "orderKey": "The OrderKey for which to identify the order"
        }
      }
    },
    "version": 1
  },
  "userdoc": {
    "errors": {
      "CannotModifyCompletedOrder((address,uint160,bool))": [
        {
          "notice": "Thrown when trying to cancel an already completed order"
        }
      ],
      "ERC20TransferFailed()": [
        {
          "notice": "Thrown when an ERC20 transfer fails"
        }
      ],
      "ExpirationLessThanBlocktime(uint256)": [
        {
          "notice": "Thrown when trying to submit an order with an expiration time in the past."
        }
      ],
      "ExpirationNotOnInterval(uint256)": [
        {
          "notice": "Thrown when trying to submit an order with an expiration that isn't on the interval."
        }
      ],
      "HookAddressNotValid(address)": [
        {
          "notice": "Thrown if the address will not lead to the specified hook calls being called"
        }
      ],
      "InvalidAmountDelta((address,uint160,bool),uint256,int256)": [
        {
          "notice": "Thrown when trying to subtract more value from a long term order than exists"
        }
      ],
      "InvalidSqrtRatio()": [
        {
          "notice": "Thrown when the ratio passed to #getTickAtSqrtRatio does not correspond to a price between MIN_TICK and MAX_TICK"
        }
      ],
      "InvalidTick()": [
        {
          "notice": "Thrown when the tick passed to #getSqrtRatioAtTick is not between MIN_TICK and MAX_TICK"
        }
      ],
      "MustBeOwner(address,address)": [
        {
          "notice": "Thrown when account other than owner attempts to interact with an order"
        }
      ],
      "NativeTransferFailed()": [
        {
          "notice": "Thrown when a native transfer fails"
        }
      ],
      "NotInitialized()": [
        {
          "notice": "Thrown when trying to submit an order without initializing TWAMM state first"
        }
      ],
      "OrderAlreadyExists((address,uint160,bool))": [
        {
          "notice": "Thrown when trying to submit an order that's already ongoing."
        }
      ],
      "OrderDoesNotExist((address,uint160,bool))": [
        {
          "notice": "Thrown when trying to interact with an order that does not exist."
        }
      ],
      "SellRateCannotBeZero()": [
        {
          "notice": "Thrown when submitting an order with a sellRate of 0"
        }
      ]
    },
    "events": {
      "SubmitOrder(bytes32,address,uint160,bool,uint256,uint256)": {
        "notice": "Emitted when a new long term order is submitted"
      },
      "UpdateOrder(bytes32,address,uint160,bool,uint256,uint256)": {
        "notice": "Emitted when a long term order is updated"
      }
    },
    "kind": "user",
    "methods": {
      "claimTokens(address,address,uint256)": {
        "notice": "Claim tokens owed from TWAMM contract"
      },
      "executeTWAMMOrders((address,address,uint24,int24,address))": {
        "notice": "Executes TWAMM orders on the pool, swapping on the pool itself to make up the difference between the two TWAMM pools swapping against each other"
      },
      "expirationInterval()": {
        "notice": "Time interval on which orders are allowed to expire. Conserves processing needed on execute."
      },
      "poolManager()": {
        "notice": "The address of the pool manager"
      },
      "submitOrder((address,address,uint24,int24,address),(address,uint160,bool),uint256)": {
        "notice": "Submits a new long term order into the TWAMM. Also executes TWAMM orders if not up to date."
      },
      "updateOrder((address,address,uint24,int24,address),(address,uint160,bool),int256)": {
        "notice": "Update an existing long term order with current earnings, optionally modify the amount selling."
      }
    },
    "version": 1
  }
}