{
  "contractName": "UniswapV4ERC20",
  "abi": [
    {
      "inputs": [
        {
          "internalType": "string",
          "name": "name",
          "type": "string"
        },
        {
          "internalType": "string",
          "name": "symbol",
          "type": "string"
        }
      ],
      "stateMutability": "nonpayable",
      "type": "constructor"
    },
    {
      "anonymous": false,
      "inputs": [
        {
          "indexed": true,
          "internalType": "address",
          "name": "owner",
          "type": "address"
        },
        {
          "indexed": true,
          "internalType": "address",
          "name": "spender",
          "type": "address"
        },
        {
          "indexed": false,
          "internalType": "uint256",
          "name": "amount",
          "type": "uint256"
        }
      ],
      "name": "Approval",
      "type": "event"
    },
    {
      "anonymous": false,
      "inputs": [
        {
          "indexed": true,
          "internalType": "address",
          "name": "user",
          "type": "address"
        },
        {
          "indexed": true,
          "internalType": "address",
          "name": "newOwner",
          "type": "address"
        }
      ],
      "name": "OwnershipTransferred",
      "type": "event"
    },
    {
      "anonymous": false,
      "inputs": [
        {
          "indexed": true,
          "internalType": "address",
          "name": "from",
          "type": "address"
        },
        {
          "indexed": true,
          "internalType": "address",
          "name": "to",
          "type": "address"
        },
        {
          "indexed": false,
          "internalType": "uint256",
          "name": "amount",
          "type": "uint256"
        }
      ],
      "name": "Transfer",
      "type": "event"
    },
    {
      "inputs": [],
      "name": "DOMAIN_SEPARATOR",
      "outputs": [
        {
          "internalType": "bytes32",
          "name": "",
          "type": "bytes32"
        }
      ],
      "stateMutability": "view",
      "type": "function"
    },
    {
      "inputs": [
        {
          "internalType": "address",
          "name": "",
          "type": "address"
        },
        {
          "internalType": "address",
          "name": "",
          "type": "address"
        }
      ],
      "name": "allowance",
      "outputs": [
        {
          "internalType": "uint256",
          "name": "",
          "type": "uint256"
        }
      ],
      "stateMutability": "view",
      "type": "function"
    },
    {
      "inputs": [
        {
          "internalType": "address",
          "name": "spender",
          "type": "address"
        },
        {
          "internalType": "uint256",
          "name": "amount",
          "type": "uint256"
        }
      ],
      "name": "approve",
      "outputs": [
        {
          "internalType": "bool",
          "name": "",
          "type": "bool"
        }
      ],
      "stateMutability": "nonpayable",
      "type": "function"
    },
    {
      "inputs": [
        {
          "internalType": "address",
          "name": "",
          "type": "address"
        }
      ],
      "name": "balanceOf",
      "outputs": [
        {
          "internalType": "uint256",
          "name": "",
          "type": "uint256"
        }
      ],
      "stateMutability": "view",
      "type": "function"
    },
    {
      "inputs": [],
      "name": "decimals",
      "outputs": [
        {
          "internalType": "uint8",
          "name": "",
          "type": "uint8"
        }
      ],
      "stateMutability": "view",
      "type": "function"
    },
    {
      "inputs": [],
      "name": "name",
      "outputs": [
        {
          "internalType": "string",
          "name": "",
          "type": "string"
        }
      ],
      "stateMutability": "view",
      "type": "function"
    },
    {
      "inputs": [
        {
          "internalType": "address",
          "name": "",
          "type": "address"
        }
      ],
      "name": "nonces",
      "outputs": [
        {
          "internalType": "uint256",
          "name": "",
          "type": "uint256"
        }
      ],
      "stateMutability": "view",
      "type": "function"
    },
    {
      "inputs": [],
      "name": "owner",
      "outputs": [
        {
          "internalType": "address",
          "name": "",
          "type": "address"
        }
      ],
      "stateMutability": "view",
      "type": "function"
    },
    {
      "inputs": [
        {
          "internalType": "address",
          "name": "owner",
          "type": "address"
        },
        {
          "internalType": "address",
          "name": "spender",
          "type": "address"
        },
        {
          "internalType": "uint256",
          "name": "value",
          "type": "uint256"
        },
        {
          "internalType": "uint256",
          "name": "deadline",
          "type": "uint256"
        },
        {
          "internalType": "uint8",
          "name": "v",
          "type": "uint8"
        },
        {
          "internalType": "bytes32",
          "name": "r",
          "type": "bytes32"
        },
        {
          "internalType": "bytes32",
          "name": "s",
          "type": "bytes32"
        }
      ],
      "name": "permit",
      "outputs": [],
      "stateMutability": "nonpayable",
      "type": "function"
    },
    {
      "inputs": [],
      "name": "symbol",
      "outputs": [
        {
          "internalType": "string",
          "name": "",
          "type": "string"
        }
      ],
      "stateMutability": "view",
      "type": "function"
    },
    {
      "inputs": [],
      "name": "totalSupply",
      "outputs": [
        {
          "internalType": "uint256",
          "name": "",
          "type": "uint256"
        }
      ],
      "stateMutability": "view",
      "type": "function"
    },
    {
      "inputs": [
        {
          "internalType": "address",
          "name": "to",
          "type": "address"
        },
        {
          "internalType": "uint256",
          "name": "amount",
          "type": "uint256"
        }
      ],
      "name": "transfer",
      "outputs": [
        {
          "internalType": "bool",
          "name": "",
          "type": "bool"
        }
      ],
      "stateMutability": "nonpayable",
      "type": "function"
    },
    {
      "inputs": [
        {
          "internalType": "address",
          "name": "from",
          "type": "address"
        },
        {
          "internalType": "address",
          "name": "to",
          "type": "address"
        },
        {
          "internalType": "uint256",
          "name": "amount",
          "type": "uint256"
        }
      ],
      "name": "transferFrom",
      "outputs": [
        {
          "internalType": "bool",
          "name": "",
          "type": "bool"
        }
      ],
      "stateMutability": "nonpayable",
      "type": "function"
    },
    {
      "inputs": [
        {
          "internalType": "address",
          "name": "newOwner",
          "type": "address"
        }
      ],
      "name": "transferOwnership",
      "outputs": [],
      "stateMutability": "nonpayable",
      "type": "function"
    },
    {
      "inputs": [
        {
          "internalType": "address",
          "name": "account",
          "type": "address"
        },
        {
          "internalType": "uint256",
          "name": "amount",
          "type": "uint256"
        }
      ],
      "name": "mint",
      "outputs": [],
      "stateMutability": "nonpayable",
      "type": "function"
    },
    {
      "inputs": [
        {
          "internalType": "address",
          "name": "account",
          "type": "address"
        },
        {
          "internalType": "uint256",
          "name": "amount",
          "type": "uint256"
        }
      ],
      "name": "burn",
      "outputs": [],
      "stateMutability": "nonpayable",
      "type": "function"
    }
  ],
  "bytecode": "0x60e0604081815234620004355762001117803803809162000021828662000439565b843982018183820312620004355782516001600160401b039390848111620004355782620000519183016200045d565b906020928382015186811162000435576200006d92016200045d565b908051858111620002375780620000855f54620004d1565b92601f93848111620003e4575b5085908483116001146200037c575f9262000370575b50508160011b915f199060031b1c1916175f555b81519085821162000237578190600193620000d88554620004d1565b8281116200031b575b5085918311600114620002b7575f92620002ab575b50505f19600383901b1c191690821b1781555b60126080524660a05282515f91815f54936200012585620004d1565b92838352868301958782821691825f146200028b5750506001146200024b575b50620001549250038262000439565b519020918051918201927f8b73c3c69bb8fe3d512ecc4cf759cc79239f7b179b0ffacaa9a75d522b39400f8452818301527fc89efdaa54c0f20c7adf612882df0950f5a951637e0307cdcb4c672f298b8bc660608301524660808301523060a083015260a0825260c082019382851090851117620002375783905251902060c052600680546001600160a01b031916339081179091555f7f8be0079c531659141344cd1fd0a4f28419497f9722a3daafe3b4186f6b6457e08180a3610c0a90816200050d8239608051816106d9015260a051816109ee015260c05181610a140152f35b634e487b7160e01b5f52604160045260245ffd5b8691505f8052815f20905f915b858310620002725750506200015493508201015f62000145565b8054838801850152869450889390920191810162000258565b60ff191688526200015495151560051b85010192505f9150620001459050565b015190505f80620000f6565b90849350601f19831691845f52865f20925f5b88828210620003045750508411620002eb575b505050811b01815562000109565b01515f1960f88460031b161c191690555f8080620002dd565b8385015186558897909501949384019301620002ca565b90919250845f52855f208380860160051c82019288871062000366575b91869588929594930160051c01915b82811062000357575050620000e1565b5f815586955087910162000347565b9250819262000338565b015190505f80620000a8565b5f8080528781209350601f198516905b88828210620003cd575050908460019594939210620003b4575b505050811b015f55620000bc565b01515f1960f88460031b161c191690555f8080620003a6565b60018596829396860151815501950193016200038c565b9091505f8052855f208480850160051c8201928886106200042b575b9085949392910160051c01905b8181106200041c575062000092565b5f81558493506001016200040d565b9250819262000400565b5f80fd5b601f909101601f19168101906001600160401b038211908210176200023757604052565b919080601f84011215620004355782516001600160401b0381116200023757602090604051926200049883601f19601f850116018562000439565b81845282828701011162000435575f5b818110620004bd5750825f9394955001015290565b8581018301518482018401528201620004a8565b90600182811c9216801562000501575b6020831014620004ed57565b634e487b7160e01b5f52602260045260245ffd5b91607f1691620004e156fe6080604081815260049081361015610015575f80fd5b5f3560e01c92836306fdde031461084957508263095ea7b3146107dc57826318160ddd146107bf57826323b872dd146106fd578263313ce567146106c15782633644e5151461069f57826340c10f191461061557826370a08231146105df5782637ecebe00146105a95782638da5cb5b1461058257826395d89b41146104a55782639dc29fac14610436578263a9059cbb146103c5578263d505accf14610190578263dd62ed3e1461014757505063f2fde38b146100d1575f80fd5b34610143576020366003190112610143576100ea61099e565b600654906001600160a01b03906101043383851614610b79565b1680916bffffffffffffffffffffffff60a01b1617600655337f8be0079c531659141344cd1fd0a4f28419497f9722a3daafe3b4186f6b6457e05f80a3005b5f80fd5b3461014357806003193601126101435760209161016261099e565b61016a6109b4565b6001600160a01b039182165f908152928552838320911682528352819020549051908152f35b346101435760e0366003190112610143576101a961099e565b906101b26109b4565b91604435606435926084359260ff841680940361014357428510610382576101d86109eb565b9560018060a01b0380921695865f5260209560058752845f209889549960018b01905585519285898501957f6e71edae12b1b97f4d1f60370fef10105fa2faae0126114a169c64845d6126c987528b89870152169a8b606086015288608086015260a085015260c084015260c0835260e0830167ffffffffffffffff948482108683111761036f578188528451902061010085019261190160f01b8452610102860152610122850152604281526101608401948186109086111761035c57848752519020835261018082015260a4356101a082015260c4356101c0909101525f808052859160809060015afa15610352575f51169586151580610349575b15610317577f8c5be1e5ebec7d5bd14f71427d1e84f3dd0314c0f7b2291e5b200ac8c7c3b9259495965f528352805f20865f52835281815f205551908152a3005b83606492519162461bcd60e51b8352820152600e60248201526d24a72b20a624a22fa9a4a3a722a960911b6044820152fd5b508487146102d6565b50513d5f823e3d90fd5b60418c634e487b7160e01b5f525260245ffd5b60418d634e487b7160e01b5f525260245ffd5b815162461bcd60e51b8152602081890152601760248201527f5045524d49545f444541444c494e455f455850495245440000000000000000006044820152606490fd5b346101435780600319360112610143576020906103e061099e565b60243590335f5260038452825f206103f98382546109ca565b90556001600160a01b03165f8181526003855283902080548301905582519182529033905f80516020610bb5833981519152908590a35160018152f35b346101435780600319360112610143575f905f80516020610bb5833981519152602061046061099e565b600654602435916001600160a01b039161047d9083163314610b79565b1693848652600383528086206104948382546109ca565b9055816002540360025551908152a3005b34610143575f3660031901126101435780515f600180546104c5816108e9565b808552916020916001811690811561055857506001146104ff575b6104fb85876104f182880383610921565b5191829182610957565b0390f35b60015f90815293507fb10e2d527612073b26eecdfd717e6a320cf44b4afac2b0732d9fcbe2b7fa0cf65b838510610545575050505081016020016104f1826104fb6104e0565b8054868601840152938201938101610529565b6104fb979550869350602092506104f194915060ff191682840152151560051b82010192946104e0565b34610143575f3660031901126101435760065490516001600160a01b039091168152602090f35b34610143576020366003190112610143576020906001600160a01b036105cd61099e565b165f5260058252805f20549051908152f35b34610143576020366003190112610143576020906001600160a01b0361060361099e565b165f5260038252805f20549051908152f35b903461014357816003193601126101435761062e61099e565b600654602435926001600160a01b03929161064c9084163314610b79565b6002549084820180921161068c5750925f80516020610bb5833981519152926020925f9560025516948585526003835280852082815401905551908152a3005b601190634e487b7160e01b5f525260245ffd5b34610143575f366003190112610143576020906106ba6109eb565b9051908152f35b34610143575f366003190112610143576020905160ff7f0000000000000000000000000000000000000000000000000000000000000000168152f35b346101435760603660031901126101435761071661099e565b9161071f6109b4565b6001600160a01b039384165f81815260208481528582203383528152908590205490956044359492935f80516020610bb5833981519152938893876001820161079c575b505050845f5260038352865f2061077b8782546109ca565b90551693845f5260038252855f208181540190558551908152a35160018152f35b6107a5916109ca565b90865f528452875f20335f528452875f2055888087610763565b34610143575f366003190112610143576020906002549051908152f35b346101435780600319360112610143576020916107f761099e565b9060243590335f528452825f209160018060a01b031691825f52845280835f205582519081527f8c5be1e5ebec7d5bd14f71427d1e84f3dd0314c0f7b2291e5b200ac8c7c3b925843392a35160018152f35b34610143575f366003190112610143575f8054610865816108e9565b808452906020906001908181169081156105585750600114610892576104fb85876104f182880383610921565b5f80805293507f290decd9548b62a8d60345a988386fc84ba6bc95484008f6362f93160ef3e5635b8385106108d6575050505081016020016104f1826104fb6104e0565b80548686018401529382019381016108ba565b90600182811c92168015610917575b602083101461090357565b634e487b7160e01b5f52602260045260245ffd5b91607f16916108f8565b90601f8019910116810190811067ffffffffffffffff82111761094357604052565b634e487b7160e01b5f52604160045260245ffd5b602080825282518183018190529093925f5b82811061098a57505060409293505f838284010152601f8019910116010190565b818101860151848201604001528501610969565b600435906001600160a01b038216820361014357565b602435906001600160a01b038216820361014357565b919082039182116109d757565b634e487b7160e01b5f52601160045260245ffd5b467f000000000000000000000000000000000000000000000000000000000000000003610a36577f000000000000000000000000000000000000000000000000000000000000000090565b6040515f905f5490610a47826108e9565b8082528160209485820194600190876001821691825f14610b5b575050600114610b02575b50610a7992500382610921565b51902090604051908101917f8b73c3c69bb8fe3d512ecc4cf759cc79239f7b179b0ffacaa9a75d522b39400f835260408201527fc89efdaa54c0f20c7adf612882df0950f5a951637e0307cdcb4c672f298b8bc660608201524660808201523060a082015260a0815260c0810181811067ffffffffffffffff8211176109435760405251902090565b5f808052879250907f290decd9548b62a8d60345a988386fc84ba6bc95484008f6362f93160ef3e5635b858310610b43575050610a7993508201015f610a6c565b80548388018501528694508893909201918101610b2c565b60ff19168852610a7995151560051b85010192505f9150610a6c9050565b15610b8057565b60405162461bcd60e51b815260206004820152600c60248201526b15539055551213d49256915160a21b6044820152606490fdfeddf252ad1be2c89b69c2b068fc378daa952ba7f163c4a11628f55a4df523b3efa26469706673582212208960361e344cc589bb829a231da077c93e63606c53ed246684e9907c47fe463964736f6c63430008170033",
  "immutableReferences": {
    "24900": [
      {
        "length": 32,
        "start": 1753
      }
    ],
    "24914": [
      {
        "length": 32,
        "start": 2542
      }
    ],
    "24916": [
      {
        "length": 32,
        "start": 2580
      }
    ]
  },
  "source": "pragma solidity ^0.8.19;\n\nimport {ERC20} from \"solmate/src/tokens/ERC20.sol\";\nimport {Owned} from \"solmate/src/auth/Owned.sol\";\n\ncontract UniswapV4ERC20 is ERC20, Owned {\n    constructor(string memory name, string memory symbol) ERC20(name, symbol, 18) Owned(msg.sender) {}\n\n    function mint(address account, uint256 amount) external onlyOwner {\n        _mint(account, amount);\n    }\n\n    function burn(address account, uint256 amount) external onlyOwner {\n        _burn(account, amount);\n    }\n}\n",
  "sourcePath": "/home/stephensb/sb-labs/solidity-contracts/contracts/v4-periphery/contracts/libraries/UniswapV4ERC20.sol",
  "compiler": {
    "name": "solc",
    "version": "0.8.23+commit.f704f362.Emscripten.clang"
  },
  "schemaVersion": "3.4.12",
  "updatedAt": "2023-12-01T17:36:41.298Z",
  "devdoc": {
    "kind": "dev",
    "methods": {},
    "version": 1
  },
  "userdoc": {
    "kind": "user",
    "methods": {},
    "version": 1
  }
}