{
  "contractName": "UserRegister",
  "abi": [
    {
      "inputs": [
        {
          "internalType": "uint256",
          "name": "_registerFee",
          "type": "uint256"
        }
      ],
      "stateMutability": "nonpayable",
      "type": "constructor"
    },
    {
      "anonymous": false,
      "inputs": [
        {
          "indexed": true,
          "internalType": "address",
          "name": "previousOwner",
          "type": "address"
        },
        {
          "indexed": true,
          "internalType": "address",
          "name": "newOwner",
          "type": "address"
        }
      ],
      "name": "OwnershipTransferred",
      "type": "event"
    },
    {
      "inputs": [
        {
          "internalType": "address",
          "name": "",
          "type": "address"
        },
        {
          "internalType": "address",
          "name": "",
          "type": "address"
        }
      ],
      "name": "blackList",
      "outputs": [
        {
          "internalType": "bool",
          "name": "",
          "type": "bool"
        }
      ],
      "stateMutability": "view",
      "type": "function"
    },
    {
      "inputs": [
        {
          "internalType": "address",
          "name": "",
          "type": "address"
        }
      ],
      "name": "grayList",
      "outputs": [
        {
          "internalType": "uint256",
          "name": "",
          "type": "uint256"
        }
      ],
      "stateMutability": "view",
      "type": "function"
    },
    {
      "inputs": [
        {
          "internalType": "string",
          "name": "",
          "type": "string"
        }
      ],
      "name": "nameRegister",
      "outputs": [
        {
          "internalType": "address",
          "name": "",
          "type": "address"
        }
      ],
      "stateMutability": "view",
      "type": "function"
    },
    {
      "inputs": [],
      "name": "owner",
      "outputs": [
        {
          "internalType": "address",
          "name": "",
          "type": "address"
        }
      ],
      "stateMutability": "view",
      "type": "function"
    },
    {
      "inputs": [],
      "name": "registerFee",
      "outputs": [
        {
          "internalType": "uint256",
          "name": "",
          "type": "uint256"
        }
      ],
      "stateMutability": "view",
      "type": "function"
    },
    {
      "inputs": [],
      "name": "renounceOwnership",
      "outputs": [],
      "stateMutability": "nonpayable",
      "type": "function"
    },
    {
      "inputs": [
        {
          "internalType": "address",
          "name": "newOwner",
          "type": "address"
        }
      ],
      "name": "transferOwnership",
      "outputs": [],
      "stateMutability": "nonpayable",
      "type": "function"
    },
    {
      "inputs": [
        {
          "internalType": "address",
          "name": "",
          "type": "address"
        }
      ],
      "name": "userRegister",
      "outputs": [
        {
          "internalType": "string",
          "name": "_name",
          "type": "string"
        },
        {
          "internalType": "string",
          "name": "_avatar",
          "type": "string"
        },
        {
          "internalType": "string",
          "name": "_bio",
          "type": "string"
        },
        {
          "internalType": "uint256",
          "name": "_block",
          "type": "uint256"
        }
      ],
      "stateMutability": "view",
      "type": "function"
    },
    {
      "inputs": [
        {
          "internalType": "address",
          "name": "",
          "type": "address"
        },
        {
          "internalType": "address",
          "name": "",
          "type": "address"
        }
      ],
      "name": "whiteList",
      "outputs": [
        {
          "internalType": "bool",
          "name": "",
          "type": "bool"
        }
      ],
      "stateMutability": "view",
      "type": "function"
    },
    {
      "inputs": [
        {
          "internalType": "bytes32",
          "name": "_hash",
          "type": "bytes32"
        },
        {
          "internalType": "bytes",
          "name": "_signature",
          "type": "bytes"
        }
      ],
      "name": "register",
      "outputs": [],
      "stateMutability": "payable",
      "type": "function"
    },
    {
      "inputs": [
        {
          "internalType": "string",
          "name": "_name",
          "type": "string"
        },
        {
          "internalType": "string",
          "name": "_avatar",
          "type": "string"
        },
        {
          "internalType": "string",
          "name": "_bio",
          "type": "string"
        },
        {
          "internalType": "bytes",
          "name": "_signature",
          "type": "bytes"
        }
      ],
      "name": "confirm",
      "outputs": [],
      "stateMutability": "nonpayable",
      "type": "function"
    },
    {
      "inputs": [
        {
          "internalType": "string",
          "name": "_avatar",
          "type": "string"
        },
        {
          "internalType": "string",
          "name": "_bio",
          "type": "string"
        }
      ],
      "name": "update",
      "outputs": [],
      "stateMutability": "nonpayable",
      "type": "function"
    },
    {
      "inputs": [],
      "name": "release",
      "outputs": [],
      "stateMutability": "nonpayable",
      "type": "function"
    },
    {
      "inputs": [
        {
          "internalType": "uint256",
          "name": "_value",
          "type": "uint256"
        }
      ],
      "name": "setGrayList",
      "outputs": [],
      "stateMutability": "nonpayable",
      "type": "function"
    },
    {
      "inputs": [
        {
          "internalType": "address",
          "name": "_white",
          "type": "address"
        },
        {
          "internalType": "bool",
          "name": "_value",
          "type": "bool"
        }
      ],
      "name": "setWhiteList",
      "outputs": [],
      "stateMutability": "nonpayable",
      "type": "function"
    },
    {
      "inputs": [
        {
          "internalType": "address",
          "name": "_black",
          "type": "address"
        },
        {
          "internalType": "bool",
          "name": "_value",
          "type": "bool"
        }
      ],
      "name": "setBlackList",
      "outputs": [],
      "stateMutability": "nonpayable",
      "type": "function"
    },
    {
      "inputs": [
        {
          "internalType": "address",
          "name": "_receiver",
          "type": "address"
        },
        {
          "internalType": "address",
          "name": "_sender",
          "type": "address"
        }
      ],
      "name": "validInteraction",
      "outputs": [
        {
          "internalType": "bool",
          "name": "_interact",
          "type": "bool"
        }
      ],
      "stateMutability": "payable",
      "type": "function"
    },
    {
      "inputs": [
        {
          "internalType": "address",
          "name": "_user",
          "type": "address"
        }
      ],
      "name": "isUser",
      "outputs": [
        {
          "internalType": "bool",
          "name": "",
          "type": "bool"
        }
      ],
      "stateMutability": "view",
      "type": "function"
    },
    {
      "inputs": [
        {
          "internalType": "uint256",
          "name": "_registerFee",
          "type": "uint256"
        }
      ],
      "name": "setRegisterFee",
      "outputs": [],
      "stateMutability": "nonpayable",
      "type": "function"
    }
  ],
  "bytecode": "0x608034609357601f611d5b38819003918201601f19168301916001600160401b03831184841017609757808492602094604052833981010312609357515f8054336001600160a01b0319821681178355604051939290916001600160a01b0316907f8be0079c531659141344cd1fd0a4f28419497f9722a3daafe3b4186f6b6457e09080a3600155611caf90816100ac8239f35b5f80fd5b634e487b7160e01b5f52604160045260245ffdfe60806040526004361015610011575f80fd5b5f3560e01c8063034254c9146114be57806303f187ea146114a15780632a28e5a31461139a5780634209fff11461135357806353162558146112ba5780635625632c1461125957806368092bd914611182578063715018a61461112b57806386d1a69f1461105f5780638bc5f157146110205780638d14e12714610f475780638da5cb5b14610f2057806392be2ab814610eff578063999cb7a214610ec7578063b31433d314610655578063cd251a9a146104a9578063ce0fd17614610452578063f2fde38b1461038c5763f4c84d19146100ea575f80fd5b34610388576040366003190112610388576004356001600160401b0381116103885761011a90369060040161157d565b6024356001600160401b0381116103885761013990369060040161157d565b335f526002602052610153600360405f2001541515611744565b61016461015f83611a74565b61180c565b61017561017082611b17565b611858565b335f526002602052600160405f200182516001600160401b0381116102e35761019e82546115c1565b601f8111610358575b506020601f82116001146102f75781906101d89394955f92610241575b50508160011b915f199060031b1c19161790565b90555b335f526002602052600260405f200181516001600160401b0381116102e35761020482546115c1565b601f81116102a8575b50602092601f821160011461024c5761023d929382915f926102415750508160011b915f199060031b1c19161790565b9055005b015190505f806101c4565b601f19821693835f52805f20915f5b8681106102905750836001959610610278575b505050811b019055005b01515f1960f88460031b161c191690555f808061026e565b9192602060018192868501518155019401920161025b565b6102d390835f5260205f20601f840160051c810191602085106102d9575b601f0160051c019061177f565b5f61020d565b90915081906102c6565b634e487b7160e01b5f52604160045260245ffd5b601f19821690835f52805f20915f5b81811061034057509583600195969710610328575b505050811b0190556101db565b01515f1960f88460031b161c191690555f808061031b565b9192602060018192868b015181550194019201610306565b61038290835f5260205f20601f840160051c810191602085106102d957601f0160051c019061177f565b5f6101a7565b5f80fd5b34610388576020366003190112610388576103a5611515565b6103ad6119ba565b6001600160a01b031680156103fe575f80546001600160a01b03198116831782556001600160a01b0316907f8be0079c531659141344cd1fd0a4f28419497f9722a3daafe3b4186f6b6457e09080a3005b60405162461bcd60e51b815260206004820152602660248201527f4f776e61626c653a206e6577206f776e657220697320746865207a65726f206160448201526564647265737360d01b6064820152608490fd5b346103885760403660031901126103885761046b611515565b61047361152b565b9060018060a01b03165f52600460205260405f209060018060a01b03165f52602052602060ff60405f2054166040519015158152f35b6040366003190112610388576104bd611515565b6104c561152b565b60018060a01b03821690815f52600560205260405f2060018060a01b0382165f5260205260ff60405f2054166105f157815f52600460205260405f209060018060a01b03165f5260205260ff60405f20541615610528575b602060405160018152f35b5f52600660205260405f20543410610594575f8080809334905af161054b61189d565b501561055857808061051d565b60405162461bcd60e51b81526020600482015260146024820152732330b4b632b2103a379039b2b7321022ba3432b960611b6044820152606490fd5b60405162461bcd60e51b815260206004820152602f60248201527f6d73672076616c7565207761732062656c6f7720677261796c6973742076616c60448201526e3ab29037b3103932b1b2b4bb32b91760891b6064820152608490fd5b60405162461bcd60e51b815260206004820152603660248201527f5468652072656365697665722068617320626c61636b6c697374656420696e7460448201527532b930b1ba34b7b73990333937b69039b2b73232b91760511b6064820152608490fd5b34610388576080366003190112610388576004356001600160401b0381116103885761068590369060040161157d565b6024356001600160401b038111610388576106a490369060040161157d565b6044356001600160401b038111610388576106c390369060040161157d565b916064356001600160401b038111610388576106e390369060040161157d565b8151600481119081610ebb575b5015610e7f576020916107126040516107098582611541565b5f815285611a11565b15610e6e575b6107316040516107288582611541565b5f815286611a11565b15610e5d575b604051936002835195858181870198808a835e81016007815203019020015415610e095760405184810183519161078d60148883818901968088885e81013360601b838201520301600b19810184520182611541565b805191825f9372184f03e93ff9f4daa797ed6e38ed64bf6a1f0160401b821015610de6575b808a6d04ee2d6d415b85acef8100000000600a931015610dcb575b50662386f26fc10000811015610db7575b6305f5e100811015610da6575b612710811015610d97575b6064811015610d89575b1015610d7f575b6001840190600a602161083261081c85611562565b9461082a6040519687611541565b808652611562565b848d019790601f19013689378401015b5f1901916f181899199a1a9b1b9c1cb0b131b232b360811b8282061a83530490898b83156108755750600a919050610842565b90946108ec9793506108de9250603a906108e7976040519586948501977f19457468657265756d205369676e6564204d6573736167653a0a00000000000089525180918587015e840190838201905f8252519283915e01015f815203601f198101835282611541565b519020336118cc565b6116ec565b60405183518083835e60039082018181528290038701909120546001600160a01b03165f90815260028752604090200154610cb6575b84604051809285518091835e60039082019081520301902080546001600160a01b0319163317905560405183516002919086908290808a835e8101600781520301902001549060405192608084018481106001600160401b038211176102e35760405283528483019081526040830196875260608301918252335f526002855260405f2092518051906001600160401b0382116102e3576109c385546115c1565b601f8111610c88575b508690601f8311600114610c25576109fa92915f9183610b895750508160011b915f199060031b1c19161790565b83555b51805160018401916001600160401b0382116102e357610a1d83546115c1565b601f8111610bf7575b508690601f8311600114610b9457610a5492915f9183610b895750508160011b915f199060031b1c19161790565b90555b6002820195519586516001600160401b0381116102e357610a7882546115c1565b601f8111610b5b575b5085601f8211600114610af05791610aba8260029998979695936003955f9c8d92610ae55750508160011b915f199060031b1c19161790565b90555b51910155604051928391518091835e8101600781520301902082815582600182015501555f80f35b015190508c806101c4565b601f19821698835f52875f20995f5b818110610b445750925f9a600395936001938360029d9c9b9a999710610b2d575b505050811b019055610abd565b01518c1960f884891b161c191690558b8080610b20565b838301518c556001909b019a928901928901610aff565b610b8390835f52875f20601f840160051c8101918985106102d957601f0160051c019061177f565b88610a81565b015190508a806101c4565b90601f19831691845f52885f20925f5b8a828210610be1575050908460019594939210610bc9575b505050811b019055610a57565b01515f1960f88460031b161c19169055898080610bbc565b6001859682939686015181550195019301610ba4565b610c1f90845f52885f20601f850160051c8101918a86106102d957601f0160051c019061177f565b89610a26565b90601f19831691865f52885f20925f5b8a828210610c72575050908460019594939210610c5a575b505050811b0183556109fd565b01515f1960f88460031b161c19169055898080610c4d565b6001859682939686015181550195019301610c35565b610cb090865f52885f20601f850160051c8101918a86106102d957601f0160051c019061177f565b896109cc565b60405183518083835e81019060038252868160018060a01b03930301902054165f5260028552600360405f200154600260405187818851808c835e8101600781520301902001541015610d3a5760405183518083835e81019060038252868160018060a01b03930301902054165f5260028552610d3560405f206117e3565b610922565b60405162461bcd60e51b815260048101869052601760248201527f4e616d652077617320616c72656164792074616b656e2e0000000000000000006044820152606490fd5b9260010192610807565b606460029104950194610800565b612710600491049501946107f6565b6305f5e100600891049501946107eb565b662386f26fc10000601091049501946107de565b906d04ee2d6d415b85acef810000000090049501948a6107cd565b506040935072184f03e93ff9f4daa797ed6e38ed64bf6a1f0160401b81046107b2565b60405162461bcd60e51b815260048101859052602660248201527f54686973207369676e617475726520686173206e6f74206265656e207265676960448201526539ba32b9321760d11b6064820152608490fd5b610e6961017086611b17565b610737565b610e7a61015f85611a74565b610718565b60405162461bcd60e51b815260206004820152601460248201527324b73b30b634b2103730b6b2903632b733ba341760611b6044820152606490fd5b601e91501115856106f0565b34610388576020366003190112610388576001600160a01b03610ee8611515565b165f526006602052602060405f2054604051908152f35b3461038857602036600319011261038857610f186119ba565b600435600155005b34610388575f366003190112610388575f546040516001600160a01b039091168152602090f35b3461038857610f55366116bd565b335f526002602052610f6f600360405f2001541515611744565b6001600160a01b0382165f9081526002602052604090206003015415610fc457610fc291335f52600460205260405f209060018060a01b03165f5260205260405f209060ff801983541691151516179055565b005b60405162461bcd60e51b815260206004820152602e60248201527f41646472657373206265696e67207768697465206c6973746564206d7573742060448201526d3132903932b3b4b9ba32b932b21760911b6064820152608490fd5b3461038857602036600319011261038857335f52600260205261104b600360405f2001541515611744565b335f52600660205260043560405f20555f80f35b34610388575f36600319011261038857335f52600260205260405f2060405190815f82549261108d846115c1565b936001811690811561111157506001146110d8575b506020925060038152030190206bffffffffffffffffffffffff60a01b8154169055335f526002602052610fc260405f206117e3565b9150505f528160205f205f905b8382106110f95750506020918101846110a2565b602091925080600191548487015201910183916110e5565b60ff191684525060209380151502830191508590506110a2565b34610388575f366003190112610388576111436119ba565b5f80546001600160a01b0319811682556001600160a01b03167f8be0079c531659141344cd1fd0a4f28419497f9722a3daafe3b4186f6b6457e08280a3005b3461038857611190366116bd565b335f5260026020526111aa600360405f2001541515611744565b6001600160a01b0382165f90815260026020526040902060030154156111fd57610fc291335f52600560205260405f209060018060a01b03165f5260205260405f209060ff801983541691151516179055565b60405162461bcd60e51b815260206004820152602e60248201527f41646472657373206265696e6720626c61636b206c6973746564206d7573742060448201526d3132903932b3b4b9ba32b932b21760911b6064820152608490fd5b34610388576020366003190112610388576004356001600160401b0381116103885761128b602091369060040161157d565b8160405191805191829101835e600390820190815281900382019020546040516001600160a01b039091168152f35b34610388576020366003190112610388576001600160a01b036112db611515565b165f52600260205261132d60405f206112f3816115f9565b90611349611303600183016115f9565b9161133b6003611315600284016115f9565b92015493604051968796608088526080880190611699565b908682036020880152611699565b908482036040860152611699565b9060608301520390f35b34610388576020366003190112610388576020611390611371611515565b6001600160a01b03165f90815260026020526040902060030154151590565b6040519015158152f35b6040366003190112610388576004356024356001600160401b038111610388576113c890369060040161157d565b90600154341061145c576113e06108e78383336118cc565b6040519160608301918383106001600160401b038411176102e3576002926040528352602083013381526020806040860193438552604051928184925191829101835e60079082019081520301902093518455516001840180546001600160a01b0319166001600160a01b039290921691909117905551910155005b60405162461bcd60e51b815260206004820152601860248201527f496e76616c6964206665652076616c756520676976656e2e00000000000000006044820152606490fd5b34610388575f366003190112610388576020600154604051908152f35b34610388576040366003190112610388576114d7611515565b6114df61152b565b9060018060a01b03165f52600560205260405f209060018060a01b03165f52602052602060ff60405f2054166040519015158152f35b600435906001600160a01b038216820361038857565b602435906001600160a01b038216820361038857565b90601f801991011681019081106001600160401b038211176102e357604052565b6001600160401b0381116102e357601f01601f191660200190565b81601f820112156103885760208135910161159782611562565b926115a56040519485611541565b8284528282011161038857815f92602092838601378301015290565b90600182811c921680156115ef575b60208310146115db57565b634e487b7160e01b5f52602260045260245ffd5b91607f16916115d0565b9060405191825f82549261160c846115c1565b80845293600181169081156116775750600114611633575b5061163192500383611541565b565b90505f9291925260205f20905f915b81831061165b575050906020611631928201015f611624565b6020919350806001915483858901015201910190918492611642565b90506020925061163194915060ff191682840152151560051b8201015f611624565b805180835260209291819084018484015e5f828201840152601f01601f1916010190565b6040906003190112610388576004356001600160a01b0381168103610388579060243580151581036103885790565b156116f357565b60405162461bcd60e51b815260206004820152602360248201527f496e76616c6964207369676e617475726520676976656e20666f722073656e6460448201526232b91760e91b6064820152608490fd5b1561174b57565b60405162461bcd60e51b815260206004820152600c60248201526b24b73b30b634b2102ab9b2b960a11b6044820152606490fd5b81811061178a575050565b5f815560010161177f565b61179f81546115c1565b90816117a9575050565b81601f5f93116001146117ba575055565b818352602083206117d691601f0160051c81019060010161177f565b8082528160208120915555565b60035f916117f081611795565b6117fc60018201611795565b61180860028201611795565b0155565b1561181357565b60405162461bcd60e51b815260206004820152601860248201527f496e76616c6964205f61766174617220526177204349442e00000000000000006044820152606490fd5b1561185f57565b60405162461bcd60e51b815260206004820152601660248201527524b73b30b634b2102fb134b7902529a7a71021a4a21760511b6044820152606490fd5b3d156118c7573d906118ae82611562565b916118bc6040519384611541565b82523d5f602084013e565b606090565b906118d78382611bbe565b60058195929510156119a657159384611990575b5083156118f9575b50505090565b5f93509061193161193f8594936040519283916020830195630b135d3f60e11b87526024840152604060448401526064830190611699565b03601f198101835282611541565b51915afa61194b61189d565b81611982575b81611960575b505f80806118f3565b90506020818051810103126103885760200151630b135d3f60e11b145f611957565b905060208151101590611951565b6001600160a01b0384811691161493505f6118eb565b634e487b7160e01b5f52602160045260245ffd5b5f546001600160a01b031633036119cd57565b606460405162461bcd60e51b815260206004820152602060248201527f4f776e61626c653a2063616c6c6572206973206e6f7420746865206f776e65726044820152fd5b604051611a3d6020828180820195805191829101875e81015f838201520301601f198101835282611541565b51902090604051611a6d6020828180820195805191829101875e81015f838201520301601f198101835282611541565b5190201490565b805160208201516001600160c81b03198116919060078210611af7575b5050604051602081019166ffffffffffffff60c81b16825260078152611ab8602782611541565b519020604051666261666b72656960c81b602082019081526007825290611ae0602782611541565b519020149081611aee575090565b603b9150511490565b6001600160c81b031960079290920360031b82901b161690505f80611a91565b805160208201516001600160b81b03198116919060098210611b9e575b5050604051602081019168ffffffffffffffffff60b81b16825260098152611b5d602982611541565b5190206040516862616761616965726160b81b602082019081526009825290611b87602982611541565b519020149081611b95575090565b603d9150511490565b6001600160b81b031960099290920360031b82901b161690505f80611b34565b9060418151145f14611bea57611be691602082015190606060408401519301515f1a90611bf3565b9091565b50505f90600290565b7f7fffffffffffffffffffffffffffffff5d576e7357a4501ddfe92f46681b20a08411611c6e576020935f9360ff60809460405194855216868401526040830152606082015282805260015afa15611c63575f516001600160a01b03811615611c5b57905f90565b505f90600190565b6040513d5f823e3d90fd5b505050505f9060039056fea26469706673582212209e2084236837d922d35a59399d9ad6f4d6250453e30a75176654d447f9835cc564736f6c634300081c0033",
  "immutableReferences": {},
  "source": "// SPDX-License-Identifier: MIT\npragma solidity ^0.8.0;\n\nimport \"@openzeppelin/contracts/token/ERC721/IERC721.sol\";\n\nimport \"@openzeppelin/contracts/access/Ownable.sol\";\n\nimport \"@openzeppelin/contracts/utils/cryptography/SignatureChecker.sol\";\n\nimport \"@openzeppelin/contracts/utils/cryptography/ECDSA.sol\";\n\nimport \"../helper/Helper.sol\";\n\n// reentrency gaurd\n\n// Contract To register ethereum addresses to Users.\ncontract UserRegister is Ownable{\n\n    // Fee for user registration. set by owner.\n    uint public registerFee;\n\n    // Mappings to direct address and name information to the appropriate User.\n    mapping(address => User) public userRegister;\n    mapping(string => address) public nameRegister;\n\n    mapping(address => mapping(address => bool)) public whiteList;\n    mapping(address => mapping(address => bool)) public blackList;\n    mapping(address => uint) public grayList;\n    \n    // Information struct for a User.\n    struct User{\n        string _name;\n        string _avatar;\n        string _bio;\n        uint _block;\n    }\n\n    // mapping to hold user name requests.\n    mapping(bytes => request) requests;\n\n    // Information struct for user name request.\n    struct request{\n        bytes32 _hash;\n        address _requester;\n        uint _block;\n    }\n\n    modifier onlyUser{\n        require(userRegister[msg.sender]._block != 0 , \"Invalid User\");\n        _;\n    }\n    \n    /*\n    * @param _registerFee - The amount of base network token fee.\n    */\n    constructor (uint _registerFee){\n        registerFee = _registerFee;\n    }\n\n    // Request user registration.\n    function register(bytes32 _hash, bytes memory _signature) public payable {\n        require(msg.value >= registerFee, \"Invalid fee value given.\");\n        require(SignatureChecker.isValidSignatureNow(msg.sender, _hash, _signature), \"Invalid signature given for sender.\");\n        requests[_signature] = request(_hash, msg.sender, block.number);\n    }\n\n    // Confirm user registration.\n    function confirm(\n        string memory _name,\n        string memory _avatar, \n        string memory _bio,\n        bytes memory _signature) \n    public {\n        require(bytes(_name).length > 4 && bytes(_name).length <= 30, \"Invalid name length.\");\n        if(!Helper.compareStrings(_avatar, \"\")){\n            require(Helper.isV1RawCID(_avatar), \"Invalid _avatar Raw CID.\");\n        }\n        if(!Helper.compareStrings(_bio, \"\")){\n            require(Helper.isV1JSONCID(_bio), \"Invalid _bio JSON CID.\");\n        }\n        require(requests[_signature]._block != 0, \"This signature has not been registerd.\");\n        bytes32 _hash = ECDSA.toEthSignedMessageHash(bytes(abi.encodePacked(_name, msg.sender)));\n        require(SignatureChecker.isValidSignatureNow(msg.sender, _hash, _signature), \"Invalid signature given for sender.\");\n        if(userRegister[nameRegister[_name]]._block != 0){\n            require(userRegister[nameRegister[_name]]._block > requests[_signature]._block, \"Name was already taken.\");\n            delete userRegister[nameRegister[_name]];\n        }\n        nameRegister[_name] = msg.sender;\n        userRegister[msg.sender] = User(_name, _avatar, _bio, requests[_signature]._block);\n        delete requests[_signature];\n    }\n\n    // Update user info.\n    function update(string memory _avatar, string memory _bio) public onlyUser{\n        require(Helper.isV1RawCID(_avatar), \"Invalid _avatar Raw CID.\");\n        require(Helper.isV1JSONCID(_bio), \"Invalid _bio JSON CID.\");\n        userRegister[msg.sender]._avatar = _avatar;\n        userRegister[msg.sender]._bio = _bio;\n    }\n\n    // Release user info.\n    function release() public{\n        delete nameRegister[userRegister[msg.sender]._name];\n        delete userRegister[msg.sender];\n    }\n\n    function setGrayList(uint _value) public onlyUser{\n        grayList[msg.sender] = _value;\n    }\n\n    function setWhiteList(address _white, bool _value) public onlyUser{\n        require(isUser(_white), \"Address being white listed must be registered.\");\n        whiteList[msg.sender][_white] = _value;\n    }\n\n    function setBlackList(address _black, bool _value) public onlyUser{\n        require(isUser(_black), \"Address being black listed must be registered.\");\n        blackList[msg.sender][_black] = _value;\n    }\n\n    function validInteraction(address _receiver, address _sender) public payable returns(bool _interact){\n        require(!blackList[_receiver][_sender], \"The receiver has blacklisted interactions from sender.\");\n        // Condition to bypass dontation for whitelist\n        if(!whiteList[_receiver][_sender]){\n            require(msg.value >= grayList[_receiver], \"msg value was below graylist value of receiver.\");\n            (bool sent, )  = _receiver.call{value: msg.value}(\"\");\n            require(sent, \"Failed to send Ether\");\n        }\n        return true;\n    }\n\n    function isUser(address _user) public view returns(bool){\n        return userRegister[_user]._block != 0;\n    }\n\n    function setRegisterFee(uint _registerFee) public onlyOwner{\n        registerFee = _registerFee;\n    }\n}",
  "sourcePath": "/home/stephensb/sb-labs/solidity-contracts/contracts/feed/user-register/UserRegister.sol",
  "compiler": {
    "name": "solc",
    "version": "0.8.28+commit.7893614a.Emscripten.clang"
  },
  "schemaVersion": "3.4.12",
  "updatedAt": "2024-12-18T06:10:39.498Z",
  "devdoc": {
    "kind": "dev",
    "methods": {
      "owner()": {
        "details": "Returns the address of the current owner."
      },
      "renounceOwnership()": {
        "details": "Leaves the contract without owner. It will not be possible to call `onlyOwner` functions. Can only be called by the current owner. NOTE: Renouncing ownership will leave the contract without an owner, thereby disabling any functionality that is only available to the owner."
      },
      "transferOwnership(address)": {
        "details": "Transfers ownership of the contract to a new account (`newOwner`). Can only be called by the current owner."
      }
    },
    "version": 1
  },
  "userdoc": {
    "kind": "user",
    "methods": {},
    "version": 1
  }
}