{
  "contractName": "UserAgeManager",
  "abi": [
    {
      "inputs": [],
      "name": "userAge",
      "outputs": [
        {
          "internalType": "uint256",
          "name": "",
          "type": "uint256"
        }
      ],
      "stateMutability": "view",
      "type": "function"
    },
    {
      "inputs": [
        {
          "internalType": "uint256",
          "name": "_age",
          "type": "uint256"
        }
      ],
      "name": "setUserAge",
      "outputs": [],
      "stateMutability": "nonpayable",
      "type": "function"
    }
  ],
  "bytecode": "0x608060405234801561001057600080fd5b50610219806100206000396000f3fe608060405234801561001057600080fd5b50600436106100365760003560e01c806319c52ea01461003b5780634257eb8c14610057575b600080fd5b6100556004803603810190610050919061010f565b610075565b005b61005f6100ce565b60405161006c919061014b565b60405180910390f35b6000811180156100855750609681105b6100c4576040517f08c379a00000000000000000000000000000000000000000000000000000000081526004016100bb906101c3565b60405180910390fd5b8060008190555050565b60005481565b600080fd5b6000819050919050565b6100ec816100d9565b81146100f757600080fd5b50565b600081359050610109816100e3565b92915050565b600060208284031215610125576101246100d4565b5b6000610133848285016100fa565b91505092915050565b610145816100d9565b82525050565b6000602082019050610160600083018461013c565b92915050565b600082825260208201905092915050565b7f416765206d757374206265206265747765656e203120616e6420313439000000600082015250565b60006101ad601d83610166565b91506101b882610177565b602082019050919050565b600060208201905081810360008301526101dc816101a0565b905091905056fea2646970667358221220d1a7468027d05a1f9931b2060c3e96ba7aac9bcb2b8ac4c465e04599e76f345d64736f6c63430008110033",
  "immutableReferences": {},
  "source": "pragma solidity ^0.8.0;\n\n\ncontract UserAgeManager{\n    uint256 public userAge;\n\n    function setUserAge(uint256 _age) external{\n        require(_age > 0 && _age < 150, \"Age must be between 1 and 149\");\n        userAge = _age;\n    }\n}\n\ninterface IUserAgeManager{\n    function setUserAge(uint256 _age) external;\n}\n\ncontract AgeUpdater{\n    function updateUserAgeV1(IUserAgeManager ageManager, uint256 _age) external{\n        ageManager.setUserAge(_age);\n    }\n\n    function updateUserAgeV2(address ageManager, uint256 _age) external{\n        (bool success, ) = ageManager.call(abi.encodeWithSignature(\"setUserAge(uint256)\", _age));\n    }\n\n    function updateUserAgeV3(address ageManager, uint256 _age) external{\n        bytes4 sig = bytes4(keccak256(\"setUserAge(uint256)\"));\n        assembly {\n            let x := mload(0x04)\n            mstore(x,sig)\n            mstore(add(x,0x04), _age)\n            let success := call(0, ageManager, 0, x, 0x24, x, 0)\n        }\n    }\n}\n\n",
  "sourcePath": "/home/stephensb/sb-labs/solidity-contracts/contracts/challenge/UpdateAge.sol",
  "compiler": {
    "name": "solc",
    "version": "0.8.17+commit.8df45f5f.Emscripten.clang"
  },
  "schemaVersion": "3.4.12",
  "updatedAt": "2023-11-23T01:54:13.751Z",
  "devdoc": {
    "kind": "dev",
    "methods": {},
    "version": 1
  },
  "userdoc": {
    "kind": "user",
    "methods": {},
    "version": 1
  }
}