{
  "contractName": "UUIDConnect",
  "abi": [
    {
      "inputs": [],
      "stateMutability": "nonpayable",
      "type": "constructor"
    },
    {
      "inputs": [
        {
          "internalType": "string",
          "name": "",
          "type": "string"
        }
      ],
      "name": "addressmap",
      "outputs": [
        {
          "internalType": "address",
          "name": "",
          "type": "address"
        }
      ],
      "stateMutability": "view",
      "type": "function"
    },
    {
      "inputs": [
        {
          "internalType": "address",
          "name": "",
          "type": "address"
        }
      ],
      "name": "uuidmap",
      "outputs": [
        {
          "internalType": "string",
          "name": "",
          "type": "string"
        }
      ],
      "stateMutability": "view",
      "type": "function"
    },
    {
      "inputs": [
        {
          "internalType": "string",
          "name": "_uuid",
          "type": "string"
        }
      ],
      "name": "setUUID",
      "outputs": [
        {
          "internalType": "string",
          "name": "uuid",
          "type": "string"
        },
        {
          "internalType": "address",
          "name": "sender",
          "type": "address"
        }
      ],
      "stateMutability": "nonpayable",
      "type": "function"
    }
  ],
  "bytecode": "0x608060405234801561001057600080fd5b50610522806100206000396000f3fe608060405234801561001057600080fd5b50600436106100415760003560e01c806307fe649914610046578063229e67c71461006f57806327ac694914610090575b600080fd5b6100596100543660046102cc565b6100b0565b60405161006691906103f7565b60405180910390f35b61008261007d3660046102fa565b61014a565b60405161006692919061040a565b6100a361009e3660046102fa565b61020d565b60405161006691906103e3565b600060208190529081526040902080546100c99061049b565b80601f01602080910402602001604051908101604052809291908181526020018280546100f59061049b565b80156101425780601f1061011757610100808354040283529160200191610142565b820191906000526020600020905b81548152906001019060200180831161012557829003601f168201915b505050505081565b60606000806001600160a01b031660018460405161016891906103c7565b908152604051908190036020019020546001600160a01b0316146101a75760405162461bcd60e51b815260040161019e90610434565b60405180910390fd5b336001846040516101b891906103c7565b908152604080516020928190038301902080546001600160a01b0319166001600160a01b03949094169390931790925533600090815280825291909120845161020392860190610233565b5091923392509050565b80516020818301810180516001825292820191909301209152546001600160a01b031681565b82805461023f9061049b565b90600052602060002090601f01602090048101928261026157600085556102a7565b82601f1061027a57805160ff19168380011785556102a7565b828001600101855582156102a7579182015b828111156102a757825182559160200191906001019061028c565b506102b39291506102b7565b5090565b5b808211156102b357600081556001016102b8565b6000602082840312156102dd578081fd5b81356001600160a01b03811681146102f3578182fd5b9392505050565b6000602080838503121561030c578182fd5b823567ffffffffffffffff80821115610323578384fd5b818501915085601f830112610336578384fd5b813581811115610348576103486104d6565b604051601f8201601f191681018501838111828210171561036b5761036b6104d6565b6040528181528382018501881015610381578586fd5b818585018683013790810190930193909352509392505050565b600081518084526103b381602086016020860161046b565b601f01601f19169290920160200192915050565b600082516103d981846020870161046b565b9190910192915050565b6001600160a01b0391909116815260200190565b6000602082526102f3602083018461039b565b60006040825261041d604083018561039b565b905060018060a01b03831660208301529392505050565b6020808252601c908201527f555549442068617320616c7265616479206265656e2074616b656e2e00000000604082015260600190565b60005b8381101561048657818101518382015260200161046e565b83811115610495576000848401525b50505050565b6002810460018216806104af57607f821691505b602082108114156104d057634e487b7160e01b600052602260045260246000fd5b50919050565b634e487b7160e01b600052604160045260246000fdfea26469706673582212202565d61fc219a9e3c8266e7598b471477b51ea05b7b8581f6fa84c76b2608e4f64736f6c63430008000033",
  "immutableReferences": {},
  "source": "// SPDX-License-Identifier: MIT\npragma solidity  ^0.8.0;\n\ncontract UUIDConnect{\n\n    // Mapping to hold information of the product with the given name.\n    mapping(address => string) public uuidmap;\n    mapping(string => address) public addressmap;\n\n    //constructor\n    constructor(){\n        \n    }\n    /*\n    * Function to set the UUID of the address\n    */\n   function setUUID(string memory _uuid) public returns(string memory uuid, address sender){\n        require(addressmap[_uuid] == address(0), \"UUID has already been taken.\");\n        addressmap[_uuid] = msg.sender;\n        uuidmap[msg.sender] = _uuid;\n        return(_uuid, msg.sender); \n    }\n}",
  "sourcePath": "/home/stephensb/sb-labs/solidity-contracts/contracts/uuid-connect/UUID_Connect.sol",
  "compiler": {
    "name": "solc",
    "version": "0.8.0+commit.c7dfd78e.Emscripten.clang"
  },
  "schemaVersion": "3.4.12",
  "updatedAt": "2024-12-13T01:02:09.526Z",
  "devdoc": {
    "kind": "dev",
    "methods": {},
    "version": 1
  },
  "userdoc": {
    "kind": "user",
    "methods": {},
    "version": 1
  }
}