{
  "contractName": "VolatilityOracle",
  "abi": [
    {
      "inputs": [
        {
          "internalType": "contract IPoolManager",
          "name": "_poolManager",
          "type": "address"
        }
      ],
      "stateMutability": "nonpayable",
      "type": "constructor"
    },
    {
      "inputs": [
        {
          "internalType": "address",
          "name": "hooks",
          "type": "address"
        }
      ],
      "name": "HookAddressNotValid",
      "type": "error"
    },
    {
      "inputs": [],
      "name": "HookNotImplemented",
      "type": "error"
    },
    {
      "inputs": [],
      "name": "InvalidPool",
      "type": "error"
    },
    {
      "inputs": [],
      "name": "LockFailure",
      "type": "error"
    },
    {
      "inputs": [],
      "name": "MustUseDynamicFee",
      "type": "error"
    },
    {
      "inputs": [],
      "name": "NotPoolManager",
      "type": "error"
    },
    {
      "inputs": [],
      "name": "NotSelf",
      "type": "error"
    },
    {
      "inputs": [
        {
          "internalType": "address",
          "name": "",
          "type": "address"
        },
        {
          "components": [
            {
              "internalType": "Currency",
              "name": "currency0",
              "type": "address"
            },
            {
              "internalType": "Currency",
              "name": "currency1",
              "type": "address"
            },
            {
              "internalType": "uint24",
              "name": "fee",
              "type": "uint24"
            },
            {
              "internalType": "int24",
              "name": "tickSpacing",
              "type": "int24"
            },
            {
              "internalType": "contract IHooks",
              "name": "hooks",
              "type": "address"
            }
          ],
          "internalType": "struct PoolKey",
          "name": "",
          "type": "tuple"
        },
        {
          "internalType": "uint256",
          "name": "",
          "type": "uint256"
        },
        {
          "internalType": "uint256",
          "name": "",
          "type": "uint256"
        },
        {
          "internalType": "bytes",
          "name": "",
          "type": "bytes"
        }
      ],
      "name": "afterDonate",
      "outputs": [
        {
          "internalType": "bytes4",
          "name": "",
          "type": "bytes4"
        }
      ],
      "stateMutability": "nonpayable",
      "type": "function"
    },
    {
      "inputs": [
        {
          "internalType": "address",
          "name": "",
          "type": "address"
        },
        {
          "components": [
            {
              "internalType": "Currency",
              "name": "currency0",
              "type": "address"
            },
            {
              "internalType": "Currency",
              "name": "currency1",
              "type": "address"
            },
            {
              "internalType": "uint24",
              "name": "fee",
              "type": "uint24"
            },
            {
              "internalType": "int24",
              "name": "tickSpacing",
              "type": "int24"
            },
            {
              "internalType": "contract IHooks",
              "name": "hooks",
              "type": "address"
            }
          ],
          "internalType": "struct PoolKey",
          "name": "",
          "type": "tuple"
        },
        {
          "internalType": "uint160",
          "name": "",
          "type": "uint160"
        },
        {
          "internalType": "int24",
          "name": "",
          "type": "int24"
        },
        {
          "internalType": "bytes",
          "name": "",
          "type": "bytes"
        }
      ],
      "name": "afterInitialize",
      "outputs": [
        {
          "internalType": "bytes4",
          "name": "",
          "type": "bytes4"
        }
      ],
      "stateMutability": "nonpayable",
      "type": "function"
    },
    {
      "inputs": [
        {
          "internalType": "address",
          "name": "",
          "type": "address"
        },
        {
          "components": [
            {
              "internalType": "Currency",
              "name": "currency0",
              "type": "address"
            },
            {
              "internalType": "Currency",
              "name": "currency1",
              "type": "address"
            },
            {
              "internalType": "uint24",
              "name": "fee",
              "type": "uint24"
            },
            {
              "internalType": "int24",
              "name": "tickSpacing",
              "type": "int24"
            },
            {
              "internalType": "contract IHooks",
              "name": "hooks",
              "type": "address"
            }
          ],
          "internalType": "struct PoolKey",
          "name": "",
          "type": "tuple"
        },
        {
          "components": [
            {
              "internalType": "int24",
              "name": "tickLower",
              "type": "int24"
            },
            {
              "internalType": "int24",
              "name": "tickUpper",
              "type": "int24"
            },
            {
              "internalType": "int256",
              "name": "liquidityDelta",
              "type": "int256"
            }
          ],
          "internalType": "struct IPoolManager.ModifyPositionParams",
          "name": "",
          "type": "tuple"
        },
        {
          "internalType": "BalanceDelta",
          "name": "",
          "type": "int256"
        },
        {
          "internalType": "bytes",
          "name": "",
          "type": "bytes"
        }
      ],
      "name": "afterModifyPosition",
      "outputs": [
        {
          "internalType": "bytes4",
          "name": "",
          "type": "bytes4"
        }
      ],
      "stateMutability": "nonpayable",
      "type": "function"
    },
    {
      "inputs": [
        {
          "internalType": "address",
          "name": "",
          "type": "address"
        },
        {
          "components": [
            {
              "internalType": "Currency",
              "name": "currency0",
              "type": "address"
            },
            {
              "internalType": "Currency",
              "name": "currency1",
              "type": "address"
            },
            {
              "internalType": "uint24",
              "name": "fee",
              "type": "uint24"
            },
            {
              "internalType": "int24",
              "name": "tickSpacing",
              "type": "int24"
            },
            {
              "internalType": "contract IHooks",
              "name": "hooks",
              "type": "address"
            }
          ],
          "internalType": "struct PoolKey",
          "name": "",
          "type": "tuple"
        },
        {
          "components": [
            {
              "internalType": "bool",
              "name": "zeroForOne",
              "type": "bool"
            },
            {
              "internalType": "int256",
              "name": "amountSpecified",
              "type": "int256"
            },
            {
              "internalType": "uint160",
              "name": "sqrtPriceLimitX96",
              "type": "uint160"
            }
          ],
          "internalType": "struct IPoolManager.SwapParams",
          "name": "",
          "type": "tuple"
        },
        {
          "internalType": "BalanceDelta",
          "name": "",
          "type": "int256"
        },
        {
          "internalType": "bytes",
          "name": "",
          "type": "bytes"
        }
      ],
      "name": "afterSwap",
      "outputs": [
        {
          "internalType": "bytes4",
          "name": "",
          "type": "bytes4"
        }
      ],
      "stateMutability": "nonpayable",
      "type": "function"
    },
    {
      "inputs": [
        {
          "internalType": "address",
          "name": "",
          "type": "address"
        },
        {
          "components": [
            {
              "internalType": "Currency",
              "name": "currency0",
              "type": "address"
            },
            {
              "internalType": "Currency",
              "name": "currency1",
              "type": "address"
            },
            {
              "internalType": "uint24",
              "name": "fee",
              "type": "uint24"
            },
            {
              "internalType": "int24",
              "name": "tickSpacing",
              "type": "int24"
            },
            {
              "internalType": "contract IHooks",
              "name": "hooks",
              "type": "address"
            }
          ],
          "internalType": "struct PoolKey",
          "name": "",
          "type": "tuple"
        },
        {
          "internalType": "uint256",
          "name": "",
          "type": "uint256"
        },
        {
          "internalType": "uint256",
          "name": "",
          "type": "uint256"
        },
        {
          "internalType": "bytes",
          "name": "",
          "type": "bytes"
        }
      ],
      "name": "beforeDonate",
      "outputs": [
        {
          "internalType": "bytes4",
          "name": "",
          "type": "bytes4"
        }
      ],
      "stateMutability": "nonpayable",
      "type": "function"
    },
    {
      "inputs": [
        {
          "internalType": "address",
          "name": "",
          "type": "address"
        },
        {
          "components": [
            {
              "internalType": "Currency",
              "name": "currency0",
              "type": "address"
            },
            {
              "internalType": "Currency",
              "name": "currency1",
              "type": "address"
            },
            {
              "internalType": "uint24",
              "name": "fee",
              "type": "uint24"
            },
            {
              "internalType": "int24",
              "name": "tickSpacing",
              "type": "int24"
            },
            {
              "internalType": "contract IHooks",
              "name": "hooks",
              "type": "address"
            }
          ],
          "internalType": "struct PoolKey",
          "name": "",
          "type": "tuple"
        },
        {
          "components": [
            {
              "internalType": "int24",
              "name": "tickLower",
              "type": "int24"
            },
            {
              "internalType": "int24",
              "name": "tickUpper",
              "type": "int24"
            },
            {
              "internalType": "int256",
              "name": "liquidityDelta",
              "type": "int256"
            }
          ],
          "internalType": "struct IPoolManager.ModifyPositionParams",
          "name": "",
          "type": "tuple"
        },
        {
          "internalType": "bytes",
          "name": "",
          "type": "bytes"
        }
      ],
      "name": "beforeModifyPosition",
      "outputs": [
        {
          "internalType": "bytes4",
          "name": "",
          "type": "bytes4"
        }
      ],
      "stateMutability": "nonpayable",
      "type": "function"
    },
    {
      "inputs": [
        {
          "internalType": "address",
          "name": "",
          "type": "address"
        },
        {
          "components": [
            {
              "internalType": "Currency",
              "name": "currency0",
              "type": "address"
            },
            {
              "internalType": "Currency",
              "name": "currency1",
              "type": "address"
            },
            {
              "internalType": "uint24",
              "name": "fee",
              "type": "uint24"
            },
            {
              "internalType": "int24",
              "name": "tickSpacing",
              "type": "int24"
            },
            {
              "internalType": "contract IHooks",
              "name": "hooks",
              "type": "address"
            }
          ],
          "internalType": "struct PoolKey",
          "name": "",
          "type": "tuple"
        },
        {
          "components": [
            {
              "internalType": "bool",
              "name": "zeroForOne",
              "type": "bool"
            },
            {
              "internalType": "int256",
              "name": "amountSpecified",
              "type": "int256"
            },
            {
              "internalType": "uint160",
              "name": "sqrtPriceLimitX96",
              "type": "uint160"
            }
          ],
          "internalType": "struct IPoolManager.SwapParams",
          "name": "",
          "type": "tuple"
        },
        {
          "internalType": "bytes",
          "name": "",
          "type": "bytes"
        }
      ],
      "name": "beforeSwap",
      "outputs": [
        {
          "internalType": "bytes4",
          "name": "",
          "type": "bytes4"
        }
      ],
      "stateMutability": "nonpayable",
      "type": "function"
    },
    {
      "inputs": [
        {
          "internalType": "bytes",
          "name": "data",
          "type": "bytes"
        }
      ],
      "name": "lockAcquired",
      "outputs": [
        {
          "internalType": "bytes",
          "name": "",
          "type": "bytes"
        }
      ],
      "stateMutability": "nonpayable",
      "type": "function"
    },
    {
      "inputs": [],
      "name": "poolManager",
      "outputs": [
        {
          "internalType": "contract IPoolManager",
          "name": "",
          "type": "address"
        }
      ],
      "stateMutability": "view",
      "type": "function"
    },
    {
      "inputs": [],
      "name": "getHooksCalls",
      "outputs": [
        {
          "components": [
            {
              "internalType": "bool",
              "name": "beforeInitialize",
              "type": "bool"
            },
            {
              "internalType": "bool",
              "name": "afterInitialize",
              "type": "bool"
            },
            {
              "internalType": "bool",
              "name": "beforeModifyPosition",
              "type": "bool"
            },
            {
              "internalType": "bool",
              "name": "afterModifyPosition",
              "type": "bool"
            },
            {
              "internalType": "bool",
              "name": "beforeSwap",
              "type": "bool"
            },
            {
              "internalType": "bool",
              "name": "afterSwap",
              "type": "bool"
            },
            {
              "internalType": "bool",
              "name": "beforeDonate",
              "type": "bool"
            },
            {
              "internalType": "bool",
              "name": "afterDonate",
              "type": "bool"
            },
            {
              "internalType": "bool",
              "name": "noOp",
              "type": "bool"
            }
          ],
          "internalType": "struct Hooks.Calls",
          "name": "",
          "type": "tuple"
        }
      ],
      "stateMutability": "pure",
      "type": "function"
    },
    {
      "inputs": [
        {
          "internalType": "address",
          "name": "",
          "type": "address"
        },
        {
          "components": [
            {
              "internalType": "Currency",
              "name": "currency0",
              "type": "address"
            },
            {
              "internalType": "Currency",
              "name": "currency1",
              "type": "address"
            },
            {
              "internalType": "uint24",
              "name": "fee",
              "type": "uint24"
            },
            {
              "internalType": "int24",
              "name": "tickSpacing",
              "type": "int24"
            },
            {
              "internalType": "contract IHooks",
              "name": "hooks",
              "type": "address"
            }
          ],
          "internalType": "struct PoolKey",
          "name": "key",
          "type": "tuple"
        },
        {
          "internalType": "uint160",
          "name": "",
          "type": "uint160"
        },
        {
          "internalType": "bytes",
          "name": "",
          "type": "bytes"
        }
      ],
      "name": "beforeInitialize",
      "outputs": [
        {
          "internalType": "bytes4",
          "name": "",
          "type": "bytes4"
        }
      ],
      "stateMutability": "pure",
      "type": "function"
    },
    {
      "inputs": [
        {
          "internalType": "address",
          "name": "sender",
          "type": "address"
        },
        {
          "components": [
            {
              "internalType": "Currency",
              "name": "currency0",
              "type": "address"
            },
            {
              "internalType": "Currency",
              "name": "currency1",
              "type": "address"
            },
            {
              "internalType": "uint24",
              "name": "fee",
              "type": "uint24"
            },
            {
              "internalType": "int24",
              "name": "tickSpacing",
              "type": "int24"
            },
            {
              "internalType": "contract IHooks",
              "name": "hooks",
              "type": "address"
            }
          ],
          "internalType": "struct PoolKey",
          "name": "key",
          "type": "tuple"
        }
      ],
      "name": "getFee",
      "outputs": [
        {
          "internalType": "uint24",
          "name": "",
          "type": "uint24"
        }
      ],
      "stateMutability": "view",
      "type": "function"
    },
    {
      "inputs": [
        {
          "internalType": "address",
          "name": "",
          "type": "address"
        },
        {
          "components": [
            {
              "internalType": "Currency",
              "name": "currency0",
              "type": "address"
            },
            {
              "internalType": "Currency",
              "name": "currency1",
              "type": "address"
            },
            {
              "internalType": "uint24",
              "name": "fee",
              "type": "uint24"
            },
            {
              "internalType": "int24",
              "name": "tickSpacing",
              "type": "int24"
            },
            {
              "internalType": "contract IHooks",
              "name": "hooks",
              "type": "address"
            }
          ],
          "internalType": "struct PoolKey",
          "name": "",
          "type": "tuple"
        },
        {
          "components": [
            {
              "internalType": "bool",
              "name": "zeroForOne",
              "type": "bool"
            },
            {
              "internalType": "int256",
              "name": "amountSpecified",
              "type": "int256"
            },
            {
              "internalType": "uint160",
              "name": "sqrtPriceLimitX96",
              "type": "uint160"
            }
          ],
          "internalType": "struct IPoolManager.SwapParams",
          "name": "",
          "type": "tuple"
        },
        {
          "internalType": "bytes",
          "name": "",
          "type": "bytes"
        }
      ],
      "name": "getFee",
      "outputs": [
        {
          "internalType": "uint24",
          "name": "",
          "type": "uint24"
        }
      ],
      "stateMutability": "view",
      "type": "function"
    }
  ],
  "bytecode": "0x60a0604052346101d457604051601f61090238819003918201601f19168301916001600160401b038311848410176101d8578084926020946040528339810103126101d457516001600160a01b03811681036101d4576080525f6101006100646101ec565b8281528260208201528260408201528260608201528260808201528260a08201528260c08201528260e082015201525f61010061009f6101ec565b600181528260208201528260408201528260608201528260808201528260a08201528260c08201528260e082015201526001609f1b301615156001148015906101c5575b80156101b6575b80156101a7575b8015610198575b8015610189575b801561017a575b801561016b575b801561015c575b6101495763ffffffff421663ffffffff195f5416175f556040516106f5908161020d823960805181818160eb01526101700152f35b630732d7b560e51b5f523060045260245ffd5b5030600160971b161515610114565b5030600160981b16151561010d565b5030600160991b161515610106565b50306001609a1b1615156100ff565b50306001609b1b1615156100f8565b50306001609c1b1615156100f1565b50306001609d1b1615156100ea565b50306001609e1b1615156100e3565b5f80fd5b634e487b7160e01b5f52604160045260245ffd5b6040519061012082016001600160401b038111838210176101d85760405256fe6080806040526004361015610012575f80fd5b5f3560e01c9081630a43ce8914610443575080632ab7a3e2146103c457806330b7cdef1461011a5780633440d82014610338578063575e24b4146100ab578063612c39b714610255578063a910f80f146101e7578063ab6291fe1461013d578063b47b2fb11461011a578063b6a8b0fa146100d1578063dc4c90d3146100d6578063e1b4af69146100d15763fe9a6f45146100ab575f80fd5b346100cd576100b9366104b5565b5050505050630a85dc2960e01b5f5260045ffd5b5f80fd5b610593565b346100cd575f3660031901126100cd576040517f00000000000000000000000000000000000000000000000000000000000000006001600160a01b03168152602090f35b346100cd5761012836610519565b505050505050630a85dc2960e01b5f5260045ffd5b346100cd5760203660031901126100cd5760043567ffffffffffffffff81116100cd5761016e903690600401610487565b7f00000000000000000000000000000000000000000000000000000000000000006001600160a01b031633036101d8576101ac60409160209361062e565b815192839181835280519182918282860152018484015e5f828201840152601f01601f19168101030190f35b63570c108560e11b5f5260045ffd5b346100cd576101203660031901126100cd57610201610471565b5060a03660231901126100cd5761021661057d565b5060e4358060020b036100cd576101043567ffffffffffffffff81116100cd57610244903690600401610487565b5050630a85dc2960e01b5f5260045ffd5b346100cd575f3660031901126100cd575f6101006102716105f9565b8281528260208201528260408201528260608201528260808201528260a08201528260c08201528260e082015201526101206102ab6105f9565b6001815260208101905f825260408101905f8252606081015f8152608082015f815260a08301905f825260c08401925f845261010060e08601955f875201955f87526040519760018952511515602089015251151560408801525115156060870152511515608086015251151560a085015251151560c084015251151560e0830152511515610100820152f35b346100cd576101003660031901126100cd57610352610471565b5060a03660231901126100cd5761036761057d565b5060e43567ffffffffffffffff81116100cd57610388903690600401610487565b505060643562ffffff811681036100cd576280000016156103b5576040516301a206c160e51b8152602090f35b6315b3d69f60e31b5f5260045ffd5b346100cd576103d2366104b5565b505050505063ffffffff5f541663ffffffff42160363ffffffff811161042f5762ffffff606491160262ffffff811690810361042f57603c62ffffff910416610bb80162ffffff811161042f5760209062ffffff60405191168152f35b634e487b7160e01b5f52601160045260245ffd5b346100cd5760c03660031901126100cd5761045c610471565b5060a03660231901126100cd57805f60209252f35b600435906001600160a01b03821682036100cd57565b9181601f840112156100cd5782359167ffffffffffffffff83116100cd57602083818601950101116100cd57565b906101406003198301126100cd576004356001600160a01b03811681036100cd579160a06023198201126100cd57602491606060c3198301126100cd5760c491610124359067ffffffffffffffff82116100cd5761051591600401610487565b9091565b6101606003198201126100cd576004356001600160a01b03811681036100cd579160a06023198301126100cd57602491606060c3198201126100cd5760c4916101243591610144359067ffffffffffffffff82116100cd5761051591600401610487565b60c435906001600160a01b03821682036100cd57565b346100cd576101203660031901126100cd576004356001600160a01b03811681036100cd575060a03660231901126100cd576101043567ffffffffffffffff81116100cd576105e6903690600401610487565b5050630a85dc2960e01b5f908152600490fd5b60405190610120820182811067ffffffffffffffff82111761061a57604052565b634e487b7160e01b5f52604160045260245ffd5b5f9182918160405192839283378101838152039082305af1903d156106b7573d9167ffffffffffffffff831161061a5760405192601f8101601f19908116603f0116840167ffffffffffffffff81118582101761061a5760405283523d5f602085013e5b6106b557508051156106a657602081519101fd5b6314815f4760e31b5f5260045ffd5b565b60609161069256fea264697066735822122050d7a1da145e0d2bb746e1b4d113239a9c8f43eaf022e0ff005fbf8c05f4801264736f6c634300081c0033",
  "immutableReferences": {
    "14615": [
      {
        "length": 32,
        "start": 235
      },
      {
        "length": 32,
        "start": 368
      }
    ]
  },
  "source": "// SPDX-License-Identifier: UNLICENSED\npragma solidity ^0.8.19;\n\nimport {IPoolManager} from \"../../../../v4-core/src/interfaces/IPoolManager.sol\";\nimport {IDynamicFeeManager} from \"../../../../v4-core/src/interfaces/IDynamicFeeManager.sol\";\nimport {Hooks} from \"../../../../v4-core/src/libraries/Hooks.sol\";\nimport {FeeLibrary} from \"../../../../v4-core/src/libraries/FeeLibrary.sol\";\nimport {BaseHook} from \"../../BaseHook.sol\";\nimport {PoolKey} from \"../../../../v4-core/src/types/PoolKey.sol\";\n\ncontract VolatilityOracle is BaseHook, IDynamicFeeManager {\n    using FeeLibrary for uint24;\n\n    error MustUseDynamicFee();\n\n    uint32 deployTimestamp;\n\n    function getFee(\n        address,\n        PoolKey calldata,\n        IPoolManager.SwapParams calldata,\n        bytes calldata\n    ) external view returns (uint24) {\n        uint24 startingFee = 3000;\n        uint32 lapsed = _blockTimestamp() - deployTimestamp;\n        return startingFee + (uint24(lapsed) * 100) / 60; // 100 bps a minute\n    }\n\n    /// @dev For mocking\n    function _blockTimestamp() internal view virtual returns (uint32) {\n        return uint32(block.timestamp);\n    }\n\n    constructor(IPoolManager _poolManager) BaseHook(_poolManager) {\n        deployTimestamp = _blockTimestamp();\n    }\n\n    function getHooksCalls() public pure override returns (Hooks.Calls memory) {\n        return\n            Hooks.Calls({\n                beforeInitialize: true,\n                afterInitialize: false,\n                beforeModifyPosition: false,\n                afterModifyPosition: false,\n                beforeSwap: false,\n                afterSwap: false,\n                beforeDonate: false,\n                afterDonate: false,\n                noOp: false\n            });\n    }\n\n    function beforeInitialize(\n        address,\n        PoolKey calldata key,\n        uint160,\n        bytes calldata\n    ) external pure override returns (bytes4) {\n        if (!key.fee.isDynamicFee()) revert MustUseDynamicFee();\n        return VolatilityOracle.beforeInitialize.selector;\n    }\n\n    function getFee(\n        address sender,\n        PoolKey calldata key\n    ) external view override returns (uint24) {}\n}\n",
  "sourcePath": "/home/stephensb/sb-labs/solidity-contracts/contracts/v4-periphery/contracts/hooks/examples/VolatilityOracle.sol",
  "compiler": {
    "name": "solc",
    "version": "0.8.28+commit.7893614a.Emscripten.clang"
  },
  "schemaVersion": "3.4.12",
  "updatedAt": "2024-12-18T07:36:00.897Z",
  "devdoc": {
    "errors": {
      "HookAddressNotValid(address)": [
        {
          "params": {
            "hooks": "The address of the hooks contract"
          }
        }
      ]
    },
    "kind": "dev",
    "methods": {},
    "version": 1
  },
  "userdoc": {
    "errors": {
      "HookAddressNotValid(address)": [
        {
          "notice": "Thrown if the address will not lead to the specified hook calls being called"
        }
      ]
    },
    "kind": "user",
    "methods": {
      "poolManager()": {
        "notice": "The address of the pool manager"
      }
    },
    "version": 1
  }
}