{
  "contractName": "VRF",
  "abi": [
    {
      "inputs": [],
      "name": "AA",
      "outputs": [
        {
          "internalType": "uint256",
          "name": "",
          "type": "uint256"
        }
      ],
      "stateMutability": "view",
      "type": "function"
    },
    {
      "inputs": [],
      "name": "BB",
      "outputs": [
        {
          "internalType": "uint256",
          "name": "",
          "type": "uint256"
        }
      ],
      "stateMutability": "view",
      "type": "function"
    },
    {
      "inputs": [],
      "name": "GX",
      "outputs": [
        {
          "internalType": "uint256",
          "name": "",
          "type": "uint256"
        }
      ],
      "stateMutability": "view",
      "type": "function"
    },
    {
      "inputs": [],
      "name": "GY",
      "outputs": [
        {
          "internalType": "uint256",
          "name": "",
          "type": "uint256"
        }
      ],
      "stateMutability": "view",
      "type": "function"
    },
    {
      "inputs": [],
      "name": "NN",
      "outputs": [
        {
          "internalType": "uint256",
          "name": "",
          "type": "uint256"
        }
      ],
      "stateMutability": "view",
      "type": "function"
    },
    {
      "inputs": [],
      "name": "PP",
      "outputs": [
        {
          "internalType": "uint256",
          "name": "",
          "type": "uint256"
        }
      ],
      "stateMutability": "view",
      "type": "function"
    }
  ],
  "bytecode": "0x610229610053600b82828239805160001a607314610046577f4e487b7100000000000000000000000000000000000000000000000000000000600052600060045260246000fd5b30600052607381538281f3fe730000000000000000000000000000000000000000301460806040526004361061006c5760003560e01c806303a507be146100715780635727dc5c1461008f5780637a308a4c146100ad5780639870e2a4146100cb578063997da8d4146100e9578063eeeac01e14610107575b600080fd5b610079610125565b60405161008691906101d8565b60405180910390f35b610097610149565b6040516100a491906101d8565b60405180910390f35b6100b561014e565b6040516100c291906101d8565b60405180910390f35b6100d3610172565b6040516100e091906101d8565b60405180910390f35b6100f1610196565b6040516100fe91906101d8565b60405180910390f35b61010f61019b565b60405161011c91906101d8565b60405180910390f35b7f79be667ef9dcbbac55a06295ce870b07029bfcdb2dce28d959f2815b16f8179881565b600781565b7f483ada7726a3c4655da4fbfc0e1108a8fd17b448a68554199c47d08ffb10d4b881565b7ffffffffffffffffffffffffffffffffebaaedce6af48a03bbfd25e8cd036414181565b600081565b7ffffffffffffffffffffffffffffffffffffffffffffffffffffffffefffffc2f81565b6000819050919050565b6101d2816101bf565b82525050565b60006020820190506101ed60008301846101c9565b9291505056fea2646970667358221220d38cf947cf11a94e8d7283474d3c706d4f81f7c63874ea27f94cfa4082e2cbab64736f6c63430008110033",
  "immutableReferences": {},
  "source": "\n\n// File: @openzeppelin/contracts/utils/introspection/IERC165.sol\n// SPDX-License-Identifier: MIT\n// OpenZeppelin Contracts v4.4.1 (utils/introspection/IERC165.sol)\n/**\n * @dev Interface of the ERC165 standard, as defined in the\n * https://eips.ethereum.org/EIPS/eip-165[EIP].\n *\n * Implementers can declare support of contract interfaces, which can then be\n * queried by others ({ERC165Checker}).\n *\n * For an implementation, see {ERC165}.\n */\ninterface IERC165 {\n    /**\n     * @dev Returns true if this contract implements the interface defined by\n     * `interfaceId`. See the corresponding\n     * https://eips.ethereum.org/EIPS/eip-165#how-interfaces-are-identified[EIP section]\n     * to learn more about how these ids are created.\n     *\n     * This function call must use less than 30 000 gas.\n     */\n    function supportsInterface(bytes4 interfaceId) external view returns (bool);\n}\n// File: @openzeppelin/contracts/token/ERC721/IERC721.sol\n\n// OpenZeppelin Contracts (last updated v4.8.0) (token/ERC721/IERC721.sol)\n/**\n * @dev Required interface of an ERC721 compliant contract.\n */\ninterface IERC721 is IERC165 {\n    /**\n     * @dev Emitted when `tokenId` token is transferred from `from` to `to`.\n     */\n    event Transfer(address indexed from, address indexed to, uint256 indexed tokenId);\n    /**\n     * @dev Emitted when `owner` enables `approved` to manage the `tokenId` token.\n     */\n    event Approval(address indexed owner, address indexed approved, uint256 indexed tokenId);\n    /**\n     * @dev Emitted when `owner` enables or disables (`approved`) `operator` to manage all of its assets.\n     */\n    event ApprovalForAll(address indexed owner, address indexed operator, bool approved);\n    /**\n     * @dev Returns the number of tokens in ``owner``'s account.\n     */\n    function balanceOf(address owner) external view returns (uint256 balance);\n    /**\n     * @dev Returns the owner of the `tokenId` token.\n     *\n     * Requirements:\n     *\n     * - `tokenId` must exist.\n     */\n    function ownerOf(uint256 tokenId) external view returns (address owner);\n    /**\n     * @dev Safely transfers `tokenId` token from `from` to `to`.\n     *\n     * Requirements:\n     *\n     * - `from` cannot be the zero address.\n     * - `to` cannot be the zero address.\n     * - `tokenId` token must exist and be owned by `from`.\n     * - If the caller is not `from`, it must be approved to move this token by either {approve} or {setApprovalForAll}.\n     * - If `to` refers to a smart contract, it must implement {IERC721Receiver-onERC721Received}, which is called upon a safe transfer.\n     *\n     * Emits a {Transfer} event.\n     */\n    function safeTransferFrom(\n        address from,\n        address to,\n        uint256 tokenId,\n        bytes calldata data\n    ) external;\n    /**\n     * @dev Safely transfers `tokenId` token from `from` to `to`, checking first that contract recipients\n     * are aware of the ERC721 protocol to prevent tokens from being forever locked.\n     *\n     * Requirements:\n     *\n     * - `from` cannot be the zero address.\n     * - `to` cannot be the zero address.\n     * - `tokenId` token must exist and be owned by `from`.\n     * - If the caller is not `from`, it must have been allowed to move this token by either {approve} or {setApprovalForAll}.\n     * - If `to` refers to a smart contract, it must implement {IERC721Receiver-onERC721Received}, which is called upon a safe transfer.\n     *\n     * Emits a {Transfer} event.\n     */\n    function safeTransferFrom(\n        address from,\n        address to,\n        uint256 tokenId\n    ) external;\n    /**\n     * @dev Transfers `tokenId` token from `from` to `to`.\n     *\n     * WARNING: Note that the caller is responsible to confirm that the recipient is capable of receiving ERC721\n     * or else they may be permanently lost. Usage of {safeTransferFrom} prevents loss, though the caller must\n     * understand this adds an external call which potentially creates a reentrancy vulnerability.\n     *\n     * Requirements:\n     *\n     * - `from` cannot be the zero address.\n     * - `to` cannot be the zero address.\n     * - `tokenId` token must be owned by `from`.\n     * - If the caller is not `from`, it must be approved to move this token by either {approve} or {setApprovalForAll}.\n     *\n     * Emits a {Transfer} event.\n     */\n    function transferFrom(\n        address from,\n        address to,\n        uint256 tokenId\n    ) external;\n    /**\n     * @dev Gives permission to `to` to transfer `tokenId` token to another account.\n     * The approval is cleared when the token is transferred.\n     *\n     * Only a single account can be approved at a time, so approving the zero address clears previous approvals.\n     *\n     * Requirements:\n     *\n     * - The caller must own the token or be an approved operator.\n     * - `tokenId` must exist.\n     *\n     * Emits an {Approval} event.\n     */\n    function approve(address to, uint256 tokenId) external;\n    /**\n     * @dev Approve or remove `operator` as an operator for the caller.\n     * Operators can call {transferFrom} or {safeTransferFrom} for any token owned by the caller.\n     *\n     * Requirements:\n     *\n     * - The `operator` cannot be the caller.\n     *\n     * Emits an {ApprovalForAll} event.\n     */\n    function setApprovalForAll(address operator, bool _approved) external;\n    /**\n     * @dev Returns the account approved for `tokenId` token.\n     *\n     * Requirements:\n     *\n     * - `tokenId` must exist.\n     */\n    function getApproved(uint256 tokenId) external view returns (address operator);\n    /**\n     * @dev Returns if the `operator` is allowed to manage all of the assets of `owner`.\n     *\n     * See {setApprovalForAll}\n     */\n    function isApprovedForAll(address owner, address operator) external view returns (bool);\n}\n// File: @openzeppelin/contracts/token/ERC721/IERC721Receiver.sol\n\n// OpenZeppelin Contracts (last updated v4.6.0) (token/ERC721/IERC721Receiver.sol)\n/**\n * @title ERC721 token receiver interface\n * @dev Interface for any contract that wants to support safeTransfers\n * from ERC721 asset contracts.\n */\ninterface IERC721Receiver {\n    /**\n     * @dev Whenever an {IERC721} `tokenId` token is transferred to this contract via {IERC721-safeTransferFrom}\n     * by `operator` from `from`, this function is called.\n     *\n     * It must return its Solidity selector to confirm the token transfer.\n     * If any other value is returned or the interface is not implemented by the recipient, the transfer will be reverted.\n     *\n     * The selector can be obtained in Solidity with `IERC721Receiver.onERC721Received.selector`.\n     */\n    function onERC721Received(\n        address operator,\n        address from,\n        uint256 tokenId,\n        bytes calldata data\n    ) external returns (bytes4);\n}\n// File: @openzeppelin/contracts/token/ERC721/extensions/IERC721Metadata.sol\n\n// OpenZeppelin Contracts v4.4.1 (token/ERC721/extensions/IERC721Metadata.sol)\n/**\n * @title ERC-721 Non-Fungible Token Standard, optional metadata extension\n * @dev See https://eips.ethereum.org/EIPS/eip-721\n */\ninterface IERC721Metadata is IERC721 {\n    /**\n     * @dev Returns the token collection name.\n     */\n    function name() external view returns (string memory);\n    /**\n     * @dev Returns the token collection symbol.\n     */\n    function symbol() external view returns (string memory);\n    /**\n     * @dev Returns the Uniform Resource Identifier (URI) for `tokenId` token.\n     */\n    function tokenURI(uint256 tokenId) external view returns (string memory);\n}\n// File: @openzeppelin/contracts/utils/Address.sol\n\n// OpenZeppelin Contracts (last updated v4.8.0) (utils/Address.sol)\n/**\n * @dev Collection of functions related to the address type\n */\nlibrary Address {\n    /**\n     * @dev Returns true if `account` is a contract.\n     *\n     * [IMPORTANT]\n     * ====\n     * It is unsafe to assume that an address for which this function returns\n     * false is an externally-owned account (EOA) and not a contract.\n     *\n     * Among others, `isContract` will return false for the following\n     * types of addresses:\n     *\n     *  - an externally-owned account\n     *  - a contract in construction\n     *  - an address where a contract will be created\n     *  - an address where a contract lived, but was destroyed\n     * ====\n     *\n     * [IMPORTANT]\n     * ====\n     * You shouldn't rely on `isContract` to protect against flash loan attacks!\n     *\n     * Preventing calls from contracts is highly discouraged. It breaks composability, breaks support for smart wallets\n     * like Gnosis Safe, and does not provide security since it can be circumvented by calling from a contract\n     * constructor.\n     * ====\n     */\n    function isContract(address account) internal view returns (bool) {\n        // This method relies on extcodesize/address.code.length, which returns 0\n        // for contracts in construction, since the code is only stored at the end\n        // of the constructor execution.\n        return account.code.length > 0;\n    }\n    /**\n     * @dev Replacement for Solidity's `transfer`: sends `amount` wei to\n     * `recipient`, forwarding all available gas and reverting on errors.\n     *\n     * https://eips.ethereum.org/EIPS/eip-1884[EIP1884] increases the gas cost\n     * of certain opcodes, possibly making contracts go over the 2300 gas limit\n     * imposed by `transfer`, making them unable to receive funds via\n     * `transfer`. {sendValue} removes this limitation.\n     *\n     * https://diligence.consensys.net/posts/2019/09/stop-using-soliditys-transfer-now/[Learn more].\n     *\n     * IMPORTANT: because control is transferred to `recipient`, care must be\n     * taken to not create reentrancy vulnerabilities. Consider using\n     * {ReentrancyGuard} or the\n     * https://solidity.readthedocs.io/en/v0.5.11/security-considerations.html#use-the-checks-effects-interactions-pattern[checks-effects-interactions pattern].\n     */\n    function sendValue(address payable recipient, uint256 amount) internal {\n        require(address(this).balance >= amount, \"Address: insufficient balance\");\n        (bool success, ) = recipient.call{value: amount}(\"\");\n        require(success, \"Address: unable to send value, recipient may have reverted\");\n    }\n    /**\n     * @dev Performs a Solidity function call using a low level `call`. A\n     * plain `call` is an unsafe replacement for a function call: use this\n     * function instead.\n     *\n     * If `target` reverts with a revert reason, it is bubbled up by this\n     * function (like regular Solidity function calls).\n     *\n     * Returns the raw returned data. To convert to the expected return value,\n     * use https://solidity.readthedocs.io/en/latest/units-and-global-variables.html?highlight=abi.decode#abi-encoding-and-decoding-functions[`abi.decode`].\n     *\n     * Requirements:\n     *\n     * - `target` must be a contract.\n     * - calling `target` with `data` must not revert.\n     *\n     * _Available since v3.1._\n     */\n    function functionCall(address target, bytes memory data) internal returns (bytes memory) {\n        return functionCallWithValue(target, data, 0, \"Address: low-level call failed\");\n    }\n    /**\n     * @dev Same as {xref-Address-functionCall-address-bytes-}[`functionCall`], but with\n     * `errorMessage` as a fallback revert reason when `target` reverts.\n     *\n     * _Available since v3.1._\n     */\n    function functionCall(\n        address target,\n        bytes memory data,\n        string memory errorMessage\n    ) internal returns (bytes memory) {\n        return functionCallWithValue(target, data, 0, errorMessage);\n    }\n    /**\n     * @dev Same as {xref-Address-functionCall-address-bytes-}[`functionCall`],\n     * but also transferring `value` wei to `target`.\n     *\n     * Requirements:\n     *\n     * - the calling contract must have an ETH balance of at least `value`.\n     * - the called Solidity function must be `payable`.\n     *\n     * _Available since v3.1._\n     */\n    function functionCallWithValue(\n        address target,\n        bytes memory data,\n        uint256 value\n    ) internal returns (bytes memory) {\n        return functionCallWithValue(target, data, value, \"Address: low-level call with value failed\");\n    }\n    /**\n     * @dev Same as {xref-Address-functionCallWithValue-address-bytes-uint256-}[`functionCallWithValue`], but\n     * with `errorMessage` as a fallback revert reason when `target` reverts.\n     *\n     * _Available since v3.1._\n     */\n    function functionCallWithValue(\n        address target,\n        bytes memory data,\n        uint256 value,\n        string memory errorMessage\n    ) internal returns (bytes memory) {\n        require(address(this).balance >= value, \"Address: insufficient balance for call\");\n        (bool success, bytes memory returndata) = target.call{value: value}(data);\n        return verifyCallResultFromTarget(target, success, returndata, errorMessage);\n    }\n    /**\n     * @dev Same as {xref-Address-functionCall-address-bytes-}[`functionCall`],\n     * but performing a static call.\n     *\n     * _Available since v3.3._\n     */\n    function functionStaticCall(address target, bytes memory data) internal view returns (bytes memory) {\n        return functionStaticCall(target, data, \"Address: low-level static call failed\");\n    }\n    /**\n     * @dev Same as {xref-Address-functionCall-address-bytes-string-}[`functionCall`],\n     * but performing a static call.\n     *\n     * _Available since v3.3._\n     */\n    function functionStaticCall(\n        address target,\n        bytes memory data,\n        string memory errorMessage\n    ) internal view returns (bytes memory) {\n        (bool success, bytes memory returndata) = target.staticcall(data);\n        return verifyCallResultFromTarget(target, success, returndata, errorMessage);\n    }\n    /**\n     * @dev Same as {xref-Address-functionCall-address-bytes-}[`functionCall`],\n     * but performing a delegate call.\n     *\n     * _Available since v3.4._\n     */\n    function functionDelegateCall(address target, bytes memory data) internal returns (bytes memory) {\n        return functionDelegateCall(target, data, \"Address: low-level delegate call failed\");\n    }\n    /**\n     * @dev Same as {xref-Address-functionCall-address-bytes-string-}[`functionCall`],\n     * but performing a delegate call.\n     *\n     * _Available since v3.4._\n     */\n    function functionDelegateCall(\n        address target,\n        bytes memory data,\n        string memory errorMessage\n    ) internal returns (bytes memory) {\n        (bool success, bytes memory returndata) = target.delegatecall(data);\n        return verifyCallResultFromTarget(target, success, returndata, errorMessage);\n    }\n    /**\n     * @dev Tool to verify that a low level call to smart-contract was successful, and revert (either by bubbling\n     * the revert reason or using the provided one) in case of unsuccessful call or if target was not a contract.\n     *\n     * _Available since v4.8._\n     */\n    function verifyCallResultFromTarget(\n        address target,\n        bool success,\n        bytes memory returndata,\n        string memory errorMessage\n    ) internal view returns (bytes memory) {\n        if (success) {\n            if (returndata.length == 0) {\n                // only check isContract if the call was successful and the return data is empty\n                // otherwise we already know that it was a contract\n                require(isContract(target), \"Address: call to non-contract\");\n            }\n            return returndata;\n        } else {\n            _revert(returndata, errorMessage);\n        }\n    }\n    /**\n     * @dev Tool to verify that a low level call was successful, and revert if it wasn't, either by bubbling the\n     * revert reason or using the provided one.\n     *\n     * _Available since v4.3._\n     */\n    function verifyCallResult(\n        bool success,\n        bytes memory returndata,\n        string memory errorMessage\n    ) internal pure returns (bytes memory) {\n        if (success) {\n            return returndata;\n        } else {\n            _revert(returndata, errorMessage);\n        }\n    }\n    function _revert(bytes memory returndata, string memory errorMessage) private pure {\n        // Look for revert reason and bubble it up if present\n        if (returndata.length > 0) {\n            // The easiest way to bubble the revert reason is using memory via assembly\n            /// @solidity memory-safe-assembly\n            assembly {\n                let returndata_size := mload(returndata)\n                revert(add(32, returndata), returndata_size)\n            }\n        } else {\n            revert(errorMessage);\n        }\n    }\n}\n// File: @openzeppelin/contracts/utils/Context.sol\n\n// OpenZeppelin Contracts v4.4.1 (utils/Context.sol)\n/**\n * @dev Provides information about the current execution context, including the\n * sender of the transaction and its data. While these are generally available\n * via msg.sender and msg.data, they should not be accessed in such a direct\n * manner, since when dealing with meta-transactions the account sending and\n * paying for execution may not be the actual sender (as far as an application\n * is concerned).\n *\n * This contract is only required for intermediate, library-like contracts.\n */\nabstract contract Context {\n    function _msgSender() internal view virtual returns (address) {\n        return msg.sender;\n    }\n    function _msgData() internal view virtual returns (bytes calldata) {\n        return msg.data;\n    }\n}\n// File: @openzeppelin/contracts/utils/math/Math.sol\n\n// OpenZeppelin Contracts (last updated v4.8.0) (utils/math/Math.sol)\n/**\n * @dev Standard math utilities missing in the Solidity language.\n */\nlibrary Math {\n    enum Rounding {\n        Down, // Toward negative infinity\n        Up, // Toward infinity\n        Zero // Toward zero\n    }\n    /**\n     * @dev Returns the largest of two numbers.\n     */\n    function max(uint256 a, uint256 b) internal pure returns (uint256) {\n        return a > b ? a : b;\n    }\n    /**\n     * @dev Returns the smallest of two numbers.\n     */\n    function min(uint256 a, uint256 b) internal pure returns (uint256) {\n        return a < b ? a : b;\n    }\n    /**\n     * @dev Returns the average of two numbers. The result is rounded towards\n     * zero.\n     */\n    function average(uint256 a, uint256 b) internal pure returns (uint256) {\n        // (a + b) / 2 can overflow.\n        return (a & b) + (a ^ b) / 2;\n    }\n    /**\n     * @dev Returns the ceiling of the division of two numbers.\n     *\n     * This differs from standard division with `/` in that it rounds up instead\n     * of rounding down.\n     */\n    function ceilDiv(uint256 a, uint256 b) internal pure returns (uint256) {\n        // (a + b - 1) / b can overflow on addition, so we distribute.\n        return a == 0 ? 0 : (a - 1) / b + 1;\n    }\n    /**\n     * @notice Calculates floor(x * y / denominator) with full precision. Throws if result overflows a uint256 or denominator == 0\n     * @dev Original credit to Remco Bloemen under MIT license (https://xn--2-umb.com/21/muldiv)\n     * with further edits by Uniswap Labs also under MIT license.\n     */\n    function mulDiv(\n        uint256 x,\n        uint256 y,\n        uint256 denominator\n    ) internal pure returns (uint256 result) {\n        unchecked {\n            // 512-bit multiply [prod1 prod0] = x * y. Compute the product mod 2^256 and mod 2^256 - 1, then use\n            // use the Chinese Remainder Theorem to reconstruct the 512 bit result. The result is stored in two 256\n            // variables such that product = prod1 * 2^256 + prod0.\n            uint256 prod0; // Least significant 256 bits of the product\n            uint256 prod1; // Most significant 256 bits of the product\n            assembly {\n                let mm := mulmod(x, y, not(0))\n                prod0 := mul(x, y)\n                prod1 := sub(sub(mm, prod0), lt(mm, prod0))\n            }\n            // Handle non-overflow cases, 256 by 256 division.\n            if (prod1 == 0) {\n                return prod0 / denominator;\n            }\n            // Make sure the result is less than 2^256. Also prevents denominator == 0.\n            require(denominator > prod1);\n            ///////////////////////////////////////////////\n            // 512 by 256 division.\n            ///////////////////////////////////////////////\n            // Make division exact by subtracting the remainder from [prod1 prod0].\n            uint256 remainder;\n            assembly {\n                // Compute remainder using mulmod.\n                remainder := mulmod(x, y, denominator)\n                // Subtract 256 bit number from 512 bit number.\n                prod1 := sub(prod1, gt(remainder, prod0))\n                prod0 := sub(prod0, remainder)\n            }\n            // Factor powers of two out of denominator and compute largest power of two divisor of denominator. Always >= 1.\n            // See https://cs.stackexchange.com/q/138556/92363.\n            // Does not overflow because the denominator cannot be zero at this stage in the function.\n            uint256 twos = denominator & (~denominator + 1);\n            assembly {\n                // Divide denominator by twos.\n                denominator := div(denominator, twos)\n                // Divide [prod1 prod0] by twos.\n                prod0 := div(prod0, twos)\n                // Flip twos such that it is 2^256 / twos. If twos is zero, then it becomes one.\n                twos := add(div(sub(0, twos), twos), 1)\n            }\n            // Shift in bits from prod1 into prod0.\n            prod0 |= prod1 * twos;\n            // Invert denominator mod 2^256. Now that denominator is an odd number, it has an inverse modulo 2^256 such\n            // that denominator * inv = 1 mod 2^256. Compute the inverse by starting with a seed that is correct for\n            // four bits. That is, denominator * inv = 1 mod 2^4.\n            uint256 inverse = (3 * denominator) ^ 2;\n            // Use the Newton-Raphson iteration to improve the precision. Thanks to Hensel's lifting lemma, this also works\n            // in modular arithmetic, doubling the correct bits in each step.\n            inverse *= 2 - denominator * inverse; // inverse mod 2^8\n            inverse *= 2 - denominator * inverse; // inverse mod 2^16\n            inverse *= 2 - denominator * inverse; // inverse mod 2^32\n            inverse *= 2 - denominator * inverse; // inverse mod 2^64\n            inverse *= 2 - denominator * inverse; // inverse mod 2^128\n            inverse *= 2 - denominator * inverse; // inverse mod 2^256\n            // Because the division is now exact we can divide by multiplying with the modular inverse of denominator.\n            // This will give us the correct result modulo 2^256. Since the preconditions guarantee that the outcome is\n            // less than 2^256, this is the final result. We don't need to compute the high bits of the result and prod1\n            // is no longer required.\n            result = prod0 * inverse;\n            return result;\n        }\n    }\n    /**\n     * @notice Calculates x * y / denominator with full precision, following the selected rounding direction.\n     */\n    function mulDiv(\n        uint256 x,\n        uint256 y,\n        uint256 denominator,\n        Rounding rounding\n    ) internal pure returns (uint256) {\n        uint256 result = mulDiv(x, y, denominator);\n        if (rounding == Rounding.Up && mulmod(x, y, denominator) > 0) {\n            result += 1;\n        }\n        return result;\n    }\n    /**\n     * @dev Returns the square root of a number. If the number is not a perfect square, the value is rounded down.\n     *\n     * Inspired by Henry S. Warren, Jr.'s \"Hacker's Delight\" (Chapter 11).\n     */\n    function sqrt(uint256 a) internal pure returns (uint256) {\n        if (a == 0) {\n            return 0;\n        }\n        // For our first guess, we get the biggest power of 2 which is smaller than the square root of the target.\n        //\n        // We know that the \"msb\" (most significant bit) of our target number `a` is a power of 2 such that we have\n        // `msb(a) <= a < 2*msb(a)`. This value can be written `msb(a)=2**k` with `k=log2(a)`.\n        //\n        // This can be rewritten `2**log2(a) <= a < 2**(log2(a) + 1)`\n        // → `sqrt(2**k) <= sqrt(a) < sqrt(2**(k+1))`\n        // → `2**(k/2) <= sqrt(a) < 2**((k+1)/2) <= 2**(k/2 + 1)`\n        //\n        // Consequently, `2**(log2(a) / 2)` is a good first approximation of `sqrt(a)` with at least 1 correct bit.\n        uint256 result = 1 << (log2(a) >> 1);\n        // At this point `result` is an estimation with one bit of precision. We know the true value is a uint128,\n        // since it is the square root of a uint256. Newton's method converges quadratically (precision doubles at\n        // every iteration). We thus need at most 7 iteration to turn our partial result with one bit of precision\n        // into the expected uint128 result.\n        unchecked {\n            result = (result + a / result) >> 1;\n            result = (result + a / result) >> 1;\n            result = (result + a / result) >> 1;\n            result = (result + a / result) >> 1;\n            result = (result + a / result) >> 1;\n            result = (result + a / result) >> 1;\n            result = (result + a / result) >> 1;\n            return min(result, a / result);\n        }\n    }\n    /**\n     * @notice Calculates sqrt(a), following the selected rounding direction.\n     */\n    function sqrt(uint256 a, Rounding rounding) internal pure returns (uint256) {\n        unchecked {\n            uint256 result = sqrt(a);\n            return result + (rounding == Rounding.Up && result * result < a ? 1 : 0);\n        }\n    }\n    /**\n     * @dev Return the log in base 2, rounded down, of a positive value.\n     * Returns 0 if given 0.\n     */\n    function log2(uint256 value) internal pure returns (uint256) {\n        uint256 result = 0;\n        unchecked {\n            if (value >> 128 > 0) {\n                value >>= 128;\n                result += 128;\n            }\n            if (value >> 64 > 0) {\n                value >>= 64;\n                result += 64;\n            }\n            if (value >> 32 > 0) {\n                value >>= 32;\n                result += 32;\n            }\n            if (value >> 16 > 0) {\n                value >>= 16;\n                result += 16;\n            }\n            if (value >> 8 > 0) {\n                value >>= 8;\n                result += 8;\n            }\n            if (value >> 4 > 0) {\n                value >>= 4;\n                result += 4;\n            }\n            if (value >> 2 > 0) {\n                value >>= 2;\n                result += 2;\n            }\n            if (value >> 1 > 0) {\n                result += 1;\n            }\n        }\n        return result;\n    }\n    /**\n     * @dev Return the log in base 2, following the selected rounding direction, of a positive value.\n     * Returns 0 if given 0.\n     */\n    function log2(uint256 value, Rounding rounding) internal pure returns (uint256) {\n        unchecked {\n            uint256 result = log2(value);\n            return result + (rounding == Rounding.Up && 1 << result < value ? 1 : 0);\n        }\n    }\n    /**\n     * @dev Return the log in base 10, rounded down, of a positive value.\n     * Returns 0 if given 0.\n     */\n    function log10(uint256 value) internal pure returns (uint256) {\n        uint256 result = 0;\n        unchecked {\n            if (value >= 10**64) {\n                value /= 10**64;\n                result += 64;\n            }\n            if (value >= 10**32) {\n                value /= 10**32;\n                result += 32;\n            }\n            if (value >= 10**16) {\n                value /= 10**16;\n                result += 16;\n            }\n            if (value >= 10**8) {\n                value /= 10**8;\n                result += 8;\n            }\n            if (value >= 10**4) {\n                value /= 10**4;\n                result += 4;\n            }\n            if (value >= 10**2) {\n                value /= 10**2;\n                result += 2;\n            }\n            if (value >= 10**1) {\n                result += 1;\n            }\n        }\n        return result;\n    }\n    /**\n     * @dev Return the log in base 10, following the selected rounding direction, of a positive value.\n     * Returns 0 if given 0.\n     */\n    function log10(uint256 value, Rounding rounding) internal pure returns (uint256) {\n        unchecked {\n            uint256 result = log10(value);\n            return result + (rounding == Rounding.Up && 10**result < value ? 1 : 0);\n        }\n    }\n    /**\n     * @dev Return the log in base 256, rounded down, of a positive value.\n     * Returns 0 if given 0.\n     *\n     * Adding one to the result gives the number of pairs of hex symbols needed to represent `value` as a hex string.\n     */\n    function log256(uint256 value) internal pure returns (uint256) {\n        uint256 result = 0;\n        unchecked {\n            if (value >> 128 > 0) {\n                value >>= 128;\n                result += 16;\n            }\n            if (value >> 64 > 0) {\n                value >>= 64;\n                result += 8;\n            }\n            if (value >> 32 > 0) {\n                value >>= 32;\n                result += 4;\n            }\n            if (value >> 16 > 0) {\n                value >>= 16;\n                result += 2;\n            }\n            if (value >> 8 > 0) {\n                result += 1;\n            }\n        }\n        return result;\n    }\n    /**\n     * @dev Return the log in base 10, following the selected rounding direction, of a positive value.\n     * Returns 0 if given 0.\n     */\n    function log256(uint256 value, Rounding rounding) internal pure returns (uint256) {\n        unchecked {\n            uint256 result = log256(value);\n            return result + (rounding == Rounding.Up && 1 << (result * 8) < value ? 1 : 0);\n        }\n    }\n}\n// File: @openzeppelin/contracts/utils/Strings.sol\n\n// OpenZeppelin Contracts (last updated v4.8.0) (utils/Strings.sol)\n/**\n * @dev String operations.\n */\nlibrary Strings {\n    bytes16 private constant _SYMBOLS = \"0123456789abcdef\";\n    uint8 private constant _ADDRESS_LENGTH = 20;\n    /**\n     * @dev Converts a `uint256` to its ASCII `string` decimal representation.\n     */\n    function toString(uint256 value) internal pure returns (string memory) {\n        unchecked {\n            uint256 length = Math.log10(value) + 1;\n            string memory buffer = new string(length);\n            uint256 ptr;\n            /// @solidity memory-safe-assembly\n            assembly {\n                ptr := add(buffer, add(32, length))\n            }\n            while (true) {\n                ptr--;\n                /// @solidity memory-safe-assembly\n                assembly {\n                    mstore8(ptr, byte(mod(value, 10), _SYMBOLS))\n                }\n                value /= 10;\n                if (value == 0) break;\n            }\n            return buffer;\n        }\n    }\n    /**\n     * @dev Converts a `uint256` to its ASCII `string` hexadecimal representation.\n     */\n    function toHexString(uint256 value) internal pure returns (string memory) {\n        unchecked {\n            return toHexString(value, Math.log256(value) + 1);\n        }\n    }\n    /**\n     * @dev Converts a `uint256` to its ASCII `string` hexadecimal representation with fixed length.\n     */\n    function toHexString(uint256 value, uint256 length) internal pure returns (string memory) {\n        bytes memory buffer = new bytes(2 * length + 2);\n        buffer[0] = \"0\";\n        buffer[1] = \"x\";\n        for (uint256 i = 2 * length + 1; i > 1; --i) {\n            buffer[i] = _SYMBOLS[value & 0xf];\n            value >>= 4;\n        }\n        require(value == 0, \"Strings: hex length insufficient\");\n        return string(buffer);\n    }\n    /**\n     * @dev Converts an `address` with fixed length of 20 bytes to its not checksummed ASCII `string` hexadecimal representation.\n     */\n    function toHexString(address addr) internal pure returns (string memory) {\n        return toHexString(uint256(uint160(addr)), _ADDRESS_LENGTH);\n    }\n}\n// File: @openzeppelin/contracts/utils/introspection/ERC165.sol\n\n// OpenZeppelin Contracts v4.4.1 (utils/introspection/ERC165.sol)\n/**\n * @dev Implementation of the {IERC165} interface.\n *\n * Contracts that want to implement ERC165 should inherit from this contract and override {supportsInterface} to check\n * for the additional interface id that will be supported. For example:\n *\n * ```solidity\n * function supportsInterface(bytes4 interfaceId) public view virtual override returns (bool) {\n *     return interfaceId == type(MyInterface).interfaceId || super.supportsInterface(interfaceId);\n * }\n * ```\n *\n * Alternatively, {ERC165Storage} provides an easier to use but more expensive implementation.\n */\nabstract contract ERC165 is IERC165 {\n    /**\n     * @dev See {IERC165-supportsInterface}.\n     */\n    function supportsInterface(bytes4 interfaceId) public view virtual override returns (bool) {\n        return interfaceId == type(IERC165).interfaceId;\n    }\n}\n// File: @openzeppelin/contracts/token/ERC721/ERC721.sol\n\n// OpenZeppelin Contracts (last updated v4.8.0) (token/ERC721/ERC721.sol)\n/**\n * @dev Implementation of https://eips.ethereum.org/EIPS/eip-721[ERC721] Non-Fungible Token Standard, including\n * the Metadata extension, but not including the Enumerable extension, which is available separately as\n * {ERC721Enumerable}.\n */\ncontract ERC721 is Context, ERC165, IERC721, IERC721Metadata {\n    using Address for address;\n    using Strings for uint256;\n    // Token name\n    string private _name;\n    // Token symbol\n    string private _symbol;\n    // Mapping from token ID to owner address\n    mapping(uint256 => address) private _owners;\n    // Mapping owner address to token count\n    mapping(address => uint256) private _balances;\n    // Mapping from token ID to approved address\n    mapping(uint256 => address) private _tokenApprovals;\n    // Mapping from owner to operator approvals\n    mapping(address => mapping(address => bool)) private _operatorApprovals;\n    /**\n     * @dev Initializes the contract by setting a `name` and a `symbol` to the token collection.\n     */\n    constructor(string memory name_, string memory symbol_) {\n        _name = name_;\n        _symbol = symbol_;\n    }\n    /**\n     * @dev See {IERC165-supportsInterface}.\n     */\n    function supportsInterface(bytes4 interfaceId) public view virtual override(ERC165, IERC165) returns (bool) {\n        return\n            interfaceId == type(IERC721).interfaceId ||\n            interfaceId == type(IERC721Metadata).interfaceId ||\n            super.supportsInterface(interfaceId);\n    }\n    /**\n     * @dev See {IERC721-balanceOf}.\n     */\n    function balanceOf(address owner) public view virtual override returns (uint256) {\n        require(owner != address(0), \"ERC721: address zero is not a valid owner\");\n        return _balances[owner];\n    }\n    /**\n     * @dev See {IERC721-ownerOf}.\n     */\n    function ownerOf(uint256 tokenId) public view virtual override returns (address) {\n        address owner = _ownerOf(tokenId);\n        require(owner != address(0), \"ERC721: invalid token ID\");\n        return owner;\n    }\n    /**\n     * @dev See {IERC721Metadata-name}.\n     */\n    function name() public view virtual override returns (string memory) {\n        return _name;\n    }\n    /**\n     * @dev See {IERC721Metadata-symbol}.\n     */\n    function symbol() public view virtual override returns (string memory) {\n        return _symbol;\n    }\n    /**\n     * @dev See {IERC721Metadata-tokenURI}.\n     */\n    function tokenURI(uint256 tokenId) public view virtual override returns (string memory) {\n        _requireMinted(tokenId);\n        string memory baseURI = _baseURI();\n        return bytes(baseURI).length > 0 ? string(abi.encodePacked(baseURI, tokenId.toString())) : \"\";\n    }\n    /**\n     * @dev Base URI for computing {tokenURI}. If set, the resulting URI for each\n     * token will be the concatenation of the `baseURI` and the `tokenId`. Empty\n     * by default, can be overridden in child contracts.\n     */\n    function _baseURI() internal view virtual returns (string memory) {\n        return \"\";\n    }\n    /**\n     * @dev See {IERC721-approve}.\n     */\n    function approve(address to, uint256 tokenId) public virtual override {\n        address owner = ERC721.ownerOf(tokenId);\n        require(to != owner, \"ERC721: approval to current owner\");\n        require(\n            _msgSender() == owner || isApprovedForAll(owner, _msgSender()),\n            \"ERC721: approve caller is not token owner or approved for all\"\n        );\n        _approve(to, tokenId);\n    }\n    /**\n     * @dev See {IERC721-getApproved}.\n     */\n    function getApproved(uint256 tokenId) public view virtual override returns (address) {\n        _requireMinted(tokenId);\n        return _tokenApprovals[tokenId];\n    }\n    /**\n     * @dev See {IERC721-setApprovalForAll}.\n     */\n    function setApprovalForAll(address operator, bool approved) public virtual override {\n        _setApprovalForAll(_msgSender(), operator, approved);\n    }\n    /**\n     * @dev See {IERC721-isApprovedForAll}.\n     */\n    function isApprovedForAll(address owner, address operator) public view virtual override returns (bool) {\n        return _operatorApprovals[owner][operator];\n    }\n    /**\n     * @dev See {IERC721-transferFrom}.\n     */\n    function transferFrom(\n        address from,\n        address to,\n        uint256 tokenId\n    ) public virtual override {\n        //solhint-disable-next-line max-line-length\n        require(_isApprovedOrOwner(_msgSender(), tokenId), \"ERC721: caller is not token owner or approved\");\n        _transfer(from, to, tokenId);\n    }\n    /**\n     * @dev See {IERC721-safeTransferFrom}.\n     */\n    function safeTransferFrom(\n        address from,\n        address to,\n        uint256 tokenId\n    ) public virtual override {\n        safeTransferFrom(from, to, tokenId, \"\");\n    }\n    /**\n     * @dev See {IERC721-safeTransferFrom}.\n     */\n    function safeTransferFrom(\n        address from,\n        address to,\n        uint256 tokenId,\n        bytes memory data\n    ) public virtual override {\n        require(_isApprovedOrOwner(_msgSender(), tokenId), \"ERC721: caller is not token owner or approved\");\n        _safeTransfer(from, to, tokenId, data);\n    }\n    /**\n     * @dev Safely transfers `tokenId` token from `from` to `to`, checking first that contract recipients\n     * are aware of the ERC721 protocol to prevent tokens from being forever locked.\n     *\n     * `data` is additional data, it has no specified format and it is sent in call to `to`.\n     *\n     * This internal function is equivalent to {safeTransferFrom}, and can be used to e.g.\n     * implement alternative mechanisms to perform token transfer, such as signature-based.\n     *\n     * Requirements:\n     *\n     * - `from` cannot be the zero address.\n     * - `to` cannot be the zero address.\n     * - `tokenId` token must exist and be owned by `from`.\n     * - If `to` refers to a smart contract, it must implement {IERC721Receiver-onERC721Received}, which is called upon a safe transfer.\n     *\n     * Emits a {Transfer} event.\n     */\n    function _safeTransfer(\n        address from,\n        address to,\n        uint256 tokenId,\n        bytes memory data\n    ) internal virtual {\n        _transfer(from, to, tokenId);\n        require(_checkOnERC721Received(from, to, tokenId, data), \"ERC721: transfer to non ERC721Receiver implementer\");\n    }\n    /**\n     * @dev Returns the owner of the `tokenId`. Does NOT revert if token doesn't exist\n     */\n    function _ownerOf(uint256 tokenId) internal view virtual returns (address) {\n        return _owners[tokenId];\n    }\n    /**\n     * @dev Returns whether `tokenId` exists.\n     *\n     * Tokens can be managed by their owner or approved accounts via {approve} or {setApprovalForAll}.\n     *\n     * Tokens start existing when they are minted (`_mint`),\n     * and stop existing when they are burned (`_burn`).\n     */\n    function _exists(uint256 tokenId) internal view virtual returns (bool) {\n        return _ownerOf(tokenId) != address(0);\n    }\n    /**\n     * @dev Returns whether `spender` is allowed to manage `tokenId`.\n     *\n     * Requirements:\n     *\n     * - `tokenId` must exist.\n     */\n    function _isApprovedOrOwner(address spender, uint256 tokenId) internal view virtual returns (bool) {\n        address owner = ERC721.ownerOf(tokenId);\n        return (spender == owner || isApprovedForAll(owner, spender) || getApproved(tokenId) == spender);\n    }\n    /**\n     * @dev Safely mints `tokenId` and transfers it to `to`.\n     *\n     * Requirements:\n     *\n     * - `tokenId` must not exist.\n     * - If `to` refers to a smart contract, it must implement {IERC721Receiver-onERC721Received}, which is called upon a safe transfer.\n     *\n     * Emits a {Transfer} event.\n     */\n    function _safeMint(address to, uint256 tokenId) internal virtual {\n        _safeMint(to, tokenId, \"\");\n    }\n    /**\n     * @dev Same as {xref-ERC721-_safeMint-address-uint256-}[`_safeMint`], with an additional `data` parameter which is\n     * forwarded in {IERC721Receiver-onERC721Received} to contract recipients.\n     */\n    function _safeMint(\n        address to,\n        uint256 tokenId,\n        bytes memory data\n    ) internal virtual {\n        _mint(to, tokenId);\n        require(\n            _checkOnERC721Received(address(0), to, tokenId, data),\n            \"ERC721: transfer to non ERC721Receiver implementer\"\n        );\n    }\n    /**\n     * @dev Mints `tokenId` and transfers it to `to`.\n     *\n     * WARNING: Usage of this method is discouraged, use {_safeMint} whenever possible\n     *\n     * Requirements:\n     *\n     * - `tokenId` must not exist.\n     * - `to` cannot be the zero address.\n     *\n     * Emits a {Transfer} event.\n     */\n    function _mint(address to, uint256 tokenId) internal virtual {\n        require(to != address(0), \"ERC721: mint to the zero address\");\n        require(!_exists(tokenId), \"ERC721: token already minted\");\n        _beforeTokenTransfer(address(0), to, tokenId, 1);\n        // Check that tokenId was not minted by `_beforeTokenTransfer` hook\n        require(!_exists(tokenId), \"ERC721: token already minted\");\n        unchecked {\n            // Will not overflow unless all 2**256 token ids are minted to the same owner.\n            // Given that tokens are minted one by one, it is impossible in practice that\n            // this ever happens. Might change if we allow batch minting.\n            // The ERC fails to describe this case.\n            _balances[to] += 1;\n        }\n        _owners[tokenId] = to;\n        emit Transfer(address(0), to, tokenId);\n        _afterTokenTransfer(address(0), to, tokenId, 1);\n    }\n    /**\n     * @dev Destroys `tokenId`.\n     * The approval is cleared when the token is burned.\n     * This is an internal function that does not check if the sender is authorized to operate on the token.\n     *\n     * Requirements:\n     *\n     * - `tokenId` must exist.\n     *\n     * Emits a {Transfer} event.\n     */\n    function _burn(uint256 tokenId) internal virtual {\n        address owner = ERC721.ownerOf(tokenId);\n        _beforeTokenTransfer(owner, address(0), tokenId, 1);\n        // Update ownership in case tokenId was transferred by `_beforeTokenTransfer` hook\n        owner = ERC721.ownerOf(tokenId);\n        // Clear approvals\n        delete _tokenApprovals[tokenId];\n        unchecked {\n            // Cannot overflow, as that would require more tokens to be burned/transferred\n            // out than the owner initially received through minting and transferring in.\n            _balances[owner] -= 1;\n        }\n        delete _owners[tokenId];\n        emit Transfer(owner, address(0), tokenId);\n        _afterTokenTransfer(owner, address(0), tokenId, 1);\n    }\n    /**\n     * @dev Transfers `tokenId` from `from` to `to`.\n     *  As opposed to {transferFrom}, this imposes no restrictions on msg.sender.\n     *\n     * Requirements:\n     *\n     * - `to` cannot be the zero address.\n     * - `tokenId` token must be owned by `from`.\n     *\n     * Emits a {Transfer} event.\n     */\n    function _transfer(\n        address from,\n        address to,\n        uint256 tokenId\n    ) internal virtual {\n        require(ERC721.ownerOf(tokenId) == from, \"ERC721: transfer from incorrect owner\");\n        require(to != address(0), \"ERC721: transfer to the zero address\");\n        _beforeTokenTransfer(from, to, tokenId, 1);\n        // Check that tokenId was not transferred by `_beforeTokenTransfer` hook\n        require(ERC721.ownerOf(tokenId) == from, \"ERC721: transfer from incorrect owner\");\n        // Clear approvals from the previous owner\n        delete _tokenApprovals[tokenId];\n        unchecked {\n            // `_balances[from]` cannot overflow for the same reason as described in `_burn`:\n            // `from`'s balance is the number of token held, which is at least one before the current\n            // transfer.\n            // `_balances[to]` could overflow in the conditions described in `_mint`. That would require\n            // all 2**256 token ids to be minted, which in practice is impossible.\n            _balances[from] -= 1;\n            _balances[to] += 1;\n        }\n        _owners[tokenId] = to;\n        emit Transfer(from, to, tokenId);\n        _afterTokenTransfer(from, to, tokenId, 1);\n    }\n    /**\n     * @dev Approve `to` to operate on `tokenId`\n     *\n     * Emits an {Approval} event.\n     */\n    function _approve(address to, uint256 tokenId) internal virtual {\n        _tokenApprovals[tokenId] = to;\n        emit Approval(ERC721.ownerOf(tokenId), to, tokenId);\n    }\n    /**\n     * @dev Approve `operator` to operate on all of `owner` tokens\n     *\n     * Emits an {ApprovalForAll} event.\n     */\n    function _setApprovalForAll(\n        address owner,\n        address operator,\n        bool approved\n    ) internal virtual {\n        require(owner != operator, \"ERC721: approve to caller\");\n        _operatorApprovals[owner][operator] = approved;\n        emit ApprovalForAll(owner, operator, approved);\n    }\n    /**\n     * @dev Reverts if the `tokenId` has not been minted yet.\n     */\n    function _requireMinted(uint256 tokenId) internal view virtual {\n        require(_exists(tokenId), \"ERC721: invalid token ID\");\n    }\n    /**\n     * @dev Internal function to invoke {IERC721Receiver-onERC721Received} on a target address.\n     * The call is not executed if the target address is not a contract.\n     *\n     * @param from address representing the previous owner of the given token ID\n     * @param to target address that will receive the tokens\n     * @param tokenId uint256 ID of the token to be transferred\n     * @param data bytes optional data to send along with the call\n     * @return bool whether the call correctly returned the expected magic value\n     */\n    function _checkOnERC721Received(\n        address from,\n        address to,\n        uint256 tokenId,\n        bytes memory data\n    ) private returns (bool) {\n        if (to.isContract()) {\n            try IERC721Receiver(to).onERC721Received(_msgSender(), from, tokenId, data) returns (bytes4 retval) {\n                return retval == IERC721Receiver.onERC721Received.selector;\n            } catch (bytes memory reason) {\n                if (reason.length == 0) {\n                    revert(\"ERC721: transfer to non ERC721Receiver implementer\");\n                } else {\n                    /// @solidity memory-safe-assembly\n                    assembly {\n                        revert(add(32, reason), mload(reason))\n                    }\n                }\n            }\n        } else {\n            return true;\n        }\n    }\n    /**\n     * @dev Hook that is called before any token transfer. This includes minting and burning. If {ERC721Consecutive} is\n     * used, the hook may be called as part of a consecutive (batch) mint, as indicated by `batchSize` greater than 1.\n     *\n     * Calling conditions:\n     *\n     * - When `from` and `to` are both non-zero, ``from``'s tokens will be transferred to `to`.\n     * - When `from` is zero, the tokens will be minted for `to`.\n     * - When `to` is zero, ``from``'s tokens will be burned.\n     * - `from` and `to` are never both zero.\n     * - `batchSize` is non-zero.\n     *\n     * To learn more about hooks, head to xref:ROOT:extending-contracts.adoc#using-hooks[Using Hooks].\n     */\n    function _beforeTokenTransfer(\n        address from,\n        address to,\n        uint256, /* firstTokenId */\n        uint256 batchSize\n    ) internal virtual {\n        if (batchSize > 1) {\n            if (from != address(0)) {\n                _balances[from] -= batchSize;\n            }\n            if (to != address(0)) {\n                _balances[to] += batchSize;\n            }\n        }\n    }\n    /**\n     * @dev Hook that is called after any token transfer. This includes minting and burning. If {ERC721Consecutive} is\n     * used, the hook may be called as part of a consecutive (batch) mint, as indicated by `batchSize` greater than 1.\n     *\n     * Calling conditions:\n     *\n     * - When `from` and `to` are both non-zero, ``from``'s tokens were transferred to `to`.\n     * - When `from` is zero, the tokens were minted for `to`.\n     * - When `to` is zero, ``from``'s tokens were burned.\n     * - `from` and `to` are never both zero.\n     * - `batchSize` is non-zero.\n     *\n     * To learn more about hooks, head to xref:ROOT:extending-contracts.adoc#using-hooks[Using Hooks].\n     */\n    function _afterTokenTransfer(\n        address from,\n        address to,\n        uint256 firstTokenId,\n        uint256 batchSize\n    ) internal virtual {}\n}\n// File: @openzeppelin/contracts/token/ERC721/extensions/IERC721Enumerable.sol\n\n// OpenZeppelin Contracts (last updated v4.5.0) (token/ERC721/extensions/IERC721Enumerable.sol)\n/**\n * @title ERC-721 Non-Fungible Token Standard, optional enumeration extension\n * @dev See https://eips.ethereum.org/EIPS/eip-721\n */\ninterface IERC721Enumerable is IERC721 {\n    /**\n     * @dev Returns the total amount of tokens stored by the contract.\n     */\n    function totalSupply() external view returns (uint256);\n    /**\n     * @dev Returns a token ID owned by `owner` at a given `index` of its token list.\n     * Use along with {balanceOf} to enumerate all of ``owner``'s tokens.\n     */\n    function tokenOfOwnerByIndex(address owner, uint256 index) external view returns (uint256);\n    /**\n     * @dev Returns a token ID at a given `index` of all the tokens stored by the contract.\n     * Use along with {totalSupply} to enumerate all tokens.\n     */\n    function tokenByIndex(uint256 index) external view returns (uint256);\n}\n// File: @openzeppelin/contracts/token/ERC721/extensions/ERC721Enumerable.sol\n\n// OpenZeppelin Contracts (last updated v4.8.0) (token/ERC721/extensions/ERC721Enumerable.sol)\n/**\n * @dev This implements an optional extension of {ERC721} defined in the EIP that adds\n * enumerability of all the token ids in the contract as well as all token ids owned by each\n * account.\n */\nabstract contract ERC721Enumerable is ERC721, IERC721Enumerable {\n    // Mapping from owner to list of owned token IDs\n    mapping(address => mapping(uint256 => uint256)) private _ownedTokens;\n    // Mapping from token ID to index of the owner tokens list\n    mapping(uint256 => uint256) private _ownedTokensIndex;\n    // Array with all token ids, used for enumeration\n    uint256[] private _allTokens;\n    // Mapping from token id to position in the allTokens array\n    mapping(uint256 => uint256) private _allTokensIndex;\n    /**\n     * @dev See {IERC165-supportsInterface}.\n     */\n    function supportsInterface(bytes4 interfaceId) public view virtual override(IERC165, ERC721) returns (bool) {\n        return interfaceId == type(IERC721Enumerable).interfaceId || super.supportsInterface(interfaceId);\n    }\n    /**\n     * @dev See {IERC721Enumerable-tokenOfOwnerByIndex}.\n     */\n    function tokenOfOwnerByIndex(address owner, uint256 index) public view virtual override returns (uint256) {\n        require(index < ERC721.balanceOf(owner), \"ERC721Enumerable: owner index out of bounds\");\n        return _ownedTokens[owner][index];\n    }\n    /**\n     * @dev See {IERC721Enumerable-totalSupply}.\n     */\n    function totalSupply() public view virtual override returns (uint256) {\n        return _allTokens.length;\n    }\n    /**\n     * @dev See {IERC721Enumerable-tokenByIndex}.\n     */\n    function tokenByIndex(uint256 index) public view virtual override returns (uint256) {\n        require(index < ERC721Enumerable.totalSupply(), \"ERC721Enumerable: global index out of bounds\");\n        return _allTokens[index];\n    }\n    /**\n     * @dev See {ERC721-_beforeTokenTransfer}.\n     */\n    function _beforeTokenTransfer(\n        address from,\n        address to,\n        uint256 firstTokenId,\n        uint256 batchSize\n    ) internal virtual override {\n        super._beforeTokenTransfer(from, to, firstTokenId, batchSize);\n        if (batchSize > 1) {\n            // Will only trigger during construction. Batch transferring (minting) is not available afterwards.\n            revert(\"ERC721Enumerable: consecutive transfers not supported\");\n        }\n        uint256 tokenId = firstTokenId;\n        if (from == address(0)) {\n            _addTokenToAllTokensEnumeration(tokenId);\n        } else if (from != to) {\n            _removeTokenFromOwnerEnumeration(from, tokenId);\n        }\n        if (to == address(0)) {\n            _removeTokenFromAllTokensEnumeration(tokenId);\n        } else if (to != from) {\n            _addTokenToOwnerEnumeration(to, tokenId);\n        }\n    }\n    /**\n     * @dev Private function to add a token to this extension's ownership-tracking data structures.\n     * @param to address representing the new owner of the given token ID\n     * @param tokenId uint256 ID of the token to be added to the tokens list of the given address\n     */\n    function _addTokenToOwnerEnumeration(address to, uint256 tokenId) private {\n        uint256 length = ERC721.balanceOf(to);\n        _ownedTokens[to][length] = tokenId;\n        _ownedTokensIndex[tokenId] = length;\n    }\n    /**\n     * @dev Private function to add a token to this extension's token tracking data structures.\n     * @param tokenId uint256 ID of the token to be added to the tokens list\n     */\n    function _addTokenToAllTokensEnumeration(uint256 tokenId) private {\n        _allTokensIndex[tokenId] = _allTokens.length;\n        _allTokens.push(tokenId);\n    }\n    /**\n     * @dev Private function to remove a token from this extension's ownership-tracking data structures. Note that\n     * while the token is not assigned a new owner, the `_ownedTokensIndex` mapping is _not_ updated: this allows for\n     * gas optimizations e.g. when performing a transfer operation (avoiding double writes).\n     * This has O(1) time complexity, but alters the order of the _ownedTokens array.\n     * @param from address representing the previous owner of the given token ID\n     * @param tokenId uint256 ID of the token to be removed from the tokens list of the given address\n     */\n    function _removeTokenFromOwnerEnumeration(address from, uint256 tokenId) private {\n        // To prevent a gap in from's tokens array, we store the last token in the index of the token to delete, and\n        // then delete the last slot (swap and pop).\n        uint256 lastTokenIndex = ERC721.balanceOf(from) - 1;\n        uint256 tokenIndex = _ownedTokensIndex[tokenId];\n        // When the token to delete is the last token, the swap operation is unnecessary\n        if (tokenIndex != lastTokenIndex) {\n            uint256 lastTokenId = _ownedTokens[from][lastTokenIndex];\n            _ownedTokens[from][tokenIndex] = lastTokenId; // Move the last token to the slot of the to-delete token\n            _ownedTokensIndex[lastTokenId] = tokenIndex; // Update the moved token's index\n        }\n        // This also deletes the contents at the last position of the array\n        delete _ownedTokensIndex[tokenId];\n        delete _ownedTokens[from][lastTokenIndex];\n    }\n    /**\n     * @dev Private function to remove a token from this extension's token tracking data structures.\n     * This has O(1) time complexity, but alters the order of the _allTokens array.\n     * @param tokenId uint256 ID of the token to be removed from the tokens list\n     */\n    function _removeTokenFromAllTokensEnumeration(uint256 tokenId) private {\n        // To prevent a gap in the tokens array, we store the last token in the index of the token to delete, and\n        // then delete the last slot (swap and pop).\n        uint256 lastTokenIndex = _allTokens.length - 1;\n        uint256 tokenIndex = _allTokensIndex[tokenId];\n        // When the token to delete is the last token, the swap operation is unnecessary. However, since this occurs so\n        // rarely (when the last minted token is burnt) that we still do the swap here to avoid the gas cost of adding\n        // an 'if' statement (like in _removeTokenFromOwnerEnumeration)\n        uint256 lastTokenId = _allTokens[lastTokenIndex];\n        _allTokens[tokenIndex] = lastTokenId; // Move the last token to the slot of the to-delete token\n        _allTokensIndex[lastTokenId] = tokenIndex; // Update the moved token's index\n        // This also deletes the contents at the last position of the array\n        delete _allTokensIndex[tokenId];\n        _allTokens.pop();\n    }\n}\n// File: @openzeppelin/contracts/utils/cryptography/MerkleProof.sol\n\n// OpenZeppelin Contracts (last updated v4.8.0) (utils/cryptography/MerkleProof.sol)\n/**\n * @dev These functions deal with verification of Merkle Tree proofs.\n *\n * The tree and the proofs can be generated using our\n * https://github.com/OpenZeppelin/merkle-tree[JavaScript library].\n * You will find a quickstart guide in the readme.\n *\n * WARNING: You should avoid using leaf values that are 64 bytes long prior to\n * hashing, or use a hash function other than keccak256 for hashing leaves.\n * This is because the concatenation of a sorted pair of internal nodes in\n * the merkle tree could be reinterpreted as a leaf value.\n * OpenZeppelin's JavaScript library generates merkle trees that are safe\n * against this attack out of the box.\n */\nlibrary MerkleProof {\n    /**\n     * @dev Returns true if a `leaf` can be proved to be a part of a Merkle tree\n     * defined by `root`. For this, a `proof` must be provided, containing\n     * sibling hashes on the branch from the leaf to the root of the tree. Each\n     * pair of leaves and each pair of pre-images are assumed to be sorted.\n     */\n    function verify(\n        bytes32[] memory proof,\n        bytes32 root,\n        bytes32 leaf\n    ) internal pure returns (bool) {\n        return processProof(proof, leaf) == root;\n    }\n    /**\n     * @dev Calldata version of {verify}\n     *\n     * _Available since v4.7._\n     */\n    function verifyCalldata(\n        bytes32[] calldata proof,\n        bytes32 root,\n        bytes32 leaf\n    ) internal pure returns (bool) {\n        return processProofCalldata(proof, leaf) == root;\n    }\n    /**\n     * @dev Returns the rebuilt hash obtained by traversing a Merkle tree up\n     * from `leaf` using `proof`. A `proof` is valid if and only if the rebuilt\n     * hash matches the root of the tree. When processing the proof, the pairs\n     * of leafs & pre-images are assumed to be sorted.\n     *\n     * _Available since v4.4._\n     */\n    function processProof(bytes32[] memory proof, bytes32 leaf) internal pure returns (bytes32) {\n        bytes32 computedHash = leaf;\n        for (uint256 i = 0; i < proof.length; i++) {\n            computedHash = _hashPair(computedHash, proof[i]);\n        }\n        return computedHash;\n    }\n    /**\n     * @dev Calldata version of {processProof}\n     *\n     * _Available since v4.7._\n     */\n    function processProofCalldata(bytes32[] calldata proof, bytes32 leaf) internal pure returns (bytes32) {\n        bytes32 computedHash = leaf;\n        for (uint256 i = 0; i < proof.length; i++) {\n            computedHash = _hashPair(computedHash, proof[i]);\n        }\n        return computedHash;\n    }\n    /**\n     * @dev Returns true if the `leaves` can be simultaneously proven to be a part of a merkle tree defined by\n     * `root`, according to `proof` and `proofFlags` as described in {processMultiProof}.\n     *\n     * CAUTION: Not all merkle trees admit multiproofs. See {processMultiProof} for details.\n     *\n     * _Available since v4.7._\n     */\n    function multiProofVerify(\n        bytes32[] memory proof,\n        bool[] memory proofFlags,\n        bytes32 root,\n        bytes32[] memory leaves\n    ) internal pure returns (bool) {\n        return processMultiProof(proof, proofFlags, leaves) == root;\n    }\n    /**\n     * @dev Calldata version of {multiProofVerify}\n     *\n     * CAUTION: Not all merkle trees admit multiproofs. See {processMultiProof} for details.\n     *\n     * _Available since v4.7._\n     */\n    function multiProofVerifyCalldata(\n        bytes32[] calldata proof,\n        bool[] calldata proofFlags,\n        bytes32 root,\n        bytes32[] memory leaves\n    ) internal pure returns (bool) {\n        return processMultiProofCalldata(proof, proofFlags, leaves) == root;\n    }\n    /**\n     * @dev Returns the root of a tree reconstructed from `leaves` and sibling nodes in `proof`. The reconstruction\n     * proceeds by incrementally reconstructing all inner nodes by combining a leaf/inner node with either another\n     * leaf/inner node or a proof sibling node, depending on whether each `proofFlags` item is true or false\n     * respectively.\n     *\n     * CAUTION: Not all merkle trees admit multiproofs. To use multiproofs, it is sufficient to ensure that: 1) the tree\n     * is complete (but not necessarily perfect), 2) the leaves to be proven are in the opposite order they are in the\n     * tree (i.e., as seen from right to left starting at the deepest layer and continuing at the next layer).\n     *\n     * _Available since v4.7._\n     */\n    function processMultiProof(\n        bytes32[] memory proof,\n        bool[] memory proofFlags,\n        bytes32[] memory leaves\n    ) internal pure returns (bytes32 merkleRoot) {\n        // This function rebuild the root hash by traversing the tree up from the leaves. The root is rebuilt by\n        // consuming and producing values on a queue. The queue starts with the `leaves` array, then goes onto the\n        // `hashes` array. At the end of the process, the last hash in the `hashes` array should contain the root of\n        // the merkle tree.\n        uint256 leavesLen = leaves.length;\n        uint256 totalHashes = proofFlags.length;\n        // Check proof validity.\n        require(leavesLen + proof.length - 1 == totalHashes, \"MerkleProof: invalid multiproof\");\n        // The xxxPos values are \"pointers\" to the next value to consume in each array. All accesses are done using\n        // `xxx[xxxPos++]`, which return the current value and increment the pointer, thus mimicking a queue's \"pop\".\n        bytes32[] memory hashes = new bytes32[](totalHashes);\n        uint256 leafPos = 0;\n        uint256 hashPos = 0;\n        uint256 proofPos = 0;\n        // At each step, we compute the next hash using two values:\n        // - a value from the \"main queue\". If not all leaves have been consumed, we get the next leaf, otherwise we\n        //   get the next hash.\n        // - depending on the flag, either another value for the \"main queue\" (merging branches) or an element from the\n        //   `proof` array.\n        for (uint256 i = 0; i < totalHashes; i++) {\n            bytes32 a = leafPos < leavesLen ? leaves[leafPos++] : hashes[hashPos++];\n            bytes32 b = proofFlags[i] ? leafPos < leavesLen ? leaves[leafPos++] : hashes[hashPos++] : proof[proofPos++];\n            hashes[i] = _hashPair(a, b);\n        }\n        if (totalHashes > 0) {\n            return hashes[totalHashes - 1];\n        } else if (leavesLen > 0) {\n            return leaves[0];\n        } else {\n            return proof[0];\n        }\n    }\n    /**\n     * @dev Calldata version of {processMultiProof}.\n     *\n     * CAUTION: Not all merkle trees admit multiproofs. See {processMultiProof} for details.\n     *\n     * _Available since v4.7._\n     */\n    function processMultiProofCalldata(\n        bytes32[] calldata proof,\n        bool[] calldata proofFlags,\n        bytes32[] memory leaves\n    ) internal pure returns (bytes32 merkleRoot) {\n        // This function rebuild the root hash by traversing the tree up from the leaves. The root is rebuilt by\n        // consuming and producing values on a queue. The queue starts with the `leaves` array, then goes onto the\n        // `hashes` array. At the end of the process, the last hash in the `hashes` array should contain the root of\n        // the merkle tree.\n        uint256 leavesLen = leaves.length;\n        uint256 totalHashes = proofFlags.length;\n        // Check proof validity.\n        require(leavesLen + proof.length - 1 == totalHashes, \"MerkleProof: invalid multiproof\");\n        // The xxxPos values are \"pointers\" to the next value to consume in each array. All accesses are done using\n        // `xxx[xxxPos++]`, which return the current value and increment the pointer, thus mimicking a queue's \"pop\".\n        bytes32[] memory hashes = new bytes32[](totalHashes);\n        uint256 leafPos = 0;\n        uint256 hashPos = 0;\n        uint256 proofPos = 0;\n        // At each step, we compute the next hash using two values:\n        // - a value from the \"main queue\". If not all leaves have been consumed, we get the next leaf, otherwise we\n        //   get the next hash.\n        // - depending on the flag, either another value for the \"main queue\" (merging branches) or an element from the\n        //   `proof` array.\n        for (uint256 i = 0; i < totalHashes; i++) {\n            bytes32 a = leafPos < leavesLen ? leaves[leafPos++] : hashes[hashPos++];\n            bytes32 b = proofFlags[i] ? leafPos < leavesLen ? leaves[leafPos++] : hashes[hashPos++] : proof[proofPos++];\n            hashes[i] = _hashPair(a, b);\n        }\n        if (totalHashes > 0) {\n            return hashes[totalHashes - 1];\n        } else if (leavesLen > 0) {\n            return leaves[0];\n        } else {\n            return proof[0];\n        }\n    }\n    function _hashPair(bytes32 a, bytes32 b) private pure returns (bytes32) {\n        return a < b ? _efficientHash(a, b) : _efficientHash(b, a);\n    }\n    function _efficientHash(bytes32 a, bytes32 b) private pure returns (bytes32 value) {\n        /// @solidity memory-safe-assembly\n        assembly {\n            mstore(0x00, a)\n            mstore(0x20, b)\n            value := keccak256(0x00, 0x40)\n        }\n    }\n}\n// File: @openzeppelin/contracts/utils/Counters.sol\n\n// OpenZeppelin Contracts v4.4.1 (utils/Counters.sol)\n/**\n * @title Counters\n * @author Matt Condon (@shrugs)\n * @dev Provides counters that can only be incremented, decremented or reset. This can be used e.g. to track the number\n * of elements in a mapping, issuing ERC721 ids, or counting request ids.\n *\n * Include with `using Counters for Counters.Counter;`\n */\nlibrary Counters {\n    struct Counter {\n        // This variable should never be directly accessed by users of the library: interactions must be restricted to\n        // the library's function. As of Solidity v0.5.2, this cannot be enforced, though there is a proposal to add\n        // this feature: see https://github.com/ethereum/solidity/issues/4637\n        uint256 _value; // default: 0\n    }\n    function current(Counter storage counter) internal view returns (uint256) {\n        return counter._value;\n    }\n    function increment(Counter storage counter) internal {\n        unchecked {\n            counter._value += 1;\n        }\n    }\n    function decrement(Counter storage counter) internal {\n        uint256 value = counter._value;\n        require(value > 0, \"Counter: decrement overflow\");\n        unchecked {\n            counter._value = value - 1;\n        }\n    }\n    function reset(Counter storage counter) internal {\n        counter._value = 0;\n    }\n}\n// File: elliptic-curve-solidity/contracts/EllipticCurve.sol\n\n/**\n * @title Elliptic Curve Library\n * @dev Library providing arithmetic operations over elliptic curves.\n * This library does not check whether the inserted points belong to the curve\n * `isOnCurve` function should be used by the library user to check the aforementioned statement.\n * @author Witnet Foundation\n */\nlibrary EllipticCurve {\n  // Pre-computed constant for 2 ** 255\n  uint256 constant private U255_MAX_PLUS_1 = 57896044618658097711785492504343953926634992332820282019728792003956564819968;\n  /// @dev Modular euclidean inverse of a number (mod p).\n  /// @param _x The number\n  /// @param _pp The modulus\n  /// @return q such that x*q = 1 (mod _pp)\n  function invMod(uint256 _x, uint256 _pp) internal pure returns (uint256) {\n    require(_x != 0 && _x != _pp && _pp != 0, \"Invalid number\");\n    uint256 q = 0;\n    uint256 newT = 1;\n    uint256 r = _pp;\n    uint256 t;\n    while (_x != 0) {\n      t = r / _x;\n      (q, newT) = (newT, addmod(q, (_pp - mulmod(t, newT, _pp)), _pp));\n      (r, _x) = (_x, r - t * _x);\n    }\n    return q;\n  }\n  /// @dev Modular exponentiation, b^e % _pp.\n  /// Source: https://github.com/androlo/standard-contracts/blob/master/contracts/src/crypto/ECCMath.sol\n  /// @param _base base\n  /// @param _exp exponent\n  /// @param _pp modulus\n  /// @return r such that r = b**e (mod _pp)\n  function expMod(uint256 _base, uint256 _exp, uint256 _pp) internal pure returns (uint256) {\n    require(_pp!=0, \"Modulus is zero\");\n    if (_base == 0)\n      return 0;\n    if (_exp == 0)\n      return 1;\n    uint256 r = 1;\n    uint256 bit = U255_MAX_PLUS_1;\n    assembly {\n      for { } gt(bit, 0) { }{\n        r := mulmod(mulmod(r, r, _pp), exp(_base, iszero(iszero(and(_exp, bit)))), _pp)\n        r := mulmod(mulmod(r, r, _pp), exp(_base, iszero(iszero(and(_exp, div(bit, 2))))), _pp)\n        r := mulmod(mulmod(r, r, _pp), exp(_base, iszero(iszero(and(_exp, div(bit, 4))))), _pp)\n        r := mulmod(mulmod(r, r, _pp), exp(_base, iszero(iszero(and(_exp, div(bit, 8))))), _pp)\n        bit := div(bit, 16)\n      }\n    }\n    return r;\n  }\n  /// @dev Converts a point (x, y, z) expressed in Jacobian coordinates to affine coordinates (x', y', 1).\n  /// @param _x coordinate x\n  /// @param _y coordinate y\n  /// @param _z coordinate z\n  /// @param _pp the modulus\n  /// @return (x', y') affine coordinates\n  function toAffine(\n    uint256 _x,\n    uint256 _y,\n    uint256 _z,\n    uint256 _pp)\n  internal pure returns (uint256, uint256)\n  {\n    uint256 zInv = invMod(_z, _pp);\n    uint256 zInv2 = mulmod(zInv, zInv, _pp);\n    uint256 x2 = mulmod(_x, zInv2, _pp);\n    uint256 y2 = mulmod(_y, mulmod(zInv, zInv2, _pp), _pp);\n    return (x2, y2);\n  }\n  /// @dev Derives the y coordinate from a compressed-format point x [[SEC-1]](https://www.secg.org/SEC1-Ver-1.0.pdf).\n  /// @param _prefix parity byte (0x02 even, 0x03 odd)\n  /// @param _x coordinate x\n  /// @param _aa constant of curve\n  /// @param _bb constant of curve\n  /// @param _pp the modulus\n  /// @return y coordinate y\n  function deriveY(\n    uint8 _prefix,\n    uint256 _x,\n    uint256 _aa,\n    uint256 _bb,\n    uint256 _pp)\n  internal pure returns (uint256)\n  {\n    require(_prefix == 0x02 || _prefix == 0x03, \"Invalid compressed EC point prefix\");\n    // x^3 + ax + b\n    uint256 y2 = addmod(mulmod(_x, mulmod(_x, _x, _pp), _pp), addmod(mulmod(_x, _aa, _pp), _bb, _pp), _pp);\n    y2 = expMod(y2, (_pp + 1) / 4, _pp);\n    // uint256 cmp = yBit ^ y_ & 1;\n    uint256 y = (y2 + _prefix) % 2 == 0 ? y2 : _pp - y2;\n    return y;\n  }\n  /// @dev Check whether point (x,y) is on curve defined by a, b, and _pp.\n  /// @param _x coordinate x of P1\n  /// @param _y coordinate y of P1\n  /// @param _aa constant of curve\n  /// @param _bb constant of curve\n  /// @param _pp the modulus\n  /// @return true if x,y in the curve, false else\n  function isOnCurve(\n    uint _x,\n    uint _y,\n    uint _aa,\n    uint _bb,\n    uint _pp)\n  internal pure returns (bool)\n  {\n    if (0 == _x || _x >= _pp || 0 == _y || _y >= _pp) {\n      return false;\n    }\n    // y^2\n    uint lhs = mulmod(_y, _y, _pp);\n    // x^3\n    uint rhs = mulmod(mulmod(_x, _x, _pp), _x, _pp);\n    if (_aa != 0) {\n      // x^3 + a*x\n      rhs = addmod(rhs, mulmod(_x, _aa, _pp), _pp);\n    }\n    if (_bb != 0) {\n      // x^3 + a*x + b\n      rhs = addmod(rhs, _bb, _pp);\n    }\n    return lhs == rhs;\n  }\n  /// @dev Calculate inverse (x, -y) of point (x, y).\n  /// @param _x coordinate x of P1\n  /// @param _y coordinate y of P1\n  /// @param _pp the modulus\n  /// @return (x, -y)\n  function ecInv(\n    uint256 _x,\n    uint256 _y,\n    uint256 _pp)\n  internal pure returns (uint256, uint256)\n  {\n    return (_x, (_pp - _y) % _pp);\n  }\n  /// @dev Add two points (x1, y1) and (x2, y2) in affine coordinates.\n  /// @param _x1 coordinate x of P1\n  /// @param _y1 coordinate y of P1\n  /// @param _x2 coordinate x of P2\n  /// @param _y2 coordinate y of P2\n  /// @param _aa constant of the curve\n  /// @param _pp the modulus\n  /// @return (qx, qy) = P1+P2 in affine coordinates\n  function ecAdd(\n    uint256 _x1,\n    uint256 _y1,\n    uint256 _x2,\n    uint256 _y2,\n    uint256 _aa,\n    uint256 _pp)\n    internal pure returns(uint256, uint256)\n  {\n    uint x = 0;\n    uint y = 0;\n    uint z = 0;\n    // Double if x1==x2 else add\n    if (_x1==_x2) {\n      // y1 = -y2 mod p\n      if (addmod(_y1, _y2, _pp) == 0) {\n        return(0, 0);\n      } else {\n        // P1 = P2\n        (x, y, z) = jacDouble(\n          _x1,\n          _y1,\n          1,\n          _aa,\n          _pp);\n      }\n    } else {\n      (x, y, z) = jacAdd(\n        _x1,\n        _y1,\n        1,\n        _x2,\n        _y2,\n        1,\n        _pp);\n    }\n    // Get back to affine\n    return toAffine(\n      x,\n      y,\n      z,\n      _pp);\n  }\n  /// @dev Substract two points (x1, y1) and (x2, y2) in affine coordinates.\n  /// @param _x1 coordinate x of P1\n  /// @param _y1 coordinate y of P1\n  /// @param _x2 coordinate x of P2\n  /// @param _y2 coordinate y of P2\n  /// @param _aa constant of the curve\n  /// @param _pp the modulus\n  /// @return (qx, qy) = P1-P2 in affine coordinates\n  function ecSub(\n    uint256 _x1,\n    uint256 _y1,\n    uint256 _x2,\n    uint256 _y2,\n    uint256 _aa,\n    uint256 _pp)\n  internal pure returns(uint256, uint256)\n  {\n    // invert square\n    (uint256 x, uint256 y) = ecInv(_x2, _y2, _pp);\n    // P1-square\n    return ecAdd(\n      _x1,\n      _y1,\n      x,\n      y,\n      _aa,\n      _pp);\n  }\n  /// @dev Multiply point (x1, y1, z1) times d in affine coordinates.\n  /// @param _k scalar to multiply\n  /// @param _x coordinate x of P1\n  /// @param _y coordinate y of P1\n  /// @param _aa constant of the curve\n  /// @param _pp the modulus\n  /// @return (qx, qy) = d*P in affine coordinates\n  function ecMul(\n    uint256 _k,\n    uint256 _x,\n    uint256 _y,\n    uint256 _aa,\n    uint256 _pp)\n  internal pure returns(uint256, uint256)\n  {\n    // Jacobian multiplication\n    (uint256 x1, uint256 y1, uint256 z1) = jacMul(\n      _k,\n      _x,\n      _y,\n      1,\n      _aa,\n      _pp);\n    // Get back to affine\n    return toAffine(\n      x1,\n      y1,\n      z1,\n      _pp);\n  }\n  /// @dev Adds two points (x1, y1, z1) and (x2 y2, z2).\n  /// @param _x1 coordinate x of P1\n  /// @param _y1 coordinate y of P1\n  /// @param _z1 coordinate z of P1\n  /// @param _x2 coordinate x of square\n  /// @param _y2 coordinate y of square\n  /// @param _z2 coordinate z of square\n  /// @param _pp the modulus\n  /// @return (qx, qy, qz) P1+square in Jacobian\n  function jacAdd(\n    uint256 _x1,\n    uint256 _y1,\n    uint256 _z1,\n    uint256 _x2,\n    uint256 _y2,\n    uint256 _z2,\n    uint256 _pp)\n  internal pure returns (uint256, uint256, uint256)\n  {\n    if (_x1==0 && _y1==0)\n      return (_x2, _y2, _z2);\n    if (_x2==0 && _y2==0)\n      return (_x1, _y1, _z1);\n    // We follow the equations described in https://pdfs.semanticscholar.org/5c64/29952e08025a9649c2b0ba32518e9a7fb5c2.pdf Section 5\n    uint[4] memory zs; // z1^2, z1^3, z2^2, z2^3\n    zs[0] = mulmod(_z1, _z1, _pp);\n    zs[1] = mulmod(_z1, zs[0], _pp);\n    zs[2] = mulmod(_z2, _z2, _pp);\n    zs[3] = mulmod(_z2, zs[2], _pp);\n    // u1, s1, u2, s2\n    zs = [\n      mulmod(_x1, zs[2], _pp),\n      mulmod(_y1, zs[3], _pp),\n      mulmod(_x2, zs[0], _pp),\n      mulmod(_y2, zs[1], _pp)\n    ];\n    // In case of zs[0] == zs[2] && zs[1] == zs[3], double function should be used\n    require(zs[0] != zs[2] || zs[1] != zs[3], \"Use jacDouble function instead\");\n    uint[4] memory hr;\n    //h\n    hr[0] = addmod(zs[2], _pp - zs[0], _pp);\n    //r\n    hr[1] = addmod(zs[3], _pp - zs[1], _pp);\n    //h^2\n    hr[2] = mulmod(hr[0], hr[0], _pp);\n    // h^3\n    hr[3] = mulmod(hr[2], hr[0], _pp);\n    // qx = -h^3  -2u1h^2+r^2\n    uint256 qx = addmod(mulmod(hr[1], hr[1], _pp), _pp - hr[3], _pp);\n    qx = addmod(qx, _pp - mulmod(2, mulmod(zs[0], hr[2], _pp), _pp), _pp);\n    // qy = -s1*z1*h^3+r(u1*h^2 -x^3)\n    uint256 qy = mulmod(hr[1], addmod(mulmod(zs[0], hr[2], _pp), _pp - qx, _pp), _pp);\n    qy = addmod(qy, _pp - mulmod(zs[1], hr[3], _pp), _pp);\n    // qz = h*z1*z2\n    uint256 qz = mulmod(hr[0], mulmod(_z1, _z2, _pp), _pp);\n    return(qx, qy, qz);\n  }\n  /// @dev Doubles a points (x, y, z).\n  /// @param _x coordinate x of P1\n  /// @param _y coordinate y of P1\n  /// @param _z coordinate z of P1\n  /// @param _aa the a scalar in the curve equation\n  /// @param _pp the modulus\n  /// @return (qx, qy, qz) 2P in Jacobian\n  function jacDouble(\n    uint256 _x,\n    uint256 _y,\n    uint256 _z,\n    uint256 _aa,\n    uint256 _pp)\n  internal pure returns (uint256, uint256, uint256)\n  {\n    if (_z == 0)\n      return (_x, _y, _z);\n    // We follow the equations described in https://pdfs.semanticscholar.org/5c64/29952e08025a9649c2b0ba32518e9a7fb5c2.pdf Section 5\n    // Note: there is a bug in the paper regarding the m parameter, M=3*(x1^2)+a*(z1^4)\n    // x, y, z at this point represent the squares of _x, _y, _z\n    uint256 x = mulmod(_x, _x, _pp); //x1^2\n    uint256 y = mulmod(_y, _y, _pp); //y1^2\n    uint256 z = mulmod(_z, _z, _pp); //z1^2\n    // s\n    uint s = mulmod(4, mulmod(_x, y, _pp), _pp);\n    // m\n    uint m = addmod(mulmod(3, x, _pp), mulmod(_aa, mulmod(z, z, _pp), _pp), _pp);\n    // x, y, z at this point will be reassigned and rather represent qx, qy, qz from the paper\n    // This allows to reduce the gas cost and stack footprint of the algorithm\n    // qx\n    x = addmod(mulmod(m, m, _pp), _pp - addmod(s, s, _pp), _pp);\n    // qy = -8*y1^4 + M(S-T)\n    y = addmod(mulmod(m, addmod(s, _pp - x, _pp), _pp), _pp - mulmod(8, mulmod(y, y, _pp), _pp), _pp);\n    // qz = 2*y1*z1\n    z = mulmod(2, mulmod(_y, _z, _pp), _pp);\n    return (x, y, z);\n  }\n  /// @dev Multiply point (x, y, z) times d.\n  /// @param _d scalar to multiply\n  /// @param _x coordinate x of P1\n  /// @param _y coordinate y of P1\n  /// @param _z coordinate z of P1\n  /// @param _aa constant of curve\n  /// @param _pp the modulus\n  /// @return (qx, qy, qz) d*P1 in Jacobian\n  function jacMul(\n    uint256 _d,\n    uint256 _x,\n    uint256 _y,\n    uint256 _z,\n    uint256 _aa,\n    uint256 _pp)\n  internal pure returns (uint256, uint256, uint256)\n  {\n    // Early return in case that `_d == 0`\n    if (_d == 0) {\n      return (_x, _y, _z);\n    }\n    uint256 remaining = _d;\n    uint256 qx = 0;\n    uint256 qy = 0;\n    uint256 qz = 1;\n    // Double and add algorithm\n    while (remaining != 0) {\n      if ((remaining & 1) != 0) {\n        (qx, qy, qz) = jacAdd(\n          qx,\n          qy,\n          qz,\n          _x,\n          _y,\n          _z,\n          _pp);\n      }\n      remaining = remaining / 2;\n      (_x, _y, _z) = jacDouble(\n        _x,\n        _y,\n        _z,\n        _aa,\n        _pp);\n    }\n    return (qx, qy, qz);\n  }\n}\n// File: vrf-solidity/contracts/VRF.sol\n\n/**\n * @title Verifiable Random Functions (VRF)\n * @notice Library verifying VRF proofs using the `Secp256k1` curve and the `SHA256` hash function.\n * @dev This library follows the algorithms described in [VRF-draft-04](https://tools.ietf.org/pdf/draft-irtf-cfrg-vrf-04) and [RFC6979](https://tools.ietf.org/html/rfc6979).\n * It supports the _SECP256K1_SHA256_TAI_ cipher suite, i.e. the aforementioned algorithms using `SHA256` and the `Secp256k1` curve.\n * @author Witnet Foundation\n */\nlibrary VRF {\n  /**\n   * Secp256k1 parameters\n   */\n  // Generator coordinate `x` of the EC curve\n  uint256 public constant GX = 0x79BE667EF9DCBBAC55A06295CE870B07029BFCDB2DCE28D959F2815B16F81798;\n  // Generator coordinate `y` of the EC curve\n  uint256 public constant GY = 0x483ADA7726A3C4655DA4FBFC0E1108A8FD17B448A68554199C47D08FFB10D4B8;\n  // Constant `a` of EC equation\n  uint256 public constant AA = 0;\n  // Constant `b` of EC equation\n  uint256 public constant BB = 7;\n  // Prime number of the curve\n  uint256 public constant PP = 0xFFFFFFFFFFFFFFFFFFFFFFFFFFFFFFFFFFFFFFFFFFFFFFFFFFFFFFFEFFFFFC2F;\n  // Order of the curve\n  uint256 public constant NN = 0xFFFFFFFFFFFFFFFFFFFFFFFFFFFFFFFEBAAEDCE6AF48A03BBFD25E8CD0364141;\n  /// @dev Public key derivation from private key.\n  /// Warning: this function should not be used to derive your public key as it would expose the private key.\n  /// @param _d The scalar\n  /// @param _x The coordinate x\n  /// @param _y The coordinate y\n  /// @return (qx, qy) The derived point\n  function derivePoint(uint256 _d, uint256 _x, uint256 _y) internal pure returns (uint256, uint256) {\n    return EllipticCurve.ecMul(\n      _d,\n      _x,\n      _y,\n      AA,\n      PP\n    );\n  }\n  /// @dev Function to derive the `y` coordinate given the `x` coordinate and the parity byte (`0x03` for odd `y` and `0x04` for even `y`).\n  /// @param _yByte The parity byte following the ec point compressed format\n  /// @param _x The coordinate `x` of the point\n  /// @return The coordinate `y` of the point\n  function deriveY(uint8 _yByte, uint256 _x) internal pure returns (uint256) {\n    return EllipticCurve.deriveY(\n      _yByte,\n      _x,\n      AA,\n      BB,\n      PP);\n  }\n  /// @dev Computes the VRF hash output as result of the digest of a ciphersuite-dependent prefix\n  /// concatenated with the gamma point\n  /// @param _gammaX The x-coordinate of the gamma EC point\n  /// @param _gammaY The y-coordinate of the gamma EC point\n  /// @return The VRF hash ouput as shas256 digest\n  function gammaToHash(uint256 _gammaX, uint256 _gammaY) internal pure returns (bytes32) {\n    bytes memory c = abi.encodePacked(\n      // Cipher suite code (SECP256K1-SHA256-TAI is 0xFE)\n      uint8(0xFE),\n      // 0x03\n      uint8(0x03),\n      // Compressed Gamma Point\n      encodePoint(_gammaX, _gammaY));\n    return sha256(c);\n  }\n  /// @dev VRF verification by providing the public key, the message and the VRF proof.\n  /// This function computes several elliptic curve operations which may lead to extensive gas consumption.\n  /// @param _publicKey The public key as an array composed of `[pubKey-x, pubKey-y]`\n  /// @param _proof The VRF proof as an array composed of `[gamma-x, gamma-y, c, s]`\n  /// @param _message The message (in bytes) used for computing the VRF\n  /// @return true, if VRF proof is valid\n  function verify(uint256[2] memory _publicKey, uint256[4] memory _proof, bytes memory _message) internal pure returns (bool) {\n    // Step 2: Hash to try and increment (outputs a hashed value, a finite EC point in G)\n    (uint256 hPointX, uint256 hPointY) = hashToTryAndIncrement(_publicKey, _message);\n    // Step 3: U = s*B - c*Y (where B is the generator)\n    (uint256 uPointX, uint256 uPointY) = ecMulSubMul(\n      _proof[3],\n      GX,\n      GY,\n      _proof[2],\n      _publicKey[0],\n      _publicKey[1]);\n    // Step 4: V = s*H - c*Gamma\n    (uint256 vPointX, uint256 vPointY) = ecMulSubMul(\n      _proof[3],\n      hPointX,\n      hPointY,\n      _proof[2],\n      _proof[0],_proof[1]);\n    // Step 5: derived c from hash points(...)\n    bytes16 derivedC = hashPoints(\n      hPointX,\n      hPointY,\n      _proof[0],\n      _proof[1],\n      uPointX,\n      uPointY,\n      vPointX,\n      vPointY);\n    // Step 6: Check validity c == c'\n    return uint128(derivedC) == _proof[2];\n  }\n  /// @dev VRF fast verification by providing the public key, the message, the VRF proof and several intermediate elliptic curve points that enable the verification shortcut.\n  /// This function leverages the EVM's `ecrecover` precompile to verify elliptic curve multiplications by decreasing the security from 32 to 20 bytes.\n  /// Based on the original idea of Vitalik Buterin: https://ethresear.ch/t/you-can-kinda-abuse-ecrecover-to-do-ecmul-in-secp256k1-today/2384/9\n  /// @param _publicKey The public key as an array composed of `[pubKey-x, pubKey-y]`\n  /// @param _proof The VRF proof as an array composed of `[gamma-x, gamma-y, c, s]`\n  /// @param _message The message (in bytes) used for computing the VRF\n  /// @param _uPoint The `u` EC point defined as `U = s*B - c*Y`\n  /// @param _vComponents The components required to compute `v` as `V = s*H - c*Gamma`\n  /// @return true, if VRF proof is valid\n  function fastVerify(\n    uint256[2] memory _publicKey,\n    uint256[4] memory _proof,\n    bytes memory _message,\n    uint256[2] memory _uPoint,\n    uint256[4] memory _vComponents)\n  internal pure returns (bool)\n  {\n    // Step 2: Hash to try and increment -> hashed value, a finite EC point in G\n    (uint256 hPointX, uint256 hPointY) = hashToTryAndIncrement(_publicKey, _message);\n    // Step 3 & Step 4:\n    // U = s*B - c*Y (where B is the generator)\n    // V = s*H - c*Gamma\n    if (!ecMulSubMulVerify(\n      _proof[3],\n      _proof[2],\n      _publicKey[0],\n      _publicKey[1],\n      _uPoint[0],\n      _uPoint[1]) ||\n      !ecMulVerify(\n        _proof[3],\n        hPointX,\n        hPointY,\n        _vComponents[0],\n        _vComponents[1]) ||\n      !ecMulVerify(\n        _proof[2],\n        _proof[0],\n        _proof[1],\n        _vComponents[2],\n        _vComponents[3])\n      )\n    {\n      return false;\n    }\n    (uint256 vPointX, uint256 vPointY) = EllipticCurve.ecSub(\n      _vComponents[0],\n      _vComponents[1],\n      _vComponents[2],\n      _vComponents[3],\n      AA,\n      PP);\n    // Step 5: derived c from hash points(...)\n    bytes16 derivedC = hashPoints(\n      hPointX,\n      hPointY,\n      _proof[0],\n      _proof[1],\n      _uPoint[0],\n      _uPoint[1],\n      vPointX,\n      vPointY);\n    // Step 6: Check validity c == c'\n    return uint128(derivedC) == _proof[2];\n  }\n  /// @dev Decode VRF proof from bytes\n  /// @param _proof The VRF proof as bytes\n  /// @return The VRF proof as an array composed of `[gamma-x, gamma-y, c, s]`\n  function decodeProof(bytes memory _proof) internal pure returns (uint[4] memory) {\n    require(_proof.length == 81, \"Malformed VRF proof\");\n    uint8 gammaSign;\n    uint256 gammaX;\n    uint128 c;\n    uint256 s;\n    assembly {\n      gammaSign := mload(add(_proof, 1))\n\t    gammaX := mload(add(_proof, 33))\n      c := mload(add(_proof, 49))\n      s := mload(add(_proof, 81))\n    }\n    uint256 gammaY = deriveY(gammaSign, gammaX);\n    return [\n      gammaX,\n      gammaY,\n      c,\n      s];\n  }\n  /// @dev Decode EC point from bytes\n  /// @param _point The EC point as bytes\n  /// @return The point as `[point-x, point-y]`\n  function decodePoint(bytes memory _point) internal pure returns (uint[2] memory) {\n    require(_point.length == 33, \"Malformed compressed EC point\");\n    uint8 sign;\n    uint256 x;\n    assembly {\n      sign := mload(add(_point, 1))\n\t    x := mload(add(_point, 33))\n    }\n    uint256 y = deriveY(sign, x);\n    return [x, y];\n  }\n  /// @dev Compute the parameters (EC points) required for the VRF fast verification function.\n  /// @param _publicKey The public key as an array composed of `[pubKey-x, pubKey-y]`\n  /// @param _proof The VRF proof as an array composed of `[gamma-x, gamma-y, c, s]`\n  /// @param _message The message (in bytes) used for computing the VRF\n  /// @return The fast verify required parameters as the tuple `([uPointX, uPointY], [sHX, sHY, cGammaX, cGammaY])`\n  function computeFastVerifyParams(uint256[2] memory _publicKey, uint256[4] memory _proof, bytes memory _message)\n    internal pure returns (uint256[2] memory, uint256[4] memory)\n  {\n    // Requirements for Step 3: U = s*B - c*Y (where B is the generator)\n    (uint256 hPointX, uint256 hPointY) = hashToTryAndIncrement(_publicKey, _message);\n    (uint256 uPointX, uint256 uPointY) = ecMulSubMul(\n      _proof[3],\n      GX,\n      GY,\n      _proof[2],\n      _publicKey[0],\n      _publicKey[1]);\n    // Requirements for Step 4: V = s*H - c*Gamma\n    (uint256 sHX, uint256 sHY) = derivePoint(_proof[3], hPointX, hPointY);\n    (uint256 cGammaX, uint256 cGammaY) = derivePoint(_proof[2], _proof[0], _proof[1]);\n    return (\n      [uPointX, uPointY],\n      [\n        sHX,\n        sHY,\n        cGammaX,\n        cGammaY\n      ]);\n  }\n  /// @dev Function to convert a `Hash(PK|DATA)` to a point in the curve as defined in [VRF-draft-04](https://tools.ietf.org/pdf/draft-irtf-cfrg-vrf-04).\n  /// Used in Step 2 of VRF verification function.\n  /// @param _publicKey The public key as an array composed of `[pubKey-x, pubKey-y]`\n  /// @param _message The message used for computing the VRF\n  /// @return The hash point in affine cooridnates\n  function hashToTryAndIncrement(uint256[2] memory _publicKey, bytes memory _message) internal pure returns (uint, uint) {\n    // Step 1: public key to bytes\n    // Step 2: V = cipher_suite | 0x01 | public_key_bytes | message | ctr\n    bytes memory c = abi.encodePacked(\n      // Cipher suite code (SECP256K1-SHA256-TAI is 0xFE)\n      uint8(254),\n      // 0x01\n      uint8(1),\n      // Public Key\n      encodePoint(_publicKey[0], _publicKey[1]),\n      // Message\n      _message);\n    // Step 3: find a valid EC point\n    // Loop over counter ctr starting at 0x00 and do hash\n    for (uint8 ctr = 0; ctr < 256; ctr++) {\n      // Counter update\n      // c[cLength-1] = byte(ctr);\n      bytes32 sha = sha256(abi.encodePacked(c, ctr));\n      // Step 4: arbitraty string to point and check if it is on curve\n      uint hPointX = uint256(sha);\n      uint hPointY = deriveY(2, hPointX);\n      if (EllipticCurve.isOnCurve(\n        hPointX,\n        hPointY,\n        AA,\n        BB,\n        PP))\n      {\n        // Step 5 (omitted): calculate H (cofactor is 1 on secp256k1)\n        // If H is not \"INVALID\" and cofactor > 1, set H = cofactor * H\n        return (hPointX, hPointY);\n      }\n    }\n    revert(\"No valid point was found\");\n  }\n  /// @dev Function to hash a certain set of points as specified in [VRF-draft-04](https://tools.ietf.org/pdf/draft-irtf-cfrg-vrf-04).\n  /// Used in Step 5 of VRF verification function.\n  /// @param _hPointX The coordinate `x` of point `H`\n  /// @param _hPointY The coordinate `y` of point `H`\n  /// @param _gammaX The coordinate `x` of the point `Gamma`\n  /// @param _gammaX The coordinate `y` of the point `Gamma`\n  /// @param _uPointX The coordinate `x` of point `U`\n  /// @param _uPointY The coordinate `y` of point `U`\n  /// @param _vPointX The coordinate `x` of point `V`\n  /// @param _vPointY The coordinate `y` of point `V`\n  /// @return The first half of the digest of the points using SHA256\n  function hashPoints(\n    uint256 _hPointX,\n    uint256 _hPointY,\n    uint256 _gammaX,\n    uint256 _gammaY,\n    uint256 _uPointX,\n    uint256 _uPointY,\n    uint256 _vPointX,\n    uint256 _vPointY)\n  internal pure returns (bytes16)\n  {\n    bytes memory c = abi.encodePacked(\n      // Ciphersuite 0xFE\n      uint8(254),\n      // Prefix 0x02\n      uint8(2),\n      // Points to Bytes\n      encodePoint(_hPointX, _hPointY),\n      encodePoint(_gammaX, _gammaY),\n      encodePoint(_uPointX, _uPointY),\n      encodePoint(_vPointX, _vPointY)\n    );\n    // Hash bytes and truncate\n    bytes32 sha = sha256(c);\n    bytes16 half1;\n    assembly {\n      let freemem_pointer := mload(0x40)\n      mstore(add(freemem_pointer,0x00), sha)\n      half1 := mload(add(freemem_pointer,0x00))\n    }\n    return half1;\n  }\n  /// @dev Encode an EC point to bytes\n  /// @param _x The coordinate `x` of the point\n  /// @param _y The coordinate `y` of the point\n  /// @return The point coordinates as bytes\n  function encodePoint(uint256 _x, uint256 _y) internal pure returns (bytes memory) {\n    uint8 prefix = uint8(2 + (_y % 2));\n    return abi.encodePacked(prefix, _x);\n  }\n  /// @dev Substracts two key derivation functionsas `s1*A - s2*B`.\n  /// @param _scalar1 The scalar `s1`\n  /// @param _a1 The `x` coordinate of point `A`\n  /// @param _a2 The `y` coordinate of point `A`\n  /// @param _scalar2 The scalar `s2`\n  /// @param _b1 The `x` coordinate of point `B`\n  /// @param _b2 The `y` coordinate of point `B`\n  /// @return The derived point in affine cooridnates\n  function ecMulSubMul(\n    uint256 _scalar1,\n    uint256 _a1,\n    uint256 _a2,\n    uint256 _scalar2,\n    uint256 _b1,\n    uint256 _b2)\n  internal pure returns (uint256, uint256)\n  {\n    (uint256 m1, uint256 m2) = derivePoint(_scalar1, _a1, _a2);\n    (uint256 n1, uint256 n2) = derivePoint(_scalar2, _b1, _b2);\n    (uint256 r1, uint256 r2) = EllipticCurve.ecSub(\n      m1,\n      m2,\n      n1,\n      n2,\n      AA,\n      PP);\n    return (r1, r2);\n  }\n  /// @dev Verify an Elliptic Curve multiplication of the form `(qx,qy) = scalar*(x,y)` by using the precompiled `ecrecover` function.\n  /// The usage of the precompiled `ecrecover` function decreases the security from 32 to 20 bytes.\n  /// Based on the original idea of Vitalik Buterin: https://ethresear.ch/t/you-can-kinda-abuse-ecrecover-to-do-ecmul-in-secp256k1-today/2384/9\n  /// @param _scalar The scalar of the point multiplication\n  /// @param _x The coordinate `x` of the point\n  /// @param _y The coordinate `y` of the point\n  /// @param _qx The coordinate `x` of the multiplication result\n  /// @param _qy The coordinate `y` of the multiplication result\n  /// @return true, if first 20 bytes match\n  function ecMulVerify(\n    uint256 _scalar,\n    uint256 _x,\n    uint256 _y,\n    uint256 _qx,\n    uint256 _qy)\n  internal pure returns(bool)\n  {\n    address result = ecrecover(\n      0,\n      _y % 2 != 0 ? 28 : 27,\n      bytes32(_x),\n      bytes32(mulmod(_scalar, _x, NN)));\n    return pointToAddress(_qx, _qy) == result;\n  }\n  /// @dev Verify an Elliptic Curve operation of the form `Q = scalar1*(gx,gy) - scalar2*(x,y)` by using the precompiled `ecrecover` function, where `(gx,gy)` is the generator of the EC.\n  /// The usage of the precompiled `ecrecover` function decreases the security from 32 to 20 bytes.\n  /// Based on SolCrypto library: https://github.com/HarryR/solcrypto\n  /// @param _scalar1 The scalar of the multiplication of `(gx,gy)`\n  /// @param _scalar2 The scalar of the multiplication of `(x,y)`\n  /// @param _x The coordinate `x` of the point to be mutiply by `scalar2`\n  /// @param _y The coordinate `y` of the point to be mutiply by `scalar2`\n  /// @param _qx The coordinate `x` of the equation result\n  /// @param _qy The coordinate `y` of the equation result\n  /// @return true, if first 20 bytes match\n  function ecMulSubMulVerify(\n    uint256 _scalar1,\n    uint256 _scalar2,\n    uint256 _x,\n    uint256 _y,\n    uint256 _qx,\n    uint256 _qy)\n  internal pure returns(bool)\n  {\n    uint256 scalar1 = (NN - _scalar1) % NN;\n    scalar1 = mulmod(scalar1, _x, NN);\n    uint256 scalar2 = (NN - _scalar2) % NN;\n    address result = ecrecover(\n      bytes32(scalar1),\n      _y % 2 != 0 ? 28 : 27,\n      bytes32(_x),\n      bytes32(mulmod(scalar2, _x, NN)));\n    return pointToAddress(_qx, _qy) == result;\n  }\n  /// @dev Gets the address corresponding to the EC point digest (keccak256), i.e. the first 20 bytes of the digest.\n  /// This function is used for performing a fast EC multiplication verification.\n  /// @param _x The coordinate `x` of the point\n  /// @param _y The coordinate `y` of the point\n  /// @return The address of the EC point digest (keccak256)\n  function pointToAddress(uint256 _x, uint256 _y)\n      internal pure returns(address)\n  {\n    return address(uint160(uint256(keccak256(abi.encodePacked(_x, _y)))) & 0x00FFFFFFFFFFFFFFFFFFFFFFFFFFFFFFFFFFFFFFFF);\n  }\n}\n// File: VRFHelper.sol\n\npragma solidity ^ 0.8.17;\n/* helper functions */\ncontract VRFHelper{\n    function verify(uint256[2] memory _publicKey, uint256[4] memory _proof, bytes memory _message) public pure returns (bool) {\n        return VRF.verify(_publicKey, _proof, _message);\n    }\n    function decodeProof(bytes memory _proof) public pure returns(uint[4] memory _decodedProof){\n        return VRF.decodeProof(_proof);\n    }\n    function decodePoint(bytes memory _point) public pure returns (uint[2] memory) {\n        return VRF.decodePoint(_point);\n    }\n    function pointToAddress(uint _x, uint _y) public pure returns(address){\n        return VRF.pointToAddress(_x, _y);\n    }\n}\n// File: CryptoRicks.sol\n\npragma solidity ^ 0.8.17;\ncontract CryptoRicks is ERC721Enumerable{\n    using Counters for Counters.Counter;\n    using Strings for uint256;\n    address public immutable Distributor;\n    uint public immutable PublicKeyPointX;\n    uint public immutable PublicKeyPointY;\n    uint public MaxSupply;\n    uint public MintValue;\n    string public BaseURI;\n    bytes32 public Root;\n    bool ProofVariables = false;\n    VRFHelper helper;\n    Counters.Counter public TokenIds;\n    modifier mintable(){\n        require(TokenIds.current() + 1 < MaxSupply, \"The maximum number of ricks have been minted.\");\n        require(ProofVariables, \"The BaseURI, VRF Public Key and Merkle Root have not been set\");\n        require(msg.value >= MintValue, \"Not enough Ether was sent.\");\n        _;\n    }\n    modifier onlyDistributor{\n        require(msg.sender == Distributor, \"Only the distributor can call this method.\");\n        _;\n    }\n    constructor(uint _maxSupply, uint _mintValue, uint[2] memory _publicKeyPoint, address _helper )ERC721(\"CryptoRicks\", \"CR\"){\n        Distributor = msg.sender;\n        helper = VRFHelper(_helper);\n        require(Distributor == helper.pointToAddress(_publicKeyPoint[0], _publicKeyPoint[1]), \"Invalid Public Key Point for Distributor Address.\");\n        PublicKeyPointX = _publicKeyPoint[0];\n        PublicKeyPointY = _publicKeyPoint[1];\n        MaxSupply = _maxSupply;\n        MintValue =_mintValue;\n        _mint(msg.sender, 0);\n    }\n    function _baseURI() internal override view returns (string memory) {\n        return BaseURI;\n    }\n    function setProofVariables(string memory _uri, bytes32 _root) public onlyDistributor{\n        require(ProofVariables == false, \"BaseURI and Root have already been set\");\n        //require(PublicKeyHash == keccak256(abi.encodePacked(_publicKey)), \"Invalid public key given.\");\n        ProofVariables = true;\n        BaseURI = _uri;\n        //PublicKey = _publicKey;\n        Root = _root;\n        //PublicKeyPoint = helper.decodePoint(_publicKey);\n    }\n    function tokenURI(uint256 _tokenId) public view virtual override returns (string memory) {\n        _requireMinted(_tokenId);\n        string memory baseURI = _baseURI();\n        return bytes(baseURI).length > 0 ? string(abi.encodePacked(baseURI, _tokenId.toString(), \".json\")) : \"\";\n    }\n    function mint(address _receiver) public payable mintable {\n        TokenIds.increment();\n        uint _id = TokenIds.current();\n        _safeMint(_receiver, _id);\n    }\n    function claim() public onlyDistributor{\n        (bool sent, ) = Distributor.call{value: address(this).balance}(\"\");\n        require(sent, \"Failed to send Ether\");\n    }\n    /*\n    function createLeaf(string memory _CID, bytes memory _message, bytes memory _vrfProof) public pure returns(bytes32){\n        return keccak256(abi.encodePacked( _CID, _message, _vrfProof));\n    }\n    function verifyLeaf(bytes32[] memory _merkleProof, bytes32 _leaf) public view returns(bool _verified){\n        return MerkleProof.verify(_merkleProof, Root, _leaf);\n    }\n    function verifyVRF(bytes memory _message, bytes memory _vrfProof) public view returns(bool _verified){\n        uint[4] memory proof = helper.decodeProof(_vrfProof);\n        return helper.verify(PublicKeyPoint, proof, _message);\n    }*/\n    function verify(bytes32[] memory _merkleProof, string memory _CID, bytes memory _vrfMessage, bytes memory _vrfProof) public view returns(bool _verified){\n        bytes32 leaf = keccak256(abi.encodePacked(_CID, _vrfMessage, _vrfProof));\n        require(MerkleProof.verify(_merkleProof, Root, leaf), \"Invalid Merkle Proof\");\n        return helper.verify([PublicKeyPointX, PublicKeyPointY], helper.decodeProof(_vrfProof), _vrfMessage);\n    }\n}\n",
  "sourcePath": "/home/stephensb/sb-labs/solidity-contracts/contracts/crypto-ricks/flatten/Flattened.sol",
  "compiler": {
    "name": "solc",
    "version": "0.8.17+commit.8df45f5f.Emscripten.clang"
  },
  "schemaVersion": "3.4.12",
  "updatedAt": "2023-08-13T04:47:32.030Z",
  "devdoc": {
    "author": "Witnet Foundation",
    "details": "This library follows the algorithms described in [VRF-draft-04](https://tools.ietf.org/pdf/draft-irtf-cfrg-vrf-04) and [RFC6979](https://tools.ietf.org/html/rfc6979). It supports the _SECP256K1_SHA256_TAI_ cipher suite, i.e. the aforementioned algorithms using `SHA256` and the `Secp256k1` curve.",
    "kind": "dev",
    "methods": {},
    "title": "Verifiable Random Functions (VRF)",
    "version": 1
  },
  "userdoc": {
    "kind": "user",
    "methods": {
      "GX()": {
        "notice": "Secp256k1 parameters"
      }
    },
    "notice": "Library verifying VRF proofs using the `Secp256k1` curve and the `SHA256` hash function.",
    "version": 1
  }
}