{
  "contractName": "VRFHelper",
  "abi": [
    {
      "inputs": [
        {
          "internalType": "uint256[2]",
          "name": "_publicKey",
          "type": "uint256[2]"
        },
        {
          "internalType": "uint256[4]",
          "name": "_proof",
          "type": "uint256[4]"
        },
        {
          "internalType": "bytes",
          "name": "_message",
          "type": "bytes"
        }
      ],
      "name": "verify",
      "outputs": [
        {
          "internalType": "bool",
          "name": "",
          "type": "bool"
        }
      ],
      "stateMutability": "pure",
      "type": "function"
    },
    {
      "inputs": [
        {
          "internalType": "bytes",
          "name": "_proof",
          "type": "bytes"
        }
      ],
      "name": "decodeProof",
      "outputs": [
        {
          "internalType": "uint256[4]",
          "name": "_decodedProof",
          "type": "uint256[4]"
        }
      ],
      "stateMutability": "pure",
      "type": "function"
    },
    {
      "inputs": [
        {
          "internalType": "bytes",
          "name": "_point",
          "type": "bytes"
        }
      ],
      "name": "decodePoint",
      "outputs": [
        {
          "internalType": "uint256[2]",
          "name": "",
          "type": "uint256[2]"
        }
      ],
      "stateMutability": "pure",
      "type": "function"
    },
    {
      "inputs": [
        {
          "internalType": "uint256",
          "name": "_x",
          "type": "uint256"
        },
        {
          "internalType": "uint256",
          "name": "_y",
          "type": "uint256"
        }
      ],
      "name": "pointToAddress",
      "outputs": [
        {
          "internalType": "address",
          "name": "",
          "type": "address"
        }
      ],
      "stateMutability": "pure",
      "type": "function"
    }
  ],
  "bytecode": "0x60808060405234610016576111ed908161001c8239f35b600080fdfe60806040526004361015610013575b600080fd5b60003560e01c806303a51c5a1461006357806351cdea5f1461005a578063bbe95b4c146100515763c9d4ef1f1461004957600080fd5b61000e6103be565b5061000e6102f0565b5061000e610209565b3461000e57604036600319011261000e5760043560a05260243560c052604060805261008f60e0604052565b60805160a0206040516001600160a01b039091168152602090f35b0390f35b50634e487b7160e01b600052604160045260246000fd5b6040810190811067ffffffffffffffff8211176100e157604052565b6100e96100ae565b604052565b6080810190811067ffffffffffffffff8211176100e157604052565b90601f8019910116810190811067ffffffffffffffff8211176100e157604052565b60405190610139826100c5565b565b60405190610139826100ee565b81601f8201121561000e5780359067ffffffffffffffff82116101a0575b6040519261017e601f8401601f19166020018561010a565b8284526020838301011161000e57816000926020809301838601378301015290565b6101a86100ae565b610166565b602060031982011261000e576004359067ffffffffffffffff821161000e576101d891600401610148565b90565b6040810192916000915b600283106101f257505050565b6001908251815260208091019201920191906101e5565b503461000e57610218366101ad565b604090818051610227816100c5565b369037818051610236816100c5565b3690376021815103610274576100aa9161025a6021600184015193015180936105c6565b61026261012c565b928352602083015251918291826101db565b815162461bcd60e51b815260206004820152601d60248201527f4d616c666f726d656420636f6d7072657373656420454320706f696e740000006044820152606490fd5b90604051916102c6836100ee565b8260c491821161000e576044905b8282106102e057505050565b81358152602091820191016102d4565b503461000e5760e036600319011261000e57366023121561000e57604051610317816100c5565b60448136821161000e576004905b8282106103805783366063121561000e5761033f366102b8565b9060c4359067ffffffffffffffff821161000e576100aa9261036861036e933690600401610148565b91610499565b60405190151581529081906020820190565b8135815260209182019101610325565b6080810192916000915b600483106103a757505050565b60019082518152602080910192019201919061039a565b503461000e576103cd366101ad565b60806040516103db816100ee565b36903760806040516103ec816100ee565b369037605181510361044a578060016100aa9201516001600160801b036021830151926104238460516031840151930151946105c6565b61042b61013b565b9485526020850152166040830152606082015260405191829182610390565b60405162461bcd60e51b815260206004820152601360248201527226b0b63337b936b2b2102b292310383937b7b360691b6044820152606490fd5b60405190610492826100ee565b6080368337565b61055a610560916001600160801b03936104ee6104b96105179784610810565b93908461054e60608601938451908761053c604082019e8f946104fc6104ee8751926104f46104ee60208a519a0151926110a7565b91610b4e565b989094611151565b956401000003d0198781988210610568575b81030692610a89565b999098519451946105346104ee602086519601998b8b5194611151565b949096611151565b80849294106105685781030692610a89565b9690955191519261097f565b60801c90565b915191161490565b610570610671565b61050e565b610598906401000003d019908180600781600085090891818180099009086106e9565b60021981116105b9575b600281016001166105b05790565b6101d8906106c0565b6105c1610671565b6105a2565b60ff1690600282148015610667575b156106175761060a610603610610926401000003d019908180600781600085090891818180099009086106e9565b9283610688565b60011690565b6105b05790565b60405162461bcd60e51b815260206004820152602260248201527f496e76616c696420636f6d7072657373656420454320706f696e7420707265666044820152610d2f60f31b6064820152608490fd5b50600382146105d5565b50634e487b7160e01b600052601160045260246000fd5b81198111610694570190565b61069c610671565b0190565b81156106aa570490565b634e487b7160e01b600052601260045260246000fd5b6401000003d0198181106106d2570390565b6106da610671565b0390565b8181106106d2570390565b801561076457600190600160ff1b908290825b6107065750505090565b9091926401000003d019908180808063400000f4600160fe1b0394818a87161515890a918009098189891c86161515880a91800909818860021c85161515870a91800909918660031c161515840a918009099260041c9190826106fc565b50600090565b90815180926000905b82821061078e575011610784570190565b6000828201520190565b915080602080928401015181850152018391610773565b607f60f91b8152600160f81b60018201526101d892916107c8916002019061076a565b9061076a565b60ff6001911660ff8114610694570190565b6107ed906001939261076a565b60f89190911b6001600160f81b03191681520190565b506040513d6000823e3d90fd5b91600091610825845160208096015190610a23565b9260409361083985519384928884016107a5565b0361084c601f199182810185528461010a565b815b61010060ff82161061089e57855162461bcd60e51b815260206004820152601860248201527f4e6f2076616c696420706f696e742077617320666f756e6400000000000000006044820152606490fd5b86836108cd88516108c2816108b6878b8884016107e0565b0387810183528261010a565b89519182809261076a565b039060025afa1561090d575b82516108e481610575565b906108ef828261091a565b6109035750506108fe906107ce565b61084e565b9750955050505050565b610915610803565b6108d9565b8015801561096f575b8015610967575b8015610957575b610950576007906401000003d019918282818181950909089180091490565b5050600090565b506401000003d019821015610931565b50811561092a565b506401000003d019811015610923565b936107c86000976107c86109bf60209b6109b96109ff9b6109b36109f39b6109ad6109e59b6107c89f610a23565b9b610a23565b97610a23565b93610a23565b604051607f60f91b8d820152600160f91b6021820152988997919591602289019061076a565b03601f19810183528261010a565b6040519182809261076a565b039060025afa15610a16575b600051806040515290565b610a1e610803565b610a0b565b90600116908119600211610a7c575b6040519160ff60f81b9060020160f81b1660208301526021820152602181526060810181811067ffffffffffffffff821117610a6f575b60405290565b610a776100ae565b610a69565b610a84610671565b610a32565b9091808203610b3e57506401000003d01980938308610aad57505050600090600090565b82610b1393838009918180600081808080898809600409958009600309088180806001818080808a8008808210610b31575b810381898009089a8b8210610b24575b8009600809998a8310610b17575b0960020996810393868203900890090890610b4e565b9091565b610b1f610671565b610afd565b610b2c610671565b610aef565b610b39610671565b610adf565b610b4c92610b139492610ca0565b915b919291908315158481610c24575b5080610c1c575b15610be65760009360016401000003d019825b610ba3575050506401000003d01984800991826401000003d0199109936401000003d01992839109900990565b80610bd8610bb785610bde949a969a6106a0565b93946401000003d01990610bcd828888096106c0565b900894988094610c35565b906106de565b919082610b76565b60405162461bcd60e51b815260206004820152600e60248201526d24b73b30b634b210373ab6b132b960911b6044820152606490fd5b506001610b63565b6401000003d0191415905038610b5c565b8060001904821181151516610c48570290565b610c50610671565b0290565b15610c5b57565b60405162461bcd60e51b815260206004820152601e60248201527f557365206a6163446f75626c652066756e6374696f6e20696e737465616400006044820152606490fd5b92909391831580610e0f575b610e0657801580610dfe575b610df457606090610d4395610ccb610485565b9560018752602087019060018252604088016001815285890160018152610cf061013b565b9a8b9a6401000003d0199c8d9a8b9a8b8080809c81809c819c519009998a88525190099c8d96602087019e8f5251900992604085019a848c525190099201948286521491821592610de9575b5050610c54565b610d4b610485565b9a8b94518b51610d5a906106c0565b90088452518551610d6a906106c0565b9008978180602085019a808c5281808751928180808680099560408c0196808852099960600199808b52610d9d906106c0565b918009088180875185519009600209610db5906106c0565b90089b51935190519009610dc88b6106c0565b90089009925190519009610ddb906106c0565b900893516001900991929190565b141590503880610d3c565b5050909190600190565b508115610cb8565b93509150600190565b508415610cac565b91949290959395821580610ffc575b610ff257811580610fea575b610fe057610eea610e41610485565b6401000003d0198880098082526401000003d01990890960208201526401000003d01986800960408201818152906401000003d0199088096060830152610e8661013b565b956401000003d01991519009928386526401000003d01990606083015190099060208601948286526401000003d019908251900990604087019a828c5260206401000003d01992015190099060608701948286521491821592610de9575050610c54565b610ef2610485565b96516401000003d01990610f0685516106c0565b90088752516401000003d01990610f1d83516106c0565b900890610fc9602088019383855288516401000003d01981800960408b01818152916401000003d019910960608b0195818752610f606401000003d019926106c0565b906401000003d01990800908825182516401000003d0199291610f8b918491829190096002096106c0565b90089551915190516401000003d01991096401000003d01991908290610fb0886106c0565b90089009915192516401000003d01993849190096106c0565b900894519094936401000003d01992839109900990565b9550509050929190565b508615610e32565b5091935050929190565b508015610e26565b92909180156101d8576401000003d01993849182918290818781808080808080808080808f8009800960000981808d8009600309089780098099096004099d8e800880821061109a575b810381868009089586821061108d575b80096008099a8b8210611080575b849b82039482039008900908940960020990565b611088610671565b61106c565b611095610671565b61105e565b6110a2610671565b61104e565b7f79be667ef9dcbbac55a06295ce870b07029bfcdb2dce28d959f2815b16f81798917f483ada7726a3c4655da4fbfc0e1108a8fd17b448a68554199c47d08ffb10d4b8600192801561114c576000948592918590805b61110a5750505050929190565b6001811661112e575b906111239160011c938493611004565b9093919290916110fd565b9390838382986111239a61114195610e17565b909750959093611113565b509190565b91929092600192801561114c576000948592918590805b6111755750505050929190565b60018116611199575b9061118e9160011c938493611004565b909391929091611168565b93908383829861118e9a6111ac95610e17565b90975095909361117e56fea2646970667358221220a9e945d6b773fb079167a80e36134fb62a52bd35ece1d07423f3586862f20fc064736f6c634300080f0033",
  "immutableReferences": {},
  "source": "// SPDX-License-Identifier: MIT\npragma solidity ^ 0.8.0;\n\nimport \"vrf-solidity/contracts/VRF.sol\";\n\n/* helper functions */\ncontract VRFHelper{\n\n    function verify(uint256[2] memory _publicKey, uint256[4] memory _proof, bytes memory _message) public pure returns (bool) {\n        return VRF.verify(_publicKey, _proof, _message);\n    }\n\n    function decodeProof(bytes memory _proof) public pure returns(uint[4] memory _decodedProof){\n        return VRF.decodeProof(_proof);\n    }\n\n    function decodePoint(bytes memory _point) public pure returns (uint[2] memory) {\n        return VRF.decodePoint(_point);\n    }\n\n    function pointToAddress(uint _x, uint _y) public pure returns(address){\n        return VRF.pointToAddress(_x, _y);\n    }\n}\n    ",
  "sourcePath": "/home/stephensb/sb-labs/solidity-contracts/contracts/crypto-ricks/VRFHelper.sol",
  "compiler": {
    "name": "solc",
    "version": "0.8.15+commit.e14f2714.Emscripten.clang"
  },
  "schemaVersion": "3.4.12",
  "updatedAt": "2023-11-27T05:44:41.301Z",
  "devdoc": {
    "kind": "dev",
    "methods": {},
    "version": 1
  },
  "userdoc": {
    "kind": "user",
    "methods": {},
    "version": 1
  }
}