{
  "contractName": "WBTCPriceFeed",
  "abi": [
    {
      "inputs": [
        {
          "internalType": "address",
          "name": "WBTCToBTCPriceFeed_",
          "type": "address"
        },
        {
          "internalType": "address",
          "name": "BTCToUSDPriceFeed_",
          "type": "address"
        },
        {
          "internalType": "uint8",
          "name": "decimals_",
          "type": "uint8"
        }
      ],
      "stateMutability": "nonpayable",
      "type": "constructor"
    },
    {
      "inputs": [],
      "name": "BadDecimals",
      "type": "error"
    },
    {
      "inputs": [],
      "name": "InvalidInt256",
      "type": "error"
    },
    {
      "inputs": [],
      "name": "BTCToUSDPriceFeed",
      "outputs": [
        {
          "internalType": "address",
          "name": "",
          "type": "address"
        }
      ],
      "stateMutability": "view",
      "type": "function"
    },
    {
      "inputs": [],
      "name": "WBTCToBTCPriceFeed",
      "outputs": [
        {
          "internalType": "address",
          "name": "",
          "type": "address"
        }
      ],
      "stateMutability": "view",
      "type": "function"
    },
    {
      "inputs": [],
      "name": "combinedScale",
      "outputs": [
        {
          "internalType": "int256",
          "name": "",
          "type": "int256"
        }
      ],
      "stateMutability": "view",
      "type": "function"
    },
    {
      "inputs": [],
      "name": "decimals",
      "outputs": [
        {
          "internalType": "uint8",
          "name": "",
          "type": "uint8"
        }
      ],
      "stateMutability": "view",
      "type": "function"
    },
    {
      "inputs": [],
      "name": "description",
      "outputs": [
        {
          "internalType": "string",
          "name": "",
          "type": "string"
        }
      ],
      "stateMutability": "view",
      "type": "function"
    },
    {
      "inputs": [],
      "name": "priceFeedScale",
      "outputs": [
        {
          "internalType": "int256",
          "name": "",
          "type": "int256"
        }
      ],
      "stateMutability": "view",
      "type": "function"
    },
    {
      "inputs": [],
      "name": "version",
      "outputs": [
        {
          "internalType": "uint256",
          "name": "",
          "type": "uint256"
        }
      ],
      "stateMutability": "view",
      "type": "function"
    },
    {
      "inputs": [],
      "name": "latestRoundData",
      "outputs": [
        {
          "internalType": "uint80",
          "name": "",
          "type": "uint80"
        },
        {
          "internalType": "int256",
          "name": "",
          "type": "int256"
        },
        {
          "internalType": "uint256",
          "name": "",
          "type": "uint256"
        },
        {
          "internalType": "uint256",
          "name": "",
          "type": "uint256"
        },
        {
          "internalType": "uint80",
          "name": "",
          "type": "uint80"
        }
      ],
      "stateMutability": "view",
      "type": "function"
    }
  ],
  "bytecode": "0x610120604090808252346102125760608161088880380380916100228285610217565b8339810103126102125761003581610250565b9060209061004f84610048848401610250565b9201610264565b928060a0528160c052845163313ce56760e01b92838252848260048160018060a01b038097165afa9384156102075785926000956101ca575b50600490885194859384928352165afa9283156101bf57600093610181575b505060ff80911691168060ff03821161016b576100c49101610272565b6001600160ff1b03811161015a5760e05260ff81169060128211610149576080526100ee90610272565b906101009182525161060491826102848339608051826101f8015260a051828181610230015261041a015260c0518281816102ad015261045c015260e05182818161027601526104de0152518181816101a101526104b60152f35b8251630456c65960e51b8152600490fd5b825163e7e828ad60e01b8152600490fd5b634e487b7160e01b600052601160045260246000fd5b8181949293943d83116101b8575b6101998183610217565b810103126101b5575060ff6101ae8192610264565b92916100a7565b80fd5b503d61018f565b85513d6000823e3d90fd5b919282819692963d8311610200575b6101e38183610217565b810103126101b557509060046101f98693610264565b9490610088565b503d6101d9565b87513d6000823e3d90fd5b600080fd5b601f909101601f19168101906001600160401b0382119082101761023a57604052565b634e487b7160e01b600052604160045260246000fd5b51906001600160a01b038216820361021257565b519060ff8216820361021257565b60ff16604d811161016b57600a0a9056fe60806040818152600436101561001457600080fd5b600091823560e01c9081631de5ffd514610299575080632b9357df1461025f5780632c3596f21461021c578063313ce567146101df57806354fd4d50146101c45780635fd4c7c51461018a5780637284e416146100c65763feaf968c1461007a57600080fd5b346100c257816003193601126100c25760a0906100956103f6565b929480929192519569ffffffffffffffffffff809616875260208701528501526060840152166080820152f35b5080fd5b50346100c257816003193601126100c25780519181830183811067ffffffffffffffff8211176101765782939193526020908181527f437573746f6d207072696365206665656420666f722057425443202f20555344828201528251938285938452825192838286015282915b84831061015e5750508210610152575b50601f01601f19168101030190f35b83828401015238610143565b81830181015188840188015287955091820191610133565b634e487b7160e01b82526041600452602482fd5b50346100c257816003193601126100c257602090517f00000000000000000000000000000000000000000000000000000000000000008152f35b50346100c257816003193601126100c2576020905160018152f35b50346100c257816003193601126100c2576020905160ff7f0000000000000000000000000000000000000000000000000000000000000000168152f35b50346100c257816003193601126100c257517f00000000000000000000000000000000000000000000000000000000000000006001600160a01b03168152602090f35b50346100c257816003193601126100c257602090517f00000000000000000000000000000000000000000000000000000000000000008152f35b8390346100c257816003193601126100c2577f00000000000000000000000000000000000000000000000000000000000000006001600160a01b03168152602090f35b90601f8019910116810190811067ffffffffffffffff8211176102fe57604052565b634e487b7160e01b600052604160045260246000fd5b519069ffffffffffffffffffff8216820361032b57565b600080fd5b908160a091031261032b5761034481610314565b91602082015191604081015191610362608060608401519301610314565b90565b60008082138184136001600160ff1b038282168682048611166103ce57600160ff1b92848712929083168685058812166103e2578685871294058612908416166103ce5785900584129116166103ba57500290565b634e487b7160e01b81526011600452602490fd5b634e487b7160e01b84526011600452602484fd5b634e487b7160e01b85526011600452602485fd5b604051633fabe5a360e21b80825290916001600160a01b039160a0919082856004817f000000000000000000000000000000000000000000000000000000000000000088165afa94851561059c576000956105a8575b50829060046040518096819382527f0000000000000000000000000000000000000000000000000000000000000000165afa90811561059c57600094859086958795889561055e575b505060008113801590610553575b610549576104db916104b491610365565b7f000000000000000000000000000000000000000000000000000000000000000090610365565b947f000000000000000000000000000000000000000000000000000000000000000090811561053357600160ff1b871460001983141661051d57950593929190565b634e487b7160e01b600052601160045260246000fd5b634e487b7160e01b600052601260045260246000fd5b5050600093929190565b5060008213156104a3565b93965093509550506105859250803d10610595575b61057d81836102dc565b810190610330565b9395919490939290913880610495565b503d610573565b6040513d6000823e3d90fd5b839195506105c290823d84116105955761057d81836102dc565b5050509050949061044c56fea2646970667358221220879b5d09303f1f65897390e625fbe5a7a5facf371ea2c188a29fa8ac6ba952d064736f6c634300080f0033",
  "immutableReferences": {
    "14648": [
      {
        "length": 32,
        "start": 504
      }
    ],
    "14651": [
      {
        "length": 32,
        "start": 560
      },
      {
        "length": 32,
        "start": 1050
      }
    ],
    "14654": [
      {
        "length": 32,
        "start": 685
      },
      {
        "length": 32,
        "start": 1116
      }
    ],
    "14657": [
      {
        "length": 32,
        "start": 630
      },
      {
        "length": 32,
        "start": 1246
      }
    ],
    "14660": [
      {
        "length": 32,
        "start": 417
      },
      {
        "length": 32,
        "start": 1206
      }
    ]
  },
  "source": "// SPDX-License-Identifier: BUSL-1.1\npragma solidity 0.8.15;\n\nimport \"../vendor/@chainlink/contracts/src/v0.8/interfaces/AggregatorV3Interface.sol\";\nimport \"../IPriceFeed.sol\";\n\n/**\n * @title WBTC price feed\n * @notice A custom price feed that calculates the price for WBTC / USD\n * @author Compound\n */\ncontract WBTCPriceFeed is IPriceFeed {\n    /** Custom errors **/\n    error BadDecimals();\n    error InvalidInt256();\n\n    /// @notice Version of the price feed\n    uint public constant override version = 1;\n\n    /// @notice Description of the price feed\n    string public constant override description = \"Custom price feed for WBTC / USD\";\n\n    /// @notice Number of decimals for returned prices\n    uint8 public immutable override decimals;\n\n    /// @notice Chainlink WBTC / BTC price feed\n    address public immutable WBTCToBTCPriceFeed;\n\n    /// @notice Chainlink BTC / USD price feed\n    address public immutable BTCToUSDPriceFeed;\n\n    /// @notice Combined scale of the two underlying Chainlink price feeds\n    int public immutable combinedScale;\n\n    /// @notice Scale of this price feed\n    int public immutable priceFeedScale;\n\n    /**\n     * @notice Construct a new WBTC / USD price feed\n     * @param WBTCToBTCPriceFeed_ The address of the WBTC / BTC price feed to fetch prices from\n     * @param BTCToUSDPriceFeed_ The address of the BTC / USD price feed to fetch prices from\n     * @param decimals_ The number of decimals for the returned prices\n     **/\n    constructor(address WBTCToBTCPriceFeed_, address BTCToUSDPriceFeed_, uint8 decimals_) {\n        WBTCToBTCPriceFeed = WBTCToBTCPriceFeed_;\n        BTCToUSDPriceFeed = BTCToUSDPriceFeed_;\n        uint8 WBTCToBTCPriceFeedDecimals = AggregatorV3Interface(WBTCToBTCPriceFeed_).decimals();\n        uint8 BTCToUSDPriceFeedDecimals = AggregatorV3Interface(BTCToUSDPriceFeed_).decimals();\n        combinedScale = signed256(10 ** (WBTCToBTCPriceFeedDecimals + BTCToUSDPriceFeedDecimals));\n\n        if (decimals_ > 18) revert BadDecimals();\n        decimals = decimals_;\n        priceFeedScale = int256(10 ** decimals);\n    }\n\n    /**\n     * @notice WBTC price for the latest round\n     * @return roundId Round id from the BTC / USD price feed\n     * @return answer Latest price for WBTC / USD\n     * @return startedAt Timestamp when the round was started; passed on from the BTC / USD price feed\n     * @return updatedAt Timestamp when the round was last updated; passed on from the BTC / USD price feed\n     * @return answeredInRound Round id in which the answer was computed; passed on from the BTC / USD price feed\n     **/\n    function latestRoundData() override external view returns (uint80, int256, uint256, uint256, uint80) {\n        (, int256 WBTCToBTCPrice, , , ) = AggregatorV3Interface(WBTCToBTCPriceFeed).latestRoundData();\n        (uint80 roundId_, int256 BTCToUSDPrice, uint256 startedAt_, uint256 updatedAt_, uint80 answeredInRound_) = AggregatorV3Interface(BTCToUSDPriceFeed).latestRoundData();\n\n        // We return the round data of the BTC / USD price feed because of its shorter heartbeat (1hr vs 24hr)\n        if (WBTCToBTCPrice <= 0 || BTCToUSDPrice <= 0) return (roundId_, 0, startedAt_, updatedAt_, answeredInRound_);\n\n        int256 price = WBTCToBTCPrice * BTCToUSDPrice * priceFeedScale / combinedScale;\n        return (roundId_, price, startedAt_, updatedAt_, answeredInRound_);\n    }\n\n    function signed256(uint256 n) internal pure returns (int256) {\n        if (n > uint256(type(int256).max)) revert InvalidInt256();\n        return int256(n);\n    }\n}",
  "sourcePath": "/home/stephensb/sb-labs/solidity-contracts/contracts/comet/contracts/pricefeeds/WBTCPriceFeed.sol",
  "compiler": {
    "name": "solc",
    "version": "0.8.15+commit.e14f2714.Emscripten.clang"
  },
  "schemaVersion": "3.4.12",
  "updatedAt": "2023-11-30T22:41:29.715Z",
  "devdoc": {
    "author": "Compound",
    "kind": "dev",
    "methods": {
      "constructor": {
        "params": {
          "BTCToUSDPriceFeed_": "The address of the BTC / USD price feed to fetch prices from",
          "WBTCToBTCPriceFeed_": "The address of the WBTC / BTC price feed to fetch prices from",
          "decimals_": "The number of decimals for the returned prices*"
        }
      },
      "latestRoundData()": {
        "returns": {
          "_0": "roundId Round id from the BTC / USD price feed",
          "_1": "answer Latest price for WBTC / USD",
          "_2": "startedAt Timestamp when the round was started; passed on from the BTC / USD price feed",
          "_3": "updatedAt Timestamp when the round was last updated; passed on from the BTC / USD price feed",
          "_4": "answeredInRound Round id in which the answer was computed; passed on from the BTC / USD price feed*"
        }
      }
    },
    "title": "WBTC price feed",
    "version": 1
  },
  "userdoc": {
    "errors": {
      "BadDecimals()": [
        {
          "notice": "Custom errors *"
        }
      ]
    },
    "kind": "user",
    "methods": {
      "BTCToUSDPriceFeed()": {
        "notice": "Chainlink BTC / USD price feed"
      },
      "WBTCToBTCPriceFeed()": {
        "notice": "Chainlink WBTC / BTC price feed"
      },
      "combinedScale()": {
        "notice": "Combined scale of the two underlying Chainlink price feeds"
      },
      "constructor": {
        "notice": "Construct a new WBTC / USD price feed"
      },
      "decimals()": {
        "notice": "Number of decimals for returned prices"
      },
      "description()": {
        "notice": "Description of the price feed"
      },
      "latestRoundData()": {
        "notice": "WBTC price for the latest round"
      },
      "priceFeedScale()": {
        "notice": "Scale of this price feed"
      },
      "version()": {
        "notice": "Version of the price feed"
      }
    },
    "notice": "A custom price feed that calculates the price for WBTC / USD",
    "version": 1
  }
}