{
  "contractName": "WstETHPriceFeed",
  "abi": [
    {
      "inputs": [
        {
          "internalType": "address",
          "name": "stETHtoETHPriceFeed_",
          "type": "address"
        },
        {
          "internalType": "address",
          "name": "wstETH_",
          "type": "address"
        },
        {
          "internalType": "uint8",
          "name": "decimals_",
          "type": "uint8"
        }
      ],
      "stateMutability": "nonpayable",
      "type": "constructor"
    },
    {
      "inputs": [],
      "name": "BadDecimals",
      "type": "error"
    },
    {
      "inputs": [],
      "name": "InvalidInt256",
      "type": "error"
    },
    {
      "inputs": [],
      "name": "decimals",
      "outputs": [
        {
          "internalType": "uint8",
          "name": "",
          "type": "uint8"
        }
      ],
      "stateMutability": "view",
      "type": "function"
    },
    {
      "inputs": [],
      "name": "description",
      "outputs": [
        {
          "internalType": "string",
          "name": "",
          "type": "string"
        }
      ],
      "stateMutability": "view",
      "type": "function"
    },
    {
      "inputs": [],
      "name": "stETHToETHPriceFeedDecimals",
      "outputs": [
        {
          "internalType": "uint256",
          "name": "",
          "type": "uint256"
        }
      ],
      "stateMutability": "view",
      "type": "function"
    },
    {
      "inputs": [],
      "name": "stETHtoETHPriceFeed",
      "outputs": [
        {
          "internalType": "address",
          "name": "",
          "type": "address"
        }
      ],
      "stateMutability": "view",
      "type": "function"
    },
    {
      "inputs": [],
      "name": "version",
      "outputs": [
        {
          "internalType": "uint256",
          "name": "",
          "type": "uint256"
        }
      ],
      "stateMutability": "view",
      "type": "function"
    },
    {
      "inputs": [],
      "name": "wstETH",
      "outputs": [
        {
          "internalType": "address",
          "name": "",
          "type": "address"
        }
      ],
      "stateMutability": "view",
      "type": "function"
    },
    {
      "inputs": [],
      "name": "wstETHScale",
      "outputs": [
        {
          "internalType": "int256",
          "name": "",
          "type": "int256"
        }
      ],
      "stateMutability": "view",
      "type": "function"
    },
    {
      "inputs": [],
      "name": "latestRoundData",
      "outputs": [
        {
          "internalType": "uint80",
          "name": "roundId",
          "type": "uint80"
        },
        {
          "internalType": "int256",
          "name": "answer",
          "type": "int256"
        },
        {
          "internalType": "uint256",
          "name": "startedAt",
          "type": "uint256"
        },
        {
          "internalType": "uint256",
          "name": "updatedAt",
          "type": "uint256"
        },
        {
          "internalType": "uint80",
          "name": "answeredInRound",
          "type": "uint80"
        }
      ],
      "stateMutability": "view",
      "type": "function"
    }
  ],
  "bytecode": "0x6101206040818152346101e257606082610899803803809161002182856101e7565b8339810103126101e25761003482610220565b602061004c83610045838701610220565b9501610234565b938260a052835163313ce56760e01b90818152838160048160018060a01b038099165afa9081156101d7579084939291600091610198575b509060ff6004921660c0528260e052865195869384928352165afa90811561018d57600091610155575b5060ff91501691604d831161013f5761010092600a0a835260c05160ff82161161012e5760805251610656918261024383396080518281816101a801526104ec015260a05182818160a8015261036e015260c0518281816101cc0152610528015260e05182818160f601526104a301525181818161012901526105620152f35b8151630456c65960e51b8152600490fd5b634e487b7160e01b600052601160045260246000fd5b82813d8311610186575b61016981836101e7565b81010312610183575061017d60ff91610234565b386100ae565b80fd5b503d61015f565b83513d6000823e3d90fd5b91929382813d83116101d0575b6101af81836101e7565b81010312610183575083929160ff6101c8600493610234565b919250610084565b503d6101a5565b86513d6000823e3d90fd5b600080fd5b601f909101601f19168101906001600160401b0382119082101761020a57604052565b634e487b7160e01b600052604160045260246000fd5b51906001600160a01b03821682036101e257565b519060ff821682036101e25756fe608060408181526004918236101561001657600080fd5b600090813560e01c90816317f098ca1461054b5750806322c2b36c14610510578063313ce567146104d25780634aa07e641461048e57806354fd4d50146104725780637284e416146103a1578063ed1a68d1146103595763feaf968c1461007c57600080fd5b346103565780600319360112610356578151633fabe5a360e21b81526001600160a01b039060a08186817f000000000000000000000000000000000000000000000000000000000000000086165afa91821561034c578380878293839584976102e7575b506020908951928380926312aed41960e31b82527f0000000000000000000000000000000000000000000000000000000000000000165afa9081156102dd5783916102a8575b507f00000000000000000000000000000000000000000000000000000000000000006001600160ff1b0384841385831381811684840487111661028157600160ff1b918785129190821687840586121661029457848888129305871290831616610281571682820585121661026e57821161025e576101a592026105d9565b907f000000000000000000000000000000000000000000000000000000000000000060ff167f000000000000000000000000000000000000000000000000000000000000000081811061024b570390604d8211610238575060a097509061020f91600a0a906105d9565b9480519569ffffffffffffffffffff809616875260208701528501526060840152166080820152f35b634e487b7160e01b815260118952602490fd5b634e487b7160e01b835260118a52602483fd5b885163e7e828ad60e01b81528a90fd5b634e487b7160e01b855260118b52602485fd5b634e487b7160e01b875260118d52602487fd5b50634e487b7160e01b875260118d52602487fd5b90506020813d82116102d5575b816102c260209383610585565b810103126102d1575138610126565b8280fd5b3d91506102b5565b88513d85823e3d90fd5b95509550505093505060a0813d8211610344575b8161030860a09383610585565b810103126102d157610319816105bd565b90602081015193858201518760206103386080606087015196016105bd565b959792949596906100e0565b3d91506102fb565b84513d85823e3d90fd5b80fd5b50903461039d578160031936011261039d57517f00000000000000000000000000000000000000000000000000000000000000006001600160a01b03168152602090f35b5080fd5b5034610356578060031936011261035657815192606084019084821067ffffffffffffffff83111761045f57508293919352602281526020907f437573746f6d207072696365206665656420666f7220777374455448202f204582820152610a8960f31b838201528251938285938452825192838286015282915b848310610447575050821061043b575b50601f01601f19168101030190f35b8382840101523861042c565b8183018101518884018801528795509182019161041c565b634e487b7160e01b835260419052602482fd5b50903461039d578160031936011261039d576020905160018152f35b50903461039d578160031936011261039d57517f00000000000000000000000000000000000000000000000000000000000000006001600160a01b03168152602090f35b50903461039d578160031936011261039d576020905160ff7f0000000000000000000000000000000000000000000000000000000000000000168152f35b50903461039d578160031936011261039d57602090517f00000000000000000000000000000000000000000000000000000000000000008152f35b90503461039d578160031936011261039d576020907f00000000000000000000000000000000000000000000000000000000000000008152f35b90601f8019910116810190811067ffffffffffffffff8211176105a757604052565b634e487b7160e01b600052604160045260246000fd5b519069ffffffffffffffffffff821682036105d457565b600080fd5b811561060a57600160ff1b81146000198314166105f4570590565b634e487b7160e01b600052601160045260246000fd5b634e487b7160e01b600052601260045260246000fdfea2646970667358221220bc3bc6ae5898c504064e042b7b3404c820875cc1830bde384252430dbbb6025864736f6c634300080f0033",
  "immutableReferences": {
    "14853": [
      {
        "length": 32,
        "start": 424
      },
      {
        "length": 32,
        "start": 1260
      }
    ],
    "14856": [
      {
        "length": 32,
        "start": 168
      },
      {
        "length": 32,
        "start": 878
      }
    ],
    "14859": [
      {
        "length": 32,
        "start": 460
      },
      {
        "length": 32,
        "start": 1320
      }
    ],
    "14862": [
      {
        "length": 32,
        "start": 246
      },
      {
        "length": 32,
        "start": 1187
      }
    ],
    "14865": [
      {
        "length": 32,
        "start": 297
      },
      {
        "length": 32,
        "start": 1378
      }
    ]
  },
  "source": "// SPDX-License-Identifier: BUSL-1.1\npragma solidity 0.8.15;\n\nimport \"../vendor/@chainlink/contracts/src/v0.8/interfaces/AggregatorV3Interface.sol\";\nimport \"../IPriceFeed.sol\";\nimport \"../IWstETH.sol\";\n\n/**\n * @title wstETH price feed\n * @notice A custom price feed that calculates the price for wstETH / ETH\n * @author Compound\n */\ncontract WstETHPriceFeed is IPriceFeed {\n    /** Custom errors **/\n    error BadDecimals();\n    error InvalidInt256();\n\n    /// @notice Version of the price feed\n    uint public constant override version = 1;\n\n    /// @notice Description of the price feed\n    string public constant override description = \"Custom price feed for wstETH / ETH\";\n\n    /// @notice Number of decimals for returned prices\n    uint8 public immutable override decimals;\n\n    /// @notice Chainlink stETH / ETH price feed\n    address public immutable stETHtoETHPriceFeed;\n\n    /// @notice Number of decimals for the stETH / ETH price feed\n    uint public immutable stETHToETHPriceFeedDecimals;\n\n    /// @notice WstETH contract address\n    address public immutable wstETH;\n\n    /// @notice Scale for WstETH contract\n    int public immutable wstETHScale;\n\n    constructor(address stETHtoETHPriceFeed_, address wstETH_, uint8 decimals_) {\n        stETHtoETHPriceFeed = stETHtoETHPriceFeed_;\n        stETHToETHPriceFeedDecimals = AggregatorV3Interface(stETHtoETHPriceFeed_).decimals();\n        wstETH = wstETH_;\n        // Note: Safe to convert directly to an int256 because wstETH.decimals == 18\n        wstETHScale = int256(10 ** IWstETH(wstETH).decimals());\n\n        // Note: stETH / ETH price feed has 18 decimals so `decimals_` should always be less than or equals to that\n        if (decimals_ > stETHToETHPriceFeedDecimals) revert BadDecimals();\n        decimals = decimals_;\n    }\n\n    function signed256(uint256 n) internal pure returns (int256) {\n        if (n > uint256(type(int256).max)) revert InvalidInt256();\n        return int256(n);\n    }\n\n    /**\n     * @notice WstETH price for the latest round\n     * @return roundId Round id from the stETH price feed\n     * @return answer Latest price for wstETH / USD\n     * @return startedAt Timestamp when the round was started; passed on from stETH price feed\n     * @return updatedAt Timestamp when the round was last updated; passed on from stETH price feed\n     * @return answeredInRound Round id in which the answer was computed; passed on from stETH price feed\n     **/\n    function latestRoundData() override external view returns (\n        uint80 roundId,\n        int256 answer,\n        uint256 startedAt,\n        uint256 updatedAt,\n        uint80 answeredInRound\n    ) {\n        (uint80 roundId_, int256 stETHPrice, uint256 startedAt_, uint256 updatedAt_, uint80 answeredInRound_) = AggregatorV3Interface(stETHtoETHPriceFeed).latestRoundData();\n        uint256 tokensPerStEth = IWstETH(wstETH).tokensPerStEth();\n        int256 price = stETHPrice * wstETHScale / signed256(tokensPerStEth);\n        // Note: The stETH price feed should always have an equal or larger amount of decimals than this price feed (enforced by validation in constructor)\n        int256 scaledPrice = price / int256(10 ** (stETHToETHPriceFeedDecimals - decimals));\n        return (roundId_, scaledPrice, startedAt_, updatedAt_, answeredInRound_);\n    }\n}",
  "sourcePath": "/home/stephensb/sb-labs/solidity-contracts/contracts/comet/contracts/pricefeeds/WstETHPriceFeed.sol",
  "compiler": {
    "name": "solc",
    "version": "0.8.15+commit.e14f2714.Emscripten.clang"
  },
  "schemaVersion": "3.4.12",
  "updatedAt": "2023-11-30T22:41:29.716Z",
  "devdoc": {
    "author": "Compound",
    "kind": "dev",
    "methods": {
      "latestRoundData()": {
        "returns": {
          "answer": "Latest price for wstETH / USD",
          "answeredInRound": "Round id in which the answer was computed; passed on from stETH price feed*",
          "roundId": "Round id from the stETH price feed",
          "startedAt": "Timestamp when the round was started; passed on from stETH price feed",
          "updatedAt": "Timestamp when the round was last updated; passed on from stETH price feed"
        }
      }
    },
    "title": "wstETH price feed",
    "version": 1
  },
  "userdoc": {
    "errors": {
      "BadDecimals()": [
        {
          "notice": "Custom errors *"
        }
      ]
    },
    "kind": "user",
    "methods": {
      "decimals()": {
        "notice": "Number of decimals for returned prices"
      },
      "description()": {
        "notice": "Description of the price feed"
      },
      "latestRoundData()": {
        "notice": "WstETH price for the latest round"
      },
      "stETHToETHPriceFeedDecimals()": {
        "notice": "Number of decimals for the stETH / ETH price feed"
      },
      "stETHtoETHPriceFeed()": {
        "notice": "Chainlink stETH / ETH price feed"
      },
      "version()": {
        "notice": "Version of the price feed"
      },
      "wstETH()": {
        "notice": "WstETH contract address"
      },
      "wstETHScale()": {
        "notice": "Scale for WstETH contract"
      }
    },
    "notice": "A custom price feed that calculates the price for wstETH / ETH",
    "version": 1
  }
}